{
	"LABS 22 Aug/Task All 22.sol": {
		"Payable": {
			"abi": [
				{
					"inputs": [],
					"stateMutability": "payable",
					"type": "constructor"
				},
				{
					"inputs": [],
					"name": "deposite",
					"outputs": [
						{
							"internalType": "uint256",
							"name": "account",
							"type": "uint256"
						},
						{
							"internalType": "uint256",
							"name": "cont",
							"type": "uint256"
						}
					],
					"stateMutability": "payable",
					"type": "function"
				},
				{
					"inputs": [],
					"name": "notPayable",
					"outputs": [
						{
							"internalType": "uint256",
							"name": "account",
							"type": "uint256"
						},
						{
							"internalType": "uint256",
							"name": "cont",
							"type": "uint256"
						}
					],
					"stateMutability": "view",
					"type": "function"
				},
				{
					"inputs": [],
					"name": "owner",
					"outputs": [
						{
							"internalType": "address payable",
							"name": "",
							"type": "address"
						}
					],
					"stateMutability": "view",
					"type": "function"
				}
			],
			"devdoc": {
				"kind": "dev",
				"methods": {},
				"version": 1
			},
			"evm": {
				"assembly": "    /* \"LABS 22 Aug/Task All 22.sol\":1299:1742  contract Payable {... */\n  mstore(0x40, 0x80)\n    /* \"LABS 22 Aug/Task All 22.sol\":1405:1415  msg.sender */\n  caller\n    /* \"LABS 22 Aug/Task All 22.sol\":1389:1394  owner */\n  0x00\n  dup1\n    /* \"LABS 22 Aug/Task All 22.sol\":1389:1416  owner = payable(msg.sender) */\n  0x0100\n  exp\n  dup2\n  sload\n  dup2\n  0xffffffffffffffffffffffffffffffffffffffff\n  mul\n  not\n  and\n  swap1\n  dup4\n  0xffffffffffffffffffffffffffffffffffffffff\n  and\n  mul\n  or\n  swap1\n  sstore\n  pop\n    /* \"LABS 22 Aug/Task All 22.sol\":1299:1742  contract Payable {... */\n  dataSize(sub_0)\n  dup1\n  dataOffset(sub_0)\n  0x00\n  codecopy\n  0x00\n  return\nstop\n\nsub_0: assembly {\n        /* \"LABS 22 Aug/Task All 22.sol\":1299:1742  contract Payable {... */\n      mstore(0x40, 0x80)\n      jumpi(tag_1, lt(calldatasize, 0x04))\n      shr(0xe0, calldataload(0x00))\n      dup1\n      0x273884bd\n      eq\n      tag_2\n      jumpi\n      dup1\n      0x8da5cb5b\n      eq\n      tag_3\n      jumpi\n      dup1\n      0xa50ec326\n      eq\n      tag_4\n      jumpi\n    tag_1:\n      0x00\n      dup1\n      revert\n        /* \"LABS 22 Aug/Task All 22.sol\":1588:1740  function notPayable() public view returns (uint256 account, uint256 cont) {... */\n    tag_2:\n      callvalue\n      dup1\n      iszero\n      tag_5\n      jumpi\n      0x00\n      dup1\n      revert\n    tag_5:\n      pop\n      tag_6\n      tag_7\n      jump\t// in\n    tag_6:\n      mload(0x40)\n      tag_8\n      swap3\n      swap2\n      swap1\n      tag_9\n      jump\t// in\n    tag_8:\n      mload(0x40)\n      dup1\n      swap2\n      sub\n      swap1\n      return\n        /* \"LABS 22 Aug/Task All 22.sol\":1322:1350  address payable public owner */\n    tag_3:\n      callvalue\n      dup1\n      iszero\n      tag_10\n      jumpi\n      0x00\n      dup1\n      revert\n    tag_10:\n      pop\n      tag_11\n      tag_12\n      jump\t// in\n    tag_11:\n      mload(0x40)\n      tag_13\n      swap2\n      swap1\n      tag_14\n      jump\t// in\n    tag_13:\n      mload(0x40)\n      dup1\n      swap2\n      sub\n      swap1\n      return\n        /* \"LABS 22 Aug/Task All 22.sol\":1429:1582  function deposite() public payable returns (uint256 account, uint256 cont) {... */\n    tag_4:\n      tag_15\n      tag_16\n      jump\t// in\n    tag_15:\n      mload(0x40)\n      tag_17\n      swap3\n      swap2\n      swap1\n      tag_9\n      jump\t// in\n    tag_17:\n      mload(0x40)\n      dup1\n      swap2\n      sub\n      swap1\n      return\n        /* \"LABS 22 Aug/Task All 22.sol\":1588:1740  function notPayable() public view returns (uint256 account, uint256 cont) {... */\n    tag_7:\n        /* \"LABS 22 Aug/Task All 22.sol\":1631:1646  uint256 account */\n      0x00\n        /* \"LABS 22 Aug/Task All 22.sol\":1648:1660  uint256 cont */\n      dup1\n        /* \"LABS 22 Aug/Task All 22.sol\":1679:1700  address(this).balance */\n      selfbalance\n        /* \"LABS 22 Aug/Task All 22.sol\":1672:1700  cont = address(this).balance */\n      swap1\n      pop\n        /* \"LABS 22 Aug/Task All 22.sol\":1720:1725  owner */\n      0x00\n      dup1\n      sload\n      swap1\n      0x0100\n      exp\n      swap1\n      div\n      0xffffffffffffffffffffffffffffffffffffffff\n      and\n        /* \"LABS 22 Aug/Task All 22.sol\":1720:1733  owner.balance */\n      0xffffffffffffffffffffffffffffffffffffffff\n      and\n      balance\n        /* \"LABS 22 Aug/Task All 22.sol\":1710:1733  account = owner.balance */\n      swap2\n      pop\n        /* \"LABS 22 Aug/Task All 22.sol\":1588:1740  function notPayable() public view returns (uint256 account, uint256 cont) {... */\n      swap1\n      swap2\n      jump\t// out\n        /* \"LABS 22 Aug/Task All 22.sol\":1322:1350  address payable public owner */\n    tag_12:\n      0x00\n      dup1\n      sload\n      swap1\n      0x0100\n      exp\n      swap1\n      div\n      0xffffffffffffffffffffffffffffffffffffffff\n      and\n      dup2\n      jump\t// out\n        /* \"LABS 22 Aug/Task All 22.sol\":1429:1582  function deposite() public payable returns (uint256 account, uint256 cont) {... */\n    tag_16:\n        /* \"LABS 22 Aug/Task All 22.sol\":1473:1488  uint256 account */\n      0x00\n        /* \"LABS 22 Aug/Task All 22.sol\":1490:1502  uint256 cont */\n      dup1\n        /* \"LABS 22 Aug/Task All 22.sol\":1521:1542  address(this).balance */\n      selfbalance\n        /* \"LABS 22 Aug/Task All 22.sol\":1514:1542  cont = address(this).balance */\n      swap1\n      pop\n        /* \"LABS 22 Aug/Task All 22.sol\":1562:1567  owner */\n      0x00\n      dup1\n      sload\n      swap1\n      0x0100\n      exp\n      swap1\n      div\n      0xffffffffffffffffffffffffffffffffffffffff\n      and\n        /* \"LABS 22 Aug/Task All 22.sol\":1562:1575  owner.balance */\n      0xffffffffffffffffffffffffffffffffffffffff\n      and\n      balance\n        /* \"LABS 22 Aug/Task All 22.sol\":1552:1575  account = owner.balance */\n      swap2\n      pop\n        /* \"LABS 22 Aug/Task All 22.sol\":1429:1582  function deposite() public payable returns (uint256 account, uint256 cont) {... */\n      swap1\n      swap2\n      jump\t// out\n        /* \"#utility.yul\":7:84   */\n    tag_20:\n        /* \"#utility.yul\":44:51   */\n      0x00\n        /* \"#utility.yul\":73:78   */\n      dup2\n        /* \"#utility.yul\":62:78   */\n      swap1\n      pop\n        /* \"#utility.yul\":7:84   */\n      swap2\n      swap1\n      pop\n      jump\t// out\n        /* \"#utility.yul\":90:208   */\n    tag_21:\n        /* \"#utility.yul\":177:201   */\n      tag_28\n        /* \"#utility.yul\":195:200   */\n      dup2\n        /* \"#utility.yul\":177:201   */\n      tag_20\n      jump\t// in\n    tag_28:\n        /* \"#utility.yul\":172:175   */\n      dup3\n        /* \"#utility.yul\":165:202   */\n      mstore\n        /* \"#utility.yul\":90:208   */\n      pop\n      pop\n      jump\t// out\n        /* \"#utility.yul\":214:546   */\n    tag_9:\n        /* \"#utility.yul\":335:339   */\n      0x00\n        /* \"#utility.yul\":373:375   */\n      0x40\n        /* \"#utility.yul\":362:371   */\n      dup3\n        /* \"#utility.yul\":358:376   */\n      add\n        /* \"#utility.yul\":350:376   */\n      swap1\n      pop\n        /* \"#utility.yul\":386:457   */\n      tag_30\n        /* \"#utility.yul\":454:455   */\n      0x00\n        /* \"#utility.yul\":443:452   */\n      dup4\n        /* \"#utility.yul\":439:456   */\n      add\n        /* \"#utility.yul\":430:436   */\n      dup6\n        /* \"#utility.yul\":386:457   */\n      tag_21\n      jump\t// in\n    tag_30:\n        /* \"#utility.yul\":467:539   */\n      tag_31\n        /* \"#utility.yul\":535:537   */\n      0x20\n        /* \"#utility.yul\":524:533   */\n      dup4\n        /* \"#utility.yul\":520:538   */\n      add\n        /* \"#utility.yul\":511:517   */\n      dup5\n        /* \"#utility.yul\":467:539   */\n      tag_21\n      jump\t// in\n    tag_31:\n        /* \"#utility.yul\":214:546   */\n      swap4\n      swap3\n      pop\n      pop\n      pop\n      jump\t// out\n        /* \"#utility.yul\":552:678   */\n    tag_22:\n        /* \"#utility.yul\":589:596   */\n      0x00\n        /* \"#utility.yul\":629:671   */\n      0xffffffffffffffffffffffffffffffffffffffff\n        /* \"#utility.yul\":622:627   */\n      dup3\n        /* \"#utility.yul\":618:672   */\n      and\n        /* \"#utility.yul\":607:672   */\n      swap1\n      pop\n        /* \"#utility.yul\":552:678   */\n      swap2\n      swap1\n      pop\n      jump\t// out\n        /* \"#utility.yul\":684:788   */\n    tag_23:\n        /* \"#utility.yul\":729:736   */\n      0x00\n        /* \"#utility.yul\":758:782   */\n      tag_34\n        /* \"#utility.yul\":776:781   */\n      dup3\n        /* \"#utility.yul\":758:782   */\n      tag_22\n      jump\t// in\n    tag_34:\n        /* \"#utility.yul\":747:782   */\n      swap1\n      pop\n        /* \"#utility.yul\":684:788   */\n      swap2\n      swap1\n      pop\n      jump\t// out\n        /* \"#utility.yul\":794:936   */\n    tag_24:\n        /* \"#utility.yul\":897:929   */\n      tag_36\n        /* \"#utility.yul\":923:928   */\n      dup2\n        /* \"#utility.yul\":897:929   */\n      tag_23\n      jump\t// in\n    tag_36:\n        /* \"#utility.yul\":892:895   */\n      dup3\n        /* \"#utility.yul\":885:930   */\n      mstore\n        /* \"#utility.yul\":794:936   */\n      pop\n      pop\n      jump\t// out\n        /* \"#utility.yul\":942:1196   */\n    tag_14:\n        /* \"#utility.yul\":1051:1055   */\n      0x00\n        /* \"#utility.yul\":1089:1091   */\n      0x20\n        /* \"#utility.yul\":1078:1087   */\n      dup3\n        /* \"#utility.yul\":1074:1092   */\n      add\n        /* \"#utility.yul\":1066:1092   */\n      swap1\n      pop\n        /* \"#utility.yul\":1102:1189   */\n      tag_38\n        /* \"#utility.yul\":1186:1187   */\n      0x00\n        /* \"#utility.yul\":1175:1184   */\n      dup4\n        /* \"#utility.yul\":1171:1188   */\n      add\n        /* \"#utility.yul\":1162:1168   */\n      dup5\n        /* \"#utility.yul\":1102:1189   */\n      tag_24\n      jump\t// in\n    tag_38:\n        /* \"#utility.yul\":942:1196   */\n      swap3\n      swap2\n      pop\n      pop\n      jump\t// out\n\n    auxdata: 0xa26469706673582212208a2ad095da17cfca473f2a7b002244ce41a7d84971659c0c966cddf65623a88d64736f6c63430008120033\n}\n",
				"bytecode": {
					"linkReferences": {},
					"object": "6080604052336000806101000a81548173ffffffffffffffffffffffffffffffffffffffff021916908373ffffffffffffffffffffffffffffffffffffffff16021790555061022f806100536000396000f3fe6080604052600436106100345760003560e01c8063273884bd146100395780638da5cb5b14610065578063a50ec32614610090575b600080fd5b34801561004557600080fd5b5061004e6100af565b60405161005c929190610174565b60405180910390f35b34801561007157600080fd5b5061007a6100f3565b60405161008791906101de565b60405180910390f35b610098610117565b6040516100a6929190610174565b60405180910390f35b60008047905060008054906101000a900473ffffffffffffffffffffffffffffffffffffffff1673ffffffffffffffffffffffffffffffffffffffff163191509091565b60008054906101000a900473ffffffffffffffffffffffffffffffffffffffff1681565b60008047905060008054906101000a900473ffffffffffffffffffffffffffffffffffffffff1673ffffffffffffffffffffffffffffffffffffffff163191509091565b6000819050919050565b61016e8161015b565b82525050565b60006040820190506101896000830185610165565b6101966020830184610165565b9392505050565b600073ffffffffffffffffffffffffffffffffffffffff82169050919050565b60006101c88261019d565b9050919050565b6101d8816101bd565b82525050565b60006020820190506101f360008301846101cf565b9291505056fea26469706673582212208a2ad095da17cfca473f2a7b002244ce41a7d84971659c0c966cddf65623a88d64736f6c63430008120033",
					"opcodes": "PUSH1 0x80 PUSH1 0x40 MSTORE CALLER PUSH1 0x0 DUP1 PUSH2 0x100 EXP DUP2 SLOAD DUP2 PUSH20 0xFFFFFFFFFFFFFFFFFFFFFFFFFFFFFFFFFFFFFFFF MUL NOT AND SWAP1 DUP4 PUSH20 0xFFFFFFFFFFFFFFFFFFFFFFFFFFFFFFFFFFFFFFFF AND MUL OR SWAP1 SSTORE POP PUSH2 0x22F DUP1 PUSH2 0x53 PUSH1 0x0 CODECOPY PUSH1 0x0 RETURN INVALID PUSH1 0x80 PUSH1 0x40 MSTORE PUSH1 0x4 CALLDATASIZE LT PUSH2 0x34 JUMPI PUSH1 0x0 CALLDATALOAD PUSH1 0xE0 SHR DUP1 PUSH4 0x273884BD EQ PUSH2 0x39 JUMPI DUP1 PUSH4 0x8DA5CB5B EQ PUSH2 0x65 JUMPI DUP1 PUSH4 0xA50EC326 EQ PUSH2 0x90 JUMPI JUMPDEST PUSH1 0x0 DUP1 REVERT JUMPDEST CALLVALUE DUP1 ISZERO PUSH2 0x45 JUMPI PUSH1 0x0 DUP1 REVERT JUMPDEST POP PUSH2 0x4E PUSH2 0xAF JUMP JUMPDEST PUSH1 0x40 MLOAD PUSH2 0x5C SWAP3 SWAP2 SWAP1 PUSH2 0x174 JUMP JUMPDEST PUSH1 0x40 MLOAD DUP1 SWAP2 SUB SWAP1 RETURN JUMPDEST CALLVALUE DUP1 ISZERO PUSH2 0x71 JUMPI PUSH1 0x0 DUP1 REVERT JUMPDEST POP PUSH2 0x7A PUSH2 0xF3 JUMP JUMPDEST PUSH1 0x40 MLOAD PUSH2 0x87 SWAP2 SWAP1 PUSH2 0x1DE JUMP JUMPDEST PUSH1 0x40 MLOAD DUP1 SWAP2 SUB SWAP1 RETURN JUMPDEST PUSH2 0x98 PUSH2 0x117 JUMP JUMPDEST PUSH1 0x40 MLOAD PUSH2 0xA6 SWAP3 SWAP2 SWAP1 PUSH2 0x174 JUMP JUMPDEST PUSH1 0x40 MLOAD DUP1 SWAP2 SUB SWAP1 RETURN JUMPDEST PUSH1 0x0 DUP1 SELFBALANCE SWAP1 POP PUSH1 0x0 DUP1 SLOAD SWAP1 PUSH2 0x100 EXP SWAP1 DIV PUSH20 0xFFFFFFFFFFFFFFFFFFFFFFFFFFFFFFFFFFFFFFFF AND PUSH20 0xFFFFFFFFFFFFFFFFFFFFFFFFFFFFFFFFFFFFFFFF AND BALANCE SWAP2 POP SWAP1 SWAP2 JUMP JUMPDEST PUSH1 0x0 DUP1 SLOAD SWAP1 PUSH2 0x100 EXP SWAP1 DIV PUSH20 0xFFFFFFFFFFFFFFFFFFFFFFFFFFFFFFFFFFFFFFFF AND DUP2 JUMP JUMPDEST PUSH1 0x0 DUP1 SELFBALANCE SWAP1 POP PUSH1 0x0 DUP1 SLOAD SWAP1 PUSH2 0x100 EXP SWAP1 DIV PUSH20 0xFFFFFFFFFFFFFFFFFFFFFFFFFFFFFFFFFFFFFFFF AND PUSH20 0xFFFFFFFFFFFFFFFFFFFFFFFFFFFFFFFFFFFFFFFF AND BALANCE SWAP2 POP SWAP1 SWAP2 JUMP JUMPDEST PUSH1 0x0 DUP2 SWAP1 POP SWAP2 SWAP1 POP JUMP JUMPDEST PUSH2 0x16E DUP2 PUSH2 0x15B JUMP JUMPDEST DUP3 MSTORE POP POP JUMP JUMPDEST PUSH1 0x0 PUSH1 0x40 DUP3 ADD SWAP1 POP PUSH2 0x189 PUSH1 0x0 DUP4 ADD DUP6 PUSH2 0x165 JUMP JUMPDEST PUSH2 0x196 PUSH1 0x20 DUP4 ADD DUP5 PUSH2 0x165 JUMP JUMPDEST SWAP4 SWAP3 POP POP POP JUMP JUMPDEST PUSH1 0x0 PUSH20 0xFFFFFFFFFFFFFFFFFFFFFFFFFFFFFFFFFFFFFFFF DUP3 AND SWAP1 POP SWAP2 SWAP1 POP JUMP JUMPDEST PUSH1 0x0 PUSH2 0x1C8 DUP3 PUSH2 0x19D JUMP JUMPDEST SWAP1 POP SWAP2 SWAP1 POP JUMP JUMPDEST PUSH2 0x1D8 DUP2 PUSH2 0x1BD JUMP JUMPDEST DUP3 MSTORE POP POP JUMP JUMPDEST PUSH1 0x0 PUSH1 0x20 DUP3 ADD SWAP1 POP PUSH2 0x1F3 PUSH1 0x0 DUP4 ADD DUP5 PUSH2 0x1CF JUMP JUMPDEST SWAP3 SWAP2 POP POP JUMP INVALID LOG2 PUSH5 0x6970667358 0x22 SLT KECCAK256 DUP11 0x2A 0xD0 SWAP6 0xDA OR 0xCF 0xCA SELFBALANCE EXTCODEHASH 0x2A PUSH28 0x2244CE41A7D84971659C0C966CDDF65623A88D64736F6C63430008 SLT STOP CALLER "
				},
				"gasEstimates": {
					"creation": {
						"codeDepositCost": "111800",
						"executionCost": "24401",
						"totalCost": "136201"
					},
					"external": {
						"deposite()": "infinite",
						"notPayable()": "infinite",
						"owner()": "2511"
					}
				},
				"methodIdentifiers": {
					"deposite()": "a50ec326",
					"notPayable()": "273884bd",
					"owner()": "8da5cb5b"
				}
			},
			"storageLayout": {
				"storage": [
					{
						"astId": 143,
						"contract": "LABS 22 Aug/Task All 22.sol:Payable",
						"label": "owner",
						"offset": 0,
						"slot": "0",
						"type": "t_address_payable"
					}
				],
				"types": {
					"t_address_payable": {
						"encoding": "inplace",
						"label": "address payable",
						"numberOfBytes": "20"
					}
				}
			},
			"userdoc": {
				"kind": "user",
				"methods": {},
				"version": 1
			}
		}
	}
}