{
	"LABS 22 Aug/Task All 22.sol": {
		"TokenContract": {
			"abi": [
				{
					"inputs": [
						{
							"internalType": "address",
							"name": "",
							"type": "address"
						}
					],
					"name": "balances",
					"outputs": [
						{
							"internalType": "uint256",
							"name": "",
							"type": "uint256"
						}
					],
					"stateMutability": "view",
					"type": "function"
				},
				{
					"inputs": [
						{
							"internalType": "address",
							"name": "to",
							"type": "address"
						},
						{
							"internalType": "uint256",
							"name": "amount",
							"type": "uint256"
						}
					],
					"name": "transfer",
					"outputs": [],
					"stateMutability": "nonpayable",
					"type": "function"
				}
			],
			"devdoc": {
				"kind": "dev",
				"methods": {},
				"version": 1
			},
			"evm": {
				"assembly": "    /* \"LABS 22 Aug/Task All 22.sol\":926:1287  contract TokenContract is Token {... */\n  mstore(0x40, 0x80)\n  callvalue\n  dup1\n  iszero\n  tag_1\n  jumpi\n  0x00\n  dup1\n  revert\ntag_1:\n  pop\n  dataSize(sub_0)\n  dup1\n  dataOffset(sub_0)\n  0x00\n  codecopy\n  0x00\n  return\nstop\n\nsub_0: assembly {\n        /* \"LABS 22 Aug/Task All 22.sol\":926:1287  contract TokenContract is Token {... */\n      mstore(0x40, 0x80)\n      callvalue\n      dup1\n      iszero\n      tag_1\n      jumpi\n      0x00\n      dup1\n      revert\n    tag_1:\n      pop\n      jumpi(tag_2, lt(calldatasize, 0x04))\n      shr(0xe0, calldataload(0x00))\n      dup1\n      0x27e235e3\n      eq\n      tag_3\n      jumpi\n      dup1\n      0xa9059cbb\n      eq\n      tag_4\n      jumpi\n    tag_2:\n      0x00\n      dup1\n      revert\n        /* \"LABS 22 Aug/Task All 22.sol\":964:1007  mapping(address => uint256) public balances */\n    tag_3:\n      tag_5\n      0x04\n      dup1\n      calldatasize\n      sub\n      dup2\n      add\n      swap1\n      tag_6\n      swap2\n      swap1\n      tag_7\n      jump\t// in\n    tag_6:\n      tag_8\n      jump\t// in\n    tag_5:\n      mload(0x40)\n      tag_9\n      swap2\n      swap1\n      tag_10\n      jump\t// in\n    tag_9:\n      mload(0x40)\n      dup1\n      swap2\n      sub\n      swap1\n      return\n        /* \"LABS 22 Aug/Task All 22.sol\":1014:1285  function transfer(address to, uint256 amount) external override {... */\n    tag_4:\n      tag_11\n      0x04\n      dup1\n      calldatasize\n      sub\n      dup2\n      add\n      swap1\n      tag_12\n      swap2\n      swap1\n      tag_13\n      jump\t// in\n    tag_12:\n      tag_14\n      jump\t// in\n    tag_11:\n      stop\n        /* \"LABS 22 Aug/Task All 22.sol\":964:1007  mapping(address => uint256) public balances */\n    tag_8:\n      mstore(0x20, 0x00)\n      dup1\n      0x00\n      mstore\n      keccak256(0x00, 0x40)\n      0x00\n      swap2\n      pop\n      swap1\n      pop\n      sload\n      dup2\n      jump\t// out\n        /* \"LABS 22 Aug/Task All 22.sol\":1014:1285  function transfer(address to, uint256 amount) external override {... */\n    tag_14:\n        /* \"LABS 22 Aug/Task All 22.sol\":1110:1111  0 */\n      0x00\n        /* \"LABS 22 Aug/Task All 22.sol\":1096:1112  to != address(0) */\n      0xffffffffffffffffffffffffffffffffffffffff\n      and\n        /* \"LABS 22 Aug/Task All 22.sol\":1096:1098  to */\n      dup3\n        /* \"LABS 22 Aug/Task All 22.sol\":1096:1112  to != address(0) */\n      0xffffffffffffffffffffffffffffffffffffffff\n      and\n      sub\n        /* \"LABS 22 Aug/Task All 22.sol\":1088:1132  require(to != address(0), \"Invalid address\") */\n      tag_16\n      jumpi\n      mload(0x40)\n      0x08c379a000000000000000000000000000000000000000000000000000000000\n      dup2\n      mstore\n      0x04\n      add\n      tag_17\n      swap1\n      tag_18\n      jump\t// in\n    tag_17:\n      mload(0x40)\n      dup1\n      swap2\n      sub\n      swap1\n      revert\n    tag_16:\n        /* \"LABS 22 Aug/Task All 22.sol\":1174:1180  amount */\n      dup1\n        /* \"LABS 22 Aug/Task All 22.sol\":1150:1158  balances */\n      0x00\n        /* \"LABS 22 Aug/Task All 22.sol\":1150:1170  balances[msg.sender] */\n      dup1\n        /* \"LABS 22 Aug/Task All 22.sol\":1159:1169  msg.sender */\n      caller\n        /* \"LABS 22 Aug/Task All 22.sol\":1150:1170  balances[msg.sender] */\n      0xffffffffffffffffffffffffffffffffffffffff\n      and\n      0xffffffffffffffffffffffffffffffffffffffff\n      and\n      dup2\n      mstore\n      0x20\n      add\n      swap1\n      dup2\n      mstore\n      0x20\n      add\n      0x00\n      keccak256\n      sload\n        /* \"LABS 22 Aug/Task All 22.sol\":1150:1180  balances[msg.sender] >= amount */\n      lt\n      iszero\n        /* \"LABS 22 Aug/Task All 22.sol\":1142:1205  require(balances[msg.sender] >= amount, \"Insufficient balance\") */\n      tag_19\n      jumpi\n      mload(0x40)\n      0x08c379a000000000000000000000000000000000000000000000000000000000\n      dup2\n      mstore\n      0x04\n      add\n      tag_20\n      swap1\n      tag_21\n      jump\t// in\n    tag_20:\n      mload(0x40)\n      dup1\n      swap2\n      sub\n      swap1\n      revert\n    tag_19:\n        /* \"LABS 22 Aug/Task All 22.sol\":1240:1246  amount */\n      dup1\n        /* \"LABS 22 Aug/Task All 22.sol\":1216:1224  balances */\n      0x00\n        /* \"LABS 22 Aug/Task All 22.sol\":1216:1236  balances[msg.sender] */\n      dup1\n        /* \"LABS 22 Aug/Task All 22.sol\":1225:1235  msg.sender */\n      caller\n        /* \"LABS 22 Aug/Task All 22.sol\":1216:1236  balances[msg.sender] */\n      0xffffffffffffffffffffffffffffffffffffffff\n      and\n      0xffffffffffffffffffffffffffffffffffffffff\n      and\n      dup2\n      mstore\n      0x20\n      add\n      swap1\n      dup2\n      mstore\n      0x20\n      add\n      0x00\n      keccak256\n      0x00\n        /* \"LABS 22 Aug/Task All 22.sol\":1216:1246  balances[msg.sender] -= amount */\n      dup3\n      dup3\n      sload\n      tag_22\n      swap2\n      swap1\n      tag_23\n      jump\t// in\n    tag_22:\n      swap3\n      pop\n      pop\n      dup2\n      swap1\n      sstore\n      pop\n        /* \"LABS 22 Aug/Task All 22.sol\":1272:1278  amount */\n      dup1\n        /* \"LABS 22 Aug/Task All 22.sol\":1256:1264  balances */\n      0x00\n        /* \"LABS 22 Aug/Task All 22.sol\":1256:1268  balances[to] */\n      dup1\n        /* \"LABS 22 Aug/Task All 22.sol\":1265:1267  to */\n      dup5\n        /* \"LABS 22 Aug/Task All 22.sol\":1256:1268  balances[to] */\n      0xffffffffffffffffffffffffffffffffffffffff\n      and\n      0xffffffffffffffffffffffffffffffffffffffff\n      and\n      dup2\n      mstore\n      0x20\n      add\n      swap1\n      dup2\n      mstore\n      0x20\n      add\n      0x00\n      keccak256\n      0x00\n        /* \"LABS 22 Aug/Task All 22.sol\":1256:1278  balances[to] += amount */\n      dup3\n      dup3\n      sload\n      tag_24\n      swap2\n      swap1\n      tag_25\n      jump\t// in\n    tag_24:\n      swap3\n      pop\n      pop\n      dup2\n      swap1\n      sstore\n      pop\n        /* \"LABS 22 Aug/Task All 22.sol\":1014:1285  function transfer(address to, uint256 amount) external override {... */\n      pop\n      pop\n      jump\t// out\n        /* \"#utility.yul\":88:205   */\n    tag_27:\n        /* \"#utility.yul\":197:198   */\n      0x00\n        /* \"#utility.yul\":194:195   */\n      dup1\n        /* \"#utility.yul\":187:199   */\n      revert\n        /* \"#utility.yul\":334:460   */\n    tag_29:\n        /* \"#utility.yul\":371:378   */\n      0x00\n        /* \"#utility.yul\":411:453   */\n      0xffffffffffffffffffffffffffffffffffffffff\n        /* \"#utility.yul\":404:409   */\n      dup3\n        /* \"#utility.yul\":400:454   */\n      and\n        /* \"#utility.yul\":389:454   */\n      swap1\n      pop\n        /* \"#utility.yul\":334:460   */\n      swap2\n      swap1\n      pop\n      jump\t// out\n        /* \"#utility.yul\":466:562   */\n    tag_30:\n        /* \"#utility.yul\":503:510   */\n      0x00\n        /* \"#utility.yul\":532:556   */\n      tag_49\n        /* \"#utility.yul\":550:555   */\n      dup3\n        /* \"#utility.yul\":532:556   */\n      tag_29\n      jump\t// in\n    tag_49:\n        /* \"#utility.yul\":521:556   */\n      swap1\n      pop\n        /* \"#utility.yul\":466:562   */\n      swap2\n      swap1\n      pop\n      jump\t// out\n        /* \"#utility.yul\":568:690   */\n    tag_31:\n        /* \"#utility.yul\":641:665   */\n      tag_51\n        /* \"#utility.yul\":659:664   */\n      dup2\n        /* \"#utility.yul\":641:665   */\n      tag_30\n      jump\t// in\n    tag_51:\n        /* \"#utility.yul\":634:639   */\n      dup2\n        /* \"#utility.yul\":631:666   */\n      eq\n        /* \"#utility.yul\":621:684   */\n      tag_52\n      jumpi\n        /* \"#utility.yul\":680:681   */\n      0x00\n        /* \"#utility.yul\":677:678   */\n      dup1\n        /* \"#utility.yul\":670:682   */\n      revert\n        /* \"#utility.yul\":621:684   */\n    tag_52:\n        /* \"#utility.yul\":568:690   */\n      pop\n      jump\t// out\n        /* \"#utility.yul\":696:835   */\n    tag_32:\n        /* \"#utility.yul\":742:747   */\n      0x00\n        /* \"#utility.yul\":780:786   */\n      dup2\n        /* \"#utility.yul\":767:787   */\n      calldataload\n        /* \"#utility.yul\":758:787   */\n      swap1\n      pop\n        /* \"#utility.yul\":796:829   */\n      tag_54\n        /* \"#utility.yul\":823:828   */\n      dup2\n        /* \"#utility.yul\":796:829   */\n      tag_31\n      jump\t// in\n    tag_54:\n        /* \"#utility.yul\":696:835   */\n      swap3\n      swap2\n      pop\n      pop\n      jump\t// out\n        /* \"#utility.yul\":841:1170   */\n    tag_7:\n        /* \"#utility.yul\":900:906   */\n      0x00\n        /* \"#utility.yul\":949:951   */\n      0x20\n        /* \"#utility.yul\":937:946   */\n      dup3\n        /* \"#utility.yul\":928:935   */\n      dup5\n        /* \"#utility.yul\":924:947   */\n      sub\n        /* \"#utility.yul\":920:952   */\n      slt\n        /* \"#utility.yul\":917:1036   */\n      iszero\n      tag_56\n      jumpi\n        /* \"#utility.yul\":955:1034   */\n      tag_57\n      tag_27\n      jump\t// in\n    tag_57:\n        /* \"#utility.yul\":917:1036   */\n    tag_56:\n        /* \"#utility.yul\":1075:1076   */\n      0x00\n        /* \"#utility.yul\":1100:1153   */\n      tag_58\n        /* \"#utility.yul\":1145:1152   */\n      dup5\n        /* \"#utility.yul\":1136:1142   */\n      dup3\n        /* \"#utility.yul\":1125:1134   */\n      dup6\n        /* \"#utility.yul\":1121:1143   */\n      add\n        /* \"#utility.yul\":1100:1153   */\n      tag_32\n      jump\t// in\n    tag_58:\n        /* \"#utility.yul\":1090:1153   */\n      swap2\n      pop\n        /* \"#utility.yul\":1046:1163   */\n      pop\n        /* \"#utility.yul\":841:1170   */\n      swap3\n      swap2\n      pop\n      pop\n      jump\t// out\n        /* \"#utility.yul\":1176:1253   */\n    tag_33:\n        /* \"#utility.yul\":1213:1220   */\n      0x00\n        /* \"#utility.yul\":1242:1247   */\n      dup2\n        /* \"#utility.yul\":1231:1247   */\n      swap1\n      pop\n        /* \"#utility.yul\":1176:1253   */\n      swap2\n      swap1\n      pop\n      jump\t// out\n        /* \"#utility.yul\":1259:1377   */\n    tag_34:\n        /* \"#utility.yul\":1346:1370   */\n      tag_61\n        /* \"#utility.yul\":1364:1369   */\n      dup2\n        /* \"#utility.yul\":1346:1370   */\n      tag_33\n      jump\t// in\n    tag_61:\n        /* \"#utility.yul\":1341:1344   */\n      dup3\n        /* \"#utility.yul\":1334:1371   */\n      mstore\n        /* \"#utility.yul\":1259:1377   */\n      pop\n      pop\n      jump\t// out\n        /* \"#utility.yul\":1383:1605   */\n    tag_10:\n        /* \"#utility.yul\":1476:1480   */\n      0x00\n        /* \"#utility.yul\":1514:1516   */\n      0x20\n        /* \"#utility.yul\":1503:1512   */\n      dup3\n        /* \"#utility.yul\":1499:1517   */\n      add\n        /* \"#utility.yul\":1491:1517   */\n      swap1\n      pop\n        /* \"#utility.yul\":1527:1598   */\n      tag_63\n        /* \"#utility.yul\":1595:1596   */\n      0x00\n        /* \"#utility.yul\":1584:1593   */\n      dup4\n        /* \"#utility.yul\":1580:1597   */\n      add\n        /* \"#utility.yul\":1571:1577   */\n      dup5\n        /* \"#utility.yul\":1527:1598   */\n      tag_34\n      jump\t// in\n    tag_63:\n        /* \"#utility.yul\":1383:1605   */\n      swap3\n      swap2\n      pop\n      pop\n      jump\t// out\n        /* \"#utility.yul\":1611:1733   */\n    tag_35:\n        /* \"#utility.yul\":1684:1708   */\n      tag_65\n        /* \"#utility.yul\":1702:1707   */\n      dup2\n        /* \"#utility.yul\":1684:1708   */\n      tag_33\n      jump\t// in\n    tag_65:\n        /* \"#utility.yul\":1677:1682   */\n      dup2\n        /* \"#utility.yul\":1674:1709   */\n      eq\n        /* \"#utility.yul\":1664:1727   */\n      tag_66\n      jumpi\n        /* \"#utility.yul\":1723:1724   */\n      0x00\n        /* \"#utility.yul\":1720:1721   */\n      dup1\n        /* \"#utility.yul\":1713:1725   */\n      revert\n        /* \"#utility.yul\":1664:1727   */\n    tag_66:\n        /* \"#utility.yul\":1611:1733   */\n      pop\n      jump\t// out\n        /* \"#utility.yul\":1739:1878   */\n    tag_36:\n        /* \"#utility.yul\":1785:1790   */\n      0x00\n        /* \"#utility.yul\":1823:1829   */\n      dup2\n        /* \"#utility.yul\":1810:1830   */\n      calldataload\n        /* \"#utility.yul\":1801:1830   */\n      swap1\n      pop\n        /* \"#utility.yul\":1839:1872   */\n      tag_68\n        /* \"#utility.yul\":1866:1871   */\n      dup2\n        /* \"#utility.yul\":1839:1872   */\n      tag_35\n      jump\t// in\n    tag_68:\n        /* \"#utility.yul\":1739:1878   */\n      swap3\n      swap2\n      pop\n      pop\n      jump\t// out\n        /* \"#utility.yul\":1884:2358   */\n    tag_13:\n        /* \"#utility.yul\":1952:1958   */\n      0x00\n        /* \"#utility.yul\":1960:1966   */\n      dup1\n        /* \"#utility.yul\":2009:2011   */\n      0x40\n        /* \"#utility.yul\":1997:2006   */\n      dup4\n        /* \"#utility.yul\":1988:1995   */\n      dup6\n        /* \"#utility.yul\":1984:2007   */\n      sub\n        /* \"#utility.yul\":1980:2012   */\n      slt\n        /* \"#utility.yul\":1977:2096   */\n      iszero\n      tag_70\n      jumpi\n        /* \"#utility.yul\":2015:2094   */\n      tag_71\n      tag_27\n      jump\t// in\n    tag_71:\n        /* \"#utility.yul\":1977:2096   */\n    tag_70:\n        /* \"#utility.yul\":2135:2136   */\n      0x00\n        /* \"#utility.yul\":2160:2213   */\n      tag_72\n        /* \"#utility.yul\":2205:2212   */\n      dup6\n        /* \"#utility.yul\":2196:2202   */\n      dup3\n        /* \"#utility.yul\":2185:2194   */\n      dup7\n        /* \"#utility.yul\":2181:2203   */\n      add\n        /* \"#utility.yul\":2160:2213   */\n      tag_32\n      jump\t// in\n    tag_72:\n        /* \"#utility.yul\":2150:2213   */\n      swap3\n      pop\n        /* \"#utility.yul\":2106:2223   */\n      pop\n        /* \"#utility.yul\":2262:2264   */\n      0x20\n        /* \"#utility.yul\":2288:2341   */\n      tag_73\n        /* \"#utility.yul\":2333:2340   */\n      dup6\n        /* \"#utility.yul\":2324:2330   */\n      dup3\n        /* \"#utility.yul\":2313:2322   */\n      dup7\n        /* \"#utility.yul\":2309:2331   */\n      add\n        /* \"#utility.yul\":2288:2341   */\n      tag_36\n      jump\t// in\n    tag_73:\n        /* \"#utility.yul\":2278:2341   */\n      swap2\n      pop\n        /* \"#utility.yul\":2233:2351   */\n      pop\n        /* \"#utility.yul\":1884:2358   */\n      swap3\n      pop\n      swap3\n      swap1\n      pop\n      jump\t// out\n        /* \"#utility.yul\":2364:2533   */\n    tag_37:\n        /* \"#utility.yul\":2448:2459   */\n      0x00\n        /* \"#utility.yul\":2482:2488   */\n      dup3\n        /* \"#utility.yul\":2477:2480   */\n      dup3\n        /* \"#utility.yul\":2470:2489   */\n      mstore\n        /* \"#utility.yul\":2522:2526   */\n      0x20\n        /* \"#utility.yul\":2517:2520   */\n      dup3\n        /* \"#utility.yul\":2513:2527   */\n      add\n        /* \"#utility.yul\":2498:2527   */\n      swap1\n      pop\n        /* \"#utility.yul\":2364:2533   */\n      swap3\n      swap2\n      pop\n      pop\n      jump\t// out\n        /* \"#utility.yul\":2539:2704   */\n    tag_38:\n        /* \"#utility.yul\":2679:2696   */\n      0x496e76616c696420616464726573730000000000000000000000000000000000\n        /* \"#utility.yul\":2675:2676   */\n      0x00\n        /* \"#utility.yul\":2667:2673   */\n      dup3\n        /* \"#utility.yul\":2663:2677   */\n      add\n        /* \"#utility.yul\":2656:2697   */\n      mstore\n        /* \"#utility.yul\":2539:2704   */\n      pop\n      jump\t// out\n        /* \"#utility.yul\":2710:3076   */\n    tag_39:\n        /* \"#utility.yul\":2852:2855   */\n      0x00\n        /* \"#utility.yul\":2873:2940   */\n      tag_77\n        /* \"#utility.yul\":2937:2939   */\n      0x0f\n        /* \"#utility.yul\":2932:2935   */\n      dup4\n        /* \"#utility.yul\":2873:2940   */\n      tag_37\n      jump\t// in\n    tag_77:\n        /* \"#utility.yul\":2866:2940   */\n      swap2\n      pop\n        /* \"#utility.yul\":2949:3042   */\n      tag_78\n        /* \"#utility.yul\":3038:3041   */\n      dup3\n        /* \"#utility.yul\":2949:3042   */\n      tag_38\n      jump\t// in\n    tag_78:\n        /* \"#utility.yul\":3067:3069   */\n      0x20\n        /* \"#utility.yul\":3062:3065   */\n      dup3\n        /* \"#utility.yul\":3058:3070   */\n      add\n        /* \"#utility.yul\":3051:3070   */\n      swap1\n      pop\n        /* \"#utility.yul\":2710:3076   */\n      swap2\n      swap1\n      pop\n      jump\t// out\n        /* \"#utility.yul\":3082:3501   */\n    tag_18:\n        /* \"#utility.yul\":3248:3252   */\n      0x00\n        /* \"#utility.yul\":3286:3288   */\n      0x20\n        /* \"#utility.yul\":3275:3284   */\n      dup3\n        /* \"#utility.yul\":3271:3289   */\n      add\n        /* \"#utility.yul\":3263:3289   */\n      swap1\n      pop\n        /* \"#utility.yul\":3335:3344   */\n      dup2\n        /* \"#utility.yul\":3329:3333   */\n      dup2\n        /* \"#utility.yul\":3325:3345   */\n      sub\n        /* \"#utility.yul\":3321:3322   */\n      0x00\n        /* \"#utility.yul\":3310:3319   */\n      dup4\n        /* \"#utility.yul\":3306:3323   */\n      add\n        /* \"#utility.yul\":3299:3346   */\n      mstore\n        /* \"#utility.yul\":3363:3494   */\n      tag_80\n        /* \"#utility.yul\":3489:3493   */\n      dup2\n        /* \"#utility.yul\":3363:3494   */\n      tag_39\n      jump\t// in\n    tag_80:\n        /* \"#utility.yul\":3355:3494   */\n      swap1\n      pop\n        /* \"#utility.yul\":3082:3501   */\n      swap2\n      swap1\n      pop\n      jump\t// out\n        /* \"#utility.yul\":3507:3677   */\n    tag_40:\n        /* \"#utility.yul\":3647:3669   */\n      0x496e73756666696369656e742062616c616e6365000000000000000000000000\n        /* \"#utility.yul\":3643:3644   */\n      0x00\n        /* \"#utility.yul\":3635:3641   */\n      dup3\n        /* \"#utility.yul\":3631:3645   */\n      add\n        /* \"#utility.yul\":3624:3670   */\n      mstore\n        /* \"#utility.yul\":3507:3677   */\n      pop\n      jump\t// out\n        /* \"#utility.yul\":3683:4049   */\n    tag_41:\n        /* \"#utility.yul\":3825:3828   */\n      0x00\n        /* \"#utility.yul\":3846:3913   */\n      tag_83\n        /* \"#utility.yul\":3910:3912   */\n      0x14\n        /* \"#utility.yul\":3905:3908   */\n      dup4\n        /* \"#utility.yul\":3846:3913   */\n      tag_37\n      jump\t// in\n    tag_83:\n        /* \"#utility.yul\":3839:3913   */\n      swap2\n      pop\n        /* \"#utility.yul\":3922:4015   */\n      tag_84\n        /* \"#utility.yul\":4011:4014   */\n      dup3\n        /* \"#utility.yul\":3922:4015   */\n      tag_40\n      jump\t// in\n    tag_84:\n        /* \"#utility.yul\":4040:4042   */\n      0x20\n        /* \"#utility.yul\":4035:4038   */\n      dup3\n        /* \"#utility.yul\":4031:4043   */\n      add\n        /* \"#utility.yul\":4024:4043   */\n      swap1\n      pop\n        /* \"#utility.yul\":3683:4049   */\n      swap2\n      swap1\n      pop\n      jump\t// out\n        /* \"#utility.yul\":4055:4474   */\n    tag_21:\n        /* \"#utility.yul\":4221:4225   */\n      0x00\n        /* \"#utility.yul\":4259:4261   */\n      0x20\n        /* \"#utility.yul\":4248:4257   */\n      dup3\n        /* \"#utility.yul\":4244:4262   */\n      add\n        /* \"#utility.yul\":4236:4262   */\n      swap1\n      pop\n        /* \"#utility.yul\":4308:4317   */\n      dup2\n        /* \"#utility.yul\":4302:4306   */\n      dup2\n        /* \"#utility.yul\":4298:4318   */\n      sub\n        /* \"#utility.yul\":4294:4295   */\n      0x00\n        /* \"#utility.yul\":4283:4292   */\n      dup4\n        /* \"#utility.yul\":4279:4296   */\n      add\n        /* \"#utility.yul\":4272:4319   */\n      mstore\n        /* \"#utility.yul\":4336:4467   */\n      tag_86\n        /* \"#utility.yul\":4462:4466   */\n      dup2\n        /* \"#utility.yul\":4336:4467   */\n      tag_41\n      jump\t// in\n    tag_86:\n        /* \"#utility.yul\":4328:4467   */\n      swap1\n      pop\n        /* \"#utility.yul\":4055:4474   */\n      swap2\n      swap1\n      pop\n      jump\t// out\n        /* \"#utility.yul\":4480:4660   */\n    tag_42:\n        /* \"#utility.yul\":4528:4605   */\n      0x4e487b7100000000000000000000000000000000000000000000000000000000\n        /* \"#utility.yul\":4525:4526   */\n      0x00\n        /* \"#utility.yul\":4518:4606   */\n      mstore\n        /* \"#utility.yul\":4625:4629   */\n      0x11\n        /* \"#utility.yul\":4622:4623   */\n      0x04\n        /* \"#utility.yul\":4615:4630   */\n      mstore\n        /* \"#utility.yul\":4649:4653   */\n      0x24\n        /* \"#utility.yul\":4646:4647   */\n      0x00\n        /* \"#utility.yul\":4639:4654   */\n      revert\n        /* \"#utility.yul\":4666:4860   */\n    tag_23:\n        /* \"#utility.yul\":4706:4710   */\n      0x00\n        /* \"#utility.yul\":4726:4746   */\n      tag_89\n        /* \"#utility.yul\":4744:4745   */\n      dup3\n        /* \"#utility.yul\":4726:4746   */\n      tag_33\n      jump\t// in\n    tag_89:\n        /* \"#utility.yul\":4721:4746   */\n      swap2\n      pop\n        /* \"#utility.yul\":4760:4780   */\n      tag_90\n        /* \"#utility.yul\":4778:4779   */\n      dup4\n        /* \"#utility.yul\":4760:4780   */\n      tag_33\n      jump\t// in\n    tag_90:\n        /* \"#utility.yul\":4755:4780   */\n      swap3\n      pop\n        /* \"#utility.yul\":4804:4805   */\n      dup3\n        /* \"#utility.yul\":4801:4802   */\n      dup3\n        /* \"#utility.yul\":4797:4806   */\n      sub\n        /* \"#utility.yul\":4789:4806   */\n      swap1\n      pop\n        /* \"#utility.yul\":4828:4829   */\n      dup2\n        /* \"#utility.yul\":4822:4826   */\n      dup2\n        /* \"#utility.yul\":4819:4830   */\n      gt\n        /* \"#utility.yul\":4816:4853   */\n      iszero\n      tag_91\n      jumpi\n        /* \"#utility.yul\":4833:4851   */\n      tag_92\n      tag_42\n      jump\t// in\n    tag_92:\n        /* \"#utility.yul\":4816:4853   */\n    tag_91:\n        /* \"#utility.yul\":4666:4860   */\n      swap3\n      swap2\n      pop\n      pop\n      jump\t// out\n        /* \"#utility.yul\":4866:5057   */\n    tag_25:\n        /* \"#utility.yul\":4906:4909   */\n      0x00\n        /* \"#utility.yul\":4925:4945   */\n      tag_94\n        /* \"#utility.yul\":4943:4944   */\n      dup3\n        /* \"#utility.yul\":4925:4945   */\n      tag_33\n      jump\t// in\n    tag_94:\n        /* \"#utility.yul\":4920:4945   */\n      swap2\n      pop\n        /* \"#utility.yul\":4959:4979   */\n      tag_95\n        /* \"#utility.yul\":4977:4978   */\n      dup4\n        /* \"#utility.yul\":4959:4979   */\n      tag_33\n      jump\t// in\n    tag_95:\n        /* \"#utility.yul\":4954:4979   */\n      swap3\n      pop\n        /* \"#utility.yul\":5002:5003   */\n      dup3\n        /* \"#utility.yul\":4999:5000   */\n      dup3\n        /* \"#utility.yul\":4995:5004   */\n      add\n        /* \"#utility.yul\":4988:5004   */\n      swap1\n      pop\n        /* \"#utility.yul\":5023:5026   */\n      dup1\n        /* \"#utility.yul\":5020:5021   */\n      dup3\n        /* \"#utility.yul\":5017:5027   */\n      gt\n        /* \"#utility.yul\":5014:5050   */\n      iszero\n      tag_96\n      jumpi\n        /* \"#utility.yul\":5030:5048   */\n      tag_97\n      tag_42\n      jump\t// in\n    tag_97:\n        /* \"#utility.yul\":5014:5050   */\n    tag_96:\n        /* \"#utility.yul\":4866:5057   */\n      swap3\n      swap2\n      pop\n      pop\n      jump\t// out\n\n    auxdata: 0xa26469706673582212205bda34a2ac01aecfacebdfe121bb2af1441f3e470db31faa80ca5eff610eb4ed64736f6c63430008120033\n}\n",
				"bytecode": {
					"linkReferences": {},
					"object": "608060405234801561001057600080fd5b50610523806100206000396000f3fe608060405234801561001057600080fd5b50600436106100365760003560e01c806327e235e31461003b578063a9059cbb1461006b575b600080fd5b610055600480360381019061005091906102a0565b610087565b60405161006291906102e6565b60405180910390f35b6100856004803603810190610080919061032d565b61009f565b005b60006020528060005260406000206000915090505481565b600073ffffffffffffffffffffffffffffffffffffffff168273ffffffffffffffffffffffffffffffffffffffff160361010e576040517f08c379a0000000000000000000000000000000000000000000000000000000008152600401610105906103ca565b60405180910390fd5b806000803373ffffffffffffffffffffffffffffffffffffffff1673ffffffffffffffffffffffffffffffffffffffff16815260200190815260200160002054101561018f576040517f08c379a000000000000000000000000000000000000000000000000000000000815260040161018690610436565b60405180910390fd5b806000803373ffffffffffffffffffffffffffffffffffffffff1673ffffffffffffffffffffffffffffffffffffffff16815260200190815260200160002060008282546101dd9190610485565b92505081905550806000808473ffffffffffffffffffffffffffffffffffffffff1673ffffffffffffffffffffffffffffffffffffffff168152602001908152602001600020600082825461023291906104b9565b925050819055505050565b600080fd5b600073ffffffffffffffffffffffffffffffffffffffff82169050919050565b600061026d82610242565b9050919050565b61027d81610262565b811461028857600080fd5b50565b60008135905061029a81610274565b92915050565b6000602082840312156102b6576102b561023d565b5b60006102c48482850161028b565b91505092915050565b6000819050919050565b6102e0816102cd565b82525050565b60006020820190506102fb60008301846102d7565b92915050565b61030a816102cd565b811461031557600080fd5b50565b60008135905061032781610301565b92915050565b600080604083850312156103445761034361023d565b5b60006103528582860161028b565b925050602061036385828601610318565b9150509250929050565b600082825260208201905092915050565b7f496e76616c696420616464726573730000000000000000000000000000000000600082015250565b60006103b4600f8361036d565b91506103bf8261037e565b602082019050919050565b600060208201905081810360008301526103e3816103a7565b9050919050565b7f496e73756666696369656e742062616c616e6365000000000000000000000000600082015250565b600061042060148361036d565b915061042b826103ea565b602082019050919050565b6000602082019050818103600083015261044f81610413565b9050919050565b7f4e487b7100000000000000000000000000000000000000000000000000000000600052601160045260246000fd5b6000610490826102cd565b915061049b836102cd565b92508282039050818111156104b3576104b2610456565b5b92915050565b60006104c4826102cd565b91506104cf836102cd565b92508282019050808211156104e7576104e6610456565b5b9291505056fea26469706673582212205bda34a2ac01aecfacebdfe121bb2af1441f3e470db31faa80ca5eff610eb4ed64736f6c63430008120033",
					"opcodes": "PUSH1 0x80 PUSH1 0x40 MSTORE CALLVALUE DUP1 ISZERO PUSH2 0x10 JUMPI PUSH1 0x0 DUP1 REVERT JUMPDEST POP PUSH2 0x523 DUP1 PUSH2 0x20 PUSH1 0x0 CODECOPY PUSH1 0x0 RETURN INVALID PUSH1 0x80 PUSH1 0x40 MSTORE CALLVALUE DUP1 ISZERO PUSH2 0x10 JUMPI PUSH1 0x0 DUP1 REVERT JUMPDEST POP PUSH1 0x4 CALLDATASIZE LT PUSH2 0x36 JUMPI PUSH1 0x0 CALLDATALOAD PUSH1 0xE0 SHR DUP1 PUSH4 0x27E235E3 EQ PUSH2 0x3B JUMPI DUP1 PUSH4 0xA9059CBB EQ PUSH2 0x6B JUMPI JUMPDEST PUSH1 0x0 DUP1 REVERT JUMPDEST PUSH2 0x55 PUSH1 0x4 DUP1 CALLDATASIZE SUB DUP2 ADD SWAP1 PUSH2 0x50 SWAP2 SWAP1 PUSH2 0x2A0 JUMP JUMPDEST PUSH2 0x87 JUMP JUMPDEST PUSH1 0x40 MLOAD PUSH2 0x62 SWAP2 SWAP1 PUSH2 0x2E6 JUMP JUMPDEST PUSH1 0x40 MLOAD DUP1 SWAP2 SUB SWAP1 RETURN JUMPDEST PUSH2 0x85 PUSH1 0x4 DUP1 CALLDATASIZE SUB DUP2 ADD SWAP1 PUSH2 0x80 SWAP2 SWAP1 PUSH2 0x32D JUMP JUMPDEST PUSH2 0x9F JUMP JUMPDEST STOP JUMPDEST PUSH1 0x0 PUSH1 0x20 MSTORE DUP1 PUSH1 0x0 MSTORE PUSH1 0x40 PUSH1 0x0 KECCAK256 PUSH1 0x0 SWAP2 POP SWAP1 POP SLOAD DUP2 JUMP JUMPDEST PUSH1 0x0 PUSH20 0xFFFFFFFFFFFFFFFFFFFFFFFFFFFFFFFFFFFFFFFF AND DUP3 PUSH20 0xFFFFFFFFFFFFFFFFFFFFFFFFFFFFFFFFFFFFFFFF AND SUB PUSH2 0x10E JUMPI PUSH1 0x40 MLOAD PUSH32 0x8C379A000000000000000000000000000000000000000000000000000000000 DUP2 MSTORE PUSH1 0x4 ADD PUSH2 0x105 SWAP1 PUSH2 0x3CA JUMP JUMPDEST PUSH1 0x40 MLOAD DUP1 SWAP2 SUB SWAP1 REVERT JUMPDEST DUP1 PUSH1 0x0 DUP1 CALLER PUSH20 0xFFFFFFFFFFFFFFFFFFFFFFFFFFFFFFFFFFFFFFFF AND PUSH20 0xFFFFFFFFFFFFFFFFFFFFFFFFFFFFFFFFFFFFFFFF AND DUP2 MSTORE PUSH1 0x20 ADD SWAP1 DUP2 MSTORE PUSH1 0x20 ADD PUSH1 0x0 KECCAK256 SLOAD LT ISZERO PUSH2 0x18F JUMPI PUSH1 0x40 MLOAD PUSH32 0x8C379A000000000000000000000000000000000000000000000000000000000 DUP2 MSTORE PUSH1 0x4 ADD PUSH2 0x186 SWAP1 PUSH2 0x436 JUMP JUMPDEST PUSH1 0x40 MLOAD DUP1 SWAP2 SUB SWAP1 REVERT JUMPDEST DUP1 PUSH1 0x0 DUP1 CALLER PUSH20 0xFFFFFFFFFFFFFFFFFFFFFFFFFFFFFFFFFFFFFFFF AND PUSH20 0xFFFFFFFFFFFFFFFFFFFFFFFFFFFFFFFFFFFFFFFF AND DUP2 MSTORE PUSH1 0x20 ADD SWAP1 DUP2 MSTORE PUSH1 0x20 ADD PUSH1 0x0 KECCAK256 PUSH1 0x0 DUP3 DUP3 SLOAD PUSH2 0x1DD SWAP2 SWAP1 PUSH2 0x485 JUMP JUMPDEST SWAP3 POP POP DUP2 SWAP1 SSTORE POP DUP1 PUSH1 0x0 DUP1 DUP5 PUSH20 0xFFFFFFFFFFFFFFFFFFFFFFFFFFFFFFFFFFFFFFFF AND PUSH20 0xFFFFFFFFFFFFFFFFFFFFFFFFFFFFFFFFFFFFFFFF AND DUP2 MSTORE PUSH1 0x20 ADD SWAP1 DUP2 MSTORE PUSH1 0x20 ADD PUSH1 0x0 KECCAK256 PUSH1 0x0 DUP3 DUP3 SLOAD PUSH2 0x232 SWAP2 SWAP1 PUSH2 0x4B9 JUMP JUMPDEST SWAP3 POP POP DUP2 SWAP1 SSTORE POP POP POP JUMP JUMPDEST PUSH1 0x0 DUP1 REVERT JUMPDEST PUSH1 0x0 PUSH20 0xFFFFFFFFFFFFFFFFFFFFFFFFFFFFFFFFFFFFFFFF DUP3 AND SWAP1 POP SWAP2 SWAP1 POP JUMP JUMPDEST PUSH1 0x0 PUSH2 0x26D DUP3 PUSH2 0x242 JUMP JUMPDEST SWAP1 POP SWAP2 SWAP1 POP JUMP JUMPDEST PUSH2 0x27D DUP2 PUSH2 0x262 JUMP JUMPDEST DUP2 EQ PUSH2 0x288 JUMPI PUSH1 0x0 DUP1 REVERT JUMPDEST POP JUMP JUMPDEST PUSH1 0x0 DUP2 CALLDATALOAD SWAP1 POP PUSH2 0x29A DUP2 PUSH2 0x274 JUMP JUMPDEST SWAP3 SWAP2 POP POP JUMP JUMPDEST PUSH1 0x0 PUSH1 0x20 DUP3 DUP5 SUB SLT ISZERO PUSH2 0x2B6 JUMPI PUSH2 0x2B5 PUSH2 0x23D JUMP JUMPDEST JUMPDEST PUSH1 0x0 PUSH2 0x2C4 DUP5 DUP3 DUP6 ADD PUSH2 0x28B JUMP JUMPDEST SWAP2 POP POP SWAP3 SWAP2 POP POP JUMP JUMPDEST PUSH1 0x0 DUP2 SWAP1 POP SWAP2 SWAP1 POP JUMP JUMPDEST PUSH2 0x2E0 DUP2 PUSH2 0x2CD JUMP JUMPDEST DUP3 MSTORE POP POP JUMP JUMPDEST PUSH1 0x0 PUSH1 0x20 DUP3 ADD SWAP1 POP PUSH2 0x2FB PUSH1 0x0 DUP4 ADD DUP5 PUSH2 0x2D7 JUMP JUMPDEST SWAP3 SWAP2 POP POP JUMP JUMPDEST PUSH2 0x30A DUP2 PUSH2 0x2CD JUMP JUMPDEST DUP2 EQ PUSH2 0x315 JUMPI PUSH1 0x0 DUP1 REVERT JUMPDEST POP JUMP JUMPDEST PUSH1 0x0 DUP2 CALLDATALOAD SWAP1 POP PUSH2 0x327 DUP2 PUSH2 0x301 JUMP JUMPDEST SWAP3 SWAP2 POP POP JUMP JUMPDEST PUSH1 0x0 DUP1 PUSH1 0x40 DUP4 DUP6 SUB SLT ISZERO PUSH2 0x344 JUMPI PUSH2 0x343 PUSH2 0x23D JUMP JUMPDEST JUMPDEST PUSH1 0x0 PUSH2 0x352 DUP6 DUP3 DUP7 ADD PUSH2 0x28B JUMP JUMPDEST SWAP3 POP POP PUSH1 0x20 PUSH2 0x363 DUP6 DUP3 DUP7 ADD PUSH2 0x318 JUMP JUMPDEST SWAP2 POP POP SWAP3 POP SWAP3 SWAP1 POP JUMP JUMPDEST PUSH1 0x0 DUP3 DUP3 MSTORE PUSH1 0x20 DUP3 ADD SWAP1 POP SWAP3 SWAP2 POP POP JUMP JUMPDEST PUSH32 0x496E76616C696420616464726573730000000000000000000000000000000000 PUSH1 0x0 DUP3 ADD MSTORE POP JUMP JUMPDEST PUSH1 0x0 PUSH2 0x3B4 PUSH1 0xF DUP4 PUSH2 0x36D JUMP JUMPDEST SWAP2 POP PUSH2 0x3BF DUP3 PUSH2 0x37E JUMP JUMPDEST PUSH1 0x20 DUP3 ADD SWAP1 POP SWAP2 SWAP1 POP JUMP JUMPDEST PUSH1 0x0 PUSH1 0x20 DUP3 ADD SWAP1 POP DUP2 DUP2 SUB PUSH1 0x0 DUP4 ADD MSTORE PUSH2 0x3E3 DUP2 PUSH2 0x3A7 JUMP JUMPDEST SWAP1 POP SWAP2 SWAP1 POP JUMP JUMPDEST PUSH32 0x496E73756666696369656E742062616C616E6365000000000000000000000000 PUSH1 0x0 DUP3 ADD MSTORE POP JUMP JUMPDEST PUSH1 0x0 PUSH2 0x420 PUSH1 0x14 DUP4 PUSH2 0x36D JUMP JUMPDEST SWAP2 POP PUSH2 0x42B DUP3 PUSH2 0x3EA JUMP JUMPDEST PUSH1 0x20 DUP3 ADD SWAP1 POP SWAP2 SWAP1 POP JUMP JUMPDEST PUSH1 0x0 PUSH1 0x20 DUP3 ADD SWAP1 POP DUP2 DUP2 SUB PUSH1 0x0 DUP4 ADD MSTORE PUSH2 0x44F DUP2 PUSH2 0x413 JUMP JUMPDEST SWAP1 POP SWAP2 SWAP1 POP JUMP JUMPDEST PUSH32 0x4E487B7100000000000000000000000000000000000000000000000000000000 PUSH1 0x0 MSTORE PUSH1 0x11 PUSH1 0x4 MSTORE PUSH1 0x24 PUSH1 0x0 REVERT JUMPDEST PUSH1 0x0 PUSH2 0x490 DUP3 PUSH2 0x2CD JUMP JUMPDEST SWAP2 POP PUSH2 0x49B DUP4 PUSH2 0x2CD JUMP JUMPDEST SWAP3 POP DUP3 DUP3 SUB SWAP1 POP DUP2 DUP2 GT ISZERO PUSH2 0x4B3 JUMPI PUSH2 0x4B2 PUSH2 0x456 JUMP JUMPDEST JUMPDEST SWAP3 SWAP2 POP POP JUMP JUMPDEST PUSH1 0x0 PUSH2 0x4C4 DUP3 PUSH2 0x2CD JUMP JUMPDEST SWAP2 POP PUSH2 0x4CF DUP4 PUSH2 0x2CD JUMP JUMPDEST SWAP3 POP DUP3 DUP3 ADD SWAP1 POP DUP1 DUP3 GT ISZERO PUSH2 0x4E7 JUMPI PUSH2 0x4E6 PUSH2 0x456 JUMP JUMPDEST JUMPDEST SWAP3 SWAP2 POP POP JUMP INVALID LOG2 PUSH5 0x6970667358 0x22 SLT KECCAK256 JUMPDEST 0xDA CALLVALUE LOG2 0xAC ADD 0xAE 0xCF 0xAC 0xEB 0xDF 0xE1 0x21 0xBB 0x2A CALL PREVRANDAO 0x1F RETURNDATACOPY SELFBALANCE 0xD 0xB3 0x1F 0xAA DUP1 0xCA 0x5E SELFDESTRUCT PUSH2 0xEB4 0xED PUSH5 0x736F6C6343 STOP ADDMOD SLT STOP CALLER "
				},
				"gasEstimates": {
					"creation": {
						"codeDepositCost": "263000",
						"executionCost": "306",
						"totalCost": "263306"
					},
					"external": {
						"balances(address)": "2792",
						"transfer(address,uint256)": "infinite"
					}
				},
				"methodIdentifiers": {
					"balances(address)": "27e235e3",
					"transfer(address,uint256)": "a9059cbb"
				}
			},
			"storageLayout": {
				"storage": [
					{
						"astId": 98,
						"contract": "LABS 22 Aug/Task All 22.sol:TokenContract",
						"label": "balances",
						"offset": 0,
						"slot": "0",
						"type": "t_mapping(t_address,t_uint256)"
					}
				],
				"types": {
					"t_address": {
						"encoding": "inplace",
						"label": "address",
						"numberOfBytes": "20"
					},
					"t_mapping(t_address,t_uint256)": {
						"encoding": "mapping",
						"key": "t_address",
						"label": "mapping(address => uint256)",
						"numberOfBytes": "32",
						"value": "t_uint256"
					},
					"t_uint256": {
						"encoding": "inplace",
						"label": "uint256",
						"numberOfBytes": "32"
					}
				}
			},
			"userdoc": {
				"kind": "user",
				"methods": {},
				"version": 1
			}
		}
	}
}