{
	"LABS 22 Aug/Task All 22.sol": {
		"PaymentContract": {
			"abi": [
				{
					"inputs": [],
					"stateMutability": "payable",
					"type": "constructor"
				},
				{
					"anonymous": false,
					"inputs": [
						{
							"indexed": false,
							"internalType": "address",
							"name": "",
							"type": "address"
						},
						{
							"indexed": false,
							"internalType": "uint256",
							"name": "",
							"type": "uint256"
						}
					],
					"name": "Confirmation",
					"type": "event"
				},
				{
					"inputs": [],
					"name": "recievePayment",
					"outputs": [
						{
							"internalType": "uint256",
							"name": "sender",
							"type": "uint256"
						},
						{
							"internalType": "uint256",
							"name": "reciever",
							"type": "uint256"
						}
					],
					"stateMutability": "payable",
					"type": "function"
				}
			],
			"devdoc": {
				"kind": "dev",
				"methods": {},
				"version": 1
			},
			"evm": {
				"assembly": "    /* \"LABS 22 Aug/Task All 22.sol\":1754:2199  contract PaymentContract {... */\n  mstore(0x40, 0x80)\n    /* \"LABS 22 Aug/Task All 22.sol\":1871:1875  this */\n  address\n    /* \"LABS 22 Aug/Task All 22.sol\":1846:1852  Sender */\n  0x00\n  dup1\n    /* \"LABS 22 Aug/Task All 22.sol\":1846:1877  Sender = payable(address(this)) */\n  0x0100\n  exp\n  dup2\n  sload\n  dup2\n  0xffffffffffffffffffffffffffffffffffffffff\n  mul\n  not\n  and\n  swap1\n  dup4\n  0xffffffffffffffffffffffffffffffffffffffff\n  and\n  mul\n  or\n  swap1\n  sstore\n  pop\n    /* \"LABS 22 Aug/Task All 22.sol\":1754:2199  contract PaymentContract {... */\n  dataSize(sub_0)\n  dup1\n  dataOffset(sub_0)\n  0x00\n  codecopy\n  0x00\n  return\nstop\n\nsub_0: assembly {\n        /* \"LABS 22 Aug/Task All 22.sol\":1754:2199  contract PaymentContract {... */\n      mstore(0x40, 0x80)\n      jumpi(tag_1, lt(calldatasize, 0x04))\n      shr(0xe0, calldataload(0x00))\n      dup1\n      0xe6993661\n      eq\n      tag_2\n      jumpi\n    tag_1:\n      0x00\n      dup1\n      revert\n        /* \"LABS 22 Aug/Task All 22.sol\":1933:2197  function recievePayment()... */\n    tag_2:\n      tag_3\n      tag_4\n      jump\t// in\n    tag_3:\n      mload(0x40)\n      tag_5\n      swap3\n      swap2\n      swap1\n      tag_6\n      jump\t// in\n    tag_5:\n      mload(0x40)\n      dup1\n      swap2\n      sub\n      swap1\n      return\n    tag_4:\n        /* \"LABS 22 Aug/Task All 22.sol\":2007:2021  uint256 sender */\n      0x00\n        /* \"LABS 22 Aug/Task All 22.sol\":2023:2039  uint256 reciever */\n      dup1\n        /* \"LABS 22 Aug/Task All 22.sol\":2065:2075  msg.sender */\n      caller\n        /* \"LABS 22 Aug/Task All 22.sol\":2064:2084  (msg.sender).balance */\n      0xffffffffffffffffffffffffffffffffffffffff\n      and\n      balance\n        /* \"LABS 22 Aug/Task All 22.sol\":2055:2084  sender = (msg.sender).balance */\n      swap2\n      pop\n        /* \"LABS 22 Aug/Task All 22.sol\":2105:2126  address(this).balance */\n      selfbalance\n        /* \"LABS 22 Aug/Task All 22.sol\":2094:2126  reciever = address(this).balance */\n      swap1\n      pop\n        /* \"LABS 22 Aug/Task All 22.sol\":2141:2190  Confirmation(address(this), (msg.sender).balance) */\n      0x4a504a94899432a9846e1aa406dceb1bcfd538bb839071d49d1e5e23f5be30ef\n        /* \"LABS 22 Aug/Task All 22.sol\":2162:2166  this */\n      address\n        /* \"LABS 22 Aug/Task All 22.sol\":2170:2180  msg.sender */\n      caller\n        /* \"LABS 22 Aug/Task All 22.sol\":2169:2189  (msg.sender).balance */\n      0xffffffffffffffffffffffffffffffffffffffff\n      and\n      balance\n        /* \"LABS 22 Aug/Task All 22.sol\":2141:2190  Confirmation(address(this), (msg.sender).balance) */\n      mload(0x40)\n      tag_8\n      swap3\n      swap2\n      swap1\n      tag_9\n      jump\t// in\n    tag_8:\n      mload(0x40)\n      dup1\n      swap2\n      sub\n      swap1\n      log1\n        /* \"LABS 22 Aug/Task All 22.sol\":1933:2197  function recievePayment()... */\n      swap1\n      swap2\n      jump\t// out\n        /* \"#utility.yul\":7:84   */\n    tag_10:\n        /* \"#utility.yul\":44:51   */\n      0x00\n        /* \"#utility.yul\":73:78   */\n      dup2\n        /* \"#utility.yul\":62:78   */\n      swap1\n      pop\n        /* \"#utility.yul\":7:84   */\n      swap2\n      swap1\n      pop\n      jump\t// out\n        /* \"#utility.yul\":90:208   */\n    tag_11:\n        /* \"#utility.yul\":177:201   */\n      tag_18\n        /* \"#utility.yul\":195:200   */\n      dup2\n        /* \"#utility.yul\":177:201   */\n      tag_10\n      jump\t// in\n    tag_18:\n        /* \"#utility.yul\":172:175   */\n      dup3\n        /* \"#utility.yul\":165:202   */\n      mstore\n        /* \"#utility.yul\":90:208   */\n      pop\n      pop\n      jump\t// out\n        /* \"#utility.yul\":214:546   */\n    tag_6:\n        /* \"#utility.yul\":335:339   */\n      0x00\n        /* \"#utility.yul\":373:375   */\n      0x40\n        /* \"#utility.yul\":362:371   */\n      dup3\n        /* \"#utility.yul\":358:376   */\n      add\n        /* \"#utility.yul\":350:376   */\n      swap1\n      pop\n        /* \"#utility.yul\":386:457   */\n      tag_20\n        /* \"#utility.yul\":454:455   */\n      0x00\n        /* \"#utility.yul\":443:452   */\n      dup4\n        /* \"#utility.yul\":439:456   */\n      add\n        /* \"#utility.yul\":430:436   */\n      dup6\n        /* \"#utility.yul\":386:457   */\n      tag_11\n      jump\t// in\n    tag_20:\n        /* \"#utility.yul\":467:539   */\n      tag_21\n        /* \"#utility.yul\":535:537   */\n      0x20\n        /* \"#utility.yul\":524:533   */\n      dup4\n        /* \"#utility.yul\":520:538   */\n      add\n        /* \"#utility.yul\":511:517   */\n      dup5\n        /* \"#utility.yul\":467:539   */\n      tag_11\n      jump\t// in\n    tag_21:\n        /* \"#utility.yul\":214:546   */\n      swap4\n      swap3\n      pop\n      pop\n      pop\n      jump\t// out\n        /* \"#utility.yul\":552:678   */\n    tag_12:\n        /* \"#utility.yul\":589:596   */\n      0x00\n        /* \"#utility.yul\":629:671   */\n      0xffffffffffffffffffffffffffffffffffffffff\n        /* \"#utility.yul\":622:627   */\n      dup3\n        /* \"#utility.yul\":618:672   */\n      and\n        /* \"#utility.yul\":607:672   */\n      swap1\n      pop\n        /* \"#utility.yul\":552:678   */\n      swap2\n      swap1\n      pop\n      jump\t// out\n        /* \"#utility.yul\":684:780   */\n    tag_13:\n        /* \"#utility.yul\":721:728   */\n      0x00\n        /* \"#utility.yul\":750:774   */\n      tag_24\n        /* \"#utility.yul\":768:773   */\n      dup3\n        /* \"#utility.yul\":750:774   */\n      tag_12\n      jump\t// in\n    tag_24:\n        /* \"#utility.yul\":739:774   */\n      swap1\n      pop\n        /* \"#utility.yul\":684:780   */\n      swap2\n      swap1\n      pop\n      jump\t// out\n        /* \"#utility.yul\":786:904   */\n    tag_14:\n        /* \"#utility.yul\":873:897   */\n      tag_26\n        /* \"#utility.yul\":891:896   */\n      dup2\n        /* \"#utility.yul\":873:897   */\n      tag_13\n      jump\t// in\n    tag_26:\n        /* \"#utility.yul\":868:871   */\n      dup3\n        /* \"#utility.yul\":861:898   */\n      mstore\n        /* \"#utility.yul\":786:904   */\n      pop\n      pop\n      jump\t// out\n        /* \"#utility.yul\":910:1242   */\n    tag_9:\n        /* \"#utility.yul\":1031:1035   */\n      0x00\n        /* \"#utility.yul\":1069:1071   */\n      0x40\n        /* \"#utility.yul\":1058:1067   */\n      dup3\n        /* \"#utility.yul\":1054:1072   */\n      add\n        /* \"#utility.yul\":1046:1072   */\n      swap1\n      pop\n        /* \"#utility.yul\":1082:1153   */\n      tag_28\n        /* \"#utility.yul\":1150:1151   */\n      0x00\n        /* \"#utility.yul\":1139:1148   */\n      dup4\n        /* \"#utility.yul\":1135:1152   */\n      add\n        /* \"#utility.yul\":1126:1132   */\n      dup6\n        /* \"#utility.yul\":1082:1153   */\n      tag_14\n      jump\t// in\n    tag_28:\n        /* \"#utility.yul\":1163:1235   */\n      tag_29\n        /* \"#utility.yul\":1231:1233   */\n      0x20\n        /* \"#utility.yul\":1220:1229   */\n      dup4\n        /* \"#utility.yul\":1216:1234   */\n      add\n        /* \"#utility.yul\":1207:1213   */\n      dup5\n        /* \"#utility.yul\":1163:1235   */\n      tag_11\n      jump\t// in\n    tag_29:\n        /* \"#utility.yul\":910:1242   */\n      swap4\n      swap3\n      pop\n      pop\n      pop\n      jump\t// out\n\n    auxdata: 0xa26469706673582212205e4307dae959c64a7b2af7270426f68db3f331e7564334bb4b7a24f34f1a681364736f6c63430008120033\n}\n",
				"bytecode": {
					"linkReferences": {},
					"object": "6080604052306000806101000a81548173ffffffffffffffffffffffffffffffffffffffff021916908373ffffffffffffffffffffffffffffffffffffffff160217905550610198806100536000396000f3fe60806040526004361061001e5760003560e01c8063e699366114610023575b600080fd5b61002b610042565b6040516100399291906100cf565b60405180910390f35b6000803373ffffffffffffffffffffffffffffffffffffffff163191504790507f4a504a94899432a9846e1aa406dceb1bcfd538bb839071d49d1e5e23f5be30ef303373ffffffffffffffffffffffffffffffffffffffff16316040516100aa929190610139565b60405180910390a19091565b6000819050919050565b6100c9816100b6565b82525050565b60006040820190506100e460008301856100c0565b6100f160208301846100c0565b9392505050565b600073ffffffffffffffffffffffffffffffffffffffff82169050919050565b6000610123826100f8565b9050919050565b61013381610118565b82525050565b600060408201905061014e600083018561012a565b61015b60208301846100c0565b939250505056fea26469706673582212205e4307dae959c64a7b2af7270426f68db3f331e7564334bb4b7a24f34f1a681364736f6c63430008120033",
					"opcodes": "PUSH1 0x80 PUSH1 0x40 MSTORE ADDRESS PUSH1 0x0 DUP1 PUSH2 0x100 EXP DUP2 SLOAD DUP2 PUSH20 0xFFFFFFFFFFFFFFFFFFFFFFFFFFFFFFFFFFFFFFFF MUL NOT AND SWAP1 DUP4 PUSH20 0xFFFFFFFFFFFFFFFFFFFFFFFFFFFFFFFFFFFFFFFF AND MUL OR SWAP1 SSTORE POP PUSH2 0x198 DUP1 PUSH2 0x53 PUSH1 0x0 CODECOPY PUSH1 0x0 RETURN INVALID PUSH1 0x80 PUSH1 0x40 MSTORE PUSH1 0x4 CALLDATASIZE LT PUSH2 0x1E JUMPI PUSH1 0x0 CALLDATALOAD PUSH1 0xE0 SHR DUP1 PUSH4 0xE6993661 EQ PUSH2 0x23 JUMPI JUMPDEST PUSH1 0x0 DUP1 REVERT JUMPDEST PUSH2 0x2B PUSH2 0x42 JUMP JUMPDEST PUSH1 0x40 MLOAD PUSH2 0x39 SWAP3 SWAP2 SWAP1 PUSH2 0xCF JUMP JUMPDEST PUSH1 0x40 MLOAD DUP1 SWAP2 SUB SWAP1 RETURN JUMPDEST PUSH1 0x0 DUP1 CALLER PUSH20 0xFFFFFFFFFFFFFFFFFFFFFFFFFFFFFFFFFFFFFFFF AND BALANCE SWAP2 POP SELFBALANCE SWAP1 POP PUSH32 0x4A504A94899432A9846E1AA406DCEB1BCFD538BB839071D49D1E5E23F5BE30EF ADDRESS CALLER PUSH20 0xFFFFFFFFFFFFFFFFFFFFFFFFFFFFFFFFFFFFFFFF AND BALANCE PUSH1 0x40 MLOAD PUSH2 0xAA SWAP3 SWAP2 SWAP1 PUSH2 0x139 JUMP JUMPDEST PUSH1 0x40 MLOAD DUP1 SWAP2 SUB SWAP1 LOG1 SWAP1 SWAP2 JUMP JUMPDEST PUSH1 0x0 DUP2 SWAP1 POP SWAP2 SWAP1 POP JUMP JUMPDEST PUSH2 0xC9 DUP2 PUSH2 0xB6 JUMP JUMPDEST DUP3 MSTORE POP POP JUMP JUMPDEST PUSH1 0x0 PUSH1 0x40 DUP3 ADD SWAP1 POP PUSH2 0xE4 PUSH1 0x0 DUP4 ADD DUP6 PUSH2 0xC0 JUMP JUMPDEST PUSH2 0xF1 PUSH1 0x20 DUP4 ADD DUP5 PUSH2 0xC0 JUMP JUMPDEST SWAP4 SWAP3 POP POP POP JUMP JUMPDEST PUSH1 0x0 PUSH20 0xFFFFFFFFFFFFFFFFFFFFFFFFFFFFFFFFFFFFFFFF DUP3 AND SWAP1 POP SWAP2 SWAP1 POP JUMP JUMPDEST PUSH1 0x0 PUSH2 0x123 DUP3 PUSH2 0xF8 JUMP JUMPDEST SWAP1 POP SWAP2 SWAP1 POP JUMP JUMPDEST PUSH2 0x133 DUP2 PUSH2 0x118 JUMP JUMPDEST DUP3 MSTORE POP POP JUMP JUMPDEST PUSH1 0x0 PUSH1 0x40 DUP3 ADD SWAP1 POP PUSH2 0x14E PUSH1 0x0 DUP4 ADD DUP6 PUSH2 0x12A JUMP JUMPDEST PUSH2 0x15B PUSH1 0x20 DUP4 ADD DUP5 PUSH2 0xC0 JUMP JUMPDEST SWAP4 SWAP3 POP POP POP JUMP INVALID LOG2 PUSH5 0x6970667358 0x22 SLT KECCAK256 0x5E NUMBER SMOD 0xDA 0xE9 MSIZE 0xC6 0x4A PUSH28 0x2AF7270426F68DB3F331E7564334BB4B7A24F34F1A681364736F6C63 NUMBER STOP ADDMOD SLT STOP CALLER "
				},
				"gasEstimates": {
					"creation": {
						"codeDepositCost": "81600",
						"executionCost": "24371",
						"totalCost": "105971"
					},
					"external": {
						"recievePayment()": "infinite"
					}
				},
				"methodIdentifiers": {
					"recievePayment()": "e6993661"
				}
			},
			"storageLayout": {
				"storage": [
					{
						"astId": 200,
						"contract": "LABS 22 Aug/Task All 22.sol:PaymentContract",
						"label": "Sender",
						"offset": 0,
						"slot": "0",
						"type": "t_address_payable"
					}
				],
				"types": {
					"t_address_payable": {
						"encoding": "inplace",
						"label": "address payable",
						"numberOfBytes": "20"
					}
				}
			},
			"userdoc": {
				"kind": "user",
				"methods": {},
				"version": 1
			}
		}
	}
}