{
	"ad.sol": {
		"StudentRegistry": {
			"abi": [
				{
					"inputs": [
						{
							"internalType": "enum StudentRegistry.Department",
							"name": "_department",
							"type": "uint8"
						}
					],
					"name": "getDepartmentCount",
					"outputs": [
						{
							"internalType": "uint256",
							"name": "",
							"type": "uint256"
						}
					],
					"stateMutability": "view",
					"type": "function"
				},
				{
					"inputs": [
						{
							"internalType": "string",
							"name": "_rollNo",
							"type": "string"
						}
					],
					"name": "getStudentDetails",
					"outputs": [
						{
							"internalType": "string",
							"name": "name",
							"type": "string"
						},
						{
							"internalType": "uint256",
							"name": "age",
							"type": "uint256"
						},
						{
							"internalType": "uint256",
							"name": "registrationDate",
							"type": "uint256"
						},
						{
							"internalType": "enum StudentRegistry.Department",
							"name": "department",
							"type": "uint8"
						},
						{
							"internalType": "enum StudentRegistry.Status",
							"name": "status",
							"type": "uint8"
						},
						{
							"internalType": "uint256",
							"name": "obtainedMarks",
							"type": "uint256"
						}
					],
					"stateMutability": "view",
					"type": "function"
				},
				{
					"inputs": [],
					"name": "getTopThreeBlockchainAchievers",
					"outputs": [
						{
							"internalType": "string",
							"name": "first",
							"type": "string"
						},
						{
							"internalType": "string",
							"name": "second",
							"type": "string"
						},
						{
							"internalType": "string",
							"name": "third",
							"type": "string"
						}
					],
					"stateMutability": "view",
					"type": "function"
				},
				{
					"inputs": [
						{
							"internalType": "string",
							"name": "_rollNo",
							"type": "string"
						},
						{
							"internalType": "string",
							"name": "_name",
							"type": "string"
						},
						{
							"internalType": "uint256",
							"name": "_age",
							"type": "uint256"
						},
						{
							"internalType": "enum StudentRegistry.Department",
							"name": "_department",
							"type": "uint8"
						}
					],
					"name": "registerStudent",
					"outputs": [],
					"stateMutability": "nonpayable",
					"type": "function"
				},
				{
					"inputs": [
						{
							"internalType": "string",
							"name": "_rollNo",
							"type": "string"
						},
						{
							"internalType": "string",
							"name": "_name",
							"type": "string"
						},
						{
							"internalType": "uint256",
							"name": "_age",
							"type": "uint256"
						},
						{
							"internalType": "enum StudentRegistry.Department",
							"name": "_department",
							"type": "uint8"
						},
						{
							"internalType": "enum StudentRegistry.Status",
							"name": "_status",
							"type": "uint8"
						},
						{
							"internalType": "uint256",
							"name": "_obtainedMarks",
							"type": "uint256"
						}
					],
					"name": "updateStudentDetails",
					"outputs": [],
					"stateMutability": "nonpayable",
					"type": "function"
				}
			],
			"devdoc": {
				"kind": "dev",
				"methods": {},
				"version": 1
			},
			"evm": {
				"assembly": "    /* \"ad.sol\":59:3347  contract StudentRegistry {... */\n  mstore(0x40, 0x80)\n  callvalue\n  dup1\n  iszero\n  tag_1\n  jumpi\n  0x00\n  dup1\n  revert\ntag_1:\n  pop\n  dataSize(sub_0)\n  dup1\n  dataOffset(sub_0)\n  0x00\n  codecopy\n  0x00\n  return\nstop\n\nsub_0: assembly {\n        /* \"ad.sol\":59:3347  contract StudentRegistry {... */\n      mstore(0x40, 0x80)\n      callvalue\n      dup1\n      iszero\n      tag_1\n      jumpi\n      0x00\n      dup1\n      revert\n    tag_1:\n      pop\n      jumpi(tag_2, lt(calldatasize, 0x04))\n      shr(0xe0, calldataload(0x00))\n      dup1\n      0x35eef5\n      eq\n      tag_3\n      jumpi\n      dup1\n      0x4a7c31dc\n      eq\n      tag_4\n      jumpi\n      dup1\n      0x5c2a9263\n      eq\n      tag_5\n      jumpi\n      dup1\n      0x8805f0f4\n      eq\n      tag_6\n      jumpi\n      dup1\n      0xcaf76adb\n      eq\n      tag_7\n      jumpi\n    tag_2:\n      0x00\n      dup1\n      revert\n        /* \"ad.sol\":2464:2598  function getDepartmentCount(Department _department) public view returns (uint) {... */\n    tag_3:\n      tag_8\n      0x04\n      dup1\n      calldatasize\n      sub\n      dup2\n      add\n      swap1\n      tag_9\n      swap2\n      swap1\n      tag_10\n      jump\t// in\n    tag_9:\n      tag_11\n      jump\t// in\n    tag_8:\n      mload(0x40)\n      tag_12\n      swap2\n      swap1\n      tag_13\n      jump\t// in\n    tag_12:\n      mload(0x40)\n      dup1\n      swap2\n      sub\n      swap1\n      return\n        /* \"ad.sol\":536:1105  function registerStudent(... */\n    tag_4:\n      tag_14\n      0x04\n      dup1\n      calldatasize\n      sub\n      dup2\n      add\n      swap1\n      tag_15\n      swap2\n      swap1\n      tag_16\n      jump\t// in\n    tag_15:\n      tag_17\n      jump\t// in\n    tag_14:\n      stop\n        /* \"ad.sol\":1113:1856  function updateStudentDetails(... */\n    tag_5:\n      tag_18\n      0x04\n      dup1\n      calldatasize\n      sub\n      dup2\n      add\n      swap1\n      tag_19\n      swap2\n      swap1\n      tag_20\n      jump\t// in\n    tag_19:\n      tag_21\n      jump\t// in\n    tag_18:\n      stop\n        /* \"ad.sol\":1864:2456  function getStudentDetails(string memory _rollNo) public view returns (... */\n    tag_6:\n      tag_22\n      0x04\n      dup1\n      calldatasize\n      sub\n      dup2\n      add\n      swap1\n      tag_23\n      swap2\n      swap1\n      tag_24\n      jump\t// in\n    tag_23:\n      tag_25\n      jump\t// in\n    tag_22:\n      mload(0x40)\n      tag_26\n      swap7\n      swap6\n      swap5\n      swap4\n      swap3\n      swap2\n      swap1\n      tag_27\n      jump\t// in\n    tag_26:\n      mload(0x40)\n      dup1\n      swap2\n      sub\n      swap1\n      return\n        /* \"ad.sol\":2600:3344  function getTopThreeBlockchainAchievers() public view returns (... */\n    tag_7:\n      tag_28\n      tag_29\n      jump\t// in\n    tag_28:\n      mload(0x40)\n      tag_30\n      swap4\n      swap3\n      swap2\n      swap1\n      tag_31\n      jump\t// in\n    tag_30:\n      mload(0x40)\n      dup1\n      swap2\n      sub\n      swap1\n      return\n        /* \"ad.sol\":2464:2598  function getDepartmentCount(Department _department) public view returns (uint) {... */\n    tag_11:\n        /* \"ad.sol\":2537:2541  uint */\n      0x00\n        /* \"ad.sol\":2561:2577  departmentCounts */\n      0x01\n        /* \"ad.sol\":2561:2590  departmentCounts[_department] */\n      0x00\n        /* \"ad.sol\":2578:2589  _department */\n      dup4\n        /* \"ad.sol\":2561:2590  departmentCounts[_department] */\n      0x03\n      dup2\n      gt\n      iszero\n      tag_33\n      jumpi\n      tag_34\n      tag_35\n      jump\t// in\n    tag_34:\n    tag_33:\n      0x03\n      dup2\n      gt\n      iszero\n      tag_36\n      jumpi\n      tag_37\n      tag_35\n      jump\t// in\n    tag_37:\n    tag_36:\n      dup2\n      mstore\n      0x20\n      add\n      swap1\n      dup2\n      mstore\n      0x20\n      add\n      0x00\n      keccak256\n      sload\n        /* \"ad.sol\":2554:2590  return departmentCounts[_department] */\n      swap1\n      pop\n        /* \"ad.sol\":2464:2598  function getDepartmentCount(Department _department) public view returns (uint) {... */\n      swap2\n      swap1\n      pop\n      jump\t// out\n        /* \"ad.sol\":536:1105  function registerStudent(... */\n    tag_17:\n        /* \"ad.sol\":747:748  0 */\n      0x00\n        /* \"ad.sol\":709:717  students */\n      dup1\n        /* \"ad.sol\":718:725  _rollNo */\n      dup6\n        /* \"ad.sol\":709:726  students[_rollNo] */\n      mload(0x40)\n      tag_39\n      swap2\n      swap1\n      tag_40\n      jump\t// in\n    tag_39:\n      swap1\n      dup2\n      mstore\n      0x20\n      add\n      mload(0x40)\n      dup1\n      swap2\n      sub\n      swap1\n      keccak256\n        /* \"ad.sol\":709:743  students[_rollNo].registrationDate */\n      0x02\n      add\n      sload\n        /* \"ad.sol\":709:748  students[_rollNo].registrationDate == 0 */\n      eq\n        /* \"ad.sol\":701:779  require(students[_rollNo].registrationDate == 0, \"Student already registered\") */\n      tag_41\n      jumpi\n      mload(0x40)\n      0x08c379a000000000000000000000000000000000000000000000000000000000\n      dup2\n      mstore\n      0x04\n      add\n      tag_42\n      swap1\n      tag_43\n      jump\t// in\n    tag_42:\n      mload(0x40)\n      dup1\n      swap2\n      sub\n      swap1\n      revert\n    tag_41:\n        /* \"ad.sol\":820:1045  Student({... */\n      mload(0x40)\n      dup1\n      0xc0\n      add\n      0x40\n      mstore\n      dup1\n        /* \"ad.sol\":849:854  _name */\n      dup5\n        /* \"ad.sol\":820:1045  Student({... */\n      dup2\n      mstore\n      0x20\n      add\n        /* \"ad.sol\":874:878  _age */\n      dup4\n        /* \"ad.sol\":820:1045  Student({... */\n      dup2\n      mstore\n      0x20\n      add\n        /* \"ad.sol\":911:926  block.timestamp */\n      timestamp\n        /* \"ad.sol\":820:1045  Student({... */\n      dup2\n      mstore\n      0x20\n      add\n        /* \"ad.sol\":953:964  _department */\n      dup3\n        /* \"ad.sol\":820:1045  Student({... */\n      0x03\n      dup2\n      gt\n      iszero\n      tag_44\n      jumpi\n      tag_45\n      tag_35\n      jump\t// in\n    tag_45:\n    tag_44:\n      dup2\n      mstore\n      0x20\n      add\n        /* \"ad.sol\":987:1002  Status.Enrolled */\n      0x00\n        /* \"ad.sol\":820:1045  Student({... */\n      0x03\n      dup2\n      gt\n      iszero\n      tag_46\n      jumpi\n      tag_47\n      tag_35\n      jump\t// in\n    tag_47:\n    tag_46:\n      dup2\n      mstore\n      0x20\n      add\n        /* \"ad.sol\":1032:1033  0 */\n      0x00\n        /* \"ad.sol\":820:1045  Student({... */\n      dup2\n      mstore\n      pop\n        /* \"ad.sol\":800:808  students */\n      0x00\n        /* \"ad.sol\":809:816  _rollNo */\n      dup6\n        /* \"ad.sol\":800:817  students[_rollNo] */\n      mload(0x40)\n      tag_48\n      swap2\n      swap1\n      tag_40\n      jump\t// in\n    tag_48:\n      swap1\n      dup2\n      mstore\n      0x20\n      add\n      mload(0x40)\n      dup1\n      swap2\n      sub\n      swap1\n      keccak256\n        /* \"ad.sol\":800:1045  students[_rollNo] = Student({... */\n      0x00\n      dup3\n      add\n      mload\n      dup2\n      0x00\n      add\n      swap1\n      dup2\n      tag_49\n      swap2\n      swap1\n      tag_50\n      jump\t// in\n    tag_49:\n      pop\n      0x20\n      dup3\n      add\n      mload\n      dup2\n      0x01\n      add\n      sstore\n      0x40\n      dup3\n      add\n      mload\n      dup2\n      0x02\n      add\n      sstore\n      0x60\n      dup3\n      add\n      mload\n      dup2\n      0x03\n      add\n      exp(0x0100, 0x00)\n      dup2\n      sload\n      dup2\n      0xff\n      mul\n      not\n      and\n      swap1\n      dup4\n      0x03\n      dup2\n      gt\n      iszero\n      tag_51\n      jumpi\n      tag_52\n      tag_35\n      jump\t// in\n    tag_52:\n    tag_51:\n      mul\n      or\n      swap1\n      sstore\n      pop\n      0x80\n      dup3\n      add\n      mload\n      dup2\n      0x03\n      add\n      exp(0x0100, 0x01)\n      dup2\n      sload\n      dup2\n      0xff\n      mul\n      not\n      and\n      swap1\n      dup4\n      0x03\n      dup2\n      gt\n      iszero\n      tag_53\n      jumpi\n      tag_54\n      tag_35\n      jump\t// in\n    tag_54:\n    tag_53:\n      mul\n      or\n      swap1\n      sstore\n      pop\n      0xa0\n      dup3\n      add\n      mload\n      dup2\n      0x04\n      add\n      sstore\n      swap1\n      pop\n      pop\n        /* \"ad.sol\":1066:1082  departmentCounts */\n      0x01\n        /* \"ad.sol\":1066:1095  departmentCounts[_department] */\n      0x00\n        /* \"ad.sol\":1083:1094  _department */\n      dup3\n        /* \"ad.sol\":1066:1095  departmentCounts[_department] */\n      0x03\n      dup2\n      gt\n      iszero\n      tag_55\n      jumpi\n      tag_56\n      tag_35\n      jump\t// in\n    tag_56:\n    tag_55:\n      0x03\n      dup2\n      gt\n      iszero\n      tag_57\n      jumpi\n      tag_58\n      tag_35\n      jump\t// in\n    tag_58:\n    tag_57:\n      dup2\n      mstore\n      0x20\n      add\n      swap1\n      dup2\n      mstore\n      0x20\n      add\n      0x00\n      keccak256\n      0x00\n        /* \"ad.sol\":1066:1097  departmentCounts[_department]++ */\n      dup2\n      sload\n      dup1\n      swap3\n      swap2\n      swap1\n      tag_59\n      swap1\n      tag_60\n      jump\t// in\n    tag_59:\n      swap2\n      swap1\n      pop\n      sstore\n      pop\n        /* \"ad.sol\":536:1105  function registerStudent(... */\n      pop\n      pop\n      pop\n      pop\n      jump\t// out\n        /* \"ad.sol\":1113:1856  function updateStudentDetails(... */\n    tag_21:\n        /* \"ad.sol\":1383:1384  0 */\n      0x00\n        /* \"ad.sol\":1346:1354  students */\n      dup1\n        /* \"ad.sol\":1355:1362  _rollNo */\n      dup8\n        /* \"ad.sol\":1346:1363  students[_rollNo] */\n      mload(0x40)\n      tag_62\n      swap2\n      swap1\n      tag_40\n      jump\t// in\n    tag_62:\n      swap1\n      dup2\n      mstore\n      0x20\n      add\n      mload(0x40)\n      dup1\n      swap2\n      sub\n      swap1\n      keccak256\n        /* \"ad.sol\":1346:1380  students[_rollNo].registrationDate */\n      0x02\n      add\n      sload\n        /* \"ad.sol\":1346:1384  students[_rollNo].registrationDate > 0 */\n      gt\n        /* \"ad.sol\":1338:1411  require(students[_rollNo].registrationDate > 0, \"Student not registered\") */\n      tag_63\n      jumpi\n      mload(0x40)\n      0x08c379a000000000000000000000000000000000000000000000000000000000\n      dup2\n      mstore\n      0x04\n      add\n      tag_64\n      swap1\n      tag_65\n      jump\t// in\n    tag_64:\n      mload(0x40)\n      dup1\n      swap2\n      sub\n      swap1\n      revert\n    tag_63:\n        /* \"ad.sol\":1457:1462  _name */\n      dup5\n        /* \"ad.sol\":1432:1440  students */\n      0x00\n        /* \"ad.sol\":1441:1448  _rollNo */\n      dup8\n        /* \"ad.sol\":1432:1449  students[_rollNo] */\n      mload(0x40)\n      tag_66\n      swap2\n      swap1\n      tag_40\n      jump\t// in\n    tag_66:\n      swap1\n      dup2\n      mstore\n      0x20\n      add\n      mload(0x40)\n      dup1\n      swap2\n      sub\n      swap1\n      keccak256\n        /* \"ad.sol\":1432:1454  students[_rollNo].name */\n      0x00\n      add\n        /* \"ad.sol\":1432:1462  students[_rollNo].name = _name */\n      swap1\n      dup2\n      tag_67\n      swap2\n      swap1\n      tag_50\n      jump\t// in\n    tag_67:\n      pop\n        /* \"ad.sol\":1497:1501  _age */\n      dup4\n        /* \"ad.sol\":1473:1481  students */\n      0x00\n        /* \"ad.sol\":1482:1489  _rollNo */\n      dup8\n        /* \"ad.sol\":1473:1490  students[_rollNo] */\n      mload(0x40)\n      tag_68\n      swap2\n      swap1\n      tag_40\n      jump\t// in\n    tag_68:\n      swap1\n      dup2\n      mstore\n      0x20\n      add\n      mload(0x40)\n      dup1\n      swap2\n      sub\n      swap1\n      keccak256\n        /* \"ad.sol\":1473:1494  students[_rollNo].age */\n      0x01\n      add\n        /* \"ad.sol\":1473:1501  students[_rollNo].age = _age */\n      dup2\n      swap1\n      sstore\n      pop\n        /* \"ad.sol\":1543:1554  _department */\n      dup3\n        /* \"ad.sol\":1512:1520  students */\n      0x00\n        /* \"ad.sol\":1521:1528  _rollNo */\n      dup8\n        /* \"ad.sol\":1512:1529  students[_rollNo] */\n      mload(0x40)\n      tag_69\n      swap2\n      swap1\n      tag_40\n      jump\t// in\n    tag_69:\n      swap1\n      dup2\n      mstore\n      0x20\n      add\n      mload(0x40)\n      dup1\n      swap2\n      sub\n      swap1\n      keccak256\n        /* \"ad.sol\":1512:1540  students[_rollNo].department */\n      0x03\n      add\n      0x00\n        /* \"ad.sol\":1512:1554  students[_rollNo].department = _department */\n      0x0100\n      exp\n      dup2\n      sload\n      dup2\n      0xff\n      mul\n      not\n      and\n      swap1\n      dup4\n      0x03\n      dup2\n      gt\n      iszero\n      tag_70\n      jumpi\n      tag_71\n      tag_35\n      jump\t// in\n    tag_71:\n    tag_70:\n      mul\n      or\n      swap1\n      sstore\n      pop\n        /* \"ad.sol\":1592:1599  _status */\n      dup2\n        /* \"ad.sol\":1565:1573  students */\n      0x00\n        /* \"ad.sol\":1574:1581  _rollNo */\n      dup8\n        /* \"ad.sol\":1565:1582  students[_rollNo] */\n      mload(0x40)\n      tag_72\n      swap2\n      swap1\n      tag_40\n      jump\t// in\n    tag_72:\n      swap1\n      dup2\n      mstore\n      0x20\n      add\n      mload(0x40)\n      dup1\n      swap2\n      sub\n      swap1\n      keccak256\n        /* \"ad.sol\":1565:1589  students[_rollNo].status */\n      0x03\n      add\n      0x01\n        /* \"ad.sol\":1565:1599  students[_rollNo].status = _status */\n      0x0100\n      exp\n      dup2\n      sload\n      dup2\n      0xff\n      mul\n      not\n      and\n      swap1\n      dup4\n      0x03\n      dup2\n      gt\n      iszero\n      tag_73\n      jumpi\n      tag_74\n      tag_35\n      jump\t// in\n    tag_74:\n    tag_73:\n      mul\n      or\n      swap1\n      sstore\n      pop\n        /* \"ad.sol\":1644:1658  _obtainedMarks */\n      dup1\n        /* \"ad.sol\":1610:1618  students */\n      0x00\n        /* \"ad.sol\":1619:1626  _rollNo */\n      dup8\n        /* \"ad.sol\":1610:1627  students[_rollNo] */\n      mload(0x40)\n      tag_75\n      swap2\n      swap1\n      tag_40\n      jump\t// in\n    tag_75:\n      swap1\n      dup2\n      mstore\n      0x20\n      add\n      mload(0x40)\n      dup1\n      swap2\n      sub\n      swap1\n      keccak256\n        /* \"ad.sol\":1610:1641  students[_rollNo].obtainedMarks */\n      0x04\n      add\n        /* \"ad.sol\":1610:1658  students[_rollNo].obtainedMarks = _obtainedMarks */\n      dup2\n      swap1\n      sstore\n      pop\n        /* \"ad.sol\":1698:1706  students */\n      0x00\n        /* \"ad.sol\":1707:1714  _rollNo */\n      dup7\n        /* \"ad.sol\":1698:1715  students[_rollNo] */\n      mload(0x40)\n      tag_76\n      swap2\n      swap1\n      tag_40\n      jump\t// in\n    tag_76:\n      swap1\n      dup2\n      mstore\n      0x20\n      add\n      mload(0x40)\n      dup1\n      swap2\n      sub\n      swap1\n      keccak256\n        /* \"ad.sol\":1698:1726  students[_rollNo].department */\n      0x03\n      add\n      0x00\n      swap1\n      sload\n      swap1\n      0x0100\n      exp\n      swap1\n      div\n      0xff\n      and\n        /* \"ad.sol\":1683:1726  _department != students[_rollNo].department */\n      0x03\n      dup2\n      gt\n      iszero\n      tag_77\n      jumpi\n      tag_78\n      tag_35\n      jump\t// in\n    tag_78:\n    tag_77:\n        /* \"ad.sol\":1683:1694  _department */\n      dup4\n        /* \"ad.sol\":1683:1726  _department != students[_rollNo].department */\n      0x03\n      dup2\n      gt\n      iszero\n      tag_79\n      jumpi\n      tag_80\n      tag_35\n      jump\t// in\n    tag_80:\n    tag_79:\n      eq\n        /* \"ad.sol\":1679:1849  if (_department != students[_rollNo].department) {... */\n      tag_81\n      jumpi\n        /* \"ad.sol\":1743:1759  departmentCounts */\n      0x01\n        /* \"ad.sol\":1743:1789  departmentCounts[students[_rollNo].department] */\n      0x00\n        /* \"ad.sol\":1760:1768  students */\n      dup1\n        /* \"ad.sol\":1769:1776  _rollNo */\n      dup9\n        /* \"ad.sol\":1760:1777  students[_rollNo] */\n      mload(0x40)\n      tag_82\n      swap2\n      swap1\n      tag_40\n      jump\t// in\n    tag_82:\n      swap1\n      dup2\n      mstore\n      0x20\n      add\n      mload(0x40)\n      dup1\n      swap2\n      sub\n      swap1\n      keccak256\n        /* \"ad.sol\":1760:1788  students[_rollNo].department */\n      0x03\n      add\n      0x00\n      swap1\n      sload\n      swap1\n      0x0100\n      exp\n      swap1\n      div\n      0xff\n      and\n        /* \"ad.sol\":1743:1789  departmentCounts[students[_rollNo].department] */\n      0x03\n      dup2\n      gt\n      iszero\n      tag_83\n      jumpi\n      tag_84\n      tag_35\n      jump\t// in\n    tag_84:\n    tag_83:\n      0x03\n      dup2\n      gt\n      iszero\n      tag_85\n      jumpi\n      tag_86\n      tag_35\n      jump\t// in\n    tag_86:\n    tag_85:\n      dup2\n      mstore\n      0x20\n      add\n      swap1\n      dup2\n      mstore\n      0x20\n      add\n      0x00\n      keccak256\n      0x00\n        /* \"ad.sol\":1743:1791  departmentCounts[students[_rollNo].department]-- */\n      dup2\n      sload\n      dup1\n      swap3\n      swap2\n      swap1\n      tag_87\n      swap1\n      tag_88\n      jump\t// in\n    tag_87:\n      swap2\n      swap1\n      pop\n      sstore\n      pop\n        /* \"ad.sol\":1806:1822  departmentCounts */\n      0x01\n        /* \"ad.sol\":1806:1835  departmentCounts[_department] */\n      0x00\n        /* \"ad.sol\":1823:1834  _department */\n      dup5\n        /* \"ad.sol\":1806:1835  departmentCounts[_department] */\n      0x03\n      dup2\n      gt\n      iszero\n      tag_89\n      jumpi\n      tag_90\n      tag_35\n      jump\t// in\n    tag_90:\n    tag_89:\n      0x03\n      dup2\n      gt\n      iszero\n      tag_91\n      jumpi\n      tag_92\n      tag_35\n      jump\t// in\n    tag_92:\n    tag_91:\n      dup2\n      mstore\n      0x20\n      add\n      swap1\n      dup2\n      mstore\n      0x20\n      add\n      0x00\n      keccak256\n      0x00\n        /* \"ad.sol\":1806:1837  departmentCounts[_department]++ */\n      dup2\n      sload\n      dup1\n      swap3\n      swap2\n      swap1\n      tag_93\n      swap1\n      tag_60\n      jump\t// in\n    tag_93:\n      swap2\n      swap1\n      pop\n      sstore\n      pop\n        /* \"ad.sol\":1679:1849  if (_department != students[_rollNo].department) {... */\n    tag_81:\n        /* \"ad.sol\":1113:1856  function updateStudentDetails(... */\n      pop\n      pop\n      pop\n      pop\n      pop\n      pop\n      jump\t// out\n        /* \"ad.sol\":1864:2456  function getStudentDetails(string memory _rollNo) public view returns (... */\n    tag_25:\n        /* \"ad.sol\":1945:1963  string memory name */\n      0x60\n        /* \"ad.sol\":1974:1982  uint age */\n      0x00\n        /* \"ad.sol\":1993:2014  uint registrationDate */\n      dup1\n        /* \"ad.sol\":2025:2046  Department department */\n      0x00\n        /* \"ad.sol\":2057:2070  Status status */\n      dup1\n        /* \"ad.sol\":2081:2099  uint obtainedMarks */\n      0x00\n        /* \"ad.sol\":2118:2140  Student memory student */\n      dup1\n        /* \"ad.sol\":2143:2151  students */\n      0x00\n        /* \"ad.sol\":2152:2159  _rollNo */\n      dup9\n        /* \"ad.sol\":2143:2160  students[_rollNo] */\n      mload(0x40)\n      tag_95\n      swap2\n      swap1\n      tag_40\n      jump\t// in\n    tag_95:\n      swap1\n      dup2\n      mstore\n      0x20\n      add\n      mload(0x40)\n      dup1\n      swap2\n      sub\n      swap1\n      keccak256\n        /* \"ad.sol\":2118:2160  Student memory student = students[_rollNo] */\n      mload(0x40)\n      dup1\n      0xc0\n      add\n      0x40\n      mstore\n      swap1\n      dup2\n      0x00\n      dup3\n      add\n      dup1\n      sload\n      tag_96\n      swap1\n      tag_97\n      jump\t// in\n    tag_96:\n      dup1\n      0x1f\n      add\n      0x20\n      dup1\n      swap2\n      div\n      mul\n      0x20\n      add\n      mload(0x40)\n      swap1\n      dup2\n      add\n      0x40\n      mstore\n      dup1\n      swap3\n      swap2\n      swap1\n      dup2\n      dup2\n      mstore\n      0x20\n      add\n      dup3\n      dup1\n      sload\n      tag_98\n      swap1\n      tag_97\n      jump\t// in\n    tag_98:\n      dup1\n      iszero\n      tag_99\n      jumpi\n      dup1\n      0x1f\n      lt\n      tag_100\n      jumpi\n      0x0100\n      dup1\n      dup4\n      sload\n      div\n      mul\n      dup4\n      mstore\n      swap2\n      0x20\n      add\n      swap2\n      jump(tag_99)\n    tag_100:\n      dup3\n      add\n      swap2\n      swap1\n      0x00\n      mstore\n      keccak256(0x00, 0x20)\n      swap1\n    tag_101:\n      dup2\n      sload\n      dup2\n      mstore\n      swap1\n      0x01\n      add\n      swap1\n      0x20\n      add\n      dup1\n      dup4\n      gt\n      tag_101\n      jumpi\n      dup3\n      swap1\n      sub\n      0x1f\n      and\n      dup3\n      add\n      swap2\n    tag_99:\n      pop\n      pop\n      pop\n      pop\n      pop\n      dup2\n      mstore\n      0x20\n      add\n      0x01\n      dup3\n      add\n      sload\n      dup2\n      mstore\n      0x20\n      add\n      0x02\n      dup3\n      add\n      sload\n      dup2\n      mstore\n      0x20\n      add\n      0x03\n      dup3\n      add\n      0x00\n      swap1\n      sload\n      swap1\n      0x0100\n      exp\n      swap1\n      div\n      0xff\n      and\n      0x03\n      dup2\n      gt\n      iszero\n      tag_102\n      jumpi\n      tag_103\n      tag_35\n      jump\t// in\n    tag_103:\n    tag_102:\n      0x03\n      dup2\n      gt\n      iszero\n      tag_104\n      jumpi\n      tag_105\n      tag_35\n      jump\t// in\n    tag_105:\n    tag_104:\n      dup2\n      mstore\n      0x20\n      add\n      0x03\n      dup3\n      add\n      0x01\n      swap1\n      sload\n      swap1\n      0x0100\n      exp\n      swap1\n      div\n      0xff\n      and\n      0x03\n      dup2\n      gt\n      iszero\n      tag_106\n      jumpi\n      tag_107\n      tag_35\n      jump\t// in\n    tag_107:\n    tag_106:\n      0x03\n      dup2\n      gt\n      iszero\n      tag_108\n      jumpi\n      tag_109\n      tag_35\n      jump\t// in\n    tag_109:\n    tag_108:\n      dup2\n      mstore\n      0x20\n      add\n      0x04\n      dup3\n      add\n      sload\n      dup2\n      mstore\n      pop\n      pop\n      swap1\n      pop\n        /* \"ad.sol\":2206:2207  0 */\n      0x00\n        /* \"ad.sol\":2179:2186  student */\n      dup2\n        /* \"ad.sol\":2179:2203  student.registrationDate */\n      0x40\n      add\n      mload\n        /* \"ad.sol\":2179:2207  student.registrationDate > 0 */\n      gt\n        /* \"ad.sol\":2171:2229  require(student.registrationDate > 0, \"Student not found\") */\n      tag_110\n      jumpi\n      mload(0x40)\n      0x08c379a000000000000000000000000000000000000000000000000000000000\n      dup2\n      mstore\n      0x04\n      add\n      tag_111\n      swap1\n      tag_112\n      jump\t// in\n    tag_111:\n      mload(0x40)\n      dup1\n      swap2\n      sub\n      swap1\n      revert\n    tag_110:\n        /* \"ad.sol\":2262:2269  student */\n      dup1\n        /* \"ad.sol\":2262:2274  student.name */\n      0x00\n      add\n      mload\n        /* \"ad.sol\":2289:2296  student */\n      dup2\n        /* \"ad.sol\":2289:2300  student.age */\n      0x20\n      add\n      mload\n        /* \"ad.sol\":2315:2322  student */\n      dup3\n        /* \"ad.sol\":2315:2339  student.registrationDate */\n      0x40\n      add\n      mload\n        /* \"ad.sol\":2354:2361  student */\n      dup4\n        /* \"ad.sol\":2354:2372  student.department */\n      0x60\n      add\n      mload\n        /* \"ad.sol\":2387:2394  student */\n      dup5\n        /* \"ad.sol\":2387:2401  student.status */\n      0x80\n      add\n      mload\n        /* \"ad.sol\":2416:2423  student */\n      dup6\n        /* \"ad.sol\":2416:2437  student.obtainedMarks */\n      0xa0\n      add\n      mload\n        /* \"ad.sol\":2240:2448  return (... */\n      swap7\n      pop\n      swap7\n      pop\n      swap7\n      pop\n      swap7\n      pop\n      swap7\n      pop\n      swap7\n      pop\n      pop\n        /* \"ad.sol\":1864:2456  function getStudentDetails(string memory _rollNo) public view returns (... */\n      swap2\n      swap4\n      swap6\n      pop\n      swap2\n      swap4\n      swap6\n      jump\t// out\n        /* \"ad.sol\":2600:3344  function getTopThreeBlockchainAchievers() public view returns (... */\n    tag_29:\n        /* \"ad.sol\":2669:2688  string memory first */\n      0x60\n        /* \"ad.sol\":2695:2715  string memory second */\n      dup1\n        /* \"ad.sol\":2722:2741  string memory third */\n      0x60\n        /* \"ad.sol\":2752:2778  string[3] memory achievers */\n      tag_114\n      tag_115\n      jump\t// in\n    tag_114:\n        /* \"ad.sol\":2785:2805  uint[3] memory marks */\n      tag_116\n      tag_117\n      jump\t// in\n    tag_116:\n        /* \"ad.sol\":2823:2829  uint i */\n      0x00\n        /* \"ad.sol\":2818:2878  for (uint i = 0; i < 3; i++) {... */\n    tag_118:\n        /* \"ad.sol\":2839:2840  3 */\n      0x03\n        /* \"ad.sol\":2835:2836  i */\n      dup2\n        /* \"ad.sol\":2835:2840  i < 3 */\n      lt\n        /* \"ad.sol\":2818:2878  for (uint i = 0; i < 3; i++) {... */\n      iszero\n      tag_119\n      jumpi\n        /* \"ad.sol\":2869:2870  0 */\n      0x00\n        /* \"ad.sol\":2858:2863  marks */\n      dup3\n        /* \"ad.sol\":2864:2865  i */\n      dup3\n        /* \"ad.sol\":2858:2866  marks[i] */\n      0x03\n      dup2\n      lt\n      tag_121\n      jumpi\n      tag_122\n      tag_123\n      jump\t// in\n    tag_122:\n    tag_121:\n      0x20\n      mul\n      add\n        /* \"ad.sol\":2858:2870  marks[i] = 0 */\n      dup2\n      dup2\n      mstore\n      pop\n      pop\n        /* \"ad.sol\":2842:2845  i++ */\n      dup1\n      dup1\n      tag_124\n      swap1\n      tag_60\n      jump\t// in\n    tag_124:\n      swap2\n      pop\n      pop\n        /* \"ad.sol\":2818:2878  for (uint i = 0; i < 3; i++) {... */\n      jump(tag_118)\n    tag_119:\n      pop\n        /* \"ad.sol\":2891:2897  uint i */\n      0x00\n        /* \"ad.sol\":2886:3279  for (uint i = 0; i < 3; i++) {... */\n    tag_125:\n        /* \"ad.sol\":2907:2908  3 */\n      0x03\n        /* \"ad.sol\":2903:2904  i */\n      dup2\n        /* \"ad.sol\":2903:2908  i < 3 */\n      lt\n        /* \"ad.sol\":2886:3279  for (uint i = 0; i < 3; i++) {... */\n      iszero\n      tag_126\n      jumpi\n        /* \"ad.sol\":2931:2937  uint j */\n      0x00\n        /* \"ad.sol\":2926:3272  for (uint j = 0; j < 3; j++) {... */\n    tag_128:\n        /* \"ad.sol\":2947:2948  3 */\n      0x03\n        /* \"ad.sol\":2943:2944  j */\n      dup2\n        /* \"ad.sol\":2943:2948  j < 3 */\n      lt\n        /* \"ad.sol\":2926:3272  for (uint j = 0; j < 3; j++) {... */\n      iszero\n      tag_129\n      jumpi\n        /* \"ad.sol\":2970:2997  string memory currentRollNo */\n      0x00\n        /* \"ad.sol\":3000:3009  achievers */\n      dup5\n        /* \"ad.sol\":3010:3011  j */\n      dup3\n        /* \"ad.sol\":3000:3012  achievers[j] */\n      0x03\n      dup2\n      lt\n      tag_131\n      jumpi\n      tag_132\n      tag_123\n      jump\t// in\n    tag_132:\n    tag_131:\n      0x20\n      mul\n      add\n      mload\n        /* \"ad.sol\":2970:3012  string memory currentRollNo = achievers[j] */\n      swap1\n      pop\n        /* \"ad.sol\":3071:3079  students */\n      0x00\n        /* \"ad.sol\":3080:3089  achievers */\n      dup6\n        /* \"ad.sol\":3090:3091  i */\n      dup5\n        /* \"ad.sol\":3080:3092  achievers[i] */\n      0x03\n      dup2\n      lt\n      tag_133\n      jumpi\n      tag_134\n      tag_123\n      jump\t// in\n    tag_134:\n    tag_133:\n      0x20\n      mul\n      add\n      mload\n        /* \"ad.sol\":3071:3093  students[achievers[i]] */\n      mload(0x40)\n      tag_135\n      swap2\n      swap1\n      tag_40\n      jump\t// in\n    tag_135:\n      swap1\n      dup2\n      mstore\n      0x20\n      add\n      mload(0x40)\n      dup1\n      swap2\n      sub\n      swap1\n      keccak256\n        /* \"ad.sol\":3071:3107  students[achievers[i]].obtainedMarks */\n      0x04\n      add\n      sload\n        /* \"ad.sol\":3031:3039  students */\n      0x00\n        /* \"ad.sol\":3040:3053  currentRollNo */\n      dup3\n        /* \"ad.sol\":3031:3054  students[currentRollNo] */\n      mload(0x40)\n      tag_136\n      swap2\n      swap1\n      tag_40\n      jump\t// in\n    tag_136:\n      swap1\n      dup2\n      mstore\n      0x20\n      add\n      mload(0x40)\n      dup1\n      swap2\n      sub\n      swap1\n      keccak256\n        /* \"ad.sol\":3031:3068  students[currentRollNo].obtainedMarks */\n      0x04\n      add\n      sload\n        /* \"ad.sol\":3031:3107  students[currentRollNo].obtainedMarks < students[achievers[i]].obtainedMarks */\n      lt\n        /* \"ad.sol\":3027:3261  if (students[currentRollNo].obtainedMarks < students[achievers[i]].obtainedMarks) {... */\n      iszero\n      tag_137\n      jumpi\n        /* \"ad.sol\":3139:3147  students */\n      0x00\n        /* \"ad.sol\":3148:3157  achievers */\n      dup6\n        /* \"ad.sol\":3158:3159  i */\n      dup5\n        /* \"ad.sol\":3148:3160  achievers[i] */\n      0x03\n      dup2\n      lt\n      tag_138\n      jumpi\n      tag_139\n      tag_123\n      jump\t// in\n    tag_139:\n    tag_138:\n      0x20\n      mul\n      add\n      mload\n        /* \"ad.sol\":3139:3161  students[achievers[i]] */\n      mload(0x40)\n      tag_140\n      swap2\n      swap1\n      tag_40\n      jump\t// in\n    tag_140:\n      swap1\n      dup2\n      mstore\n      0x20\n      add\n      mload(0x40)\n      dup1\n      swap2\n      sub\n      swap1\n      keccak256\n        /* \"ad.sol\":3139:3175  students[achievers[i]].obtainedMarks */\n      0x04\n      add\n      sload\n        /* \"ad.sol\":3128:3133  marks */\n      dup5\n        /* \"ad.sol\":3134:3135  j */\n      dup4\n        /* \"ad.sol\":3128:3136  marks[j] */\n      0x03\n      dup2\n      lt\n      tag_141\n      jumpi\n      tag_142\n      tag_123\n      jump\t// in\n    tag_142:\n    tag_141:\n      0x20\n      mul\n      add\n        /* \"ad.sol\":3128:3175  marks[j] = students[achievers[i]].obtainedMarks */\n      dup2\n      dup2\n      mstore\n      pop\n      pop\n        /* \"ad.sol\":3209:3218  achievers */\n      dup5\n        /* \"ad.sol\":3219:3220  i */\n      dup4\n        /* \"ad.sol\":3209:3221  achievers[i] */\n      0x03\n      dup2\n      lt\n      tag_143\n      jumpi\n      tag_144\n      tag_123\n      jump\t// in\n    tag_144:\n    tag_143:\n      0x20\n      mul\n      add\n      mload\n        /* \"ad.sol\":3194:3203  achievers */\n      dup6\n        /* \"ad.sol\":3204:3205  j */\n      dup4\n        /* \"ad.sol\":3194:3206  achievers[j] */\n      0x03\n      dup2\n      lt\n      tag_145\n      jumpi\n      tag_146\n      tag_123\n      jump\t// in\n    tag_146:\n    tag_145:\n      0x20\n      mul\n      add\n        /* \"ad.sol\":3194:3221  achievers[j] = achievers[i] */\n      dup2\n      swap1\n      mstore\n      pop\n        /* \"ad.sol\":3240:3245  break */\n      pop\n      jump(tag_129)\n        /* \"ad.sol\":3027:3261  if (students[currentRollNo].obtainedMarks < students[achievers[i]].obtainedMarks) {... */\n    tag_137:\n        /* \"ad.sol\":2955:3272  {... */\n      pop\n        /* \"ad.sol\":2950:2953  j++ */\n      dup1\n      dup1\n      tag_147\n      swap1\n      tag_60\n      jump\t// in\n    tag_147:\n      swap2\n      pop\n      pop\n        /* \"ad.sol\":2926:3272  for (uint j = 0; j < 3; j++) {... */\n      jump(tag_128)\n    tag_129:\n      pop\n        /* \"ad.sol\":2910:2913  i++ */\n      dup1\n      dup1\n      tag_148\n      swap1\n      tag_60\n      jump\t// in\n    tag_148:\n      swap2\n      pop\n      pop\n        /* \"ad.sol\":2886:3279  for (uint i = 0; i < 3; i++) {... */\n      jump(tag_125)\n    tag_126:\n      pop\n        /* \"ad.sol\":3299:3308  achievers */\n      dup2\n        /* \"ad.sol\":3309:3310  0 */\n      0x00\n        /* \"ad.sol\":3299:3311  achievers[0] */\n      0x03\n      dup2\n      lt\n      tag_149\n      jumpi\n      tag_150\n      tag_123\n      jump\t// in\n    tag_150:\n    tag_149:\n      0x20\n      mul\n      add\n      mload\n        /* \"ad.sol\":3313:3322  achievers */\n      dup3\n        /* \"ad.sol\":3323:3324  1 */\n      0x01\n        /* \"ad.sol\":3313:3325  achievers[1] */\n      0x03\n      dup2\n      lt\n      tag_151\n      jumpi\n      tag_152\n      tag_123\n      jump\t// in\n    tag_152:\n    tag_151:\n      0x20\n      mul\n      add\n      mload\n        /* \"ad.sol\":3327:3336  achievers */\n      dup4\n        /* \"ad.sol\":3337:3338  2 */\n      0x02\n        /* \"ad.sol\":3327:3339  achievers[2] */\n      0x03\n      dup2\n      lt\n      tag_153\n      jumpi\n      tag_154\n      tag_123\n      jump\t// in\n    tag_154:\n    tag_153:\n      0x20\n      mul\n      add\n      mload\n        /* \"ad.sol\":3291:3340  return (achievers[0], achievers[1], achievers[2]) */\n      swap5\n      pop\n      swap5\n      pop\n      swap5\n      pop\n      pop\n      pop\n        /* \"ad.sol\":2600:3344  function getTopThreeBlockchainAchievers() public view returns (... */\n      swap1\n      swap2\n      swap3\n      jump\t// out\n    tag_115:\n      mload(0x40)\n      dup1\n      0x60\n      add\n      0x40\n      mstore\n      dup1\n      0x03\n      swap1\n    tag_155:\n      0x60\n      dup2\n      mstore\n      0x20\n      add\n      swap1\n      0x01\n      swap1\n      sub\n      swap1\n      dup2\n      tag_155\n      jumpi\n      swap1\n      pop\n      pop\n      swap1\n      jump\t// out\n    tag_117:\n      mload(0x40)\n      dup1\n      0x60\n      add\n      0x40\n      mstore\n      dup1\n      0x03\n      swap1\n      0x20\n      dup3\n      mul\n      dup1\n      calldatasize\n      dup4\n      calldatacopy\n      dup1\n      dup3\n      add\n      swap2\n      pop\n      pop\n      swap1\n      pop\n      pop\n      swap1\n      jump\t// out\n        /* \"#utility.yul\":7:82   */\n    tag_156:\n        /* \"#utility.yul\":40:46   */\n      0x00\n        /* \"#utility.yul\":73:75   */\n      0x40\n        /* \"#utility.yul\":67:76   */\n      mload\n        /* \"#utility.yul\":57:76   */\n      swap1\n      pop\n        /* \"#utility.yul\":7:82   */\n      swap1\n      jump\t// out\n        /* \"#utility.yul\":88:205   */\n    tag_157:\n        /* \"#utility.yul\":197:198   */\n      0x00\n        /* \"#utility.yul\":194:195   */\n      dup1\n        /* \"#utility.yul\":187:199   */\n      revert\n        /* \"#utility.yul\":211:328   */\n    tag_158:\n        /* \"#utility.yul\":320:321   */\n      0x00\n        /* \"#utility.yul\":317:318   */\n      dup1\n        /* \"#utility.yul\":310:322   */\n      revert\n        /* \"#utility.yul\":334:445   */\n    tag_159:\n        /* \"#utility.yul\":419:420   */\n      0x04\n        /* \"#utility.yul\":412:417   */\n      dup2\n        /* \"#utility.yul\":409:421   */\n      lt\n        /* \"#utility.yul\":399:439   */\n      tag_219\n      jumpi\n        /* \"#utility.yul\":435:436   */\n      0x00\n        /* \"#utility.yul\":432:433   */\n      dup1\n        /* \"#utility.yul\":425:437   */\n      revert\n        /* \"#utility.yul\":399:439   */\n    tag_219:\n        /* \"#utility.yul\":334:445   */\n      pop\n      jump\t// out\n        /* \"#utility.yul\":451:614   */\n    tag_160:\n        /* \"#utility.yul\":509:514   */\n      0x00\n        /* \"#utility.yul\":547:553   */\n      dup2\n        /* \"#utility.yul\":534:554   */\n      calldataload\n        /* \"#utility.yul\":525:554   */\n      swap1\n      pop\n        /* \"#utility.yul\":563:608   */\n      tag_221\n        /* \"#utility.yul\":602:607   */\n      dup2\n        /* \"#utility.yul\":563:608   */\n      tag_159\n      jump\t// in\n    tag_221:\n        /* \"#utility.yul\":451:614   */\n      swap3\n      swap2\n      pop\n      pop\n      jump\t// out\n        /* \"#utility.yul\":620:973   */\n    tag_10:\n        /* \"#utility.yul\":691:697   */\n      0x00\n        /* \"#utility.yul\":740:742   */\n      0x20\n        /* \"#utility.yul\":728:737   */\n      dup3\n        /* \"#utility.yul\":719:726   */\n      dup5\n        /* \"#utility.yul\":715:738   */\n      sub\n        /* \"#utility.yul\":711:743   */\n      slt\n        /* \"#utility.yul\":708:827   */\n      iszero\n      tag_223\n      jumpi\n        /* \"#utility.yul\":746:825   */\n      tag_224\n      tag_157\n      jump\t// in\n    tag_224:\n        /* \"#utility.yul\":708:827   */\n    tag_223:\n        /* \"#utility.yul\":866:867   */\n      0x00\n        /* \"#utility.yul\":891:956   */\n      tag_225\n        /* \"#utility.yul\":948:955   */\n      dup5\n        /* \"#utility.yul\":939:945   */\n      dup3\n        /* \"#utility.yul\":928:937   */\n      dup6\n        /* \"#utility.yul\":924:946   */\n      add\n        /* \"#utility.yul\":891:956   */\n      tag_160\n      jump\t// in\n    tag_225:\n        /* \"#utility.yul\":881:956   */\n      swap2\n      pop\n        /* \"#utility.yul\":837:966   */\n      pop\n        /* \"#utility.yul\":620:973   */\n      swap3\n      swap2\n      pop\n      pop\n      jump\t// out\n        /* \"#utility.yul\":979:1056   */\n    tag_161:\n        /* \"#utility.yul\":1016:1023   */\n      0x00\n        /* \"#utility.yul\":1045:1050   */\n      dup2\n        /* \"#utility.yul\":1034:1050   */\n      swap1\n      pop\n        /* \"#utility.yul\":979:1056   */\n      swap2\n      swap1\n      pop\n      jump\t// out\n        /* \"#utility.yul\":1062:1180   */\n    tag_162:\n        /* \"#utility.yul\":1149:1173   */\n      tag_228\n        /* \"#utility.yul\":1167:1172   */\n      dup2\n        /* \"#utility.yul\":1149:1173   */\n      tag_161\n      jump\t// in\n    tag_228:\n        /* \"#utility.yul\":1144:1147   */\n      dup3\n        /* \"#utility.yul\":1137:1174   */\n      mstore\n        /* \"#utility.yul\":1062:1180   */\n      pop\n      pop\n      jump\t// out\n        /* \"#utility.yul\":1186:1408   */\n    tag_13:\n        /* \"#utility.yul\":1279:1283   */\n      0x00\n        /* \"#utility.yul\":1317:1319   */\n      0x20\n        /* \"#utility.yul\":1306:1315   */\n      dup3\n        /* \"#utility.yul\":1302:1320   */\n      add\n        /* \"#utility.yul\":1294:1320   */\n      swap1\n      pop\n        /* \"#utility.yul\":1330:1401   */\n      tag_230\n        /* \"#utility.yul\":1398:1399   */\n      0x00\n        /* \"#utility.yul\":1387:1396   */\n      dup4\n        /* \"#utility.yul\":1383:1400   */\n      add\n        /* \"#utility.yul\":1374:1380   */\n      dup5\n        /* \"#utility.yul\":1330:1401   */\n      tag_162\n      jump\t// in\n    tag_230:\n        /* \"#utility.yul\":1186:1408   */\n      swap3\n      swap2\n      pop\n      pop\n      jump\t// out\n        /* \"#utility.yul\":1414:1531   */\n    tag_163:\n        /* \"#utility.yul\":1523:1524   */\n      0x00\n        /* \"#utility.yul\":1520:1521   */\n      dup1\n        /* \"#utility.yul\":1513:1525   */\n      revert\n        /* \"#utility.yul\":1537:1654   */\n    tag_164:\n        /* \"#utility.yul\":1646:1647   */\n      0x00\n        /* \"#utility.yul\":1643:1644   */\n      dup1\n        /* \"#utility.yul\":1636:1648   */\n      revert\n        /* \"#utility.yul\":1660:1762   */\n    tag_165:\n        /* \"#utility.yul\":1701:1707   */\n      0x00\n        /* \"#utility.yul\":1752:1754   */\n      0x1f\n        /* \"#utility.yul\":1748:1755   */\n      not\n        /* \"#utility.yul\":1743:1745   */\n      0x1f\n        /* \"#utility.yul\":1736:1741   */\n      dup4\n        /* \"#utility.yul\":1732:1746   */\n      add\n        /* \"#utility.yul\":1728:1756   */\n      and\n        /* \"#utility.yul\":1718:1756   */\n      swap1\n      pop\n        /* \"#utility.yul\":1660:1762   */\n      swap2\n      swap1\n      pop\n      jump\t// out\n        /* \"#utility.yul\":1768:1948   */\n    tag_166:\n        /* \"#utility.yul\":1816:1893   */\n      0x4e487b7100000000000000000000000000000000000000000000000000000000\n        /* \"#utility.yul\":1813:1814   */\n      0x00\n        /* \"#utility.yul\":1806:1894   */\n      mstore\n        /* \"#utility.yul\":1913:1917   */\n      0x41\n        /* \"#utility.yul\":1910:1911   */\n      0x04\n        /* \"#utility.yul\":1903:1918   */\n      mstore\n        /* \"#utility.yul\":1937:1941   */\n      0x24\n        /* \"#utility.yul\":1934:1935   */\n      0x00\n        /* \"#utility.yul\":1927:1942   */\n      revert\n        /* \"#utility.yul\":1954:2235   */\n    tag_167:\n        /* \"#utility.yul\":2037:2064   */\n      tag_236\n        /* \"#utility.yul\":2059:2063   */\n      dup3\n        /* \"#utility.yul\":2037:2064   */\n      tag_165\n      jump\t// in\n    tag_236:\n        /* \"#utility.yul\":2029:2035   */\n      dup2\n        /* \"#utility.yul\":2025:2065   */\n      add\n        /* \"#utility.yul\":2167:2173   */\n      dup2\n        /* \"#utility.yul\":2155:2165   */\n      dup2\n        /* \"#utility.yul\":2152:2174   */\n      lt\n        /* \"#utility.yul\":2131:2149   */\n      0xffffffffffffffff\n        /* \"#utility.yul\":2119:2129   */\n      dup3\n        /* \"#utility.yul\":2116:2150   */\n      gt\n        /* \"#utility.yul\":2113:2175   */\n      or\n        /* \"#utility.yul\":2110:2198   */\n      iszero\n      tag_237\n      jumpi\n        /* \"#utility.yul\":2178:2196   */\n      tag_238\n      tag_166\n      jump\t// in\n    tag_238:\n        /* \"#utility.yul\":2110:2198   */\n    tag_237:\n        /* \"#utility.yul\":2218:2228   */\n      dup1\n        /* \"#utility.yul\":2214:2216   */\n      0x40\n        /* \"#utility.yul\":2207:2229   */\n      mstore\n        /* \"#utility.yul\":1997:2235   */\n      pop\n        /* \"#utility.yul\":1954:2235   */\n      pop\n      pop\n      jump\t// out\n        /* \"#utility.yul\":2241:2370   */\n    tag_168:\n        /* \"#utility.yul\":2275:2281   */\n      0x00\n        /* \"#utility.yul\":2302:2322   */\n      tag_240\n      tag_156\n      jump\t// in\n    tag_240:\n        /* \"#utility.yul\":2292:2322   */\n      swap1\n      pop\n        /* \"#utility.yul\":2331:2364   */\n      tag_241\n        /* \"#utility.yul\":2359:2363   */\n      dup3\n        /* \"#utility.yul\":2351:2357   */\n      dup3\n        /* \"#utility.yul\":2331:2364   */\n      tag_167\n      jump\t// in\n    tag_241:\n        /* \"#utility.yul\":2241:2370   */\n      swap2\n      swap1\n      pop\n      jump\t// out\n        /* \"#utility.yul\":2376:2684   */\n    tag_169:\n        /* \"#utility.yul\":2438:2442   */\n      0x00\n        /* \"#utility.yul\":2528:2546   */\n      0xffffffffffffffff\n        /* \"#utility.yul\":2520:2526   */\n      dup3\n        /* \"#utility.yul\":2517:2547   */\n      gt\n        /* \"#utility.yul\":2514:2570   */\n      iszero\n      tag_243\n      jumpi\n        /* \"#utility.yul\":2550:2568   */\n      tag_244\n      tag_166\n      jump\t// in\n    tag_244:\n        /* \"#utility.yul\":2514:2570   */\n    tag_243:\n        /* \"#utility.yul\":2588:2617   */\n      tag_245\n        /* \"#utility.yul\":2610:2616   */\n      dup3\n        /* \"#utility.yul\":2588:2617   */\n      tag_165\n      jump\t// in\n    tag_245:\n        /* \"#utility.yul\":2580:2617   */\n      swap1\n      pop\n        /* \"#utility.yul\":2672:2676   */\n      0x20\n        /* \"#utility.yul\":2666:2670   */\n      dup2\n        /* \"#utility.yul\":2662:2677   */\n      add\n        /* \"#utility.yul\":2654:2677   */\n      swap1\n      pop\n        /* \"#utility.yul\":2376:2684   */\n      swap2\n      swap1\n      pop\n      jump\t// out\n        /* \"#utility.yul\":2690:2836   */\n    tag_170:\n        /* \"#utility.yul\":2787:2793   */\n      dup3\n        /* \"#utility.yul\":2782:2785   */\n      dup2\n        /* \"#utility.yul\":2777:2780   */\n      dup4\n        /* \"#utility.yul\":2764:2794   */\n      calldatacopy\n        /* \"#utility.yul\":2828:2829   */\n      0x00\n        /* \"#utility.yul\":2819:2825   */\n      dup4\n        /* \"#utility.yul\":2814:2817   */\n      dup4\n        /* \"#utility.yul\":2810:2826   */\n      add\n        /* \"#utility.yul\":2803:2830   */\n      mstore\n        /* \"#utility.yul\":2690:2836   */\n      pop\n      pop\n      pop\n      jump\t// out\n        /* \"#utility.yul\":2842:3267   */\n    tag_171:\n        /* \"#utility.yul\":2920:2925   */\n      0x00\n        /* \"#utility.yul\":2945:3011   */\n      tag_248\n        /* \"#utility.yul\":2961:3010   */\n      tag_249\n        /* \"#utility.yul\":3003:3009   */\n      dup5\n        /* \"#utility.yul\":2961:3010   */\n      tag_169\n      jump\t// in\n    tag_249:\n        /* \"#utility.yul\":2945:3011   */\n      tag_168\n      jump\t// in\n    tag_248:\n        /* \"#utility.yul\":2936:3011   */\n      swap1\n      pop\n        /* \"#utility.yul\":3034:3040   */\n      dup3\n        /* \"#utility.yul\":3027:3032   */\n      dup2\n        /* \"#utility.yul\":3020:3041   */\n      mstore\n        /* \"#utility.yul\":3072:3076   */\n      0x20\n        /* \"#utility.yul\":3065:3070   */\n      dup2\n        /* \"#utility.yul\":3061:3077   */\n      add\n        /* \"#utility.yul\":3110:3113   */\n      dup5\n        /* \"#utility.yul\":3101:3107   */\n      dup5\n        /* \"#utility.yul\":3096:3099   */\n      dup5\n        /* \"#utility.yul\":3092:3108   */\n      add\n        /* \"#utility.yul\":3089:3114   */\n      gt\n        /* \"#utility.yul\":3086:3198   */\n      iszero\n      tag_250\n      jumpi\n        /* \"#utility.yul\":3117:3196   */\n      tag_251\n      tag_164\n      jump\t// in\n    tag_251:\n        /* \"#utility.yul\":3086:3198   */\n    tag_250:\n        /* \"#utility.yul\":3207:3261   */\n      tag_252\n        /* \"#utility.yul\":3254:3260   */\n      dup5\n        /* \"#utility.yul\":3249:3252   */\n      dup3\n        /* \"#utility.yul\":3244:3247   */\n      dup6\n        /* \"#utility.yul\":3207:3261   */\n      tag_170\n      jump\t// in\n    tag_252:\n        /* \"#utility.yul\":2926:3267   */\n      pop\n        /* \"#utility.yul\":2842:3267   */\n      swap4\n      swap3\n      pop\n      pop\n      pop\n      jump\t// out\n        /* \"#utility.yul\":3287:3627   */\n    tag_172:\n        /* \"#utility.yul\":3343:3348   */\n      0x00\n        /* \"#utility.yul\":3392:3395   */\n      dup3\n        /* \"#utility.yul\":3385:3389   */\n      0x1f\n        /* \"#utility.yul\":3377:3383   */\n      dup4\n        /* \"#utility.yul\":3373:3390   */\n      add\n        /* \"#utility.yul\":3369:3396   */\n      slt\n        /* \"#utility.yul\":3359:3481   */\n      tag_254\n      jumpi\n        /* \"#utility.yul\":3400:3479   */\n      tag_255\n      tag_163\n      jump\t// in\n    tag_255:\n        /* \"#utility.yul\":3359:3481   */\n    tag_254:\n        /* \"#utility.yul\":3517:3523   */\n      dup2\n        /* \"#utility.yul\":3504:3524   */\n      calldataload\n        /* \"#utility.yul\":3542:3621   */\n      tag_256\n        /* \"#utility.yul\":3617:3620   */\n      dup5\n        /* \"#utility.yul\":3609:3615   */\n      dup3\n        /* \"#utility.yul\":3602:3606   */\n      0x20\n        /* \"#utility.yul\":3594:3600   */\n      dup7\n        /* \"#utility.yul\":3590:3607   */\n      add\n        /* \"#utility.yul\":3542:3621   */\n      tag_171\n      jump\t// in\n    tag_256:\n        /* \"#utility.yul\":3533:3621   */\n      swap2\n      pop\n        /* \"#utility.yul\":3349:3627   */\n      pop\n        /* \"#utility.yul\":3287:3627   */\n      swap3\n      swap2\n      pop\n      pop\n      jump\t// out\n        /* \"#utility.yul\":3633:3755   */\n    tag_173:\n        /* \"#utility.yul\":3706:3730   */\n      tag_258\n        /* \"#utility.yul\":3724:3729   */\n      dup2\n        /* \"#utility.yul\":3706:3730   */\n      tag_161\n      jump\t// in\n    tag_258:\n        /* \"#utility.yul\":3699:3704   */\n      dup2\n        /* \"#utility.yul\":3696:3731   */\n      eq\n        /* \"#utility.yul\":3686:3749   */\n      tag_259\n      jumpi\n        /* \"#utility.yul\":3745:3746   */\n      0x00\n        /* \"#utility.yul\":3742:3743   */\n      dup1\n        /* \"#utility.yul\":3735:3747   */\n      revert\n        /* \"#utility.yul\":3686:3749   */\n    tag_259:\n        /* \"#utility.yul\":3633:3755   */\n      pop\n      jump\t// out\n        /* \"#utility.yul\":3761:3900   */\n    tag_174:\n        /* \"#utility.yul\":3807:3812   */\n      0x00\n        /* \"#utility.yul\":3845:3851   */\n      dup2\n        /* \"#utility.yul\":3832:3852   */\n      calldataload\n        /* \"#utility.yul\":3823:3852   */\n      swap1\n      pop\n        /* \"#utility.yul\":3861:3894   */\n      tag_261\n        /* \"#utility.yul\":3888:3893   */\n      dup2\n        /* \"#utility.yul\":3861:3894   */\n      tag_173\n      jump\t// in\n    tag_261:\n        /* \"#utility.yul\":3761:3900   */\n      swap3\n      swap2\n      pop\n      pop\n      jump\t// out\n        /* \"#utility.yul\":3906:5055   */\n    tag_16:\n        /* \"#utility.yul\":4024:4030   */\n      0x00\n        /* \"#utility.yul\":4032:4038   */\n      dup1\n        /* \"#utility.yul\":4040:4046   */\n      0x00\n        /* \"#utility.yul\":4048:4054   */\n      dup1\n        /* \"#utility.yul\":4097:4100   */\n      0x80\n        /* \"#utility.yul\":4085:4094   */\n      dup6\n        /* \"#utility.yul\":4076:4083   */\n      dup8\n        /* \"#utility.yul\":4072:4095   */\n      sub\n        /* \"#utility.yul\":4068:4101   */\n      slt\n        /* \"#utility.yul\":4065:4185   */\n      iszero\n      tag_263\n      jumpi\n        /* \"#utility.yul\":4104:4183   */\n      tag_264\n      tag_157\n      jump\t// in\n    tag_264:\n        /* \"#utility.yul\":4065:4185   */\n    tag_263:\n        /* \"#utility.yul\":4252:4253   */\n      0x00\n        /* \"#utility.yul\":4241:4250   */\n      dup6\n        /* \"#utility.yul\":4237:4254   */\n      add\n        /* \"#utility.yul\":4224:4255   */\n      calldataload\n        /* \"#utility.yul\":4282:4300   */\n      0xffffffffffffffff\n        /* \"#utility.yul\":4274:4280   */\n      dup2\n        /* \"#utility.yul\":4271:4301   */\n      gt\n        /* \"#utility.yul\":4268:4385   */\n      iszero\n      tag_265\n      jumpi\n        /* \"#utility.yul\":4304:4383   */\n      tag_266\n      tag_158\n      jump\t// in\n    tag_266:\n        /* \"#utility.yul\":4268:4385   */\n    tag_265:\n        /* \"#utility.yul\":4409:4472   */\n      tag_267\n        /* \"#utility.yul\":4464:4471   */\n      dup8\n        /* \"#utility.yul\":4455:4461   */\n      dup3\n        /* \"#utility.yul\":4444:4453   */\n      dup9\n        /* \"#utility.yul\":4440:4462   */\n      add\n        /* \"#utility.yul\":4409:4472   */\n      tag_172\n      jump\t// in\n    tag_267:\n        /* \"#utility.yul\":4399:4472   */\n      swap5\n      pop\n        /* \"#utility.yul\":4195:4482   */\n      pop\n        /* \"#utility.yul\":4549:4551   */\n      0x20\n        /* \"#utility.yul\":4538:4547   */\n      dup6\n        /* \"#utility.yul\":4534:4552   */\n      add\n        /* \"#utility.yul\":4521:4553   */\n      calldataload\n        /* \"#utility.yul\":4580:4598   */\n      0xffffffffffffffff\n        /* \"#utility.yul\":4572:4578   */\n      dup2\n        /* \"#utility.yul\":4569:4599   */\n      gt\n        /* \"#utility.yul\":4566:4683   */\n      iszero\n      tag_268\n      jumpi\n        /* \"#utility.yul\":4602:4681   */\n      tag_269\n      tag_158\n      jump\t// in\n    tag_269:\n        /* \"#utility.yul\":4566:4683   */\n    tag_268:\n        /* \"#utility.yul\":4707:4770   */\n      tag_270\n        /* \"#utility.yul\":4762:4769   */\n      dup8\n        /* \"#utility.yul\":4753:4759   */\n      dup3\n        /* \"#utility.yul\":4742:4751   */\n      dup9\n        /* \"#utility.yul\":4738:4760   */\n      add\n        /* \"#utility.yul\":4707:4770   */\n      tag_172\n      jump\t// in\n    tag_270:\n        /* \"#utility.yul\":4697:4770   */\n      swap4\n      pop\n        /* \"#utility.yul\":4492:4780   */\n      pop\n        /* \"#utility.yul\":4819:4821   */\n      0x40\n        /* \"#utility.yul\":4845:4898   */\n      tag_271\n        /* \"#utility.yul\":4890:4897   */\n      dup8\n        /* \"#utility.yul\":4881:4887   */\n      dup3\n        /* \"#utility.yul\":4870:4879   */\n      dup9\n        /* \"#utility.yul\":4866:4888   */\n      add\n        /* \"#utility.yul\":4845:4898   */\n      tag_174\n      jump\t// in\n    tag_271:\n        /* \"#utility.yul\":4835:4898   */\n      swap3\n      pop\n        /* \"#utility.yul\":4790:4908   */\n      pop\n        /* \"#utility.yul\":4947:4949   */\n      0x60\n        /* \"#utility.yul\":4973:5038   */\n      tag_272\n        /* \"#utility.yul\":5030:5037   */\n      dup8\n        /* \"#utility.yul\":5021:5027   */\n      dup3\n        /* \"#utility.yul\":5010:5019   */\n      dup9\n        /* \"#utility.yul\":5006:5028   */\n      add\n        /* \"#utility.yul\":4973:5038   */\n      tag_160\n      jump\t// in\n    tag_272:\n        /* \"#utility.yul\":4963:5038   */\n      swap2\n      pop\n        /* \"#utility.yul\":4918:5048   */\n      pop\n        /* \"#utility.yul\":3906:5055   */\n      swap3\n      swap6\n      swap2\n      swap5\n      pop\n      swap3\n      pop\n      jump\t// out\n        /* \"#utility.yul\":5061:5169   */\n    tag_175:\n        /* \"#utility.yul\":5143:5144   */\n      0x04\n        /* \"#utility.yul\":5136:5141   */\n      dup2\n        /* \"#utility.yul\":5133:5145   */\n      lt\n        /* \"#utility.yul\":5123:5163   */\n      tag_274\n      jumpi\n        /* \"#utility.yul\":5159:5160   */\n      0x00\n        /* \"#utility.yul\":5156:5157   */\n      dup1\n        /* \"#utility.yul\":5149:5161   */\n      revert\n        /* \"#utility.yul\":5123:5163   */\n    tag_274:\n        /* \"#utility.yul\":5061:5169   */\n      pop\n      jump\t// out\n        /* \"#utility.yul\":5175:5332   */\n    tag_176:\n        /* \"#utility.yul\":5230:5235   */\n      0x00\n        /* \"#utility.yul\":5268:5274   */\n      dup2\n        /* \"#utility.yul\":5255:5275   */\n      calldataload\n        /* \"#utility.yul\":5246:5275   */\n      swap1\n      pop\n        /* \"#utility.yul\":5284:5326   */\n      tag_276\n        /* \"#utility.yul\":5320:5325   */\n      dup2\n        /* \"#utility.yul\":5284:5326   */\n      tag_175\n      jump\t// in\n    tag_276:\n        /* \"#utility.yul\":5175:5332   */\n      swap3\n      swap2\n      pop\n      pop\n      jump\t// out\n        /* \"#utility.yul\":5338:6797   */\n    tag_20:\n        /* \"#utility.yul\":5483:5489   */\n      0x00\n        /* \"#utility.yul\":5491:5497   */\n      dup1\n        /* \"#utility.yul\":5499:5505   */\n      0x00\n        /* \"#utility.yul\":5507:5513   */\n      dup1\n        /* \"#utility.yul\":5515:5521   */\n      0x00\n        /* \"#utility.yul\":5523:5529   */\n      dup1\n        /* \"#utility.yul\":5572:5575   */\n      0xc0\n        /* \"#utility.yul\":5560:5569   */\n      dup8\n        /* \"#utility.yul\":5551:5558   */\n      dup10\n        /* \"#utility.yul\":5547:5570   */\n      sub\n        /* \"#utility.yul\":5543:5576   */\n      slt\n        /* \"#utility.yul\":5540:5660   */\n      iszero\n      tag_278\n      jumpi\n        /* \"#utility.yul\":5579:5658   */\n      tag_279\n      tag_157\n      jump\t// in\n    tag_279:\n        /* \"#utility.yul\":5540:5660   */\n    tag_278:\n        /* \"#utility.yul\":5727:5728   */\n      0x00\n        /* \"#utility.yul\":5716:5725   */\n      dup8\n        /* \"#utility.yul\":5712:5729   */\n      add\n        /* \"#utility.yul\":5699:5730   */\n      calldataload\n        /* \"#utility.yul\":5757:5775   */\n      0xffffffffffffffff\n        /* \"#utility.yul\":5749:5755   */\n      dup2\n        /* \"#utility.yul\":5746:5776   */\n      gt\n        /* \"#utility.yul\":5743:5860   */\n      iszero\n      tag_280\n      jumpi\n        /* \"#utility.yul\":5779:5858   */\n      tag_281\n      tag_158\n      jump\t// in\n    tag_281:\n        /* \"#utility.yul\":5743:5860   */\n    tag_280:\n        /* \"#utility.yul\":5884:5947   */\n      tag_282\n        /* \"#utility.yul\":5939:5946   */\n      dup10\n        /* \"#utility.yul\":5930:5936   */\n      dup3\n        /* \"#utility.yul\":5919:5928   */\n      dup11\n        /* \"#utility.yul\":5915:5937   */\n      add\n        /* \"#utility.yul\":5884:5947   */\n      tag_172\n      jump\t// in\n    tag_282:\n        /* \"#utility.yul\":5874:5947   */\n      swap7\n      pop\n        /* \"#utility.yul\":5670:5957   */\n      pop\n        /* \"#utility.yul\":6024:6026   */\n      0x20\n        /* \"#utility.yul\":6013:6022   */\n      dup8\n        /* \"#utility.yul\":6009:6027   */\n      add\n        /* \"#utility.yul\":5996:6028   */\n      calldataload\n        /* \"#utility.yul\":6055:6073   */\n      0xffffffffffffffff\n        /* \"#utility.yul\":6047:6053   */\n      dup2\n        /* \"#utility.yul\":6044:6074   */\n      gt\n        /* \"#utility.yul\":6041:6158   */\n      iszero\n      tag_283\n      jumpi\n        /* \"#utility.yul\":6077:6156   */\n      tag_284\n      tag_158\n      jump\t// in\n    tag_284:\n        /* \"#utility.yul\":6041:6158   */\n    tag_283:\n        /* \"#utility.yul\":6182:6245   */\n      tag_285\n        /* \"#utility.yul\":6237:6244   */\n      dup10\n        /* \"#utility.yul\":6228:6234   */\n      dup3\n        /* \"#utility.yul\":6217:6226   */\n      dup11\n        /* \"#utility.yul\":6213:6235   */\n      add\n        /* \"#utility.yul\":6182:6245   */\n      tag_172\n      jump\t// in\n    tag_285:\n        /* \"#utility.yul\":6172:6245   */\n      swap6\n      pop\n        /* \"#utility.yul\":5967:6255   */\n      pop\n        /* \"#utility.yul\":6294:6296   */\n      0x40\n        /* \"#utility.yul\":6320:6373   */\n      tag_286\n        /* \"#utility.yul\":6365:6372   */\n      dup10\n        /* \"#utility.yul\":6356:6362   */\n      dup3\n        /* \"#utility.yul\":6345:6354   */\n      dup11\n        /* \"#utility.yul\":6341:6363   */\n      add\n        /* \"#utility.yul\":6320:6373   */\n      tag_174\n      jump\t// in\n    tag_286:\n        /* \"#utility.yul\":6310:6373   */\n      swap5\n      pop\n        /* \"#utility.yul\":6265:6383   */\n      pop\n        /* \"#utility.yul\":6422:6424   */\n      0x60\n        /* \"#utility.yul\":6448:6513   */\n      tag_287\n        /* \"#utility.yul\":6505:6512   */\n      dup10\n        /* \"#utility.yul\":6496:6502   */\n      dup3\n        /* \"#utility.yul\":6485:6494   */\n      dup11\n        /* \"#utility.yul\":6481:6503   */\n      add\n        /* \"#utility.yul\":6448:6513   */\n      tag_160\n      jump\t// in\n    tag_287:\n        /* \"#utility.yul\":6438:6513   */\n      swap4\n      pop\n        /* \"#utility.yul\":6393:6523   */\n      pop\n        /* \"#utility.yul\":6562:6565   */\n      0x80\n        /* \"#utility.yul\":6589:6651   */\n      tag_288\n        /* \"#utility.yul\":6643:6650   */\n      dup10\n        /* \"#utility.yul\":6634:6640   */\n      dup3\n        /* \"#utility.yul\":6623:6632   */\n      dup11\n        /* \"#utility.yul\":6619:6641   */\n      add\n        /* \"#utility.yul\":6589:6651   */\n      tag_176\n      jump\t// in\n    tag_288:\n        /* \"#utility.yul\":6579:6651   */\n      swap3\n      pop\n        /* \"#utility.yul\":6533:6661   */\n      pop\n        /* \"#utility.yul\":6700:6703   */\n      0xa0\n        /* \"#utility.yul\":6727:6780   */\n      tag_289\n        /* \"#utility.yul\":6772:6779   */\n      dup10\n        /* \"#utility.yul\":6763:6769   */\n      dup3\n        /* \"#utility.yul\":6752:6761   */\n      dup11\n        /* \"#utility.yul\":6748:6770   */\n      add\n        /* \"#utility.yul\":6727:6780   */\n      tag_174\n      jump\t// in\n    tag_289:\n        /* \"#utility.yul\":6717:6780   */\n      swap2\n      pop\n        /* \"#utility.yul\":6671:6790   */\n      pop\n        /* \"#utility.yul\":5338:6797   */\n      swap3\n      swap6\n      pop\n      swap3\n      swap6\n      pop\n      swap3\n      swap6\n      jump\t// out\n        /* \"#utility.yul\":6803:7312   */\n    tag_24:\n        /* \"#utility.yul\":6872:6878   */\n      0x00\n        /* \"#utility.yul\":6921:6923   */\n      0x20\n        /* \"#utility.yul\":6909:6918   */\n      dup3\n        /* \"#utility.yul\":6900:6907   */\n      dup5\n        /* \"#utility.yul\":6896:6919   */\n      sub\n        /* \"#utility.yul\":6892:6924   */\n      slt\n        /* \"#utility.yul\":6889:7008   */\n      iszero\n      tag_291\n      jumpi\n        /* \"#utility.yul\":6927:7006   */\n      tag_292\n      tag_157\n      jump\t// in\n    tag_292:\n        /* \"#utility.yul\":6889:7008   */\n    tag_291:\n        /* \"#utility.yul\":7075:7076   */\n      0x00\n        /* \"#utility.yul\":7064:7073   */\n      dup3\n        /* \"#utility.yul\":7060:7077   */\n      add\n        /* \"#utility.yul\":7047:7078   */\n      calldataload\n        /* \"#utility.yul\":7105:7123   */\n      0xffffffffffffffff\n        /* \"#utility.yul\":7097:7103   */\n      dup2\n        /* \"#utility.yul\":7094:7124   */\n      gt\n        /* \"#utility.yul\":7091:7208   */\n      iszero\n      tag_293\n      jumpi\n        /* \"#utility.yul\":7127:7206   */\n      tag_294\n      tag_158\n      jump\t// in\n    tag_294:\n        /* \"#utility.yul\":7091:7208   */\n    tag_293:\n        /* \"#utility.yul\":7232:7295   */\n      tag_295\n        /* \"#utility.yul\":7287:7294   */\n      dup5\n        /* \"#utility.yul\":7278:7284   */\n      dup3\n        /* \"#utility.yul\":7267:7276   */\n      dup6\n        /* \"#utility.yul\":7263:7285   */\n      add\n        /* \"#utility.yul\":7232:7295   */\n      tag_172\n      jump\t// in\n    tag_295:\n        /* \"#utility.yul\":7222:7295   */\n      swap2\n      pop\n        /* \"#utility.yul\":7018:7305   */\n      pop\n        /* \"#utility.yul\":6803:7312   */\n      swap3\n      swap2\n      pop\n      pop\n      jump\t// out\n        /* \"#utility.yul\":7318:7417   */\n    tag_177:\n        /* \"#utility.yul\":7370:7376   */\n      0x00\n        /* \"#utility.yul\":7404:7409   */\n      dup2\n        /* \"#utility.yul\":7398:7410   */\n      mload\n        /* \"#utility.yul\":7388:7410   */\n      swap1\n      pop\n        /* \"#utility.yul\":7318:7417   */\n      swap2\n      swap1\n      pop\n      jump\t// out\n        /* \"#utility.yul\":7423:7592   */\n    tag_178:\n        /* \"#utility.yul\":7507:7518   */\n      0x00\n        /* \"#utility.yul\":7541:7547   */\n      dup3\n        /* \"#utility.yul\":7536:7539   */\n      dup3\n        /* \"#utility.yul\":7529:7548   */\n      mstore\n        /* \"#utility.yul\":7581:7585   */\n      0x20\n        /* \"#utility.yul\":7576:7579   */\n      dup3\n        /* \"#utility.yul\":7572:7586   */\n      add\n        /* \"#utility.yul\":7557:7586   */\n      swap1\n      pop\n        /* \"#utility.yul\":7423:7592   */\n      swap3\n      swap2\n      pop\n      pop\n      jump\t// out\n        /* \"#utility.yul\":7598:7844   */\n    tag_179:\n        /* \"#utility.yul\":7679:7680   */\n      0x00\n        /* \"#utility.yul\":7689:7802   */\n    tag_299:\n        /* \"#utility.yul\":7703:7709   */\n      dup4\n        /* \"#utility.yul\":7700:7701   */\n      dup2\n        /* \"#utility.yul\":7697:7710   */\n      lt\n        /* \"#utility.yul\":7689:7802   */\n      iszero\n      tag_301\n      jumpi\n        /* \"#utility.yul\":7788:7789   */\n      dup1\n        /* \"#utility.yul\":7783:7786   */\n      dup3\n        /* \"#utility.yul\":7779:7790   */\n      add\n        /* \"#utility.yul\":7773:7791   */\n      mload\n        /* \"#utility.yul\":7769:7770   */\n      dup2\n        /* \"#utility.yul\":7764:7767   */\n      dup5\n        /* \"#utility.yul\":7760:7771   */\n      add\n        /* \"#utility.yul\":7753:7792   */\n      mstore\n        /* \"#utility.yul\":7725:7727   */\n      0x20\n        /* \"#utility.yul\":7722:7723   */\n      dup2\n        /* \"#utility.yul\":7718:7728   */\n      add\n        /* \"#utility.yul\":7713:7728   */\n      swap1\n      pop\n        /* \"#utility.yul\":7689:7802   */\n      jump(tag_299)\n    tag_301:\n        /* \"#utility.yul\":7836:7837   */\n      0x00\n        /* \"#utility.yul\":7827:7833   */\n      dup5\n        /* \"#utility.yul\":7822:7825   */\n      dup5\n        /* \"#utility.yul\":7818:7834   */\n      add\n        /* \"#utility.yul\":7811:7838   */\n      mstore\n        /* \"#utility.yul\":7660:7844   */\n      pop\n        /* \"#utility.yul\":7598:7844   */\n      pop\n      pop\n      pop\n      jump\t// out\n        /* \"#utility.yul\":7850:8227   */\n    tag_180:\n        /* \"#utility.yul\":7938:7941   */\n      0x00\n        /* \"#utility.yul\":7966:8005   */\n      tag_303\n        /* \"#utility.yul\":7999:8004   */\n      dup3\n        /* \"#utility.yul\":7966:8005   */\n      tag_177\n      jump\t// in\n    tag_303:\n        /* \"#utility.yul\":8021:8092   */\n      tag_304\n        /* \"#utility.yul\":8085:8091   */\n      dup2\n        /* \"#utility.yul\":8080:8083   */\n      dup6\n        /* \"#utility.yul\":8021:8092   */\n      tag_178\n      jump\t// in\n    tag_304:\n        /* \"#utility.yul\":8014:8092   */\n      swap4\n      pop\n        /* \"#utility.yul\":8101:8166   */\n      tag_305\n        /* \"#utility.yul\":8159:8165   */\n      dup2\n        /* \"#utility.yul\":8154:8157   */\n      dup6\n        /* \"#utility.yul\":8147:8151   */\n      0x20\n        /* \"#utility.yul\":8140:8145   */\n      dup7\n        /* \"#utility.yul\":8136:8152   */\n      add\n        /* \"#utility.yul\":8101:8166   */\n      tag_179\n      jump\t// in\n    tag_305:\n        /* \"#utility.yul\":8191:8220   */\n      tag_306\n        /* \"#utility.yul\":8213:8219   */\n      dup2\n        /* \"#utility.yul\":8191:8220   */\n      tag_165\n      jump\t// in\n    tag_306:\n        /* \"#utility.yul\":8186:8189   */\n      dup5\n        /* \"#utility.yul\":8182:8221   */\n      add\n        /* \"#utility.yul\":8175:8221   */\n      swap2\n      pop\n        /* \"#utility.yul\":7942:8227   */\n      pop\n        /* \"#utility.yul\":7850:8227   */\n      swap3\n      swap2\n      pop\n      pop\n      jump\t// out\n        /* \"#utility.yul\":8233:8413   */\n    tag_35:\n        /* \"#utility.yul\":8281:8358   */\n      0x4e487b7100000000000000000000000000000000000000000000000000000000\n        /* \"#utility.yul\":8278:8279   */\n      0x00\n        /* \"#utility.yul\":8271:8359   */\n      mstore\n        /* \"#utility.yul\":8378:8382   */\n      0x21\n        /* \"#utility.yul\":8375:8376   */\n      0x04\n        /* \"#utility.yul\":8368:8383   */\n      mstore\n        /* \"#utility.yul\":8402:8406   */\n      0x24\n        /* \"#utility.yul\":8399:8400   */\n      0x00\n        /* \"#utility.yul\":8392:8407   */\n      revert\n        /* \"#utility.yul\":8419:8536   */\n    tag_181:\n        /* \"#utility.yul\":8504:8505   */\n      0x04\n        /* \"#utility.yul\":8497:8502   */\n      dup2\n        /* \"#utility.yul\":8494:8506   */\n      lt\n        /* \"#utility.yul\":8484:8530   */\n      tag_309\n      jumpi\n        /* \"#utility.yul\":8510:8528   */\n      tag_310\n      tag_35\n      jump\t// in\n    tag_310:\n        /* \"#utility.yul\":8484:8530   */\n    tag_309:\n        /* \"#utility.yul\":8419:8536   */\n      pop\n      jump\t// out\n        /* \"#utility.yul\":8542:8677   */\n    tag_182:\n        /* \"#utility.yul\":8591:8598   */\n      0x00\n        /* \"#utility.yul\":8620:8625   */\n      dup2\n        /* \"#utility.yul\":8609:8625   */\n      swap1\n      pop\n        /* \"#utility.yul\":8626:8671   */\n      tag_312\n        /* \"#utility.yul\":8665:8670   */\n      dup3\n        /* \"#utility.yul\":8626:8671   */\n      tag_181\n      jump\t// in\n    tag_312:\n        /* \"#utility.yul\":8542:8677   */\n      swap2\n      swap1\n      pop\n      jump\t// out\n        /* \"#utility.yul\":8683:8818   */\n    tag_183:\n        /* \"#utility.yul\":8743:8752   */\n      0x00\n        /* \"#utility.yul\":8776:8812   */\n      tag_314\n        /* \"#utility.yul\":8806:8811   */\n      dup3\n        /* \"#utility.yul\":8776:8812   */\n      tag_182\n      jump\t// in\n    tag_314:\n        /* \"#utility.yul\":8763:8812   */\n      swap1\n      pop\n        /* \"#utility.yul\":8683:8818   */\n      swap2\n      swap1\n      pop\n      jump\t// out\n        /* \"#utility.yul\":8824:8975   */\n    tag_184:\n        /* \"#utility.yul\":8921:8968   */\n      tag_316\n        /* \"#utility.yul\":8962:8967   */\n      dup2\n        /* \"#utility.yul\":8921:8968   */\n      tag_183\n      jump\t// in\n    tag_316:\n        /* \"#utility.yul\":8916:8919   */\n      dup3\n        /* \"#utility.yul\":8909:8969   */\n      mstore\n        /* \"#utility.yul\":8824:8975   */\n      pop\n      pop\n      jump\t// out\n        /* \"#utility.yul\":8981:9095   */\n    tag_185:\n        /* \"#utility.yul\":9063:9064   */\n      0x04\n        /* \"#utility.yul\":9056:9061   */\n      dup2\n        /* \"#utility.yul\":9053:9065   */\n      lt\n        /* \"#utility.yul\":9043:9089   */\n      tag_318\n      jumpi\n        /* \"#utility.yul\":9069:9087   */\n      tag_319\n      tag_35\n      jump\t// in\n    tag_319:\n        /* \"#utility.yul\":9043:9089   */\n    tag_318:\n        /* \"#utility.yul\":8981:9095   */\n      pop\n      jump\t// out\n        /* \"#utility.yul\":9101:9230   */\n    tag_186:\n        /* \"#utility.yul\":9147:9154   */\n      0x00\n        /* \"#utility.yul\":9176:9181   */\n      dup2\n        /* \"#utility.yul\":9165:9181   */\n      swap1\n      pop\n        /* \"#utility.yul\":9182:9224   */\n      tag_321\n        /* \"#utility.yul\":9218:9223   */\n      dup3\n        /* \"#utility.yul\":9182:9224   */\n      tag_185\n      jump\t// in\n    tag_321:\n        /* \"#utility.yul\":9101:9230   */\n      swap2\n      swap1\n      pop\n      jump\t// out\n        /* \"#utility.yul\":9236:9365   */\n    tag_187:\n        /* \"#utility.yul\":9293:9302   */\n      0x00\n        /* \"#utility.yul\":9326:9359   */\n      tag_323\n        /* \"#utility.yul\":9353:9358   */\n      dup3\n        /* \"#utility.yul\":9326:9359   */\n      tag_186\n      jump\t// in\n    tag_323:\n        /* \"#utility.yul\":9313:9359   */\n      swap1\n      pop\n        /* \"#utility.yul\":9236:9365   */\n      swap2\n      swap1\n      pop\n      jump\t// out\n        /* \"#utility.yul\":9371:9516   */\n    tag_188:\n        /* \"#utility.yul\":9465:9509   */\n      tag_325\n        /* \"#utility.yul\":9503:9508   */\n      dup2\n        /* \"#utility.yul\":9465:9509   */\n      tag_187\n      jump\t// in\n    tag_325:\n        /* \"#utility.yul\":9460:9463   */\n      dup3\n        /* \"#utility.yul\":9453:9510   */\n      mstore\n        /* \"#utility.yul\":9371:9516   */\n      pop\n      pop\n      jump\t// out\n        /* \"#utility.yul\":9522:10422   */\n    tag_27:\n        /* \"#utility.yul\":9792:9796   */\n      0x00\n        /* \"#utility.yul\":9830:9833   */\n      0xc0\n        /* \"#utility.yul\":9819:9828   */\n      dup3\n        /* \"#utility.yul\":9815:9834   */\n      add\n        /* \"#utility.yul\":9807:9834   */\n      swap1\n      pop\n        /* \"#utility.yul\":9880:9889   */\n      dup2\n        /* \"#utility.yul\":9874:9878   */\n      dup2\n        /* \"#utility.yul\":9870:9890   */\n      sub\n        /* \"#utility.yul\":9866:9867   */\n      0x00\n        /* \"#utility.yul\":9855:9864   */\n      dup4\n        /* \"#utility.yul\":9851:9868   */\n      add\n        /* \"#utility.yul\":9844:9891   */\n      mstore\n        /* \"#utility.yul\":9908:9986   */\n      tag_327\n        /* \"#utility.yul\":9981:9985   */\n      dup2\n        /* \"#utility.yul\":9972:9978   */\n      dup10\n        /* \"#utility.yul\":9908:9986   */\n      tag_180\n      jump\t// in\n    tag_327:\n        /* \"#utility.yul\":9900:9986   */\n      swap1\n      pop\n        /* \"#utility.yul\":9996:10068   */\n      tag_328\n        /* \"#utility.yul\":10064:10066   */\n      0x20\n        /* \"#utility.yul\":10053:10062   */\n      dup4\n        /* \"#utility.yul\":10049:10067   */\n      add\n        /* \"#utility.yul\":10040:10046   */\n      dup9\n        /* \"#utility.yul\":9996:10068   */\n      tag_162\n      jump\t// in\n    tag_328:\n        /* \"#utility.yul\":10078:10150   */\n      tag_329\n        /* \"#utility.yul\":10146:10148   */\n      0x40\n        /* \"#utility.yul\":10135:10144   */\n      dup4\n        /* \"#utility.yul\":10131:10149   */\n      add\n        /* \"#utility.yul\":10122:10128   */\n      dup8\n        /* \"#utility.yul\":10078:10150   */\n      tag_162\n      jump\t// in\n    tag_329:\n        /* \"#utility.yul\":10160:10242   */\n      tag_330\n        /* \"#utility.yul\":10238:10240   */\n      0x60\n        /* \"#utility.yul\":10227:10236   */\n      dup4\n        /* \"#utility.yul\":10223:10241   */\n      add\n        /* \"#utility.yul\":10214:10220   */\n      dup7\n        /* \"#utility.yul\":10160:10242   */\n      tag_184\n      jump\t// in\n    tag_330:\n        /* \"#utility.yul\":10252:10332   */\n      tag_331\n        /* \"#utility.yul\":10327:10330   */\n      0x80\n        /* \"#utility.yul\":10316:10325   */\n      dup4\n        /* \"#utility.yul\":10312:10331   */\n      add\n        /* \"#utility.yul\":10303:10309   */\n      dup6\n        /* \"#utility.yul\":10252:10332   */\n      tag_188\n      jump\t// in\n    tag_331:\n        /* \"#utility.yul\":10342:10415   */\n      tag_332\n        /* \"#utility.yul\":10410:10413   */\n      0xa0\n        /* \"#utility.yul\":10399:10408   */\n      dup4\n        /* \"#utility.yul\":10395:10414   */\n      add\n        /* \"#utility.yul\":10386:10392   */\n      dup5\n        /* \"#utility.yul\":10342:10415   */\n      tag_162\n      jump\t// in\n    tag_332:\n        /* \"#utility.yul\":9522:10422   */\n      swap8\n      swap7\n      pop\n      pop\n      pop\n      pop\n      pop\n      pop\n      pop\n      jump\t// out\n        /* \"#utility.yul\":10428:11143   */\n    tag_31:\n        /* \"#utility.yul\":10637:10641   */\n      0x00\n        /* \"#utility.yul\":10675:10677   */\n      0x60\n        /* \"#utility.yul\":10664:10673   */\n      dup3\n        /* \"#utility.yul\":10660:10678   */\n      add\n        /* \"#utility.yul\":10652:10678   */\n      swap1\n      pop\n        /* \"#utility.yul\":10724:10733   */\n      dup2\n        /* \"#utility.yul\":10718:10722   */\n      dup2\n        /* \"#utility.yul\":10714:10734   */\n      sub\n        /* \"#utility.yul\":10710:10711   */\n      0x00\n        /* \"#utility.yul\":10699:10708   */\n      dup4\n        /* \"#utility.yul\":10695:10712   */\n      add\n        /* \"#utility.yul\":10688:10735   */\n      mstore\n        /* \"#utility.yul\":10752:10830   */\n      tag_334\n        /* \"#utility.yul\":10825:10829   */\n      dup2\n        /* \"#utility.yul\":10816:10822   */\n      dup7\n        /* \"#utility.yul\":10752:10830   */\n      tag_180\n      jump\t// in\n    tag_334:\n        /* \"#utility.yul\":10744:10830   */\n      swap1\n      pop\n        /* \"#utility.yul\":10877:10886   */\n      dup2\n        /* \"#utility.yul\":10871:10875   */\n      dup2\n        /* \"#utility.yul\":10867:10887   */\n      sub\n        /* \"#utility.yul\":10862:10864   */\n      0x20\n        /* \"#utility.yul\":10851:10860   */\n      dup4\n        /* \"#utility.yul\":10847:10865   */\n      add\n        /* \"#utility.yul\":10840:10888   */\n      mstore\n        /* \"#utility.yul\":10905:10983   */\n      tag_335\n        /* \"#utility.yul\":10978:10982   */\n      dup2\n        /* \"#utility.yul\":10969:10975   */\n      dup6\n        /* \"#utility.yul\":10905:10983   */\n      tag_180\n      jump\t// in\n    tag_335:\n        /* \"#utility.yul\":10897:10983   */\n      swap1\n      pop\n        /* \"#utility.yul\":11030:11039   */\n      dup2\n        /* \"#utility.yul\":11024:11028   */\n      dup2\n        /* \"#utility.yul\":11020:11040   */\n      sub\n        /* \"#utility.yul\":11015:11017   */\n      0x40\n        /* \"#utility.yul\":11004:11013   */\n      dup4\n        /* \"#utility.yul\":11000:11018   */\n      add\n        /* \"#utility.yul\":10993:11041   */\n      mstore\n        /* \"#utility.yul\":11058:11136   */\n      tag_336\n        /* \"#utility.yul\":11131:11135   */\n      dup2\n        /* \"#utility.yul\":11122:11128   */\n      dup5\n        /* \"#utility.yul\":11058:11136   */\n      tag_180\n      jump\t// in\n    tag_336:\n        /* \"#utility.yul\":11050:11136   */\n      swap1\n      pop\n        /* \"#utility.yul\":10428:11143   */\n      swap5\n      swap4\n      pop\n      pop\n      pop\n      pop\n      jump\t// out\n        /* \"#utility.yul\":11149:11297   */\n    tag_189:\n        /* \"#utility.yul\":11251:11262   */\n      0x00\n        /* \"#utility.yul\":11288:11291   */\n      dup2\n        /* \"#utility.yul\":11273:11291   */\n      swap1\n      pop\n        /* \"#utility.yul\":11149:11297   */\n      swap3\n      swap2\n      pop\n      pop\n      jump\t// out\n        /* \"#utility.yul\":11303:11693   */\n    tag_190:\n        /* \"#utility.yul\":11409:11412   */\n      0x00\n        /* \"#utility.yul\":11437:11476   */\n      tag_339\n        /* \"#utility.yul\":11470:11475   */\n      dup3\n        /* \"#utility.yul\":11437:11476   */\n      tag_177\n      jump\t// in\n    tag_339:\n        /* \"#utility.yul\":11492:11581   */\n      tag_340\n        /* \"#utility.yul\":11574:11580   */\n      dup2\n        /* \"#utility.yul\":11569:11572   */\n      dup6\n        /* \"#utility.yul\":11492:11581   */\n      tag_189\n      jump\t// in\n    tag_340:\n        /* \"#utility.yul\":11485:11581   */\n      swap4\n      pop\n        /* \"#utility.yul\":11590:11655   */\n      tag_341\n        /* \"#utility.yul\":11648:11654   */\n      dup2\n        /* \"#utility.yul\":11643:11646   */\n      dup6\n        /* \"#utility.yul\":11636:11640   */\n      0x20\n        /* \"#utility.yul\":11629:11634   */\n      dup7\n        /* \"#utility.yul\":11625:11641   */\n      add\n        /* \"#utility.yul\":11590:11655   */\n      tag_179\n      jump\t// in\n    tag_341:\n        /* \"#utility.yul\":11680:11686   */\n      dup1\n        /* \"#utility.yul\":11675:11678   */\n      dup5\n        /* \"#utility.yul\":11671:11687   */\n      add\n        /* \"#utility.yul\":11664:11687   */\n      swap2\n      pop\n        /* \"#utility.yul\":11413:11693   */\n      pop\n        /* \"#utility.yul\":11303:11693   */\n      swap3\n      swap2\n      pop\n      pop\n      jump\t// out\n        /* \"#utility.yul\":11699:11974   */\n    tag_40:\n        /* \"#utility.yul\":11831:11834   */\n      0x00\n        /* \"#utility.yul\":11853:11948   */\n      tag_343\n        /* \"#utility.yul\":11944:11947   */\n      dup3\n        /* \"#utility.yul\":11935:11941   */\n      dup5\n        /* \"#utility.yul\":11853:11948   */\n      tag_190\n      jump\t// in\n    tag_343:\n        /* \"#utility.yul\":11846:11948   */\n      swap2\n      pop\n        /* \"#utility.yul\":11965:11968   */\n      dup2\n        /* \"#utility.yul\":11958:11968   */\n      swap1\n      pop\n        /* \"#utility.yul\":11699:11974   */\n      swap3\n      swap2\n      pop\n      pop\n      jump\t// out\n        /* \"#utility.yul\":11980:12156   */\n    tag_191:\n        /* \"#utility.yul\":12120:12148   */\n      0x53747564656e7420616c72656164792072656769737465726564000000000000\n        /* \"#utility.yul\":12116:12117   */\n      0x00\n        /* \"#utility.yul\":12108:12114   */\n      dup3\n        /* \"#utility.yul\":12104:12118   */\n      add\n        /* \"#utility.yul\":12097:12149   */\n      mstore\n        /* \"#utility.yul\":11980:12156   */\n      pop\n      jump\t// out\n        /* \"#utility.yul\":12162:12528   */\n    tag_192:\n        /* \"#utility.yul\":12304:12307   */\n      0x00\n        /* \"#utility.yul\":12325:12392   */\n      tag_346\n        /* \"#utility.yul\":12389:12391   */\n      0x1a\n        /* \"#utility.yul\":12384:12387   */\n      dup4\n        /* \"#utility.yul\":12325:12392   */\n      tag_178\n      jump\t// in\n    tag_346:\n        /* \"#utility.yul\":12318:12392   */\n      swap2\n      pop\n        /* \"#utility.yul\":12401:12494   */\n      tag_347\n        /* \"#utility.yul\":12490:12493   */\n      dup3\n        /* \"#utility.yul\":12401:12494   */\n      tag_191\n      jump\t// in\n    tag_347:\n        /* \"#utility.yul\":12519:12521   */\n      0x20\n        /* \"#utility.yul\":12514:12517   */\n      dup3\n        /* \"#utility.yul\":12510:12522   */\n      add\n        /* \"#utility.yul\":12503:12522   */\n      swap1\n      pop\n        /* \"#utility.yul\":12162:12528   */\n      swap2\n      swap1\n      pop\n      jump\t// out\n        /* \"#utility.yul\":12534:12953   */\n    tag_43:\n        /* \"#utility.yul\":12700:12704   */\n      0x00\n        /* \"#utility.yul\":12738:12740   */\n      0x20\n        /* \"#utility.yul\":12727:12736   */\n      dup3\n        /* \"#utility.yul\":12723:12741   */\n      add\n        /* \"#utility.yul\":12715:12741   */\n      swap1\n      pop\n        /* \"#utility.yul\":12787:12796   */\n      dup2\n        /* \"#utility.yul\":12781:12785   */\n      dup2\n        /* \"#utility.yul\":12777:12797   */\n      sub\n        /* \"#utility.yul\":12773:12774   */\n      0x00\n        /* \"#utility.yul\":12762:12771   */\n      dup4\n        /* \"#utility.yul\":12758:12775   */\n      add\n        /* \"#utility.yul\":12751:12798   */\n      mstore\n        /* \"#utility.yul\":12815:12946   */\n      tag_349\n        /* \"#utility.yul\":12941:12945   */\n      dup2\n        /* \"#utility.yul\":12815:12946   */\n      tag_192\n      jump\t// in\n    tag_349:\n        /* \"#utility.yul\":12807:12946   */\n      swap1\n      pop\n        /* \"#utility.yul\":12534:12953   */\n      swap2\n      swap1\n      pop\n      jump\t// out\n        /* \"#utility.yul\":12959:13139   */\n    tag_193:\n        /* \"#utility.yul\":13007:13084   */\n      0x4e487b7100000000000000000000000000000000000000000000000000000000\n        /* \"#utility.yul\":13004:13005   */\n      0x00\n        /* \"#utility.yul\":12997:13085   */\n      mstore\n        /* \"#utility.yul\":13104:13108   */\n      0x22\n        /* \"#utility.yul\":13101:13102   */\n      0x04\n        /* \"#utility.yul\":13094:13109   */\n      mstore\n        /* \"#utility.yul\":13128:13132   */\n      0x24\n        /* \"#utility.yul\":13125:13126   */\n      0x00\n        /* \"#utility.yul\":13118:13133   */\n      revert\n        /* \"#utility.yul\":13145:13465   */\n    tag_97:\n        /* \"#utility.yul\":13189:13195   */\n      0x00\n        /* \"#utility.yul\":13226:13227   */\n      0x02\n        /* \"#utility.yul\":13220:13224   */\n      dup3\n        /* \"#utility.yul\":13216:13228   */\n      div\n        /* \"#utility.yul\":13206:13228   */\n      swap1\n      pop\n        /* \"#utility.yul\":13273:13274   */\n      0x01\n        /* \"#utility.yul\":13267:13271   */\n      dup3\n        /* \"#utility.yul\":13263:13275   */\n      and\n        /* \"#utility.yul\":13294:13312   */\n      dup1\n        /* \"#utility.yul\":13284:13365   */\n      tag_352\n      jumpi\n        /* \"#utility.yul\":13350:13354   */\n      0x7f\n        /* \"#utility.yul\":13342:13348   */\n      dup3\n        /* \"#utility.yul\":13338:13355   */\n      and\n        /* \"#utility.yul\":13328:13355   */\n      swap2\n      pop\n        /* \"#utility.yul\":13284:13365   */\n    tag_352:\n        /* \"#utility.yul\":13412:13414   */\n      0x20\n        /* \"#utility.yul\":13404:13410   */\n      dup3\n        /* \"#utility.yul\":13401:13415   */\n      lt\n        /* \"#utility.yul\":13381:13399   */\n      dup2\n        /* \"#utility.yul\":13378:13416   */\n      sub\n        /* \"#utility.yul\":13375:13459   */\n      tag_353\n      jumpi\n        /* \"#utility.yul\":13431:13449   */\n      tag_354\n      tag_193\n      jump\t// in\n    tag_354:\n        /* \"#utility.yul\":13375:13459   */\n    tag_353:\n        /* \"#utility.yul\":13196:13465   */\n      pop\n        /* \"#utility.yul\":13145:13465   */\n      swap2\n      swap1\n      pop\n      jump\t// out\n        /* \"#utility.yul\":13471:13612   */\n    tag_194:\n        /* \"#utility.yul\":13520:13524   */\n      0x00\n        /* \"#utility.yul\":13543:13546   */\n      dup2\n        /* \"#utility.yul\":13535:13546   */\n      swap1\n      pop\n        /* \"#utility.yul\":13566:13569   */\n      dup2\n        /* \"#utility.yul\":13563:13564   */\n      0x00\n        /* \"#utility.yul\":13556:13570   */\n      mstore\n        /* \"#utility.yul\":13600:13604   */\n      0x20\n        /* \"#utility.yul\":13597:13598   */\n      0x00\n        /* \"#utility.yul\":13587:13605   */\n      keccak256\n        /* \"#utility.yul\":13579:13605   */\n      swap1\n      pop\n        /* \"#utility.yul\":13471:13612   */\n      swap2\n      swap1\n      pop\n      jump\t// out\n        /* \"#utility.yul\":13618:13711   */\n    tag_195:\n        /* \"#utility.yul\":13655:13661   */\n      0x00\n        /* \"#utility.yul\":13702:13704   */\n      0x20\n        /* \"#utility.yul\":13697:13699   */\n      0x1f\n        /* \"#utility.yul\":13690:13695   */\n      dup4\n        /* \"#utility.yul\":13686:13700   */\n      add\n        /* \"#utility.yul\":13682:13705   */\n      div\n        /* \"#utility.yul\":13672:13705   */\n      swap1\n      pop\n        /* \"#utility.yul\":13618:13711   */\n      swap2\n      swap1\n      pop\n      jump\t// out\n        /* \"#utility.yul\":13717:13824   */\n    tag_196:\n        /* \"#utility.yul\":13761:13769   */\n      0x00\n        /* \"#utility.yul\":13811:13816   */\n      dup3\n        /* \"#utility.yul\":13805:13809   */\n      dup3\n        /* \"#utility.yul\":13801:13817   */\n      shl\n        /* \"#utility.yul\":13780:13817   */\n      swap1\n      pop\n        /* \"#utility.yul\":13717:13824   */\n      swap3\n      swap2\n      pop\n      pop\n      jump\t// out\n        /* \"#utility.yul\":13830:14223   */\n    tag_197:\n        /* \"#utility.yul\":13899:13905   */\n      0x00\n        /* \"#utility.yul\":13949:13950   */\n      0x08\n        /* \"#utility.yul\":13937:13947   */\n      dup4\n        /* \"#utility.yul\":13933:13951   */\n      mul\n        /* \"#utility.yul\":13972:14069   */\n      tag_359\n        /* \"#utility.yul\":14002:14068   */\n      0xffffffffffffffffffffffffffffffffffffffffffffffffffffffffffffffff\n        /* \"#utility.yul\":13991:14000   */\n      dup3\n        /* \"#utility.yul\":13972:14069   */\n      tag_196\n      jump\t// in\n    tag_359:\n        /* \"#utility.yul\":14090:14129   */\n      tag_360\n        /* \"#utility.yul\":14120:14128   */\n      dup7\n        /* \"#utility.yul\":14109:14118   */\n      dup4\n        /* \"#utility.yul\":14090:14129   */\n      tag_196\n      jump\t// in\n    tag_360:\n        /* \"#utility.yul\":14078:14129   */\n      swap6\n      pop\n        /* \"#utility.yul\":14162:14166   */\n      dup1\n        /* \"#utility.yul\":14158:14167   */\n      not\n        /* \"#utility.yul\":14151:14156   */\n      dup5\n        /* \"#utility.yul\":14147:14168   */\n      and\n        /* \"#utility.yul\":14138:14168   */\n      swap4\n      pop\n        /* \"#utility.yul\":14211:14215   */\n      dup1\n        /* \"#utility.yul\":14201:14209   */\n      dup7\n        /* \"#utility.yul\":14197:14216   */\n      and\n        /* \"#utility.yul\":14190:14195   */\n      dup5\n        /* \"#utility.yul\":14187:14217   */\n      or\n        /* \"#utility.yul\":14177:14217   */\n      swap3\n      pop\n        /* \"#utility.yul\":13906:14223   */\n      pop\n      pop\n        /* \"#utility.yul\":13830:14223   */\n      swap4\n      swap3\n      pop\n      pop\n      pop\n      jump\t// out\n        /* \"#utility.yul\":14229:14289   */\n    tag_198:\n        /* \"#utility.yul\":14257:14260   */\n      0x00\n        /* \"#utility.yul\":14278:14283   */\n      dup2\n        /* \"#utility.yul\":14271:14283   */\n      swap1\n      pop\n        /* \"#utility.yul\":14229:14289   */\n      swap2\n      swap1\n      pop\n      jump\t// out\n        /* \"#utility.yul\":14295:14437   */\n    tag_199:\n        /* \"#utility.yul\":14345:14354   */\n      0x00\n        /* \"#utility.yul\":14378:14431   */\n      tag_363\n        /* \"#utility.yul\":14396:14430   */\n      tag_364\n        /* \"#utility.yul\":14405:14429   */\n      tag_365\n        /* \"#utility.yul\":14423:14428   */\n      dup5\n        /* \"#utility.yul\":14405:14429   */\n      tag_161\n      jump\t// in\n    tag_365:\n        /* \"#utility.yul\":14396:14430   */\n      tag_198\n      jump\t// in\n    tag_364:\n        /* \"#utility.yul\":14378:14431   */\n      tag_161\n      jump\t// in\n    tag_363:\n        /* \"#utility.yul\":14365:14431   */\n      swap1\n      pop\n        /* \"#utility.yul\":14295:14437   */\n      swap2\n      swap1\n      pop\n      jump\t// out\n        /* \"#utility.yul\":14443:14518   */\n    tag_200:\n        /* \"#utility.yul\":14486:14489   */\n      0x00\n        /* \"#utility.yul\":14507:14512   */\n      dup2\n        /* \"#utility.yul\":14500:14512   */\n      swap1\n      pop\n        /* \"#utility.yul\":14443:14518   */\n      swap2\n      swap1\n      pop\n      jump\t// out\n        /* \"#utility.yul\":14524:14793   */\n    tag_201:\n        /* \"#utility.yul\":14634:14673   */\n      tag_368\n        /* \"#utility.yul\":14665:14672   */\n      dup4\n        /* \"#utility.yul\":14634:14673   */\n      tag_199\n      jump\t// in\n    tag_368:\n        /* \"#utility.yul\":14695:14786   */\n      tag_369\n        /* \"#utility.yul\":14744:14785   */\n      tag_370\n        /* \"#utility.yul\":14768:14784   */\n      dup3\n        /* \"#utility.yul\":14744:14785   */\n      tag_200\n      jump\t// in\n    tag_370:\n        /* \"#utility.yul\":14736:14742   */\n      dup5\n        /* \"#utility.yul\":14729:14733   */\n      dup5\n        /* \"#utility.yul\":14723:14734   */\n      sload\n        /* \"#utility.yul\":14695:14786   */\n      tag_197\n      jump\t// in\n    tag_369:\n        /* \"#utility.yul\":14689:14693   */\n      dup3\n        /* \"#utility.yul\":14682:14787   */\n      sstore\n        /* \"#utility.yul\":14600:14793   */\n      pop\n        /* \"#utility.yul\":14524:14793   */\n      pop\n      pop\n      pop\n      jump\t// out\n        /* \"#utility.yul\":14799:14872   */\n    tag_202:\n        /* \"#utility.yul\":14844:14847   */\n      0x00\n        /* \"#utility.yul\":14799:14872   */\n      swap1\n      jump\t// out\n        /* \"#utility.yul\":14878:15067   */\n    tag_203:\n        /* \"#utility.yul\":14955:14987   */\n      tag_373\n      tag_202\n      jump\t// in\n    tag_373:\n        /* \"#utility.yul\":14996:15061   */\n      tag_374\n        /* \"#utility.yul\":15054:15060   */\n      dup2\n        /* \"#utility.yul\":15046:15052   */\n      dup5\n        /* \"#utility.yul\":15040:15044   */\n      dup5\n        /* \"#utility.yul\":14996:15061   */\n      tag_201\n      jump\t// in\n    tag_374:\n        /* \"#utility.yul\":14931:15067   */\n      pop\n        /* \"#utility.yul\":14878:15067   */\n      pop\n      pop\n      jump\t// out\n        /* \"#utility.yul\":15073:15259   */\n    tag_204:\n        /* \"#utility.yul\":15133:15253   */\n    tag_376:\n        /* \"#utility.yul\":15150:15153   */\n      dup2\n        /* \"#utility.yul\":15143:15148   */\n      dup2\n        /* \"#utility.yul\":15140:15154   */\n      lt\n        /* \"#utility.yul\":15133:15253   */\n      iszero\n      tag_378\n      jumpi\n        /* \"#utility.yul\":15204:15243   */\n      tag_379\n        /* \"#utility.yul\":15241:15242   */\n      0x00\n        /* \"#utility.yul\":15234:15239   */\n      dup3\n        /* \"#utility.yul\":15204:15243   */\n      tag_203\n      jump\t// in\n    tag_379:\n        /* \"#utility.yul\":15177:15178   */\n      0x01\n        /* \"#utility.yul\":15170:15175   */\n      dup2\n        /* \"#utility.yul\":15166:15179   */\n      add\n        /* \"#utility.yul\":15157:15179   */\n      swap1\n      pop\n        /* \"#utility.yul\":15133:15253   */\n      jump(tag_376)\n    tag_378:\n        /* \"#utility.yul\":15073:15259   */\n      pop\n      pop\n      jump\t// out\n        /* \"#utility.yul\":15265:15808   */\n    tag_205:\n        /* \"#utility.yul\":15366:15368   */\n      0x1f\n        /* \"#utility.yul\":15361:15364   */\n      dup3\n        /* \"#utility.yul\":15358:15369   */\n      gt\n        /* \"#utility.yul\":15355:15801   */\n      iszero\n      tag_381\n      jumpi\n        /* \"#utility.yul\":15400:15438   */\n      tag_382\n        /* \"#utility.yul\":15432:15437   */\n      dup2\n        /* \"#utility.yul\":15400:15438   */\n      tag_194\n      jump\t// in\n    tag_382:\n        /* \"#utility.yul\":15484:15513   */\n      tag_383\n        /* \"#utility.yul\":15502:15512   */\n      dup5\n        /* \"#utility.yul\":15484:15513   */\n      tag_195\n      jump\t// in\n    tag_383:\n        /* \"#utility.yul\":15474:15482   */\n      dup2\n        /* \"#utility.yul\":15470:15514   */\n      add\n        /* \"#utility.yul\":15667:15669   */\n      0x20\n        /* \"#utility.yul\":15655:15665   */\n      dup6\n        /* \"#utility.yul\":15652:15670   */\n      lt\n        /* \"#utility.yul\":15649:15698   */\n      iszero\n      tag_384\n      jumpi\n        /* \"#utility.yul\":15688:15696   */\n      dup2\n        /* \"#utility.yul\":15673:15696   */\n      swap1\n      pop\n        /* \"#utility.yul\":15649:15698   */\n    tag_384:\n        /* \"#utility.yul\":15711:15791   */\n      tag_385\n        /* \"#utility.yul\":15767:15789   */\n      tag_386\n        /* \"#utility.yul\":15785:15788   */\n      dup6\n        /* \"#utility.yul\":15767:15789   */\n      tag_195\n      jump\t// in\n    tag_386:\n        /* \"#utility.yul\":15757:15765   */\n      dup4\n        /* \"#utility.yul\":15753:15790   */\n      add\n        /* \"#utility.yul\":15740:15751   */\n      dup3\n        /* \"#utility.yul\":15711:15791   */\n      tag_204\n      jump\t// in\n    tag_385:\n        /* \"#utility.yul\":15370:15801   */\n      pop\n      pop\n        /* \"#utility.yul\":15355:15801   */\n    tag_381:\n        /* \"#utility.yul\":15265:15808   */\n      pop\n      pop\n      pop\n      jump\t// out\n        /* \"#utility.yul\":15814:15931   */\n    tag_206:\n        /* \"#utility.yul\":15868:15876   */\n      0x00\n        /* \"#utility.yul\":15918:15923   */\n      dup3\n        /* \"#utility.yul\":15912:15916   */\n      dup3\n        /* \"#utility.yul\":15908:15924   */\n      shr\n        /* \"#utility.yul\":15887:15924   */\n      swap1\n      pop\n        /* \"#utility.yul\":15814:15931   */\n      swap3\n      swap2\n      pop\n      pop\n      jump\t// out\n        /* \"#utility.yul\":15937:16106   */\n    tag_207:\n        /* \"#utility.yul\":15981:15987   */\n      0x00\n        /* \"#utility.yul\":16014:16065   */\n      tag_389\n        /* \"#utility.yul\":16062:16063   */\n      0x00\n        /* \"#utility.yul\":16058:16064   */\n      not\n        /* \"#utility.yul\":16050:16055   */\n      dup5\n        /* \"#utility.yul\":16047:16048   */\n      0x08\n        /* \"#utility.yul\":16043:16056   */\n      mul\n        /* \"#utility.yul\":16014:16065   */\n      tag_206\n      jump\t// in\n    tag_389:\n        /* \"#utility.yul\":16010:16066   */\n      not\n        /* \"#utility.yul\":16095:16099   */\n      dup1\n        /* \"#utility.yul\":16089:16093   */\n      dup4\n        /* \"#utility.yul\":16085:16100   */\n      and\n        /* \"#utility.yul\":16075:16100   */\n      swap2\n      pop\n        /* \"#utility.yul\":15988:16106   */\n      pop\n        /* \"#utility.yul\":15937:16106   */\n      swap3\n      swap2\n      pop\n      pop\n      jump\t// out\n        /* \"#utility.yul\":16111:16406   */\n    tag_208:\n        /* \"#utility.yul\":16187:16191   */\n      0x00\n        /* \"#utility.yul\":16333:16362   */\n      tag_391\n        /* \"#utility.yul\":16358:16361   */\n      dup4\n        /* \"#utility.yul\":16352:16356   */\n      dup4\n        /* \"#utility.yul\":16333:16362   */\n      tag_207\n      jump\t// in\n    tag_391:\n        /* \"#utility.yul\":16325:16362   */\n      swap2\n      pop\n        /* \"#utility.yul\":16395:16398   */\n      dup3\n        /* \"#utility.yul\":16392:16393   */\n      0x02\n        /* \"#utility.yul\":16388:16399   */\n      mul\n        /* \"#utility.yul\":16382:16386   */\n      dup3\n        /* \"#utility.yul\":16379:16400   */\n      or\n        /* \"#utility.yul\":16371:16400   */\n      swap1\n      pop\n        /* \"#utility.yul\":16111:16406   */\n      swap3\n      swap2\n      pop\n      pop\n      jump\t// out\n        /* \"#utility.yul\":16411:17806   */\n    tag_50:\n        /* \"#utility.yul\":16528:16565   */\n      tag_393\n        /* \"#utility.yul\":16561:16564   */\n      dup3\n        /* \"#utility.yul\":16528:16565   */\n      tag_177\n      jump\t// in\n    tag_393:\n        /* \"#utility.yul\":16630:16648   */\n      0xffffffffffffffff\n        /* \"#utility.yul\":16622:16628   */\n      dup2\n        /* \"#utility.yul\":16619:16649   */\n      gt\n        /* \"#utility.yul\":16616:16672   */\n      iszero\n      tag_394\n      jumpi\n        /* \"#utility.yul\":16652:16670   */\n      tag_395\n      tag_166\n      jump\t// in\n    tag_395:\n        /* \"#utility.yul\":16616:16672   */\n    tag_394:\n        /* \"#utility.yul\":16696:16734   */\n      tag_396\n        /* \"#utility.yul\":16728:16732   */\n      dup3\n        /* \"#utility.yul\":16722:16733   */\n      sload\n        /* \"#utility.yul\":16696:16734   */\n      tag_97\n      jump\t// in\n    tag_396:\n        /* \"#utility.yul\":16781:16848   */\n      tag_397\n        /* \"#utility.yul\":16841:16847   */\n      dup3\n        /* \"#utility.yul\":16833:16839   */\n      dup3\n        /* \"#utility.yul\":16827:16831   */\n      dup6\n        /* \"#utility.yul\":16781:16848   */\n      tag_205\n      jump\t// in\n    tag_397:\n        /* \"#utility.yul\":16875:16876   */\n      0x00\n        /* \"#utility.yul\":16899:16903   */\n      0x20\n        /* \"#utility.yul\":16886:16903   */\n      swap1\n      pop\n        /* \"#utility.yul\":16931:16933   */\n      0x1f\n        /* \"#utility.yul\":16923:16929   */\n      dup4\n        /* \"#utility.yul\":16920:16934   */\n      gt\n        /* \"#utility.yul\":16948:16949   */\n      0x01\n        /* \"#utility.yul\":16943:17561   */\n      dup2\n      eq\n      tag_399\n      jumpi\n        /* \"#utility.yul\":17605:17606   */\n      0x00\n        /* \"#utility.yul\":17622:17628   */\n      dup5\n        /* \"#utility.yul\":17619:17696   */\n      iszero\n      tag_400\n      jumpi\n        /* \"#utility.yul\":17671:17680   */\n      dup3\n        /* \"#utility.yul\":17666:17669   */\n      dup8\n        /* \"#utility.yul\":17662:17681   */\n      add\n        /* \"#utility.yul\":17656:17682   */\n      mload\n        /* \"#utility.yul\":17647:17682   */\n      swap1\n      pop\n        /* \"#utility.yul\":17619:17696   */\n    tag_400:\n        /* \"#utility.yul\":17722:17789   */\n      tag_401\n        /* \"#utility.yul\":17782:17788   */\n      dup6\n        /* \"#utility.yul\":17775:17780   */\n      dup3\n        /* \"#utility.yul\":17722:17789   */\n      tag_208\n      jump\t// in\n    tag_401:\n        /* \"#utility.yul\":17716:17720   */\n      dup7\n        /* \"#utility.yul\":17709:17790   */\n      sstore\n        /* \"#utility.yul\":17578:17800   */\n      pop\n        /* \"#utility.yul\":16913:17800   */\n      jump(tag_398)\n        /* \"#utility.yul\":16943:17561   */\n    tag_399:\n        /* \"#utility.yul\":16995:16999   */\n      0x1f\n        /* \"#utility.yul\":16991:17000   */\n      not\n        /* \"#utility.yul\":16983:16989   */\n      dup5\n        /* \"#utility.yul\":16979:17001   */\n      and\n        /* \"#utility.yul\":17029:17066   */\n      tag_402\n        /* \"#utility.yul\":17061:17065   */\n      dup7\n        /* \"#utility.yul\":17029:17066   */\n      tag_194\n      jump\t// in\n    tag_402:\n        /* \"#utility.yul\":17088:17089   */\n      0x00\n        /* \"#utility.yul\":17102:17310   */\n    tag_403:\n        /* \"#utility.yul\":17116:17123   */\n      dup3\n        /* \"#utility.yul\":17113:17114   */\n      dup2\n        /* \"#utility.yul\":17110:17124   */\n      lt\n        /* \"#utility.yul\":17102:17310   */\n      iszero\n      tag_405\n      jumpi\n        /* \"#utility.yul\":17195:17204   */\n      dup5\n        /* \"#utility.yul\":17190:17193   */\n      dup10\n        /* \"#utility.yul\":17186:17205   */\n      add\n        /* \"#utility.yul\":17180:17206   */\n      mload\n        /* \"#utility.yul\":17172:17178   */\n      dup3\n        /* \"#utility.yul\":17165:17207   */\n      sstore\n        /* \"#utility.yul\":17246:17247   */\n      0x01\n        /* \"#utility.yul\":17238:17244   */\n      dup3\n        /* \"#utility.yul\":17234:17248   */\n      add\n        /* \"#utility.yul\":17224:17248   */\n      swap2\n      pop\n        /* \"#utility.yul\":17293:17295   */\n      0x20\n        /* \"#utility.yul\":17282:17291   */\n      dup6\n        /* \"#utility.yul\":17278:17296   */\n      add\n        /* \"#utility.yul\":17265:17296   */\n      swap5\n      pop\n        /* \"#utility.yul\":17139:17143   */\n      0x20\n        /* \"#utility.yul\":17136:17137   */\n      dup2\n        /* \"#utility.yul\":17132:17144   */\n      add\n        /* \"#utility.yul\":17127:17144   */\n      swap1\n      pop\n        /* \"#utility.yul\":17102:17310   */\n      jump(tag_403)\n    tag_405:\n        /* \"#utility.yul\":17338:17344   */\n      dup7\n        /* \"#utility.yul\":17329:17336   */\n      dup4\n        /* \"#utility.yul\":17326:17345   */\n      lt\n        /* \"#utility.yul\":17323:17502   */\n      iszero\n      tag_406\n      jumpi\n        /* \"#utility.yul\":17396:17405   */\n      dup5\n        /* \"#utility.yul\":17391:17394   */\n      dup10\n        /* \"#utility.yul\":17387:17406   */\n      add\n        /* \"#utility.yul\":17381:17407   */\n      mload\n        /* \"#utility.yul\":17439:17487   */\n      tag_407\n        /* \"#utility.yul\":17481:17485   */\n      0x1f\n        /* \"#utility.yul\":17473:17479   */\n      dup10\n        /* \"#utility.yul\":17469:17486   */\n      and\n        /* \"#utility.yul\":17458:17467   */\n      dup3\n        /* \"#utility.yul\":17439:17487   */\n      tag_207\n      jump\t// in\n    tag_407:\n        /* \"#utility.yul\":17431:17437   */\n      dup4\n        /* \"#utility.yul\":17424:17488   */\n      sstore\n        /* \"#utility.yul\":17346:17502   */\n      pop\n        /* \"#utility.yul\":17323:17502   */\n    tag_406:\n        /* \"#utility.yul\":17548:17549   */\n      0x01\n        /* \"#utility.yul\":17544:17545   */\n      0x02\n        /* \"#utility.yul\":17536:17542   */\n      dup9\n        /* \"#utility.yul\":17532:17546   */\n      mul\n        /* \"#utility.yul\":17528:17550   */\n      add\n        /* \"#utility.yul\":17522:17526   */\n      dup9\n        /* \"#utility.yul\":17515:17551   */\n      sstore\n        /* \"#utility.yul\":16950:17561   */\n      pop\n      pop\n      pop\n        /* \"#utility.yul\":16913:17800   */\n    tag_398:\n      pop\n        /* \"#utility.yul\":16503:17806   */\n      pop\n      pop\n      pop\n        /* \"#utility.yul\":16411:17806   */\n      pop\n      pop\n      jump\t// out\n        /* \"#utility.yul\":17812:17992   */\n    tag_209:\n        /* \"#utility.yul\":17860:17937   */\n      0x4e487b7100000000000000000000000000000000000000000000000000000000\n        /* \"#utility.yul\":17857:17858   */\n      0x00\n        /* \"#utility.yul\":17850:17938   */\n      mstore\n        /* \"#utility.yul\":17957:17961   */\n      0x11\n        /* \"#utility.yul\":17954:17955   */\n      0x04\n        /* \"#utility.yul\":17947:17962   */\n      mstore\n        /* \"#utility.yul\":17981:17985   */\n      0x24\n        /* \"#utility.yul\":17978:17979   */\n      0x00\n        /* \"#utility.yul\":17971:17986   */\n      revert\n        /* \"#utility.yul\":17998:18231   */\n    tag_60:\n        /* \"#utility.yul\":18037:18040   */\n      0x00\n        /* \"#utility.yul\":18060:18084   */\n      tag_410\n        /* \"#utility.yul\":18078:18083   */\n      dup3\n        /* \"#utility.yul\":18060:18084   */\n      tag_161\n      jump\t// in\n    tag_410:\n        /* \"#utility.yul\":18051:18084   */\n      swap2\n      pop\n        /* \"#utility.yul\":18106:18172   */\n      0xffffffffffffffffffffffffffffffffffffffffffffffffffffffffffffffff\n        /* \"#utility.yul\":18099:18104   */\n      dup3\n        /* \"#utility.yul\":18096:18173   */\n      sub\n        /* \"#utility.yul\":18093:18196   */\n      tag_411\n      jumpi\n        /* \"#utility.yul\":18176:18194   */\n      tag_412\n      tag_209\n      jump\t// in\n    tag_412:\n        /* \"#utility.yul\":18093:18196   */\n    tag_411:\n        /* \"#utility.yul\":18223:18224   */\n      0x01\n        /* \"#utility.yul\":18216:18221   */\n      dup3\n        /* \"#utility.yul\":18212:18225   */\n      add\n        /* \"#utility.yul\":18205:18225   */\n      swap1\n      pop\n        /* \"#utility.yul\":17998:18231   */\n      swap2\n      swap1\n      pop\n      jump\t// out\n        /* \"#utility.yul\":18237:18409   */\n    tag_210:\n        /* \"#utility.yul\":18377:18401   */\n      0x53747564656e74206e6f74207265676973746572656400000000000000000000\n        /* \"#utility.yul\":18373:18374   */\n      0x00\n        /* \"#utility.yul\":18365:18371   */\n      dup3\n        /* \"#utility.yul\":18361:18375   */\n      add\n        /* \"#utility.yul\":18354:18402   */\n      mstore\n        /* \"#utility.yul\":18237:18409   */\n      pop\n      jump\t// out\n        /* \"#utility.yul\":18415:18781   */\n    tag_211:\n        /* \"#utility.yul\":18557:18560   */\n      0x00\n        /* \"#utility.yul\":18578:18645   */\n      tag_415\n        /* \"#utility.yul\":18642:18644   */\n      0x16\n        /* \"#utility.yul\":18637:18640   */\n      dup4\n        /* \"#utility.yul\":18578:18645   */\n      tag_178\n      jump\t// in\n    tag_415:\n        /* \"#utility.yul\":18571:18645   */\n      swap2\n      pop\n        /* \"#utility.yul\":18654:18747   */\n      tag_416\n        /* \"#utility.yul\":18743:18746   */\n      dup3\n        /* \"#utility.yul\":18654:18747   */\n      tag_210\n      jump\t// in\n    tag_416:\n        /* \"#utility.yul\":18772:18774   */\n      0x20\n        /* \"#utility.yul\":18767:18770   */\n      dup3\n        /* \"#utility.yul\":18763:18775   */\n      add\n        /* \"#utility.yul\":18756:18775   */\n      swap1\n      pop\n        /* \"#utility.yul\":18415:18781   */\n      swap2\n      swap1\n      pop\n      jump\t// out\n        /* \"#utility.yul\":18787:19206   */\n    tag_65:\n        /* \"#utility.yul\":18953:18957   */\n      0x00\n        /* \"#utility.yul\":18991:18993   */\n      0x20\n        /* \"#utility.yul\":18980:18989   */\n      dup3\n        /* \"#utility.yul\":18976:18994   */\n      add\n        /* \"#utility.yul\":18968:18994   */\n      swap1\n      pop\n        /* \"#utility.yul\":19040:19049   */\n      dup2\n        /* \"#utility.yul\":19034:19038   */\n      dup2\n        /* \"#utility.yul\":19030:19050   */\n      sub\n        /* \"#utility.yul\":19026:19027   */\n      0x00\n        /* \"#utility.yul\":19015:19024   */\n      dup4\n        /* \"#utility.yul\":19011:19028   */\n      add\n        /* \"#utility.yul\":19004:19051   */\n      mstore\n        /* \"#utility.yul\":19068:19199   */\n      tag_418\n        /* \"#utility.yul\":19194:19198   */\n      dup2\n        /* \"#utility.yul\":19068:19199   */\n      tag_211\n      jump\t// in\n    tag_418:\n        /* \"#utility.yul\":19060:19199   */\n      swap1\n      pop\n        /* \"#utility.yul\":18787:19206   */\n      swap2\n      swap1\n      pop\n      jump\t// out\n        /* \"#utility.yul\":19212:19383   */\n    tag_88:\n        /* \"#utility.yul\":19251:19254   */\n      0x00\n        /* \"#utility.yul\":19274:19298   */\n      tag_420\n        /* \"#utility.yul\":19292:19297   */\n      dup3\n        /* \"#utility.yul\":19274:19298   */\n      tag_161\n      jump\t// in\n    tag_420:\n        /* \"#utility.yul\":19265:19298   */\n      swap2\n      pop\n        /* \"#utility.yul\":19320:19324   */\n      0x00\n        /* \"#utility.yul\":19313:19318   */\n      dup3\n        /* \"#utility.yul\":19310:19325   */\n      sub\n        /* \"#utility.yul\":19307:19348   */\n      tag_421\n      jumpi\n        /* \"#utility.yul\":19328:19346   */\n      tag_422\n      tag_209\n      jump\t// in\n    tag_422:\n        /* \"#utility.yul\":19307:19348   */\n    tag_421:\n        /* \"#utility.yul\":19375:19376   */\n      0x01\n        /* \"#utility.yul\":19368:19373   */\n      dup3\n        /* \"#utility.yul\":19364:19377   */\n      sub\n        /* \"#utility.yul\":19357:19377   */\n      swap1\n      pop\n        /* \"#utility.yul\":19212:19383   */\n      swap2\n      swap1\n      pop\n      jump\t// out\n        /* \"#utility.yul\":19389:19556   */\n    tag_212:\n        /* \"#utility.yul\":19529:19548   */\n      0x53747564656e74206e6f7420666f756e64000000000000000000000000000000\n        /* \"#utility.yul\":19525:19526   */\n      0x00\n        /* \"#utility.yul\":19517:19523   */\n      dup3\n        /* \"#utility.yul\":19513:19527   */\n      add\n        /* \"#utility.yul\":19506:19549   */\n      mstore\n        /* \"#utility.yul\":19389:19556   */\n      pop\n      jump\t// out\n        /* \"#utility.yul\":19562:19928   */\n    tag_213:\n        /* \"#utility.yul\":19704:19707   */\n      0x00\n        /* \"#utility.yul\":19725:19792   */\n      tag_425\n        /* \"#utility.yul\":19789:19791   */\n      0x11\n        /* \"#utility.yul\":19784:19787   */\n      dup4\n        /* \"#utility.yul\":19725:19792   */\n      tag_178\n      jump\t// in\n    tag_425:\n        /* \"#utility.yul\":19718:19792   */\n      swap2\n      pop\n        /* \"#utility.yul\":19801:19894   */\n      tag_426\n        /* \"#utility.yul\":19890:19893   */\n      dup3\n        /* \"#utility.yul\":19801:19894   */\n      tag_212\n      jump\t// in\n    tag_426:\n        /* \"#utility.yul\":19919:19921   */\n      0x20\n        /* \"#utility.yul\":19914:19917   */\n      dup3\n        /* \"#utility.yul\":19910:19922   */\n      add\n        /* \"#utility.yul\":19903:19922   */\n      swap1\n      pop\n        /* \"#utility.yul\":19562:19928   */\n      swap2\n      swap1\n      pop\n      jump\t// out\n        /* \"#utility.yul\":19934:20353   */\n    tag_112:\n        /* \"#utility.yul\":20100:20104   */\n      0x00\n        /* \"#utility.yul\":20138:20140   */\n      0x20\n        /* \"#utility.yul\":20127:20136   */\n      dup3\n        /* \"#utility.yul\":20123:20141   */\n      add\n        /* \"#utility.yul\":20115:20141   */\n      swap1\n      pop\n        /* \"#utility.yul\":20187:20196   */\n      dup2\n        /* \"#utility.yul\":20181:20185   */\n      dup2\n        /* \"#utility.yul\":20177:20197   */\n      sub\n        /* \"#utility.yul\":20173:20174   */\n      0x00\n        /* \"#utility.yul\":20162:20171   */\n      dup4\n        /* \"#utility.yul\":20158:20175   */\n      add\n        /* \"#utility.yul\":20151:20198   */\n      mstore\n        /* \"#utility.yul\":20215:20346   */\n      tag_428\n        /* \"#utility.yul\":20341:20345   */\n      dup2\n        /* \"#utility.yul\":20215:20346   */\n      tag_213\n      jump\t// in\n    tag_428:\n        /* \"#utility.yul\":20207:20346   */\n      swap1\n      pop\n        /* \"#utility.yul\":19934:20353   */\n      swap2\n      swap1\n      pop\n      jump\t// out\n        /* \"#utility.yul\":20359:20539   */\n    tag_123:\n        /* \"#utility.yul\":20407:20484   */\n      0x4e487b7100000000000000000000000000000000000000000000000000000000\n        /* \"#utility.yul\":20404:20405   */\n      0x00\n        /* \"#utility.yul\":20397:20485   */\n      mstore\n        /* \"#utility.yul\":20504:20508   */\n      0x32\n        /* \"#utility.yul\":20501:20502   */\n      0x04\n        /* \"#utility.yul\":20494:20509   */\n      mstore\n        /* \"#utility.yul\":20528:20532   */\n      0x24\n        /* \"#utility.yul\":20525:20526   */\n      0x00\n        /* \"#utility.yul\":20518:20533   */\n      revert\n\n    auxdata: 0xa2646970667358221220cb0f42beb1786346fa226ada93791de71cfe8c57dd5dbe7e56c517223d4c449264736f6c63430008120033\n}\n",
				"bytecode": {
					"linkReferences": {},
					"object": "608060405234801561001057600080fd5b50611511806100206000396000f3fe608060405234801561001057600080fd5b50600436106100565760003560e01c806235eef51461005b5780634a7c31dc1461008b5780635c2a9263146100a75780638805f0f4146100c3578063caf76adb146100f8575b600080fd5b61007560048036038101906100709190610a00565b610118565b6040516100829190610a46565b60405180910390f35b6100a560048036038101906100a09190610bd3565b610159565b005b6100c160048036038101906100bc9190610c97565b610317565b005b6100dd60048036038101906100d89190610d5c565b6105b0565b6040516100ef96959493929190610ee3565b60405180910390f35b610100610787565b60405161010f93929190610f4b565b60405180910390f35b60006001600083600381111561013157610130610e24565b5b600381111561014357610142610e24565b5b8152602001908152602001600020549050919050565b6000808560405161016a9190610fd3565b908152602001604051809103902060020154146101bc576040517f08c379a00000000000000000000000000000000000000000000000000000000081526004016101b390611036565b60405180910390fd5b6040518060c001604052808481526020018381526020014281526020018260038111156101ec576101eb610e24565b5b81526020016000600381111561020557610204610e24565b5b8152602001600081525060008560405161021f9190610fd3565b908152602001604051809103902060008201518160000190816102429190611262565b50602082015181600101556040820151816002015560608201518160030160006101000a81548160ff0219169083600381111561028257610281610e24565b5b021790555060808201518160030160016101000a81548160ff021916908360038111156102b2576102b1610e24565b5b021790555060a08201518160040155905050600160008260038111156102db576102da610e24565b5b60038111156102ed576102ec610e24565b5b8152602001908152602001600020600081548092919061030c90611363565b919050555050505050565b600080876040516103289190610fd3565b9081526020016040518091039020600201541161037a576040517f08c379a0000000000000000000000000000000000000000000000000000000008152600401610371906113f7565b60405180910390fd5b8460008760405161038b9190610fd3565b908152602001604051809103902060000190816103a89190611262565b50836000876040516103ba9190610fd3565b908152602001604051809103902060010181905550826000876040516103e09190610fd3565b908152602001604051809103902060030160006101000a81548160ff0219169083600381111561041357610412610e24565b5b0217905550816000876040516104299190610fd3565b908152602001604051809103902060030160016101000a81548160ff0219169083600381111561045c5761045b610e24565b5b0217905550806000876040516104729190610fd3565b9081526020016040518091039020600401819055506000866040516104979190610fd3565b908152602001604051809103902060030160009054906101000a900460ff1660038111156104c8576104c7610e24565b5b8360038111156104db576104da610e24565b5b146105a8576001600080886040516104f39190610fd3565b908152602001604051809103902060030160009054906101000a900460ff16600381111561052457610523610e24565b5b600381111561053657610535610e24565b5b8152602001908152602001600020600081548092919061055590611417565b91905055506001600084600381111561057157610570610e24565b5b600381111561058357610582610e24565b5b815260200190815260200160002060008154809291906105a290611363565b91905055505b505050505050565b60606000806000806000806000886040516105cb9190610fd3565b90815260200160405180910390206040518060c00160405290816000820180546105f490611085565b80601f016020809104026020016040519081016040528092919081815260200182805461062090611085565b801561066d5780601f106106425761010080835404028352916020019161066d565b820191906000526020600020905b81548152906001019060200180831161065057829003601f168201915b5050505050815260200160018201548152602001600282015481526020016003820160009054906101000a900460ff1660038111156106af576106ae610e24565b5b60038111156106c1576106c0610e24565b5b81526020016003820160019054906101000a900460ff1660038111156106ea576106e9610e24565b5b60038111156106fc576106fb610e24565b5b815260200160048201548152505090506000816040015111610753576040517f08c379a000000000000000000000000000000000000000000000000000000000815260040161074a9061148c565b60405180910390fd5b806000015181602001518260400151836060015184608001518560a001519650965096509650965096505091939550919395565b606080606061079461097e565b61079c6109a5565b60005b60038110156107d95760008282600381106107bd576107bc6114ac565b5b60200201818152505080806107d190611363565b91505061079f565b5060005b60038110156109255760005b6003811015610911576000848260038110610807576108066114ac565b5b602002015190506000858460038110610823576108226114ac565b5b60200201516040516108359190610fd3565b9081526020016040518091039020600401546000826040516108579190610fd3565b90815260200160405180910390206004015410156108fd576000858460038110610884576108836114ac565b5b60200201516040516108969190610fd3565b9081526020016040518091039020600401548483600381106108bb576108ba6114ac565b5b6020020181815250508483600381106108d7576108d66114ac565b5b60200201518583600381106108ef576108ee6114ac565b5b602002018190525050610911565b50808061090990611363565b9150506107e9565b50808061091d90611363565b9150506107dd565b508160006003811061093a576109396114ac565b5b602002015182600160038110610953576109526114ac565b5b60200201518360026003811061096c5761096b6114ac565b5b60200201519450945094505050909192565b60405180606001604052806003905b606081526020019060019003908161098d5790505090565b6040518060600160405280600390602082028036833780820191505090505090565b6000604051905090565b600080fd5b600080fd5b600481106109e857600080fd5b50565b6000813590506109fa816109db565b92915050565b600060208284031215610a1657610a156109d1565b5b6000610a24848285016109eb565b91505092915050565b6000819050919050565b610a4081610a2d565b82525050565b6000602082019050610a5b6000830184610a37565b92915050565b600080fd5b600080fd5b6000601f19601f8301169050919050565b7f4e487b7100000000000000000000000000000000000000000000000000000000600052604160045260246000fd5b610ab482610a6b565b810181811067ffffffffffffffff82111715610ad357610ad2610a7c565b5b80604052505050565b6000610ae66109c7565b9050610af28282610aab565b919050565b600067ffffffffffffffff821115610b1257610b11610a7c565b5b610b1b82610a6b565b9050602081019050919050565b82818337600083830152505050565b6000610b4a610b4584610af7565b610adc565b905082815260208101848484011115610b6657610b65610a66565b5b610b71848285610b28565b509392505050565b600082601f830112610b8e57610b8d610a61565b5b8135610b9e848260208601610b37565b91505092915050565b610bb081610a2d565b8114610bbb57600080fd5b50565b600081359050610bcd81610ba7565b92915050565b60008060008060808587031215610bed57610bec6109d1565b5b600085013567ffffffffffffffff811115610c0b57610c0a6109d6565b5b610c1787828801610b79565b945050602085013567ffffffffffffffff811115610c3857610c376109d6565b5b610c4487828801610b79565b9350506040610c5587828801610bbe565b9250506060610c66878288016109eb565b91505092959194509250565b60048110610c7f57600080fd5b50565b600081359050610c9181610c72565b92915050565b60008060008060008060c08789031215610cb457610cb36109d1565b5b600087013567ffffffffffffffff811115610cd257610cd16109d6565b5b610cde89828a01610b79565b965050602087013567ffffffffffffffff811115610cff57610cfe6109d6565b5b610d0b89828a01610b79565b9550506040610d1c89828a01610bbe565b9450506060610d2d89828a016109eb565b9350506080610d3e89828a01610c82565b92505060a0610d4f89828a01610bbe565b9150509295509295509295565b600060208284031215610d7257610d716109d1565b5b600082013567ffffffffffffffff811115610d9057610d8f6109d6565b5b610d9c84828501610b79565b91505092915050565b600081519050919050565b600082825260208201905092915050565b60005b83811015610ddf578082015181840152602081019050610dc4565b60008484015250505050565b6000610df682610da5565b610e008185610db0565b9350610e10818560208601610dc1565b610e1981610a6b565b840191505092915050565b7f4e487b7100000000000000000000000000000000000000000000000000000000600052602160045260246000fd5b60048110610e6457610e63610e24565b5b50565b6000819050610e7582610e53565b919050565b6000610e8582610e67565b9050919050565b610e9581610e7a565b82525050565b60048110610eac57610eab610e24565b5b50565b6000819050610ebd82610e9b565b919050565b6000610ecd82610eaf565b9050919050565b610edd81610ec2565b82525050565b600060c0820190508181036000830152610efd8189610deb565b9050610f0c6020830188610a37565b610f196040830187610a37565b610f266060830186610e8c565b610f336080830185610ed4565b610f4060a0830184610a37565b979650505050505050565b60006060820190508181036000830152610f658186610deb565b90508181036020830152610f798185610deb565b90508181036040830152610f8d8184610deb565b9050949350505050565b600081905092915050565b6000610fad82610da5565b610fb78185610f97565b9350610fc7818560208601610dc1565b80840191505092915050565b6000610fdf8284610fa2565b915081905092915050565b7f53747564656e7420616c72656164792072656769737465726564000000000000600082015250565b6000611020601a83610db0565b915061102b82610fea565b602082019050919050565b6000602082019050818103600083015261104f81611013565b9050919050565b7f4e487b7100000000000000000000000000000000000000000000000000000000600052602260045260246000fd5b6000600282049050600182168061109d57607f821691505b6020821081036110b0576110af611056565b5b50919050565b60008190508160005260206000209050919050565b60006020601f8301049050919050565b600082821b905092915050565b6000600883026111187fffffffffffffffffffffffffffffffffffffffffffffffffffffffffffffffff826110db565b61112286836110db565b95508019841693508086168417925050509392505050565b6000819050919050565b600061115f61115a61115584610a2d565b61113a565b610a2d565b9050919050565b6000819050919050565b61117983611144565b61118d61118582611166565b8484546110e8565b825550505050565b600090565b6111a2611195565b6111ad818484611170565b505050565b5b818110156111d1576111c660008261119a565b6001810190506111b3565b5050565b601f821115611216576111e7816110b6565b6111f0846110cb565b810160208510156111ff578190505b61121361120b856110cb565b8301826111b2565b50505b505050565b600082821c905092915050565b60006112396000198460080261121b565b1980831691505092915050565b60006112528383611228565b9150826002028217905092915050565b61126b82610da5565b67ffffffffffffffff81111561128457611283610a7c565b5b61128e8254611085565b6112998282856111d5565b600060209050601f8311600181146112cc57600084156112ba578287015190505b6112c48582611246565b86555061132c565b601f1984166112da866110b6565b60005b82811015611302578489015182556001820191506020850194506020810190506112dd565b8683101561131f578489015161131b601f891682611228565b8355505b6001600288020188555050505b505050505050565b7f4e487b7100000000000000000000000000000000000000000000000000000000600052601160045260246000fd5b600061136e82610a2d565b91507fffffffffffffffffffffffffffffffffffffffffffffffffffffffffffffffff82036113a05761139f611334565b5b600182019050919050565b7f53747564656e74206e6f74207265676973746572656400000000000000000000600082015250565b60006113e1601683610db0565b91506113ec826113ab565b602082019050919050565b60006020820190508181036000830152611410816113d4565b9050919050565b600061142282610a2d565b91506000820361143557611434611334565b5b600182039050919050565b7f53747564656e74206e6f7420666f756e64000000000000000000000000000000600082015250565b6000611476601183610db0565b915061148182611440565b602082019050919050565b600060208201905081810360008301526114a581611469565b9050919050565b7f4e487b7100000000000000000000000000000000000000000000000000000000600052603260045260246000fdfea2646970667358221220cb0f42beb1786346fa226ada93791de71cfe8c57dd5dbe7e56c517223d4c449264736f6c63430008120033",
					"opcodes": "PUSH1 0x80 PUSH1 0x40 MSTORE CALLVALUE DUP1 ISZERO PUSH2 0x10 JUMPI PUSH1 0x0 DUP1 REVERT JUMPDEST POP PUSH2 0x1511 DUP1 PUSH2 0x20 PUSH1 0x0 CODECOPY PUSH1 0x0 RETURN INVALID PUSH1 0x80 PUSH1 0x40 MSTORE CALLVALUE DUP1 ISZERO PUSH2 0x10 JUMPI PUSH1 0x0 DUP1 REVERT JUMPDEST POP PUSH1 0x4 CALLDATASIZE LT PUSH2 0x56 JUMPI PUSH1 0x0 CALLDATALOAD PUSH1 0xE0 SHR DUP1 PUSH3 0x35EEF5 EQ PUSH2 0x5B JUMPI DUP1 PUSH4 0x4A7C31DC EQ PUSH2 0x8B JUMPI DUP1 PUSH4 0x5C2A9263 EQ PUSH2 0xA7 JUMPI DUP1 PUSH4 0x8805F0F4 EQ PUSH2 0xC3 JUMPI DUP1 PUSH4 0xCAF76ADB EQ PUSH2 0xF8 JUMPI JUMPDEST PUSH1 0x0 DUP1 REVERT JUMPDEST PUSH2 0x75 PUSH1 0x4 DUP1 CALLDATASIZE SUB DUP2 ADD SWAP1 PUSH2 0x70 SWAP2 SWAP1 PUSH2 0xA00 JUMP JUMPDEST PUSH2 0x118 JUMP JUMPDEST PUSH1 0x40 MLOAD PUSH2 0x82 SWAP2 SWAP1 PUSH2 0xA46 JUMP JUMPDEST PUSH1 0x40 MLOAD DUP1 SWAP2 SUB SWAP1 RETURN JUMPDEST PUSH2 0xA5 PUSH1 0x4 DUP1 CALLDATASIZE SUB DUP2 ADD SWAP1 PUSH2 0xA0 SWAP2 SWAP1 PUSH2 0xBD3 JUMP JUMPDEST PUSH2 0x159 JUMP JUMPDEST STOP JUMPDEST PUSH2 0xC1 PUSH1 0x4 DUP1 CALLDATASIZE SUB DUP2 ADD SWAP1 PUSH2 0xBC SWAP2 SWAP1 PUSH2 0xC97 JUMP JUMPDEST PUSH2 0x317 JUMP JUMPDEST STOP JUMPDEST PUSH2 0xDD PUSH1 0x4 DUP1 CALLDATASIZE SUB DUP2 ADD SWAP1 PUSH2 0xD8 SWAP2 SWAP1 PUSH2 0xD5C JUMP JUMPDEST PUSH2 0x5B0 JUMP JUMPDEST PUSH1 0x40 MLOAD PUSH2 0xEF SWAP7 SWAP6 SWAP5 SWAP4 SWAP3 SWAP2 SWAP1 PUSH2 0xEE3 JUMP JUMPDEST PUSH1 0x40 MLOAD DUP1 SWAP2 SUB SWAP1 RETURN JUMPDEST PUSH2 0x100 PUSH2 0x787 JUMP JUMPDEST PUSH1 0x40 MLOAD PUSH2 0x10F SWAP4 SWAP3 SWAP2 SWAP1 PUSH2 0xF4B JUMP JUMPDEST PUSH1 0x40 MLOAD DUP1 SWAP2 SUB SWAP1 RETURN JUMPDEST PUSH1 0x0 PUSH1 0x1 PUSH1 0x0 DUP4 PUSH1 0x3 DUP2 GT ISZERO PUSH2 0x131 JUMPI PUSH2 0x130 PUSH2 0xE24 JUMP JUMPDEST JUMPDEST PUSH1 0x3 DUP2 GT ISZERO PUSH2 0x143 JUMPI PUSH2 0x142 PUSH2 0xE24 JUMP JUMPDEST JUMPDEST DUP2 MSTORE PUSH1 0x20 ADD SWAP1 DUP2 MSTORE PUSH1 0x20 ADD PUSH1 0x0 KECCAK256 SLOAD SWAP1 POP SWAP2 SWAP1 POP JUMP JUMPDEST PUSH1 0x0 DUP1 DUP6 PUSH1 0x40 MLOAD PUSH2 0x16A SWAP2 SWAP1 PUSH2 0xFD3 JUMP JUMPDEST SWAP1 DUP2 MSTORE PUSH1 0x20 ADD PUSH1 0x40 MLOAD DUP1 SWAP2 SUB SWAP1 KECCAK256 PUSH1 0x2 ADD SLOAD EQ PUSH2 0x1BC JUMPI PUSH1 0x40 MLOAD PUSH32 0x8C379A000000000000000000000000000000000000000000000000000000000 DUP2 MSTORE PUSH1 0x4 ADD PUSH2 0x1B3 SWAP1 PUSH2 0x1036 JUMP JUMPDEST PUSH1 0x40 MLOAD DUP1 SWAP2 SUB SWAP1 REVERT JUMPDEST PUSH1 0x40 MLOAD DUP1 PUSH1 0xC0 ADD PUSH1 0x40 MSTORE DUP1 DUP5 DUP2 MSTORE PUSH1 0x20 ADD DUP4 DUP2 MSTORE PUSH1 0x20 ADD TIMESTAMP DUP2 MSTORE PUSH1 0x20 ADD DUP3 PUSH1 0x3 DUP2 GT ISZERO PUSH2 0x1EC JUMPI PUSH2 0x1EB PUSH2 0xE24 JUMP JUMPDEST JUMPDEST DUP2 MSTORE PUSH1 0x20 ADD PUSH1 0x0 PUSH1 0x3 DUP2 GT ISZERO PUSH2 0x205 JUMPI PUSH2 0x204 PUSH2 0xE24 JUMP JUMPDEST JUMPDEST DUP2 MSTORE PUSH1 0x20 ADD PUSH1 0x0 DUP2 MSTORE POP PUSH1 0x0 DUP6 PUSH1 0x40 MLOAD PUSH2 0x21F SWAP2 SWAP1 PUSH2 0xFD3 JUMP JUMPDEST SWAP1 DUP2 MSTORE PUSH1 0x20 ADD PUSH1 0x40 MLOAD DUP1 SWAP2 SUB SWAP1 KECCAK256 PUSH1 0x0 DUP3 ADD MLOAD DUP2 PUSH1 0x0 ADD SWAP1 DUP2 PUSH2 0x242 SWAP2 SWAP1 PUSH2 0x1262 JUMP JUMPDEST POP PUSH1 0x20 DUP3 ADD MLOAD DUP2 PUSH1 0x1 ADD SSTORE PUSH1 0x40 DUP3 ADD MLOAD DUP2 PUSH1 0x2 ADD SSTORE PUSH1 0x60 DUP3 ADD MLOAD DUP2 PUSH1 0x3 ADD PUSH1 0x0 PUSH2 0x100 EXP DUP2 SLOAD DUP2 PUSH1 0xFF MUL NOT AND SWAP1 DUP4 PUSH1 0x3 DUP2 GT ISZERO PUSH2 0x282 JUMPI PUSH2 0x281 PUSH2 0xE24 JUMP JUMPDEST JUMPDEST MUL OR SWAP1 SSTORE POP PUSH1 0x80 DUP3 ADD MLOAD DUP2 PUSH1 0x3 ADD PUSH1 0x1 PUSH2 0x100 EXP DUP2 SLOAD DUP2 PUSH1 0xFF MUL NOT AND SWAP1 DUP4 PUSH1 0x3 DUP2 GT ISZERO PUSH2 0x2B2 JUMPI PUSH2 0x2B1 PUSH2 0xE24 JUMP JUMPDEST JUMPDEST MUL OR SWAP1 SSTORE POP PUSH1 0xA0 DUP3 ADD MLOAD DUP2 PUSH1 0x4 ADD SSTORE SWAP1 POP POP PUSH1 0x1 PUSH1 0x0 DUP3 PUSH1 0x3 DUP2 GT ISZERO PUSH2 0x2DB JUMPI PUSH2 0x2DA PUSH2 0xE24 JUMP JUMPDEST JUMPDEST PUSH1 0x3 DUP2 GT ISZERO PUSH2 0x2ED JUMPI PUSH2 0x2EC PUSH2 0xE24 JUMP JUMPDEST JUMPDEST DUP2 MSTORE PUSH1 0x20 ADD SWAP1 DUP2 MSTORE PUSH1 0x20 ADD PUSH1 0x0 KECCAK256 PUSH1 0x0 DUP2 SLOAD DUP1 SWAP3 SWAP2 SWAP1 PUSH2 0x30C SWAP1 PUSH2 0x1363 JUMP JUMPDEST SWAP2 SWAP1 POP SSTORE POP POP POP POP POP JUMP JUMPDEST PUSH1 0x0 DUP1 DUP8 PUSH1 0x40 MLOAD PUSH2 0x328 SWAP2 SWAP1 PUSH2 0xFD3 JUMP JUMPDEST SWAP1 DUP2 MSTORE PUSH1 0x20 ADD PUSH1 0x40 MLOAD DUP1 SWAP2 SUB SWAP1 KECCAK256 PUSH1 0x2 ADD SLOAD GT PUSH2 0x37A JUMPI PUSH1 0x40 MLOAD PUSH32 0x8C379A000000000000000000000000000000000000000000000000000000000 DUP2 MSTORE PUSH1 0x4 ADD PUSH2 0x371 SWAP1 PUSH2 0x13F7 JUMP JUMPDEST PUSH1 0x40 MLOAD DUP1 SWAP2 SUB SWAP1 REVERT JUMPDEST DUP5 PUSH1 0x0 DUP8 PUSH1 0x40 MLOAD PUSH2 0x38B SWAP2 SWAP1 PUSH2 0xFD3 JUMP JUMPDEST SWAP1 DUP2 MSTORE PUSH1 0x20 ADD PUSH1 0x40 MLOAD DUP1 SWAP2 SUB SWAP1 KECCAK256 PUSH1 0x0 ADD SWAP1 DUP2 PUSH2 0x3A8 SWAP2 SWAP1 PUSH2 0x1262 JUMP JUMPDEST POP DUP4 PUSH1 0x0 DUP8 PUSH1 0x40 MLOAD PUSH2 0x3BA SWAP2 SWAP1 PUSH2 0xFD3 JUMP JUMPDEST SWAP1 DUP2 MSTORE PUSH1 0x20 ADD PUSH1 0x40 MLOAD DUP1 SWAP2 SUB SWAP1 KECCAK256 PUSH1 0x1 ADD DUP2 SWAP1 SSTORE POP DUP3 PUSH1 0x0 DUP8 PUSH1 0x40 MLOAD PUSH2 0x3E0 SWAP2 SWAP1 PUSH2 0xFD3 JUMP JUMPDEST SWAP1 DUP2 MSTORE PUSH1 0x20 ADD PUSH1 0x40 MLOAD DUP1 SWAP2 SUB SWAP1 KECCAK256 PUSH1 0x3 ADD PUSH1 0x0 PUSH2 0x100 EXP DUP2 SLOAD DUP2 PUSH1 0xFF MUL NOT AND SWAP1 DUP4 PUSH1 0x3 DUP2 GT ISZERO PUSH2 0x413 JUMPI PUSH2 0x412 PUSH2 0xE24 JUMP JUMPDEST JUMPDEST MUL OR SWAP1 SSTORE POP DUP2 PUSH1 0x0 DUP8 PUSH1 0x40 MLOAD PUSH2 0x429 SWAP2 SWAP1 PUSH2 0xFD3 JUMP JUMPDEST SWAP1 DUP2 MSTORE PUSH1 0x20 ADD PUSH1 0x40 MLOAD DUP1 SWAP2 SUB SWAP1 KECCAK256 PUSH1 0x3 ADD PUSH1 0x1 PUSH2 0x100 EXP DUP2 SLOAD DUP2 PUSH1 0xFF MUL NOT AND SWAP1 DUP4 PUSH1 0x3 DUP2 GT ISZERO PUSH2 0x45C JUMPI PUSH2 0x45B PUSH2 0xE24 JUMP JUMPDEST JUMPDEST MUL OR SWAP1 SSTORE POP DUP1 PUSH1 0x0 DUP8 PUSH1 0x40 MLOAD PUSH2 0x472 SWAP2 SWAP1 PUSH2 0xFD3 JUMP JUMPDEST SWAP1 DUP2 MSTORE PUSH1 0x20 ADD PUSH1 0x40 MLOAD DUP1 SWAP2 SUB SWAP1 KECCAK256 PUSH1 0x4 ADD DUP2 SWAP1 SSTORE POP PUSH1 0x0 DUP7 PUSH1 0x40 MLOAD PUSH2 0x497 SWAP2 SWAP1 PUSH2 0xFD3 JUMP JUMPDEST SWAP1 DUP2 MSTORE PUSH1 0x20 ADD PUSH1 0x40 MLOAD DUP1 SWAP2 SUB SWAP1 KECCAK256 PUSH1 0x3 ADD PUSH1 0x0 SWAP1 SLOAD SWAP1 PUSH2 0x100 EXP SWAP1 DIV PUSH1 0xFF AND PUSH1 0x3 DUP2 GT ISZERO PUSH2 0x4C8 JUMPI PUSH2 0x4C7 PUSH2 0xE24 JUMP JUMPDEST JUMPDEST DUP4 PUSH1 0x3 DUP2 GT ISZERO PUSH2 0x4DB JUMPI PUSH2 0x4DA PUSH2 0xE24 JUMP JUMPDEST JUMPDEST EQ PUSH2 0x5A8 JUMPI PUSH1 0x1 PUSH1 0x0 DUP1 DUP9 PUSH1 0x40 MLOAD PUSH2 0x4F3 SWAP2 SWAP1 PUSH2 0xFD3 JUMP JUMPDEST SWAP1 DUP2 MSTORE PUSH1 0x20 ADD PUSH1 0x40 MLOAD DUP1 SWAP2 SUB SWAP1 KECCAK256 PUSH1 0x3 ADD PUSH1 0x0 SWAP1 SLOAD SWAP1 PUSH2 0x100 EXP SWAP1 DIV PUSH1 0xFF AND PUSH1 0x3 DUP2 GT ISZERO PUSH2 0x524 JUMPI PUSH2 0x523 PUSH2 0xE24 JUMP JUMPDEST JUMPDEST PUSH1 0x3 DUP2 GT ISZERO PUSH2 0x536 JUMPI PUSH2 0x535 PUSH2 0xE24 JUMP JUMPDEST JUMPDEST DUP2 MSTORE PUSH1 0x20 ADD SWAP1 DUP2 MSTORE PUSH1 0x20 ADD PUSH1 0x0 KECCAK256 PUSH1 0x0 DUP2 SLOAD DUP1 SWAP3 SWAP2 SWAP1 PUSH2 0x555 SWAP1 PUSH2 0x1417 JUMP JUMPDEST SWAP2 SWAP1 POP SSTORE POP PUSH1 0x1 PUSH1 0x0 DUP5 PUSH1 0x3 DUP2 GT ISZERO PUSH2 0x571 JUMPI PUSH2 0x570 PUSH2 0xE24 JUMP JUMPDEST JUMPDEST PUSH1 0x3 DUP2 GT ISZERO PUSH2 0x583 JUMPI PUSH2 0x582 PUSH2 0xE24 JUMP JUMPDEST JUMPDEST DUP2 MSTORE PUSH1 0x20 ADD SWAP1 DUP2 MSTORE PUSH1 0x20 ADD PUSH1 0x0 KECCAK256 PUSH1 0x0 DUP2 SLOAD DUP1 SWAP3 SWAP2 SWAP1 PUSH2 0x5A2 SWAP1 PUSH2 0x1363 JUMP JUMPDEST SWAP2 SWAP1 POP SSTORE POP JUMPDEST POP POP POP POP POP POP JUMP JUMPDEST PUSH1 0x60 PUSH1 0x0 DUP1 PUSH1 0x0 DUP1 PUSH1 0x0 DUP1 PUSH1 0x0 DUP9 PUSH1 0x40 MLOAD PUSH2 0x5CB SWAP2 SWAP1 PUSH2 0xFD3 JUMP JUMPDEST SWAP1 DUP2 MSTORE PUSH1 0x20 ADD PUSH1 0x40 MLOAD DUP1 SWAP2 SUB SWAP1 KECCAK256 PUSH1 0x40 MLOAD DUP1 PUSH1 0xC0 ADD PUSH1 0x40 MSTORE SWAP1 DUP2 PUSH1 0x0 DUP3 ADD DUP1 SLOAD PUSH2 0x5F4 SWAP1 PUSH2 0x1085 JUMP JUMPDEST DUP1 PUSH1 0x1F ADD PUSH1 0x20 DUP1 SWAP2 DIV MUL PUSH1 0x20 ADD PUSH1 0x40 MLOAD SWAP1 DUP2 ADD PUSH1 0x40 MSTORE DUP1 SWAP3 SWAP2 SWAP1 DUP2 DUP2 MSTORE PUSH1 0x20 ADD DUP3 DUP1 SLOAD PUSH2 0x620 SWAP1 PUSH2 0x1085 JUMP JUMPDEST DUP1 ISZERO PUSH2 0x66D JUMPI DUP1 PUSH1 0x1F LT PUSH2 0x642 JUMPI PUSH2 0x100 DUP1 DUP4 SLOAD DIV MUL DUP4 MSTORE SWAP2 PUSH1 0x20 ADD SWAP2 PUSH2 0x66D JUMP JUMPDEST DUP3 ADD SWAP2 SWAP1 PUSH1 0x0 MSTORE PUSH1 0x20 PUSH1 0x0 KECCAK256 SWAP1 JUMPDEST DUP2 SLOAD DUP2 MSTORE SWAP1 PUSH1 0x1 ADD SWAP1 PUSH1 0x20 ADD DUP1 DUP4 GT PUSH2 0x650 JUMPI DUP3 SWAP1 SUB PUSH1 0x1F AND DUP3 ADD SWAP2 JUMPDEST POP POP POP POP POP DUP2 MSTORE PUSH1 0x20 ADD PUSH1 0x1 DUP3 ADD SLOAD DUP2 MSTORE PUSH1 0x20 ADD PUSH1 0x2 DUP3 ADD SLOAD DUP2 MSTORE PUSH1 0x20 ADD PUSH1 0x3 DUP3 ADD PUSH1 0x0 SWAP1 SLOAD SWAP1 PUSH2 0x100 EXP SWAP1 DIV PUSH1 0xFF AND PUSH1 0x3 DUP2 GT ISZERO PUSH2 0x6AF JUMPI PUSH2 0x6AE PUSH2 0xE24 JUMP JUMPDEST JUMPDEST PUSH1 0x3 DUP2 GT ISZERO PUSH2 0x6C1 JUMPI PUSH2 0x6C0 PUSH2 0xE24 JUMP JUMPDEST JUMPDEST DUP2 MSTORE PUSH1 0x20 ADD PUSH1 0x3 DUP3 ADD PUSH1 0x1 SWAP1 SLOAD SWAP1 PUSH2 0x100 EXP SWAP1 DIV PUSH1 0xFF AND PUSH1 0x3 DUP2 GT ISZERO PUSH2 0x6EA JUMPI PUSH2 0x6E9 PUSH2 0xE24 JUMP JUMPDEST JUMPDEST PUSH1 0x3 DUP2 GT ISZERO PUSH2 0x6FC JUMPI PUSH2 0x6FB PUSH2 0xE24 JUMP JUMPDEST JUMPDEST DUP2 MSTORE PUSH1 0x20 ADD PUSH1 0x4 DUP3 ADD SLOAD DUP2 MSTORE POP POP SWAP1 POP PUSH1 0x0 DUP2 PUSH1 0x40 ADD MLOAD GT PUSH2 0x753 JUMPI PUSH1 0x40 MLOAD PUSH32 0x8C379A000000000000000000000000000000000000000000000000000000000 DUP2 MSTORE PUSH1 0x4 ADD PUSH2 0x74A SWAP1 PUSH2 0x148C JUMP JUMPDEST PUSH1 0x40 MLOAD DUP1 SWAP2 SUB SWAP1 REVERT JUMPDEST DUP1 PUSH1 0x0 ADD MLOAD DUP2 PUSH1 0x20 ADD MLOAD DUP3 PUSH1 0x40 ADD MLOAD DUP4 PUSH1 0x60 ADD MLOAD DUP5 PUSH1 0x80 ADD MLOAD DUP6 PUSH1 0xA0 ADD MLOAD SWAP7 POP SWAP7 POP SWAP7 POP SWAP7 POP SWAP7 POP SWAP7 POP POP SWAP2 SWAP4 SWAP6 POP SWAP2 SWAP4 SWAP6 JUMP JUMPDEST PUSH1 0x60 DUP1 PUSH1 0x60 PUSH2 0x794 PUSH2 0x97E JUMP JUMPDEST PUSH2 0x79C PUSH2 0x9A5 JUMP JUMPDEST PUSH1 0x0 JUMPDEST PUSH1 0x3 DUP2 LT ISZERO PUSH2 0x7D9 JUMPI PUSH1 0x0 DUP3 DUP3 PUSH1 0x3 DUP2 LT PUSH2 0x7BD JUMPI PUSH2 0x7BC PUSH2 0x14AC JUMP JUMPDEST JUMPDEST PUSH1 0x20 MUL ADD DUP2 DUP2 MSTORE POP POP DUP1 DUP1 PUSH2 0x7D1 SWAP1 PUSH2 0x1363 JUMP JUMPDEST SWAP2 POP POP PUSH2 0x79F JUMP JUMPDEST POP PUSH1 0x0 JUMPDEST PUSH1 0x3 DUP2 LT ISZERO PUSH2 0x925 JUMPI PUSH1 0x0 JUMPDEST PUSH1 0x3 DUP2 LT ISZERO PUSH2 0x911 JUMPI PUSH1 0x0 DUP5 DUP3 PUSH1 0x3 DUP2 LT PUSH2 0x807 JUMPI PUSH2 0x806 PUSH2 0x14AC JUMP JUMPDEST JUMPDEST PUSH1 0x20 MUL ADD MLOAD SWAP1 POP PUSH1 0x0 DUP6 DUP5 PUSH1 0x3 DUP2 LT PUSH2 0x823 JUMPI PUSH2 0x822 PUSH2 0x14AC JUMP JUMPDEST JUMPDEST PUSH1 0x20 MUL ADD MLOAD PUSH1 0x40 MLOAD PUSH2 0x835 SWAP2 SWAP1 PUSH2 0xFD3 JUMP JUMPDEST SWAP1 DUP2 MSTORE PUSH1 0x20 ADD PUSH1 0x40 MLOAD DUP1 SWAP2 SUB SWAP1 KECCAK256 PUSH1 0x4 ADD SLOAD PUSH1 0x0 DUP3 PUSH1 0x40 MLOAD PUSH2 0x857 SWAP2 SWAP1 PUSH2 0xFD3 JUMP JUMPDEST SWAP1 DUP2 MSTORE PUSH1 0x20 ADD PUSH1 0x40 MLOAD DUP1 SWAP2 SUB SWAP1 KECCAK256 PUSH1 0x4 ADD SLOAD LT ISZERO PUSH2 0x8FD JUMPI PUSH1 0x0 DUP6 DUP5 PUSH1 0x3 DUP2 LT PUSH2 0x884 JUMPI PUSH2 0x883 PUSH2 0x14AC JUMP JUMPDEST JUMPDEST PUSH1 0x20 MUL ADD MLOAD PUSH1 0x40 MLOAD PUSH2 0x896 SWAP2 SWAP1 PUSH2 0xFD3 JUMP JUMPDEST SWAP1 DUP2 MSTORE PUSH1 0x20 ADD PUSH1 0x40 MLOAD DUP1 SWAP2 SUB SWAP1 KECCAK256 PUSH1 0x4 ADD SLOAD DUP5 DUP4 PUSH1 0x3 DUP2 LT PUSH2 0x8BB JUMPI PUSH2 0x8BA PUSH2 0x14AC JUMP JUMPDEST JUMPDEST PUSH1 0x20 MUL ADD DUP2 DUP2 MSTORE POP POP DUP5 DUP4 PUSH1 0x3 DUP2 LT PUSH2 0x8D7 JUMPI PUSH2 0x8D6 PUSH2 0x14AC JUMP JUMPDEST JUMPDEST PUSH1 0x20 MUL ADD MLOAD DUP6 DUP4 PUSH1 0x3 DUP2 LT PUSH2 0x8EF JUMPI PUSH2 0x8EE PUSH2 0x14AC JUMP JUMPDEST JUMPDEST PUSH1 0x20 MUL ADD DUP2 SWAP1 MSTORE POP POP PUSH2 0x911 JUMP JUMPDEST POP DUP1 DUP1 PUSH2 0x909 SWAP1 PUSH2 0x1363 JUMP JUMPDEST SWAP2 POP POP PUSH2 0x7E9 JUMP JUMPDEST POP DUP1 DUP1 PUSH2 0x91D SWAP1 PUSH2 0x1363 JUMP JUMPDEST SWAP2 POP POP PUSH2 0x7DD JUMP JUMPDEST POP DUP2 PUSH1 0x0 PUSH1 0x3 DUP2 LT PUSH2 0x93A JUMPI PUSH2 0x939 PUSH2 0x14AC JUMP JUMPDEST JUMPDEST PUSH1 0x20 MUL ADD MLOAD DUP3 PUSH1 0x1 PUSH1 0x3 DUP2 LT PUSH2 0x953 JUMPI PUSH2 0x952 PUSH2 0x14AC JUMP JUMPDEST JUMPDEST PUSH1 0x20 MUL ADD MLOAD DUP4 PUSH1 0x2 PUSH1 0x3 DUP2 LT PUSH2 0x96C JUMPI PUSH2 0x96B PUSH2 0x14AC JUMP JUMPDEST JUMPDEST PUSH1 0x20 MUL ADD MLOAD SWAP5 POP SWAP5 POP SWAP5 POP POP POP SWAP1 SWAP2 SWAP3 JUMP JUMPDEST PUSH1 0x40 MLOAD DUP1 PUSH1 0x60 ADD PUSH1 0x40 MSTORE DUP1 PUSH1 0x3 SWAP1 JUMPDEST PUSH1 0x60 DUP2 MSTORE PUSH1 0x20 ADD SWAP1 PUSH1 0x1 SWAP1 SUB SWAP1 DUP2 PUSH2 0x98D JUMPI SWAP1 POP POP SWAP1 JUMP JUMPDEST PUSH1 0x40 MLOAD DUP1 PUSH1 0x60 ADD PUSH1 0x40 MSTORE DUP1 PUSH1 0x3 SWAP1 PUSH1 0x20 DUP3 MUL DUP1 CALLDATASIZE DUP4 CALLDATACOPY DUP1 DUP3 ADD SWAP2 POP POP SWAP1 POP POP SWAP1 JUMP JUMPDEST PUSH1 0x0 PUSH1 0x40 MLOAD SWAP1 POP SWAP1 JUMP JUMPDEST PUSH1 0x0 DUP1 REVERT JUMPDEST PUSH1 0x0 DUP1 REVERT JUMPDEST PUSH1 0x4 DUP2 LT PUSH2 0x9E8 JUMPI PUSH1 0x0 DUP1 REVERT JUMPDEST POP JUMP JUMPDEST PUSH1 0x0 DUP2 CALLDATALOAD SWAP1 POP PUSH2 0x9FA DUP2 PUSH2 0x9DB JUMP JUMPDEST SWAP3 SWAP2 POP POP JUMP JUMPDEST PUSH1 0x0 PUSH1 0x20 DUP3 DUP5 SUB SLT ISZERO PUSH2 0xA16 JUMPI PUSH2 0xA15 PUSH2 0x9D1 JUMP JUMPDEST JUMPDEST PUSH1 0x0 PUSH2 0xA24 DUP5 DUP3 DUP6 ADD PUSH2 0x9EB JUMP JUMPDEST SWAP2 POP POP SWAP3 SWAP2 POP POP JUMP JUMPDEST PUSH1 0x0 DUP2 SWAP1 POP SWAP2 SWAP1 POP JUMP JUMPDEST PUSH2 0xA40 DUP2 PUSH2 0xA2D JUMP JUMPDEST DUP3 MSTORE POP POP JUMP JUMPDEST PUSH1 0x0 PUSH1 0x20 DUP3 ADD SWAP1 POP PUSH2 0xA5B PUSH1 0x0 DUP4 ADD DUP5 PUSH2 0xA37 JUMP JUMPDEST SWAP3 SWAP2 POP POP JUMP JUMPDEST PUSH1 0x0 DUP1 REVERT JUMPDEST PUSH1 0x0 DUP1 REVERT JUMPDEST PUSH1 0x0 PUSH1 0x1F NOT PUSH1 0x1F DUP4 ADD AND SWAP1 POP SWAP2 SWAP1 POP JUMP JUMPDEST PUSH32 0x4E487B7100000000000000000000000000000000000000000000000000000000 PUSH1 0x0 MSTORE PUSH1 0x41 PUSH1 0x4 MSTORE PUSH1 0x24 PUSH1 0x0 REVERT JUMPDEST PUSH2 0xAB4 DUP3 PUSH2 0xA6B JUMP JUMPDEST DUP2 ADD DUP2 DUP2 LT PUSH8 0xFFFFFFFFFFFFFFFF DUP3 GT OR ISZERO PUSH2 0xAD3 JUMPI PUSH2 0xAD2 PUSH2 0xA7C JUMP JUMPDEST JUMPDEST DUP1 PUSH1 0x40 MSTORE POP POP POP JUMP JUMPDEST PUSH1 0x0 PUSH2 0xAE6 PUSH2 0x9C7 JUMP JUMPDEST SWAP1 POP PUSH2 0xAF2 DUP3 DUP3 PUSH2 0xAAB JUMP JUMPDEST SWAP2 SWAP1 POP JUMP JUMPDEST PUSH1 0x0 PUSH8 0xFFFFFFFFFFFFFFFF DUP3 GT ISZERO PUSH2 0xB12 JUMPI PUSH2 0xB11 PUSH2 0xA7C JUMP JUMPDEST JUMPDEST PUSH2 0xB1B DUP3 PUSH2 0xA6B JUMP JUMPDEST SWAP1 POP PUSH1 0x20 DUP2 ADD SWAP1 POP SWAP2 SWAP1 POP JUMP JUMPDEST DUP3 DUP2 DUP4 CALLDATACOPY PUSH1 0x0 DUP4 DUP4 ADD MSTORE POP POP POP JUMP JUMPDEST PUSH1 0x0 PUSH2 0xB4A PUSH2 0xB45 DUP5 PUSH2 0xAF7 JUMP JUMPDEST PUSH2 0xADC JUMP JUMPDEST SWAP1 POP DUP3 DUP2 MSTORE PUSH1 0x20 DUP2 ADD DUP5 DUP5 DUP5 ADD GT ISZERO PUSH2 0xB66 JUMPI PUSH2 0xB65 PUSH2 0xA66 JUMP JUMPDEST JUMPDEST PUSH2 0xB71 DUP5 DUP3 DUP6 PUSH2 0xB28 JUMP JUMPDEST POP SWAP4 SWAP3 POP POP POP JUMP JUMPDEST PUSH1 0x0 DUP3 PUSH1 0x1F DUP4 ADD SLT PUSH2 0xB8E JUMPI PUSH2 0xB8D PUSH2 0xA61 JUMP JUMPDEST JUMPDEST DUP2 CALLDATALOAD PUSH2 0xB9E DUP5 DUP3 PUSH1 0x20 DUP7 ADD PUSH2 0xB37 JUMP JUMPDEST SWAP2 POP POP SWAP3 SWAP2 POP POP JUMP JUMPDEST PUSH2 0xBB0 DUP2 PUSH2 0xA2D JUMP JUMPDEST DUP2 EQ PUSH2 0xBBB JUMPI PUSH1 0x0 DUP1 REVERT JUMPDEST POP JUMP JUMPDEST PUSH1 0x0 DUP2 CALLDATALOAD SWAP1 POP PUSH2 0xBCD DUP2 PUSH2 0xBA7 JUMP JUMPDEST SWAP3 SWAP2 POP POP JUMP JUMPDEST PUSH1 0x0 DUP1 PUSH1 0x0 DUP1 PUSH1 0x80 DUP6 DUP8 SUB SLT ISZERO PUSH2 0xBED JUMPI PUSH2 0xBEC PUSH2 0x9D1 JUMP JUMPDEST JUMPDEST PUSH1 0x0 DUP6 ADD CALLDATALOAD PUSH8 0xFFFFFFFFFFFFFFFF DUP2 GT ISZERO PUSH2 0xC0B JUMPI PUSH2 0xC0A PUSH2 0x9D6 JUMP JUMPDEST JUMPDEST PUSH2 0xC17 DUP8 DUP3 DUP9 ADD PUSH2 0xB79 JUMP JUMPDEST SWAP5 POP POP PUSH1 0x20 DUP6 ADD CALLDATALOAD PUSH8 0xFFFFFFFFFFFFFFFF DUP2 GT ISZERO PUSH2 0xC38 JUMPI PUSH2 0xC37 PUSH2 0x9D6 JUMP JUMPDEST JUMPDEST PUSH2 0xC44 DUP8 DUP3 DUP9 ADD PUSH2 0xB79 JUMP JUMPDEST SWAP4 POP POP PUSH1 0x40 PUSH2 0xC55 DUP8 DUP3 DUP9 ADD PUSH2 0xBBE JUMP JUMPDEST SWAP3 POP POP PUSH1 0x60 PUSH2 0xC66 DUP8 DUP3 DUP9 ADD PUSH2 0x9EB JUMP JUMPDEST SWAP2 POP POP SWAP3 SWAP6 SWAP2 SWAP5 POP SWAP3 POP JUMP JUMPDEST PUSH1 0x4 DUP2 LT PUSH2 0xC7F JUMPI PUSH1 0x0 DUP1 REVERT JUMPDEST POP JUMP JUMPDEST PUSH1 0x0 DUP2 CALLDATALOAD SWAP1 POP PUSH2 0xC91 DUP2 PUSH2 0xC72 JUMP JUMPDEST SWAP3 SWAP2 POP POP JUMP JUMPDEST PUSH1 0x0 DUP1 PUSH1 0x0 DUP1 PUSH1 0x0 DUP1 PUSH1 0xC0 DUP8 DUP10 SUB SLT ISZERO PUSH2 0xCB4 JUMPI PUSH2 0xCB3 PUSH2 0x9D1 JUMP JUMPDEST JUMPDEST PUSH1 0x0 DUP8 ADD CALLDATALOAD PUSH8 0xFFFFFFFFFFFFFFFF DUP2 GT ISZERO PUSH2 0xCD2 JUMPI PUSH2 0xCD1 PUSH2 0x9D6 JUMP JUMPDEST JUMPDEST PUSH2 0xCDE DUP10 DUP3 DUP11 ADD PUSH2 0xB79 JUMP JUMPDEST SWAP7 POP POP PUSH1 0x20 DUP8 ADD CALLDATALOAD PUSH8 0xFFFFFFFFFFFFFFFF DUP2 GT ISZERO PUSH2 0xCFF JUMPI PUSH2 0xCFE PUSH2 0x9D6 JUMP JUMPDEST JUMPDEST PUSH2 0xD0B DUP10 DUP3 DUP11 ADD PUSH2 0xB79 JUMP JUMPDEST SWAP6 POP POP PUSH1 0x40 PUSH2 0xD1C DUP10 DUP3 DUP11 ADD PUSH2 0xBBE JUMP JUMPDEST SWAP5 POP POP PUSH1 0x60 PUSH2 0xD2D DUP10 DUP3 DUP11 ADD PUSH2 0x9EB JUMP JUMPDEST SWAP4 POP POP PUSH1 0x80 PUSH2 0xD3E DUP10 DUP3 DUP11 ADD PUSH2 0xC82 JUMP JUMPDEST SWAP3 POP POP PUSH1 0xA0 PUSH2 0xD4F DUP10 DUP3 DUP11 ADD PUSH2 0xBBE JUMP JUMPDEST SWAP2 POP POP SWAP3 SWAP6 POP SWAP3 SWAP6 POP SWAP3 SWAP6 JUMP JUMPDEST PUSH1 0x0 PUSH1 0x20 DUP3 DUP5 SUB SLT ISZERO PUSH2 0xD72 JUMPI PUSH2 0xD71 PUSH2 0x9D1 JUMP JUMPDEST JUMPDEST PUSH1 0x0 DUP3 ADD CALLDATALOAD PUSH8 0xFFFFFFFFFFFFFFFF DUP2 GT ISZERO PUSH2 0xD90 JUMPI PUSH2 0xD8F PUSH2 0x9D6 JUMP JUMPDEST JUMPDEST PUSH2 0xD9C DUP5 DUP3 DUP6 ADD PUSH2 0xB79 JUMP JUMPDEST SWAP2 POP POP SWAP3 SWAP2 POP POP JUMP JUMPDEST PUSH1 0x0 DUP2 MLOAD SWAP1 POP SWAP2 SWAP1 POP JUMP JUMPDEST PUSH1 0x0 DUP3 DUP3 MSTORE PUSH1 0x20 DUP3 ADD SWAP1 POP SWAP3 SWAP2 POP POP JUMP JUMPDEST PUSH1 0x0 JUMPDEST DUP4 DUP2 LT ISZERO PUSH2 0xDDF JUMPI DUP1 DUP3 ADD MLOAD DUP2 DUP5 ADD MSTORE PUSH1 0x20 DUP2 ADD SWAP1 POP PUSH2 0xDC4 JUMP JUMPDEST PUSH1 0x0 DUP5 DUP5 ADD MSTORE POP POP POP POP JUMP JUMPDEST PUSH1 0x0 PUSH2 0xDF6 DUP3 PUSH2 0xDA5 JUMP JUMPDEST PUSH2 0xE00 DUP2 DUP6 PUSH2 0xDB0 JUMP JUMPDEST SWAP4 POP PUSH2 0xE10 DUP2 DUP6 PUSH1 0x20 DUP7 ADD PUSH2 0xDC1 JUMP JUMPDEST PUSH2 0xE19 DUP2 PUSH2 0xA6B JUMP JUMPDEST DUP5 ADD SWAP2 POP POP SWAP3 SWAP2 POP POP JUMP JUMPDEST PUSH32 0x4E487B7100000000000000000000000000000000000000000000000000000000 PUSH1 0x0 MSTORE PUSH1 0x21 PUSH1 0x4 MSTORE PUSH1 0x24 PUSH1 0x0 REVERT JUMPDEST PUSH1 0x4 DUP2 LT PUSH2 0xE64 JUMPI PUSH2 0xE63 PUSH2 0xE24 JUMP JUMPDEST JUMPDEST POP JUMP JUMPDEST PUSH1 0x0 DUP2 SWAP1 POP PUSH2 0xE75 DUP3 PUSH2 0xE53 JUMP JUMPDEST SWAP2 SWAP1 POP JUMP JUMPDEST PUSH1 0x0 PUSH2 0xE85 DUP3 PUSH2 0xE67 JUMP JUMPDEST SWAP1 POP SWAP2 SWAP1 POP JUMP JUMPDEST PUSH2 0xE95 DUP2 PUSH2 0xE7A JUMP JUMPDEST DUP3 MSTORE POP POP JUMP JUMPDEST PUSH1 0x4 DUP2 LT PUSH2 0xEAC JUMPI PUSH2 0xEAB PUSH2 0xE24 JUMP JUMPDEST JUMPDEST POP JUMP JUMPDEST PUSH1 0x0 DUP2 SWAP1 POP PUSH2 0xEBD DUP3 PUSH2 0xE9B JUMP JUMPDEST SWAP2 SWAP1 POP JUMP JUMPDEST PUSH1 0x0 PUSH2 0xECD DUP3 PUSH2 0xEAF JUMP JUMPDEST SWAP1 POP SWAP2 SWAP1 POP JUMP JUMPDEST PUSH2 0xEDD DUP2 PUSH2 0xEC2 JUMP JUMPDEST DUP3 MSTORE POP POP JUMP JUMPDEST PUSH1 0x0 PUSH1 0xC0 DUP3 ADD SWAP1 POP DUP2 DUP2 SUB PUSH1 0x0 DUP4 ADD MSTORE PUSH2 0xEFD DUP2 DUP10 PUSH2 0xDEB JUMP JUMPDEST SWAP1 POP PUSH2 0xF0C PUSH1 0x20 DUP4 ADD DUP9 PUSH2 0xA37 JUMP JUMPDEST PUSH2 0xF19 PUSH1 0x40 DUP4 ADD DUP8 PUSH2 0xA37 JUMP JUMPDEST PUSH2 0xF26 PUSH1 0x60 DUP4 ADD DUP7 PUSH2 0xE8C JUMP JUMPDEST PUSH2 0xF33 PUSH1 0x80 DUP4 ADD DUP6 PUSH2 0xED4 JUMP JUMPDEST PUSH2 0xF40 PUSH1 0xA0 DUP4 ADD DUP5 PUSH2 0xA37 JUMP JUMPDEST SWAP8 SWAP7 POP POP POP POP POP POP POP JUMP JUMPDEST PUSH1 0x0 PUSH1 0x60 DUP3 ADD SWAP1 POP DUP2 DUP2 SUB PUSH1 0x0 DUP4 ADD MSTORE PUSH2 0xF65 DUP2 DUP7 PUSH2 0xDEB JUMP JUMPDEST SWAP1 POP DUP2 DUP2 SUB PUSH1 0x20 DUP4 ADD MSTORE PUSH2 0xF79 DUP2 DUP6 PUSH2 0xDEB JUMP JUMPDEST SWAP1 POP DUP2 DUP2 SUB PUSH1 0x40 DUP4 ADD MSTORE PUSH2 0xF8D DUP2 DUP5 PUSH2 0xDEB JUMP JUMPDEST SWAP1 POP SWAP5 SWAP4 POP POP POP POP JUMP JUMPDEST PUSH1 0x0 DUP2 SWAP1 POP SWAP3 SWAP2 POP POP JUMP JUMPDEST PUSH1 0x0 PUSH2 0xFAD DUP3 PUSH2 0xDA5 JUMP JUMPDEST PUSH2 0xFB7 DUP2 DUP6 PUSH2 0xF97 JUMP JUMPDEST SWAP4 POP PUSH2 0xFC7 DUP2 DUP6 PUSH1 0x20 DUP7 ADD PUSH2 0xDC1 JUMP JUMPDEST DUP1 DUP5 ADD SWAP2 POP POP SWAP3 SWAP2 POP POP JUMP JUMPDEST PUSH1 0x0 PUSH2 0xFDF DUP3 DUP5 PUSH2 0xFA2 JUMP JUMPDEST SWAP2 POP DUP2 SWAP1 POP SWAP3 SWAP2 POP POP JUMP JUMPDEST PUSH32 0x53747564656E7420616C72656164792072656769737465726564000000000000 PUSH1 0x0 DUP3 ADD MSTORE POP JUMP JUMPDEST PUSH1 0x0 PUSH2 0x1020 PUSH1 0x1A DUP4 PUSH2 0xDB0 JUMP JUMPDEST SWAP2 POP PUSH2 0x102B DUP3 PUSH2 0xFEA JUMP JUMPDEST PUSH1 0x20 DUP3 ADD SWAP1 POP SWAP2 SWAP1 POP JUMP JUMPDEST PUSH1 0x0 PUSH1 0x20 DUP3 ADD SWAP1 POP DUP2 DUP2 SUB PUSH1 0x0 DUP4 ADD MSTORE PUSH2 0x104F DUP2 PUSH2 0x1013 JUMP JUMPDEST SWAP1 POP SWAP2 SWAP1 POP JUMP JUMPDEST PUSH32 0x4E487B7100000000000000000000000000000000000000000000000000000000 PUSH1 0x0 MSTORE PUSH1 0x22 PUSH1 0x4 MSTORE PUSH1 0x24 PUSH1 0x0 REVERT JUMPDEST PUSH1 0x0 PUSH1 0x2 DUP3 DIV SWAP1 POP PUSH1 0x1 DUP3 AND DUP1 PUSH2 0x109D JUMPI PUSH1 0x7F DUP3 AND SWAP2 POP JUMPDEST PUSH1 0x20 DUP3 LT DUP2 SUB PUSH2 0x10B0 JUMPI PUSH2 0x10AF PUSH2 0x1056 JUMP JUMPDEST JUMPDEST POP SWAP2 SWAP1 POP JUMP JUMPDEST PUSH1 0x0 DUP2 SWAP1 POP DUP2 PUSH1 0x0 MSTORE PUSH1 0x20 PUSH1 0x0 KECCAK256 SWAP1 POP SWAP2 SWAP1 POP JUMP JUMPDEST PUSH1 0x0 PUSH1 0x20 PUSH1 0x1F DUP4 ADD DIV SWAP1 POP SWAP2 SWAP1 POP JUMP JUMPDEST PUSH1 0x0 DUP3 DUP3 SHL SWAP1 POP SWAP3 SWAP2 POP POP JUMP JUMPDEST PUSH1 0x0 PUSH1 0x8 DUP4 MUL PUSH2 0x1118 PUSH32 0xFFFFFFFFFFFFFFFFFFFFFFFFFFFFFFFFFFFFFFFFFFFFFFFFFFFFFFFFFFFFFFFF DUP3 PUSH2 0x10DB JUMP JUMPDEST PUSH2 0x1122 DUP7 DUP4 PUSH2 0x10DB JUMP JUMPDEST SWAP6 POP DUP1 NOT DUP5 AND SWAP4 POP DUP1 DUP7 AND DUP5 OR SWAP3 POP POP POP SWAP4 SWAP3 POP POP POP JUMP JUMPDEST PUSH1 0x0 DUP2 SWAP1 POP SWAP2 SWAP1 POP JUMP JUMPDEST PUSH1 0x0 PUSH2 0x115F PUSH2 0x115A PUSH2 0x1155 DUP5 PUSH2 0xA2D JUMP JUMPDEST PUSH2 0x113A JUMP JUMPDEST PUSH2 0xA2D JUMP JUMPDEST SWAP1 POP SWAP2 SWAP1 POP JUMP JUMPDEST PUSH1 0x0 DUP2 SWAP1 POP SWAP2 SWAP1 POP JUMP JUMPDEST PUSH2 0x1179 DUP4 PUSH2 0x1144 JUMP JUMPDEST PUSH2 0x118D PUSH2 0x1185 DUP3 PUSH2 0x1166 JUMP JUMPDEST DUP5 DUP5 SLOAD PUSH2 0x10E8 JUMP JUMPDEST DUP3 SSTORE POP POP POP POP JUMP JUMPDEST PUSH1 0x0 SWAP1 JUMP JUMPDEST PUSH2 0x11A2 PUSH2 0x1195 JUMP JUMPDEST PUSH2 0x11AD DUP2 DUP5 DUP5 PUSH2 0x1170 JUMP JUMPDEST POP POP POP JUMP JUMPDEST JUMPDEST DUP2 DUP2 LT ISZERO PUSH2 0x11D1 JUMPI PUSH2 0x11C6 PUSH1 0x0 DUP3 PUSH2 0x119A JUMP JUMPDEST PUSH1 0x1 DUP2 ADD SWAP1 POP PUSH2 0x11B3 JUMP JUMPDEST POP POP JUMP JUMPDEST PUSH1 0x1F DUP3 GT ISZERO PUSH2 0x1216 JUMPI PUSH2 0x11E7 DUP2 PUSH2 0x10B6 JUMP JUMPDEST PUSH2 0x11F0 DUP5 PUSH2 0x10CB JUMP JUMPDEST DUP2 ADD PUSH1 0x20 DUP6 LT ISZERO PUSH2 0x11FF JUMPI DUP2 SWAP1 POP JUMPDEST PUSH2 0x1213 PUSH2 0x120B DUP6 PUSH2 0x10CB JUMP JUMPDEST DUP4 ADD DUP3 PUSH2 0x11B2 JUMP JUMPDEST POP POP JUMPDEST POP POP POP JUMP JUMPDEST PUSH1 0x0 DUP3 DUP3 SHR SWAP1 POP SWAP3 SWAP2 POP POP JUMP JUMPDEST PUSH1 0x0 PUSH2 0x1239 PUSH1 0x0 NOT DUP5 PUSH1 0x8 MUL PUSH2 0x121B JUMP JUMPDEST NOT DUP1 DUP4 AND SWAP2 POP POP SWAP3 SWAP2 POP POP JUMP JUMPDEST PUSH1 0x0 PUSH2 0x1252 DUP4 DUP4 PUSH2 0x1228 JUMP JUMPDEST SWAP2 POP DUP3 PUSH1 0x2 MUL DUP3 OR SWAP1 POP SWAP3 SWAP2 POP POP JUMP JUMPDEST PUSH2 0x126B DUP3 PUSH2 0xDA5 JUMP JUMPDEST PUSH8 0xFFFFFFFFFFFFFFFF DUP2 GT ISZERO PUSH2 0x1284 JUMPI PUSH2 0x1283 PUSH2 0xA7C JUMP JUMPDEST JUMPDEST PUSH2 0x128E DUP3 SLOAD PUSH2 0x1085 JUMP JUMPDEST PUSH2 0x1299 DUP3 DUP3 DUP6 PUSH2 0x11D5 JUMP JUMPDEST PUSH1 0x0 PUSH1 0x20 SWAP1 POP PUSH1 0x1F DUP4 GT PUSH1 0x1 DUP2 EQ PUSH2 0x12CC JUMPI PUSH1 0x0 DUP5 ISZERO PUSH2 0x12BA JUMPI DUP3 DUP8 ADD MLOAD SWAP1 POP JUMPDEST PUSH2 0x12C4 DUP6 DUP3 PUSH2 0x1246 JUMP JUMPDEST DUP7 SSTORE POP PUSH2 0x132C JUMP JUMPDEST PUSH1 0x1F NOT DUP5 AND PUSH2 0x12DA DUP7 PUSH2 0x10B6 JUMP JUMPDEST PUSH1 0x0 JUMPDEST DUP3 DUP2 LT ISZERO PUSH2 0x1302 JUMPI DUP5 DUP10 ADD MLOAD DUP3 SSTORE PUSH1 0x1 DUP3 ADD SWAP2 POP PUSH1 0x20 DUP6 ADD SWAP5 POP PUSH1 0x20 DUP2 ADD SWAP1 POP PUSH2 0x12DD JUMP JUMPDEST DUP7 DUP4 LT ISZERO PUSH2 0x131F JUMPI DUP5 DUP10 ADD MLOAD PUSH2 0x131B PUSH1 0x1F DUP10 AND DUP3 PUSH2 0x1228 JUMP JUMPDEST DUP4 SSTORE POP JUMPDEST PUSH1 0x1 PUSH1 0x2 DUP9 MUL ADD DUP9 SSTORE POP POP POP JUMPDEST POP POP POP POP POP POP JUMP JUMPDEST PUSH32 0x4E487B7100000000000000000000000000000000000000000000000000000000 PUSH1 0x0 MSTORE PUSH1 0x11 PUSH1 0x4 MSTORE PUSH1 0x24 PUSH1 0x0 REVERT JUMPDEST PUSH1 0x0 PUSH2 0x136E DUP3 PUSH2 0xA2D JUMP JUMPDEST SWAP2 POP PUSH32 0xFFFFFFFFFFFFFFFFFFFFFFFFFFFFFFFFFFFFFFFFFFFFFFFFFFFFFFFFFFFFFFFF DUP3 SUB PUSH2 0x13A0 JUMPI PUSH2 0x139F PUSH2 0x1334 JUMP JUMPDEST JUMPDEST PUSH1 0x1 DUP3 ADD SWAP1 POP SWAP2 SWAP1 POP JUMP JUMPDEST PUSH32 0x53747564656E74206E6F74207265676973746572656400000000000000000000 PUSH1 0x0 DUP3 ADD MSTORE POP JUMP JUMPDEST PUSH1 0x0 PUSH2 0x13E1 PUSH1 0x16 DUP4 PUSH2 0xDB0 JUMP JUMPDEST SWAP2 POP PUSH2 0x13EC DUP3 PUSH2 0x13AB JUMP JUMPDEST PUSH1 0x20 DUP3 ADD SWAP1 POP SWAP2 SWAP1 POP JUMP JUMPDEST PUSH1 0x0 PUSH1 0x20 DUP3 ADD SWAP1 POP DUP2 DUP2 SUB PUSH1 0x0 DUP4 ADD MSTORE PUSH2 0x1410 DUP2 PUSH2 0x13D4 JUMP JUMPDEST SWAP1 POP SWAP2 SWAP1 POP JUMP JUMPDEST PUSH1 0x0 PUSH2 0x1422 DUP3 PUSH2 0xA2D JUMP JUMPDEST SWAP2 POP PUSH1 0x0 DUP3 SUB PUSH2 0x1435 JUMPI PUSH2 0x1434 PUSH2 0x1334 JUMP JUMPDEST JUMPDEST PUSH1 0x1 DUP3 SUB SWAP1 POP SWAP2 SWAP1 POP JUMP JUMPDEST PUSH32 0x53747564656E74206E6F7420666F756E64000000000000000000000000000000 PUSH1 0x0 DUP3 ADD MSTORE POP JUMP JUMPDEST PUSH1 0x0 PUSH2 0x1476 PUSH1 0x11 DUP4 PUSH2 0xDB0 JUMP JUMPDEST SWAP2 POP PUSH2 0x1481 DUP3 PUSH2 0x1440 JUMP JUMPDEST PUSH1 0x20 DUP3 ADD SWAP1 POP SWAP2 SWAP1 POP JUMP JUMPDEST PUSH1 0x0 PUSH1 0x20 DUP3 ADD SWAP1 POP DUP2 DUP2 SUB PUSH1 0x0 DUP4 ADD MSTORE PUSH2 0x14A5 DUP2 PUSH2 0x1469 JUMP JUMPDEST SWAP1 POP SWAP2 SWAP1 POP JUMP JUMPDEST PUSH32 0x4E487B7100000000000000000000000000000000000000000000000000000000 PUSH1 0x0 MSTORE PUSH1 0x32 PUSH1 0x4 MSTORE PUSH1 0x24 PUSH1 0x0 REVERT INVALID LOG2 PUSH5 0x6970667358 0x22 SLT KECCAK256 0xCB 0xF TIMESTAMP 0xBE 0xB1 PUSH25 0x6346FA226ADA93791DE71CFE8C57DD5DBE7E56C517223D4C44 SWAP3 PUSH5 0x736F6C6343 STOP ADDMOD SLT STOP CALLER "
				},
				"gasEstimates": {
					"creation": {
						"codeDepositCost": "1078600",
						"executionCost": "1120",
						"totalCost": "1079720"
					},
					"external": {
						"getDepartmentCount(uint8)": "2767",
						"getStudentDetails(string)": "infinite",
						"getTopThreeBlockchainAchievers()": "infinite",
						"registerStudent(string,string,uint256,uint8)": "infinite",
						"updateStudentDetails(string,string,uint256,uint8,uint8,uint256)": "infinite"
					}
				},
				"methodIdentifiers": {
					"getDepartmentCount(uint8)": "0035eef5",
					"getStudentDetails(string)": "8805f0f4",
					"getTopThreeBlockchainAchievers()": "caf76adb",
					"registerStudent(string,string,uint256,uint8)": "4a7c31dc",
					"updateStudentDetails(string,string,uint256,uint8,uint8,uint256)": "5c2a9263"
				}
			},
			"storageLayout": {
				"storage": [
					{
						"astId": 31,
						"contract": "ad.sol:StudentRegistry",
						"label": "students",
						"offset": 0,
						"slot": "0",
						"type": "t_mapping(t_string_memory_ptr,t_struct(Student)26_storage)"
					},
					{
						"astId": 36,
						"contract": "ad.sol:StudentRegistry",
						"label": "departmentCounts",
						"offset": 0,
						"slot": "1",
						"type": "t_mapping(t_enum(Department)6,t_uint256)"
					}
				],
				"types": {
					"t_enum(Department)6": {
						"encoding": "inplace",
						"label": "enum StudentRegistry.Department",
						"numberOfBytes": "1"
					},
					"t_enum(Status)11": {
						"encoding": "inplace",
						"label": "enum StudentRegistry.Status",
						"numberOfBytes": "1"
					},
					"t_mapping(t_enum(Department)6,t_uint256)": {
						"encoding": "mapping",
						"key": "t_enum(Department)6",
						"label": "mapping(enum StudentRegistry.Department => uint256)",
						"numberOfBytes": "32",
						"value": "t_uint256"
					},
					"t_mapping(t_string_memory_ptr,t_struct(Student)26_storage)": {
						"encoding": "mapping",
						"key": "t_string_memory_ptr",
						"label": "mapping(string => struct StudentRegistry.Student)",
						"numberOfBytes": "32",
						"value": "t_struct(Student)26_storage"
					},
					"t_string_memory_ptr": {
						"encoding": "bytes",
						"label": "string",
						"numberOfBytes": "32"
					},
					"t_string_storage": {
						"encoding": "bytes",
						"label": "string",
						"numberOfBytes": "32"
					},
					"t_struct(Student)26_storage": {
						"encoding": "inplace",
						"label": "struct StudentRegistry.Student",
						"members": [
							{
								"astId": 13,
								"contract": "ad.sol:StudentRegistry",
								"label": "name",
								"offset": 0,
								"slot": "0",
								"type": "t_string_storage"
							},
							{
								"astId": 15,
								"contract": "ad.sol:StudentRegistry",
								"label": "age",
								"offset": 0,
								"slot": "1",
								"type": "t_uint256"
							},
							{
								"astId": 17,
								"contract": "ad.sol:StudentRegistry",
								"label": "registrationDate",
								"offset": 0,
								"slot": "2",
								"type": "t_uint256"
							},
							{
								"astId": 20,
								"contract": "ad.sol:StudentRegistry",
								"label": "department",
								"offset": 0,
								"slot": "3",
								"type": "t_enum(Department)6"
							},
							{
								"astId": 23,
								"contract": "ad.sol:StudentRegistry",
								"label": "status",
								"offset": 1,
								"slot": "3",
								"type": "t_enum(Status)11"
							},
							{
								"astId": 25,
								"contract": "ad.sol:StudentRegistry",
								"label": "obtainedMarks",
								"offset": 0,
								"slot": "4",
								"type": "t_uint256"
							}
						],
						"numberOfBytes": "160"
					},
					"t_uint256": {
						"encoding": "inplace",
						"label": "uint256",
						"numberOfBytes": "32"
					}
				}
			},
			"userdoc": {
				"kind": "user",
				"methods": {},
				"version": 1
			}
		}
	}
}