{
	"Task 2 lab31.sol": {
		"PersonalInfo": {
			"abi": [
				{
					"inputs": [],
					"name": "getAll",
					"outputs": [
						{
							"internalType": "string",
							"name": "",
							"type": "string"
						},
						{
							"internalType": "string",
							"name": "",
							"type": "string"
						},
						{
							"internalType": "address",
							"name": "",
							"type": "address"
						}
					],
					"stateMutability": "pure",
					"type": "function"
				},
				{
					"inputs": [],
					"name": "getAll2",
					"outputs": [
						{
							"internalType": "string",
							"name": "x",
							"type": "string"
						},
						{
							"internalType": "string",
							"name": "y",
							"type": "string"
						},
						{
							"internalType": "address",
							"name": "z",
							"type": "address"
						}
					],
					"stateMutability": "pure",
					"type": "function"
				},
				{
					"inputs": [],
					"name": "getAll3",
					"outputs": [
						{
							"internalType": "string",
							"name": "x",
							"type": "string"
						},
						{
							"internalType": "string",
							"name": "y",
							"type": "string"
						},
						{
							"internalType": "address",
							"name": "z",
							"type": "address"
						}
					],
					"stateMutability": "pure",
					"type": "function"
				}
			],
			"devdoc": {
				"kind": "dev",
				"methods": {},
				"version": 1
			},
			"evm": {
				"assembly": "    /* \"Task 2 lab31.sol\":59:659  contract PersonalInfo{... */\n  mstore(0x40, 0x80)\n  callvalue\n  dup1\n  iszero\n  tag_1\n  jumpi\n  0x00\n  dup1\n  revert\ntag_1:\n  pop\n  dataSize(sub_0)\n  dup1\n  dataOffset(sub_0)\n  0x00\n  codecopy\n  0x00\n  return\nstop\n\nsub_0: assembly {\n        /* \"Task 2 lab31.sol\":59:659  contract PersonalInfo{... */\n      mstore(0x40, 0x80)\n      callvalue\n      dup1\n      iszero\n      tag_1\n      jumpi\n      0x00\n      dup1\n      revert\n    tag_1:\n      pop\n      jumpi(tag_2, lt(calldatasize, 0x04))\n      shr(0xe0, calldataload(0x00))\n      dup1\n      0x2b829ee6\n      eq\n      tag_3\n      jumpi\n      dup1\n      0x53ed5143\n      eq\n      tag_4\n      jumpi\n      dup1\n      0xb21cb607\n      eq\n      tag_5\n      jumpi\n    tag_2:\n      0x00\n      dup1\n      revert\n        /* \"Task 2 lab31.sol\":451:651  function getAll3() public pure returns (string memory x, string memory y, address z) {... */\n    tag_3:\n      tag_6\n      tag_7\n      jump\t// in\n    tag_6:\n      mload(0x40)\n      tag_8\n      swap4\n      swap3\n      swap2\n      swap1\n      tag_9\n      jump\t// in\n    tag_8:\n      mload(0x40)\n      dup1\n      swap2\n      sub\n      swap1\n      return\n        /* \"Task 2 lab31.sol\":98:264  function getAll() public pure returns (string memory, string memory,address) { ... */\n    tag_4:\n      tag_10\n      tag_11\n      jump\t// in\n    tag_10:\n      mload(0x40)\n      tag_12\n      swap4\n      swap3\n      swap2\n      swap1\n      tag_9\n      jump\t// in\n    tag_12:\n      mload(0x40)\n      dup1\n      swap2\n      sub\n      swap1\n      return\n        /* \"Task 2 lab31.sol\":270:445  function getAll2() public pure returns (string memory x , string  memory y, address z) {... */\n    tag_5:\n      tag_13\n      tag_14\n      jump\t// in\n    tag_13:\n      mload(0x40)\n      tag_15\n      swap4\n      swap3\n      swap2\n      swap1\n      tag_9\n      jump\t// in\n    tag_15:\n      mload(0x40)\n      dup1\n      swap2\n      sub\n      swap1\n      return\n        /* \"Task 2 lab31.sol\":451:651  function getAll3() public pure returns (string memory x, string memory y, address z) {... */\n    tag_7:\n        /* \"Task 2 lab31.sol\":491:506  string memory x */\n      0x60\n        /* \"Task 2 lab31.sol\":508:523  string memory y */\n      dup1\n        /* \"Task 2 lab31.sol\":525:534  address z */\n      0x00\n        /* \"Task 2 lab31.sol\":547:557  x = \"Male\" */\n      mload(0x40)\n      dup1\n      0x40\n      add\n      0x40\n      mstore\n      dup1\n      0x04\n      dup2\n      mstore\n      0x20\n      add\n      0x4d616c6500000000000000000000000000000000000000000000000000000000\n      dup2\n      mstore\n      pop\n      swap3\n      pop\n        /* \"Task 2 lab31.sol\":568:581  y = \"Alishan\" */\n      mload(0x40)\n      dup1\n      0x40\n      add\n      0x40\n      mstore\n      dup1\n      0x07\n      dup2\n      mstore\n      0x20\n      add\n      0x416c697368616e00000000000000000000000000000000000000000000000000\n      dup2\n      mstore\n      pop\n      swap2\n      pop\n        /* \"Task 2 lab31.sol\":596:638  0x5B38Da6a701c568545dCfcB03FcB875f56beddC4 */\n      0x5b38da6a701c568545dcfcb03fcb875f56beddc4\n        /* \"Task 2 lab31.sol\":592:638  z = 0x5B38Da6a701c568545dCfcB03FcB875f56beddC4 */\n      swap1\n      pop\n        /* \"Task 2 lab31.sol\":451:651  function getAll3() public pure returns (string memory x, string memory y, address z) {... */\n      swap1\n      swap2\n      swap3\n      jump\t// out\n        /* \"Task 2 lab31.sol\":98:264  function getAll() public pure returns (string memory, string memory,address) { ... */\n    tag_11:\n        /* \"Task 2 lab31.sol\":137:150  string memory */\n      0x60\n        /* \"Task 2 lab31.sol\":152:165  string memory */\n      dup1\n        /* \"Task 2 lab31.sol\":166:173  address */\n      0x00\n        /* \"Task 2 lab31.sol\":213:255  0x5B38Da6a701c568545dCfcB03FcB875f56beddC4 */\n      0x5b38da6a701c568545dcfcb03fcb875f56beddc4\n        /* \"Task 2 lab31.sol\":187:256  return (\"Male\",\"AliShan\", 0x5B38Da6a701c568545dCfcB03FcB875f56beddC4) */\n      mload(0x40)\n      dup1\n      0x40\n      add\n      0x40\n      mstore\n      dup1\n      0x04\n      dup2\n      mstore\n      0x20\n      add\n      0x4d616c6500000000000000000000000000000000000000000000000000000000\n      dup2\n      mstore\n      pop\n      swap1\n      mload(0x40)\n      dup1\n      0x40\n      add\n      0x40\n      mstore\n      dup1\n      0x07\n      dup2\n      mstore\n      0x20\n      add\n      0x416c695368616e00000000000000000000000000000000000000000000000000\n      dup2\n      mstore\n      pop\n      swap1\n      swap3\n      pop\n      swap3\n      pop\n      swap3\n      pop\n        /* \"Task 2 lab31.sol\":98:264  function getAll() public pure returns (string memory, string memory,address) { ... */\n      swap1\n      swap2\n      swap3\n      jump\t// out\n        /* \"Task 2 lab31.sol\":270:445  function getAll2() public pure returns (string memory x , string  memory y, address z) {... */\n    tag_14:\n        /* \"Task 2 lab31.sol\":310:325  string memory x */\n      0x60\n        /* \"Task 2 lab31.sol\":328:344  string  memory y */\n      dup1\n        /* \"Task 2 lab31.sol\":346:355  address z */\n      0x00\n        /* \"Task 2 lab31.sol\":394:436  0x5B38Da6a701c568545dCfcB03FcB875f56beddC4 */\n      0x5b38da6a701c568545dcfcb03fcb875f56beddc4\n        /* \"Task 2 lab31.sol\":368:437  return(\"Male\", \"Alishan\", 0x5B38Da6a701c568545dCfcB03FcB875f56beddC4) */\n      mload(0x40)\n      dup1\n      0x40\n      add\n      0x40\n      mstore\n      dup1\n      0x04\n      dup2\n      mstore\n      0x20\n      add\n      0x4d616c6500000000000000000000000000000000000000000000000000000000\n      dup2\n      mstore\n      pop\n      swap1\n      mload(0x40)\n      dup1\n      0x40\n      add\n      0x40\n      mstore\n      dup1\n      0x07\n      dup2\n      mstore\n      0x20\n      add\n      0x416c697368616e00000000000000000000000000000000000000000000000000\n      dup2\n      mstore\n      pop\n      swap1\n      swap3\n      pop\n      swap3\n      pop\n      swap3\n      pop\n        /* \"Task 2 lab31.sol\":270:445  function getAll2() public pure returns (string memory x , string  memory y, address z) {... */\n      swap1\n      swap2\n      swap3\n      jump\t// out\n        /* \"#utility.yul\":7:106   */\n    tag_19:\n        /* \"#utility.yul\":59:65   */\n      0x00\n        /* \"#utility.yul\":93:98   */\n      dup2\n        /* \"#utility.yul\":87:99   */\n      mload\n        /* \"#utility.yul\":77:99   */\n      swap1\n      pop\n        /* \"#utility.yul\":7:106   */\n      swap2\n      swap1\n      pop\n      jump\t// out\n        /* \"#utility.yul\":112:281   */\n    tag_20:\n        /* \"#utility.yul\":196:207   */\n      0x00\n        /* \"#utility.yul\":230:236   */\n      dup3\n        /* \"#utility.yul\":225:228   */\n      dup3\n        /* \"#utility.yul\":218:237   */\n      mstore\n        /* \"#utility.yul\":270:274   */\n      0x20\n        /* \"#utility.yul\":265:268   */\n      dup3\n        /* \"#utility.yul\":261:275   */\n      add\n        /* \"#utility.yul\":246:275   */\n      swap1\n      pop\n        /* \"#utility.yul\":112:281   */\n      swap3\n      swap2\n      pop\n      pop\n      jump\t// out\n        /* \"#utility.yul\":287:533   */\n    tag_21:\n        /* \"#utility.yul\":368:369   */\n      0x00\n        /* \"#utility.yul\":378:491   */\n    tag_31:\n        /* \"#utility.yul\":392:398   */\n      dup4\n        /* \"#utility.yul\":389:390   */\n      dup2\n        /* \"#utility.yul\":386:399   */\n      lt\n        /* \"#utility.yul\":378:491   */\n      iszero\n      tag_33\n      jumpi\n        /* \"#utility.yul\":477:478   */\n      dup1\n        /* \"#utility.yul\":472:475   */\n      dup3\n        /* \"#utility.yul\":468:479   */\n      add\n        /* \"#utility.yul\":462:480   */\n      mload\n        /* \"#utility.yul\":458:459   */\n      dup2\n        /* \"#utility.yul\":453:456   */\n      dup5\n        /* \"#utility.yul\":449:460   */\n      add\n        /* \"#utility.yul\":442:481   */\n      mstore\n        /* \"#utility.yul\":414:416   */\n      0x20\n        /* \"#utility.yul\":411:412   */\n      dup2\n        /* \"#utility.yul\":407:417   */\n      add\n        /* \"#utility.yul\":402:417   */\n      swap1\n      pop\n        /* \"#utility.yul\":378:491   */\n      jump(tag_31)\n    tag_33:\n        /* \"#utility.yul\":525:526   */\n      0x00\n        /* \"#utility.yul\":516:522   */\n      dup5\n        /* \"#utility.yul\":511:514   */\n      dup5\n        /* \"#utility.yul\":507:523   */\n      add\n        /* \"#utility.yul\":500:527   */\n      mstore\n        /* \"#utility.yul\":349:533   */\n      pop\n        /* \"#utility.yul\":287:533   */\n      pop\n      pop\n      pop\n      jump\t// out\n        /* \"#utility.yul\":539:641   */\n    tag_22:\n        /* \"#utility.yul\":580:586   */\n      0x00\n        /* \"#utility.yul\":631:633   */\n      0x1f\n        /* \"#utility.yul\":627:634   */\n      not\n        /* \"#utility.yul\":622:624   */\n      0x1f\n        /* \"#utility.yul\":615:620   */\n      dup4\n        /* \"#utility.yul\":611:625   */\n      add\n        /* \"#utility.yul\":607:635   */\n      and\n        /* \"#utility.yul\":597:635   */\n      swap1\n      pop\n        /* \"#utility.yul\":539:641   */\n      swap2\n      swap1\n      pop\n      jump\t// out\n        /* \"#utility.yul\":647:1024   */\n    tag_23:\n        /* \"#utility.yul\":735:738   */\n      0x00\n        /* \"#utility.yul\":763:802   */\n      tag_36\n        /* \"#utility.yul\":796:801   */\n      dup3\n        /* \"#utility.yul\":763:802   */\n      tag_19\n      jump\t// in\n    tag_36:\n        /* \"#utility.yul\":818:889   */\n      tag_37\n        /* \"#utility.yul\":882:888   */\n      dup2\n        /* \"#utility.yul\":877:880   */\n      dup6\n        /* \"#utility.yul\":818:889   */\n      tag_20\n      jump\t// in\n    tag_37:\n        /* \"#utility.yul\":811:889   */\n      swap4\n      pop\n        /* \"#utility.yul\":898:963   */\n      tag_38\n        /* \"#utility.yul\":956:962   */\n      dup2\n        /* \"#utility.yul\":951:954   */\n      dup6\n        /* \"#utility.yul\":944:948   */\n      0x20\n        /* \"#utility.yul\":937:942   */\n      dup7\n        /* \"#utility.yul\":933:949   */\n      add\n        /* \"#utility.yul\":898:963   */\n      tag_21\n      jump\t// in\n    tag_38:\n        /* \"#utility.yul\":988:1017   */\n      tag_39\n        /* \"#utility.yul\":1010:1016   */\n      dup2\n        /* \"#utility.yul\":988:1017   */\n      tag_22\n      jump\t// in\n    tag_39:\n        /* \"#utility.yul\":983:986   */\n      dup5\n        /* \"#utility.yul\":979:1018   */\n      add\n        /* \"#utility.yul\":972:1018   */\n      swap2\n      pop\n        /* \"#utility.yul\":739:1024   */\n      pop\n        /* \"#utility.yul\":647:1024   */\n      swap3\n      swap2\n      pop\n      pop\n      jump\t// out\n        /* \"#utility.yul\":1030:1156   */\n    tag_24:\n        /* \"#utility.yul\":1067:1074   */\n      0x00\n        /* \"#utility.yul\":1107:1149   */\n      0xffffffffffffffffffffffffffffffffffffffff\n        /* \"#utility.yul\":1100:1105   */\n      dup3\n        /* \"#utility.yul\":1096:1150   */\n      and\n        /* \"#utility.yul\":1085:1150   */\n      swap1\n      pop\n        /* \"#utility.yul\":1030:1156   */\n      swap2\n      swap1\n      pop\n      jump\t// out\n        /* \"#utility.yul\":1162:1258   */\n    tag_25:\n        /* \"#utility.yul\":1199:1206   */\n      0x00\n        /* \"#utility.yul\":1228:1252   */\n      tag_42\n        /* \"#utility.yul\":1246:1251   */\n      dup3\n        /* \"#utility.yul\":1228:1252   */\n      tag_24\n      jump\t// in\n    tag_42:\n        /* \"#utility.yul\":1217:1252   */\n      swap1\n      pop\n        /* \"#utility.yul\":1162:1258   */\n      swap2\n      swap1\n      pop\n      jump\t// out\n        /* \"#utility.yul\":1264:1382   */\n    tag_26:\n        /* \"#utility.yul\":1351:1375   */\n      tag_44\n        /* \"#utility.yul\":1369:1374   */\n      dup2\n        /* \"#utility.yul\":1351:1375   */\n      tag_25\n      jump\t// in\n    tag_44:\n        /* \"#utility.yul\":1346:1349   */\n      dup3\n        /* \"#utility.yul\":1339:1376   */\n      mstore\n        /* \"#utility.yul\":1264:1382   */\n      pop\n      pop\n      jump\t// out\n        /* \"#utility.yul\":1388:2012   */\n    tag_9:\n        /* \"#utility.yul\":1577:1581   */\n      0x00\n        /* \"#utility.yul\":1615:1617   */\n      0x60\n        /* \"#utility.yul\":1604:1613   */\n      dup3\n        /* \"#utility.yul\":1600:1618   */\n      add\n        /* \"#utility.yul\":1592:1618   */\n      swap1\n      pop\n        /* \"#utility.yul\":1664:1673   */\n      dup2\n        /* \"#utility.yul\":1658:1662   */\n      dup2\n        /* \"#utility.yul\":1654:1674   */\n      sub\n        /* \"#utility.yul\":1650:1651   */\n      0x00\n        /* \"#utility.yul\":1639:1648   */\n      dup4\n        /* \"#utility.yul\":1635:1652   */\n      add\n        /* \"#utility.yul\":1628:1675   */\n      mstore\n        /* \"#utility.yul\":1692:1770   */\n      tag_46\n        /* \"#utility.yul\":1765:1769   */\n      dup2\n        /* \"#utility.yul\":1756:1762   */\n      dup7\n        /* \"#utility.yul\":1692:1770   */\n      tag_23\n      jump\t// in\n    tag_46:\n        /* \"#utility.yul\":1684:1770   */\n      swap1\n      pop\n        /* \"#utility.yul\":1817:1826   */\n      dup2\n        /* \"#utility.yul\":1811:1815   */\n      dup2\n        /* \"#utility.yul\":1807:1827   */\n      sub\n        /* \"#utility.yul\":1802:1804   */\n      0x20\n        /* \"#utility.yul\":1791:1800   */\n      dup4\n        /* \"#utility.yul\":1787:1805   */\n      add\n        /* \"#utility.yul\":1780:1828   */\n      mstore\n        /* \"#utility.yul\":1845:1923   */\n      tag_47\n        /* \"#utility.yul\":1918:1922   */\n      dup2\n        /* \"#utility.yul\":1909:1915   */\n      dup6\n        /* \"#utility.yul\":1845:1923   */\n      tag_23\n      jump\t// in\n    tag_47:\n        /* \"#utility.yul\":1837:1923   */\n      swap1\n      pop\n        /* \"#utility.yul\":1933:2005   */\n      tag_48\n        /* \"#utility.yul\":2001:2003   */\n      0x40\n        /* \"#utility.yul\":1990:1999   */\n      dup4\n        /* \"#utility.yul\":1986:2004   */\n      add\n        /* \"#utility.yul\":1977:1983   */\n      dup5\n        /* \"#utility.yul\":1933:2005   */\n      tag_26\n      jump\t// in\n    tag_48:\n        /* \"#utility.yul\":1388:2012   */\n      swap5\n      swap4\n      pop\n      pop\n      pop\n      pop\n      jump\t// out\n\n    auxdata: 0xa26469706673582212202a791ea25ce9db3e27aa022047f81aa8c59092a7af99eb43cae038e3fad8f7c164736f6c63430008120033\n}\n",
				"bytecode": {
					"linkReferences": {},
					"object": "608060405234801561001057600080fd5b506103a9806100206000396000f3fe608060405234801561001057600080fd5b50600436106100415760003560e01c80632b829ee61461004657806353ed514314610066578063b21cb60714610086575b600080fd5b61004e6100a6565b60405161005d9392919061032e565b60405180910390f35b61006e610137565b60405161007d9392919061032e565b60405180910390f35b61008e6101ca565b60405161009d9392919061032e565b60405180910390f35b60608060006040518060400160405280600481526020017f4d616c650000000000000000000000000000000000000000000000000000000081525092506040518060400160405280600781526020017f416c697368616e000000000000000000000000000000000000000000000000008152509150735b38da6a701c568545dcfcb03fcb875f56beddc49050909192565b6060806000735b38da6a701c568545dcfcb03fcb875f56beddc46040518060400160405280600481526020017f4d616c6500000000000000000000000000000000000000000000000000000000815250906040518060400160405280600781526020017f416c695368616e0000000000000000000000000000000000000000000000000081525090925092509250909192565b6060806000735b38da6a701c568545dcfcb03fcb875f56beddc46040518060400160405280600481526020017f4d616c6500000000000000000000000000000000000000000000000000000000815250906040518060400160405280600781526020017f416c697368616e0000000000000000000000000000000000000000000000000081525090925092509250909192565b600081519050919050565b600082825260208201905092915050565b60005b8381101561029757808201518184015260208101905061027c565b60008484015250505050565b6000601f19601f8301169050919050565b60006102bf8261025d565b6102c98185610268565b93506102d9818560208601610279565b6102e2816102a3565b840191505092915050565b600073ffffffffffffffffffffffffffffffffffffffff82169050919050565b6000610318826102ed565b9050919050565b6103288161030d565b82525050565b6000606082019050818103600083015261034881866102b4565b9050818103602083015261035c81856102b4565b905061036b604083018461031f565b94935050505056fea26469706673582212202a791ea25ce9db3e27aa022047f81aa8c59092a7af99eb43cae038e3fad8f7c164736f6c63430008120033",
					"opcodes": "PUSH1 0x80 PUSH1 0x40 MSTORE CALLVALUE DUP1 ISZERO PUSH2 0x10 JUMPI PUSH1 0x0 DUP1 REVERT JUMPDEST POP PUSH2 0x3A9 DUP1 PUSH2 0x20 PUSH1 0x0 CODECOPY PUSH1 0x0 RETURN INVALID PUSH1 0x80 PUSH1 0x40 MSTORE CALLVALUE DUP1 ISZERO PUSH2 0x10 JUMPI PUSH1 0x0 DUP1 REVERT JUMPDEST POP PUSH1 0x4 CALLDATASIZE LT PUSH2 0x41 JUMPI PUSH1 0x0 CALLDATALOAD PUSH1 0xE0 SHR DUP1 PUSH4 0x2B829EE6 EQ PUSH2 0x46 JUMPI DUP1 PUSH4 0x53ED5143 EQ PUSH2 0x66 JUMPI DUP1 PUSH4 0xB21CB607 EQ PUSH2 0x86 JUMPI JUMPDEST PUSH1 0x0 DUP1 REVERT JUMPDEST PUSH2 0x4E PUSH2 0xA6 JUMP JUMPDEST PUSH1 0x40 MLOAD PUSH2 0x5D SWAP4 SWAP3 SWAP2 SWAP1 PUSH2 0x32E JUMP JUMPDEST PUSH1 0x40 MLOAD DUP1 SWAP2 SUB SWAP1 RETURN JUMPDEST PUSH2 0x6E PUSH2 0x137 JUMP JUMPDEST PUSH1 0x40 MLOAD PUSH2 0x7D SWAP4 SWAP3 SWAP2 SWAP1 PUSH2 0x32E JUMP JUMPDEST PUSH1 0x40 MLOAD DUP1 SWAP2 SUB SWAP1 RETURN JUMPDEST PUSH2 0x8E PUSH2 0x1CA JUMP JUMPDEST PUSH1 0x40 MLOAD PUSH2 0x9D SWAP4 SWAP3 SWAP2 SWAP1 PUSH2 0x32E JUMP JUMPDEST PUSH1 0x40 MLOAD DUP1 SWAP2 SUB SWAP1 RETURN JUMPDEST PUSH1 0x60 DUP1 PUSH1 0x0 PUSH1 0x40 MLOAD DUP1 PUSH1 0x40 ADD PUSH1 0x40 MSTORE DUP1 PUSH1 0x4 DUP2 MSTORE PUSH1 0x20 ADD PUSH32 0x4D616C6500000000000000000000000000000000000000000000000000000000 DUP2 MSTORE POP SWAP3 POP PUSH1 0x40 MLOAD DUP1 PUSH1 0x40 ADD PUSH1 0x40 MSTORE DUP1 PUSH1 0x7 DUP2 MSTORE PUSH1 0x20 ADD PUSH32 0x416C697368616E00000000000000000000000000000000000000000000000000 DUP2 MSTORE POP SWAP2 POP PUSH20 0x5B38DA6A701C568545DCFCB03FCB875F56BEDDC4 SWAP1 POP SWAP1 SWAP2 SWAP3 JUMP JUMPDEST PUSH1 0x60 DUP1 PUSH1 0x0 PUSH20 0x5B38DA6A701C568545DCFCB03FCB875F56BEDDC4 PUSH1 0x40 MLOAD DUP1 PUSH1 0x40 ADD PUSH1 0x40 MSTORE DUP1 PUSH1 0x4 DUP2 MSTORE PUSH1 0x20 ADD PUSH32 0x4D616C6500000000000000000000000000000000000000000000000000000000 DUP2 MSTORE POP SWAP1 PUSH1 0x40 MLOAD DUP1 PUSH1 0x40 ADD PUSH1 0x40 MSTORE DUP1 PUSH1 0x7 DUP2 MSTORE PUSH1 0x20 ADD PUSH32 0x416C695368616E00000000000000000000000000000000000000000000000000 DUP2 MSTORE POP SWAP1 SWAP3 POP SWAP3 POP SWAP3 POP SWAP1 SWAP2 SWAP3 JUMP JUMPDEST PUSH1 0x60 DUP1 PUSH1 0x0 PUSH20 0x5B38DA6A701C568545DCFCB03FCB875F56BEDDC4 PUSH1 0x40 MLOAD DUP1 PUSH1 0x40 ADD PUSH1 0x40 MSTORE DUP1 PUSH1 0x4 DUP2 MSTORE PUSH1 0x20 ADD PUSH32 0x4D616C6500000000000000000000000000000000000000000000000000000000 DUP2 MSTORE POP SWAP1 PUSH1 0x40 MLOAD DUP1 PUSH1 0x40 ADD PUSH1 0x40 MSTORE DUP1 PUSH1 0x7 DUP2 MSTORE PUSH1 0x20 ADD PUSH32 0x416C697368616E00000000000000000000000000000000000000000000000000 DUP2 MSTORE POP SWAP1 SWAP3 POP SWAP3 POP SWAP3 POP SWAP1 SWAP2 SWAP3 JUMP JUMPDEST PUSH1 0x0 DUP2 MLOAD SWAP1 POP SWAP2 SWAP1 POP JUMP JUMPDEST PUSH1 0x0 DUP3 DUP3 MSTORE PUSH1 0x20 DUP3 ADD SWAP1 POP SWAP3 SWAP2 POP POP JUMP JUMPDEST PUSH1 0x0 JUMPDEST DUP4 DUP2 LT ISZERO PUSH2 0x297 JUMPI DUP1 DUP3 ADD MLOAD DUP2 DUP5 ADD MSTORE PUSH1 0x20 DUP2 ADD SWAP1 POP PUSH2 0x27C JUMP JUMPDEST PUSH1 0x0 DUP5 DUP5 ADD MSTORE POP POP POP POP JUMP JUMPDEST PUSH1 0x0 PUSH1 0x1F NOT PUSH1 0x1F DUP4 ADD AND SWAP1 POP SWAP2 SWAP1 POP JUMP JUMPDEST PUSH1 0x0 PUSH2 0x2BF DUP3 PUSH2 0x25D JUMP JUMPDEST PUSH2 0x2C9 DUP2 DUP6 PUSH2 0x268 JUMP JUMPDEST SWAP4 POP PUSH2 0x2D9 DUP2 DUP6 PUSH1 0x20 DUP7 ADD PUSH2 0x279 JUMP JUMPDEST PUSH2 0x2E2 DUP2 PUSH2 0x2A3 JUMP JUMPDEST DUP5 ADD SWAP2 POP POP SWAP3 SWAP2 POP POP JUMP JUMPDEST PUSH1 0x0 PUSH20 0xFFFFFFFFFFFFFFFFFFFFFFFFFFFFFFFFFFFFFFFF DUP3 AND SWAP1 POP SWAP2 SWAP1 POP JUMP JUMPDEST PUSH1 0x0 PUSH2 0x318 DUP3 PUSH2 0x2ED JUMP JUMPDEST SWAP1 POP SWAP2 SWAP1 POP JUMP JUMPDEST PUSH2 0x328 DUP2 PUSH2 0x30D JUMP JUMPDEST DUP3 MSTORE POP POP JUMP JUMPDEST PUSH1 0x0 PUSH1 0x60 DUP3 ADD SWAP1 POP DUP2 DUP2 SUB PUSH1 0x0 DUP4 ADD MSTORE PUSH2 0x348 DUP2 DUP7 PUSH2 0x2B4 JUMP JUMPDEST SWAP1 POP DUP2 DUP2 SUB PUSH1 0x20 DUP4 ADD MSTORE PUSH2 0x35C DUP2 DUP6 PUSH2 0x2B4 JUMP JUMPDEST SWAP1 POP PUSH2 0x36B PUSH1 0x40 DUP4 ADD DUP5 PUSH2 0x31F JUMP JUMPDEST SWAP5 SWAP4 POP POP POP POP JUMP INVALID LOG2 PUSH5 0x6970667358 0x22 SLT KECCAK256 0x2A PUSH26 0x1EA25CE9DB3E27AA022047F81AA8C59092A7AF99EB43CAE038E3 STATICCALL 0xD8 0xF7 0xC1 PUSH5 0x736F6C6343 STOP ADDMOD SLT STOP CALLER "
				},
				"gasEstimates": {
					"creation": {
						"codeDepositCost": "187400",
						"executionCost": "232",
						"totalCost": "187632"
					},
					"external": {
						"getAll()": "infinite",
						"getAll2()": "infinite",
						"getAll3()": "infinite"
					}
				},
				"methodIdentifiers": {
					"getAll()": "53ed5143",
					"getAll2()": "b21cb607",
					"getAll3()": "2b829ee6"
				}
			},
			"storageLayout": {
				"storage": [],
				"types": null
			},
			"userdoc": {
				"kind": "user",
				"methods": {},
				"version": 1
			}
		}
	}
}