{
	"Task 2 lab1 .sol": {
		"Bank": {
			"abi": [
				{
					"inputs": [],
					"name": "Get",
					"outputs": [
						{
							"internalType": "uint256",
							"name": "",
							"type": "uint256"
						},
						{
							"internalType": "uint256",
							"name": "",
							"type": "uint256"
						},
						{
							"internalType": "address",
							"name": "",
							"type": "address"
						}
					],
					"stateMutability": "view",
					"type": "function"
				},
				{
					"inputs": [],
					"name": "Method2",
					"outputs": [],
					"stateMutability": "nonpayable",
					"type": "function"
				},
				{
					"inputs": [],
					"name": "Method3",
					"outputs": [],
					"stateMutability": "nonpayable",
					"type": "function"
				},
				{
					"inputs": [],
					"name": "Method4",
					"outputs": [],
					"stateMutability": "nonpayable",
					"type": "function"
				}
			],
			"devdoc": {
				"kind": "dev",
				"methods": {},
				"version": 1
			},
			"evm": {
				"assembly": "    /* \"Task 2 lab1 .sol\":59:860  contract Bank {... */\n  mstore(0x40, 0x80)\n  callvalue\n  dup1\n  iszero\n  tag_1\n  jumpi\n  0x00\n  dup1\n  revert\ntag_1:\n  pop\n  dataSize(sub_0)\n  dup1\n  dataOffset(sub_0)\n  0x00\n  codecopy\n  0x00\n  return\nstop\n\nsub_0: assembly {\n        /* \"Task 2 lab1 .sol\":59:860  contract Bank {... */\n      mstore(0x40, 0x80)\n      callvalue\n      dup1\n      iszero\n      tag_1\n      jumpi\n      0x00\n      dup1\n      revert\n    tag_1:\n      pop\n      jumpi(tag_2, lt(calldatasize, 0x04))\n      shr(0xe0, calldataload(0x00))\n      dup1\n      0x0784125b\n      eq\n      tag_3\n      jumpi\n      dup1\n      0xb1976a02\n      eq\n      tag_4\n      jumpi\n      dup1\n      0xe56460dd\n      eq\n      tag_5\n      jumpi\n      dup1\n      0xf6f20046\n      eq\n      tag_6\n      jumpi\n    tag_2:\n      0x00\n      dup1\n      revert\n        /* \"Task 2 lab1 .sol\":236:412  function Method2() public {... */\n    tag_3:\n      tag_7\n      tag_8\n      jump\t// in\n    tag_7:\n      stop\n        /* \"Task 2 lab1 .sol\":716:855  function Get() public view  returns (uint, uint, address) {... */\n    tag_4:\n      tag_9\n      tag_10\n      jump\t// in\n    tag_9:\n      mload(0x40)\n      tag_11\n      swap4\n      swap3\n      swap2\n      swap1\n      tag_12\n      jump\t// in\n    tag_11:\n      mload(0x40)\n      dup1\n      swap2\n      sub\n      swap1\n      return\n        /* \"Task 2 lab1 .sol\":432:554  function Method3() public {... */\n    tag_5:\n      tag_13\n      tag_14\n      jump\t// in\n    tag_13:\n      stop\n        /* \"Task 2 lab1 .sol\":571:714  function Method4() public {... */\n    tag_6:\n      tag_15\n      tag_16\n      jump\t// in\n    tag_15:\n      stop\n        /* \"Task 2 lab1 .sol\":236:412  function Method2() public {... */\n    tag_8:\n        /* \"Task 2 lab1 .sol\":296:298  99 */\n      0x63\n        /* \"Task 2 lab1 .sol\":272:283  bankAccount */\n      0x00\n        /* \"Task 2 lab1 .sol\":272:293  bankAccount.AccountID */\n      dup1\n      add\n        /* \"Task 2 lab1 .sol\":272:298  bankAccount.AccountID = 99 */\n      dup2\n      swap1\n      sstore\n      pop\n        /* \"Task 2 lab1 .sol\":330:333  110 */\n      0x6e\n        /* \"Task 2 lab1 .sol\":308:319  bankAccount */\n      0x00\n        /* \"Task 2 lab1 .sol\":308:327  bankAccount.Balance */\n      0x01\n      add\n        /* \"Task 2 lab1 .sol\":308:333  bankAccount.Balance = 110 */\n      dup2\n      swap1\n      sstore\n      pop\n        /* \"Task 2 lab1 .sol\":363:405  0x5B38Da6a701c568545dCfcB03FcB875f56beddC4 */\n      0x5b38da6a701c568545dcfcb03fcb875f56beddc4\n        /* \"Task 2 lab1 .sol\":343:354  bankAccount */\n      0x00\n        /* \"Task 2 lab1 .sol\":343:360  bankAccount.Owner */\n      0x02\n      add\n      0x00\n        /* \"Task 2 lab1 .sol\":343:405  bankAccount.Owner = 0x5B38Da6a701c568545dCfcB03FcB875f56beddC4 */\n      0x0100\n      exp\n      dup2\n      sload\n      dup2\n      0xffffffffffffffffffffffffffffffffffffffff\n      mul\n      not\n      and\n      swap1\n      dup4\n      0xffffffffffffffffffffffffffffffffffffffff\n      and\n      mul\n      or\n      swap1\n      sstore\n      pop\n        /* \"Task 2 lab1 .sol\":236:412  function Method2() public {... */\n      jump\t// out\n        /* \"Task 2 lab1 .sol\":716:855  function Get() public view  returns (uint, uint, address) {... */\n    tag_10:\n        /* \"Task 2 lab1 .sol\":753:757  uint */\n      0x00\n        /* \"Task 2 lab1 .sol\":759:763  uint */\n      dup1\n        /* \"Task 2 lab1 .sol\":765:772  address */\n      0x00\n        /* \"Task 2 lab1 .sol\":789:800  bankAccount */\n      dup1\n        /* \"Task 2 lab1 .sol\":789:810  bankAccount.AccountID */\n      0x00\n      add\n      sload\n        /* \"Task 2 lab1 .sol\":812:823  bankAccount */\n      0x00\n        /* \"Task 2 lab1 .sol\":812:831  bankAccount.Balance */\n      0x01\n      add\n      sload\n        /* \"Task 2 lab1 .sol\":833:844  bankAccount */\n      0x00\n        /* \"Task 2 lab1 .sol\":833:850  bankAccount.Owner */\n      0x02\n      add\n      0x00\n      swap1\n      sload\n      swap1\n      0x0100\n      exp\n      swap1\n      div\n      0xffffffffffffffffffffffffffffffffffffffff\n      and\n        /* \"Task 2 lab1 .sol\":781:851  return (bankAccount.AccountID, bankAccount.Balance, bankAccount.Owner) */\n      swap3\n      pop\n      swap3\n      pop\n      swap3\n      pop\n        /* \"Task 2 lab1 .sol\":716:855  function Get() public view  returns (uint, uint, address) {... */\n      swap1\n      swap2\n      swap3\n      jump\t// out\n        /* \"Task 2 lab1 .sol\":432:554  function Method3() public {... */\n    tag_14:\n        /* \"Task 2 lab1 .sol\":482:547  BankAccount(90, 100, 0x5B38Da6a701c568545dCfcB03FcB875f56beddC4 ) */\n      mload(0x40)\n      dup1\n      0x60\n      add\n      0x40\n      mstore\n      dup1\n        /* \"Task 2 lab1 .sol\":494:496  90 */\n      0x5a\n        /* \"Task 2 lab1 .sol\":482:547  BankAccount(90, 100, 0x5B38Da6a701c568545dCfcB03FcB875f56beddC4 ) */\n      dup2\n      mstore\n      0x20\n      add\n        /* \"Task 2 lab1 .sol\":498:501  100 */\n      0x64\n        /* \"Task 2 lab1 .sol\":482:547  BankAccount(90, 100, 0x5B38Da6a701c568545dCfcB03FcB875f56beddC4 ) */\n      dup2\n      mstore\n      0x20\n      add\n        /* \"Task 2 lab1 .sol\":503:545  0x5B38Da6a701c568545dCfcB03FcB875f56beddC4 */\n      0x5b38da6a701c568545dcfcb03fcb875f56beddc4\n        /* \"Task 2 lab1 .sol\":482:547  BankAccount(90, 100, 0x5B38Da6a701c568545dCfcB03FcB875f56beddC4 ) */\n      0xffffffffffffffffffffffffffffffffffffffff\n      and\n      dup2\n      mstore\n      pop\n        /* \"Task 2 lab1 .sol\":468:479  bankAccount */\n      0x00\n        /* \"Task 2 lab1 .sol\":468:547  bankAccount = BankAccount(90, 100, 0x5B38Da6a701c568545dCfcB03FcB875f56beddC4 ) */\n      dup1\n      dup3\n      add\n      mload\n      dup2\n      0x00\n      add\n      sstore\n      0x20\n      dup3\n      add\n      mload\n      dup2\n      0x01\n      add\n      sstore\n      0x40\n      dup3\n      add\n      mload\n      dup2\n      0x02\n      add\n      exp(0x0100, 0x00)\n      dup2\n      sload\n      dup2\n      0xffffffffffffffffffffffffffffffffffffffff\n      mul\n      not\n      and\n      swap1\n      dup4\n      0xffffffffffffffffffffffffffffffffffffffff\n      and\n      mul\n      or\n      swap1\n      sstore\n      pop\n      swap1\n      pop\n      pop\n        /* \"Task 2 lab1 .sol\":432:554  function Method3() public {... */\n      jump\t// out\n        /* \"Task 2 lab1 .sol\":571:714  function Method4() public {... */\n    tag_16:\n        /* \"Task 2 lab1 .sol\":618:710  BankAccount ({AccountID: 20, Balance: 67,Owner: 0x5B38Da6a701c568545dCfcB03FcB875f56beddC4}) */\n      mload(0x40)\n      dup1\n      0x60\n      add\n      0x40\n      mstore\n      dup1\n        /* \"Task 2 lab1 .sol\":643:645  20 */\n      0x14\n        /* \"Task 2 lab1 .sol\":618:710  BankAccount ({AccountID: 20, Balance: 67,Owner: 0x5B38Da6a701c568545dCfcB03FcB875f56beddC4}) */\n      dup2\n      mstore\n      0x20\n      add\n        /* \"Task 2 lab1 .sol\":656:658  67 */\n      0x43\n        /* \"Task 2 lab1 .sol\":618:710  BankAccount ({AccountID: 20, Balance: 67,Owner: 0x5B38Da6a701c568545dCfcB03FcB875f56beddC4}) */\n      dup2\n      mstore\n      0x20\n      add\n        /* \"Task 2 lab1 .sol\":666:708  0x5B38Da6a701c568545dCfcB03FcB875f56beddC4 */\n      0x5b38da6a701c568545dcfcb03fcb875f56beddc4\n        /* \"Task 2 lab1 .sol\":618:710  BankAccount ({AccountID: 20, Balance: 67,Owner: 0x5B38Da6a701c568545dCfcB03FcB875f56beddC4}) */\n      0xffffffffffffffffffffffffffffffffffffffff\n      and\n      dup2\n      mstore\n      pop\n        /* \"Task 2 lab1 .sol\":604:615  bankAccount */\n      0x00\n        /* \"Task 2 lab1 .sol\":604:710  bankAccount = BankAccount ({AccountID: 20, Balance: 67,Owner: 0x5B38Da6a701c568545dCfcB03FcB875f56beddC4}) */\n      dup1\n      dup3\n      add\n      mload\n      dup2\n      0x00\n      add\n      sstore\n      0x20\n      dup3\n      add\n      mload\n      dup2\n      0x01\n      add\n      sstore\n      0x40\n      dup3\n      add\n      mload\n      dup2\n      0x02\n      add\n      exp(0x0100, 0x00)\n      dup2\n      sload\n      dup2\n      0xffffffffffffffffffffffffffffffffffffffff\n      mul\n      not\n      and\n      swap1\n      dup4\n      0xffffffffffffffffffffffffffffffffffffffff\n      and\n      mul\n      or\n      swap1\n      sstore\n      pop\n      swap1\n      pop\n      pop\n        /* \"Task 2 lab1 .sol\":571:714  function Method4() public {... */\n      jump\t// out\n        /* \"#utility.yul\":7:84   */\n    tag_21:\n        /* \"#utility.yul\":44:51   */\n      0x00\n        /* \"#utility.yul\":73:78   */\n      dup2\n        /* \"#utility.yul\":62:78   */\n      swap1\n      pop\n        /* \"#utility.yul\":7:84   */\n      swap2\n      swap1\n      pop\n      jump\t// out\n        /* \"#utility.yul\":90:208   */\n    tag_22:\n        /* \"#utility.yul\":177:201   */\n      tag_29\n        /* \"#utility.yul\":195:200   */\n      dup2\n        /* \"#utility.yul\":177:201   */\n      tag_21\n      jump\t// in\n    tag_29:\n        /* \"#utility.yul\":172:175   */\n      dup3\n        /* \"#utility.yul\":165:202   */\n      mstore\n        /* \"#utility.yul\":90:208   */\n      pop\n      pop\n      jump\t// out\n        /* \"#utility.yul\":214:340   */\n    tag_23:\n        /* \"#utility.yul\":251:258   */\n      0x00\n        /* \"#utility.yul\":291:333   */\n      0xffffffffffffffffffffffffffffffffffffffff\n        /* \"#utility.yul\":284:289   */\n      dup3\n        /* \"#utility.yul\":280:334   */\n      and\n        /* \"#utility.yul\":269:334   */\n      swap1\n      pop\n        /* \"#utility.yul\":214:340   */\n      swap2\n      swap1\n      pop\n      jump\t// out\n        /* \"#utility.yul\":346:442   */\n    tag_24:\n        /* \"#utility.yul\":383:390   */\n      0x00\n        /* \"#utility.yul\":412:436   */\n      tag_32\n        /* \"#utility.yul\":430:435   */\n      dup3\n        /* \"#utility.yul\":412:436   */\n      tag_23\n      jump\t// in\n    tag_32:\n        /* \"#utility.yul\":401:436   */\n      swap1\n      pop\n        /* \"#utility.yul\":346:442   */\n      swap2\n      swap1\n      pop\n      jump\t// out\n        /* \"#utility.yul\":448:566   */\n    tag_25:\n        /* \"#utility.yul\":535:559   */\n      tag_34\n        /* \"#utility.yul\":553:558   */\n      dup2\n        /* \"#utility.yul\":535:559   */\n      tag_24\n      jump\t// in\n    tag_34:\n        /* \"#utility.yul\":530:533   */\n      dup3\n        /* \"#utility.yul\":523:560   */\n      mstore\n        /* \"#utility.yul\":448:566   */\n      pop\n      pop\n      jump\t// out\n        /* \"#utility.yul\":572:1014   */\n    tag_12:\n        /* \"#utility.yul\":721:725   */\n      0x00\n        /* \"#utility.yul\":759:761   */\n      0x60\n        /* \"#utility.yul\":748:757   */\n      dup3\n        /* \"#utility.yul\":744:762   */\n      add\n        /* \"#utility.yul\":736:762   */\n      swap1\n      pop\n        /* \"#utility.yul\":772:843   */\n      tag_36\n        /* \"#utility.yul\":840:841   */\n      0x00\n        /* \"#utility.yul\":829:838   */\n      dup4\n        /* \"#utility.yul\":825:842   */\n      add\n        /* \"#utility.yul\":816:822   */\n      dup7\n        /* \"#utility.yul\":772:843   */\n      tag_22\n      jump\t// in\n    tag_36:\n        /* \"#utility.yul\":853:925   */\n      tag_37\n        /* \"#utility.yul\":921:923   */\n      0x20\n        /* \"#utility.yul\":910:919   */\n      dup4\n        /* \"#utility.yul\":906:924   */\n      add\n        /* \"#utility.yul\":897:903   */\n      dup6\n        /* \"#utility.yul\":853:925   */\n      tag_22\n      jump\t// in\n    tag_37:\n        /* \"#utility.yul\":935:1007   */\n      tag_38\n        /* \"#utility.yul\":1003:1005   */\n      0x40\n        /* \"#utility.yul\":992:1001   */\n      dup4\n        /* \"#utility.yul\":988:1006   */\n      add\n        /* \"#utility.yul\":979:985   */\n      dup5\n        /* \"#utility.yul\":935:1007   */\n      tag_25\n      jump\t// in\n    tag_38:\n        /* \"#utility.yul\":572:1014   */\n      swap5\n      swap4\n      pop\n      pop\n      pop\n      pop\n      jump\t// out\n\n    auxdata: 0xa264697066735822122098d0399a2d61e8e8f33676391dd7e75c70013eea0d90ba016b8c3e0a4db5983664736f6c63430008120033\n}\n",
				"bytecode": {
					"linkReferences": {},
					"object": "608060405234801561001057600080fd5b50610356806100206000396000f3fe608060405234801561001057600080fd5b506004361061004c5760003560e01c80630784125b14610051578063b1976a021461005b578063e56460dd1461007b578063f6f2004614610085575b600080fd5b61005961008f565b005b6100636100fe565b604051610072939291906102e9565b60405180910390f35b61008361013f565b005b61008d6101e7565b005b60636000800181905550606e600060010181905550735b38da6a701c568545dcfcb03fcb875f56beddc4600060020160006101000a81548173ffffffffffffffffffffffffffffffffffffffff021916908373ffffffffffffffffffffffffffffffffffffffff160217905550565b60008060008060000154600060010154600060020160009054906101000a900473ffffffffffffffffffffffffffffffffffffffff16925092509250909192565b6040518060600160405280605a815260200160648152602001735b38da6a701c568545dcfcb03fcb875f56beddc473ffffffffffffffffffffffffffffffffffffffff1681525060008082015181600001556020820151816001015560408201518160020160006101000a81548173ffffffffffffffffffffffffffffffffffffffff021916908373ffffffffffffffffffffffffffffffffffffffff160217905550905050565b60405180606001604052806014815260200160438152602001735b38da6a701c568545dcfcb03fcb875f56beddc473ffffffffffffffffffffffffffffffffffffffff1681525060008082015181600001556020820151816001015560408201518160020160006101000a81548173ffffffffffffffffffffffffffffffffffffffff021916908373ffffffffffffffffffffffffffffffffffffffff160217905550905050565b6000819050919050565b6102a28161028f565b82525050565b600073ffffffffffffffffffffffffffffffffffffffff82169050919050565b60006102d3826102a8565b9050919050565b6102e3816102c8565b82525050565b60006060820190506102fe6000830186610299565b61030b6020830185610299565b61031860408301846102da565b94935050505056fea264697066735822122098d0399a2d61e8e8f33676391dd7e75c70013eea0d90ba016b8c3e0a4db5983664736f6c63430008120033",
					"opcodes": "PUSH1 0x80 PUSH1 0x40 MSTORE CALLVALUE DUP1 ISZERO PUSH2 0x10 JUMPI PUSH1 0x0 DUP1 REVERT JUMPDEST POP PUSH2 0x356 DUP1 PUSH2 0x20 PUSH1 0x0 CODECOPY PUSH1 0x0 RETURN INVALID PUSH1 0x80 PUSH1 0x40 MSTORE CALLVALUE DUP1 ISZERO PUSH2 0x10 JUMPI PUSH1 0x0 DUP1 REVERT JUMPDEST POP PUSH1 0x4 CALLDATASIZE LT PUSH2 0x4C JUMPI PUSH1 0x0 CALLDATALOAD PUSH1 0xE0 SHR DUP1 PUSH4 0x784125B EQ PUSH2 0x51 JUMPI DUP1 PUSH4 0xB1976A02 EQ PUSH2 0x5B JUMPI DUP1 PUSH4 0xE56460DD EQ PUSH2 0x7B JUMPI DUP1 PUSH4 0xF6F20046 EQ PUSH2 0x85 JUMPI JUMPDEST PUSH1 0x0 DUP1 REVERT JUMPDEST PUSH2 0x59 PUSH2 0x8F JUMP JUMPDEST STOP JUMPDEST PUSH2 0x63 PUSH2 0xFE JUMP JUMPDEST PUSH1 0x40 MLOAD PUSH2 0x72 SWAP4 SWAP3 SWAP2 SWAP1 PUSH2 0x2E9 JUMP JUMPDEST PUSH1 0x40 MLOAD DUP1 SWAP2 SUB SWAP1 RETURN JUMPDEST PUSH2 0x83 PUSH2 0x13F JUMP JUMPDEST STOP JUMPDEST PUSH2 0x8D PUSH2 0x1E7 JUMP JUMPDEST STOP JUMPDEST PUSH1 0x63 PUSH1 0x0 DUP1 ADD DUP2 SWAP1 SSTORE POP PUSH1 0x6E PUSH1 0x0 PUSH1 0x1 ADD DUP2 SWAP1 SSTORE POP PUSH20 0x5B38DA6A701C568545DCFCB03FCB875F56BEDDC4 PUSH1 0x0 PUSH1 0x2 ADD PUSH1 0x0 PUSH2 0x100 EXP DUP2 SLOAD DUP2 PUSH20 0xFFFFFFFFFFFFFFFFFFFFFFFFFFFFFFFFFFFFFFFF MUL NOT AND SWAP1 DUP4 PUSH20 0xFFFFFFFFFFFFFFFFFFFFFFFFFFFFFFFFFFFFFFFF AND MUL OR SWAP1 SSTORE POP JUMP JUMPDEST PUSH1 0x0 DUP1 PUSH1 0x0 DUP1 PUSH1 0x0 ADD SLOAD PUSH1 0x0 PUSH1 0x1 ADD SLOAD PUSH1 0x0 PUSH1 0x2 ADD PUSH1 0x0 SWAP1 SLOAD SWAP1 PUSH2 0x100 EXP SWAP1 DIV PUSH20 0xFFFFFFFFFFFFFFFFFFFFFFFFFFFFFFFFFFFFFFFF AND SWAP3 POP SWAP3 POP SWAP3 POP SWAP1 SWAP2 SWAP3 JUMP JUMPDEST PUSH1 0x40 MLOAD DUP1 PUSH1 0x60 ADD PUSH1 0x40 MSTORE DUP1 PUSH1 0x5A DUP2 MSTORE PUSH1 0x20 ADD PUSH1 0x64 DUP2 MSTORE PUSH1 0x20 ADD PUSH20 0x5B38DA6A701C568545DCFCB03FCB875F56BEDDC4 PUSH20 0xFFFFFFFFFFFFFFFFFFFFFFFFFFFFFFFFFFFFFFFF AND DUP2 MSTORE POP PUSH1 0x0 DUP1 DUP3 ADD MLOAD DUP2 PUSH1 0x0 ADD SSTORE PUSH1 0x20 DUP3 ADD MLOAD DUP2 PUSH1 0x1 ADD SSTORE PUSH1 0x40 DUP3 ADD MLOAD DUP2 PUSH1 0x2 ADD PUSH1 0x0 PUSH2 0x100 EXP DUP2 SLOAD DUP2 PUSH20 0xFFFFFFFFFFFFFFFFFFFFFFFFFFFFFFFFFFFFFFFF MUL NOT AND SWAP1 DUP4 PUSH20 0xFFFFFFFFFFFFFFFFFFFFFFFFFFFFFFFFFFFFFFFF AND MUL OR SWAP1 SSTORE POP SWAP1 POP POP JUMP JUMPDEST PUSH1 0x40 MLOAD DUP1 PUSH1 0x60 ADD PUSH1 0x40 MSTORE DUP1 PUSH1 0x14 DUP2 MSTORE PUSH1 0x20 ADD PUSH1 0x43 DUP2 MSTORE PUSH1 0x20 ADD PUSH20 0x5B38DA6A701C568545DCFCB03FCB875F56BEDDC4 PUSH20 0xFFFFFFFFFFFFFFFFFFFFFFFFFFFFFFFFFFFFFFFF AND DUP2 MSTORE POP PUSH1 0x0 DUP1 DUP3 ADD MLOAD DUP2 PUSH1 0x0 ADD SSTORE PUSH1 0x20 DUP3 ADD MLOAD DUP2 PUSH1 0x1 ADD SSTORE PUSH1 0x40 DUP3 ADD MLOAD DUP2 PUSH1 0x2 ADD PUSH1 0x0 PUSH2 0x100 EXP DUP2 SLOAD DUP2 PUSH20 0xFFFFFFFFFFFFFFFFFFFFFFFFFFFFFFFFFFFFFFFF MUL NOT AND SWAP1 DUP4 PUSH20 0xFFFFFFFFFFFFFFFFFFFFFFFFFFFFFFFFFFFFFFFF AND MUL OR SWAP1 SSTORE POP SWAP1 POP POP JUMP JUMPDEST PUSH1 0x0 DUP2 SWAP1 POP SWAP2 SWAP1 POP JUMP JUMPDEST PUSH2 0x2A2 DUP2 PUSH2 0x28F JUMP JUMPDEST DUP3 MSTORE POP POP JUMP JUMPDEST PUSH1 0x0 PUSH20 0xFFFFFFFFFFFFFFFFFFFFFFFFFFFFFFFFFFFFFFFF DUP3 AND SWAP1 POP SWAP2 SWAP1 POP JUMP JUMPDEST PUSH1 0x0 PUSH2 0x2D3 DUP3 PUSH2 0x2A8 JUMP JUMPDEST SWAP1 POP SWAP2 SWAP1 POP JUMP JUMPDEST PUSH2 0x2E3 DUP2 PUSH2 0x2C8 JUMP JUMPDEST DUP3 MSTORE POP POP JUMP JUMPDEST PUSH1 0x0 PUSH1 0x60 DUP3 ADD SWAP1 POP PUSH2 0x2FE PUSH1 0x0 DUP4 ADD DUP7 PUSH2 0x299 JUMP JUMPDEST PUSH2 0x30B PUSH1 0x20 DUP4 ADD DUP6 PUSH2 0x299 JUMP JUMPDEST PUSH2 0x318 PUSH1 0x40 DUP4 ADD DUP5 PUSH2 0x2DA JUMP JUMPDEST SWAP5 SWAP4 POP POP POP POP JUMP INVALID LOG2 PUSH5 0x6970667358 0x22 SLT KECCAK256 SWAP9 0xD0 CODECOPY SWAP11 0x2D PUSH2 0xE8E8 RETURN CALLDATASIZE PUSH23 0x391DD7E75C70013EEA0D90BA016B8C3E0A4DB598366473 PUSH16 0x6C634300081200330000000000000000 "
				},
				"gasEstimates": {
					"creation": {
						"codeDepositCost": "170800",
						"executionCost": "214",
						"totalCost": "171014"
					},
					"external": {
						"Get()": "infinite",
						"Method2()": "68635",
						"Method3()": "68783",
						"Method4()": "68805"
					}
				},
				"methodIdentifiers": {
					"Get()": "b1976a02",
					"Method2()": "0784125b",
					"Method3()": "e56460dd",
					"Method4()": "f6f20046"
				}
			},
			"storageLayout": {
				"storage": [
					{
						"astId": 11,
						"contract": "Task 2 lab1 .sol:Bank",
						"label": "bankAccount",
						"offset": 0,
						"slot": "0",
						"type": "t_struct(BankAccount)8_storage"
					}
				],
				"types": {
					"t_address": {
						"encoding": "inplace",
						"label": "address",
						"numberOfBytes": "20"
					},
					"t_struct(BankAccount)8_storage": {
						"encoding": "inplace",
						"label": "struct Bank.BankAccount",
						"members": [
							{
								"astId": 3,
								"contract": "Task 2 lab1 .sol:Bank",
								"label": "AccountID",
								"offset": 0,
								"slot": "0",
								"type": "t_uint256"
							},
							{
								"astId": 5,
								"contract": "Task 2 lab1 .sol:Bank",
								"label": "Balance",
								"offset": 0,
								"slot": "1",
								"type": "t_uint256"
							},
							{
								"astId": 7,
								"contract": "Task 2 lab1 .sol:Bank",
								"label": "Owner",
								"offset": 0,
								"slot": "2",
								"type": "t_address"
							}
						],
						"numberOfBytes": "96"
					},
					"t_uint256": {
						"encoding": "inplace",
						"label": "uint256",
						"numberOfBytes": "32"
					}
				}
			},
			"userdoc": {
				"kind": "user",
				"methods": {},
				"version": 1
			}
		}
	}
}