{
	"Task 1 lab7.sol": {
		"Maper": {
			"abi": [
				{
					"inputs": [
						{
							"internalType": "string",
							"name": "",
							"type": "string"
						}
					],
					"name": "Mapper",
					"outputs": [
						{
							"internalType": "uint256",
							"name": "",
							"type": "uint256"
						}
					],
					"stateMutability": "view",
					"type": "function"
				},
				{
					"inputs": [
						{
							"internalType": "string",
							"name": "",
							"type": "string"
						},
						{
							"internalType": "address",
							"name": "",
							"type": "address"
						}
					],
					"name": "Mappers",
					"outputs": [
						{
							"internalType": "address",
							"name": "",
							"type": "address"
						}
					],
					"stateMutability": "view",
					"type": "function"
				},
				{
					"inputs": [
						{
							"internalType": "string",
							"name": "_name",
							"type": "string"
						}
					],
					"name": "get",
					"outputs": [
						{
							"internalType": "uint256",
							"name": "",
							"type": "uint256"
						}
					],
					"stateMutability": "view",
					"type": "function"
				},
				{
					"inputs": [
						{
							"internalType": "string",
							"name": "_name",
							"type": "string"
						}
					],
					"name": "reset",
					"outputs": [],
					"stateMutability": "nonpayable",
					"type": "function"
				},
				{
					"inputs": [
						{
							"internalType": "string",
							"name": "_name",
							"type": "string"
						},
						{
							"internalType": "uint256",
							"name": "_uint",
							"type": "uint256"
						}
					],
					"name": "set",
					"outputs": [],
					"stateMutability": "nonpayable",
					"type": "function"
				}
			],
			"devdoc": {
				"kind": "dev",
				"methods": {},
				"version": 1
			},
			"evm": {
				"assembly": "    /* \"Task 1 lab7.sol\":59:483  contract Maper {... */\n  mstore(0x40, 0x80)\n  callvalue\n  dup1\n  iszero\n  tag_1\n  jumpi\n  0x00\n  dup1\n  revert\ntag_1:\n  pop\n  dataSize(sub_0)\n  dup1\n  dataOffset(sub_0)\n  0x00\n  codecopy\n  0x00\n  return\nstop\n\nsub_0: assembly {\n        /* \"Task 1 lab7.sol\":59:483  contract Maper {... */\n      mstore(0x40, 0x80)\n      callvalue\n      dup1\n      iszero\n      tag_1\n      jumpi\n      0x00\n      dup1\n      revert\n    tag_1:\n      pop\n      jumpi(tag_2, lt(calldatasize, 0x04))\n      shr(0xe0, calldataload(0x00))\n      dup1\n      0x693ec85e\n      eq\n      tag_3\n      jumpi\n      dup1\n      0x8a42ebe9\n      eq\n      tag_4\n      jumpi\n      dup1\n      0xcceb0e01\n      eq\n      tag_5\n      jumpi\n      dup1\n      0xd6d90498\n      eq\n      tag_6\n      jumpi\n      dup1\n      0xfece7530\n      eq\n      tag_7\n      jumpi\n    tag_2:\n      0x00\n      dup1\n      revert\n        /* \"Task 1 lab7.sol\":221:319  function get(string memory _name) public view returns(uint){... */\n    tag_3:\n      tag_8\n      0x04\n      dup1\n      calldatasize\n      sub\n      dup2\n      add\n      swap1\n      tag_9\n      swap2\n      swap1\n      tag_10\n      jump\t// in\n    tag_9:\n      tag_11\n      jump\t// in\n    tag_8:\n      mload(0x40)\n      tag_12\n      swap2\n      swap1\n      tag_13\n      jump\t// in\n    tag_12:\n      mload(0x40)\n      dup1\n      swap2\n      sub\n      swap1\n      return\n        /* \"Task 1 lab7.sol\":124:215  function set(string memory _name, uint _uint) public{... */\n    tag_4:\n      tag_14\n      0x04\n      dup1\n      calldatasize\n      sub\n      dup2\n      add\n      swap1\n      tag_15\n      swap2\n      swap1\n      tag_16\n      jump\t// in\n    tag_15:\n      tag_17\n      jump\t// in\n    tag_14:\n      stop\n        /* \"Task 1 lab7.sol\":81:117  mapping(string=> uint) public Mapper */\n    tag_5:\n      tag_18\n      0x04\n      dup1\n      calldatasize\n      sub\n      dup2\n      add\n      swap1\n      tag_19\n      swap2\n      swap1\n      tag_10\n      jump\t// in\n    tag_19:\n      tag_20\n      jump\t// in\n    tag_18:\n      mload(0x40)\n      tag_21\n      swap2\n      swap1\n      tag_13\n      jump\t// in\n    tag_21:\n      mload(0x40)\n      dup1\n      swap2\n      sub\n      swap1\n      return\n        /* \"Task 1 lab7.sol\":325:407  function reset(string memory _name) public {... */\n    tag_6:\n      tag_22\n      0x04\n      dup1\n      calldatasize\n      sub\n      dup2\n      add\n      swap1\n      tag_23\n      swap2\n      swap1\n      tag_10\n      jump\t// in\n    tag_23:\n      tag_24\n      jump\t// in\n    tag_22:\n      stop\n        /* \"Task 1 lab7.sol\":415:477  mapping(string => mapping (address => address)) public Mappers */\n    tag_7:\n      tag_25\n      0x04\n      dup1\n      calldatasize\n      sub\n      dup2\n      add\n      swap1\n      tag_26\n      swap2\n      swap1\n      tag_27\n      jump\t// in\n    tag_26:\n      tag_28\n      jump\t// in\n    tag_25:\n      mload(0x40)\n      tag_29\n      swap2\n      swap1\n      tag_30\n      jump\t// in\n    tag_29:\n      mload(0x40)\n      dup1\n      swap2\n      sub\n      swap1\n      return\n        /* \"Task 1 lab7.sol\":221:319  function get(string memory _name) public view returns(uint){... */\n    tag_11:\n        /* \"Task 1 lab7.sol\":275:279  uint */\n      0x00\n        /* \"Task 1 lab7.sol\":298:304  Mapper */\n      dup1\n        /* \"Task 1 lab7.sol\":305:310  _name */\n      dup3\n        /* \"Task 1 lab7.sol\":298:311  Mapper[_name] */\n      mload(0x40)\n      tag_32\n      swap2\n      swap1\n      tag_33\n      jump\t// in\n    tag_32:\n      swap1\n      dup2\n      mstore\n      0x20\n      add\n      mload(0x40)\n      dup1\n      swap2\n      sub\n      swap1\n      keccak256\n      sload\n        /* \"Task 1 lab7.sol\":291:311  return Mapper[_name] */\n      swap1\n      pop\n        /* \"Task 1 lab7.sol\":221:319  function get(string memory _name) public view returns(uint){... */\n      swap2\n      swap1\n      pop\n      jump\t// out\n        /* \"Task 1 lab7.sol\":124:215  function set(string memory _name, uint _uint) public{... */\n    tag_17:\n        /* \"Task 1 lab7.sol\":202:207  _uint */\n      dup1\n        /* \"Task 1 lab7.sol\":186:192  Mapper */\n      0x00\n        /* \"Task 1 lab7.sol\":193:198  _name */\n      dup4\n        /* \"Task 1 lab7.sol\":186:199  Mapper[_name] */\n      mload(0x40)\n      tag_35\n      swap2\n      swap1\n      tag_33\n      jump\t// in\n    tag_35:\n      swap1\n      dup2\n      mstore\n      0x20\n      add\n      mload(0x40)\n      dup1\n      swap2\n      sub\n      swap1\n      keccak256\n        /* \"Task 1 lab7.sol\":186:207  Mapper[_name] = _uint */\n      dup2\n      swap1\n      sstore\n      pop\n        /* \"Task 1 lab7.sol\":124:215  function set(string memory _name, uint _uint) public{... */\n      pop\n      pop\n      jump\t// out\n        /* \"Task 1 lab7.sol\":81:117  mapping(string=> uint) public Mapper */\n    tag_20:\n      0x00\n      dup2\n      dup1\n      mload\n      0x20\n      dup2\n      add\n      dup3\n      add\n      dup1\n      mload\n      dup5\n      dup3\n      mstore\n      0x20\n      dup4\n      add\n      0x20\n      dup6\n      add\n      keccak256\n      dup2\n      dup4\n      mstore\n      dup1\n      swap6\n      pop\n      pop\n      pop\n      pop\n      pop\n      pop\n      0x00\n      swap2\n      pop\n      swap1\n      pop\n      sload\n      dup2\n      jump\t// out\n        /* \"Task 1 lab7.sol\":325:407  function reset(string memory _name) public {... */\n    tag_24:\n        /* \"Task 1 lab7.sol\":386:392  Mapper */\n      0x00\n        /* \"Task 1 lab7.sol\":393:398  _name */\n      dup2\n        /* \"Task 1 lab7.sol\":386:399  Mapper[_name] */\n      mload(0x40)\n      tag_37\n      swap2\n      swap1\n      tag_33\n      jump\t// in\n    tag_37:\n      swap1\n      dup2\n      mstore\n      0x20\n      add\n      mload(0x40)\n      dup1\n      swap2\n      sub\n      swap1\n      keccak256\n        /* \"Task 1 lab7.sol\":379:399  delete Mapper[_name] */\n      0x00\n      swap1\n      sstore\n        /* \"Task 1 lab7.sol\":325:407  function reset(string memory _name) public {... */\n      pop\n      jump\t// out\n        /* \"Task 1 lab7.sol\":415:477  mapping(string => mapping (address => address)) public Mappers */\n    tag_28:\n      0x01\n      dup3\n      dup1\n      mload\n      0x20\n      dup2\n      add\n      dup3\n      add\n      dup1\n      mload\n      dup5\n      dup3\n      mstore\n      0x20\n      dup4\n      add\n      0x20\n      dup6\n      add\n      keccak256\n      dup2\n      dup4\n      mstore\n      dup1\n      swap6\n      pop\n      pop\n      pop\n      pop\n      pop\n      pop\n      0x20\n      mstore\n      dup1\n      0x00\n      mstore\n      keccak256(0x00, 0x40)\n      0x00\n      swap2\n      pop\n      swap2\n      pop\n      swap1\n      sload\n      swap1\n      0x0100\n      exp\n      swap1\n      div\n      0xffffffffffffffffffffffffffffffffffffffff\n      and\n      dup2\n      jump\t// out\n        /* \"#utility.yul\":7:82   */\n    tag_38:\n        /* \"#utility.yul\":40:46   */\n      0x00\n        /* \"#utility.yul\":73:75   */\n      0x40\n        /* \"#utility.yul\":67:76   */\n      mload\n        /* \"#utility.yul\":57:76   */\n      swap1\n      pop\n        /* \"#utility.yul\":7:82   */\n      swap1\n      jump\t// out\n        /* \"#utility.yul\":88:205   */\n    tag_39:\n        /* \"#utility.yul\":197:198   */\n      0x00\n        /* \"#utility.yul\":194:195   */\n      dup1\n        /* \"#utility.yul\":187:199   */\n      revert\n        /* \"#utility.yul\":211:328   */\n    tag_40:\n        /* \"#utility.yul\":320:321   */\n      0x00\n        /* \"#utility.yul\":317:318   */\n      dup1\n        /* \"#utility.yul\":310:322   */\n      revert\n        /* \"#utility.yul\":334:451   */\n    tag_41:\n        /* \"#utility.yul\":443:444   */\n      0x00\n        /* \"#utility.yul\":440:441   */\n      dup1\n        /* \"#utility.yul\":433:445   */\n      revert\n        /* \"#utility.yul\":457:574   */\n    tag_42:\n        /* \"#utility.yul\":566:567   */\n      0x00\n        /* \"#utility.yul\":563:564   */\n      dup1\n        /* \"#utility.yul\":556:568   */\n      revert\n        /* \"#utility.yul\":580:682   */\n    tag_43:\n        /* \"#utility.yul\":621:627   */\n      0x00\n        /* \"#utility.yul\":672:674   */\n      0x1f\n        /* \"#utility.yul\":668:675   */\n      not\n        /* \"#utility.yul\":663:665   */\n      0x1f\n        /* \"#utility.yul\":656:661   */\n      dup4\n        /* \"#utility.yul\":652:666   */\n      add\n        /* \"#utility.yul\":648:676   */\n      and\n        /* \"#utility.yul\":638:676   */\n      swap1\n      pop\n        /* \"#utility.yul\":580:682   */\n      swap2\n      swap1\n      pop\n      jump\t// out\n        /* \"#utility.yul\":688:868   */\n    tag_44:\n        /* \"#utility.yul\":736:813   */\n      0x4e487b7100000000000000000000000000000000000000000000000000000000\n        /* \"#utility.yul\":733:734   */\n      0x00\n        /* \"#utility.yul\":726:814   */\n      mstore\n        /* \"#utility.yul\":833:837   */\n      0x41\n        /* \"#utility.yul\":830:831   */\n      0x04\n        /* \"#utility.yul\":823:838   */\n      mstore\n        /* \"#utility.yul\":857:861   */\n      0x24\n        /* \"#utility.yul\":854:855   */\n      0x00\n        /* \"#utility.yul\":847:862   */\n      revert\n        /* \"#utility.yul\":874:1155   */\n    tag_45:\n        /* \"#utility.yul\":957:984   */\n      tag_73\n        /* \"#utility.yul\":979:983   */\n      dup3\n        /* \"#utility.yul\":957:984   */\n      tag_43\n      jump\t// in\n    tag_73:\n        /* \"#utility.yul\":949:955   */\n      dup2\n        /* \"#utility.yul\":945:985   */\n      add\n        /* \"#utility.yul\":1087:1093   */\n      dup2\n        /* \"#utility.yul\":1075:1085   */\n      dup2\n        /* \"#utility.yul\":1072:1094   */\n      lt\n        /* \"#utility.yul\":1051:1069   */\n      0xffffffffffffffff\n        /* \"#utility.yul\":1039:1049   */\n      dup3\n        /* \"#utility.yul\":1036:1070   */\n      gt\n        /* \"#utility.yul\":1033:1095   */\n      or\n        /* \"#utility.yul\":1030:1118   */\n      iszero\n      tag_74\n      jumpi\n        /* \"#utility.yul\":1098:1116   */\n      tag_75\n      tag_44\n      jump\t// in\n    tag_75:\n        /* \"#utility.yul\":1030:1118   */\n    tag_74:\n        /* \"#utility.yul\":1138:1148   */\n      dup1\n        /* \"#utility.yul\":1134:1136   */\n      0x40\n        /* \"#utility.yul\":1127:1149   */\n      mstore\n        /* \"#utility.yul\":917:1155   */\n      pop\n        /* \"#utility.yul\":874:1155   */\n      pop\n      pop\n      jump\t// out\n        /* \"#utility.yul\":1161:1290   */\n    tag_46:\n        /* \"#utility.yul\":1195:1201   */\n      0x00\n        /* \"#utility.yul\":1222:1242   */\n      tag_77\n      tag_38\n      jump\t// in\n    tag_77:\n        /* \"#utility.yul\":1212:1242   */\n      swap1\n      pop\n        /* \"#utility.yul\":1251:1284   */\n      tag_78\n        /* \"#utility.yul\":1279:1283   */\n      dup3\n        /* \"#utility.yul\":1271:1277   */\n      dup3\n        /* \"#utility.yul\":1251:1284   */\n      tag_45\n      jump\t// in\n    tag_78:\n        /* \"#utility.yul\":1161:1290   */\n      swap2\n      swap1\n      pop\n      jump\t// out\n        /* \"#utility.yul\":1296:1604   */\n    tag_47:\n        /* \"#utility.yul\":1358:1362   */\n      0x00\n        /* \"#utility.yul\":1448:1466   */\n      0xffffffffffffffff\n        /* \"#utility.yul\":1440:1446   */\n      dup3\n        /* \"#utility.yul\":1437:1467   */\n      gt\n        /* \"#utility.yul\":1434:1490   */\n      iszero\n      tag_80\n      jumpi\n        /* \"#utility.yul\":1470:1488   */\n      tag_81\n      tag_44\n      jump\t// in\n    tag_81:\n        /* \"#utility.yul\":1434:1490   */\n    tag_80:\n        /* \"#utility.yul\":1508:1537   */\n      tag_82\n        /* \"#utility.yul\":1530:1536   */\n      dup3\n        /* \"#utility.yul\":1508:1537   */\n      tag_43\n      jump\t// in\n    tag_82:\n        /* \"#utility.yul\":1500:1537   */\n      swap1\n      pop\n        /* \"#utility.yul\":1592:1596   */\n      0x20\n        /* \"#utility.yul\":1586:1590   */\n      dup2\n        /* \"#utility.yul\":1582:1597   */\n      add\n        /* \"#utility.yul\":1574:1597   */\n      swap1\n      pop\n        /* \"#utility.yul\":1296:1604   */\n      swap2\n      swap1\n      pop\n      jump\t// out\n        /* \"#utility.yul\":1610:1756   */\n    tag_48:\n        /* \"#utility.yul\":1707:1713   */\n      dup3\n        /* \"#utility.yul\":1702:1705   */\n      dup2\n        /* \"#utility.yul\":1697:1700   */\n      dup4\n        /* \"#utility.yul\":1684:1714   */\n      calldatacopy\n        /* \"#utility.yul\":1748:1749   */\n      0x00\n        /* \"#utility.yul\":1739:1745   */\n      dup4\n        /* \"#utility.yul\":1734:1737   */\n      dup4\n        /* \"#utility.yul\":1730:1746   */\n      add\n        /* \"#utility.yul\":1723:1750   */\n      mstore\n        /* \"#utility.yul\":1610:1756   */\n      pop\n      pop\n      pop\n      jump\t// out\n        /* \"#utility.yul\":1762:2187   */\n    tag_49:\n        /* \"#utility.yul\":1840:1845   */\n      0x00\n        /* \"#utility.yul\":1865:1931   */\n      tag_85\n        /* \"#utility.yul\":1881:1930   */\n      tag_86\n        /* \"#utility.yul\":1923:1929   */\n      dup5\n        /* \"#utility.yul\":1881:1930   */\n      tag_47\n      jump\t// in\n    tag_86:\n        /* \"#utility.yul\":1865:1931   */\n      tag_46\n      jump\t// in\n    tag_85:\n        /* \"#utility.yul\":1856:1931   */\n      swap1\n      pop\n        /* \"#utility.yul\":1954:1960   */\n      dup3\n        /* \"#utility.yul\":1947:1952   */\n      dup2\n        /* \"#utility.yul\":1940:1961   */\n      mstore\n        /* \"#utility.yul\":1992:1996   */\n      0x20\n        /* \"#utility.yul\":1985:1990   */\n      dup2\n        /* \"#utility.yul\":1981:1997   */\n      add\n        /* \"#utility.yul\":2030:2033   */\n      dup5\n        /* \"#utility.yul\":2021:2027   */\n      dup5\n        /* \"#utility.yul\":2016:2019   */\n      dup5\n        /* \"#utility.yul\":2012:2028   */\n      add\n        /* \"#utility.yul\":2009:2034   */\n      gt\n        /* \"#utility.yul\":2006:2118   */\n      iszero\n      tag_87\n      jumpi\n        /* \"#utility.yul\":2037:2116   */\n      tag_88\n      tag_42\n      jump\t// in\n    tag_88:\n        /* \"#utility.yul\":2006:2118   */\n    tag_87:\n        /* \"#utility.yul\":2127:2181   */\n      tag_89\n        /* \"#utility.yul\":2174:2180   */\n      dup5\n        /* \"#utility.yul\":2169:2172   */\n      dup3\n        /* \"#utility.yul\":2164:2167   */\n      dup6\n        /* \"#utility.yul\":2127:2181   */\n      tag_48\n      jump\t// in\n    tag_89:\n        /* \"#utility.yul\":1846:2187   */\n      pop\n        /* \"#utility.yul\":1762:2187   */\n      swap4\n      swap3\n      pop\n      pop\n      pop\n      jump\t// out\n        /* \"#utility.yul\":2207:2547   */\n    tag_50:\n        /* \"#utility.yul\":2263:2268   */\n      0x00\n        /* \"#utility.yul\":2312:2315   */\n      dup3\n        /* \"#utility.yul\":2305:2309   */\n      0x1f\n        /* \"#utility.yul\":2297:2303   */\n      dup4\n        /* \"#utility.yul\":2293:2310   */\n      add\n        /* \"#utility.yul\":2289:2316   */\n      slt\n        /* \"#utility.yul\":2279:2401   */\n      tag_91\n      jumpi\n        /* \"#utility.yul\":2320:2399   */\n      tag_92\n      tag_41\n      jump\t// in\n    tag_92:\n        /* \"#utility.yul\":2279:2401   */\n    tag_91:\n        /* \"#utility.yul\":2437:2443   */\n      dup2\n        /* \"#utility.yul\":2424:2444   */\n      calldataload\n        /* \"#utility.yul\":2462:2541   */\n      tag_93\n        /* \"#utility.yul\":2537:2540   */\n      dup5\n        /* \"#utility.yul\":2529:2535   */\n      dup3\n        /* \"#utility.yul\":2522:2526   */\n      0x20\n        /* \"#utility.yul\":2514:2520   */\n      dup7\n        /* \"#utility.yul\":2510:2527   */\n      add\n        /* \"#utility.yul\":2462:2541   */\n      tag_49\n      jump\t// in\n    tag_93:\n        /* \"#utility.yul\":2453:2541   */\n      swap2\n      pop\n        /* \"#utility.yul\":2269:2547   */\n      pop\n        /* \"#utility.yul\":2207:2547   */\n      swap3\n      swap2\n      pop\n      pop\n      jump\t// out\n        /* \"#utility.yul\":2553:3062   */\n    tag_10:\n        /* \"#utility.yul\":2622:2628   */\n      0x00\n        /* \"#utility.yul\":2671:2673   */\n      0x20\n        /* \"#utility.yul\":2659:2668   */\n      dup3\n        /* \"#utility.yul\":2650:2657   */\n      dup5\n        /* \"#utility.yul\":2646:2669   */\n      sub\n        /* \"#utility.yul\":2642:2674   */\n      slt\n        /* \"#utility.yul\":2639:2758   */\n      iszero\n      tag_95\n      jumpi\n        /* \"#utility.yul\":2677:2756   */\n      tag_96\n      tag_39\n      jump\t// in\n    tag_96:\n        /* \"#utility.yul\":2639:2758   */\n    tag_95:\n        /* \"#utility.yul\":2825:2826   */\n      0x00\n        /* \"#utility.yul\":2814:2823   */\n      dup3\n        /* \"#utility.yul\":2810:2827   */\n      add\n        /* \"#utility.yul\":2797:2828   */\n      calldataload\n        /* \"#utility.yul\":2855:2873   */\n      0xffffffffffffffff\n        /* \"#utility.yul\":2847:2853   */\n      dup2\n        /* \"#utility.yul\":2844:2874   */\n      gt\n        /* \"#utility.yul\":2841:2958   */\n      iszero\n      tag_97\n      jumpi\n        /* \"#utility.yul\":2877:2956   */\n      tag_98\n      tag_40\n      jump\t// in\n    tag_98:\n        /* \"#utility.yul\":2841:2958   */\n    tag_97:\n        /* \"#utility.yul\":2982:3045   */\n      tag_99\n        /* \"#utility.yul\":3037:3044   */\n      dup5\n        /* \"#utility.yul\":3028:3034   */\n      dup3\n        /* \"#utility.yul\":3017:3026   */\n      dup6\n        /* \"#utility.yul\":3013:3035   */\n      add\n        /* \"#utility.yul\":2982:3045   */\n      tag_50\n      jump\t// in\n    tag_99:\n        /* \"#utility.yul\":2972:3045   */\n      swap2\n      pop\n        /* \"#utility.yul\":2768:3055   */\n      pop\n        /* \"#utility.yul\":2553:3062   */\n      swap3\n      swap2\n      pop\n      pop\n      jump\t// out\n        /* \"#utility.yul\":3068:3145   */\n    tag_51:\n        /* \"#utility.yul\":3105:3112   */\n      0x00\n        /* \"#utility.yul\":3134:3139   */\n      dup2\n        /* \"#utility.yul\":3123:3139   */\n      swap1\n      pop\n        /* \"#utility.yul\":3068:3145   */\n      swap2\n      swap1\n      pop\n      jump\t// out\n        /* \"#utility.yul\":3151:3269   */\n    tag_52:\n        /* \"#utility.yul\":3238:3262   */\n      tag_102\n        /* \"#utility.yul\":3256:3261   */\n      dup2\n        /* \"#utility.yul\":3238:3262   */\n      tag_51\n      jump\t// in\n    tag_102:\n        /* \"#utility.yul\":3233:3236   */\n      dup3\n        /* \"#utility.yul\":3226:3263   */\n      mstore\n        /* \"#utility.yul\":3151:3269   */\n      pop\n      pop\n      jump\t// out\n        /* \"#utility.yul\":3275:3497   */\n    tag_13:\n        /* \"#utility.yul\":3368:3372   */\n      0x00\n        /* \"#utility.yul\":3406:3408   */\n      0x20\n        /* \"#utility.yul\":3395:3404   */\n      dup3\n        /* \"#utility.yul\":3391:3409   */\n      add\n        /* \"#utility.yul\":3383:3409   */\n      swap1\n      pop\n        /* \"#utility.yul\":3419:3490   */\n      tag_104\n        /* \"#utility.yul\":3487:3488   */\n      0x00\n        /* \"#utility.yul\":3476:3485   */\n      dup4\n        /* \"#utility.yul\":3472:3489   */\n      add\n        /* \"#utility.yul\":3463:3469   */\n      dup5\n        /* \"#utility.yul\":3419:3490   */\n      tag_52\n      jump\t// in\n    tag_104:\n        /* \"#utility.yul\":3275:3497   */\n      swap3\n      swap2\n      pop\n      pop\n      jump\t// out\n        /* \"#utility.yul\":3503:3625   */\n    tag_53:\n        /* \"#utility.yul\":3576:3600   */\n      tag_106\n        /* \"#utility.yul\":3594:3599   */\n      dup2\n        /* \"#utility.yul\":3576:3600   */\n      tag_51\n      jump\t// in\n    tag_106:\n        /* \"#utility.yul\":3569:3574   */\n      dup2\n        /* \"#utility.yul\":3566:3601   */\n      eq\n        /* \"#utility.yul\":3556:3619   */\n      tag_107\n      jumpi\n        /* \"#utility.yul\":3615:3616   */\n      0x00\n        /* \"#utility.yul\":3612:3613   */\n      dup1\n        /* \"#utility.yul\":3605:3617   */\n      revert\n        /* \"#utility.yul\":3556:3619   */\n    tag_107:\n        /* \"#utility.yul\":3503:3625   */\n      pop\n      jump\t// out\n        /* \"#utility.yul\":3631:3770   */\n    tag_54:\n        /* \"#utility.yul\":3677:3682   */\n      0x00\n        /* \"#utility.yul\":3715:3721   */\n      dup2\n        /* \"#utility.yul\":3702:3722   */\n      calldataload\n        /* \"#utility.yul\":3693:3722   */\n      swap1\n      pop\n        /* \"#utility.yul\":3731:3764   */\n      tag_109\n        /* \"#utility.yul\":3758:3763   */\n      dup2\n        /* \"#utility.yul\":3731:3764   */\n      tag_53\n      jump\t// in\n    tag_109:\n        /* \"#utility.yul\":3631:3770   */\n      swap3\n      swap2\n      pop\n      pop\n      jump\t// out\n        /* \"#utility.yul\":3776:4430   */\n    tag_16:\n        /* \"#utility.yul\":3854:3860   */\n      0x00\n        /* \"#utility.yul\":3862:3868   */\n      dup1\n        /* \"#utility.yul\":3911:3913   */\n      0x40\n        /* \"#utility.yul\":3899:3908   */\n      dup4\n        /* \"#utility.yul\":3890:3897   */\n      dup6\n        /* \"#utility.yul\":3886:3909   */\n      sub\n        /* \"#utility.yul\":3882:3914   */\n      slt\n        /* \"#utility.yul\":3879:3998   */\n      iszero\n      tag_111\n      jumpi\n        /* \"#utility.yul\":3917:3996   */\n      tag_112\n      tag_39\n      jump\t// in\n    tag_112:\n        /* \"#utility.yul\":3879:3998   */\n    tag_111:\n        /* \"#utility.yul\":4065:4066   */\n      0x00\n        /* \"#utility.yul\":4054:4063   */\n      dup4\n        /* \"#utility.yul\":4050:4067   */\n      add\n        /* \"#utility.yul\":4037:4068   */\n      calldataload\n        /* \"#utility.yul\":4095:4113   */\n      0xffffffffffffffff\n        /* \"#utility.yul\":4087:4093   */\n      dup2\n        /* \"#utility.yul\":4084:4114   */\n      gt\n        /* \"#utility.yul\":4081:4198   */\n      iszero\n      tag_113\n      jumpi\n        /* \"#utility.yul\":4117:4196   */\n      tag_114\n      tag_40\n      jump\t// in\n    tag_114:\n        /* \"#utility.yul\":4081:4198   */\n    tag_113:\n        /* \"#utility.yul\":4222:4285   */\n      tag_115\n        /* \"#utility.yul\":4277:4284   */\n      dup6\n        /* \"#utility.yul\":4268:4274   */\n      dup3\n        /* \"#utility.yul\":4257:4266   */\n      dup7\n        /* \"#utility.yul\":4253:4275   */\n      add\n        /* \"#utility.yul\":4222:4285   */\n      tag_50\n      jump\t// in\n    tag_115:\n        /* \"#utility.yul\":4212:4285   */\n      swap3\n      pop\n        /* \"#utility.yul\":4008:4295   */\n      pop\n        /* \"#utility.yul\":4334:4336   */\n      0x20\n        /* \"#utility.yul\":4360:4413   */\n      tag_116\n        /* \"#utility.yul\":4405:4412   */\n      dup6\n        /* \"#utility.yul\":4396:4402   */\n      dup3\n        /* \"#utility.yul\":4385:4394   */\n      dup7\n        /* \"#utility.yul\":4381:4403   */\n      add\n        /* \"#utility.yul\":4360:4413   */\n      tag_54\n      jump\t// in\n    tag_116:\n        /* \"#utility.yul\":4350:4413   */\n      swap2\n      pop\n        /* \"#utility.yul\":4305:4423   */\n      pop\n        /* \"#utility.yul\":3776:4430   */\n      swap3\n      pop\n      swap3\n      swap1\n      pop\n      jump\t// out\n        /* \"#utility.yul\":4436:4562   */\n    tag_55:\n        /* \"#utility.yul\":4473:4480   */\n      0x00\n        /* \"#utility.yul\":4513:4555   */\n      0xffffffffffffffffffffffffffffffffffffffff\n        /* \"#utility.yul\":4506:4511   */\n      dup3\n        /* \"#utility.yul\":4502:4556   */\n      and\n        /* \"#utility.yul\":4491:4556   */\n      swap1\n      pop\n        /* \"#utility.yul\":4436:4562   */\n      swap2\n      swap1\n      pop\n      jump\t// out\n        /* \"#utility.yul\":4568:4664   */\n    tag_56:\n        /* \"#utility.yul\":4605:4612   */\n      0x00\n        /* \"#utility.yul\":4634:4658   */\n      tag_119\n        /* \"#utility.yul\":4652:4657   */\n      dup3\n        /* \"#utility.yul\":4634:4658   */\n      tag_55\n      jump\t// in\n    tag_119:\n        /* \"#utility.yul\":4623:4658   */\n      swap1\n      pop\n        /* \"#utility.yul\":4568:4664   */\n      swap2\n      swap1\n      pop\n      jump\t// out\n        /* \"#utility.yul\":4670:4792   */\n    tag_57:\n        /* \"#utility.yul\":4743:4767   */\n      tag_121\n        /* \"#utility.yul\":4761:4766   */\n      dup2\n        /* \"#utility.yul\":4743:4767   */\n      tag_56\n      jump\t// in\n    tag_121:\n        /* \"#utility.yul\":4736:4741   */\n      dup2\n        /* \"#utility.yul\":4733:4768   */\n      eq\n        /* \"#utility.yul\":4723:4786   */\n      tag_122\n      jumpi\n        /* \"#utility.yul\":4782:4783   */\n      0x00\n        /* \"#utility.yul\":4779:4780   */\n      dup1\n        /* \"#utility.yul\":4772:4784   */\n      revert\n        /* \"#utility.yul\":4723:4786   */\n    tag_122:\n        /* \"#utility.yul\":4670:4792   */\n      pop\n      jump\t// out\n        /* \"#utility.yul\":4798:4937   */\n    tag_58:\n        /* \"#utility.yul\":4844:4849   */\n      0x00\n        /* \"#utility.yul\":4882:4888   */\n      dup2\n        /* \"#utility.yul\":4869:4889   */\n      calldataload\n        /* \"#utility.yul\":4860:4889   */\n      swap1\n      pop\n        /* \"#utility.yul\":4898:4931   */\n      tag_124\n        /* \"#utility.yul\":4925:4930   */\n      dup2\n        /* \"#utility.yul\":4898:4931   */\n      tag_57\n      jump\t// in\n    tag_124:\n        /* \"#utility.yul\":4798:4937   */\n      swap3\n      swap2\n      pop\n      pop\n      jump\t// out\n        /* \"#utility.yul\":4943:5597   */\n    tag_27:\n        /* \"#utility.yul\":5021:5027   */\n      0x00\n        /* \"#utility.yul\":5029:5035   */\n      dup1\n        /* \"#utility.yul\":5078:5080   */\n      0x40\n        /* \"#utility.yul\":5066:5075   */\n      dup4\n        /* \"#utility.yul\":5057:5064   */\n      dup6\n        /* \"#utility.yul\":5053:5076   */\n      sub\n        /* \"#utility.yul\":5049:5081   */\n      slt\n        /* \"#utility.yul\":5046:5165   */\n      iszero\n      tag_126\n      jumpi\n        /* \"#utility.yul\":5084:5163   */\n      tag_127\n      tag_39\n      jump\t// in\n    tag_127:\n        /* \"#utility.yul\":5046:5165   */\n    tag_126:\n        /* \"#utility.yul\":5232:5233   */\n      0x00\n        /* \"#utility.yul\":5221:5230   */\n      dup4\n        /* \"#utility.yul\":5217:5234   */\n      add\n        /* \"#utility.yul\":5204:5235   */\n      calldataload\n        /* \"#utility.yul\":5262:5280   */\n      0xffffffffffffffff\n        /* \"#utility.yul\":5254:5260   */\n      dup2\n        /* \"#utility.yul\":5251:5281   */\n      gt\n        /* \"#utility.yul\":5248:5365   */\n      iszero\n      tag_128\n      jumpi\n        /* \"#utility.yul\":5284:5363   */\n      tag_129\n      tag_40\n      jump\t// in\n    tag_129:\n        /* \"#utility.yul\":5248:5365   */\n    tag_128:\n        /* \"#utility.yul\":5389:5452   */\n      tag_130\n        /* \"#utility.yul\":5444:5451   */\n      dup6\n        /* \"#utility.yul\":5435:5441   */\n      dup3\n        /* \"#utility.yul\":5424:5433   */\n      dup7\n        /* \"#utility.yul\":5420:5442   */\n      add\n        /* \"#utility.yul\":5389:5452   */\n      tag_50\n      jump\t// in\n    tag_130:\n        /* \"#utility.yul\":5379:5452   */\n      swap3\n      pop\n        /* \"#utility.yul\":5175:5462   */\n      pop\n        /* \"#utility.yul\":5501:5503   */\n      0x20\n        /* \"#utility.yul\":5527:5580   */\n      tag_131\n        /* \"#utility.yul\":5572:5579   */\n      dup6\n        /* \"#utility.yul\":5563:5569   */\n      dup3\n        /* \"#utility.yul\":5552:5561   */\n      dup7\n        /* \"#utility.yul\":5548:5570   */\n      add\n        /* \"#utility.yul\":5527:5580   */\n      tag_58\n      jump\t// in\n    tag_131:\n        /* \"#utility.yul\":5517:5580   */\n      swap2\n      pop\n        /* \"#utility.yul\":5472:5590   */\n      pop\n        /* \"#utility.yul\":4943:5597   */\n      swap3\n      pop\n      swap3\n      swap1\n      pop\n      jump\t// out\n        /* \"#utility.yul\":5603:5721   */\n    tag_59:\n        /* \"#utility.yul\":5690:5714   */\n      tag_133\n        /* \"#utility.yul\":5708:5713   */\n      dup2\n        /* \"#utility.yul\":5690:5714   */\n      tag_56\n      jump\t// in\n    tag_133:\n        /* \"#utility.yul\":5685:5688   */\n      dup3\n        /* \"#utility.yul\":5678:5715   */\n      mstore\n        /* \"#utility.yul\":5603:5721   */\n      pop\n      pop\n      jump\t// out\n        /* \"#utility.yul\":5727:5949   */\n    tag_30:\n        /* \"#utility.yul\":5820:5824   */\n      0x00\n        /* \"#utility.yul\":5858:5860   */\n      0x20\n        /* \"#utility.yul\":5847:5856   */\n      dup3\n        /* \"#utility.yul\":5843:5861   */\n      add\n        /* \"#utility.yul\":5835:5861   */\n      swap1\n      pop\n        /* \"#utility.yul\":5871:5942   */\n      tag_135\n        /* \"#utility.yul\":5939:5940   */\n      0x00\n        /* \"#utility.yul\":5928:5937   */\n      dup4\n        /* \"#utility.yul\":5924:5941   */\n      add\n        /* \"#utility.yul\":5915:5921   */\n      dup5\n        /* \"#utility.yul\":5871:5942   */\n      tag_59\n      jump\t// in\n    tag_135:\n        /* \"#utility.yul\":5727:5949   */\n      swap3\n      swap2\n      pop\n      pop\n      jump\t// out\n        /* \"#utility.yul\":5955:6054   */\n    tag_60:\n        /* \"#utility.yul\":6007:6013   */\n      0x00\n        /* \"#utility.yul\":6041:6046   */\n      dup2\n        /* \"#utility.yul\":6035:6047   */\n      mload\n        /* \"#utility.yul\":6025:6047   */\n      swap1\n      pop\n        /* \"#utility.yul\":5955:6054   */\n      swap2\n      swap1\n      pop\n      jump\t// out\n        /* \"#utility.yul\":6060:6208   */\n    tag_61:\n        /* \"#utility.yul\":6162:6173   */\n      0x00\n        /* \"#utility.yul\":6199:6202   */\n      dup2\n        /* \"#utility.yul\":6184:6202   */\n      swap1\n      pop\n        /* \"#utility.yul\":6060:6208   */\n      swap3\n      swap2\n      pop\n      pop\n      jump\t// out\n        /* \"#utility.yul\":6214:6460   */\n    tag_62:\n        /* \"#utility.yul\":6295:6296   */\n      0x00\n        /* \"#utility.yul\":6305:6418   */\n    tag_139:\n        /* \"#utility.yul\":6319:6325   */\n      dup4\n        /* \"#utility.yul\":6316:6317   */\n      dup2\n        /* \"#utility.yul\":6313:6326   */\n      lt\n        /* \"#utility.yul\":6305:6418   */\n      iszero\n      tag_141\n      jumpi\n        /* \"#utility.yul\":6404:6405   */\n      dup1\n        /* \"#utility.yul\":6399:6402   */\n      dup3\n        /* \"#utility.yul\":6395:6406   */\n      add\n        /* \"#utility.yul\":6389:6407   */\n      mload\n        /* \"#utility.yul\":6385:6386   */\n      dup2\n        /* \"#utility.yul\":6380:6383   */\n      dup5\n        /* \"#utility.yul\":6376:6387   */\n      add\n        /* \"#utility.yul\":6369:6408   */\n      mstore\n        /* \"#utility.yul\":6341:6343   */\n      0x20\n        /* \"#utility.yul\":6338:6339   */\n      dup2\n        /* \"#utility.yul\":6334:6344   */\n      add\n        /* \"#utility.yul\":6329:6344   */\n      swap1\n      pop\n        /* \"#utility.yul\":6305:6418   */\n      jump(tag_139)\n    tag_141:\n        /* \"#utility.yul\":6452:6453   */\n      0x00\n        /* \"#utility.yul\":6443:6449   */\n      dup5\n        /* \"#utility.yul\":6438:6441   */\n      dup5\n        /* \"#utility.yul\":6434:6450   */\n      add\n        /* \"#utility.yul\":6427:6454   */\n      mstore\n        /* \"#utility.yul\":6276:6460   */\n      pop\n        /* \"#utility.yul\":6214:6460   */\n      pop\n      pop\n      pop\n      jump\t// out\n        /* \"#utility.yul\":6466:6856   */\n    tag_63:\n        /* \"#utility.yul\":6572:6575   */\n      0x00\n        /* \"#utility.yul\":6600:6639   */\n      tag_143\n        /* \"#utility.yul\":6633:6638   */\n      dup3\n        /* \"#utility.yul\":6600:6639   */\n      tag_60\n      jump\t// in\n    tag_143:\n        /* \"#utility.yul\":6655:6744   */\n      tag_144\n        /* \"#utility.yul\":6737:6743   */\n      dup2\n        /* \"#utility.yul\":6732:6735   */\n      dup6\n        /* \"#utility.yul\":6655:6744   */\n      tag_61\n      jump\t// in\n    tag_144:\n        /* \"#utility.yul\":6648:6744   */\n      swap4\n      pop\n        /* \"#utility.yul\":6753:6818   */\n      tag_145\n        /* \"#utility.yul\":6811:6817   */\n      dup2\n        /* \"#utility.yul\":6806:6809   */\n      dup6\n        /* \"#utility.yul\":6799:6803   */\n      0x20\n        /* \"#utility.yul\":6792:6797   */\n      dup7\n        /* \"#utility.yul\":6788:6804   */\n      add\n        /* \"#utility.yul\":6753:6818   */\n      tag_62\n      jump\t// in\n    tag_145:\n        /* \"#utility.yul\":6843:6849   */\n      dup1\n        /* \"#utility.yul\":6838:6841   */\n      dup5\n        /* \"#utility.yul\":6834:6850   */\n      add\n        /* \"#utility.yul\":6827:6850   */\n      swap2\n      pop\n        /* \"#utility.yul\":6576:6856   */\n      pop\n        /* \"#utility.yul\":6466:6856   */\n      swap3\n      swap2\n      pop\n      pop\n      jump\t// out\n        /* \"#utility.yul\":6862:7137   */\n    tag_33:\n        /* \"#utility.yul\":6994:6997   */\n      0x00\n        /* \"#utility.yul\":7016:7111   */\n      tag_147\n        /* \"#utility.yul\":7107:7110   */\n      dup3\n        /* \"#utility.yul\":7098:7104   */\n      dup5\n        /* \"#utility.yul\":7016:7111   */\n      tag_63\n      jump\t// in\n    tag_147:\n        /* \"#utility.yul\":7009:7111   */\n      swap2\n      pop\n        /* \"#utility.yul\":7128:7131   */\n      dup2\n        /* \"#utility.yul\":7121:7131   */\n      swap1\n      pop\n        /* \"#utility.yul\":6862:7137   */\n      swap3\n      swap2\n      pop\n      pop\n      jump\t// out\n\n    auxdata: 0xa26469706673582212209e73034bbae296bc8c494cf75eeca47b495f4d19222f6633e3e0ff9fb9f9bcc564736f6c63430008120033\n}\n",
				"bytecode": {
					"linkReferences": {},
					"object": "608060405234801561001057600080fd5b5061061e806100206000396000f3fe608060405234801561001057600080fd5b50600436106100575760003560e01c8063693ec85e1461005c5780638a42ebe91461008c578063cceb0e01146100a8578063d6d90498146100d8578063fece7530146100f4575b600080fd5b61007660048036038101906100719190610377565b610124565b60405161008391906103d9565b60405180910390f35b6100a660048036038101906100a19190610420565b61014b565b005b6100c260048036038101906100bd9190610377565b610172565b6040516100cf91906103d9565b60405180910390f35b6100f260048036038101906100ed9190610377565b6101a0565b005b61010e600480360381019061010991906104da565b6101c5565b60405161011b9190610545565b60405180910390f35b6000808260405161013591906105d1565b9081526020016040518091039020549050919050565b8060008360405161015c91906105d1565b9081526020016040518091039020819055505050565b6000818051602081018201805184825260208301602085012081835280955050505050506000915090505481565b6000816040516101b091906105d1565b90815260200160405180910390206000905550565b6001828051602081018201805184825260208301602085012081835280955050505050506020528060005260406000206000915091509054906101000a900473ffffffffffffffffffffffffffffffffffffffff1681565b6000604051905090565b600080fd5b600080fd5b600080fd5b600080fd5b6000601f19601f8301169050919050565b7f4e487b7100000000000000000000000000000000000000000000000000000000600052604160045260246000fd5b6102848261023b565b810181811067ffffffffffffffff821117156102a3576102a261024c565b5b80604052505050565b60006102b661021d565b90506102c2828261027b565b919050565b600067ffffffffffffffff8211156102e2576102e161024c565b5b6102eb8261023b565b9050602081019050919050565b82818337600083830152505050565b600061031a610315846102c7565b6102ac565b90508281526020810184848401111561033657610335610236565b5b6103418482856102f8565b509392505050565b600082601f83011261035e5761035d610231565b5b813561036e848260208601610307565b91505092915050565b60006020828403121561038d5761038c610227565b5b600082013567ffffffffffffffff8111156103ab576103aa61022c565b5b6103b784828501610349565b91505092915050565b6000819050919050565b6103d3816103c0565b82525050565b60006020820190506103ee60008301846103ca565b92915050565b6103fd816103c0565b811461040857600080fd5b50565b60008135905061041a816103f4565b92915050565b6000806040838503121561043757610436610227565b5b600083013567ffffffffffffffff8111156104555761045461022c565b5b61046185828601610349565b92505060206104728582860161040b565b9150509250929050565b600073ffffffffffffffffffffffffffffffffffffffff82169050919050565b60006104a78261047c565b9050919050565b6104b78161049c565b81146104c257600080fd5b50565b6000813590506104d4816104ae565b92915050565b600080604083850312156104f1576104f0610227565b5b600083013567ffffffffffffffff81111561050f5761050e61022c565b5b61051b85828601610349565b925050602061052c858286016104c5565b9150509250929050565b61053f8161049c565b82525050565b600060208201905061055a6000830184610536565b92915050565b600081519050919050565b600081905092915050565b60005b83811015610594578082015181840152602081019050610579565b60008484015250505050565b60006105ab82610560565b6105b5818561056b565b93506105c5818560208601610576565b80840191505092915050565b60006105dd82846105a0565b91508190509291505056fea26469706673582212209e73034bbae296bc8c494cf75eeca47b495f4d19222f6633e3e0ff9fb9f9bcc564736f6c63430008120033",
					"opcodes": "PUSH1 0x80 PUSH1 0x40 MSTORE CALLVALUE DUP1 ISZERO PUSH2 0x10 JUMPI PUSH1 0x0 DUP1 REVERT JUMPDEST POP PUSH2 0x61E DUP1 PUSH2 0x20 PUSH1 0x0 CODECOPY PUSH1 0x0 RETURN INVALID PUSH1 0x80 PUSH1 0x40 MSTORE CALLVALUE DUP1 ISZERO PUSH2 0x10 JUMPI PUSH1 0x0 DUP1 REVERT JUMPDEST POP PUSH1 0x4 CALLDATASIZE LT PUSH2 0x57 JUMPI PUSH1 0x0 CALLDATALOAD PUSH1 0xE0 SHR DUP1 PUSH4 0x693EC85E EQ PUSH2 0x5C JUMPI DUP1 PUSH4 0x8A42EBE9 EQ PUSH2 0x8C JUMPI DUP1 PUSH4 0xCCEB0E01 EQ PUSH2 0xA8 JUMPI DUP1 PUSH4 0xD6D90498 EQ PUSH2 0xD8 JUMPI DUP1 PUSH4 0xFECE7530 EQ PUSH2 0xF4 JUMPI JUMPDEST PUSH1 0x0 DUP1 REVERT JUMPDEST PUSH2 0x76 PUSH1 0x4 DUP1 CALLDATASIZE SUB DUP2 ADD SWAP1 PUSH2 0x71 SWAP2 SWAP1 PUSH2 0x377 JUMP JUMPDEST PUSH2 0x124 JUMP JUMPDEST PUSH1 0x40 MLOAD PUSH2 0x83 SWAP2 SWAP1 PUSH2 0x3D9 JUMP JUMPDEST PUSH1 0x40 MLOAD DUP1 SWAP2 SUB SWAP1 RETURN JUMPDEST PUSH2 0xA6 PUSH1 0x4 DUP1 CALLDATASIZE SUB DUP2 ADD SWAP1 PUSH2 0xA1 SWAP2 SWAP1 PUSH2 0x420 JUMP JUMPDEST PUSH2 0x14B JUMP JUMPDEST STOP JUMPDEST PUSH2 0xC2 PUSH1 0x4 DUP1 CALLDATASIZE SUB DUP2 ADD SWAP1 PUSH2 0xBD SWAP2 SWAP1 PUSH2 0x377 JUMP JUMPDEST PUSH2 0x172 JUMP JUMPDEST PUSH1 0x40 MLOAD PUSH2 0xCF SWAP2 SWAP1 PUSH2 0x3D9 JUMP JUMPDEST PUSH1 0x40 MLOAD DUP1 SWAP2 SUB SWAP1 RETURN JUMPDEST PUSH2 0xF2 PUSH1 0x4 DUP1 CALLDATASIZE SUB DUP2 ADD SWAP1 PUSH2 0xED SWAP2 SWAP1 PUSH2 0x377 JUMP JUMPDEST PUSH2 0x1A0 JUMP JUMPDEST STOP JUMPDEST PUSH2 0x10E PUSH1 0x4 DUP1 CALLDATASIZE SUB DUP2 ADD SWAP1 PUSH2 0x109 SWAP2 SWAP1 PUSH2 0x4DA JUMP JUMPDEST PUSH2 0x1C5 JUMP JUMPDEST PUSH1 0x40 MLOAD PUSH2 0x11B SWAP2 SWAP1 PUSH2 0x545 JUMP JUMPDEST PUSH1 0x40 MLOAD DUP1 SWAP2 SUB SWAP1 RETURN JUMPDEST PUSH1 0x0 DUP1 DUP3 PUSH1 0x40 MLOAD PUSH2 0x135 SWAP2 SWAP1 PUSH2 0x5D1 JUMP JUMPDEST SWAP1 DUP2 MSTORE PUSH1 0x20 ADD PUSH1 0x40 MLOAD DUP1 SWAP2 SUB SWAP1 KECCAK256 SLOAD SWAP1 POP SWAP2 SWAP1 POP JUMP JUMPDEST DUP1 PUSH1 0x0 DUP4 PUSH1 0x40 MLOAD PUSH2 0x15C SWAP2 SWAP1 PUSH2 0x5D1 JUMP JUMPDEST SWAP1 DUP2 MSTORE PUSH1 0x20 ADD PUSH1 0x40 MLOAD DUP1 SWAP2 SUB SWAP1 KECCAK256 DUP2 SWAP1 SSTORE POP POP POP JUMP JUMPDEST PUSH1 0x0 DUP2 DUP1 MLOAD PUSH1 0x20 DUP2 ADD DUP3 ADD DUP1 MLOAD DUP5 DUP3 MSTORE PUSH1 0x20 DUP4 ADD PUSH1 0x20 DUP6 ADD KECCAK256 DUP2 DUP4 MSTORE DUP1 SWAP6 POP POP POP POP POP POP PUSH1 0x0 SWAP2 POP SWAP1 POP SLOAD DUP2 JUMP JUMPDEST PUSH1 0x0 DUP2 PUSH1 0x40 MLOAD PUSH2 0x1B0 SWAP2 SWAP1 PUSH2 0x5D1 JUMP JUMPDEST SWAP1 DUP2 MSTORE PUSH1 0x20 ADD PUSH1 0x40 MLOAD DUP1 SWAP2 SUB SWAP1 KECCAK256 PUSH1 0x0 SWAP1 SSTORE POP JUMP JUMPDEST PUSH1 0x1 DUP3 DUP1 MLOAD PUSH1 0x20 DUP2 ADD DUP3 ADD DUP1 MLOAD DUP5 DUP3 MSTORE PUSH1 0x20 DUP4 ADD PUSH1 0x20 DUP6 ADD KECCAK256 DUP2 DUP4 MSTORE DUP1 SWAP6 POP POP POP POP POP POP PUSH1 0x20 MSTORE DUP1 PUSH1 0x0 MSTORE PUSH1 0x40 PUSH1 0x0 KECCAK256 PUSH1 0x0 SWAP2 POP SWAP2 POP SWAP1 SLOAD SWAP1 PUSH2 0x100 EXP SWAP1 DIV PUSH20 0xFFFFFFFFFFFFFFFFFFFFFFFFFFFFFFFFFFFFFFFF AND DUP2 JUMP JUMPDEST PUSH1 0x0 PUSH1 0x40 MLOAD SWAP1 POP SWAP1 JUMP JUMPDEST PUSH1 0x0 DUP1 REVERT JUMPDEST PUSH1 0x0 DUP1 REVERT JUMPDEST PUSH1 0x0 DUP1 REVERT JUMPDEST PUSH1 0x0 DUP1 REVERT JUMPDEST PUSH1 0x0 PUSH1 0x1F NOT PUSH1 0x1F DUP4 ADD AND SWAP1 POP SWAP2 SWAP1 POP JUMP JUMPDEST PUSH32 0x4E487B7100000000000000000000000000000000000000000000000000000000 PUSH1 0x0 MSTORE PUSH1 0x41 PUSH1 0x4 MSTORE PUSH1 0x24 PUSH1 0x0 REVERT JUMPDEST PUSH2 0x284 DUP3 PUSH2 0x23B JUMP JUMPDEST DUP2 ADD DUP2 DUP2 LT PUSH8 0xFFFFFFFFFFFFFFFF DUP3 GT OR ISZERO PUSH2 0x2A3 JUMPI PUSH2 0x2A2 PUSH2 0x24C JUMP JUMPDEST JUMPDEST DUP1 PUSH1 0x40 MSTORE POP POP POP JUMP JUMPDEST PUSH1 0x0 PUSH2 0x2B6 PUSH2 0x21D JUMP JUMPDEST SWAP1 POP PUSH2 0x2C2 DUP3 DUP3 PUSH2 0x27B JUMP JUMPDEST SWAP2 SWAP1 POP JUMP JUMPDEST PUSH1 0x0 PUSH8 0xFFFFFFFFFFFFFFFF DUP3 GT ISZERO PUSH2 0x2E2 JUMPI PUSH2 0x2E1 PUSH2 0x24C JUMP JUMPDEST JUMPDEST PUSH2 0x2EB DUP3 PUSH2 0x23B JUMP JUMPDEST SWAP1 POP PUSH1 0x20 DUP2 ADD SWAP1 POP SWAP2 SWAP1 POP JUMP JUMPDEST DUP3 DUP2 DUP4 CALLDATACOPY PUSH1 0x0 DUP4 DUP4 ADD MSTORE POP POP POP JUMP JUMPDEST PUSH1 0x0 PUSH2 0x31A PUSH2 0x315 DUP5 PUSH2 0x2C7 JUMP JUMPDEST PUSH2 0x2AC JUMP JUMPDEST SWAP1 POP DUP3 DUP2 MSTORE PUSH1 0x20 DUP2 ADD DUP5 DUP5 DUP5 ADD GT ISZERO PUSH2 0x336 JUMPI PUSH2 0x335 PUSH2 0x236 JUMP JUMPDEST JUMPDEST PUSH2 0x341 DUP5 DUP3 DUP6 PUSH2 0x2F8 JUMP JUMPDEST POP SWAP4 SWAP3 POP POP POP JUMP JUMPDEST PUSH1 0x0 DUP3 PUSH1 0x1F DUP4 ADD SLT PUSH2 0x35E JUMPI PUSH2 0x35D PUSH2 0x231 JUMP JUMPDEST JUMPDEST DUP2 CALLDATALOAD PUSH2 0x36E DUP5 DUP3 PUSH1 0x20 DUP7 ADD PUSH2 0x307 JUMP JUMPDEST SWAP2 POP POP SWAP3 SWAP2 POP POP JUMP JUMPDEST PUSH1 0x0 PUSH1 0x20 DUP3 DUP5 SUB SLT ISZERO PUSH2 0x38D JUMPI PUSH2 0x38C PUSH2 0x227 JUMP JUMPDEST JUMPDEST PUSH1 0x0 DUP3 ADD CALLDATALOAD PUSH8 0xFFFFFFFFFFFFFFFF DUP2 GT ISZERO PUSH2 0x3AB JUMPI PUSH2 0x3AA PUSH2 0x22C JUMP JUMPDEST JUMPDEST PUSH2 0x3B7 DUP5 DUP3 DUP6 ADD PUSH2 0x349 JUMP JUMPDEST SWAP2 POP POP SWAP3 SWAP2 POP POP JUMP JUMPDEST PUSH1 0x0 DUP2 SWAP1 POP SWAP2 SWAP1 POP JUMP JUMPDEST PUSH2 0x3D3 DUP2 PUSH2 0x3C0 JUMP JUMPDEST DUP3 MSTORE POP POP JUMP JUMPDEST PUSH1 0x0 PUSH1 0x20 DUP3 ADD SWAP1 POP PUSH2 0x3EE PUSH1 0x0 DUP4 ADD DUP5 PUSH2 0x3CA JUMP JUMPDEST SWAP3 SWAP2 POP POP JUMP JUMPDEST PUSH2 0x3FD DUP2 PUSH2 0x3C0 JUMP JUMPDEST DUP2 EQ PUSH2 0x408 JUMPI PUSH1 0x0 DUP1 REVERT JUMPDEST POP JUMP JUMPDEST PUSH1 0x0 DUP2 CALLDATALOAD SWAP1 POP PUSH2 0x41A DUP2 PUSH2 0x3F4 JUMP JUMPDEST SWAP3 SWAP2 POP POP JUMP JUMPDEST PUSH1 0x0 DUP1 PUSH1 0x40 DUP4 DUP6 SUB SLT ISZERO PUSH2 0x437 JUMPI PUSH2 0x436 PUSH2 0x227 JUMP JUMPDEST JUMPDEST PUSH1 0x0 DUP4 ADD CALLDATALOAD PUSH8 0xFFFFFFFFFFFFFFFF DUP2 GT ISZERO PUSH2 0x455 JUMPI PUSH2 0x454 PUSH2 0x22C JUMP JUMPDEST JUMPDEST PUSH2 0x461 DUP6 DUP3 DUP7 ADD PUSH2 0x349 JUMP JUMPDEST SWAP3 POP POP PUSH1 0x20 PUSH2 0x472 DUP6 DUP3 DUP7 ADD PUSH2 0x40B JUMP JUMPDEST SWAP2 POP POP SWAP3 POP SWAP3 SWAP1 POP JUMP JUMPDEST PUSH1 0x0 PUSH20 0xFFFFFFFFFFFFFFFFFFFFFFFFFFFFFFFFFFFFFFFF DUP3 AND SWAP1 POP SWAP2 SWAP1 POP JUMP JUMPDEST PUSH1 0x0 PUSH2 0x4A7 DUP3 PUSH2 0x47C JUMP JUMPDEST SWAP1 POP SWAP2 SWAP1 POP JUMP JUMPDEST PUSH2 0x4B7 DUP2 PUSH2 0x49C JUMP JUMPDEST DUP2 EQ PUSH2 0x4C2 JUMPI PUSH1 0x0 DUP1 REVERT JUMPDEST POP JUMP JUMPDEST PUSH1 0x0 DUP2 CALLDATALOAD SWAP1 POP PUSH2 0x4D4 DUP2 PUSH2 0x4AE JUMP JUMPDEST SWAP3 SWAP2 POP POP JUMP JUMPDEST PUSH1 0x0 DUP1 PUSH1 0x40 DUP4 DUP6 SUB SLT ISZERO PUSH2 0x4F1 JUMPI PUSH2 0x4F0 PUSH2 0x227 JUMP JUMPDEST JUMPDEST PUSH1 0x0 DUP4 ADD CALLDATALOAD PUSH8 0xFFFFFFFFFFFFFFFF DUP2 GT ISZERO PUSH2 0x50F JUMPI PUSH2 0x50E PUSH2 0x22C JUMP JUMPDEST JUMPDEST PUSH2 0x51B DUP6 DUP3 DUP7 ADD PUSH2 0x349 JUMP JUMPDEST SWAP3 POP POP PUSH1 0x20 PUSH2 0x52C DUP6 DUP3 DUP7 ADD PUSH2 0x4C5 JUMP JUMPDEST SWAP2 POP POP SWAP3 POP SWAP3 SWAP1 POP JUMP JUMPDEST PUSH2 0x53F DUP2 PUSH2 0x49C JUMP JUMPDEST DUP3 MSTORE POP POP JUMP JUMPDEST PUSH1 0x0 PUSH1 0x20 DUP3 ADD SWAP1 POP PUSH2 0x55A PUSH1 0x0 DUP4 ADD DUP5 PUSH2 0x536 JUMP JUMPDEST SWAP3 SWAP2 POP POP JUMP JUMPDEST PUSH1 0x0 DUP2 MLOAD SWAP1 POP SWAP2 SWAP1 POP JUMP JUMPDEST PUSH1 0x0 DUP2 SWAP1 POP SWAP3 SWAP2 POP POP JUMP JUMPDEST PUSH1 0x0 JUMPDEST DUP4 DUP2 LT ISZERO PUSH2 0x594 JUMPI DUP1 DUP3 ADD MLOAD DUP2 DUP5 ADD MSTORE PUSH1 0x20 DUP2 ADD SWAP1 POP PUSH2 0x579 JUMP JUMPDEST PUSH1 0x0 DUP5 DUP5 ADD MSTORE POP POP POP POP JUMP JUMPDEST PUSH1 0x0 PUSH2 0x5AB DUP3 PUSH2 0x560 JUMP JUMPDEST PUSH2 0x5B5 DUP2 DUP6 PUSH2 0x56B JUMP JUMPDEST SWAP4 POP PUSH2 0x5C5 DUP2 DUP6 PUSH1 0x20 DUP7 ADD PUSH2 0x576 JUMP JUMPDEST DUP1 DUP5 ADD SWAP2 POP POP SWAP3 SWAP2 POP POP JUMP JUMPDEST PUSH1 0x0 PUSH2 0x5DD DUP3 DUP5 PUSH2 0x5A0 JUMP JUMPDEST SWAP2 POP DUP2 SWAP1 POP SWAP3 SWAP2 POP POP JUMP INVALID LOG2 PUSH5 0x6970667358 0x22 SLT KECCAK256 SWAP15 PUSH20 0x34BBAE296BC8C494CF75EECA47B495F4D19222F PUSH7 0x33E3E0FF9FB9F9 0xBC 0xC5 PUSH5 0x736F6C6343 STOP ADDMOD SLT STOP CALLER "
				},
				"gasEstimates": {
					"creation": {
						"codeDepositCost": "313200",
						"executionCost": "349",
						"totalCost": "313549"
					},
					"external": {
						"Mapper(string)": "infinite",
						"Mappers(string,address)": "infinite",
						"get(string)": "infinite",
						"reset(string)": "infinite",
						"set(string,uint256)": "infinite"
					}
				},
				"methodIdentifiers": {
					"Mapper(string)": "cceb0e01",
					"Mappers(string,address)": "fece7530",
					"get(string)": "693ec85e",
					"reset(string)": "d6d90498",
					"set(string,uint256)": "8a42ebe9"
				}
			},
			"storageLayout": {
				"storage": [
					{
						"astId": 5,
						"contract": "Task 1 lab7.sol:Maper",
						"label": "Mapper",
						"offset": 0,
						"slot": "0",
						"type": "t_mapping(t_string_memory_ptr,t_uint256)"
					},
					{
						"astId": 48,
						"contract": "Task 1 lab7.sol:Maper",
						"label": "Mappers",
						"offset": 0,
						"slot": "1",
						"type": "t_mapping(t_string_memory_ptr,t_mapping(t_address,t_address))"
					}
				],
				"types": {
					"t_address": {
						"encoding": "inplace",
						"label": "address",
						"numberOfBytes": "20"
					},
					"t_mapping(t_address,t_address)": {
						"encoding": "mapping",
						"key": "t_address",
						"label": "mapping(address => address)",
						"numberOfBytes": "32",
						"value": "t_address"
					},
					"t_mapping(t_string_memory_ptr,t_mapping(t_address,t_address))": {
						"encoding": "mapping",
						"key": "t_string_memory_ptr",
						"label": "mapping(string => mapping(address => address))",
						"numberOfBytes": "32",
						"value": "t_mapping(t_address,t_address)"
					},
					"t_mapping(t_string_memory_ptr,t_uint256)": {
						"encoding": "mapping",
						"key": "t_string_memory_ptr",
						"label": "mapping(string => uint256)",
						"numberOfBytes": "32",
						"value": "t_uint256"
					},
					"t_string_memory_ptr": {
						"encoding": "bytes",
						"label": "string",
						"numberOfBytes": "32"
					},
					"t_uint256": {
						"encoding": "inplace",
						"label": "uint256",
						"numberOfBytes": "32"
					}
				}
			},
			"userdoc": {
				"kind": "user",
				"methods": {},
				"version": 1
			}
		}
	}
}