{
	"LABS 15 Aug/Task lab15.sol": {
		"Assert": {
			"abi": [
				{
					"inputs": [
						{
							"internalType": "uint256",
							"name": "num1",
							"type": "uint256"
						},
						{
							"internalType": "uint256",
							"name": "num2",
							"type": "uint256"
						}
					],
					"name": "subtract",
					"outputs": [
						{
							"internalType": "uint256",
							"name": "",
							"type": "uint256"
						}
					],
					"stateMutability": "pure",
					"type": "function"
				}
			],
			"devdoc": {
				"kind": "dev",
				"methods": {},
				"version": 1
			},
			"evm": {
				"assembly": "    /* \"LABS 15 Aug/Task lab15.sol\":1013:1206  contract Assert{... */\n  mstore(0x40, 0x80)\n  callvalue\n  dup1\n  iszero\n  tag_1\n  jumpi\n  0x00\n  dup1\n  revert\ntag_1:\n  pop\n  dataSize(sub_0)\n  dup1\n  dataOffset(sub_0)\n  0x00\n  codecopy\n  0x00\n  return\nstop\n\nsub_0: assembly {\n        /* \"LABS 15 Aug/Task lab15.sol\":1013:1206  contract Assert{... */\n      mstore(0x40, 0x80)\n      callvalue\n      dup1\n      iszero\n      tag_1\n      jumpi\n      0x00\n      dup1\n      revert\n    tag_1:\n      pop\n      jumpi(tag_2, lt(calldatasize, 0x04))\n      shr(0xe0, calldataload(0x00))\n      dup1\n      0x3ef5e445\n      eq\n      tag_3\n      jumpi\n    tag_2:\n      0x00\n      dup1\n      revert\n        /* \"LABS 15 Aug/Task lab15.sol\":1035:1203  function subtract(uint num1, uint num2) public pure returns(uint){... */\n    tag_3:\n      tag_4\n      0x04\n      dup1\n      calldatasize\n      sub\n      dup2\n      add\n      swap1\n      tag_5\n      swap2\n      swap1\n      tag_6\n      jump\t// in\n    tag_5:\n      tag_7\n      jump\t// in\n    tag_4:\n      mload(0x40)\n      tag_8\n      swap2\n      swap1\n      tag_9\n      jump\t// in\n    tag_8:\n      mload(0x40)\n      dup1\n      swap2\n      sub\n      swap1\n      return\n    tag_7:\n        /* \"LABS 15 Aug/Task lab15.sol\":1095:1099  uint */\n      0x00\n        /* \"LABS 15 Aug/Task lab15.sol\":1111:1119  uint sub */\n      dup1\n        /* \"LABS 15 Aug/Task lab15.sol\":1144:1145  0 */\n      0x00\n        /* \"LABS 15 Aug/Task lab15.sol\":1137:1140  sub */\n      dup2\n        /* \"LABS 15 Aug/Task lab15.sol\":1137:1145  sub >= 0 */\n      lt\n      iszero\n        /* \"LABS 15 Aug/Task lab15.sol\":1130:1146  assert(sub >= 0) */\n      tag_11\n      jumpi\n      tag_12\n      tag_13\n      jump\t// in\n    tag_12:\n    tag_11:\n        /* \"LABS 15 Aug/Task lab15.sol\":1170:1174  num2 */\n      dup3\n        /* \"LABS 15 Aug/Task lab15.sol\":1163:1167  num1 */\n      dup5\n        /* \"LABS 15 Aug/Task lab15.sol\":1163:1174  num1 - num2 */\n      tag_14\n      swap2\n      swap1\n      tag_15\n      jump\t// in\n    tag_14:\n        /* \"LABS 15 Aug/Task lab15.sol\":1157:1174  sub = num1 - num2 */\n      swap1\n      pop\n        /* \"LABS 15 Aug/Task lab15.sol\":1192:1195  sub */\n      dup1\n        /* \"LABS 15 Aug/Task lab15.sol\":1185:1195  return sub */\n      swap2\n      pop\n      pop\n        /* \"LABS 15 Aug/Task lab15.sol\":1035:1203  function subtract(uint num1, uint num2) public pure returns(uint){... */\n      swap3\n      swap2\n      pop\n      pop\n      jump\t// out\n        /* \"#utility.yul\":88:205   */\n    tag_17:\n        /* \"#utility.yul\":197:198   */\n      0x00\n        /* \"#utility.yul\":194:195   */\n      dup1\n        /* \"#utility.yul\":187:199   */\n      revert\n        /* \"#utility.yul\":334:411   */\n    tag_19:\n        /* \"#utility.yul\":371:378   */\n      0x00\n        /* \"#utility.yul\":400:405   */\n      dup2\n        /* \"#utility.yul\":389:405   */\n      swap1\n      pop\n        /* \"#utility.yul\":334:411   */\n      swap2\n      swap1\n      pop\n      jump\t// out\n        /* \"#utility.yul\":417:539   */\n    tag_20:\n        /* \"#utility.yul\":490:514   */\n      tag_30\n        /* \"#utility.yul\":508:513   */\n      dup2\n        /* \"#utility.yul\":490:514   */\n      tag_19\n      jump\t// in\n    tag_30:\n        /* \"#utility.yul\":483:488   */\n      dup2\n        /* \"#utility.yul\":480:515   */\n      eq\n        /* \"#utility.yul\":470:533   */\n      tag_31\n      jumpi\n        /* \"#utility.yul\":529:530   */\n      0x00\n        /* \"#utility.yul\":526:527   */\n      dup1\n        /* \"#utility.yul\":519:531   */\n      revert\n        /* \"#utility.yul\":470:533   */\n    tag_31:\n        /* \"#utility.yul\":417:539   */\n      pop\n      jump\t// out\n        /* \"#utility.yul\":545:684   */\n    tag_21:\n        /* \"#utility.yul\":591:596   */\n      0x00\n        /* \"#utility.yul\":629:635   */\n      dup2\n        /* \"#utility.yul\":616:636   */\n      calldataload\n        /* \"#utility.yul\":607:636   */\n      swap1\n      pop\n        /* \"#utility.yul\":645:678   */\n      tag_33\n        /* \"#utility.yul\":672:677   */\n      dup2\n        /* \"#utility.yul\":645:678   */\n      tag_20\n      jump\t// in\n    tag_33:\n        /* \"#utility.yul\":545:684   */\n      swap3\n      swap2\n      pop\n      pop\n      jump\t// out\n        /* \"#utility.yul\":690:1164   */\n    tag_6:\n        /* \"#utility.yul\":758:764   */\n      0x00\n        /* \"#utility.yul\":766:772   */\n      dup1\n        /* \"#utility.yul\":815:817   */\n      0x40\n        /* \"#utility.yul\":803:812   */\n      dup4\n        /* \"#utility.yul\":794:801   */\n      dup6\n        /* \"#utility.yul\":790:813   */\n      sub\n        /* \"#utility.yul\":786:818   */\n      slt\n        /* \"#utility.yul\":783:902   */\n      iszero\n      tag_35\n      jumpi\n        /* \"#utility.yul\":821:900   */\n      tag_36\n      tag_17\n      jump\t// in\n    tag_36:\n        /* \"#utility.yul\":783:902   */\n    tag_35:\n        /* \"#utility.yul\":941:942   */\n      0x00\n        /* \"#utility.yul\":966:1019   */\n      tag_37\n        /* \"#utility.yul\":1011:1018   */\n      dup6\n        /* \"#utility.yul\":1002:1008   */\n      dup3\n        /* \"#utility.yul\":991:1000   */\n      dup7\n        /* \"#utility.yul\":987:1009   */\n      add\n        /* \"#utility.yul\":966:1019   */\n      tag_21\n      jump\t// in\n    tag_37:\n        /* \"#utility.yul\":956:1019   */\n      swap3\n      pop\n        /* \"#utility.yul\":912:1029   */\n      pop\n        /* \"#utility.yul\":1068:1070   */\n      0x20\n        /* \"#utility.yul\":1094:1147   */\n      tag_38\n        /* \"#utility.yul\":1139:1146   */\n      dup6\n        /* \"#utility.yul\":1130:1136   */\n      dup3\n        /* \"#utility.yul\":1119:1128   */\n      dup7\n        /* \"#utility.yul\":1115:1137   */\n      add\n        /* \"#utility.yul\":1094:1147   */\n      tag_21\n      jump\t// in\n    tag_38:\n        /* \"#utility.yul\":1084:1147   */\n      swap2\n      pop\n        /* \"#utility.yul\":1039:1157   */\n      pop\n        /* \"#utility.yul\":690:1164   */\n      swap3\n      pop\n      swap3\n      swap1\n      pop\n      jump\t// out\n        /* \"#utility.yul\":1170:1288   */\n    tag_22:\n        /* \"#utility.yul\":1257:1281   */\n      tag_40\n        /* \"#utility.yul\":1275:1280   */\n      dup2\n        /* \"#utility.yul\":1257:1281   */\n      tag_19\n      jump\t// in\n    tag_40:\n        /* \"#utility.yul\":1252:1255   */\n      dup3\n        /* \"#utility.yul\":1245:1282   */\n      mstore\n        /* \"#utility.yul\":1170:1288   */\n      pop\n      pop\n      jump\t// out\n        /* \"#utility.yul\":1294:1516   */\n    tag_9:\n        /* \"#utility.yul\":1387:1391   */\n      0x00\n        /* \"#utility.yul\":1425:1427   */\n      0x20\n        /* \"#utility.yul\":1414:1423   */\n      dup3\n        /* \"#utility.yul\":1410:1428   */\n      add\n        /* \"#utility.yul\":1402:1428   */\n      swap1\n      pop\n        /* \"#utility.yul\":1438:1509   */\n      tag_42\n        /* \"#utility.yul\":1506:1507   */\n      0x00\n        /* \"#utility.yul\":1495:1504   */\n      dup4\n        /* \"#utility.yul\":1491:1508   */\n      add\n        /* \"#utility.yul\":1482:1488   */\n      dup5\n        /* \"#utility.yul\":1438:1509   */\n      tag_22\n      jump\t// in\n    tag_42:\n        /* \"#utility.yul\":1294:1516   */\n      swap3\n      swap2\n      pop\n      pop\n      jump\t// out\n        /* \"#utility.yul\":1522:1702   */\n    tag_13:\n        /* \"#utility.yul\":1570:1647   */\n      0x4e487b7100000000000000000000000000000000000000000000000000000000\n        /* \"#utility.yul\":1567:1568   */\n      0x00\n        /* \"#utility.yul\":1560:1648   */\n      mstore\n        /* \"#utility.yul\":1667:1671   */\n      0x01\n        /* \"#utility.yul\":1664:1665   */\n      0x04\n        /* \"#utility.yul\":1657:1672   */\n      mstore\n        /* \"#utility.yul\":1691:1695   */\n      0x24\n        /* \"#utility.yul\":1688:1689   */\n      0x00\n        /* \"#utility.yul\":1681:1696   */\n      revert\n        /* \"#utility.yul\":1708:1888   */\n    tag_23:\n        /* \"#utility.yul\":1756:1833   */\n      0x4e487b7100000000000000000000000000000000000000000000000000000000\n        /* \"#utility.yul\":1753:1754   */\n      0x00\n        /* \"#utility.yul\":1746:1834   */\n      mstore\n        /* \"#utility.yul\":1853:1857   */\n      0x11\n        /* \"#utility.yul\":1850:1851   */\n      0x04\n        /* \"#utility.yul\":1843:1858   */\n      mstore\n        /* \"#utility.yul\":1877:1881   */\n      0x24\n        /* \"#utility.yul\":1874:1875   */\n      0x00\n        /* \"#utility.yul\":1867:1882   */\n      revert\n        /* \"#utility.yul\":1894:2088   */\n    tag_15:\n        /* \"#utility.yul\":1934:1938   */\n      0x00\n        /* \"#utility.yul\":1954:1974   */\n      tag_46\n        /* \"#utility.yul\":1972:1973   */\n      dup3\n        /* \"#utility.yul\":1954:1974   */\n      tag_19\n      jump\t// in\n    tag_46:\n        /* \"#utility.yul\":1949:1974   */\n      swap2\n      pop\n        /* \"#utility.yul\":1988:2008   */\n      tag_47\n        /* \"#utility.yul\":2006:2007   */\n      dup4\n        /* \"#utility.yul\":1988:2008   */\n      tag_19\n      jump\t// in\n    tag_47:\n        /* \"#utility.yul\":1983:2008   */\n      swap3\n      pop\n        /* \"#utility.yul\":2032:2033   */\n      dup3\n        /* \"#utility.yul\":2029:2030   */\n      dup3\n        /* \"#utility.yul\":2025:2034   */\n      sub\n        /* \"#utility.yul\":2017:2034   */\n      swap1\n      pop\n        /* \"#utility.yul\":2056:2057   */\n      dup2\n        /* \"#utility.yul\":2050:2054   */\n      dup2\n        /* \"#utility.yul\":2047:2058   */\n      gt\n        /* \"#utility.yul\":2044:2081   */\n      iszero\n      tag_48\n      jumpi\n        /* \"#utility.yul\":2061:2079   */\n      tag_49\n      tag_23\n      jump\t// in\n    tag_49:\n        /* \"#utility.yul\":2044:2081   */\n    tag_48:\n        /* \"#utility.yul\":1894:2088   */\n      swap3\n      swap2\n      pop\n      pop\n      jump\t// out\n\n    auxdata: 0xa2646970667358221220ba9f790409fbe077ef93a599bc2e6ea14405505294d99ecce8b34e1daf427ab464736f6c63430008120033\n}\n",
				"bytecode": {
					"linkReferences": {},
					"object": "608060405234801561001057600080fd5b506101fa806100206000396000f3fe608060405234801561001057600080fd5b506004361061002b5760003560e01c80633ef5e44514610030575b600080fd5b61004a600480360381019061004591906100c8565b610060565b6040516100579190610117565b60405180910390f35b600080600081101561007557610074610132565b5b82846100819190610190565b90508091505092915050565b600080fd5b6000819050919050565b6100a581610092565b81146100b057600080fd5b50565b6000813590506100c28161009c565b92915050565b600080604083850312156100df576100de61008d565b5b60006100ed858286016100b3565b92505060206100fe858286016100b3565b9150509250929050565b61011181610092565b82525050565b600060208201905061012c6000830184610108565b92915050565b7f4e487b7100000000000000000000000000000000000000000000000000000000600052600160045260246000fd5b7f4e487b7100000000000000000000000000000000000000000000000000000000600052601160045260246000fd5b600061019b82610092565b91506101a683610092565b92508282039050818111156101be576101bd610161565b5b9291505056fea2646970667358221220ba9f790409fbe077ef93a599bc2e6ea14405505294d99ecce8b34e1daf427ab464736f6c63430008120033",
					"opcodes": "PUSH1 0x80 PUSH1 0x40 MSTORE CALLVALUE DUP1 ISZERO PUSH2 0x10 JUMPI PUSH1 0x0 DUP1 REVERT JUMPDEST POP PUSH2 0x1FA DUP1 PUSH2 0x20 PUSH1 0x0 CODECOPY PUSH1 0x0 RETURN INVALID PUSH1 0x80 PUSH1 0x40 MSTORE CALLVALUE DUP1 ISZERO PUSH2 0x10 JUMPI PUSH1 0x0 DUP1 REVERT JUMPDEST POP PUSH1 0x4 CALLDATASIZE LT PUSH2 0x2B JUMPI PUSH1 0x0 CALLDATALOAD PUSH1 0xE0 SHR DUP1 PUSH4 0x3EF5E445 EQ PUSH2 0x30 JUMPI JUMPDEST PUSH1 0x0 DUP1 REVERT JUMPDEST PUSH2 0x4A PUSH1 0x4 DUP1 CALLDATASIZE SUB DUP2 ADD SWAP1 PUSH2 0x45 SWAP2 SWAP1 PUSH2 0xC8 JUMP JUMPDEST PUSH2 0x60 JUMP JUMPDEST PUSH1 0x40 MLOAD PUSH2 0x57 SWAP2 SWAP1 PUSH2 0x117 JUMP JUMPDEST PUSH1 0x40 MLOAD DUP1 SWAP2 SUB SWAP1 RETURN JUMPDEST PUSH1 0x0 DUP1 PUSH1 0x0 DUP2 LT ISZERO PUSH2 0x75 JUMPI PUSH2 0x74 PUSH2 0x132 JUMP JUMPDEST JUMPDEST DUP3 DUP5 PUSH2 0x81 SWAP2 SWAP1 PUSH2 0x190 JUMP JUMPDEST SWAP1 POP DUP1 SWAP2 POP POP SWAP3 SWAP2 POP POP JUMP JUMPDEST PUSH1 0x0 DUP1 REVERT JUMPDEST PUSH1 0x0 DUP2 SWAP1 POP SWAP2 SWAP1 POP JUMP JUMPDEST PUSH2 0xA5 DUP2 PUSH2 0x92 JUMP JUMPDEST DUP2 EQ PUSH2 0xB0 JUMPI PUSH1 0x0 DUP1 REVERT JUMPDEST POP JUMP JUMPDEST PUSH1 0x0 DUP2 CALLDATALOAD SWAP1 POP PUSH2 0xC2 DUP2 PUSH2 0x9C JUMP JUMPDEST SWAP3 SWAP2 POP POP JUMP JUMPDEST PUSH1 0x0 DUP1 PUSH1 0x40 DUP4 DUP6 SUB SLT ISZERO PUSH2 0xDF JUMPI PUSH2 0xDE PUSH2 0x8D JUMP JUMPDEST JUMPDEST PUSH1 0x0 PUSH2 0xED DUP6 DUP3 DUP7 ADD PUSH2 0xB3 JUMP JUMPDEST SWAP3 POP POP PUSH1 0x20 PUSH2 0xFE DUP6 DUP3 DUP7 ADD PUSH2 0xB3 JUMP JUMPDEST SWAP2 POP POP SWAP3 POP SWAP3 SWAP1 POP JUMP JUMPDEST PUSH2 0x111 DUP2 PUSH2 0x92 JUMP JUMPDEST DUP3 MSTORE POP POP JUMP JUMPDEST PUSH1 0x0 PUSH1 0x20 DUP3 ADD SWAP1 POP PUSH2 0x12C PUSH1 0x0 DUP4 ADD DUP5 PUSH2 0x108 JUMP JUMPDEST SWAP3 SWAP2 POP POP JUMP JUMPDEST PUSH32 0x4E487B7100000000000000000000000000000000000000000000000000000000 PUSH1 0x0 MSTORE PUSH1 0x1 PUSH1 0x4 MSTORE PUSH1 0x24 PUSH1 0x0 REVERT JUMPDEST PUSH32 0x4E487B7100000000000000000000000000000000000000000000000000000000 PUSH1 0x0 MSTORE PUSH1 0x11 PUSH1 0x4 MSTORE PUSH1 0x24 PUSH1 0x0 REVERT JUMPDEST PUSH1 0x0 PUSH2 0x19B DUP3 PUSH2 0x92 JUMP JUMPDEST SWAP2 POP PUSH2 0x1A6 DUP4 PUSH2 0x92 JUMP JUMPDEST SWAP3 POP DUP3 DUP3 SUB SWAP1 POP DUP2 DUP2 GT ISZERO PUSH2 0x1BE JUMPI PUSH2 0x1BD PUSH2 0x161 JUMP JUMPDEST JUMPDEST SWAP3 SWAP2 POP POP JUMP INVALID LOG2 PUSH5 0x6970667358 0x22 SLT KECCAK256 0xBA SWAP16 PUSH26 0x409FBE077EF93A599BC2E6EA14405505294D99ECCE8B34E1DAF TIMESTAMP PUSH27 0xB464736F6C63430008120033000000000000000000000000000000 "
				},
				"gasEstimates": {
					"creation": {
						"codeDepositCost": "101200",
						"executionCost": "147",
						"totalCost": "101347"
					},
					"external": {
						"subtract(uint256,uint256)": "infinite"
					}
				},
				"methodIdentifiers": {
					"subtract(uint256,uint256)": "3ef5e445"
				}
			},
			"storageLayout": {
				"storage": [],
				"types": null
			},
			"userdoc": {
				"kind": "user",
				"methods": {},
				"version": 1
			}
		}
	}
}