{
	"data": {
		"bytecode": {
			"linkReferences": {},
			"object": "610412610053600b82828239805160001a607314610046577f4e487b7100000000000000000000000000000000000000000000000000000000600052600060045260246000fd5b30600052607381538281f3fe730000000000000000000000000000000000000000301460806040526004361061004b5760003560e01c80636ca8c6e614610050578063b83d3ea614610080578063c9524a73146100b0575b600080fd5b61006a6004803603810190610065919061015d565b6100e0565b60405161007791906101ac565b60405180910390f35b61009a6004803603810190610095919061015d565b6100f6565b6040516100a791906101ac565b60405180910390f35b6100ca60048036038101906100c5919061015d565b61010c565b6040516100d791906101ac565b60405180910390f35b600081836100ee9190610329565b905092915050565b600081836101049190610374565b905092915050565b6000818361011a91906103a8565b905092915050565b600080fd5b6000819050919050565b61013a81610127565b811461014557600080fd5b50565b60008135905061015781610131565b92915050565b6000806040838503121561017457610173610122565b5b600061018285828601610148565b925050602061019385828601610148565b9150509250929050565b6101a681610127565b82525050565b60006020820190506101c1600083018461019d565b92915050565b7f4e487b7100000000000000000000000000000000000000000000000000000000600052601160045260246000fd5b60008160011c9050919050565b6000808291508390505b600185111561024d57808604811115610229576102286101c7565b5b60018516156102385780820291505b8081029050610246856101f6565b945061020d565b94509492505050565b6000826102665760019050610322565b816102745760009050610322565b816001811461028a5760028114610294576102c3565b6001915050610322565b60ff8411156102a6576102a56101c7565b5b8360020a9150848211156102bd576102bc6101c7565b5b50610322565b5060208310610133831016604e8410600b84101617156102f85782820a9050838111156102f3576102f26101c7565b5b610322565b6103058484846001610203565b9250905081840481111561031c5761031b6101c7565b5b81810290505b9392505050565b600061033482610127565b915061033f83610127565b925061036c7fffffffffffffffffffffffffffffffffffffffffffffffffffffffffffffffff8484610256565b905092915050565b600061037f82610127565b915061038a83610127565b92508282019050808211156103a2576103a16101c7565b5b92915050565b60006103b382610127565b91506103be83610127565b92508282039050818111156103d6576103d56101c7565b5b9291505056fea2646970667358221220b5fbe0b2efb9d9bf68a6e19d9d60bb2d49c3086bf7c3dab2b7ffbe4b58c22e3864736f6c63430008120033",
			"opcodes": "PUSH2 0x412 PUSH2 0x53 PUSH1 0xB DUP3 DUP3 DUP3 CODECOPY DUP1 MLOAD PUSH1 0x0 BYTE PUSH1 0x73 EQ PUSH2 0x46 JUMPI PUSH32 0x4E487B7100000000000000000000000000000000000000000000000000000000 PUSH1 0x0 MSTORE PUSH1 0x0 PUSH1 0x4 MSTORE PUSH1 0x24 PUSH1 0x0 REVERT JUMPDEST ADDRESS PUSH1 0x0 MSTORE PUSH1 0x73 DUP2 MSTORE8 DUP3 DUP2 RETURN INVALID PUSH20 0x0 ADDRESS EQ PUSH1 0x80 PUSH1 0x40 MSTORE PUSH1 0x4 CALLDATASIZE LT PUSH2 0x4B JUMPI PUSH1 0x0 CALLDATALOAD PUSH1 0xE0 SHR DUP1 PUSH4 0x6CA8C6E6 EQ PUSH2 0x50 JUMPI DUP1 PUSH4 0xB83D3EA6 EQ PUSH2 0x80 JUMPI DUP1 PUSH4 0xC9524A73 EQ PUSH2 0xB0 JUMPI JUMPDEST PUSH1 0x0 DUP1 REVERT JUMPDEST PUSH2 0x6A PUSH1 0x4 DUP1 CALLDATASIZE SUB DUP2 ADD SWAP1 PUSH2 0x65 SWAP2 SWAP1 PUSH2 0x15D JUMP JUMPDEST PUSH2 0xE0 JUMP JUMPDEST PUSH1 0x40 MLOAD PUSH2 0x77 SWAP2 SWAP1 PUSH2 0x1AC JUMP JUMPDEST PUSH1 0x40 MLOAD DUP1 SWAP2 SUB SWAP1 RETURN JUMPDEST PUSH2 0x9A PUSH1 0x4 DUP1 CALLDATASIZE SUB DUP2 ADD SWAP1 PUSH2 0x95 SWAP2 SWAP1 PUSH2 0x15D JUMP JUMPDEST PUSH2 0xF6 JUMP JUMPDEST PUSH1 0x40 MLOAD PUSH2 0xA7 SWAP2 SWAP1 PUSH2 0x1AC JUMP JUMPDEST PUSH1 0x40 MLOAD DUP1 SWAP2 SUB SWAP1 RETURN JUMPDEST PUSH2 0xCA PUSH1 0x4 DUP1 CALLDATASIZE SUB DUP2 ADD SWAP1 PUSH2 0xC5 SWAP2 SWAP1 PUSH2 0x15D JUMP JUMPDEST PUSH2 0x10C JUMP JUMPDEST PUSH1 0x40 MLOAD PUSH2 0xD7 SWAP2 SWAP1 PUSH2 0x1AC JUMP JUMPDEST PUSH1 0x40 MLOAD DUP1 SWAP2 SUB SWAP1 RETURN JUMPDEST PUSH1 0x0 DUP2 DUP4 PUSH2 0xEE SWAP2 SWAP1 PUSH2 0x329 JUMP JUMPDEST SWAP1 POP SWAP3 SWAP2 POP POP JUMP JUMPDEST PUSH1 0x0 DUP2 DUP4 PUSH2 0x104 SWAP2 SWAP1 PUSH2 0x374 JUMP JUMPDEST SWAP1 POP SWAP3 SWAP2 POP POP JUMP JUMPDEST PUSH1 0x0 DUP2 DUP4 PUSH2 0x11A SWAP2 SWAP1 PUSH2 0x3A8 JUMP JUMPDEST SWAP1 POP SWAP3 SWAP2 POP POP JUMP JUMPDEST PUSH1 0x0 DUP1 REVERT JUMPDEST PUSH1 0x0 DUP2 SWAP1 POP SWAP2 SWAP1 POP JUMP JUMPDEST PUSH2 0x13A DUP2 PUSH2 0x127 JUMP JUMPDEST DUP2 EQ PUSH2 0x145 JUMPI PUSH1 0x0 DUP1 REVERT JUMPDEST POP JUMP JUMPDEST PUSH1 0x0 DUP2 CALLDATALOAD SWAP1 POP PUSH2 0x157 DUP2 PUSH2 0x131 JUMP JUMPDEST SWAP3 SWAP2 POP POP JUMP JUMPDEST PUSH1 0x0 DUP1 PUSH1 0x40 DUP4 DUP6 SUB SLT ISZERO PUSH2 0x174 JUMPI PUSH2 0x173 PUSH2 0x122 JUMP JUMPDEST JUMPDEST PUSH1 0x0 PUSH2 0x182 DUP6 DUP3 DUP7 ADD PUSH2 0x148 JUMP JUMPDEST SWAP3 POP POP PUSH1 0x20 PUSH2 0x193 DUP6 DUP3 DUP7 ADD PUSH2 0x148 JUMP JUMPDEST SWAP2 POP POP SWAP3 POP SWAP3 SWAP1 POP JUMP JUMPDEST PUSH2 0x1A6 DUP2 PUSH2 0x127 JUMP JUMPDEST DUP3 MSTORE POP POP JUMP JUMPDEST PUSH1 0x0 PUSH1 0x20 DUP3 ADD SWAP1 POP PUSH2 0x1C1 PUSH1 0x0 DUP4 ADD DUP5 PUSH2 0x19D JUMP JUMPDEST SWAP3 SWAP2 POP POP JUMP JUMPDEST PUSH32 0x4E487B7100000000000000000000000000000000000000000000000000000000 PUSH1 0x0 MSTORE PUSH1 0x11 PUSH1 0x4 MSTORE PUSH1 0x24 PUSH1 0x0 REVERT JUMPDEST PUSH1 0x0 DUP2 PUSH1 0x1 SHR SWAP1 POP SWAP2 SWAP1 POP JUMP JUMPDEST PUSH1 0x0 DUP1 DUP3 SWAP2 POP DUP4 SWAP1 POP JUMPDEST PUSH1 0x1 DUP6 GT ISZERO PUSH2 0x24D JUMPI DUP1 DUP7 DIV DUP2 GT ISZERO PUSH2 0x229 JUMPI PUSH2 0x228 PUSH2 0x1C7 JUMP JUMPDEST JUMPDEST PUSH1 0x1 DUP6 AND ISZERO PUSH2 0x238 JUMPI DUP1 DUP3 MUL SWAP2 POP JUMPDEST DUP1 DUP2 MUL SWAP1 POP PUSH2 0x246 DUP6 PUSH2 0x1F6 JUMP JUMPDEST SWAP5 POP PUSH2 0x20D JUMP JUMPDEST SWAP5 POP SWAP5 SWAP3 POP POP POP JUMP JUMPDEST PUSH1 0x0 DUP3 PUSH2 0x266 JUMPI PUSH1 0x1 SWAP1 POP PUSH2 0x322 JUMP JUMPDEST DUP2 PUSH2 0x274 JUMPI PUSH1 0x0 SWAP1 POP PUSH2 0x322 JUMP JUMPDEST DUP2 PUSH1 0x1 DUP2 EQ PUSH2 0x28A JUMPI PUSH1 0x2 DUP2 EQ PUSH2 0x294 JUMPI PUSH2 0x2C3 JUMP JUMPDEST PUSH1 0x1 SWAP2 POP POP PUSH2 0x322 JUMP JUMPDEST PUSH1 0xFF DUP5 GT ISZERO PUSH2 0x2A6 JUMPI PUSH2 0x2A5 PUSH2 0x1C7 JUMP JUMPDEST JUMPDEST DUP4 PUSH1 0x2 EXP SWAP2 POP DUP5 DUP3 GT ISZERO PUSH2 0x2BD JUMPI PUSH2 0x2BC PUSH2 0x1C7 JUMP JUMPDEST JUMPDEST POP PUSH2 0x322 JUMP JUMPDEST POP PUSH1 0x20 DUP4 LT PUSH2 0x133 DUP4 LT AND PUSH1 0x4E DUP5 LT PUSH1 0xB DUP5 LT AND OR ISZERO PUSH2 0x2F8 JUMPI DUP3 DUP3 EXP SWAP1 POP DUP4 DUP2 GT ISZERO PUSH2 0x2F3 JUMPI PUSH2 0x2F2 PUSH2 0x1C7 JUMP JUMPDEST JUMPDEST PUSH2 0x322 JUMP JUMPDEST PUSH2 0x305 DUP5 DUP5 DUP5 PUSH1 0x1 PUSH2 0x203 JUMP JUMPDEST SWAP3 POP SWAP1 POP DUP2 DUP5 DIV DUP2 GT ISZERO PUSH2 0x31C JUMPI PUSH2 0x31B PUSH2 0x1C7 JUMP JUMPDEST JUMPDEST DUP2 DUP2 MUL SWAP1 POP JUMPDEST SWAP4 SWAP3 POP POP POP JUMP JUMPDEST PUSH1 0x0 PUSH2 0x334 DUP3 PUSH2 0x127 JUMP JUMPDEST SWAP2 POP PUSH2 0x33F DUP4 PUSH2 0x127 JUMP JUMPDEST SWAP3 POP PUSH2 0x36C PUSH32 0xFFFFFFFFFFFFFFFFFFFFFFFFFFFFFFFFFFFFFFFFFFFFFFFFFFFFFFFFFFFFFFFF DUP5 DUP5 PUSH2 0x256 JUMP JUMPDEST SWAP1 POP SWAP3 SWAP2 POP POP JUMP JUMPDEST PUSH1 0x0 PUSH2 0x37F DUP3 PUSH2 0x127 JUMP JUMPDEST SWAP2 POP PUSH2 0x38A DUP4 PUSH2 0x127 JUMP JUMPDEST SWAP3 POP DUP3 DUP3 ADD SWAP1 POP DUP1 DUP3 GT ISZERO PUSH2 0x3A2 JUMPI PUSH2 0x3A1 PUSH2 0x1C7 JUMP JUMPDEST JUMPDEST SWAP3 SWAP2 POP POP JUMP JUMPDEST PUSH1 0x0 PUSH2 0x3B3 DUP3 PUSH2 0x127 JUMP JUMPDEST SWAP2 POP PUSH2 0x3BE DUP4 PUSH2 0x127 JUMP JUMPDEST SWAP3 POP DUP3 DUP3 SUB SWAP1 POP DUP2 DUP2 GT ISZERO PUSH2 0x3D6 JUMPI PUSH2 0x3D5 PUSH2 0x1C7 JUMP JUMPDEST JUMPDEST SWAP3 SWAP2 POP POP JUMP INVALID LOG2 PUSH5 0x6970667358 0x22 SLT KECCAK256 0xB5 0xFB 0xE0 0xB2 0xEF 0xB9 0xD9 0xBF PUSH9 0xA6E19D9D60BB2D49C3 ADDMOD PUSH12 0xF7C3DAB2B7FFBE4B58C22E38 PUSH5 0x736F6C6343 STOP ADDMOD SLT STOP CALLER "
		},
		"gasEstimates": {
			"creation": {
				"codeDepositCost": "208400",
				"executionCost": "276",
				"totalCost": "208676"
			},
			"external": {
				"findDiff(uint256,uint256)": "infinite",
				"findExpo(uint256,uint256)": "infinite",
				"findSum(uint256,uint256)": "infinite"
			}
		},
		"methodIdentifiers": {
			"findDiff(uint256,uint256)": "c9524a73",
			"findExpo(uint256,uint256)": "6ca8c6e6",
			"findSum(uint256,uint256)": "b83d3ea6"
		}
	},
	"abi": [
		{
			"inputs": [
				{
					"internalType": "uint256",
					"name": "a",
					"type": "uint256"
				},
				{
					"internalType": "uint256",
					"name": "b",
					"type": "uint256"
				}
			],
			"name": "findDiff",
			"outputs": [
				{
					"internalType": "uint256",
					"name": "Diff",
					"type": "uint256"
				}
			],
			"stateMutability": "pure",
			"type": "function"
		},
		{
			"inputs": [
				{
					"internalType": "uint256",
					"name": "a",
					"type": "uint256"
				},
				{
					"internalType": "uint256",
					"name": "b",
					"type": "uint256"
				}
			],
			"name": "findExpo",
			"outputs": [
				{
					"internalType": "uint256",
					"name": "Expo",
					"type": "uint256"
				}
			],
			"stateMutability": "pure",
			"type": "function"
		},
		{
			"inputs": [
				{
					"internalType": "uint256",
					"name": "a",
					"type": "uint256"
				},
				{
					"internalType": "uint256",
					"name": "b",
					"type": "uint256"
				}
			],
			"name": "findSum",
			"outputs": [
				{
					"internalType": "uint256",
					"name": "Sum",
					"type": "uint256"
				}
			],
			"stateMutability": "pure",
			"type": "function"
		}
	]
}