{
	"data": {
		"bytecode": {
			"linkReferences": {},
			"object": "608060405234801561001057600080fd5b50610efb806100206000396000f3fe608060405234801561001057600080fd5b50600436106100415760003560e01c80639f82b59514610046578063b667c41014610076578063da58c7d9146100a9575b600080fd5b610060600480360381019061005b9190610633565b6100db565b60405161006d9190610735565b60405180910390f35b610090600480360381019061008b91906107f8565b6101f6565b6040516100a0949392919061095f565b60405180910390f35b6100c360048036038101906100be91906109ab565b61022e565b6040516100d2939291906109d8565b60405180910390f35b6060600060405180608001604052808773ffffffffffffffffffffffffffffffffffffffff168152602001868152602001858152602001848152509050600081908060018154018082558091505060019003906000526020600020906006020160009091909190915060008201518160000160006101000a81548173ffffffffffffffffffffffffffffffffffffffff021916908373ffffffffffffffffffffffffffffffffffffffff1602179055506020820151816001015560408201518160020190816101aa9190610c22565b506060820151816003019060036101c2929190610310565b505050858585856040516020016101dc949392919061095f565b604051602081830303815290604052915050949350505050565b6000806060610203610350565b848060200190518101906102179190610e42565b809450819550829650839750505050509193509193565b6000818154811061023e57600080fd5b90600052602060002090600602016000915090508060000160009054906101000a900473ffffffffffffffffffffffffffffffffffffffff169080600101549080600201805461028d90610a45565b80601f01602080910402602001604051908101604052809291908181526020018280546102b990610a45565b80156103065780601f106102db57610100808354040283529160200191610306565b820191906000526020600020905b8154815290600101906020018083116102e957829003601f168201915b5050505050905083565b826003810192821561033f579160200282015b8281111561033e578251825591602001919060010190610323565b5b50905061034c9190610372565b5090565b6040518060600160405280600390602082028036833780820191505090505090565b5b8082111561038b576000816000905550600101610373565b5090565b6000604051905090565b600080fd5b600080fd5b600073ffffffffffffffffffffffffffffffffffffffff82169050919050565b60006103ce826103a3565b9050919050565b6103de816103c3565b81146103e957600080fd5b50565b6000813590506103fb816103d5565b92915050565b6000819050919050565b61041481610401565b811461041f57600080fd5b50565b6000813590506104318161040b565b92915050565b600080fd5b600080fd5b6000601f19601f8301169050919050565b7f4e487b7100000000000000000000000000000000000000000000000000000000600052604160045260246000fd5b61048a82610441565b810181811067ffffffffffffffff821117156104a9576104a8610452565b5b80604052505050565b60006104bc61038f565b90506104c88282610481565b919050565b600067ffffffffffffffff8211156104e8576104e7610452565b5b6104f182610441565b9050602081019050919050565b82818337600083830152505050565b600061052061051b846104cd565b6104b2565b90508281526020810184848401111561053c5761053b61043c565b5b6105478482856104fe565b509392505050565b600082601f83011261056457610563610437565b5b813561057484826020860161050d565b91505092915050565b600067ffffffffffffffff82111561059857610597610452565b5b602082029050919050565b600080fd5b60006105bb6105b68461057d565b6104b2565b905080602084028301858111156105d5576105d46105a3565b5b835b818110156105fe57806105ea8882610422565b8452602084019350506020810190506105d7565b5050509392505050565b600082601f83011261061d5761061c610437565b5b600361062a8482856105a8565b91505092915050565b60008060008060c0858703121561064d5761064c610399565b5b600061065b878288016103ec565b945050602061066c87828801610422565b935050604085013567ffffffffffffffff81111561068d5761068c61039e565b5b6106998782880161054f565b92505060606106aa87828801610608565b91505092959194509250565b600081519050919050565b600082825260208201905092915050565b60005b838110156106f05780820151818401526020810190506106d5565b60008484015250505050565b6000610707826106b6565b61071181856106c1565b93506107218185602086016106d2565b61072a81610441565b840191505092915050565b6000602082019050818103600083015261074f81846106fc565b905092915050565b600067ffffffffffffffff82111561077257610771610452565b5b61077b82610441565b9050602081019050919050565b600061079b61079684610757565b6104b2565b9050828152602081018484840111156107b7576107b661043c565b5b6107c28482856104fe565b509392505050565b600082601f8301126107df576107de610437565b5b81356107ef848260208601610788565b91505092915050565b60006020828403121561080e5761080d610399565b5b600082013567ffffffffffffffff81111561082c5761082b61039e565b5b610838848285016107ca565b91505092915050565b61084a816103c3565b82525050565b61085981610401565b82525050565b600081519050919050565b600082825260208201905092915050565b60006108868261085f565b610890818561086a565b93506108a08185602086016106d2565b6108a981610441565b840191505092915050565b600060039050919050565b600081905092915050565b6000819050919050565b6108dd81610401565b82525050565b60006108ef83836108d4565b60208301905092915050565b6000602082019050919050565b610911816108b4565b61091b81846108bf565b9250610926826108ca565b8060005b8381101561095757815161093e87826108e3565b9650610949836108fb565b92505060018101905061092a565b505050505050565b600060c0820190506109746000830187610841565b6109816020830186610850565b8181036040830152610993818561087b565b90506109a26060830184610908565b95945050505050565b6000602082840312156109c1576109c0610399565b5b60006109cf84828501610422565b91505092915050565b60006060820190506109ed6000830186610841565b6109fa6020830185610850565b8181036040830152610a0c818461087b565b9050949350505050565b7f4e487b7100000000000000000000000000000000000000000000000000000000600052602260045260246000fd5b60006002820490506001821680610a5d57607f821691505b602082108103610a7057610a6f610a16565b5b50919050565b60008190508160005260206000209050919050565b60006020601f8301049050919050565b600082821b905092915050565b600060088302610ad87fffffffffffffffffffffffffffffffffffffffffffffffffffffffffffffffff82610a9b565b610ae28683610a9b565b95508019841693508086168417925050509392505050565b6000819050919050565b6000610b1f610b1a610b1584610401565b610afa565b610401565b9050919050565b6000819050919050565b610b3983610b04565b610b4d610b4582610b26565b848454610aa8565b825550505050565b600090565b610b62610b55565b610b6d818484610b30565b505050565b5b81811015610b9157610b86600082610b5a565b600181019050610b73565b5050565b601f821115610bd657610ba781610a76565b610bb084610a8b565b81016020851015610bbf578190505b610bd3610bcb85610a8b565b830182610b72565b50505b505050565b600082821c905092915050565b6000610bf960001984600802610bdb565b1980831691505092915050565b6000610c128383610be8565b9150826002028217905092915050565b610c2b8261085f565b67ffffffffffffffff811115610c4457610c43610452565b5b610c4e8254610a45565b610c59828285610b95565b600060209050601f831160018114610c8c5760008415610c7a578287015190505b610c848582610c06565b865550610cec565b601f198416610c9a86610a76565b60005b82811015610cc257848901518255600182019150602085019450602081019050610c9d565b86831015610cdf5784890151610cdb601f891682610be8565b8355505b6001600288020188555050505b505050505050565b6000610cff826103a3565b9050919050565b610d0f81610cf4565b8114610d1a57600080fd5b50565b600081519050610d2c81610d06565b92915050565b600081519050610d418161040b565b92915050565b6000610d5a610d55846104cd565b6104b2565b905082815260208101848484011115610d7657610d7561043c565b5b610d818482856106d2565b509392505050565b600082601f830112610d9e57610d9d610437565b5b8151610dae848260208601610d47565b91505092915050565b6000610dca610dc58461057d565b6104b2565b90508060208402830185811115610de457610de36105a3565b5b835b81811015610e0d5780610df98882610d32565b845260208401935050602081019050610de6565b5050509392505050565b600082601f830112610e2c57610e2b610437565b5b6003610e39848285610db7565b91505092915050565b60008060008060c08587031215610e5c57610e5b610399565b5b6000610e6a87828801610d1d565b9450506020610e7b87828801610d32565b935050604085015167ffffffffffffffff811115610e9c57610e9b61039e565b5b610ea887828801610d89565b9250506060610eb987828801610e17565b9150509295919450925056fea2646970667358221220a59012f5c198487bac1b9974286b9e1359f8c168ee456b1f91b39f7d2ee81dea64736f6c63430008120033",
			"opcodes": "PUSH1 0x80 PUSH1 0x40 MSTORE CALLVALUE DUP1 ISZERO PUSH2 0x10 JUMPI PUSH1 0x0 DUP1 REVERT JUMPDEST POP PUSH2 0xEFB DUP1 PUSH2 0x20 PUSH1 0x0 CODECOPY PUSH1 0x0 RETURN INVALID PUSH1 0x80 PUSH1 0x40 MSTORE CALLVALUE DUP1 ISZERO PUSH2 0x10 JUMPI PUSH1 0x0 DUP1 REVERT JUMPDEST POP PUSH1 0x4 CALLDATASIZE LT PUSH2 0x41 JUMPI PUSH1 0x0 CALLDATALOAD PUSH1 0xE0 SHR DUP1 PUSH4 0x9F82B595 EQ PUSH2 0x46 JUMPI DUP1 PUSH4 0xB667C410 EQ PUSH2 0x76 JUMPI DUP1 PUSH4 0xDA58C7D9 EQ PUSH2 0xA9 JUMPI JUMPDEST PUSH1 0x0 DUP1 REVERT JUMPDEST PUSH2 0x60 PUSH1 0x4 DUP1 CALLDATASIZE SUB DUP2 ADD SWAP1 PUSH2 0x5B SWAP2 SWAP1 PUSH2 0x633 JUMP JUMPDEST PUSH2 0xDB JUMP JUMPDEST PUSH1 0x40 MLOAD PUSH2 0x6D SWAP2 SWAP1 PUSH2 0x735 JUMP JUMPDEST PUSH1 0x40 MLOAD DUP1 SWAP2 SUB SWAP1 RETURN JUMPDEST PUSH2 0x90 PUSH1 0x4 DUP1 CALLDATASIZE SUB DUP2 ADD SWAP1 PUSH2 0x8B SWAP2 SWAP1 PUSH2 0x7F8 JUMP JUMPDEST PUSH2 0x1F6 JUMP JUMPDEST PUSH1 0x40 MLOAD PUSH2 0xA0 SWAP5 SWAP4 SWAP3 SWAP2 SWAP1 PUSH2 0x95F JUMP JUMPDEST PUSH1 0x40 MLOAD DUP1 SWAP2 SUB SWAP1 RETURN JUMPDEST PUSH2 0xC3 PUSH1 0x4 DUP1 CALLDATASIZE SUB DUP2 ADD SWAP1 PUSH2 0xBE SWAP2 SWAP1 PUSH2 0x9AB JUMP JUMPDEST PUSH2 0x22E JUMP JUMPDEST PUSH1 0x40 MLOAD PUSH2 0xD2 SWAP4 SWAP3 SWAP2 SWAP1 PUSH2 0x9D8 JUMP JUMPDEST PUSH1 0x40 MLOAD DUP1 SWAP2 SUB SWAP1 RETURN JUMPDEST PUSH1 0x60 PUSH1 0x0 PUSH1 0x40 MLOAD DUP1 PUSH1 0x80 ADD PUSH1 0x40 MSTORE DUP1 DUP8 PUSH20 0xFFFFFFFFFFFFFFFFFFFFFFFFFFFFFFFFFFFFFFFF AND DUP2 MSTORE PUSH1 0x20 ADD DUP7 DUP2 MSTORE PUSH1 0x20 ADD DUP6 DUP2 MSTORE PUSH1 0x20 ADD DUP5 DUP2 MSTORE POP SWAP1 POP PUSH1 0x0 DUP2 SWAP1 DUP1 PUSH1 0x1 DUP2 SLOAD ADD DUP1 DUP3 SSTORE DUP1 SWAP2 POP POP PUSH1 0x1 SWAP1 SUB SWAP1 PUSH1 0x0 MSTORE PUSH1 0x20 PUSH1 0x0 KECCAK256 SWAP1 PUSH1 0x6 MUL ADD PUSH1 0x0 SWAP1 SWAP2 SWAP1 SWAP2 SWAP1 SWAP2 POP PUSH1 0x0 DUP3 ADD MLOAD DUP2 PUSH1 0x0 ADD PUSH1 0x0 PUSH2 0x100 EXP DUP2 SLOAD DUP2 PUSH20 0xFFFFFFFFFFFFFFFFFFFFFFFFFFFFFFFFFFFFFFFF MUL NOT AND SWAP1 DUP4 PUSH20 0xFFFFFFFFFFFFFFFFFFFFFFFFFFFFFFFFFFFFFFFF AND MUL OR SWAP1 SSTORE POP PUSH1 0x20 DUP3 ADD MLOAD DUP2 PUSH1 0x1 ADD SSTORE PUSH1 0x40 DUP3 ADD MLOAD DUP2 PUSH1 0x2 ADD SWAP1 DUP2 PUSH2 0x1AA SWAP2 SWAP1 PUSH2 0xC22 JUMP JUMPDEST POP PUSH1 0x60 DUP3 ADD MLOAD DUP2 PUSH1 0x3 ADD SWAP1 PUSH1 0x3 PUSH2 0x1C2 SWAP3 SWAP2 SWAP1 PUSH2 0x310 JUMP JUMPDEST POP POP POP DUP6 DUP6 DUP6 DUP6 PUSH1 0x40 MLOAD PUSH1 0x20 ADD PUSH2 0x1DC SWAP5 SWAP4 SWAP3 SWAP2 SWAP1 PUSH2 0x95F JUMP JUMPDEST PUSH1 0x40 MLOAD PUSH1 0x20 DUP2 DUP4 SUB SUB DUP2 MSTORE SWAP1 PUSH1 0x40 MSTORE SWAP2 POP POP SWAP5 SWAP4 POP POP POP POP JUMP JUMPDEST PUSH1 0x0 DUP1 PUSH1 0x60 PUSH2 0x203 PUSH2 0x350 JUMP JUMPDEST DUP5 DUP1 PUSH1 0x20 ADD SWAP1 MLOAD DUP2 ADD SWAP1 PUSH2 0x217 SWAP2 SWAP1 PUSH2 0xE42 JUMP JUMPDEST DUP1 SWAP5 POP DUP2 SWAP6 POP DUP3 SWAP7 POP DUP4 SWAP8 POP POP POP POP POP SWAP2 SWAP4 POP SWAP2 SWAP4 JUMP JUMPDEST PUSH1 0x0 DUP2 DUP2 SLOAD DUP2 LT PUSH2 0x23E JUMPI PUSH1 0x0 DUP1 REVERT JUMPDEST SWAP1 PUSH1 0x0 MSTORE PUSH1 0x20 PUSH1 0x0 KECCAK256 SWAP1 PUSH1 0x6 MUL ADD PUSH1 0x0 SWAP2 POP SWAP1 POP DUP1 PUSH1 0x0 ADD PUSH1 0x0 SWAP1 SLOAD SWAP1 PUSH2 0x100 EXP SWAP1 DIV PUSH20 0xFFFFFFFFFFFFFFFFFFFFFFFFFFFFFFFFFFFFFFFF AND SWAP1 DUP1 PUSH1 0x1 ADD SLOAD SWAP1 DUP1 PUSH1 0x2 ADD DUP1 SLOAD PUSH2 0x28D SWAP1 PUSH2 0xA45 JUMP JUMPDEST DUP1 PUSH1 0x1F ADD PUSH1 0x20 DUP1 SWAP2 DIV MUL PUSH1 0x20 ADD PUSH1 0x40 MLOAD SWAP1 DUP2 ADD PUSH1 0x40 MSTORE DUP1 SWAP3 SWAP2 SWAP1 DUP2 DUP2 MSTORE PUSH1 0x20 ADD DUP3 DUP1 SLOAD PUSH2 0x2B9 SWAP1 PUSH2 0xA45 JUMP JUMPDEST DUP1 ISZERO PUSH2 0x306 JUMPI DUP1 PUSH1 0x1F LT PUSH2 0x2DB JUMPI PUSH2 0x100 DUP1 DUP4 SLOAD DIV MUL DUP4 MSTORE SWAP2 PUSH1 0x20 ADD SWAP2 PUSH2 0x306 JUMP JUMPDEST DUP3 ADD SWAP2 SWAP1 PUSH1 0x0 MSTORE PUSH1 0x20 PUSH1 0x0 KECCAK256 SWAP1 JUMPDEST DUP2 SLOAD DUP2 MSTORE SWAP1 PUSH1 0x1 ADD SWAP1 PUSH1 0x20 ADD DUP1 DUP4 GT PUSH2 0x2E9 JUMPI DUP3 SWAP1 SUB PUSH1 0x1F AND DUP3 ADD SWAP2 JUMPDEST POP POP POP POP POP SWAP1 POP DUP4 JUMP JUMPDEST DUP3 PUSH1 0x3 DUP2 ADD SWAP3 DUP3 ISZERO PUSH2 0x33F JUMPI SWAP2 PUSH1 0x20 MUL DUP3 ADD JUMPDEST DUP3 DUP2 GT ISZERO PUSH2 0x33E JUMPI DUP3 MLOAD DUP3 SSTORE SWAP2 PUSH1 0x20 ADD SWAP2 SWAP1 PUSH1 0x1 ADD SWAP1 PUSH2 0x323 JUMP JUMPDEST JUMPDEST POP SWAP1 POP PUSH2 0x34C SWAP2 SWAP1 PUSH2 0x372 JUMP JUMPDEST POP SWAP1 JUMP JUMPDEST PUSH1 0x40 MLOAD DUP1 PUSH1 0x60 ADD PUSH1 0x40 MSTORE DUP1 PUSH1 0x3 SWAP1 PUSH1 0x20 DUP3 MUL DUP1 CALLDATASIZE DUP4 CALLDATACOPY DUP1 DUP3 ADD SWAP2 POP POP SWAP1 POP POP SWAP1 JUMP JUMPDEST JUMPDEST DUP1 DUP3 GT ISZERO PUSH2 0x38B JUMPI PUSH1 0x0 DUP2 PUSH1 0x0 SWAP1 SSTORE POP PUSH1 0x1 ADD PUSH2 0x373 JUMP JUMPDEST POP SWAP1 JUMP JUMPDEST PUSH1 0x0 PUSH1 0x40 MLOAD SWAP1 POP SWAP1 JUMP JUMPDEST PUSH1 0x0 DUP1 REVERT JUMPDEST PUSH1 0x0 DUP1 REVERT JUMPDEST PUSH1 0x0 PUSH20 0xFFFFFFFFFFFFFFFFFFFFFFFFFFFFFFFFFFFFFFFF DUP3 AND SWAP1 POP SWAP2 SWAP1 POP JUMP JUMPDEST PUSH1 0x0 PUSH2 0x3CE DUP3 PUSH2 0x3A3 JUMP JUMPDEST SWAP1 POP SWAP2 SWAP1 POP JUMP JUMPDEST PUSH2 0x3DE DUP2 PUSH2 0x3C3 JUMP JUMPDEST DUP2 EQ PUSH2 0x3E9 JUMPI PUSH1 0x0 DUP1 REVERT JUMPDEST POP JUMP JUMPDEST PUSH1 0x0 DUP2 CALLDATALOAD SWAP1 POP PUSH2 0x3FB DUP2 PUSH2 0x3D5 JUMP JUMPDEST SWAP3 SWAP2 POP POP JUMP JUMPDEST PUSH1 0x0 DUP2 SWAP1 POP SWAP2 SWAP1 POP JUMP JUMPDEST PUSH2 0x414 DUP2 PUSH2 0x401 JUMP JUMPDEST DUP2 EQ PUSH2 0x41F JUMPI PUSH1 0x0 DUP1 REVERT JUMPDEST POP JUMP JUMPDEST PUSH1 0x0 DUP2 CALLDATALOAD SWAP1 POP PUSH2 0x431 DUP2 PUSH2 0x40B JUMP JUMPDEST SWAP3 SWAP2 POP POP JUMP JUMPDEST PUSH1 0x0 DUP1 REVERT JUMPDEST PUSH1 0x0 DUP1 REVERT JUMPDEST PUSH1 0x0 PUSH1 0x1F NOT PUSH1 0x1F DUP4 ADD AND SWAP1 POP SWAP2 SWAP1 POP JUMP JUMPDEST PUSH32 0x4E487B7100000000000000000000000000000000000000000000000000000000 PUSH1 0x0 MSTORE PUSH1 0x41 PUSH1 0x4 MSTORE PUSH1 0x24 PUSH1 0x0 REVERT JUMPDEST PUSH2 0x48A DUP3 PUSH2 0x441 JUMP JUMPDEST DUP2 ADD DUP2 DUP2 LT PUSH8 0xFFFFFFFFFFFFFFFF DUP3 GT OR ISZERO PUSH2 0x4A9 JUMPI PUSH2 0x4A8 PUSH2 0x452 JUMP JUMPDEST JUMPDEST DUP1 PUSH1 0x40 MSTORE POP POP POP JUMP JUMPDEST PUSH1 0x0 PUSH2 0x4BC PUSH2 0x38F JUMP JUMPDEST SWAP1 POP PUSH2 0x4C8 DUP3 DUP3 PUSH2 0x481 JUMP JUMPDEST SWAP2 SWAP1 POP JUMP JUMPDEST PUSH1 0x0 PUSH8 0xFFFFFFFFFFFFFFFF DUP3 GT ISZERO PUSH2 0x4E8 JUMPI PUSH2 0x4E7 PUSH2 0x452 JUMP JUMPDEST JUMPDEST PUSH2 0x4F1 DUP3 PUSH2 0x441 JUMP JUMPDEST SWAP1 POP PUSH1 0x20 DUP2 ADD SWAP1 POP SWAP2 SWAP1 POP JUMP JUMPDEST DUP3 DUP2 DUP4 CALLDATACOPY PUSH1 0x0 DUP4 DUP4 ADD MSTORE POP POP POP JUMP JUMPDEST PUSH1 0x0 PUSH2 0x520 PUSH2 0x51B DUP5 PUSH2 0x4CD JUMP JUMPDEST PUSH2 0x4B2 JUMP JUMPDEST SWAP1 POP DUP3 DUP2 MSTORE PUSH1 0x20 DUP2 ADD DUP5 DUP5 DUP5 ADD GT ISZERO PUSH2 0x53C JUMPI PUSH2 0x53B PUSH2 0x43C JUMP JUMPDEST JUMPDEST PUSH2 0x547 DUP5 DUP3 DUP6 PUSH2 0x4FE JUMP JUMPDEST POP SWAP4 SWAP3 POP POP POP JUMP JUMPDEST PUSH1 0x0 DUP3 PUSH1 0x1F DUP4 ADD SLT PUSH2 0x564 JUMPI PUSH2 0x563 PUSH2 0x437 JUMP JUMPDEST JUMPDEST DUP2 CALLDATALOAD PUSH2 0x574 DUP5 DUP3 PUSH1 0x20 DUP7 ADD PUSH2 0x50D JUMP JUMPDEST SWAP2 POP POP SWAP3 SWAP2 POP POP JUMP JUMPDEST PUSH1 0x0 PUSH8 0xFFFFFFFFFFFFFFFF DUP3 GT ISZERO PUSH2 0x598 JUMPI PUSH2 0x597 PUSH2 0x452 JUMP JUMPDEST JUMPDEST PUSH1 0x20 DUP3 MUL SWAP1 POP SWAP2 SWAP1 POP JUMP JUMPDEST PUSH1 0x0 DUP1 REVERT JUMPDEST PUSH1 0x0 PUSH2 0x5BB PUSH2 0x5B6 DUP5 PUSH2 0x57D JUMP JUMPDEST PUSH2 0x4B2 JUMP JUMPDEST SWAP1 POP DUP1 PUSH1 0x20 DUP5 MUL DUP4 ADD DUP6 DUP2 GT ISZERO PUSH2 0x5D5 JUMPI PUSH2 0x5D4 PUSH2 0x5A3 JUMP JUMPDEST JUMPDEST DUP4 JUMPDEST DUP2 DUP2 LT ISZERO PUSH2 0x5FE JUMPI DUP1 PUSH2 0x5EA DUP9 DUP3 PUSH2 0x422 JUMP JUMPDEST DUP5 MSTORE PUSH1 0x20 DUP5 ADD SWAP4 POP POP PUSH1 0x20 DUP2 ADD SWAP1 POP PUSH2 0x5D7 JUMP JUMPDEST POP POP POP SWAP4 SWAP3 POP POP POP JUMP JUMPDEST PUSH1 0x0 DUP3 PUSH1 0x1F DUP4 ADD SLT PUSH2 0x61D JUMPI PUSH2 0x61C PUSH2 0x437 JUMP JUMPDEST JUMPDEST PUSH1 0x3 PUSH2 0x62A DUP5 DUP3 DUP6 PUSH2 0x5A8 JUMP JUMPDEST SWAP2 POP POP SWAP3 SWAP2 POP POP JUMP JUMPDEST PUSH1 0x0 DUP1 PUSH1 0x0 DUP1 PUSH1 0xC0 DUP6 DUP8 SUB SLT ISZERO PUSH2 0x64D JUMPI PUSH2 0x64C PUSH2 0x399 JUMP JUMPDEST JUMPDEST PUSH1 0x0 PUSH2 0x65B DUP8 DUP3 DUP9 ADD PUSH2 0x3EC JUMP JUMPDEST SWAP5 POP POP PUSH1 0x20 PUSH2 0x66C DUP8 DUP3 DUP9 ADD PUSH2 0x422 JUMP JUMPDEST SWAP4 POP POP PUSH1 0x40 DUP6 ADD CALLDATALOAD PUSH8 0xFFFFFFFFFFFFFFFF DUP2 GT ISZERO PUSH2 0x68D JUMPI PUSH2 0x68C PUSH2 0x39E JUMP JUMPDEST JUMPDEST PUSH2 0x699 DUP8 DUP3 DUP9 ADD PUSH2 0x54F JUMP JUMPDEST SWAP3 POP POP PUSH1 0x60 PUSH2 0x6AA DUP8 DUP3 DUP9 ADD PUSH2 0x608 JUMP JUMPDEST SWAP2 POP POP SWAP3 SWAP6 SWAP2 SWAP5 POP SWAP3 POP JUMP JUMPDEST PUSH1 0x0 DUP2 MLOAD SWAP1 POP SWAP2 SWAP1 POP JUMP JUMPDEST PUSH1 0x0 DUP3 DUP3 MSTORE PUSH1 0x20 DUP3 ADD SWAP1 POP SWAP3 SWAP2 POP POP JUMP JUMPDEST PUSH1 0x0 JUMPDEST DUP4 DUP2 LT ISZERO PUSH2 0x6F0 JUMPI DUP1 DUP3 ADD MLOAD DUP2 DUP5 ADD MSTORE PUSH1 0x20 DUP2 ADD SWAP1 POP PUSH2 0x6D5 JUMP JUMPDEST PUSH1 0x0 DUP5 DUP5 ADD MSTORE POP POP POP POP JUMP JUMPDEST PUSH1 0x0 PUSH2 0x707 DUP3 PUSH2 0x6B6 JUMP JUMPDEST PUSH2 0x711 DUP2 DUP6 PUSH2 0x6C1 JUMP JUMPDEST SWAP4 POP PUSH2 0x721 DUP2 DUP6 PUSH1 0x20 DUP7 ADD PUSH2 0x6D2 JUMP JUMPDEST PUSH2 0x72A DUP2 PUSH2 0x441 JUMP JUMPDEST DUP5 ADD SWAP2 POP POP SWAP3 SWAP2 POP POP JUMP JUMPDEST PUSH1 0x0 PUSH1 0x20 DUP3 ADD SWAP1 POP DUP2 DUP2 SUB PUSH1 0x0 DUP4 ADD MSTORE PUSH2 0x74F DUP2 DUP5 PUSH2 0x6FC JUMP JUMPDEST SWAP1 POP SWAP3 SWAP2 POP POP JUMP JUMPDEST PUSH1 0x0 PUSH8 0xFFFFFFFFFFFFFFFF DUP3 GT ISZERO PUSH2 0x772 JUMPI PUSH2 0x771 PUSH2 0x452 JUMP JUMPDEST JUMPDEST PUSH2 0x77B DUP3 PUSH2 0x441 JUMP JUMPDEST SWAP1 POP PUSH1 0x20 DUP2 ADD SWAP1 POP SWAP2 SWAP1 POP JUMP JUMPDEST PUSH1 0x0 PUSH2 0x79B PUSH2 0x796 DUP5 PUSH2 0x757 JUMP JUMPDEST PUSH2 0x4B2 JUMP JUMPDEST SWAP1 POP DUP3 DUP2 MSTORE PUSH1 0x20 DUP2 ADD DUP5 DUP5 DUP5 ADD GT ISZERO PUSH2 0x7B7 JUMPI PUSH2 0x7B6 PUSH2 0x43C JUMP JUMPDEST JUMPDEST PUSH2 0x7C2 DUP5 DUP3 DUP6 PUSH2 0x4FE JUMP JUMPDEST POP SWAP4 SWAP3 POP POP POP JUMP JUMPDEST PUSH1 0x0 DUP3 PUSH1 0x1F DUP4 ADD SLT PUSH2 0x7DF JUMPI PUSH2 0x7DE PUSH2 0x437 JUMP JUMPDEST JUMPDEST DUP2 CALLDATALOAD PUSH2 0x7EF DUP5 DUP3 PUSH1 0x20 DUP7 ADD PUSH2 0x788 JUMP JUMPDEST SWAP2 POP POP SWAP3 SWAP2 POP POP JUMP JUMPDEST PUSH1 0x0 PUSH1 0x20 DUP3 DUP5 SUB SLT ISZERO PUSH2 0x80E JUMPI PUSH2 0x80D PUSH2 0x399 JUMP JUMPDEST JUMPDEST PUSH1 0x0 DUP3 ADD CALLDATALOAD PUSH8 0xFFFFFFFFFFFFFFFF DUP2 GT ISZERO PUSH2 0x82C JUMPI PUSH2 0x82B PUSH2 0x39E JUMP JUMPDEST JUMPDEST PUSH2 0x838 DUP5 DUP3 DUP6 ADD PUSH2 0x7CA JUMP JUMPDEST SWAP2 POP POP SWAP3 SWAP2 POP POP JUMP JUMPDEST PUSH2 0x84A DUP2 PUSH2 0x3C3 JUMP JUMPDEST DUP3 MSTORE POP POP JUMP JUMPDEST PUSH2 0x859 DUP2 PUSH2 0x401 JUMP JUMPDEST DUP3 MSTORE POP POP JUMP JUMPDEST PUSH1 0x0 DUP2 MLOAD SWAP1 POP SWAP2 SWAP1 POP JUMP JUMPDEST PUSH1 0x0 DUP3 DUP3 MSTORE PUSH1 0x20 DUP3 ADD SWAP1 POP SWAP3 SWAP2 POP POP JUMP JUMPDEST PUSH1 0x0 PUSH2 0x886 DUP3 PUSH2 0x85F JUMP JUMPDEST PUSH2 0x890 DUP2 DUP6 PUSH2 0x86A JUMP JUMPDEST SWAP4 POP PUSH2 0x8A0 DUP2 DUP6 PUSH1 0x20 DUP7 ADD PUSH2 0x6D2 JUMP JUMPDEST PUSH2 0x8A9 DUP2 PUSH2 0x441 JUMP JUMPDEST DUP5 ADD SWAP2 POP POP SWAP3 SWAP2 POP POP JUMP JUMPDEST PUSH1 0x0 PUSH1 0x3 SWAP1 POP SWAP2 SWAP1 POP JUMP JUMPDEST PUSH1 0x0 DUP2 SWAP1 POP SWAP3 SWAP2 POP POP JUMP JUMPDEST PUSH1 0x0 DUP2 SWAP1 POP SWAP2 SWAP1 POP JUMP JUMPDEST PUSH2 0x8DD DUP2 PUSH2 0x401 JUMP JUMPDEST DUP3 MSTORE POP POP JUMP JUMPDEST PUSH1 0x0 PUSH2 0x8EF DUP4 DUP4 PUSH2 0x8D4 JUMP JUMPDEST PUSH1 0x20 DUP4 ADD SWAP1 POP SWAP3 SWAP2 POP POP JUMP JUMPDEST PUSH1 0x0 PUSH1 0x20 DUP3 ADD SWAP1 POP SWAP2 SWAP1 POP JUMP JUMPDEST PUSH2 0x911 DUP2 PUSH2 0x8B4 JUMP JUMPDEST PUSH2 0x91B DUP2 DUP5 PUSH2 0x8BF JUMP JUMPDEST SWAP3 POP PUSH2 0x926 DUP3 PUSH2 0x8CA JUMP JUMPDEST DUP1 PUSH1 0x0 JUMPDEST DUP4 DUP2 LT ISZERO PUSH2 0x957 JUMPI DUP2 MLOAD PUSH2 0x93E DUP8 DUP3 PUSH2 0x8E3 JUMP JUMPDEST SWAP7 POP PUSH2 0x949 DUP4 PUSH2 0x8FB JUMP JUMPDEST SWAP3 POP POP PUSH1 0x1 DUP2 ADD SWAP1 POP PUSH2 0x92A JUMP JUMPDEST POP POP POP POP POP POP JUMP JUMPDEST PUSH1 0x0 PUSH1 0xC0 DUP3 ADD SWAP1 POP PUSH2 0x974 PUSH1 0x0 DUP4 ADD DUP8 PUSH2 0x841 JUMP JUMPDEST PUSH2 0x981 PUSH1 0x20 DUP4 ADD DUP7 PUSH2 0x850 JUMP JUMPDEST DUP2 DUP2 SUB PUSH1 0x40 DUP4 ADD MSTORE PUSH2 0x993 DUP2 DUP6 PUSH2 0x87B JUMP JUMPDEST SWAP1 POP PUSH2 0x9A2 PUSH1 0x60 DUP4 ADD DUP5 PUSH2 0x908 JUMP JUMPDEST SWAP6 SWAP5 POP POP POP POP POP JUMP JUMPDEST PUSH1 0x0 PUSH1 0x20 DUP3 DUP5 SUB SLT ISZERO PUSH2 0x9C1 JUMPI PUSH2 0x9C0 PUSH2 0x399 JUMP JUMPDEST JUMPDEST PUSH1 0x0 PUSH2 0x9CF DUP5 DUP3 DUP6 ADD PUSH2 0x422 JUMP JUMPDEST SWAP2 POP POP SWAP3 SWAP2 POP POP JUMP JUMPDEST PUSH1 0x0 PUSH1 0x60 DUP3 ADD SWAP1 POP PUSH2 0x9ED PUSH1 0x0 DUP4 ADD DUP7 PUSH2 0x841 JUMP JUMPDEST PUSH2 0x9FA PUSH1 0x20 DUP4 ADD DUP6 PUSH2 0x850 JUMP JUMPDEST DUP2 DUP2 SUB PUSH1 0x40 DUP4 ADD MSTORE PUSH2 0xA0C DUP2 DUP5 PUSH2 0x87B JUMP JUMPDEST SWAP1 POP SWAP5 SWAP4 POP POP POP POP JUMP JUMPDEST PUSH32 0x4E487B7100000000000000000000000000000000000000000000000000000000 PUSH1 0x0 MSTORE PUSH1 0x22 PUSH1 0x4 MSTORE PUSH1 0x24 PUSH1 0x0 REVERT JUMPDEST PUSH1 0x0 PUSH1 0x2 DUP3 DIV SWAP1 POP PUSH1 0x1 DUP3 AND DUP1 PUSH2 0xA5D JUMPI PUSH1 0x7F DUP3 AND SWAP2 POP JUMPDEST PUSH1 0x20 DUP3 LT DUP2 SUB PUSH2 0xA70 JUMPI PUSH2 0xA6F PUSH2 0xA16 JUMP JUMPDEST JUMPDEST POP SWAP2 SWAP1 POP JUMP JUMPDEST PUSH1 0x0 DUP2 SWAP1 POP DUP2 PUSH1 0x0 MSTORE PUSH1 0x20 PUSH1 0x0 KECCAK256 SWAP1 POP SWAP2 SWAP1 POP JUMP JUMPDEST PUSH1 0x0 PUSH1 0x20 PUSH1 0x1F DUP4 ADD DIV SWAP1 POP SWAP2 SWAP1 POP JUMP JUMPDEST PUSH1 0x0 DUP3 DUP3 SHL SWAP1 POP SWAP3 SWAP2 POP POP JUMP JUMPDEST PUSH1 0x0 PUSH1 0x8 DUP4 MUL PUSH2 0xAD8 PUSH32 0xFFFFFFFFFFFFFFFFFFFFFFFFFFFFFFFFFFFFFFFFFFFFFFFFFFFFFFFFFFFFFFFF DUP3 PUSH2 0xA9B JUMP JUMPDEST PUSH2 0xAE2 DUP7 DUP4 PUSH2 0xA9B JUMP JUMPDEST SWAP6 POP DUP1 NOT DUP5 AND SWAP4 POP DUP1 DUP7 AND DUP5 OR SWAP3 POP POP POP SWAP4 SWAP3 POP POP POP JUMP JUMPDEST PUSH1 0x0 DUP2 SWAP1 POP SWAP2 SWAP1 POP JUMP JUMPDEST PUSH1 0x0 PUSH2 0xB1F PUSH2 0xB1A PUSH2 0xB15 DUP5 PUSH2 0x401 JUMP JUMPDEST PUSH2 0xAFA JUMP JUMPDEST PUSH2 0x401 JUMP JUMPDEST SWAP1 POP SWAP2 SWAP1 POP JUMP JUMPDEST PUSH1 0x0 DUP2 SWAP1 POP SWAP2 SWAP1 POP JUMP JUMPDEST PUSH2 0xB39 DUP4 PUSH2 0xB04 JUMP JUMPDEST PUSH2 0xB4D PUSH2 0xB45 DUP3 PUSH2 0xB26 JUMP JUMPDEST DUP5 DUP5 SLOAD PUSH2 0xAA8 JUMP JUMPDEST DUP3 SSTORE POP POP POP POP JUMP JUMPDEST PUSH1 0x0 SWAP1 JUMP JUMPDEST PUSH2 0xB62 PUSH2 0xB55 JUMP JUMPDEST PUSH2 0xB6D DUP2 DUP5 DUP5 PUSH2 0xB30 JUMP JUMPDEST POP POP POP JUMP JUMPDEST JUMPDEST DUP2 DUP2 LT ISZERO PUSH2 0xB91 JUMPI PUSH2 0xB86 PUSH1 0x0 DUP3 PUSH2 0xB5A JUMP JUMPDEST PUSH1 0x1 DUP2 ADD SWAP1 POP PUSH2 0xB73 JUMP JUMPDEST POP POP JUMP JUMPDEST PUSH1 0x1F DUP3 GT ISZERO PUSH2 0xBD6 JUMPI PUSH2 0xBA7 DUP2 PUSH2 0xA76 JUMP JUMPDEST PUSH2 0xBB0 DUP5 PUSH2 0xA8B JUMP JUMPDEST DUP2 ADD PUSH1 0x20 DUP6 LT ISZERO PUSH2 0xBBF JUMPI DUP2 SWAP1 POP JUMPDEST PUSH2 0xBD3 PUSH2 0xBCB DUP6 PUSH2 0xA8B JUMP JUMPDEST DUP4 ADD DUP3 PUSH2 0xB72 JUMP JUMPDEST POP POP JUMPDEST POP POP POP JUMP JUMPDEST PUSH1 0x0 DUP3 DUP3 SHR SWAP1 POP SWAP3 SWAP2 POP POP JUMP JUMPDEST PUSH1 0x0 PUSH2 0xBF9 PUSH1 0x0 NOT DUP5 PUSH1 0x8 MUL PUSH2 0xBDB JUMP JUMPDEST NOT DUP1 DUP4 AND SWAP2 POP POP SWAP3 SWAP2 POP POP JUMP JUMPDEST PUSH1 0x0 PUSH2 0xC12 DUP4 DUP4 PUSH2 0xBE8 JUMP JUMPDEST SWAP2 POP DUP3 PUSH1 0x2 MUL DUP3 OR SWAP1 POP SWAP3 SWAP2 POP POP JUMP JUMPDEST PUSH2 0xC2B DUP3 PUSH2 0x85F JUMP JUMPDEST PUSH8 0xFFFFFFFFFFFFFFFF DUP2 GT ISZERO PUSH2 0xC44 JUMPI PUSH2 0xC43 PUSH2 0x452 JUMP JUMPDEST JUMPDEST PUSH2 0xC4E DUP3 SLOAD PUSH2 0xA45 JUMP JUMPDEST PUSH2 0xC59 DUP3 DUP3 DUP6 PUSH2 0xB95 JUMP JUMPDEST PUSH1 0x0 PUSH1 0x20 SWAP1 POP PUSH1 0x1F DUP4 GT PUSH1 0x1 DUP2 EQ PUSH2 0xC8C JUMPI PUSH1 0x0 DUP5 ISZERO PUSH2 0xC7A JUMPI DUP3 DUP8 ADD MLOAD SWAP1 POP JUMPDEST PUSH2 0xC84 DUP6 DUP3 PUSH2 0xC06 JUMP JUMPDEST DUP7 SSTORE POP PUSH2 0xCEC JUMP JUMPDEST PUSH1 0x1F NOT DUP5 AND PUSH2 0xC9A DUP7 PUSH2 0xA76 JUMP JUMPDEST PUSH1 0x0 JUMPDEST DUP3 DUP2 LT ISZERO PUSH2 0xCC2 JUMPI DUP5 DUP10 ADD MLOAD DUP3 SSTORE PUSH1 0x1 DUP3 ADD SWAP2 POP PUSH1 0x20 DUP6 ADD SWAP5 POP PUSH1 0x20 DUP2 ADD SWAP1 POP PUSH2 0xC9D JUMP JUMPDEST DUP7 DUP4 LT ISZERO PUSH2 0xCDF JUMPI DUP5 DUP10 ADD MLOAD PUSH2 0xCDB PUSH1 0x1F DUP10 AND DUP3 PUSH2 0xBE8 JUMP JUMPDEST DUP4 SSTORE POP JUMPDEST PUSH1 0x1 PUSH1 0x2 DUP9 MUL ADD DUP9 SSTORE POP POP POP JUMPDEST POP POP POP POP POP POP JUMP JUMPDEST PUSH1 0x0 PUSH2 0xCFF DUP3 PUSH2 0x3A3 JUMP JUMPDEST SWAP1 POP SWAP2 SWAP1 POP JUMP JUMPDEST PUSH2 0xD0F DUP2 PUSH2 0xCF4 JUMP JUMPDEST DUP2 EQ PUSH2 0xD1A JUMPI PUSH1 0x0 DUP1 REVERT JUMPDEST POP JUMP JUMPDEST PUSH1 0x0 DUP2 MLOAD SWAP1 POP PUSH2 0xD2C DUP2 PUSH2 0xD06 JUMP JUMPDEST SWAP3 SWAP2 POP POP JUMP JUMPDEST PUSH1 0x0 DUP2 MLOAD SWAP1 POP PUSH2 0xD41 DUP2 PUSH2 0x40B JUMP JUMPDEST SWAP3 SWAP2 POP POP JUMP JUMPDEST PUSH1 0x0 PUSH2 0xD5A PUSH2 0xD55 DUP5 PUSH2 0x4CD JUMP JUMPDEST PUSH2 0x4B2 JUMP JUMPDEST SWAP1 POP DUP3 DUP2 MSTORE PUSH1 0x20 DUP2 ADD DUP5 DUP5 DUP5 ADD GT ISZERO PUSH2 0xD76 JUMPI PUSH2 0xD75 PUSH2 0x43C JUMP JUMPDEST JUMPDEST PUSH2 0xD81 DUP5 DUP3 DUP6 PUSH2 0x6D2 JUMP JUMPDEST POP SWAP4 SWAP3 POP POP POP JUMP JUMPDEST PUSH1 0x0 DUP3 PUSH1 0x1F DUP4 ADD SLT PUSH2 0xD9E JUMPI PUSH2 0xD9D PUSH2 0x437 JUMP JUMPDEST JUMPDEST DUP2 MLOAD PUSH2 0xDAE DUP5 DUP3 PUSH1 0x20 DUP7 ADD PUSH2 0xD47 JUMP JUMPDEST SWAP2 POP POP SWAP3 SWAP2 POP POP JUMP JUMPDEST PUSH1 0x0 PUSH2 0xDCA PUSH2 0xDC5 DUP5 PUSH2 0x57D JUMP JUMPDEST PUSH2 0x4B2 JUMP JUMPDEST SWAP1 POP DUP1 PUSH1 0x20 DUP5 MUL DUP4 ADD DUP6 DUP2 GT ISZERO PUSH2 0xDE4 JUMPI PUSH2 0xDE3 PUSH2 0x5A3 JUMP JUMPDEST JUMPDEST DUP4 JUMPDEST DUP2 DUP2 LT ISZERO PUSH2 0xE0D JUMPI DUP1 PUSH2 0xDF9 DUP9 DUP3 PUSH2 0xD32 JUMP JUMPDEST DUP5 MSTORE PUSH1 0x20 DUP5 ADD SWAP4 POP POP PUSH1 0x20 DUP2 ADD SWAP1 POP PUSH2 0xDE6 JUMP JUMPDEST POP POP POP SWAP4 SWAP3 POP POP POP JUMP JUMPDEST PUSH1 0x0 DUP3 PUSH1 0x1F DUP4 ADD SLT PUSH2 0xE2C JUMPI PUSH2 0xE2B PUSH2 0x437 JUMP JUMPDEST JUMPDEST PUSH1 0x3 PUSH2 0xE39 DUP5 DUP3 DUP6 PUSH2 0xDB7 JUMP JUMPDEST SWAP2 POP POP SWAP3 SWAP2 POP POP JUMP JUMPDEST PUSH1 0x0 DUP1 PUSH1 0x0 DUP1 PUSH1 0xC0 DUP6 DUP8 SUB SLT ISZERO PUSH2 0xE5C JUMPI PUSH2 0xE5B PUSH2 0x399 JUMP JUMPDEST JUMPDEST PUSH1 0x0 PUSH2 0xE6A DUP8 DUP3 DUP9 ADD PUSH2 0xD1D JUMP JUMPDEST SWAP5 POP POP PUSH1 0x20 PUSH2 0xE7B DUP8 DUP3 DUP9 ADD PUSH2 0xD32 JUMP JUMPDEST SWAP4 POP POP PUSH1 0x40 DUP6 ADD MLOAD PUSH8 0xFFFFFFFFFFFFFFFF DUP2 GT ISZERO PUSH2 0xE9C JUMPI PUSH2 0xE9B PUSH2 0x39E JUMP JUMPDEST JUMPDEST PUSH2 0xEA8 DUP8 DUP3 DUP9 ADD PUSH2 0xD89 JUMP JUMPDEST SWAP3 POP POP PUSH1 0x60 PUSH2 0xEB9 DUP8 DUP3 DUP9 ADD PUSH2 0xE17 JUMP JUMPDEST SWAP2 POP POP SWAP3 SWAP6 SWAP2 SWAP5 POP SWAP3 POP JUMP INVALID LOG2 PUSH5 0x6970667358 0x22 SLT KECCAK256 0xA5 SWAP1 SLT CREATE2 0xC1 SWAP9 BASEFEE PUSH28 0xAC1B9974286B9E1359F8C168EE456B1F91B39F7D2EE81DEA64736F6C PUSH4 0x43000812 STOP CALLER "
		},
		"gasEstimates": {
			"creation": {
				"codeDepositCost": "767000",
				"executionCost": "799",
				"totalCost": "767799"
			},
			"external": {
				"decodeVoter(bytes)": "infinite",
				"serializeVoter(address,uint256,string,uint256[3])": "infinite",
				"voters(uint256)": "infinite"
			}
		},
		"methodIdentifiers": {
			"decodeVoter(bytes)": "b667c410",
			"serializeVoter(address,uint256,string,uint256[3])": "9f82b595",
			"voters(uint256)": "da58c7d9"
		}
	},
	"abi": [
		{
			"inputs": [
				{
					"internalType": "bytes",
					"name": "data",
					"type": "bytes"
				}
			],
			"name": "decodeVoter",
			"outputs": [
				{
					"internalType": "address",
					"name": "_VoterAdress",
					"type": "address"
				},
				{
					"internalType": "uint256",
					"name": "_VoterID",
					"type": "uint256"
				},
				{
					"internalType": "string",
					"name": "_Name",
					"type": "string"
				},
				{
					"internalType": "uint256[3]",
					"name": "_DOB",
					"type": "uint256[3]"
				}
			],
			"stateMutability": "pure",
			"type": "function"
		},
		{
			"inputs": [
				{
					"internalType": "address",
					"name": "_VoterAdress",
					"type": "address"
				},
				{
					"internalType": "uint256",
					"name": "_VoterID",
					"type": "uint256"
				},
				{
					"internalType": "string",
					"name": "_Name",
					"type": "string"
				},
				{
					"internalType": "uint256[3]",
					"name": "_DOB",
					"type": "uint256[3]"
				}
			],
			"name": "serializeVoter",
			"outputs": [
				{
					"internalType": "bytes",
					"name": "",
					"type": "bytes"
				}
			],
			"stateMutability": "nonpayable",
			"type": "function"
		},
		{
			"inputs": [
				{
					"internalType": "uint256",
					"name": "",
					"type": "uint256"
				}
			],
			"name": "voters",
			"outputs": [
				{
					"internalType": "address",
					"name": "VoterAddress",
					"type": "address"
				},
				{
					"internalType": "uint256",
					"name": "VoterID",
					"type": "uint256"
				},
				{
					"internalType": "string",
					"name": "Name",
					"type": "string"
				}
			],
			"stateMutability": "view",
			"type": "function"
		}
	]
}