{
	"Project Module 2/Credit.sol": {
		"Credit": {
			"abi": [
				{
					"inputs": [
						{
							"internalType": "uint256",
							"name": "_requestedAmount",
							"type": "uint256"
						},
						{
							"internalType": "uint256",
							"name": "_requestedRepayments",
							"type": "uint256"
						},
						{
							"internalType": "uint256",
							"name": "_interest",
							"type": "uint256"
						},
						{
							"internalType": "bytes",
							"name": "_description",
							"type": "bytes"
						}
					],
					"stateMutability": "nonpayable",
					"type": "constructor"
				},
				{
					"anonymous": false,
					"inputs": [
						{
							"indexed": true,
							"internalType": "address",
							"name": "_address",
							"type": "address"
						},
						{
							"indexed": true,
							"internalType": "uint256",
							"name": "_amount",
							"type": "uint256"
						},
						{
							"indexed": true,
							"internalType": "uint256",
							"name": "timestamp",
							"type": "uint256"
						}
					],
					"name": "LogBorrowerChangeReturned",
					"type": "event"
				},
				{
					"anonymous": false,
					"inputs": [
						{
							"indexed": true,
							"internalType": "address",
							"name": "_address",
							"type": "address"
						},
						{
							"indexed": true,
							"internalType": "uint256",
							"name": "timestamp",
							"type": "uint256"
						}
					],
					"name": "LogBorrowerRepaymentFinished",
					"type": "event"
				},
				{
					"anonymous": false,
					"inputs": [
						{
							"indexed": true,
							"internalType": "address",
							"name": "_address",
							"type": "address"
						},
						{
							"indexed": true,
							"internalType": "uint256",
							"name": "_amount",
							"type": "uint256"
						},
						{
							"indexed": true,
							"internalType": "uint256",
							"name": "timestamp",
							"type": "uint256"
						}
					],
					"name": "LogBorrowerRepaymentInstallment",
					"type": "event"
				},
				{
					"anonymous": false,
					"inputs": [
						{
							"indexed": true,
							"internalType": "address",
							"name": "_address",
							"type": "address"
						},
						{
							"indexed": true,
							"internalType": "uint256",
							"name": "_amount",
							"type": "uint256"
						},
						{
							"indexed": true,
							"internalType": "uint256",
							"name": "timestamp",
							"type": "uint256"
						}
					],
					"name": "LogBorrowerWithdrawal",
					"type": "event"
				},
				{
					"anonymous": false,
					"inputs": [
						{
							"indexed": true,
							"internalType": "address",
							"name": "state",
							"type": "address"
						},
						{
							"indexed": true,
							"internalType": "uint256",
							"name": "timestamp",
							"type": "uint256"
						}
					],
					"name": "LogCreditInitialized",
					"type": "event"
				},
				{
					"anonymous": false,
					"inputs": [
						{
							"indexed": true,
							"internalType": "bool",
							"name": "active",
							"type": "bool"
						},
						{
							"indexed": true,
							"internalType": "uint256",
							"name": "timestamp",
							"type": "uint256"
						}
					],
					"name": "LogCreditStateActiveChanged",
					"type": "event"
				},
				{
					"anonymous": false,
					"inputs": [
						{
							"indexed": true,
							"internalType": "enum Credit.State",
							"name": "state",
							"type": "uint8"
						},
						{
							"indexed": true,
							"internalType": "uint256",
							"name": "timestamp",
							"type": "uint256"
						}
					],
					"name": "LogCreditStateChanged",
					"type": "event"
				},
				{
					"anonymous": false,
					"inputs": [
						{
							"indexed": true,
							"internalType": "address",
							"name": "_address",
							"type": "address"
						},
						{
							"indexed": true,
							"internalType": "uint256",
							"name": "_amount",
							"type": "uint256"
						},
						{
							"indexed": true,
							"internalType": "uint256",
							"name": "timestamp",
							"type": "uint256"
						}
					],
					"name": "LogLenderChangeReturned",
					"type": "event"
				},
				{
					"anonymous": false,
					"inputs": [
						{
							"indexed": true,
							"internalType": "address",
							"name": "_address",
							"type": "address"
						},
						{
							"indexed": true,
							"internalType": "uint256",
							"name": "_amount",
							"type": "uint256"
						},
						{
							"indexed": true,
							"internalType": "uint256",
							"name": "timestamp",
							"type": "uint256"
						}
					],
					"name": "LogLenderInvestment",
					"type": "event"
				},
				{
					"anonymous": false,
					"inputs": [
						{
							"indexed": true,
							"internalType": "address",
							"name": "_address",
							"type": "address"
						},
						{
							"indexed": true,
							"internalType": "uint256",
							"name": "_amount",
							"type": "uint256"
						},
						{
							"indexed": true,
							"internalType": "uint256",
							"name": "timestamp",
							"type": "uint256"
						}
					],
					"name": "LogLenderRefunded",
					"type": "event"
				},
				{
					"anonymous": false,
					"inputs": [
						{
							"indexed": true,
							"internalType": "address",
							"name": "_address",
							"type": "address"
						},
						{
							"indexed": true,
							"internalType": "uint256",
							"name": "timestamp",
							"type": "uint256"
						}
					],
					"name": "LogLenderVoteForFraud",
					"type": "event"
				},
				{
					"anonymous": false,
					"inputs": [
						{
							"indexed": true,
							"internalType": "address",
							"name": "_address",
							"type": "address"
						},
						{
							"indexed": true,
							"internalType": "uint256",
							"name": "timestamp",
							"type": "uint256"
						}
					],
					"name": "LogLenderVoteForRevoking",
					"type": "event"
				},
				{
					"anonymous": false,
					"inputs": [
						{
							"indexed": true,
							"internalType": "address",
							"name": "_address",
							"type": "address"
						},
						{
							"indexed": true,
							"internalType": "uint256",
							"name": "_amount",
							"type": "uint256"
						},
						{
							"indexed": true,
							"internalType": "uint256",
							"name": "timestamp",
							"type": "uint256"
						}
					],
					"name": "LogLenderWithdrawal",
					"type": "event"
				},
				{
					"anonymous": false,
					"inputs": [
						{
							"indexed": true,
							"internalType": "address",
							"name": "_currentOwner",
							"type": "address"
						},
						{
							"indexed": true,
							"internalType": "address",
							"name": "_newOwner",
							"type": "address"
						}
					],
					"name": "LogOwnershipTransfered",
					"type": "event"
				},
				{
					"inputs": [
						{
							"internalType": "enum Credit.State",
							"name": "_state",
							"type": "uint8"
						}
					],
					"name": "changeState",
					"outputs": [],
					"stateMutability": "nonpayable",
					"type": "function"
				},
				{
					"inputs": [],
					"name": "fraudVote",
					"outputs": [],
					"stateMutability": "nonpayable",
					"type": "function"
				},
				{
					"inputs": [],
					"name": "getBalance",
					"outputs": [
						{
							"internalType": "uint256",
							"name": "",
							"type": "uint256"
						}
					],
					"stateMutability": "view",
					"type": "function"
				},
				{
					"inputs": [],
					"name": "getCreditInfo",
					"outputs": [
						{
							"internalType": "address",
							"name": "",
							"type": "address"
						},
						{
							"internalType": "bytes",
							"name": "",
							"type": "bytes"
						},
						{
							"internalType": "uint256",
							"name": "",
							"type": "uint256"
						},
						{
							"internalType": "uint256",
							"name": "",
							"type": "uint256"
						},
						{
							"internalType": "uint256",
							"name": "",
							"type": "uint256"
						},
						{
							"internalType": "uint256",
							"name": "",
							"type": "uint256"
						},
						{
							"internalType": "uint256",
							"name": "",
							"type": "uint256"
						},
						{
							"internalType": "uint256",
							"name": "",
							"type": "uint256"
						},
						{
							"internalType": "enum Credit.State",
							"name": "",
							"type": "uint8"
						},
						{
							"internalType": "bool",
							"name": "",
							"type": "bool"
						},
						{
							"internalType": "uint256",
							"name": "",
							"type": "uint256"
						}
					],
					"stateMutability": "view",
					"type": "function"
				},
				{
					"inputs": [],
					"name": "invest",
					"outputs": [],
					"stateMutability": "payable",
					"type": "function"
				},
				{
					"inputs": [
						{
							"internalType": "address",
							"name": "",
							"type": "address"
						}
					],
					"name": "lenders",
					"outputs": [
						{
							"internalType": "bool",
							"name": "",
							"type": "bool"
						}
					],
					"stateMutability": "view",
					"type": "function"
				},
				{
					"inputs": [],
					"name": "owner",
					"outputs": [
						{
							"internalType": "address",
							"name": "",
							"type": "address"
						}
					],
					"stateMutability": "view",
					"type": "function"
				},
				{
					"inputs": [],
					"name": "refund",
					"outputs": [],
					"stateMutability": "nonpayable",
					"type": "function"
				},
				{
					"inputs": [],
					"name": "repay",
					"outputs": [],
					"stateMutability": "payable",
					"type": "function"
				},
				{
					"inputs": [],
					"name": "requestInterest",
					"outputs": [],
					"stateMutability": "nonpayable",
					"type": "function"
				},
				{
					"inputs": [],
					"name": "revokeVote",
					"outputs": [],
					"stateMutability": "nonpayable",
					"type": "function"
				},
				{
					"inputs": [],
					"name": "toggleActive",
					"outputs": [
						{
							"internalType": "bool",
							"name": "",
							"type": "bool"
						}
					],
					"stateMutability": "nonpayable",
					"type": "function"
				},
				{
					"inputs": [],
					"name": "withDraw",
					"outputs": [],
					"stateMutability": "nonpayable",
					"type": "function"
				}
			],
			"devdoc": {
				"kind": "dev",
				"methods": {},
				"version": 1
			},
			"evm": {
				"assembly": "    /* \"Project Module 2/Credit.sol\":108:10070  contract Credit is Ownable {... */\n  mstore(0x40, 0x80)\n    /* \"Project Module 2/Credit.sol\":493:497  true */\n  0x01\n    /* \"Project Module 2/Credit.sol\":479:497  bool active = true */\n  0x0c\n  exp(0x0100, 0x00)\n  dup2\n  sload\n  dup2\n  0xff\n  mul\n  not\n  and\n  swap1\n  dup4\n  iszero\n  iszero\n  mul\n  or\n  swap1\n  sstore\n  pop\n    /* \"Project Module 2/Credit.sol\":526:527  0 */\n  0x00\n    /* \"Project Module 2/Credit.sol\":503:527  uint256 lendersCount = 0 */\n  0x0d\n  sstore\n    /* \"Project Module 2/Credit.sol\":555:556  0 */\n  0x00\n    /* \"Project Module 2/Credit.sol\":533:556  uint256 revokeVotes = 0 */\n  0x0e\n  sstore\n    /* \"Project Module 2/Credit.sol\":597:606  1 seconds */\n  0x01\n    /* \"Project Module 2/Credit.sol\":579:594  block.timestamp */\n  timestamp\n    /* \"Project Module 2/Credit.sol\":579:606  block.timestamp + 1 seconds */\n  tag_1\n  swap2\n  swap1\n  tag_2\n  jump\t// in\ntag_1:\n    /* \"Project Module 2/Credit.sol\":562:606  uint256 revoke = block.timestamp + 1 seconds */\n  0x0f\n  sstore\n    /* \"Project Module 2/Credit.sol\":633:634  0 */\n  0x00\n    /* \"Project Module 2/Credit.sol\":612:634  uint256 fraudVotes = 0 */\n  0x10\n  sstore\n    /* \"Project Module 2/Credit.sol\":3599:4229  constructor(... */\n  callvalue\n  dup1\n  iszero\n  tag_3\n  jumpi\n  0x00\n  dup1\n  revert\ntag_3:\n  pop\n  mload(0x40)\n  sub(codesize, bytecodeSize)\n  dup1\n  bytecodeSize\n  dup4\n  codecopy\n  dup2\n  dup2\n  add\n  0x40\n  mstore\n  dup2\n  add\n  swap1\n  tag_4\n  swap2\n  swap1\n  tag_5\n  jump\t// in\ntag_4:\n    /* \"Project Module 2/Ownable.sol\":334:344  msg.sender */\n  caller\n    /* \"Project Module 2/Ownable.sol\":326:331  owner */\n  0x00\n  dup1\n    /* \"Project Module 2/Ownable.sol\":326:344  owner = msg.sender */\n  0x0100\n  exp\n  dup2\n  sload\n  dup2\n  0xffffffffffffffffffffffffffffffffffffffff\n  mul\n  not\n  and\n  swap1\n  dup4\n  0xffffffffffffffffffffffffffffffffffffffff\n  and\n  mul\n  or\n  swap1\n  sstore\n  pop\n    /* \"Project Module 2/Credit.sol\":3772:3781  tx.origin */\n  origin\n    /* \"Project Module 2/Credit.sol\":3761:3769  borrower */\n  0x01\n  0x00\n    /* \"Project Module 2/Credit.sol\":3761:3781  borrower = tx.origin */\n  0x0100\n  exp\n  dup2\n  sload\n  dup2\n  0xffffffffffffffffffffffffffffffffffffffff\n  mul\n  not\n  and\n  swap1\n  dup4\n  0xffffffffffffffffffffffffffffffffffffffff\n  and\n  mul\n  or\n  swap1\n  sstore\n  pop\n    /* \"Project Module 2/Credit.sol\":3802:3811  _interest */\n  dup2\n    /* \"Project Module 2/Credit.sol\":3791:3799  interest */\n  0x05\n    /* \"Project Module 2/Credit.sol\":3791:3811  interest = _interest */\n  dup2\n  swap1\n  sstore\n  pop\n    /* \"Project Module 2/Credit.sol\":3839:3855  _requestedAmount */\n  dup4\n    /* \"Project Module 2/Credit.sol\":3821:3836  requestedAmount */\n  0x02\n    /* \"Project Module 2/Credit.sol\":3821:3855  requestedAmount = _requestedAmount */\n  dup2\n  swap1\n  sstore\n  pop\n    /* \"Project Module 2/Credit.sol\":3887:3907  _requestedRepayments */\n  dup3\n    /* \"Project Module 2/Credit.sol\":3865:3884  requestedRepayments */\n  0x06\n    /* \"Project Module 2/Credit.sol\":3865:3907  requestedRepayments = _requestedRepayments */\n  dup2\n  swap1\n  sstore\n  pop\n    /* \"Project Module 2/Credit.sol\":3939:3959  _requestedRepayments */\n  dup3\n    /* \"Project Module 2/Credit.sol\":3917:3936  remainingRepayments */\n  0x07\n    /* \"Project Module 2/Credit.sol\":3917:3959  remainingRepayments = _requestedRepayments */\n  dup2\n  swap1\n  sstore\n  pop\n    /* \"Project Module 2/Credit.sol\":3984:4013  requestedAmount.add(interest) */\n  tag_10\n    /* \"Project Module 2/Credit.sol\":4004:4012  interest */\n  sload(0x05)\n    /* \"Project Module 2/Credit.sol\":3984:3999  requestedAmount */\n  sload(0x02)\n    /* \"Project Module 2/Credit.sol\":3984:4003  requestedAmount.add */\n  or(tag_0_67, shl(0x20, tag_11))\n  swap1\n    /* \"Project Module 2/Credit.sol\":3984:4013  requestedAmount.add(interest) */\n  swap2\n  swap1\n  0x20\n  shr\n  jump\t// in\ntag_10:\n    /* \"Project Module 2/Credit.sol\":3969:3981  returnAmount */\n  0x03\n    /* \"Project Module 2/Credit.sol\":3969:4013  returnAmount = requestedAmount.add(interest) */\n  dup2\n  swap1\n  sstore\n  pop\n    /* \"Project Module 2/Credit.sol\":4046:4083  returnAmount.div(requestedRepayments) */\n  tag_12\n    /* \"Project Module 2/Credit.sol\":4063:4082  requestedRepayments */\n  sload(0x06)\n    /* \"Project Module 2/Credit.sol\":4046:4058  returnAmount */\n  sload(0x03)\n    /* \"Project Module 2/Credit.sol\":4046:4062  returnAmount.div */\n  or(tag_0_68, shl(0x20, tag_13))\n  swap1\n    /* \"Project Module 2/Credit.sol\":4046:4083  returnAmount.div(requestedRepayments) */\n  swap2\n  swap1\n  0x20\n  shr\n  jump\t// in\ntag_12:\n    /* \"Project Module 2/Credit.sol\":4023:4043  repaymentInstallment */\n  0x08\n    /* \"Project Module 2/Credit.sol\":4023:4083  repaymentInstallment = returnAmount.div(requestedRepayments) */\n  dup2\n  swap1\n  sstore\n  pop\n    /* \"Project Module 2/Credit.sol\":4107:4119  _description */\n  dup1\n    /* \"Project Module 2/Credit.sol\":4093:4104  description */\n  0x0b\n    /* \"Project Module 2/Credit.sol\":4093:4119  description = _description */\n  swap1\n  dup2\n  tag_14\n  swap2\n  swap1\n  tag_15\n  jump\t// in\ntag_14:\n  pop\n    /* \"Project Module 2/Credit.sol\":4145:4160  block.timestamp */\n  timestamp\n    /* \"Project Module 2/Credit.sol\":4129:4142  requestedDate */\n  0x09\n    /* \"Project Module 2/Credit.sol\":4129:4160  requestedDate = block.timestamp */\n  dup2\n  swap1\n  sstore\n  pop\n    /* \"Project Module 2/Credit.sol\":4206:4221  block.timestamp */\n  timestamp\n    /* \"Project Module 2/Credit.sol\":4196:4204  borrower */\n  0x01\n  0x00\n  swap1\n  sload\n  swap1\n  0x0100\n  exp\n  swap1\n  div\n  0xffffffffffffffffffffffffffffffffffffffff\n  and\n    /* \"Project Module 2/Credit.sol\":4175:4222  LogCreditInitialized(borrower, block.timestamp) */\n  0xffffffffffffffffffffffffffffffffffffffff\n  and\n  0xf9f75c99c0e3522cd19ffc66fd6c94989a3f0821d37d5c5bb176aab904c6335d\n  mload(0x40)\n  mload(0x40)\n  dup1\n  swap2\n  sub\n  swap1\n  log3\n    /* \"Project Module 2/Credit.sol\":3599:4229  constructor(... */\n  pop\n  pop\n  pop\n  pop\n    /* \"Project Module 2/Credit.sol\":108:10070  contract Credit is Ownable {... */\n  jump(tag_16)\n    /* \"Project Module 2/SafeMath.sol\":539:682  function add(uint256 a, uint256 b) internal pure returns (uint256) {... */\ntag_11:\n    /* \"Project Module 2/SafeMath.sol\":597:604  uint256 */\n  0x00\n    /* \"Project Module 2/SafeMath.sol\":616:625  uint256 c */\n  dup1\n    /* \"Project Module 2/SafeMath.sol\":632:633  b */\n  dup3\n    /* \"Project Module 2/SafeMath.sol\":628:629  a */\n  dup5\n    /* \"Project Module 2/SafeMath.sol\":628:633  a + b */\n  tag_18\n  swap2\n  swap1\n  tag_2\n  jump\t// in\ntag_18:\n    /* \"Project Module 2/SafeMath.sol\":616:633  uint256 c = a + b */\n  swap1\n  pop\n    /* \"Project Module 2/SafeMath.sol\":655:656  a */\n  dup4\n    /* \"Project Module 2/SafeMath.sol\":650:651  c */\n  dup2\n    /* \"Project Module 2/SafeMath.sol\":650:656  c >= a */\n  lt\n  iszero\n    /* \"Project Module 2/SafeMath.sol\":643:657  assert(c >= a) */\n  tag_19\n  jumpi\n  tag_20\n  tag_21\n  jump\t// in\ntag_20:\ntag_19:\n    /* \"Project Module 2/SafeMath.sol\":674:675  c */\n  dup1\n    /* \"Project Module 2/SafeMath.sol\":667:675  return c */\n  swap2\n  pop\n  pop\n    /* \"Project Module 2/SafeMath.sol\":539:682  function add(uint256 a, uint256 b) internal pure returns (uint256) {... */\n  swap3\n  swap2\n  pop\n  pop\n  jump\t// out\n    /* \"Project Module 2/SafeMath.sol\":288:407  function div(uint256 a, uint256 b) internal pure returns (uint256) {... */\ntag_13:\n    /* \"Project Module 2/SafeMath.sol\":346:353  uint256 */\n  0x00\n    /* \"Project Module 2/SafeMath.sol\":365:374  uint256 c */\n  dup1\n    /* \"Project Module 2/SafeMath.sol\":381:382  b */\n  dup3\n    /* \"Project Module 2/SafeMath.sol\":377:378  a */\n  dup5\n    /* \"Project Module 2/SafeMath.sol\":377:382  a / b */\n  tag_23\n  swap2\n  swap1\n  tag_24\n  jump\t// in\ntag_23:\n    /* \"Project Module 2/SafeMath.sol\":365:382  uint256 c = a / b */\n  swap1\n  pop\n    /* \"Project Module 2/SafeMath.sol\":399:400  c */\n  dup1\n    /* \"Project Module 2/SafeMath.sol\":392:400  return c */\n  swap2\n  pop\n  pop\n    /* \"Project Module 2/SafeMath.sol\":288:407  function div(uint256 a, uint256 b) internal pure returns (uint256) {... */\n  swap3\n  swap2\n  pop\n  pop\n  jump\t// out\n    /* \"#utility.yul\":7:84   */\ntag_25:\n    /* \"#utility.yul\":44:51   */\n  0x00\n    /* \"#utility.yul\":73:78   */\n  dup2\n    /* \"#utility.yul\":62:78   */\n  swap1\n  pop\n    /* \"#utility.yul\":7:84   */\n  swap2\n  swap1\n  pop\n  jump\t// out\n    /* \"#utility.yul\":90:270   */\ntag_26:\n    /* \"#utility.yul\":138:215   */\n  0x4e487b7100000000000000000000000000000000000000000000000000000000\n    /* \"#utility.yul\":135:136   */\n  0x00\n    /* \"#utility.yul\":128:216   */\n  mstore\n    /* \"#utility.yul\":235:239   */\n  0x11\n    /* \"#utility.yul\":232:233   */\n  0x04\n    /* \"#utility.yul\":225:240   */\n  mstore\n    /* \"#utility.yul\":259:263   */\n  0x24\n    /* \"#utility.yul\":256:257   */\n  0x00\n    /* \"#utility.yul\":249:264   */\n  revert\n    /* \"#utility.yul\":276:467   */\ntag_2:\n    /* \"#utility.yul\":316:319   */\n  0x00\n    /* \"#utility.yul\":335:355   */\n  tag_65\n    /* \"#utility.yul\":353:354   */\n  dup3\n    /* \"#utility.yul\":335:355   */\n  tag_25\n  jump\t// in\ntag_65:\n    /* \"#utility.yul\":330:355   */\n  swap2\n  pop\n    /* \"#utility.yul\":369:389   */\n  tag_66\n    /* \"#utility.yul\":387:388   */\n  dup4\n    /* \"#utility.yul\":369:389   */\n  tag_25\n  jump\t// in\ntag_66:\n    /* \"#utility.yul\":364:389   */\n  swap3\n  pop\n    /* \"#utility.yul\":412:413   */\n  dup3\n    /* \"#utility.yul\":409:410   */\n  dup3\n    /* \"#utility.yul\":405:414   */\n  add\n    /* \"#utility.yul\":398:414   */\n  swap1\n  pop\n    /* \"#utility.yul\":433:436   */\n  dup1\n    /* \"#utility.yul\":430:431   */\n  dup3\n    /* \"#utility.yul\":427:437   */\n  gt\n    /* \"#utility.yul\":424:460   */\n  iszero\n  tag_67\n  jumpi\n    /* \"#utility.yul\":440:458   */\n  tag_68\n  tag_26\n  jump\t// in\ntag_68:\n    /* \"#utility.yul\":424:460   */\ntag_67:\n    /* \"#utility.yul\":276:467   */\n  swap3\n  swap2\n  pop\n  pop\n  jump\t// out\n    /* \"#utility.yul\":473:548   */\ntag_27:\n    /* \"#utility.yul\":506:512   */\n  0x00\n    /* \"#utility.yul\":539:541   */\n  0x40\n    /* \"#utility.yul\":533:542   */\n  mload\n    /* \"#utility.yul\":523:542   */\n  swap1\n  pop\n    /* \"#utility.yul\":473:548   */\n  swap1\n  jump\t// out\n    /* \"#utility.yul\":554:671   */\ntag_28:\n    /* \"#utility.yul\":663:664   */\n  0x00\n    /* \"#utility.yul\":660:661   */\n  dup1\n    /* \"#utility.yul\":653:665   */\n  revert\n    /* \"#utility.yul\":677:794   */\ntag_29:\n    /* \"#utility.yul\":786:787   */\n  0x00\n    /* \"#utility.yul\":783:784   */\n  dup1\n    /* \"#utility.yul\":776:788   */\n  revert\n    /* \"#utility.yul\":800:922   */\ntag_30:\n    /* \"#utility.yul\":873:897   */\n  tag_73\n    /* \"#utility.yul\":891:896   */\n  dup2\n    /* \"#utility.yul\":873:897   */\n  tag_25\n  jump\t// in\ntag_73:\n    /* \"#utility.yul\":866:871   */\n  dup2\n    /* \"#utility.yul\":863:898   */\n  eq\n    /* \"#utility.yul\":853:916   */\n  tag_74\n  jumpi\n    /* \"#utility.yul\":912:913   */\n  0x00\n    /* \"#utility.yul\":909:910   */\n  dup1\n    /* \"#utility.yul\":902:914   */\n  revert\n    /* \"#utility.yul\":853:916   */\ntag_74:\n    /* \"#utility.yul\":800:922   */\n  pop\n  jump\t// out\n    /* \"#utility.yul\":928:1071   */\ntag_31:\n    /* \"#utility.yul\":985:990   */\n  0x00\n    /* \"#utility.yul\":1016:1022   */\n  dup2\n    /* \"#utility.yul\":1010:1023   */\n  mload\n    /* \"#utility.yul\":1001:1023   */\n  swap1\n  pop\n    /* \"#utility.yul\":1032:1065   */\n  tag_76\n    /* \"#utility.yul\":1059:1064   */\n  dup2\n    /* \"#utility.yul\":1032:1065   */\n  tag_30\n  jump\t// in\ntag_76:\n    /* \"#utility.yul\":928:1071   */\n  swap3\n  swap2\n  pop\n  pop\n  jump\t// out\n    /* \"#utility.yul\":1077:1194   */\ntag_32:\n    /* \"#utility.yul\":1186:1187   */\n  0x00\n    /* \"#utility.yul\":1183:1184   */\n  dup1\n    /* \"#utility.yul\":1176:1188   */\n  revert\n    /* \"#utility.yul\":1200:1317   */\ntag_33:\n    /* \"#utility.yul\":1309:1310   */\n  0x00\n    /* \"#utility.yul\":1306:1307   */\n  dup1\n    /* \"#utility.yul\":1299:1311   */\n  revert\n    /* \"#utility.yul\":1323:1425   */\ntag_34:\n    /* \"#utility.yul\":1364:1370   */\n  0x00\n    /* \"#utility.yul\":1415:1417   */\n  0x1f\n    /* \"#utility.yul\":1411:1418   */\n  not\n    /* \"#utility.yul\":1406:1408   */\n  0x1f\n    /* \"#utility.yul\":1399:1404   */\n  dup4\n    /* \"#utility.yul\":1395:1409   */\n  add\n    /* \"#utility.yul\":1391:1419   */\n  and\n    /* \"#utility.yul\":1381:1419   */\n  swap1\n  pop\n    /* \"#utility.yul\":1323:1425   */\n  swap2\n  swap1\n  pop\n  jump\t// out\n    /* \"#utility.yul\":1431:1611   */\ntag_35:\n    /* \"#utility.yul\":1479:1556   */\n  0x4e487b7100000000000000000000000000000000000000000000000000000000\n    /* \"#utility.yul\":1476:1477   */\n  0x00\n    /* \"#utility.yul\":1469:1557   */\n  mstore\n    /* \"#utility.yul\":1576:1580   */\n  0x41\n    /* \"#utility.yul\":1573:1574   */\n  0x04\n    /* \"#utility.yul\":1566:1581   */\n  mstore\n    /* \"#utility.yul\":1600:1604   */\n  0x24\n    /* \"#utility.yul\":1597:1598   */\n  0x00\n    /* \"#utility.yul\":1590:1605   */\n  revert\n    /* \"#utility.yul\":1617:1898   */\ntag_36:\n    /* \"#utility.yul\":1700:1727   */\n  tag_82\n    /* \"#utility.yul\":1722:1726   */\n  dup3\n    /* \"#utility.yul\":1700:1727   */\n  tag_34\n  jump\t// in\ntag_82:\n    /* \"#utility.yul\":1692:1698   */\n  dup2\n    /* \"#utility.yul\":1688:1728   */\n  add\n    /* \"#utility.yul\":1830:1836   */\n  dup2\n    /* \"#utility.yul\":1818:1828   */\n  dup2\n    /* \"#utility.yul\":1815:1837   */\n  lt\n    /* \"#utility.yul\":1794:1812   */\n  0xffffffffffffffff\n    /* \"#utility.yul\":1782:1792   */\n  dup3\n    /* \"#utility.yul\":1779:1813   */\n  gt\n    /* \"#utility.yul\":1776:1838   */\n  or\n    /* \"#utility.yul\":1773:1861   */\n  iszero\n  tag_83\n  jumpi\n    /* \"#utility.yul\":1841:1859   */\n  tag_84\n  tag_35\n  jump\t// in\ntag_84:\n    /* \"#utility.yul\":1773:1861   */\ntag_83:\n    /* \"#utility.yul\":1881:1891   */\n  dup1\n    /* \"#utility.yul\":1877:1879   */\n  0x40\n    /* \"#utility.yul\":1870:1892   */\n  mstore\n    /* \"#utility.yul\":1660:1898   */\n  pop\n    /* \"#utility.yul\":1617:1898   */\n  pop\n  pop\n  jump\t// out\n    /* \"#utility.yul\":1904:2033   */\ntag_37:\n    /* \"#utility.yul\":1938:1944   */\n  0x00\n    /* \"#utility.yul\":1965:1985   */\n  tag_86\n  tag_27\n  jump\t// in\ntag_86:\n    /* \"#utility.yul\":1955:1985   */\n  swap1\n  pop\n    /* \"#utility.yul\":1994:2027   */\n  tag_87\n    /* \"#utility.yul\":2022:2026   */\n  dup3\n    /* \"#utility.yul\":2014:2020   */\n  dup3\n    /* \"#utility.yul\":1994:2027   */\n  tag_36\n  jump\t// in\ntag_87:\n    /* \"#utility.yul\":1904:2033   */\n  swap2\n  swap1\n  pop\n  jump\t// out\n    /* \"#utility.yul\":2039:2346   */\ntag_38:\n    /* \"#utility.yul\":2100:2104   */\n  0x00\n    /* \"#utility.yul\":2190:2208   */\n  0xffffffffffffffff\n    /* \"#utility.yul\":2182:2188   */\n  dup3\n    /* \"#utility.yul\":2179:2209   */\n  gt\n    /* \"#utility.yul\":2176:2232   */\n  iszero\n  tag_89\n  jumpi\n    /* \"#utility.yul\":2212:2230   */\n  tag_90\n  tag_35\n  jump\t// in\ntag_90:\n    /* \"#utility.yul\":2176:2232   */\ntag_89:\n    /* \"#utility.yul\":2250:2279   */\n  tag_91\n    /* \"#utility.yul\":2272:2278   */\n  dup3\n    /* \"#utility.yul\":2250:2279   */\n  tag_34\n  jump\t// in\ntag_91:\n    /* \"#utility.yul\":2242:2279   */\n  swap1\n  pop\n    /* \"#utility.yul\":2334:2338   */\n  0x20\n    /* \"#utility.yul\":2328:2332   */\n  dup2\n    /* \"#utility.yul\":2324:2339   */\n  add\n    /* \"#utility.yul\":2316:2339   */\n  swap1\n  pop\n    /* \"#utility.yul\":2039:2346   */\n  swap2\n  swap1\n  pop\n  jump\t// out\n    /* \"#utility.yul\":2352:2598   */\ntag_39:\n    /* \"#utility.yul\":2433:2434   */\n  0x00\n    /* \"#utility.yul\":2443:2556   */\ntag_93:\n    /* \"#utility.yul\":2457:2463   */\n  dup4\n    /* \"#utility.yul\":2454:2455   */\n  dup2\n    /* \"#utility.yul\":2451:2464   */\n  lt\n    /* \"#utility.yul\":2443:2556   */\n  iszero\n  tag_95\n  jumpi\n    /* \"#utility.yul\":2542:2543   */\n  dup1\n    /* \"#utility.yul\":2537:2540   */\n  dup3\n    /* \"#utility.yul\":2533:2544   */\n  add\n    /* \"#utility.yul\":2527:2545   */\n  mload\n    /* \"#utility.yul\":2523:2524   */\n  dup2\n    /* \"#utility.yul\":2518:2521   */\n  dup5\n    /* \"#utility.yul\":2514:2525   */\n  add\n    /* \"#utility.yul\":2507:2546   */\n  mstore\n    /* \"#utility.yul\":2479:2481   */\n  0x20\n    /* \"#utility.yul\":2476:2477   */\n  dup2\n    /* \"#utility.yul\":2472:2482   */\n  add\n    /* \"#utility.yul\":2467:2482   */\n  swap1\n  pop\n    /* \"#utility.yul\":2443:2556   */\n  jump(tag_93)\ntag_95:\n    /* \"#utility.yul\":2590:2591   */\n  0x00\n    /* \"#utility.yul\":2581:2587   */\n  dup5\n    /* \"#utility.yul\":2576:2579   */\n  dup5\n    /* \"#utility.yul\":2572:2588   */\n  add\n    /* \"#utility.yul\":2565:2592   */\n  mstore\n    /* \"#utility.yul\":2414:2598   */\n  pop\n    /* \"#utility.yul\":2352:2598   */\n  pop\n  pop\n  pop\n  jump\t// out\n    /* \"#utility.yul\":2604:3036   */\ntag_40:\n    /* \"#utility.yul\":2692:2697   */\n  0x00\n    /* \"#utility.yul\":2717:2782   */\n  tag_97\n    /* \"#utility.yul\":2733:2781   */\n  tag_98\n    /* \"#utility.yul\":2774:2780   */\n  dup5\n    /* \"#utility.yul\":2733:2781   */\n  tag_38\n  jump\t// in\ntag_98:\n    /* \"#utility.yul\":2717:2782   */\n  tag_37\n  jump\t// in\ntag_97:\n    /* \"#utility.yul\":2708:2782   */\n  swap1\n  pop\n    /* \"#utility.yul\":2805:2811   */\n  dup3\n    /* \"#utility.yul\":2798:2803   */\n  dup2\n    /* \"#utility.yul\":2791:2812   */\n  mstore\n    /* \"#utility.yul\":2843:2847   */\n  0x20\n    /* \"#utility.yul\":2836:2841   */\n  dup2\n    /* \"#utility.yul\":2832:2848   */\n  add\n    /* \"#utility.yul\":2881:2884   */\n  dup5\n    /* \"#utility.yul\":2872:2878   */\n  dup5\n    /* \"#utility.yul\":2867:2870   */\n  dup5\n    /* \"#utility.yul\":2863:2879   */\n  add\n    /* \"#utility.yul\":2860:2885   */\n  gt\n    /* \"#utility.yul\":2857:2969   */\n  iszero\n  tag_99\n  jumpi\n    /* \"#utility.yul\":2888:2967   */\n  tag_100\n  tag_33\n  jump\t// in\ntag_100:\n    /* \"#utility.yul\":2857:2969   */\ntag_99:\n    /* \"#utility.yul\":2978:3030   */\n  tag_101\n    /* \"#utility.yul\":3023:3029   */\n  dup5\n    /* \"#utility.yul\":3018:3021   */\n  dup3\n    /* \"#utility.yul\":3013:3016   */\n  dup6\n    /* \"#utility.yul\":2978:3030   */\n  tag_39\n  jump\t// in\ntag_101:\n    /* \"#utility.yul\":2698:3036   */\n  pop\n    /* \"#utility.yul\":2604:3036   */\n  swap4\n  swap3\n  pop\n  pop\n  pop\n  jump\t// out\n    /* \"#utility.yul\":3055:3408   */\ntag_41:\n    /* \"#utility.yul\":3121:3126   */\n  0x00\n    /* \"#utility.yul\":3170:3173   */\n  dup3\n    /* \"#utility.yul\":3163:3167   */\n  0x1f\n    /* \"#utility.yul\":3155:3161   */\n  dup4\n    /* \"#utility.yul\":3151:3168   */\n  add\n    /* \"#utility.yul\":3147:3174   */\n  slt\n    /* \"#utility.yul\":3137:3259   */\n  tag_103\n  jumpi\n    /* \"#utility.yul\":3178:3257   */\n  tag_104\n  tag_32\n  jump\t// in\ntag_104:\n    /* \"#utility.yul\":3137:3259   */\ntag_103:\n    /* \"#utility.yul\":3288:3294   */\n  dup2\n    /* \"#utility.yul\":3282:3295   */\n  mload\n    /* \"#utility.yul\":3313:3402   */\n  tag_105\n    /* \"#utility.yul\":3398:3401   */\n  dup5\n    /* \"#utility.yul\":3390:3396   */\n  dup3\n    /* \"#utility.yul\":3383:3387   */\n  0x20\n    /* \"#utility.yul\":3375:3381   */\n  dup7\n    /* \"#utility.yul\":3371:3388   */\n  add\n    /* \"#utility.yul\":3313:3402   */\n  tag_40\n  jump\t// in\ntag_105:\n    /* \"#utility.yul\":3304:3402   */\n  swap2\n  pop\n    /* \"#utility.yul\":3127:3408   */\n  pop\n    /* \"#utility.yul\":3055:3408   */\n  swap3\n  swap2\n  pop\n  pop\n  jump\t// out\n    /* \"#utility.yul\":3414:4405   */\ntag_5:\n    /* \"#utility.yul\":3520:3526   */\n  0x00\n    /* \"#utility.yul\":3528:3534   */\n  dup1\n    /* \"#utility.yul\":3536:3542   */\n  0x00\n    /* \"#utility.yul\":3544:3550   */\n  dup1\n    /* \"#utility.yul\":3593:3596   */\n  0x80\n    /* \"#utility.yul\":3581:3590   */\n  dup6\n    /* \"#utility.yul\":3572:3579   */\n  dup8\n    /* \"#utility.yul\":3568:3591   */\n  sub\n    /* \"#utility.yul\":3564:3597   */\n  slt\n    /* \"#utility.yul\":3561:3681   */\n  iszero\n  tag_107\n  jumpi\n    /* \"#utility.yul\":3600:3679   */\n  tag_108\n  tag_28\n  jump\t// in\ntag_108:\n    /* \"#utility.yul\":3561:3681   */\ntag_107:\n    /* \"#utility.yul\":3720:3721   */\n  0x00\n    /* \"#utility.yul\":3745:3809   */\n  tag_109\n    /* \"#utility.yul\":3801:3808   */\n  dup8\n    /* \"#utility.yul\":3792:3798   */\n  dup3\n    /* \"#utility.yul\":3781:3790   */\n  dup9\n    /* \"#utility.yul\":3777:3799   */\n  add\n    /* \"#utility.yul\":3745:3809   */\n  tag_31\n  jump\t// in\ntag_109:\n    /* \"#utility.yul\":3735:3809   */\n  swap5\n  pop\n    /* \"#utility.yul\":3691:3819   */\n  pop\n    /* \"#utility.yul\":3858:3860   */\n  0x20\n    /* \"#utility.yul\":3884:3948   */\n  tag_110\n    /* \"#utility.yul\":3940:3947   */\n  dup8\n    /* \"#utility.yul\":3931:3937   */\n  dup3\n    /* \"#utility.yul\":3920:3929   */\n  dup9\n    /* \"#utility.yul\":3916:3938   */\n  add\n    /* \"#utility.yul\":3884:3948   */\n  tag_31\n  jump\t// in\ntag_110:\n    /* \"#utility.yul\":3874:3948   */\n  swap4\n  pop\n    /* \"#utility.yul\":3829:3958   */\n  pop\n    /* \"#utility.yul\":3997:3999   */\n  0x40\n    /* \"#utility.yul\":4023:4087   */\n  tag_111\n    /* \"#utility.yul\":4079:4086   */\n  dup8\n    /* \"#utility.yul\":4070:4076   */\n  dup3\n    /* \"#utility.yul\":4059:4068   */\n  dup9\n    /* \"#utility.yul\":4055:4077   */\n  add\n    /* \"#utility.yul\":4023:4087   */\n  tag_31\n  jump\t// in\ntag_111:\n    /* \"#utility.yul\":4013:4087   */\n  swap3\n  pop\n    /* \"#utility.yul\":3968:4097   */\n  pop\n    /* \"#utility.yul\":4157:4159   */\n  0x60\n    /* \"#utility.yul\":4146:4155   */\n  dup6\n    /* \"#utility.yul\":4142:4160   */\n  add\n    /* \"#utility.yul\":4136:4161   */\n  mload\n    /* \"#utility.yul\":4188:4206   */\n  0xffffffffffffffff\n    /* \"#utility.yul\":4180:4186   */\n  dup2\n    /* \"#utility.yul\":4177:4207   */\n  gt\n    /* \"#utility.yul\":4174:4291   */\n  iszero\n  tag_112\n  jumpi\n    /* \"#utility.yul\":4210:4289   */\n  tag_113\n  tag_29\n  jump\t// in\ntag_113:\n    /* \"#utility.yul\":4174:4291   */\ntag_112:\n    /* \"#utility.yul\":4315:4388   */\n  tag_114\n    /* \"#utility.yul\":4380:4387   */\n  dup8\n    /* \"#utility.yul\":4371:4377   */\n  dup3\n    /* \"#utility.yul\":4360:4369   */\n  dup9\n    /* \"#utility.yul\":4356:4378   */\n  add\n    /* \"#utility.yul\":4315:4388   */\n  tag_41\n  jump\t// in\ntag_114:\n    /* \"#utility.yul\":4305:4388   */\n  swap2\n  pop\n    /* \"#utility.yul\":4107:4398   */\n  pop\n    /* \"#utility.yul\":3414:4405   */\n  swap3\n  swap6\n  swap2\n  swap5\n  pop\n  swap3\n  pop\n  jump\t// out\n    /* \"#utility.yul\":4411:4509   */\ntag_42:\n    /* \"#utility.yul\":4462:4468   */\n  0x00\n    /* \"#utility.yul\":4496:4501   */\n  dup2\n    /* \"#utility.yul\":4490:4502   */\n  mload\n    /* \"#utility.yul\":4480:4502   */\n  swap1\n  pop\n    /* \"#utility.yul\":4411:4509   */\n  swap2\n  swap1\n  pop\n  jump\t// out\n    /* \"#utility.yul\":4515:4695   */\ntag_43:\n    /* \"#utility.yul\":4563:4640   */\n  0x4e487b7100000000000000000000000000000000000000000000000000000000\n    /* \"#utility.yul\":4560:4561   */\n  0x00\n    /* \"#utility.yul\":4553:4641   */\n  mstore\n    /* \"#utility.yul\":4660:4664   */\n  0x22\n    /* \"#utility.yul\":4657:4658   */\n  0x04\n    /* \"#utility.yul\":4650:4665   */\n  mstore\n    /* \"#utility.yul\":4684:4688   */\n  0x24\n    /* \"#utility.yul\":4681:4682   */\n  0x00\n    /* \"#utility.yul\":4674:4689   */\n  revert\n    /* \"#utility.yul\":4701:5021   */\ntag_44:\n    /* \"#utility.yul\":4745:4751   */\n  0x00\n    /* \"#utility.yul\":4782:4783   */\n  0x02\n    /* \"#utility.yul\":4776:4780   */\n  dup3\n    /* \"#utility.yul\":4772:4784   */\n  div\n    /* \"#utility.yul\":4762:4784   */\n  swap1\n  pop\n    /* \"#utility.yul\":4829:4830   */\n  0x01\n    /* \"#utility.yul\":4823:4827   */\n  dup3\n    /* \"#utility.yul\":4819:4831   */\n  and\n    /* \"#utility.yul\":4850:4868   */\n  dup1\n    /* \"#utility.yul\":4840:4921   */\n  tag_118\n  jumpi\n    /* \"#utility.yul\":4906:4910   */\n  0x7f\n    /* \"#utility.yul\":4898:4904   */\n  dup3\n    /* \"#utility.yul\":4894:4911   */\n  and\n    /* \"#utility.yul\":4884:4911   */\n  swap2\n  pop\n    /* \"#utility.yul\":4840:4921   */\ntag_118:\n    /* \"#utility.yul\":4968:4970   */\n  0x20\n    /* \"#utility.yul\":4960:4966   */\n  dup3\n    /* \"#utility.yul\":4957:4971   */\n  lt\n    /* \"#utility.yul\":4937:4955   */\n  dup2\n    /* \"#utility.yul\":4934:4972   */\n  sub\n    /* \"#utility.yul\":4931:5015   */\n  tag_119\n  jumpi\n    /* \"#utility.yul\":4987:5005   */\n  tag_120\n  tag_43\n  jump\t// in\ntag_120:\n    /* \"#utility.yul\":4931:5015   */\ntag_119:\n    /* \"#utility.yul\":4752:5021   */\n  pop\n    /* \"#utility.yul\":4701:5021   */\n  swap2\n  swap1\n  pop\n  jump\t// out\n    /* \"#utility.yul\":5027:5167   */\ntag_45:\n    /* \"#utility.yul\":5075:5079   */\n  0x00\n    /* \"#utility.yul\":5098:5101   */\n  dup2\n    /* \"#utility.yul\":5090:5101   */\n  swap1\n  pop\n    /* \"#utility.yul\":5121:5124   */\n  dup2\n    /* \"#utility.yul\":5118:5119   */\n  0x00\n    /* \"#utility.yul\":5111:5125   */\n  mstore\n    /* \"#utility.yul\":5155:5159   */\n  0x20\n    /* \"#utility.yul\":5152:5153   */\n  0x00\n    /* \"#utility.yul\":5142:5160   */\n  keccak256\n    /* \"#utility.yul\":5134:5160   */\n  swap1\n  pop\n    /* \"#utility.yul\":5027:5167   */\n  swap2\n  swap1\n  pop\n  jump\t// out\n    /* \"#utility.yul\":5173:5266   */\ntag_46:\n    /* \"#utility.yul\":5210:5216   */\n  0x00\n    /* \"#utility.yul\":5257:5259   */\n  0x20\n    /* \"#utility.yul\":5252:5254   */\n  0x1f\n    /* \"#utility.yul\":5245:5250   */\n  dup4\n    /* \"#utility.yul\":5241:5255   */\n  add\n    /* \"#utility.yul\":5237:5260   */\n  div\n    /* \"#utility.yul\":5227:5260   */\n  swap1\n  pop\n    /* \"#utility.yul\":5173:5266   */\n  swap2\n  swap1\n  pop\n  jump\t// out\n    /* \"#utility.yul\":5272:5379   */\ntag_47:\n    /* \"#utility.yul\":5316:5324   */\n  0x00\n    /* \"#utility.yul\":5366:5371   */\n  dup3\n    /* \"#utility.yul\":5360:5364   */\n  dup3\n    /* \"#utility.yul\":5356:5372   */\n  shl\n    /* \"#utility.yul\":5335:5372   */\n  swap1\n  pop\n    /* \"#utility.yul\":5272:5379   */\n  swap3\n  swap2\n  pop\n  pop\n  jump\t// out\n    /* \"#utility.yul\":5385:5778   */\ntag_48:\n    /* \"#utility.yul\":5454:5460   */\n  0x00\n    /* \"#utility.yul\":5504:5505   */\n  0x08\n    /* \"#utility.yul\":5492:5502   */\n  dup4\n    /* \"#utility.yul\":5488:5506   */\n  mul\n    /* \"#utility.yul\":5527:5624   */\n  tag_125\n    /* \"#utility.yul\":5557:5623   */\n  0xffffffffffffffffffffffffffffffffffffffffffffffffffffffffffffffff\n    /* \"#utility.yul\":5546:5555   */\n  dup3\n    /* \"#utility.yul\":5527:5624   */\n  tag_47\n  jump\t// in\ntag_125:\n    /* \"#utility.yul\":5645:5684   */\n  tag_126\n    /* \"#utility.yul\":5675:5683   */\n  dup7\n    /* \"#utility.yul\":5664:5673   */\n  dup4\n    /* \"#utility.yul\":5645:5684   */\n  tag_47\n  jump\t// in\ntag_126:\n    /* \"#utility.yul\":5633:5684   */\n  swap6\n  pop\n    /* \"#utility.yul\":5717:5721   */\n  dup1\n    /* \"#utility.yul\":5713:5722   */\n  not\n    /* \"#utility.yul\":5706:5711   */\n  dup5\n    /* \"#utility.yul\":5702:5723   */\n  and\n    /* \"#utility.yul\":5693:5723   */\n  swap4\n  pop\n    /* \"#utility.yul\":5766:5770   */\n  dup1\n    /* \"#utility.yul\":5756:5764   */\n  dup7\n    /* \"#utility.yul\":5752:5771   */\n  and\n    /* \"#utility.yul\":5745:5750   */\n  dup5\n    /* \"#utility.yul\":5742:5772   */\n  or\n    /* \"#utility.yul\":5732:5772   */\n  swap3\n  pop\n    /* \"#utility.yul\":5461:5778   */\n  pop\n  pop\n    /* \"#utility.yul\":5385:5778   */\n  swap4\n  swap3\n  pop\n  pop\n  pop\n  jump\t// out\n    /* \"#utility.yul\":5784:5844   */\ntag_49:\n    /* \"#utility.yul\":5812:5815   */\n  0x00\n    /* \"#utility.yul\":5833:5838   */\n  dup2\n    /* \"#utility.yul\":5826:5838   */\n  swap1\n  pop\n    /* \"#utility.yul\":5784:5844   */\n  swap2\n  swap1\n  pop\n  jump\t// out\n    /* \"#utility.yul\":5850:5992   */\ntag_50:\n    /* \"#utility.yul\":5900:5909   */\n  0x00\n    /* \"#utility.yul\":5933:5986   */\n  tag_129\n    /* \"#utility.yul\":5951:5985   */\n  tag_130\n    /* \"#utility.yul\":5960:5984   */\n  tag_131\n    /* \"#utility.yul\":5978:5983   */\n  dup5\n    /* \"#utility.yul\":5960:5984   */\n  tag_25\n  jump\t// in\ntag_131:\n    /* \"#utility.yul\":5951:5985   */\n  tag_49\n  jump\t// in\ntag_130:\n    /* \"#utility.yul\":5933:5986   */\n  tag_25\n  jump\t// in\ntag_129:\n    /* \"#utility.yul\":5920:5986   */\n  swap1\n  pop\n    /* \"#utility.yul\":5850:5992   */\n  swap2\n  swap1\n  pop\n  jump\t// out\n    /* \"#utility.yul\":5998:6073   */\ntag_51:\n    /* \"#utility.yul\":6041:6044   */\n  0x00\n    /* \"#utility.yul\":6062:6067   */\n  dup2\n    /* \"#utility.yul\":6055:6067   */\n  swap1\n  pop\n    /* \"#utility.yul\":5998:6073   */\n  swap2\n  swap1\n  pop\n  jump\t// out\n    /* \"#utility.yul\":6079:6348   */\ntag_52:\n    /* \"#utility.yul\":6189:6228   */\n  tag_134\n    /* \"#utility.yul\":6220:6227   */\n  dup4\n    /* \"#utility.yul\":6189:6228   */\n  tag_50\n  jump\t// in\ntag_134:\n    /* \"#utility.yul\":6250:6341   */\n  tag_135\n    /* \"#utility.yul\":6299:6340   */\n  tag_136\n    /* \"#utility.yul\":6323:6339   */\n  dup3\n    /* \"#utility.yul\":6299:6340   */\n  tag_51\n  jump\t// in\ntag_136:\n    /* \"#utility.yul\":6291:6297   */\n  dup5\n    /* \"#utility.yul\":6284:6288   */\n  dup5\n    /* \"#utility.yul\":6278:6289   */\n  sload\n    /* \"#utility.yul\":6250:6341   */\n  tag_48\n  jump\t// in\ntag_135:\n    /* \"#utility.yul\":6244:6248   */\n  dup3\n    /* \"#utility.yul\":6237:6342   */\n  sstore\n    /* \"#utility.yul\":6155:6348   */\n  pop\n    /* \"#utility.yul\":6079:6348   */\n  pop\n  pop\n  pop\n  jump\t// out\n    /* \"#utility.yul\":6354:6427   */\ntag_53:\n    /* \"#utility.yul\":6399:6402   */\n  0x00\n    /* \"#utility.yul\":6354:6427   */\n  swap1\n  jump\t// out\n    /* \"#utility.yul\":6433:6622   */\ntag_54:\n    /* \"#utility.yul\":6510:6542   */\n  tag_139\n  tag_53\n  jump\t// in\ntag_139:\n    /* \"#utility.yul\":6551:6616   */\n  tag_140\n    /* \"#utility.yul\":6609:6615   */\n  dup2\n    /* \"#utility.yul\":6601:6607   */\n  dup5\n    /* \"#utility.yul\":6595:6599   */\n  dup5\n    /* \"#utility.yul\":6551:6616   */\n  tag_52\n  jump\t// in\ntag_140:\n    /* \"#utility.yul\":6486:6622   */\n  pop\n    /* \"#utility.yul\":6433:6622   */\n  pop\n  pop\n  jump\t// out\n    /* \"#utility.yul\":6628:6814   */\ntag_55:\n    /* \"#utility.yul\":6688:6808   */\ntag_142:\n    /* \"#utility.yul\":6705:6708   */\n  dup2\n    /* \"#utility.yul\":6698:6703   */\n  dup2\n    /* \"#utility.yul\":6695:6709   */\n  lt\n    /* \"#utility.yul\":6688:6808   */\n  iszero\n  tag_144\n  jumpi\n    /* \"#utility.yul\":6759:6798   */\n  tag_145\n    /* \"#utility.yul\":6796:6797   */\n  0x00\n    /* \"#utility.yul\":6789:6794   */\n  dup3\n    /* \"#utility.yul\":6759:6798   */\n  tag_54\n  jump\t// in\ntag_145:\n    /* \"#utility.yul\":6732:6733   */\n  0x01\n    /* \"#utility.yul\":6725:6730   */\n  dup2\n    /* \"#utility.yul\":6721:6734   */\n  add\n    /* \"#utility.yul\":6712:6734   */\n  swap1\n  pop\n    /* \"#utility.yul\":6688:6808   */\n  jump(tag_142)\ntag_144:\n    /* \"#utility.yul\":6628:6814   */\n  pop\n  pop\n  jump\t// out\n    /* \"#utility.yul\":6820:7361   */\ntag_56:\n    /* \"#utility.yul\":6920:6922   */\n  0x1f\n    /* \"#utility.yul\":6915:6918   */\n  dup3\n    /* \"#utility.yul\":6912:6923   */\n  gt\n    /* \"#utility.yul\":6909:7354   */\n  iszero\n  tag_147\n  jumpi\n    /* \"#utility.yul\":6954:6991   */\n  tag_148\n    /* \"#utility.yul\":6985:6990   */\n  dup2\n    /* \"#utility.yul\":6954:6991   */\n  tag_45\n  jump\t// in\ntag_148:\n    /* \"#utility.yul\":7037:7066   */\n  tag_149\n    /* \"#utility.yul\":7055:7065   */\n  dup5\n    /* \"#utility.yul\":7037:7066   */\n  tag_46\n  jump\t// in\ntag_149:\n    /* \"#utility.yul\":7027:7035   */\n  dup2\n    /* \"#utility.yul\":7023:7067   */\n  add\n    /* \"#utility.yul\":7220:7222   */\n  0x20\n    /* \"#utility.yul\":7208:7218   */\n  dup6\n    /* \"#utility.yul\":7205:7223   */\n  lt\n    /* \"#utility.yul\":7202:7251   */\n  iszero\n  tag_150\n  jumpi\n    /* \"#utility.yul\":7241:7249   */\n  dup2\n    /* \"#utility.yul\":7226:7249   */\n  swap1\n  pop\n    /* \"#utility.yul\":7202:7251   */\ntag_150:\n    /* \"#utility.yul\":7264:7344   */\n  tag_151\n    /* \"#utility.yul\":7320:7342   */\n  tag_152\n    /* \"#utility.yul\":7338:7341   */\n  dup6\n    /* \"#utility.yul\":7320:7342   */\n  tag_46\n  jump\t// in\ntag_152:\n    /* \"#utility.yul\":7310:7318   */\n  dup4\n    /* \"#utility.yul\":7306:7343   */\n  add\n    /* \"#utility.yul\":7293:7304   */\n  dup3\n    /* \"#utility.yul\":7264:7344   */\n  tag_55\n  jump\t// in\ntag_151:\n    /* \"#utility.yul\":6924:7354   */\n  pop\n  pop\n    /* \"#utility.yul\":6909:7354   */\ntag_147:\n    /* \"#utility.yul\":6820:7361   */\n  pop\n  pop\n  pop\n  jump\t// out\n    /* \"#utility.yul\":7367:7484   */\ntag_57:\n    /* \"#utility.yul\":7421:7429   */\n  0x00\n    /* \"#utility.yul\":7471:7476   */\n  dup3\n    /* \"#utility.yul\":7465:7469   */\n  dup3\n    /* \"#utility.yul\":7461:7477   */\n  shr\n    /* \"#utility.yul\":7440:7477   */\n  swap1\n  pop\n    /* \"#utility.yul\":7367:7484   */\n  swap3\n  swap2\n  pop\n  pop\n  jump\t// out\n    /* \"#utility.yul\":7490:7659   */\ntag_58:\n    /* \"#utility.yul\":7534:7540   */\n  0x00\n    /* \"#utility.yul\":7567:7618   */\n  tag_155\n    /* \"#utility.yul\":7615:7616   */\n  0x00\n    /* \"#utility.yul\":7611:7617   */\n  not\n    /* \"#utility.yul\":7603:7608   */\n  dup5\n    /* \"#utility.yul\":7600:7601   */\n  0x08\n    /* \"#utility.yul\":7596:7609   */\n  mul\n    /* \"#utility.yul\":7567:7618   */\n  tag_57\n  jump\t// in\ntag_155:\n    /* \"#utility.yul\":7563:7619   */\n  not\n    /* \"#utility.yul\":7648:7652   */\n  dup1\n    /* \"#utility.yul\":7642:7646   */\n  dup4\n    /* \"#utility.yul\":7638:7653   */\n  and\n    /* \"#utility.yul\":7628:7653   */\n  swap2\n  pop\n    /* \"#utility.yul\":7541:7659   */\n  pop\n    /* \"#utility.yul\":7490:7659   */\n  swap3\n  swap2\n  pop\n  pop\n  jump\t// out\n    /* \"#utility.yul\":7664:7959   */\ntag_59:\n    /* \"#utility.yul\":7740:7744   */\n  0x00\n    /* \"#utility.yul\":7886:7915   */\n  tag_157\n    /* \"#utility.yul\":7911:7914   */\n  dup4\n    /* \"#utility.yul\":7905:7909   */\n  dup4\n    /* \"#utility.yul\":7886:7915   */\n  tag_58\n  jump\t// in\ntag_157:\n    /* \"#utility.yul\":7878:7915   */\n  swap2\n  pop\n    /* \"#utility.yul\":7948:7951   */\n  dup3\n    /* \"#utility.yul\":7945:7946   */\n  0x02\n    /* \"#utility.yul\":7941:7952   */\n  mul\n    /* \"#utility.yul\":7935:7939   */\n  dup3\n    /* \"#utility.yul\":7932:7953   */\n  or\n    /* \"#utility.yul\":7924:7953   */\n  swap1\n  pop\n    /* \"#utility.yul\":7664:7959   */\n  swap3\n  swap2\n  pop\n  pop\n  jump\t// out\n    /* \"#utility.yul\":7964:9354   */\ntag_15:\n    /* \"#utility.yul\":8079:8115   */\n  tag_159\n    /* \"#utility.yul\":8111:8114   */\n  dup3\n    /* \"#utility.yul\":8079:8115   */\n  tag_42\n  jump\t// in\ntag_159:\n    /* \"#utility.yul\":8180:8198   */\n  0xffffffffffffffff\n    /* \"#utility.yul\":8172:8178   */\n  dup2\n    /* \"#utility.yul\":8169:8199   */\n  gt\n    /* \"#utility.yul\":8166:8222   */\n  iszero\n  tag_160\n  jumpi\n    /* \"#utility.yul\":8202:8220   */\n  tag_161\n  tag_35\n  jump\t// in\ntag_161:\n    /* \"#utility.yul\":8166:8222   */\ntag_160:\n    /* \"#utility.yul\":8246:8284   */\n  tag_162\n    /* \"#utility.yul\":8278:8282   */\n  dup3\n    /* \"#utility.yul\":8272:8283   */\n  sload\n    /* \"#utility.yul\":8246:8284   */\n  tag_44\n  jump\t// in\ntag_162:\n    /* \"#utility.yul\":8331:8397   */\n  tag_163\n    /* \"#utility.yul\":8390:8396   */\n  dup3\n    /* \"#utility.yul\":8382:8388   */\n  dup3\n    /* \"#utility.yul\":8376:8380   */\n  dup6\n    /* \"#utility.yul\":8331:8397   */\n  tag_56\n  jump\t// in\ntag_163:\n    /* \"#utility.yul\":8424:8425   */\n  0x00\n    /* \"#utility.yul\":8448:8452   */\n  0x20\n    /* \"#utility.yul\":8435:8452   */\n  swap1\n  pop\n    /* \"#utility.yul\":8480:8482   */\n  0x1f\n    /* \"#utility.yul\":8472:8478   */\n  dup4\n    /* \"#utility.yul\":8469:8483   */\n  gt\n    /* \"#utility.yul\":8497:8498   */\n  0x01\n    /* \"#utility.yul\":8492:9109   */\n  dup2\n  eq\n  tag_165\n  jumpi\n    /* \"#utility.yul\":9153:9154   */\n  0x00\n    /* \"#utility.yul\":9170:9176   */\n  dup5\n    /* \"#utility.yul\":9167:9244   */\n  iszero\n  tag_166\n  jumpi\n    /* \"#utility.yul\":9219:9228   */\n  dup3\n    /* \"#utility.yul\":9214:9217   */\n  dup8\n    /* \"#utility.yul\":9210:9229   */\n  add\n    /* \"#utility.yul\":9204:9230   */\n  mload\n    /* \"#utility.yul\":9195:9230   */\n  swap1\n  pop\n    /* \"#utility.yul\":9167:9244   */\ntag_166:\n    /* \"#utility.yul\":9270:9337   */\n  tag_167\n    /* \"#utility.yul\":9330:9336   */\n  dup6\n    /* \"#utility.yul\":9323:9328   */\n  dup3\n    /* \"#utility.yul\":9270:9337   */\n  tag_59\n  jump\t// in\ntag_167:\n    /* \"#utility.yul\":9264:9268   */\n  dup7\n    /* \"#utility.yul\":9257:9338   */\n  sstore\n    /* \"#utility.yul\":9126:9348   */\n  pop\n    /* \"#utility.yul\":8462:9348   */\n  jump(tag_164)\n    /* \"#utility.yul\":8492:9109   */\ntag_165:\n    /* \"#utility.yul\":8544:8548   */\n  0x1f\n    /* \"#utility.yul\":8540:8549   */\n  not\n    /* \"#utility.yul\":8532:8538   */\n  dup5\n    /* \"#utility.yul\":8528:8550   */\n  and\n    /* \"#utility.yul\":8578:8614   */\n  tag_168\n    /* \"#utility.yul\":8609:8613   */\n  dup7\n    /* \"#utility.yul\":8578:8614   */\n  tag_45\n  jump\t// in\ntag_168:\n    /* \"#utility.yul\":8636:8637   */\n  0x00\n    /* \"#utility.yul\":8650:8858   */\ntag_169:\n    /* \"#utility.yul\":8664:8671   */\n  dup3\n    /* \"#utility.yul\":8661:8662   */\n  dup2\n    /* \"#utility.yul\":8658:8672   */\n  lt\n    /* \"#utility.yul\":8650:8858   */\n  iszero\n  tag_171\n  jumpi\n    /* \"#utility.yul\":8743:8752   */\n  dup5\n    /* \"#utility.yul\":8738:8741   */\n  dup10\n    /* \"#utility.yul\":8734:8753   */\n  add\n    /* \"#utility.yul\":8728:8754   */\n  mload\n    /* \"#utility.yul\":8720:8726   */\n  dup3\n    /* \"#utility.yul\":8713:8755   */\n  sstore\n    /* \"#utility.yul\":8794:8795   */\n  0x01\n    /* \"#utility.yul\":8786:8792   */\n  dup3\n    /* \"#utility.yul\":8782:8796   */\n  add\n    /* \"#utility.yul\":8772:8796   */\n  swap2\n  pop\n    /* \"#utility.yul\":8841:8843   */\n  0x20\n    /* \"#utility.yul\":8830:8839   */\n  dup6\n    /* \"#utility.yul\":8826:8844   */\n  add\n    /* \"#utility.yul\":8813:8844   */\n  swap5\n  pop\n    /* \"#utility.yul\":8687:8691   */\n  0x20\n    /* \"#utility.yul\":8684:8685   */\n  dup2\n    /* \"#utility.yul\":8680:8692   */\n  add\n    /* \"#utility.yul\":8675:8692   */\n  swap1\n  pop\n    /* \"#utility.yul\":8650:8858   */\n  jump(tag_169)\ntag_171:\n    /* \"#utility.yul\":8886:8892   */\n  dup7\n    /* \"#utility.yul\":8877:8884   */\n  dup4\n    /* \"#utility.yul\":8874:8893   */\n  lt\n    /* \"#utility.yul\":8871:9050   */\n  iszero\n  tag_172\n  jumpi\n    /* \"#utility.yul\":8944:8953   */\n  dup5\n    /* \"#utility.yul\":8939:8942   */\n  dup10\n    /* \"#utility.yul\":8935:8954   */\n  add\n    /* \"#utility.yul\":8929:8955   */\n  mload\n    /* \"#utility.yul\":8987:9035   */\n  tag_173\n    /* \"#utility.yul\":9029:9033   */\n  0x1f\n    /* \"#utility.yul\":9021:9027   */\n  dup10\n    /* \"#utility.yul\":9017:9034   */\n  and\n    /* \"#utility.yul\":9006:9015   */\n  dup3\n    /* \"#utility.yul\":8987:9035   */\n  tag_58\n  jump\t// in\ntag_173:\n    /* \"#utility.yul\":8979:8985   */\n  dup4\n    /* \"#utility.yul\":8972:9036   */\n  sstore\n    /* \"#utility.yul\":8894:9050   */\n  pop\n    /* \"#utility.yul\":8871:9050   */\ntag_172:\n    /* \"#utility.yul\":9096:9097   */\n  0x01\n    /* \"#utility.yul\":9092:9093   */\n  0x02\n    /* \"#utility.yul\":9084:9090   */\n  dup9\n    /* \"#utility.yul\":9080:9094   */\n  mul\n    /* \"#utility.yul\":9076:9098   */\n  add\n    /* \"#utility.yul\":9070:9074   */\n  dup9\n    /* \"#utility.yul\":9063:9099   */\n  sstore\n    /* \"#utility.yul\":8499:9109   */\n  pop\n  pop\n  pop\n    /* \"#utility.yul\":8462:9348   */\ntag_164:\n  pop\n    /* \"#utility.yul\":8054:9354   */\n  pop\n  pop\n  pop\n    /* \"#utility.yul\":7964:9354   */\n  pop\n  pop\n  jump\t// out\n    /* \"#utility.yul\":9360:9540   */\ntag_21:\n    /* \"#utility.yul\":9408:9485   */\n  0x4e487b7100000000000000000000000000000000000000000000000000000000\n    /* \"#utility.yul\":9405:9406   */\n  0x00\n    /* \"#utility.yul\":9398:9486   */\n  mstore\n    /* \"#utility.yul\":9505:9509   */\n  0x01\n    /* \"#utility.yul\":9502:9503   */\n  0x04\n    /* \"#utility.yul\":9495:9510   */\n  mstore\n    /* \"#utility.yul\":9529:9533   */\n  0x24\n    /* \"#utility.yul\":9526:9527   */\n  0x00\n    /* \"#utility.yul\":9519:9534   */\n  revert\n    /* \"#utility.yul\":9546:9726   */\ntag_60:\n    /* \"#utility.yul\":9594:9671   */\n  0x4e487b7100000000000000000000000000000000000000000000000000000000\n    /* \"#utility.yul\":9591:9592   */\n  0x00\n    /* \"#utility.yul\":9584:9672   */\n  mstore\n    /* \"#utility.yul\":9691:9695   */\n  0x12\n    /* \"#utility.yul\":9688:9689   */\n  0x04\n    /* \"#utility.yul\":9681:9696   */\n  mstore\n    /* \"#utility.yul\":9715:9719   */\n  0x24\n    /* \"#utility.yul\":9712:9713   */\n  0x00\n    /* \"#utility.yul\":9705:9720   */\n  revert\n    /* \"#utility.yul\":9732:9917   */\ntag_24:\n    /* \"#utility.yul\":9772:9773   */\n  0x00\n    /* \"#utility.yul\":9789:9809   */\n  tag_177\n    /* \"#utility.yul\":9807:9808   */\n  dup3\n    /* \"#utility.yul\":9789:9809   */\n  tag_25\n  jump\t// in\ntag_177:\n    /* \"#utility.yul\":9784:9809   */\n  swap2\n  pop\n    /* \"#utility.yul\":9823:9843   */\n  tag_178\n    /* \"#utility.yul\":9841:9842   */\n  dup4\n    /* \"#utility.yul\":9823:9843   */\n  tag_25\n  jump\t// in\ntag_178:\n    /* \"#utility.yul\":9818:9843   */\n  swap3\n  pop\n    /* \"#utility.yul\":9862:9863   */\n  dup3\n    /* \"#utility.yul\":9852:9887   */\n  tag_179\n  jumpi\n    /* \"#utility.yul\":9867:9885   */\n  tag_180\n  tag_60\n  jump\t// in\ntag_180:\n    /* \"#utility.yul\":9852:9887   */\ntag_179:\n    /* \"#utility.yul\":9909:9910   */\n  dup3\n    /* \"#utility.yul\":9906:9907   */\n  dup3\n    /* \"#utility.yul\":9902:9911   */\n  div\n    /* \"#utility.yul\":9897:9911   */\n  swap1\n  pop\n    /* \"#utility.yul\":9732:9917   */\n  swap3\n  swap2\n  pop\n  pop\n  jump\t// out\n    /* \"Project Module 2/Credit.sol\":108:10070  contract Credit is Ownable {... */\ntag_16:\n  dataSize(sub_0)\n  dup1\n  dataOffset(sub_0)\n  0x00\n  codecopy\n  0x00\n  return\nstop\n\nsub_0: assembly {\n        /* \"Project Module 2/Credit.sol\":108:10070  contract Credit is Ownable {... */\n      mstore(0x40, 0x80)\n      jumpi(tag_1, lt(calldatasize, 0x04))\n      shr(0xe0, calldataload(0x00))\n      dup1\n      0x43c14b22\n      gt\n      tag_15\n      jumpi\n      dup1\n      0xd85da7b6\n      gt\n      tag_16\n      jumpi\n      dup1\n      0xd85da7b6\n      eq\n      tag_11\n      jumpi\n      dup1\n      0xe8b5e51f\n      eq\n      tag_12\n      jumpi\n      dup1\n      0xefd475ab\n      eq\n      tag_13\n      jumpi\n      dup1\n      0xf06817cf\n      eq\n      tag_14\n      jumpi\n      jump(tag_1)\n    tag_16:\n      dup1\n      0x43c14b22\n      eq\n      tag_8\n      jumpi\n      dup1\n      0x590e1ae3\n      eq\n      tag_9\n      jumpi\n      dup1\n      0x8da5cb5b\n      eq\n      tag_10\n      jumpi\n      jump(tag_1)\n    tag_15:\n      dup1\n      0x0fdb1c10\n      eq\n      tag_2\n      jumpi\n      dup1\n      0x12065fe0\n      eq\n      tag_3\n      jumpi\n      dup1\n      0x268f1153\n      eq\n      tag_4\n      jumpi\n      dup1\n      0x28fd10d7\n      eq\n      tag_5\n      jumpi\n      dup1\n      0x29c68dc1\n      eq\n      tag_6\n      jumpi\n      dup1\n      0x402d8883\n      eq\n      tag_7\n      jumpi\n    tag_1:\n      0x00\n      dup1\n      revert\n        /* \"Project Module 2/Credit.sol\":6950:7315  function withDraw() public isActive onlyBorrower canWithdraw isNotFraud {... */\n    tag_2:\n      callvalue\n      dup1\n      iszero\n      tag_17\n      jumpi\n      0x00\n      dup1\n      revert\n    tag_17:\n      pop\n      tag_18\n      tag_19\n      jump\t// in\n    tag_18:\n      stop\n        /* \"Project Module 2/Credit.sol\":4235:4332  function getBalance() public view returns (uint256) {... */\n    tag_3:\n      callvalue\n      dup1\n      iszero\n      tag_20\n      jumpi\n      0x00\n      dup1\n      revert\n    tag_20:\n      pop\n      tag_21\n      tag_22\n      jump\t// in\n    tag_21:\n      mload(0x40)\n      tag_23\n      swap2\n      swap1\n      tag_24\n      jump\t// in\n    tag_23:\n      mload(0x40)\n      dup1\n      swap2\n      sub\n      swap1\n      return\n        /* \"Project Module 2/Credit.sol\":4338:4483  function changeState(State _state) external onlyOwner {... */\n    tag_4:\n      callvalue\n      dup1\n      iszero\n      tag_25\n      jumpi\n      0x00\n      dup1\n      revert\n    tag_25:\n      pop\n      tag_26\n      0x04\n      dup1\n      calldatasize\n      sub\n      dup2\n      add\n      swap1\n      tag_27\n      swap2\n      swap1\n      tag_28\n      jump\t// in\n    tag_27:\n      tag_29\n      jump\t// in\n    tag_26:\n      stop\n        /* \"Project Module 2/Credit.sol\":640:679  mapping(address => bool) public lenders */\n    tag_5:\n      callvalue\n      dup1\n      iszero\n      tag_30\n      jumpi\n      0x00\n      dup1\n      revert\n    tag_30:\n      pop\n      tag_31\n      0x04\n      dup1\n      calldatasize\n      sub\n      dup2\n      add\n      swap1\n      tag_32\n      swap2\n      swap1\n      tag_33\n      jump\t// in\n    tag_32:\n      tag_34\n      jump\t// in\n    tag_31:\n      mload(0x40)\n      tag_35\n      swap2\n      swap1\n      tag_36\n      jump\t// in\n    tag_35:\n      mload(0x40)\n      dup1\n      swap2\n      sub\n      swap1\n      return\n        /* \"Project Module 2/Credit.sol\":4489:4670  function toggleActive() external onlyOwner returns (bool) {... */\n    tag_6:\n      callvalue\n      dup1\n      iszero\n      tag_37\n      jumpi\n      0x00\n      dup1\n      revert\n    tag_37:\n      pop\n      tag_38\n      tag_39\n      jump\t// in\n    tag_38:\n      mload(0x40)\n      tag_40\n      swap2\n      swap1\n      tag_36\n      jump\t// in\n    tag_40:\n      mload(0x40)\n      dup1\n      swap2\n      sub\n      swap1\n      return\n        /* \"Project Module 2/Credit.sol\":5743:6944  function repay() public payable onlyBorrower canRepay {... */\n    tag_7:\n      tag_41\n      tag_42\n      jump\t// in\n    tag_41:\n      stop\n        /* \"Project Module 2/Credit.sol\":8757:9086  function revokeVote() public isActive isRevokable onlyLender {... */\n    tag_8:\n      callvalue\n      dup1\n      iszero\n      tag_43\n      jumpi\n      0x00\n      dup1\n      revert\n    tag_43:\n      pop\n      tag_44\n      tag_45\n      jump\t// in\n    tag_44:\n      stop\n        /* \"Project Module 2/Credit.sol\":9224:9828  function refund() public isActive onlyLender isRevoked {... */\n    tag_9:\n      callvalue\n      dup1\n      iszero\n      tag_46\n      jumpi\n      0x00\n      dup1\n      revert\n    tag_46:\n      pop\n      tag_47\n      tag_48\n      jump\t// in\n    tag_47:\n      stop\n        /* \"Project Module 2/Ownable.sol\":81:101  address public owner */\n    tag_10:\n      callvalue\n      dup1\n      iszero\n      tag_49\n      jumpi\n      0x00\n      dup1\n      revert\n    tag_49:\n      pop\n      tag_50\n      tag_51\n      jump\t// in\n    tag_50:\n      mload(0x40)\n      tag_52\n      swap2\n      swap1\n      tag_53\n      jump\t// in\n    tag_52:\n      mload(0x40)\n      dup1\n      swap2\n      sub\n      swap1\n      return\n        /* \"Project Module 2/Credit.sol\":9834:10068  function fraudVote() public isActive onlyLender {... */\n    tag_11:\n      callvalue\n      dup1\n      iszero\n      tag_54\n      jumpi\n      0x00\n      dup1\n      revert\n    tag_54:\n      pop\n      tag_55\n      tag_56\n      jump\t// in\n    tag_55:\n      stop\n        /* \"Project Module 2/Credit.sol\":4676:5737  function invest() public payable canInvest {... */\n    tag_12:\n      tag_57\n      tag_58\n      jump\t// in\n    tag_57:\n      stop\n        /* \"Project Module 2/Credit.sol\":7321:8098  function requestInterest() public isActive onlyLender canAskForInterest {... */\n    tag_13:\n      callvalue\n      dup1\n      iszero\n      tag_59\n      jumpi\n      0x00\n      dup1\n      revert\n    tag_59:\n      pop\n      tag_60\n      tag_61\n      jump\t// in\n    tag_60:\n      stop\n        /* \"Project Module 2/Credit.sol\":8104:8751  function getCreditInfo()... */\n    tag_14:\n      callvalue\n      dup1\n      iszero\n      tag_62\n      jumpi\n      0x00\n      dup1\n      revert\n    tag_62:\n      pop\n      tag_63\n      tag_64\n      jump\t// in\n    tag_63:\n      mload(0x40)\n      tag_65\n      swap12\n      swap11\n      swap10\n      swap9\n      swap8\n      swap7\n      swap6\n      swap5\n      swap4\n      swap3\n      swap2\n      swap1\n      tag_66\n      jump\t// in\n    tag_65:\n      mload(0x40)\n      dup1\n      swap2\n      sub\n      swap1\n      return\n        /* \"Project Module 2/Credit.sol\":6950:7315  function withDraw() public isActive onlyBorrower canWithdraw isNotFraud {... */\n    tag_19:\n        /* \"Project Module 2/Credit.sol\":2652:2656  true */\n      0x01\n        /* \"Project Module 2/Credit.sol\":2642:2656  active == true */\n      iszero\n      iszero\n        /* \"Project Module 2/Credit.sol\":2642:2648  active */\n      0x0c\n      0x00\n      swap1\n      sload\n      swap1\n      0x0100\n      exp\n      swap1\n      div\n      0xff\n      and\n        /* \"Project Module 2/Credit.sol\":2642:2656  active == true */\n      iszero\n      iszero\n      eq\n        /* \"Project Module 2/Credit.sol\":2634:2657  require(active == true) */\n      tag_70\n      jumpi\n      0x00\n      dup1\n      revert\n    tag_70:\n        /* \"Project Module 2/Credit.sol\":2736:2744  borrower */\n      0x01\n      0x00\n      swap1\n      sload\n      swap1\n      0x0100\n      exp\n      swap1\n      div\n      0xffffffffffffffffffffffffffffffffffffffff\n      and\n        /* \"Project Module 2/Credit.sol\":2722:2744  msg.sender == borrower */\n      0xffffffffffffffffffffffffffffffffffffffff\n      and\n        /* \"Project Module 2/Credit.sol\":2722:2732  msg.sender */\n      caller\n        /* \"Project Module 2/Credit.sol\":2722:2744  msg.sender == borrower */\n      0xffffffffffffffffffffffffffffffffffffffff\n      and\n      eq\n        /* \"Project Module 2/Credit.sol\":2714:2745  require(msg.sender == borrower) */\n      tag_72\n      jumpi\n      0x00\n      dup1\n      revert\n    tag_72:\n        /* \"Project Module 2/Credit.sol\":3256:3271  requestedAmount */\n      sload(0x02)\n        /* \"Project Module 2/Credit.sol\":3231:3252  address(this).balance */\n      selfbalance\n        /* \"Project Module 2/Credit.sol\":3231:3271  address(this).balance >= requestedAmount */\n      lt\n      iszero\n        /* \"Project Module 2/Credit.sol\":3223:3272  require(address(this).balance >= requestedAmount) */\n      tag_74\n      jumpi\n      0x00\n      dup1\n      revert\n    tag_74:\n        /* \"Project Module 2/Credit.sol\":3344:3355  State.fraud */\n      0x05\n        /* \"Project Module 2/Credit.sol\":3335:3355  state != State.fraud */\n      dup1\n      dup2\n      gt\n      iszero\n      tag_76\n      jumpi\n      tag_77\n      tag_78\n      jump\t// in\n    tag_77:\n    tag_76:\n        /* \"Project Module 2/Credit.sol\":3335:3340  state */\n      0x15\n      0x00\n      swap1\n      sload\n      swap1\n      0x0100\n      exp\n      swap1\n      div\n      0xff\n      and\n        /* \"Project Module 2/Credit.sol\":3335:3355  state != State.fraud */\n      0x05\n      dup2\n      gt\n      iszero\n      tag_79\n      jumpi\n      tag_80\n      tag_78\n      jump\t// in\n    tag_80:\n    tag_79:\n      sub\n        /* \"Project Module 2/Credit.sol\":3327:3356  require(state != State.fraud) */\n      tag_81\n      jumpi\n      0x00\n      dup1\n      revert\n    tag_81:\n        /* \"Project Module 2/Credit.sol\":7040:7055  State.repayment */\n      0x01\n        /* \"Project Module 2/Credit.sol\":7032:7037  state */\n      0x15\n      0x00\n        /* \"Project Module 2/Credit.sol\":7032:7055  state = State.repayment */\n      0x0100\n      exp\n      dup2\n      sload\n      dup2\n      0xff\n      mul\n      not\n      and\n      swap1\n      dup4\n      0x05\n      dup2\n      gt\n      iszero\n      tag_83\n      jumpi\n      tag_84\n      tag_78\n      jump\t// in\n    tag_84:\n    tag_83:\n      mul\n      or\n      swap1\n      sstore\n      pop\n        /* \"Project Module 2/Credit.sol\":7099:7114  block.timestamp */\n      timestamp\n        /* \"Project Module 2/Credit.sol\":7092:7097  state */\n      0x15\n      0x00\n      swap1\n      sload\n      swap1\n      0x0100\n      exp\n      swap1\n      div\n      0xff\n      and\n        /* \"Project Module 2/Credit.sol\":7070:7115  LogCreditStateChanged(state, block.timestamp) */\n      0x05\n      dup2\n      gt\n      iszero\n      tag_85\n      jumpi\n      tag_86\n      tag_78\n      jump\t// in\n    tag_86:\n    tag_85:\n      0xaaae373901e745122c2e0925ad006227969c6cd190b7d5ea2fb7fdbd1d955b35\n      mload(0x40)\n      mload(0x40)\n      dup1\n      swap2\n      sub\n      swap1\n      log3\n        /* \"Project Module 2/Credit.sol\":7224:7239  block.timestamp */\n      timestamp\n        /* \"Project Module 2/Credit.sol\":7189:7210  address(this).balance */\n      selfbalance\n        /* \"Project Module 2/Credit.sol\":7165:7175  msg.sender */\n      caller\n        /* \"Project Module 2/Credit.sol\":7130:7249  LogBorrowerWithdrawal(... */\n      0xffffffffffffffffffffffffffffffffffffffff\n      and\n      0x20734f14d107b526674905e470e35d0a474f9fb996a7bdb034c839c8894524e6\n      mload(0x40)\n      mload(0x40)\n      dup1\n      swap2\n      sub\n      swap1\n      log4\n        /* \"Project Module 2/Credit.sol\":7267:7275  borrower */\n      0x01\n      0x00\n      swap1\n      sload\n      swap1\n      0x0100\n      exp\n      swap1\n      div\n      0xffffffffffffffffffffffffffffffffffffffff\n      and\n        /* \"Project Module 2/Credit.sol\":7259:7285  payable(borrower).transfer */\n      0xffffffffffffffffffffffffffffffffffffffff\n      and\n        /* \"Project Module 2/Credit.sol\":7259:7308  payable(borrower).transfer(address(this).balance) */\n      0x08fc\n        /* \"Project Module 2/Credit.sol\":7286:7307  address(this).balance */\n      selfbalance\n        /* \"Project Module 2/Credit.sol\":7259:7308  payable(borrower).transfer(address(this).balance) */\n      swap1\n      dup2\n      iszero\n      mul\n      swap1\n      mload(0x40)\n      0x00\n      mload(0x40)\n      dup1\n      dup4\n      sub\n      dup2\n      dup6\n      dup9\n      dup9\n      call\n      swap4\n      pop\n      pop\n      pop\n      pop\n      iszero\n      dup1\n      iszero\n      tag_88\n      jumpi\n      returndatasize\n      0x00\n      dup1\n      returndatacopy\n      revert(0x00, returndatasize)\n    tag_88:\n      pop\n        /* \"Project Module 2/Credit.sol\":6950:7315  function withDraw() public isActive onlyBorrower canWithdraw isNotFraud {... */\n      jump\t// out\n        /* \"Project Module 2/Credit.sol\":4235:4332  function getBalance() public view returns (uint256) {... */\n    tag_22:\n        /* \"Project Module 2/Credit.sol\":4278:4285  uint256 */\n      0x00\n        /* \"Project Module 2/Credit.sol\":4304:4325  address(this).balance */\n      selfbalance\n        /* \"Project Module 2/Credit.sol\":4297:4325  return address(this).balance */\n      swap1\n      pop\n        /* \"Project Module 2/Credit.sol\":4235:4332  function getBalance() public view returns (uint256) {... */\n      swap1\n      jump\t// out\n        /* \"Project Module 2/Credit.sol\":4338:4483  function changeState(State _state) external onlyOwner {... */\n    tag_29:\n        /* \"Project Module 2/Ownable.sol\":274:279  owner */\n      0x00\n      dup1\n      sload\n      swap1\n      0x0100\n      exp\n      swap1\n      div\n      0xffffffffffffffffffffffffffffffffffffffff\n      and\n        /* \"Project Module 2/Ownable.sol\":260:279  msg.sender == owner */\n      0xffffffffffffffffffffffffffffffffffffffff\n      and\n        /* \"Project Module 2/Ownable.sol\":260:270  msg.sender */\n      caller\n        /* \"Project Module 2/Ownable.sol\":260:279  msg.sender == owner */\n      0xffffffffffffffffffffffffffffffffffffffff\n      and\n      eq\n        /* \"Project Module 2/Ownable.sol\":252:280  require(msg.sender == owner) */\n      tag_91\n      jumpi\n      0x00\n      dup1\n      revert\n    tag_91:\n        /* \"Project Module 2/Credit.sol\":4410:4416  _state */\n      dup1\n        /* \"Project Module 2/Credit.sol\":4402:4407  state */\n      0x15\n      0x00\n        /* \"Project Module 2/Credit.sol\":4402:4416  state = _state */\n      0x0100\n      exp\n      dup2\n      sload\n      dup2\n      0xff\n      mul\n      not\n      and\n      swap1\n      dup4\n      0x05\n      dup2\n      gt\n      iszero\n      tag_93\n      jumpi\n      tag_94\n      tag_78\n      jump\t// in\n    tag_94:\n    tag_93:\n      mul\n      or\n      swap1\n      sstore\n      pop\n        /* \"Project Module 2/Credit.sol\":4460:4475  block.timestamp */\n      timestamp\n        /* \"Project Module 2/Credit.sol\":4453:4458  state */\n      0x15\n      0x00\n      swap1\n      sload\n      swap1\n      0x0100\n      exp\n      swap1\n      div\n      0xff\n      and\n        /* \"Project Module 2/Credit.sol\":4431:4476  LogCreditStateChanged(state, block.timestamp) */\n      0x05\n      dup2\n      gt\n      iszero\n      tag_95\n      jumpi\n      tag_96\n      tag_78\n      jump\t// in\n    tag_96:\n    tag_95:\n      0xaaae373901e745122c2e0925ad006227969c6cd190b7d5ea2fb7fdbd1d955b35\n      mload(0x40)\n      mload(0x40)\n      dup1\n      swap2\n      sub\n      swap1\n      log3\n        /* \"Project Module 2/Credit.sol\":4338:4483  function changeState(State _state) external onlyOwner {... */\n      pop\n      jump\t// out\n        /* \"Project Module 2/Credit.sol\":640:679  mapping(address => bool) public lenders */\n    tag_34:\n      mstore(0x20, 0x11)\n      dup1\n      0x00\n      mstore\n      keccak256(0x00, 0x40)\n      0x00\n      swap2\n      pop\n      sload\n      swap1\n      0x0100\n      exp\n      swap1\n      div\n      0xff\n      and\n      dup2\n      jump\t// out\n        /* \"Project Module 2/Credit.sol\":4489:4670  function toggleActive() external onlyOwner returns (bool) {... */\n    tag_39:\n        /* \"Project Module 2/Credit.sol\":4541:4545  bool */\n      0x00\n        /* \"Project Module 2/Ownable.sol\":274:279  owner */\n      dup1\n      0x00\n      swap1\n      sload\n      swap1\n      0x0100\n      exp\n      swap1\n      div\n      0xffffffffffffffffffffffffffffffffffffffff\n      and\n        /* \"Project Module 2/Ownable.sol\":260:279  msg.sender == owner */\n      0xffffffffffffffffffffffffffffffffffffffff\n      and\n        /* \"Project Module 2/Ownable.sol\":260:270  msg.sender */\n      caller\n        /* \"Project Module 2/Ownable.sol\":260:279  msg.sender == owner */\n      0xffffffffffffffffffffffffffffffffffffffff\n      and\n      eq\n        /* \"Project Module 2/Ownable.sol\":252:280  require(msg.sender == owner) */\n      tag_98\n      jumpi\n      0x00\n      dup1\n      revert\n    tag_98:\n        /* \"Project Module 2/Credit.sol\":4567:4573  active */\n      0x0c\n      0x00\n      swap1\n      sload\n      swap1\n      0x0100\n      exp\n      swap1\n      div\n      0xff\n      and\n        /* \"Project Module 2/Credit.sol\":4566:4573  !active */\n      iszero\n        /* \"Project Module 2/Credit.sol\":4557:4563  active */\n      0x0c\n      0x00\n        /* \"Project Module 2/Credit.sol\":4557:4573  active = !active */\n      0x0100\n      exp\n      dup2\n      sload\n      dup2\n      0xff\n      mul\n      not\n      and\n      swap1\n      dup4\n      iszero\n      iszero\n      mul\n      or\n      swap1\n      sstore\n      pop\n        /* \"Project Module 2/Credit.sol\":4624:4639  block.timestamp */\n      timestamp\n        /* \"Project Module 2/Credit.sol\":4616:4622  active */\n      0x0c\n      0x00\n      swap1\n      sload\n      swap1\n      0x0100\n      exp\n      swap1\n      div\n      0xff\n      and\n        /* \"Project Module 2/Credit.sol\":4588:4640  LogCreditStateActiveChanged(active, block.timestamp) */\n      iszero\n      iszero\n      0x160914ea27c60aa29a5f3a69d74e6069869de36e38939de1e0a66b921d8623d2\n      mload(0x40)\n      mload(0x40)\n      dup1\n      swap2\n      sub\n      swap1\n      log3\n        /* \"Project Module 2/Credit.sol\":4657:4663  active */\n      0x0c\n      0x00\n      swap1\n      sload\n      swap1\n      0x0100\n      exp\n      swap1\n      div\n      0xff\n      and\n        /* \"Project Module 2/Credit.sol\":4650:4663  return active */\n      swap1\n      pop\n        /* \"Project Module 2/Credit.sol\":4489:4670  function toggleActive() external onlyOwner returns (bool) {... */\n      swap1\n      jump\t// out\n        /* \"Project Module 2/Credit.sol\":5743:6944  function repay() public payable onlyBorrower canRepay {... */\n    tag_42:\n        /* \"Project Module 2/Credit.sol\":2736:2744  borrower */\n      0x01\n      0x00\n      swap1\n      sload\n      swap1\n      0x0100\n      exp\n      swap1\n      div\n      0xffffffffffffffffffffffffffffffffffffffff\n      and\n        /* \"Project Module 2/Credit.sol\":2722:2744  msg.sender == borrower */\n      0xffffffffffffffffffffffffffffffffffffffff\n      and\n        /* \"Project Module 2/Credit.sol\":2722:2732  msg.sender */\n      caller\n        /* \"Project Module 2/Credit.sol\":2722:2744  msg.sender == borrower */\n      0xffffffffffffffffffffffffffffffffffffffff\n      and\n      eq\n        /* \"Project Module 2/Credit.sol\":2714:2745  require(msg.sender == borrower) */\n      tag_101\n      jumpi\n      0x00\n      dup1\n      revert\n    tag_101:\n        /* \"Project Module 2/Credit.sol\":3151:3166  State.repayment */\n      0x01\n        /* \"Project Module 2/Credit.sol\":3142:3166  state == State.repayment */\n      0x05\n      dup2\n      gt\n      iszero\n      tag_103\n      jumpi\n      tag_104\n      tag_78\n      jump\t// in\n    tag_104:\n    tag_103:\n        /* \"Project Module 2/Credit.sol\":3142:3147  state */\n      0x15\n      0x00\n      swap1\n      sload\n      swap1\n      0x0100\n      exp\n      swap1\n      div\n      0xff\n      and\n        /* \"Project Module 2/Credit.sol\":3142:3166  state == State.repayment */\n      0x05\n      dup2\n      gt\n      iszero\n      tag_105\n      jumpi\n      tag_106\n      tag_78\n      jump\t// in\n    tag_106:\n    tag_105:\n      eq\n        /* \"Project Module 2/Credit.sol\":3134:3167  require(state == State.repayment) */\n      tag_107\n      jumpi\n      0x00\n      dup1\n      revert\n    tag_107:\n        /* \"Project Module 2/Credit.sol\":5828:5848  repaymentInstallment */\n      sload(0x08)\n        /* \"Project Module 2/Credit.sol\":5815:5824  msg.value */\n      callvalue\n        /* \"Project Module 2/Credit.sol\":5815:5848  msg.value >= repaymentInstallment */\n      lt\n      iszero\n        /* \"Project Module 2/Credit.sol\":5807:5849  require(msg.value >= repaymentInstallment) */\n      tag_109\n      jumpi\n      0x00\n      dup1\n      revert\n    tag_109:\n        /* \"Project Module 2/Credit.sol\":5881:5893  returnAmount */\n      sload(0x03)\n        /* \"Project Module 2/Credit.sol\":5866:5878  repaidAmount */\n      sload(0x04)\n        /* \"Project Module 2/Credit.sol\":5866:5893  repaidAmount < returnAmount */\n      lt\n        /* \"Project Module 2/Credit.sol\":5859:5894  assert(repaidAmount < returnAmount) */\n      tag_110\n      jumpi\n      tag_111\n      tag_112\n      jump\t// in\n    tag_111:\n    tag_110:\n        /* \"Project Module 2/Credit.sol\":5904:5923  remainingRepayments */\n      0x07\n      0x00\n        /* \"Project Module 2/Credit.sol\":5904:5925  remainingRepayments-- */\n      dup2\n      sload\n      dup1\n      swap3\n      swap2\n      swap1\n      tag_113\n      swap1\n      tag_114\n      jump\t// in\n    tag_113:\n      swap2\n      swap1\n      pop\n      sstore\n      pop\n        /* \"Project Module 2/Credit.sol\":5955:5970  block.timestamp */\n      timestamp\n        /* \"Project Module 2/Credit.sol\":5935:5952  lastRepaymentDate */\n      0x0a\n        /* \"Project Module 2/Credit.sol\":5935:5970  lastRepaymentDate = block.timestamp */\n      dup2\n      swap1\n      sstore\n      pop\n        /* \"Project Module 2/Credit.sol\":5980:5998  uint256 extraMoney */\n      0x00\n        /* \"Project Module 2/Credit.sol\":6029:6049  repaymentInstallment */\n      sload(0x08)\n        /* \"Project Module 2/Credit.sol\":6017:6026  msg.value */\n      callvalue\n        /* \"Project Module 2/Credit.sol\":6017:6049  msg.value > repaymentInstallment */\n      gt\n        /* \"Project Module 2/Credit.sol\":6013:6938  if (msg.value > repaymentInstallment) {... */\n      iszero\n      tag_115\n      jumpi\n        /* \"Project Module 2/Credit.sol\":6078:6113  msg.value.sub(repaymentInstallment) */\n      tag_116\n        /* \"Project Module 2/Credit.sol\":6092:6112  repaymentInstallment */\n      sload(0x08)\n        /* \"Project Module 2/Credit.sol\":6078:6087  msg.value */\n      callvalue\n        /* \"Project Module 2/Credit.sol\":6078:6091  msg.value.sub */\n      tag_117\n      swap1\n        /* \"Project Module 2/Credit.sol\":6078:6113  msg.value.sub(repaymentInstallment) */\n      swap2\n      swap1\n      0xffffffff\n      and\n      jump\t// in\n    tag_116:\n        /* \"Project Module 2/Credit.sol\":6065:6113  extraMoney = msg.value.sub(repaymentInstallment) */\n      swap1\n      pop\n        /* \"Project Module 2/Credit.sol\":6158:6183  msg.value.sub(extraMoney) */\n      tag_118\n        /* \"Project Module 2/Credit.sol\":6172:6182  extraMoney */\n      dup2\n        /* \"Project Module 2/Credit.sol\":6158:6167  msg.value */\n      callvalue\n        /* \"Project Module 2/Credit.sol\":6158:6171  msg.value.sub */\n      tag_117\n      swap1\n        /* \"Project Module 2/Credit.sol\":6158:6183  msg.value.sub(extraMoney) */\n      swap2\n      swap1\n      0xffffffff\n      and\n      jump\t// in\n    tag_118:\n        /* \"Project Module 2/Credit.sol\":6134:6154  repaymentInstallment */\n      sload(0x08)\n        /* \"Project Module 2/Credit.sol\":6134:6183  repaymentInstallment == msg.value.sub(extraMoney) */\n      eq\n        /* \"Project Module 2/Credit.sol\":6127:6184  assert(repaymentInstallment == msg.value.sub(extraMoney)) */\n      tag_119\n      jumpi\n      tag_120\n      tag_112\n      jump\t// in\n    tag_120:\n    tag_119:\n        /* \"Project Module 2/Credit.sol\":6219:6228  msg.value */\n      callvalue\n        /* \"Project Module 2/Credit.sol\":6205:6215  extraMoney */\n      dup2\n        /* \"Project Module 2/Credit.sol\":6205:6228  extraMoney <= msg.value */\n      gt\n      iszero\n        /* \"Project Module 2/Credit.sol\":6198:6229  assert(extraMoney <= msg.value) */\n      tag_121\n      jumpi\n      tag_122\n      tag_112\n      jump\t// in\n    tag_122:\n    tag_121:\n        /* \"Project Module 2/Credit.sol\":6251:6261  msg.sender */\n      caller\n        /* \"Project Module 2/Credit.sol\":6243:6271  payable(msg.sender).transfer */\n      0xffffffffffffffffffffffffffffffffffffffff\n      and\n        /* \"Project Module 2/Credit.sol\":6243:6283  payable(msg.sender).transfer(extraMoney) */\n      0x08fc\n        /* \"Project Module 2/Credit.sol\":6272:6282  extraMoney */\n      dup3\n        /* \"Project Module 2/Credit.sol\":6243:6283  payable(msg.sender).transfer(extraMoney) */\n      swap1\n      dup2\n      iszero\n      mul\n      swap1\n      mload(0x40)\n      0x00\n      mload(0x40)\n      dup1\n      dup4\n      sub\n      dup2\n      dup6\n      dup9\n      dup9\n      call\n      swap4\n      pop\n      pop\n      pop\n      pop\n      iszero\n      dup1\n      iszero\n      tag_124\n      jumpi\n      returndatasize\n      0x00\n      dup1\n      returndatacopy\n      revert(0x00, returndatasize)\n    tag_124:\n      pop\n        /* \"Project Module 2/Credit.sol\":6401:6416  block.timestamp */\n      timestamp\n        /* \"Project Module 2/Credit.sol\":6373:6383  extraMoney */\n      dup2\n        /* \"Project Module 2/Credit.sol\":6345:6355  msg.sender */\n      caller\n        /* \"Project Module 2/Credit.sol\":6302:6430  LogBorrowerChangeReturned(... */\n      0xffffffffffffffffffffffffffffffffffffffff\n      and\n      0x5c9874487a2258c6bd6dc39a2cfcf7ea944b50b79d9a7152668779687b2ebd8d\n      mload(0x40)\n      mload(0x40)\n      dup1\n      swap2\n      sub\n      swap1\n      log4\n        /* \"Project Module 2/Credit.sol\":6569:6584  block.timestamp */\n      timestamp\n        /* \"Project Module 2/Credit.sol\":6526:6551  msg.value.sub(extraMoney) */\n      tag_125\n        /* \"Project Module 2/Credit.sol\":6540:6550  extraMoney */\n      dup3\n        /* \"Project Module 2/Credit.sol\":6526:6535  msg.value */\n      callvalue\n        /* \"Project Module 2/Credit.sol\":6526:6539  msg.value.sub */\n      tag_117\n      swap1\n        /* \"Project Module 2/Credit.sol\":6526:6551  msg.value.sub(extraMoney) */\n      swap2\n      swap1\n      0xffffffff\n      and\n      jump\t// in\n    tag_125:\n        /* \"Project Module 2/Credit.sol\":6498:6508  msg.sender */\n      caller\n        /* \"Project Module 2/Credit.sol\":6449:6598  LogBorrowerRepaymentInstallment(... */\n      0xffffffffffffffffffffffffffffffffffffffff\n      and\n      0x350a09487d622378c6efbda255f996387696319f803a2e53eee64f7aa70be85a\n      mload(0x40)\n      mload(0x40)\n      dup1\n      swap2\n      sub\n      swap1\n      log4\n        /* \"Project Module 2/Credit.sol\":6627:6670  repaidAmount.add(msg.value.sub(extraMoney)) */\n      tag_126\n        /* \"Project Module 2/Credit.sol\":6644:6669  msg.value.sub(extraMoney) */\n      tag_127\n        /* \"Project Module 2/Credit.sol\":6658:6668  extraMoney */\n      dup3\n        /* \"Project Module 2/Credit.sol\":6644:6653  msg.value */\n      callvalue\n        /* \"Project Module 2/Credit.sol\":6644:6657  msg.value.sub */\n      tag_117\n      swap1\n        /* \"Project Module 2/Credit.sol\":6644:6669  msg.value.sub(extraMoney) */\n      swap2\n      swap1\n      0xffffffff\n      and\n      jump\t// in\n    tag_127:\n        /* \"Project Module 2/Credit.sol\":6627:6639  repaidAmount */\n      sload(0x04)\n        /* \"Project Module 2/Credit.sol\":6627:6643  repaidAmount.add */\n      tag_67\n      swap1\n        /* \"Project Module 2/Credit.sol\":6627:6670  repaidAmount.add(msg.value.sub(extraMoney)) */\n      swap2\n      swap1\n      0xffffffff\n      and\n      jump\t// in\n    tag_126:\n        /* \"Project Module 2/Credit.sol\":6612:6624  repaidAmount */\n      0x04\n        /* \"Project Module 2/Credit.sol\":6612:6670  repaidAmount = repaidAmount.add(msg.value.sub(extraMoney)) */\n      dup2\n      swap1\n      sstore\n      pop\n        /* \"Project Module 2/Credit.sol\":6704:6716  returnAmount */\n      sload(0x03)\n        /* \"Project Module 2/Credit.sol\":6688:6700  repaidAmount */\n      sload(0x04)\n        /* \"Project Module 2/Credit.sol\":6688:6716  repaidAmount == returnAmount */\n      sub\n        /* \"Project Module 2/Credit.sol\":6684:6928  if (repaidAmount == returnAmount) {... */\n      tag_128\n      jumpi\n        /* \"Project Module 2/Credit.sol\":6782:6797  block.timestamp */\n      timestamp\n        /* \"Project Module 2/Credit.sol\":6770:6780  msg.sender */\n      caller\n        /* \"Project Module 2/Credit.sol\":6741:6798  LogBorrowerRepaymentFinished(msg.sender, block.timestamp) */\n      0xffffffffffffffffffffffffffffffffffffffff\n      and\n      0x25630de45a38a90cbca3a2eb35a8197e51b56d6d912581711e5e3773fe77cabc\n      mload(0x40)\n      mload(0x40)\n      dup1\n      swap2\n      sub\n      swap1\n      log3\n        /* \"Project Module 2/Credit.sol\":6824:6845  State.interestReturns */\n      0x02\n        /* \"Project Module 2/Credit.sol\":6816:6821  state */\n      0x15\n      0x00\n        /* \"Project Module 2/Credit.sol\":6816:6845  state = State.interestReturns */\n      0x0100\n      exp\n      dup2\n      sload\n      dup2\n      0xff\n      mul\n      not\n      and\n      swap1\n      dup4\n      0x05\n      dup2\n      gt\n      iszero\n      tag_129\n      jumpi\n      tag_130\n      tag_78\n      jump\t// in\n    tag_130:\n    tag_129:\n      mul\n      or\n      swap1\n      sstore\n      pop\n        /* \"Project Module 2/Credit.sol\":6897:6912  block.timestamp */\n      timestamp\n        /* \"Project Module 2/Credit.sol\":6890:6895  state */\n      0x15\n      0x00\n      swap1\n      sload\n      swap1\n      0x0100\n      exp\n      swap1\n      div\n      0xff\n      and\n        /* \"Project Module 2/Credit.sol\":6868:6913  LogCreditStateChanged(state, block.timestamp) */\n      0x05\n      dup2\n      gt\n      iszero\n      tag_131\n      jumpi\n      tag_132\n      tag_78\n      jump\t// in\n    tag_132:\n    tag_131:\n      0xaaae373901e745122c2e0925ad006227969c6cd190b7d5ea2fb7fdbd1d955b35\n      mload(0x40)\n      mload(0x40)\n      dup1\n      swap2\n      sub\n      swap1\n      log3\n        /* \"Project Module 2/Credit.sol\":6684:6928  if (repaidAmount == returnAmount) {... */\n    tag_128:\n        /* \"Project Module 2/Credit.sol\":6013:6938  if (msg.value > repaymentInstallment) {... */\n    tag_115:\n        /* \"Project Module 2/Credit.sol\":5797:6944  {... */\n      pop\n        /* \"Project Module 2/Credit.sol\":5743:6944  function repay() public payable onlyBorrower canRepay {... */\n      jump\t// out\n        /* \"Project Module 2/Credit.sol\":8757:9086  function revokeVote() public isActive isRevokable onlyLender {... */\n    tag_45:\n        /* \"Project Module 2/Credit.sol\":2652:2656  true */\n      0x01\n        /* \"Project Module 2/Credit.sol\":2642:2656  active == true */\n      iszero\n      iszero\n        /* \"Project Module 2/Credit.sol\":2642:2648  active */\n      0x0c\n      0x00\n      swap1\n      sload\n      swap1\n      0x0100\n      exp\n      swap1\n      div\n      0xff\n      and\n        /* \"Project Module 2/Credit.sol\":2642:2656  active == true */\n      iszero\n      iszero\n      eq\n        /* \"Project Module 2/Credit.sol\":2634:2657  require(active == true) */\n      tag_134\n      jumpi\n      0x00\n      dup1\n      revert\n    tag_134:\n        /* \"Project Module 2/Credit.sol\":3439:3445  revoke */\n      sload(0x0f)\n        /* \"Project Module 2/Credit.sol\":3420:3435  block.timestamp */\n      timestamp\n        /* \"Project Module 2/Credit.sol\":3420:3445  block.timestamp >= revoke */\n      lt\n      iszero\n        /* \"Project Module 2/Credit.sol\":3412:3446  require(block.timestamp >= revoke) */\n      tag_136\n      jumpi\n      0x00\n      dup1\n      revert\n    tag_136:\n        /* \"Project Module 2/Credit.sol\":3473:3489  State.investment */\n      0x00\n        /* \"Project Module 2/Credit.sol\":3464:3489  state == State.investment */\n      0x05\n      dup2\n      gt\n      iszero\n      tag_137\n      jumpi\n      tag_138\n      tag_78\n      jump\t// in\n    tag_138:\n    tag_137:\n        /* \"Project Module 2/Credit.sol\":3464:3469  state */\n      0x15\n      0x00\n      swap1\n      sload\n      swap1\n      0x0100\n      exp\n      swap1\n      div\n      0xff\n      and\n        /* \"Project Module 2/Credit.sol\":3464:3489  state == State.investment */\n      0x05\n      dup2\n      gt\n      iszero\n      tag_139\n      jumpi\n      tag_140\n      tag_78\n      jump\t// in\n    tag_140:\n    tag_139:\n      eq\n        /* \"Project Module 2/Credit.sol\":3456:3490  require(state == State.investment) */\n      tag_141\n      jumpi\n      0x00\n      dup1\n      revert\n    tag_141:\n        /* \"Project Module 2/Credit.sol\":2831:2835  true */\n      0x01\n        /* \"Project Module 2/Credit.sol\":2808:2835  lenders[msg.sender] == true */\n      iszero\n      iszero\n        /* \"Project Module 2/Credit.sol\":2808:2815  lenders */\n      0x11\n        /* \"Project Module 2/Credit.sol\":2808:2827  lenders[msg.sender] */\n      0x00\n        /* \"Project Module 2/Credit.sol\":2816:2826  msg.sender */\n      caller\n        /* \"Project Module 2/Credit.sol\":2808:2827  lenders[msg.sender] */\n      0xffffffffffffffffffffffffffffffffffffffff\n      and\n      0xffffffffffffffffffffffffffffffffffffffff\n      and\n      dup2\n      mstore\n      0x20\n      add\n      swap1\n      dup2\n      mstore\n      0x20\n      add\n      0x00\n      keccak256\n      0x00\n      swap1\n      sload\n      swap1\n      0x0100\n      exp\n      swap1\n      div\n      0xff\n      and\n        /* \"Project Module 2/Credit.sol\":2808:2835  lenders[msg.sender] == true */\n      iszero\n      iszero\n      eq\n        /* \"Project Module 2/Credit.sol\":2800:2836  require(lenders[msg.sender] == true) */\n      tag_143\n      jumpi\n      0x00\n      dup1\n      revert\n    tag_143:\n        /* \"Project Module 2/Credit.sol\":8864:8869  false */\n      0x00\n        /* \"Project Module 2/Credit.sol\":8836:8869  revokeVoters[msg.sender] == false */\n      iszero\n      iszero\n        /* \"Project Module 2/Credit.sol\":8836:8848  revokeVoters */\n      0x13\n        /* \"Project Module 2/Credit.sol\":8836:8860  revokeVoters[msg.sender] */\n      0x00\n        /* \"Project Module 2/Credit.sol\":8849:8859  msg.sender */\n      caller\n        /* \"Project Module 2/Credit.sol\":8836:8860  revokeVoters[msg.sender] */\n      0xffffffffffffffffffffffffffffffffffffffff\n      and\n      0xffffffffffffffffffffffffffffffffffffffff\n      and\n      dup2\n      mstore\n      0x20\n      add\n      swap1\n      dup2\n      mstore\n      0x20\n      add\n      0x00\n      keccak256\n      0x00\n      swap1\n      sload\n      swap1\n      0x0100\n      exp\n      swap1\n      div\n      0xff\n      and\n        /* \"Project Module 2/Credit.sol\":8836:8869  revokeVoters[msg.sender] == false */\n      iszero\n      iszero\n      eq\n        /* \"Project Module 2/Credit.sol\":8828:8870  require(revokeVoters[msg.sender] == false) */\n      tag_145\n      jumpi\n      0x00\n      dup1\n      revert\n    tag_145:\n        /* \"Project Module 2/Credit.sol\":8880:8891  revokeVotes */\n      0x0e\n      0x00\n        /* \"Project Module 2/Credit.sol\":8880:8893  revokeVotes++ */\n      dup2\n      sload\n      dup1\n      swap3\n      swap2\n      swap1\n      tag_146\n      swap1\n      tag_147\n      jump\t// in\n    tag_146:\n      swap2\n      swap1\n      pop\n      sstore\n      pop\n        /* \"Project Module 2/Credit.sol\":8931:8935  true */\n      0x01\n        /* \"Project Module 2/Credit.sol\":8903:8935  revokeVoters[msg.sender] == true */\n      iszero\n      iszero\n        /* \"Project Module 2/Credit.sol\":8903:8915  revokeVoters */\n      0x13\n        /* \"Project Module 2/Credit.sol\":8903:8927  revokeVoters[msg.sender] */\n      0x00\n        /* \"Project Module 2/Credit.sol\":8916:8926  msg.sender */\n      caller\n        /* \"Project Module 2/Credit.sol\":8903:8927  revokeVoters[msg.sender] */\n      0xffffffffffffffffffffffffffffffffffffffff\n      and\n      0xffffffffffffffffffffffffffffffffffffffff\n      and\n      dup2\n      mstore\n      0x20\n      add\n      swap1\n      dup2\n      mstore\n      0x20\n      add\n      0x00\n      keccak256\n      0x00\n      swap1\n      sload\n      swap1\n      0x0100\n      exp\n      swap1\n      pop\n      pop\n        /* \"Project Module 2/Credit.sol\":8903:8935  revokeVoters[msg.sender] == true */\n      pop\n        /* \"Project Module 2/Credit.sol\":8987:9002  block.timestamp */\n      timestamp\n        /* \"Project Module 2/Credit.sol\":8975:8985  msg.sender */\n      caller\n        /* \"Project Module 2/Credit.sol\":8950:9003  LogLenderVoteForRevoking(msg.sender, block.timestamp) */\n      0xffffffffffffffffffffffffffffffffffffffff\n      and\n      0xd7173ce7e4ce6f6d075259ac1a467ab8290db175a2cee8587a663c006b97e129\n      mload(0x40)\n      mload(0x40)\n      dup1\n      swap2\n      sub\n      swap1\n      log3\n        /* \"Project Module 2/Credit.sol\":9033:9044  revokeVotes */\n      sload(0x0e)\n        /* \"Project Module 2/Credit.sol\":9017:9029  lendersCount */\n      sload(0x0d)\n        /* \"Project Module 2/Credit.sol\":9017:9044  lendersCount == revokeVotes */\n      sub\n        /* \"Project Module 2/Credit.sol\":9013:9080  if (lendersCount == revokeVotes) {... */\n      tag_148\n      jumpi\n        /* \"Project Module 2/Credit.sol\":9060:9069  revokee() */\n      tag_149\n        /* \"Project Module 2/Credit.sol\":9060:9067  revokee */\n      tag_150\n        /* \"Project Module 2/Credit.sol\":9060:9069  revokee() */\n      jump\t// in\n    tag_149:\n        /* \"Project Module 2/Credit.sol\":9013:9080  if (lendersCount == revokeVotes) {... */\n    tag_148:\n        /* \"Project Module 2/Credit.sol\":8757:9086  function revokeVote() public isActive isRevokable onlyLender {... */\n      jump\t// out\n        /* \"Project Module 2/Credit.sol\":9224:9828  function refund() public isActive onlyLender isRevoked {... */\n    tag_48:\n        /* \"Project Module 2/Credit.sol\":2652:2656  true */\n      0x01\n        /* \"Project Module 2/Credit.sol\":2642:2656  active == true */\n      iszero\n      iszero\n        /* \"Project Module 2/Credit.sol\":2642:2648  active */\n      0x0c\n      0x00\n      swap1\n      sload\n      swap1\n      0x0100\n      exp\n      swap1\n      div\n      0xff\n      and\n        /* \"Project Module 2/Credit.sol\":2642:2656  active == true */\n      iszero\n      iszero\n      eq\n        /* \"Project Module 2/Credit.sol\":2634:2657  require(active == true) */\n      tag_152\n      jumpi\n      0x00\n      dup1\n      revert\n    tag_152:\n        /* \"Project Module 2/Credit.sol\":2831:2835  true */\n      0x01\n        /* \"Project Module 2/Credit.sol\":2808:2835  lenders[msg.sender] == true */\n      iszero\n      iszero\n        /* \"Project Module 2/Credit.sol\":2808:2815  lenders */\n      0x11\n        /* \"Project Module 2/Credit.sol\":2808:2827  lenders[msg.sender] */\n      0x00\n        /* \"Project Module 2/Credit.sol\":2816:2826  msg.sender */\n      caller\n        /* \"Project Module 2/Credit.sol\":2808:2827  lenders[msg.sender] */\n      0xffffffffffffffffffffffffffffffffffffffff\n      and\n      0xffffffffffffffffffffffffffffffffffffffff\n      and\n      dup2\n      mstore\n      0x20\n      add\n      swap1\n      dup2\n      mstore\n      0x20\n      add\n      0x00\n      keccak256\n      0x00\n      swap1\n      sload\n      swap1\n      0x0100\n      exp\n      swap1\n      div\n      0xff\n      and\n        /* \"Project Module 2/Credit.sol\":2808:2835  lenders[msg.sender] == true */\n      iszero\n      iszero\n      eq\n        /* \"Project Module 2/Credit.sol\":2800:2836  require(lenders[msg.sender] == true) */\n      tag_154\n      jumpi\n      0x00\n      dup1\n      revert\n    tag_154:\n        /* \"Project Module 2/Credit.sol\":3561:3574  State.revoked */\n      0x04\n        /* \"Project Module 2/Credit.sol\":3552:3574  state == State.revoked */\n      0x05\n      dup2\n      gt\n      iszero\n      tag_156\n      jumpi\n      tag_157\n      tag_78\n      jump\t// in\n    tag_157:\n    tag_156:\n        /* \"Project Module 2/Credit.sol\":3552:3557  state */\n      0x15\n      0x00\n      swap1\n      sload\n      swap1\n      0x0100\n      exp\n      swap1\n      div\n      0xff\n      and\n        /* \"Project Module 2/Credit.sol\":3552:3574  state == State.revoked */\n      0x05\n      dup2\n      gt\n      iszero\n      tag_158\n      jumpi\n      tag_159\n      tag_78\n      jump\t// in\n    tag_159:\n    tag_158:\n      eq\n        /* \"Project Module 2/Credit.sol\":3544:3575  require(state == State.revoked) */\n      tag_160\n      jumpi\n      0x00\n      dup1\n      revert\n    tag_160:\n        /* \"Project Module 2/Credit.sol\":9321:9342  lendersInvestedAmount */\n      0x12\n        /* \"Project Module 2/Credit.sol\":9321:9354  lendersInvestedAmount[msg.sender] */\n      0x00\n        /* \"Project Module 2/Credit.sol\":9343:9353  msg.sender */\n      caller\n        /* \"Project Module 2/Credit.sol\":9321:9354  lendersInvestedAmount[msg.sender] */\n      0xffffffffffffffffffffffffffffffffffffffff\n      and\n      0xffffffffffffffffffffffffffffffffffffffff\n      and\n      dup2\n      mstore\n      0x20\n      add\n      swap1\n      dup2\n      mstore\n      0x20\n      add\n      0x00\n      keccak256\n      sload\n        /* \"Project Module 2/Credit.sol\":9296:9317  address(this).balance */\n      selfbalance\n        /* \"Project Module 2/Credit.sol\":9296:9354  address(this).balance >= lendersInvestedAmount[msg.sender] */\n      lt\n      iszero\n        /* \"Project Module 2/Credit.sol\":9289:9355  assert(address(this).balance >= lendersInvestedAmount[msg.sender]) */\n      tag_162\n      jumpi\n      tag_163\n      tag_112\n      jump\t// in\n    tag_163:\n    tag_162:\n        /* \"Project Module 2/Credit.sol\":9373:9383  msg.sender */\n      caller\n        /* \"Project Module 2/Credit.sol\":9365:9393  payable(msg.sender).transfer */\n      0xffffffffffffffffffffffffffffffffffffffff\n      and\n        /* \"Project Module 2/Credit.sol\":9365:9428  payable(msg.sender).transfer(lendersInvestedAmount[msg.sender]) */\n      0x08fc\n        /* \"Project Module 2/Credit.sol\":9394:9415  lendersInvestedAmount */\n      0x12\n        /* \"Project Module 2/Credit.sol\":9394:9427  lendersInvestedAmount[msg.sender] */\n      0x00\n        /* \"Project Module 2/Credit.sol\":9416:9426  msg.sender */\n      caller\n        /* \"Project Module 2/Credit.sol\":9394:9427  lendersInvestedAmount[msg.sender] */\n      0xffffffffffffffffffffffffffffffffffffffff\n      and\n      0xffffffffffffffffffffffffffffffffffffffff\n      and\n      dup2\n      mstore\n      0x20\n      add\n      swap1\n      dup2\n      mstore\n      0x20\n      add\n      0x00\n      keccak256\n      sload\n        /* \"Project Module 2/Credit.sol\":9365:9428  payable(msg.sender).transfer(lendersInvestedAmount[msg.sender]) */\n      swap1\n      dup2\n      iszero\n      mul\n      swap1\n      mload(0x40)\n      0x00\n      mload(0x40)\n      dup1\n      dup4\n      sub\n      dup2\n      dup6\n      dup9\n      dup9\n      call\n      swap4\n      pop\n      pop\n      pop\n      pop\n      iszero\n      dup1\n      iszero\n      tag_165\n      jumpi\n      returndatasize\n      0x00\n      dup1\n      returndatacopy\n      revert(0x00, returndatasize)\n    tag_165:\n      pop\n        /* \"Project Module 2/Credit.sol\":9545:9560  block.timestamp */\n      timestamp\n        /* \"Project Module 2/Credit.sol\":9498:9519  lendersInvestedAmount */\n      0x12\n        /* \"Project Module 2/Credit.sol\":9498:9531  lendersInvestedAmount[msg.sender] */\n      0x00\n        /* \"Project Module 2/Credit.sol\":9520:9530  msg.sender */\n      caller\n        /* \"Project Module 2/Credit.sol\":9498:9531  lendersInvestedAmount[msg.sender] */\n      0xffffffffffffffffffffffffffffffffffffffff\n      and\n      0xffffffffffffffffffffffffffffffffffffffff\n      and\n      dup2\n      mstore\n      0x20\n      add\n      swap1\n      dup2\n      mstore\n      0x20\n      add\n      0x00\n      keccak256\n      sload\n        /* \"Project Module 2/Credit.sol\":9474:9484  msg.sender */\n      caller\n        /* \"Project Module 2/Credit.sol\":9443:9570  LogLenderRefunded(... */\n      0xffffffffffffffffffffffffffffffffffffffff\n      and\n      0x71e252e33f19f0223f47f27d00910548d26488b9b55cb5b410b75e273152f8d6\n      mload(0x40)\n      mload(0x40)\n      dup1\n      swap2\n      sub\n      swap1\n      log4\n        /* \"Project Module 2/Credit.sol\":9610:9611  0 */\n      0x00\n        /* \"Project Module 2/Credit.sol\":9585:9606  address(this).balance */\n      selfbalance\n        /* \"Project Module 2/Credit.sol\":9585:9611  address(this).balance == 0 */\n      sub\n        /* \"Project Module 2/Credit.sol\":9581:9822  if (address(this).balance == 0) {... */\n      tag_166\n      jumpi\n        /* \"Project Module 2/Credit.sol\":9636:9641  false */\n      0x00\n        /* \"Project Module 2/Credit.sol\":9627:9633  active */\n      0x0c\n      0x00\n        /* \"Project Module 2/Credit.sol\":9627:9641  active = false */\n      0x0100\n      exp\n      dup2\n      sload\n      dup2\n      0xff\n      mul\n      not\n      and\n      swap1\n      dup4\n      iszero\n      iszero\n      mul\n      or\n      swap1\n      sstore\n      pop\n        /* \"Project Module 2/Credit.sol\":9696:9711  block.timestamp */\n      timestamp\n        /* \"Project Module 2/Credit.sol\":9688:9694  active */\n      0x0c\n      0x00\n      swap1\n      sload\n      swap1\n      0x0100\n      exp\n      swap1\n      div\n      0xff\n      and\n        /* \"Project Module 2/Credit.sol\":9660:9712  LogCreditStateActiveChanged(active, block.timestamp) */\n      iszero\n      iszero\n      0x160914ea27c60aa29a5f3a69d74e6069869de36e38939de1e0a66b921d8623d2\n      mload(0x40)\n      mload(0x40)\n      dup1\n      swap2\n      sub\n      swap1\n      log3\n        /* \"Project Module 2/Credit.sol\":9734:9747  State.expired */\n      0x03\n        /* \"Project Module 2/Credit.sol\":9726:9731  state */\n      0x15\n      0x00\n        /* \"Project Module 2/Credit.sol\":9726:9747  state = State.expired */\n      0x0100\n      exp\n      dup2\n      sload\n      dup2\n      0xff\n      mul\n      not\n      and\n      swap1\n      dup4\n      0x05\n      dup2\n      gt\n      iszero\n      tag_167\n      jumpi\n      tag_168\n      tag_78\n      jump\t// in\n    tag_168:\n    tag_167:\n      mul\n      or\n      swap1\n      sstore\n      pop\n        /* \"Project Module 2/Credit.sol\":9795:9810  block.timestamp */\n      timestamp\n        /* \"Project Module 2/Credit.sol\":9788:9793  state */\n      0x15\n      0x00\n      swap1\n      sload\n      swap1\n      0x0100\n      exp\n      swap1\n      div\n      0xff\n      and\n        /* \"Project Module 2/Credit.sol\":9766:9811  LogCreditStateChanged(state, block.timestamp) */\n      0x05\n      dup2\n      gt\n      iszero\n      tag_169\n      jumpi\n      tag_170\n      tag_78\n      jump\t// in\n    tag_170:\n    tag_169:\n      0xaaae373901e745122c2e0925ad006227969c6cd190b7d5ea2fb7fdbd1d955b35\n      mload(0x40)\n      mload(0x40)\n      dup1\n      swap2\n      sub\n      swap1\n      log3\n        /* \"Project Module 2/Credit.sol\":9581:9822  if (address(this).balance == 0) {... */\n    tag_166:\n        /* \"Project Module 2/Credit.sol\":9224:9828  function refund() public isActive onlyLender isRevoked {... */\n      jump\t// out\n        /* \"Project Module 2/Ownable.sol\":81:101  address public owner */\n    tag_51:\n      0x00\n      dup1\n      sload\n      swap1\n      0x0100\n      exp\n      swap1\n      div\n      0xffffffffffffffffffffffffffffffffffffffff\n      and\n      dup2\n      jump\t// out\n        /* \"Project Module 2/Credit.sol\":9834:10068  function fraudVote() public isActive onlyLender {... */\n    tag_56:\n        /* \"Project Module 2/Credit.sol\":2652:2656  true */\n      0x01\n        /* \"Project Module 2/Credit.sol\":2642:2656  active == true */\n      iszero\n      iszero\n        /* \"Project Module 2/Credit.sol\":2642:2648  active */\n      0x0c\n      0x00\n      swap1\n      sload\n      swap1\n      0x0100\n      exp\n      swap1\n      div\n      0xff\n      and\n        /* \"Project Module 2/Credit.sol\":2642:2656  active == true */\n      iszero\n      iszero\n      eq\n        /* \"Project Module 2/Credit.sol\":2634:2657  require(active == true) */\n      tag_172\n      jumpi\n      0x00\n      dup1\n      revert\n    tag_172:\n        /* \"Project Module 2/Credit.sol\":2831:2835  true */\n      0x01\n        /* \"Project Module 2/Credit.sol\":2808:2835  lenders[msg.sender] == true */\n      iszero\n      iszero\n        /* \"Project Module 2/Credit.sol\":2808:2815  lenders */\n      0x11\n        /* \"Project Module 2/Credit.sol\":2808:2827  lenders[msg.sender] */\n      0x00\n        /* \"Project Module 2/Credit.sol\":2816:2826  msg.sender */\n      caller\n        /* \"Project Module 2/Credit.sol\":2808:2827  lenders[msg.sender] */\n      0xffffffffffffffffffffffffffffffffffffffff\n      and\n      0xffffffffffffffffffffffffffffffffffffffff\n      and\n      dup2\n      mstore\n      0x20\n      add\n      swap1\n      dup2\n      mstore\n      0x20\n      add\n      0x00\n      keccak256\n      0x00\n      swap1\n      sload\n      swap1\n      0x0100\n      exp\n      swap1\n      div\n      0xff\n      and\n        /* \"Project Module 2/Credit.sol\":2808:2835  lenders[msg.sender] == true */\n      iszero\n      iszero\n      eq\n        /* \"Project Module 2/Credit.sol\":2800:2836  require(lenders[msg.sender] == true) */\n      tag_174\n      jumpi\n      0x00\n      dup1\n      revert\n    tag_174:\n        /* \"Project Module 2/Credit.sol\":9927:9932  false */\n      0x00\n        /* \"Project Module 2/Credit.sol\":9900:9932  fraudVoters[msg.sender] == false */\n      iszero\n      iszero\n        /* \"Project Module 2/Credit.sol\":9900:9911  fraudVoters */\n      0x14\n        /* \"Project Module 2/Credit.sol\":9900:9923  fraudVoters[msg.sender] */\n      0x00\n        /* \"Project Module 2/Credit.sol\":9912:9922  msg.sender */\n      caller\n        /* \"Project Module 2/Credit.sol\":9900:9923  fraudVoters[msg.sender] */\n      0xffffffffffffffffffffffffffffffffffffffff\n      and\n      0xffffffffffffffffffffffffffffffffffffffff\n      and\n      dup2\n      mstore\n      0x20\n      add\n      swap1\n      dup2\n      mstore\n      0x20\n      add\n      0x00\n      keccak256\n      0x00\n      swap1\n      sload\n      swap1\n      0x0100\n      exp\n      swap1\n      div\n      0xff\n      and\n        /* \"Project Module 2/Credit.sol\":9900:9932  fraudVoters[msg.sender] == false */\n      iszero\n      iszero\n      eq\n        /* \"Project Module 2/Credit.sol\":9892:9933  require(fraudVoters[msg.sender] == false) */\n      tag_176\n      jumpi\n      0x00\n      dup1\n      revert\n    tag_176:\n        /* \"Project Module 2/Credit.sol\":9943:9953  fraudVotes */\n      0x10\n      0x00\n        /* \"Project Module 2/Credit.sol\":9943:9955  fraudVotes++ */\n      dup2\n      sload\n      dup1\n      swap3\n      swap2\n      swap1\n      tag_177\n      swap1\n      tag_147\n      jump\t// in\n    tag_177:\n      swap2\n      swap1\n      pop\n      sstore\n      pop\n        /* \"Project Module 2/Credit.sol\":9992:9996  true */\n      0x01\n        /* \"Project Module 2/Credit.sol\":9965:9996  fraudVoters[msg.sender] == true */\n      iszero\n      iszero\n        /* \"Project Module 2/Credit.sol\":9965:9976  fraudVoters */\n      0x14\n        /* \"Project Module 2/Credit.sol\":9965:9988  fraudVoters[msg.sender] */\n      0x00\n        /* \"Project Module 2/Credit.sol\":9977:9987  msg.sender */\n      caller\n        /* \"Project Module 2/Credit.sol\":9965:9988  fraudVoters[msg.sender] */\n      0xffffffffffffffffffffffffffffffffffffffff\n      and\n      0xffffffffffffffffffffffffffffffffffffffff\n      and\n      dup2\n      mstore\n      0x20\n      add\n      swap1\n      dup2\n      mstore\n      0x20\n      add\n      0x00\n      keccak256\n      0x00\n      swap1\n      sload\n      swap1\n      0x0100\n      exp\n      swap1\n      pop\n      pop\n        /* \"Project Module 2/Credit.sol\":9965:9996  fraudVoters[msg.sender] == true */\n      pop\n        /* \"Project Module 2/Credit.sol\":10045:10060  block.timestamp */\n      timestamp\n        /* \"Project Module 2/Credit.sol\":10033:10043  msg.sender */\n      caller\n        /* \"Project Module 2/Credit.sol\":10011:10061  LogLenderVoteForFraud(msg.sender, block.timestamp) */\n      0xffffffffffffffffffffffffffffffffffffffff\n      and\n      0x1db613004119dde2a638b639fba9960c0e6064ee7c2d06f300e41c78920ed6dc\n      mload(0x40)\n      mload(0x40)\n      dup1\n      swap2\n      sub\n      swap1\n      log3\n        /* \"Project Module 2/Credit.sol\":9834:10068  function fraudVote() public isActive onlyLender {... */\n      jump\t// out\n        /* \"Project Module 2/Credit.sol\":4676:5737  function invest() public payable canInvest {... */\n    tag_58:\n        /* \"Project Module 2/Credit.sol\":3064:3080  State.investment */\n      0x00\n        /* \"Project Module 2/Credit.sol\":3055:3080  state == State.investment */\n      0x05\n      dup2\n      gt\n      iszero\n      tag_179\n      jumpi\n      tag_180\n      tag_78\n      jump\t// in\n    tag_180:\n    tag_179:\n        /* \"Project Module 2/Credit.sol\":3055:3060  state */\n      0x15\n      0x00\n      swap1\n      sload\n      swap1\n      0x0100\n      exp\n      swap1\n      div\n      0xff\n      and\n        /* \"Project Module 2/Credit.sol\":3055:3080  state == State.investment */\n      0x05\n      dup2\n      gt\n      iszero\n      tag_181\n      jumpi\n      tag_182\n      tag_78\n      jump\t// in\n    tag_182:\n    tag_181:\n      eq\n        /* \"Project Module 2/Credit.sol\":3047:3081  require(state == State.investment) */\n      tag_183\n      jumpi\n      0x00\n      dup1\n      revert\n    tag_183:\n        /* \"Project Module 2/Credit.sol\":4729:4747  uint256 extraMoney */\n      0x00\n        /* \"Project Module 2/Credit.sol\":4790:4805  requestedAmount */\n      sload(0x02)\n        /* \"Project Module 2/Credit.sol\":4765:4786  address(this).balance */\n      selfbalance\n        /* \"Project Module 2/Credit.sol\":4765:4805  address(this).balance >= requestedAmount */\n      lt\n        /* \"Project Module 2/Credit.sol\":4761:5731  if (address(this).balance >= requestedAmount) {... */\n      tag_185\n      jumpi\n        /* \"Project Module 2/Credit.sol\":4834:4876  address(this).balance.sub(requestedAmount) */\n      tag_186\n        /* \"Project Module 2/Credit.sol\":4860:4875  requestedAmount */\n      sload(0x02)\n        /* \"Project Module 2/Credit.sol\":4834:4855  address(this).balance */\n      selfbalance\n        /* \"Project Module 2/Credit.sol\":4834:4859  address(this).balance.sub */\n      tag_117\n      swap1\n        /* \"Project Module 2/Credit.sol\":4834:4876  address(this).balance.sub(requestedAmount) */\n      swap2\n      swap1\n      0xffffffff\n      and\n      jump\t// in\n    tag_186:\n        /* \"Project Module 2/Credit.sol\":4821:4876  extraMoney = address(this).balance.sub(requestedAmount) */\n      swap1\n      pop\n        /* \"Project Module 2/Credit.sol\":4890:4927  address(this).balance.sub(extraMoney) */\n      tag_187\n        /* \"Project Module 2/Credit.sol\":4916:4926  extraMoney */\n      dup2\n        /* \"Project Module 2/Credit.sol\":4890:4911  address(this).balance */\n      selfbalance\n        /* \"Project Module 2/Credit.sol\":4890:4915  address(this).balance.sub */\n      tag_117\n      swap1\n        /* \"Project Module 2/Credit.sol\":4890:4927  address(this).balance.sub(extraMoney) */\n      swap2\n      swap1\n      0xffffffff\n      and\n      jump\t// in\n    tag_187:\n      pop\n        /* \"Project Module 2/Credit.sol\":4962:4971  msg.value */\n      callvalue\n        /* \"Project Module 2/Credit.sol\":4948:4958  extraMoney */\n      dup2\n        /* \"Project Module 2/Credit.sol\":4948:4971  extraMoney <= msg.value */\n      gt\n      iszero\n        /* \"Project Module 2/Credit.sol\":4941:4972  assert(extraMoney <= msg.value) */\n      tag_188\n      jumpi\n      tag_189\n      tag_112\n      jump\t// in\n    tag_189:\n    tag_188:\n        /* \"Project Module 2/Credit.sol\":5003:5004  0 */\n      0x00\n        /* \"Project Module 2/Credit.sol\":4990:5000  extraMoney */\n      dup2\n        /* \"Project Module 2/Credit.sol\":4990:5004  extraMoney > 0 */\n      gt\n        /* \"Project Module 2/Credit.sol\":4986:5353  if (extraMoney > 0) {... */\n      iszero\n      tag_190\n      jumpi\n        /* \"Project Module 2/Credit.sol\":5032:5042  msg.sender */\n      caller\n        /* \"Project Module 2/Credit.sol\":5024:5052  payable(msg.sender).transfer */\n      0xffffffffffffffffffffffffffffffffffffffff\n      and\n        /* \"Project Module 2/Credit.sol\":5024:5064  payable(msg.sender).transfer(extraMoney) */\n      0x08fc\n        /* \"Project Module 2/Credit.sol\":5053:5063  extraMoney */\n      dup3\n        /* \"Project Module 2/Credit.sol\":5024:5064  payable(msg.sender).transfer(extraMoney) */\n      swap1\n      dup2\n      iszero\n      mul\n      swap1\n      mload(0x40)\n      0x00\n      mload(0x40)\n      dup1\n      dup4\n      sub\n      dup2\n      dup6\n      dup9\n      dup9\n      call\n      swap4\n      pop\n      pop\n      pop\n      pop\n      iszero\n      dup1\n      iszero\n      tag_192\n      jumpi\n      returndatasize\n      0x00\n      dup1\n      returndatacopy\n      revert(0x00, returndatasize)\n    tag_192:\n      pop\n        /* \"Project Module 2/Credit.sol\":5196:5211  block.timestamp */\n      timestamp\n        /* \"Project Module 2/Credit.sol\":5164:5174  extraMoney */\n      dup2\n        /* \"Project Module 2/Credit.sol\":5132:5142  msg.sender */\n      caller\n        /* \"Project Module 2/Credit.sol\":5087:5229  LogLenderChangeReturned(... */\n      0xffffffffffffffffffffffffffffffffffffffff\n      and\n      0x566803f6e271b911c84f87631bcd310d6a6510bf8882577a96fc76975703e431\n      mload(0x40)\n      mload(0x40)\n      dup1\n      swap2\n      sub\n      swap1\n      log4\n        /* \"Project Module 2/Credit.sol\":5255:5270  State.repayment */\n      0x01\n        /* \"Project Module 2/Credit.sol\":5247:5252  state */\n      0x15\n      0x00\n        /* \"Project Module 2/Credit.sol\":5247:5270  state = State.repayment */\n      0x0100\n      exp\n      dup2\n      sload\n      dup2\n      0xff\n      mul\n      not\n      and\n      swap1\n      dup4\n      0x05\n      dup2\n      gt\n      iszero\n      tag_193\n      jumpi\n      tag_194\n      tag_78\n      jump\t// in\n    tag_194:\n    tag_193:\n      mul\n      or\n      swap1\n      sstore\n      pop\n        /* \"Project Module 2/Credit.sol\":5322:5337  block.timestamp */\n      timestamp\n        /* \"Project Module 2/Credit.sol\":5315:5320  state */\n      0x15\n      0x00\n      swap1\n      sload\n      swap1\n      0x0100\n      exp\n      swap1\n      div\n      0xff\n      and\n        /* \"Project Module 2/Credit.sol\":5293:5338  LogCreditStateChanged(state, block.timestamp) */\n      0x05\n      dup2\n      gt\n      iszero\n      tag_195\n      jumpi\n      tag_196\n      tag_78\n      jump\t// in\n    tag_196:\n    tag_195:\n      0xaaae373901e745122c2e0925ad006227969c6cd190b7d5ea2fb7fdbd1d955b35\n      mload(0x40)\n      mload(0x40)\n      dup1\n      swap2\n      sub\n      swap1\n      log3\n        /* \"Project Module 2/Credit.sol\":4986:5353  if (extraMoney > 0) {... */\n    tag_190:\n        /* \"Project Module 2/Credit.sol\":5388:5392  true */\n      0x01\n        /* \"Project Module 2/Credit.sol\":5366:5373  lenders */\n      0x11\n        /* \"Project Module 2/Credit.sol\":5366:5385  lenders[msg.sender] */\n      0x00\n        /* \"Project Module 2/Credit.sol\":5374:5384  msg.sender */\n      caller\n        /* \"Project Module 2/Credit.sol\":5366:5385  lenders[msg.sender] */\n      0xffffffffffffffffffffffffffffffffffffffff\n      and\n      0xffffffffffffffffffffffffffffffffffffffff\n      and\n      dup2\n      mstore\n      0x20\n      add\n      swap1\n      dup2\n      mstore\n      0x20\n      add\n      0x00\n      keccak256\n      0x00\n        /* \"Project Module 2/Credit.sol\":5366:5392  lenders[msg.sender] = true */\n      0x0100\n      exp\n      dup2\n      sload\n      dup2\n      0xff\n      mul\n      not\n      and\n      swap1\n      dup4\n      iszero\n      iszero\n      mul\n      or\n      swap1\n      sstore\n      pop\n        /* \"Project Module 2/Credit.sol\":5406:5418  lendersCount */\n      0x0d\n      0x00\n        /* \"Project Module 2/Credit.sol\":5406:5420  lendersCount++ */\n      dup2\n      sload\n      dup1\n      swap3\n      swap2\n      swap1\n      tag_197\n      swap1\n      tag_147\n      jump\t// in\n    tag_197:\n      swap2\n      swap1\n      pop\n      sstore\n      pop\n        /* \"Project Module 2/Credit.sol\":5470:5564  lendersInvestedAmount[... */\n      tag_198\n        /* \"Project Module 2/Credit.sol\":5538:5563  msg.value.sub(extraMoney) */\n      tag_199\n        /* \"Project Module 2/Credit.sol\":5552:5562  extraMoney */\n      dup3\n        /* \"Project Module 2/Credit.sol\":5538:5547  msg.value */\n      callvalue\n        /* \"Project Module 2/Credit.sol\":5538:5551  msg.value.sub */\n      tag_117\n      swap1\n        /* \"Project Module 2/Credit.sol\":5538:5563  msg.value.sub(extraMoney) */\n      swap2\n      swap1\n      0xffffffff\n      and\n      jump\t// in\n    tag_199:\n        /* \"Project Module 2/Credit.sol\":5470:5491  lendersInvestedAmount */\n      0x12\n        /* \"Project Module 2/Credit.sol\":5470:5533  lendersInvestedAmount[... */\n      0x00\n        /* \"Project Module 2/Credit.sol\":5509:5519  msg.sender */\n      caller\n        /* \"Project Module 2/Credit.sol\":5470:5533  lendersInvestedAmount[... */\n      0xffffffffffffffffffffffffffffffffffffffff\n      and\n      0xffffffffffffffffffffffffffffffffffffffff\n      and\n      dup2\n      mstore\n      0x20\n      add\n      swap1\n      dup2\n      mstore\n      0x20\n      add\n      0x00\n      keccak256\n      sload\n        /* \"Project Module 2/Credit.sol\":5470:5537  lendersInvestedAmount[... */\n      tag_67\n      swap1\n        /* \"Project Module 2/Credit.sol\":5470:5564  lendersInvestedAmount[... */\n      swap2\n      swap1\n      0xffffffff\n      and\n      jump\t// in\n    tag_198:\n        /* \"Project Module 2/Credit.sol\":5434:5455  lendersInvestedAmount */\n      0x12\n        /* \"Project Module 2/Credit.sol\":5434:5467  lendersInvestedAmount[msg.sender] */\n      0x00\n        /* \"Project Module 2/Credit.sol\":5456:5466  msg.sender */\n      caller\n        /* \"Project Module 2/Credit.sol\":5434:5467  lendersInvestedAmount[msg.sender] */\n      0xffffffffffffffffffffffffffffffffffffffff\n      and\n      0xffffffffffffffffffffffffffffffffffffffff\n      and\n      dup2\n      mstore\n      0x20\n      add\n      swap1\n      dup2\n      mstore\n      0x20\n      add\n      0x00\n      keccak256\n        /* \"Project Module 2/Credit.sol\":5434:5564  lendersInvestedAmount[msg.sender] = lendersInvestedAmount[... */\n      dup2\n      swap1\n      sstore\n      pop\n        /* \"Project Module 2/Credit.sol\":5691:5706  block.timestamp */\n      timestamp\n        /* \"Project Module 2/Credit.sol\":5648:5673  msg.value.sub(extraMoney) */\n      tag_200\n        /* \"Project Module 2/Credit.sol\":5662:5672  extraMoney */\n      dup3\n        /* \"Project Module 2/Credit.sol\":5648:5657  msg.value */\n      callvalue\n        /* \"Project Module 2/Credit.sol\":5648:5661  msg.value.sub */\n      tag_117\n      swap1\n        /* \"Project Module 2/Credit.sol\":5648:5673  msg.value.sub(extraMoney) */\n      swap2\n      swap1\n      0xffffffff\n      and\n      jump\t// in\n    tag_200:\n        /* \"Project Module 2/Credit.sol\":5620:5630  msg.sender */\n      caller\n        /* \"Project Module 2/Credit.sol\":5583:5720  LogLenderInvestment(... */\n      0xffffffffffffffffffffffffffffffffffffffff\n      and\n      0x1b0969ce7f5b05c5e0969329a05cdbd7e2e2f6cee33ba26fd6e6bbcff82312cd\n      mload(0x40)\n      mload(0x40)\n      dup1\n      swap2\n      sub\n      swap1\n      log4\n        /* \"Project Module 2/Credit.sol\":4761:5731  if (address(this).balance >= requestedAmount) {... */\n    tag_185:\n        /* \"Project Module 2/Credit.sol\":4719:5737  {... */\n      pop\n        /* \"Project Module 2/Credit.sol\":4676:5737  function invest() public payable canInvest {... */\n      jump\t// out\n        /* \"Project Module 2/Credit.sol\":7321:8098  function requestInterest() public isActive onlyLender canAskForInterest {... */\n    tag_61:\n        /* \"Project Module 2/Credit.sol\":2652:2656  true */\n      0x01\n        /* \"Project Module 2/Credit.sol\":2642:2656  active == true */\n      iszero\n      iszero\n        /* \"Project Module 2/Credit.sol\":2642:2648  active */\n      0x0c\n      0x00\n      swap1\n      sload\n      swap1\n      0x0100\n      exp\n      swap1\n      div\n      0xff\n      and\n        /* \"Project Module 2/Credit.sol\":2642:2656  active == true */\n      iszero\n      iszero\n      eq\n        /* \"Project Module 2/Credit.sol\":2634:2657  require(active == true) */\n      tag_202\n      jumpi\n      0x00\n      dup1\n      revert\n    tag_202:\n        /* \"Project Module 2/Credit.sol\":2831:2835  true */\n      0x01\n        /* \"Project Module 2/Credit.sol\":2808:2835  lenders[msg.sender] == true */\n      iszero\n      iszero\n        /* \"Project Module 2/Credit.sol\":2808:2815  lenders */\n      0x11\n        /* \"Project Module 2/Credit.sol\":2808:2827  lenders[msg.sender] */\n      0x00\n        /* \"Project Module 2/Credit.sol\":2816:2826  msg.sender */\n      caller\n        /* \"Project Module 2/Credit.sol\":2808:2827  lenders[msg.sender] */\n      0xffffffffffffffffffffffffffffffffffffffff\n      and\n      0xffffffffffffffffffffffffffffffffffffffff\n      and\n      dup2\n      mstore\n      0x20\n      add\n      swap1\n      dup2\n      mstore\n      0x20\n      add\n      0x00\n      keccak256\n      0x00\n      swap1\n      sload\n      swap1\n      0x0100\n      exp\n      swap1\n      div\n      0xff\n      and\n        /* \"Project Module 2/Credit.sol\":2808:2835  lenders[msg.sender] == true */\n      iszero\n      iszero\n      eq\n        /* \"Project Module 2/Credit.sol\":2800:2836  require(lenders[msg.sender] == true) */\n      tag_204\n      jumpi\n      0x00\n      dup1\n      revert\n    tag_204:\n        /* \"Project Module 2/Credit.sol\":2915:2936  State.interestReturns */\n      0x02\n        /* \"Project Module 2/Credit.sol\":2906:2936  state == State.interestReturns */\n      0x05\n      dup2\n      gt\n      iszero\n      tag_206\n      jumpi\n      tag_207\n      tag_78\n      jump\t// in\n    tag_207:\n    tag_206:\n        /* \"Project Module 2/Credit.sol\":2906:2911  state */\n      0x15\n      0x00\n      swap1\n      sload\n      swap1\n      0x0100\n      exp\n      swap1\n      div\n      0xff\n      and\n        /* \"Project Module 2/Credit.sol\":2906:2936  state == State.interestReturns */\n      0x05\n      dup2\n      gt\n      iszero\n      tag_208\n      jumpi\n      tag_209\n      tag_78\n      jump\t// in\n    tag_209:\n    tag_208:\n      eq\n        /* \"Project Module 2/Credit.sol\":2898:2937  require(state == State.interestReturns) */\n      tag_210\n      jumpi\n      0x00\n      dup1\n      revert\n    tag_210:\n        /* \"Project Module 2/Credit.sol\":2991:2992  0 */\n      0x00\n        /* \"Project Module 2/Credit.sol\":2955:2976  lendersInvestedAmount */\n      0x12\n        /* \"Project Module 2/Credit.sol\":2955:2988  lendersInvestedAmount[msg.sender] */\n      0x00\n        /* \"Project Module 2/Credit.sol\":2977:2987  msg.sender */\n      caller\n        /* \"Project Module 2/Credit.sol\":2955:2988  lendersInvestedAmount[msg.sender] */\n      0xffffffffffffffffffffffffffffffffffffffff\n      and\n      0xffffffffffffffffffffffffffffffffffffffff\n      and\n      dup2\n      mstore\n      0x20\n      add\n      swap1\n      dup2\n      mstore\n      0x20\n      add\n      0x00\n      keccak256\n      sload\n        /* \"Project Module 2/Credit.sol\":2955:2992  lendersInvestedAmount[msg.sender] > 0 */\n      gt\n        /* \"Project Module 2/Credit.sol\":2947:2993  require(lendersInvestedAmount[msg.sender] > 0) */\n      tag_211\n      jumpi\n      0x00\n      dup1\n      revert\n    tag_211:\n        /* \"Project Module 2/Credit.sol\":7403:7429  uint256 lenderReturnAmount */\n      0x00\n        /* \"Project Module 2/Credit.sol\":7432:7592  lendersInvestedAmount[msg.sender].mul(... */\n      tag_213\n        /* \"Project Module 2/Credit.sol\":7483:7582  returnAmount.div(lendersCount).div(... */\n      tag_214\n        /* \"Project Module 2/Credit.sol\":7535:7556  lendersInvestedAmount */\n      0x12\n        /* \"Project Module 2/Credit.sol\":7535:7568  lendersInvestedAmount[msg.sender] */\n      0x00\n        /* \"Project Module 2/Credit.sol\":7557:7567  msg.sender */\n      caller\n        /* \"Project Module 2/Credit.sol\":7535:7568  lendersInvestedAmount[msg.sender] */\n      0xffffffffffffffffffffffffffffffffffffffff\n      and\n      0xffffffffffffffffffffffffffffffffffffffff\n      and\n      dup2\n      mstore\n      0x20\n      add\n      swap1\n      dup2\n      mstore\n      0x20\n      add\n      0x00\n      keccak256\n      sload\n        /* \"Project Module 2/Credit.sol\":7483:7513  returnAmount.div(lendersCount) */\n      tag_215\n        /* \"Project Module 2/Credit.sol\":7500:7512  lendersCount */\n      sload(0x0d)\n        /* \"Project Module 2/Credit.sol\":7483:7495  returnAmount */\n      sload(0x03)\n        /* \"Project Module 2/Credit.sol\":7483:7499  returnAmount.div */\n      tag_68\n      swap1\n        /* \"Project Module 2/Credit.sol\":7483:7513  returnAmount.div(lendersCount) */\n      swap2\n      swap1\n      0xffffffff\n      and\n      jump\t// in\n    tag_215:\n        /* \"Project Module 2/Credit.sol\":7483:7517  returnAmount.div(lendersCount).div */\n      tag_68\n      swap1\n        /* \"Project Module 2/Credit.sol\":7483:7582  returnAmount.div(lendersCount).div(... */\n      swap2\n      swap1\n      0xffffffff\n      and\n      jump\t// in\n    tag_214:\n        /* \"Project Module 2/Credit.sol\":7432:7453  lendersInvestedAmount */\n      0x12\n        /* \"Project Module 2/Credit.sol\":7432:7465  lendersInvestedAmount[msg.sender] */\n      0x00\n        /* \"Project Module 2/Credit.sol\":7454:7464  msg.sender */\n      caller\n        /* \"Project Module 2/Credit.sol\":7432:7465  lendersInvestedAmount[msg.sender] */\n      0xffffffffffffffffffffffffffffffffffffffff\n      and\n      0xffffffffffffffffffffffffffffffffffffffff\n      and\n      dup2\n      mstore\n      0x20\n      add\n      swap1\n      dup2\n      mstore\n      0x20\n      add\n      0x00\n      keccak256\n      sload\n        /* \"Project Module 2/Credit.sol\":7432:7469  lendersInvestedAmount[msg.sender].mul */\n      tag_216\n      swap1\n        /* \"Project Module 2/Credit.sol\":7432:7592  lendersInvestedAmount[msg.sender].mul(... */\n      swap2\n      swap1\n      0xffffffff\n      and\n      jump\t// in\n    tag_213:\n        /* \"Project Module 2/Credit.sol\":7403:7592  uint256 lenderReturnAmount = lendersInvestedAmount[msg.sender].mul(... */\n      swap1\n      pop\n        /* \"Project Module 2/Credit.sol\":7634:7652  lenderReturnAmount */\n      dup1\n        /* \"Project Module 2/Credit.sol\":7609:7630  address(this).balance */\n      selfbalance\n        /* \"Project Module 2/Credit.sol\":7609:7652  address(this).balance >= lenderReturnAmount */\n      lt\n      iszero\n        /* \"Project Module 2/Credit.sol\":7602:7653  assert(address(this).balance >= lenderReturnAmount) */\n      tag_217\n      jumpi\n      tag_218\n      tag_112\n      jump\t// in\n    tag_218:\n    tag_217:\n        /* \"Project Module 2/Credit.sol\":7671:7681  msg.sender */\n      caller\n        /* \"Project Module 2/Credit.sol\":7663:7691  payable(msg.sender).transfer */\n      0xffffffffffffffffffffffffffffffffffffffff\n      and\n        /* \"Project Module 2/Credit.sol\":7663:7711  payable(msg.sender).transfer(lenderReturnAmount) */\n      0x08fc\n        /* \"Project Module 2/Credit.sol\":7692:7710  lenderReturnAmount */\n      dup3\n        /* \"Project Module 2/Credit.sol\":7663:7711  payable(msg.sender).transfer(lenderReturnAmount) */\n      swap1\n      dup2\n      iszero\n      mul\n      swap1\n      mload(0x40)\n      0x00\n      mload(0x40)\n      dup1\n      dup4\n      sub\n      dup2\n      dup6\n      dup9\n      dup9\n      call\n      swap4\n      pop\n      pop\n      pop\n      pop\n      iszero\n      dup1\n      iszero\n      tag_220\n      jumpi\n      returndatasize\n      0x00\n      dup1\n      returndatacopy\n      revert(0x00, returndatasize)\n    tag_220:\n      pop\n        /* \"Project Module 2/Credit.sol\":7815:7830  block.timestamp */\n      timestamp\n        /* \"Project Module 2/Credit.sol\":7783:7801  lenderReturnAmount */\n      dup2\n        /* \"Project Module 2/Credit.sol\":7759:7769  msg.sender */\n      caller\n        /* \"Project Module 2/Credit.sol\":7726:7840  LogLenderWithdrawal(... */\n      0xffffffffffffffffffffffffffffffffffffffff\n      and\n      0x052f6685df2f773f854b17db1d82e2352e222010daaf8175761f02ef8782c403\n      mload(0x40)\n      mload(0x40)\n      dup1\n      swap2\n      sub\n      swap1\n      log4\n        /* \"Project Module 2/Credit.sol\":7880:7881  0 */\n      0x00\n        /* \"Project Module 2/Credit.sol\":7855:7876  address(this).balance */\n      selfbalance\n        /* \"Project Module 2/Credit.sol\":7855:7881  address(this).balance == 0 */\n      sub\n        /* \"Project Module 2/Credit.sol\":7851:8092  if (address(this).balance == 0) {... */\n      tag_221\n      jumpi\n        /* \"Project Module 2/Credit.sol\":7906:7911  false */\n      0x00\n        /* \"Project Module 2/Credit.sol\":7897:7903  active */\n      0x0c\n      0x00\n        /* \"Project Module 2/Credit.sol\":7897:7911  active = false */\n      0x0100\n      exp\n      dup2\n      sload\n      dup2\n      0xff\n      mul\n      not\n      and\n      swap1\n      dup4\n      iszero\n      iszero\n      mul\n      or\n      swap1\n      sstore\n      pop\n        /* \"Project Module 2/Credit.sol\":7966:7981  block.timestamp */\n      timestamp\n        /* \"Project Module 2/Credit.sol\":7958:7964  active */\n      0x0c\n      0x00\n      swap1\n      sload\n      swap1\n      0x0100\n      exp\n      swap1\n      div\n      0xff\n      and\n        /* \"Project Module 2/Credit.sol\":7930:7982  LogCreditStateActiveChanged(active, block.timestamp) */\n      iszero\n      iszero\n      0x160914ea27c60aa29a5f3a69d74e6069869de36e38939de1e0a66b921d8623d2\n      mload(0x40)\n      mload(0x40)\n      dup1\n      swap2\n      sub\n      swap1\n      log3\n        /* \"Project Module 2/Credit.sol\":8004:8017  State.expired */\n      0x03\n        /* \"Project Module 2/Credit.sol\":7996:8001  state */\n      0x15\n      0x00\n        /* \"Project Module 2/Credit.sol\":7996:8017  state = State.expired */\n      0x0100\n      exp\n      dup2\n      sload\n      dup2\n      0xff\n      mul\n      not\n      and\n      swap1\n      dup4\n      0x05\n      dup2\n      gt\n      iszero\n      tag_222\n      jumpi\n      tag_223\n      tag_78\n      jump\t// in\n    tag_223:\n    tag_222:\n      mul\n      or\n      swap1\n      sstore\n      pop\n        /* \"Project Module 2/Credit.sol\":8065:8080  block.timestamp */\n      timestamp\n        /* \"Project Module 2/Credit.sol\":8058:8063  state */\n      0x15\n      0x00\n      swap1\n      sload\n      swap1\n      0x0100\n      exp\n      swap1\n      div\n      0xff\n      and\n        /* \"Project Module 2/Credit.sol\":8036:8081  LogCreditStateChanged(state, block.timestamp) */\n      0x05\n      dup2\n      gt\n      iszero\n      tag_224\n      jumpi\n      tag_225\n      tag_78\n      jump\t// in\n    tag_225:\n    tag_224:\n      0xaaae373901e745122c2e0925ad006227969c6cd190b7d5ea2fb7fdbd1d955b35\n      mload(0x40)\n      mload(0x40)\n      dup1\n      swap2\n      sub\n      swap1\n      log3\n        /* \"Project Module 2/Credit.sol\":7851:8092  if (address(this).balance == 0) {... */\n    tag_221:\n        /* \"Project Module 2/Credit.sol\":7393:8098  {... */\n      pop\n        /* \"Project Module 2/Credit.sol\":7321:8098  function requestInterest() public isActive onlyLender canAskForInterest {... */\n      jump\t// out\n        /* \"Project Module 2/Credit.sol\":8104:8751  function getCreditInfo()... */\n    tag_64:\n        /* \"Project Module 2/Credit.sol\":8187:8194  address */\n      0x00\n        /* \"Project Module 2/Credit.sol\":8208:8220  bytes memory */\n      0x60\n        /* \"Project Module 2/Credit.sol\":8234:8241  uint256 */\n      0x00\n        /* \"Project Module 2/Credit.sol\":8255:8262  uint256 */\n      dup1\n        /* \"Project Module 2/Credit.sol\":8276:8283  uint256 */\n      0x00\n        /* \"Project Module 2/Credit.sol\":8297:8304  uint256 */\n      dup1\n        /* \"Project Module 2/Credit.sol\":8318:8325  uint256 */\n      0x00\n        /* \"Project Module 2/Credit.sol\":8339:8346  uint256 */\n      dup1\n        /* \"Project Module 2/Credit.sol\":8360:8365  State */\n      0x00\n        /* \"Project Module 2/Credit.sol\":8379:8383  bool */\n      dup1\n        /* \"Project Module 2/Credit.sol\":8397:8404  uint256 */\n      0x00\n        /* \"Project Module 2/Credit.sol\":8450:8458  borrower */\n      0x01\n      0x00\n      swap1\n      sload\n      swap1\n      0x0100\n      exp\n      swap1\n      div\n      0xffffffffffffffffffffffffffffffffffffffff\n      and\n        /* \"Project Module 2/Credit.sol\":8472:8483  description */\n      0x0b\n        /* \"Project Module 2/Credit.sol\":8497:8512  requestedAmount */\n      sload(0x02)\n        /* \"Project Module 2/Credit.sol\":8526:8545  requestedRepayments */\n      sload(0x06)\n        /* \"Project Module 2/Credit.sol\":8559:8579  repaymentInstallment */\n      sload(0x08)\n        /* \"Project Module 2/Credit.sol\":8593:8612  remainingRepayments */\n      sload(0x07)\n        /* \"Project Module 2/Credit.sol\":8626:8634  interest */\n      sload(0x05)\n        /* \"Project Module 2/Credit.sol\":8648:8660  returnAmount */\n      sload(0x03)\n        /* \"Project Module 2/Credit.sol\":8674:8679  state */\n      0x15\n      0x00\n      swap1\n      sload\n      swap1\n      0x0100\n      exp\n      swap1\n      div\n      0xff\n      and\n        /* \"Project Module 2/Credit.sol\":8693:8699  active */\n      0x0c\n      0x00\n      swap1\n      sload\n      swap1\n      0x0100\n      exp\n      swap1\n      div\n      0xff\n      and\n        /* \"Project Module 2/Credit.sol\":8713:8734  address(this).balance */\n      selfbalance\n        /* \"Project Module 2/Credit.sol\":8429:8744  return (... */\n      dup10\n      dup1\n      sload\n      tag_227\n      swap1\n      tag_228\n      jump\t// in\n    tag_227:\n      dup1\n      0x1f\n      add\n      0x20\n      dup1\n      swap2\n      div\n      mul\n      0x20\n      add\n      mload(0x40)\n      swap1\n      dup2\n      add\n      0x40\n      mstore\n      dup1\n      swap3\n      swap2\n      swap1\n      dup2\n      dup2\n      mstore\n      0x20\n      add\n      dup3\n      dup1\n      sload\n      tag_229\n      swap1\n      tag_228\n      jump\t// in\n    tag_229:\n      dup1\n      iszero\n      tag_230\n      jumpi\n      dup1\n      0x1f\n      lt\n      tag_231\n      jumpi\n      0x0100\n      dup1\n      dup4\n      sload\n      div\n      mul\n      dup4\n      mstore\n      swap2\n      0x20\n      add\n      swap2\n      jump(tag_230)\n    tag_231:\n      dup3\n      add\n      swap2\n      swap1\n      0x00\n      mstore\n      keccak256(0x00, 0x20)\n      swap1\n    tag_232:\n      dup2\n      sload\n      dup2\n      mstore\n      swap1\n      0x01\n      add\n      swap1\n      0x20\n      add\n      dup1\n      dup4\n      gt\n      tag_232\n      jumpi\n      dup3\n      swap1\n      sub\n      0x1f\n      and\n      dup3\n      add\n      swap2\n    tag_230:\n      pop\n      pop\n      pop\n      pop\n      pop\n      swap10\n      pop\n      swap11\n      pop\n      swap11\n      pop\n      swap11\n      pop\n      swap11\n      pop\n      swap11\n      pop\n      swap11\n      pop\n      swap11\n      pop\n      swap11\n      pop\n      swap11\n      pop\n      swap11\n      pop\n      swap11\n      pop\n        /* \"Project Module 2/Credit.sol\":8104:8751  function getCreditInfo()... */\n      swap1\n      swap2\n      swap3\n      swap4\n      swap5\n      swap6\n      swap7\n      swap8\n      swap9\n      swap10\n      swap11\n      jump\t// out\n        /* \"Project Module 2/SafeMath.sol\":539:682  function add(uint256 a, uint256 b) internal pure returns (uint256) {... */\n    tag_67:\n        /* \"Project Module 2/SafeMath.sol\":597:604  uint256 */\n      0x00\n        /* \"Project Module 2/SafeMath.sol\":616:625  uint256 c */\n      dup1\n        /* \"Project Module 2/SafeMath.sol\":632:633  b */\n      dup3\n        /* \"Project Module 2/SafeMath.sol\":628:629  a */\n      dup5\n        /* \"Project Module 2/SafeMath.sol\":628:633  a + b */\n      tag_234\n      swap2\n      swap1\n      tag_235\n      jump\t// in\n    tag_234:\n        /* \"Project Module 2/SafeMath.sol\":616:633  uint256 c = a + b */\n      swap1\n      pop\n        /* \"Project Module 2/SafeMath.sol\":655:656  a */\n      dup4\n        /* \"Project Module 2/SafeMath.sol\":650:651  c */\n      dup2\n        /* \"Project Module 2/SafeMath.sol\":650:656  c >= a */\n      lt\n      iszero\n        /* \"Project Module 2/SafeMath.sol\":643:657  assert(c >= a) */\n      tag_236\n      jumpi\n      tag_237\n      tag_112\n      jump\t// in\n    tag_237:\n    tag_236:\n        /* \"Project Module 2/SafeMath.sol\":674:675  c */\n      dup1\n        /* \"Project Module 2/SafeMath.sol\":667:675  return c */\n      swap2\n      pop\n      pop\n        /* \"Project Module 2/SafeMath.sol\":539:682  function add(uint256 a, uint256 b) internal pure returns (uint256) {... */\n      swap3\n      swap2\n      pop\n      pop\n      jump\t// out\n        /* \"Project Module 2/SafeMath.sol\":288:407  function div(uint256 a, uint256 b) internal pure returns (uint256) {... */\n    tag_68:\n        /* \"Project Module 2/SafeMath.sol\":346:353  uint256 */\n      0x00\n        /* \"Project Module 2/SafeMath.sol\":365:374  uint256 c */\n      dup1\n        /* \"Project Module 2/SafeMath.sol\":381:382  b */\n      dup3\n        /* \"Project Module 2/SafeMath.sol\":377:378  a */\n      dup5\n        /* \"Project Module 2/SafeMath.sol\":377:382  a / b */\n      tag_239\n      swap2\n      swap1\n      tag_240\n      jump\t// in\n    tag_239:\n        /* \"Project Module 2/SafeMath.sol\":365:382  uint256 c = a / b */\n      swap1\n      pop\n        /* \"Project Module 2/SafeMath.sol\":399:400  c */\n      dup1\n        /* \"Project Module 2/SafeMath.sol\":392:400  return c */\n      swap2\n      pop\n      pop\n        /* \"Project Module 2/SafeMath.sol\":288:407  function div(uint256 a, uint256 b) internal pure returns (uint256) {... */\n      swap3\n      swap2\n      pop\n      pop\n      jump\t// out\n        /* \"Project Module 2/SafeMath.sol\":413:533  function sub(uint256 a, uint256 b) internal pure returns (uint256) {... */\n    tag_117:\n        /* \"Project Module 2/SafeMath.sol\":471:478  uint256 */\n      0x00\n        /* \"Project Module 2/SafeMath.sol\":502:503  a */\n      dup3\n        /* \"Project Module 2/SafeMath.sol\":497:498  b */\n      dup3\n        /* \"Project Module 2/SafeMath.sol\":497:503  b <= a */\n      gt\n      iszero\n        /* \"Project Module 2/SafeMath.sol\":490:504  assert(b <= a) */\n      tag_242\n      jumpi\n      tag_243\n      tag_112\n      jump\t// in\n    tag_243:\n    tag_242:\n        /* \"Project Module 2/SafeMath.sol\":525:526  b */\n      dup2\n        /* \"Project Module 2/SafeMath.sol\":521:522  a */\n      dup4\n        /* \"Project Module 2/SafeMath.sol\":521:526  a - b */\n      tag_244\n      swap2\n      swap1\n      tag_245\n      jump\t// in\n    tag_244:\n        /* \"Project Module 2/SafeMath.sol\":514:526  return a - b */\n      swap1\n      pop\n        /* \"Project Module 2/SafeMath.sol\":413:533  function sub(uint256 a, uint256 b) internal pure returns (uint256) {... */\n      swap3\n      swap2\n      pop\n      pop\n      jump\t// out\n        /* \"Project Module 2/Credit.sol\":9092:9218  function revokee() internal {... */\n    tag_150:\n        /* \"Project Module 2/Credit.sol\":9138:9151  State.revoked */\n      0x04\n        /* \"Project Module 2/Credit.sol\":9130:9135  state */\n      0x15\n      0x00\n        /* \"Project Module 2/Credit.sol\":9130:9151  state = State.revoked */\n      0x0100\n      exp\n      dup2\n      sload\n      dup2\n      0xff\n      mul\n      not\n      and\n      swap1\n      dup4\n      0x05\n      dup2\n      gt\n      iszero\n      tag_247\n      jumpi\n      tag_248\n      tag_78\n      jump\t// in\n    tag_248:\n    tag_247:\n      mul\n      or\n      swap1\n      sstore\n      pop\n        /* \"Project Module 2/Credit.sol\":9195:9210  block.timestamp */\n      timestamp\n        /* \"Project Module 2/Credit.sol\":9188:9193  state */\n      0x15\n      0x00\n      swap1\n      sload\n      swap1\n      0x0100\n      exp\n      swap1\n      div\n      0xff\n      and\n        /* \"Project Module 2/Credit.sol\":9166:9211  LogCreditStateChanged(state, block.timestamp) */\n      0x05\n      dup2\n      gt\n      iszero\n      tag_249\n      jumpi\n      tag_250\n      tag_78\n      jump\t// in\n    tag_250:\n    tag_249:\n      0xaaae373901e745122c2e0925ad006227969c6cd190b7d5ea2fb7fdbd1d955b35\n      mload(0x40)\n      mload(0x40)\n      dup1\n      swap2\n      sub\n      swap1\n      log3\n        /* \"Project Module 2/Credit.sol\":9092:9218  function revokee() internal {... */\n      jump\t// out\n        /* \"Project Module 2/SafeMath.sol\":81:282  function mul(uint256 a, uint256 b) internal pure returns (uint256) {... */\n    tag_216:\n        /* \"Project Module 2/SafeMath.sol\":139:146  uint256 */\n      0x00\n        /* \"Project Module 2/SafeMath.sol\":167:168  0 */\n      dup1\n        /* \"Project Module 2/SafeMath.sol\":162:163  a */\n      dup4\n        /* \"Project Module 2/SafeMath.sol\":162:168  a == 0 */\n      sub\n        /* \"Project Module 2/SafeMath.sol\":158:203  if (a == 0) {... */\n      tag_252\n      jumpi\n        /* \"Project Module 2/SafeMath.sol\":191:192  0 */\n      0x00\n        /* \"Project Module 2/SafeMath.sol\":184:192  return 0 */\n      swap1\n      pop\n      jump(tag_251)\n        /* \"Project Module 2/SafeMath.sol\":158:203  if (a == 0) {... */\n    tag_252:\n        /* \"Project Module 2/SafeMath.sol\":212:221  uint256 c */\n      0x00\n        /* \"Project Module 2/SafeMath.sol\":228:229  b */\n      dup3\n        /* \"Project Module 2/SafeMath.sol\":224:225  a */\n      dup5\n        /* \"Project Module 2/SafeMath.sol\":224:229  a * b */\n      tag_253\n      swap2\n      swap1\n      tag_254\n      jump\t// in\n    tag_253:\n        /* \"Project Module 2/SafeMath.sol\":212:229  uint256 c = a * b */\n      swap1\n      pop\n        /* \"Project Module 2/SafeMath.sol\":255:256  b */\n      dup3\n        /* \"Project Module 2/SafeMath.sol\":250:251  a */\n      dup5\n        /* \"Project Module 2/SafeMath.sol\":246:247  c */\n      dup3\n        /* \"Project Module 2/SafeMath.sol\":246:251  c / a */\n      tag_255\n      swap2\n      swap1\n      tag_240\n      jump\t// in\n    tag_255:\n        /* \"Project Module 2/SafeMath.sol\":246:256  c / a == b */\n      eq\n        /* \"Project Module 2/SafeMath.sol\":239:257  assert(c / a == b) */\n      tag_256\n      jumpi\n      tag_257\n      tag_112\n      jump\t// in\n    tag_257:\n    tag_256:\n        /* \"Project Module 2/SafeMath.sol\":274:275  c */\n      dup1\n        /* \"Project Module 2/SafeMath.sol\":267:275  return c */\n      swap2\n      pop\n      pop\n        /* \"Project Module 2/SafeMath.sol\":81:282  function mul(uint256 a, uint256 b) internal pure returns (uint256) {... */\n    tag_251:\n      swap3\n      swap2\n      pop\n      pop\n      jump\t// out\n        /* \"#utility.yul\":7:84   */\n    tag_258:\n        /* \"#utility.yul\":44:51   */\n      0x00\n        /* \"#utility.yul\":73:78   */\n      dup2\n        /* \"#utility.yul\":62:78   */\n      swap1\n      pop\n        /* \"#utility.yul\":7:84   */\n      swap2\n      swap1\n      pop\n      jump\t// out\n        /* \"#utility.yul\":90:208   */\n    tag_259:\n        /* \"#utility.yul\":177:201   */\n      tag_287\n        /* \"#utility.yul\":195:200   */\n      dup2\n        /* \"#utility.yul\":177:201   */\n      tag_258\n      jump\t// in\n    tag_287:\n        /* \"#utility.yul\":172:175   */\n      dup3\n        /* \"#utility.yul\":165:202   */\n      mstore\n        /* \"#utility.yul\":90:208   */\n      pop\n      pop\n      jump\t// out\n        /* \"#utility.yul\":214:436   */\n    tag_24:\n        /* \"#utility.yul\":307:311   */\n      0x00\n        /* \"#utility.yul\":345:347   */\n      0x20\n        /* \"#utility.yul\":334:343   */\n      dup3\n        /* \"#utility.yul\":330:348   */\n      add\n        /* \"#utility.yul\":322:348   */\n      swap1\n      pop\n        /* \"#utility.yul\":358:429   */\n      tag_289\n        /* \"#utility.yul\":426:427   */\n      0x00\n        /* \"#utility.yul\":415:424   */\n      dup4\n        /* \"#utility.yul\":411:428   */\n      add\n        /* \"#utility.yul\":402:408   */\n      dup5\n        /* \"#utility.yul\":358:429   */\n      tag_259\n      jump\t// in\n    tag_289:\n        /* \"#utility.yul\":214:436   */\n      swap3\n      swap2\n      pop\n      pop\n      jump\t// out\n        /* \"#utility.yul\":523:640   */\n    tag_261:\n        /* \"#utility.yul\":632:633   */\n      0x00\n        /* \"#utility.yul\":629:630   */\n      dup1\n        /* \"#utility.yul\":622:634   */\n      revert\n        /* \"#utility.yul\":769:876   */\n    tag_263:\n        /* \"#utility.yul\":850:851   */\n      0x06\n        /* \"#utility.yul\":843:848   */\n      dup2\n        /* \"#utility.yul\":840:852   */\n      lt\n        /* \"#utility.yul\":830:870   */\n      tag_294\n      jumpi\n        /* \"#utility.yul\":866:867   */\n      0x00\n        /* \"#utility.yul\":863:864   */\n      dup1\n        /* \"#utility.yul\":856:868   */\n      revert\n        /* \"#utility.yul\":830:870   */\n    tag_294:\n        /* \"#utility.yul\":769:876   */\n      pop\n      jump\t// out\n        /* \"#utility.yul\":882:1037   */\n    tag_264:\n        /* \"#utility.yul\":936:941   */\n      0x00\n        /* \"#utility.yul\":974:980   */\n      dup2\n        /* \"#utility.yul\":961:981   */\n      calldataload\n        /* \"#utility.yul\":952:981   */\n      swap1\n      pop\n        /* \"#utility.yul\":990:1031   */\n      tag_296\n        /* \"#utility.yul\":1025:1030   */\n      dup2\n        /* \"#utility.yul\":990:1031   */\n      tag_263\n      jump\t// in\n    tag_296:\n        /* \"#utility.yul\":882:1037   */\n      swap3\n      swap2\n      pop\n      pop\n      jump\t// out\n        /* \"#utility.yul\":1043:1388   */\n    tag_28:\n        /* \"#utility.yul\":1110:1116   */\n      0x00\n        /* \"#utility.yul\":1159:1161   */\n      0x20\n        /* \"#utility.yul\":1147:1156   */\n      dup3\n        /* \"#utility.yul\":1138:1145   */\n      dup5\n        /* \"#utility.yul\":1134:1157   */\n      sub\n        /* \"#utility.yul\":1130:1162   */\n      slt\n        /* \"#utility.yul\":1127:1246   */\n      iszero\n      tag_298\n      jumpi\n        /* \"#utility.yul\":1165:1244   */\n      tag_299\n      tag_261\n      jump\t// in\n    tag_299:\n        /* \"#utility.yul\":1127:1246   */\n    tag_298:\n        /* \"#utility.yul\":1285:1286   */\n      0x00\n        /* \"#utility.yul\":1310:1371   */\n      tag_300\n        /* \"#utility.yul\":1363:1370   */\n      dup5\n        /* \"#utility.yul\":1354:1360   */\n      dup3\n        /* \"#utility.yul\":1343:1352   */\n      dup6\n        /* \"#utility.yul\":1339:1361   */\n      add\n        /* \"#utility.yul\":1310:1371   */\n      tag_264\n      jump\t// in\n    tag_300:\n        /* \"#utility.yul\":1300:1371   */\n      swap2\n      pop\n        /* \"#utility.yul\":1256:1381   */\n      pop\n        /* \"#utility.yul\":1043:1388   */\n      swap3\n      swap2\n      pop\n      pop\n      jump\t// out\n        /* \"#utility.yul\":1394:1520   */\n    tag_265:\n        /* \"#utility.yul\":1431:1438   */\n      0x00\n        /* \"#utility.yul\":1471:1513   */\n      0xffffffffffffffffffffffffffffffffffffffff\n        /* \"#utility.yul\":1464:1469   */\n      dup3\n        /* \"#utility.yul\":1460:1514   */\n      and\n        /* \"#utility.yul\":1449:1514   */\n      swap1\n      pop\n        /* \"#utility.yul\":1394:1520   */\n      swap2\n      swap1\n      pop\n      jump\t// out\n        /* \"#utility.yul\":1526:1622   */\n    tag_266:\n        /* \"#utility.yul\":1563:1570   */\n      0x00\n        /* \"#utility.yul\":1592:1616   */\n      tag_303\n        /* \"#utility.yul\":1610:1615   */\n      dup3\n        /* \"#utility.yul\":1592:1616   */\n      tag_265\n      jump\t// in\n    tag_303:\n        /* \"#utility.yul\":1581:1616   */\n      swap1\n      pop\n        /* \"#utility.yul\":1526:1622   */\n      swap2\n      swap1\n      pop\n      jump\t// out\n        /* \"#utility.yul\":1628:1750   */\n    tag_267:\n        /* \"#utility.yul\":1701:1725   */\n      tag_305\n        /* \"#utility.yul\":1719:1724   */\n      dup2\n        /* \"#utility.yul\":1701:1725   */\n      tag_266\n      jump\t// in\n    tag_305:\n        /* \"#utility.yul\":1694:1699   */\n      dup2\n        /* \"#utility.yul\":1691:1726   */\n      eq\n        /* \"#utility.yul\":1681:1744   */\n      tag_306\n      jumpi\n        /* \"#utility.yul\":1740:1741   */\n      0x00\n        /* \"#utility.yul\":1737:1738   */\n      dup1\n        /* \"#utility.yul\":1730:1742   */\n      revert\n        /* \"#utility.yul\":1681:1744   */\n    tag_306:\n        /* \"#utility.yul\":1628:1750   */\n      pop\n      jump\t// out\n        /* \"#utility.yul\":1756:1895   */\n    tag_268:\n        /* \"#utility.yul\":1802:1807   */\n      0x00\n        /* \"#utility.yul\":1840:1846   */\n      dup2\n        /* \"#utility.yul\":1827:1847   */\n      calldataload\n        /* \"#utility.yul\":1818:1847   */\n      swap1\n      pop\n        /* \"#utility.yul\":1856:1889   */\n      tag_308\n        /* \"#utility.yul\":1883:1888   */\n      dup2\n        /* \"#utility.yul\":1856:1889   */\n      tag_267\n      jump\t// in\n    tag_308:\n        /* \"#utility.yul\":1756:1895   */\n      swap3\n      swap2\n      pop\n      pop\n      jump\t// out\n        /* \"#utility.yul\":1901:2230   */\n    tag_33:\n        /* \"#utility.yul\":1960:1966   */\n      0x00\n        /* \"#utility.yul\":2009:2011   */\n      0x20\n        /* \"#utility.yul\":1997:2006   */\n      dup3\n        /* \"#utility.yul\":1988:1995   */\n      dup5\n        /* \"#utility.yul\":1984:2007   */\n      sub\n        /* \"#utility.yul\":1980:2012   */\n      slt\n        /* \"#utility.yul\":1977:2096   */\n      iszero\n      tag_310\n      jumpi\n        /* \"#utility.yul\":2015:2094   */\n      tag_311\n      tag_261\n      jump\t// in\n    tag_311:\n        /* \"#utility.yul\":1977:2096   */\n    tag_310:\n        /* \"#utility.yul\":2135:2136   */\n      0x00\n        /* \"#utility.yul\":2160:2213   */\n      tag_312\n        /* \"#utility.yul\":2205:2212   */\n      dup5\n        /* \"#utility.yul\":2196:2202   */\n      dup3\n        /* \"#utility.yul\":2185:2194   */\n      dup6\n        /* \"#utility.yul\":2181:2203   */\n      add\n        /* \"#utility.yul\":2160:2213   */\n      tag_268\n      jump\t// in\n    tag_312:\n        /* \"#utility.yul\":2150:2213   */\n      swap2\n      pop\n        /* \"#utility.yul\":2106:2223   */\n      pop\n        /* \"#utility.yul\":1901:2230   */\n      swap3\n      swap2\n      pop\n      pop\n      jump\t// out\n        /* \"#utility.yul\":2236:2326   */\n    tag_269:\n        /* \"#utility.yul\":2270:2277   */\n      0x00\n        /* \"#utility.yul\":2313:2318   */\n      dup2\n        /* \"#utility.yul\":2306:2319   */\n      iszero\n        /* \"#utility.yul\":2299:2320   */\n      iszero\n        /* \"#utility.yul\":2288:2320   */\n      swap1\n      pop\n        /* \"#utility.yul\":2236:2326   */\n      swap2\n      swap1\n      pop\n      jump\t// out\n        /* \"#utility.yul\":2332:2441   */\n    tag_270:\n        /* \"#utility.yul\":2413:2434   */\n      tag_315\n        /* \"#utility.yul\":2428:2433   */\n      dup2\n        /* \"#utility.yul\":2413:2434   */\n      tag_269\n      jump\t// in\n    tag_315:\n        /* \"#utility.yul\":2408:2411   */\n      dup3\n        /* \"#utility.yul\":2401:2435   */\n      mstore\n        /* \"#utility.yul\":2332:2441   */\n      pop\n      pop\n      jump\t// out\n        /* \"#utility.yul\":2447:2657   */\n    tag_36:\n        /* \"#utility.yul\":2534:2538   */\n      0x00\n        /* \"#utility.yul\":2572:2574   */\n      0x20\n        /* \"#utility.yul\":2561:2570   */\n      dup3\n        /* \"#utility.yul\":2557:2575   */\n      add\n        /* \"#utility.yul\":2549:2575   */\n      swap1\n      pop\n        /* \"#utility.yul\":2585:2650   */\n      tag_317\n        /* \"#utility.yul\":2647:2648   */\n      0x00\n        /* \"#utility.yul\":2636:2645   */\n      dup4\n        /* \"#utility.yul\":2632:2649   */\n      add\n        /* \"#utility.yul\":2623:2629   */\n      dup5\n        /* \"#utility.yul\":2585:2650   */\n      tag_270\n      jump\t// in\n    tag_317:\n        /* \"#utility.yul\":2447:2657   */\n      swap3\n      swap2\n      pop\n      pop\n      jump\t// out\n        /* \"#utility.yul\":2663:2781   */\n    tag_271:\n        /* \"#utility.yul\":2750:2774   */\n      tag_319\n        /* \"#utility.yul\":2768:2773   */\n      dup2\n        /* \"#utility.yul\":2750:2774   */\n      tag_266\n      jump\t// in\n    tag_319:\n        /* \"#utility.yul\":2745:2748   */\n      dup3\n        /* \"#utility.yul\":2738:2775   */\n      mstore\n        /* \"#utility.yul\":2663:2781   */\n      pop\n      pop\n      jump\t// out\n        /* \"#utility.yul\":2787:3009   */\n    tag_53:\n        /* \"#utility.yul\":2880:2884   */\n      0x00\n        /* \"#utility.yul\":2918:2920   */\n      0x20\n        /* \"#utility.yul\":2907:2916   */\n      dup3\n        /* \"#utility.yul\":2903:2921   */\n      add\n        /* \"#utility.yul\":2895:2921   */\n      swap1\n      pop\n        /* \"#utility.yul\":2931:3002   */\n      tag_321\n        /* \"#utility.yul\":2999:3000   */\n      0x00\n        /* \"#utility.yul\":2988:2997   */\n      dup4\n        /* \"#utility.yul\":2984:3001   */\n      add\n        /* \"#utility.yul\":2975:2981   */\n      dup5\n        /* \"#utility.yul\":2931:3002   */\n      tag_271\n      jump\t// in\n    tag_321:\n        /* \"#utility.yul\":2787:3009   */\n      swap3\n      swap2\n      pop\n      pop\n      jump\t// out\n        /* \"#utility.yul\":3015:3113   */\n    tag_272:\n        /* \"#utility.yul\":3066:3072   */\n      0x00\n        /* \"#utility.yul\":3100:3105   */\n      dup2\n        /* \"#utility.yul\":3094:3106   */\n      mload\n        /* \"#utility.yul\":3084:3106   */\n      swap1\n      pop\n        /* \"#utility.yul\":3015:3113   */\n      swap2\n      swap1\n      pop\n      jump\t// out\n        /* \"#utility.yul\":3119:3287   */\n    tag_273:\n        /* \"#utility.yul\":3202:3213   */\n      0x00\n        /* \"#utility.yul\":3236:3242   */\n      dup3\n        /* \"#utility.yul\":3231:3234   */\n      dup3\n        /* \"#utility.yul\":3224:3243   */\n      mstore\n        /* \"#utility.yul\":3276:3280   */\n      0x20\n        /* \"#utility.yul\":3271:3274   */\n      dup3\n        /* \"#utility.yul\":3267:3281   */\n      add\n        /* \"#utility.yul\":3252:3281   */\n      swap1\n      pop\n        /* \"#utility.yul\":3119:3287   */\n      swap3\n      swap2\n      pop\n      pop\n      jump\t// out\n        /* \"#utility.yul\":3293:3539   */\n    tag_274:\n        /* \"#utility.yul\":3374:3375   */\n      0x00\n        /* \"#utility.yul\":3384:3497   */\n    tag_325:\n        /* \"#utility.yul\":3398:3404   */\n      dup4\n        /* \"#utility.yul\":3395:3396   */\n      dup2\n        /* \"#utility.yul\":3392:3405   */\n      lt\n        /* \"#utility.yul\":3384:3497   */\n      iszero\n      tag_327\n      jumpi\n        /* \"#utility.yul\":3483:3484   */\n      dup1\n        /* \"#utility.yul\":3478:3481   */\n      dup3\n        /* \"#utility.yul\":3474:3485   */\n      add\n        /* \"#utility.yul\":3468:3486   */\n      mload\n        /* \"#utility.yul\":3464:3465   */\n      dup2\n        /* \"#utility.yul\":3459:3462   */\n      dup5\n        /* \"#utility.yul\":3455:3466   */\n      add\n        /* \"#utility.yul\":3448:3487   */\n      mstore\n        /* \"#utility.yul\":3420:3422   */\n      0x20\n        /* \"#utility.yul\":3417:3418   */\n      dup2\n        /* \"#utility.yul\":3413:3423   */\n      add\n        /* \"#utility.yul\":3408:3423   */\n      swap1\n      pop\n        /* \"#utility.yul\":3384:3497   */\n      jump(tag_325)\n    tag_327:\n        /* \"#utility.yul\":3531:3532   */\n      0x00\n        /* \"#utility.yul\":3522:3528   */\n      dup5\n        /* \"#utility.yul\":3517:3520   */\n      dup5\n        /* \"#utility.yul\":3513:3529   */\n      add\n        /* \"#utility.yul\":3506:3533   */\n      mstore\n        /* \"#utility.yul\":3355:3539   */\n      pop\n        /* \"#utility.yul\":3293:3539   */\n      pop\n      pop\n      pop\n      jump\t// out\n        /* \"#utility.yul\":3545:3647   */\n    tag_275:\n        /* \"#utility.yul\":3586:3592   */\n      0x00\n        /* \"#utility.yul\":3637:3639   */\n      0x1f\n        /* \"#utility.yul\":3633:3640   */\n      not\n        /* \"#utility.yul\":3628:3630   */\n      0x1f\n        /* \"#utility.yul\":3621:3626   */\n      dup4\n        /* \"#utility.yul\":3617:3631   */\n      add\n        /* \"#utility.yul\":3613:3641   */\n      and\n        /* \"#utility.yul\":3603:3641   */\n      swap1\n      pop\n        /* \"#utility.yul\":3545:3647   */\n      swap2\n      swap1\n      pop\n      jump\t// out\n        /* \"#utility.yul\":3653:4026   */\n    tag_276:\n        /* \"#utility.yul\":3739:3742   */\n      0x00\n        /* \"#utility.yul\":3767:3805   */\n      tag_330\n        /* \"#utility.yul\":3799:3804   */\n      dup3\n        /* \"#utility.yul\":3767:3805   */\n      tag_272\n      jump\t// in\n    tag_330:\n        /* \"#utility.yul\":3821:3891   */\n      tag_331\n        /* \"#utility.yul\":3884:3890   */\n      dup2\n        /* \"#utility.yul\":3879:3882   */\n      dup6\n        /* \"#utility.yul\":3821:3891   */\n      tag_273\n      jump\t// in\n    tag_331:\n        /* \"#utility.yul\":3814:3891   */\n      swap4\n      pop\n        /* \"#utility.yul\":3900:3965   */\n      tag_332\n        /* \"#utility.yul\":3958:3964   */\n      dup2\n        /* \"#utility.yul\":3953:3956   */\n      dup6\n        /* \"#utility.yul\":3946:3950   */\n      0x20\n        /* \"#utility.yul\":3939:3944   */\n      dup7\n        /* \"#utility.yul\":3935:3951   */\n      add\n        /* \"#utility.yul\":3900:3965   */\n      tag_274\n      jump\t// in\n    tag_332:\n        /* \"#utility.yul\":3990:4019   */\n      tag_333\n        /* \"#utility.yul\":4012:4018   */\n      dup2\n        /* \"#utility.yul\":3990:4019   */\n      tag_275\n      jump\t// in\n    tag_333:\n        /* \"#utility.yul\":3985:3988   */\n      dup5\n        /* \"#utility.yul\":3981:4020   */\n      add\n        /* \"#utility.yul\":3974:4020   */\n      swap2\n      pop\n        /* \"#utility.yul\":3743:4026   */\n      pop\n        /* \"#utility.yul\":3653:4026   */\n      swap3\n      swap2\n      pop\n      pop\n      jump\t// out\n        /* \"#utility.yul\":4032:4212   */\n    tag_78:\n        /* \"#utility.yul\":4080:4157   */\n      0x4e487b7100000000000000000000000000000000000000000000000000000000\n        /* \"#utility.yul\":4077:4078   */\n      0x00\n        /* \"#utility.yul\":4070:4158   */\n      mstore\n        /* \"#utility.yul\":4177:4181   */\n      0x21\n        /* \"#utility.yul\":4174:4175   */\n      0x04\n        /* \"#utility.yul\":4167:4182   */\n      mstore\n        /* \"#utility.yul\":4201:4205   */\n      0x24\n        /* \"#utility.yul\":4198:4199   */\n      0x00\n        /* \"#utility.yul\":4191:4206   */\n      revert\n        /* \"#utility.yul\":4218:4331   */\n    tag_277:\n        /* \"#utility.yul\":4299:4300   */\n      0x06\n        /* \"#utility.yul\":4292:4297   */\n      dup2\n        /* \"#utility.yul\":4289:4301   */\n      lt\n        /* \"#utility.yul\":4279:4325   */\n      tag_336\n      jumpi\n        /* \"#utility.yul\":4305:4323   */\n      tag_337\n      tag_78\n      jump\t// in\n    tag_337:\n        /* \"#utility.yul\":4279:4325   */\n    tag_336:\n        /* \"#utility.yul\":4218:4331   */\n      pop\n      jump\t// out\n        /* \"#utility.yul\":4337:4464   */\n    tag_278:\n        /* \"#utility.yul\":4382:4389   */\n      0x00\n        /* \"#utility.yul\":4411:4416   */\n      dup2\n        /* \"#utility.yul\":4400:4416   */\n      swap1\n      pop\n        /* \"#utility.yul\":4417:4458   */\n      tag_339\n        /* \"#utility.yul\":4452:4457   */\n      dup3\n        /* \"#utility.yul\":4417:4458   */\n      tag_277\n      jump\t// in\n    tag_339:\n        /* \"#utility.yul\":4337:4464   */\n      swap2\n      swap1\n      pop\n      jump\t// out\n        /* \"#utility.yul\":4470:4597   */\n    tag_279:\n        /* \"#utility.yul\":4526:4535   */\n      0x00\n        /* \"#utility.yul\":4559:4591   */\n      tag_341\n        /* \"#utility.yul\":4585:4590   */\n      dup3\n        /* \"#utility.yul\":4559:4591   */\n      tag_278\n      jump\t// in\n    tag_341:\n        /* \"#utility.yul\":4546:4591   */\n      swap1\n      pop\n        /* \"#utility.yul\":4470:4597   */\n      swap2\n      swap1\n      pop\n      jump\t// out\n        /* \"#utility.yul\":4603:4746   */\n    tag_280:\n        /* \"#utility.yul\":4696:4739   */\n      tag_343\n        /* \"#utility.yul\":4733:4738   */\n      dup2\n        /* \"#utility.yul\":4696:4739   */\n      tag_279\n      jump\t// in\n    tag_343:\n        /* \"#utility.yul\":4691:4694   */\n      dup3\n        /* \"#utility.yul\":4684:4740   */\n      mstore\n        /* \"#utility.yul\":4603:4746   */\n      pop\n      pop\n      jump\t// out\n        /* \"#utility.yul\":4752:6171   */\n    tag_66:\n        /* \"#utility.yul\":5144:5148   */\n      0x00\n        /* \"#utility.yul\":5182:5185   */\n      0x0160\n        /* \"#utility.yul\":5171:5180   */\n      dup3\n        /* \"#utility.yul\":5167:5186   */\n      add\n        /* \"#utility.yul\":5159:5186   */\n      swap1\n      pop\n        /* \"#utility.yul\":5196:5267   */\n      tag_345\n        /* \"#utility.yul\":5264:5265   */\n      0x00\n        /* \"#utility.yul\":5253:5262   */\n      dup4\n        /* \"#utility.yul\":5249:5266   */\n      add\n        /* \"#utility.yul\":5240:5246   */\n      dup15\n        /* \"#utility.yul\":5196:5267   */\n      tag_271\n      jump\t// in\n    tag_345:\n        /* \"#utility.yul\":5314:5323   */\n      dup2\n        /* \"#utility.yul\":5308:5312   */\n      dup2\n        /* \"#utility.yul\":5304:5324   */\n      sub\n        /* \"#utility.yul\":5299:5301   */\n      0x20\n        /* \"#utility.yul\":5288:5297   */\n      dup4\n        /* \"#utility.yul\":5284:5302   */\n      add\n        /* \"#utility.yul\":5277:5325   */\n      mstore\n        /* \"#utility.yul\":5342:5418   */\n      tag_346\n        /* \"#utility.yul\":5413:5417   */\n      dup2\n        /* \"#utility.yul\":5404:5410   */\n      dup14\n        /* \"#utility.yul\":5342:5418   */\n      tag_276\n      jump\t// in\n    tag_346:\n        /* \"#utility.yul\":5334:5418   */\n      swap1\n      pop\n        /* \"#utility.yul\":5428:5500   */\n      tag_347\n        /* \"#utility.yul\":5496:5498   */\n      0x40\n        /* \"#utility.yul\":5485:5494   */\n      dup4\n        /* \"#utility.yul\":5481:5499   */\n      add\n        /* \"#utility.yul\":5472:5478   */\n      dup13\n        /* \"#utility.yul\":5428:5500   */\n      tag_259\n      jump\t// in\n    tag_347:\n        /* \"#utility.yul\":5510:5582   */\n      tag_348\n        /* \"#utility.yul\":5578:5580   */\n      0x60\n        /* \"#utility.yul\":5567:5576   */\n      dup4\n        /* \"#utility.yul\":5563:5581   */\n      add\n        /* \"#utility.yul\":5554:5560   */\n      dup12\n        /* \"#utility.yul\":5510:5582   */\n      tag_259\n      jump\t// in\n    tag_348:\n        /* \"#utility.yul\":5592:5665   */\n      tag_349\n        /* \"#utility.yul\":5660:5663   */\n      0x80\n        /* \"#utility.yul\":5649:5658   */\n      dup4\n        /* \"#utility.yul\":5645:5664   */\n      add\n        /* \"#utility.yul\":5636:5642   */\n      dup11\n        /* \"#utility.yul\":5592:5665   */\n      tag_259\n      jump\t// in\n    tag_349:\n        /* \"#utility.yul\":5675:5748   */\n      tag_350\n        /* \"#utility.yul\":5743:5746   */\n      0xa0\n        /* \"#utility.yul\":5732:5741   */\n      dup4\n        /* \"#utility.yul\":5728:5747   */\n      add\n        /* \"#utility.yul\":5719:5725   */\n      dup10\n        /* \"#utility.yul\":5675:5748   */\n      tag_259\n      jump\t// in\n    tag_350:\n        /* \"#utility.yul\":5758:5831   */\n      tag_351\n        /* \"#utility.yul\":5826:5829   */\n      0xc0\n        /* \"#utility.yul\":5815:5824   */\n      dup4\n        /* \"#utility.yul\":5811:5830   */\n      add\n        /* \"#utility.yul\":5802:5808   */\n      dup9\n        /* \"#utility.yul\":5758:5831   */\n      tag_259\n      jump\t// in\n    tag_351:\n        /* \"#utility.yul\":5841:5914   */\n      tag_352\n        /* \"#utility.yul\":5909:5912   */\n      0xe0\n        /* \"#utility.yul\":5898:5907   */\n      dup4\n        /* \"#utility.yul\":5894:5913   */\n      add\n        /* \"#utility.yul\":5885:5891   */\n      dup8\n        /* \"#utility.yul\":5841:5914   */\n      tag_259\n      jump\t// in\n    tag_352:\n        /* \"#utility.yul\":5924:6003   */\n      tag_353\n        /* \"#utility.yul\":5998:6001   */\n      0x0100\n        /* \"#utility.yul\":5987:5996   */\n      dup4\n        /* \"#utility.yul\":5983:6002   */\n      add\n        /* \"#utility.yul\":5974:5980   */\n      dup7\n        /* \"#utility.yul\":5924:6003   */\n      tag_280\n      jump\t// in\n    tag_353:\n        /* \"#utility.yul\":6013:6080   */\n      tag_354\n        /* \"#utility.yul\":6075:6078   */\n      0x0120\n        /* \"#utility.yul\":6064:6073   */\n      dup4\n        /* \"#utility.yul\":6060:6079   */\n      add\n        /* \"#utility.yul\":6051:6057   */\n      dup6\n        /* \"#utility.yul\":6013:6080   */\n      tag_270\n      jump\t// in\n    tag_354:\n        /* \"#utility.yul\":6090:6164   */\n      tag_355\n        /* \"#utility.yul\":6159:6162   */\n      0x0140\n        /* \"#utility.yul\":6148:6157   */\n      dup4\n        /* \"#utility.yul\":6144:6163   */\n      add\n        /* \"#utility.yul\":6134:6141   */\n      dup5\n        /* \"#utility.yul\":6090:6164   */\n      tag_259\n      jump\t// in\n    tag_355:\n        /* \"#utility.yul\":4752:6171   */\n      swap13\n      swap12\n      pop\n      pop\n      pop\n      pop\n      pop\n      pop\n      pop\n      pop\n      pop\n      pop\n      pop\n      pop\n      jump\t// out\n        /* \"#utility.yul\":6177:6357   */\n    tag_112:\n        /* \"#utility.yul\":6225:6302   */\n      0x4e487b7100000000000000000000000000000000000000000000000000000000\n        /* \"#utility.yul\":6222:6223   */\n      0x00\n        /* \"#utility.yul\":6215:6303   */\n      mstore\n        /* \"#utility.yul\":6322:6326   */\n      0x01\n        /* \"#utility.yul\":6319:6320   */\n      0x04\n        /* \"#utility.yul\":6312:6327   */\n      mstore\n        /* \"#utility.yul\":6346:6350   */\n      0x24\n        /* \"#utility.yul\":6343:6344   */\n      0x00\n        /* \"#utility.yul\":6336:6351   */\n      revert\n        /* \"#utility.yul\":6363:6543   */\n    tag_281:\n        /* \"#utility.yul\":6411:6488   */\n      0x4e487b7100000000000000000000000000000000000000000000000000000000\n        /* \"#utility.yul\":6408:6409   */\n      0x00\n        /* \"#utility.yul\":6401:6489   */\n      mstore\n        /* \"#utility.yul\":6508:6512   */\n      0x11\n        /* \"#utility.yul\":6505:6506   */\n      0x04\n        /* \"#utility.yul\":6498:6513   */\n      mstore\n        /* \"#utility.yul\":6532:6536   */\n      0x24\n        /* \"#utility.yul\":6529:6530   */\n      0x00\n        /* \"#utility.yul\":6522:6537   */\n      revert\n        /* \"#utility.yul\":6549:6720   */\n    tag_114:\n        /* \"#utility.yul\":6588:6591   */\n      0x00\n        /* \"#utility.yul\":6611:6635   */\n      tag_359\n        /* \"#utility.yul\":6629:6634   */\n      dup3\n        /* \"#utility.yul\":6611:6635   */\n      tag_258\n      jump\t// in\n    tag_359:\n        /* \"#utility.yul\":6602:6635   */\n      swap2\n      pop\n        /* \"#utility.yul\":6657:6661   */\n      0x00\n        /* \"#utility.yul\":6650:6655   */\n      dup3\n        /* \"#utility.yul\":6647:6662   */\n      sub\n        /* \"#utility.yul\":6644:6685   */\n      tag_360\n      jumpi\n        /* \"#utility.yul\":6665:6683   */\n      tag_361\n      tag_281\n      jump\t// in\n    tag_361:\n        /* \"#utility.yul\":6644:6685   */\n    tag_360:\n        /* \"#utility.yul\":6712:6713   */\n      0x01\n        /* \"#utility.yul\":6705:6710   */\n      dup3\n        /* \"#utility.yul\":6701:6714   */\n      sub\n        /* \"#utility.yul\":6694:6714   */\n      swap1\n      pop\n        /* \"#utility.yul\":6549:6720   */\n      swap2\n      swap1\n      pop\n      jump\t// out\n        /* \"#utility.yul\":6726:6959   */\n    tag_147:\n        /* \"#utility.yul\":6765:6768   */\n      0x00\n        /* \"#utility.yul\":6788:6812   */\n      tag_363\n        /* \"#utility.yul\":6806:6811   */\n      dup3\n        /* \"#utility.yul\":6788:6812   */\n      tag_258\n      jump\t// in\n    tag_363:\n        /* \"#utility.yul\":6779:6812   */\n      swap2\n      pop\n        /* \"#utility.yul\":6834:6900   */\n      0xffffffffffffffffffffffffffffffffffffffffffffffffffffffffffffffff\n        /* \"#utility.yul\":6827:6832   */\n      dup3\n        /* \"#utility.yul\":6824:6901   */\n      sub\n        /* \"#utility.yul\":6821:6924   */\n      tag_364\n      jumpi\n        /* \"#utility.yul\":6904:6922   */\n      tag_365\n      tag_281\n      jump\t// in\n    tag_365:\n        /* \"#utility.yul\":6821:6924   */\n    tag_364:\n        /* \"#utility.yul\":6951:6952   */\n      0x01\n        /* \"#utility.yul\":6944:6949   */\n      dup3\n        /* \"#utility.yul\":6940:6953   */\n      add\n        /* \"#utility.yul\":6933:6953   */\n      swap1\n      pop\n        /* \"#utility.yul\":6726:6959   */\n      swap2\n      swap1\n      pop\n      jump\t// out\n        /* \"#utility.yul\":6965:7145   */\n    tag_282:\n        /* \"#utility.yul\":7013:7090   */\n      0x4e487b7100000000000000000000000000000000000000000000000000000000\n        /* \"#utility.yul\":7010:7011   */\n      0x00\n        /* \"#utility.yul\":7003:7091   */\n      mstore\n        /* \"#utility.yul\":7110:7114   */\n      0x22\n        /* \"#utility.yul\":7107:7108   */\n      0x04\n        /* \"#utility.yul\":7100:7115   */\n      mstore\n        /* \"#utility.yul\":7134:7138   */\n      0x24\n        /* \"#utility.yul\":7131:7132   */\n      0x00\n        /* \"#utility.yul\":7124:7139   */\n      revert\n        /* \"#utility.yul\":7151:7471   */\n    tag_228:\n        /* \"#utility.yul\":7195:7201   */\n      0x00\n        /* \"#utility.yul\":7232:7233   */\n      0x02\n        /* \"#utility.yul\":7226:7230   */\n      dup3\n        /* \"#utility.yul\":7222:7234   */\n      div\n        /* \"#utility.yul\":7212:7234   */\n      swap1\n      pop\n        /* \"#utility.yul\":7279:7280   */\n      0x01\n        /* \"#utility.yul\":7273:7277   */\n      dup3\n        /* \"#utility.yul\":7269:7281   */\n      and\n        /* \"#utility.yul\":7300:7318   */\n      dup1\n        /* \"#utility.yul\":7290:7371   */\n      tag_368\n      jumpi\n        /* \"#utility.yul\":7356:7360   */\n      0x7f\n        /* \"#utility.yul\":7348:7354   */\n      dup3\n        /* \"#utility.yul\":7344:7361   */\n      and\n        /* \"#utility.yul\":7334:7361   */\n      swap2\n      pop\n        /* \"#utility.yul\":7290:7371   */\n    tag_368:\n        /* \"#utility.yul\":7418:7420   */\n      0x20\n        /* \"#utility.yul\":7410:7416   */\n      dup3\n        /* \"#utility.yul\":7407:7421   */\n      lt\n        /* \"#utility.yul\":7387:7405   */\n      dup2\n        /* \"#utility.yul\":7384:7422   */\n      sub\n        /* \"#utility.yul\":7381:7465   */\n      tag_369\n      jumpi\n        /* \"#utility.yul\":7437:7455   */\n      tag_370\n      tag_282\n      jump\t// in\n    tag_370:\n        /* \"#utility.yul\":7381:7465   */\n    tag_369:\n        /* \"#utility.yul\":7202:7471   */\n      pop\n        /* \"#utility.yul\":7151:7471   */\n      swap2\n      swap1\n      pop\n      jump\t// out\n        /* \"#utility.yul\":7477:7668   */\n    tag_235:\n        /* \"#utility.yul\":7517:7520   */\n      0x00\n        /* \"#utility.yul\":7536:7556   */\n      tag_372\n        /* \"#utility.yul\":7554:7555   */\n      dup3\n        /* \"#utility.yul\":7536:7556   */\n      tag_258\n      jump\t// in\n    tag_372:\n        /* \"#utility.yul\":7531:7556   */\n      swap2\n      pop\n        /* \"#utility.yul\":7570:7590   */\n      tag_373\n        /* \"#utility.yul\":7588:7589   */\n      dup4\n        /* \"#utility.yul\":7570:7590   */\n      tag_258\n      jump\t// in\n    tag_373:\n        /* \"#utility.yul\":7565:7590   */\n      swap3\n      pop\n        /* \"#utility.yul\":7613:7614   */\n      dup3\n        /* \"#utility.yul\":7610:7611   */\n      dup3\n        /* \"#utility.yul\":7606:7615   */\n      add\n        /* \"#utility.yul\":7599:7615   */\n      swap1\n      pop\n        /* \"#utility.yul\":7634:7637   */\n      dup1\n        /* \"#utility.yul\":7631:7632   */\n      dup3\n        /* \"#utility.yul\":7628:7638   */\n      gt\n        /* \"#utility.yul\":7625:7661   */\n      iszero\n      tag_374\n      jumpi\n        /* \"#utility.yul\":7641:7659   */\n      tag_375\n      tag_281\n      jump\t// in\n    tag_375:\n        /* \"#utility.yul\":7625:7661   */\n    tag_374:\n        /* \"#utility.yul\":7477:7668   */\n      swap3\n      swap2\n      pop\n      pop\n      jump\t// out\n        /* \"#utility.yul\":7674:7854   */\n    tag_283:\n        /* \"#utility.yul\":7722:7799   */\n      0x4e487b7100000000000000000000000000000000000000000000000000000000\n        /* \"#utility.yul\":7719:7720   */\n      0x00\n        /* \"#utility.yul\":7712:7800   */\n      mstore\n        /* \"#utility.yul\":7819:7823   */\n      0x12\n        /* \"#utility.yul\":7816:7817   */\n      0x04\n        /* \"#utility.yul\":7809:7824   */\n      mstore\n        /* \"#utility.yul\":7843:7847   */\n      0x24\n        /* \"#utility.yul\":7840:7841   */\n      0x00\n        /* \"#utility.yul\":7833:7848   */\n      revert\n        /* \"#utility.yul\":7860:8045   */\n    tag_240:\n        /* \"#utility.yul\":7900:7901   */\n      0x00\n        /* \"#utility.yul\":7917:7937   */\n      tag_378\n        /* \"#utility.yul\":7935:7936   */\n      dup3\n        /* \"#utility.yul\":7917:7937   */\n      tag_258\n      jump\t// in\n    tag_378:\n        /* \"#utility.yul\":7912:7937   */\n      swap2\n      pop\n        /* \"#utility.yul\":7951:7971   */\n      tag_379\n        /* \"#utility.yul\":7969:7970   */\n      dup4\n        /* \"#utility.yul\":7951:7971   */\n      tag_258\n      jump\t// in\n    tag_379:\n        /* \"#utility.yul\":7946:7971   */\n      swap3\n      pop\n        /* \"#utility.yul\":7990:7991   */\n      dup3\n        /* \"#utility.yul\":7980:8015   */\n      tag_380\n      jumpi\n        /* \"#utility.yul\":7995:8013   */\n      tag_381\n      tag_283\n      jump\t// in\n    tag_381:\n        /* \"#utility.yul\":7980:8015   */\n    tag_380:\n        /* \"#utility.yul\":8037:8038   */\n      dup3\n        /* \"#utility.yul\":8034:8035   */\n      dup3\n        /* \"#utility.yul\":8030:8039   */\n      div\n        /* \"#utility.yul\":8025:8039   */\n      swap1\n      pop\n        /* \"#utility.yul\":7860:8045   */\n      swap3\n      swap2\n      pop\n      pop\n      jump\t// out\n        /* \"#utility.yul\":8051:8245   */\n    tag_245:\n        /* \"#utility.yul\":8091:8095   */\n      0x00\n        /* \"#utility.yul\":8111:8131   */\n      tag_383\n        /* \"#utility.yul\":8129:8130   */\n      dup3\n        /* \"#utility.yul\":8111:8131   */\n      tag_258\n      jump\t// in\n    tag_383:\n        /* \"#utility.yul\":8106:8131   */\n      swap2\n      pop\n        /* \"#utility.yul\":8145:8165   */\n      tag_384\n        /* \"#utility.yul\":8163:8164   */\n      dup4\n        /* \"#utility.yul\":8145:8165   */\n      tag_258\n      jump\t// in\n    tag_384:\n        /* \"#utility.yul\":8140:8165   */\n      swap3\n      pop\n        /* \"#utility.yul\":8189:8190   */\n      dup3\n        /* \"#utility.yul\":8186:8187   */\n      dup3\n        /* \"#utility.yul\":8182:8191   */\n      sub\n        /* \"#utility.yul\":8174:8191   */\n      swap1\n      pop\n        /* \"#utility.yul\":8213:8214   */\n      dup2\n        /* \"#utility.yul\":8207:8211   */\n      dup2\n        /* \"#utility.yul\":8204:8215   */\n      gt\n        /* \"#utility.yul\":8201:8238   */\n      iszero\n      tag_385\n      jumpi\n        /* \"#utility.yul\":8218:8236   */\n      tag_386\n      tag_281\n      jump\t// in\n    tag_386:\n        /* \"#utility.yul\":8201:8238   */\n    tag_385:\n        /* \"#utility.yul\":8051:8245   */\n      swap3\n      swap2\n      pop\n      pop\n      jump\t// out\n        /* \"#utility.yul\":8251:8661   */\n    tag_254:\n        /* \"#utility.yul\":8291:8298   */\n      0x00\n        /* \"#utility.yul\":8314:8334   */\n      tag_388\n        /* \"#utility.yul\":8332:8333   */\n      dup3\n        /* \"#utility.yul\":8314:8334   */\n      tag_258\n      jump\t// in\n    tag_388:\n        /* \"#utility.yul\":8309:8334   */\n      swap2\n      pop\n        /* \"#utility.yul\":8348:8368   */\n      tag_389\n        /* \"#utility.yul\":8366:8367   */\n      dup4\n        /* \"#utility.yul\":8348:8368   */\n      tag_258\n      jump\t// in\n    tag_389:\n        /* \"#utility.yul\":8343:8368   */\n      swap3\n      pop\n        /* \"#utility.yul\":8403:8404   */\n      dup3\n        /* \"#utility.yul\":8400:8401   */\n      dup3\n        /* \"#utility.yul\":8396:8405   */\n      mul\n        /* \"#utility.yul\":8425:8455   */\n      tag_390\n        /* \"#utility.yul\":8443:8454   */\n      dup2\n        /* \"#utility.yul\":8425:8455   */\n      tag_258\n      jump\t// in\n    tag_390:\n        /* \"#utility.yul\":8414:8455   */\n      swap2\n      pop\n        /* \"#utility.yul\":8604:8605   */\n      dup3\n        /* \"#utility.yul\":8595:8602   */\n      dup3\n        /* \"#utility.yul\":8591:8606   */\n      div\n        /* \"#utility.yul\":8588:8589   */\n      dup5\n        /* \"#utility.yul\":8585:8607   */\n      eq\n        /* \"#utility.yul\":8565:8566   */\n      dup4\n        /* \"#utility.yul\":8558:8567   */\n      iszero\n        /* \"#utility.yul\":8538:8621   */\n      or\n        /* \"#utility.yul\":8515:8654   */\n      tag_391\n      jumpi\n        /* \"#utility.yul\":8634:8652   */\n      tag_392\n      tag_281\n      jump\t// in\n    tag_392:\n        /* \"#utility.yul\":8515:8654   */\n    tag_391:\n        /* \"#utility.yul\":8299:8661   */\n      pop\n        /* \"#utility.yul\":8251:8661   */\n      swap3\n      swap2\n      pop\n      pop\n      jump\t// out\n\n    auxdata: 0xa2646970667358221220da53b0e38fe9325f59c23e205f34f57c234ba9c30b654c400c1b39582f0ee6a464736f6c63430008120033\n}\n",
				"bytecode": {
					"linkReferences": {},
					"object": "60806040526001600c60006101000a81548160ff0219169083151502179055506000600d556000600e5560014262000038919062000268565b600f5560006010553480156200004d57600080fd5b50604051620026cb380380620026cb833981810160405281019062000073919062000467565b336000806101000a81548173ffffffffffffffffffffffffffffffffffffffff021916908373ffffffffffffffffffffffffffffffffffffffff16021790555032600160006101000a81548173ffffffffffffffffffffffffffffffffffffffff021916908373ffffffffffffffffffffffffffffffffffffffff160217905550816005819055508360028190555082600681905550826007819055506200012e600554600254620001e160201b620017351790919060201c565b600381905550620001526006546003546200021260201b620017611790919060201c565b60088190555080600b908162000169919062000739565b504260098190555042600160009054906101000a900473ffffffffffffffffffffffffffffffffffffffff1673ffffffffffffffffffffffffffffffffffffffff167ff9f75c99c0e3522cd19ffc66fd6c94989a3f0821d37d5c5bb176aab904c6335d60405160405180910390a350505050620008b6565b6000808284620001f2919062000268565b90508381101562000208576200020762000820565b5b8091505092915050565b60008082846200022391906200087e565b90508091505092915050565b6000819050919050565b7f4e487b7100000000000000000000000000000000000000000000000000000000600052601160045260246000fd5b600062000275826200022f565b915062000282836200022f565b92508282019050808211156200029d576200029c62000239565b5b92915050565b6000604051905090565b600080fd5b600080fd5b620002c2816200022f565b8114620002ce57600080fd5b50565b600081519050620002e281620002b7565b92915050565b600080fd5b600080fd5b6000601f19601f8301169050919050565b7f4e487b7100000000000000000000000000000000000000000000000000000000600052604160045260246000fd5b6200033d82620002f2565b810181811067ffffffffffffffff821117156200035f576200035e62000303565b5b80604052505050565b600062000374620002a3565b905062000382828262000332565b919050565b600067ffffffffffffffff821115620003a557620003a462000303565b5b620003b082620002f2565b9050602081019050919050565b60005b83811015620003dd578082015181840152602081019050620003c0565b60008484015250505050565b600062000400620003fa8462000387565b62000368565b9050828152602081018484840111156200041f576200041e620002ed565b5b6200042c848285620003bd565b509392505050565b600082601f8301126200044c576200044b620002e8565b5b81516200045e848260208601620003e9565b91505092915050565b60008060008060808587031215620004845762000483620002ad565b5b60006200049487828801620002d1565b9450506020620004a787828801620002d1565b9350506040620004ba87828801620002d1565b925050606085015167ffffffffffffffff811115620004de57620004dd620002b2565b5b620004ec8782880162000434565b91505092959194509250565b600081519050919050565b7f4e487b7100000000000000000000000000000000000000000000000000000000600052602260045260246000fd5b600060028204905060018216806200054b57607f821691505b60208210810362000561576200056062000503565b5b50919050565b60008190508160005260206000209050919050565b60006020601f8301049050919050565b600082821b905092915050565b600060088302620005cb7fffffffffffffffffffffffffffffffffffffffffffffffffffffffffffffffff826200058c565b620005d786836200058c565b95508019841693508086168417925050509392505050565b6000819050919050565b60006200061a620006146200060e846200022f565b620005ef565b6200022f565b9050919050565b6000819050919050565b6200063683620005f9565b6200064e620006458262000621565b84845462000599565b825550505050565b600090565b6200066562000656565b620006728184846200062b565b505050565b5b818110156200069a576200068e6000826200065b565b60018101905062000678565b5050565b601f821115620006e957620006b38162000567565b620006be846200057c565b81016020851015620006ce578190505b620006e6620006dd856200057c565b83018262000677565b50505b505050565b600082821c905092915050565b60006200070e60001984600802620006ee565b1980831691505092915050565b6000620007298383620006fb565b9150826002028217905092915050565b6200074482620004f8565b67ffffffffffffffff81111562000760576200075f62000303565b5b6200076c825462000532565b620007798282856200069e565b600060209050601f831160018114620007b157600084156200079c578287015190505b620007a885826200071b565b86555062000818565b601f198416620007c18662000567565b60005b82811015620007eb57848901518255600182019150602085019450602081019050620007c4565b868310156200080b578489015162000807601f891682620006fb565b8355505b6001600288020188555050505b505050505050565b7f4e487b7100000000000000000000000000000000000000000000000000000000600052600160045260246000fd5b7f4e487b7100000000000000000000000000000000000000000000000000000000600052601260045260246000fd5b60006200088b826200022f565b915062000898836200022f565b925082620008ab57620008aa6200084f565b5b828204905092915050565b611e0580620008c66000396000f3fe6080604052600436106100c25760003560e01c806343c14b221161007f578063d85da7b611610059578063d85da7b6146101fd578063e8b5e51f14610214578063efd475ab1461021e578063f06817cf14610235576100c2565b806343c14b22146101a4578063590e1ae3146101bb5780638da5cb5b146101d2576100c2565b80630fdb1c10146100c757806312065fe0146100de578063268f11531461010957806328fd10d71461013257806329c68dc11461016f578063402d88831461019a575b600080fd5b3480156100d357600080fd5b506100dc61026a565b005b3480156100ea57600080fd5b506100f361045c565b6040516101009190611880565b60405180910390f35b34801561011557600080fd5b50610130600480360381019061012b91906118c5565b610464565b005b34801561013e57600080fd5b5061015960048036038101906101549190611950565b610538565b6040516101669190611998565b60405180910390f35b34801561017b57600080fd5b50610184610558565b6040516101919190611998565b60405180910390f35b6101a2610631565b005b3480156101b057600080fd5b506101b9610943565b005b3480156101c757600080fd5b506101d0610b2e565b005b3480156101de57600080fd5b506101e7610e24565b6040516101f491906119c2565b60405180910390f35b34801561020957600080fd5b50610212610e48565b005b61021c610fd0565b005b34801561022a57600080fd5b506102336112d9565b005b34801561024157600080fd5b5061024a61161c565b6040516102619b9a99989796959493929190611ae4565b60405180910390f35b60011515600c60009054906101000a900460ff1615151461028a57600080fd5b600160009054906101000a900473ffffffffffffffffffffffffffffffffffffffff1673ffffffffffffffffffffffffffffffffffffffff163373ffffffffffffffffffffffffffffffffffffffff16146102e457600080fd5b6002544710156102f357600080fd5b60058081111561030657610305611a6d565b5b601560009054906101000a900460ff16600581111561032857610327611a6d565b5b0361033257600080fd5b6001601560006101000a81548160ff0219169083600581111561035857610357611a6d565b5b021790555042601560009054906101000a900460ff1660058111156103805761037f611a6d565b5b7faaae373901e745122c2e0925ad006227969c6cd190b7d5ea2fb7fdbd1d955b3560405160405180910390a342473373ffffffffffffffffffffffffffffffffffffffff167f20734f14d107b526674905e470e35d0a474f9fb996a7bdb034c839c8894524e660405160405180910390a4600160009054906101000a900473ffffffffffffffffffffffffffffffffffffffff1673ffffffffffffffffffffffffffffffffffffffff166108fc479081150290604051600060405180830381858888f19350505050158015610459573d6000803e3d6000fd5b50565b600047905090565b60008054906101000a900473ffffffffffffffffffffffffffffffffffffffff1673ffffffffffffffffffffffffffffffffffffffff163373ffffffffffffffffffffffffffffffffffffffff16146104bc57600080fd5b80601560006101000a81548160ff021916908360058111156104e1576104e0611a6d565b5b021790555042601560009054906101000a900460ff16600581111561050957610508611a6d565b5b7faaae373901e745122c2e0925ad006227969c6cd190b7d5ea2fb7fdbd1d955b3560405160405180910390a350565b60116020528060005260406000206000915054906101000a900460ff1681565b60008060009054906101000a900473ffffffffffffffffffffffffffffffffffffffff1673ffffffffffffffffffffffffffffffffffffffff163373ffffffffffffffffffffffffffffffffffffffff16146105b357600080fd5b600c60009054906101000a900460ff1615600c60006101000a81548160ff02191690831515021790555042600c60009054906101000a900460ff1615157f160914ea27c60aa29a5f3a69d74e6069869de36e38939de1e0a66b921d8623d260405160405180910390a3600c60009054906101000a900460ff16905090565b600160009054906101000a900473ffffffffffffffffffffffffffffffffffffffff1673ffffffffffffffffffffffffffffffffffffffff163373ffffffffffffffffffffffffffffffffffffffff161461068b57600080fd5b6001600581111561069f5761069e611a6d565b5b601560009054906101000a900460ff1660058111156106c1576106c0611a6d565b5b146106cb57600080fd5b6008543410156106da57600080fd5b600354600454106106ee576106ed611b96565b5b6007600081548092919061070190611bf4565b919050555042600a8190555060006008543411156109405761072e6008543461177c90919063ffffffff16565b9050610743813461177c90919063ffffffff16565b6008541461075457610753611b96565b5b3481111561076557610764611b96565b5b3373ffffffffffffffffffffffffffffffffffffffff166108fc829081150290604051600060405180830381858888f193505050501580156107ab573d6000803e3d6000fd5b5042813373ffffffffffffffffffffffffffffffffffffffff167f5c9874487a2258c6bd6dc39a2cfcf7ea944b50b79d9a7152668779687b2ebd8d60405160405180910390a442610805823461177c90919063ffffffff16565b3373ffffffffffffffffffffffffffffffffffffffff167f350a09487d622378c6efbda255f996387696319f803a2e53eee64f7aa70be85a60405160405180910390a461086f61085e823461177c90919063ffffffff16565b60045461173590919063ffffffff16565b6004819055506003546004540361093f57423373ffffffffffffffffffffffffffffffffffffffff167f25630de45a38a90cbca3a2eb35a8197e51b56d6d912581711e5e3773fe77cabc60405160405180910390a36002601560006101000a81548160ff021916908360058111156108ea576108e9611a6d565b5b021790555042601560009054906101000a900460ff16600581111561091257610911611a6d565b5b7faaae373901e745122c2e0925ad006227969c6cd190b7d5ea2fb7fdbd1d955b3560405160405180910390a35b5b50565b60011515600c60009054906101000a900460ff1615151461096357600080fd5b600f5442101561097257600080fd5b6000600581111561098657610985611a6d565b5b601560009054906101000a900460ff1660058111156109a8576109a7611a6d565b5b146109b257600080fd5b60011515601160003373ffffffffffffffffffffffffffffffffffffffff1673ffffffffffffffffffffffffffffffffffffffff16815260200190815260200160002060009054906101000a900460ff16151514610a0f57600080fd5b60001515601360003373ffffffffffffffffffffffffffffffffffffffff1673ffffffffffffffffffffffffffffffffffffffff16815260200190815260200160002060009054906101000a900460ff16151514610a6c57600080fd5b600e6000815480929190610a7f90611c1d565b919050555060011515601360003373ffffffffffffffffffffffffffffffffffffffff1673ffffffffffffffffffffffffffffffffffffffff16815260200190815260200160002060009054906101000a90505050423373ffffffffffffffffffffffffffffffffffffffff167fd7173ce7e4ce6f6d075259ac1a467ab8290db175a2cee8587a663c006b97e12960405160405180910390a3600e54600d5403610b2c57610b2b6117a3565b5b565b60011515600c60009054906101000a900460ff16151514610b4e57600080fd5b60011515601160003373ffffffffffffffffffffffffffffffffffffffff1673ffffffffffffffffffffffffffffffffffffffff16815260200190815260200160002060009054906101000a900460ff16151514610bab57600080fd5b60046005811115610bbf57610bbe611a6d565b5b601560009054906101000a900460ff166005811115610be157610be0611a6d565b5b14610beb57600080fd5b601260003373ffffffffffffffffffffffffffffffffffffffff1673ffffffffffffffffffffffffffffffffffffffff16815260200190815260200160002054471015610c3b57610c3a611b96565b5b3373ffffffffffffffffffffffffffffffffffffffff166108fc601260003373ffffffffffffffffffffffffffffffffffffffff1673ffffffffffffffffffffffffffffffffffffffff168152602001908152602001600020549081150290604051600060405180830381858888f19350505050158015610cc0573d6000803e3d6000fd5b5042601260003373ffffffffffffffffffffffffffffffffffffffff1673ffffffffffffffffffffffffffffffffffffffff168152602001908152602001600020543373ffffffffffffffffffffffffffffffffffffffff167f71e252e33f19f0223f47f27d00910548d26488b9b55cb5b410b75e273152f8d660405160405180910390a460004703610e22576000600c60006101000a81548160ff02191690831515021790555042600c60009054906101000a900460ff1615157f160914ea27c60aa29a5f3a69d74e6069869de36e38939de1e0a66b921d8623d260405160405180910390a36003601560006101000a81548160ff02191690836005811115610dcd57610dcc611a6d565b5b021790555042601560009054906101000a900460ff166005811115610df557610df4611a6d565b5b7faaae373901e745122c2e0925ad006227969c6cd190b7d5ea2fb7fdbd1d955b3560405160405180910390a35b565b60008054906101000a900473ffffffffffffffffffffffffffffffffffffffff1681565b60011515600c60009054906101000a900460ff16151514610e6857600080fd5b60011515601160003373ffffffffffffffffffffffffffffffffffffffff1673ffffffffffffffffffffffffffffffffffffffff16815260200190815260200160002060009054906101000a900460ff16151514610ec557600080fd5b60001515601460003373ffffffffffffffffffffffffffffffffffffffff1673ffffffffffffffffffffffffffffffffffffffff16815260200190815260200160002060009054906101000a900460ff16151514610f2257600080fd5b60106000815480929190610f3590611c1d565b919050555060011515601460003373ffffffffffffffffffffffffffffffffffffffff1673ffffffffffffffffffffffffffffffffffffffff16815260200190815260200160002060009054906101000a90505050423373ffffffffffffffffffffffffffffffffffffffff167f1db613004119dde2a638b639fba9960c0e6064ee7c2d06f300e41c78920ed6dc60405160405180910390a3565b60006005811115610fe457610fe3611a6d565b5b601560009054906101000a900460ff16600581111561100657611005611a6d565b5b1461101057600080fd5b600060025447106112d6576110306002544761177c90919063ffffffff16565b9050611045814761177c90919063ffffffff16565b503481111561105757611056611b96565b5b6000811115611167573373ffffffffffffffffffffffffffffffffffffffff166108fc829081150290604051600060405180830381858888f193505050501580156110a6573d6000803e3d6000fd5b5042813373ffffffffffffffffffffffffffffffffffffffff167f566803f6e271b911c84f87631bcd310d6a6510bf8882577a96fc76975703e43160405160405180910390a46001601560006101000a81548160ff0219169083600581111561111257611111611a6d565b5b021790555042601560009054906101000a900460ff16600581111561113a57611139611a6d565b5b7faaae373901e745122c2e0925ad006227969c6cd190b7d5ea2fb7fdbd1d955b3560405160405180910390a35b6001601160003373ffffffffffffffffffffffffffffffffffffffff1673ffffffffffffffffffffffffffffffffffffffff16815260200190815260200160002060006101000a81548160ff021916908315150217905550600d60008154809291906111d290611c1d565b919050555061123b6111ed823461177c90919063ffffffff16565b601260003373ffffffffffffffffffffffffffffffffffffffff1673ffffffffffffffffffffffffffffffffffffffff1681526020019081526020016000205461173590919063ffffffff16565b601260003373ffffffffffffffffffffffffffffffffffffffff1673ffffffffffffffffffffffffffffffffffffffff1681526020019081526020016000208190555042611292823461177c90919063ffffffff16565b3373ffffffffffffffffffffffffffffffffffffffff167f1b0969ce7f5b05c5e0969329a05cdbd7e2e2f6cee33ba26fd6e6bbcff82312cd60405160405180910390a45b50565b60011515600c60009054906101000a900460ff161515146112f957600080fd5b60011515601160003373ffffffffffffffffffffffffffffffffffffffff1673ffffffffffffffffffffffffffffffffffffffff16815260200190815260200160002060009054906101000a900460ff1615151461135657600080fd5b6002600581111561136a57611369611a6d565b5b601560009054906101000a900460ff16600581111561138c5761138b611a6d565b5b1461139657600080fd5b6000601260003373ffffffffffffffffffffffffffffffffffffffff1673ffffffffffffffffffffffffffffffffffffffff16815260200190815260200160002054116113e257600080fd5b600061149d61144f601260003373ffffffffffffffffffffffffffffffffffffffff1673ffffffffffffffffffffffffffffffffffffffff16815260200190815260200160002054611441600d5460035461176190919063ffffffff16565b61176190919063ffffffff16565b601260003373ffffffffffffffffffffffffffffffffffffffff1673ffffffffffffffffffffffffffffffffffffffff1681526020019081526020016000205461181f90919063ffffffff16565b9050804710156114b0576114af611b96565b5b3373ffffffffffffffffffffffffffffffffffffffff166108fc829081150290604051600060405180830381858888f193505050501580156114f6573d6000803e3d6000fd5b5042813373ffffffffffffffffffffffffffffffffffffffff167f052f6685df2f773f854b17db1d82e2352e222010daaf8175761f02ef8782c40360405160405180910390a460004703611619576000600c60006101000a81548160ff02191690831515021790555042600c60009054906101000a900460ff1615157f160914ea27c60aa29a5f3a69d74e6069869de36e38939de1e0a66b921d8623d260405160405180910390a36003601560006101000a81548160ff021916908360058111156115c4576115c3611a6d565b5b021790555042601560009054906101000a900460ff1660058111156115ec576115eb611a6d565b5b7faaae373901e745122c2e0925ad006227969c6cd190b7d5ea2fb7fdbd1d955b3560405160405180910390a35b50565b600060606000806000806000806000806000600160009054906101000a900473ffffffffffffffffffffffffffffffffffffffff16600b600254600654600854600754600554600354601560009054906101000a900460ff16600c60009054906101000a900460ff164789805461169290611c94565b80601f01602080910402602001604051908101604052809291908181526020018280546116be90611c94565b801561170b5780601f106116e05761010080835404028352916020019161170b565b820191906000526020600020905b8154815290600101906020018083116116ee57829003601f168201915b505050505099509a509a509a509a509a509a509a509a509a509a509a50909192939495969798999a565b60008082846117449190611cc5565b90508381101561175757611756611b96565b5b8091505092915050565b60008082846117709190611d28565b90508091505092915050565b60008282111561178f5761178e611b96565b5b818361179b9190611d59565b905092915050565b6004601560006101000a81548160ff021916908360058111156117c9576117c8611a6d565b5b021790555042601560009054906101000a900460ff1660058111156117f1576117f0611a6d565b5b7faaae373901e745122c2e0925ad006227969c6cd190b7d5ea2fb7fdbd1d955b3560405160405180910390a3565b60008083036118315760009050611861565b6000828461183f9190611d8d565b905082848261184e9190611d28565b1461185c5761185b611b96565b5b809150505b92915050565b6000819050919050565b61187a81611867565b82525050565b60006020820190506118956000830184611871565b92915050565b600080fd5b600681106118ad57600080fd5b50565b6000813590506118bf816118a0565b92915050565b6000602082840312156118db576118da61189b565b5b60006118e9848285016118b0565b91505092915050565b600073ffffffffffffffffffffffffffffffffffffffff82169050919050565b600061191d826118f2565b9050919050565b61192d81611912565b811461193857600080fd5b50565b60008135905061194a81611924565b92915050565b6000602082840312156119665761196561189b565b5b60006119748482850161193b565b91505092915050565b60008115159050919050565b6119928161197d565b82525050565b60006020820190506119ad6000830184611989565b92915050565b6119bc81611912565b82525050565b60006020820190506119d760008301846119b3565b92915050565b600081519050919050565b600082825260208201905092915050565b60005b83811015611a175780820151818401526020810190506119fc565b60008484015250505050565b6000601f19601f8301169050919050565b6000611a3f826119dd565b611a4981856119e8565b9350611a598185602086016119f9565b611a6281611a23565b840191505092915050565b7f4e487b7100000000000000000000000000000000000000000000000000000000600052602160045260246000fd5b60068110611aad57611aac611a6d565b5b50565b6000819050611abe82611a9c565b919050565b6000611ace82611ab0565b9050919050565b611ade81611ac3565b82525050565b600061016082019050611afa600083018e6119b3565b8181036020830152611b0c818d611a34565b9050611b1b604083018c611871565b611b28606083018b611871565b611b35608083018a611871565b611b4260a0830189611871565b611b4f60c0830188611871565b611b5c60e0830187611871565b611b6a610100830186611ad5565b611b78610120830185611989565b611b86610140830184611871565b9c9b505050505050505050505050565b7f4e487b7100000000000000000000000000000000000000000000000000000000600052600160045260246000fd5b7f4e487b7100000000000000000000000000000000000000000000000000000000600052601160045260246000fd5b6000611bff82611867565b915060008203611c1257611c11611bc5565b5b600182039050919050565b6000611c2882611867565b91507fffffffffffffffffffffffffffffffffffffffffffffffffffffffffffffffff8203611c5a57611c59611bc5565b5b600182019050919050565b7f4e487b7100000000000000000000000000000000000000000000000000000000600052602260045260246000fd5b60006002820490506001821680611cac57607f821691505b602082108103611cbf57611cbe611c65565b5b50919050565b6000611cd082611867565b9150611cdb83611867565b9250828201905080821115611cf357611cf2611bc5565b5b92915050565b7f4e487b7100000000000000000000000000000000000000000000000000000000600052601260045260246000fd5b6000611d3382611867565b9150611d3e83611867565b925082611d4e57611d4d611cf9565b5b828204905092915050565b6000611d6482611867565b9150611d6f83611867565b9250828203905081811115611d8757611d86611bc5565b5b92915050565b6000611d9882611867565b9150611da383611867565b9250828202611db181611867565b91508282048414831517611dc857611dc7611bc5565b5b509291505056fea2646970667358221220da53b0e38fe9325f59c23e205f34f57c234ba9c30b654c400c1b39582f0ee6a464736f6c63430008120033",
					"opcodes": "PUSH1 0x80 PUSH1 0x40 MSTORE PUSH1 0x1 PUSH1 0xC PUSH1 0x0 PUSH2 0x100 EXP DUP2 SLOAD DUP2 PUSH1 0xFF MUL NOT AND SWAP1 DUP4 ISZERO ISZERO MUL OR SWAP1 SSTORE POP PUSH1 0x0 PUSH1 0xD SSTORE PUSH1 0x0 PUSH1 0xE SSTORE PUSH1 0x1 TIMESTAMP PUSH3 0x38 SWAP2 SWAP1 PUSH3 0x268 JUMP JUMPDEST PUSH1 0xF SSTORE PUSH1 0x0 PUSH1 0x10 SSTORE CALLVALUE DUP1 ISZERO PUSH3 0x4D JUMPI PUSH1 0x0 DUP1 REVERT JUMPDEST POP PUSH1 0x40 MLOAD PUSH3 0x26CB CODESIZE SUB DUP1 PUSH3 0x26CB DUP4 CODECOPY DUP2 DUP2 ADD PUSH1 0x40 MSTORE DUP2 ADD SWAP1 PUSH3 0x73 SWAP2 SWAP1 PUSH3 0x467 JUMP JUMPDEST CALLER PUSH1 0x0 DUP1 PUSH2 0x100 EXP DUP2 SLOAD DUP2 PUSH20 0xFFFFFFFFFFFFFFFFFFFFFFFFFFFFFFFFFFFFFFFF MUL NOT AND SWAP1 DUP4 PUSH20 0xFFFFFFFFFFFFFFFFFFFFFFFFFFFFFFFFFFFFFFFF AND MUL OR SWAP1 SSTORE POP ORIGIN PUSH1 0x1 PUSH1 0x0 PUSH2 0x100 EXP DUP2 SLOAD DUP2 PUSH20 0xFFFFFFFFFFFFFFFFFFFFFFFFFFFFFFFFFFFFFFFF MUL NOT AND SWAP1 DUP4 PUSH20 0xFFFFFFFFFFFFFFFFFFFFFFFFFFFFFFFFFFFFFFFF AND MUL OR SWAP1 SSTORE POP DUP2 PUSH1 0x5 DUP2 SWAP1 SSTORE POP DUP4 PUSH1 0x2 DUP2 SWAP1 SSTORE POP DUP3 PUSH1 0x6 DUP2 SWAP1 SSTORE POP DUP3 PUSH1 0x7 DUP2 SWAP1 SSTORE POP PUSH3 0x12E PUSH1 0x5 SLOAD PUSH1 0x2 SLOAD PUSH3 0x1E1 PUSH1 0x20 SHL PUSH3 0x1735 OR SWAP1 SWAP2 SWAP1 PUSH1 0x20 SHR JUMP JUMPDEST PUSH1 0x3 DUP2 SWAP1 SSTORE POP PUSH3 0x152 PUSH1 0x6 SLOAD PUSH1 0x3 SLOAD PUSH3 0x212 PUSH1 0x20 SHL PUSH3 0x1761 OR SWAP1 SWAP2 SWAP1 PUSH1 0x20 SHR JUMP JUMPDEST PUSH1 0x8 DUP2 SWAP1 SSTORE POP DUP1 PUSH1 0xB SWAP1 DUP2 PUSH3 0x169 SWAP2 SWAP1 PUSH3 0x739 JUMP JUMPDEST POP TIMESTAMP PUSH1 0x9 DUP2 SWAP1 SSTORE POP TIMESTAMP PUSH1 0x1 PUSH1 0x0 SWAP1 SLOAD SWAP1 PUSH2 0x100 EXP SWAP1 DIV PUSH20 0xFFFFFFFFFFFFFFFFFFFFFFFFFFFFFFFFFFFFFFFF AND PUSH20 0xFFFFFFFFFFFFFFFFFFFFFFFFFFFFFFFFFFFFFFFF AND PUSH32 0xF9F75C99C0E3522CD19FFC66FD6C94989A3F0821D37D5C5BB176AAB904C6335D PUSH1 0x40 MLOAD PUSH1 0x40 MLOAD DUP1 SWAP2 SUB SWAP1 LOG3 POP POP POP POP PUSH3 0x8B6 JUMP JUMPDEST PUSH1 0x0 DUP1 DUP3 DUP5 PUSH3 0x1F2 SWAP2 SWAP1 PUSH3 0x268 JUMP JUMPDEST SWAP1 POP DUP4 DUP2 LT ISZERO PUSH3 0x208 JUMPI PUSH3 0x207 PUSH3 0x820 JUMP JUMPDEST JUMPDEST DUP1 SWAP2 POP POP SWAP3 SWAP2 POP POP JUMP JUMPDEST PUSH1 0x0 DUP1 DUP3 DUP5 PUSH3 0x223 SWAP2 SWAP1 PUSH3 0x87E JUMP JUMPDEST SWAP1 POP DUP1 SWAP2 POP POP SWAP3 SWAP2 POP POP JUMP JUMPDEST PUSH1 0x0 DUP2 SWAP1 POP SWAP2 SWAP1 POP JUMP JUMPDEST PUSH32 0x4E487B7100000000000000000000000000000000000000000000000000000000 PUSH1 0x0 MSTORE PUSH1 0x11 PUSH1 0x4 MSTORE PUSH1 0x24 PUSH1 0x0 REVERT JUMPDEST PUSH1 0x0 PUSH3 0x275 DUP3 PUSH3 0x22F JUMP JUMPDEST SWAP2 POP PUSH3 0x282 DUP4 PUSH3 0x22F JUMP JUMPDEST SWAP3 POP DUP3 DUP3 ADD SWAP1 POP DUP1 DUP3 GT ISZERO PUSH3 0x29D JUMPI PUSH3 0x29C PUSH3 0x239 JUMP JUMPDEST JUMPDEST SWAP3 SWAP2 POP POP JUMP JUMPDEST PUSH1 0x0 PUSH1 0x40 MLOAD SWAP1 POP SWAP1 JUMP JUMPDEST PUSH1 0x0 DUP1 REVERT JUMPDEST PUSH1 0x0 DUP1 REVERT JUMPDEST PUSH3 0x2C2 DUP2 PUSH3 0x22F JUMP JUMPDEST DUP2 EQ PUSH3 0x2CE JUMPI PUSH1 0x0 DUP1 REVERT JUMPDEST POP JUMP JUMPDEST PUSH1 0x0 DUP2 MLOAD SWAP1 POP PUSH3 0x2E2 DUP2 PUSH3 0x2B7 JUMP JUMPDEST SWAP3 SWAP2 POP POP JUMP JUMPDEST PUSH1 0x0 DUP1 REVERT JUMPDEST PUSH1 0x0 DUP1 REVERT JUMPDEST PUSH1 0x0 PUSH1 0x1F NOT PUSH1 0x1F DUP4 ADD AND SWAP1 POP SWAP2 SWAP1 POP JUMP JUMPDEST PUSH32 0x4E487B7100000000000000000000000000000000000000000000000000000000 PUSH1 0x0 MSTORE PUSH1 0x41 PUSH1 0x4 MSTORE PUSH1 0x24 PUSH1 0x0 REVERT JUMPDEST PUSH3 0x33D DUP3 PUSH3 0x2F2 JUMP JUMPDEST DUP2 ADD DUP2 DUP2 LT PUSH8 0xFFFFFFFFFFFFFFFF DUP3 GT OR ISZERO PUSH3 0x35F JUMPI PUSH3 0x35E PUSH3 0x303 JUMP JUMPDEST JUMPDEST DUP1 PUSH1 0x40 MSTORE POP POP POP JUMP JUMPDEST PUSH1 0x0 PUSH3 0x374 PUSH3 0x2A3 JUMP JUMPDEST SWAP1 POP PUSH3 0x382 DUP3 DUP3 PUSH3 0x332 JUMP JUMPDEST SWAP2 SWAP1 POP JUMP JUMPDEST PUSH1 0x0 PUSH8 0xFFFFFFFFFFFFFFFF DUP3 GT ISZERO PUSH3 0x3A5 JUMPI PUSH3 0x3A4 PUSH3 0x303 JUMP JUMPDEST JUMPDEST PUSH3 0x3B0 DUP3 PUSH3 0x2F2 JUMP JUMPDEST SWAP1 POP PUSH1 0x20 DUP2 ADD SWAP1 POP SWAP2 SWAP1 POP JUMP JUMPDEST PUSH1 0x0 JUMPDEST DUP4 DUP2 LT ISZERO PUSH3 0x3DD JUMPI DUP1 DUP3 ADD MLOAD DUP2 DUP5 ADD MSTORE PUSH1 0x20 DUP2 ADD SWAP1 POP PUSH3 0x3C0 JUMP JUMPDEST PUSH1 0x0 DUP5 DUP5 ADD MSTORE POP POP POP POP JUMP JUMPDEST PUSH1 0x0 PUSH3 0x400 PUSH3 0x3FA DUP5 PUSH3 0x387 JUMP JUMPDEST PUSH3 0x368 JUMP JUMPDEST SWAP1 POP DUP3 DUP2 MSTORE PUSH1 0x20 DUP2 ADD DUP5 DUP5 DUP5 ADD GT ISZERO PUSH3 0x41F JUMPI PUSH3 0x41E PUSH3 0x2ED JUMP JUMPDEST JUMPDEST PUSH3 0x42C DUP5 DUP3 DUP6 PUSH3 0x3BD JUMP JUMPDEST POP SWAP4 SWAP3 POP POP POP JUMP JUMPDEST PUSH1 0x0 DUP3 PUSH1 0x1F DUP4 ADD SLT PUSH3 0x44C JUMPI PUSH3 0x44B PUSH3 0x2E8 JUMP JUMPDEST JUMPDEST DUP2 MLOAD PUSH3 0x45E DUP5 DUP3 PUSH1 0x20 DUP7 ADD PUSH3 0x3E9 JUMP JUMPDEST SWAP2 POP POP SWAP3 SWAP2 POP POP JUMP JUMPDEST PUSH1 0x0 DUP1 PUSH1 0x0 DUP1 PUSH1 0x80 DUP6 DUP8 SUB SLT ISZERO PUSH3 0x484 JUMPI PUSH3 0x483 PUSH3 0x2AD JUMP JUMPDEST JUMPDEST PUSH1 0x0 PUSH3 0x494 DUP8 DUP3 DUP9 ADD PUSH3 0x2D1 JUMP JUMPDEST SWAP5 POP POP PUSH1 0x20 PUSH3 0x4A7 DUP8 DUP3 DUP9 ADD PUSH3 0x2D1 JUMP JUMPDEST SWAP4 POP POP PUSH1 0x40 PUSH3 0x4BA DUP8 DUP3 DUP9 ADD PUSH3 0x2D1 JUMP JUMPDEST SWAP3 POP POP PUSH1 0x60 DUP6 ADD MLOAD PUSH8 0xFFFFFFFFFFFFFFFF DUP2 GT ISZERO PUSH3 0x4DE JUMPI PUSH3 0x4DD PUSH3 0x2B2 JUMP JUMPDEST JUMPDEST PUSH3 0x4EC DUP8 DUP3 DUP9 ADD PUSH3 0x434 JUMP JUMPDEST SWAP2 POP POP SWAP3 SWAP6 SWAP2 SWAP5 POP SWAP3 POP JUMP JUMPDEST PUSH1 0x0 DUP2 MLOAD SWAP1 POP SWAP2 SWAP1 POP JUMP JUMPDEST PUSH32 0x4E487B7100000000000000000000000000000000000000000000000000000000 PUSH1 0x0 MSTORE PUSH1 0x22 PUSH1 0x4 MSTORE PUSH1 0x24 PUSH1 0x0 REVERT JUMPDEST PUSH1 0x0 PUSH1 0x2 DUP3 DIV SWAP1 POP PUSH1 0x1 DUP3 AND DUP1 PUSH3 0x54B JUMPI PUSH1 0x7F DUP3 AND SWAP2 POP JUMPDEST PUSH1 0x20 DUP3 LT DUP2 SUB PUSH3 0x561 JUMPI PUSH3 0x560 PUSH3 0x503 JUMP JUMPDEST JUMPDEST POP SWAP2 SWAP1 POP JUMP JUMPDEST PUSH1 0x0 DUP2 SWAP1 POP DUP2 PUSH1 0x0 MSTORE PUSH1 0x20 PUSH1 0x0 KECCAK256 SWAP1 POP SWAP2 SWAP1 POP JUMP JUMPDEST PUSH1 0x0 PUSH1 0x20 PUSH1 0x1F DUP4 ADD DIV SWAP1 POP SWAP2 SWAP1 POP JUMP JUMPDEST PUSH1 0x0 DUP3 DUP3 SHL SWAP1 POP SWAP3 SWAP2 POP POP JUMP JUMPDEST PUSH1 0x0 PUSH1 0x8 DUP4 MUL PUSH3 0x5CB PUSH32 0xFFFFFFFFFFFFFFFFFFFFFFFFFFFFFFFFFFFFFFFFFFFFFFFFFFFFFFFFFFFFFFFF DUP3 PUSH3 0x58C JUMP JUMPDEST PUSH3 0x5D7 DUP7 DUP4 PUSH3 0x58C JUMP JUMPDEST SWAP6 POP DUP1 NOT DUP5 AND SWAP4 POP DUP1 DUP7 AND DUP5 OR SWAP3 POP POP POP SWAP4 SWAP3 POP POP POP JUMP JUMPDEST PUSH1 0x0 DUP2 SWAP1 POP SWAP2 SWAP1 POP JUMP JUMPDEST PUSH1 0x0 PUSH3 0x61A PUSH3 0x614 PUSH3 0x60E DUP5 PUSH3 0x22F JUMP JUMPDEST PUSH3 0x5EF JUMP JUMPDEST PUSH3 0x22F JUMP JUMPDEST SWAP1 POP SWAP2 SWAP1 POP JUMP JUMPDEST PUSH1 0x0 DUP2 SWAP1 POP SWAP2 SWAP1 POP JUMP JUMPDEST PUSH3 0x636 DUP4 PUSH3 0x5F9 JUMP JUMPDEST PUSH3 0x64E PUSH3 0x645 DUP3 PUSH3 0x621 JUMP JUMPDEST DUP5 DUP5 SLOAD PUSH3 0x599 JUMP JUMPDEST DUP3 SSTORE POP POP POP POP JUMP JUMPDEST PUSH1 0x0 SWAP1 JUMP JUMPDEST PUSH3 0x665 PUSH3 0x656 JUMP JUMPDEST PUSH3 0x672 DUP2 DUP5 DUP5 PUSH3 0x62B JUMP JUMPDEST POP POP POP JUMP JUMPDEST JUMPDEST DUP2 DUP2 LT ISZERO PUSH3 0x69A JUMPI PUSH3 0x68E PUSH1 0x0 DUP3 PUSH3 0x65B JUMP JUMPDEST PUSH1 0x1 DUP2 ADD SWAP1 POP PUSH3 0x678 JUMP JUMPDEST POP POP JUMP JUMPDEST PUSH1 0x1F DUP3 GT ISZERO PUSH3 0x6E9 JUMPI PUSH3 0x6B3 DUP2 PUSH3 0x567 JUMP JUMPDEST PUSH3 0x6BE DUP5 PUSH3 0x57C JUMP JUMPDEST DUP2 ADD PUSH1 0x20 DUP6 LT ISZERO PUSH3 0x6CE JUMPI DUP2 SWAP1 POP JUMPDEST PUSH3 0x6E6 PUSH3 0x6DD DUP6 PUSH3 0x57C JUMP JUMPDEST DUP4 ADD DUP3 PUSH3 0x677 JUMP JUMPDEST POP POP JUMPDEST POP POP POP JUMP JUMPDEST PUSH1 0x0 DUP3 DUP3 SHR SWAP1 POP SWAP3 SWAP2 POP POP JUMP JUMPDEST PUSH1 0x0 PUSH3 0x70E PUSH1 0x0 NOT DUP5 PUSH1 0x8 MUL PUSH3 0x6EE JUMP JUMPDEST NOT DUP1 DUP4 AND SWAP2 POP POP SWAP3 SWAP2 POP POP JUMP JUMPDEST PUSH1 0x0 PUSH3 0x729 DUP4 DUP4 PUSH3 0x6FB JUMP JUMPDEST SWAP2 POP DUP3 PUSH1 0x2 MUL DUP3 OR SWAP1 POP SWAP3 SWAP2 POP POP JUMP JUMPDEST PUSH3 0x744 DUP3 PUSH3 0x4F8 JUMP JUMPDEST PUSH8 0xFFFFFFFFFFFFFFFF DUP2 GT ISZERO PUSH3 0x760 JUMPI PUSH3 0x75F PUSH3 0x303 JUMP JUMPDEST JUMPDEST PUSH3 0x76C DUP3 SLOAD PUSH3 0x532 JUMP JUMPDEST PUSH3 0x779 DUP3 DUP3 DUP6 PUSH3 0x69E JUMP JUMPDEST PUSH1 0x0 PUSH1 0x20 SWAP1 POP PUSH1 0x1F DUP4 GT PUSH1 0x1 DUP2 EQ PUSH3 0x7B1 JUMPI PUSH1 0x0 DUP5 ISZERO PUSH3 0x79C JUMPI DUP3 DUP8 ADD MLOAD SWAP1 POP JUMPDEST PUSH3 0x7A8 DUP6 DUP3 PUSH3 0x71B JUMP JUMPDEST DUP7 SSTORE POP PUSH3 0x818 JUMP JUMPDEST PUSH1 0x1F NOT DUP5 AND PUSH3 0x7C1 DUP7 PUSH3 0x567 JUMP JUMPDEST PUSH1 0x0 JUMPDEST DUP3 DUP2 LT ISZERO PUSH3 0x7EB JUMPI DUP5 DUP10 ADD MLOAD DUP3 SSTORE PUSH1 0x1 DUP3 ADD SWAP2 POP PUSH1 0x20 DUP6 ADD SWAP5 POP PUSH1 0x20 DUP2 ADD SWAP1 POP PUSH3 0x7C4 JUMP JUMPDEST DUP7 DUP4 LT ISZERO PUSH3 0x80B JUMPI DUP5 DUP10 ADD MLOAD PUSH3 0x807 PUSH1 0x1F DUP10 AND DUP3 PUSH3 0x6FB JUMP JUMPDEST DUP4 SSTORE POP JUMPDEST PUSH1 0x1 PUSH1 0x2 DUP9 MUL ADD DUP9 SSTORE POP POP POP JUMPDEST POP POP POP POP POP POP JUMP JUMPDEST PUSH32 0x4E487B7100000000000000000000000000000000000000000000000000000000 PUSH1 0x0 MSTORE PUSH1 0x1 PUSH1 0x4 MSTORE PUSH1 0x24 PUSH1 0x0 REVERT JUMPDEST PUSH32 0x4E487B7100000000000000000000000000000000000000000000000000000000 PUSH1 0x0 MSTORE PUSH1 0x12 PUSH1 0x4 MSTORE PUSH1 0x24 PUSH1 0x0 REVERT JUMPDEST PUSH1 0x0 PUSH3 0x88B DUP3 PUSH3 0x22F JUMP JUMPDEST SWAP2 POP PUSH3 0x898 DUP4 PUSH3 0x22F JUMP JUMPDEST SWAP3 POP DUP3 PUSH3 0x8AB JUMPI PUSH3 0x8AA PUSH3 0x84F JUMP JUMPDEST JUMPDEST DUP3 DUP3 DIV SWAP1 POP SWAP3 SWAP2 POP POP JUMP JUMPDEST PUSH2 0x1E05 DUP1 PUSH3 0x8C6 PUSH1 0x0 CODECOPY PUSH1 0x0 RETURN INVALID PUSH1 0x80 PUSH1 0x40 MSTORE PUSH1 0x4 CALLDATASIZE LT PUSH2 0xC2 JUMPI PUSH1 0x0 CALLDATALOAD PUSH1 0xE0 SHR DUP1 PUSH4 0x43C14B22 GT PUSH2 0x7F JUMPI DUP1 PUSH4 0xD85DA7B6 GT PUSH2 0x59 JUMPI DUP1 PUSH4 0xD85DA7B6 EQ PUSH2 0x1FD JUMPI DUP1 PUSH4 0xE8B5E51F EQ PUSH2 0x214 JUMPI DUP1 PUSH4 0xEFD475AB EQ PUSH2 0x21E JUMPI DUP1 PUSH4 0xF06817CF EQ PUSH2 0x235 JUMPI PUSH2 0xC2 JUMP JUMPDEST DUP1 PUSH4 0x43C14B22 EQ PUSH2 0x1A4 JUMPI DUP1 PUSH4 0x590E1AE3 EQ PUSH2 0x1BB JUMPI DUP1 PUSH4 0x8DA5CB5B EQ PUSH2 0x1D2 JUMPI PUSH2 0xC2 JUMP JUMPDEST DUP1 PUSH4 0xFDB1C10 EQ PUSH2 0xC7 JUMPI DUP1 PUSH4 0x12065FE0 EQ PUSH2 0xDE JUMPI DUP1 PUSH4 0x268F1153 EQ PUSH2 0x109 JUMPI DUP1 PUSH4 0x28FD10D7 EQ PUSH2 0x132 JUMPI DUP1 PUSH4 0x29C68DC1 EQ PUSH2 0x16F JUMPI DUP1 PUSH4 0x402D8883 EQ PUSH2 0x19A JUMPI JUMPDEST PUSH1 0x0 DUP1 REVERT JUMPDEST CALLVALUE DUP1 ISZERO PUSH2 0xD3 JUMPI PUSH1 0x0 DUP1 REVERT JUMPDEST POP PUSH2 0xDC PUSH2 0x26A JUMP JUMPDEST STOP JUMPDEST CALLVALUE DUP1 ISZERO PUSH2 0xEA JUMPI PUSH1 0x0 DUP1 REVERT JUMPDEST POP PUSH2 0xF3 PUSH2 0x45C JUMP JUMPDEST PUSH1 0x40 MLOAD PUSH2 0x100 SWAP2 SWAP1 PUSH2 0x1880 JUMP JUMPDEST PUSH1 0x40 MLOAD DUP1 SWAP2 SUB SWAP1 RETURN JUMPDEST CALLVALUE DUP1 ISZERO PUSH2 0x115 JUMPI PUSH1 0x0 DUP1 REVERT JUMPDEST POP PUSH2 0x130 PUSH1 0x4 DUP1 CALLDATASIZE SUB DUP2 ADD SWAP1 PUSH2 0x12B SWAP2 SWAP1 PUSH2 0x18C5 JUMP JUMPDEST PUSH2 0x464 JUMP JUMPDEST STOP JUMPDEST CALLVALUE DUP1 ISZERO PUSH2 0x13E JUMPI PUSH1 0x0 DUP1 REVERT JUMPDEST POP PUSH2 0x159 PUSH1 0x4 DUP1 CALLDATASIZE SUB DUP2 ADD SWAP1 PUSH2 0x154 SWAP2 SWAP1 PUSH2 0x1950 JUMP JUMPDEST PUSH2 0x538 JUMP JUMPDEST PUSH1 0x40 MLOAD PUSH2 0x166 SWAP2 SWAP1 PUSH2 0x1998 JUMP JUMPDEST PUSH1 0x40 MLOAD DUP1 SWAP2 SUB SWAP1 RETURN JUMPDEST CALLVALUE DUP1 ISZERO PUSH2 0x17B JUMPI PUSH1 0x0 DUP1 REVERT JUMPDEST POP PUSH2 0x184 PUSH2 0x558 JUMP JUMPDEST PUSH1 0x40 MLOAD PUSH2 0x191 SWAP2 SWAP1 PUSH2 0x1998 JUMP JUMPDEST PUSH1 0x40 MLOAD DUP1 SWAP2 SUB SWAP1 RETURN JUMPDEST PUSH2 0x1A2 PUSH2 0x631 JUMP JUMPDEST STOP JUMPDEST CALLVALUE DUP1 ISZERO PUSH2 0x1B0 JUMPI PUSH1 0x0 DUP1 REVERT JUMPDEST POP PUSH2 0x1B9 PUSH2 0x943 JUMP JUMPDEST STOP JUMPDEST CALLVALUE DUP1 ISZERO PUSH2 0x1C7 JUMPI PUSH1 0x0 DUP1 REVERT JUMPDEST POP PUSH2 0x1D0 PUSH2 0xB2E JUMP JUMPDEST STOP JUMPDEST CALLVALUE DUP1 ISZERO PUSH2 0x1DE JUMPI PUSH1 0x0 DUP1 REVERT JUMPDEST POP PUSH2 0x1E7 PUSH2 0xE24 JUMP JUMPDEST PUSH1 0x40 MLOAD PUSH2 0x1F4 SWAP2 SWAP1 PUSH2 0x19C2 JUMP JUMPDEST PUSH1 0x40 MLOAD DUP1 SWAP2 SUB SWAP1 RETURN JUMPDEST CALLVALUE DUP1 ISZERO PUSH2 0x209 JUMPI PUSH1 0x0 DUP1 REVERT JUMPDEST POP PUSH2 0x212 PUSH2 0xE48 JUMP JUMPDEST STOP JUMPDEST PUSH2 0x21C PUSH2 0xFD0 JUMP JUMPDEST STOP JUMPDEST CALLVALUE DUP1 ISZERO PUSH2 0x22A JUMPI PUSH1 0x0 DUP1 REVERT JUMPDEST POP PUSH2 0x233 PUSH2 0x12D9 JUMP JUMPDEST STOP JUMPDEST CALLVALUE DUP1 ISZERO PUSH2 0x241 JUMPI PUSH1 0x0 DUP1 REVERT JUMPDEST POP PUSH2 0x24A PUSH2 0x161C JUMP JUMPDEST PUSH1 0x40 MLOAD PUSH2 0x261 SWAP12 SWAP11 SWAP10 SWAP9 SWAP8 SWAP7 SWAP6 SWAP5 SWAP4 SWAP3 SWAP2 SWAP1 PUSH2 0x1AE4 JUMP JUMPDEST PUSH1 0x40 MLOAD DUP1 SWAP2 SUB SWAP1 RETURN JUMPDEST PUSH1 0x1 ISZERO ISZERO PUSH1 0xC PUSH1 0x0 SWAP1 SLOAD SWAP1 PUSH2 0x100 EXP SWAP1 DIV PUSH1 0xFF AND ISZERO ISZERO EQ PUSH2 0x28A JUMPI PUSH1 0x0 DUP1 REVERT JUMPDEST PUSH1 0x1 PUSH1 0x0 SWAP1 SLOAD SWAP1 PUSH2 0x100 EXP SWAP1 DIV PUSH20 0xFFFFFFFFFFFFFFFFFFFFFFFFFFFFFFFFFFFFFFFF AND PUSH20 0xFFFFFFFFFFFFFFFFFFFFFFFFFFFFFFFFFFFFFFFF AND CALLER PUSH20 0xFFFFFFFFFFFFFFFFFFFFFFFFFFFFFFFFFFFFFFFF AND EQ PUSH2 0x2E4 JUMPI PUSH1 0x0 DUP1 REVERT JUMPDEST PUSH1 0x2 SLOAD SELFBALANCE LT ISZERO PUSH2 0x2F3 JUMPI PUSH1 0x0 DUP1 REVERT JUMPDEST PUSH1 0x5 DUP1 DUP2 GT ISZERO PUSH2 0x306 JUMPI PUSH2 0x305 PUSH2 0x1A6D JUMP JUMPDEST JUMPDEST PUSH1 0x15 PUSH1 0x0 SWAP1 SLOAD SWAP1 PUSH2 0x100 EXP SWAP1 DIV PUSH1 0xFF AND PUSH1 0x5 DUP2 GT ISZERO PUSH2 0x328 JUMPI PUSH2 0x327 PUSH2 0x1A6D JUMP JUMPDEST JUMPDEST SUB PUSH2 0x332 JUMPI PUSH1 0x0 DUP1 REVERT JUMPDEST PUSH1 0x1 PUSH1 0x15 PUSH1 0x0 PUSH2 0x100 EXP DUP2 SLOAD DUP2 PUSH1 0xFF MUL NOT AND SWAP1 DUP4 PUSH1 0x5 DUP2 GT ISZERO PUSH2 0x358 JUMPI PUSH2 0x357 PUSH2 0x1A6D JUMP JUMPDEST JUMPDEST MUL OR SWAP1 SSTORE POP TIMESTAMP PUSH1 0x15 PUSH1 0x0 SWAP1 SLOAD SWAP1 PUSH2 0x100 EXP SWAP1 DIV PUSH1 0xFF AND PUSH1 0x5 DUP2 GT ISZERO PUSH2 0x380 JUMPI PUSH2 0x37F PUSH2 0x1A6D JUMP JUMPDEST JUMPDEST PUSH32 0xAAAE373901E745122C2E0925AD006227969C6CD190B7D5EA2FB7FDBD1D955B35 PUSH1 0x40 MLOAD PUSH1 0x40 MLOAD DUP1 SWAP2 SUB SWAP1 LOG3 TIMESTAMP SELFBALANCE CALLER PUSH20 0xFFFFFFFFFFFFFFFFFFFFFFFFFFFFFFFFFFFFFFFF AND PUSH32 0x20734F14D107B526674905E470E35D0A474F9FB996A7BDB034C839C8894524E6 PUSH1 0x40 MLOAD PUSH1 0x40 MLOAD DUP1 SWAP2 SUB SWAP1 LOG4 PUSH1 0x1 PUSH1 0x0 SWAP1 SLOAD SWAP1 PUSH2 0x100 EXP SWAP1 DIV PUSH20 0xFFFFFFFFFFFFFFFFFFFFFFFFFFFFFFFFFFFFFFFF AND PUSH20 0xFFFFFFFFFFFFFFFFFFFFFFFFFFFFFFFFFFFFFFFF AND PUSH2 0x8FC SELFBALANCE SWAP1 DUP2 ISZERO MUL SWAP1 PUSH1 0x40 MLOAD PUSH1 0x0 PUSH1 0x40 MLOAD DUP1 DUP4 SUB DUP2 DUP6 DUP9 DUP9 CALL SWAP4 POP POP POP POP ISZERO DUP1 ISZERO PUSH2 0x459 JUMPI RETURNDATASIZE PUSH1 0x0 DUP1 RETURNDATACOPY RETURNDATASIZE PUSH1 0x0 REVERT JUMPDEST POP JUMP JUMPDEST PUSH1 0x0 SELFBALANCE SWAP1 POP SWAP1 JUMP JUMPDEST PUSH1 0x0 DUP1 SLOAD SWAP1 PUSH2 0x100 EXP SWAP1 DIV PUSH20 0xFFFFFFFFFFFFFFFFFFFFFFFFFFFFFFFFFFFFFFFF AND PUSH20 0xFFFFFFFFFFFFFFFFFFFFFFFFFFFFFFFFFFFFFFFF AND CALLER PUSH20 0xFFFFFFFFFFFFFFFFFFFFFFFFFFFFFFFFFFFFFFFF AND EQ PUSH2 0x4BC JUMPI PUSH1 0x0 DUP1 REVERT JUMPDEST DUP1 PUSH1 0x15 PUSH1 0x0 PUSH2 0x100 EXP DUP2 SLOAD DUP2 PUSH1 0xFF MUL NOT AND SWAP1 DUP4 PUSH1 0x5 DUP2 GT ISZERO PUSH2 0x4E1 JUMPI PUSH2 0x4E0 PUSH2 0x1A6D JUMP JUMPDEST JUMPDEST MUL OR SWAP1 SSTORE POP TIMESTAMP PUSH1 0x15 PUSH1 0x0 SWAP1 SLOAD SWAP1 PUSH2 0x100 EXP SWAP1 DIV PUSH1 0xFF AND PUSH1 0x5 DUP2 GT ISZERO PUSH2 0x509 JUMPI PUSH2 0x508 PUSH2 0x1A6D JUMP JUMPDEST JUMPDEST PUSH32 0xAAAE373901E745122C2E0925AD006227969C6CD190B7D5EA2FB7FDBD1D955B35 PUSH1 0x40 MLOAD PUSH1 0x40 MLOAD DUP1 SWAP2 SUB SWAP1 LOG3 POP JUMP JUMPDEST PUSH1 0x11 PUSH1 0x20 MSTORE DUP1 PUSH1 0x0 MSTORE PUSH1 0x40 PUSH1 0x0 KECCAK256 PUSH1 0x0 SWAP2 POP SLOAD SWAP1 PUSH2 0x100 EXP SWAP1 DIV PUSH1 0xFF AND DUP2 JUMP JUMPDEST PUSH1 0x0 DUP1 PUSH1 0x0 SWAP1 SLOAD SWAP1 PUSH2 0x100 EXP SWAP1 DIV PUSH20 0xFFFFFFFFFFFFFFFFFFFFFFFFFFFFFFFFFFFFFFFF AND PUSH20 0xFFFFFFFFFFFFFFFFFFFFFFFFFFFFFFFFFFFFFFFF AND CALLER PUSH20 0xFFFFFFFFFFFFFFFFFFFFFFFFFFFFFFFFFFFFFFFF AND EQ PUSH2 0x5B3 JUMPI PUSH1 0x0 DUP1 REVERT JUMPDEST PUSH1 0xC PUSH1 0x0 SWAP1 SLOAD SWAP1 PUSH2 0x100 EXP SWAP1 DIV PUSH1 0xFF AND ISZERO PUSH1 0xC PUSH1 0x0 PUSH2 0x100 EXP DUP2 SLOAD DUP2 PUSH1 0xFF MUL NOT AND SWAP1 DUP4 ISZERO ISZERO MUL OR SWAP1 SSTORE POP TIMESTAMP PUSH1 0xC PUSH1 0x0 SWAP1 SLOAD SWAP1 PUSH2 0x100 EXP SWAP1 DIV PUSH1 0xFF AND ISZERO ISZERO PUSH32 0x160914EA27C60AA29A5F3A69D74E6069869DE36E38939DE1E0A66B921D8623D2 PUSH1 0x40 MLOAD PUSH1 0x40 MLOAD DUP1 SWAP2 SUB SWAP1 LOG3 PUSH1 0xC PUSH1 0x0 SWAP1 SLOAD SWAP1 PUSH2 0x100 EXP SWAP1 DIV PUSH1 0xFF AND SWAP1 POP SWAP1 JUMP JUMPDEST PUSH1 0x1 PUSH1 0x0 SWAP1 SLOAD SWAP1 PUSH2 0x100 EXP SWAP1 DIV PUSH20 0xFFFFFFFFFFFFFFFFFFFFFFFFFFFFFFFFFFFFFFFF AND PUSH20 0xFFFFFFFFFFFFFFFFFFFFFFFFFFFFFFFFFFFFFFFF AND CALLER PUSH20 0xFFFFFFFFFFFFFFFFFFFFFFFFFFFFFFFFFFFFFFFF AND EQ PUSH2 0x68B JUMPI PUSH1 0x0 DUP1 REVERT JUMPDEST PUSH1 0x1 PUSH1 0x5 DUP2 GT ISZERO PUSH2 0x69F JUMPI PUSH2 0x69E PUSH2 0x1A6D JUMP JUMPDEST JUMPDEST PUSH1 0x15 PUSH1 0x0 SWAP1 SLOAD SWAP1 PUSH2 0x100 EXP SWAP1 DIV PUSH1 0xFF AND PUSH1 0x5 DUP2 GT ISZERO PUSH2 0x6C1 JUMPI PUSH2 0x6C0 PUSH2 0x1A6D JUMP JUMPDEST JUMPDEST EQ PUSH2 0x6CB JUMPI PUSH1 0x0 DUP1 REVERT JUMPDEST PUSH1 0x8 SLOAD CALLVALUE LT ISZERO PUSH2 0x6DA JUMPI PUSH1 0x0 DUP1 REVERT JUMPDEST PUSH1 0x3 SLOAD PUSH1 0x4 SLOAD LT PUSH2 0x6EE JUMPI PUSH2 0x6ED PUSH2 0x1B96 JUMP JUMPDEST JUMPDEST PUSH1 0x7 PUSH1 0x0 DUP2 SLOAD DUP1 SWAP3 SWAP2 SWAP1 PUSH2 0x701 SWAP1 PUSH2 0x1BF4 JUMP JUMPDEST SWAP2 SWAP1 POP SSTORE POP TIMESTAMP PUSH1 0xA DUP2 SWAP1 SSTORE POP PUSH1 0x0 PUSH1 0x8 SLOAD CALLVALUE GT ISZERO PUSH2 0x940 JUMPI PUSH2 0x72E PUSH1 0x8 SLOAD CALLVALUE PUSH2 0x177C SWAP1 SWAP2 SWAP1 PUSH4 0xFFFFFFFF AND JUMP JUMPDEST SWAP1 POP PUSH2 0x743 DUP2 CALLVALUE PUSH2 0x177C SWAP1 SWAP2 SWAP1 PUSH4 0xFFFFFFFF AND JUMP JUMPDEST PUSH1 0x8 SLOAD EQ PUSH2 0x754 JUMPI PUSH2 0x753 PUSH2 0x1B96 JUMP JUMPDEST JUMPDEST CALLVALUE DUP2 GT ISZERO PUSH2 0x765 JUMPI PUSH2 0x764 PUSH2 0x1B96 JUMP JUMPDEST JUMPDEST CALLER PUSH20 0xFFFFFFFFFFFFFFFFFFFFFFFFFFFFFFFFFFFFFFFF AND PUSH2 0x8FC DUP3 SWAP1 DUP2 ISZERO MUL SWAP1 PUSH1 0x40 MLOAD PUSH1 0x0 PUSH1 0x40 MLOAD DUP1 DUP4 SUB DUP2 DUP6 DUP9 DUP9 CALL SWAP4 POP POP POP POP ISZERO DUP1 ISZERO PUSH2 0x7AB JUMPI RETURNDATASIZE PUSH1 0x0 DUP1 RETURNDATACOPY RETURNDATASIZE PUSH1 0x0 REVERT JUMPDEST POP TIMESTAMP DUP2 CALLER PUSH20 0xFFFFFFFFFFFFFFFFFFFFFFFFFFFFFFFFFFFFFFFF AND PUSH32 0x5C9874487A2258C6BD6DC39A2CFCF7EA944B50B79D9A7152668779687B2EBD8D PUSH1 0x40 MLOAD PUSH1 0x40 MLOAD DUP1 SWAP2 SUB SWAP1 LOG4 TIMESTAMP PUSH2 0x805 DUP3 CALLVALUE PUSH2 0x177C SWAP1 SWAP2 SWAP1 PUSH4 0xFFFFFFFF AND JUMP JUMPDEST CALLER PUSH20 0xFFFFFFFFFFFFFFFFFFFFFFFFFFFFFFFFFFFFFFFF AND PUSH32 0x350A09487D622378C6EFBDA255F996387696319F803A2E53EEE64F7AA70BE85A PUSH1 0x40 MLOAD PUSH1 0x40 MLOAD DUP1 SWAP2 SUB SWAP1 LOG4 PUSH2 0x86F PUSH2 0x85E DUP3 CALLVALUE PUSH2 0x177C SWAP1 SWAP2 SWAP1 PUSH4 0xFFFFFFFF AND JUMP JUMPDEST PUSH1 0x4 SLOAD PUSH2 0x1735 SWAP1 SWAP2 SWAP1 PUSH4 0xFFFFFFFF AND JUMP JUMPDEST PUSH1 0x4 DUP2 SWAP1 SSTORE POP PUSH1 0x3 SLOAD PUSH1 0x4 SLOAD SUB PUSH2 0x93F JUMPI TIMESTAMP CALLER PUSH20 0xFFFFFFFFFFFFFFFFFFFFFFFFFFFFFFFFFFFFFFFF AND PUSH32 0x25630DE45A38A90CBCA3A2EB35A8197E51B56D6D912581711E5E3773FE77CABC PUSH1 0x40 MLOAD PUSH1 0x40 MLOAD DUP1 SWAP2 SUB SWAP1 LOG3 PUSH1 0x2 PUSH1 0x15 PUSH1 0x0 PUSH2 0x100 EXP DUP2 SLOAD DUP2 PUSH1 0xFF MUL NOT AND SWAP1 DUP4 PUSH1 0x5 DUP2 GT ISZERO PUSH2 0x8EA JUMPI PUSH2 0x8E9 PUSH2 0x1A6D JUMP JUMPDEST JUMPDEST MUL OR SWAP1 SSTORE POP TIMESTAMP PUSH1 0x15 PUSH1 0x0 SWAP1 SLOAD SWAP1 PUSH2 0x100 EXP SWAP1 DIV PUSH1 0xFF AND PUSH1 0x5 DUP2 GT ISZERO PUSH2 0x912 JUMPI PUSH2 0x911 PUSH2 0x1A6D JUMP JUMPDEST JUMPDEST PUSH32 0xAAAE373901E745122C2E0925AD006227969C6CD190B7D5EA2FB7FDBD1D955B35 PUSH1 0x40 MLOAD PUSH1 0x40 MLOAD DUP1 SWAP2 SUB SWAP1 LOG3 JUMPDEST JUMPDEST POP JUMP JUMPDEST PUSH1 0x1 ISZERO ISZERO PUSH1 0xC PUSH1 0x0 SWAP1 SLOAD SWAP1 PUSH2 0x100 EXP SWAP1 DIV PUSH1 0xFF AND ISZERO ISZERO EQ PUSH2 0x963 JUMPI PUSH1 0x0 DUP1 REVERT JUMPDEST PUSH1 0xF SLOAD TIMESTAMP LT ISZERO PUSH2 0x972 JUMPI PUSH1 0x0 DUP1 REVERT JUMPDEST PUSH1 0x0 PUSH1 0x5 DUP2 GT ISZERO PUSH2 0x986 JUMPI PUSH2 0x985 PUSH2 0x1A6D JUMP JUMPDEST JUMPDEST PUSH1 0x15 PUSH1 0x0 SWAP1 SLOAD SWAP1 PUSH2 0x100 EXP SWAP1 DIV PUSH1 0xFF AND PUSH1 0x5 DUP2 GT ISZERO PUSH2 0x9A8 JUMPI PUSH2 0x9A7 PUSH2 0x1A6D JUMP JUMPDEST JUMPDEST EQ PUSH2 0x9B2 JUMPI PUSH1 0x0 DUP1 REVERT JUMPDEST PUSH1 0x1 ISZERO ISZERO PUSH1 0x11 PUSH1 0x0 CALLER PUSH20 0xFFFFFFFFFFFFFFFFFFFFFFFFFFFFFFFFFFFFFFFF AND PUSH20 0xFFFFFFFFFFFFFFFFFFFFFFFFFFFFFFFFFFFFFFFF AND DUP2 MSTORE PUSH1 0x20 ADD SWAP1 DUP2 MSTORE PUSH1 0x20 ADD PUSH1 0x0 KECCAK256 PUSH1 0x0 SWAP1 SLOAD SWAP1 PUSH2 0x100 EXP SWAP1 DIV PUSH1 0xFF AND ISZERO ISZERO EQ PUSH2 0xA0F JUMPI PUSH1 0x0 DUP1 REVERT JUMPDEST PUSH1 0x0 ISZERO ISZERO PUSH1 0x13 PUSH1 0x0 CALLER PUSH20 0xFFFFFFFFFFFFFFFFFFFFFFFFFFFFFFFFFFFFFFFF AND PUSH20 0xFFFFFFFFFFFFFFFFFFFFFFFFFFFFFFFFFFFFFFFF AND DUP2 MSTORE PUSH1 0x20 ADD SWAP1 DUP2 MSTORE PUSH1 0x20 ADD PUSH1 0x0 KECCAK256 PUSH1 0x0 SWAP1 SLOAD SWAP1 PUSH2 0x100 EXP SWAP1 DIV PUSH1 0xFF AND ISZERO ISZERO EQ PUSH2 0xA6C JUMPI PUSH1 0x0 DUP1 REVERT JUMPDEST PUSH1 0xE PUSH1 0x0 DUP2 SLOAD DUP1 SWAP3 SWAP2 SWAP1 PUSH2 0xA7F SWAP1 PUSH2 0x1C1D JUMP JUMPDEST SWAP2 SWAP1 POP SSTORE POP PUSH1 0x1 ISZERO ISZERO PUSH1 0x13 PUSH1 0x0 CALLER PUSH20 0xFFFFFFFFFFFFFFFFFFFFFFFFFFFFFFFFFFFFFFFF AND PUSH20 0xFFFFFFFFFFFFFFFFFFFFFFFFFFFFFFFFFFFFFFFF AND DUP2 MSTORE PUSH1 0x20 ADD SWAP1 DUP2 MSTORE PUSH1 0x20 ADD PUSH1 0x0 KECCAK256 PUSH1 0x0 SWAP1 SLOAD SWAP1 PUSH2 0x100 EXP SWAP1 POP POP POP TIMESTAMP CALLER PUSH20 0xFFFFFFFFFFFFFFFFFFFFFFFFFFFFFFFFFFFFFFFF AND PUSH32 0xD7173CE7E4CE6F6D075259AC1A467AB8290DB175A2CEE8587A663C006B97E129 PUSH1 0x40 MLOAD PUSH1 0x40 MLOAD DUP1 SWAP2 SUB SWAP1 LOG3 PUSH1 0xE SLOAD PUSH1 0xD SLOAD SUB PUSH2 0xB2C JUMPI PUSH2 0xB2B PUSH2 0x17A3 JUMP JUMPDEST JUMPDEST JUMP JUMPDEST PUSH1 0x1 ISZERO ISZERO PUSH1 0xC PUSH1 0x0 SWAP1 SLOAD SWAP1 PUSH2 0x100 EXP SWAP1 DIV PUSH1 0xFF AND ISZERO ISZERO EQ PUSH2 0xB4E JUMPI PUSH1 0x0 DUP1 REVERT JUMPDEST PUSH1 0x1 ISZERO ISZERO PUSH1 0x11 PUSH1 0x0 CALLER PUSH20 0xFFFFFFFFFFFFFFFFFFFFFFFFFFFFFFFFFFFFFFFF AND PUSH20 0xFFFFFFFFFFFFFFFFFFFFFFFFFFFFFFFFFFFFFFFF AND DUP2 MSTORE PUSH1 0x20 ADD SWAP1 DUP2 MSTORE PUSH1 0x20 ADD PUSH1 0x0 KECCAK256 PUSH1 0x0 SWAP1 SLOAD SWAP1 PUSH2 0x100 EXP SWAP1 DIV PUSH1 0xFF AND ISZERO ISZERO EQ PUSH2 0xBAB JUMPI PUSH1 0x0 DUP1 REVERT JUMPDEST PUSH1 0x4 PUSH1 0x5 DUP2 GT ISZERO PUSH2 0xBBF JUMPI PUSH2 0xBBE PUSH2 0x1A6D JUMP JUMPDEST JUMPDEST PUSH1 0x15 PUSH1 0x0 SWAP1 SLOAD SWAP1 PUSH2 0x100 EXP SWAP1 DIV PUSH1 0xFF AND PUSH1 0x5 DUP2 GT ISZERO PUSH2 0xBE1 JUMPI PUSH2 0xBE0 PUSH2 0x1A6D JUMP JUMPDEST JUMPDEST EQ PUSH2 0xBEB JUMPI PUSH1 0x0 DUP1 REVERT JUMPDEST PUSH1 0x12 PUSH1 0x0 CALLER PUSH20 0xFFFFFFFFFFFFFFFFFFFFFFFFFFFFFFFFFFFFFFFF AND PUSH20 0xFFFFFFFFFFFFFFFFFFFFFFFFFFFFFFFFFFFFFFFF AND DUP2 MSTORE PUSH1 0x20 ADD SWAP1 DUP2 MSTORE PUSH1 0x20 ADD PUSH1 0x0 KECCAK256 SLOAD SELFBALANCE LT ISZERO PUSH2 0xC3B JUMPI PUSH2 0xC3A PUSH2 0x1B96 JUMP JUMPDEST JUMPDEST CALLER PUSH20 0xFFFFFFFFFFFFFFFFFFFFFFFFFFFFFFFFFFFFFFFF AND PUSH2 0x8FC PUSH1 0x12 PUSH1 0x0 CALLER PUSH20 0xFFFFFFFFFFFFFFFFFFFFFFFFFFFFFFFFFFFFFFFF AND PUSH20 0xFFFFFFFFFFFFFFFFFFFFFFFFFFFFFFFFFFFFFFFF AND DUP2 MSTORE PUSH1 0x20 ADD SWAP1 DUP2 MSTORE PUSH1 0x20 ADD PUSH1 0x0 KECCAK256 SLOAD SWAP1 DUP2 ISZERO MUL SWAP1 PUSH1 0x40 MLOAD PUSH1 0x0 PUSH1 0x40 MLOAD DUP1 DUP4 SUB DUP2 DUP6 DUP9 DUP9 CALL SWAP4 POP POP POP POP ISZERO DUP1 ISZERO PUSH2 0xCC0 JUMPI RETURNDATASIZE PUSH1 0x0 DUP1 RETURNDATACOPY RETURNDATASIZE PUSH1 0x0 REVERT JUMPDEST POP TIMESTAMP PUSH1 0x12 PUSH1 0x0 CALLER PUSH20 0xFFFFFFFFFFFFFFFFFFFFFFFFFFFFFFFFFFFFFFFF AND PUSH20 0xFFFFFFFFFFFFFFFFFFFFFFFFFFFFFFFFFFFFFFFF AND DUP2 MSTORE PUSH1 0x20 ADD SWAP1 DUP2 MSTORE PUSH1 0x20 ADD PUSH1 0x0 KECCAK256 SLOAD CALLER PUSH20 0xFFFFFFFFFFFFFFFFFFFFFFFFFFFFFFFFFFFFFFFF AND PUSH32 0x71E252E33F19F0223F47F27D00910548D26488B9B55CB5B410B75E273152F8D6 PUSH1 0x40 MLOAD PUSH1 0x40 MLOAD DUP1 SWAP2 SUB SWAP1 LOG4 PUSH1 0x0 SELFBALANCE SUB PUSH2 0xE22 JUMPI PUSH1 0x0 PUSH1 0xC PUSH1 0x0 PUSH2 0x100 EXP DUP2 SLOAD DUP2 PUSH1 0xFF MUL NOT AND SWAP1 DUP4 ISZERO ISZERO MUL OR SWAP1 SSTORE POP TIMESTAMP PUSH1 0xC PUSH1 0x0 SWAP1 SLOAD SWAP1 PUSH2 0x100 EXP SWAP1 DIV PUSH1 0xFF AND ISZERO ISZERO PUSH32 0x160914EA27C60AA29A5F3A69D74E6069869DE36E38939DE1E0A66B921D8623D2 PUSH1 0x40 MLOAD PUSH1 0x40 MLOAD DUP1 SWAP2 SUB SWAP1 LOG3 PUSH1 0x3 PUSH1 0x15 PUSH1 0x0 PUSH2 0x100 EXP DUP2 SLOAD DUP2 PUSH1 0xFF MUL NOT AND SWAP1 DUP4 PUSH1 0x5 DUP2 GT ISZERO PUSH2 0xDCD JUMPI PUSH2 0xDCC PUSH2 0x1A6D JUMP JUMPDEST JUMPDEST MUL OR SWAP1 SSTORE POP TIMESTAMP PUSH1 0x15 PUSH1 0x0 SWAP1 SLOAD SWAP1 PUSH2 0x100 EXP SWAP1 DIV PUSH1 0xFF AND PUSH1 0x5 DUP2 GT ISZERO PUSH2 0xDF5 JUMPI PUSH2 0xDF4 PUSH2 0x1A6D JUMP JUMPDEST JUMPDEST PUSH32 0xAAAE373901E745122C2E0925AD006227969C6CD190B7D5EA2FB7FDBD1D955B35 PUSH1 0x40 MLOAD PUSH1 0x40 MLOAD DUP1 SWAP2 SUB SWAP1 LOG3 JUMPDEST JUMP JUMPDEST PUSH1 0x0 DUP1 SLOAD SWAP1 PUSH2 0x100 EXP SWAP1 DIV PUSH20 0xFFFFFFFFFFFFFFFFFFFFFFFFFFFFFFFFFFFFFFFF AND DUP2 JUMP JUMPDEST PUSH1 0x1 ISZERO ISZERO PUSH1 0xC PUSH1 0x0 SWAP1 SLOAD SWAP1 PUSH2 0x100 EXP SWAP1 DIV PUSH1 0xFF AND ISZERO ISZERO EQ PUSH2 0xE68 JUMPI PUSH1 0x0 DUP1 REVERT JUMPDEST PUSH1 0x1 ISZERO ISZERO PUSH1 0x11 PUSH1 0x0 CALLER PUSH20 0xFFFFFFFFFFFFFFFFFFFFFFFFFFFFFFFFFFFFFFFF AND PUSH20 0xFFFFFFFFFFFFFFFFFFFFFFFFFFFFFFFFFFFFFFFF AND DUP2 MSTORE PUSH1 0x20 ADD SWAP1 DUP2 MSTORE PUSH1 0x20 ADD PUSH1 0x0 KECCAK256 PUSH1 0x0 SWAP1 SLOAD SWAP1 PUSH2 0x100 EXP SWAP1 DIV PUSH1 0xFF AND ISZERO ISZERO EQ PUSH2 0xEC5 JUMPI PUSH1 0x0 DUP1 REVERT JUMPDEST PUSH1 0x0 ISZERO ISZERO PUSH1 0x14 PUSH1 0x0 CALLER PUSH20 0xFFFFFFFFFFFFFFFFFFFFFFFFFFFFFFFFFFFFFFFF AND PUSH20 0xFFFFFFFFFFFFFFFFFFFFFFFFFFFFFFFFFFFFFFFF AND DUP2 MSTORE PUSH1 0x20 ADD SWAP1 DUP2 MSTORE PUSH1 0x20 ADD PUSH1 0x0 KECCAK256 PUSH1 0x0 SWAP1 SLOAD SWAP1 PUSH2 0x100 EXP SWAP1 DIV PUSH1 0xFF AND ISZERO ISZERO EQ PUSH2 0xF22 JUMPI PUSH1 0x0 DUP1 REVERT JUMPDEST PUSH1 0x10 PUSH1 0x0 DUP2 SLOAD DUP1 SWAP3 SWAP2 SWAP1 PUSH2 0xF35 SWAP1 PUSH2 0x1C1D JUMP JUMPDEST SWAP2 SWAP1 POP SSTORE POP PUSH1 0x1 ISZERO ISZERO PUSH1 0x14 PUSH1 0x0 CALLER PUSH20 0xFFFFFFFFFFFFFFFFFFFFFFFFFFFFFFFFFFFFFFFF AND PUSH20 0xFFFFFFFFFFFFFFFFFFFFFFFFFFFFFFFFFFFFFFFF AND DUP2 MSTORE PUSH1 0x20 ADD SWAP1 DUP2 MSTORE PUSH1 0x20 ADD PUSH1 0x0 KECCAK256 PUSH1 0x0 SWAP1 SLOAD SWAP1 PUSH2 0x100 EXP SWAP1 POP POP POP TIMESTAMP CALLER PUSH20 0xFFFFFFFFFFFFFFFFFFFFFFFFFFFFFFFFFFFFFFFF AND PUSH32 0x1DB613004119DDE2A638B639FBA9960C0E6064EE7C2D06F300E41C78920ED6DC PUSH1 0x40 MLOAD PUSH1 0x40 MLOAD DUP1 SWAP2 SUB SWAP1 LOG3 JUMP JUMPDEST PUSH1 0x0 PUSH1 0x5 DUP2 GT ISZERO PUSH2 0xFE4 JUMPI PUSH2 0xFE3 PUSH2 0x1A6D JUMP JUMPDEST JUMPDEST PUSH1 0x15 PUSH1 0x0 SWAP1 SLOAD SWAP1 PUSH2 0x100 EXP SWAP1 DIV PUSH1 0xFF AND PUSH1 0x5 DUP2 GT ISZERO PUSH2 0x1006 JUMPI PUSH2 0x1005 PUSH2 0x1A6D JUMP JUMPDEST JUMPDEST EQ PUSH2 0x1010 JUMPI PUSH1 0x0 DUP1 REVERT JUMPDEST PUSH1 0x0 PUSH1 0x2 SLOAD SELFBALANCE LT PUSH2 0x12D6 JUMPI PUSH2 0x1030 PUSH1 0x2 SLOAD SELFBALANCE PUSH2 0x177C SWAP1 SWAP2 SWAP1 PUSH4 0xFFFFFFFF AND JUMP JUMPDEST SWAP1 POP PUSH2 0x1045 DUP2 SELFBALANCE PUSH2 0x177C SWAP1 SWAP2 SWAP1 PUSH4 0xFFFFFFFF AND JUMP JUMPDEST POP CALLVALUE DUP2 GT ISZERO PUSH2 0x1057 JUMPI PUSH2 0x1056 PUSH2 0x1B96 JUMP JUMPDEST JUMPDEST PUSH1 0x0 DUP2 GT ISZERO PUSH2 0x1167 JUMPI CALLER PUSH20 0xFFFFFFFFFFFFFFFFFFFFFFFFFFFFFFFFFFFFFFFF AND PUSH2 0x8FC DUP3 SWAP1 DUP2 ISZERO MUL SWAP1 PUSH1 0x40 MLOAD PUSH1 0x0 PUSH1 0x40 MLOAD DUP1 DUP4 SUB DUP2 DUP6 DUP9 DUP9 CALL SWAP4 POP POP POP POP ISZERO DUP1 ISZERO PUSH2 0x10A6 JUMPI RETURNDATASIZE PUSH1 0x0 DUP1 RETURNDATACOPY RETURNDATASIZE PUSH1 0x0 REVERT JUMPDEST POP TIMESTAMP DUP2 CALLER PUSH20 0xFFFFFFFFFFFFFFFFFFFFFFFFFFFFFFFFFFFFFFFF AND PUSH32 0x566803F6E271B911C84F87631BCD310D6A6510BF8882577A96FC76975703E431 PUSH1 0x40 MLOAD PUSH1 0x40 MLOAD DUP1 SWAP2 SUB SWAP1 LOG4 PUSH1 0x1 PUSH1 0x15 PUSH1 0x0 PUSH2 0x100 EXP DUP2 SLOAD DUP2 PUSH1 0xFF MUL NOT AND SWAP1 DUP4 PUSH1 0x5 DUP2 GT ISZERO PUSH2 0x1112 JUMPI PUSH2 0x1111 PUSH2 0x1A6D JUMP JUMPDEST JUMPDEST MUL OR SWAP1 SSTORE POP TIMESTAMP PUSH1 0x15 PUSH1 0x0 SWAP1 SLOAD SWAP1 PUSH2 0x100 EXP SWAP1 DIV PUSH1 0xFF AND PUSH1 0x5 DUP2 GT ISZERO PUSH2 0x113A JUMPI PUSH2 0x1139 PUSH2 0x1A6D JUMP JUMPDEST JUMPDEST PUSH32 0xAAAE373901E745122C2E0925AD006227969C6CD190B7D5EA2FB7FDBD1D955B35 PUSH1 0x40 MLOAD PUSH1 0x40 MLOAD DUP1 SWAP2 SUB SWAP1 LOG3 JUMPDEST PUSH1 0x1 PUSH1 0x11 PUSH1 0x0 CALLER PUSH20 0xFFFFFFFFFFFFFFFFFFFFFFFFFFFFFFFFFFFFFFFF AND PUSH20 0xFFFFFFFFFFFFFFFFFFFFFFFFFFFFFFFFFFFFFFFF AND DUP2 MSTORE PUSH1 0x20 ADD SWAP1 DUP2 MSTORE PUSH1 0x20 ADD PUSH1 0x0 KECCAK256 PUSH1 0x0 PUSH2 0x100 EXP DUP2 SLOAD DUP2 PUSH1 0xFF MUL NOT AND SWAP1 DUP4 ISZERO ISZERO MUL OR SWAP1 SSTORE POP PUSH1 0xD PUSH1 0x0 DUP2 SLOAD DUP1 SWAP3 SWAP2 SWAP1 PUSH2 0x11D2 SWAP1 PUSH2 0x1C1D JUMP JUMPDEST SWAP2 SWAP1 POP SSTORE POP PUSH2 0x123B PUSH2 0x11ED DUP3 CALLVALUE PUSH2 0x177C SWAP1 SWAP2 SWAP1 PUSH4 0xFFFFFFFF AND JUMP JUMPDEST PUSH1 0x12 PUSH1 0x0 CALLER PUSH20 0xFFFFFFFFFFFFFFFFFFFFFFFFFFFFFFFFFFFFFFFF AND PUSH20 0xFFFFFFFFFFFFFFFFFFFFFFFFFFFFFFFFFFFFFFFF AND DUP2 MSTORE PUSH1 0x20 ADD SWAP1 DUP2 MSTORE PUSH1 0x20 ADD PUSH1 0x0 KECCAK256 SLOAD PUSH2 0x1735 SWAP1 SWAP2 SWAP1 PUSH4 0xFFFFFFFF AND JUMP JUMPDEST PUSH1 0x12 PUSH1 0x0 CALLER PUSH20 0xFFFFFFFFFFFFFFFFFFFFFFFFFFFFFFFFFFFFFFFF AND PUSH20 0xFFFFFFFFFFFFFFFFFFFFFFFFFFFFFFFFFFFFFFFF AND DUP2 MSTORE PUSH1 0x20 ADD SWAP1 DUP2 MSTORE PUSH1 0x20 ADD PUSH1 0x0 KECCAK256 DUP2 SWAP1 SSTORE POP TIMESTAMP PUSH2 0x1292 DUP3 CALLVALUE PUSH2 0x177C SWAP1 SWAP2 SWAP1 PUSH4 0xFFFFFFFF AND JUMP JUMPDEST CALLER PUSH20 0xFFFFFFFFFFFFFFFFFFFFFFFFFFFFFFFFFFFFFFFF AND PUSH32 0x1B0969CE7F5B05C5E0969329A05CDBD7E2E2F6CEE33BA26FD6E6BBCFF82312CD PUSH1 0x40 MLOAD PUSH1 0x40 MLOAD DUP1 SWAP2 SUB SWAP1 LOG4 JUMPDEST POP JUMP JUMPDEST PUSH1 0x1 ISZERO ISZERO PUSH1 0xC PUSH1 0x0 SWAP1 SLOAD SWAP1 PUSH2 0x100 EXP SWAP1 DIV PUSH1 0xFF AND ISZERO ISZERO EQ PUSH2 0x12F9 JUMPI PUSH1 0x0 DUP1 REVERT JUMPDEST PUSH1 0x1 ISZERO ISZERO PUSH1 0x11 PUSH1 0x0 CALLER PUSH20 0xFFFFFFFFFFFFFFFFFFFFFFFFFFFFFFFFFFFFFFFF AND PUSH20 0xFFFFFFFFFFFFFFFFFFFFFFFFFFFFFFFFFFFFFFFF AND DUP2 MSTORE PUSH1 0x20 ADD SWAP1 DUP2 MSTORE PUSH1 0x20 ADD PUSH1 0x0 KECCAK256 PUSH1 0x0 SWAP1 SLOAD SWAP1 PUSH2 0x100 EXP SWAP1 DIV PUSH1 0xFF AND ISZERO ISZERO EQ PUSH2 0x1356 JUMPI PUSH1 0x0 DUP1 REVERT JUMPDEST PUSH1 0x2 PUSH1 0x5 DUP2 GT ISZERO PUSH2 0x136A JUMPI PUSH2 0x1369 PUSH2 0x1A6D JUMP JUMPDEST JUMPDEST PUSH1 0x15 PUSH1 0x0 SWAP1 SLOAD SWAP1 PUSH2 0x100 EXP SWAP1 DIV PUSH1 0xFF AND PUSH1 0x5 DUP2 GT ISZERO PUSH2 0x138C JUMPI PUSH2 0x138B PUSH2 0x1A6D JUMP JUMPDEST JUMPDEST EQ PUSH2 0x1396 JUMPI PUSH1 0x0 DUP1 REVERT JUMPDEST PUSH1 0x0 PUSH1 0x12 PUSH1 0x0 CALLER PUSH20 0xFFFFFFFFFFFFFFFFFFFFFFFFFFFFFFFFFFFFFFFF AND PUSH20 0xFFFFFFFFFFFFFFFFFFFFFFFFFFFFFFFFFFFFFFFF AND DUP2 MSTORE PUSH1 0x20 ADD SWAP1 DUP2 MSTORE PUSH1 0x20 ADD PUSH1 0x0 KECCAK256 SLOAD GT PUSH2 0x13E2 JUMPI PUSH1 0x0 DUP1 REVERT JUMPDEST PUSH1 0x0 PUSH2 0x149D PUSH2 0x144F PUSH1 0x12 PUSH1 0x0 CALLER PUSH20 0xFFFFFFFFFFFFFFFFFFFFFFFFFFFFFFFFFFFFFFFF AND PUSH20 0xFFFFFFFFFFFFFFFFFFFFFFFFFFFFFFFFFFFFFFFF AND DUP2 MSTORE PUSH1 0x20 ADD SWAP1 DUP2 MSTORE PUSH1 0x20 ADD PUSH1 0x0 KECCAK256 SLOAD PUSH2 0x1441 PUSH1 0xD SLOAD PUSH1 0x3 SLOAD PUSH2 0x1761 SWAP1 SWAP2 SWAP1 PUSH4 0xFFFFFFFF AND JUMP JUMPDEST PUSH2 0x1761 SWAP1 SWAP2 SWAP1 PUSH4 0xFFFFFFFF AND JUMP JUMPDEST PUSH1 0x12 PUSH1 0x0 CALLER PUSH20 0xFFFFFFFFFFFFFFFFFFFFFFFFFFFFFFFFFFFFFFFF AND PUSH20 0xFFFFFFFFFFFFFFFFFFFFFFFFFFFFFFFFFFFFFFFF AND DUP2 MSTORE PUSH1 0x20 ADD SWAP1 DUP2 MSTORE PUSH1 0x20 ADD PUSH1 0x0 KECCAK256 SLOAD PUSH2 0x181F SWAP1 SWAP2 SWAP1 PUSH4 0xFFFFFFFF AND JUMP JUMPDEST SWAP1 POP DUP1 SELFBALANCE LT ISZERO PUSH2 0x14B0 JUMPI PUSH2 0x14AF PUSH2 0x1B96 JUMP JUMPDEST JUMPDEST CALLER PUSH20 0xFFFFFFFFFFFFFFFFFFFFFFFFFFFFFFFFFFFFFFFF AND PUSH2 0x8FC DUP3 SWAP1 DUP2 ISZERO MUL SWAP1 PUSH1 0x40 MLOAD PUSH1 0x0 PUSH1 0x40 MLOAD DUP1 DUP4 SUB DUP2 DUP6 DUP9 DUP9 CALL SWAP4 POP POP POP POP ISZERO DUP1 ISZERO PUSH2 0x14F6 JUMPI RETURNDATASIZE PUSH1 0x0 DUP1 RETURNDATACOPY RETURNDATASIZE PUSH1 0x0 REVERT JUMPDEST POP TIMESTAMP DUP2 CALLER PUSH20 0xFFFFFFFFFFFFFFFFFFFFFFFFFFFFFFFFFFFFFFFF AND PUSH32 0x52F6685DF2F773F854B17DB1D82E2352E222010DAAF8175761F02EF8782C403 PUSH1 0x40 MLOAD PUSH1 0x40 MLOAD DUP1 SWAP2 SUB SWAP1 LOG4 PUSH1 0x0 SELFBALANCE SUB PUSH2 0x1619 JUMPI PUSH1 0x0 PUSH1 0xC PUSH1 0x0 PUSH2 0x100 EXP DUP2 SLOAD DUP2 PUSH1 0xFF MUL NOT AND SWAP1 DUP4 ISZERO ISZERO MUL OR SWAP1 SSTORE POP TIMESTAMP PUSH1 0xC PUSH1 0x0 SWAP1 SLOAD SWAP1 PUSH2 0x100 EXP SWAP1 DIV PUSH1 0xFF AND ISZERO ISZERO PUSH32 0x160914EA27C60AA29A5F3A69D74E6069869DE36E38939DE1E0A66B921D8623D2 PUSH1 0x40 MLOAD PUSH1 0x40 MLOAD DUP1 SWAP2 SUB SWAP1 LOG3 PUSH1 0x3 PUSH1 0x15 PUSH1 0x0 PUSH2 0x100 EXP DUP2 SLOAD DUP2 PUSH1 0xFF MUL NOT AND SWAP1 DUP4 PUSH1 0x5 DUP2 GT ISZERO PUSH2 0x15C4 JUMPI PUSH2 0x15C3 PUSH2 0x1A6D JUMP JUMPDEST JUMPDEST MUL OR SWAP1 SSTORE POP TIMESTAMP PUSH1 0x15 PUSH1 0x0 SWAP1 SLOAD SWAP1 PUSH2 0x100 EXP SWAP1 DIV PUSH1 0xFF AND PUSH1 0x5 DUP2 GT ISZERO PUSH2 0x15EC JUMPI PUSH2 0x15EB PUSH2 0x1A6D JUMP JUMPDEST JUMPDEST PUSH32 0xAAAE373901E745122C2E0925AD006227969C6CD190B7D5EA2FB7FDBD1D955B35 PUSH1 0x40 MLOAD PUSH1 0x40 MLOAD DUP1 SWAP2 SUB SWAP1 LOG3 JUMPDEST POP JUMP JUMPDEST PUSH1 0x0 PUSH1 0x60 PUSH1 0x0 DUP1 PUSH1 0x0 DUP1 PUSH1 0x0 DUP1 PUSH1 0x0 DUP1 PUSH1 0x0 PUSH1 0x1 PUSH1 0x0 SWAP1 SLOAD SWAP1 PUSH2 0x100 EXP SWAP1 DIV PUSH20 0xFFFFFFFFFFFFFFFFFFFFFFFFFFFFFFFFFFFFFFFF AND PUSH1 0xB PUSH1 0x2 SLOAD PUSH1 0x6 SLOAD PUSH1 0x8 SLOAD PUSH1 0x7 SLOAD PUSH1 0x5 SLOAD PUSH1 0x3 SLOAD PUSH1 0x15 PUSH1 0x0 SWAP1 SLOAD SWAP1 PUSH2 0x100 EXP SWAP1 DIV PUSH1 0xFF AND PUSH1 0xC PUSH1 0x0 SWAP1 SLOAD SWAP1 PUSH2 0x100 EXP SWAP1 DIV PUSH1 0xFF AND SELFBALANCE DUP10 DUP1 SLOAD PUSH2 0x1692 SWAP1 PUSH2 0x1C94 JUMP JUMPDEST DUP1 PUSH1 0x1F ADD PUSH1 0x20 DUP1 SWAP2 DIV MUL PUSH1 0x20 ADD PUSH1 0x40 MLOAD SWAP1 DUP2 ADD PUSH1 0x40 MSTORE DUP1 SWAP3 SWAP2 SWAP1 DUP2 DUP2 MSTORE PUSH1 0x20 ADD DUP3 DUP1 SLOAD PUSH2 0x16BE SWAP1 PUSH2 0x1C94 JUMP JUMPDEST DUP1 ISZERO PUSH2 0x170B JUMPI DUP1 PUSH1 0x1F LT PUSH2 0x16E0 JUMPI PUSH2 0x100 DUP1 DUP4 SLOAD DIV MUL DUP4 MSTORE SWAP2 PUSH1 0x20 ADD SWAP2 PUSH2 0x170B JUMP JUMPDEST DUP3 ADD SWAP2 SWAP1 PUSH1 0x0 MSTORE PUSH1 0x20 PUSH1 0x0 KECCAK256 SWAP1 JUMPDEST DUP2 SLOAD DUP2 MSTORE SWAP1 PUSH1 0x1 ADD SWAP1 PUSH1 0x20 ADD DUP1 DUP4 GT PUSH2 0x16EE JUMPI DUP3 SWAP1 SUB PUSH1 0x1F AND DUP3 ADD SWAP2 JUMPDEST POP POP POP POP POP SWAP10 POP SWAP11 POP SWAP11 POP SWAP11 POP SWAP11 POP SWAP11 POP SWAP11 POP SWAP11 POP SWAP11 POP SWAP11 POP SWAP11 POP SWAP11 POP SWAP1 SWAP2 SWAP3 SWAP4 SWAP5 SWAP6 SWAP7 SWAP8 SWAP9 SWAP10 SWAP11 JUMP JUMPDEST PUSH1 0x0 DUP1 DUP3 DUP5 PUSH2 0x1744 SWAP2 SWAP1 PUSH2 0x1CC5 JUMP JUMPDEST SWAP1 POP DUP4 DUP2 LT ISZERO PUSH2 0x1757 JUMPI PUSH2 0x1756 PUSH2 0x1B96 JUMP JUMPDEST JUMPDEST DUP1 SWAP2 POP POP SWAP3 SWAP2 POP POP JUMP JUMPDEST PUSH1 0x0 DUP1 DUP3 DUP5 PUSH2 0x1770 SWAP2 SWAP1 PUSH2 0x1D28 JUMP JUMPDEST SWAP1 POP DUP1 SWAP2 POP POP SWAP3 SWAP2 POP POP JUMP JUMPDEST PUSH1 0x0 DUP3 DUP3 GT ISZERO PUSH2 0x178F JUMPI PUSH2 0x178E PUSH2 0x1B96 JUMP JUMPDEST JUMPDEST DUP2 DUP4 PUSH2 0x179B SWAP2 SWAP1 PUSH2 0x1D59 JUMP JUMPDEST SWAP1 POP SWAP3 SWAP2 POP POP JUMP JUMPDEST PUSH1 0x4 PUSH1 0x15 PUSH1 0x0 PUSH2 0x100 EXP DUP2 SLOAD DUP2 PUSH1 0xFF MUL NOT AND SWAP1 DUP4 PUSH1 0x5 DUP2 GT ISZERO PUSH2 0x17C9 JUMPI PUSH2 0x17C8 PUSH2 0x1A6D JUMP JUMPDEST JUMPDEST MUL OR SWAP1 SSTORE POP TIMESTAMP PUSH1 0x15 PUSH1 0x0 SWAP1 SLOAD SWAP1 PUSH2 0x100 EXP SWAP1 DIV PUSH1 0xFF AND PUSH1 0x5 DUP2 GT ISZERO PUSH2 0x17F1 JUMPI PUSH2 0x17F0 PUSH2 0x1A6D JUMP JUMPDEST JUMPDEST PUSH32 0xAAAE373901E745122C2E0925AD006227969C6CD190B7D5EA2FB7FDBD1D955B35 PUSH1 0x40 MLOAD PUSH1 0x40 MLOAD DUP1 SWAP2 SUB SWAP1 LOG3 JUMP JUMPDEST PUSH1 0x0 DUP1 DUP4 SUB PUSH2 0x1831 JUMPI PUSH1 0x0 SWAP1 POP PUSH2 0x1861 JUMP JUMPDEST PUSH1 0x0 DUP3 DUP5 PUSH2 0x183F SWAP2 SWAP1 PUSH2 0x1D8D JUMP JUMPDEST SWAP1 POP DUP3 DUP5 DUP3 PUSH2 0x184E SWAP2 SWAP1 PUSH2 0x1D28 JUMP JUMPDEST EQ PUSH2 0x185C JUMPI PUSH2 0x185B PUSH2 0x1B96 JUMP JUMPDEST JUMPDEST DUP1 SWAP2 POP POP JUMPDEST SWAP3 SWAP2 POP POP JUMP JUMPDEST PUSH1 0x0 DUP2 SWAP1 POP SWAP2 SWAP1 POP JUMP JUMPDEST PUSH2 0x187A DUP2 PUSH2 0x1867 JUMP JUMPDEST DUP3 MSTORE POP POP JUMP JUMPDEST PUSH1 0x0 PUSH1 0x20 DUP3 ADD SWAP1 POP PUSH2 0x1895 PUSH1 0x0 DUP4 ADD DUP5 PUSH2 0x1871 JUMP JUMPDEST SWAP3 SWAP2 POP POP JUMP JUMPDEST PUSH1 0x0 DUP1 REVERT JUMPDEST PUSH1 0x6 DUP2 LT PUSH2 0x18AD JUMPI PUSH1 0x0 DUP1 REVERT JUMPDEST POP JUMP JUMPDEST PUSH1 0x0 DUP2 CALLDATALOAD SWAP1 POP PUSH2 0x18BF DUP2 PUSH2 0x18A0 JUMP JUMPDEST SWAP3 SWAP2 POP POP JUMP JUMPDEST PUSH1 0x0 PUSH1 0x20 DUP3 DUP5 SUB SLT ISZERO PUSH2 0x18DB JUMPI PUSH2 0x18DA PUSH2 0x189B JUMP JUMPDEST JUMPDEST PUSH1 0x0 PUSH2 0x18E9 DUP5 DUP3 DUP6 ADD PUSH2 0x18B0 JUMP JUMPDEST SWAP2 POP POP SWAP3 SWAP2 POP POP JUMP JUMPDEST PUSH1 0x0 PUSH20 0xFFFFFFFFFFFFFFFFFFFFFFFFFFFFFFFFFFFFFFFF DUP3 AND SWAP1 POP SWAP2 SWAP1 POP JUMP JUMPDEST PUSH1 0x0 PUSH2 0x191D DUP3 PUSH2 0x18F2 JUMP JUMPDEST SWAP1 POP SWAP2 SWAP1 POP JUMP JUMPDEST PUSH2 0x192D DUP2 PUSH2 0x1912 JUMP JUMPDEST DUP2 EQ PUSH2 0x1938 JUMPI PUSH1 0x0 DUP1 REVERT JUMPDEST POP JUMP JUMPDEST PUSH1 0x0 DUP2 CALLDATALOAD SWAP1 POP PUSH2 0x194A DUP2 PUSH2 0x1924 JUMP JUMPDEST SWAP3 SWAP2 POP POP JUMP JUMPDEST PUSH1 0x0 PUSH1 0x20 DUP3 DUP5 SUB SLT ISZERO PUSH2 0x1966 JUMPI PUSH2 0x1965 PUSH2 0x189B JUMP JUMPDEST JUMPDEST PUSH1 0x0 PUSH2 0x1974 DUP5 DUP3 DUP6 ADD PUSH2 0x193B JUMP JUMPDEST SWAP2 POP POP SWAP3 SWAP2 POP POP JUMP JUMPDEST PUSH1 0x0 DUP2 ISZERO ISZERO SWAP1 POP SWAP2 SWAP1 POP JUMP JUMPDEST PUSH2 0x1992 DUP2 PUSH2 0x197D JUMP JUMPDEST DUP3 MSTORE POP POP JUMP JUMPDEST PUSH1 0x0 PUSH1 0x20 DUP3 ADD SWAP1 POP PUSH2 0x19AD PUSH1 0x0 DUP4 ADD DUP5 PUSH2 0x1989 JUMP JUMPDEST SWAP3 SWAP2 POP POP JUMP JUMPDEST PUSH2 0x19BC DUP2 PUSH2 0x1912 JUMP JUMPDEST DUP3 MSTORE POP POP JUMP JUMPDEST PUSH1 0x0 PUSH1 0x20 DUP3 ADD SWAP1 POP PUSH2 0x19D7 PUSH1 0x0 DUP4 ADD DUP5 PUSH2 0x19B3 JUMP JUMPDEST SWAP3 SWAP2 POP POP JUMP JUMPDEST PUSH1 0x0 DUP2 MLOAD SWAP1 POP SWAP2 SWAP1 POP JUMP JUMPDEST PUSH1 0x0 DUP3 DUP3 MSTORE PUSH1 0x20 DUP3 ADD SWAP1 POP SWAP3 SWAP2 POP POP JUMP JUMPDEST PUSH1 0x0 JUMPDEST DUP4 DUP2 LT ISZERO PUSH2 0x1A17 JUMPI DUP1 DUP3 ADD MLOAD DUP2 DUP5 ADD MSTORE PUSH1 0x20 DUP2 ADD SWAP1 POP PUSH2 0x19FC JUMP JUMPDEST PUSH1 0x0 DUP5 DUP5 ADD MSTORE POP POP POP POP JUMP JUMPDEST PUSH1 0x0 PUSH1 0x1F NOT PUSH1 0x1F DUP4 ADD AND SWAP1 POP SWAP2 SWAP1 POP JUMP JUMPDEST PUSH1 0x0 PUSH2 0x1A3F DUP3 PUSH2 0x19DD JUMP JUMPDEST PUSH2 0x1A49 DUP2 DUP6 PUSH2 0x19E8 JUMP JUMPDEST SWAP4 POP PUSH2 0x1A59 DUP2 DUP6 PUSH1 0x20 DUP7 ADD PUSH2 0x19F9 JUMP JUMPDEST PUSH2 0x1A62 DUP2 PUSH2 0x1A23 JUMP JUMPDEST DUP5 ADD SWAP2 POP POP SWAP3 SWAP2 POP POP JUMP JUMPDEST PUSH32 0x4E487B7100000000000000000000000000000000000000000000000000000000 PUSH1 0x0 MSTORE PUSH1 0x21 PUSH1 0x4 MSTORE PUSH1 0x24 PUSH1 0x0 REVERT JUMPDEST PUSH1 0x6 DUP2 LT PUSH2 0x1AAD JUMPI PUSH2 0x1AAC PUSH2 0x1A6D JUMP JUMPDEST JUMPDEST POP JUMP JUMPDEST PUSH1 0x0 DUP2 SWAP1 POP PUSH2 0x1ABE DUP3 PUSH2 0x1A9C JUMP JUMPDEST SWAP2 SWAP1 POP JUMP JUMPDEST PUSH1 0x0 PUSH2 0x1ACE DUP3 PUSH2 0x1AB0 JUMP JUMPDEST SWAP1 POP SWAP2 SWAP1 POP JUMP JUMPDEST PUSH2 0x1ADE DUP2 PUSH2 0x1AC3 JUMP JUMPDEST DUP3 MSTORE POP POP JUMP JUMPDEST PUSH1 0x0 PUSH2 0x160 DUP3 ADD SWAP1 POP PUSH2 0x1AFA PUSH1 0x0 DUP4 ADD DUP15 PUSH2 0x19B3 JUMP JUMPDEST DUP2 DUP2 SUB PUSH1 0x20 DUP4 ADD MSTORE PUSH2 0x1B0C DUP2 DUP14 PUSH2 0x1A34 JUMP JUMPDEST SWAP1 POP PUSH2 0x1B1B PUSH1 0x40 DUP4 ADD DUP13 PUSH2 0x1871 JUMP JUMPDEST PUSH2 0x1B28 PUSH1 0x60 DUP4 ADD DUP12 PUSH2 0x1871 JUMP JUMPDEST PUSH2 0x1B35 PUSH1 0x80 DUP4 ADD DUP11 PUSH2 0x1871 JUMP JUMPDEST PUSH2 0x1B42 PUSH1 0xA0 DUP4 ADD DUP10 PUSH2 0x1871 JUMP JUMPDEST PUSH2 0x1B4F PUSH1 0xC0 DUP4 ADD DUP9 PUSH2 0x1871 JUMP JUMPDEST PUSH2 0x1B5C PUSH1 0xE0 DUP4 ADD DUP8 PUSH2 0x1871 JUMP JUMPDEST PUSH2 0x1B6A PUSH2 0x100 DUP4 ADD DUP7 PUSH2 0x1AD5 JUMP JUMPDEST PUSH2 0x1B78 PUSH2 0x120 DUP4 ADD DUP6 PUSH2 0x1989 JUMP JUMPDEST PUSH2 0x1B86 PUSH2 0x140 DUP4 ADD DUP5 PUSH2 0x1871 JUMP JUMPDEST SWAP13 SWAP12 POP POP POP POP POP POP POP POP POP POP POP POP JUMP JUMPDEST PUSH32 0x4E487B7100000000000000000000000000000000000000000000000000000000 PUSH1 0x0 MSTORE PUSH1 0x1 PUSH1 0x4 MSTORE PUSH1 0x24 PUSH1 0x0 REVERT JUMPDEST PUSH32 0x4E487B7100000000000000000000000000000000000000000000000000000000 PUSH1 0x0 MSTORE PUSH1 0x11 PUSH1 0x4 MSTORE PUSH1 0x24 PUSH1 0x0 REVERT JUMPDEST PUSH1 0x0 PUSH2 0x1BFF DUP3 PUSH2 0x1867 JUMP JUMPDEST SWAP2 POP PUSH1 0x0 DUP3 SUB PUSH2 0x1C12 JUMPI PUSH2 0x1C11 PUSH2 0x1BC5 JUMP JUMPDEST JUMPDEST PUSH1 0x1 DUP3 SUB SWAP1 POP SWAP2 SWAP1 POP JUMP JUMPDEST PUSH1 0x0 PUSH2 0x1C28 DUP3 PUSH2 0x1867 JUMP JUMPDEST SWAP2 POP PUSH32 0xFFFFFFFFFFFFFFFFFFFFFFFFFFFFFFFFFFFFFFFFFFFFFFFFFFFFFFFFFFFFFFFF DUP3 SUB PUSH2 0x1C5A JUMPI PUSH2 0x1C59 PUSH2 0x1BC5 JUMP JUMPDEST JUMPDEST PUSH1 0x1 DUP3 ADD SWAP1 POP SWAP2 SWAP1 POP JUMP JUMPDEST PUSH32 0x4E487B7100000000000000000000000000000000000000000000000000000000 PUSH1 0x0 MSTORE PUSH1 0x22 PUSH1 0x4 MSTORE PUSH1 0x24 PUSH1 0x0 REVERT JUMPDEST PUSH1 0x0 PUSH1 0x2 DUP3 DIV SWAP1 POP PUSH1 0x1 DUP3 AND DUP1 PUSH2 0x1CAC JUMPI PUSH1 0x7F DUP3 AND SWAP2 POP JUMPDEST PUSH1 0x20 DUP3 LT DUP2 SUB PUSH2 0x1CBF JUMPI PUSH2 0x1CBE PUSH2 0x1C65 JUMP JUMPDEST JUMPDEST POP SWAP2 SWAP1 POP JUMP JUMPDEST PUSH1 0x0 PUSH2 0x1CD0 DUP3 PUSH2 0x1867 JUMP JUMPDEST SWAP2 POP PUSH2 0x1CDB DUP4 PUSH2 0x1867 JUMP JUMPDEST SWAP3 POP DUP3 DUP3 ADD SWAP1 POP DUP1 DUP3 GT ISZERO PUSH2 0x1CF3 JUMPI PUSH2 0x1CF2 PUSH2 0x1BC5 JUMP JUMPDEST JUMPDEST SWAP3 SWAP2 POP POP JUMP JUMPDEST PUSH32 0x4E487B7100000000000000000000000000000000000000000000000000000000 PUSH1 0x0 MSTORE PUSH1 0x12 PUSH1 0x4 MSTORE PUSH1 0x24 PUSH1 0x0 REVERT JUMPDEST PUSH1 0x0 PUSH2 0x1D33 DUP3 PUSH2 0x1867 JUMP JUMPDEST SWAP2 POP PUSH2 0x1D3E DUP4 PUSH2 0x1867 JUMP JUMPDEST SWAP3 POP DUP3 PUSH2 0x1D4E JUMPI PUSH2 0x1D4D PUSH2 0x1CF9 JUMP JUMPDEST JUMPDEST DUP3 DUP3 DIV SWAP1 POP SWAP3 SWAP2 POP POP JUMP JUMPDEST PUSH1 0x0 PUSH2 0x1D64 DUP3 PUSH2 0x1867 JUMP JUMPDEST SWAP2 POP PUSH2 0x1D6F DUP4 PUSH2 0x1867 JUMP JUMPDEST SWAP3 POP DUP3 DUP3 SUB SWAP1 POP DUP2 DUP2 GT ISZERO PUSH2 0x1D87 JUMPI PUSH2 0x1D86 PUSH2 0x1BC5 JUMP JUMPDEST JUMPDEST SWAP3 SWAP2 POP POP JUMP JUMPDEST PUSH1 0x0 PUSH2 0x1D98 DUP3 PUSH2 0x1867 JUMP JUMPDEST SWAP2 POP PUSH2 0x1DA3 DUP4 PUSH2 0x1867 JUMP JUMPDEST SWAP3 POP DUP3 DUP3 MUL PUSH2 0x1DB1 DUP2 PUSH2 0x1867 JUMP JUMPDEST SWAP2 POP DUP3 DUP3 DIV DUP5 EQ DUP4 ISZERO OR PUSH2 0x1DC8 JUMPI PUSH2 0x1DC7 PUSH2 0x1BC5 JUMP JUMPDEST JUMPDEST POP SWAP3 SWAP2 POP POP JUMP INVALID LOG2 PUSH5 0x6970667358 0x22 SLT KECCAK256 0xDA MSTORE8 0xB0 0xE3 DUP16 0xE9 ORIGIN 0x5F MSIZE 0xC2 RETURNDATACOPY KECCAK256 0x5F CALLVALUE CREATE2 PUSH29 0x234BA9C30B654C400C1B39582F0EE6A464736F6C634300081200330000 "
				},
				"gasEstimates": {
					"creation": {
						"codeDepositCost": "1537000",
						"executionCost": "infinite",
						"totalCost": "infinite"
					},
					"external": {
						"changeState(uint8)": "30556",
						"fraudVote()": "34983",
						"getBalance()": "362",
						"getCreditInfo()": "infinite",
						"invest()": "infinite",
						"lenders(address)": "2912",
						"owner()": "2578",
						"refund()": "infinite",
						"repay()": "infinite",
						"requestInterest()": "infinite",
						"revokeVote()": "71548",
						"toggleActive()": "34818",
						"withDraw()": "infinite"
					},
					"internal": {
						"revokee()": "27999"
					}
				},
				"methodIdentifiers": {
					"changeState(uint8)": "268f1153",
					"fraudVote()": "d85da7b6",
					"getBalance()": "12065fe0",
					"getCreditInfo()": "f06817cf",
					"invest()": "e8b5e51f",
					"lenders(address)": "28fd10d7",
					"owner()": "8da5cb5b",
					"refund()": "590e1ae3",
					"repay()": "402d8883",
					"requestInterest()": "efd475ab",
					"revokeVote()": "43c14b22",
					"toggleActive()": "29c68dc1",
					"withDraw()": "0fdb1c10"
				}
			},
			"storageLayout": {
				"storage": [
					{
						"astId": 1007,
						"contract": "Project Module 2/Credit.sol:Credit",
						"label": "owner",
						"offset": 0,
						"slot": "0",
						"type": "t_address"
					},
					{
						"astId": 10,
						"contract": "Project Module 2/Credit.sol:Credit",
						"label": "borrower",
						"offset": 0,
						"slot": "1",
						"type": "t_address"
					},
					{
						"astId": 12,
						"contract": "Project Module 2/Credit.sol:Credit",
						"label": "requestedAmount",
						"offset": 0,
						"slot": "2",
						"type": "t_uint256"
					},
					{
						"astId": 14,
						"contract": "Project Module 2/Credit.sol:Credit",
						"label": "returnAmount",
						"offset": 0,
						"slot": "3",
						"type": "t_uint256"
					},
					{
						"astId": 16,
						"contract": "Project Module 2/Credit.sol:Credit",
						"label": "repaidAmount",
						"offset": 0,
						"slot": "4",
						"type": "t_uint256"
					},
					{
						"astId": 18,
						"contract": "Project Module 2/Credit.sol:Credit",
						"label": "interest",
						"offset": 0,
						"slot": "5",
						"type": "t_uint256"
					},
					{
						"astId": 20,
						"contract": "Project Module 2/Credit.sol:Credit",
						"label": "requestedRepayments",
						"offset": 0,
						"slot": "6",
						"type": "t_uint256"
					},
					{
						"astId": 22,
						"contract": "Project Module 2/Credit.sol:Credit",
						"label": "remainingRepayments",
						"offset": 0,
						"slot": "7",
						"type": "t_uint256"
					},
					{
						"astId": 24,
						"contract": "Project Module 2/Credit.sol:Credit",
						"label": "repaymentInstallment",
						"offset": 0,
						"slot": "8",
						"type": "t_uint256"
					},
					{
						"astId": 26,
						"contract": "Project Module 2/Credit.sol:Credit",
						"label": "requestedDate",
						"offset": 0,
						"slot": "9",
						"type": "t_uint256"
					},
					{
						"astId": 28,
						"contract": "Project Module 2/Credit.sol:Credit",
						"label": "lastRepaymentDate",
						"offset": 0,
						"slot": "10",
						"type": "t_uint256"
					},
					{
						"astId": 30,
						"contract": "Project Module 2/Credit.sol:Credit",
						"label": "description",
						"offset": 0,
						"slot": "11",
						"type": "t_bytes_storage"
					},
					{
						"astId": 33,
						"contract": "Project Module 2/Credit.sol:Credit",
						"label": "active",
						"offset": 0,
						"slot": "12",
						"type": "t_bool"
					},
					{
						"astId": 36,
						"contract": "Project Module 2/Credit.sol:Credit",
						"label": "lendersCount",
						"offset": 0,
						"slot": "13",
						"type": "t_uint256"
					},
					{
						"astId": 39,
						"contract": "Project Module 2/Credit.sol:Credit",
						"label": "revokeVotes",
						"offset": 0,
						"slot": "14",
						"type": "t_uint256"
					},
					{
						"astId": 45,
						"contract": "Project Module 2/Credit.sol:Credit",
						"label": "revoke",
						"offset": 0,
						"slot": "15",
						"type": "t_uint256"
					},
					{
						"astId": 48,
						"contract": "Project Module 2/Credit.sol:Credit",
						"label": "fraudVotes",
						"offset": 0,
						"slot": "16",
						"type": "t_uint256"
					},
					{
						"astId": 52,
						"contract": "Project Module 2/Credit.sol:Credit",
						"label": "lenders",
						"offset": 0,
						"slot": "17",
						"type": "t_mapping(t_address,t_bool)"
					},
					{
						"astId": 56,
						"contract": "Project Module 2/Credit.sol:Credit",
						"label": "lendersInvestedAmount",
						"offset": 0,
						"slot": "18",
						"type": "t_mapping(t_address,t_uint256)"
					},
					{
						"astId": 60,
						"contract": "Project Module 2/Credit.sol:Credit",
						"label": "revokeVoters",
						"offset": 0,
						"slot": "19",
						"type": "t_mapping(t_address,t_bool)"
					},
					{
						"astId": 64,
						"contract": "Project Module 2/Credit.sol:Credit",
						"label": "fraudVoters",
						"offset": 0,
						"slot": "20",
						"type": "t_mapping(t_address,t_bool)"
					},
					{
						"astId": 74,
						"contract": "Project Module 2/Credit.sol:Credit",
						"label": "state",
						"offset": 0,
						"slot": "21",
						"type": "t_enum(State)71"
					}
				],
				"types": {
					"t_address": {
						"encoding": "inplace",
						"label": "address",
						"numberOfBytes": "20"
					},
					"t_bool": {
						"encoding": "inplace",
						"label": "bool",
						"numberOfBytes": "1"
					},
					"t_bytes_storage": {
						"encoding": "bytes",
						"label": "bytes",
						"numberOfBytes": "32"
					},
					"t_enum(State)71": {
						"encoding": "inplace",
						"label": "enum Credit.State",
						"numberOfBytes": "1"
					},
					"t_mapping(t_address,t_bool)": {
						"encoding": "mapping",
						"key": "t_address",
						"label": "mapping(address => bool)",
						"numberOfBytes": "32",
						"value": "t_bool"
					},
					"t_mapping(t_address,t_uint256)": {
						"encoding": "mapping",
						"key": "t_address",
						"label": "mapping(address => uint256)",
						"numberOfBytes": "32",
						"value": "t_uint256"
					},
					"t_uint256": {
						"encoding": "inplace",
						"label": "uint256",
						"numberOfBytes": "32"
					}
				}
			},
			"userdoc": {
				"kind": "user",
				"methods": {},
				"version": 1
			}
		}
	}
}