{
	"Project Module 2/Credit.sol": {
		"Credit": {
			"abi": [
				{
					"inputs": [
						{
							"internalType": "uint256",
							"name": "_requestedAmount",
							"type": "uint256"
						},
						{
							"internalType": "uint256",
							"name": "_requestedRepayments",
							"type": "uint256"
						},
						{
							"internalType": "uint256",
							"name": "_interest",
							"type": "uint256"
						},
						{
							"internalType": "bytes",
							"name": "_description",
							"type": "bytes"
						}
					],
					"stateMutability": "nonpayable",
					"type": "constructor"
				},
				{
					"anonymous": false,
					"inputs": [
						{
							"indexed": true,
							"internalType": "address",
							"name": "_address",
							"type": "address"
						},
						{
							"indexed": true,
							"internalType": "uint256",
							"name": "_amount",
							"type": "uint256"
						},
						{
							"indexed": true,
							"internalType": "uint256",
							"name": "timestamp",
							"type": "uint256"
						}
					],
					"name": "LogBorrowerChangeReturned",
					"type": "event"
				},
				{
					"anonymous": false,
					"inputs": [
						{
							"indexed": true,
							"internalType": "address",
							"name": "_address",
							"type": "address"
						},
						{
							"indexed": true,
							"internalType": "uint256",
							"name": "timestamp",
							"type": "uint256"
						}
					],
					"name": "LogBorrowerRepaymentFinished",
					"type": "event"
				},
				{
					"anonymous": false,
					"inputs": [
						{
							"indexed": true,
							"internalType": "address",
							"name": "_address",
							"type": "address"
						},
						{
							"indexed": true,
							"internalType": "uint256",
							"name": "_amount",
							"type": "uint256"
						},
						{
							"indexed": true,
							"internalType": "uint256",
							"name": "timestamp",
							"type": "uint256"
						}
					],
					"name": "LogBorrowerRepaymentInstallment",
					"type": "event"
				},
				{
					"anonymous": false,
					"inputs": [
						{
							"indexed": true,
							"internalType": "address",
							"name": "_address",
							"type": "address"
						},
						{
							"indexed": true,
							"internalType": "uint256",
							"name": "_amount",
							"type": "uint256"
						},
						{
							"indexed": true,
							"internalType": "uint256",
							"name": "timestamp",
							"type": "uint256"
						}
					],
					"name": "LogBorrowerWithdrawal",
					"type": "event"
				},
				{
					"anonymous": false,
					"inputs": [
						{
							"indexed": true,
							"internalType": "address",
							"name": "state",
							"type": "address"
						},
						{
							"indexed": true,
							"internalType": "uint256",
							"name": "timestamp",
							"type": "uint256"
						}
					],
					"name": "LogCreditInitialized",
					"type": "event"
				},
				{
					"anonymous": false,
					"inputs": [
						{
							"indexed": true,
							"internalType": "bool",
							"name": "active",
							"type": "bool"
						},
						{
							"indexed": true,
							"internalType": "uint256",
							"name": "timestamp",
							"type": "uint256"
						}
					],
					"name": "LogCreditStateActiveChanged",
					"type": "event"
				},
				{
					"anonymous": false,
					"inputs": [
						{
							"indexed": true,
							"internalType": "enum Credit.State",
							"name": "state",
							"type": "uint8"
						},
						{
							"indexed": true,
							"internalType": "uint256",
							"name": "timestamp",
							"type": "uint256"
						}
					],
					"name": "LogCreditStateChanged",
					"type": "event"
				},
				{
					"anonymous": false,
					"inputs": [
						{
							"indexed": true,
							"internalType": "address",
							"name": "_address",
							"type": "address"
						},
						{
							"indexed": true,
							"internalType": "uint256",
							"name": "_amount",
							"type": "uint256"
						},
						{
							"indexed": true,
							"internalType": "uint256",
							"name": "timestamp",
							"type": "uint256"
						}
					],
					"name": "LogLenderChangeReturned",
					"type": "event"
				},
				{
					"anonymous": false,
					"inputs": [
						{
							"indexed": true,
							"internalType": "address",
							"name": "_address",
							"type": "address"
						},
						{
							"indexed": true,
							"internalType": "uint256",
							"name": "_amount",
							"type": "uint256"
						},
						{
							"indexed": true,
							"internalType": "uint256",
							"name": "timestamp",
							"type": "uint256"
						}
					],
					"name": "LogLenderInvestment",
					"type": "event"
				},
				{
					"anonymous": false,
					"inputs": [
						{
							"indexed": true,
							"internalType": "address",
							"name": "_address",
							"type": "address"
						},
						{
							"indexed": true,
							"internalType": "uint256",
							"name": "_amount",
							"type": "uint256"
						},
						{
							"indexed": true,
							"internalType": "uint256",
							"name": "timestamp",
							"type": "uint256"
						}
					],
					"name": "LogLenderRefunded",
					"type": "event"
				},
				{
					"anonymous": false,
					"inputs": [
						{
							"indexed": true,
							"internalType": "address",
							"name": "_address",
							"type": "address"
						},
						{
							"indexed": true,
							"internalType": "uint256",
							"name": "timestamp",
							"type": "uint256"
						}
					],
					"name": "LogLenderVoteForFraud",
					"type": "event"
				},
				{
					"anonymous": false,
					"inputs": [
						{
							"indexed": true,
							"internalType": "address",
							"name": "_address",
							"type": "address"
						},
						{
							"indexed": true,
							"internalType": "uint256",
							"name": "timestamp",
							"type": "uint256"
						}
					],
					"name": "LogLenderVoteForRevoking",
					"type": "event"
				},
				{
					"anonymous": false,
					"inputs": [
						{
							"indexed": true,
							"internalType": "address",
							"name": "_address",
							"type": "address"
						},
						{
							"indexed": true,
							"internalType": "uint256",
							"name": "_amount",
							"type": "uint256"
						},
						{
							"indexed": true,
							"internalType": "uint256",
							"name": "timestamp",
							"type": "uint256"
						}
					],
					"name": "LogLenderWithdrawal",
					"type": "event"
				},
				{
					"anonymous": false,
					"inputs": [
						{
							"indexed": true,
							"internalType": "address",
							"name": "_currentOwner",
							"type": "address"
						},
						{
							"indexed": true,
							"internalType": "address",
							"name": "_newOwner",
							"type": "address"
						}
					],
					"name": "LogOwnershipTransfered",
					"type": "event"
				},
				{
					"inputs": [
						{
							"internalType": "enum Credit.State",
							"name": "_state",
							"type": "uint8"
						}
					],
					"name": "changeState",
					"outputs": [],
					"stateMutability": "nonpayable",
					"type": "function"
				},
				{
					"inputs": [],
					"name": "getBalance",
					"outputs": [
						{
							"internalType": "uint256",
							"name": "",
							"type": "uint256"
						}
					],
					"stateMutability": "view",
					"type": "function"
				},
				{
					"inputs": [],
					"name": "invest",
					"outputs": [],
					"stateMutability": "payable",
					"type": "function"
				},
				{
					"inputs": [
						{
							"internalType": "address",
							"name": "",
							"type": "address"
						}
					],
					"name": "lenders",
					"outputs": [
						{
							"internalType": "bool",
							"name": "",
							"type": "bool"
						}
					],
					"stateMutability": "view",
					"type": "function"
				},
				{
					"inputs": [],
					"name": "owner",
					"outputs": [
						{
							"internalType": "address",
							"name": "",
							"type": "address"
						}
					],
					"stateMutability": "view",
					"type": "function"
				},
				{
					"inputs": [],
					"name": "toggleActive",
					"outputs": [
						{
							"internalType": "bool",
							"name": "",
							"type": "bool"
						}
					],
					"stateMutability": "nonpayable",
					"type": "function"
				}
			],
			"devdoc": {
				"kind": "dev",
				"methods": {},
				"version": 1
			},
			"evm": {
				"assembly": "    /* \"Project Module 2/Credit.sol\":108:5751  contract Credit is Ownable {... */\n  mstore(0x40, 0x80)\n    /* \"Project Module 2/Credit.sol\":493:497  true */\n  0x01\n    /* \"Project Module 2/Credit.sol\":479:497  bool active = true */\n  0x0c\n  exp(0x0100, 0x00)\n  dup2\n  sload\n  dup2\n  0xff\n  mul\n  not\n  and\n  swap1\n  dup4\n  iszero\n  iszero\n  mul\n  or\n  swap1\n  sstore\n  pop\n    /* \"Project Module 2/Credit.sol\":526:527  0 */\n  0x00\n    /* \"Project Module 2/Credit.sol\":503:527  uint256 lendersCount = 0 */\n  0x0d\n  sstore\n    /* \"Project Module 2/Credit.sol\":555:556  0 */\n  0x00\n    /* \"Project Module 2/Credit.sol\":533:556  uint256 revokeVotes = 0 */\n  0x0e\n  sstore\n    /* \"Project Module 2/Credit.sol\":607:616  1 seconds */\n  0x01\n    /* \"Project Module 2/Credit.sol\":589:604  block.timestamp */\n  timestamp\n    /* \"Project Module 2/Credit.sol\":589:616  block.timestamp + 1 seconds */\n  tag_1\n  swap2\n  swap1\n  tag_2\n  jump\t// in\ntag_1:\n    /* \"Project Module 2/Credit.sol\":562:616  uint256 revokeTimeNeeded = block.timestamp + 1 seconds */\n  0x0f\n  sstore\n    /* \"Project Module 2/Credit.sol\":643:644  0 */\n  0x00\n    /* \"Project Module 2/Credit.sol\":622:644  uint256 fraudVotes = 0 */\n  0x10\n  sstore\n    /* \"Project Module 2/Credit.sol\":3619:4249  constructor(... */\n  callvalue\n  dup1\n  iszero\n  tag_3\n  jumpi\n  0x00\n  dup1\n  revert\ntag_3:\n  pop\n  mload(0x40)\n  sub(codesize, bytecodeSize)\n  dup1\n  bytecodeSize\n  dup4\n  codecopy\n  dup2\n  dup2\n  add\n  0x40\n  mstore\n  dup2\n  add\n  swap1\n  tag_4\n  swap2\n  swap1\n  tag_5\n  jump\t// in\ntag_4:\n    /* \"Project Module 2/Ownable.sol\":334:344  msg.sender */\n  caller\n    /* \"Project Module 2/Ownable.sol\":326:331  owner */\n  0x00\n  dup1\n    /* \"Project Module 2/Ownable.sol\":326:344  owner = msg.sender */\n  0x0100\n  exp\n  dup2\n  sload\n  dup2\n  0xffffffffffffffffffffffffffffffffffffffff\n  mul\n  not\n  and\n  swap1\n  dup4\n  0xffffffffffffffffffffffffffffffffffffffff\n  and\n  mul\n  or\n  swap1\n  sstore\n  pop\n    /* \"Project Module 2/Credit.sol\":3792:3801  tx.origin */\n  origin\n    /* \"Project Module 2/Credit.sol\":3781:3789  borrower */\n  0x01\n  0x00\n    /* \"Project Module 2/Credit.sol\":3781:3801  borrower = tx.origin */\n  0x0100\n  exp\n  dup2\n  sload\n  dup2\n  0xffffffffffffffffffffffffffffffffffffffff\n  mul\n  not\n  and\n  swap1\n  dup4\n  0xffffffffffffffffffffffffffffffffffffffff\n  and\n  mul\n  or\n  swap1\n  sstore\n  pop\n    /* \"Project Module 2/Credit.sol\":3822:3831  _interest */\n  dup2\n    /* \"Project Module 2/Credit.sol\":3811:3819  interest */\n  0x05\n    /* \"Project Module 2/Credit.sol\":3811:3831  interest = _interest */\n  dup2\n  swap1\n  sstore\n  pop\n    /* \"Project Module 2/Credit.sol\":3859:3875  _requestedAmount */\n  dup4\n    /* \"Project Module 2/Credit.sol\":3841:3856  requestedAmount */\n  0x02\n    /* \"Project Module 2/Credit.sol\":3841:3875  requestedAmount = _requestedAmount */\n  dup2\n  swap1\n  sstore\n  pop\n    /* \"Project Module 2/Credit.sol\":3907:3927  _requestedRepayments */\n  dup3\n    /* \"Project Module 2/Credit.sol\":3885:3904  requestedRepayments */\n  0x06\n    /* \"Project Module 2/Credit.sol\":3885:3927  requestedRepayments = _requestedRepayments */\n  dup2\n  swap1\n  sstore\n  pop\n    /* \"Project Module 2/Credit.sol\":3959:3979  _requestedRepayments */\n  dup3\n    /* \"Project Module 2/Credit.sol\":3937:3956  remainingRepayments */\n  0x07\n    /* \"Project Module 2/Credit.sol\":3937:3979  remainingRepayments = _requestedRepayments */\n  dup2\n  swap1\n  sstore\n  pop\n    /* \"Project Module 2/Credit.sol\":4004:4033  requestedAmount.add(interest) */\n  tag_10\n    /* \"Project Module 2/Credit.sol\":4024:4032  interest */\n  sload(0x05)\n    /* \"Project Module 2/Credit.sol\":4004:4019  requestedAmount */\n  sload(0x02)\n    /* \"Project Module 2/Credit.sol\":4004:4023  requestedAmount.add */\n  or(tag_0_36, shl(0x20, tag_11))\n  swap1\n    /* \"Project Module 2/Credit.sol\":4004:4033  requestedAmount.add(interest) */\n  swap2\n  swap1\n  0x20\n  shr\n  jump\t// in\ntag_10:\n    /* \"Project Module 2/Credit.sol\":3989:4001  returnAmount */\n  0x03\n    /* \"Project Module 2/Credit.sol\":3989:4033  returnAmount = requestedAmount.add(interest) */\n  dup2\n  swap1\n  sstore\n  pop\n    /* \"Project Module 2/Credit.sol\":4066:4103  returnAmount.div(requestedRepayments) */\n  tag_12\n    /* \"Project Module 2/Credit.sol\":4083:4102  requestedRepayments */\n  sload(0x06)\n    /* \"Project Module 2/Credit.sol\":4066:4078  returnAmount */\n  sload(0x03)\n    /* \"Project Module 2/Credit.sol\":4066:4082  returnAmount.div */\n  or(tag_0_37, shl(0x20, tag_13))\n  swap1\n    /* \"Project Module 2/Credit.sol\":4066:4103  returnAmount.div(requestedRepayments) */\n  swap2\n  swap1\n  0x20\n  shr\n  jump\t// in\ntag_12:\n    /* \"Project Module 2/Credit.sol\":4043:4063  repaymentInstallment */\n  0x08\n    /* \"Project Module 2/Credit.sol\":4043:4103  repaymentInstallment = returnAmount.div(requestedRepayments) */\n  dup2\n  swap1\n  sstore\n  pop\n    /* \"Project Module 2/Credit.sol\":4127:4139  _description */\n  dup1\n    /* \"Project Module 2/Credit.sol\":4113:4124  description */\n  0x0b\n    /* \"Project Module 2/Credit.sol\":4113:4139  description = _description */\n  swap1\n  dup2\n  tag_14\n  swap2\n  swap1\n  tag_15\n  jump\t// in\ntag_14:\n  pop\n    /* \"Project Module 2/Credit.sol\":4165:4180  block.timestamp */\n  timestamp\n    /* \"Project Module 2/Credit.sol\":4149:4162  requestedDate */\n  0x09\n    /* \"Project Module 2/Credit.sol\":4149:4180  requestedDate = block.timestamp */\n  dup2\n  swap1\n  sstore\n  pop\n    /* \"Project Module 2/Credit.sol\":4226:4241  block.timestamp */\n  timestamp\n    /* \"Project Module 2/Credit.sol\":4216:4224  borrower */\n  0x01\n  0x00\n  swap1\n  sload\n  swap1\n  0x0100\n  exp\n  swap1\n  div\n  0xffffffffffffffffffffffffffffffffffffffff\n  and\n    /* \"Project Module 2/Credit.sol\":4195:4242  LogCreditInitialized(borrower, block.timestamp) */\n  0xffffffffffffffffffffffffffffffffffffffff\n  and\n  0xf9f75c99c0e3522cd19ffc66fd6c94989a3f0821d37d5c5bb176aab904c6335d\n  mload(0x40)\n  mload(0x40)\n  dup1\n  swap2\n  sub\n  swap1\n  log3\n    /* \"Project Module 2/Credit.sol\":3619:4249  constructor(... */\n  pop\n  pop\n  pop\n  pop\n    /* \"Project Module 2/Credit.sol\":108:5751  contract Credit is Ownable {... */\n  jump(tag_16)\n    /* \"Project Module 2/SafeMath.sol\":539:682  function add(uint256 a, uint256 b) internal pure returns (uint256) {... */\ntag_11:\n    /* \"Project Module 2/SafeMath.sol\":597:604  uint256 */\n  0x00\n    /* \"Project Module 2/SafeMath.sol\":616:625  uint256 c */\n  dup1\n    /* \"Project Module 2/SafeMath.sol\":632:633  b */\n  dup3\n    /* \"Project Module 2/SafeMath.sol\":628:629  a */\n  dup5\n    /* \"Project Module 2/SafeMath.sol\":628:633  a + b */\n  tag_18\n  swap2\n  swap1\n  tag_2\n  jump\t// in\ntag_18:\n    /* \"Project Module 2/SafeMath.sol\":616:633  uint256 c = a + b */\n  swap1\n  pop\n    /* \"Project Module 2/SafeMath.sol\":655:656  a */\n  dup4\n    /* \"Project Module 2/SafeMath.sol\":650:651  c */\n  dup2\n    /* \"Project Module 2/SafeMath.sol\":650:656  c >= a */\n  lt\n  iszero\n    /* \"Project Module 2/SafeMath.sol\":643:657  assert(c >= a) */\n  tag_19\n  jumpi\n  tag_20\n  tag_21\n  jump\t// in\ntag_20:\ntag_19:\n    /* \"Project Module 2/SafeMath.sol\":674:675  c */\n  dup1\n    /* \"Project Module 2/SafeMath.sol\":667:675  return c */\n  swap2\n  pop\n  pop\n    /* \"Project Module 2/SafeMath.sol\":539:682  function add(uint256 a, uint256 b) internal pure returns (uint256) {... */\n  swap3\n  swap2\n  pop\n  pop\n  jump\t// out\n    /* \"Project Module 2/SafeMath.sol\":288:407  function div(uint256 a, uint256 b) internal pure returns (uint256) {... */\ntag_13:\n    /* \"Project Module 2/SafeMath.sol\":346:353  uint256 */\n  0x00\n    /* \"Project Module 2/SafeMath.sol\":365:374  uint256 c */\n  dup1\n    /* \"Project Module 2/SafeMath.sol\":381:382  b */\n  dup3\n    /* \"Project Module 2/SafeMath.sol\":377:378  a */\n  dup5\n    /* \"Project Module 2/SafeMath.sol\":377:382  a / b */\n  tag_23\n  swap2\n  swap1\n  tag_24\n  jump\t// in\ntag_23:\n    /* \"Project Module 2/SafeMath.sol\":365:382  uint256 c = a / b */\n  swap1\n  pop\n    /* \"Project Module 2/SafeMath.sol\":399:400  c */\n  dup1\n    /* \"Project Module 2/SafeMath.sol\":392:400  return c */\n  swap2\n  pop\n  pop\n    /* \"Project Module 2/SafeMath.sol\":288:407  function div(uint256 a, uint256 b) internal pure returns (uint256) {... */\n  swap3\n  swap2\n  pop\n  pop\n  jump\t// out\n    /* \"#utility.yul\":7:84   */\ntag_25:\n    /* \"#utility.yul\":44:51   */\n  0x00\n    /* \"#utility.yul\":73:78   */\n  dup2\n    /* \"#utility.yul\":62:78   */\n  swap1\n  pop\n    /* \"#utility.yul\":7:84   */\n  swap2\n  swap1\n  pop\n  jump\t// out\n    /* \"#utility.yul\":90:270   */\ntag_26:\n    /* \"#utility.yul\":138:215   */\n  0x4e487b7100000000000000000000000000000000000000000000000000000000\n    /* \"#utility.yul\":135:136   */\n  0x00\n    /* \"#utility.yul\":128:216   */\n  mstore\n    /* \"#utility.yul\":235:239   */\n  0x11\n    /* \"#utility.yul\":232:233   */\n  0x04\n    /* \"#utility.yul\":225:240   */\n  mstore\n    /* \"#utility.yul\":259:263   */\n  0x24\n    /* \"#utility.yul\":256:257   */\n  0x00\n    /* \"#utility.yul\":249:264   */\n  revert\n    /* \"#utility.yul\":276:467   */\ntag_2:\n    /* \"#utility.yul\":316:319   */\n  0x00\n    /* \"#utility.yul\":335:355   */\n  tag_65\n    /* \"#utility.yul\":353:354   */\n  dup3\n    /* \"#utility.yul\":335:355   */\n  tag_25\n  jump\t// in\ntag_65:\n    /* \"#utility.yul\":330:355   */\n  swap2\n  pop\n    /* \"#utility.yul\":369:389   */\n  tag_66\n    /* \"#utility.yul\":387:388   */\n  dup4\n    /* \"#utility.yul\":369:389   */\n  tag_25\n  jump\t// in\ntag_66:\n    /* \"#utility.yul\":364:389   */\n  swap3\n  pop\n    /* \"#utility.yul\":412:413   */\n  dup3\n    /* \"#utility.yul\":409:410   */\n  dup3\n    /* \"#utility.yul\":405:414   */\n  add\n    /* \"#utility.yul\":398:414   */\n  swap1\n  pop\n    /* \"#utility.yul\":433:436   */\n  dup1\n    /* \"#utility.yul\":430:431   */\n  dup3\n    /* \"#utility.yul\":427:437   */\n  gt\n    /* \"#utility.yul\":424:460   */\n  iszero\n  tag_67\n  jumpi\n    /* \"#utility.yul\":440:458   */\n  tag_68\n  tag_26\n  jump\t// in\ntag_68:\n    /* \"#utility.yul\":424:460   */\ntag_67:\n    /* \"#utility.yul\":276:467   */\n  swap3\n  swap2\n  pop\n  pop\n  jump\t// out\n    /* \"#utility.yul\":473:548   */\ntag_27:\n    /* \"#utility.yul\":506:512   */\n  0x00\n    /* \"#utility.yul\":539:541   */\n  0x40\n    /* \"#utility.yul\":533:542   */\n  mload\n    /* \"#utility.yul\":523:542   */\n  swap1\n  pop\n    /* \"#utility.yul\":473:548   */\n  swap1\n  jump\t// out\n    /* \"#utility.yul\":554:671   */\ntag_28:\n    /* \"#utility.yul\":663:664   */\n  0x00\n    /* \"#utility.yul\":660:661   */\n  dup1\n    /* \"#utility.yul\":653:665   */\n  revert\n    /* \"#utility.yul\":677:794   */\ntag_29:\n    /* \"#utility.yul\":786:787   */\n  0x00\n    /* \"#utility.yul\":783:784   */\n  dup1\n    /* \"#utility.yul\":776:788   */\n  revert\n    /* \"#utility.yul\":800:922   */\ntag_30:\n    /* \"#utility.yul\":873:897   */\n  tag_73\n    /* \"#utility.yul\":891:896   */\n  dup2\n    /* \"#utility.yul\":873:897   */\n  tag_25\n  jump\t// in\ntag_73:\n    /* \"#utility.yul\":866:871   */\n  dup2\n    /* \"#utility.yul\":863:898   */\n  eq\n    /* \"#utility.yul\":853:916   */\n  tag_74\n  jumpi\n    /* \"#utility.yul\":912:913   */\n  0x00\n    /* \"#utility.yul\":909:910   */\n  dup1\n    /* \"#utility.yul\":902:914   */\n  revert\n    /* \"#utility.yul\":853:916   */\ntag_74:\n    /* \"#utility.yul\":800:922   */\n  pop\n  jump\t// out\n    /* \"#utility.yul\":928:1071   */\ntag_31:\n    /* \"#utility.yul\":985:990   */\n  0x00\n    /* \"#utility.yul\":1016:1022   */\n  dup2\n    /* \"#utility.yul\":1010:1023   */\n  mload\n    /* \"#utility.yul\":1001:1023   */\n  swap1\n  pop\n    /* \"#utility.yul\":1032:1065   */\n  tag_76\n    /* \"#utility.yul\":1059:1064   */\n  dup2\n    /* \"#utility.yul\":1032:1065   */\n  tag_30\n  jump\t// in\ntag_76:\n    /* \"#utility.yul\":928:1071   */\n  swap3\n  swap2\n  pop\n  pop\n  jump\t// out\n    /* \"#utility.yul\":1077:1194   */\ntag_32:\n    /* \"#utility.yul\":1186:1187   */\n  0x00\n    /* \"#utility.yul\":1183:1184   */\n  dup1\n    /* \"#utility.yul\":1176:1188   */\n  revert\n    /* \"#utility.yul\":1200:1317   */\ntag_33:\n    /* \"#utility.yul\":1309:1310   */\n  0x00\n    /* \"#utility.yul\":1306:1307   */\n  dup1\n    /* \"#utility.yul\":1299:1311   */\n  revert\n    /* \"#utility.yul\":1323:1425   */\ntag_34:\n    /* \"#utility.yul\":1364:1370   */\n  0x00\n    /* \"#utility.yul\":1415:1417   */\n  0x1f\n    /* \"#utility.yul\":1411:1418   */\n  not\n    /* \"#utility.yul\":1406:1408   */\n  0x1f\n    /* \"#utility.yul\":1399:1404   */\n  dup4\n    /* \"#utility.yul\":1395:1409   */\n  add\n    /* \"#utility.yul\":1391:1419   */\n  and\n    /* \"#utility.yul\":1381:1419   */\n  swap1\n  pop\n    /* \"#utility.yul\":1323:1425   */\n  swap2\n  swap1\n  pop\n  jump\t// out\n    /* \"#utility.yul\":1431:1611   */\ntag_35:\n    /* \"#utility.yul\":1479:1556   */\n  0x4e487b7100000000000000000000000000000000000000000000000000000000\n    /* \"#utility.yul\":1476:1477   */\n  0x00\n    /* \"#utility.yul\":1469:1557   */\n  mstore\n    /* \"#utility.yul\":1576:1580   */\n  0x41\n    /* \"#utility.yul\":1573:1574   */\n  0x04\n    /* \"#utility.yul\":1566:1581   */\n  mstore\n    /* \"#utility.yul\":1600:1604   */\n  0x24\n    /* \"#utility.yul\":1597:1598   */\n  0x00\n    /* \"#utility.yul\":1590:1605   */\n  revert\n    /* \"#utility.yul\":1617:1898   */\ntag_36:\n    /* \"#utility.yul\":1700:1727   */\n  tag_82\n    /* \"#utility.yul\":1722:1726   */\n  dup3\n    /* \"#utility.yul\":1700:1727   */\n  tag_34\n  jump\t// in\ntag_82:\n    /* \"#utility.yul\":1692:1698   */\n  dup2\n    /* \"#utility.yul\":1688:1728   */\n  add\n    /* \"#utility.yul\":1830:1836   */\n  dup2\n    /* \"#utility.yul\":1818:1828   */\n  dup2\n    /* \"#utility.yul\":1815:1837   */\n  lt\n    /* \"#utility.yul\":1794:1812   */\n  0xffffffffffffffff\n    /* \"#utility.yul\":1782:1792   */\n  dup3\n    /* \"#utility.yul\":1779:1813   */\n  gt\n    /* \"#utility.yul\":1776:1838   */\n  or\n    /* \"#utility.yul\":1773:1861   */\n  iszero\n  tag_83\n  jumpi\n    /* \"#utility.yul\":1841:1859   */\n  tag_84\n  tag_35\n  jump\t// in\ntag_84:\n    /* \"#utility.yul\":1773:1861   */\ntag_83:\n    /* \"#utility.yul\":1881:1891   */\n  dup1\n    /* \"#utility.yul\":1877:1879   */\n  0x40\n    /* \"#utility.yul\":1870:1892   */\n  mstore\n    /* \"#utility.yul\":1660:1898   */\n  pop\n    /* \"#utility.yul\":1617:1898   */\n  pop\n  pop\n  jump\t// out\n    /* \"#utility.yul\":1904:2033   */\ntag_37:\n    /* \"#utility.yul\":1938:1944   */\n  0x00\n    /* \"#utility.yul\":1965:1985   */\n  tag_86\n  tag_27\n  jump\t// in\ntag_86:\n    /* \"#utility.yul\":1955:1985   */\n  swap1\n  pop\n    /* \"#utility.yul\":1994:2027   */\n  tag_87\n    /* \"#utility.yul\":2022:2026   */\n  dup3\n    /* \"#utility.yul\":2014:2020   */\n  dup3\n    /* \"#utility.yul\":1994:2027   */\n  tag_36\n  jump\t// in\ntag_87:\n    /* \"#utility.yul\":1904:2033   */\n  swap2\n  swap1\n  pop\n  jump\t// out\n    /* \"#utility.yul\":2039:2346   */\ntag_38:\n    /* \"#utility.yul\":2100:2104   */\n  0x00\n    /* \"#utility.yul\":2190:2208   */\n  0xffffffffffffffff\n    /* \"#utility.yul\":2182:2188   */\n  dup3\n    /* \"#utility.yul\":2179:2209   */\n  gt\n    /* \"#utility.yul\":2176:2232   */\n  iszero\n  tag_89\n  jumpi\n    /* \"#utility.yul\":2212:2230   */\n  tag_90\n  tag_35\n  jump\t// in\ntag_90:\n    /* \"#utility.yul\":2176:2232   */\ntag_89:\n    /* \"#utility.yul\":2250:2279   */\n  tag_91\n    /* \"#utility.yul\":2272:2278   */\n  dup3\n    /* \"#utility.yul\":2250:2279   */\n  tag_34\n  jump\t// in\ntag_91:\n    /* \"#utility.yul\":2242:2279   */\n  swap1\n  pop\n    /* \"#utility.yul\":2334:2338   */\n  0x20\n    /* \"#utility.yul\":2328:2332   */\n  dup2\n    /* \"#utility.yul\":2324:2339   */\n  add\n    /* \"#utility.yul\":2316:2339   */\n  swap1\n  pop\n    /* \"#utility.yul\":2039:2346   */\n  swap2\n  swap1\n  pop\n  jump\t// out\n    /* \"#utility.yul\":2352:2598   */\ntag_39:\n    /* \"#utility.yul\":2433:2434   */\n  0x00\n    /* \"#utility.yul\":2443:2556   */\ntag_93:\n    /* \"#utility.yul\":2457:2463   */\n  dup4\n    /* \"#utility.yul\":2454:2455   */\n  dup2\n    /* \"#utility.yul\":2451:2464   */\n  lt\n    /* \"#utility.yul\":2443:2556   */\n  iszero\n  tag_95\n  jumpi\n    /* \"#utility.yul\":2542:2543   */\n  dup1\n    /* \"#utility.yul\":2537:2540   */\n  dup3\n    /* \"#utility.yul\":2533:2544   */\n  add\n    /* \"#utility.yul\":2527:2545   */\n  mload\n    /* \"#utility.yul\":2523:2524   */\n  dup2\n    /* \"#utility.yul\":2518:2521   */\n  dup5\n    /* \"#utility.yul\":2514:2525   */\n  add\n    /* \"#utility.yul\":2507:2546   */\n  mstore\n    /* \"#utility.yul\":2479:2481   */\n  0x20\n    /* \"#utility.yul\":2476:2477   */\n  dup2\n    /* \"#utility.yul\":2472:2482   */\n  add\n    /* \"#utility.yul\":2467:2482   */\n  swap1\n  pop\n    /* \"#utility.yul\":2443:2556   */\n  jump(tag_93)\ntag_95:\n    /* \"#utility.yul\":2590:2591   */\n  0x00\n    /* \"#utility.yul\":2581:2587   */\n  dup5\n    /* \"#utility.yul\":2576:2579   */\n  dup5\n    /* \"#utility.yul\":2572:2588   */\n  add\n    /* \"#utility.yul\":2565:2592   */\n  mstore\n    /* \"#utility.yul\":2414:2598   */\n  pop\n    /* \"#utility.yul\":2352:2598   */\n  pop\n  pop\n  pop\n  jump\t// out\n    /* \"#utility.yul\":2604:3036   */\ntag_40:\n    /* \"#utility.yul\":2692:2697   */\n  0x00\n    /* \"#utility.yul\":2717:2782   */\n  tag_97\n    /* \"#utility.yul\":2733:2781   */\n  tag_98\n    /* \"#utility.yul\":2774:2780   */\n  dup5\n    /* \"#utility.yul\":2733:2781   */\n  tag_38\n  jump\t// in\ntag_98:\n    /* \"#utility.yul\":2717:2782   */\n  tag_37\n  jump\t// in\ntag_97:\n    /* \"#utility.yul\":2708:2782   */\n  swap1\n  pop\n    /* \"#utility.yul\":2805:2811   */\n  dup3\n    /* \"#utility.yul\":2798:2803   */\n  dup2\n    /* \"#utility.yul\":2791:2812   */\n  mstore\n    /* \"#utility.yul\":2843:2847   */\n  0x20\n    /* \"#utility.yul\":2836:2841   */\n  dup2\n    /* \"#utility.yul\":2832:2848   */\n  add\n    /* \"#utility.yul\":2881:2884   */\n  dup5\n    /* \"#utility.yul\":2872:2878   */\n  dup5\n    /* \"#utility.yul\":2867:2870   */\n  dup5\n    /* \"#utility.yul\":2863:2879   */\n  add\n    /* \"#utility.yul\":2860:2885   */\n  gt\n    /* \"#utility.yul\":2857:2969   */\n  iszero\n  tag_99\n  jumpi\n    /* \"#utility.yul\":2888:2967   */\n  tag_100\n  tag_33\n  jump\t// in\ntag_100:\n    /* \"#utility.yul\":2857:2969   */\ntag_99:\n    /* \"#utility.yul\":2978:3030   */\n  tag_101\n    /* \"#utility.yul\":3023:3029   */\n  dup5\n    /* \"#utility.yul\":3018:3021   */\n  dup3\n    /* \"#utility.yul\":3013:3016   */\n  dup6\n    /* \"#utility.yul\":2978:3030   */\n  tag_39\n  jump\t// in\ntag_101:\n    /* \"#utility.yul\":2698:3036   */\n  pop\n    /* \"#utility.yul\":2604:3036   */\n  swap4\n  swap3\n  pop\n  pop\n  pop\n  jump\t// out\n    /* \"#utility.yul\":3055:3408   */\ntag_41:\n    /* \"#utility.yul\":3121:3126   */\n  0x00\n    /* \"#utility.yul\":3170:3173   */\n  dup3\n    /* \"#utility.yul\":3163:3167   */\n  0x1f\n    /* \"#utility.yul\":3155:3161   */\n  dup4\n    /* \"#utility.yul\":3151:3168   */\n  add\n    /* \"#utility.yul\":3147:3174   */\n  slt\n    /* \"#utility.yul\":3137:3259   */\n  tag_103\n  jumpi\n    /* \"#utility.yul\":3178:3257   */\n  tag_104\n  tag_32\n  jump\t// in\ntag_104:\n    /* \"#utility.yul\":3137:3259   */\ntag_103:\n    /* \"#utility.yul\":3288:3294   */\n  dup2\n    /* \"#utility.yul\":3282:3295   */\n  mload\n    /* \"#utility.yul\":3313:3402   */\n  tag_105\n    /* \"#utility.yul\":3398:3401   */\n  dup5\n    /* \"#utility.yul\":3390:3396   */\n  dup3\n    /* \"#utility.yul\":3383:3387   */\n  0x20\n    /* \"#utility.yul\":3375:3381   */\n  dup7\n    /* \"#utility.yul\":3371:3388   */\n  add\n    /* \"#utility.yul\":3313:3402   */\n  tag_40\n  jump\t// in\ntag_105:\n    /* \"#utility.yul\":3304:3402   */\n  swap2\n  pop\n    /* \"#utility.yul\":3127:3408   */\n  pop\n    /* \"#utility.yul\":3055:3408   */\n  swap3\n  swap2\n  pop\n  pop\n  jump\t// out\n    /* \"#utility.yul\":3414:4405   */\ntag_5:\n    /* \"#utility.yul\":3520:3526   */\n  0x00\n    /* \"#utility.yul\":3528:3534   */\n  dup1\n    /* \"#utility.yul\":3536:3542   */\n  0x00\n    /* \"#utility.yul\":3544:3550   */\n  dup1\n    /* \"#utility.yul\":3593:3596   */\n  0x80\n    /* \"#utility.yul\":3581:3590   */\n  dup6\n    /* \"#utility.yul\":3572:3579   */\n  dup8\n    /* \"#utility.yul\":3568:3591   */\n  sub\n    /* \"#utility.yul\":3564:3597   */\n  slt\n    /* \"#utility.yul\":3561:3681   */\n  iszero\n  tag_107\n  jumpi\n    /* \"#utility.yul\":3600:3679   */\n  tag_108\n  tag_28\n  jump\t// in\ntag_108:\n    /* \"#utility.yul\":3561:3681   */\ntag_107:\n    /* \"#utility.yul\":3720:3721   */\n  0x00\n    /* \"#utility.yul\":3745:3809   */\n  tag_109\n    /* \"#utility.yul\":3801:3808   */\n  dup8\n    /* \"#utility.yul\":3792:3798   */\n  dup3\n    /* \"#utility.yul\":3781:3790   */\n  dup9\n    /* \"#utility.yul\":3777:3799   */\n  add\n    /* \"#utility.yul\":3745:3809   */\n  tag_31\n  jump\t// in\ntag_109:\n    /* \"#utility.yul\":3735:3809   */\n  swap5\n  pop\n    /* \"#utility.yul\":3691:3819   */\n  pop\n    /* \"#utility.yul\":3858:3860   */\n  0x20\n    /* \"#utility.yul\":3884:3948   */\n  tag_110\n    /* \"#utility.yul\":3940:3947   */\n  dup8\n    /* \"#utility.yul\":3931:3937   */\n  dup3\n    /* \"#utility.yul\":3920:3929   */\n  dup9\n    /* \"#utility.yul\":3916:3938   */\n  add\n    /* \"#utility.yul\":3884:3948   */\n  tag_31\n  jump\t// in\ntag_110:\n    /* \"#utility.yul\":3874:3948   */\n  swap4\n  pop\n    /* \"#utility.yul\":3829:3958   */\n  pop\n    /* \"#utility.yul\":3997:3999   */\n  0x40\n    /* \"#utility.yul\":4023:4087   */\n  tag_111\n    /* \"#utility.yul\":4079:4086   */\n  dup8\n    /* \"#utility.yul\":4070:4076   */\n  dup3\n    /* \"#utility.yul\":4059:4068   */\n  dup9\n    /* \"#utility.yul\":4055:4077   */\n  add\n    /* \"#utility.yul\":4023:4087   */\n  tag_31\n  jump\t// in\ntag_111:\n    /* \"#utility.yul\":4013:4087   */\n  swap3\n  pop\n    /* \"#utility.yul\":3968:4097   */\n  pop\n    /* \"#utility.yul\":4157:4159   */\n  0x60\n    /* \"#utility.yul\":4146:4155   */\n  dup6\n    /* \"#utility.yul\":4142:4160   */\n  add\n    /* \"#utility.yul\":4136:4161   */\n  mload\n    /* \"#utility.yul\":4188:4206   */\n  0xffffffffffffffff\n    /* \"#utility.yul\":4180:4186   */\n  dup2\n    /* \"#utility.yul\":4177:4207   */\n  gt\n    /* \"#utility.yul\":4174:4291   */\n  iszero\n  tag_112\n  jumpi\n    /* \"#utility.yul\":4210:4289   */\n  tag_113\n  tag_29\n  jump\t// in\ntag_113:\n    /* \"#utility.yul\":4174:4291   */\ntag_112:\n    /* \"#utility.yul\":4315:4388   */\n  tag_114\n    /* \"#utility.yul\":4380:4387   */\n  dup8\n    /* \"#utility.yul\":4371:4377   */\n  dup3\n    /* \"#utility.yul\":4360:4369   */\n  dup9\n    /* \"#utility.yul\":4356:4378   */\n  add\n    /* \"#utility.yul\":4315:4388   */\n  tag_41\n  jump\t// in\ntag_114:\n    /* \"#utility.yul\":4305:4388   */\n  swap2\n  pop\n    /* \"#utility.yul\":4107:4398   */\n  pop\n    /* \"#utility.yul\":3414:4405   */\n  swap3\n  swap6\n  swap2\n  swap5\n  pop\n  swap3\n  pop\n  jump\t// out\n    /* \"#utility.yul\":4411:4509   */\ntag_42:\n    /* \"#utility.yul\":4462:4468   */\n  0x00\n    /* \"#utility.yul\":4496:4501   */\n  dup2\n    /* \"#utility.yul\":4490:4502   */\n  mload\n    /* \"#utility.yul\":4480:4502   */\n  swap1\n  pop\n    /* \"#utility.yul\":4411:4509   */\n  swap2\n  swap1\n  pop\n  jump\t// out\n    /* \"#utility.yul\":4515:4695   */\ntag_43:\n    /* \"#utility.yul\":4563:4640   */\n  0x4e487b7100000000000000000000000000000000000000000000000000000000\n    /* \"#utility.yul\":4560:4561   */\n  0x00\n    /* \"#utility.yul\":4553:4641   */\n  mstore\n    /* \"#utility.yul\":4660:4664   */\n  0x22\n    /* \"#utility.yul\":4657:4658   */\n  0x04\n    /* \"#utility.yul\":4650:4665   */\n  mstore\n    /* \"#utility.yul\":4684:4688   */\n  0x24\n    /* \"#utility.yul\":4681:4682   */\n  0x00\n    /* \"#utility.yul\":4674:4689   */\n  revert\n    /* \"#utility.yul\":4701:5021   */\ntag_44:\n    /* \"#utility.yul\":4745:4751   */\n  0x00\n    /* \"#utility.yul\":4782:4783   */\n  0x02\n    /* \"#utility.yul\":4776:4780   */\n  dup3\n    /* \"#utility.yul\":4772:4784   */\n  div\n    /* \"#utility.yul\":4762:4784   */\n  swap1\n  pop\n    /* \"#utility.yul\":4829:4830   */\n  0x01\n    /* \"#utility.yul\":4823:4827   */\n  dup3\n    /* \"#utility.yul\":4819:4831   */\n  and\n    /* \"#utility.yul\":4850:4868   */\n  dup1\n    /* \"#utility.yul\":4840:4921   */\n  tag_118\n  jumpi\n    /* \"#utility.yul\":4906:4910   */\n  0x7f\n    /* \"#utility.yul\":4898:4904   */\n  dup3\n    /* \"#utility.yul\":4894:4911   */\n  and\n    /* \"#utility.yul\":4884:4911   */\n  swap2\n  pop\n    /* \"#utility.yul\":4840:4921   */\ntag_118:\n    /* \"#utility.yul\":4968:4970   */\n  0x20\n    /* \"#utility.yul\":4960:4966   */\n  dup3\n    /* \"#utility.yul\":4957:4971   */\n  lt\n    /* \"#utility.yul\":4937:4955   */\n  dup2\n    /* \"#utility.yul\":4934:4972   */\n  sub\n    /* \"#utility.yul\":4931:5015   */\n  tag_119\n  jumpi\n    /* \"#utility.yul\":4987:5005   */\n  tag_120\n  tag_43\n  jump\t// in\ntag_120:\n    /* \"#utility.yul\":4931:5015   */\ntag_119:\n    /* \"#utility.yul\":4752:5021   */\n  pop\n    /* \"#utility.yul\":4701:5021   */\n  swap2\n  swap1\n  pop\n  jump\t// out\n    /* \"#utility.yul\":5027:5167   */\ntag_45:\n    /* \"#utility.yul\":5075:5079   */\n  0x00\n    /* \"#utility.yul\":5098:5101   */\n  dup2\n    /* \"#utility.yul\":5090:5101   */\n  swap1\n  pop\n    /* \"#utility.yul\":5121:5124   */\n  dup2\n    /* \"#utility.yul\":5118:5119   */\n  0x00\n    /* \"#utility.yul\":5111:5125   */\n  mstore\n    /* \"#utility.yul\":5155:5159   */\n  0x20\n    /* \"#utility.yul\":5152:5153   */\n  0x00\n    /* \"#utility.yul\":5142:5160   */\n  keccak256\n    /* \"#utility.yul\":5134:5160   */\n  swap1\n  pop\n    /* \"#utility.yul\":5027:5167   */\n  swap2\n  swap1\n  pop\n  jump\t// out\n    /* \"#utility.yul\":5173:5266   */\ntag_46:\n    /* \"#utility.yul\":5210:5216   */\n  0x00\n    /* \"#utility.yul\":5257:5259   */\n  0x20\n    /* \"#utility.yul\":5252:5254   */\n  0x1f\n    /* \"#utility.yul\":5245:5250   */\n  dup4\n    /* \"#utility.yul\":5241:5255   */\n  add\n    /* \"#utility.yul\":5237:5260   */\n  div\n    /* \"#utility.yul\":5227:5260   */\n  swap1\n  pop\n    /* \"#utility.yul\":5173:5266   */\n  swap2\n  swap1\n  pop\n  jump\t// out\n    /* \"#utility.yul\":5272:5379   */\ntag_47:\n    /* \"#utility.yul\":5316:5324   */\n  0x00\n    /* \"#utility.yul\":5366:5371   */\n  dup3\n    /* \"#utility.yul\":5360:5364   */\n  dup3\n    /* \"#utility.yul\":5356:5372   */\n  shl\n    /* \"#utility.yul\":5335:5372   */\n  swap1\n  pop\n    /* \"#utility.yul\":5272:5379   */\n  swap3\n  swap2\n  pop\n  pop\n  jump\t// out\n    /* \"#utility.yul\":5385:5778   */\ntag_48:\n    /* \"#utility.yul\":5454:5460   */\n  0x00\n    /* \"#utility.yul\":5504:5505   */\n  0x08\n    /* \"#utility.yul\":5492:5502   */\n  dup4\n    /* \"#utility.yul\":5488:5506   */\n  mul\n    /* \"#utility.yul\":5527:5624   */\n  tag_125\n    /* \"#utility.yul\":5557:5623   */\n  0xffffffffffffffffffffffffffffffffffffffffffffffffffffffffffffffff\n    /* \"#utility.yul\":5546:5555   */\n  dup3\n    /* \"#utility.yul\":5527:5624   */\n  tag_47\n  jump\t// in\ntag_125:\n    /* \"#utility.yul\":5645:5684   */\n  tag_126\n    /* \"#utility.yul\":5675:5683   */\n  dup7\n    /* \"#utility.yul\":5664:5673   */\n  dup4\n    /* \"#utility.yul\":5645:5684   */\n  tag_47\n  jump\t// in\ntag_126:\n    /* \"#utility.yul\":5633:5684   */\n  swap6\n  pop\n    /* \"#utility.yul\":5717:5721   */\n  dup1\n    /* \"#utility.yul\":5713:5722   */\n  not\n    /* \"#utility.yul\":5706:5711   */\n  dup5\n    /* \"#utility.yul\":5702:5723   */\n  and\n    /* \"#utility.yul\":5693:5723   */\n  swap4\n  pop\n    /* \"#utility.yul\":5766:5770   */\n  dup1\n    /* \"#utility.yul\":5756:5764   */\n  dup7\n    /* \"#utility.yul\":5752:5771   */\n  and\n    /* \"#utility.yul\":5745:5750   */\n  dup5\n    /* \"#utility.yul\":5742:5772   */\n  or\n    /* \"#utility.yul\":5732:5772   */\n  swap3\n  pop\n    /* \"#utility.yul\":5461:5778   */\n  pop\n  pop\n    /* \"#utility.yul\":5385:5778   */\n  swap4\n  swap3\n  pop\n  pop\n  pop\n  jump\t// out\n    /* \"#utility.yul\":5784:5844   */\ntag_49:\n    /* \"#utility.yul\":5812:5815   */\n  0x00\n    /* \"#utility.yul\":5833:5838   */\n  dup2\n    /* \"#utility.yul\":5826:5838   */\n  swap1\n  pop\n    /* \"#utility.yul\":5784:5844   */\n  swap2\n  swap1\n  pop\n  jump\t// out\n    /* \"#utility.yul\":5850:5992   */\ntag_50:\n    /* \"#utility.yul\":5900:5909   */\n  0x00\n    /* \"#utility.yul\":5933:5986   */\n  tag_129\n    /* \"#utility.yul\":5951:5985   */\n  tag_130\n    /* \"#utility.yul\":5960:5984   */\n  tag_131\n    /* \"#utility.yul\":5978:5983   */\n  dup5\n    /* \"#utility.yul\":5960:5984   */\n  tag_25\n  jump\t// in\ntag_131:\n    /* \"#utility.yul\":5951:5985   */\n  tag_49\n  jump\t// in\ntag_130:\n    /* \"#utility.yul\":5933:5986   */\n  tag_25\n  jump\t// in\ntag_129:\n    /* \"#utility.yul\":5920:5986   */\n  swap1\n  pop\n    /* \"#utility.yul\":5850:5992   */\n  swap2\n  swap1\n  pop\n  jump\t// out\n    /* \"#utility.yul\":5998:6073   */\ntag_51:\n    /* \"#utility.yul\":6041:6044   */\n  0x00\n    /* \"#utility.yul\":6062:6067   */\n  dup2\n    /* \"#utility.yul\":6055:6067   */\n  swap1\n  pop\n    /* \"#utility.yul\":5998:6073   */\n  swap2\n  swap1\n  pop\n  jump\t// out\n    /* \"#utility.yul\":6079:6348   */\ntag_52:\n    /* \"#utility.yul\":6189:6228   */\n  tag_134\n    /* \"#utility.yul\":6220:6227   */\n  dup4\n    /* \"#utility.yul\":6189:6228   */\n  tag_50\n  jump\t// in\ntag_134:\n    /* \"#utility.yul\":6250:6341   */\n  tag_135\n    /* \"#utility.yul\":6299:6340   */\n  tag_136\n    /* \"#utility.yul\":6323:6339   */\n  dup3\n    /* \"#utility.yul\":6299:6340   */\n  tag_51\n  jump\t// in\ntag_136:\n    /* \"#utility.yul\":6291:6297   */\n  dup5\n    /* \"#utility.yul\":6284:6288   */\n  dup5\n    /* \"#utility.yul\":6278:6289   */\n  sload\n    /* \"#utility.yul\":6250:6341   */\n  tag_48\n  jump\t// in\ntag_135:\n    /* \"#utility.yul\":6244:6248   */\n  dup3\n    /* \"#utility.yul\":6237:6342   */\n  sstore\n    /* \"#utility.yul\":6155:6348   */\n  pop\n    /* \"#utility.yul\":6079:6348   */\n  pop\n  pop\n  pop\n  jump\t// out\n    /* \"#utility.yul\":6354:6427   */\ntag_53:\n    /* \"#utility.yul\":6399:6402   */\n  0x00\n    /* \"#utility.yul\":6354:6427   */\n  swap1\n  jump\t// out\n    /* \"#utility.yul\":6433:6622   */\ntag_54:\n    /* \"#utility.yul\":6510:6542   */\n  tag_139\n  tag_53\n  jump\t// in\ntag_139:\n    /* \"#utility.yul\":6551:6616   */\n  tag_140\n    /* \"#utility.yul\":6609:6615   */\n  dup2\n    /* \"#utility.yul\":6601:6607   */\n  dup5\n    /* \"#utility.yul\":6595:6599   */\n  dup5\n    /* \"#utility.yul\":6551:6616   */\n  tag_52\n  jump\t// in\ntag_140:\n    /* \"#utility.yul\":6486:6622   */\n  pop\n    /* \"#utility.yul\":6433:6622   */\n  pop\n  pop\n  jump\t// out\n    /* \"#utility.yul\":6628:6814   */\ntag_55:\n    /* \"#utility.yul\":6688:6808   */\ntag_142:\n    /* \"#utility.yul\":6705:6708   */\n  dup2\n    /* \"#utility.yul\":6698:6703   */\n  dup2\n    /* \"#utility.yul\":6695:6709   */\n  lt\n    /* \"#utility.yul\":6688:6808   */\n  iszero\n  tag_144\n  jumpi\n    /* \"#utility.yul\":6759:6798   */\n  tag_145\n    /* \"#utility.yul\":6796:6797   */\n  0x00\n    /* \"#utility.yul\":6789:6794   */\n  dup3\n    /* \"#utility.yul\":6759:6798   */\n  tag_54\n  jump\t// in\ntag_145:\n    /* \"#utility.yul\":6732:6733   */\n  0x01\n    /* \"#utility.yul\":6725:6730   */\n  dup2\n    /* \"#utility.yul\":6721:6734   */\n  add\n    /* \"#utility.yul\":6712:6734   */\n  swap1\n  pop\n    /* \"#utility.yul\":6688:6808   */\n  jump(tag_142)\ntag_144:\n    /* \"#utility.yul\":6628:6814   */\n  pop\n  pop\n  jump\t// out\n    /* \"#utility.yul\":6820:7361   */\ntag_56:\n    /* \"#utility.yul\":6920:6922   */\n  0x1f\n    /* \"#utility.yul\":6915:6918   */\n  dup3\n    /* \"#utility.yul\":6912:6923   */\n  gt\n    /* \"#utility.yul\":6909:7354   */\n  iszero\n  tag_147\n  jumpi\n    /* \"#utility.yul\":6954:6991   */\n  tag_148\n    /* \"#utility.yul\":6985:6990   */\n  dup2\n    /* \"#utility.yul\":6954:6991   */\n  tag_45\n  jump\t// in\ntag_148:\n    /* \"#utility.yul\":7037:7066   */\n  tag_149\n    /* \"#utility.yul\":7055:7065   */\n  dup5\n    /* \"#utility.yul\":7037:7066   */\n  tag_46\n  jump\t// in\ntag_149:\n    /* \"#utility.yul\":7027:7035   */\n  dup2\n    /* \"#utility.yul\":7023:7067   */\n  add\n    /* \"#utility.yul\":7220:7222   */\n  0x20\n    /* \"#utility.yul\":7208:7218   */\n  dup6\n    /* \"#utility.yul\":7205:7223   */\n  lt\n    /* \"#utility.yul\":7202:7251   */\n  iszero\n  tag_150\n  jumpi\n    /* \"#utility.yul\":7241:7249   */\n  dup2\n    /* \"#utility.yul\":7226:7249   */\n  swap1\n  pop\n    /* \"#utility.yul\":7202:7251   */\ntag_150:\n    /* \"#utility.yul\":7264:7344   */\n  tag_151\n    /* \"#utility.yul\":7320:7342   */\n  tag_152\n    /* \"#utility.yul\":7338:7341   */\n  dup6\n    /* \"#utility.yul\":7320:7342   */\n  tag_46\n  jump\t// in\ntag_152:\n    /* \"#utility.yul\":7310:7318   */\n  dup4\n    /* \"#utility.yul\":7306:7343   */\n  add\n    /* \"#utility.yul\":7293:7304   */\n  dup3\n    /* \"#utility.yul\":7264:7344   */\n  tag_55\n  jump\t// in\ntag_151:\n    /* \"#utility.yul\":6924:7354   */\n  pop\n  pop\n    /* \"#utility.yul\":6909:7354   */\ntag_147:\n    /* \"#utility.yul\":6820:7361   */\n  pop\n  pop\n  pop\n  jump\t// out\n    /* \"#utility.yul\":7367:7484   */\ntag_57:\n    /* \"#utility.yul\":7421:7429   */\n  0x00\n    /* \"#utility.yul\":7471:7476   */\n  dup3\n    /* \"#utility.yul\":7465:7469   */\n  dup3\n    /* \"#utility.yul\":7461:7477   */\n  shr\n    /* \"#utility.yul\":7440:7477   */\n  swap1\n  pop\n    /* \"#utility.yul\":7367:7484   */\n  swap3\n  swap2\n  pop\n  pop\n  jump\t// out\n    /* \"#utility.yul\":7490:7659   */\ntag_58:\n    /* \"#utility.yul\":7534:7540   */\n  0x00\n    /* \"#utility.yul\":7567:7618   */\n  tag_155\n    /* \"#utility.yul\":7615:7616   */\n  0x00\n    /* \"#utility.yul\":7611:7617   */\n  not\n    /* \"#utility.yul\":7603:7608   */\n  dup5\n    /* \"#utility.yul\":7600:7601   */\n  0x08\n    /* \"#utility.yul\":7596:7609   */\n  mul\n    /* \"#utility.yul\":7567:7618   */\n  tag_57\n  jump\t// in\ntag_155:\n    /* \"#utility.yul\":7563:7619   */\n  not\n    /* \"#utility.yul\":7648:7652   */\n  dup1\n    /* \"#utility.yul\":7642:7646   */\n  dup4\n    /* \"#utility.yul\":7638:7653   */\n  and\n    /* \"#utility.yul\":7628:7653   */\n  swap2\n  pop\n    /* \"#utility.yul\":7541:7659   */\n  pop\n    /* \"#utility.yul\":7490:7659   */\n  swap3\n  swap2\n  pop\n  pop\n  jump\t// out\n    /* \"#utility.yul\":7664:7959   */\ntag_59:\n    /* \"#utility.yul\":7740:7744   */\n  0x00\n    /* \"#utility.yul\":7886:7915   */\n  tag_157\n    /* \"#utility.yul\":7911:7914   */\n  dup4\n    /* \"#utility.yul\":7905:7909   */\n  dup4\n    /* \"#utility.yul\":7886:7915   */\n  tag_58\n  jump\t// in\ntag_157:\n    /* \"#utility.yul\":7878:7915   */\n  swap2\n  pop\n    /* \"#utility.yul\":7948:7951   */\n  dup3\n    /* \"#utility.yul\":7945:7946   */\n  0x02\n    /* \"#utility.yul\":7941:7952   */\n  mul\n    /* \"#utility.yul\":7935:7939   */\n  dup3\n    /* \"#utility.yul\":7932:7953   */\n  or\n    /* \"#utility.yul\":7924:7953   */\n  swap1\n  pop\n    /* \"#utility.yul\":7664:7959   */\n  swap3\n  swap2\n  pop\n  pop\n  jump\t// out\n    /* \"#utility.yul\":7964:9354   */\ntag_15:\n    /* \"#utility.yul\":8079:8115   */\n  tag_159\n    /* \"#utility.yul\":8111:8114   */\n  dup3\n    /* \"#utility.yul\":8079:8115   */\n  tag_42\n  jump\t// in\ntag_159:\n    /* \"#utility.yul\":8180:8198   */\n  0xffffffffffffffff\n    /* \"#utility.yul\":8172:8178   */\n  dup2\n    /* \"#utility.yul\":8169:8199   */\n  gt\n    /* \"#utility.yul\":8166:8222   */\n  iszero\n  tag_160\n  jumpi\n    /* \"#utility.yul\":8202:8220   */\n  tag_161\n  tag_35\n  jump\t// in\ntag_161:\n    /* \"#utility.yul\":8166:8222   */\ntag_160:\n    /* \"#utility.yul\":8246:8284   */\n  tag_162\n    /* \"#utility.yul\":8278:8282   */\n  dup3\n    /* \"#utility.yul\":8272:8283   */\n  sload\n    /* \"#utility.yul\":8246:8284   */\n  tag_44\n  jump\t// in\ntag_162:\n    /* \"#utility.yul\":8331:8397   */\n  tag_163\n    /* \"#utility.yul\":8390:8396   */\n  dup3\n    /* \"#utility.yul\":8382:8388   */\n  dup3\n    /* \"#utility.yul\":8376:8380   */\n  dup6\n    /* \"#utility.yul\":8331:8397   */\n  tag_56\n  jump\t// in\ntag_163:\n    /* \"#utility.yul\":8424:8425   */\n  0x00\n    /* \"#utility.yul\":8448:8452   */\n  0x20\n    /* \"#utility.yul\":8435:8452   */\n  swap1\n  pop\n    /* \"#utility.yul\":8480:8482   */\n  0x1f\n    /* \"#utility.yul\":8472:8478   */\n  dup4\n    /* \"#utility.yul\":8469:8483   */\n  gt\n    /* \"#utility.yul\":8497:8498   */\n  0x01\n    /* \"#utility.yul\":8492:9109   */\n  dup2\n  eq\n  tag_165\n  jumpi\n    /* \"#utility.yul\":9153:9154   */\n  0x00\n    /* \"#utility.yul\":9170:9176   */\n  dup5\n    /* \"#utility.yul\":9167:9244   */\n  iszero\n  tag_166\n  jumpi\n    /* \"#utility.yul\":9219:9228   */\n  dup3\n    /* \"#utility.yul\":9214:9217   */\n  dup8\n    /* \"#utility.yul\":9210:9229   */\n  add\n    /* \"#utility.yul\":9204:9230   */\n  mload\n    /* \"#utility.yul\":9195:9230   */\n  swap1\n  pop\n    /* \"#utility.yul\":9167:9244   */\ntag_166:\n    /* \"#utility.yul\":9270:9337   */\n  tag_167\n    /* \"#utility.yul\":9330:9336   */\n  dup6\n    /* \"#utility.yul\":9323:9328   */\n  dup3\n    /* \"#utility.yul\":9270:9337   */\n  tag_59\n  jump\t// in\ntag_167:\n    /* \"#utility.yul\":9264:9268   */\n  dup7\n    /* \"#utility.yul\":9257:9338   */\n  sstore\n    /* \"#utility.yul\":9126:9348   */\n  pop\n    /* \"#utility.yul\":8462:9348   */\n  jump(tag_164)\n    /* \"#utility.yul\":8492:9109   */\ntag_165:\n    /* \"#utility.yul\":8544:8548   */\n  0x1f\n    /* \"#utility.yul\":8540:8549   */\n  not\n    /* \"#utility.yul\":8532:8538   */\n  dup5\n    /* \"#utility.yul\":8528:8550   */\n  and\n    /* \"#utility.yul\":8578:8614   */\n  tag_168\n    /* \"#utility.yul\":8609:8613   */\n  dup7\n    /* \"#utility.yul\":8578:8614   */\n  tag_45\n  jump\t// in\ntag_168:\n    /* \"#utility.yul\":8636:8637   */\n  0x00\n    /* \"#utility.yul\":8650:8858   */\ntag_169:\n    /* \"#utility.yul\":8664:8671   */\n  dup3\n    /* \"#utility.yul\":8661:8662   */\n  dup2\n    /* \"#utility.yul\":8658:8672   */\n  lt\n    /* \"#utility.yul\":8650:8858   */\n  iszero\n  tag_171\n  jumpi\n    /* \"#utility.yul\":8743:8752   */\n  dup5\n    /* \"#utility.yul\":8738:8741   */\n  dup10\n    /* \"#utility.yul\":8734:8753   */\n  add\n    /* \"#utility.yul\":8728:8754   */\n  mload\n    /* \"#utility.yul\":8720:8726   */\n  dup3\n    /* \"#utility.yul\":8713:8755   */\n  sstore\n    /* \"#utility.yul\":8794:8795   */\n  0x01\n    /* \"#utility.yul\":8786:8792   */\n  dup3\n    /* \"#utility.yul\":8782:8796   */\n  add\n    /* \"#utility.yul\":8772:8796   */\n  swap2\n  pop\n    /* \"#utility.yul\":8841:8843   */\n  0x20\n    /* \"#utility.yul\":8830:8839   */\n  dup6\n    /* \"#utility.yul\":8826:8844   */\n  add\n    /* \"#utility.yul\":8813:8844   */\n  swap5\n  pop\n    /* \"#utility.yul\":8687:8691   */\n  0x20\n    /* \"#utility.yul\":8684:8685   */\n  dup2\n    /* \"#utility.yul\":8680:8692   */\n  add\n    /* \"#utility.yul\":8675:8692   */\n  swap1\n  pop\n    /* \"#utility.yul\":8650:8858   */\n  jump(tag_169)\ntag_171:\n    /* \"#utility.yul\":8886:8892   */\n  dup7\n    /* \"#utility.yul\":8877:8884   */\n  dup4\n    /* \"#utility.yul\":8874:8893   */\n  lt\n    /* \"#utility.yul\":8871:9050   */\n  iszero\n  tag_172\n  jumpi\n    /* \"#utility.yul\":8944:8953   */\n  dup5\n    /* \"#utility.yul\":8939:8942   */\n  dup10\n    /* \"#utility.yul\":8935:8954   */\n  add\n    /* \"#utility.yul\":8929:8955   */\n  mload\n    /* \"#utility.yul\":8987:9035   */\n  tag_173\n    /* \"#utility.yul\":9029:9033   */\n  0x1f\n    /* \"#utility.yul\":9021:9027   */\n  dup10\n    /* \"#utility.yul\":9017:9034   */\n  and\n    /* \"#utility.yul\":9006:9015   */\n  dup3\n    /* \"#utility.yul\":8987:9035   */\n  tag_58\n  jump\t// in\ntag_173:\n    /* \"#utility.yul\":8979:8985   */\n  dup4\n    /* \"#utility.yul\":8972:9036   */\n  sstore\n    /* \"#utility.yul\":8894:9050   */\n  pop\n    /* \"#utility.yul\":8871:9050   */\ntag_172:\n    /* \"#utility.yul\":9096:9097   */\n  0x01\n    /* \"#utility.yul\":9092:9093   */\n  0x02\n    /* \"#utility.yul\":9084:9090   */\n  dup9\n    /* \"#utility.yul\":9080:9094   */\n  mul\n    /* \"#utility.yul\":9076:9098   */\n  add\n    /* \"#utility.yul\":9070:9074   */\n  dup9\n    /* \"#utility.yul\":9063:9099   */\n  sstore\n    /* \"#utility.yul\":8499:9109   */\n  pop\n  pop\n  pop\n    /* \"#utility.yul\":8462:9348   */\ntag_164:\n  pop\n    /* \"#utility.yul\":8054:9354   */\n  pop\n  pop\n  pop\n    /* \"#utility.yul\":7964:9354   */\n  pop\n  pop\n  jump\t// out\n    /* \"#utility.yul\":9360:9540   */\ntag_21:\n    /* \"#utility.yul\":9408:9485   */\n  0x4e487b7100000000000000000000000000000000000000000000000000000000\n    /* \"#utility.yul\":9405:9406   */\n  0x00\n    /* \"#utility.yul\":9398:9486   */\n  mstore\n    /* \"#utility.yul\":9505:9509   */\n  0x01\n    /* \"#utility.yul\":9502:9503   */\n  0x04\n    /* \"#utility.yul\":9495:9510   */\n  mstore\n    /* \"#utility.yul\":9529:9533   */\n  0x24\n    /* \"#utility.yul\":9526:9527   */\n  0x00\n    /* \"#utility.yul\":9519:9534   */\n  revert\n    /* \"#utility.yul\":9546:9726   */\ntag_60:\n    /* \"#utility.yul\":9594:9671   */\n  0x4e487b7100000000000000000000000000000000000000000000000000000000\n    /* \"#utility.yul\":9591:9592   */\n  0x00\n    /* \"#utility.yul\":9584:9672   */\n  mstore\n    /* \"#utility.yul\":9691:9695   */\n  0x12\n    /* \"#utility.yul\":9688:9689   */\n  0x04\n    /* \"#utility.yul\":9681:9696   */\n  mstore\n    /* \"#utility.yul\":9715:9719   */\n  0x24\n    /* \"#utility.yul\":9712:9713   */\n  0x00\n    /* \"#utility.yul\":9705:9720   */\n  revert\n    /* \"#utility.yul\":9732:9917   */\ntag_24:\n    /* \"#utility.yul\":9772:9773   */\n  0x00\n    /* \"#utility.yul\":9789:9809   */\n  tag_177\n    /* \"#utility.yul\":9807:9808   */\n  dup3\n    /* \"#utility.yul\":9789:9809   */\n  tag_25\n  jump\t// in\ntag_177:\n    /* \"#utility.yul\":9784:9809   */\n  swap2\n  pop\n    /* \"#utility.yul\":9823:9843   */\n  tag_178\n    /* \"#utility.yul\":9841:9842   */\n  dup4\n    /* \"#utility.yul\":9823:9843   */\n  tag_25\n  jump\t// in\ntag_178:\n    /* \"#utility.yul\":9818:9843   */\n  swap3\n  pop\n    /* \"#utility.yul\":9862:9863   */\n  dup3\n    /* \"#utility.yul\":9852:9887   */\n  tag_179\n  jumpi\n    /* \"#utility.yul\":9867:9885   */\n  tag_180\n  tag_60\n  jump\t// in\ntag_180:\n    /* \"#utility.yul\":9852:9887   */\ntag_179:\n    /* \"#utility.yul\":9909:9910   */\n  dup3\n    /* \"#utility.yul\":9906:9907   */\n  dup3\n    /* \"#utility.yul\":9902:9911   */\n  div\n    /* \"#utility.yul\":9897:9911   */\n  swap1\n  pop\n    /* \"#utility.yul\":9732:9917   */\n  swap3\n  swap2\n  pop\n  pop\n  jump\t// out\n    /* \"Project Module 2/Credit.sol\":108:5751  contract Credit is Ownable {... */\ntag_16:\n  dataSize(sub_0)\n  dup1\n  dataOffset(sub_0)\n  0x00\n  codecopy\n  0x00\n  return\nstop\n\nsub_0: assembly {\n        /* \"Project Module 2/Credit.sol\":108:5751  contract Credit is Ownable {... */\n      mstore(0x40, 0x80)\n      jumpi(tag_1, lt(calldatasize, 0x04))\n      shr(0xe0, calldataload(0x00))\n      dup1\n      0x12065fe0\n      eq\n      tag_2\n      jumpi\n      dup1\n      0x268f1153\n      eq\n      tag_3\n      jumpi\n      dup1\n      0x28fd10d7\n      eq\n      tag_4\n      jumpi\n      dup1\n      0x29c68dc1\n      eq\n      tag_5\n      jumpi\n      dup1\n      0x8da5cb5b\n      eq\n      tag_6\n      jumpi\n      dup1\n      0xe8b5e51f\n      eq\n      tag_7\n      jumpi\n    tag_1:\n      0x00\n      dup1\n      revert\n        /* \"Project Module 2/Credit.sol\":4255:4352  function getBalance() public view returns (uint256) {... */\n    tag_2:\n      callvalue\n      dup1\n      iszero\n      tag_8\n      jumpi\n      0x00\n      dup1\n      revert\n    tag_8:\n      pop\n      tag_9\n      tag_10\n      jump\t// in\n    tag_9:\n      mload(0x40)\n      tag_11\n      swap2\n      swap1\n      tag_12\n      jump\t// in\n    tag_11:\n      mload(0x40)\n      dup1\n      swap2\n      sub\n      swap1\n      return\n        /* \"Project Module 2/Credit.sol\":4358:4503  function changeState(State _state) external onlyOwner {... */\n    tag_3:\n      callvalue\n      dup1\n      iszero\n      tag_13\n      jumpi\n      0x00\n      dup1\n      revert\n    tag_13:\n      pop\n      tag_14\n      0x04\n      dup1\n      calldatasize\n      sub\n      dup2\n      add\n      swap1\n      tag_15\n      swap2\n      swap1\n      tag_16\n      jump\t// in\n    tag_15:\n      tag_17\n      jump\t// in\n    tag_14:\n      stop\n        /* \"Project Module 2/Credit.sol\":650:689  mapping(address => bool) public lenders */\n    tag_4:\n      callvalue\n      dup1\n      iszero\n      tag_18\n      jumpi\n      0x00\n      dup1\n      revert\n    tag_18:\n      pop\n      tag_19\n      0x04\n      dup1\n      calldatasize\n      sub\n      dup2\n      add\n      swap1\n      tag_20\n      swap2\n      swap1\n      tag_21\n      jump\t// in\n    tag_20:\n      tag_22\n      jump\t// in\n    tag_19:\n      mload(0x40)\n      tag_23\n      swap2\n      swap1\n      tag_24\n      jump\t// in\n    tag_23:\n      mload(0x40)\n      dup1\n      swap2\n      sub\n      swap1\n      return\n        /* \"Project Module 2/Credit.sol\":4509:4690  function toggleActive() external onlyOwner returns (bool) {... */\n    tag_5:\n      callvalue\n      dup1\n      iszero\n      tag_25\n      jumpi\n      0x00\n      dup1\n      revert\n    tag_25:\n      pop\n      tag_26\n      tag_27\n      jump\t// in\n    tag_26:\n      mload(0x40)\n      tag_28\n      swap2\n      swap1\n      tag_24\n      jump\t// in\n    tag_28:\n      mload(0x40)\n      dup1\n      swap2\n      sub\n      swap1\n      return\n        /* \"Project Module 2/Ownable.sol\":81:101  address public owner */\n    tag_6:\n      callvalue\n      dup1\n      iszero\n      tag_29\n      jumpi\n      0x00\n      dup1\n      revert\n    tag_29:\n      pop\n      tag_30\n      tag_31\n      jump\t// in\n    tag_30:\n      mload(0x40)\n      tag_32\n      swap2\n      swap1\n      tag_33\n      jump\t// in\n    tag_32:\n      mload(0x40)\n      dup1\n      swap2\n      sub\n      swap1\n      return\n        /* \"Project Module 2/Credit.sol\":4696:5749  function invest() public payable canInvest {... */\n    tag_7:\n      tag_34\n      tag_35\n      jump\t// in\n    tag_34:\n      stop\n        /* \"Project Module 2/Credit.sol\":4255:4352  function getBalance() public view returns (uint256) {... */\n    tag_10:\n        /* \"Project Module 2/Credit.sol\":4298:4305  uint256 */\n      0x00\n        /* \"Project Module 2/Credit.sol\":4324:4345  address(this).balance */\n      selfbalance\n        /* \"Project Module 2/Credit.sol\":4317:4345  return address(this).balance */\n      swap1\n      pop\n        /* \"Project Module 2/Credit.sol\":4255:4352  function getBalance() public view returns (uint256) {... */\n      swap1\n      jump\t// out\n        /* \"Project Module 2/Credit.sol\":4358:4503  function changeState(State _state) external onlyOwner {... */\n    tag_17:\n        /* \"Project Module 2/Ownable.sol\":274:279  owner */\n      0x00\n      dup1\n      sload\n      swap1\n      0x0100\n      exp\n      swap1\n      div\n      0xffffffffffffffffffffffffffffffffffffffff\n      and\n        /* \"Project Module 2/Ownable.sol\":260:279  msg.sender == owner */\n      0xffffffffffffffffffffffffffffffffffffffff\n      and\n        /* \"Project Module 2/Ownable.sol\":260:270  msg.sender */\n      caller\n        /* \"Project Module 2/Ownable.sol\":260:279  msg.sender == owner */\n      0xffffffffffffffffffffffffffffffffffffffff\n      and\n      eq\n        /* \"Project Module 2/Ownable.sol\":252:280  require(msg.sender == owner) */\n      tag_40\n      jumpi\n      0x00\n      dup1\n      revert\n    tag_40:\n        /* \"Project Module 2/Credit.sol\":4430:4436  _state */\n      dup1\n        /* \"Project Module 2/Credit.sol\":4422:4427  state */\n      0x15\n      0x00\n        /* \"Project Module 2/Credit.sol\":4422:4436  state = _state */\n      0x0100\n      exp\n      dup2\n      sload\n      dup2\n      0xff\n      mul\n      not\n      and\n      swap1\n      dup4\n      0x05\n      dup2\n      gt\n      iszero\n      tag_42\n      jumpi\n      tag_43\n      tag_44\n      jump\t// in\n    tag_43:\n    tag_42:\n      mul\n      or\n      swap1\n      sstore\n      pop\n        /* \"Project Module 2/Credit.sol\":4480:4495  block.timestamp */\n      timestamp\n        /* \"Project Module 2/Credit.sol\":4473:4478  state */\n      0x15\n      0x00\n      swap1\n      sload\n      swap1\n      0x0100\n      exp\n      swap1\n      div\n      0xff\n      and\n        /* \"Project Module 2/Credit.sol\":4451:4496  LogCreditStateChanged(state, block.timestamp) */\n      0x05\n      dup2\n      gt\n      iszero\n      tag_45\n      jumpi\n      tag_46\n      tag_44\n      jump\t// in\n    tag_46:\n    tag_45:\n      0xaaae373901e745122c2e0925ad006227969c6cd190b7d5ea2fb7fdbd1d955b35\n      mload(0x40)\n      mload(0x40)\n      dup1\n      swap2\n      sub\n      swap1\n      log3\n        /* \"Project Module 2/Credit.sol\":4358:4503  function changeState(State _state) external onlyOwner {... */\n      pop\n      jump\t// out\n        /* \"Project Module 2/Credit.sol\":650:689  mapping(address => bool) public lenders */\n    tag_22:\n      mstore(0x20, 0x11)\n      dup1\n      0x00\n      mstore\n      keccak256(0x00, 0x40)\n      0x00\n      swap2\n      pop\n      sload\n      swap1\n      0x0100\n      exp\n      swap1\n      div\n      0xff\n      and\n      dup2\n      jump\t// out\n        /* \"Project Module 2/Credit.sol\":4509:4690  function toggleActive() external onlyOwner returns (bool) {... */\n    tag_27:\n        /* \"Project Module 2/Credit.sol\":4561:4565  bool */\n      0x00\n        /* \"Project Module 2/Ownable.sol\":274:279  owner */\n      dup1\n      0x00\n      swap1\n      sload\n      swap1\n      0x0100\n      exp\n      swap1\n      div\n      0xffffffffffffffffffffffffffffffffffffffff\n      and\n        /* \"Project Module 2/Ownable.sol\":260:279  msg.sender == owner */\n      0xffffffffffffffffffffffffffffffffffffffff\n      and\n        /* \"Project Module 2/Ownable.sol\":260:270  msg.sender */\n      caller\n        /* \"Project Module 2/Ownable.sol\":260:279  msg.sender == owner */\n      0xffffffffffffffffffffffffffffffffffffffff\n      and\n      eq\n        /* \"Project Module 2/Ownable.sol\":252:280  require(msg.sender == owner) */\n      tag_48\n      jumpi\n      0x00\n      dup1\n      revert\n    tag_48:\n        /* \"Project Module 2/Credit.sol\":4587:4593  active */\n      0x0c\n      0x00\n      swap1\n      sload\n      swap1\n      0x0100\n      exp\n      swap1\n      div\n      0xff\n      and\n        /* \"Project Module 2/Credit.sol\":4586:4593  !active */\n      iszero\n        /* \"Project Module 2/Credit.sol\":4577:4583  active */\n      0x0c\n      0x00\n        /* \"Project Module 2/Credit.sol\":4577:4593  active = !active */\n      0x0100\n      exp\n      dup2\n      sload\n      dup2\n      0xff\n      mul\n      not\n      and\n      swap1\n      dup4\n      iszero\n      iszero\n      mul\n      or\n      swap1\n      sstore\n      pop\n        /* \"Project Module 2/Credit.sol\":4644:4659  block.timestamp */\n      timestamp\n        /* \"Project Module 2/Credit.sol\":4636:4642  active */\n      0x0c\n      0x00\n      swap1\n      sload\n      swap1\n      0x0100\n      exp\n      swap1\n      div\n      0xff\n      and\n        /* \"Project Module 2/Credit.sol\":4608:4660  LogCreditStateActiveChanged(active, block.timestamp) */\n      iszero\n      iszero\n      0x160914ea27c60aa29a5f3a69d74e6069869de36e38939de1e0a66b921d8623d2\n      mload(0x40)\n      mload(0x40)\n      dup1\n      swap2\n      sub\n      swap1\n      log3\n        /* \"Project Module 2/Credit.sol\":4677:4683  active */\n      0x0c\n      0x00\n      swap1\n      sload\n      swap1\n      0x0100\n      exp\n      swap1\n      div\n      0xff\n      and\n        /* \"Project Module 2/Credit.sol\":4670:4683  return active */\n      swap1\n      pop\n        /* \"Project Module 2/Credit.sol\":4509:4690  function toggleActive() external onlyOwner returns (bool) {... */\n      swap1\n      jump\t// out\n        /* \"Project Module 2/Ownable.sol\":81:101  address public owner */\n    tag_31:\n      0x00\n      dup1\n      sload\n      swap1\n      0x0100\n      exp\n      swap1\n      div\n      0xffffffffffffffffffffffffffffffffffffffff\n      and\n      dup2\n      jump\t// out\n        /* \"Project Module 2/Credit.sol\":4696:5749  function invest() public payable canInvest {... */\n    tag_35:\n        /* \"Project Module 2/Credit.sol\":3074:3090  State.investment */\n      0x00\n        /* \"Project Module 2/Credit.sol\":3065:3090  state == State.investment */\n      0x05\n      dup2\n      gt\n      iszero\n      tag_51\n      jumpi\n      tag_52\n      tag_44\n      jump\t// in\n    tag_52:\n    tag_51:\n        /* \"Project Module 2/Credit.sol\":3065:3070  state */\n      0x15\n      0x00\n      swap1\n      sload\n      swap1\n      0x0100\n      exp\n      swap1\n      div\n      0xff\n      and\n        /* \"Project Module 2/Credit.sol\":3065:3090  state == State.investment */\n      0x05\n      dup2\n      gt\n      iszero\n      tag_53\n      jumpi\n      tag_54\n      tag_44\n      jump\t// in\n    tag_54:\n    tag_53:\n      eq\n        /* \"Project Module 2/Credit.sol\":3057:3091  require(state == State.investment) */\n      tag_55\n      jumpi\n      0x00\n      dup1\n      revert\n    tag_55:\n        /* \"Project Module 2/Credit.sol\":4749:4767  uint256 extraMoney */\n      0x00\n        /* \"Project Module 2/Credit.sol\":4810:4825  requestedAmount */\n      sload(0x02)\n        /* \"Project Module 2/Credit.sol\":4785:4806  address(this).balance */\n      selfbalance\n        /* \"Project Module 2/Credit.sol\":4785:4825  address(this).balance >= requestedAmount */\n      lt\n        /* \"Project Module 2/Credit.sol\":4781:5734  if (address(this).balance >= requestedAmount) {... */\n      tag_57\n      jumpi\n        /* \"Project Module 2/Credit.sol\":4854:4896  address(this).balance.sub(requestedAmount) */\n      tag_58\n        /* \"Project Module 2/Credit.sol\":4880:4895  requestedAmount */\n      sload(0x02)\n        /* \"Project Module 2/Credit.sol\":4854:4875  address(this).balance */\n      selfbalance\n        /* \"Project Module 2/Credit.sol\":4854:4879  address(this).balance.sub */\n      tag_59\n      swap1\n        /* \"Project Module 2/Credit.sol\":4854:4896  address(this).balance.sub(requestedAmount) */\n      swap2\n      swap1\n      0xffffffff\n      and\n      jump\t// in\n    tag_58:\n        /* \"Project Module 2/Credit.sol\":4841:4896  extraMoney = address(this).balance.sub(requestedAmount) */\n      swap1\n      pop\n        /* \"Project Module 2/Credit.sol\":4910:4947  address(this).balance.sub(extraMoney) */\n      tag_60\n        /* \"Project Module 2/Credit.sol\":4936:4946  extraMoney */\n      dup2\n        /* \"Project Module 2/Credit.sol\":4910:4931  address(this).balance */\n      selfbalance\n        /* \"Project Module 2/Credit.sol\":4910:4935  address(this).balance.sub */\n      tag_59\n      swap1\n        /* \"Project Module 2/Credit.sol\":4910:4947  address(this).balance.sub(extraMoney) */\n      swap2\n      swap1\n      0xffffffff\n      and\n      jump\t// in\n    tag_60:\n      pop\n        /* \"Project Module 2/Credit.sol\":4982:4991  msg.value */\n      callvalue\n        /* \"Project Module 2/Credit.sol\":4968:4978  extraMoney */\n      dup2\n        /* \"Project Module 2/Credit.sol\":4968:4991  extraMoney <= msg.value */\n      gt\n      iszero\n        /* \"Project Module 2/Credit.sol\":4961:4992  assert(extraMoney <= msg.value) */\n      tag_61\n      jumpi\n      tag_62\n      tag_63\n      jump\t// in\n    tag_62:\n    tag_61:\n        /* \"Project Module 2/Credit.sol\":5023:5024  0 */\n      0x00\n        /* \"Project Module 2/Credit.sol\":5010:5020  extraMoney */\n      dup2\n        /* \"Project Module 2/Credit.sol\":5010:5024  extraMoney > 0 */\n      gt\n        /* \"Project Module 2/Credit.sol\":5006:5373  if (extraMoney > 0) {... */\n      iszero\n      tag_64\n      jumpi\n        /* \"Project Module 2/Credit.sol\":5052:5062  msg.sender */\n      caller\n        /* \"Project Module 2/Credit.sol\":5044:5072  payable(msg.sender).transfer */\n      0xffffffffffffffffffffffffffffffffffffffff\n      and\n        /* \"Project Module 2/Credit.sol\":5044:5084  payable(msg.sender).transfer(extraMoney) */\n      0x08fc\n        /* \"Project Module 2/Credit.sol\":5073:5083  extraMoney */\n      dup3\n        /* \"Project Module 2/Credit.sol\":5044:5084  payable(msg.sender).transfer(extraMoney) */\n      swap1\n      dup2\n      iszero\n      mul\n      swap1\n      mload(0x40)\n      0x00\n      mload(0x40)\n      dup1\n      dup4\n      sub\n      dup2\n      dup6\n      dup9\n      dup9\n      call\n      swap4\n      pop\n      pop\n      pop\n      pop\n      iszero\n      dup1\n      iszero\n      tag_66\n      jumpi\n      returndatasize\n      0x00\n      dup1\n      returndatacopy\n      revert(0x00, returndatasize)\n    tag_66:\n      pop\n        /* \"Project Module 2/Credit.sol\":5216:5231  block.timestamp */\n      timestamp\n        /* \"Project Module 2/Credit.sol\":5184:5194  extraMoney */\n      dup2\n        /* \"Project Module 2/Credit.sol\":5152:5162  msg.sender */\n      caller\n        /* \"Project Module 2/Credit.sol\":5107:5249  LogLenderChangeReturned(... */\n      0xffffffffffffffffffffffffffffffffffffffff\n      and\n      0x566803f6e271b911c84f87631bcd310d6a6510bf8882577a96fc76975703e431\n      mload(0x40)\n      mload(0x40)\n      dup1\n      swap2\n      sub\n      swap1\n      log4\n        /* \"Project Module 2/Credit.sol\":5275:5290  State.repayment */\n      0x01\n        /* \"Project Module 2/Credit.sol\":5267:5272  state */\n      0x15\n      0x00\n        /* \"Project Module 2/Credit.sol\":5267:5290  state = State.repayment */\n      0x0100\n      exp\n      dup2\n      sload\n      dup2\n      0xff\n      mul\n      not\n      and\n      swap1\n      dup4\n      0x05\n      dup2\n      gt\n      iszero\n      tag_67\n      jumpi\n      tag_68\n      tag_44\n      jump\t// in\n    tag_68:\n    tag_67:\n      mul\n      or\n      swap1\n      sstore\n      pop\n        /* \"Project Module 2/Credit.sol\":5342:5357  block.timestamp */\n      timestamp\n        /* \"Project Module 2/Credit.sol\":5335:5340  state */\n      0x15\n      0x00\n      swap1\n      sload\n      swap1\n      0x0100\n      exp\n      swap1\n      div\n      0xff\n      and\n        /* \"Project Module 2/Credit.sol\":5313:5358  LogCreditStateChanged(state, block.timestamp) */\n      0x05\n      dup2\n      gt\n      iszero\n      tag_69\n      jumpi\n      tag_70\n      tag_44\n      jump\t// in\n    tag_70:\n    tag_69:\n      0xaaae373901e745122c2e0925ad006227969c6cd190b7d5ea2fb7fdbd1d955b35\n      mload(0x40)\n      mload(0x40)\n      dup1\n      swap2\n      sub\n      swap1\n      log3\n        /* \"Project Module 2/Credit.sol\":5006:5373  if (extraMoney > 0) {... */\n    tag_64:\n        /* \"Project Module 2/Credit.sol\":5408:5412  true */\n      0x01\n        /* \"Project Module 2/Credit.sol\":5386:5393  lenders */\n      0x11\n        /* \"Project Module 2/Credit.sol\":5386:5405  lenders[msg.sender] */\n      0x00\n        /* \"Project Module 2/Credit.sol\":5394:5404  msg.sender */\n      caller\n        /* \"Project Module 2/Credit.sol\":5386:5405  lenders[msg.sender] */\n      0xffffffffffffffffffffffffffffffffffffffff\n      and\n      0xffffffffffffffffffffffffffffffffffffffff\n      and\n      dup2\n      mstore\n      0x20\n      add\n      swap1\n      dup2\n      mstore\n      0x20\n      add\n      0x00\n      keccak256\n      0x00\n        /* \"Project Module 2/Credit.sol\":5386:5412  lenders[msg.sender] = true */\n      0x0100\n      exp\n      dup2\n      sload\n      dup2\n      0xff\n      mul\n      not\n      and\n      swap1\n      dup4\n      iszero\n      iszero\n      mul\n      or\n      swap1\n      sstore\n      pop\n        /* \"Project Module 2/Credit.sol\":5426:5438  lendersCount */\n      0x0d\n      0x00\n        /* \"Project Module 2/Credit.sol\":5426:5440  lendersCount++ */\n      dup2\n      sload\n      dup1\n      swap3\n      swap2\n      swap1\n      tag_71\n      swap1\n      tag_72\n      jump\t// in\n    tag_71:\n      swap2\n      swap1\n      pop\n      sstore\n      pop\n        /* \"Project Module 2/Credit.sol\":5490:5567  lendersInvestedAmount... */\n      tag_73\n        /* \"Project Module 2/Credit.sol\":5541:5566  msg.value.sub(extraMoney) */\n      tag_74\n        /* \"Project Module 2/Credit.sol\":5555:5565  extraMoney */\n      dup3\n        /* \"Project Module 2/Credit.sol\":5541:5550  msg.value */\n      callvalue\n        /* \"Project Module 2/Credit.sol\":5541:5554  msg.value.sub */\n      tag_59\n      swap1\n        /* \"Project Module 2/Credit.sol\":5541:5566  msg.value.sub(extraMoney) */\n      swap2\n      swap1\n      0xffffffff\n      and\n      jump\t// in\n    tag_74:\n        /* \"Project Module 2/Credit.sol\":5490:5511  lendersInvestedAmount */\n      0x12\n        /* \"Project Module 2/Credit.sol\":5490:5536  lendersInvestedAmount... */\n      0x00\n        /* \"Project Module 2/Credit.sol\":5525:5535  msg.sender */\n      caller\n        /* \"Project Module 2/Credit.sol\":5490:5536  lendersInvestedAmount... */\n      0xffffffffffffffffffffffffffffffffffffffff\n      and\n      0xffffffffffffffffffffffffffffffffffffffff\n      and\n      dup2\n      mstore\n      0x20\n      add\n      swap1\n      dup2\n      mstore\n      0x20\n      add\n      0x00\n      keccak256\n      sload\n        /* \"Project Module 2/Credit.sol\":5490:5540  lendersInvestedAmount... */\n      tag_36\n      swap1\n        /* \"Project Module 2/Credit.sol\":5490:5567  lendersInvestedAmount... */\n      swap2\n      swap1\n      0xffffffff\n      and\n      jump\t// in\n    tag_73:\n        /* \"Project Module 2/Credit.sol\":5454:5475  lendersInvestedAmount */\n      0x12\n        /* \"Project Module 2/Credit.sol\":5454:5487  lendersInvestedAmount[msg.sender] */\n      0x00\n        /* \"Project Module 2/Credit.sol\":5476:5486  msg.sender */\n      caller\n        /* \"Project Module 2/Credit.sol\":5454:5487  lendersInvestedAmount[msg.sender] */\n      0xffffffffffffffffffffffffffffffffffffffff\n      and\n      0xffffffffffffffffffffffffffffffffffffffff\n      and\n      dup2\n      mstore\n      0x20\n      add\n      swap1\n      dup2\n      mstore\n      0x20\n      add\n      0x00\n      keccak256\n        /* \"Project Module 2/Credit.sol\":5454:5567  lendersInvestedAmount[msg.sender] = lendersInvestedAmount... */\n      dup2\n      swap1\n      sstore\n      pop\n        /* \"Project Module 2/Credit.sol\":5694:5709  block.timestamp */\n      timestamp\n        /* \"Project Module 2/Credit.sol\":5651:5676  msg.value.sub(extraMoney) */\n      tag_75\n        /* \"Project Module 2/Credit.sol\":5665:5675  extraMoney */\n      dup3\n        /* \"Project Module 2/Credit.sol\":5651:5660  msg.value */\n      callvalue\n        /* \"Project Module 2/Credit.sol\":5651:5664  msg.value.sub */\n      tag_59\n      swap1\n        /* \"Project Module 2/Credit.sol\":5651:5676  msg.value.sub(extraMoney) */\n      swap2\n      swap1\n      0xffffffff\n      and\n      jump\t// in\n    tag_75:\n        /* \"Project Module 2/Credit.sol\":5623:5633  msg.sender */\n      caller\n        /* \"Project Module 2/Credit.sol\":5586:5723  LogLenderInvestment(... */\n      0xffffffffffffffffffffffffffffffffffffffff\n      and\n      0x1b0969ce7f5b05c5e0969329a05cdbd7e2e2f6cee33ba26fd6e6bbcff82312cd\n      mload(0x40)\n      mload(0x40)\n      dup1\n      swap2\n      sub\n      swap1\n      log4\n        /* \"Project Module 2/Credit.sol\":4781:5734  if (address(this).balance >= requestedAmount) {... */\n    tag_57:\n        /* \"Project Module 2/Credit.sol\":4739:5749  {... */\n      pop\n        /* \"Project Module 2/Credit.sol\":4696:5749  function invest() public payable canInvest {... */\n      jump\t// out\n        /* \"Project Module 2/SafeMath.sol\":539:682  function add(uint256 a, uint256 b) internal pure returns (uint256) {... */\n    tag_36:\n        /* \"Project Module 2/SafeMath.sol\":597:604  uint256 */\n      0x00\n        /* \"Project Module 2/SafeMath.sol\":616:625  uint256 c */\n      dup1\n        /* \"Project Module 2/SafeMath.sol\":632:633  b */\n      dup3\n        /* \"Project Module 2/SafeMath.sol\":628:629  a */\n      dup5\n        /* \"Project Module 2/SafeMath.sol\":628:633  a + b */\n      tag_77\n      swap2\n      swap1\n      tag_78\n      jump\t// in\n    tag_77:\n        /* \"Project Module 2/SafeMath.sol\":616:633  uint256 c = a + b */\n      swap1\n      pop\n        /* \"Project Module 2/SafeMath.sol\":655:656  a */\n      dup4\n        /* \"Project Module 2/SafeMath.sol\":650:651  c */\n      dup2\n        /* \"Project Module 2/SafeMath.sol\":650:656  c >= a */\n      lt\n      iszero\n        /* \"Project Module 2/SafeMath.sol\":643:657  assert(c >= a) */\n      tag_79\n      jumpi\n      tag_80\n      tag_63\n      jump\t// in\n    tag_80:\n    tag_79:\n        /* \"Project Module 2/SafeMath.sol\":674:675  c */\n      dup1\n        /* \"Project Module 2/SafeMath.sol\":667:675  return c */\n      swap2\n      pop\n      pop\n        /* \"Project Module 2/SafeMath.sol\":539:682  function add(uint256 a, uint256 b) internal pure returns (uint256) {... */\n      swap3\n      swap2\n      pop\n      pop\n      jump\t// out\n        /* \"Project Module 2/SafeMath.sol\":288:407  function div(uint256 a, uint256 b) internal pure returns (uint256) {... */\n    tag_37:\n        /* \"Project Module 2/SafeMath.sol\":346:353  uint256 */\n      0x00\n        /* \"Project Module 2/SafeMath.sol\":365:374  uint256 c */\n      dup1\n        /* \"Project Module 2/SafeMath.sol\":381:382  b */\n      dup3\n        /* \"Project Module 2/SafeMath.sol\":377:378  a */\n      dup5\n        /* \"Project Module 2/SafeMath.sol\":377:382  a / b */\n      tag_82\n      swap2\n      swap1\n      tag_83\n      jump\t// in\n    tag_82:\n        /* \"Project Module 2/SafeMath.sol\":365:382  uint256 c = a / b */\n      swap1\n      pop\n        /* \"Project Module 2/SafeMath.sol\":399:400  c */\n      dup1\n        /* \"Project Module 2/SafeMath.sol\":392:400  return c */\n      swap2\n      pop\n      pop\n        /* \"Project Module 2/SafeMath.sol\":288:407  function div(uint256 a, uint256 b) internal pure returns (uint256) {... */\n      swap3\n      swap2\n      pop\n      pop\n      jump\t// out\n        /* \"Project Module 2/SafeMath.sol\":413:533  function sub(uint256 a, uint256 b) internal pure returns (uint256) {... */\n    tag_59:\n        /* \"Project Module 2/SafeMath.sol\":471:478  uint256 */\n      0x00\n        /* \"Project Module 2/SafeMath.sol\":502:503  a */\n      dup3\n        /* \"Project Module 2/SafeMath.sol\":497:498  b */\n      dup3\n        /* \"Project Module 2/SafeMath.sol\":497:503  b <= a */\n      gt\n      iszero\n        /* \"Project Module 2/SafeMath.sol\":490:504  assert(b <= a) */\n      tag_85\n      jumpi\n      tag_86\n      tag_63\n      jump\t// in\n    tag_86:\n    tag_85:\n        /* \"Project Module 2/SafeMath.sol\":525:526  b */\n      dup2\n        /* \"Project Module 2/SafeMath.sol\":521:522  a */\n      dup4\n        /* \"Project Module 2/SafeMath.sol\":521:526  a - b */\n      tag_87\n      swap2\n      swap1\n      tag_88\n      jump\t// in\n    tag_87:\n        /* \"Project Module 2/SafeMath.sol\":514:526  return a - b */\n      swap1\n      pop\n        /* \"Project Module 2/SafeMath.sol\":413:533  function sub(uint256 a, uint256 b) internal pure returns (uint256) {... */\n      swap3\n      swap2\n      pop\n      pop\n      jump\t// out\n        /* \"#utility.yul\":7:84   */\n    tag_89:\n        /* \"#utility.yul\":44:51   */\n      0x00\n        /* \"#utility.yul\":73:78   */\n      dup2\n        /* \"#utility.yul\":62:78   */\n      swap1\n      pop\n        /* \"#utility.yul\":7:84   */\n      swap2\n      swap1\n      pop\n      jump\t// out\n        /* \"#utility.yul\":90:208   */\n    tag_90:\n        /* \"#utility.yul\":177:201   */\n      tag_108\n        /* \"#utility.yul\":195:200   */\n      dup2\n        /* \"#utility.yul\":177:201   */\n      tag_89\n      jump\t// in\n    tag_108:\n        /* \"#utility.yul\":172:175   */\n      dup3\n        /* \"#utility.yul\":165:202   */\n      mstore\n        /* \"#utility.yul\":90:208   */\n      pop\n      pop\n      jump\t// out\n        /* \"#utility.yul\":214:436   */\n    tag_12:\n        /* \"#utility.yul\":307:311   */\n      0x00\n        /* \"#utility.yul\":345:347   */\n      0x20\n        /* \"#utility.yul\":334:343   */\n      dup3\n        /* \"#utility.yul\":330:348   */\n      add\n        /* \"#utility.yul\":322:348   */\n      swap1\n      pop\n        /* \"#utility.yul\":358:429   */\n      tag_110\n        /* \"#utility.yul\":426:427   */\n      0x00\n        /* \"#utility.yul\":415:424   */\n      dup4\n        /* \"#utility.yul\":411:428   */\n      add\n        /* \"#utility.yul\":402:408   */\n      dup5\n        /* \"#utility.yul\":358:429   */\n      tag_90\n      jump\t// in\n    tag_110:\n        /* \"#utility.yul\":214:436   */\n      swap3\n      swap2\n      pop\n      pop\n      jump\t// out\n        /* \"#utility.yul\":523:640   */\n    tag_92:\n        /* \"#utility.yul\":632:633   */\n      0x00\n        /* \"#utility.yul\":629:630   */\n      dup1\n        /* \"#utility.yul\":622:634   */\n      revert\n        /* \"#utility.yul\":769:876   */\n    tag_94:\n        /* \"#utility.yul\":850:851   */\n      0x06\n        /* \"#utility.yul\":843:848   */\n      dup2\n        /* \"#utility.yul\":840:852   */\n      lt\n        /* \"#utility.yul\":830:870   */\n      tag_115\n      jumpi\n        /* \"#utility.yul\":866:867   */\n      0x00\n        /* \"#utility.yul\":863:864   */\n      dup1\n        /* \"#utility.yul\":856:868   */\n      revert\n        /* \"#utility.yul\":830:870   */\n    tag_115:\n        /* \"#utility.yul\":769:876   */\n      pop\n      jump\t// out\n        /* \"#utility.yul\":882:1037   */\n    tag_95:\n        /* \"#utility.yul\":936:941   */\n      0x00\n        /* \"#utility.yul\":974:980   */\n      dup2\n        /* \"#utility.yul\":961:981   */\n      calldataload\n        /* \"#utility.yul\":952:981   */\n      swap1\n      pop\n        /* \"#utility.yul\":990:1031   */\n      tag_117\n        /* \"#utility.yul\":1025:1030   */\n      dup2\n        /* \"#utility.yul\":990:1031   */\n      tag_94\n      jump\t// in\n    tag_117:\n        /* \"#utility.yul\":882:1037   */\n      swap3\n      swap2\n      pop\n      pop\n      jump\t// out\n        /* \"#utility.yul\":1043:1388   */\n    tag_16:\n        /* \"#utility.yul\":1110:1116   */\n      0x00\n        /* \"#utility.yul\":1159:1161   */\n      0x20\n        /* \"#utility.yul\":1147:1156   */\n      dup3\n        /* \"#utility.yul\":1138:1145   */\n      dup5\n        /* \"#utility.yul\":1134:1157   */\n      sub\n        /* \"#utility.yul\":1130:1162   */\n      slt\n        /* \"#utility.yul\":1127:1246   */\n      iszero\n      tag_119\n      jumpi\n        /* \"#utility.yul\":1165:1244   */\n      tag_120\n      tag_92\n      jump\t// in\n    tag_120:\n        /* \"#utility.yul\":1127:1246   */\n    tag_119:\n        /* \"#utility.yul\":1285:1286   */\n      0x00\n        /* \"#utility.yul\":1310:1371   */\n      tag_121\n        /* \"#utility.yul\":1363:1370   */\n      dup5\n        /* \"#utility.yul\":1354:1360   */\n      dup3\n        /* \"#utility.yul\":1343:1352   */\n      dup6\n        /* \"#utility.yul\":1339:1361   */\n      add\n        /* \"#utility.yul\":1310:1371   */\n      tag_95\n      jump\t// in\n    tag_121:\n        /* \"#utility.yul\":1300:1371   */\n      swap2\n      pop\n        /* \"#utility.yul\":1256:1381   */\n      pop\n        /* \"#utility.yul\":1043:1388   */\n      swap3\n      swap2\n      pop\n      pop\n      jump\t// out\n        /* \"#utility.yul\":1394:1520   */\n    tag_96:\n        /* \"#utility.yul\":1431:1438   */\n      0x00\n        /* \"#utility.yul\":1471:1513   */\n      0xffffffffffffffffffffffffffffffffffffffff\n        /* \"#utility.yul\":1464:1469   */\n      dup3\n        /* \"#utility.yul\":1460:1514   */\n      and\n        /* \"#utility.yul\":1449:1514   */\n      swap1\n      pop\n        /* \"#utility.yul\":1394:1520   */\n      swap2\n      swap1\n      pop\n      jump\t// out\n        /* \"#utility.yul\":1526:1622   */\n    tag_97:\n        /* \"#utility.yul\":1563:1570   */\n      0x00\n        /* \"#utility.yul\":1592:1616   */\n      tag_124\n        /* \"#utility.yul\":1610:1615   */\n      dup3\n        /* \"#utility.yul\":1592:1616   */\n      tag_96\n      jump\t// in\n    tag_124:\n        /* \"#utility.yul\":1581:1616   */\n      swap1\n      pop\n        /* \"#utility.yul\":1526:1622   */\n      swap2\n      swap1\n      pop\n      jump\t// out\n        /* \"#utility.yul\":1628:1750   */\n    tag_98:\n        /* \"#utility.yul\":1701:1725   */\n      tag_126\n        /* \"#utility.yul\":1719:1724   */\n      dup2\n        /* \"#utility.yul\":1701:1725   */\n      tag_97\n      jump\t// in\n    tag_126:\n        /* \"#utility.yul\":1694:1699   */\n      dup2\n        /* \"#utility.yul\":1691:1726   */\n      eq\n        /* \"#utility.yul\":1681:1744   */\n      tag_127\n      jumpi\n        /* \"#utility.yul\":1740:1741   */\n      0x00\n        /* \"#utility.yul\":1737:1738   */\n      dup1\n        /* \"#utility.yul\":1730:1742   */\n      revert\n        /* \"#utility.yul\":1681:1744   */\n    tag_127:\n        /* \"#utility.yul\":1628:1750   */\n      pop\n      jump\t// out\n        /* \"#utility.yul\":1756:1895   */\n    tag_99:\n        /* \"#utility.yul\":1802:1807   */\n      0x00\n        /* \"#utility.yul\":1840:1846   */\n      dup2\n        /* \"#utility.yul\":1827:1847   */\n      calldataload\n        /* \"#utility.yul\":1818:1847   */\n      swap1\n      pop\n        /* \"#utility.yul\":1856:1889   */\n      tag_129\n        /* \"#utility.yul\":1883:1888   */\n      dup2\n        /* \"#utility.yul\":1856:1889   */\n      tag_98\n      jump\t// in\n    tag_129:\n        /* \"#utility.yul\":1756:1895   */\n      swap3\n      swap2\n      pop\n      pop\n      jump\t// out\n        /* \"#utility.yul\":1901:2230   */\n    tag_21:\n        /* \"#utility.yul\":1960:1966   */\n      0x00\n        /* \"#utility.yul\":2009:2011   */\n      0x20\n        /* \"#utility.yul\":1997:2006   */\n      dup3\n        /* \"#utility.yul\":1988:1995   */\n      dup5\n        /* \"#utility.yul\":1984:2007   */\n      sub\n        /* \"#utility.yul\":1980:2012   */\n      slt\n        /* \"#utility.yul\":1977:2096   */\n      iszero\n      tag_131\n      jumpi\n        /* \"#utility.yul\":2015:2094   */\n      tag_132\n      tag_92\n      jump\t// in\n    tag_132:\n        /* \"#utility.yul\":1977:2096   */\n    tag_131:\n        /* \"#utility.yul\":2135:2136   */\n      0x00\n        /* \"#utility.yul\":2160:2213   */\n      tag_133\n        /* \"#utility.yul\":2205:2212   */\n      dup5\n        /* \"#utility.yul\":2196:2202   */\n      dup3\n        /* \"#utility.yul\":2185:2194   */\n      dup6\n        /* \"#utility.yul\":2181:2203   */\n      add\n        /* \"#utility.yul\":2160:2213   */\n      tag_99\n      jump\t// in\n    tag_133:\n        /* \"#utility.yul\":2150:2213   */\n      swap2\n      pop\n        /* \"#utility.yul\":2106:2223   */\n      pop\n        /* \"#utility.yul\":1901:2230   */\n      swap3\n      swap2\n      pop\n      pop\n      jump\t// out\n        /* \"#utility.yul\":2236:2326   */\n    tag_100:\n        /* \"#utility.yul\":2270:2277   */\n      0x00\n        /* \"#utility.yul\":2313:2318   */\n      dup2\n        /* \"#utility.yul\":2306:2319   */\n      iszero\n        /* \"#utility.yul\":2299:2320   */\n      iszero\n        /* \"#utility.yul\":2288:2320   */\n      swap1\n      pop\n        /* \"#utility.yul\":2236:2326   */\n      swap2\n      swap1\n      pop\n      jump\t// out\n        /* \"#utility.yul\":2332:2441   */\n    tag_101:\n        /* \"#utility.yul\":2413:2434   */\n      tag_136\n        /* \"#utility.yul\":2428:2433   */\n      dup2\n        /* \"#utility.yul\":2413:2434   */\n      tag_100\n      jump\t// in\n    tag_136:\n        /* \"#utility.yul\":2408:2411   */\n      dup3\n        /* \"#utility.yul\":2401:2435   */\n      mstore\n        /* \"#utility.yul\":2332:2441   */\n      pop\n      pop\n      jump\t// out\n        /* \"#utility.yul\":2447:2657   */\n    tag_24:\n        /* \"#utility.yul\":2534:2538   */\n      0x00\n        /* \"#utility.yul\":2572:2574   */\n      0x20\n        /* \"#utility.yul\":2561:2570   */\n      dup3\n        /* \"#utility.yul\":2557:2575   */\n      add\n        /* \"#utility.yul\":2549:2575   */\n      swap1\n      pop\n        /* \"#utility.yul\":2585:2650   */\n      tag_138\n        /* \"#utility.yul\":2647:2648   */\n      0x00\n        /* \"#utility.yul\":2636:2645   */\n      dup4\n        /* \"#utility.yul\":2632:2649   */\n      add\n        /* \"#utility.yul\":2623:2629   */\n      dup5\n        /* \"#utility.yul\":2585:2650   */\n      tag_101\n      jump\t// in\n    tag_138:\n        /* \"#utility.yul\":2447:2657   */\n      swap3\n      swap2\n      pop\n      pop\n      jump\t// out\n        /* \"#utility.yul\":2663:2781   */\n    tag_102:\n        /* \"#utility.yul\":2750:2774   */\n      tag_140\n        /* \"#utility.yul\":2768:2773   */\n      dup2\n        /* \"#utility.yul\":2750:2774   */\n      tag_97\n      jump\t// in\n    tag_140:\n        /* \"#utility.yul\":2745:2748   */\n      dup3\n        /* \"#utility.yul\":2738:2775   */\n      mstore\n        /* \"#utility.yul\":2663:2781   */\n      pop\n      pop\n      jump\t// out\n        /* \"#utility.yul\":2787:3009   */\n    tag_33:\n        /* \"#utility.yul\":2880:2884   */\n      0x00\n        /* \"#utility.yul\":2918:2920   */\n      0x20\n        /* \"#utility.yul\":2907:2916   */\n      dup3\n        /* \"#utility.yul\":2903:2921   */\n      add\n        /* \"#utility.yul\":2895:2921   */\n      swap1\n      pop\n        /* \"#utility.yul\":2931:3002   */\n      tag_142\n        /* \"#utility.yul\":2999:3000   */\n      0x00\n        /* \"#utility.yul\":2988:2997   */\n      dup4\n        /* \"#utility.yul\":2984:3001   */\n      add\n        /* \"#utility.yul\":2975:2981   */\n      dup5\n        /* \"#utility.yul\":2931:3002   */\n      tag_102\n      jump\t// in\n    tag_142:\n        /* \"#utility.yul\":2787:3009   */\n      swap3\n      swap2\n      pop\n      pop\n      jump\t// out\n        /* \"#utility.yul\":3015:3195   */\n    tag_44:\n        /* \"#utility.yul\":3063:3140   */\n      0x4e487b7100000000000000000000000000000000000000000000000000000000\n        /* \"#utility.yul\":3060:3061   */\n      0x00\n        /* \"#utility.yul\":3053:3141   */\n      mstore\n        /* \"#utility.yul\":3160:3164   */\n      0x21\n        /* \"#utility.yul\":3157:3158   */\n      0x04\n        /* \"#utility.yul\":3150:3165   */\n      mstore\n        /* \"#utility.yul\":3184:3188   */\n      0x24\n        /* \"#utility.yul\":3181:3182   */\n      0x00\n        /* \"#utility.yul\":3174:3189   */\n      revert\n        /* \"#utility.yul\":3201:3381   */\n    tag_63:\n        /* \"#utility.yul\":3249:3326   */\n      0x4e487b7100000000000000000000000000000000000000000000000000000000\n        /* \"#utility.yul\":3246:3247   */\n      0x00\n        /* \"#utility.yul\":3239:3327   */\n      mstore\n        /* \"#utility.yul\":3346:3350   */\n      0x01\n        /* \"#utility.yul\":3343:3344   */\n      0x04\n        /* \"#utility.yul\":3336:3351   */\n      mstore\n        /* \"#utility.yul\":3370:3374   */\n      0x24\n        /* \"#utility.yul\":3367:3368   */\n      0x00\n        /* \"#utility.yul\":3360:3375   */\n      revert\n        /* \"#utility.yul\":3387:3567   */\n    tag_103:\n        /* \"#utility.yul\":3435:3512   */\n      0x4e487b7100000000000000000000000000000000000000000000000000000000\n        /* \"#utility.yul\":3432:3433   */\n      0x00\n        /* \"#utility.yul\":3425:3513   */\n      mstore\n        /* \"#utility.yul\":3532:3536   */\n      0x11\n        /* \"#utility.yul\":3529:3530   */\n      0x04\n        /* \"#utility.yul\":3522:3537   */\n      mstore\n        /* \"#utility.yul\":3556:3560   */\n      0x24\n        /* \"#utility.yul\":3553:3554   */\n      0x00\n        /* \"#utility.yul\":3546:3561   */\n      revert\n        /* \"#utility.yul\":3573:3806   */\n    tag_72:\n        /* \"#utility.yul\":3612:3615   */\n      0x00\n        /* \"#utility.yul\":3635:3659   */\n      tag_147\n        /* \"#utility.yul\":3653:3658   */\n      dup3\n        /* \"#utility.yul\":3635:3659   */\n      tag_89\n      jump\t// in\n    tag_147:\n        /* \"#utility.yul\":3626:3659   */\n      swap2\n      pop\n        /* \"#utility.yul\":3681:3747   */\n      0xffffffffffffffffffffffffffffffffffffffffffffffffffffffffffffffff\n        /* \"#utility.yul\":3674:3679   */\n      dup3\n        /* \"#utility.yul\":3671:3748   */\n      sub\n        /* \"#utility.yul\":3668:3771   */\n      tag_148\n      jumpi\n        /* \"#utility.yul\":3751:3769   */\n      tag_149\n      tag_103\n      jump\t// in\n    tag_149:\n        /* \"#utility.yul\":3668:3771   */\n    tag_148:\n        /* \"#utility.yul\":3798:3799   */\n      0x01\n        /* \"#utility.yul\":3791:3796   */\n      dup3\n        /* \"#utility.yul\":3787:3800   */\n      add\n        /* \"#utility.yul\":3780:3800   */\n      swap1\n      pop\n        /* \"#utility.yul\":3573:3806   */\n      swap2\n      swap1\n      pop\n      jump\t// out\n        /* \"#utility.yul\":3812:4003   */\n    tag_78:\n        /* \"#utility.yul\":3852:3855   */\n      0x00\n        /* \"#utility.yul\":3871:3891   */\n      tag_151\n        /* \"#utility.yul\":3889:3890   */\n      dup3\n        /* \"#utility.yul\":3871:3891   */\n      tag_89\n      jump\t// in\n    tag_151:\n        /* \"#utility.yul\":3866:3891   */\n      swap2\n      pop\n        /* \"#utility.yul\":3905:3925   */\n      tag_152\n        /* \"#utility.yul\":3923:3924   */\n      dup4\n        /* \"#utility.yul\":3905:3925   */\n      tag_89\n      jump\t// in\n    tag_152:\n        /* \"#utility.yul\":3900:3925   */\n      swap3\n      pop\n        /* \"#utility.yul\":3948:3949   */\n      dup3\n        /* \"#utility.yul\":3945:3946   */\n      dup3\n        /* \"#utility.yul\":3941:3950   */\n      add\n        /* \"#utility.yul\":3934:3950   */\n      swap1\n      pop\n        /* \"#utility.yul\":3969:3972   */\n      dup1\n        /* \"#utility.yul\":3966:3967   */\n      dup3\n        /* \"#utility.yul\":3963:3973   */\n      gt\n        /* \"#utility.yul\":3960:3996   */\n      iszero\n      tag_153\n      jumpi\n        /* \"#utility.yul\":3976:3994   */\n      tag_154\n      tag_103\n      jump\t// in\n    tag_154:\n        /* \"#utility.yul\":3960:3996   */\n    tag_153:\n        /* \"#utility.yul\":3812:4003   */\n      swap3\n      swap2\n      pop\n      pop\n      jump\t// out\n        /* \"#utility.yul\":4009:4189   */\n    tag_104:\n        /* \"#utility.yul\":4057:4134   */\n      0x4e487b7100000000000000000000000000000000000000000000000000000000\n        /* \"#utility.yul\":4054:4055   */\n      0x00\n        /* \"#utility.yul\":4047:4135   */\n      mstore\n        /* \"#utility.yul\":4154:4158   */\n      0x12\n        /* \"#utility.yul\":4151:4152   */\n      0x04\n        /* \"#utility.yul\":4144:4159   */\n      mstore\n        /* \"#utility.yul\":4178:4182   */\n      0x24\n        /* \"#utility.yul\":4175:4176   */\n      0x00\n        /* \"#utility.yul\":4168:4183   */\n      revert\n        /* \"#utility.yul\":4195:4380   */\n    tag_83:\n        /* \"#utility.yul\":4235:4236   */\n      0x00\n        /* \"#utility.yul\":4252:4272   */\n      tag_157\n        /* \"#utility.yul\":4270:4271   */\n      dup3\n        /* \"#utility.yul\":4252:4272   */\n      tag_89\n      jump\t// in\n    tag_157:\n        /* \"#utility.yul\":4247:4272   */\n      swap2\n      pop\n        /* \"#utility.yul\":4286:4306   */\n      tag_158\n        /* \"#utility.yul\":4304:4305   */\n      dup4\n        /* \"#utility.yul\":4286:4306   */\n      tag_89\n      jump\t// in\n    tag_158:\n        /* \"#utility.yul\":4281:4306   */\n      swap3\n      pop\n        /* \"#utility.yul\":4325:4326   */\n      dup3\n        /* \"#utility.yul\":4315:4350   */\n      tag_159\n      jumpi\n        /* \"#utility.yul\":4330:4348   */\n      tag_160\n      tag_104\n      jump\t// in\n    tag_160:\n        /* \"#utility.yul\":4315:4350   */\n    tag_159:\n        /* \"#utility.yul\":4372:4373   */\n      dup3\n        /* \"#utility.yul\":4369:4370   */\n      dup3\n        /* \"#utility.yul\":4365:4374   */\n      div\n        /* \"#utility.yul\":4360:4374   */\n      swap1\n      pop\n        /* \"#utility.yul\":4195:4380   */\n      swap3\n      swap2\n      pop\n      pop\n      jump\t// out\n        /* \"#utility.yul\":4386:4580   */\n    tag_88:\n        /* \"#utility.yul\":4426:4430   */\n      0x00\n        /* \"#utility.yul\":4446:4466   */\n      tag_162\n        /* \"#utility.yul\":4464:4465   */\n      dup3\n        /* \"#utility.yul\":4446:4466   */\n      tag_89\n      jump\t// in\n    tag_162:\n        /* \"#utility.yul\":4441:4466   */\n      swap2\n      pop\n        /* \"#utility.yul\":4480:4500   */\n      tag_163\n        /* \"#utility.yul\":4498:4499   */\n      dup4\n        /* \"#utility.yul\":4480:4500   */\n      tag_89\n      jump\t// in\n    tag_163:\n        /* \"#utility.yul\":4475:4500   */\n      swap3\n      pop\n        /* \"#utility.yul\":4524:4525   */\n      dup3\n        /* \"#utility.yul\":4521:4522   */\n      dup3\n        /* \"#utility.yul\":4517:4526   */\n      sub\n        /* \"#utility.yul\":4509:4526   */\n      swap1\n      pop\n        /* \"#utility.yul\":4548:4549   */\n      dup2\n        /* \"#utility.yul\":4542:4546   */\n      dup2\n        /* \"#utility.yul\":4539:4550   */\n      gt\n        /* \"#utility.yul\":4536:4573   */\n      iszero\n      tag_164\n      jumpi\n        /* \"#utility.yul\":4553:4571   */\n      tag_165\n      tag_103\n      jump\t// in\n    tag_165:\n        /* \"#utility.yul\":4536:4573   */\n    tag_164:\n        /* \"#utility.yul\":4386:4580   */\n      swap3\n      swap2\n      pop\n      pop\n      jump\t// out\n\n    auxdata: 0xa2646970667358221220c87f57b33d8b4ccb5fdae77e767876179fb2c637424bed644ada503411c0f96764736f6c63430008120033\n}\n",
				"bytecode": {
					"linkReferences": {},
					"object": "60806040526001600c60006101000a81548160ff0219169083151502179055506000600d556000600e5560014262000038919062000268565b600f5560006010553480156200004d57600080fd5b50604051620012ca380380620012ca833981810160405281019062000073919062000467565b336000806101000a81548173ffffffffffffffffffffffffffffffffffffffff021916908373ffffffffffffffffffffffffffffffffffffffff16021790555032600160006101000a81548173ffffffffffffffffffffffffffffffffffffffff021916908373ffffffffffffffffffffffffffffffffffffffff160217905550816005819055508360028190555082600681905550826007819055506200012e600554600254620001e160201b6200064d1790919060201c565b600381905550620001526006546003546200021260201b620006791790919060201c565b60088190555080600b908162000169919062000739565b504260098190555042600160009054906101000a900473ffffffffffffffffffffffffffffffffffffffff1673ffffffffffffffffffffffffffffffffffffffff167ff9f75c99c0e3522cd19ffc66fd6c94989a3f0821d37d5c5bb176aab904c6335d60405160405180910390a350505050620008b6565b6000808284620001f2919062000268565b90508381101562000208576200020762000820565b5b8091505092915050565b60008082846200022391906200087e565b90508091505092915050565b6000819050919050565b7f4e487b7100000000000000000000000000000000000000000000000000000000600052601160045260246000fd5b600062000275826200022f565b915062000282836200022f565b92508282019050808211156200029d576200029c62000239565b5b92915050565b6000604051905090565b600080fd5b600080fd5b620002c2816200022f565b8114620002ce57600080fd5b50565b600081519050620002e281620002b7565b92915050565b600080fd5b600080fd5b6000601f19601f8301169050919050565b7f4e487b7100000000000000000000000000000000000000000000000000000000600052604160045260246000fd5b6200033d82620002f2565b810181811067ffffffffffffffff821117156200035f576200035e62000303565b5b80604052505050565b600062000374620002a3565b905062000382828262000332565b919050565b600067ffffffffffffffff821115620003a557620003a462000303565b5b620003b082620002f2565b9050602081019050919050565b60005b83811015620003dd578082015181840152602081019050620003c0565b60008484015250505050565b600062000400620003fa8462000387565b62000368565b9050828152602081018484840111156200041f576200041e620002ed565b5b6200042c848285620003bd565b509392505050565b600082601f8301126200044c576200044b620002e8565b5b81516200045e848260208601620003e9565b91505092915050565b60008060008060808587031215620004845762000483620002ad565b5b60006200049487828801620002d1565b9450506020620004a787828801620002d1565b9350506040620004ba87828801620002d1565b925050606085015167ffffffffffffffff811115620004de57620004dd620002b2565b5b620004ec8782880162000434565b91505092959194509250565b600081519050919050565b7f4e487b7100000000000000000000000000000000000000000000000000000000600052602260045260246000fd5b600060028204905060018216806200054b57607f821691505b60208210810362000561576200056062000503565b5b50919050565b60008190508160005260206000209050919050565b60006020601f8301049050919050565b600082821b905092915050565b600060088302620005cb7fffffffffffffffffffffffffffffffffffffffffffffffffffffffffffffffff826200058c565b620005d786836200058c565b95508019841693508086168417925050509392505050565b6000819050919050565b60006200061a620006146200060e846200022f565b620005ef565b6200022f565b9050919050565b6000819050919050565b6200063683620005f9565b6200064e620006458262000621565b84845462000599565b825550505050565b600090565b6200066562000656565b620006728184846200062b565b505050565b5b818110156200069a576200068e6000826200065b565b60018101905062000678565b5050565b601f821115620006e957620006b38162000567565b620006be846200057c565b81016020851015620006ce578190505b620006e6620006dd856200057c565b83018262000677565b50505b505050565b600082821c905092915050565b60006200070e60001984600802620006ee565b1980831691505092915050565b6000620007298383620006fb565b9150826002028217905092915050565b6200074482620004f8565b67ffffffffffffffff81111562000760576200075f62000303565b5b6200076c825462000532565b620007798282856200069e565b600060209050601f831160018114620007b157600084156200079c578287015190505b620007a885826200071b565b86555062000818565b601f198416620007c18662000567565b60005b82811015620007eb57848901518255600182019150602085019450602081019050620007c4565b868310156200080b578489015162000807601f891682620006fb565b8355505b6001600288020188555050505b505050505050565b7f4e487b7100000000000000000000000000000000000000000000000000000000600052600160045260246000fd5b7f4e487b7100000000000000000000000000000000000000000000000000000000600052601260045260246000fd5b60006200088b826200022f565b915062000898836200022f565b925082620008ab57620008aa6200084f565b5b828204905092915050565b610a0480620008c66000396000f3fe6080604052600436106100555760003560e01c806312065fe01461005a578063268f11531461008557806328fd10d7146100ae57806329c68dc1146100eb5780638da5cb5b14610116578063e8b5e51f14610141575b600080fd5b34801561006657600080fd5b5061006f61014b565b60405161007c91906106d4565b60405180910390f35b34801561009157600080fd5b506100ac60048036038101906100a79190610719565b610153565b005b3480156100ba57600080fd5b506100d560048036038101906100d091906107a4565b610227565b6040516100e291906107ec565b60405180910390f35b3480156100f757600080fd5b50610100610247565b60405161010d91906107ec565b60405180910390f35b34801561012257600080fd5b5061012b610320565b6040516101389190610816565b60405180910390f35b610149610344565b005b600047905090565b60008054906101000a900473ffffffffffffffffffffffffffffffffffffffff1673ffffffffffffffffffffffffffffffffffffffff163373ffffffffffffffffffffffffffffffffffffffff16146101ab57600080fd5b80601560006101000a81548160ff021916908360058111156101d0576101cf610831565b5b021790555042601560009054906101000a900460ff1660058111156101f8576101f7610831565b5b7faaae373901e745122c2e0925ad006227969c6cd190b7d5ea2fb7fdbd1d955b3560405160405180910390a350565b60116020528060005260406000206000915054906101000a900460ff1681565b60008060009054906101000a900473ffffffffffffffffffffffffffffffffffffffff1673ffffffffffffffffffffffffffffffffffffffff163373ffffffffffffffffffffffffffffffffffffffff16146102a257600080fd5b600c60009054906101000a900460ff1615600c60006101000a81548160ff02191690831515021790555042600c60009054906101000a900460ff1615157f160914ea27c60aa29a5f3a69d74e6069869de36e38939de1e0a66b921d8623d260405160405180910390a3600c60009054906101000a900460ff16905090565b60008054906101000a900473ffffffffffffffffffffffffffffffffffffffff1681565b6000600581111561035857610357610831565b5b601560009054906101000a900460ff16600581111561037a57610379610831565b5b1461038457600080fd5b6000600254471061064a576103a46002544761069490919063ffffffff16565b90506103b9814761069490919063ffffffff16565b50348111156103cb576103ca610860565b5b60008111156104db573373ffffffffffffffffffffffffffffffffffffffff166108fc829081150290604051600060405180830381858888f1935050505015801561041a573d6000803e3d6000fd5b5042813373ffffffffffffffffffffffffffffffffffffffff167f566803f6e271b911c84f87631bcd310d6a6510bf8882577a96fc76975703e43160405160405180910390a46001601560006101000a81548160ff0219169083600581111561048657610485610831565b5b021790555042601560009054906101000a900460ff1660058111156104ae576104ad610831565b5b7faaae373901e745122c2e0925ad006227969c6cd190b7d5ea2fb7fdbd1d955b3560405160405180910390a35b6001601160003373ffffffffffffffffffffffffffffffffffffffff1673ffffffffffffffffffffffffffffffffffffffff16815260200190815260200160002060006101000a81548160ff021916908315150217905550600d6000815480929190610546906108be565b91905055506105af610561823461069490919063ffffffff16565b601260003373ffffffffffffffffffffffffffffffffffffffff1673ffffffffffffffffffffffffffffffffffffffff1681526020019081526020016000205461064d90919063ffffffff16565b601260003373ffffffffffffffffffffffffffffffffffffffff1673ffffffffffffffffffffffffffffffffffffffff1681526020019081526020016000208190555042610606823461069490919063ffffffff16565b3373ffffffffffffffffffffffffffffffffffffffff167f1b0969ce7f5b05c5e0969329a05cdbd7e2e2f6cee33ba26fd6e6bbcff82312cd60405160405180910390a45b50565b600080828461065c9190610906565b90508381101561066f5761066e610860565b5b8091505092915050565b60008082846106889190610969565b90508091505092915050565b6000828211156106a7576106a6610860565b5b81836106b3919061099a565b905092915050565b6000819050919050565b6106ce816106bb565b82525050565b60006020820190506106e960008301846106c5565b92915050565b600080fd5b6006811061070157600080fd5b50565b600081359050610713816106f4565b92915050565b60006020828403121561072f5761072e6106ef565b5b600061073d84828501610704565b91505092915050565b600073ffffffffffffffffffffffffffffffffffffffff82169050919050565b600061077182610746565b9050919050565b61078181610766565b811461078c57600080fd5b50565b60008135905061079e81610778565b92915050565b6000602082840312156107ba576107b96106ef565b5b60006107c88482850161078f565b91505092915050565b60008115159050919050565b6107e6816107d1565b82525050565b600060208201905061080160008301846107dd565b92915050565b61081081610766565b82525050565b600060208201905061082b6000830184610807565b92915050565b7f4e487b7100000000000000000000000000000000000000000000000000000000600052602160045260246000fd5b7f4e487b7100000000000000000000000000000000000000000000000000000000600052600160045260246000fd5b7f4e487b7100000000000000000000000000000000000000000000000000000000600052601160045260246000fd5b60006108c9826106bb565b91507fffffffffffffffffffffffffffffffffffffffffffffffffffffffffffffffff82036108fb576108fa61088f565b5b600182019050919050565b6000610911826106bb565b915061091c836106bb565b92508282019050808211156109345761093361088f565b5b92915050565b7f4e487b7100000000000000000000000000000000000000000000000000000000600052601260045260246000fd5b6000610974826106bb565b915061097f836106bb565b92508261098f5761098e61093a565b5b828204905092915050565b60006109a5826106bb565b91506109b0836106bb565b92508282039050818111156109c8576109c761088f565b5b9291505056fea2646970667358221220c87f57b33d8b4ccb5fdae77e767876179fb2c637424bed644ada503411c0f96764736f6c63430008120033",
					"opcodes": "PUSH1 0x80 PUSH1 0x40 MSTORE PUSH1 0x1 PUSH1 0xC PUSH1 0x0 PUSH2 0x100 EXP DUP2 SLOAD DUP2 PUSH1 0xFF MUL NOT AND SWAP1 DUP4 ISZERO ISZERO MUL OR SWAP1 SSTORE POP PUSH1 0x0 PUSH1 0xD SSTORE PUSH1 0x0 PUSH1 0xE SSTORE PUSH1 0x1 TIMESTAMP PUSH3 0x38 SWAP2 SWAP1 PUSH3 0x268 JUMP JUMPDEST PUSH1 0xF SSTORE PUSH1 0x0 PUSH1 0x10 SSTORE CALLVALUE DUP1 ISZERO PUSH3 0x4D JUMPI PUSH1 0x0 DUP1 REVERT JUMPDEST POP PUSH1 0x40 MLOAD PUSH3 0x12CA CODESIZE SUB DUP1 PUSH3 0x12CA DUP4 CODECOPY DUP2 DUP2 ADD PUSH1 0x40 MSTORE DUP2 ADD SWAP1 PUSH3 0x73 SWAP2 SWAP1 PUSH3 0x467 JUMP JUMPDEST CALLER PUSH1 0x0 DUP1 PUSH2 0x100 EXP DUP2 SLOAD DUP2 PUSH20 0xFFFFFFFFFFFFFFFFFFFFFFFFFFFFFFFFFFFFFFFF MUL NOT AND SWAP1 DUP4 PUSH20 0xFFFFFFFFFFFFFFFFFFFFFFFFFFFFFFFFFFFFFFFF AND MUL OR SWAP1 SSTORE POP ORIGIN PUSH1 0x1 PUSH1 0x0 PUSH2 0x100 EXP DUP2 SLOAD DUP2 PUSH20 0xFFFFFFFFFFFFFFFFFFFFFFFFFFFFFFFFFFFFFFFF MUL NOT AND SWAP1 DUP4 PUSH20 0xFFFFFFFFFFFFFFFFFFFFFFFFFFFFFFFFFFFFFFFF AND MUL OR SWAP1 SSTORE POP DUP2 PUSH1 0x5 DUP2 SWAP1 SSTORE POP DUP4 PUSH1 0x2 DUP2 SWAP1 SSTORE POP DUP3 PUSH1 0x6 DUP2 SWAP1 SSTORE POP DUP3 PUSH1 0x7 DUP2 SWAP1 SSTORE POP PUSH3 0x12E PUSH1 0x5 SLOAD PUSH1 0x2 SLOAD PUSH3 0x1E1 PUSH1 0x20 SHL PUSH3 0x64D OR SWAP1 SWAP2 SWAP1 PUSH1 0x20 SHR JUMP JUMPDEST PUSH1 0x3 DUP2 SWAP1 SSTORE POP PUSH3 0x152 PUSH1 0x6 SLOAD PUSH1 0x3 SLOAD PUSH3 0x212 PUSH1 0x20 SHL PUSH3 0x679 OR SWAP1 SWAP2 SWAP1 PUSH1 0x20 SHR JUMP JUMPDEST PUSH1 0x8 DUP2 SWAP1 SSTORE POP DUP1 PUSH1 0xB SWAP1 DUP2 PUSH3 0x169 SWAP2 SWAP1 PUSH3 0x739 JUMP JUMPDEST POP TIMESTAMP PUSH1 0x9 DUP2 SWAP1 SSTORE POP TIMESTAMP PUSH1 0x1 PUSH1 0x0 SWAP1 SLOAD SWAP1 PUSH2 0x100 EXP SWAP1 DIV PUSH20 0xFFFFFFFFFFFFFFFFFFFFFFFFFFFFFFFFFFFFFFFF AND PUSH20 0xFFFFFFFFFFFFFFFFFFFFFFFFFFFFFFFFFFFFFFFF AND PUSH32 0xF9F75C99C0E3522CD19FFC66FD6C94989A3F0821D37D5C5BB176AAB904C6335D PUSH1 0x40 MLOAD PUSH1 0x40 MLOAD DUP1 SWAP2 SUB SWAP1 LOG3 POP POP POP POP PUSH3 0x8B6 JUMP JUMPDEST PUSH1 0x0 DUP1 DUP3 DUP5 PUSH3 0x1F2 SWAP2 SWAP1 PUSH3 0x268 JUMP JUMPDEST SWAP1 POP DUP4 DUP2 LT ISZERO PUSH3 0x208 JUMPI PUSH3 0x207 PUSH3 0x820 JUMP JUMPDEST JUMPDEST DUP1 SWAP2 POP POP SWAP3 SWAP2 POP POP JUMP JUMPDEST PUSH1 0x0 DUP1 DUP3 DUP5 PUSH3 0x223 SWAP2 SWAP1 PUSH3 0x87E JUMP JUMPDEST SWAP1 POP DUP1 SWAP2 POP POP SWAP3 SWAP2 POP POP JUMP JUMPDEST PUSH1 0x0 DUP2 SWAP1 POP SWAP2 SWAP1 POP JUMP JUMPDEST PUSH32 0x4E487B7100000000000000000000000000000000000000000000000000000000 PUSH1 0x0 MSTORE PUSH1 0x11 PUSH1 0x4 MSTORE PUSH1 0x24 PUSH1 0x0 REVERT JUMPDEST PUSH1 0x0 PUSH3 0x275 DUP3 PUSH3 0x22F JUMP JUMPDEST SWAP2 POP PUSH3 0x282 DUP4 PUSH3 0x22F JUMP JUMPDEST SWAP3 POP DUP3 DUP3 ADD SWAP1 POP DUP1 DUP3 GT ISZERO PUSH3 0x29D JUMPI PUSH3 0x29C PUSH3 0x239 JUMP JUMPDEST JUMPDEST SWAP3 SWAP2 POP POP JUMP JUMPDEST PUSH1 0x0 PUSH1 0x40 MLOAD SWAP1 POP SWAP1 JUMP JUMPDEST PUSH1 0x0 DUP1 REVERT JUMPDEST PUSH1 0x0 DUP1 REVERT JUMPDEST PUSH3 0x2C2 DUP2 PUSH3 0x22F JUMP JUMPDEST DUP2 EQ PUSH3 0x2CE JUMPI PUSH1 0x0 DUP1 REVERT JUMPDEST POP JUMP JUMPDEST PUSH1 0x0 DUP2 MLOAD SWAP1 POP PUSH3 0x2E2 DUP2 PUSH3 0x2B7 JUMP JUMPDEST SWAP3 SWAP2 POP POP JUMP JUMPDEST PUSH1 0x0 DUP1 REVERT JUMPDEST PUSH1 0x0 DUP1 REVERT JUMPDEST PUSH1 0x0 PUSH1 0x1F NOT PUSH1 0x1F DUP4 ADD AND SWAP1 POP SWAP2 SWAP1 POP JUMP JUMPDEST PUSH32 0x4E487B7100000000000000000000000000000000000000000000000000000000 PUSH1 0x0 MSTORE PUSH1 0x41 PUSH1 0x4 MSTORE PUSH1 0x24 PUSH1 0x0 REVERT JUMPDEST PUSH3 0x33D DUP3 PUSH3 0x2F2 JUMP JUMPDEST DUP2 ADD DUP2 DUP2 LT PUSH8 0xFFFFFFFFFFFFFFFF DUP3 GT OR ISZERO PUSH3 0x35F JUMPI PUSH3 0x35E PUSH3 0x303 JUMP JUMPDEST JUMPDEST DUP1 PUSH1 0x40 MSTORE POP POP POP JUMP JUMPDEST PUSH1 0x0 PUSH3 0x374 PUSH3 0x2A3 JUMP JUMPDEST SWAP1 POP PUSH3 0x382 DUP3 DUP3 PUSH3 0x332 JUMP JUMPDEST SWAP2 SWAP1 POP JUMP JUMPDEST PUSH1 0x0 PUSH8 0xFFFFFFFFFFFFFFFF DUP3 GT ISZERO PUSH3 0x3A5 JUMPI PUSH3 0x3A4 PUSH3 0x303 JUMP JUMPDEST JUMPDEST PUSH3 0x3B0 DUP3 PUSH3 0x2F2 JUMP JUMPDEST SWAP1 POP PUSH1 0x20 DUP2 ADD SWAP1 POP SWAP2 SWAP1 POP JUMP JUMPDEST PUSH1 0x0 JUMPDEST DUP4 DUP2 LT ISZERO PUSH3 0x3DD JUMPI DUP1 DUP3 ADD MLOAD DUP2 DUP5 ADD MSTORE PUSH1 0x20 DUP2 ADD SWAP1 POP PUSH3 0x3C0 JUMP JUMPDEST PUSH1 0x0 DUP5 DUP5 ADD MSTORE POP POP POP POP JUMP JUMPDEST PUSH1 0x0 PUSH3 0x400 PUSH3 0x3FA DUP5 PUSH3 0x387 JUMP JUMPDEST PUSH3 0x368 JUMP JUMPDEST SWAP1 POP DUP3 DUP2 MSTORE PUSH1 0x20 DUP2 ADD DUP5 DUP5 DUP5 ADD GT ISZERO PUSH3 0x41F JUMPI PUSH3 0x41E PUSH3 0x2ED JUMP JUMPDEST JUMPDEST PUSH3 0x42C DUP5 DUP3 DUP6 PUSH3 0x3BD JUMP JUMPDEST POP SWAP4 SWAP3 POP POP POP JUMP JUMPDEST PUSH1 0x0 DUP3 PUSH1 0x1F DUP4 ADD SLT PUSH3 0x44C JUMPI PUSH3 0x44B PUSH3 0x2E8 JUMP JUMPDEST JUMPDEST DUP2 MLOAD PUSH3 0x45E DUP5 DUP3 PUSH1 0x20 DUP7 ADD PUSH3 0x3E9 JUMP JUMPDEST SWAP2 POP POP SWAP3 SWAP2 POP POP JUMP JUMPDEST PUSH1 0x0 DUP1 PUSH1 0x0 DUP1 PUSH1 0x80 DUP6 DUP8 SUB SLT ISZERO PUSH3 0x484 JUMPI PUSH3 0x483 PUSH3 0x2AD JUMP JUMPDEST JUMPDEST PUSH1 0x0 PUSH3 0x494 DUP8 DUP3 DUP9 ADD PUSH3 0x2D1 JUMP JUMPDEST SWAP5 POP POP PUSH1 0x20 PUSH3 0x4A7 DUP8 DUP3 DUP9 ADD PUSH3 0x2D1 JUMP JUMPDEST SWAP4 POP POP PUSH1 0x40 PUSH3 0x4BA DUP8 DUP3 DUP9 ADD PUSH3 0x2D1 JUMP JUMPDEST SWAP3 POP POP PUSH1 0x60 DUP6 ADD MLOAD PUSH8 0xFFFFFFFFFFFFFFFF DUP2 GT ISZERO PUSH3 0x4DE JUMPI PUSH3 0x4DD PUSH3 0x2B2 JUMP JUMPDEST JUMPDEST PUSH3 0x4EC DUP8 DUP3 DUP9 ADD PUSH3 0x434 JUMP JUMPDEST SWAP2 POP POP SWAP3 SWAP6 SWAP2 SWAP5 POP SWAP3 POP JUMP JUMPDEST PUSH1 0x0 DUP2 MLOAD SWAP1 POP SWAP2 SWAP1 POP JUMP JUMPDEST PUSH32 0x4E487B7100000000000000000000000000000000000000000000000000000000 PUSH1 0x0 MSTORE PUSH1 0x22 PUSH1 0x4 MSTORE PUSH1 0x24 PUSH1 0x0 REVERT JUMPDEST PUSH1 0x0 PUSH1 0x2 DUP3 DIV SWAP1 POP PUSH1 0x1 DUP3 AND DUP1 PUSH3 0x54B JUMPI PUSH1 0x7F DUP3 AND SWAP2 POP JUMPDEST PUSH1 0x20 DUP3 LT DUP2 SUB PUSH3 0x561 JUMPI PUSH3 0x560 PUSH3 0x503 JUMP JUMPDEST JUMPDEST POP SWAP2 SWAP1 POP JUMP JUMPDEST PUSH1 0x0 DUP2 SWAP1 POP DUP2 PUSH1 0x0 MSTORE PUSH1 0x20 PUSH1 0x0 KECCAK256 SWAP1 POP SWAP2 SWAP1 POP JUMP JUMPDEST PUSH1 0x0 PUSH1 0x20 PUSH1 0x1F DUP4 ADD DIV SWAP1 POP SWAP2 SWAP1 POP JUMP JUMPDEST PUSH1 0x0 DUP3 DUP3 SHL SWAP1 POP SWAP3 SWAP2 POP POP JUMP JUMPDEST PUSH1 0x0 PUSH1 0x8 DUP4 MUL PUSH3 0x5CB PUSH32 0xFFFFFFFFFFFFFFFFFFFFFFFFFFFFFFFFFFFFFFFFFFFFFFFFFFFFFFFFFFFFFFFF DUP3 PUSH3 0x58C JUMP JUMPDEST PUSH3 0x5D7 DUP7 DUP4 PUSH3 0x58C JUMP JUMPDEST SWAP6 POP DUP1 NOT DUP5 AND SWAP4 POP DUP1 DUP7 AND DUP5 OR SWAP3 POP POP POP SWAP4 SWAP3 POP POP POP JUMP JUMPDEST PUSH1 0x0 DUP2 SWAP1 POP SWAP2 SWAP1 POP JUMP JUMPDEST PUSH1 0x0 PUSH3 0x61A PUSH3 0x614 PUSH3 0x60E DUP5 PUSH3 0x22F JUMP JUMPDEST PUSH3 0x5EF JUMP JUMPDEST PUSH3 0x22F JUMP JUMPDEST SWAP1 POP SWAP2 SWAP1 POP JUMP JUMPDEST PUSH1 0x0 DUP2 SWAP1 POP SWAP2 SWAP1 POP JUMP JUMPDEST PUSH3 0x636 DUP4 PUSH3 0x5F9 JUMP JUMPDEST PUSH3 0x64E PUSH3 0x645 DUP3 PUSH3 0x621 JUMP JUMPDEST DUP5 DUP5 SLOAD PUSH3 0x599 JUMP JUMPDEST DUP3 SSTORE POP POP POP POP JUMP JUMPDEST PUSH1 0x0 SWAP1 JUMP JUMPDEST PUSH3 0x665 PUSH3 0x656 JUMP JUMPDEST PUSH3 0x672 DUP2 DUP5 DUP5 PUSH3 0x62B JUMP JUMPDEST POP POP POP JUMP JUMPDEST JUMPDEST DUP2 DUP2 LT ISZERO PUSH3 0x69A JUMPI PUSH3 0x68E PUSH1 0x0 DUP3 PUSH3 0x65B JUMP JUMPDEST PUSH1 0x1 DUP2 ADD SWAP1 POP PUSH3 0x678 JUMP JUMPDEST POP POP JUMP JUMPDEST PUSH1 0x1F DUP3 GT ISZERO PUSH3 0x6E9 JUMPI PUSH3 0x6B3 DUP2 PUSH3 0x567 JUMP JUMPDEST PUSH3 0x6BE DUP5 PUSH3 0x57C JUMP JUMPDEST DUP2 ADD PUSH1 0x20 DUP6 LT ISZERO PUSH3 0x6CE JUMPI DUP2 SWAP1 POP JUMPDEST PUSH3 0x6E6 PUSH3 0x6DD DUP6 PUSH3 0x57C JUMP JUMPDEST DUP4 ADD DUP3 PUSH3 0x677 JUMP JUMPDEST POP POP JUMPDEST POP POP POP JUMP JUMPDEST PUSH1 0x0 DUP3 DUP3 SHR SWAP1 POP SWAP3 SWAP2 POP POP JUMP JUMPDEST PUSH1 0x0 PUSH3 0x70E PUSH1 0x0 NOT DUP5 PUSH1 0x8 MUL PUSH3 0x6EE JUMP JUMPDEST NOT DUP1 DUP4 AND SWAP2 POP POP SWAP3 SWAP2 POP POP JUMP JUMPDEST PUSH1 0x0 PUSH3 0x729 DUP4 DUP4 PUSH3 0x6FB JUMP JUMPDEST SWAP2 POP DUP3 PUSH1 0x2 MUL DUP3 OR SWAP1 POP SWAP3 SWAP2 POP POP JUMP JUMPDEST PUSH3 0x744 DUP3 PUSH3 0x4F8 JUMP JUMPDEST PUSH8 0xFFFFFFFFFFFFFFFF DUP2 GT ISZERO PUSH3 0x760 JUMPI PUSH3 0x75F PUSH3 0x303 JUMP JUMPDEST JUMPDEST PUSH3 0x76C DUP3 SLOAD PUSH3 0x532 JUMP JUMPDEST PUSH3 0x779 DUP3 DUP3 DUP6 PUSH3 0x69E JUMP JUMPDEST PUSH1 0x0 PUSH1 0x20 SWAP1 POP PUSH1 0x1F DUP4 GT PUSH1 0x1 DUP2 EQ PUSH3 0x7B1 JUMPI PUSH1 0x0 DUP5 ISZERO PUSH3 0x79C JUMPI DUP3 DUP8 ADD MLOAD SWAP1 POP JUMPDEST PUSH3 0x7A8 DUP6 DUP3 PUSH3 0x71B JUMP JUMPDEST DUP7 SSTORE POP PUSH3 0x818 JUMP JUMPDEST PUSH1 0x1F NOT DUP5 AND PUSH3 0x7C1 DUP7 PUSH3 0x567 JUMP JUMPDEST PUSH1 0x0 JUMPDEST DUP3 DUP2 LT ISZERO PUSH3 0x7EB JUMPI DUP5 DUP10 ADD MLOAD DUP3 SSTORE PUSH1 0x1 DUP3 ADD SWAP2 POP PUSH1 0x20 DUP6 ADD SWAP5 POP PUSH1 0x20 DUP2 ADD SWAP1 POP PUSH3 0x7C4 JUMP JUMPDEST DUP7 DUP4 LT ISZERO PUSH3 0x80B JUMPI DUP5 DUP10 ADD MLOAD PUSH3 0x807 PUSH1 0x1F DUP10 AND DUP3 PUSH3 0x6FB JUMP JUMPDEST DUP4 SSTORE POP JUMPDEST PUSH1 0x1 PUSH1 0x2 DUP9 MUL ADD DUP9 SSTORE POP POP POP JUMPDEST POP POP POP POP POP POP JUMP JUMPDEST PUSH32 0x4E487B7100000000000000000000000000000000000000000000000000000000 PUSH1 0x0 MSTORE PUSH1 0x1 PUSH1 0x4 MSTORE PUSH1 0x24 PUSH1 0x0 REVERT JUMPDEST PUSH32 0x4E487B7100000000000000000000000000000000000000000000000000000000 PUSH1 0x0 MSTORE PUSH1 0x12 PUSH1 0x4 MSTORE PUSH1 0x24 PUSH1 0x0 REVERT JUMPDEST PUSH1 0x0 PUSH3 0x88B DUP3 PUSH3 0x22F JUMP JUMPDEST SWAP2 POP PUSH3 0x898 DUP4 PUSH3 0x22F JUMP JUMPDEST SWAP3 POP DUP3 PUSH3 0x8AB JUMPI PUSH3 0x8AA PUSH3 0x84F JUMP JUMPDEST JUMPDEST DUP3 DUP3 DIV SWAP1 POP SWAP3 SWAP2 POP POP JUMP JUMPDEST PUSH2 0xA04 DUP1 PUSH3 0x8C6 PUSH1 0x0 CODECOPY PUSH1 0x0 RETURN INVALID PUSH1 0x80 PUSH1 0x40 MSTORE PUSH1 0x4 CALLDATASIZE LT PUSH2 0x55 JUMPI PUSH1 0x0 CALLDATALOAD PUSH1 0xE0 SHR DUP1 PUSH4 0x12065FE0 EQ PUSH2 0x5A JUMPI DUP1 PUSH4 0x268F1153 EQ PUSH2 0x85 JUMPI DUP1 PUSH4 0x28FD10D7 EQ PUSH2 0xAE JUMPI DUP1 PUSH4 0x29C68DC1 EQ PUSH2 0xEB JUMPI DUP1 PUSH4 0x8DA5CB5B EQ PUSH2 0x116 JUMPI DUP1 PUSH4 0xE8B5E51F EQ PUSH2 0x141 JUMPI JUMPDEST PUSH1 0x0 DUP1 REVERT JUMPDEST CALLVALUE DUP1 ISZERO PUSH2 0x66 JUMPI PUSH1 0x0 DUP1 REVERT JUMPDEST POP PUSH2 0x6F PUSH2 0x14B JUMP JUMPDEST PUSH1 0x40 MLOAD PUSH2 0x7C SWAP2 SWAP1 PUSH2 0x6D4 JUMP JUMPDEST PUSH1 0x40 MLOAD DUP1 SWAP2 SUB SWAP1 RETURN JUMPDEST CALLVALUE DUP1 ISZERO PUSH2 0x91 JUMPI PUSH1 0x0 DUP1 REVERT JUMPDEST POP PUSH2 0xAC PUSH1 0x4 DUP1 CALLDATASIZE SUB DUP2 ADD SWAP1 PUSH2 0xA7 SWAP2 SWAP1 PUSH2 0x719 JUMP JUMPDEST PUSH2 0x153 JUMP JUMPDEST STOP JUMPDEST CALLVALUE DUP1 ISZERO PUSH2 0xBA JUMPI PUSH1 0x0 DUP1 REVERT JUMPDEST POP PUSH2 0xD5 PUSH1 0x4 DUP1 CALLDATASIZE SUB DUP2 ADD SWAP1 PUSH2 0xD0 SWAP2 SWAP1 PUSH2 0x7A4 JUMP JUMPDEST PUSH2 0x227 JUMP JUMPDEST PUSH1 0x40 MLOAD PUSH2 0xE2 SWAP2 SWAP1 PUSH2 0x7EC JUMP JUMPDEST PUSH1 0x40 MLOAD DUP1 SWAP2 SUB SWAP1 RETURN JUMPDEST CALLVALUE DUP1 ISZERO PUSH2 0xF7 JUMPI PUSH1 0x0 DUP1 REVERT JUMPDEST POP PUSH2 0x100 PUSH2 0x247 JUMP JUMPDEST PUSH1 0x40 MLOAD PUSH2 0x10D SWAP2 SWAP1 PUSH2 0x7EC JUMP JUMPDEST PUSH1 0x40 MLOAD DUP1 SWAP2 SUB SWAP1 RETURN JUMPDEST CALLVALUE DUP1 ISZERO PUSH2 0x122 JUMPI PUSH1 0x0 DUP1 REVERT JUMPDEST POP PUSH2 0x12B PUSH2 0x320 JUMP JUMPDEST PUSH1 0x40 MLOAD PUSH2 0x138 SWAP2 SWAP1 PUSH2 0x816 JUMP JUMPDEST PUSH1 0x40 MLOAD DUP1 SWAP2 SUB SWAP1 RETURN JUMPDEST PUSH2 0x149 PUSH2 0x344 JUMP JUMPDEST STOP JUMPDEST PUSH1 0x0 SELFBALANCE SWAP1 POP SWAP1 JUMP JUMPDEST PUSH1 0x0 DUP1 SLOAD SWAP1 PUSH2 0x100 EXP SWAP1 DIV PUSH20 0xFFFFFFFFFFFFFFFFFFFFFFFFFFFFFFFFFFFFFFFF AND PUSH20 0xFFFFFFFFFFFFFFFFFFFFFFFFFFFFFFFFFFFFFFFF AND CALLER PUSH20 0xFFFFFFFFFFFFFFFFFFFFFFFFFFFFFFFFFFFFFFFF AND EQ PUSH2 0x1AB JUMPI PUSH1 0x0 DUP1 REVERT JUMPDEST DUP1 PUSH1 0x15 PUSH1 0x0 PUSH2 0x100 EXP DUP2 SLOAD DUP2 PUSH1 0xFF MUL NOT AND SWAP1 DUP4 PUSH1 0x5 DUP2 GT ISZERO PUSH2 0x1D0 JUMPI PUSH2 0x1CF PUSH2 0x831 JUMP JUMPDEST JUMPDEST MUL OR SWAP1 SSTORE POP TIMESTAMP PUSH1 0x15 PUSH1 0x0 SWAP1 SLOAD SWAP1 PUSH2 0x100 EXP SWAP1 DIV PUSH1 0xFF AND PUSH1 0x5 DUP2 GT ISZERO PUSH2 0x1F8 JUMPI PUSH2 0x1F7 PUSH2 0x831 JUMP JUMPDEST JUMPDEST PUSH32 0xAAAE373901E745122C2E0925AD006227969C6CD190B7D5EA2FB7FDBD1D955B35 PUSH1 0x40 MLOAD PUSH1 0x40 MLOAD DUP1 SWAP2 SUB SWAP1 LOG3 POP JUMP JUMPDEST PUSH1 0x11 PUSH1 0x20 MSTORE DUP1 PUSH1 0x0 MSTORE PUSH1 0x40 PUSH1 0x0 KECCAK256 PUSH1 0x0 SWAP2 POP SLOAD SWAP1 PUSH2 0x100 EXP SWAP1 DIV PUSH1 0xFF AND DUP2 JUMP JUMPDEST PUSH1 0x0 DUP1 PUSH1 0x0 SWAP1 SLOAD SWAP1 PUSH2 0x100 EXP SWAP1 DIV PUSH20 0xFFFFFFFFFFFFFFFFFFFFFFFFFFFFFFFFFFFFFFFF AND PUSH20 0xFFFFFFFFFFFFFFFFFFFFFFFFFFFFFFFFFFFFFFFF AND CALLER PUSH20 0xFFFFFFFFFFFFFFFFFFFFFFFFFFFFFFFFFFFFFFFF AND EQ PUSH2 0x2A2 JUMPI PUSH1 0x0 DUP1 REVERT JUMPDEST PUSH1 0xC PUSH1 0x0 SWAP1 SLOAD SWAP1 PUSH2 0x100 EXP SWAP1 DIV PUSH1 0xFF AND ISZERO PUSH1 0xC PUSH1 0x0 PUSH2 0x100 EXP DUP2 SLOAD DUP2 PUSH1 0xFF MUL NOT AND SWAP1 DUP4 ISZERO ISZERO MUL OR SWAP1 SSTORE POP TIMESTAMP PUSH1 0xC PUSH1 0x0 SWAP1 SLOAD SWAP1 PUSH2 0x100 EXP SWAP1 DIV PUSH1 0xFF AND ISZERO ISZERO PUSH32 0x160914EA27C60AA29A5F3A69D74E6069869DE36E38939DE1E0A66B921D8623D2 PUSH1 0x40 MLOAD PUSH1 0x40 MLOAD DUP1 SWAP2 SUB SWAP1 LOG3 PUSH1 0xC PUSH1 0x0 SWAP1 SLOAD SWAP1 PUSH2 0x100 EXP SWAP1 DIV PUSH1 0xFF AND SWAP1 POP SWAP1 JUMP JUMPDEST PUSH1 0x0 DUP1 SLOAD SWAP1 PUSH2 0x100 EXP SWAP1 DIV PUSH20 0xFFFFFFFFFFFFFFFFFFFFFFFFFFFFFFFFFFFFFFFF AND DUP2 JUMP JUMPDEST PUSH1 0x0 PUSH1 0x5 DUP2 GT ISZERO PUSH2 0x358 JUMPI PUSH2 0x357 PUSH2 0x831 JUMP JUMPDEST JUMPDEST PUSH1 0x15 PUSH1 0x0 SWAP1 SLOAD SWAP1 PUSH2 0x100 EXP SWAP1 DIV PUSH1 0xFF AND PUSH1 0x5 DUP2 GT ISZERO PUSH2 0x37A JUMPI PUSH2 0x379 PUSH2 0x831 JUMP JUMPDEST JUMPDEST EQ PUSH2 0x384 JUMPI PUSH1 0x0 DUP1 REVERT JUMPDEST PUSH1 0x0 PUSH1 0x2 SLOAD SELFBALANCE LT PUSH2 0x64A JUMPI PUSH2 0x3A4 PUSH1 0x2 SLOAD SELFBALANCE PUSH2 0x694 SWAP1 SWAP2 SWAP1 PUSH4 0xFFFFFFFF AND JUMP JUMPDEST SWAP1 POP PUSH2 0x3B9 DUP2 SELFBALANCE PUSH2 0x694 SWAP1 SWAP2 SWAP1 PUSH4 0xFFFFFFFF AND JUMP JUMPDEST POP CALLVALUE DUP2 GT ISZERO PUSH2 0x3CB JUMPI PUSH2 0x3CA PUSH2 0x860 JUMP JUMPDEST JUMPDEST PUSH1 0x0 DUP2 GT ISZERO PUSH2 0x4DB JUMPI CALLER PUSH20 0xFFFFFFFFFFFFFFFFFFFFFFFFFFFFFFFFFFFFFFFF AND PUSH2 0x8FC DUP3 SWAP1 DUP2 ISZERO MUL SWAP1 PUSH1 0x40 MLOAD PUSH1 0x0 PUSH1 0x40 MLOAD DUP1 DUP4 SUB DUP2 DUP6 DUP9 DUP9 CALL SWAP4 POP POP POP POP ISZERO DUP1 ISZERO PUSH2 0x41A JUMPI RETURNDATASIZE PUSH1 0x0 DUP1 RETURNDATACOPY RETURNDATASIZE PUSH1 0x0 REVERT JUMPDEST POP TIMESTAMP DUP2 CALLER PUSH20 0xFFFFFFFFFFFFFFFFFFFFFFFFFFFFFFFFFFFFFFFF AND PUSH32 0x566803F6E271B911C84F87631BCD310D6A6510BF8882577A96FC76975703E431 PUSH1 0x40 MLOAD PUSH1 0x40 MLOAD DUP1 SWAP2 SUB SWAP1 LOG4 PUSH1 0x1 PUSH1 0x15 PUSH1 0x0 PUSH2 0x100 EXP DUP2 SLOAD DUP2 PUSH1 0xFF MUL NOT AND SWAP1 DUP4 PUSH1 0x5 DUP2 GT ISZERO PUSH2 0x486 JUMPI PUSH2 0x485 PUSH2 0x831 JUMP JUMPDEST JUMPDEST MUL OR SWAP1 SSTORE POP TIMESTAMP PUSH1 0x15 PUSH1 0x0 SWAP1 SLOAD SWAP1 PUSH2 0x100 EXP SWAP1 DIV PUSH1 0xFF AND PUSH1 0x5 DUP2 GT ISZERO PUSH2 0x4AE JUMPI PUSH2 0x4AD PUSH2 0x831 JUMP JUMPDEST JUMPDEST PUSH32 0xAAAE373901E745122C2E0925AD006227969C6CD190B7D5EA2FB7FDBD1D955B35 PUSH1 0x40 MLOAD PUSH1 0x40 MLOAD DUP1 SWAP2 SUB SWAP1 LOG3 JUMPDEST PUSH1 0x1 PUSH1 0x11 PUSH1 0x0 CALLER PUSH20 0xFFFFFFFFFFFFFFFFFFFFFFFFFFFFFFFFFFFFFFFF AND PUSH20 0xFFFFFFFFFFFFFFFFFFFFFFFFFFFFFFFFFFFFFFFF AND DUP2 MSTORE PUSH1 0x20 ADD SWAP1 DUP2 MSTORE PUSH1 0x20 ADD PUSH1 0x0 KECCAK256 PUSH1 0x0 PUSH2 0x100 EXP DUP2 SLOAD DUP2 PUSH1 0xFF MUL NOT AND SWAP1 DUP4 ISZERO ISZERO MUL OR SWAP1 SSTORE POP PUSH1 0xD PUSH1 0x0 DUP2 SLOAD DUP1 SWAP3 SWAP2 SWAP1 PUSH2 0x546 SWAP1 PUSH2 0x8BE JUMP JUMPDEST SWAP2 SWAP1 POP SSTORE POP PUSH2 0x5AF PUSH2 0x561 DUP3 CALLVALUE PUSH2 0x694 SWAP1 SWAP2 SWAP1 PUSH4 0xFFFFFFFF AND JUMP JUMPDEST PUSH1 0x12 PUSH1 0x0 CALLER PUSH20 0xFFFFFFFFFFFFFFFFFFFFFFFFFFFFFFFFFFFFFFFF AND PUSH20 0xFFFFFFFFFFFFFFFFFFFFFFFFFFFFFFFFFFFFFFFF AND DUP2 MSTORE PUSH1 0x20 ADD SWAP1 DUP2 MSTORE PUSH1 0x20 ADD PUSH1 0x0 KECCAK256 SLOAD PUSH2 0x64D SWAP1 SWAP2 SWAP1 PUSH4 0xFFFFFFFF AND JUMP JUMPDEST PUSH1 0x12 PUSH1 0x0 CALLER PUSH20 0xFFFFFFFFFFFFFFFFFFFFFFFFFFFFFFFFFFFFFFFF AND PUSH20 0xFFFFFFFFFFFFFFFFFFFFFFFFFFFFFFFFFFFFFFFF AND DUP2 MSTORE PUSH1 0x20 ADD SWAP1 DUP2 MSTORE PUSH1 0x20 ADD PUSH1 0x0 KECCAK256 DUP2 SWAP1 SSTORE POP TIMESTAMP PUSH2 0x606 DUP3 CALLVALUE PUSH2 0x694 SWAP1 SWAP2 SWAP1 PUSH4 0xFFFFFFFF AND JUMP JUMPDEST CALLER PUSH20 0xFFFFFFFFFFFFFFFFFFFFFFFFFFFFFFFFFFFFFFFF AND PUSH32 0x1B0969CE7F5B05C5E0969329A05CDBD7E2E2F6CEE33BA26FD6E6BBCFF82312CD PUSH1 0x40 MLOAD PUSH1 0x40 MLOAD DUP1 SWAP2 SUB SWAP1 LOG4 JUMPDEST POP JUMP JUMPDEST PUSH1 0x0 DUP1 DUP3 DUP5 PUSH2 0x65C SWAP2 SWAP1 PUSH2 0x906 JUMP JUMPDEST SWAP1 POP DUP4 DUP2 LT ISZERO PUSH2 0x66F JUMPI PUSH2 0x66E PUSH2 0x860 JUMP JUMPDEST JUMPDEST DUP1 SWAP2 POP POP SWAP3 SWAP2 POP POP JUMP JUMPDEST PUSH1 0x0 DUP1 DUP3 DUP5 PUSH2 0x688 SWAP2 SWAP1 PUSH2 0x969 JUMP JUMPDEST SWAP1 POP DUP1 SWAP2 POP POP SWAP3 SWAP2 POP POP JUMP JUMPDEST PUSH1 0x0 DUP3 DUP3 GT ISZERO PUSH2 0x6A7 JUMPI PUSH2 0x6A6 PUSH2 0x860 JUMP JUMPDEST JUMPDEST DUP2 DUP4 PUSH2 0x6B3 SWAP2 SWAP1 PUSH2 0x99A JUMP JUMPDEST SWAP1 POP SWAP3 SWAP2 POP POP JUMP JUMPDEST PUSH1 0x0 DUP2 SWAP1 POP SWAP2 SWAP1 POP JUMP JUMPDEST PUSH2 0x6CE DUP2 PUSH2 0x6BB JUMP JUMPDEST DUP3 MSTORE POP POP JUMP JUMPDEST PUSH1 0x0 PUSH1 0x20 DUP3 ADD SWAP1 POP PUSH2 0x6E9 PUSH1 0x0 DUP4 ADD DUP5 PUSH2 0x6C5 JUMP JUMPDEST SWAP3 SWAP2 POP POP JUMP JUMPDEST PUSH1 0x0 DUP1 REVERT JUMPDEST PUSH1 0x6 DUP2 LT PUSH2 0x701 JUMPI PUSH1 0x0 DUP1 REVERT JUMPDEST POP JUMP JUMPDEST PUSH1 0x0 DUP2 CALLDATALOAD SWAP1 POP PUSH2 0x713 DUP2 PUSH2 0x6F4 JUMP JUMPDEST SWAP3 SWAP2 POP POP JUMP JUMPDEST PUSH1 0x0 PUSH1 0x20 DUP3 DUP5 SUB SLT ISZERO PUSH2 0x72F JUMPI PUSH2 0x72E PUSH2 0x6EF JUMP JUMPDEST JUMPDEST PUSH1 0x0 PUSH2 0x73D DUP5 DUP3 DUP6 ADD PUSH2 0x704 JUMP JUMPDEST SWAP2 POP POP SWAP3 SWAP2 POP POP JUMP JUMPDEST PUSH1 0x0 PUSH20 0xFFFFFFFFFFFFFFFFFFFFFFFFFFFFFFFFFFFFFFFF DUP3 AND SWAP1 POP SWAP2 SWAP1 POP JUMP JUMPDEST PUSH1 0x0 PUSH2 0x771 DUP3 PUSH2 0x746 JUMP JUMPDEST SWAP1 POP SWAP2 SWAP1 POP JUMP JUMPDEST PUSH2 0x781 DUP2 PUSH2 0x766 JUMP JUMPDEST DUP2 EQ PUSH2 0x78C JUMPI PUSH1 0x0 DUP1 REVERT JUMPDEST POP JUMP JUMPDEST PUSH1 0x0 DUP2 CALLDATALOAD SWAP1 POP PUSH2 0x79E DUP2 PUSH2 0x778 JUMP JUMPDEST SWAP3 SWAP2 POP POP JUMP JUMPDEST PUSH1 0x0 PUSH1 0x20 DUP3 DUP5 SUB SLT ISZERO PUSH2 0x7BA JUMPI PUSH2 0x7B9 PUSH2 0x6EF JUMP JUMPDEST JUMPDEST PUSH1 0x0 PUSH2 0x7C8 DUP5 DUP3 DUP6 ADD PUSH2 0x78F JUMP JUMPDEST SWAP2 POP POP SWAP3 SWAP2 POP POP JUMP JUMPDEST PUSH1 0x0 DUP2 ISZERO ISZERO SWAP1 POP SWAP2 SWAP1 POP JUMP JUMPDEST PUSH2 0x7E6 DUP2 PUSH2 0x7D1 JUMP JUMPDEST DUP3 MSTORE POP POP JUMP JUMPDEST PUSH1 0x0 PUSH1 0x20 DUP3 ADD SWAP1 POP PUSH2 0x801 PUSH1 0x0 DUP4 ADD DUP5 PUSH2 0x7DD JUMP JUMPDEST SWAP3 SWAP2 POP POP JUMP JUMPDEST PUSH2 0x810 DUP2 PUSH2 0x766 JUMP JUMPDEST DUP3 MSTORE POP POP JUMP JUMPDEST PUSH1 0x0 PUSH1 0x20 DUP3 ADD SWAP1 POP PUSH2 0x82B PUSH1 0x0 DUP4 ADD DUP5 PUSH2 0x807 JUMP JUMPDEST SWAP3 SWAP2 POP POP JUMP JUMPDEST PUSH32 0x4E487B7100000000000000000000000000000000000000000000000000000000 PUSH1 0x0 MSTORE PUSH1 0x21 PUSH1 0x4 MSTORE PUSH1 0x24 PUSH1 0x0 REVERT JUMPDEST PUSH32 0x4E487B7100000000000000000000000000000000000000000000000000000000 PUSH1 0x0 MSTORE PUSH1 0x1 PUSH1 0x4 MSTORE PUSH1 0x24 PUSH1 0x0 REVERT JUMPDEST PUSH32 0x4E487B7100000000000000000000000000000000000000000000000000000000 PUSH1 0x0 MSTORE PUSH1 0x11 PUSH1 0x4 MSTORE PUSH1 0x24 PUSH1 0x0 REVERT JUMPDEST PUSH1 0x0 PUSH2 0x8C9 DUP3 PUSH2 0x6BB JUMP JUMPDEST SWAP2 POP PUSH32 0xFFFFFFFFFFFFFFFFFFFFFFFFFFFFFFFFFFFFFFFFFFFFFFFFFFFFFFFFFFFFFFFF DUP3 SUB PUSH2 0x8FB JUMPI PUSH2 0x8FA PUSH2 0x88F JUMP JUMPDEST JUMPDEST PUSH1 0x1 DUP3 ADD SWAP1 POP SWAP2 SWAP1 POP JUMP JUMPDEST PUSH1 0x0 PUSH2 0x911 DUP3 PUSH2 0x6BB JUMP JUMPDEST SWAP2 POP PUSH2 0x91C DUP4 PUSH2 0x6BB JUMP JUMPDEST SWAP3 POP DUP3 DUP3 ADD SWAP1 POP DUP1 DUP3 GT ISZERO PUSH2 0x934 JUMPI PUSH2 0x933 PUSH2 0x88F JUMP JUMPDEST JUMPDEST SWAP3 SWAP2 POP POP JUMP JUMPDEST PUSH32 0x4E487B7100000000000000000000000000000000000000000000000000000000 PUSH1 0x0 MSTORE PUSH1 0x12 PUSH1 0x4 MSTORE PUSH1 0x24 PUSH1 0x0 REVERT JUMPDEST PUSH1 0x0 PUSH2 0x974 DUP3 PUSH2 0x6BB JUMP JUMPDEST SWAP2 POP PUSH2 0x97F DUP4 PUSH2 0x6BB JUMP JUMPDEST SWAP3 POP DUP3 PUSH2 0x98F JUMPI PUSH2 0x98E PUSH2 0x93A JUMP JUMPDEST JUMPDEST DUP3 DUP3 DIV SWAP1 POP SWAP3 SWAP2 POP POP JUMP JUMPDEST PUSH1 0x0 PUSH2 0x9A5 DUP3 PUSH2 0x6BB JUMP JUMPDEST SWAP2 POP PUSH2 0x9B0 DUP4 PUSH2 0x6BB JUMP JUMPDEST SWAP3 POP DUP3 DUP3 SUB SWAP1 POP DUP2 DUP2 GT ISZERO PUSH2 0x9C8 JUMPI PUSH2 0x9C7 PUSH2 0x88F JUMP JUMPDEST JUMPDEST SWAP3 SWAP2 POP POP JUMP INVALID LOG2 PUSH5 0x6970667358 0x22 SLT KECCAK256 0xC8 PUSH32 0x57B33D8B4CCB5FDAE77E767876179FB2C637424BED644ADA503411C0F9676473 PUSH16 0x6C634300081200330000000000000000 "
				},
				"gasEstimates": {
					"creation": {
						"codeDepositCost": "512800",
						"executionCost": "infinite",
						"totalCost": "infinite"
					},
					"external": {
						"changeState(uint8)": "30511",
						"getBalance()": "317",
						"invest()": "infinite",
						"lenders(address)": "2867",
						"owner()": "2577",
						"toggleActive()": "34773"
					}
				},
				"methodIdentifiers": {
					"changeState(uint8)": "268f1153",
					"getBalance()": "12065fe0",
					"invest()": "e8b5e51f",
					"lenders(address)": "28fd10d7",
					"owner()": "8da5cb5b",
					"toggleActive()": "29c68dc1"
				}
			},
			"storageLayout": {
				"storage": [
					{
						"astId": 534,
						"contract": "Project Module 2/Credit.sol:Credit",
						"label": "owner",
						"offset": 0,
						"slot": "0",
						"type": "t_address"
					},
					{
						"astId": 10,
						"contract": "Project Module 2/Credit.sol:Credit",
						"label": "borrower",
						"offset": 0,
						"slot": "1",
						"type": "t_address"
					},
					{
						"astId": 12,
						"contract": "Project Module 2/Credit.sol:Credit",
						"label": "requestedAmount",
						"offset": 0,
						"slot": "2",
						"type": "t_uint256"
					},
					{
						"astId": 14,
						"contract": "Project Module 2/Credit.sol:Credit",
						"label": "returnAmount",
						"offset": 0,
						"slot": "3",
						"type": "t_uint256"
					},
					{
						"astId": 16,
						"contract": "Project Module 2/Credit.sol:Credit",
						"label": "repaidAmount",
						"offset": 0,
						"slot": "4",
						"type": "t_uint256"
					},
					{
						"astId": 18,
						"contract": "Project Module 2/Credit.sol:Credit",
						"label": "interest",
						"offset": 0,
						"slot": "5",
						"type": "t_uint256"
					},
					{
						"astId": 20,
						"contract": "Project Module 2/Credit.sol:Credit",
						"label": "requestedRepayments",
						"offset": 0,
						"slot": "6",
						"type": "t_uint256"
					},
					{
						"astId": 22,
						"contract": "Project Module 2/Credit.sol:Credit",
						"label": "remainingRepayments",
						"offset": 0,
						"slot": "7",
						"type": "t_uint256"
					},
					{
						"astId": 24,
						"contract": "Project Module 2/Credit.sol:Credit",
						"label": "repaymentInstallment",
						"offset": 0,
						"slot": "8",
						"type": "t_uint256"
					},
					{
						"astId": 26,
						"contract": "Project Module 2/Credit.sol:Credit",
						"label": "requestedDate",
						"offset": 0,
						"slot": "9",
						"type": "t_uint256"
					},
					{
						"astId": 28,
						"contract": "Project Module 2/Credit.sol:Credit",
						"label": "lastRepaymentDate",
						"offset": 0,
						"slot": "10",
						"type": "t_uint256"
					},
					{
						"astId": 30,
						"contract": "Project Module 2/Credit.sol:Credit",
						"label": "description",
						"offset": 0,
						"slot": "11",
						"type": "t_bytes_storage"
					},
					{
						"astId": 33,
						"contract": "Project Module 2/Credit.sol:Credit",
						"label": "active",
						"offset": 0,
						"slot": "12",
						"type": "t_bool"
					},
					{
						"astId": 36,
						"contract": "Project Module 2/Credit.sol:Credit",
						"label": "lendersCount",
						"offset": 0,
						"slot": "13",
						"type": "t_uint256"
					},
					{
						"astId": 39,
						"contract": "Project Module 2/Credit.sol:Credit",
						"label": "revokeVotes",
						"offset": 0,
						"slot": "14",
						"type": "t_uint256"
					},
					{
						"astId": 45,
						"contract": "Project Module 2/Credit.sol:Credit",
						"label": "revokeTimeNeeded",
						"offset": 0,
						"slot": "15",
						"type": "t_uint256"
					},
					{
						"astId": 48,
						"contract": "Project Module 2/Credit.sol:Credit",
						"label": "fraudVotes",
						"offset": 0,
						"slot": "16",
						"type": "t_uint256"
					},
					{
						"astId": 52,
						"contract": "Project Module 2/Credit.sol:Credit",
						"label": "lenders",
						"offset": 0,
						"slot": "17",
						"type": "t_mapping(t_address,t_bool)"
					},
					{
						"astId": 56,
						"contract": "Project Module 2/Credit.sol:Credit",
						"label": "lendersInvestedAmount",
						"offset": 0,
						"slot": "18",
						"type": "t_mapping(t_address,t_uint256)"
					},
					{
						"astId": 60,
						"contract": "Project Module 2/Credit.sol:Credit",
						"label": "revokeVoters",
						"offset": 0,
						"slot": "19",
						"type": "t_mapping(t_address,t_bool)"
					},
					{
						"astId": 64,
						"contract": "Project Module 2/Credit.sol:Credit",
						"label": "fraudVoters",
						"offset": 0,
						"slot": "20",
						"type": "t_mapping(t_address,t_bool)"
					},
					{
						"astId": 74,
						"contract": "Project Module 2/Credit.sol:Credit",
						"label": "state",
						"offset": 0,
						"slot": "21",
						"type": "t_enum(State)71"
					}
				],
				"types": {
					"t_address": {
						"encoding": "inplace",
						"label": "address",
						"numberOfBytes": "20"
					},
					"t_bool": {
						"encoding": "inplace",
						"label": "bool",
						"numberOfBytes": "1"
					},
					"t_bytes_storage": {
						"encoding": "bytes",
						"label": "bytes",
						"numberOfBytes": "32"
					},
					"t_enum(State)71": {
						"encoding": "inplace",
						"label": "enum Credit.State",
						"numberOfBytes": "1"
					},
					"t_mapping(t_address,t_bool)": {
						"encoding": "mapping",
						"key": "t_address",
						"label": "mapping(address => bool)",
						"numberOfBytes": "32",
						"value": "t_bool"
					},
					"t_mapping(t_address,t_uint256)": {
						"encoding": "mapping",
						"key": "t_address",
						"label": "mapping(address => uint256)",
						"numberOfBytes": "32",
						"value": "t_uint256"
					},
					"t_uint256": {
						"encoding": "inplace",
						"label": "uint256",
						"numberOfBytes": "32"
					}
				}
			},
			"userdoc": {
				"kind": "user",
				"methods": {},
				"version": 1
			}
		}
	}
}