{
	"Project Module 2/PeerToPeerLending.sol": {
		"PeerToPeerLending": {
			"abi": [
				{
					"anonymous": false,
					"inputs": [
						{
							"indexed": true,
							"internalType": "address",
							"name": "_address",
							"type": "address"
						},
						{
							"indexed": true,
							"internalType": "bool",
							"name": "active",
							"type": "bool"
						},
						{
							"indexed": true,
							"internalType": "uint256",
							"name": "timestamp",
							"type": "uint256"
						}
					],
					"name": "LogCreditActiveChanged",
					"type": "event"
				},
				{
					"anonymous": false,
					"inputs": [
						{
							"indexed": true,
							"internalType": "address",
							"name": "_address",
							"type": "address"
						},
						{
							"indexed": true,
							"internalType": "address",
							"name": "_borrower",
							"type": "address"
						},
						{
							"indexed": true,
							"internalType": "uint256",
							"name": "timestamp",
							"type": "uint256"
						}
					],
					"name": "LogCreditCreated",
					"type": "event"
				},
				{
					"anonymous": false,
					"inputs": [
						{
							"indexed": true,
							"internalType": "address",
							"name": "_address",
							"type": "address"
						},
						{
							"indexed": true,
							"internalType": "enum Credit.State",
							"name": "state",
							"type": "uint8"
						},
						{
							"indexed": true,
							"internalType": "uint256",
							"name": "timestamp",
							"type": "uint256"
						}
					],
					"name": "LogCreditStateChanged",
					"type": "event"
				},
				{
					"anonymous": false,
					"inputs": [
						{
							"indexed": true,
							"internalType": "address",
							"name": "_currentOwner",
							"type": "address"
						},
						{
							"indexed": true,
							"internalType": "address",
							"name": "_newOwner",
							"type": "address"
						}
					],
					"name": "LogOwnershipTransfered",
					"type": "event"
				},
				{
					"anonymous": false,
					"inputs": [
						{
							"indexed": true,
							"internalType": "address",
							"name": "_address",
							"type": "address"
						},
						{
							"indexed": false,
							"internalType": "bool",
							"name": "fraudStatus",
							"type": "bool"
						},
						{
							"indexed": false,
							"internalType": "uint256",
							"name": "timestamp",
							"type": "uint256"
						}
					],
					"name": "LogUserSetFraud",
					"type": "event"
				},
				{
					"inputs": [
						{
							"internalType": "uint256",
							"name": "requestedAmount",
							"type": "uint256"
						},
						{
							"internalType": "uint256",
							"name": "repaymentsCount",
							"type": "uint256"
						},
						{
							"internalType": "uint256",
							"name": "interest",
							"type": "uint256"
						},
						{
							"internalType": "bytes",
							"name": "creditDescription",
							"type": "bytes"
						}
					],
					"name": "applyForCredit",
					"outputs": [
						{
							"internalType": "address",
							"name": "_credit",
							"type": "address"
						}
					],
					"stateMutability": "nonpayable",
					"type": "function"
				},
				{
					"inputs": [
						{
							"internalType": "contract Credit",
							"name": "_credit",
							"type": "address"
						}
					],
					"name": "changeCreditState",
					"outputs": [],
					"stateMutability": "nonpayable",
					"type": "function"
				},
				{
					"inputs": [
						{
							"internalType": "contract Credit",
							"name": "_credit",
							"type": "address"
						},
						{
							"internalType": "enum Credit.State",
							"name": "state",
							"type": "uint8"
						}
					],
					"name": "changeCreditState",
					"outputs": [],
					"stateMutability": "nonpayable",
					"type": "function"
				},
				{
					"inputs": [
						{
							"internalType": "uint256",
							"name": "",
							"type": "uint256"
						}
					],
					"name": "credits",
					"outputs": [
						{
							"internalType": "address",
							"name": "",
							"type": "address"
						}
					],
					"stateMutability": "view",
					"type": "function"
				},
				{
					"inputs": [],
					"name": "getCredits",
					"outputs": [
						{
							"internalType": "address[]",
							"name": "",
							"type": "address[]"
						}
					],
					"stateMutability": "view",
					"type": "function"
				},
				{
					"inputs": [],
					"name": "getUsersCredits",
					"outputs": [
						{
							"internalType": "address[]",
							"name": "",
							"type": "address[]"
						}
					],
					"stateMutability": "view",
					"type": "function"
				},
				{
					"inputs": [],
					"name": "owner",
					"outputs": [
						{
							"internalType": "address",
							"name": "",
							"type": "address"
						}
					],
					"stateMutability": "view",
					"type": "function"
				},
				{
					"inputs": [
						{
							"internalType": "address",
							"name": "_borrower",
							"type": "address"
						}
					],
					"name": "setFraudStatus",
					"outputs": [
						{
							"internalType": "bool",
							"name": "",
							"type": "bool"
						}
					],
					"stateMutability": "nonpayable",
					"type": "function"
				},
				{
					"inputs": [
						{
							"internalType": "address",
							"name": "",
							"type": "address"
						}
					],
					"name": "users",
					"outputs": [
						{
							"internalType": "bool",
							"name": "credited",
							"type": "bool"
						},
						{
							"internalType": "address",
							"name": "activeCredit",
							"type": "address"
						},
						{
							"internalType": "bool",
							"name": "fraudStatus",
							"type": "bool"
						}
					],
					"stateMutability": "view",
					"type": "function"
				}
			],
			"devdoc": {
				"kind": "dev",
				"methods": {},
				"version": 1
			},
			"evm": {
				"assembly": "    /* \"Project Module 2/PeerToPeerLending.sol\":107:2687  contract PeerToPeerLending is Ownable {... */\n  mstore(0x40, 0x80)\n  callvalue\n  dup1\n  iszero\n  tag_1\n  jumpi\n  0x00\n  dup1\n  revert\ntag_1:\n  pop\n    /* \"Project Module 2/Ownable.sol\":334:344  msg.sender */\n  caller\n    /* \"Project Module 2/Ownable.sol\":326:331  owner */\n  0x00\n  dup1\n    /* \"Project Module 2/Ownable.sol\":326:344  owner = msg.sender */\n  0x0100\n  exp\n  dup2\n  sload\n  dup2\n  0xffffffffffffffffffffffffffffffffffffffff\n  mul\n  not\n  and\n  swap1\n  dup4\n  0xffffffffffffffffffffffffffffffffffffffff\n  and\n  mul\n  or\n  swap1\n  sstore\n  pop\n    /* \"Project Module 2/PeerToPeerLending.sol\":107:2687  contract PeerToPeerLending is Ownable {... */\n  dataSize(sub_0)\n  dup1\n  dataOffset(sub_0)\n  0x00\n  codecopy\n  0x00\n  return\nstop\n\nsub_0: assembly {\n        /* \"Project Module 2/PeerToPeerLending.sol\":107:2687  contract PeerToPeerLending is Ownable {... */\n      mstore(0x40, 0x80)\n      callvalue\n      dup1\n      iszero\n      tag_1\n      jumpi\n      0x00\n      dup1\n      revert\n    tag_1:\n      pop\n      jumpi(tag_2, lt(calldatasize, 0x04))\n      shr(0xe0, calldataload(0x00))\n      dup1\n      0x8da5cb5b\n      gt\n      tag_12\n      jumpi\n      dup1\n      0x8da5cb5b\n      eq\n      tag_7\n      jumpi\n      dup1\n      0xa87430ba\n      eq\n      tag_8\n      jumpi\n      dup1\n      0xbb9e4247\n      eq\n      tag_9\n      jumpi\n      dup1\n      0xebb53e89\n      eq\n      tag_10\n      jumpi\n      dup1\n      0xfa838e54\n      eq\n      tag_11\n      jumpi\n      jump(tag_2)\n    tag_12:\n      dup1\n      0x036a1c22\n      eq\n      tag_3\n      jumpi\n      dup1\n      0x59658c48\n      eq\n      tag_4\n      jumpi\n      dup1\n      0x5a524d07\n      eq\n      tag_5\n      jumpi\n      dup1\n      0x823a71af\n      eq\n      tag_6\n      jumpi\n    tag_2:\n      0x00\n      dup1\n      revert\n        /* \"Project Module 2/PeerToPeerLending.sol\":362:386  address[] public credits */\n    tag_3:\n      tag_13\n      0x04\n      dup1\n      calldatasize\n      sub\n      dup2\n      add\n      swap1\n      tag_14\n      swap2\n      swap1\n      tag_15\n      jump\t// in\n    tag_14:\n      tag_16\n      jump\t// in\n    tag_13:\n      mload(0x40)\n      tag_17\n      swap2\n      swap1\n      tag_18\n      jump\t// in\n    tag_17:\n      mload(0x40)\n      dup1\n      swap2\n      sub\n      swap1\n      return\n        /* \"Project Module 2/PeerToPeerLending.sol\":2452:2685  function changeCreditState(Credit _credit) public onlyOwner {... */\n    tag_4:\n      tag_19\n      0x04\n      dup1\n      calldatasize\n      sub\n      dup2\n      add\n      swap1\n      tag_20\n      swap2\n      swap1\n      tag_21\n      jump\t// in\n    tag_20:\n      tag_22\n      jump\t// in\n    tag_19:\n      stop\n        /* \"Project Module 2/PeerToPeerLending.sol\":1823:1941  function getUsersCredits() public view returns (address[] memory) {... */\n    tag_5:\n      tag_23\n      tag_24\n      jump\t// in\n    tag_23:\n      mload(0x40)\n      tag_25\n      swap2\n      swap1\n      tag_26\n      jump\t// in\n    tag_25:\n      mload(0x40)\n      dup1\n      swap2\n      sub\n      swap1\n      return\n        /* \"Project Module 2/PeerToPeerLending.sol\":1725:1817  function getCredits() public view returns (address[] memory) {... */\n    tag_6:\n      tag_27\n      tag_28\n      jump\t// in\n    tag_27:\n      mload(0x40)\n      tag_29\n      swap2\n      swap1\n      tag_26\n      jump\t// in\n    tag_29:\n      mload(0x40)\n      dup1\n      swap2\n      sub\n      swap1\n      return\n        /* \"Project Module 2/Ownable.sol\":81:101  address public owner */\n    tag_7:\n      tag_30\n      tag_31\n      jump\t// in\n    tag_30:\n      mload(0x40)\n      tag_32\n      swap2\n      swap1\n      tag_18\n      jump\t// in\n    tag_32:\n      mload(0x40)\n      dup1\n      swap2\n      sub\n      swap1\n      return\n        /* \"Project Module 2/PeerToPeerLending.sol\":318:355  mapping(address => User) public users */\n    tag_8:\n      tag_33\n      0x04\n      dup1\n      calldatasize\n      sub\n      dup2\n      add\n      swap1\n      tag_34\n      swap2\n      swap1\n      tag_35\n      jump\t// in\n    tag_34:\n      tag_36\n      jump\t// in\n    tag_33:\n      mload(0x40)\n      tag_37\n      swap4\n      swap3\n      swap2\n      swap1\n      tag_38\n      jump\t// in\n    tag_37:\n      mload(0x40)\n      dup1\n      swap2\n      sub\n      swap1\n      return\n        /* \"Project Module 2/PeerToPeerLending.sol\":1947:2199  function setFraudStatus(address _borrower) external returns (bool) {... */\n    tag_9:\n      tag_39\n      0x04\n      dup1\n      calldatasize\n      sub\n      dup2\n      add\n      swap1\n      tag_40\n      swap2\n      swap1\n      tag_35\n      jump\t// in\n    tag_40:\n      tag_41\n      jump\t// in\n    tag_39:\n      mload(0x40)\n      tag_42\n      swap2\n      swap1\n      tag_43\n      jump\t// in\n    tag_42:\n      mload(0x40)\n      dup1\n      swap2\n      sub\n      swap1\n      return\n        /* \"Project Module 2/PeerToPeerLending.sol\":934:1719  function applyForCredit(... */\n    tag_10:\n      tag_44\n      0x04\n      dup1\n      calldatasize\n      sub\n      dup2\n      add\n      swap1\n      tag_45\n      swap2\n      swap1\n      tag_46\n      jump\t// in\n    tag_45:\n      tag_47\n      jump\t// in\n    tag_44:\n      mload(0x40)\n      tag_48\n      swap2\n      swap1\n      tag_18\n      jump\t// in\n    tag_48:\n      mload(0x40)\n      dup1\n      swap2\n      sub\n      swap1\n      return\n        /* \"Project Module 2/PeerToPeerLending.sol\":2205:2446  function changeCreditState(Credit _credit, Credit.State state) public onlyOwner {... */\n    tag_11:\n      tag_49\n      0x04\n      dup1\n      calldatasize\n      sub\n      dup2\n      add\n      swap1\n      tag_50\n      swap2\n      swap1\n      tag_51\n      jump\t// in\n    tag_50:\n      tag_52\n      jump\t// in\n    tag_49:\n      stop\n        /* \"Project Module 2/PeerToPeerLending.sol\":362:386  address[] public credits */\n    tag_16:\n      0x02\n      dup2\n      dup2\n      sload\n      dup2\n      lt\n      tag_53\n      jumpi\n      0x00\n      dup1\n      revert\n    tag_53:\n      swap1\n      0x00\n      mstore\n      keccak256(0x00, 0x20)\n      add\n      0x00\n      swap2\n      pop\n      sload\n      swap1\n      0x0100\n      exp\n      swap1\n      div\n      0xffffffffffffffffffffffffffffffffffffffff\n      and\n      dup2\n      jump\t// out\n        /* \"Project Module 2/PeerToPeerLending.sol\":2452:2685  function changeCreditState(Credit _credit) public onlyOwner {... */\n    tag_22:\n        /* \"Project Module 2/Ownable.sol\":274:279  owner */\n      0x00\n      dup1\n      sload\n      swap1\n      0x0100\n      exp\n      swap1\n      div\n      0xffffffffffffffffffffffffffffffffffffffff\n      and\n        /* \"Project Module 2/Ownable.sol\":260:279  msg.sender == owner */\n      0xffffffffffffffffffffffffffffffffffffffff\n      and\n        /* \"Project Module 2/Ownable.sol\":260:270  msg.sender */\n      caller\n        /* \"Project Module 2/Ownable.sol\":260:279  msg.sender == owner */\n      0xffffffffffffffffffffffffffffffffffffffff\n      and\n      eq\n        /* \"Project Module 2/Ownable.sol\":252:280  require(msg.sender == owner) */\n      tag_56\n      jumpi\n      0x00\n      dup1\n      revert\n    tag_56:\n        /* \"Project Module 2/PeerToPeerLending.sol\":2522:2535  Credit credit */\n      0x00\n        /* \"Project Module 2/PeerToPeerLending.sol\":2545:2552  _credit */\n      dup2\n        /* \"Project Module 2/PeerToPeerLending.sol\":2522:2553  Credit credit = Credit(_credit) */\n      swap1\n      pop\n        /* \"Project Module 2/PeerToPeerLending.sol\":2563:2574  bool active */\n      0x00\n        /* \"Project Module 2/PeerToPeerLending.sol\":2577:2583  credit */\n      dup2\n        /* \"Project Module 2/PeerToPeerLending.sol\":2577:2596  credit.toggleActive */\n      0xffffffffffffffffffffffffffffffffffffffff\n      and\n      0x29c68dc1\n        /* \"Project Module 2/PeerToPeerLending.sol\":2577:2598  credit.toggleActive() */\n      mload(0x40)\n      dup2\n      0xffffffff\n      and\n      0xe0\n      shl\n      dup2\n      mstore\n      0x04\n      add\n      0x20\n      mload(0x40)\n      dup1\n      dup4\n      sub\n      dup2\n      0x00\n      dup8\n      gas\n      call\n      iszero\n      dup1\n      iszero\n      tag_59\n      jumpi\n      returndatasize\n      0x00\n      dup1\n      returndatacopy\n      revert(0x00, returndatasize)\n    tag_59:\n      pop\n      pop\n      pop\n      pop\n      mload(0x40)\n      returndatasize\n      not(0x1f)\n      0x1f\n      dup3\n      add\n      and\n      dup3\n      add\n      dup1\n      0x40\n      mstore\n      pop\n      dup2\n      add\n      swap1\n      tag_60\n      swap2\n      swap1\n      tag_61\n      jump\t// in\n    tag_60:\n        /* \"Project Module 2/PeerToPeerLending.sol\":2563:2598  bool active = credit.toggleActive() */\n      swap1\n      pop\n        /* \"Project Module 2/PeerToPeerLending.sol\":2662:2677  block.timestamp */\n      timestamp\n        /* \"Project Module 2/PeerToPeerLending.sol\":2654:2660  active */\n      dup2\n        /* \"Project Module 2/PeerToPeerLending.sol\":2614:2678  LogCreditActiveChanged(address(credit), active, block.timestamp) */\n      iszero\n      iszero\n        /* \"Project Module 2/PeerToPeerLending.sol\":2645:2651  credit */\n      dup4\n        /* \"Project Module 2/PeerToPeerLending.sol\":2614:2678  LogCreditActiveChanged(address(credit), active, block.timestamp) */\n      0xffffffffffffffffffffffffffffffffffffffff\n      and\n      0x25270acf0eab637903a9cd906e32d2ac17ce44db6c743ba5812f2924e84ff8d6\n      mload(0x40)\n      mload(0x40)\n      dup1\n      swap2\n      sub\n      swap1\n      log4\n        /* \"Project Module 2/PeerToPeerLending.sol\":2512:2685  {... */\n      pop\n      pop\n        /* \"Project Module 2/PeerToPeerLending.sol\":2452:2685  function changeCreditState(Credit _credit) public onlyOwner {... */\n      pop\n      jump\t// out\n        /* \"Project Module 2/PeerToPeerLending.sol\":1823:1941  function getUsersCredits() public view returns (address[] memory) {... */\n    tag_24:\n        /* \"Project Module 2/PeerToPeerLending.sol\":1871:1887  address[] memory */\n      0x60\n        /* \"Project Module 2/PeerToPeerLending.sol\":1906:1911  users */\n      0x01\n        /* \"Project Module 2/PeerToPeerLending.sol\":1906:1923  users[msg.sender] */\n      0x00\n        /* \"Project Module 2/PeerToPeerLending.sol\":1912:1922  msg.sender */\n      caller\n        /* \"Project Module 2/PeerToPeerLending.sol\":1906:1923  users[msg.sender] */\n      0xffffffffffffffffffffffffffffffffffffffff\n      and\n      0xffffffffffffffffffffffffffffffffffffffff\n      and\n      dup2\n      mstore\n      0x20\n      add\n      swap1\n      dup2\n      mstore\n      0x20\n      add\n      0x00\n      keccak256\n        /* \"Project Module 2/PeerToPeerLending.sol\":1906:1934  users[msg.sender].allCredits */\n      0x01\n      add\n        /* \"Project Module 2/PeerToPeerLending.sol\":1899:1934  return users[msg.sender].allCredits */\n      dup1\n      sload\n      dup1\n      0x20\n      mul\n      0x20\n      add\n      mload(0x40)\n      swap1\n      dup2\n      add\n      0x40\n      mstore\n      dup1\n      swap3\n      swap2\n      swap1\n      dup2\n      dup2\n      mstore\n      0x20\n      add\n      dup3\n      dup1\n      sload\n      dup1\n      iszero\n      tag_63\n      jumpi\n      0x20\n      mul\n      dup3\n      add\n      swap2\n      swap1\n      0x00\n      mstore\n      keccak256(0x00, 0x20)\n      swap1\n    tag_64:\n      dup2\n      0x00\n      swap1\n      sload\n      swap1\n      0x0100\n      exp\n      swap1\n      div\n      0xffffffffffffffffffffffffffffffffffffffff\n      and\n      0xffffffffffffffffffffffffffffffffffffffff\n      and\n      dup2\n      mstore\n      0x20\n      add\n      swap1\n      0x01\n      add\n      swap1\n      dup1\n      dup4\n      gt\n      tag_64\n      jumpi\n    tag_63:\n      pop\n      pop\n      pop\n      pop\n      pop\n      swap1\n      pop\n        /* \"Project Module 2/PeerToPeerLending.sol\":1823:1941  function getUsersCredits() public view returns (address[] memory) {... */\n      swap1\n      jump\t// out\n        /* \"Project Module 2/PeerToPeerLending.sol\":1725:1817  function getCredits() public view returns (address[] memory) {... */\n    tag_28:\n        /* \"Project Module 2/PeerToPeerLending.sol\":1768:1784  address[] memory */\n      0x60\n        /* \"Project Module 2/PeerToPeerLending.sol\":1803:1810  credits */\n      0x02\n        /* \"Project Module 2/PeerToPeerLending.sol\":1796:1810  return credits */\n      dup1\n      sload\n      dup1\n      0x20\n      mul\n      0x20\n      add\n      mload(0x40)\n      swap1\n      dup2\n      add\n      0x40\n      mstore\n      dup1\n      swap3\n      swap2\n      swap1\n      dup2\n      dup2\n      mstore\n      0x20\n      add\n      dup3\n      dup1\n      sload\n      dup1\n      iszero\n      tag_66\n      jumpi\n      0x20\n      mul\n      dup3\n      add\n      swap2\n      swap1\n      0x00\n      mstore\n      keccak256(0x00, 0x20)\n      swap1\n    tag_67:\n      dup2\n      0x00\n      swap1\n      sload\n      swap1\n      0x0100\n      exp\n      swap1\n      div\n      0xffffffffffffffffffffffffffffffffffffffff\n      and\n      0xffffffffffffffffffffffffffffffffffffffff\n      and\n      dup2\n      mstore\n      0x20\n      add\n      swap1\n      0x01\n      add\n      swap1\n      dup1\n      dup4\n      gt\n      tag_67\n      jumpi\n    tag_66:\n      pop\n      pop\n      pop\n      pop\n      pop\n      swap1\n      pop\n        /* \"Project Module 2/PeerToPeerLending.sol\":1725:1817  function getCredits() public view returns (address[] memory) {... */\n      swap1\n      jump\t// out\n        /* \"Project Module 2/Ownable.sol\":81:101  address public owner */\n    tag_31:\n      0x00\n      dup1\n      sload\n      swap1\n      0x0100\n      exp\n      swap1\n      div\n      0xffffffffffffffffffffffffffffffffffffffff\n      and\n      dup2\n      jump\t// out\n        /* \"Project Module 2/PeerToPeerLending.sol\":318:355  mapping(address => User) public users */\n    tag_36:\n      mstore(0x20, 0x01)\n      dup1\n      0x00\n      mstore\n      keccak256(0x00, 0x40)\n      0x00\n      swap2\n      pop\n      swap1\n      pop\n      dup1\n      0x00\n      add\n      0x00\n      swap1\n      sload\n      swap1\n      0x0100\n      exp\n      swap1\n      div\n      0xff\n      and\n      swap1\n      dup1\n      0x00\n      add\n      0x01\n      swap1\n      sload\n      swap1\n      0x0100\n      exp\n      swap1\n      div\n      0xffffffffffffffffffffffffffffffffffffffff\n      and\n      swap1\n      dup1\n      0x00\n      add\n      0x15\n      swap1\n      sload\n      swap1\n      0x0100\n      exp\n      swap1\n      div\n      0xff\n      and\n      swap1\n      pop\n      dup4\n      jump\t// out\n        /* \"Project Module 2/PeerToPeerLending.sol\":1947:2199  function setFraudStatus(address _borrower) external returns (bool) {... */\n    tag_41:\n        /* \"Project Module 2/PeerToPeerLending.sol\":2008:2012  bool */\n      0x00\n        /* \"Project Module 2/PeerToPeerLending.sol\":2055:2059  true */\n      0x01\n        /* \"Project Module 2/PeerToPeerLending.sol\":2024:2029  users */\n      dup1\n        /* \"Project Module 2/PeerToPeerLending.sol\":2024:2040  users[_borrower] */\n      0x00\n        /* \"Project Module 2/PeerToPeerLending.sol\":2030:2039  _borrower */\n      dup5\n        /* \"Project Module 2/PeerToPeerLending.sol\":2024:2040  users[_borrower] */\n      0xffffffffffffffffffffffffffffffffffffffff\n      and\n      0xffffffffffffffffffffffffffffffffffffffff\n      and\n      dup2\n      mstore\n      0x20\n      add\n      swap1\n      dup2\n      mstore\n      0x20\n      add\n      0x00\n      keccak256\n        /* \"Project Module 2/PeerToPeerLending.sol\":2024:2052  users[_borrower].fraudStatus */\n      0x00\n      add\n      0x15\n        /* \"Project Module 2/PeerToPeerLending.sol\":2024:2059  users[_borrower].fraudStatus = true */\n      0x0100\n      exp\n      dup2\n      sload\n      dup2\n      0xff\n      mul\n      not\n      and\n      swap1\n      dup4\n      iszero\n      iszero\n      mul\n      or\n      swap1\n      sstore\n      pop\n        /* \"Project Module 2/PeerToPeerLending.sol\":2091:2100  _borrower */\n      dup2\n        /* \"Project Module 2/PeerToPeerLending.sol\":2075:2147  LogUserSetFraud(_borrower, users[_borrower].fraudStatus,block.timestamp) */\n      0xffffffffffffffffffffffffffffffffffffffff\n      and\n      0xbafb199a9909a7be73ceeaf6193dc9ea119ef469120d998d5f550140c0b13b54\n        /* \"Project Module 2/PeerToPeerLending.sol\":2102:2107  users */\n      0x01\n        /* \"Project Module 2/PeerToPeerLending.sol\":2102:2118  users[_borrower] */\n      0x00\n        /* \"Project Module 2/PeerToPeerLending.sol\":2108:2117  _borrower */\n      dup6\n        /* \"Project Module 2/PeerToPeerLending.sol\":2102:2118  users[_borrower] */\n      0xffffffffffffffffffffffffffffffffffffffff\n      and\n      0xffffffffffffffffffffffffffffffffffffffff\n      and\n      dup2\n      mstore\n      0x20\n      add\n      swap1\n      dup2\n      mstore\n      0x20\n      add\n      0x00\n      keccak256\n        /* \"Project Module 2/PeerToPeerLending.sol\":2102:2130  users[_borrower].fraudStatus */\n      0x00\n      add\n      0x15\n      swap1\n      sload\n      swap1\n      0x0100\n      exp\n      swap1\n      div\n      0xff\n      and\n        /* \"Project Module 2/PeerToPeerLending.sol\":2131:2146  block.timestamp */\n      timestamp\n        /* \"Project Module 2/PeerToPeerLending.sol\":2075:2147  LogUserSetFraud(_borrower, users[_borrower].fraudStatus,block.timestamp) */\n      mload(0x40)\n      tag_69\n      swap3\n      swap2\n      swap1\n      tag_70\n      jump\t// in\n    tag_69:\n      mload(0x40)\n      dup1\n      swap2\n      sub\n      swap1\n      log2\n        /* \"Project Module 2/PeerToPeerLending.sol\":2164:2169  users */\n      0x01\n        /* \"Project Module 2/PeerToPeerLending.sol\":2164:2180  users[_borrower] */\n      0x00\n        /* \"Project Module 2/PeerToPeerLending.sol\":2170:2179  _borrower */\n      dup4\n        /* \"Project Module 2/PeerToPeerLending.sol\":2164:2180  users[_borrower] */\n      0xffffffffffffffffffffffffffffffffffffffff\n      and\n      0xffffffffffffffffffffffffffffffffffffffff\n      and\n      dup2\n      mstore\n      0x20\n      add\n      swap1\n      dup2\n      mstore\n      0x20\n      add\n      0x00\n      keccak256\n        /* \"Project Module 2/PeerToPeerLending.sol\":2164:2192  users[_borrower].fraudStatus */\n      0x00\n      add\n      0x15\n      swap1\n      sload\n      swap1\n      0x0100\n      exp\n      swap1\n      div\n      0xff\n      and\n        /* \"Project Module 2/PeerToPeerLending.sol\":2157:2192  return users[_borrower].fraudStatus */\n      swap1\n      pop\n        /* \"Project Module 2/PeerToPeerLending.sol\":1947:2199  function setFraudStatus(address _borrower) external returns (bool) {... */\n      swap2\n      swap1\n      pop\n      jump\t// out\n        /* \"Project Module 2/PeerToPeerLending.sol\":934:1719  function applyForCredit(... */\n    tag_47:\n        /* \"Project Module 2/PeerToPeerLending.sol\":1112:1127  address _credit */\n      0x00\n        /* \"Project Module 2/PeerToPeerLending.sol\":1177:1182  false */\n      dup1\n        /* \"Project Module 2/PeerToPeerLending.sol\":1147:1182  users[msg.sender].credited == false */\n      iszero\n      iszero\n        /* \"Project Module 2/PeerToPeerLending.sol\":1147:1152  users */\n      0x01\n        /* \"Project Module 2/PeerToPeerLending.sol\":1147:1164  users[msg.sender] */\n      0x00\n        /* \"Project Module 2/PeerToPeerLending.sol\":1153:1163  msg.sender */\n      caller\n        /* \"Project Module 2/PeerToPeerLending.sol\":1147:1164  users[msg.sender] */\n      0xffffffffffffffffffffffffffffffffffffffff\n      and\n      0xffffffffffffffffffffffffffffffffffffffff\n      and\n      dup2\n      mstore\n      0x20\n      add\n      swap1\n      dup2\n      mstore\n      0x20\n      add\n      0x00\n      keccak256\n        /* \"Project Module 2/PeerToPeerLending.sol\":1147:1173  users[msg.sender].credited */\n      0x00\n      add\n      0x00\n      swap1\n      sload\n      swap1\n      0x0100\n      exp\n      swap1\n      div\n      0xff\n      and\n        /* \"Project Module 2/PeerToPeerLending.sol\":1147:1182  users[msg.sender].credited == false */\n      iszero\n      iszero\n      eq\n        /* \"Project Module 2/PeerToPeerLending.sol\":1139:1183  require(users[msg.sender].credited == false) */\n      tag_72\n      jumpi\n      0x00\n      dup1\n      revert\n    tag_72:\n        /* \"Project Module 2/PeerToPeerLending.sol\":1235:1240  false */\n      0x00\n        /* \"Project Module 2/PeerToPeerLending.sol\":1202:1240  users[msg.sender].fraudStatus == false */\n      iszero\n      iszero\n        /* \"Project Module 2/PeerToPeerLending.sol\":1202:1207  users */\n      0x01\n        /* \"Project Module 2/PeerToPeerLending.sol\":1202:1219  users[msg.sender] */\n      0x00\n        /* \"Project Module 2/PeerToPeerLending.sol\":1208:1218  msg.sender */\n      caller\n        /* \"Project Module 2/PeerToPeerLending.sol\":1202:1219  users[msg.sender] */\n      0xffffffffffffffffffffffffffffffffffffffff\n      and\n      0xffffffffffffffffffffffffffffffffffffffff\n      and\n      dup2\n      mstore\n      0x20\n      add\n      swap1\n      dup2\n      mstore\n      0x20\n      add\n      0x00\n      keccak256\n        /* \"Project Module 2/PeerToPeerLending.sol\":1202:1231  users[msg.sender].fraudStatus */\n      0x00\n      add\n      0x15\n      swap1\n      sload\n      swap1\n      0x0100\n      exp\n      swap1\n      div\n      0xff\n      and\n        /* \"Project Module 2/PeerToPeerLending.sol\":1202:1240  users[msg.sender].fraudStatus == false */\n      iszero\n      iszero\n      eq\n        /* \"Project Module 2/PeerToPeerLending.sol\":1194:1241  require(users[msg.sender].fraudStatus == false) */\n      tag_73\n      jumpi\n      0x00\n      dup1\n      revert\n    tag_73:\n        /* \"Project Module 2/PeerToPeerLending.sol\":1300:1301  0 */\n      0x00\n        /* \"Project Module 2/PeerToPeerLending.sol\":1258:1302  users[msg.sender].activeCredit == address(0) */\n      0xffffffffffffffffffffffffffffffffffffffff\n      and\n        /* \"Project Module 2/PeerToPeerLending.sol\":1258:1263  users */\n      0x01\n        /* \"Project Module 2/PeerToPeerLending.sol\":1258:1275  users[msg.sender] */\n      0x00\n        /* \"Project Module 2/PeerToPeerLending.sol\":1264:1274  msg.sender */\n      caller\n        /* \"Project Module 2/PeerToPeerLending.sol\":1258:1275  users[msg.sender] */\n      0xffffffffffffffffffffffffffffffffffffffff\n      and\n      0xffffffffffffffffffffffffffffffffffffffff\n      and\n      dup2\n      mstore\n      0x20\n      add\n      swap1\n      dup2\n      mstore\n      0x20\n      add\n      0x00\n      keccak256\n        /* \"Project Module 2/PeerToPeerLending.sol\":1258:1288  users[msg.sender].activeCredit */\n      0x00\n      add\n      0x01\n      swap1\n      sload\n      swap1\n      0x0100\n      exp\n      swap1\n      div\n      0xffffffffffffffffffffffffffffffffffffffff\n      and\n        /* \"Project Module 2/PeerToPeerLending.sol\":1258:1302  users[msg.sender].activeCredit == address(0) */\n      0xffffffffffffffffffffffffffffffffffffffff\n      and\n      eq\n        /* \"Project Module 2/PeerToPeerLending.sol\":1251:1303  assert(users[msg.sender].activeCredit == address(0)) */\n      tag_74\n      jumpi\n      tag_75\n      tag_76\n      jump\t// in\n    tag_75:\n    tag_74:\n        /* \"Project Module 2/PeerToPeerLending.sol\":1342:1346  true */\n      0x01\n        /* \"Project Module 2/PeerToPeerLending.sol\":1313:1318  users */\n      dup1\n        /* \"Project Module 2/PeerToPeerLending.sol\":1313:1330  users[msg.sender] */\n      0x00\n        /* \"Project Module 2/PeerToPeerLending.sol\":1319:1329  msg.sender */\n      caller\n        /* \"Project Module 2/PeerToPeerLending.sol\":1313:1330  users[msg.sender] */\n      0xffffffffffffffffffffffffffffffffffffffff\n      and\n      0xffffffffffffffffffffffffffffffffffffffff\n      and\n      dup2\n      mstore\n      0x20\n      add\n      swap1\n      dup2\n      mstore\n      0x20\n      add\n      0x00\n      keccak256\n        /* \"Project Module 2/PeerToPeerLending.sol\":1313:1339  users[msg.sender].credited */\n      0x00\n      add\n      0x00\n        /* \"Project Module 2/PeerToPeerLending.sol\":1313:1346  users[msg.sender].credited = true */\n      0x0100\n      exp\n      dup2\n      sload\n      dup2\n      0xff\n      mul\n      not\n      and\n      swap1\n      dup4\n      iszero\n      iszero\n      mul\n      or\n      swap1\n      sstore\n      pop\n        /* \"Project Module 2/PeerToPeerLending.sol\":1356:1369  Credit credit */\n      0x00\n        /* \"Project Module 2/PeerToPeerLending.sol\":1383:1398  requestedAmount */\n      dup6\n        /* \"Project Module 2/PeerToPeerLending.sol\":1400:1415  repaymentsCount */\n      dup6\n        /* \"Project Module 2/PeerToPeerLending.sol\":1417:1425  interest */\n      dup6\n        /* \"Project Module 2/PeerToPeerLending.sol\":1427:1444  creditDescription */\n      dup6\n        /* \"Project Module 2/PeerToPeerLending.sol\":1372:1445  new Credit(requestedAmount, repaymentsCount, interest, creditDescription) */\n      mload(0x40)\n      tag_77\n      swap1\n      tag_78\n      jump\t// in\n    tag_77:\n      tag_79\n      swap5\n      swap4\n      swap3\n      swap2\n      swap1\n      tag_80\n      jump\t// in\n    tag_79:\n      mload(0x40)\n      dup1\n      swap2\n      sub\n      swap1\n      0x00\n      create\n      dup1\n      iszero\n      dup1\n      iszero\n      tag_81\n      jumpi\n      returndatasize\n      0x00\n      dup1\n      returndatacopy\n      revert(0x00, returndatasize)\n    tag_81:\n      pop\n        /* \"Project Module 2/PeerToPeerLending.sol\":1356:1445  Credit credit = new Credit(requestedAmount, repaymentsCount, interest, creditDescription) */\n      swap1\n      pop\n        /* \"Project Module 2/PeerToPeerLending.sol\":1496:1502  credit */\n      dup1\n        /* \"Project Module 2/PeerToPeerLending.sol\":1455:1460  users */\n      0x01\n        /* \"Project Module 2/PeerToPeerLending.sol\":1455:1472  users[msg.sender] */\n      0x00\n        /* \"Project Module 2/PeerToPeerLending.sol\":1461:1471  msg.sender */\n      caller\n        /* \"Project Module 2/PeerToPeerLending.sol\":1455:1472  users[msg.sender] */\n      0xffffffffffffffffffffffffffffffffffffffff\n      and\n      0xffffffffffffffffffffffffffffffffffffffff\n      and\n      dup2\n      mstore\n      0x20\n      add\n      swap1\n      dup2\n      mstore\n      0x20\n      add\n      0x00\n      keccak256\n        /* \"Project Module 2/PeerToPeerLending.sol\":1455:1485  users[msg.sender].activeCredit */\n      0x00\n      add\n      0x01\n        /* \"Project Module 2/PeerToPeerLending.sol\":1455:1503  users[msg.sender].activeCredit = address(credit) */\n      0x0100\n      exp\n      dup2\n      sload\n      dup2\n      0xffffffffffffffffffffffffffffffffffffffff\n      mul\n      not\n      and\n      swap1\n      dup4\n      0xffffffffffffffffffffffffffffffffffffffff\n      and\n      mul\n      or\n      swap1\n      sstore\n      pop\n        /* \"Project Module 2/PeerToPeerLending.sol\":1513:1520  credits */\n      0x02\n        /* \"Project Module 2/PeerToPeerLending.sol\":1534:1540  credit */\n      dup2\n        /* \"Project Module 2/PeerToPeerLending.sol\":1513:1542  credits.push(address(credit)) */\n      swap1\n      dup1\n      0x01\n      dup2\n      sload\n      add\n      dup1\n      dup3\n      sstore\n      dup1\n      swap2\n      pop\n      pop\n      0x01\n      swap1\n      sub\n      swap1\n      0x00\n      mstore\n      keccak256(0x00, 0x20)\n      add\n      0x00\n      swap1\n      swap2\n      swap1\n      swap2\n      swap1\n      swap2\n      0x0100\n      exp\n      dup2\n      sload\n      dup2\n      0xffffffffffffffffffffffffffffffffffffffff\n      mul\n      not\n      and\n      swap1\n      dup4\n      0xffffffffffffffffffffffffffffffffffffffff\n      and\n      mul\n      or\n      swap1\n      sstore\n      pop\n        /* \"Project Module 2/PeerToPeerLending.sol\":1552:1557  users */\n      0x01\n        /* \"Project Module 2/PeerToPeerLending.sol\":1552:1569  users[msg.sender] */\n      0x00\n        /* \"Project Module 2/PeerToPeerLending.sol\":1558:1568  msg.sender */\n      caller\n        /* \"Project Module 2/PeerToPeerLending.sol\":1552:1569  users[msg.sender] */\n      0xffffffffffffffffffffffffffffffffffffffff\n      and\n      0xffffffffffffffffffffffffffffffffffffffff\n      and\n      dup2\n      mstore\n      0x20\n      add\n      swap1\n      dup2\n      mstore\n      0x20\n      add\n      0x00\n      keccak256\n        /* \"Project Module 2/PeerToPeerLending.sol\":1552:1580  users[msg.sender].allCredits */\n      0x01\n      add\n        /* \"Project Module 2/PeerToPeerLending.sol\":1594:1600  credit */\n      dup2\n        /* \"Project Module 2/PeerToPeerLending.sol\":1552:1602  users[msg.sender].allCredits.push(address(credit)) */\n      swap1\n      dup1\n      0x01\n      dup2\n      sload\n      add\n      dup1\n      dup3\n      sstore\n      dup1\n      swap2\n      pop\n      pop\n      0x01\n      swap1\n      sub\n      swap1\n      0x00\n      mstore\n      keccak256(0x00, 0x20)\n      add\n      0x00\n      swap1\n      swap2\n      swap1\n      swap2\n      swap1\n      swap2\n      0x0100\n      exp\n      dup2\n      sload\n      dup2\n      0xffffffffffffffffffffffffffffffffffffffff\n      mul\n      not\n      and\n      swap1\n      dup4\n      0xffffffffffffffffffffffffffffffffffffffff\n      and\n      mul\n      or\n      swap1\n      sstore\n      pop\n        /* \"Project Module 2/PeerToPeerLending.sol\":1664:1679  block.timestamp */\n      timestamp\n        /* \"Project Module 2/PeerToPeerLending.sol\":1652:1662  msg.sender */\n      caller\n        /* \"Project Module 2/PeerToPeerLending.sol\":1618:1680  LogCreditCreated(address(credit), msg.sender, block.timestamp) */\n      0xffffffffffffffffffffffffffffffffffffffff\n      and\n        /* \"Project Module 2/PeerToPeerLending.sol\":1643:1649  credit */\n      dup3\n        /* \"Project Module 2/PeerToPeerLending.sol\":1618:1680  LogCreditCreated(address(credit), msg.sender, block.timestamp) */\n      0xffffffffffffffffffffffffffffffffffffffff\n      and\n      0xa0c75b76492543c8eafdc7e35272287bd6f229dcf0f6c22429343044718c5108\n      mload(0x40)\n      mload(0x40)\n      dup1\n      swap2\n      sub\n      swap1\n      log4\n        /* \"Project Module 2/PeerToPeerLending.sol\":1705:1711  credit */\n      dup1\n        /* \"Project Module 2/PeerToPeerLending.sol\":1690:1712  return address(credit) */\n      swap2\n      pop\n      pop\n        /* \"Project Module 2/PeerToPeerLending.sol\":934:1719  function applyForCredit(... */\n      swap5\n      swap4\n      pop\n      pop\n      pop\n      pop\n      jump\t// out\n        /* \"Project Module 2/PeerToPeerLending.sol\":2205:2446  function changeCreditState(Credit _credit, Credit.State state) public onlyOwner {... */\n    tag_52:\n        /* \"Project Module 2/Ownable.sol\":274:279  owner */\n      0x00\n      dup1\n      sload\n      swap1\n      0x0100\n      exp\n      swap1\n      div\n      0xffffffffffffffffffffffffffffffffffffffff\n      and\n        /* \"Project Module 2/Ownable.sol\":260:279  msg.sender == owner */\n      0xffffffffffffffffffffffffffffffffffffffff\n      and\n        /* \"Project Module 2/Ownable.sol\":260:270  msg.sender */\n      caller\n        /* \"Project Module 2/Ownable.sol\":260:279  msg.sender == owner */\n      0xffffffffffffffffffffffffffffffffffffffff\n      and\n      eq\n        /* \"Project Module 2/Ownable.sol\":252:280  require(msg.sender == owner) */\n      tag_85\n      jumpi\n      0x00\n      dup1\n      revert\n    tag_85:\n        /* \"Project Module 2/PeerToPeerLending.sol\":2295:2308  Credit credit */\n      0x00\n        /* \"Project Module 2/PeerToPeerLending.sol\":2318:2325  _credit */\n      dup3\n        /* \"Project Module 2/PeerToPeerLending.sol\":2295:2326  Credit credit = Credit(_credit) */\n      swap1\n      pop\n        /* \"Project Module 2/PeerToPeerLending.sol\":2336:2342  credit */\n      dup1\n        /* \"Project Module 2/PeerToPeerLending.sol\":2336:2354  credit.changeState */\n      0xffffffffffffffffffffffffffffffffffffffff\n      and\n      0x268f1153\n        /* \"Project Module 2/PeerToPeerLending.sol\":2355:2360  state */\n      dup4\n        /* \"Project Module 2/PeerToPeerLending.sol\":2336:2361  credit.changeState(state) */\n      mload(0x40)\n      dup3\n      0xffffffff\n      and\n      0xe0\n      shl\n      dup2\n      mstore\n      0x04\n      add\n      tag_87\n      swap2\n      swap1\n      tag_88\n      jump\t// in\n    tag_87:\n      0x00\n      mload(0x40)\n      dup1\n      dup4\n      sub\n      dup2\n      0x00\n      dup8\n      dup1\n      extcodesize\n      iszero\n      dup1\n      iszero\n      tag_89\n      jumpi\n      0x00\n      dup1\n      revert\n    tag_89:\n      pop\n      gas\n      call\n      iszero\n      dup1\n      iszero\n      tag_91\n      jumpi\n      returndatasize\n      0x00\n      dup1\n      returndatacopy\n      revert(0x00, returndatasize)\n    tag_91:\n      pop\n      pop\n      pop\n      pop\n        /* \"Project Module 2/PeerToPeerLending.sol\":2423:2438  block.timestamp */\n      timestamp\n        /* \"Project Module 2/PeerToPeerLending.sol\":2416:2421  state */\n      dup3\n        /* \"Project Module 2/PeerToPeerLending.sol\":2377:2439  LogCreditStateChanged(address(credit), state, block.timestamp) */\n      0x05\n      dup2\n      gt\n      iszero\n      tag_92\n      jumpi\n      tag_93\n      tag_94\n      jump\t// in\n    tag_93:\n    tag_92:\n        /* \"Project Module 2/PeerToPeerLending.sol\":2407:2413  credit */\n      dup3\n        /* \"Project Module 2/PeerToPeerLending.sol\":2377:2439  LogCreditStateChanged(address(credit), state, block.timestamp) */\n      0xffffffffffffffffffffffffffffffffffffffff\n      and\n      0x9ae5127f6d87e374b5901ce23a9467e504811c54c03dda8741ad44a35a361466\n      mload(0x40)\n      mload(0x40)\n      dup1\n      swap2\n      sub\n      swap1\n      log4\n        /* \"Project Module 2/PeerToPeerLending.sol\":2285:2446  {... */\n      pop\n        /* \"Project Module 2/PeerToPeerLending.sol\":2205:2446  function changeCreditState(Credit _credit, Credit.State state) public onlyOwner {... */\n      pop\n      pop\n      jump\t// out\n    tag_78:\n      dataSize(sub_0)\n      dup1\n      dataOffset(sub_0)\n      dup4\n      codecopy\n      add\n      swap1\n      jump\t// out\n        /* \"#utility.yul\":7:82   */\n    tag_95:\n        /* \"#utility.yul\":40:46   */\n      0x00\n        /* \"#utility.yul\":73:75   */\n      0x40\n        /* \"#utility.yul\":67:76   */\n      mload\n        /* \"#utility.yul\":57:76   */\n      swap1\n      pop\n        /* \"#utility.yul\":7:82   */\n      swap1\n      jump\t// out\n        /* \"#utility.yul\":88:205   */\n    tag_96:\n        /* \"#utility.yul\":197:198   */\n      0x00\n        /* \"#utility.yul\":194:195   */\n      dup1\n        /* \"#utility.yul\":187:199   */\n      revert\n        /* \"#utility.yul\":211:328   */\n    tag_97:\n        /* \"#utility.yul\":320:321   */\n      0x00\n        /* \"#utility.yul\":317:318   */\n      dup1\n        /* \"#utility.yul\":310:322   */\n      revert\n        /* \"#utility.yul\":334:411   */\n    tag_98:\n        /* \"#utility.yul\":371:378   */\n      0x00\n        /* \"#utility.yul\":400:405   */\n      dup2\n        /* \"#utility.yul\":389:405   */\n      swap1\n      pop\n        /* \"#utility.yul\":334:411   */\n      swap2\n      swap1\n      pop\n      jump\t// out\n        /* \"#utility.yul\":417:539   */\n    tag_99:\n        /* \"#utility.yul\":490:514   */\n      tag_147\n        /* \"#utility.yul\":508:513   */\n      dup2\n        /* \"#utility.yul\":490:514   */\n      tag_98\n      jump\t// in\n    tag_147:\n        /* \"#utility.yul\":483:488   */\n      dup2\n        /* \"#utility.yul\":480:515   */\n      eq\n        /* \"#utility.yul\":470:533   */\n      tag_148\n      jumpi\n        /* \"#utility.yul\":529:530   */\n      0x00\n        /* \"#utility.yul\":526:527   */\n      dup1\n        /* \"#utility.yul\":519:531   */\n      revert\n        /* \"#utility.yul\":470:533   */\n    tag_148:\n        /* \"#utility.yul\":417:539   */\n      pop\n      jump\t// out\n        /* \"#utility.yul\":545:684   */\n    tag_100:\n        /* \"#utility.yul\":591:596   */\n      0x00\n        /* \"#utility.yul\":629:635   */\n      dup2\n        /* \"#utility.yul\":616:636   */\n      calldataload\n        /* \"#utility.yul\":607:636   */\n      swap1\n      pop\n        /* \"#utility.yul\":645:678   */\n      tag_150\n        /* \"#utility.yul\":672:677   */\n      dup2\n        /* \"#utility.yul\":645:678   */\n      tag_99\n      jump\t// in\n    tag_150:\n        /* \"#utility.yul\":545:684   */\n      swap3\n      swap2\n      pop\n      pop\n      jump\t// out\n        /* \"#utility.yul\":690:1019   */\n    tag_15:\n        /* \"#utility.yul\":749:755   */\n      0x00\n        /* \"#utility.yul\":798:800   */\n      0x20\n        /* \"#utility.yul\":786:795   */\n      dup3\n        /* \"#utility.yul\":777:784   */\n      dup5\n        /* \"#utility.yul\":773:796   */\n      sub\n        /* \"#utility.yul\":769:801   */\n      slt\n        /* \"#utility.yul\":766:885   */\n      iszero\n      tag_152\n      jumpi\n        /* \"#utility.yul\":804:883   */\n      tag_153\n      tag_96\n      jump\t// in\n    tag_153:\n        /* \"#utility.yul\":766:885   */\n    tag_152:\n        /* \"#utility.yul\":924:925   */\n      0x00\n        /* \"#utility.yul\":949:1002   */\n      tag_154\n        /* \"#utility.yul\":994:1001   */\n      dup5\n        /* \"#utility.yul\":985:991   */\n      dup3\n        /* \"#utility.yul\":974:983   */\n      dup6\n        /* \"#utility.yul\":970:992   */\n      add\n        /* \"#utility.yul\":949:1002   */\n      tag_100\n      jump\t// in\n    tag_154:\n        /* \"#utility.yul\":939:1002   */\n      swap2\n      pop\n        /* \"#utility.yul\":895:1012   */\n      pop\n        /* \"#utility.yul\":690:1019   */\n      swap3\n      swap2\n      pop\n      pop\n      jump\t// out\n        /* \"#utility.yul\":1025:1151   */\n    tag_101:\n        /* \"#utility.yul\":1062:1069   */\n      0x00\n        /* \"#utility.yul\":1102:1144   */\n      0xffffffffffffffffffffffffffffffffffffffff\n        /* \"#utility.yul\":1095:1100   */\n      dup3\n        /* \"#utility.yul\":1091:1145   */\n      and\n        /* \"#utility.yul\":1080:1145   */\n      swap1\n      pop\n        /* \"#utility.yul\":1025:1151   */\n      swap2\n      swap1\n      pop\n      jump\t// out\n        /* \"#utility.yul\":1157:1253   */\n    tag_102:\n        /* \"#utility.yul\":1194:1201   */\n      0x00\n        /* \"#utility.yul\":1223:1247   */\n      tag_157\n        /* \"#utility.yul\":1241:1246   */\n      dup3\n        /* \"#utility.yul\":1223:1247   */\n      tag_101\n      jump\t// in\n    tag_157:\n        /* \"#utility.yul\":1212:1247   */\n      swap1\n      pop\n        /* \"#utility.yul\":1157:1253   */\n      swap2\n      swap1\n      pop\n      jump\t// out\n        /* \"#utility.yul\":1259:1377   */\n    tag_103:\n        /* \"#utility.yul\":1346:1370   */\n      tag_159\n        /* \"#utility.yul\":1364:1369   */\n      dup2\n        /* \"#utility.yul\":1346:1370   */\n      tag_102\n      jump\t// in\n    tag_159:\n        /* \"#utility.yul\":1341:1344   */\n      dup3\n        /* \"#utility.yul\":1334:1371   */\n      mstore\n        /* \"#utility.yul\":1259:1377   */\n      pop\n      pop\n      jump\t// out\n        /* \"#utility.yul\":1383:1605   */\n    tag_18:\n        /* \"#utility.yul\":1476:1480   */\n      0x00\n        /* \"#utility.yul\":1514:1516   */\n      0x20\n        /* \"#utility.yul\":1503:1512   */\n      dup3\n        /* \"#utility.yul\":1499:1517   */\n      add\n        /* \"#utility.yul\":1491:1517   */\n      swap1\n      pop\n        /* \"#utility.yul\":1527:1598   */\n      tag_161\n        /* \"#utility.yul\":1595:1596   */\n      0x00\n        /* \"#utility.yul\":1584:1593   */\n      dup4\n        /* \"#utility.yul\":1580:1597   */\n      add\n        /* \"#utility.yul\":1571:1577   */\n      dup5\n        /* \"#utility.yul\":1527:1598   */\n      tag_103\n      jump\t// in\n    tag_161:\n        /* \"#utility.yul\":1383:1605   */\n      swap3\n      swap2\n      pop\n      pop\n      jump\t// out\n        /* \"#utility.yul\":1611:1721   */\n    tag_104:\n        /* \"#utility.yul\":1662:1669   */\n      0x00\n        /* \"#utility.yul\":1691:1715   */\n      tag_163\n        /* \"#utility.yul\":1709:1714   */\n      dup3\n        /* \"#utility.yul\":1691:1715   */\n      tag_102\n      jump\t// in\n    tag_163:\n        /* \"#utility.yul\":1680:1715   */\n      swap1\n      pop\n        /* \"#utility.yul\":1611:1721   */\n      swap2\n      swap1\n      pop\n      jump\t// out\n        /* \"#utility.yul\":1727:1877   */\n    tag_105:\n        /* \"#utility.yul\":1814:1852   */\n      tag_165\n        /* \"#utility.yul\":1846:1851   */\n      dup2\n        /* \"#utility.yul\":1814:1852   */\n      tag_104\n      jump\t// in\n    tag_165:\n        /* \"#utility.yul\":1807:1812   */\n      dup2\n        /* \"#utility.yul\":1804:1853   */\n      eq\n        /* \"#utility.yul\":1794:1871   */\n      tag_166\n      jumpi\n        /* \"#utility.yul\":1867:1868   */\n      0x00\n        /* \"#utility.yul\":1864:1865   */\n      dup1\n        /* \"#utility.yul\":1857:1869   */\n      revert\n        /* \"#utility.yul\":1794:1871   */\n    tag_166:\n        /* \"#utility.yul\":1727:1877   */\n      pop\n      jump\t// out\n        /* \"#utility.yul\":1883:2050   */\n    tag_106:\n        /* \"#utility.yul\":1943:1948   */\n      0x00\n        /* \"#utility.yul\":1981:1987   */\n      dup2\n        /* \"#utility.yul\":1968:1988   */\n      calldataload\n        /* \"#utility.yul\":1959:1988   */\n      swap1\n      pop\n        /* \"#utility.yul\":1997:2044   */\n      tag_168\n        /* \"#utility.yul\":2038:2043   */\n      dup2\n        /* \"#utility.yul\":1997:2044   */\n      tag_105\n      jump\t// in\n    tag_168:\n        /* \"#utility.yul\":1883:2050   */\n      swap3\n      swap2\n      pop\n      pop\n      jump\t// out\n        /* \"#utility.yul\":2056:2413   */\n    tag_21:\n        /* \"#utility.yul\":2129:2135   */\n      0x00\n        /* \"#utility.yul\":2178:2180   */\n      0x20\n        /* \"#utility.yul\":2166:2175   */\n      dup3\n        /* \"#utility.yul\":2157:2164   */\n      dup5\n        /* \"#utility.yul\":2153:2176   */\n      sub\n        /* \"#utility.yul\":2149:2181   */\n      slt\n        /* \"#utility.yul\":2146:2265   */\n      iszero\n      tag_170\n      jumpi\n        /* \"#utility.yul\":2184:2263   */\n      tag_171\n      tag_96\n      jump\t// in\n    tag_171:\n        /* \"#utility.yul\":2146:2265   */\n    tag_170:\n        /* \"#utility.yul\":2304:2305   */\n      0x00\n        /* \"#utility.yul\":2329:2396   */\n      tag_172\n        /* \"#utility.yul\":2388:2395   */\n      dup5\n        /* \"#utility.yul\":2379:2385   */\n      dup3\n        /* \"#utility.yul\":2368:2377   */\n      dup6\n        /* \"#utility.yul\":2364:2386   */\n      add\n        /* \"#utility.yul\":2329:2396   */\n      tag_106\n      jump\t// in\n    tag_172:\n        /* \"#utility.yul\":2319:2396   */\n      swap2\n      pop\n        /* \"#utility.yul\":2275:2406   */\n      pop\n        /* \"#utility.yul\":2056:2413   */\n      swap3\n      swap2\n      pop\n      pop\n      jump\t// out\n        /* \"#utility.yul\":2419:2533   */\n    tag_107:\n        /* \"#utility.yul\":2486:2492   */\n      0x00\n        /* \"#utility.yul\":2520:2525   */\n      dup2\n        /* \"#utility.yul\":2514:2526   */\n      mload\n        /* \"#utility.yul\":2504:2526   */\n      swap1\n      pop\n        /* \"#utility.yul\":2419:2533   */\n      swap2\n      swap1\n      pop\n      jump\t// out\n        /* \"#utility.yul\":2539:2723   */\n    tag_108:\n        /* \"#utility.yul\":2638:2649   */\n      0x00\n        /* \"#utility.yul\":2672:2678   */\n      dup3\n        /* \"#utility.yul\":2667:2670   */\n      dup3\n        /* \"#utility.yul\":2660:2679   */\n      mstore\n        /* \"#utility.yul\":2712:2716   */\n      0x20\n        /* \"#utility.yul\":2707:2710   */\n      dup3\n        /* \"#utility.yul\":2703:2717   */\n      add\n        /* \"#utility.yul\":2688:2717   */\n      swap1\n      pop\n        /* \"#utility.yul\":2539:2723   */\n      swap3\n      swap2\n      pop\n      pop\n      jump\t// out\n        /* \"#utility.yul\":2729:2861   */\n    tag_109:\n        /* \"#utility.yul\":2796:2800   */\n      0x00\n        /* \"#utility.yul\":2819:2822   */\n      dup2\n        /* \"#utility.yul\":2811:2822   */\n      swap1\n      pop\n        /* \"#utility.yul\":2849:2853   */\n      0x20\n        /* \"#utility.yul\":2844:2847   */\n      dup3\n        /* \"#utility.yul\":2840:2854   */\n      add\n        /* \"#utility.yul\":2832:2854   */\n      swap1\n      pop\n        /* \"#utility.yul\":2729:2861   */\n      swap2\n      swap1\n      pop\n      jump\t// out\n        /* \"#utility.yul\":2867:2975   */\n    tag_110:\n        /* \"#utility.yul\":2944:2968   */\n      tag_177\n        /* \"#utility.yul\":2962:2967   */\n      dup2\n        /* \"#utility.yul\":2944:2968   */\n      tag_102\n      jump\t// in\n    tag_177:\n        /* \"#utility.yul\":2939:2942   */\n      dup3\n        /* \"#utility.yul\":2932:2969   */\n      mstore\n        /* \"#utility.yul\":2867:2975   */\n      pop\n      pop\n      jump\t// out\n        /* \"#utility.yul\":2981:3160   */\n    tag_111:\n        /* \"#utility.yul\":3050:3060   */\n      0x00\n        /* \"#utility.yul\":3071:3117   */\n      tag_179\n        /* \"#utility.yul\":3113:3116   */\n      dup4\n        /* \"#utility.yul\":3105:3111   */\n      dup4\n        /* \"#utility.yul\":3071:3117   */\n      tag_110\n      jump\t// in\n    tag_179:\n        /* \"#utility.yul\":3149:3153   */\n      0x20\n        /* \"#utility.yul\":3144:3147   */\n      dup4\n        /* \"#utility.yul\":3140:3154   */\n      add\n        /* \"#utility.yul\":3126:3154   */\n      swap1\n      pop\n        /* \"#utility.yul\":2981:3160   */\n      swap3\n      swap2\n      pop\n      pop\n      jump\t// out\n        /* \"#utility.yul\":3166:3279   */\n    tag_112:\n        /* \"#utility.yul\":3236:3240   */\n      0x00\n        /* \"#utility.yul\":3268:3272   */\n      0x20\n        /* \"#utility.yul\":3263:3266   */\n      dup3\n        /* \"#utility.yul\":3259:3273   */\n      add\n        /* \"#utility.yul\":3251:3273   */\n      swap1\n      pop\n        /* \"#utility.yul\":3166:3279   */\n      swap2\n      swap1\n      pop\n      jump\t// out\n        /* \"#utility.yul\":3315:4047   */\n    tag_113:\n        /* \"#utility.yul\":3434:3437   */\n      0x00\n        /* \"#utility.yul\":3463:3517   */\n      tag_182\n        /* \"#utility.yul\":3511:3516   */\n      dup3\n        /* \"#utility.yul\":3463:3517   */\n      tag_107\n      jump\t// in\n    tag_182:\n        /* \"#utility.yul\":3533:3619   */\n      tag_183\n        /* \"#utility.yul\":3612:3618   */\n      dup2\n        /* \"#utility.yul\":3607:3610   */\n      dup6\n        /* \"#utility.yul\":3533:3619   */\n      tag_108\n      jump\t// in\n    tag_183:\n        /* \"#utility.yul\":3526:3619   */\n      swap4\n      pop\n        /* \"#utility.yul\":3643:3699   */\n      tag_184\n        /* \"#utility.yul\":3693:3698   */\n      dup4\n        /* \"#utility.yul\":3643:3699   */\n      tag_109\n      jump\t// in\n    tag_184:\n        /* \"#utility.yul\":3722:3729   */\n      dup1\n        /* \"#utility.yul\":3753:3754   */\n      0x00\n        /* \"#utility.yul\":3738:4022   */\n    tag_185:\n        /* \"#utility.yul\":3763:3769   */\n      dup4\n        /* \"#utility.yul\":3760:3761   */\n      dup2\n        /* \"#utility.yul\":3757:3770   */\n      lt\n        /* \"#utility.yul\":3738:4022   */\n      iszero\n      tag_187\n      jumpi\n        /* \"#utility.yul\":3839:3845   */\n      dup2\n        /* \"#utility.yul\":3833:3846   */\n      mload\n        /* \"#utility.yul\":3866:3929   */\n      tag_188\n        /* \"#utility.yul\":3925:3928   */\n      dup9\n        /* \"#utility.yul\":3910:3923   */\n      dup3\n        /* \"#utility.yul\":3866:3929   */\n      tag_111\n      jump\t// in\n    tag_188:\n        /* \"#utility.yul\":3859:3929   */\n      swap8\n      pop\n        /* \"#utility.yul\":3952:4012   */\n      tag_189\n        /* \"#utility.yul\":4005:4011   */\n      dup4\n        /* \"#utility.yul\":3952:4012   */\n      tag_112\n      jump\t// in\n    tag_189:\n        /* \"#utility.yul\":3942:4012   */\n      swap3\n      pop\n        /* \"#utility.yul\":3798:4022   */\n      pop\n        /* \"#utility.yul\":3785:3786   */\n      0x01\n        /* \"#utility.yul\":3782:3783   */\n      dup2\n        /* \"#utility.yul\":3778:3787   */\n      add\n        /* \"#utility.yul\":3773:3787   */\n      swap1\n      pop\n        /* \"#utility.yul\":3738:4022   */\n      jump(tag_185)\n    tag_187:\n        /* \"#utility.yul\":3742:3756   */\n      pop\n        /* \"#utility.yul\":4038:4041   */\n      dup6\n        /* \"#utility.yul\":4031:4041   */\n      swap4\n      pop\n        /* \"#utility.yul\":3439:4047   */\n      pop\n      pop\n      pop\n        /* \"#utility.yul\":3315:4047   */\n      swap3\n      swap2\n      pop\n      pop\n      jump\t// out\n        /* \"#utility.yul\":4053:4426   */\n    tag_26:\n        /* \"#utility.yul\":4196:4200   */\n      0x00\n        /* \"#utility.yul\":4234:4236   */\n      0x20\n        /* \"#utility.yul\":4223:4232   */\n      dup3\n        /* \"#utility.yul\":4219:4237   */\n      add\n        /* \"#utility.yul\":4211:4237   */\n      swap1\n      pop\n        /* \"#utility.yul\":4283:4292   */\n      dup2\n        /* \"#utility.yul\":4277:4281   */\n      dup2\n        /* \"#utility.yul\":4273:4293   */\n      sub\n        /* \"#utility.yul\":4269:4270   */\n      0x00\n        /* \"#utility.yul\":4258:4267   */\n      dup4\n        /* \"#utility.yul\":4254:4271   */\n      add\n        /* \"#utility.yul\":4247:4294   */\n      mstore\n        /* \"#utility.yul\":4311:4419   */\n      tag_191\n        /* \"#utility.yul\":4414:4418   */\n      dup2\n        /* \"#utility.yul\":4405:4411   */\n      dup5\n        /* \"#utility.yul\":4311:4419   */\n      tag_113\n      jump\t// in\n    tag_191:\n        /* \"#utility.yul\":4303:4419   */\n      swap1\n      pop\n        /* \"#utility.yul\":4053:4426   */\n      swap3\n      swap2\n      pop\n      pop\n      jump\t// out\n        /* \"#utility.yul\":4432:4554   */\n    tag_114:\n        /* \"#utility.yul\":4505:4529   */\n      tag_193\n        /* \"#utility.yul\":4523:4528   */\n      dup2\n        /* \"#utility.yul\":4505:4529   */\n      tag_102\n      jump\t// in\n    tag_193:\n        /* \"#utility.yul\":4498:4503   */\n      dup2\n        /* \"#utility.yul\":4495:4530   */\n      eq\n        /* \"#utility.yul\":4485:4548   */\n      tag_194\n      jumpi\n        /* \"#utility.yul\":4544:4545   */\n      0x00\n        /* \"#utility.yul\":4541:4542   */\n      dup1\n        /* \"#utility.yul\":4534:4546   */\n      revert\n        /* \"#utility.yul\":4485:4548   */\n    tag_194:\n        /* \"#utility.yul\":4432:4554   */\n      pop\n      jump\t// out\n        /* \"#utility.yul\":4560:4699   */\n    tag_115:\n        /* \"#utility.yul\":4606:4611   */\n      0x00\n        /* \"#utility.yul\":4644:4650   */\n      dup2\n        /* \"#utility.yul\":4631:4651   */\n      calldataload\n        /* \"#utility.yul\":4622:4651   */\n      swap1\n      pop\n        /* \"#utility.yul\":4660:4693   */\n      tag_196\n        /* \"#utility.yul\":4687:4692   */\n      dup2\n        /* \"#utility.yul\":4660:4693   */\n      tag_114\n      jump\t// in\n    tag_196:\n        /* \"#utility.yul\":4560:4699   */\n      swap3\n      swap2\n      pop\n      pop\n      jump\t// out\n        /* \"#utility.yul\":4705:5034   */\n    tag_35:\n        /* \"#utility.yul\":4764:4770   */\n      0x00\n        /* \"#utility.yul\":4813:4815   */\n      0x20\n        /* \"#utility.yul\":4801:4810   */\n      dup3\n        /* \"#utility.yul\":4792:4799   */\n      dup5\n        /* \"#utility.yul\":4788:4811   */\n      sub\n        /* \"#utility.yul\":4784:4816   */\n      slt\n        /* \"#utility.yul\":4781:4900   */\n      iszero\n      tag_198\n      jumpi\n        /* \"#utility.yul\":4819:4898   */\n      tag_199\n      tag_96\n      jump\t// in\n    tag_199:\n        /* \"#utility.yul\":4781:4900   */\n    tag_198:\n        /* \"#utility.yul\":4939:4940   */\n      0x00\n        /* \"#utility.yul\":4964:5017   */\n      tag_200\n        /* \"#utility.yul\":5009:5016   */\n      dup5\n        /* \"#utility.yul\":5000:5006   */\n      dup3\n        /* \"#utility.yul\":4989:4998   */\n      dup6\n        /* \"#utility.yul\":4985:5007   */\n      add\n        /* \"#utility.yul\":4964:5017   */\n      tag_115\n      jump\t// in\n    tag_200:\n        /* \"#utility.yul\":4954:5017   */\n      swap2\n      pop\n        /* \"#utility.yul\":4910:5027   */\n      pop\n        /* \"#utility.yul\":4705:5034   */\n      swap3\n      swap2\n      pop\n      pop\n      jump\t// out\n        /* \"#utility.yul\":5040:5130   */\n    tag_116:\n        /* \"#utility.yul\":5074:5081   */\n      0x00\n        /* \"#utility.yul\":5117:5122   */\n      dup2\n        /* \"#utility.yul\":5110:5123   */\n      iszero\n        /* \"#utility.yul\":5103:5124   */\n      iszero\n        /* \"#utility.yul\":5092:5124   */\n      swap1\n      pop\n        /* \"#utility.yul\":5040:5130   */\n      swap2\n      swap1\n      pop\n      jump\t// out\n        /* \"#utility.yul\":5136:5245   */\n    tag_117:\n        /* \"#utility.yul\":5217:5238   */\n      tag_203\n        /* \"#utility.yul\":5232:5237   */\n      dup2\n        /* \"#utility.yul\":5217:5238   */\n      tag_116\n      jump\t// in\n    tag_203:\n        /* \"#utility.yul\":5212:5215   */\n      dup3\n        /* \"#utility.yul\":5205:5239   */\n      mstore\n        /* \"#utility.yul\":5136:5245   */\n      pop\n      pop\n      jump\t// out\n        /* \"#utility.yul\":5251:5669   */\n    tag_38:\n        /* \"#utility.yul\":5388:5392   */\n      0x00\n        /* \"#utility.yul\":5426:5428   */\n      0x60\n        /* \"#utility.yul\":5415:5424   */\n      dup3\n        /* \"#utility.yul\":5411:5429   */\n      add\n        /* \"#utility.yul\":5403:5429   */\n      swap1\n      pop\n        /* \"#utility.yul\":5439:5504   */\n      tag_205\n        /* \"#utility.yul\":5501:5502   */\n      0x00\n        /* \"#utility.yul\":5490:5499   */\n      dup4\n        /* \"#utility.yul\":5486:5503   */\n      add\n        /* \"#utility.yul\":5477:5483   */\n      dup7\n        /* \"#utility.yul\":5439:5504   */\n      tag_117\n      jump\t// in\n    tag_205:\n        /* \"#utility.yul\":5514:5586   */\n      tag_206\n        /* \"#utility.yul\":5582:5584   */\n      0x20\n        /* \"#utility.yul\":5571:5580   */\n      dup4\n        /* \"#utility.yul\":5567:5585   */\n      add\n        /* \"#utility.yul\":5558:5564   */\n      dup6\n        /* \"#utility.yul\":5514:5586   */\n      tag_103\n      jump\t// in\n    tag_206:\n        /* \"#utility.yul\":5596:5662   */\n      tag_207\n        /* \"#utility.yul\":5658:5660   */\n      0x40\n        /* \"#utility.yul\":5647:5656   */\n      dup4\n        /* \"#utility.yul\":5643:5661   */\n      add\n        /* \"#utility.yul\":5634:5640   */\n      dup5\n        /* \"#utility.yul\":5596:5662   */\n      tag_117\n      jump\t// in\n    tag_207:\n        /* \"#utility.yul\":5251:5669   */\n      swap5\n      swap4\n      pop\n      pop\n      pop\n      pop\n      jump\t// out\n        /* \"#utility.yul\":5675:5885   */\n    tag_43:\n        /* \"#utility.yul\":5762:5766   */\n      0x00\n        /* \"#utility.yul\":5800:5802   */\n      0x20\n        /* \"#utility.yul\":5789:5798   */\n      dup3\n        /* \"#utility.yul\":5785:5803   */\n      add\n        /* \"#utility.yul\":5777:5803   */\n      swap1\n      pop\n        /* \"#utility.yul\":5813:5878   */\n      tag_209\n        /* \"#utility.yul\":5875:5876   */\n      0x00\n        /* \"#utility.yul\":5864:5873   */\n      dup4\n        /* \"#utility.yul\":5860:5877   */\n      add\n        /* \"#utility.yul\":5851:5857   */\n      dup5\n        /* \"#utility.yul\":5813:5878   */\n      tag_117\n      jump\t// in\n    tag_209:\n        /* \"#utility.yul\":5675:5885   */\n      swap3\n      swap2\n      pop\n      pop\n      jump\t// out\n        /* \"#utility.yul\":5891:6008   */\n    tag_118:\n        /* \"#utility.yul\":6000:6001   */\n      0x00\n        /* \"#utility.yul\":5997:5998   */\n      dup1\n        /* \"#utility.yul\":5990:6002   */\n      revert\n        /* \"#utility.yul\":6014:6131   */\n    tag_119:\n        /* \"#utility.yul\":6123:6124   */\n      0x00\n        /* \"#utility.yul\":6120:6121   */\n      dup1\n        /* \"#utility.yul\":6113:6125   */\n      revert\n        /* \"#utility.yul\":6137:6239   */\n    tag_120:\n        /* \"#utility.yul\":6178:6184   */\n      0x00\n        /* \"#utility.yul\":6229:6231   */\n      0x1f\n        /* \"#utility.yul\":6225:6232   */\n      not\n        /* \"#utility.yul\":6220:6222   */\n      0x1f\n        /* \"#utility.yul\":6213:6218   */\n      dup4\n        /* \"#utility.yul\":6209:6223   */\n      add\n        /* \"#utility.yul\":6205:6233   */\n      and\n        /* \"#utility.yul\":6195:6233   */\n      swap1\n      pop\n        /* \"#utility.yul\":6137:6239   */\n      swap2\n      swap1\n      pop\n      jump\t// out\n        /* \"#utility.yul\":6245:6425   */\n    tag_121:\n        /* \"#utility.yul\":6293:6370   */\n      0x4e487b7100000000000000000000000000000000000000000000000000000000\n        /* \"#utility.yul\":6290:6291   */\n      0x00\n        /* \"#utility.yul\":6283:6371   */\n      mstore\n        /* \"#utility.yul\":6390:6394   */\n      0x41\n        /* \"#utility.yul\":6387:6388   */\n      0x04\n        /* \"#utility.yul\":6380:6395   */\n      mstore\n        /* \"#utility.yul\":6414:6418   */\n      0x24\n        /* \"#utility.yul\":6411:6412   */\n      0x00\n        /* \"#utility.yul\":6404:6419   */\n      revert\n        /* \"#utility.yul\":6431:6712   */\n    tag_122:\n        /* \"#utility.yul\":6514:6541   */\n      tag_215\n        /* \"#utility.yul\":6536:6540   */\n      dup3\n        /* \"#utility.yul\":6514:6541   */\n      tag_120\n      jump\t// in\n    tag_215:\n        /* \"#utility.yul\":6506:6512   */\n      dup2\n        /* \"#utility.yul\":6502:6542   */\n      add\n        /* \"#utility.yul\":6644:6650   */\n      dup2\n        /* \"#utility.yul\":6632:6642   */\n      dup2\n        /* \"#utility.yul\":6629:6651   */\n      lt\n        /* \"#utility.yul\":6608:6626   */\n      0xffffffffffffffff\n        /* \"#utility.yul\":6596:6606   */\n      dup3\n        /* \"#utility.yul\":6593:6627   */\n      gt\n        /* \"#utility.yul\":6590:6652   */\n      or\n        /* \"#utility.yul\":6587:6675   */\n      iszero\n      tag_216\n      jumpi\n        /* \"#utility.yul\":6655:6673   */\n      tag_217\n      tag_121\n      jump\t// in\n    tag_217:\n        /* \"#utility.yul\":6587:6675   */\n    tag_216:\n        /* \"#utility.yul\":6695:6705   */\n      dup1\n        /* \"#utility.yul\":6691:6693   */\n      0x40\n        /* \"#utility.yul\":6684:6706   */\n      mstore\n        /* \"#utility.yul\":6474:6712   */\n      pop\n        /* \"#utility.yul\":6431:6712   */\n      pop\n      pop\n      jump\t// out\n        /* \"#utility.yul\":6718:6847   */\n    tag_123:\n        /* \"#utility.yul\":6752:6758   */\n      0x00\n        /* \"#utility.yul\":6779:6799   */\n      tag_219\n      tag_95\n      jump\t// in\n    tag_219:\n        /* \"#utility.yul\":6769:6799   */\n      swap1\n      pop\n        /* \"#utility.yul\":6808:6841   */\n      tag_220\n        /* \"#utility.yul\":6836:6840   */\n      dup3\n        /* \"#utility.yul\":6828:6834   */\n      dup3\n        /* \"#utility.yul\":6808:6841   */\n      tag_122\n      jump\t// in\n    tag_220:\n        /* \"#utility.yul\":6718:6847   */\n      swap2\n      swap1\n      pop\n      jump\t// out\n        /* \"#utility.yul\":6853:7160   */\n    tag_124:\n        /* \"#utility.yul\":6914:6918   */\n      0x00\n        /* \"#utility.yul\":7004:7022   */\n      0xffffffffffffffff\n        /* \"#utility.yul\":6996:7002   */\n      dup3\n        /* \"#utility.yul\":6993:7023   */\n      gt\n        /* \"#utility.yul\":6990:7046   */\n      iszero\n      tag_222\n      jumpi\n        /* \"#utility.yul\":7026:7044   */\n      tag_223\n      tag_121\n      jump\t// in\n    tag_223:\n        /* \"#utility.yul\":6990:7046   */\n    tag_222:\n        /* \"#utility.yul\":7064:7093   */\n      tag_224\n        /* \"#utility.yul\":7086:7092   */\n      dup3\n        /* \"#utility.yul\":7064:7093   */\n      tag_120\n      jump\t// in\n    tag_224:\n        /* \"#utility.yul\":7056:7093   */\n      swap1\n      pop\n        /* \"#utility.yul\":7148:7152   */\n      0x20\n        /* \"#utility.yul\":7142:7146   */\n      dup2\n        /* \"#utility.yul\":7138:7153   */\n      add\n        /* \"#utility.yul\":7130:7153   */\n      swap1\n      pop\n        /* \"#utility.yul\":6853:7160   */\n      swap2\n      swap1\n      pop\n      jump\t// out\n        /* \"#utility.yul\":7166:7312   */\n    tag_125:\n        /* \"#utility.yul\":7263:7269   */\n      dup3\n        /* \"#utility.yul\":7258:7261   */\n      dup2\n        /* \"#utility.yul\":7253:7256   */\n      dup4\n        /* \"#utility.yul\":7240:7270   */\n      calldatacopy\n        /* \"#utility.yul\":7304:7305   */\n      0x00\n        /* \"#utility.yul\":7295:7301   */\n      dup4\n        /* \"#utility.yul\":7290:7293   */\n      dup4\n        /* \"#utility.yul\":7286:7302   */\n      add\n        /* \"#utility.yul\":7279:7306   */\n      mstore\n        /* \"#utility.yul\":7166:7312   */\n      pop\n      pop\n      pop\n      jump\t// out\n        /* \"#utility.yul\":7318:7741   */\n    tag_126:\n        /* \"#utility.yul\":7395:7400   */\n      0x00\n        /* \"#utility.yul\":7420:7485   */\n      tag_227\n        /* \"#utility.yul\":7436:7484   */\n      tag_228\n        /* \"#utility.yul\":7477:7483   */\n      dup5\n        /* \"#utility.yul\":7436:7484   */\n      tag_124\n      jump\t// in\n    tag_228:\n        /* \"#utility.yul\":7420:7485   */\n      tag_123\n      jump\t// in\n    tag_227:\n        /* \"#utility.yul\":7411:7485   */\n      swap1\n      pop\n        /* \"#utility.yul\":7508:7514   */\n      dup3\n        /* \"#utility.yul\":7501:7506   */\n      dup2\n        /* \"#utility.yul\":7494:7515   */\n      mstore\n        /* \"#utility.yul\":7546:7550   */\n      0x20\n        /* \"#utility.yul\":7539:7544   */\n      dup2\n        /* \"#utility.yul\":7535:7551   */\n      add\n        /* \"#utility.yul\":7584:7587   */\n      dup5\n        /* \"#utility.yul\":7575:7581   */\n      dup5\n        /* \"#utility.yul\":7570:7573   */\n      dup5\n        /* \"#utility.yul\":7566:7582   */\n      add\n        /* \"#utility.yul\":7563:7588   */\n      gt\n        /* \"#utility.yul\":7560:7672   */\n      iszero\n      tag_229\n      jumpi\n        /* \"#utility.yul\":7591:7670   */\n      tag_230\n      tag_119\n      jump\t// in\n    tag_230:\n        /* \"#utility.yul\":7560:7672   */\n    tag_229:\n        /* \"#utility.yul\":7681:7735   */\n      tag_231\n        /* \"#utility.yul\":7728:7734   */\n      dup5\n        /* \"#utility.yul\":7723:7726   */\n      dup3\n        /* \"#utility.yul\":7718:7721   */\n      dup6\n        /* \"#utility.yul\":7681:7735   */\n      tag_125\n      jump\t// in\n    tag_231:\n        /* \"#utility.yul\":7401:7741   */\n      pop\n        /* \"#utility.yul\":7318:7741   */\n      swap4\n      swap3\n      pop\n      pop\n      pop\n      jump\t// out\n        /* \"#utility.yul\":7760:8098   */\n    tag_127:\n        /* \"#utility.yul\":7815:7820   */\n      0x00\n        /* \"#utility.yul\":7864:7867   */\n      dup3\n        /* \"#utility.yul\":7857:7861   */\n      0x1f\n        /* \"#utility.yul\":7849:7855   */\n      dup4\n        /* \"#utility.yul\":7845:7862   */\n      add\n        /* \"#utility.yul\":7841:7868   */\n      slt\n        /* \"#utility.yul\":7831:7953   */\n      tag_233\n      jumpi\n        /* \"#utility.yul\":7872:7951   */\n      tag_234\n      tag_118\n      jump\t// in\n    tag_234:\n        /* \"#utility.yul\":7831:7953   */\n    tag_233:\n        /* \"#utility.yul\":7989:7995   */\n      dup2\n        /* \"#utility.yul\":7976:7996   */\n      calldataload\n        /* \"#utility.yul\":8014:8092   */\n      tag_235\n        /* \"#utility.yul\":8088:8091   */\n      dup5\n        /* \"#utility.yul\":8080:8086   */\n      dup3\n        /* \"#utility.yul\":8073:8077   */\n      0x20\n        /* \"#utility.yul\":8065:8071   */\n      dup7\n        /* \"#utility.yul\":8061:8078   */\n      add\n        /* \"#utility.yul\":8014:8092   */\n      tag_126\n      jump\t// in\n    tag_235:\n        /* \"#utility.yul\":8005:8092   */\n      swap2\n      pop\n        /* \"#utility.yul\":7821:8098   */\n      pop\n        /* \"#utility.yul\":7760:8098   */\n      swap3\n      swap2\n      pop\n      pop\n      jump\t// out\n        /* \"#utility.yul\":8104:9047   */\n    tag_46:\n        /* \"#utility.yul\":8199:8205   */\n      0x00\n        /* \"#utility.yul\":8207:8213   */\n      dup1\n        /* \"#utility.yul\":8215:8221   */\n      0x00\n        /* \"#utility.yul\":8223:8229   */\n      dup1\n        /* \"#utility.yul\":8272:8275   */\n      0x80\n        /* \"#utility.yul\":8260:8269   */\n      dup6\n        /* \"#utility.yul\":8251:8258   */\n      dup8\n        /* \"#utility.yul\":8247:8270   */\n      sub\n        /* \"#utility.yul\":8243:8276   */\n      slt\n        /* \"#utility.yul\":8240:8360   */\n      iszero\n      tag_237\n      jumpi\n        /* \"#utility.yul\":8279:8358   */\n      tag_238\n      tag_96\n      jump\t// in\n    tag_238:\n        /* \"#utility.yul\":8240:8360   */\n    tag_237:\n        /* \"#utility.yul\":8399:8400   */\n      0x00\n        /* \"#utility.yul\":8424:8477   */\n      tag_239\n        /* \"#utility.yul\":8469:8476   */\n      dup8\n        /* \"#utility.yul\":8460:8466   */\n      dup3\n        /* \"#utility.yul\":8449:8458   */\n      dup9\n        /* \"#utility.yul\":8445:8467   */\n      add\n        /* \"#utility.yul\":8424:8477   */\n      tag_100\n      jump\t// in\n    tag_239:\n        /* \"#utility.yul\":8414:8477   */\n      swap5\n      pop\n        /* \"#utility.yul\":8370:8487   */\n      pop\n        /* \"#utility.yul\":8526:8528   */\n      0x20\n        /* \"#utility.yul\":8552:8605   */\n      tag_240\n        /* \"#utility.yul\":8597:8604   */\n      dup8\n        /* \"#utility.yul\":8588:8594   */\n      dup3\n        /* \"#utility.yul\":8577:8586   */\n      dup9\n        /* \"#utility.yul\":8573:8595   */\n      add\n        /* \"#utility.yul\":8552:8605   */\n      tag_100\n      jump\t// in\n    tag_240:\n        /* \"#utility.yul\":8542:8605   */\n      swap4\n      pop\n        /* \"#utility.yul\":8497:8615   */\n      pop\n        /* \"#utility.yul\":8654:8656   */\n      0x40\n        /* \"#utility.yul\":8680:8733   */\n      tag_241\n        /* \"#utility.yul\":8725:8732   */\n      dup8\n        /* \"#utility.yul\":8716:8722   */\n      dup3\n        /* \"#utility.yul\":8705:8714   */\n      dup9\n        /* \"#utility.yul\":8701:8723   */\n      add\n        /* \"#utility.yul\":8680:8733   */\n      tag_100\n      jump\t// in\n    tag_241:\n        /* \"#utility.yul\":8670:8733   */\n      swap3\n      pop\n        /* \"#utility.yul\":8625:8743   */\n      pop\n        /* \"#utility.yul\":8810:8812   */\n      0x60\n        /* \"#utility.yul\":8799:8808   */\n      dup6\n        /* \"#utility.yul\":8795:8813   */\n      add\n        /* \"#utility.yul\":8782:8814   */\n      calldataload\n        /* \"#utility.yul\":8841:8859   */\n      0xffffffffffffffff\n        /* \"#utility.yul\":8833:8839   */\n      dup2\n        /* \"#utility.yul\":8830:8860   */\n      gt\n        /* \"#utility.yul\":8827:8944   */\n      iszero\n      tag_242\n      jumpi\n        /* \"#utility.yul\":8863:8942   */\n      tag_243\n      tag_97\n      jump\t// in\n    tag_243:\n        /* \"#utility.yul\":8827:8944   */\n    tag_242:\n        /* \"#utility.yul\":8968:9030   */\n      tag_244\n        /* \"#utility.yul\":9022:9029   */\n      dup8\n        /* \"#utility.yul\":9013:9019   */\n      dup3\n        /* \"#utility.yul\":9002:9011   */\n      dup9\n        /* \"#utility.yul\":8998:9020   */\n      add\n        /* \"#utility.yul\":8968:9030   */\n      tag_127\n      jump\t// in\n    tag_244:\n        /* \"#utility.yul\":8958:9030   */\n      swap2\n      pop\n        /* \"#utility.yul\":8753:9040   */\n      pop\n        /* \"#utility.yul\":8104:9047   */\n      swap3\n      swap6\n      swap2\n      swap5\n      pop\n      swap3\n      pop\n      jump\t// out\n        /* \"#utility.yul\":9053:9160   */\n    tag_128:\n        /* \"#utility.yul\":9134:9135   */\n      0x06\n        /* \"#utility.yul\":9127:9132   */\n      dup2\n        /* \"#utility.yul\":9124:9136   */\n      lt\n        /* \"#utility.yul\":9114:9154   */\n      tag_246\n      jumpi\n        /* \"#utility.yul\":9150:9151   */\n      0x00\n        /* \"#utility.yul\":9147:9148   */\n      dup1\n        /* \"#utility.yul\":9140:9152   */\n      revert\n        /* \"#utility.yul\":9114:9154   */\n    tag_246:\n        /* \"#utility.yul\":9053:9160   */\n      pop\n      jump\t// out\n        /* \"#utility.yul\":9166:9321   */\n    tag_129:\n        /* \"#utility.yul\":9220:9225   */\n      0x00\n        /* \"#utility.yul\":9258:9264   */\n      dup2\n        /* \"#utility.yul\":9245:9265   */\n      calldataload\n        /* \"#utility.yul\":9236:9265   */\n      swap1\n      pop\n        /* \"#utility.yul\":9274:9315   */\n      tag_248\n        /* \"#utility.yul\":9309:9314   */\n      dup2\n        /* \"#utility.yul\":9274:9315   */\n      tag_128\n      jump\t// in\n    tag_248:\n        /* \"#utility.yul\":9166:9321   */\n      swap3\n      swap2\n      pop\n      pop\n      jump\t// out\n        /* \"#utility.yul\":9327:9845   */\n    tag_51:\n        /* \"#utility.yul\":9417:9423   */\n      0x00\n        /* \"#utility.yul\":9425:9431   */\n      dup1\n        /* \"#utility.yul\":9474:9476   */\n      0x40\n        /* \"#utility.yul\":9462:9471   */\n      dup4\n        /* \"#utility.yul\":9453:9460   */\n      dup6\n        /* \"#utility.yul\":9449:9472   */\n      sub\n        /* \"#utility.yul\":9445:9477   */\n      slt\n        /* \"#utility.yul\":9442:9561   */\n      iszero\n      tag_250\n      jumpi\n        /* \"#utility.yul\":9480:9559   */\n      tag_251\n      tag_96\n      jump\t// in\n    tag_251:\n        /* \"#utility.yul\":9442:9561   */\n    tag_250:\n        /* \"#utility.yul\":9600:9601   */\n      0x00\n        /* \"#utility.yul\":9625:9692   */\n      tag_252\n        /* \"#utility.yul\":9684:9691   */\n      dup6\n        /* \"#utility.yul\":9675:9681   */\n      dup3\n        /* \"#utility.yul\":9664:9673   */\n      dup7\n        /* \"#utility.yul\":9660:9682   */\n      add\n        /* \"#utility.yul\":9625:9692   */\n      tag_106\n      jump\t// in\n    tag_252:\n        /* \"#utility.yul\":9615:9692   */\n      swap3\n      pop\n        /* \"#utility.yul\":9571:9702   */\n      pop\n        /* \"#utility.yul\":9741:9743   */\n      0x20\n        /* \"#utility.yul\":9767:9828   */\n      tag_253\n        /* \"#utility.yul\":9820:9827   */\n      dup6\n        /* \"#utility.yul\":9811:9817   */\n      dup3\n        /* \"#utility.yul\":9800:9809   */\n      dup7\n        /* \"#utility.yul\":9796:9818   */\n      add\n        /* \"#utility.yul\":9767:9828   */\n      tag_129\n      jump\t// in\n    tag_253:\n        /* \"#utility.yul\":9757:9828   */\n      swap2\n      pop\n        /* \"#utility.yul\":9712:9838   */\n      pop\n        /* \"#utility.yul\":9327:9845   */\n      swap3\n      pop\n      swap3\n      swap1\n      pop\n      jump\t// out\n        /* \"#utility.yul\":9851:9967   */\n    tag_130:\n        /* \"#utility.yul\":9921:9942   */\n      tag_255\n        /* \"#utility.yul\":9936:9941   */\n      dup2\n        /* \"#utility.yul\":9921:9942   */\n      tag_116\n      jump\t// in\n    tag_255:\n        /* \"#utility.yul\":9914:9919   */\n      dup2\n        /* \"#utility.yul\":9911:9943   */\n      eq\n        /* \"#utility.yul\":9901:9961   */\n      tag_256\n      jumpi\n        /* \"#utility.yul\":9957:9958   */\n      0x00\n        /* \"#utility.yul\":9954:9955   */\n      dup1\n        /* \"#utility.yul\":9947:9959   */\n      revert\n        /* \"#utility.yul\":9901:9961   */\n    tag_256:\n        /* \"#utility.yul\":9851:9967   */\n      pop\n      jump\t// out\n        /* \"#utility.yul\":9973:10110   */\n    tag_131:\n        /* \"#utility.yul\":10027:10032   */\n      0x00\n        /* \"#utility.yul\":10058:10064   */\n      dup2\n        /* \"#utility.yul\":10052:10065   */\n      mload\n        /* \"#utility.yul\":10043:10065   */\n      swap1\n      pop\n        /* \"#utility.yul\":10074:10104   */\n      tag_258\n        /* \"#utility.yul\":10098:10103   */\n      dup2\n        /* \"#utility.yul\":10074:10104   */\n      tag_130\n      jump\t// in\n    tag_258:\n        /* \"#utility.yul\":9973:10110   */\n      swap3\n      swap2\n      pop\n      pop\n      jump\t// out\n        /* \"#utility.yul\":10116:10461   */\n    tag_61:\n        /* \"#utility.yul\":10183:10189   */\n      0x00\n        /* \"#utility.yul\":10232:10234   */\n      0x20\n        /* \"#utility.yul\":10220:10229   */\n      dup3\n        /* \"#utility.yul\":10211:10218   */\n      dup5\n        /* \"#utility.yul\":10207:10230   */\n      sub\n        /* \"#utility.yul\":10203:10235   */\n      slt\n        /* \"#utility.yul\":10200:10319   */\n      iszero\n      tag_260\n      jumpi\n        /* \"#utility.yul\":10238:10317   */\n      tag_261\n      tag_96\n      jump\t// in\n    tag_261:\n        /* \"#utility.yul\":10200:10319   */\n    tag_260:\n        /* \"#utility.yul\":10358:10359   */\n      0x00\n        /* \"#utility.yul\":10383:10444   */\n      tag_262\n        /* \"#utility.yul\":10436:10443   */\n      dup5\n        /* \"#utility.yul\":10427:10433   */\n      dup3\n        /* \"#utility.yul\":10416:10425   */\n      dup6\n        /* \"#utility.yul\":10412:10434   */\n      add\n        /* \"#utility.yul\":10383:10444   */\n      tag_131\n      jump\t// in\n    tag_262:\n        /* \"#utility.yul\":10373:10444   */\n      swap2\n      pop\n        /* \"#utility.yul\":10329:10454   */\n      pop\n        /* \"#utility.yul\":10116:10461   */\n      swap3\n      swap2\n      pop\n      pop\n      jump\t// out\n        /* \"#utility.yul\":10467:10585   */\n    tag_132:\n        /* \"#utility.yul\":10554:10578   */\n      tag_264\n        /* \"#utility.yul\":10572:10577   */\n      dup2\n        /* \"#utility.yul\":10554:10578   */\n      tag_98\n      jump\t// in\n    tag_264:\n        /* \"#utility.yul\":10549:10552   */\n      dup3\n        /* \"#utility.yul\":10542:10579   */\n      mstore\n        /* \"#utility.yul\":10467:10585   */\n      pop\n      pop\n      jump\t// out\n        /* \"#utility.yul\":10591:10911   */\n    tag_70:\n        /* \"#utility.yul\":10706:10710   */\n      0x00\n        /* \"#utility.yul\":10744:10746   */\n      0x40\n        /* \"#utility.yul\":10733:10742   */\n      dup3\n        /* \"#utility.yul\":10729:10747   */\n      add\n        /* \"#utility.yul\":10721:10747   */\n      swap1\n      pop\n        /* \"#utility.yul\":10757:10822   */\n      tag_266\n        /* \"#utility.yul\":10819:10820   */\n      0x00\n        /* \"#utility.yul\":10808:10817   */\n      dup4\n        /* \"#utility.yul\":10804:10821   */\n      add\n        /* \"#utility.yul\":10795:10801   */\n      dup6\n        /* \"#utility.yul\":10757:10822   */\n      tag_117\n      jump\t// in\n    tag_266:\n        /* \"#utility.yul\":10832:10904   */\n      tag_267\n        /* \"#utility.yul\":10900:10902   */\n      0x20\n        /* \"#utility.yul\":10889:10898   */\n      dup4\n        /* \"#utility.yul\":10885:10903   */\n      add\n        /* \"#utility.yul\":10876:10882   */\n      dup5\n        /* \"#utility.yul\":10832:10904   */\n      tag_132\n      jump\t// in\n    tag_267:\n        /* \"#utility.yul\":10591:10911   */\n      swap4\n      swap3\n      pop\n      pop\n      pop\n      jump\t// out\n        /* \"#utility.yul\":10917:11097   */\n    tag_76:\n        /* \"#utility.yul\":10965:11042   */\n      0x4e487b7100000000000000000000000000000000000000000000000000000000\n        /* \"#utility.yul\":10962:10963   */\n      0x00\n        /* \"#utility.yul\":10955:11043   */\n      mstore\n        /* \"#utility.yul\":11062:11066   */\n      0x01\n        /* \"#utility.yul\":11059:11060   */\n      0x04\n        /* \"#utility.yul\":11052:11067   */\n      mstore\n        /* \"#utility.yul\":11086:11090   */\n      0x24\n        /* \"#utility.yul\":11083:11084   */\n      0x00\n        /* \"#utility.yul\":11076:11091   */\n      revert\n        /* \"#utility.yul\":11103:11201   */\n    tag_133:\n        /* \"#utility.yul\":11154:11160   */\n      0x00\n        /* \"#utility.yul\":11188:11193   */\n      dup2\n        /* \"#utility.yul\":11182:11194   */\n      mload\n        /* \"#utility.yul\":11172:11194   */\n      swap1\n      pop\n        /* \"#utility.yul\":11103:11201   */\n      swap2\n      swap1\n      pop\n      jump\t// out\n        /* \"#utility.yul\":11207:11375   */\n    tag_134:\n        /* \"#utility.yul\":11290:11301   */\n      0x00\n        /* \"#utility.yul\":11324:11330   */\n      dup3\n        /* \"#utility.yul\":11319:11322   */\n      dup3\n        /* \"#utility.yul\":11312:11331   */\n      mstore\n        /* \"#utility.yul\":11364:11368   */\n      0x20\n        /* \"#utility.yul\":11359:11362   */\n      dup3\n        /* \"#utility.yul\":11355:11369   */\n      add\n        /* \"#utility.yul\":11340:11369   */\n      swap1\n      pop\n        /* \"#utility.yul\":11207:11375   */\n      swap3\n      swap2\n      pop\n      pop\n      jump\t// out\n        /* \"#utility.yul\":11381:11627   */\n    tag_135:\n        /* \"#utility.yul\":11462:11463   */\n      0x00\n        /* \"#utility.yul\":11472:11585   */\n    tag_272:\n        /* \"#utility.yul\":11486:11492   */\n      dup4\n        /* \"#utility.yul\":11483:11484   */\n      dup2\n        /* \"#utility.yul\":11480:11493   */\n      lt\n        /* \"#utility.yul\":11472:11585   */\n      iszero\n      tag_274\n      jumpi\n        /* \"#utility.yul\":11571:11572   */\n      dup1\n        /* \"#utility.yul\":11566:11569   */\n      dup3\n        /* \"#utility.yul\":11562:11573   */\n      add\n        /* \"#utility.yul\":11556:11574   */\n      mload\n        /* \"#utility.yul\":11552:11553   */\n      dup2\n        /* \"#utility.yul\":11547:11550   */\n      dup5\n        /* \"#utility.yul\":11543:11554   */\n      add\n        /* \"#utility.yul\":11536:11575   */\n      mstore\n        /* \"#utility.yul\":11508:11510   */\n      0x20\n        /* \"#utility.yul\":11505:11506   */\n      dup2\n        /* \"#utility.yul\":11501:11511   */\n      add\n        /* \"#utility.yul\":11496:11511   */\n      swap1\n      pop\n        /* \"#utility.yul\":11472:11585   */\n      jump(tag_272)\n    tag_274:\n        /* \"#utility.yul\":11619:11620   */\n      0x00\n        /* \"#utility.yul\":11610:11616   */\n      dup5\n        /* \"#utility.yul\":11605:11608   */\n      dup5\n        /* \"#utility.yul\":11601:11617   */\n      add\n        /* \"#utility.yul\":11594:11621   */\n      mstore\n        /* \"#utility.yul\":11443:11627   */\n      pop\n        /* \"#utility.yul\":11381:11627   */\n      pop\n      pop\n      pop\n      jump\t// out\n        /* \"#utility.yul\":11633:12006   */\n    tag_136:\n        /* \"#utility.yul\":11719:11722   */\n      0x00\n        /* \"#utility.yul\":11747:11785   */\n      tag_276\n        /* \"#utility.yul\":11779:11784   */\n      dup3\n        /* \"#utility.yul\":11747:11785   */\n      tag_133\n      jump\t// in\n    tag_276:\n        /* \"#utility.yul\":11801:11871   */\n      tag_277\n        /* \"#utility.yul\":11864:11870   */\n      dup2\n        /* \"#utility.yul\":11859:11862   */\n      dup6\n        /* \"#utility.yul\":11801:11871   */\n      tag_134\n      jump\t// in\n    tag_277:\n        /* \"#utility.yul\":11794:11871   */\n      swap4\n      pop\n        /* \"#utility.yul\":11880:11945   */\n      tag_278\n        /* \"#utility.yul\":11938:11944   */\n      dup2\n        /* \"#utility.yul\":11933:11936   */\n      dup6\n        /* \"#utility.yul\":11926:11930   */\n      0x20\n        /* \"#utility.yul\":11919:11924   */\n      dup7\n        /* \"#utility.yul\":11915:11931   */\n      add\n        /* \"#utility.yul\":11880:11945   */\n      tag_135\n      jump\t// in\n    tag_278:\n        /* \"#utility.yul\":11970:11999   */\n      tag_279\n        /* \"#utility.yul\":11992:11998   */\n      dup2\n        /* \"#utility.yul\":11970:11999   */\n      tag_120\n      jump\t// in\n    tag_279:\n        /* \"#utility.yul\":11965:11968   */\n      dup5\n        /* \"#utility.yul\":11961:12000   */\n      add\n        /* \"#utility.yul\":11954:12000   */\n      swap2\n      pop\n        /* \"#utility.yul\":11723:12006   */\n      pop\n        /* \"#utility.yul\":11633:12006   */\n      swap3\n      swap2\n      pop\n      pop\n      jump\t// out\n        /* \"#utility.yul\":12012:12652   */\n    tag_80:\n        /* \"#utility.yul\":12207:12211   */\n      0x00\n        /* \"#utility.yul\":12245:12248   */\n      0x80\n        /* \"#utility.yul\":12234:12243   */\n      dup3\n        /* \"#utility.yul\":12230:12249   */\n      add\n        /* \"#utility.yul\":12222:12249   */\n      swap1\n      pop\n        /* \"#utility.yul\":12259:12330   */\n      tag_281\n        /* \"#utility.yul\":12327:12328   */\n      0x00\n        /* \"#utility.yul\":12316:12325   */\n      dup4\n        /* \"#utility.yul\":12312:12329   */\n      add\n        /* \"#utility.yul\":12303:12309   */\n      dup8\n        /* \"#utility.yul\":12259:12330   */\n      tag_132\n      jump\t// in\n    tag_281:\n        /* \"#utility.yul\":12340:12412   */\n      tag_282\n        /* \"#utility.yul\":12408:12410   */\n      0x20\n        /* \"#utility.yul\":12397:12406   */\n      dup4\n        /* \"#utility.yul\":12393:12411   */\n      add\n        /* \"#utility.yul\":12384:12390   */\n      dup7\n        /* \"#utility.yul\":12340:12412   */\n      tag_132\n      jump\t// in\n    tag_282:\n        /* \"#utility.yul\":12422:12494   */\n      tag_283\n        /* \"#utility.yul\":12490:12492   */\n      0x40\n        /* \"#utility.yul\":12479:12488   */\n      dup4\n        /* \"#utility.yul\":12475:12493   */\n      add\n        /* \"#utility.yul\":12466:12472   */\n      dup6\n        /* \"#utility.yul\":12422:12494   */\n      tag_132\n      jump\t// in\n    tag_283:\n        /* \"#utility.yul\":12541:12550   */\n      dup2\n        /* \"#utility.yul\":12535:12539   */\n      dup2\n        /* \"#utility.yul\":12531:12551   */\n      sub\n        /* \"#utility.yul\":12526:12528   */\n      0x60\n        /* \"#utility.yul\":12515:12524   */\n      dup4\n        /* \"#utility.yul\":12511:12529   */\n      add\n        /* \"#utility.yul\":12504:12552   */\n      mstore\n        /* \"#utility.yul\":12569:12645   */\n      tag_284\n        /* \"#utility.yul\":12640:12644   */\n      dup2\n        /* \"#utility.yul\":12631:12637   */\n      dup5\n        /* \"#utility.yul\":12569:12645   */\n      tag_136\n      jump\t// in\n    tag_284:\n        /* \"#utility.yul\":12561:12645   */\n      swap1\n      pop\n        /* \"#utility.yul\":12012:12652   */\n      swap6\n      swap5\n      pop\n      pop\n      pop\n      pop\n      pop\n      jump\t// out\n        /* \"#utility.yul\":12658:12838   */\n    tag_94:\n        /* \"#utility.yul\":12706:12783   */\n      0x4e487b7100000000000000000000000000000000000000000000000000000000\n        /* \"#utility.yul\":12703:12704   */\n      0x00\n        /* \"#utility.yul\":12696:12784   */\n      mstore\n        /* \"#utility.yul\":12803:12807   */\n      0x21\n        /* \"#utility.yul\":12800:12801   */\n      0x04\n        /* \"#utility.yul\":12793:12808   */\n      mstore\n        /* \"#utility.yul\":12827:12831   */\n      0x24\n        /* \"#utility.yul\":12824:12825   */\n      0x00\n        /* \"#utility.yul\":12817:12832   */\n      revert\n        /* \"#utility.yul\":12844:12957   */\n    tag_137:\n        /* \"#utility.yul\":12925:12926   */\n      0x06\n        /* \"#utility.yul\":12918:12923   */\n      dup2\n        /* \"#utility.yul\":12915:12927   */\n      lt\n        /* \"#utility.yul\":12905:12951   */\n      tag_287\n      jumpi\n        /* \"#utility.yul\":12931:12949   */\n      tag_288\n      tag_94\n      jump\t// in\n    tag_288:\n        /* \"#utility.yul\":12905:12951   */\n    tag_287:\n        /* \"#utility.yul\":12844:12957   */\n      pop\n      jump\t// out\n        /* \"#utility.yul\":12963:13090   */\n    tag_138:\n        /* \"#utility.yul\":13008:13015   */\n      0x00\n        /* \"#utility.yul\":13037:13042   */\n      dup2\n        /* \"#utility.yul\":13026:13042   */\n      swap1\n      pop\n        /* \"#utility.yul\":13043:13084   */\n      tag_290\n        /* \"#utility.yul\":13078:13083   */\n      dup3\n        /* \"#utility.yul\":13043:13084   */\n      tag_137\n      jump\t// in\n    tag_290:\n        /* \"#utility.yul\":12963:13090   */\n      swap2\n      swap1\n      pop\n      jump\t// out\n        /* \"#utility.yul\":13096:13223   */\n    tag_139:\n        /* \"#utility.yul\":13152:13161   */\n      0x00\n        /* \"#utility.yul\":13185:13217   */\n      tag_292\n        /* \"#utility.yul\":13211:13216   */\n      dup3\n        /* \"#utility.yul\":13185:13217   */\n      tag_138\n      jump\t// in\n    tag_292:\n        /* \"#utility.yul\":13172:13217   */\n      swap1\n      pop\n        /* \"#utility.yul\":13096:13223   */\n      swap2\n      swap1\n      pop\n      jump\t// out\n        /* \"#utility.yul\":13229:13372   */\n    tag_140:\n        /* \"#utility.yul\":13322:13365   */\n      tag_294\n        /* \"#utility.yul\":13359:13364   */\n      dup2\n        /* \"#utility.yul\":13322:13365   */\n      tag_139\n      jump\t// in\n    tag_294:\n        /* \"#utility.yul\":13317:13320   */\n      dup3\n        /* \"#utility.yul\":13310:13366   */\n      mstore\n        /* \"#utility.yul\":13229:13372   */\n      pop\n      pop\n      jump\t// out\n        /* \"#utility.yul\":13378:13612   */\n    tag_88:\n        /* \"#utility.yul\":13477:13481   */\n      0x00\n        /* \"#utility.yul\":13515:13517   */\n      0x20\n        /* \"#utility.yul\":13504:13513   */\n      dup3\n        /* \"#utility.yul\":13500:13518   */\n      add\n        /* \"#utility.yul\":13492:13518   */\n      swap1\n      pop\n        /* \"#utility.yul\":13528:13605   */\n      tag_296\n        /* \"#utility.yul\":13602:13603   */\n      0x00\n        /* \"#utility.yul\":13591:13600   */\n      dup4\n        /* \"#utility.yul\":13587:13604   */\n      add\n        /* \"#utility.yul\":13578:13584   */\n      dup5\n        /* \"#utility.yul\":13528:13605   */\n      tag_140\n      jump\t// in\n    tag_296:\n        /* \"#utility.yul\":13378:13612   */\n      swap3\n      swap2\n      pop\n      pop\n      jump\t// out\n    stop\n\n    sub_0: assembly {\n            /* \"Project Module 2/Credit.sol\":108:5751  contract Credit is Ownable {... */\n          mstore(0x40, 0x80)\n            /* \"Project Module 2/Credit.sol\":493:497  true */\n          0x01\n            /* \"Project Module 2/Credit.sol\":479:497  bool active = true */\n          0x0c\n          exp(0x0100, 0x00)\n          dup2\n          sload\n          dup2\n          0xff\n          mul\n          not\n          and\n          swap1\n          dup4\n          iszero\n          iszero\n          mul\n          or\n          swap1\n          sstore\n          pop\n            /* \"Project Module 2/Credit.sol\":526:527  0 */\n          0x00\n            /* \"Project Module 2/Credit.sol\":503:527  uint256 lendersCount = 0 */\n          0x0d\n          sstore\n            /* \"Project Module 2/Credit.sol\":555:556  0 */\n          0x00\n            /* \"Project Module 2/Credit.sol\":533:556  uint256 revokeVotes = 0 */\n          0x0e\n          sstore\n            /* \"Project Module 2/Credit.sol\":607:616  1 seconds */\n          0x01\n            /* \"Project Module 2/Credit.sol\":589:604  block.timestamp */\n          timestamp\n            /* \"Project Module 2/Credit.sol\":589:616  block.timestamp + 1 seconds */\n          tag_1\n          swap2\n          swap1\n          tag_2\n          jump\t// in\n        tag_1:\n            /* \"Project Module 2/Credit.sol\":562:616  uint256 revokeTimeNeeded = block.timestamp + 1 seconds */\n          0x0f\n          sstore\n            /* \"Project Module 2/Credit.sol\":643:644  0 */\n          0x00\n            /* \"Project Module 2/Credit.sol\":622:644  uint256 fraudVotes = 0 */\n          0x10\n          sstore\n            /* \"Project Module 2/Credit.sol\":3619:4249  constructor(... */\n          callvalue\n          dup1\n          iszero\n          tag_3\n          jumpi\n          0x00\n          dup1\n          revert\n        tag_3:\n          pop\n          mload(0x40)\n          sub(codesize, bytecodeSize)\n          dup1\n          bytecodeSize\n          dup4\n          codecopy\n          dup2\n          dup2\n          add\n          0x40\n          mstore\n          dup2\n          add\n          swap1\n          tag_4\n          swap2\n          swap1\n          tag_5\n          jump\t// in\n        tag_4:\n            /* \"Project Module 2/Ownable.sol\":334:344  msg.sender */\n          caller\n            /* \"Project Module 2/Ownable.sol\":326:331  owner */\n          0x00\n          dup1\n            /* \"Project Module 2/Ownable.sol\":326:344  owner = msg.sender */\n          0x0100\n          exp\n          dup2\n          sload\n          dup2\n          0xffffffffffffffffffffffffffffffffffffffff\n          mul\n          not\n          and\n          swap1\n          dup4\n          0xffffffffffffffffffffffffffffffffffffffff\n          and\n          mul\n          or\n          swap1\n          sstore\n          pop\n            /* \"Project Module 2/Credit.sol\":3792:3801  tx.origin */\n          origin\n            /* \"Project Module 2/Credit.sol\":3781:3789  borrower */\n          0x01\n          0x00\n            /* \"Project Module 2/Credit.sol\":3781:3801  borrower = tx.origin */\n          0x0100\n          exp\n          dup2\n          sload\n          dup2\n          0xffffffffffffffffffffffffffffffffffffffff\n          mul\n          not\n          and\n          swap1\n          dup4\n          0xffffffffffffffffffffffffffffffffffffffff\n          and\n          mul\n          or\n          swap1\n          sstore\n          pop\n            /* \"Project Module 2/Credit.sol\":3822:3831  _interest */\n          dup2\n            /* \"Project Module 2/Credit.sol\":3811:3819  interest */\n          0x05\n            /* \"Project Module 2/Credit.sol\":3811:3831  interest = _interest */\n          dup2\n          swap1\n          sstore\n          pop\n            /* \"Project Module 2/Credit.sol\":3859:3875  _requestedAmount */\n          dup4\n            /* \"Project Module 2/Credit.sol\":3841:3856  requestedAmount */\n          0x02\n            /* \"Project Module 2/Credit.sol\":3841:3875  requestedAmount = _requestedAmount */\n          dup2\n          swap1\n          sstore\n          pop\n            /* \"Project Module 2/Credit.sol\":3907:3927  _requestedRepayments */\n          dup3\n            /* \"Project Module 2/Credit.sol\":3885:3904  requestedRepayments */\n          0x06\n            /* \"Project Module 2/Credit.sol\":3885:3927  requestedRepayments = _requestedRepayments */\n          dup2\n          swap1\n          sstore\n          pop\n            /* \"Project Module 2/Credit.sol\":3959:3979  _requestedRepayments */\n          dup3\n            /* \"Project Module 2/Credit.sol\":3937:3956  remainingRepayments */\n          0x07\n            /* \"Project Module 2/Credit.sol\":3937:3979  remainingRepayments = _requestedRepayments */\n          dup2\n          swap1\n          sstore\n          pop\n            /* \"Project Module 2/Credit.sol\":4004:4033  requestedAmount.add(interest) */\n          tag_10\n            /* \"Project Module 2/Credit.sol\":4024:4032  interest */\n          sload(0x05)\n            /* \"Project Module 2/Credit.sol\":4004:4019  requestedAmount */\n          sload(0x02)\n            /* \"Project Module 2/Credit.sol\":4004:4023  requestedAmount.add */\n          or(tag_0_36, shl(0x20, tag_11))\n          swap1\n            /* \"Project Module 2/Credit.sol\":4004:4033  requestedAmount.add(interest) */\n          swap2\n          swap1\n          0x20\n          shr\n          jump\t// in\n        tag_10:\n            /* \"Project Module 2/Credit.sol\":3989:4001  returnAmount */\n          0x03\n            /* \"Project Module 2/Credit.sol\":3989:4033  returnAmount = requestedAmount.add(interest) */\n          dup2\n          swap1\n          sstore\n          pop\n            /* \"Project Module 2/Credit.sol\":4066:4103  returnAmount.div(requestedRepayments) */\n          tag_12\n            /* \"Project Module 2/Credit.sol\":4083:4102  requestedRepayments */\n          sload(0x06)\n            /* \"Project Module 2/Credit.sol\":4066:4078  returnAmount */\n          sload(0x03)\n            /* \"Project Module 2/Credit.sol\":4066:4082  returnAmount.div */\n          or(tag_0_37, shl(0x20, tag_13))\n          swap1\n            /* \"Project Module 2/Credit.sol\":4066:4103  returnAmount.div(requestedRepayments) */\n          swap2\n          swap1\n          0x20\n          shr\n          jump\t// in\n        tag_12:\n            /* \"Project Module 2/Credit.sol\":4043:4063  repaymentInstallment */\n          0x08\n            /* \"Project Module 2/Credit.sol\":4043:4103  repaymentInstallment = returnAmount.div(requestedRepayments) */\n          dup2\n          swap1\n          sstore\n          pop\n            /* \"Project Module 2/Credit.sol\":4127:4139  _description */\n          dup1\n            /* \"Project Module 2/Credit.sol\":4113:4124  description */\n          0x0b\n            /* \"Project Module 2/Credit.sol\":4113:4139  description = _description */\n          swap1\n          dup2\n          tag_14\n          swap2\n          swap1\n          tag_15\n          jump\t// in\n        tag_14:\n          pop\n            /* \"Project Module 2/Credit.sol\":4165:4180  block.timestamp */\n          timestamp\n            /* \"Project Module 2/Credit.sol\":4149:4162  requestedDate */\n          0x09\n            /* \"Project Module 2/Credit.sol\":4149:4180  requestedDate = block.timestamp */\n          dup2\n          swap1\n          sstore\n          pop\n            /* \"Project Module 2/Credit.sol\":4226:4241  block.timestamp */\n          timestamp\n            /* \"Project Module 2/Credit.sol\":4216:4224  borrower */\n          0x01\n          0x00\n          swap1\n          sload\n          swap1\n          0x0100\n          exp\n          swap1\n          div\n          0xffffffffffffffffffffffffffffffffffffffff\n          and\n            /* \"Project Module 2/Credit.sol\":4195:4242  LogCreditInitialized(borrower, block.timestamp) */\n          0xffffffffffffffffffffffffffffffffffffffff\n          and\n          0xf9f75c99c0e3522cd19ffc66fd6c94989a3f0821d37d5c5bb176aab904c6335d\n          mload(0x40)\n          mload(0x40)\n          dup1\n          swap2\n          sub\n          swap1\n          log3\n            /* \"Project Module 2/Credit.sol\":3619:4249  constructor(... */\n          pop\n          pop\n          pop\n          pop\n            /* \"Project Module 2/Credit.sol\":108:5751  contract Credit is Ownable {... */\n          jump(tag_16)\n            /* \"Project Module 2/SafeMath.sol\":539:682  function add(uint256 a, uint256 b) internal pure returns (uint256) {... */\n        tag_11:\n            /* \"Project Module 2/SafeMath.sol\":597:604  uint256 */\n          0x00\n            /* \"Project Module 2/SafeMath.sol\":616:625  uint256 c */\n          dup1\n            /* \"Project Module 2/SafeMath.sol\":632:633  b */\n          dup3\n            /* \"Project Module 2/SafeMath.sol\":628:629  a */\n          dup5\n            /* \"Project Module 2/SafeMath.sol\":628:633  a + b */\n          tag_18\n          swap2\n          swap1\n          tag_2\n          jump\t// in\n        tag_18:\n            /* \"Project Module 2/SafeMath.sol\":616:633  uint256 c = a + b */\n          swap1\n          pop\n            /* \"Project Module 2/SafeMath.sol\":655:656  a */\n          dup4\n            /* \"Project Module 2/SafeMath.sol\":650:651  c */\n          dup2\n            /* \"Project Module 2/SafeMath.sol\":650:656  c >= a */\n          lt\n          iszero\n            /* \"Project Module 2/SafeMath.sol\":643:657  assert(c >= a) */\n          tag_19\n          jumpi\n          tag_20\n          tag_21\n          jump\t// in\n        tag_20:\n        tag_19:\n            /* \"Project Module 2/SafeMath.sol\":674:675  c */\n          dup1\n            /* \"Project Module 2/SafeMath.sol\":667:675  return c */\n          swap2\n          pop\n          pop\n            /* \"Project Module 2/SafeMath.sol\":539:682  function add(uint256 a, uint256 b) internal pure returns (uint256) {... */\n          swap3\n          swap2\n          pop\n          pop\n          jump\t// out\n            /* \"Project Module 2/SafeMath.sol\":288:407  function div(uint256 a, uint256 b) internal pure returns (uint256) {... */\n        tag_13:\n            /* \"Project Module 2/SafeMath.sol\":346:353  uint256 */\n          0x00\n            /* \"Project Module 2/SafeMath.sol\":365:374  uint256 c */\n          dup1\n            /* \"Project Module 2/SafeMath.sol\":381:382  b */\n          dup3\n            /* \"Project Module 2/SafeMath.sol\":377:378  a */\n          dup5\n            /* \"Project Module 2/SafeMath.sol\":377:382  a / b */\n          tag_23\n          swap2\n          swap1\n          tag_24\n          jump\t// in\n        tag_23:\n            /* \"Project Module 2/SafeMath.sol\":365:382  uint256 c = a / b */\n          swap1\n          pop\n            /* \"Project Module 2/SafeMath.sol\":399:400  c */\n          dup1\n            /* \"Project Module 2/SafeMath.sol\":392:400  return c */\n          swap2\n          pop\n          pop\n            /* \"Project Module 2/SafeMath.sol\":288:407  function div(uint256 a, uint256 b) internal pure returns (uint256) {... */\n          swap3\n          swap2\n          pop\n          pop\n          jump\t// out\n            /* \"#utility.yul\":7:84   */\n        tag_25:\n            /* \"#utility.yul\":44:51   */\n          0x00\n            /* \"#utility.yul\":73:78   */\n          dup2\n            /* \"#utility.yul\":62:78   */\n          swap1\n          pop\n            /* \"#utility.yul\":7:84   */\n          swap2\n          swap1\n          pop\n          jump\t// out\n            /* \"#utility.yul\":90:270   */\n        tag_26:\n            /* \"#utility.yul\":138:215   */\n          0x4e487b7100000000000000000000000000000000000000000000000000000000\n            /* \"#utility.yul\":135:136   */\n          0x00\n            /* \"#utility.yul\":128:216   */\n          mstore\n            /* \"#utility.yul\":235:239   */\n          0x11\n            /* \"#utility.yul\":232:233   */\n          0x04\n            /* \"#utility.yul\":225:240   */\n          mstore\n            /* \"#utility.yul\":259:263   */\n          0x24\n            /* \"#utility.yul\":256:257   */\n          0x00\n            /* \"#utility.yul\":249:264   */\n          revert\n            /* \"#utility.yul\":276:467   */\n        tag_2:\n            /* \"#utility.yul\":316:319   */\n          0x00\n            /* \"#utility.yul\":335:355   */\n          tag_65\n            /* \"#utility.yul\":353:354   */\n          dup3\n            /* \"#utility.yul\":335:355   */\n          tag_25\n          jump\t// in\n        tag_65:\n            /* \"#utility.yul\":330:355   */\n          swap2\n          pop\n            /* \"#utility.yul\":369:389   */\n          tag_66\n            /* \"#utility.yul\":387:388   */\n          dup4\n            /* \"#utility.yul\":369:389   */\n          tag_25\n          jump\t// in\n        tag_66:\n            /* \"#utility.yul\":364:389   */\n          swap3\n          pop\n            /* \"#utility.yul\":412:413   */\n          dup3\n            /* \"#utility.yul\":409:410   */\n          dup3\n            /* \"#utility.yul\":405:414   */\n          add\n            /* \"#utility.yul\":398:414   */\n          swap1\n          pop\n            /* \"#utility.yul\":433:436   */\n          dup1\n            /* \"#utility.yul\":430:431   */\n          dup3\n            /* \"#utility.yul\":427:437   */\n          gt\n            /* \"#utility.yul\":424:460   */\n          iszero\n          tag_67\n          jumpi\n            /* \"#utility.yul\":440:458   */\n          tag_68\n          tag_26\n          jump\t// in\n        tag_68:\n            /* \"#utility.yul\":424:460   */\n        tag_67:\n            /* \"#utility.yul\":276:467   */\n          swap3\n          swap2\n          pop\n          pop\n          jump\t// out\n            /* \"#utility.yul\":473:548   */\n        tag_27:\n            /* \"#utility.yul\":506:512   */\n          0x00\n            /* \"#utility.yul\":539:541   */\n          0x40\n            /* \"#utility.yul\":533:542   */\n          mload\n            /* \"#utility.yul\":523:542   */\n          swap1\n          pop\n            /* \"#utility.yul\":473:548   */\n          swap1\n          jump\t// out\n            /* \"#utility.yul\":554:671   */\n        tag_28:\n            /* \"#utility.yul\":663:664   */\n          0x00\n            /* \"#utility.yul\":660:661   */\n          dup1\n            /* \"#utility.yul\":653:665   */\n          revert\n            /* \"#utility.yul\":677:794   */\n        tag_29:\n            /* \"#utility.yul\":786:787   */\n          0x00\n            /* \"#utility.yul\":783:784   */\n          dup1\n            /* \"#utility.yul\":776:788   */\n          revert\n            /* \"#utility.yul\":800:922   */\n        tag_30:\n            /* \"#utility.yul\":873:897   */\n          tag_73\n            /* \"#utility.yul\":891:896   */\n          dup2\n            /* \"#utility.yul\":873:897   */\n          tag_25\n          jump\t// in\n        tag_73:\n            /* \"#utility.yul\":866:871   */\n          dup2\n            /* \"#utility.yul\":863:898   */\n          eq\n            /* \"#utility.yul\":853:916   */\n          tag_74\n          jumpi\n            /* \"#utility.yul\":912:913   */\n          0x00\n            /* \"#utility.yul\":909:910   */\n          dup1\n            /* \"#utility.yul\":902:914   */\n          revert\n            /* \"#utility.yul\":853:916   */\n        tag_74:\n            /* \"#utility.yul\":800:922   */\n          pop\n          jump\t// out\n            /* \"#utility.yul\":928:1071   */\n        tag_31:\n            /* \"#utility.yul\":985:990   */\n          0x00\n            /* \"#utility.yul\":1016:1022   */\n          dup2\n            /* \"#utility.yul\":1010:1023   */\n          mload\n            /* \"#utility.yul\":1001:1023   */\n          swap1\n          pop\n            /* \"#utility.yul\":1032:1065   */\n          tag_76\n            /* \"#utility.yul\":1059:1064   */\n          dup2\n            /* \"#utility.yul\":1032:1065   */\n          tag_30\n          jump\t// in\n        tag_76:\n            /* \"#utility.yul\":928:1071   */\n          swap3\n          swap2\n          pop\n          pop\n          jump\t// out\n            /* \"#utility.yul\":1077:1194   */\n        tag_32:\n            /* \"#utility.yul\":1186:1187   */\n          0x00\n            /* \"#utility.yul\":1183:1184   */\n          dup1\n            /* \"#utility.yul\":1176:1188   */\n          revert\n            /* \"#utility.yul\":1200:1317   */\n        tag_33:\n            /* \"#utility.yul\":1309:1310   */\n          0x00\n            /* \"#utility.yul\":1306:1307   */\n          dup1\n            /* \"#utility.yul\":1299:1311   */\n          revert\n            /* \"#utility.yul\":1323:1425   */\n        tag_34:\n            /* \"#utility.yul\":1364:1370   */\n          0x00\n            /* \"#utility.yul\":1415:1417   */\n          0x1f\n            /* \"#utility.yul\":1411:1418   */\n          not\n            /* \"#utility.yul\":1406:1408   */\n          0x1f\n            /* \"#utility.yul\":1399:1404   */\n          dup4\n            /* \"#utility.yul\":1395:1409   */\n          add\n            /* \"#utility.yul\":1391:1419   */\n          and\n            /* \"#utility.yul\":1381:1419   */\n          swap1\n          pop\n            /* \"#utility.yul\":1323:1425   */\n          swap2\n          swap1\n          pop\n          jump\t// out\n            /* \"#utility.yul\":1431:1611   */\n        tag_35:\n            /* \"#utility.yul\":1479:1556   */\n          0x4e487b7100000000000000000000000000000000000000000000000000000000\n            /* \"#utility.yul\":1476:1477   */\n          0x00\n            /* \"#utility.yul\":1469:1557   */\n          mstore\n            /* \"#utility.yul\":1576:1580   */\n          0x41\n            /* \"#utility.yul\":1573:1574   */\n          0x04\n            /* \"#utility.yul\":1566:1581   */\n          mstore\n            /* \"#utility.yul\":1600:1604   */\n          0x24\n            /* \"#utility.yul\":1597:1598   */\n          0x00\n            /* \"#utility.yul\":1590:1605   */\n          revert\n            /* \"#utility.yul\":1617:1898   */\n        tag_36:\n            /* \"#utility.yul\":1700:1727   */\n          tag_82\n            /* \"#utility.yul\":1722:1726   */\n          dup3\n            /* \"#utility.yul\":1700:1727   */\n          tag_34\n          jump\t// in\n        tag_82:\n            /* \"#utility.yul\":1692:1698   */\n          dup2\n            /* \"#utility.yul\":1688:1728   */\n          add\n            /* \"#utility.yul\":1830:1836   */\n          dup2\n            /* \"#utility.yul\":1818:1828   */\n          dup2\n            /* \"#utility.yul\":1815:1837   */\n          lt\n            /* \"#utility.yul\":1794:1812   */\n          0xffffffffffffffff\n            /* \"#utility.yul\":1782:1792   */\n          dup3\n            /* \"#utility.yul\":1779:1813   */\n          gt\n            /* \"#utility.yul\":1776:1838   */\n          or\n            /* \"#utility.yul\":1773:1861   */\n          iszero\n          tag_83\n          jumpi\n            /* \"#utility.yul\":1841:1859   */\n          tag_84\n          tag_35\n          jump\t// in\n        tag_84:\n            /* \"#utility.yul\":1773:1861   */\n        tag_83:\n            /* \"#utility.yul\":1881:1891   */\n          dup1\n            /* \"#utility.yul\":1877:1879   */\n          0x40\n            /* \"#utility.yul\":1870:1892   */\n          mstore\n            /* \"#utility.yul\":1660:1898   */\n          pop\n            /* \"#utility.yul\":1617:1898   */\n          pop\n          pop\n          jump\t// out\n            /* \"#utility.yul\":1904:2033   */\n        tag_37:\n            /* \"#utility.yul\":1938:1944   */\n          0x00\n            /* \"#utility.yul\":1965:1985   */\n          tag_86\n          tag_27\n          jump\t// in\n        tag_86:\n            /* \"#utility.yul\":1955:1985   */\n          swap1\n          pop\n            /* \"#utility.yul\":1994:2027   */\n          tag_87\n            /* \"#utility.yul\":2022:2026   */\n          dup3\n            /* \"#utility.yul\":2014:2020   */\n          dup3\n            /* \"#utility.yul\":1994:2027   */\n          tag_36\n          jump\t// in\n        tag_87:\n            /* \"#utility.yul\":1904:2033   */\n          swap2\n          swap1\n          pop\n          jump\t// out\n            /* \"#utility.yul\":2039:2346   */\n        tag_38:\n            /* \"#utility.yul\":2100:2104   */\n          0x00\n            /* \"#utility.yul\":2190:2208   */\n          0xffffffffffffffff\n            /* \"#utility.yul\":2182:2188   */\n          dup3\n            /* \"#utility.yul\":2179:2209   */\n          gt\n            /* \"#utility.yul\":2176:2232   */\n          iszero\n          tag_89\n          jumpi\n            /* \"#utility.yul\":2212:2230   */\n          tag_90\n          tag_35\n          jump\t// in\n        tag_90:\n            /* \"#utility.yul\":2176:2232   */\n        tag_89:\n            /* \"#utility.yul\":2250:2279   */\n          tag_91\n            /* \"#utility.yul\":2272:2278   */\n          dup3\n            /* \"#utility.yul\":2250:2279   */\n          tag_34\n          jump\t// in\n        tag_91:\n            /* \"#utility.yul\":2242:2279   */\n          swap1\n          pop\n            /* \"#utility.yul\":2334:2338   */\n          0x20\n            /* \"#utility.yul\":2328:2332   */\n          dup2\n            /* \"#utility.yul\":2324:2339   */\n          add\n            /* \"#utility.yul\":2316:2339   */\n          swap1\n          pop\n            /* \"#utility.yul\":2039:2346   */\n          swap2\n          swap1\n          pop\n          jump\t// out\n            /* \"#utility.yul\":2352:2598   */\n        tag_39:\n            /* \"#utility.yul\":2433:2434   */\n          0x00\n            /* \"#utility.yul\":2443:2556   */\n        tag_93:\n            /* \"#utility.yul\":2457:2463   */\n          dup4\n            /* \"#utility.yul\":2454:2455   */\n          dup2\n            /* \"#utility.yul\":2451:2464   */\n          lt\n            /* \"#utility.yul\":2443:2556   */\n          iszero\n          tag_95\n          jumpi\n            /* \"#utility.yul\":2542:2543   */\n          dup1\n            /* \"#utility.yul\":2537:2540   */\n          dup3\n            /* \"#utility.yul\":2533:2544   */\n          add\n            /* \"#utility.yul\":2527:2545   */\n          mload\n            /* \"#utility.yul\":2523:2524   */\n          dup2\n            /* \"#utility.yul\":2518:2521   */\n          dup5\n            /* \"#utility.yul\":2514:2525   */\n          add\n            /* \"#utility.yul\":2507:2546   */\n          mstore\n            /* \"#utility.yul\":2479:2481   */\n          0x20\n            /* \"#utility.yul\":2476:2477   */\n          dup2\n            /* \"#utility.yul\":2472:2482   */\n          add\n            /* \"#utility.yul\":2467:2482   */\n          swap1\n          pop\n            /* \"#utility.yul\":2443:2556   */\n          jump(tag_93)\n        tag_95:\n            /* \"#utility.yul\":2590:2591   */\n          0x00\n            /* \"#utility.yul\":2581:2587   */\n          dup5\n            /* \"#utility.yul\":2576:2579   */\n          dup5\n            /* \"#utility.yul\":2572:2588   */\n          add\n            /* \"#utility.yul\":2565:2592   */\n          mstore\n            /* \"#utility.yul\":2414:2598   */\n          pop\n            /* \"#utility.yul\":2352:2598   */\n          pop\n          pop\n          pop\n          jump\t// out\n            /* \"#utility.yul\":2604:3036   */\n        tag_40:\n            /* \"#utility.yul\":2692:2697   */\n          0x00\n            /* \"#utility.yul\":2717:2782   */\n          tag_97\n            /* \"#utility.yul\":2733:2781   */\n          tag_98\n            /* \"#utility.yul\":2774:2780   */\n          dup5\n            /* \"#utility.yul\":2733:2781   */\n          tag_38\n          jump\t// in\n        tag_98:\n            /* \"#utility.yul\":2717:2782   */\n          tag_37\n          jump\t// in\n        tag_97:\n            /* \"#utility.yul\":2708:2782   */\n          swap1\n          pop\n            /* \"#utility.yul\":2805:2811   */\n          dup3\n            /* \"#utility.yul\":2798:2803   */\n          dup2\n            /* \"#utility.yul\":2791:2812   */\n          mstore\n            /* \"#utility.yul\":2843:2847   */\n          0x20\n            /* \"#utility.yul\":2836:2841   */\n          dup2\n            /* \"#utility.yul\":2832:2848   */\n          add\n            /* \"#utility.yul\":2881:2884   */\n          dup5\n            /* \"#utility.yul\":2872:2878   */\n          dup5\n            /* \"#utility.yul\":2867:2870   */\n          dup5\n            /* \"#utility.yul\":2863:2879   */\n          add\n            /* \"#utility.yul\":2860:2885   */\n          gt\n            /* \"#utility.yul\":2857:2969   */\n          iszero\n          tag_99\n          jumpi\n            /* \"#utility.yul\":2888:2967   */\n          tag_100\n          tag_33\n          jump\t// in\n        tag_100:\n            /* \"#utility.yul\":2857:2969   */\n        tag_99:\n            /* \"#utility.yul\":2978:3030   */\n          tag_101\n            /* \"#utility.yul\":3023:3029   */\n          dup5\n            /* \"#utility.yul\":3018:3021   */\n          dup3\n            /* \"#utility.yul\":3013:3016   */\n          dup6\n            /* \"#utility.yul\":2978:3030   */\n          tag_39\n          jump\t// in\n        tag_101:\n            /* \"#utility.yul\":2698:3036   */\n          pop\n            /* \"#utility.yul\":2604:3036   */\n          swap4\n          swap3\n          pop\n          pop\n          pop\n          jump\t// out\n            /* \"#utility.yul\":3055:3408   */\n        tag_41:\n            /* \"#utility.yul\":3121:3126   */\n          0x00\n            /* \"#utility.yul\":3170:3173   */\n          dup3\n            /* \"#utility.yul\":3163:3167   */\n          0x1f\n            /* \"#utility.yul\":3155:3161   */\n          dup4\n            /* \"#utility.yul\":3151:3168   */\n          add\n            /* \"#utility.yul\":3147:3174   */\n          slt\n            /* \"#utility.yul\":3137:3259   */\n          tag_103\n          jumpi\n            /* \"#utility.yul\":3178:3257   */\n          tag_104\n          tag_32\n          jump\t// in\n        tag_104:\n            /* \"#utility.yul\":3137:3259   */\n        tag_103:\n            /* \"#utility.yul\":3288:3294   */\n          dup2\n            /* \"#utility.yul\":3282:3295   */\n          mload\n            /* \"#utility.yul\":3313:3402   */\n          tag_105\n            /* \"#utility.yul\":3398:3401   */\n          dup5\n            /* \"#utility.yul\":3390:3396   */\n          dup3\n            /* \"#utility.yul\":3383:3387   */\n          0x20\n            /* \"#utility.yul\":3375:3381   */\n          dup7\n            /* \"#utility.yul\":3371:3388   */\n          add\n            /* \"#utility.yul\":3313:3402   */\n          tag_40\n          jump\t// in\n        tag_105:\n            /* \"#utility.yul\":3304:3402   */\n          swap2\n          pop\n            /* \"#utility.yul\":3127:3408   */\n          pop\n            /* \"#utility.yul\":3055:3408   */\n          swap3\n          swap2\n          pop\n          pop\n          jump\t// out\n            /* \"#utility.yul\":3414:4405   */\n        tag_5:\n            /* \"#utility.yul\":3520:3526   */\n          0x00\n            /* \"#utility.yul\":3528:3534   */\n          dup1\n            /* \"#utility.yul\":3536:3542   */\n          0x00\n            /* \"#utility.yul\":3544:3550   */\n          dup1\n            /* \"#utility.yul\":3593:3596   */\n          0x80\n            /* \"#utility.yul\":3581:3590   */\n          dup6\n            /* \"#utility.yul\":3572:3579   */\n          dup8\n            /* \"#utility.yul\":3568:3591   */\n          sub\n            /* \"#utility.yul\":3564:3597   */\n          slt\n            /* \"#utility.yul\":3561:3681   */\n          iszero\n          tag_107\n          jumpi\n            /* \"#utility.yul\":3600:3679   */\n          tag_108\n          tag_28\n          jump\t// in\n        tag_108:\n            /* \"#utility.yul\":3561:3681   */\n        tag_107:\n            /* \"#utility.yul\":3720:3721   */\n          0x00\n            /* \"#utility.yul\":3745:3809   */\n          tag_109\n            /* \"#utility.yul\":3801:3808   */\n          dup8\n            /* \"#utility.yul\":3792:3798   */\n          dup3\n            /* \"#utility.yul\":3781:3790   */\n          dup9\n            /* \"#utility.yul\":3777:3799   */\n          add\n            /* \"#utility.yul\":3745:3809   */\n          tag_31\n          jump\t// in\n        tag_109:\n            /* \"#utility.yul\":3735:3809   */\n          swap5\n          pop\n            /* \"#utility.yul\":3691:3819   */\n          pop\n            /* \"#utility.yul\":3858:3860   */\n          0x20\n            /* \"#utility.yul\":3884:3948   */\n          tag_110\n            /* \"#utility.yul\":3940:3947   */\n          dup8\n            /* \"#utility.yul\":3931:3937   */\n          dup3\n            /* \"#utility.yul\":3920:3929   */\n          dup9\n            /* \"#utility.yul\":3916:3938   */\n          add\n            /* \"#utility.yul\":3884:3948   */\n          tag_31\n          jump\t// in\n        tag_110:\n            /* \"#utility.yul\":3874:3948   */\n          swap4\n          pop\n            /* \"#utility.yul\":3829:3958   */\n          pop\n            /* \"#utility.yul\":3997:3999   */\n          0x40\n            /* \"#utility.yul\":4023:4087   */\n          tag_111\n            /* \"#utility.yul\":4079:4086   */\n          dup8\n            /* \"#utility.yul\":4070:4076   */\n          dup3\n            /* \"#utility.yul\":4059:4068   */\n          dup9\n            /* \"#utility.yul\":4055:4077   */\n          add\n            /* \"#utility.yul\":4023:4087   */\n          tag_31\n          jump\t// in\n        tag_111:\n            /* \"#utility.yul\":4013:4087   */\n          swap3\n          pop\n            /* \"#utility.yul\":3968:4097   */\n          pop\n            /* \"#utility.yul\":4157:4159   */\n          0x60\n            /* \"#utility.yul\":4146:4155   */\n          dup6\n            /* \"#utility.yul\":4142:4160   */\n          add\n            /* \"#utility.yul\":4136:4161   */\n          mload\n            /* \"#utility.yul\":4188:4206   */\n          0xffffffffffffffff\n            /* \"#utility.yul\":4180:4186   */\n          dup2\n            /* \"#utility.yul\":4177:4207   */\n          gt\n            /* \"#utility.yul\":4174:4291   */\n          iszero\n          tag_112\n          jumpi\n            /* \"#utility.yul\":4210:4289   */\n          tag_113\n          tag_29\n          jump\t// in\n        tag_113:\n            /* \"#utility.yul\":4174:4291   */\n        tag_112:\n            /* \"#utility.yul\":4315:4388   */\n          tag_114\n            /* \"#utility.yul\":4380:4387   */\n          dup8\n            /* \"#utility.yul\":4371:4377   */\n          dup3\n            /* \"#utility.yul\":4360:4369   */\n          dup9\n            /* \"#utility.yul\":4356:4378   */\n          add\n            /* \"#utility.yul\":4315:4388   */\n          tag_41\n          jump\t// in\n        tag_114:\n            /* \"#utility.yul\":4305:4388   */\n          swap2\n          pop\n            /* \"#utility.yul\":4107:4398   */\n          pop\n            /* \"#utility.yul\":3414:4405   */\n          swap3\n          swap6\n          swap2\n          swap5\n          pop\n          swap3\n          pop\n          jump\t// out\n            /* \"#utility.yul\":4411:4509   */\n        tag_42:\n            /* \"#utility.yul\":4462:4468   */\n          0x00\n            /* \"#utility.yul\":4496:4501   */\n          dup2\n            /* \"#utility.yul\":4490:4502   */\n          mload\n            /* \"#utility.yul\":4480:4502   */\n          swap1\n          pop\n            /* \"#utility.yul\":4411:4509   */\n          swap2\n          swap1\n          pop\n          jump\t// out\n            /* \"#utility.yul\":4515:4695   */\n        tag_43:\n            /* \"#utility.yul\":4563:4640   */\n          0x4e487b7100000000000000000000000000000000000000000000000000000000\n            /* \"#utility.yul\":4560:4561   */\n          0x00\n            /* \"#utility.yul\":4553:4641   */\n          mstore\n            /* \"#utility.yul\":4660:4664   */\n          0x22\n            /* \"#utility.yul\":4657:4658   */\n          0x04\n            /* \"#utility.yul\":4650:4665   */\n          mstore\n            /* \"#utility.yul\":4684:4688   */\n          0x24\n            /* \"#utility.yul\":4681:4682   */\n          0x00\n            /* \"#utility.yul\":4674:4689   */\n          revert\n            /* \"#utility.yul\":4701:5021   */\n        tag_44:\n            /* \"#utility.yul\":4745:4751   */\n          0x00\n            /* \"#utility.yul\":4782:4783   */\n          0x02\n            /* \"#utility.yul\":4776:4780   */\n          dup3\n            /* \"#utility.yul\":4772:4784   */\n          div\n            /* \"#utility.yul\":4762:4784   */\n          swap1\n          pop\n            /* \"#utility.yul\":4829:4830   */\n          0x01\n            /* \"#utility.yul\":4823:4827   */\n          dup3\n            /* \"#utility.yul\":4819:4831   */\n          and\n            /* \"#utility.yul\":4850:4868   */\n          dup1\n            /* \"#utility.yul\":4840:4921   */\n          tag_118\n          jumpi\n            /* \"#utility.yul\":4906:4910   */\n          0x7f\n            /* \"#utility.yul\":4898:4904   */\n          dup3\n            /* \"#utility.yul\":4894:4911   */\n          and\n            /* \"#utility.yul\":4884:4911   */\n          swap2\n          pop\n            /* \"#utility.yul\":4840:4921   */\n        tag_118:\n            /* \"#utility.yul\":4968:4970   */\n          0x20\n            /* \"#utility.yul\":4960:4966   */\n          dup3\n            /* \"#utility.yul\":4957:4971   */\n          lt\n            /* \"#utility.yul\":4937:4955   */\n          dup2\n            /* \"#utility.yul\":4934:4972   */\n          sub\n            /* \"#utility.yul\":4931:5015   */\n          tag_119\n          jumpi\n            /* \"#utility.yul\":4987:5005   */\n          tag_120\n          tag_43\n          jump\t// in\n        tag_120:\n            /* \"#utility.yul\":4931:5015   */\n        tag_119:\n            /* \"#utility.yul\":4752:5021   */\n          pop\n            /* \"#utility.yul\":4701:5021   */\n          swap2\n          swap1\n          pop\n          jump\t// out\n            /* \"#utility.yul\":5027:5167   */\n        tag_45:\n            /* \"#utility.yul\":5075:5079   */\n          0x00\n            /* \"#utility.yul\":5098:5101   */\n          dup2\n            /* \"#utility.yul\":5090:5101   */\n          swap1\n          pop\n            /* \"#utility.yul\":5121:5124   */\n          dup2\n            /* \"#utility.yul\":5118:5119   */\n          0x00\n            /* \"#utility.yul\":5111:5125   */\n          mstore\n            /* \"#utility.yul\":5155:5159   */\n          0x20\n            /* \"#utility.yul\":5152:5153   */\n          0x00\n            /* \"#utility.yul\":5142:5160   */\n          keccak256\n            /* \"#utility.yul\":5134:5160   */\n          swap1\n          pop\n            /* \"#utility.yul\":5027:5167   */\n          swap2\n          swap1\n          pop\n          jump\t// out\n            /* \"#utility.yul\":5173:5266   */\n        tag_46:\n            /* \"#utility.yul\":5210:5216   */\n          0x00\n            /* \"#utility.yul\":5257:5259   */\n          0x20\n            /* \"#utility.yul\":5252:5254   */\n          0x1f\n            /* \"#utility.yul\":5245:5250   */\n          dup4\n            /* \"#utility.yul\":5241:5255   */\n          add\n            /* \"#utility.yul\":5237:5260   */\n          div\n            /* \"#utility.yul\":5227:5260   */\n          swap1\n          pop\n            /* \"#utility.yul\":5173:5266   */\n          swap2\n          swap1\n          pop\n          jump\t// out\n            /* \"#utility.yul\":5272:5379   */\n        tag_47:\n            /* \"#utility.yul\":5316:5324   */\n          0x00\n            /* \"#utility.yul\":5366:5371   */\n          dup3\n            /* \"#utility.yul\":5360:5364   */\n          dup3\n            /* \"#utility.yul\":5356:5372   */\n          shl\n            /* \"#utility.yul\":5335:5372   */\n          swap1\n          pop\n            /* \"#utility.yul\":5272:5379   */\n          swap3\n          swap2\n          pop\n          pop\n          jump\t// out\n            /* \"#utility.yul\":5385:5778   */\n        tag_48:\n            /* \"#utility.yul\":5454:5460   */\n          0x00\n            /* \"#utility.yul\":5504:5505   */\n          0x08\n            /* \"#utility.yul\":5492:5502   */\n          dup4\n            /* \"#utility.yul\":5488:5506   */\n          mul\n            /* \"#utility.yul\":5527:5624   */\n          tag_125\n            /* \"#utility.yul\":5557:5623   */\n          0xffffffffffffffffffffffffffffffffffffffffffffffffffffffffffffffff\n            /* \"#utility.yul\":5546:5555   */\n          dup3\n            /* \"#utility.yul\":5527:5624   */\n          tag_47\n          jump\t// in\n        tag_125:\n            /* \"#utility.yul\":5645:5684   */\n          tag_126\n            /* \"#utility.yul\":5675:5683   */\n          dup7\n            /* \"#utility.yul\":5664:5673   */\n          dup4\n            /* \"#utility.yul\":5645:5684   */\n          tag_47\n          jump\t// in\n        tag_126:\n            /* \"#utility.yul\":5633:5684   */\n          swap6\n          pop\n            /* \"#utility.yul\":5717:5721   */\n          dup1\n            /* \"#utility.yul\":5713:5722   */\n          not\n            /* \"#utility.yul\":5706:5711   */\n          dup5\n            /* \"#utility.yul\":5702:5723   */\n          and\n            /* \"#utility.yul\":5693:5723   */\n          swap4\n          pop\n            /* \"#utility.yul\":5766:5770   */\n          dup1\n            /* \"#utility.yul\":5756:5764   */\n          dup7\n            /* \"#utility.yul\":5752:5771   */\n          and\n            /* \"#utility.yul\":5745:5750   */\n          dup5\n            /* \"#utility.yul\":5742:5772   */\n          or\n            /* \"#utility.yul\":5732:5772   */\n          swap3\n          pop\n            /* \"#utility.yul\":5461:5778   */\n          pop\n          pop\n            /* \"#utility.yul\":5385:5778   */\n          swap4\n          swap3\n          pop\n          pop\n          pop\n          jump\t// out\n            /* \"#utility.yul\":5784:5844   */\n        tag_49:\n            /* \"#utility.yul\":5812:5815   */\n          0x00\n            /* \"#utility.yul\":5833:5838   */\n          dup2\n            /* \"#utility.yul\":5826:5838   */\n          swap1\n          pop\n            /* \"#utility.yul\":5784:5844   */\n          swap2\n          swap1\n          pop\n          jump\t// out\n            /* \"#utility.yul\":5850:5992   */\n        tag_50:\n            /* \"#utility.yul\":5900:5909   */\n          0x00\n            /* \"#utility.yul\":5933:5986   */\n          tag_129\n            /* \"#utility.yul\":5951:5985   */\n          tag_130\n            /* \"#utility.yul\":5960:5984   */\n          tag_131\n            /* \"#utility.yul\":5978:5983   */\n          dup5\n            /* \"#utility.yul\":5960:5984   */\n          tag_25\n          jump\t// in\n        tag_131:\n            /* \"#utility.yul\":5951:5985   */\n          tag_49\n          jump\t// in\n        tag_130:\n            /* \"#utility.yul\":5933:5986   */\n          tag_25\n          jump\t// in\n        tag_129:\n            /* \"#utility.yul\":5920:5986   */\n          swap1\n          pop\n            /* \"#utility.yul\":5850:5992   */\n          swap2\n          swap1\n          pop\n          jump\t// out\n            /* \"#utility.yul\":5998:6073   */\n        tag_51:\n            /* \"#utility.yul\":6041:6044   */\n          0x00\n            /* \"#utility.yul\":6062:6067   */\n          dup2\n            /* \"#utility.yul\":6055:6067   */\n          swap1\n          pop\n            /* \"#utility.yul\":5998:6073   */\n          swap2\n          swap1\n          pop\n          jump\t// out\n            /* \"#utility.yul\":6079:6348   */\n        tag_52:\n            /* \"#utility.yul\":6189:6228   */\n          tag_134\n            /* \"#utility.yul\":6220:6227   */\n          dup4\n            /* \"#utility.yul\":6189:6228   */\n          tag_50\n          jump\t// in\n        tag_134:\n            /* \"#utility.yul\":6250:6341   */\n          tag_135\n            /* \"#utility.yul\":6299:6340   */\n          tag_136\n            /* \"#utility.yul\":6323:6339   */\n          dup3\n            /* \"#utility.yul\":6299:6340   */\n          tag_51\n          jump\t// in\n        tag_136:\n            /* \"#utility.yul\":6291:6297   */\n          dup5\n            /* \"#utility.yul\":6284:6288   */\n          dup5\n            /* \"#utility.yul\":6278:6289   */\n          sload\n            /* \"#utility.yul\":6250:6341   */\n          tag_48\n          jump\t// in\n        tag_135:\n            /* \"#utility.yul\":6244:6248   */\n          dup3\n            /* \"#utility.yul\":6237:6342   */\n          sstore\n            /* \"#utility.yul\":6155:6348   */\n          pop\n            /* \"#utility.yul\":6079:6348   */\n          pop\n          pop\n          pop\n          jump\t// out\n            /* \"#utility.yul\":6354:6427   */\n        tag_53:\n            /* \"#utility.yul\":6399:6402   */\n          0x00\n            /* \"#utility.yul\":6354:6427   */\n          swap1\n          jump\t// out\n            /* \"#utility.yul\":6433:6622   */\n        tag_54:\n            /* \"#utility.yul\":6510:6542   */\n          tag_139\n          tag_53\n          jump\t// in\n        tag_139:\n            /* \"#utility.yul\":6551:6616   */\n          tag_140\n            /* \"#utility.yul\":6609:6615   */\n          dup2\n            /* \"#utility.yul\":6601:6607   */\n          dup5\n            /* \"#utility.yul\":6595:6599   */\n          dup5\n            /* \"#utility.yul\":6551:6616   */\n          tag_52\n          jump\t// in\n        tag_140:\n            /* \"#utility.yul\":6486:6622   */\n          pop\n            /* \"#utility.yul\":6433:6622   */\n          pop\n          pop\n          jump\t// out\n            /* \"#utility.yul\":6628:6814   */\n        tag_55:\n            /* \"#utility.yul\":6688:6808   */\n        tag_142:\n            /* \"#utility.yul\":6705:6708   */\n          dup2\n            /* \"#utility.yul\":6698:6703   */\n          dup2\n            /* \"#utility.yul\":6695:6709   */\n          lt\n            /* \"#utility.yul\":6688:6808   */\n          iszero\n          tag_144\n          jumpi\n            /* \"#utility.yul\":6759:6798   */\n          tag_145\n            /* \"#utility.yul\":6796:6797   */\n          0x00\n            /* \"#utility.yul\":6789:6794   */\n          dup3\n            /* \"#utility.yul\":6759:6798   */\n          tag_54\n          jump\t// in\n        tag_145:\n            /* \"#utility.yul\":6732:6733   */\n          0x01\n            /* \"#utility.yul\":6725:6730   */\n          dup2\n            /* \"#utility.yul\":6721:6734   */\n          add\n            /* \"#utility.yul\":6712:6734   */\n          swap1\n          pop\n            /* \"#utility.yul\":6688:6808   */\n          jump(tag_142)\n        tag_144:\n            /* \"#utility.yul\":6628:6814   */\n          pop\n          pop\n          jump\t// out\n            /* \"#utility.yul\":6820:7361   */\n        tag_56:\n            /* \"#utility.yul\":6920:6922   */\n          0x1f\n            /* \"#utility.yul\":6915:6918   */\n          dup3\n            /* \"#utility.yul\":6912:6923   */\n          gt\n            /* \"#utility.yul\":6909:7354   */\n          iszero\n          tag_147\n          jumpi\n            /* \"#utility.yul\":6954:6991   */\n          tag_148\n            /* \"#utility.yul\":6985:6990   */\n          dup2\n            /* \"#utility.yul\":6954:6991   */\n          tag_45\n          jump\t// in\n        tag_148:\n            /* \"#utility.yul\":7037:7066   */\n          tag_149\n            /* \"#utility.yul\":7055:7065   */\n          dup5\n            /* \"#utility.yul\":7037:7066   */\n          tag_46\n          jump\t// in\n        tag_149:\n            /* \"#utility.yul\":7027:7035   */\n          dup2\n            /* \"#utility.yul\":7023:7067   */\n          add\n            /* \"#utility.yul\":7220:7222   */\n          0x20\n            /* \"#utility.yul\":7208:7218   */\n          dup6\n            /* \"#utility.yul\":7205:7223   */\n          lt\n            /* \"#utility.yul\":7202:7251   */\n          iszero\n          tag_150\n          jumpi\n            /* \"#utility.yul\":7241:7249   */\n          dup2\n            /* \"#utility.yul\":7226:7249   */\n          swap1\n          pop\n            /* \"#utility.yul\":7202:7251   */\n        tag_150:\n            /* \"#utility.yul\":7264:7344   */\n          tag_151\n            /* \"#utility.yul\":7320:7342   */\n          tag_152\n            /* \"#utility.yul\":7338:7341   */\n          dup6\n            /* \"#utility.yul\":7320:7342   */\n          tag_46\n          jump\t// in\n        tag_152:\n            /* \"#utility.yul\":7310:7318   */\n          dup4\n            /* \"#utility.yul\":7306:7343   */\n          add\n            /* \"#utility.yul\":7293:7304   */\n          dup3\n            /* \"#utility.yul\":7264:7344   */\n          tag_55\n          jump\t// in\n        tag_151:\n            /* \"#utility.yul\":6924:7354   */\n          pop\n          pop\n            /* \"#utility.yul\":6909:7354   */\n        tag_147:\n            /* \"#utility.yul\":6820:7361   */\n          pop\n          pop\n          pop\n          jump\t// out\n            /* \"#utility.yul\":7367:7484   */\n        tag_57:\n            /* \"#utility.yul\":7421:7429   */\n          0x00\n            /* \"#utility.yul\":7471:7476   */\n          dup3\n            /* \"#utility.yul\":7465:7469   */\n          dup3\n            /* \"#utility.yul\":7461:7477   */\n          shr\n            /* \"#utility.yul\":7440:7477   */\n          swap1\n          pop\n            /* \"#utility.yul\":7367:7484   */\n          swap3\n          swap2\n          pop\n          pop\n          jump\t// out\n            /* \"#utility.yul\":7490:7659   */\n        tag_58:\n            /* \"#utility.yul\":7534:7540   */\n          0x00\n            /* \"#utility.yul\":7567:7618   */\n          tag_155\n            /* \"#utility.yul\":7615:7616   */\n          0x00\n            /* \"#utility.yul\":7611:7617   */\n          not\n            /* \"#utility.yul\":7603:7608   */\n          dup5\n            /* \"#utility.yul\":7600:7601   */\n          0x08\n            /* \"#utility.yul\":7596:7609   */\n          mul\n            /* \"#utility.yul\":7567:7618   */\n          tag_57\n          jump\t// in\n        tag_155:\n            /* \"#utility.yul\":7563:7619   */\n          not\n            /* \"#utility.yul\":7648:7652   */\n          dup1\n            /* \"#utility.yul\":7642:7646   */\n          dup4\n            /* \"#utility.yul\":7638:7653   */\n          and\n            /* \"#utility.yul\":7628:7653   */\n          swap2\n          pop\n            /* \"#utility.yul\":7541:7659   */\n          pop\n            /* \"#utility.yul\":7490:7659   */\n          swap3\n          swap2\n          pop\n          pop\n          jump\t// out\n            /* \"#utility.yul\":7664:7959   */\n        tag_59:\n            /* \"#utility.yul\":7740:7744   */\n          0x00\n            /* \"#utility.yul\":7886:7915   */\n          tag_157\n            /* \"#utility.yul\":7911:7914   */\n          dup4\n            /* \"#utility.yul\":7905:7909   */\n          dup4\n            /* \"#utility.yul\":7886:7915   */\n          tag_58\n          jump\t// in\n        tag_157:\n            /* \"#utility.yul\":7878:7915   */\n          swap2\n          pop\n            /* \"#utility.yul\":7948:7951   */\n          dup3\n            /* \"#utility.yul\":7945:7946   */\n          0x02\n            /* \"#utility.yul\":7941:7952   */\n          mul\n            /* \"#utility.yul\":7935:7939   */\n          dup3\n            /* \"#utility.yul\":7932:7953   */\n          or\n            /* \"#utility.yul\":7924:7953   */\n          swap1\n          pop\n            /* \"#utility.yul\":7664:7959   */\n          swap3\n          swap2\n          pop\n          pop\n          jump\t// out\n            /* \"#utility.yul\":7964:9354   */\n        tag_15:\n            /* \"#utility.yul\":8079:8115   */\n          tag_159\n            /* \"#utility.yul\":8111:8114   */\n          dup3\n            /* \"#utility.yul\":8079:8115   */\n          tag_42\n          jump\t// in\n        tag_159:\n            /* \"#utility.yul\":8180:8198   */\n          0xffffffffffffffff\n            /* \"#utility.yul\":8172:8178   */\n          dup2\n            /* \"#utility.yul\":8169:8199   */\n          gt\n            /* \"#utility.yul\":8166:8222   */\n          iszero\n          tag_160\n          jumpi\n            /* \"#utility.yul\":8202:8220   */\n          tag_161\n          tag_35\n          jump\t// in\n        tag_161:\n            /* \"#utility.yul\":8166:8222   */\n        tag_160:\n            /* \"#utility.yul\":8246:8284   */\n          tag_162\n            /* \"#utility.yul\":8278:8282   */\n          dup3\n            /* \"#utility.yul\":8272:8283   */\n          sload\n            /* \"#utility.yul\":8246:8284   */\n          tag_44\n          jump\t// in\n        tag_162:\n            /* \"#utility.yul\":8331:8397   */\n          tag_163\n            /* \"#utility.yul\":8390:8396   */\n          dup3\n            /* \"#utility.yul\":8382:8388   */\n          dup3\n            /* \"#utility.yul\":8376:8380   */\n          dup6\n            /* \"#utility.yul\":8331:8397   */\n          tag_56\n          jump\t// in\n        tag_163:\n            /* \"#utility.yul\":8424:8425   */\n          0x00\n            /* \"#utility.yul\":8448:8452   */\n          0x20\n            /* \"#utility.yul\":8435:8452   */\n          swap1\n          pop\n            /* \"#utility.yul\":8480:8482   */\n          0x1f\n            /* \"#utility.yul\":8472:8478   */\n          dup4\n            /* \"#utility.yul\":8469:8483   */\n          gt\n            /* \"#utility.yul\":8497:8498   */\n          0x01\n            /* \"#utility.yul\":8492:9109   */\n          dup2\n          eq\n          tag_165\n          jumpi\n            /* \"#utility.yul\":9153:9154   */\n          0x00\n            /* \"#utility.yul\":9170:9176   */\n          dup5\n            /* \"#utility.yul\":9167:9244   */\n          iszero\n          tag_166\n          jumpi\n            /* \"#utility.yul\":9219:9228   */\n          dup3\n            /* \"#utility.yul\":9214:9217   */\n          dup8\n            /* \"#utility.yul\":9210:9229   */\n          add\n            /* \"#utility.yul\":9204:9230   */\n          mload\n            /* \"#utility.yul\":9195:9230   */\n          swap1\n          pop\n            /* \"#utility.yul\":9167:9244   */\n        tag_166:\n            /* \"#utility.yul\":9270:9337   */\n          tag_167\n            /* \"#utility.yul\":9330:9336   */\n          dup6\n            /* \"#utility.yul\":9323:9328   */\n          dup3\n            /* \"#utility.yul\":9270:9337   */\n          tag_59\n          jump\t// in\n        tag_167:\n            /* \"#utility.yul\":9264:9268   */\n          dup7\n            /* \"#utility.yul\":9257:9338   */\n          sstore\n            /* \"#utility.yul\":9126:9348   */\n          pop\n            /* \"#utility.yul\":8462:9348   */\n          jump(tag_164)\n            /* \"#utility.yul\":8492:9109   */\n        tag_165:\n            /* \"#utility.yul\":8544:8548   */\n          0x1f\n            /* \"#utility.yul\":8540:8549   */\n          not\n            /* \"#utility.yul\":8532:8538   */\n          dup5\n            /* \"#utility.yul\":8528:8550   */\n          and\n            /* \"#utility.yul\":8578:8614   */\n          tag_168\n            /* \"#utility.yul\":8609:8613   */\n          dup7\n            /* \"#utility.yul\":8578:8614   */\n          tag_45\n          jump\t// in\n        tag_168:\n            /* \"#utility.yul\":8636:8637   */\n          0x00\n            /* \"#utility.yul\":8650:8858   */\n        tag_169:\n            /* \"#utility.yul\":8664:8671   */\n          dup3\n            /* \"#utility.yul\":8661:8662   */\n          dup2\n            /* \"#utility.yul\":8658:8672   */\n          lt\n            /* \"#utility.yul\":8650:8858   */\n          iszero\n          tag_171\n          jumpi\n            /* \"#utility.yul\":8743:8752   */\n          dup5\n            /* \"#utility.yul\":8738:8741   */\n          dup10\n            /* \"#utility.yul\":8734:8753   */\n          add\n            /* \"#utility.yul\":8728:8754   */\n          mload\n            /* \"#utility.yul\":8720:8726   */\n          dup3\n            /* \"#utility.yul\":8713:8755   */\n          sstore\n            /* \"#utility.yul\":8794:8795   */\n          0x01\n            /* \"#utility.yul\":8786:8792   */\n          dup3\n            /* \"#utility.yul\":8782:8796   */\n          add\n            /* \"#utility.yul\":8772:8796   */\n          swap2\n          pop\n            /* \"#utility.yul\":8841:8843   */\n          0x20\n            /* \"#utility.yul\":8830:8839   */\n          dup6\n            /* \"#utility.yul\":8826:8844   */\n          add\n            /* \"#utility.yul\":8813:8844   */\n          swap5\n          pop\n            /* \"#utility.yul\":8687:8691   */\n          0x20\n            /* \"#utility.yul\":8684:8685   */\n          dup2\n            /* \"#utility.yul\":8680:8692   */\n          add\n            /* \"#utility.yul\":8675:8692   */\n          swap1\n          pop\n            /* \"#utility.yul\":8650:8858   */\n          jump(tag_169)\n        tag_171:\n            /* \"#utility.yul\":8886:8892   */\n          dup7\n            /* \"#utility.yul\":8877:8884   */\n          dup4\n            /* \"#utility.yul\":8874:8893   */\n          lt\n            /* \"#utility.yul\":8871:9050   */\n          iszero\n          tag_172\n          jumpi\n            /* \"#utility.yul\":8944:8953   */\n          dup5\n            /* \"#utility.yul\":8939:8942   */\n          dup10\n            /* \"#utility.yul\":8935:8954   */\n          add\n            /* \"#utility.yul\":8929:8955   */\n          mload\n            /* \"#utility.yul\":8987:9035   */\n          tag_173\n            /* \"#utility.yul\":9029:9033   */\n          0x1f\n            /* \"#utility.yul\":9021:9027   */\n          dup10\n            /* \"#utility.yul\":9017:9034   */\n          and\n            /* \"#utility.yul\":9006:9015   */\n          dup3\n            /* \"#utility.yul\":8987:9035   */\n          tag_58\n          jump\t// in\n        tag_173:\n            /* \"#utility.yul\":8979:8985   */\n          dup4\n            /* \"#utility.yul\":8972:9036   */\n          sstore\n            /* \"#utility.yul\":8894:9050   */\n          pop\n            /* \"#utility.yul\":8871:9050   */\n        tag_172:\n            /* \"#utility.yul\":9096:9097   */\n          0x01\n            /* \"#utility.yul\":9092:9093   */\n          0x02\n            /* \"#utility.yul\":9084:9090   */\n          dup9\n            /* \"#utility.yul\":9080:9094   */\n          mul\n            /* \"#utility.yul\":9076:9098   */\n          add\n            /* \"#utility.yul\":9070:9074   */\n          dup9\n            /* \"#utility.yul\":9063:9099   */\n          sstore\n            /* \"#utility.yul\":8499:9109   */\n          pop\n          pop\n          pop\n            /* \"#utility.yul\":8462:9348   */\n        tag_164:\n          pop\n            /* \"#utility.yul\":8054:9354   */\n          pop\n          pop\n          pop\n            /* \"#utility.yul\":7964:9354   */\n          pop\n          pop\n          jump\t// out\n            /* \"#utility.yul\":9360:9540   */\n        tag_21:\n            /* \"#utility.yul\":9408:9485   */\n          0x4e487b7100000000000000000000000000000000000000000000000000000000\n            /* \"#utility.yul\":9405:9406   */\n          0x00\n            /* \"#utility.yul\":9398:9486   */\n          mstore\n            /* \"#utility.yul\":9505:9509   */\n          0x01\n            /* \"#utility.yul\":9502:9503   */\n          0x04\n            /* \"#utility.yul\":9495:9510   */\n          mstore\n            /* \"#utility.yul\":9529:9533   */\n          0x24\n            /* \"#utility.yul\":9526:9527   */\n          0x00\n            /* \"#utility.yul\":9519:9534   */\n          revert\n            /* \"#utility.yul\":9546:9726   */\n        tag_60:\n            /* \"#utility.yul\":9594:9671   */\n          0x4e487b7100000000000000000000000000000000000000000000000000000000\n            /* \"#utility.yul\":9591:9592   */\n          0x00\n            /* \"#utility.yul\":9584:9672   */\n          mstore\n            /* \"#utility.yul\":9691:9695   */\n          0x12\n            /* \"#utility.yul\":9688:9689   */\n          0x04\n            /* \"#utility.yul\":9681:9696   */\n          mstore\n            /* \"#utility.yul\":9715:9719   */\n          0x24\n            /* \"#utility.yul\":9712:9713   */\n          0x00\n            /* \"#utility.yul\":9705:9720   */\n          revert\n            /* \"#utility.yul\":9732:9917   */\n        tag_24:\n            /* \"#utility.yul\":9772:9773   */\n          0x00\n            /* \"#utility.yul\":9789:9809   */\n          tag_177\n            /* \"#utility.yul\":9807:9808   */\n          dup3\n            /* \"#utility.yul\":9789:9809   */\n          tag_25\n          jump\t// in\n        tag_177:\n            /* \"#utility.yul\":9784:9809   */\n          swap2\n          pop\n            /* \"#utility.yul\":9823:9843   */\n          tag_178\n            /* \"#utility.yul\":9841:9842   */\n          dup4\n            /* \"#utility.yul\":9823:9843   */\n          tag_25\n          jump\t// in\n        tag_178:\n            /* \"#utility.yul\":9818:9843   */\n          swap3\n          pop\n            /* \"#utility.yul\":9862:9863   */\n          dup3\n            /* \"#utility.yul\":9852:9887   */\n          tag_179\n          jumpi\n            /* \"#utility.yul\":9867:9885   */\n          tag_180\n          tag_60\n          jump\t// in\n        tag_180:\n            /* \"#utility.yul\":9852:9887   */\n        tag_179:\n            /* \"#utility.yul\":9909:9910   */\n          dup3\n            /* \"#utility.yul\":9906:9907   */\n          dup3\n            /* \"#utility.yul\":9902:9911   */\n          div\n            /* \"#utility.yul\":9897:9911   */\n          swap1\n          pop\n            /* \"#utility.yul\":9732:9917   */\n          swap3\n          swap2\n          pop\n          pop\n          jump\t// out\n            /* \"Project Module 2/Credit.sol\":108:5751  contract Credit is Ownable {... */\n        tag_16:\n          dataSize(sub_0)\n          dup1\n          dataOffset(sub_0)\n          0x00\n          codecopy\n          0x00\n          return\n        stop\n\n        sub_0: assembly {\n                /* \"Project Module 2/Credit.sol\":108:5751  contract Credit is Ownable {... */\n              mstore(0x40, 0x80)\n              jumpi(tag_1, lt(calldatasize, 0x04))\n              shr(0xe0, calldataload(0x00))\n              dup1\n              0x12065fe0\n              eq\n              tag_2\n              jumpi\n              dup1\n              0x268f1153\n              eq\n              tag_3\n              jumpi\n              dup1\n              0x28fd10d7\n              eq\n              tag_4\n              jumpi\n              dup1\n              0x29c68dc1\n              eq\n              tag_5\n              jumpi\n              dup1\n              0x8da5cb5b\n              eq\n              tag_6\n              jumpi\n              dup1\n              0xe8b5e51f\n              eq\n              tag_7\n              jumpi\n            tag_1:\n              0x00\n              dup1\n              revert\n                /* \"Project Module 2/Credit.sol\":4255:4352  function getBalance() public view returns (uint256) {... */\n            tag_2:\n              callvalue\n              dup1\n              iszero\n              tag_8\n              jumpi\n              0x00\n              dup1\n              revert\n            tag_8:\n              pop\n              tag_9\n              tag_10\n              jump\t// in\n            tag_9:\n              mload(0x40)\n              tag_11\n              swap2\n              swap1\n              tag_12\n              jump\t// in\n            tag_11:\n              mload(0x40)\n              dup1\n              swap2\n              sub\n              swap1\n              return\n                /* \"Project Module 2/Credit.sol\":4358:4503  function changeState(State _state) external onlyOwner {... */\n            tag_3:\n              callvalue\n              dup1\n              iszero\n              tag_13\n              jumpi\n              0x00\n              dup1\n              revert\n            tag_13:\n              pop\n              tag_14\n              0x04\n              dup1\n              calldatasize\n              sub\n              dup2\n              add\n              swap1\n              tag_15\n              swap2\n              swap1\n              tag_16\n              jump\t// in\n            tag_15:\n              tag_17\n              jump\t// in\n            tag_14:\n              stop\n                /* \"Project Module 2/Credit.sol\":650:689  mapping(address => bool) public lenders */\n            tag_4:\n              callvalue\n              dup1\n              iszero\n              tag_18\n              jumpi\n              0x00\n              dup1\n              revert\n            tag_18:\n              pop\n              tag_19\n              0x04\n              dup1\n              calldatasize\n              sub\n              dup2\n              add\n              swap1\n              tag_20\n              swap2\n              swap1\n              tag_21\n              jump\t// in\n            tag_20:\n              tag_22\n              jump\t// in\n            tag_19:\n              mload(0x40)\n              tag_23\n              swap2\n              swap1\n              tag_24\n              jump\t// in\n            tag_23:\n              mload(0x40)\n              dup1\n              swap2\n              sub\n              swap1\n              return\n                /* \"Project Module 2/Credit.sol\":4509:4690  function toggleActive() external onlyOwner returns (bool) {... */\n            tag_5:\n              callvalue\n              dup1\n              iszero\n              tag_25\n              jumpi\n              0x00\n              dup1\n              revert\n            tag_25:\n              pop\n              tag_26\n              tag_27\n              jump\t// in\n            tag_26:\n              mload(0x40)\n              tag_28\n              swap2\n              swap1\n              tag_24\n              jump\t// in\n            tag_28:\n              mload(0x40)\n              dup1\n              swap2\n              sub\n              swap1\n              return\n                /* \"Project Module 2/Ownable.sol\":81:101  address public owner */\n            tag_6:\n              callvalue\n              dup1\n              iszero\n              tag_29\n              jumpi\n              0x00\n              dup1\n              revert\n            tag_29:\n              pop\n              tag_30\n              tag_31\n              jump\t// in\n            tag_30:\n              mload(0x40)\n              tag_32\n              swap2\n              swap1\n              tag_33\n              jump\t// in\n            tag_32:\n              mload(0x40)\n              dup1\n              swap2\n              sub\n              swap1\n              return\n                /* \"Project Module 2/Credit.sol\":4696:5749  function invest() public payable canInvest {... */\n            tag_7:\n              tag_34\n              tag_35\n              jump\t// in\n            tag_34:\n              stop\n                /* \"Project Module 2/Credit.sol\":4255:4352  function getBalance() public view returns (uint256) {... */\n            tag_10:\n                /* \"Project Module 2/Credit.sol\":4298:4305  uint256 */\n              0x00\n                /* \"Project Module 2/Credit.sol\":4324:4345  address(this).balance */\n              selfbalance\n                /* \"Project Module 2/Credit.sol\":4317:4345  return address(this).balance */\n              swap1\n              pop\n                /* \"Project Module 2/Credit.sol\":4255:4352  function getBalance() public view returns (uint256) {... */\n              swap1\n              jump\t// out\n                /* \"Project Module 2/Credit.sol\":4358:4503  function changeState(State _state) external onlyOwner {... */\n            tag_17:\n                /* \"Project Module 2/Ownable.sol\":274:279  owner */\n              0x00\n              dup1\n              sload\n              swap1\n              0x0100\n              exp\n              swap1\n              div\n              0xffffffffffffffffffffffffffffffffffffffff\n              and\n                /* \"Project Module 2/Ownable.sol\":260:279  msg.sender == owner */\n              0xffffffffffffffffffffffffffffffffffffffff\n              and\n                /* \"Project Module 2/Ownable.sol\":260:270  msg.sender */\n              caller\n                /* \"Project Module 2/Ownable.sol\":260:279  msg.sender == owner */\n              0xffffffffffffffffffffffffffffffffffffffff\n              and\n              eq\n                /* \"Project Module 2/Ownable.sol\":252:280  require(msg.sender == owner) */\n              tag_40\n              jumpi\n              0x00\n              dup1\n              revert\n            tag_40:\n                /* \"Project Module 2/Credit.sol\":4430:4436  _state */\n              dup1\n                /* \"Project Module 2/Credit.sol\":4422:4427  state */\n              0x15\n              0x00\n                /* \"Project Module 2/Credit.sol\":4422:4436  state = _state */\n              0x0100\n              exp\n              dup2\n              sload\n              dup2\n              0xff\n              mul\n              not\n              and\n              swap1\n              dup4\n              0x05\n              dup2\n              gt\n              iszero\n              tag_42\n              jumpi\n              tag_43\n              tag_44\n              jump\t// in\n            tag_43:\n            tag_42:\n              mul\n              or\n              swap1\n              sstore\n              pop\n                /* \"Project Module 2/Credit.sol\":4480:4495  block.timestamp */\n              timestamp\n                /* \"Project Module 2/Credit.sol\":4473:4478  state */\n              0x15\n              0x00\n              swap1\n              sload\n              swap1\n              0x0100\n              exp\n              swap1\n              div\n              0xff\n              and\n                /* \"Project Module 2/Credit.sol\":4451:4496  LogCreditStateChanged(state, block.timestamp) */\n              0x05\n              dup2\n              gt\n              iszero\n              tag_45\n              jumpi\n              tag_46\n              tag_44\n              jump\t// in\n            tag_46:\n            tag_45:\n              0xaaae373901e745122c2e0925ad006227969c6cd190b7d5ea2fb7fdbd1d955b35\n              mload(0x40)\n              mload(0x40)\n              dup1\n              swap2\n              sub\n              swap1\n              log3\n                /* \"Project Module 2/Credit.sol\":4358:4503  function changeState(State _state) external onlyOwner {... */\n              pop\n              jump\t// out\n                /* \"Project Module 2/Credit.sol\":650:689  mapping(address => bool) public lenders */\n            tag_22:\n              mstore(0x20, 0x11)\n              dup1\n              0x00\n              mstore\n              keccak256(0x00, 0x40)\n              0x00\n              swap2\n              pop\n              sload\n              swap1\n              0x0100\n              exp\n              swap1\n              div\n              0xff\n              and\n              dup2\n              jump\t// out\n                /* \"Project Module 2/Credit.sol\":4509:4690  function toggleActive() external onlyOwner returns (bool) {... */\n            tag_27:\n                /* \"Project Module 2/Credit.sol\":4561:4565  bool */\n              0x00\n                /* \"Project Module 2/Ownable.sol\":274:279  owner */\n              dup1\n              0x00\n              swap1\n              sload\n              swap1\n              0x0100\n              exp\n              swap1\n              div\n              0xffffffffffffffffffffffffffffffffffffffff\n              and\n                /* \"Project Module 2/Ownable.sol\":260:279  msg.sender == owner */\n              0xffffffffffffffffffffffffffffffffffffffff\n              and\n                /* \"Project Module 2/Ownable.sol\":260:270  msg.sender */\n              caller\n                /* \"Project Module 2/Ownable.sol\":260:279  msg.sender == owner */\n              0xffffffffffffffffffffffffffffffffffffffff\n              and\n              eq\n                /* \"Project Module 2/Ownable.sol\":252:280  require(msg.sender == owner) */\n              tag_48\n              jumpi\n              0x00\n              dup1\n              revert\n            tag_48:\n                /* \"Project Module 2/Credit.sol\":4587:4593  active */\n              0x0c\n              0x00\n              swap1\n              sload\n              swap1\n              0x0100\n              exp\n              swap1\n              div\n              0xff\n              and\n                /* \"Project Module 2/Credit.sol\":4586:4593  !active */\n              iszero\n                /* \"Project Module 2/Credit.sol\":4577:4583  active */\n              0x0c\n              0x00\n                /* \"Project Module 2/Credit.sol\":4577:4593  active = !active */\n              0x0100\n              exp\n              dup2\n              sload\n              dup2\n              0xff\n              mul\n              not\n              and\n              swap1\n              dup4\n              iszero\n              iszero\n              mul\n              or\n              swap1\n              sstore\n              pop\n                /* \"Project Module 2/Credit.sol\":4644:4659  block.timestamp */\n              timestamp\n                /* \"Project Module 2/Credit.sol\":4636:4642  active */\n              0x0c\n              0x00\n              swap1\n              sload\n              swap1\n              0x0100\n              exp\n              swap1\n              div\n              0xff\n              and\n                /* \"Project Module 2/Credit.sol\":4608:4660  LogCreditStateActiveChanged(active, block.timestamp) */\n              iszero\n              iszero\n              0x160914ea27c60aa29a5f3a69d74e6069869de36e38939de1e0a66b921d8623d2\n              mload(0x40)\n              mload(0x40)\n              dup1\n              swap2\n              sub\n              swap1\n              log3\n                /* \"Project Module 2/Credit.sol\":4677:4683  active */\n              0x0c\n              0x00\n              swap1\n              sload\n              swap1\n              0x0100\n              exp\n              swap1\n              div\n              0xff\n              and\n                /* \"Project Module 2/Credit.sol\":4670:4683  return active */\n              swap1\n              pop\n                /* \"Project Module 2/Credit.sol\":4509:4690  function toggleActive() external onlyOwner returns (bool) {... */\n              swap1\n              jump\t// out\n                /* \"Project Module 2/Ownable.sol\":81:101  address public owner */\n            tag_31:\n              0x00\n              dup1\n              sload\n              swap1\n              0x0100\n              exp\n              swap1\n              div\n              0xffffffffffffffffffffffffffffffffffffffff\n              and\n              dup2\n              jump\t// out\n                /* \"Project Module 2/Credit.sol\":4696:5749  function invest() public payable canInvest {... */\n            tag_35:\n                /* \"Project Module 2/Credit.sol\":3074:3090  State.investment */\n              0x00\n                /* \"Project Module 2/Credit.sol\":3065:3090  state == State.investment */\n              0x05\n              dup2\n              gt\n              iszero\n              tag_51\n              jumpi\n              tag_52\n              tag_44\n              jump\t// in\n            tag_52:\n            tag_51:\n                /* \"Project Module 2/Credit.sol\":3065:3070  state */\n              0x15\n              0x00\n              swap1\n              sload\n              swap1\n              0x0100\n              exp\n              swap1\n              div\n              0xff\n              and\n                /* \"Project Module 2/Credit.sol\":3065:3090  state == State.investment */\n              0x05\n              dup2\n              gt\n              iszero\n              tag_53\n              jumpi\n              tag_54\n              tag_44\n              jump\t// in\n            tag_54:\n            tag_53:\n              eq\n                /* \"Project Module 2/Credit.sol\":3057:3091  require(state == State.investment) */\n              tag_55\n              jumpi\n              0x00\n              dup1\n              revert\n            tag_55:\n                /* \"Project Module 2/Credit.sol\":4749:4767  uint256 extraMoney */\n              0x00\n                /* \"Project Module 2/Credit.sol\":4810:4825  requestedAmount */\n              sload(0x02)\n                /* \"Project Module 2/Credit.sol\":4785:4806  address(this).balance */\n              selfbalance\n                /* \"Project Module 2/Credit.sol\":4785:4825  address(this).balance >= requestedAmount */\n              lt\n                /* \"Project Module 2/Credit.sol\":4781:5734  if (address(this).balance >= requestedAmount) {... */\n              tag_57\n              jumpi\n                /* \"Project Module 2/Credit.sol\":4854:4896  address(this).balance.sub(requestedAmount) */\n              tag_58\n                /* \"Project Module 2/Credit.sol\":4880:4895  requestedAmount */\n              sload(0x02)\n                /* \"Project Module 2/Credit.sol\":4854:4875  address(this).balance */\n              selfbalance\n                /* \"Project Module 2/Credit.sol\":4854:4879  address(this).balance.sub */\n              tag_59\n              swap1\n                /* \"Project Module 2/Credit.sol\":4854:4896  address(this).balance.sub(requestedAmount) */\n              swap2\n              swap1\n              0xffffffff\n              and\n              jump\t// in\n            tag_58:\n                /* \"Project Module 2/Credit.sol\":4841:4896  extraMoney = address(this).balance.sub(requestedAmount) */\n              swap1\n              pop\n                /* \"Project Module 2/Credit.sol\":4910:4947  address(this).balance.sub(extraMoney) */\n              tag_60\n                /* \"Project Module 2/Credit.sol\":4936:4946  extraMoney */\n              dup2\n                /* \"Project Module 2/Credit.sol\":4910:4931  address(this).balance */\n              selfbalance\n                /* \"Project Module 2/Credit.sol\":4910:4935  address(this).balance.sub */\n              tag_59\n              swap1\n                /* \"Project Module 2/Credit.sol\":4910:4947  address(this).balance.sub(extraMoney) */\n              swap2\n              swap1\n              0xffffffff\n              and\n              jump\t// in\n            tag_60:\n              pop\n                /* \"Project Module 2/Credit.sol\":4982:4991  msg.value */\n              callvalue\n                /* \"Project Module 2/Credit.sol\":4968:4978  extraMoney */\n              dup2\n                /* \"Project Module 2/Credit.sol\":4968:4991  extraMoney <= msg.value */\n              gt\n              iszero\n                /* \"Project Module 2/Credit.sol\":4961:4992  assert(extraMoney <= msg.value) */\n              tag_61\n              jumpi\n              tag_62\n              tag_63\n              jump\t// in\n            tag_62:\n            tag_61:\n                /* \"Project Module 2/Credit.sol\":5023:5024  0 */\n              0x00\n                /* \"Project Module 2/Credit.sol\":5010:5020  extraMoney */\n              dup2\n                /* \"Project Module 2/Credit.sol\":5010:5024  extraMoney > 0 */\n              gt\n                /* \"Project Module 2/Credit.sol\":5006:5373  if (extraMoney > 0) {... */\n              iszero\n              tag_64\n              jumpi\n                /* \"Project Module 2/Credit.sol\":5052:5062  msg.sender */\n              caller\n                /* \"Project Module 2/Credit.sol\":5044:5072  payable(msg.sender).transfer */\n              0xffffffffffffffffffffffffffffffffffffffff\n              and\n                /* \"Project Module 2/Credit.sol\":5044:5084  payable(msg.sender).transfer(extraMoney) */\n              0x08fc\n                /* \"Project Module 2/Credit.sol\":5073:5083  extraMoney */\n              dup3\n                /* \"Project Module 2/Credit.sol\":5044:5084  payable(msg.sender).transfer(extraMoney) */\n              swap1\n              dup2\n              iszero\n              mul\n              swap1\n              mload(0x40)\n              0x00\n              mload(0x40)\n              dup1\n              dup4\n              sub\n              dup2\n              dup6\n              dup9\n              dup9\n              call\n              swap4\n              pop\n              pop\n              pop\n              pop\n              iszero\n              dup1\n              iszero\n              tag_66\n              jumpi\n              returndatasize\n              0x00\n              dup1\n              returndatacopy\n              revert(0x00, returndatasize)\n            tag_66:\n              pop\n                /* \"Project Module 2/Credit.sol\":5216:5231  block.timestamp */\n              timestamp\n                /* \"Project Module 2/Credit.sol\":5184:5194  extraMoney */\n              dup2\n                /* \"Project Module 2/Credit.sol\":5152:5162  msg.sender */\n              caller\n                /* \"Project Module 2/Credit.sol\":5107:5249  LogLenderChangeReturned(... */\n              0xffffffffffffffffffffffffffffffffffffffff\n              and\n              0x566803f6e271b911c84f87631bcd310d6a6510bf8882577a96fc76975703e431\n              mload(0x40)\n              mload(0x40)\n              dup1\n              swap2\n              sub\n              swap1\n              log4\n                /* \"Project Module 2/Credit.sol\":5275:5290  State.repayment */\n              0x01\n                /* \"Project Module 2/Credit.sol\":5267:5272  state */\n              0x15\n              0x00\n                /* \"Project Module 2/Credit.sol\":5267:5290  state = State.repayment */\n              0x0100\n              exp\n              dup2\n              sload\n              dup2\n              0xff\n              mul\n              not\n              and\n              swap1\n              dup4\n              0x05\n              dup2\n              gt\n              iszero\n              tag_67\n              jumpi\n              tag_68\n              tag_44\n              jump\t// in\n            tag_68:\n            tag_67:\n              mul\n              or\n              swap1\n              sstore\n              pop\n                /* \"Project Module 2/Credit.sol\":5342:5357  block.timestamp */\n              timestamp\n                /* \"Project Module 2/Credit.sol\":5335:5340  state */\n              0x15\n              0x00\n              swap1\n              sload\n              swap1\n              0x0100\n              exp\n              swap1\n              div\n              0xff\n              and\n                /* \"Project Module 2/Credit.sol\":5313:5358  LogCreditStateChanged(state, block.timestamp) */\n              0x05\n              dup2\n              gt\n              iszero\n              tag_69\n              jumpi\n              tag_70\n              tag_44\n              jump\t// in\n            tag_70:\n            tag_69:\n              0xaaae373901e745122c2e0925ad006227969c6cd190b7d5ea2fb7fdbd1d955b35\n              mload(0x40)\n              mload(0x40)\n              dup1\n              swap2\n              sub\n              swap1\n              log3\n                /* \"Project Module 2/Credit.sol\":5006:5373  if (extraMoney > 0) {... */\n            tag_64:\n                /* \"Project Module 2/Credit.sol\":5408:5412  true */\n              0x01\n                /* \"Project Module 2/Credit.sol\":5386:5393  lenders */\n              0x11\n                /* \"Project Module 2/Credit.sol\":5386:5405  lenders[msg.sender] */\n              0x00\n                /* \"Project Module 2/Credit.sol\":5394:5404  msg.sender */\n              caller\n                /* \"Project Module 2/Credit.sol\":5386:5405  lenders[msg.sender] */\n              0xffffffffffffffffffffffffffffffffffffffff\n              and\n              0xffffffffffffffffffffffffffffffffffffffff\n              and\n              dup2\n              mstore\n              0x20\n              add\n              swap1\n              dup2\n              mstore\n              0x20\n              add\n              0x00\n              keccak256\n              0x00\n                /* \"Project Module 2/Credit.sol\":5386:5412  lenders[msg.sender] = true */\n              0x0100\n              exp\n              dup2\n              sload\n              dup2\n              0xff\n              mul\n              not\n              and\n              swap1\n              dup4\n              iszero\n              iszero\n              mul\n              or\n              swap1\n              sstore\n              pop\n                /* \"Project Module 2/Credit.sol\":5426:5438  lendersCount */\n              0x0d\n              0x00\n                /* \"Project Module 2/Credit.sol\":5426:5440  lendersCount++ */\n              dup2\n              sload\n              dup1\n              swap3\n              swap2\n              swap1\n              tag_71\n              swap1\n              tag_72\n              jump\t// in\n            tag_71:\n              swap2\n              swap1\n              pop\n              sstore\n              pop\n                /* \"Project Module 2/Credit.sol\":5490:5567  lendersInvestedAmount... */\n              tag_73\n                /* \"Project Module 2/Credit.sol\":5541:5566  msg.value.sub(extraMoney) */\n              tag_74\n                /* \"Project Module 2/Credit.sol\":5555:5565  extraMoney */\n              dup3\n                /* \"Project Module 2/Credit.sol\":5541:5550  msg.value */\n              callvalue\n                /* \"Project Module 2/Credit.sol\":5541:5554  msg.value.sub */\n              tag_59\n              swap1\n                /* \"Project Module 2/Credit.sol\":5541:5566  msg.value.sub(extraMoney) */\n              swap2\n              swap1\n              0xffffffff\n              and\n              jump\t// in\n            tag_74:\n                /* \"Project Module 2/Credit.sol\":5490:5511  lendersInvestedAmount */\n              0x12\n                /* \"Project Module 2/Credit.sol\":5490:5536  lendersInvestedAmount... */\n              0x00\n                /* \"Project Module 2/Credit.sol\":5525:5535  msg.sender */\n              caller\n                /* \"Project Module 2/Credit.sol\":5490:5536  lendersInvestedAmount... */\n              0xffffffffffffffffffffffffffffffffffffffff\n              and\n              0xffffffffffffffffffffffffffffffffffffffff\n              and\n              dup2\n              mstore\n              0x20\n              add\n              swap1\n              dup2\n              mstore\n              0x20\n              add\n              0x00\n              keccak256\n              sload\n                /* \"Project Module 2/Credit.sol\":5490:5540  lendersInvestedAmount... */\n              tag_36\n              swap1\n                /* \"Project Module 2/Credit.sol\":5490:5567  lendersInvestedAmount... */\n              swap2\n              swap1\n              0xffffffff\n              and\n              jump\t// in\n            tag_73:\n                /* \"Project Module 2/Credit.sol\":5454:5475  lendersInvestedAmount */\n              0x12\n                /* \"Project Module 2/Credit.sol\":5454:5487  lendersInvestedAmount[msg.sender] */\n              0x00\n                /* \"Project Module 2/Credit.sol\":5476:5486  msg.sender */\n              caller\n                /* \"Project Module 2/Credit.sol\":5454:5487  lendersInvestedAmount[msg.sender] */\n              0xffffffffffffffffffffffffffffffffffffffff\n              and\n              0xffffffffffffffffffffffffffffffffffffffff\n              and\n              dup2\n              mstore\n              0x20\n              add\n              swap1\n              dup2\n              mstore\n              0x20\n              add\n              0x00\n              keccak256\n                /* \"Project Module 2/Credit.sol\":5454:5567  lendersInvestedAmount[msg.sender] = lendersInvestedAmount... */\n              dup2\n              swap1\n              sstore\n              pop\n                /* \"Project Module 2/Credit.sol\":5694:5709  block.timestamp */\n              timestamp\n                /* \"Project Module 2/Credit.sol\":5651:5676  msg.value.sub(extraMoney) */\n              tag_75\n                /* \"Project Module 2/Credit.sol\":5665:5675  extraMoney */\n              dup3\n                /* \"Project Module 2/Credit.sol\":5651:5660  msg.value */\n              callvalue\n                /* \"Project Module 2/Credit.sol\":5651:5664  msg.value.sub */\n              tag_59\n              swap1\n                /* \"Project Module 2/Credit.sol\":5651:5676  msg.value.sub(extraMoney) */\n              swap2\n              swap1\n              0xffffffff\n              and\n              jump\t// in\n            tag_75:\n                /* \"Project Module 2/Credit.sol\":5623:5633  msg.sender */\n              caller\n                /* \"Project Module 2/Credit.sol\":5586:5723  LogLenderInvestment(... */\n              0xffffffffffffffffffffffffffffffffffffffff\n              and\n              0x1b0969ce7f5b05c5e0969329a05cdbd7e2e2f6cee33ba26fd6e6bbcff82312cd\n              mload(0x40)\n              mload(0x40)\n              dup1\n              swap2\n              sub\n              swap1\n              log4\n                /* \"Project Module 2/Credit.sol\":4781:5734  if (address(this).balance >= requestedAmount) {... */\n            tag_57:\n                /* \"Project Module 2/Credit.sol\":4739:5749  {... */\n              pop\n                /* \"Project Module 2/Credit.sol\":4696:5749  function invest() public payable canInvest {... */\n              jump\t// out\n                /* \"Project Module 2/SafeMath.sol\":539:682  function add(uint256 a, uint256 b) internal pure returns (uint256) {... */\n            tag_36:\n                /* \"Project Module 2/SafeMath.sol\":597:604  uint256 */\n              0x00\n                /* \"Project Module 2/SafeMath.sol\":616:625  uint256 c */\n              dup1\n                /* \"Project Module 2/SafeMath.sol\":632:633  b */\n              dup3\n                /* \"Project Module 2/SafeMath.sol\":628:629  a */\n              dup5\n                /* \"Project Module 2/SafeMath.sol\":628:633  a + b */\n              tag_77\n              swap2\n              swap1\n              tag_78\n              jump\t// in\n            tag_77:\n                /* \"Project Module 2/SafeMath.sol\":616:633  uint256 c = a + b */\n              swap1\n              pop\n                /* \"Project Module 2/SafeMath.sol\":655:656  a */\n              dup4\n                /* \"Project Module 2/SafeMath.sol\":650:651  c */\n              dup2\n                /* \"Project Module 2/SafeMath.sol\":650:656  c >= a */\n              lt\n              iszero\n                /* \"Project Module 2/SafeMath.sol\":643:657  assert(c >= a) */\n              tag_79\n              jumpi\n              tag_80\n              tag_63\n              jump\t// in\n            tag_80:\n            tag_79:\n                /* \"Project Module 2/SafeMath.sol\":674:675  c */\n              dup1\n                /* \"Project Module 2/SafeMath.sol\":667:675  return c */\n              swap2\n              pop\n              pop\n                /* \"Project Module 2/SafeMath.sol\":539:682  function add(uint256 a, uint256 b) internal pure returns (uint256) {... */\n              swap3\n              swap2\n              pop\n              pop\n              jump\t// out\n                /* \"Project Module 2/SafeMath.sol\":288:407  function div(uint256 a, uint256 b) internal pure returns (uint256) {... */\n            tag_37:\n                /* \"Project Module 2/SafeMath.sol\":346:353  uint256 */\n              0x00\n                /* \"Project Module 2/SafeMath.sol\":365:374  uint256 c */\n              dup1\n                /* \"Project Module 2/SafeMath.sol\":381:382  b */\n              dup3\n                /* \"Project Module 2/SafeMath.sol\":377:378  a */\n              dup5\n                /* \"Project Module 2/SafeMath.sol\":377:382  a / b */\n              tag_82\n              swap2\n              swap1\n              tag_83\n              jump\t// in\n            tag_82:\n                /* \"Project Module 2/SafeMath.sol\":365:382  uint256 c = a / b */\n              swap1\n              pop\n                /* \"Project Module 2/SafeMath.sol\":399:400  c */\n              dup1\n                /* \"Project Module 2/SafeMath.sol\":392:400  return c */\n              swap2\n              pop\n              pop\n                /* \"Project Module 2/SafeMath.sol\":288:407  function div(uint256 a, uint256 b) internal pure returns (uint256) {... */\n              swap3\n              swap2\n              pop\n              pop\n              jump\t// out\n                /* \"Project Module 2/SafeMath.sol\":413:533  function sub(uint256 a, uint256 b) internal pure returns (uint256) {... */\n            tag_59:\n                /* \"Project Module 2/SafeMath.sol\":471:478  uint256 */\n              0x00\n                /* \"Project Module 2/SafeMath.sol\":502:503  a */\n              dup3\n                /* \"Project Module 2/SafeMath.sol\":497:498  b */\n              dup3\n                /* \"Project Module 2/SafeMath.sol\":497:503  b <= a */\n              gt\n              iszero\n                /* \"Project Module 2/SafeMath.sol\":490:504  assert(b <= a) */\n              tag_85\n              jumpi\n              tag_86\n              tag_63\n              jump\t// in\n            tag_86:\n            tag_85:\n                /* \"Project Module 2/SafeMath.sol\":525:526  b */\n              dup2\n                /* \"Project Module 2/SafeMath.sol\":521:522  a */\n              dup4\n                /* \"Project Module 2/SafeMath.sol\":521:526  a - b */\n              tag_87\n              swap2\n              swap1\n              tag_88\n              jump\t// in\n            tag_87:\n                /* \"Project Module 2/SafeMath.sol\":514:526  return a - b */\n              swap1\n              pop\n                /* \"Project Module 2/SafeMath.sol\":413:533  function sub(uint256 a, uint256 b) internal pure returns (uint256) {... */\n              swap3\n              swap2\n              pop\n              pop\n              jump\t// out\n                /* \"#utility.yul\":7:84   */\n            tag_89:\n                /* \"#utility.yul\":44:51   */\n              0x00\n                /* \"#utility.yul\":73:78   */\n              dup2\n                /* \"#utility.yul\":62:78   */\n              swap1\n              pop\n                /* \"#utility.yul\":7:84   */\n              swap2\n              swap1\n              pop\n              jump\t// out\n                /* \"#utility.yul\":90:208   */\n            tag_90:\n                /* \"#utility.yul\":177:201   */\n              tag_108\n                /* \"#utility.yul\":195:200   */\n              dup2\n                /* \"#utility.yul\":177:201   */\n              tag_89\n              jump\t// in\n            tag_108:\n                /* \"#utility.yul\":172:175   */\n              dup3\n                /* \"#utility.yul\":165:202   */\n              mstore\n                /* \"#utility.yul\":90:208   */\n              pop\n              pop\n              jump\t// out\n                /* \"#utility.yul\":214:436   */\n            tag_12:\n                /* \"#utility.yul\":307:311   */\n              0x00\n                /* \"#utility.yul\":345:347   */\n              0x20\n                /* \"#utility.yul\":334:343   */\n              dup3\n                /* \"#utility.yul\":330:348   */\n              add\n                /* \"#utility.yul\":322:348   */\n              swap1\n              pop\n                /* \"#utility.yul\":358:429   */\n              tag_110\n                /* \"#utility.yul\":426:427   */\n              0x00\n                /* \"#utility.yul\":415:424   */\n              dup4\n                /* \"#utility.yul\":411:428   */\n              add\n                /* \"#utility.yul\":402:408   */\n              dup5\n                /* \"#utility.yul\":358:429   */\n              tag_90\n              jump\t// in\n            tag_110:\n                /* \"#utility.yul\":214:436   */\n              swap3\n              swap2\n              pop\n              pop\n              jump\t// out\n                /* \"#utility.yul\":523:640   */\n            tag_92:\n                /* \"#utility.yul\":632:633   */\n              0x00\n                /* \"#utility.yul\":629:630   */\n              dup1\n                /* \"#utility.yul\":622:634   */\n              revert\n                /* \"#utility.yul\":769:876   */\n            tag_94:\n                /* \"#utility.yul\":850:851   */\n              0x06\n                /* \"#utility.yul\":843:848   */\n              dup2\n                /* \"#utility.yul\":840:852   */\n              lt\n                /* \"#utility.yul\":830:870   */\n              tag_115\n              jumpi\n                /* \"#utility.yul\":866:867   */\n              0x00\n                /* \"#utility.yul\":863:864   */\n              dup1\n                /* \"#utility.yul\":856:868   */\n              revert\n                /* \"#utility.yul\":830:870   */\n            tag_115:\n                /* \"#utility.yul\":769:876   */\n              pop\n              jump\t// out\n                /* \"#utility.yul\":882:1037   */\n            tag_95:\n                /* \"#utility.yul\":936:941   */\n              0x00\n                /* \"#utility.yul\":974:980   */\n              dup2\n                /* \"#utility.yul\":961:981   */\n              calldataload\n                /* \"#utility.yul\":952:981   */\n              swap1\n              pop\n                /* \"#utility.yul\":990:1031   */\n              tag_117\n                /* \"#utility.yul\":1025:1030   */\n              dup2\n                /* \"#utility.yul\":990:1031   */\n              tag_94\n              jump\t// in\n            tag_117:\n                /* \"#utility.yul\":882:1037   */\n              swap3\n              swap2\n              pop\n              pop\n              jump\t// out\n                /* \"#utility.yul\":1043:1388   */\n            tag_16:\n                /* \"#utility.yul\":1110:1116   */\n              0x00\n                /* \"#utility.yul\":1159:1161   */\n              0x20\n                /* \"#utility.yul\":1147:1156   */\n              dup3\n                /* \"#utility.yul\":1138:1145   */\n              dup5\n                /* \"#utility.yul\":1134:1157   */\n              sub\n                /* \"#utility.yul\":1130:1162   */\n              slt\n                /* \"#utility.yul\":1127:1246   */\n              iszero\n              tag_119\n              jumpi\n                /* \"#utility.yul\":1165:1244   */\n              tag_120\n              tag_92\n              jump\t// in\n            tag_120:\n                /* \"#utility.yul\":1127:1246   */\n            tag_119:\n                /* \"#utility.yul\":1285:1286   */\n              0x00\n                /* \"#utility.yul\":1310:1371   */\n              tag_121\n                /* \"#utility.yul\":1363:1370   */\n              dup5\n                /* \"#utility.yul\":1354:1360   */\n              dup3\n                /* \"#utility.yul\":1343:1352   */\n              dup6\n                /* \"#utility.yul\":1339:1361   */\n              add\n                /* \"#utility.yul\":1310:1371   */\n              tag_95\n              jump\t// in\n            tag_121:\n                /* \"#utility.yul\":1300:1371   */\n              swap2\n              pop\n                /* \"#utility.yul\":1256:1381   */\n              pop\n                /* \"#utility.yul\":1043:1388   */\n              swap3\n              swap2\n              pop\n              pop\n              jump\t// out\n                /* \"#utility.yul\":1394:1520   */\n            tag_96:\n                /* \"#utility.yul\":1431:1438   */\n              0x00\n                /* \"#utility.yul\":1471:1513   */\n              0xffffffffffffffffffffffffffffffffffffffff\n                /* \"#utility.yul\":1464:1469   */\n              dup3\n                /* \"#utility.yul\":1460:1514   */\n              and\n                /* \"#utility.yul\":1449:1514   */\n              swap1\n              pop\n                /* \"#utility.yul\":1394:1520   */\n              swap2\n              swap1\n              pop\n              jump\t// out\n                /* \"#utility.yul\":1526:1622   */\n            tag_97:\n                /* \"#utility.yul\":1563:1570   */\n              0x00\n                /* \"#utility.yul\":1592:1616   */\n              tag_124\n                /* \"#utility.yul\":1610:1615   */\n              dup3\n                /* \"#utility.yul\":1592:1616   */\n              tag_96\n              jump\t// in\n            tag_124:\n                /* \"#utility.yul\":1581:1616   */\n              swap1\n              pop\n                /* \"#utility.yul\":1526:1622   */\n              swap2\n              swap1\n              pop\n              jump\t// out\n                /* \"#utility.yul\":1628:1750   */\n            tag_98:\n                /* \"#utility.yul\":1701:1725   */\n              tag_126\n                /* \"#utility.yul\":1719:1724   */\n              dup2\n                /* \"#utility.yul\":1701:1725   */\n              tag_97\n              jump\t// in\n            tag_126:\n                /* \"#utility.yul\":1694:1699   */\n              dup2\n                /* \"#utility.yul\":1691:1726   */\n              eq\n                /* \"#utility.yul\":1681:1744   */\n              tag_127\n              jumpi\n                /* \"#utility.yul\":1740:1741   */\n              0x00\n                /* \"#utility.yul\":1737:1738   */\n              dup1\n                /* \"#utility.yul\":1730:1742   */\n              revert\n                /* \"#utility.yul\":1681:1744   */\n            tag_127:\n                /* \"#utility.yul\":1628:1750   */\n              pop\n              jump\t// out\n                /* \"#utility.yul\":1756:1895   */\n            tag_99:\n                /* \"#utility.yul\":1802:1807   */\n              0x00\n                /* \"#utility.yul\":1840:1846   */\n              dup2\n                /* \"#utility.yul\":1827:1847   */\n              calldataload\n                /* \"#utility.yul\":1818:1847   */\n              swap1\n              pop\n                /* \"#utility.yul\":1856:1889   */\n              tag_129\n                /* \"#utility.yul\":1883:1888   */\n              dup2\n                /* \"#utility.yul\":1856:1889   */\n              tag_98\n              jump\t// in\n            tag_129:\n                /* \"#utility.yul\":1756:1895   */\n              swap3\n              swap2\n              pop\n              pop\n              jump\t// out\n                /* \"#utility.yul\":1901:2230   */\n            tag_21:\n                /* \"#utility.yul\":1960:1966   */\n              0x00\n                /* \"#utility.yul\":2009:2011   */\n              0x20\n                /* \"#utility.yul\":1997:2006   */\n              dup3\n                /* \"#utility.yul\":1988:1995   */\n              dup5\n                /* \"#utility.yul\":1984:2007   */\n              sub\n                /* \"#utility.yul\":1980:2012   */\n              slt\n                /* \"#utility.yul\":1977:2096   */\n              iszero\n              tag_131\n              jumpi\n                /* \"#utility.yul\":2015:2094   */\n              tag_132\n              tag_92\n              jump\t// in\n            tag_132:\n                /* \"#utility.yul\":1977:2096   */\n            tag_131:\n                /* \"#utility.yul\":2135:2136   */\n              0x00\n                /* \"#utility.yul\":2160:2213   */\n              tag_133\n                /* \"#utility.yul\":2205:2212   */\n              dup5\n                /* \"#utility.yul\":2196:2202   */\n              dup3\n                /* \"#utility.yul\":2185:2194   */\n              dup6\n                /* \"#utility.yul\":2181:2203   */\n              add\n                /* \"#utility.yul\":2160:2213   */\n              tag_99\n              jump\t// in\n            tag_133:\n                /* \"#utility.yul\":2150:2213   */\n              swap2\n              pop\n                /* \"#utility.yul\":2106:2223   */\n              pop\n                /* \"#utility.yul\":1901:2230   */\n              swap3\n              swap2\n              pop\n              pop\n              jump\t// out\n                /* \"#utility.yul\":2236:2326   */\n            tag_100:\n                /* \"#utility.yul\":2270:2277   */\n              0x00\n                /* \"#utility.yul\":2313:2318   */\n              dup2\n                /* \"#utility.yul\":2306:2319   */\n              iszero\n                /* \"#utility.yul\":2299:2320   */\n              iszero\n                /* \"#utility.yul\":2288:2320   */\n              swap1\n              pop\n                /* \"#utility.yul\":2236:2326   */\n              swap2\n              swap1\n              pop\n              jump\t// out\n                /* \"#utility.yul\":2332:2441   */\n            tag_101:\n                /* \"#utility.yul\":2413:2434   */\n              tag_136\n                /* \"#utility.yul\":2428:2433   */\n              dup2\n                /* \"#utility.yul\":2413:2434   */\n              tag_100\n              jump\t// in\n            tag_136:\n                /* \"#utility.yul\":2408:2411   */\n              dup3\n                /* \"#utility.yul\":2401:2435   */\n              mstore\n                /* \"#utility.yul\":2332:2441   */\n              pop\n              pop\n              jump\t// out\n                /* \"#utility.yul\":2447:2657   */\n            tag_24:\n                /* \"#utility.yul\":2534:2538   */\n              0x00\n                /* \"#utility.yul\":2572:2574   */\n              0x20\n                /* \"#utility.yul\":2561:2570   */\n              dup3\n                /* \"#utility.yul\":2557:2575   */\n              add\n                /* \"#utility.yul\":2549:2575   */\n              swap1\n              pop\n                /* \"#utility.yul\":2585:2650   */\n              tag_138\n                /* \"#utility.yul\":2647:2648   */\n              0x00\n                /* \"#utility.yul\":2636:2645   */\n              dup4\n                /* \"#utility.yul\":2632:2649   */\n              add\n                /* \"#utility.yul\":2623:2629   */\n              dup5\n                /* \"#utility.yul\":2585:2650   */\n              tag_101\n              jump\t// in\n            tag_138:\n                /* \"#utility.yul\":2447:2657   */\n              swap3\n              swap2\n              pop\n              pop\n              jump\t// out\n                /* \"#utility.yul\":2663:2781   */\n            tag_102:\n                /* \"#utility.yul\":2750:2774   */\n              tag_140\n                /* \"#utility.yul\":2768:2773   */\n              dup2\n                /* \"#utility.yul\":2750:2774   */\n              tag_97\n              jump\t// in\n            tag_140:\n                /* \"#utility.yul\":2745:2748   */\n              dup3\n                /* \"#utility.yul\":2738:2775   */\n              mstore\n                /* \"#utility.yul\":2663:2781   */\n              pop\n              pop\n              jump\t// out\n                /* \"#utility.yul\":2787:3009   */\n            tag_33:\n                /* \"#utility.yul\":2880:2884   */\n              0x00\n                /* \"#utility.yul\":2918:2920   */\n              0x20\n                /* \"#utility.yul\":2907:2916   */\n              dup3\n                /* \"#utility.yul\":2903:2921   */\n              add\n                /* \"#utility.yul\":2895:2921   */\n              swap1\n              pop\n                /* \"#utility.yul\":2931:3002   */\n              tag_142\n                /* \"#utility.yul\":2999:3000   */\n              0x00\n                /* \"#utility.yul\":2988:2997   */\n              dup4\n                /* \"#utility.yul\":2984:3001   */\n              add\n                /* \"#utility.yul\":2975:2981   */\n              dup5\n                /* \"#utility.yul\":2931:3002   */\n              tag_102\n              jump\t// in\n            tag_142:\n                /* \"#utility.yul\":2787:3009   */\n              swap3\n              swap2\n              pop\n              pop\n              jump\t// out\n                /* \"#utility.yul\":3015:3195   */\n            tag_44:\n                /* \"#utility.yul\":3063:3140   */\n              0x4e487b7100000000000000000000000000000000000000000000000000000000\n                /* \"#utility.yul\":3060:3061   */\n              0x00\n                /* \"#utility.yul\":3053:3141   */\n              mstore\n                /* \"#utility.yul\":3160:3164   */\n              0x21\n                /* \"#utility.yul\":3157:3158   */\n              0x04\n                /* \"#utility.yul\":3150:3165   */\n              mstore\n                /* \"#utility.yul\":3184:3188   */\n              0x24\n                /* \"#utility.yul\":3181:3182   */\n              0x00\n                /* \"#utility.yul\":3174:3189   */\n              revert\n                /* \"#utility.yul\":3201:3381   */\n            tag_63:\n                /* \"#utility.yul\":3249:3326   */\n              0x4e487b7100000000000000000000000000000000000000000000000000000000\n                /* \"#utility.yul\":3246:3247   */\n              0x00\n                /* \"#utility.yul\":3239:3327   */\n              mstore\n                /* \"#utility.yul\":3346:3350   */\n              0x01\n                /* \"#utility.yul\":3343:3344   */\n              0x04\n                /* \"#utility.yul\":3336:3351   */\n              mstore\n                /* \"#utility.yul\":3370:3374   */\n              0x24\n                /* \"#utility.yul\":3367:3368   */\n              0x00\n                /* \"#utility.yul\":3360:3375   */\n              revert\n                /* \"#utility.yul\":3387:3567   */\n            tag_103:\n                /* \"#utility.yul\":3435:3512   */\n              0x4e487b7100000000000000000000000000000000000000000000000000000000\n                /* \"#utility.yul\":3432:3433   */\n              0x00\n                /* \"#utility.yul\":3425:3513   */\n              mstore\n                /* \"#utility.yul\":3532:3536   */\n              0x11\n                /* \"#utility.yul\":3529:3530   */\n              0x04\n                /* \"#utility.yul\":3522:3537   */\n              mstore\n                /* \"#utility.yul\":3556:3560   */\n              0x24\n                /* \"#utility.yul\":3553:3554   */\n              0x00\n                /* \"#utility.yul\":3546:3561   */\n              revert\n                /* \"#utility.yul\":3573:3806   */\n            tag_72:\n                /* \"#utility.yul\":3612:3615   */\n              0x00\n                /* \"#utility.yul\":3635:3659   */\n              tag_147\n                /* \"#utility.yul\":3653:3658   */\n              dup3\n                /* \"#utility.yul\":3635:3659   */\n              tag_89\n              jump\t// in\n            tag_147:\n                /* \"#utility.yul\":3626:3659   */\n              swap2\n              pop\n                /* \"#utility.yul\":3681:3747   */\n              0xffffffffffffffffffffffffffffffffffffffffffffffffffffffffffffffff\n                /* \"#utility.yul\":3674:3679   */\n              dup3\n                /* \"#utility.yul\":3671:3748   */\n              sub\n                /* \"#utility.yul\":3668:3771   */\n              tag_148\n              jumpi\n                /* \"#utility.yul\":3751:3769   */\n              tag_149\n              tag_103\n              jump\t// in\n            tag_149:\n                /* \"#utility.yul\":3668:3771   */\n            tag_148:\n                /* \"#utility.yul\":3798:3799   */\n              0x01\n                /* \"#utility.yul\":3791:3796   */\n              dup3\n                /* \"#utility.yul\":3787:3800   */\n              add\n                /* \"#utility.yul\":3780:3800   */\n              swap1\n              pop\n                /* \"#utility.yul\":3573:3806   */\n              swap2\n              swap1\n              pop\n              jump\t// out\n                /* \"#utility.yul\":3812:4003   */\n            tag_78:\n                /* \"#utility.yul\":3852:3855   */\n              0x00\n                /* \"#utility.yul\":3871:3891   */\n              tag_151\n                /* \"#utility.yul\":3889:3890   */\n              dup3\n                /* \"#utility.yul\":3871:3891   */\n              tag_89\n              jump\t// in\n            tag_151:\n                /* \"#utility.yul\":3866:3891   */\n              swap2\n              pop\n                /* \"#utility.yul\":3905:3925   */\n              tag_152\n                /* \"#utility.yul\":3923:3924   */\n              dup4\n                /* \"#utility.yul\":3905:3925   */\n              tag_89\n              jump\t// in\n            tag_152:\n                /* \"#utility.yul\":3900:3925   */\n              swap3\n              pop\n                /* \"#utility.yul\":3948:3949   */\n              dup3\n                /* \"#utility.yul\":3945:3946   */\n              dup3\n                /* \"#utility.yul\":3941:3950   */\n              add\n                /* \"#utility.yul\":3934:3950   */\n              swap1\n              pop\n                /* \"#utility.yul\":3969:3972   */\n              dup1\n                /* \"#utility.yul\":3966:3967   */\n              dup3\n                /* \"#utility.yul\":3963:3973   */\n              gt\n                /* \"#utility.yul\":3960:3996   */\n              iszero\n              tag_153\n              jumpi\n                /* \"#utility.yul\":3976:3994   */\n              tag_154\n              tag_103\n              jump\t// in\n            tag_154:\n                /* \"#utility.yul\":3960:3996   */\n            tag_153:\n                /* \"#utility.yul\":3812:4003   */\n              swap3\n              swap2\n              pop\n              pop\n              jump\t// out\n                /* \"#utility.yul\":4009:4189   */\n            tag_104:\n                /* \"#utility.yul\":4057:4134   */\n              0x4e487b7100000000000000000000000000000000000000000000000000000000\n                /* \"#utility.yul\":4054:4055   */\n              0x00\n                /* \"#utility.yul\":4047:4135   */\n              mstore\n                /* \"#utility.yul\":4154:4158   */\n              0x12\n                /* \"#utility.yul\":4151:4152   */\n              0x04\n                /* \"#utility.yul\":4144:4159   */\n              mstore\n                /* \"#utility.yul\":4178:4182   */\n              0x24\n                /* \"#utility.yul\":4175:4176   */\n              0x00\n                /* \"#utility.yul\":4168:4183   */\n              revert\n                /* \"#utility.yul\":4195:4380   */\n            tag_83:\n                /* \"#utility.yul\":4235:4236   */\n              0x00\n                /* \"#utility.yul\":4252:4272   */\n              tag_157\n                /* \"#utility.yul\":4270:4271   */\n              dup3\n                /* \"#utility.yul\":4252:4272   */\n              tag_89\n              jump\t// in\n            tag_157:\n                /* \"#utility.yul\":4247:4272   */\n              swap2\n              pop\n                /* \"#utility.yul\":4286:4306   */\n              tag_158\n                /* \"#utility.yul\":4304:4305   */\n              dup4\n                /* \"#utility.yul\":4286:4306   */\n              tag_89\n              jump\t// in\n            tag_158:\n                /* \"#utility.yul\":4281:4306   */\n              swap3\n              pop\n                /* \"#utility.yul\":4325:4326   */\n              dup3\n                /* \"#utility.yul\":4315:4350   */\n              tag_159\n              jumpi\n                /* \"#utility.yul\":4330:4348   */\n              tag_160\n              tag_104\n              jump\t// in\n            tag_160:\n                /* \"#utility.yul\":4315:4350   */\n            tag_159:\n                /* \"#utility.yul\":4372:4373   */\n              dup3\n                /* \"#utility.yul\":4369:4370   */\n              dup3\n                /* \"#utility.yul\":4365:4374   */\n              div\n                /* \"#utility.yul\":4360:4374   */\n              swap1\n              pop\n                /* \"#utility.yul\":4195:4380   */\n              swap3\n              swap2\n              pop\n              pop\n              jump\t// out\n                /* \"#utility.yul\":4386:4580   */\n            tag_88:\n                /* \"#utility.yul\":4426:4430   */\n              0x00\n                /* \"#utility.yul\":4446:4466   */\n              tag_162\n                /* \"#utility.yul\":4464:4465   */\n              dup3\n                /* \"#utility.yul\":4446:4466   */\n              tag_89\n              jump\t// in\n            tag_162:\n                /* \"#utility.yul\":4441:4466   */\n              swap2\n              pop\n                /* \"#utility.yul\":4480:4500   */\n              tag_163\n                /* \"#utility.yul\":4498:4499   */\n              dup4\n                /* \"#utility.yul\":4480:4500   */\n              tag_89\n              jump\t// in\n            tag_163:\n                /* \"#utility.yul\":4475:4500   */\n              swap3\n              pop\n                /* \"#utility.yul\":4524:4525   */\n              dup3\n                /* \"#utility.yul\":4521:4522   */\n              dup3\n                /* \"#utility.yul\":4517:4526   */\n              sub\n                /* \"#utility.yul\":4509:4526   */\n              swap1\n              pop\n                /* \"#utility.yul\":4548:4549   */\n              dup2\n                /* \"#utility.yul\":4542:4546   */\n              dup2\n                /* \"#utility.yul\":4539:4550   */\n              gt\n                /* \"#utility.yul\":4536:4573   */\n              iszero\n              tag_164\n              jumpi\n                /* \"#utility.yul\":4553:4571   */\n              tag_165\n              tag_103\n              jump\t// in\n            tag_165:\n                /* \"#utility.yul\":4536:4573   */\n            tag_164:\n                /* \"#utility.yul\":4386:4580   */\n              swap3\n              swap2\n              pop\n              pop\n              jump\t// out\n\n            auxdata: 0xa2646970667358221220c87f57b33d8b4ccb5fdae77e767876179fb2c637424bed644ada503411c0f96764736f6c63430008120033\n        }\n    }\n\n    auxdata: 0xa2646970667358221220a921201ed12efb8c1ed0e16d5ff24c70d984dd2e734eda3330af4e793008f6f164736f6c63430008120033\n}\n",
				"bytecode": {
					"linkReferences": {},
					"object": "608060405234801561001057600080fd5b50336000806101000a81548173ffffffffffffffffffffffffffffffffffffffff021916908373ffffffffffffffffffffffffffffffffffffffff1602179055506126bf806100606000396000f3fe60806040523480156200001157600080fd5b5060043610620000a05760003560e01c80638da5cb5b116200006f5780638da5cb5b146200013f578063a87430ba1462000161578063bb9e42471462000199578063ebb53e8914620001cf578063fa838e54146200020557620000a0565b8063036a1c2214620000a557806359658c4814620000db5780635a524d0714620000fb578063823a71af146200011d575b600080fd5b620000c36004803603810190620000bd919062000c3c565b62000225565b604051620000d2919062000cb3565b60405180910390f35b620000f96004803603810190620000f3919062000d15565b62000265565b005b6200010562000387565b60405162000114919062000e15565b60405180910390f35b6200012762000457565b60405162000136919062000e15565b60405180910390f35b62000149620004e7565b60405162000158919062000cb3565b60405180910390f35b6200017f600480360381019062000179919062000e6a565b6200050b565b604051620001909392919062000eb9565b60405180910390f35b620001b76004803603810190620001b1919062000e6a565b6200056f565b604051620001c6919062000ef6565b60405180910390f35b620001ed6004803603810190620001e7919062001075565b620006c3565b604051620001fc919062000cb3565b60405180910390f35b6200022360048036038101906200021d91906200112e565b62000ab3565b005b600281815481106200023657600080fd5b906000526020600020016000915054906101000a900473ffffffffffffffffffffffffffffffffffffffff1681565b60008054906101000a900473ffffffffffffffffffffffffffffffffffffffff1673ffffffffffffffffffffffffffffffffffffffff163373ffffffffffffffffffffffffffffffffffffffff1614620002be57600080fd5b600081905060008173ffffffffffffffffffffffffffffffffffffffff166329c68dc16040518163ffffffff1660e01b81526004016020604051808303816000875af115801562000313573d6000803e3d6000fd5b505050506040513d601f19601f82011682018060405250810190620003399190620011a6565b9050428115158373ffffffffffffffffffffffffffffffffffffffff167f25270acf0eab637903a9cd906e32d2ac17ce44db6c743ba5812f2924e84ff8d660405160405180910390a4505050565b6060600160003373ffffffffffffffffffffffffffffffffffffffff1673ffffffffffffffffffffffffffffffffffffffff1681526020019081526020016000206001018054806020026020016040519081016040528092919081815260200182805480156200044d57602002820191906000526020600020905b8160009054906101000a900473ffffffffffffffffffffffffffffffffffffffff1673ffffffffffffffffffffffffffffffffffffffff168152602001906001019080831162000402575b5050505050905090565b60606002805480602002602001604051908101604052809291908181526020018280548015620004dd57602002820191906000526020600020905b8160009054906101000a900473ffffffffffffffffffffffffffffffffffffffff1673ffffffffffffffffffffffffffffffffffffffff168152602001906001019080831162000492575b5050505050905090565b60008054906101000a900473ffffffffffffffffffffffffffffffffffffffff1681565b60016020528060005260406000206000915090508060000160009054906101000a900460ff16908060000160019054906101000a900473ffffffffffffffffffffffffffffffffffffffff16908060000160159054906101000a900460ff16905083565b600060018060008473ffffffffffffffffffffffffffffffffffffffff1673ffffffffffffffffffffffffffffffffffffffff16815260200190815260200160002060000160156101000a81548160ff0219169083151502179055508173ffffffffffffffffffffffffffffffffffffffff167fbafb199a9909a7be73ceeaf6193dc9ea119ef469120d998d5f550140c0b13b54600160008573ffffffffffffffffffffffffffffffffffffffff1673ffffffffffffffffffffffffffffffffffffffff16815260200190815260200160002060000160159054906101000a900460ff164260405162000664929190620011e9565b60405180910390a2600160008373ffffffffffffffffffffffffffffffffffffffff1673ffffffffffffffffffffffffffffffffffffffff16815260200190815260200160002060000160159054906101000a900460ff169050919050565b6000801515600160003373ffffffffffffffffffffffffffffffffffffffff1673ffffffffffffffffffffffffffffffffffffffff16815260200190815260200160002060000160009054906101000a900460ff161515146200072557600080fd5b60001515600160003373ffffffffffffffffffffffffffffffffffffffff1673ffffffffffffffffffffffffffffffffffffffff16815260200190815260200160002060000160159054906101000a900460ff161515146200078657600080fd5b600073ffffffffffffffffffffffffffffffffffffffff16600160003373ffffffffffffffffffffffffffffffffffffffff1673ffffffffffffffffffffffffffffffffffffffff16815260200190815260200160002060000160019054906101000a900473ffffffffffffffffffffffffffffffffffffffff1673ffffffffffffffffffffffffffffffffffffffff161462000828576200082762001216565b5b60018060003373ffffffffffffffffffffffffffffffffffffffff1673ffffffffffffffffffffffffffffffffffffffff16815260200190815260200160002060000160006101000a81548160ff021916908315150217905550600085858585604051620008969062000bdf565b620008a59493929190620012ce565b604051809103906000f080158015620008c2573d6000803e3d6000fd5b50905080600160003373ffffffffffffffffffffffffffffffffffffffff1673ffffffffffffffffffffffffffffffffffffffff16815260200190815260200160002060000160016101000a81548173ffffffffffffffffffffffffffffffffffffffff021916908373ffffffffffffffffffffffffffffffffffffffff1602179055506002819080600181540180825580915050600190039060005260206000200160009091909190916101000a81548173ffffffffffffffffffffffffffffffffffffffff021916908373ffffffffffffffffffffffffffffffffffffffff160217905550600160003373ffffffffffffffffffffffffffffffffffffffff1673ffffffffffffffffffffffffffffffffffffffff168152602001908152602001600020600101819080600181540180825580915050600190039060005260206000200160009091909190916101000a81548173ffffffffffffffffffffffffffffffffffffffff021916908373ffffffffffffffffffffffffffffffffffffffff160217905550423373ffffffffffffffffffffffffffffffffffffffff168273ffffffffffffffffffffffffffffffffffffffff167fa0c75b76492543c8eafdc7e35272287bd6f229dcf0f6c22429343044718c510860405160405180910390a480915050949350505050565b60008054906101000a900473ffffffffffffffffffffffffffffffffffffffff1673ffffffffffffffffffffffffffffffffffffffff163373ffffffffffffffffffffffffffffffffffffffff161462000b0c57600080fd5b60008290508073ffffffffffffffffffffffffffffffffffffffff1663268f1153836040518263ffffffff1660e01b815260040162000b4c9190620013a2565b600060405180830381600087803b15801562000b6757600080fd5b505af115801562000b7c573d6000803e3d6000fd5b505050504282600581111562000b975762000b9662001322565b5b8273ffffffffffffffffffffffffffffffffffffffff167f9ae5127f6d87e374b5901ce23a9467e504811c54c03dda8741ad44a35a36146660405160405180910390a4505050565b6112ca80620013c083390190565b6000604051905090565b600080fd5b600080fd5b6000819050919050565b62000c168162000c01565b811462000c2257600080fd5b50565b60008135905062000c368162000c0b565b92915050565b60006020828403121562000c555762000c5462000bf7565b5b600062000c658482850162000c25565b91505092915050565b600073ffffffffffffffffffffffffffffffffffffffff82169050919050565b600062000c9b8262000c6e565b9050919050565b62000cad8162000c8e565b82525050565b600060208201905062000cca600083018462000ca2565b92915050565b600062000cdd8262000c8e565b9050919050565b62000cef8162000cd0565b811462000cfb57600080fd5b50565b60008135905062000d0f8162000ce4565b92915050565b60006020828403121562000d2e5762000d2d62000bf7565b5b600062000d3e8482850162000cfe565b91505092915050565b600081519050919050565b600082825260208201905092915050565b6000819050602082019050919050565b62000d7e8162000c8e565b82525050565b600062000d92838362000d73565b60208301905092915050565b6000602082019050919050565b600062000db88262000d47565b62000dc4818562000d52565b935062000dd18362000d63565b8060005b8381101562000e0857815162000dec888262000d84565b975062000df98362000d9e565b92505060018101905062000dd5565b5085935050505092915050565b6000602082019050818103600083015262000e31818462000dab565b905092915050565b62000e448162000c8e565b811462000e5057600080fd5b50565b60008135905062000e648162000e39565b92915050565b60006020828403121562000e835762000e8262000bf7565b5b600062000e938482850162000e53565b91505092915050565b60008115159050919050565b62000eb38162000e9c565b82525050565b600060608201905062000ed0600083018662000ea8565b62000edf602083018562000ca2565b62000eee604083018462000ea8565b949350505050565b600060208201905062000f0d600083018462000ea8565b92915050565b600080fd5b600080fd5b6000601f19601f8301169050919050565b7f4e487b7100000000000000000000000000000000000000000000000000000000600052604160045260246000fd5b62000f688262000f1d565b810181811067ffffffffffffffff8211171562000f8a5762000f8962000f2e565b5b80604052505050565b600062000f9f62000bed565b905062000fad828262000f5d565b919050565b600067ffffffffffffffff82111562000fd05762000fcf62000f2e565b5b62000fdb8262000f1d565b9050602081019050919050565b82818337600083830152505050565b60006200100e620010088462000fb2565b62000f93565b9050828152602081018484840111156200102d576200102c62000f18565b5b6200103a84828562000fe8565b509392505050565b600082601f8301126200105a576200105962000f13565b5b81356200106c84826020860162000ff7565b91505092915050565b6000806000806080858703121562001092576200109162000bf7565b5b6000620010a28782880162000c25565b9450506020620010b58782880162000c25565b9350506040620010c88782880162000c25565b925050606085013567ffffffffffffffff811115620010ec57620010eb62000bfc565b5b620010fa8782880162001042565b91505092959194509250565b600681106200111457600080fd5b50565b600081359050620011288162001106565b92915050565b6000806040838503121562001148576200114762000bf7565b5b6000620011588582860162000cfe565b92505060206200116b8582860162001117565b9150509250929050565b620011808162000e9c565b81146200118c57600080fd5b50565b600081519050620011a08162001175565b92915050565b600060208284031215620011bf57620011be62000bf7565b5b6000620011cf848285016200118f565b91505092915050565b620011e38162000c01565b82525050565b600060408201905062001200600083018562000ea8565b6200120f6020830184620011d8565b9392505050565b7f4e487b7100000000000000000000000000000000000000000000000000000000600052600160045260246000fd5b600081519050919050565b600082825260208201905092915050565b60005b838110156200128157808201518184015260208101905062001264565b60008484015250505050565b60006200129a8262001245565b620012a6818562001250565b9350620012b881856020860162001261565b620012c38162000f1d565b840191505092915050565b6000608082019050620012e56000830187620011d8565b620012f46020830186620011d8565b620013036040830185620011d8565b81810360608301526200131781846200128d565b905095945050505050565b7f4e487b7100000000000000000000000000000000000000000000000000000000600052602160045260246000fd5b6006811062001365576200136462001322565b5b50565b6000819050620013788262001351565b919050565b60006200138a8262001368565b9050919050565b6200139c816200137d565b82525050565b6000602082019050620013b9600083018462001391565b9291505056fe60806040526001600c60006101000a81548160ff0219169083151502179055506000600d556000600e5560014262000038919062000268565b600f5560006010553480156200004d57600080fd5b50604051620012ca380380620012ca833981810160405281019062000073919062000467565b336000806101000a81548173ffffffffffffffffffffffffffffffffffffffff021916908373ffffffffffffffffffffffffffffffffffffffff16021790555032600160006101000a81548173ffffffffffffffffffffffffffffffffffffffff021916908373ffffffffffffffffffffffffffffffffffffffff160217905550816005819055508360028190555082600681905550826007819055506200012e600554600254620001e160201b6200064d1790919060201c565b600381905550620001526006546003546200021260201b620006791790919060201c565b60088190555080600b908162000169919062000739565b504260098190555042600160009054906101000a900473ffffffffffffffffffffffffffffffffffffffff1673ffffffffffffffffffffffffffffffffffffffff167ff9f75c99c0e3522cd19ffc66fd6c94989a3f0821d37d5c5bb176aab904c6335d60405160405180910390a350505050620008b6565b6000808284620001f2919062000268565b90508381101562000208576200020762000820565b5b8091505092915050565b60008082846200022391906200087e565b90508091505092915050565b6000819050919050565b7f4e487b7100000000000000000000000000000000000000000000000000000000600052601160045260246000fd5b600062000275826200022f565b915062000282836200022f565b92508282019050808211156200029d576200029c62000239565b5b92915050565b6000604051905090565b600080fd5b600080fd5b620002c2816200022f565b8114620002ce57600080fd5b50565b600081519050620002e281620002b7565b92915050565b600080fd5b600080fd5b6000601f19601f8301169050919050565b7f4e487b7100000000000000000000000000000000000000000000000000000000600052604160045260246000fd5b6200033d82620002f2565b810181811067ffffffffffffffff821117156200035f576200035e62000303565b5b80604052505050565b600062000374620002a3565b905062000382828262000332565b919050565b600067ffffffffffffffff821115620003a557620003a462000303565b5b620003b082620002f2565b9050602081019050919050565b60005b83811015620003dd578082015181840152602081019050620003c0565b60008484015250505050565b600062000400620003fa8462000387565b62000368565b9050828152602081018484840111156200041f576200041e620002ed565b5b6200042c848285620003bd565b509392505050565b600082601f8301126200044c576200044b620002e8565b5b81516200045e848260208601620003e9565b91505092915050565b60008060008060808587031215620004845762000483620002ad565b5b60006200049487828801620002d1565b9450506020620004a787828801620002d1565b9350506040620004ba87828801620002d1565b925050606085015167ffffffffffffffff811115620004de57620004dd620002b2565b5b620004ec8782880162000434565b91505092959194509250565b600081519050919050565b7f4e487b7100000000000000000000000000000000000000000000000000000000600052602260045260246000fd5b600060028204905060018216806200054b57607f821691505b60208210810362000561576200056062000503565b5b50919050565b60008190508160005260206000209050919050565b60006020601f8301049050919050565b600082821b905092915050565b600060088302620005cb7fffffffffffffffffffffffffffffffffffffffffffffffffffffffffffffffff826200058c565b620005d786836200058c565b95508019841693508086168417925050509392505050565b6000819050919050565b60006200061a620006146200060e846200022f565b620005ef565b6200022f565b9050919050565b6000819050919050565b6200063683620005f9565b6200064e620006458262000621565b84845462000599565b825550505050565b600090565b6200066562000656565b620006728184846200062b565b505050565b5b818110156200069a576200068e6000826200065b565b60018101905062000678565b5050565b601f821115620006e957620006b38162000567565b620006be846200057c565b81016020851015620006ce578190505b620006e6620006dd856200057c565b83018262000677565b50505b505050565b600082821c905092915050565b60006200070e60001984600802620006ee565b1980831691505092915050565b6000620007298383620006fb565b9150826002028217905092915050565b6200074482620004f8565b67ffffffffffffffff81111562000760576200075f62000303565b5b6200076c825462000532565b620007798282856200069e565b600060209050601f831160018114620007b157600084156200079c578287015190505b620007a885826200071b565b86555062000818565b601f198416620007c18662000567565b60005b82811015620007eb57848901518255600182019150602085019450602081019050620007c4565b868310156200080b578489015162000807601f891682620006fb565b8355505b6001600288020188555050505b505050505050565b7f4e487b7100000000000000000000000000000000000000000000000000000000600052600160045260246000fd5b7f4e487b7100000000000000000000000000000000000000000000000000000000600052601260045260246000fd5b60006200088b826200022f565b915062000898836200022f565b925082620008ab57620008aa6200084f565b5b828204905092915050565b610a0480620008c66000396000f3fe6080604052600436106100555760003560e01c806312065fe01461005a578063268f11531461008557806328fd10d7146100ae57806329c68dc1146100eb5780638da5cb5b14610116578063e8b5e51f14610141575b600080fd5b34801561006657600080fd5b5061006f61014b565b60405161007c91906106d4565b60405180910390f35b34801561009157600080fd5b506100ac60048036038101906100a79190610719565b610153565b005b3480156100ba57600080fd5b506100d560048036038101906100d091906107a4565b610227565b6040516100e291906107ec565b60405180910390f35b3480156100f757600080fd5b50610100610247565b60405161010d91906107ec565b60405180910390f35b34801561012257600080fd5b5061012b610320565b6040516101389190610816565b60405180910390f35b610149610344565b005b600047905090565b60008054906101000a900473ffffffffffffffffffffffffffffffffffffffff1673ffffffffffffffffffffffffffffffffffffffff163373ffffffffffffffffffffffffffffffffffffffff16146101ab57600080fd5b80601560006101000a81548160ff021916908360058111156101d0576101cf610831565b5b021790555042601560009054906101000a900460ff1660058111156101f8576101f7610831565b5b7faaae373901e745122c2e0925ad006227969c6cd190b7d5ea2fb7fdbd1d955b3560405160405180910390a350565b60116020528060005260406000206000915054906101000a900460ff1681565b60008060009054906101000a900473ffffffffffffffffffffffffffffffffffffffff1673ffffffffffffffffffffffffffffffffffffffff163373ffffffffffffffffffffffffffffffffffffffff16146102a257600080fd5b600c60009054906101000a900460ff1615600c60006101000a81548160ff02191690831515021790555042600c60009054906101000a900460ff1615157f160914ea27c60aa29a5f3a69d74e6069869de36e38939de1e0a66b921d8623d260405160405180910390a3600c60009054906101000a900460ff16905090565b60008054906101000a900473ffffffffffffffffffffffffffffffffffffffff1681565b6000600581111561035857610357610831565b5b601560009054906101000a900460ff16600581111561037a57610379610831565b5b1461038457600080fd5b6000600254471061064a576103a46002544761069490919063ffffffff16565b90506103b9814761069490919063ffffffff16565b50348111156103cb576103ca610860565b5b60008111156104db573373ffffffffffffffffffffffffffffffffffffffff166108fc829081150290604051600060405180830381858888f1935050505015801561041a573d6000803e3d6000fd5b5042813373ffffffffffffffffffffffffffffffffffffffff167f566803f6e271b911c84f87631bcd310d6a6510bf8882577a96fc76975703e43160405160405180910390a46001601560006101000a81548160ff0219169083600581111561048657610485610831565b5b021790555042601560009054906101000a900460ff1660058111156104ae576104ad610831565b5b7faaae373901e745122c2e0925ad006227969c6cd190b7d5ea2fb7fdbd1d955b3560405160405180910390a35b6001601160003373ffffffffffffffffffffffffffffffffffffffff1673ffffffffffffffffffffffffffffffffffffffff16815260200190815260200160002060006101000a81548160ff021916908315150217905550600d6000815480929190610546906108be565b91905055506105af610561823461069490919063ffffffff16565b601260003373ffffffffffffffffffffffffffffffffffffffff1673ffffffffffffffffffffffffffffffffffffffff1681526020019081526020016000205461064d90919063ffffffff16565b601260003373ffffffffffffffffffffffffffffffffffffffff1673ffffffffffffffffffffffffffffffffffffffff1681526020019081526020016000208190555042610606823461069490919063ffffffff16565b3373ffffffffffffffffffffffffffffffffffffffff167f1b0969ce7f5b05c5e0969329a05cdbd7e2e2f6cee33ba26fd6e6bbcff82312cd60405160405180910390a45b50565b600080828461065c9190610906565b90508381101561066f5761066e610860565b5b8091505092915050565b60008082846106889190610969565b90508091505092915050565b6000828211156106a7576106a6610860565b5b81836106b3919061099a565b905092915050565b6000819050919050565b6106ce816106bb565b82525050565b60006020820190506106e960008301846106c5565b92915050565b600080fd5b6006811061070157600080fd5b50565b600081359050610713816106f4565b92915050565b60006020828403121561072f5761072e6106ef565b5b600061073d84828501610704565b91505092915050565b600073ffffffffffffffffffffffffffffffffffffffff82169050919050565b600061077182610746565b9050919050565b61078181610766565b811461078c57600080fd5b50565b60008135905061079e81610778565b92915050565b6000602082840312156107ba576107b96106ef565b5b60006107c88482850161078f565b91505092915050565b60008115159050919050565b6107e6816107d1565b82525050565b600060208201905061080160008301846107dd565b92915050565b61081081610766565b82525050565b600060208201905061082b6000830184610807565b92915050565b7f4e487b7100000000000000000000000000000000000000000000000000000000600052602160045260246000fd5b7f4e487b7100000000000000000000000000000000000000000000000000000000600052600160045260246000fd5b7f4e487b7100000000000000000000000000000000000000000000000000000000600052601160045260246000fd5b60006108c9826106bb565b91507fffffffffffffffffffffffffffffffffffffffffffffffffffffffffffffffff82036108fb576108fa61088f565b5b600182019050919050565b6000610911826106bb565b915061091c836106bb565b92508282019050808211156109345761093361088f565b5b92915050565b7f4e487b7100000000000000000000000000000000000000000000000000000000600052601260045260246000fd5b6000610974826106bb565b915061097f836106bb565b92508261098f5761098e61093a565b5b828204905092915050565b60006109a5826106bb565b91506109b0836106bb565b92508282039050818111156109c8576109c761088f565b5b9291505056fea2646970667358221220c87f57b33d8b4ccb5fdae77e767876179fb2c637424bed644ada503411c0f96764736f6c63430008120033a2646970667358221220a921201ed12efb8c1ed0e16d5ff24c70d984dd2e734eda3330af4e793008f6f164736f6c63430008120033",
					"opcodes": "PUSH1 0x80 PUSH1 0x40 MSTORE CALLVALUE DUP1 ISZERO PUSH2 0x10 JUMPI PUSH1 0x0 DUP1 REVERT JUMPDEST POP CALLER PUSH1 0x0 DUP1 PUSH2 0x100 EXP DUP2 SLOAD DUP2 PUSH20 0xFFFFFFFFFFFFFFFFFFFFFFFFFFFFFFFFFFFFFFFF MUL NOT AND SWAP1 DUP4 PUSH20 0xFFFFFFFFFFFFFFFFFFFFFFFFFFFFFFFFFFFFFFFF AND MUL OR SWAP1 SSTORE POP PUSH2 0x26BF DUP1 PUSH2 0x60 PUSH1 0x0 CODECOPY PUSH1 0x0 RETURN INVALID PUSH1 0x80 PUSH1 0x40 MSTORE CALLVALUE DUP1 ISZERO PUSH3 0x11 JUMPI PUSH1 0x0 DUP1 REVERT JUMPDEST POP PUSH1 0x4 CALLDATASIZE LT PUSH3 0xA0 JUMPI PUSH1 0x0 CALLDATALOAD PUSH1 0xE0 SHR DUP1 PUSH4 0x8DA5CB5B GT PUSH3 0x6F JUMPI DUP1 PUSH4 0x8DA5CB5B EQ PUSH3 0x13F JUMPI DUP1 PUSH4 0xA87430BA EQ PUSH3 0x161 JUMPI DUP1 PUSH4 0xBB9E4247 EQ PUSH3 0x199 JUMPI DUP1 PUSH4 0xEBB53E89 EQ PUSH3 0x1CF JUMPI DUP1 PUSH4 0xFA838E54 EQ PUSH3 0x205 JUMPI PUSH3 0xA0 JUMP JUMPDEST DUP1 PUSH4 0x36A1C22 EQ PUSH3 0xA5 JUMPI DUP1 PUSH4 0x59658C48 EQ PUSH3 0xDB JUMPI DUP1 PUSH4 0x5A524D07 EQ PUSH3 0xFB JUMPI DUP1 PUSH4 0x823A71AF EQ PUSH3 0x11D JUMPI JUMPDEST PUSH1 0x0 DUP1 REVERT JUMPDEST PUSH3 0xC3 PUSH1 0x4 DUP1 CALLDATASIZE SUB DUP2 ADD SWAP1 PUSH3 0xBD SWAP2 SWAP1 PUSH3 0xC3C JUMP JUMPDEST PUSH3 0x225 JUMP JUMPDEST PUSH1 0x40 MLOAD PUSH3 0xD2 SWAP2 SWAP1 PUSH3 0xCB3 JUMP JUMPDEST PUSH1 0x40 MLOAD DUP1 SWAP2 SUB SWAP1 RETURN JUMPDEST PUSH3 0xF9 PUSH1 0x4 DUP1 CALLDATASIZE SUB DUP2 ADD SWAP1 PUSH3 0xF3 SWAP2 SWAP1 PUSH3 0xD15 JUMP JUMPDEST PUSH3 0x265 JUMP JUMPDEST STOP JUMPDEST PUSH3 0x105 PUSH3 0x387 JUMP JUMPDEST PUSH1 0x40 MLOAD PUSH3 0x114 SWAP2 SWAP1 PUSH3 0xE15 JUMP JUMPDEST PUSH1 0x40 MLOAD DUP1 SWAP2 SUB SWAP1 RETURN JUMPDEST PUSH3 0x127 PUSH3 0x457 JUMP JUMPDEST PUSH1 0x40 MLOAD PUSH3 0x136 SWAP2 SWAP1 PUSH3 0xE15 JUMP JUMPDEST PUSH1 0x40 MLOAD DUP1 SWAP2 SUB SWAP1 RETURN JUMPDEST PUSH3 0x149 PUSH3 0x4E7 JUMP JUMPDEST PUSH1 0x40 MLOAD PUSH3 0x158 SWAP2 SWAP1 PUSH3 0xCB3 JUMP JUMPDEST PUSH1 0x40 MLOAD DUP1 SWAP2 SUB SWAP1 RETURN JUMPDEST PUSH3 0x17F PUSH1 0x4 DUP1 CALLDATASIZE SUB DUP2 ADD SWAP1 PUSH3 0x179 SWAP2 SWAP1 PUSH3 0xE6A JUMP JUMPDEST PUSH3 0x50B JUMP JUMPDEST PUSH1 0x40 MLOAD PUSH3 0x190 SWAP4 SWAP3 SWAP2 SWAP1 PUSH3 0xEB9 JUMP JUMPDEST PUSH1 0x40 MLOAD DUP1 SWAP2 SUB SWAP1 RETURN JUMPDEST PUSH3 0x1B7 PUSH1 0x4 DUP1 CALLDATASIZE SUB DUP2 ADD SWAP1 PUSH3 0x1B1 SWAP2 SWAP1 PUSH3 0xE6A JUMP JUMPDEST PUSH3 0x56F JUMP JUMPDEST PUSH1 0x40 MLOAD PUSH3 0x1C6 SWAP2 SWAP1 PUSH3 0xEF6 JUMP JUMPDEST PUSH1 0x40 MLOAD DUP1 SWAP2 SUB SWAP1 RETURN JUMPDEST PUSH3 0x1ED PUSH1 0x4 DUP1 CALLDATASIZE SUB DUP2 ADD SWAP1 PUSH3 0x1E7 SWAP2 SWAP1 PUSH3 0x1075 JUMP JUMPDEST PUSH3 0x6C3 JUMP JUMPDEST PUSH1 0x40 MLOAD PUSH3 0x1FC SWAP2 SWAP1 PUSH3 0xCB3 JUMP JUMPDEST PUSH1 0x40 MLOAD DUP1 SWAP2 SUB SWAP1 RETURN JUMPDEST PUSH3 0x223 PUSH1 0x4 DUP1 CALLDATASIZE SUB DUP2 ADD SWAP1 PUSH3 0x21D SWAP2 SWAP1 PUSH3 0x112E JUMP JUMPDEST PUSH3 0xAB3 JUMP JUMPDEST STOP JUMPDEST PUSH1 0x2 DUP2 DUP2 SLOAD DUP2 LT PUSH3 0x236 JUMPI PUSH1 0x0 DUP1 REVERT JUMPDEST SWAP1 PUSH1 0x0 MSTORE PUSH1 0x20 PUSH1 0x0 KECCAK256 ADD PUSH1 0x0 SWAP2 POP SLOAD SWAP1 PUSH2 0x100 EXP SWAP1 DIV PUSH20 0xFFFFFFFFFFFFFFFFFFFFFFFFFFFFFFFFFFFFFFFF AND DUP2 JUMP JUMPDEST PUSH1 0x0 DUP1 SLOAD SWAP1 PUSH2 0x100 EXP SWAP1 DIV PUSH20 0xFFFFFFFFFFFFFFFFFFFFFFFFFFFFFFFFFFFFFFFF AND PUSH20 0xFFFFFFFFFFFFFFFFFFFFFFFFFFFFFFFFFFFFFFFF AND CALLER PUSH20 0xFFFFFFFFFFFFFFFFFFFFFFFFFFFFFFFFFFFFFFFF AND EQ PUSH3 0x2BE JUMPI PUSH1 0x0 DUP1 REVERT JUMPDEST PUSH1 0x0 DUP2 SWAP1 POP PUSH1 0x0 DUP2 PUSH20 0xFFFFFFFFFFFFFFFFFFFFFFFFFFFFFFFFFFFFFFFF AND PUSH4 0x29C68DC1 PUSH1 0x40 MLOAD DUP2 PUSH4 0xFFFFFFFF AND PUSH1 0xE0 SHL DUP2 MSTORE PUSH1 0x4 ADD PUSH1 0x20 PUSH1 0x40 MLOAD DUP1 DUP4 SUB DUP2 PUSH1 0x0 DUP8 GAS CALL ISZERO DUP1 ISZERO PUSH3 0x313 JUMPI RETURNDATASIZE PUSH1 0x0 DUP1 RETURNDATACOPY RETURNDATASIZE PUSH1 0x0 REVERT JUMPDEST POP POP POP POP PUSH1 0x40 MLOAD RETURNDATASIZE PUSH1 0x1F NOT PUSH1 0x1F DUP3 ADD AND DUP3 ADD DUP1 PUSH1 0x40 MSTORE POP DUP2 ADD SWAP1 PUSH3 0x339 SWAP2 SWAP1 PUSH3 0x11A6 JUMP JUMPDEST SWAP1 POP TIMESTAMP DUP2 ISZERO ISZERO DUP4 PUSH20 0xFFFFFFFFFFFFFFFFFFFFFFFFFFFFFFFFFFFFFFFF AND PUSH32 0x25270ACF0EAB637903A9CD906E32D2AC17CE44DB6C743BA5812F2924E84FF8D6 PUSH1 0x40 MLOAD PUSH1 0x40 MLOAD DUP1 SWAP2 SUB SWAP1 LOG4 POP POP POP JUMP JUMPDEST PUSH1 0x60 PUSH1 0x1 PUSH1 0x0 CALLER PUSH20 0xFFFFFFFFFFFFFFFFFFFFFFFFFFFFFFFFFFFFFFFF AND PUSH20 0xFFFFFFFFFFFFFFFFFFFFFFFFFFFFFFFFFFFFFFFF AND DUP2 MSTORE PUSH1 0x20 ADD SWAP1 DUP2 MSTORE PUSH1 0x20 ADD PUSH1 0x0 KECCAK256 PUSH1 0x1 ADD DUP1 SLOAD DUP1 PUSH1 0x20 MUL PUSH1 0x20 ADD PUSH1 0x40 MLOAD SWAP1 DUP2 ADD PUSH1 0x40 MSTORE DUP1 SWAP3 SWAP2 SWAP1 DUP2 DUP2 MSTORE PUSH1 0x20 ADD DUP3 DUP1 SLOAD DUP1 ISZERO PUSH3 0x44D JUMPI PUSH1 0x20 MUL DUP3 ADD SWAP2 SWAP1 PUSH1 0x0 MSTORE PUSH1 0x20 PUSH1 0x0 KECCAK256 SWAP1 JUMPDEST DUP2 PUSH1 0x0 SWAP1 SLOAD SWAP1 PUSH2 0x100 EXP SWAP1 DIV PUSH20 0xFFFFFFFFFFFFFFFFFFFFFFFFFFFFFFFFFFFFFFFF AND PUSH20 0xFFFFFFFFFFFFFFFFFFFFFFFFFFFFFFFFFFFFFFFF AND DUP2 MSTORE PUSH1 0x20 ADD SWAP1 PUSH1 0x1 ADD SWAP1 DUP1 DUP4 GT PUSH3 0x402 JUMPI JUMPDEST POP POP POP POP POP SWAP1 POP SWAP1 JUMP JUMPDEST PUSH1 0x60 PUSH1 0x2 DUP1 SLOAD DUP1 PUSH1 0x20 MUL PUSH1 0x20 ADD PUSH1 0x40 MLOAD SWAP1 DUP2 ADD PUSH1 0x40 MSTORE DUP1 SWAP3 SWAP2 SWAP1 DUP2 DUP2 MSTORE PUSH1 0x20 ADD DUP3 DUP1 SLOAD DUP1 ISZERO PUSH3 0x4DD JUMPI PUSH1 0x20 MUL DUP3 ADD SWAP2 SWAP1 PUSH1 0x0 MSTORE PUSH1 0x20 PUSH1 0x0 KECCAK256 SWAP1 JUMPDEST DUP2 PUSH1 0x0 SWAP1 SLOAD SWAP1 PUSH2 0x100 EXP SWAP1 DIV PUSH20 0xFFFFFFFFFFFFFFFFFFFFFFFFFFFFFFFFFFFFFFFF AND PUSH20 0xFFFFFFFFFFFFFFFFFFFFFFFFFFFFFFFFFFFFFFFF AND DUP2 MSTORE PUSH1 0x20 ADD SWAP1 PUSH1 0x1 ADD SWAP1 DUP1 DUP4 GT PUSH3 0x492 JUMPI JUMPDEST POP POP POP POP POP SWAP1 POP SWAP1 JUMP JUMPDEST PUSH1 0x0 DUP1 SLOAD SWAP1 PUSH2 0x100 EXP SWAP1 DIV PUSH20 0xFFFFFFFFFFFFFFFFFFFFFFFFFFFFFFFFFFFFFFFF AND DUP2 JUMP JUMPDEST PUSH1 0x1 PUSH1 0x20 MSTORE DUP1 PUSH1 0x0 MSTORE PUSH1 0x40 PUSH1 0x0 KECCAK256 PUSH1 0x0 SWAP2 POP SWAP1 POP DUP1 PUSH1 0x0 ADD PUSH1 0x0 SWAP1 SLOAD SWAP1 PUSH2 0x100 EXP SWAP1 DIV PUSH1 0xFF AND SWAP1 DUP1 PUSH1 0x0 ADD PUSH1 0x1 SWAP1 SLOAD SWAP1 PUSH2 0x100 EXP SWAP1 DIV PUSH20 0xFFFFFFFFFFFFFFFFFFFFFFFFFFFFFFFFFFFFFFFF AND SWAP1 DUP1 PUSH1 0x0 ADD PUSH1 0x15 SWAP1 SLOAD SWAP1 PUSH2 0x100 EXP SWAP1 DIV PUSH1 0xFF AND SWAP1 POP DUP4 JUMP JUMPDEST PUSH1 0x0 PUSH1 0x1 DUP1 PUSH1 0x0 DUP5 PUSH20 0xFFFFFFFFFFFFFFFFFFFFFFFFFFFFFFFFFFFFFFFF AND PUSH20 0xFFFFFFFFFFFFFFFFFFFFFFFFFFFFFFFFFFFFFFFF AND DUP2 MSTORE PUSH1 0x20 ADD SWAP1 DUP2 MSTORE PUSH1 0x20 ADD PUSH1 0x0 KECCAK256 PUSH1 0x0 ADD PUSH1 0x15 PUSH2 0x100 EXP DUP2 SLOAD DUP2 PUSH1 0xFF MUL NOT AND SWAP1 DUP4 ISZERO ISZERO MUL OR SWAP1 SSTORE POP DUP2 PUSH20 0xFFFFFFFFFFFFFFFFFFFFFFFFFFFFFFFFFFFFFFFF AND PUSH32 0xBAFB199A9909A7BE73CEEAF6193DC9EA119EF469120D998D5F550140C0B13B54 PUSH1 0x1 PUSH1 0x0 DUP6 PUSH20 0xFFFFFFFFFFFFFFFFFFFFFFFFFFFFFFFFFFFFFFFF AND PUSH20 0xFFFFFFFFFFFFFFFFFFFFFFFFFFFFFFFFFFFFFFFF AND DUP2 MSTORE PUSH1 0x20 ADD SWAP1 DUP2 MSTORE PUSH1 0x20 ADD PUSH1 0x0 KECCAK256 PUSH1 0x0 ADD PUSH1 0x15 SWAP1 SLOAD SWAP1 PUSH2 0x100 EXP SWAP1 DIV PUSH1 0xFF AND TIMESTAMP PUSH1 0x40 MLOAD PUSH3 0x664 SWAP3 SWAP2 SWAP1 PUSH3 0x11E9 JUMP JUMPDEST PUSH1 0x40 MLOAD DUP1 SWAP2 SUB SWAP1 LOG2 PUSH1 0x1 PUSH1 0x0 DUP4 PUSH20 0xFFFFFFFFFFFFFFFFFFFFFFFFFFFFFFFFFFFFFFFF AND PUSH20 0xFFFFFFFFFFFFFFFFFFFFFFFFFFFFFFFFFFFFFFFF AND DUP2 MSTORE PUSH1 0x20 ADD SWAP1 DUP2 MSTORE PUSH1 0x20 ADD PUSH1 0x0 KECCAK256 PUSH1 0x0 ADD PUSH1 0x15 SWAP1 SLOAD SWAP1 PUSH2 0x100 EXP SWAP1 DIV PUSH1 0xFF AND SWAP1 POP SWAP2 SWAP1 POP JUMP JUMPDEST PUSH1 0x0 DUP1 ISZERO ISZERO PUSH1 0x1 PUSH1 0x0 CALLER PUSH20 0xFFFFFFFFFFFFFFFFFFFFFFFFFFFFFFFFFFFFFFFF AND PUSH20 0xFFFFFFFFFFFFFFFFFFFFFFFFFFFFFFFFFFFFFFFF AND DUP2 MSTORE PUSH1 0x20 ADD SWAP1 DUP2 MSTORE PUSH1 0x20 ADD PUSH1 0x0 KECCAK256 PUSH1 0x0 ADD PUSH1 0x0 SWAP1 SLOAD SWAP1 PUSH2 0x100 EXP SWAP1 DIV PUSH1 0xFF AND ISZERO ISZERO EQ PUSH3 0x725 JUMPI PUSH1 0x0 DUP1 REVERT JUMPDEST PUSH1 0x0 ISZERO ISZERO PUSH1 0x1 PUSH1 0x0 CALLER PUSH20 0xFFFFFFFFFFFFFFFFFFFFFFFFFFFFFFFFFFFFFFFF AND PUSH20 0xFFFFFFFFFFFFFFFFFFFFFFFFFFFFFFFFFFFFFFFF AND DUP2 MSTORE PUSH1 0x20 ADD SWAP1 DUP2 MSTORE PUSH1 0x20 ADD PUSH1 0x0 KECCAK256 PUSH1 0x0 ADD PUSH1 0x15 SWAP1 SLOAD SWAP1 PUSH2 0x100 EXP SWAP1 DIV PUSH1 0xFF AND ISZERO ISZERO EQ PUSH3 0x786 JUMPI PUSH1 0x0 DUP1 REVERT JUMPDEST PUSH1 0x0 PUSH20 0xFFFFFFFFFFFFFFFFFFFFFFFFFFFFFFFFFFFFFFFF AND PUSH1 0x1 PUSH1 0x0 CALLER PUSH20 0xFFFFFFFFFFFFFFFFFFFFFFFFFFFFFFFFFFFFFFFF AND PUSH20 0xFFFFFFFFFFFFFFFFFFFFFFFFFFFFFFFFFFFFFFFF AND DUP2 MSTORE PUSH1 0x20 ADD SWAP1 DUP2 MSTORE PUSH1 0x20 ADD PUSH1 0x0 KECCAK256 PUSH1 0x0 ADD PUSH1 0x1 SWAP1 SLOAD SWAP1 PUSH2 0x100 EXP SWAP1 DIV PUSH20 0xFFFFFFFFFFFFFFFFFFFFFFFFFFFFFFFFFFFFFFFF AND PUSH20 0xFFFFFFFFFFFFFFFFFFFFFFFFFFFFFFFFFFFFFFFF AND EQ PUSH3 0x828 JUMPI PUSH3 0x827 PUSH3 0x1216 JUMP JUMPDEST JUMPDEST PUSH1 0x1 DUP1 PUSH1 0x0 CALLER PUSH20 0xFFFFFFFFFFFFFFFFFFFFFFFFFFFFFFFFFFFFFFFF AND PUSH20 0xFFFFFFFFFFFFFFFFFFFFFFFFFFFFFFFFFFFFFFFF AND DUP2 MSTORE PUSH1 0x20 ADD SWAP1 DUP2 MSTORE PUSH1 0x20 ADD PUSH1 0x0 KECCAK256 PUSH1 0x0 ADD PUSH1 0x0 PUSH2 0x100 EXP DUP2 SLOAD DUP2 PUSH1 0xFF MUL NOT AND SWAP1 DUP4 ISZERO ISZERO MUL OR SWAP1 SSTORE POP PUSH1 0x0 DUP6 DUP6 DUP6 DUP6 PUSH1 0x40 MLOAD PUSH3 0x896 SWAP1 PUSH3 0xBDF JUMP JUMPDEST PUSH3 0x8A5 SWAP5 SWAP4 SWAP3 SWAP2 SWAP1 PUSH3 0x12CE JUMP JUMPDEST PUSH1 0x40 MLOAD DUP1 SWAP2 SUB SWAP1 PUSH1 0x0 CREATE DUP1 ISZERO DUP1 ISZERO PUSH3 0x8C2 JUMPI RETURNDATASIZE PUSH1 0x0 DUP1 RETURNDATACOPY RETURNDATASIZE PUSH1 0x0 REVERT JUMPDEST POP SWAP1 POP DUP1 PUSH1 0x1 PUSH1 0x0 CALLER PUSH20 0xFFFFFFFFFFFFFFFFFFFFFFFFFFFFFFFFFFFFFFFF AND PUSH20 0xFFFFFFFFFFFFFFFFFFFFFFFFFFFFFFFFFFFFFFFF AND DUP2 MSTORE PUSH1 0x20 ADD SWAP1 DUP2 MSTORE PUSH1 0x20 ADD PUSH1 0x0 KECCAK256 PUSH1 0x0 ADD PUSH1 0x1 PUSH2 0x100 EXP DUP2 SLOAD DUP2 PUSH20 0xFFFFFFFFFFFFFFFFFFFFFFFFFFFFFFFFFFFFFFFF MUL NOT AND SWAP1 DUP4 PUSH20 0xFFFFFFFFFFFFFFFFFFFFFFFFFFFFFFFFFFFFFFFF AND MUL OR SWAP1 SSTORE POP PUSH1 0x2 DUP2 SWAP1 DUP1 PUSH1 0x1 DUP2 SLOAD ADD DUP1 DUP3 SSTORE DUP1 SWAP2 POP POP PUSH1 0x1 SWAP1 SUB SWAP1 PUSH1 0x0 MSTORE PUSH1 0x20 PUSH1 0x0 KECCAK256 ADD PUSH1 0x0 SWAP1 SWAP2 SWAP1 SWAP2 SWAP1 SWAP2 PUSH2 0x100 EXP DUP2 SLOAD DUP2 PUSH20 0xFFFFFFFFFFFFFFFFFFFFFFFFFFFFFFFFFFFFFFFF MUL NOT AND SWAP1 DUP4 PUSH20 0xFFFFFFFFFFFFFFFFFFFFFFFFFFFFFFFFFFFFFFFF AND MUL OR SWAP1 SSTORE POP PUSH1 0x1 PUSH1 0x0 CALLER PUSH20 0xFFFFFFFFFFFFFFFFFFFFFFFFFFFFFFFFFFFFFFFF AND PUSH20 0xFFFFFFFFFFFFFFFFFFFFFFFFFFFFFFFFFFFFFFFF AND DUP2 MSTORE PUSH1 0x20 ADD SWAP1 DUP2 MSTORE PUSH1 0x20 ADD PUSH1 0x0 KECCAK256 PUSH1 0x1 ADD DUP2 SWAP1 DUP1 PUSH1 0x1 DUP2 SLOAD ADD DUP1 DUP3 SSTORE DUP1 SWAP2 POP POP PUSH1 0x1 SWAP1 SUB SWAP1 PUSH1 0x0 MSTORE PUSH1 0x20 PUSH1 0x0 KECCAK256 ADD PUSH1 0x0 SWAP1 SWAP2 SWAP1 SWAP2 SWAP1 SWAP2 PUSH2 0x100 EXP DUP2 SLOAD DUP2 PUSH20 0xFFFFFFFFFFFFFFFFFFFFFFFFFFFFFFFFFFFFFFFF MUL NOT AND SWAP1 DUP4 PUSH20 0xFFFFFFFFFFFFFFFFFFFFFFFFFFFFFFFFFFFFFFFF AND MUL OR SWAP1 SSTORE POP TIMESTAMP CALLER PUSH20 0xFFFFFFFFFFFFFFFFFFFFFFFFFFFFFFFFFFFFFFFF AND DUP3 PUSH20 0xFFFFFFFFFFFFFFFFFFFFFFFFFFFFFFFFFFFFFFFF AND PUSH32 0xA0C75B76492543C8EAFDC7E35272287BD6F229DCF0F6C22429343044718C5108 PUSH1 0x40 MLOAD PUSH1 0x40 MLOAD DUP1 SWAP2 SUB SWAP1 LOG4 DUP1 SWAP2 POP POP SWAP5 SWAP4 POP POP POP POP JUMP JUMPDEST PUSH1 0x0 DUP1 SLOAD SWAP1 PUSH2 0x100 EXP SWAP1 DIV PUSH20 0xFFFFFFFFFFFFFFFFFFFFFFFFFFFFFFFFFFFFFFFF AND PUSH20 0xFFFFFFFFFFFFFFFFFFFFFFFFFFFFFFFFFFFFFFFF AND CALLER PUSH20 0xFFFFFFFFFFFFFFFFFFFFFFFFFFFFFFFFFFFFFFFF AND EQ PUSH3 0xB0C JUMPI PUSH1 0x0 DUP1 REVERT JUMPDEST PUSH1 0x0 DUP3 SWAP1 POP DUP1 PUSH20 0xFFFFFFFFFFFFFFFFFFFFFFFFFFFFFFFFFFFFFFFF AND PUSH4 0x268F1153 DUP4 PUSH1 0x40 MLOAD DUP3 PUSH4 0xFFFFFFFF AND PUSH1 0xE0 SHL DUP2 MSTORE PUSH1 0x4 ADD PUSH3 0xB4C SWAP2 SWAP1 PUSH3 0x13A2 JUMP JUMPDEST PUSH1 0x0 PUSH1 0x40 MLOAD DUP1 DUP4 SUB DUP2 PUSH1 0x0 DUP8 DUP1 EXTCODESIZE ISZERO DUP1 ISZERO PUSH3 0xB67 JUMPI PUSH1 0x0 DUP1 REVERT JUMPDEST POP GAS CALL ISZERO DUP1 ISZERO PUSH3 0xB7C JUMPI RETURNDATASIZE PUSH1 0x0 DUP1 RETURNDATACOPY RETURNDATASIZE PUSH1 0x0 REVERT JUMPDEST POP POP POP POP TIMESTAMP DUP3 PUSH1 0x5 DUP2 GT ISZERO PUSH3 0xB97 JUMPI PUSH3 0xB96 PUSH3 0x1322 JUMP JUMPDEST JUMPDEST DUP3 PUSH20 0xFFFFFFFFFFFFFFFFFFFFFFFFFFFFFFFFFFFFFFFF AND PUSH32 0x9AE5127F6D87E374B5901CE23A9467E504811C54C03DDA8741AD44A35A361466 PUSH1 0x40 MLOAD PUSH1 0x40 MLOAD DUP1 SWAP2 SUB SWAP1 LOG4 POP POP POP JUMP JUMPDEST PUSH2 0x12CA DUP1 PUSH3 0x13C0 DUP4 CODECOPY ADD SWAP1 JUMP JUMPDEST PUSH1 0x0 PUSH1 0x40 MLOAD SWAP1 POP SWAP1 JUMP JUMPDEST PUSH1 0x0 DUP1 REVERT JUMPDEST PUSH1 0x0 DUP1 REVERT JUMPDEST PUSH1 0x0 DUP2 SWAP1 POP SWAP2 SWAP1 POP JUMP JUMPDEST PUSH3 0xC16 DUP2 PUSH3 0xC01 JUMP JUMPDEST DUP2 EQ PUSH3 0xC22 JUMPI PUSH1 0x0 DUP1 REVERT JUMPDEST POP JUMP JUMPDEST PUSH1 0x0 DUP2 CALLDATALOAD SWAP1 POP PUSH3 0xC36 DUP2 PUSH3 0xC0B JUMP JUMPDEST SWAP3 SWAP2 POP POP JUMP JUMPDEST PUSH1 0x0 PUSH1 0x20 DUP3 DUP5 SUB SLT ISZERO PUSH3 0xC55 JUMPI PUSH3 0xC54 PUSH3 0xBF7 JUMP JUMPDEST JUMPDEST PUSH1 0x0 PUSH3 0xC65 DUP5 DUP3 DUP6 ADD PUSH3 0xC25 JUMP JUMPDEST SWAP2 POP POP SWAP3 SWAP2 POP POP JUMP JUMPDEST PUSH1 0x0 PUSH20 0xFFFFFFFFFFFFFFFFFFFFFFFFFFFFFFFFFFFFFFFF DUP3 AND SWAP1 POP SWAP2 SWAP1 POP JUMP JUMPDEST PUSH1 0x0 PUSH3 0xC9B DUP3 PUSH3 0xC6E JUMP JUMPDEST SWAP1 POP SWAP2 SWAP1 POP JUMP JUMPDEST PUSH3 0xCAD DUP2 PUSH3 0xC8E JUMP JUMPDEST DUP3 MSTORE POP POP JUMP JUMPDEST PUSH1 0x0 PUSH1 0x20 DUP3 ADD SWAP1 POP PUSH3 0xCCA PUSH1 0x0 DUP4 ADD DUP5 PUSH3 0xCA2 JUMP JUMPDEST SWAP3 SWAP2 POP POP JUMP JUMPDEST PUSH1 0x0 PUSH3 0xCDD DUP3 PUSH3 0xC8E JUMP JUMPDEST SWAP1 POP SWAP2 SWAP1 POP JUMP JUMPDEST PUSH3 0xCEF DUP2 PUSH3 0xCD0 JUMP JUMPDEST DUP2 EQ PUSH3 0xCFB JUMPI PUSH1 0x0 DUP1 REVERT JUMPDEST POP JUMP JUMPDEST PUSH1 0x0 DUP2 CALLDATALOAD SWAP1 POP PUSH3 0xD0F DUP2 PUSH3 0xCE4 JUMP JUMPDEST SWAP3 SWAP2 POP POP JUMP JUMPDEST PUSH1 0x0 PUSH1 0x20 DUP3 DUP5 SUB SLT ISZERO PUSH3 0xD2E JUMPI PUSH3 0xD2D PUSH3 0xBF7 JUMP JUMPDEST JUMPDEST PUSH1 0x0 PUSH3 0xD3E DUP5 DUP3 DUP6 ADD PUSH3 0xCFE JUMP JUMPDEST SWAP2 POP POP SWAP3 SWAP2 POP POP JUMP JUMPDEST PUSH1 0x0 DUP2 MLOAD SWAP1 POP SWAP2 SWAP1 POP JUMP JUMPDEST PUSH1 0x0 DUP3 DUP3 MSTORE PUSH1 0x20 DUP3 ADD SWAP1 POP SWAP3 SWAP2 POP POP JUMP JUMPDEST PUSH1 0x0 DUP2 SWAP1 POP PUSH1 0x20 DUP3 ADD SWAP1 POP SWAP2 SWAP1 POP JUMP JUMPDEST PUSH3 0xD7E DUP2 PUSH3 0xC8E JUMP JUMPDEST DUP3 MSTORE POP POP JUMP JUMPDEST PUSH1 0x0 PUSH3 0xD92 DUP4 DUP4 PUSH3 0xD73 JUMP JUMPDEST PUSH1 0x20 DUP4 ADD SWAP1 POP SWAP3 SWAP2 POP POP JUMP JUMPDEST PUSH1 0x0 PUSH1 0x20 DUP3 ADD SWAP1 POP SWAP2 SWAP1 POP JUMP JUMPDEST PUSH1 0x0 PUSH3 0xDB8 DUP3 PUSH3 0xD47 JUMP JUMPDEST PUSH3 0xDC4 DUP2 DUP6 PUSH3 0xD52 JUMP JUMPDEST SWAP4 POP PUSH3 0xDD1 DUP4 PUSH3 0xD63 JUMP JUMPDEST DUP1 PUSH1 0x0 JUMPDEST DUP4 DUP2 LT ISZERO PUSH3 0xE08 JUMPI DUP2 MLOAD PUSH3 0xDEC DUP9 DUP3 PUSH3 0xD84 JUMP JUMPDEST SWAP8 POP PUSH3 0xDF9 DUP4 PUSH3 0xD9E JUMP JUMPDEST SWAP3 POP POP PUSH1 0x1 DUP2 ADD SWAP1 POP PUSH3 0xDD5 JUMP JUMPDEST POP DUP6 SWAP4 POP POP POP POP SWAP3 SWAP2 POP POP JUMP JUMPDEST PUSH1 0x0 PUSH1 0x20 DUP3 ADD SWAP1 POP DUP2 DUP2 SUB PUSH1 0x0 DUP4 ADD MSTORE PUSH3 0xE31 DUP2 DUP5 PUSH3 0xDAB JUMP JUMPDEST SWAP1 POP SWAP3 SWAP2 POP POP JUMP JUMPDEST PUSH3 0xE44 DUP2 PUSH3 0xC8E JUMP JUMPDEST DUP2 EQ PUSH3 0xE50 JUMPI PUSH1 0x0 DUP1 REVERT JUMPDEST POP JUMP JUMPDEST PUSH1 0x0 DUP2 CALLDATALOAD SWAP1 POP PUSH3 0xE64 DUP2 PUSH3 0xE39 JUMP JUMPDEST SWAP3 SWAP2 POP POP JUMP JUMPDEST PUSH1 0x0 PUSH1 0x20 DUP3 DUP5 SUB SLT ISZERO PUSH3 0xE83 JUMPI PUSH3 0xE82 PUSH3 0xBF7 JUMP JUMPDEST JUMPDEST PUSH1 0x0 PUSH3 0xE93 DUP5 DUP3 DUP6 ADD PUSH3 0xE53 JUMP JUMPDEST SWAP2 POP POP SWAP3 SWAP2 POP POP JUMP JUMPDEST PUSH1 0x0 DUP2 ISZERO ISZERO SWAP1 POP SWAP2 SWAP1 POP JUMP JUMPDEST PUSH3 0xEB3 DUP2 PUSH3 0xE9C JUMP JUMPDEST DUP3 MSTORE POP POP JUMP JUMPDEST PUSH1 0x0 PUSH1 0x60 DUP3 ADD SWAP1 POP PUSH3 0xED0 PUSH1 0x0 DUP4 ADD DUP7 PUSH3 0xEA8 JUMP JUMPDEST PUSH3 0xEDF PUSH1 0x20 DUP4 ADD DUP6 PUSH3 0xCA2 JUMP JUMPDEST PUSH3 0xEEE PUSH1 0x40 DUP4 ADD DUP5 PUSH3 0xEA8 JUMP JUMPDEST SWAP5 SWAP4 POP POP POP POP JUMP JUMPDEST PUSH1 0x0 PUSH1 0x20 DUP3 ADD SWAP1 POP PUSH3 0xF0D PUSH1 0x0 DUP4 ADD DUP5 PUSH3 0xEA8 JUMP JUMPDEST SWAP3 SWAP2 POP POP JUMP JUMPDEST PUSH1 0x0 DUP1 REVERT JUMPDEST PUSH1 0x0 DUP1 REVERT JUMPDEST PUSH1 0x0 PUSH1 0x1F NOT PUSH1 0x1F DUP4 ADD AND SWAP1 POP SWAP2 SWAP1 POP JUMP JUMPDEST PUSH32 0x4E487B7100000000000000000000000000000000000000000000000000000000 PUSH1 0x0 MSTORE PUSH1 0x41 PUSH1 0x4 MSTORE PUSH1 0x24 PUSH1 0x0 REVERT JUMPDEST PUSH3 0xF68 DUP3 PUSH3 0xF1D JUMP JUMPDEST DUP2 ADD DUP2 DUP2 LT PUSH8 0xFFFFFFFFFFFFFFFF DUP3 GT OR ISZERO PUSH3 0xF8A JUMPI PUSH3 0xF89 PUSH3 0xF2E JUMP JUMPDEST JUMPDEST DUP1 PUSH1 0x40 MSTORE POP POP POP JUMP JUMPDEST PUSH1 0x0 PUSH3 0xF9F PUSH3 0xBED JUMP JUMPDEST SWAP1 POP PUSH3 0xFAD DUP3 DUP3 PUSH3 0xF5D JUMP JUMPDEST SWAP2 SWAP1 POP JUMP JUMPDEST PUSH1 0x0 PUSH8 0xFFFFFFFFFFFFFFFF DUP3 GT ISZERO PUSH3 0xFD0 JUMPI PUSH3 0xFCF PUSH3 0xF2E JUMP JUMPDEST JUMPDEST PUSH3 0xFDB DUP3 PUSH3 0xF1D JUMP JUMPDEST SWAP1 POP PUSH1 0x20 DUP2 ADD SWAP1 POP SWAP2 SWAP1 POP JUMP JUMPDEST DUP3 DUP2 DUP4 CALLDATACOPY PUSH1 0x0 DUP4 DUP4 ADD MSTORE POP POP POP JUMP JUMPDEST PUSH1 0x0 PUSH3 0x100E PUSH3 0x1008 DUP5 PUSH3 0xFB2 JUMP JUMPDEST PUSH3 0xF93 JUMP JUMPDEST SWAP1 POP DUP3 DUP2 MSTORE PUSH1 0x20 DUP2 ADD DUP5 DUP5 DUP5 ADD GT ISZERO PUSH3 0x102D JUMPI PUSH3 0x102C PUSH3 0xF18 JUMP JUMPDEST JUMPDEST PUSH3 0x103A DUP5 DUP3 DUP6 PUSH3 0xFE8 JUMP JUMPDEST POP SWAP4 SWAP3 POP POP POP JUMP JUMPDEST PUSH1 0x0 DUP3 PUSH1 0x1F DUP4 ADD SLT PUSH3 0x105A JUMPI PUSH3 0x1059 PUSH3 0xF13 JUMP JUMPDEST JUMPDEST DUP2 CALLDATALOAD PUSH3 0x106C DUP5 DUP3 PUSH1 0x20 DUP7 ADD PUSH3 0xFF7 JUMP JUMPDEST SWAP2 POP POP SWAP3 SWAP2 POP POP JUMP JUMPDEST PUSH1 0x0 DUP1 PUSH1 0x0 DUP1 PUSH1 0x80 DUP6 DUP8 SUB SLT ISZERO PUSH3 0x1092 JUMPI PUSH3 0x1091 PUSH3 0xBF7 JUMP JUMPDEST JUMPDEST PUSH1 0x0 PUSH3 0x10A2 DUP8 DUP3 DUP9 ADD PUSH3 0xC25 JUMP JUMPDEST SWAP5 POP POP PUSH1 0x20 PUSH3 0x10B5 DUP8 DUP3 DUP9 ADD PUSH3 0xC25 JUMP JUMPDEST SWAP4 POP POP PUSH1 0x40 PUSH3 0x10C8 DUP8 DUP3 DUP9 ADD PUSH3 0xC25 JUMP JUMPDEST SWAP3 POP POP PUSH1 0x60 DUP6 ADD CALLDATALOAD PUSH8 0xFFFFFFFFFFFFFFFF DUP2 GT ISZERO PUSH3 0x10EC JUMPI PUSH3 0x10EB PUSH3 0xBFC JUMP JUMPDEST JUMPDEST PUSH3 0x10FA DUP8 DUP3 DUP9 ADD PUSH3 0x1042 JUMP JUMPDEST SWAP2 POP POP SWAP3 SWAP6 SWAP2 SWAP5 POP SWAP3 POP JUMP JUMPDEST PUSH1 0x6 DUP2 LT PUSH3 0x1114 JUMPI PUSH1 0x0 DUP1 REVERT JUMPDEST POP JUMP JUMPDEST PUSH1 0x0 DUP2 CALLDATALOAD SWAP1 POP PUSH3 0x1128 DUP2 PUSH3 0x1106 JUMP JUMPDEST SWAP3 SWAP2 POP POP JUMP JUMPDEST PUSH1 0x0 DUP1 PUSH1 0x40 DUP4 DUP6 SUB SLT ISZERO PUSH3 0x1148 JUMPI PUSH3 0x1147 PUSH3 0xBF7 JUMP JUMPDEST JUMPDEST PUSH1 0x0 PUSH3 0x1158 DUP6 DUP3 DUP7 ADD PUSH3 0xCFE JUMP JUMPDEST SWAP3 POP POP PUSH1 0x20 PUSH3 0x116B DUP6 DUP3 DUP7 ADD PUSH3 0x1117 JUMP JUMPDEST SWAP2 POP POP SWAP3 POP SWAP3 SWAP1 POP JUMP JUMPDEST PUSH3 0x1180 DUP2 PUSH3 0xE9C JUMP JUMPDEST DUP2 EQ PUSH3 0x118C JUMPI PUSH1 0x0 DUP1 REVERT JUMPDEST POP JUMP JUMPDEST PUSH1 0x0 DUP2 MLOAD SWAP1 POP PUSH3 0x11A0 DUP2 PUSH3 0x1175 JUMP JUMPDEST SWAP3 SWAP2 POP POP JUMP JUMPDEST PUSH1 0x0 PUSH1 0x20 DUP3 DUP5 SUB SLT ISZERO PUSH3 0x11BF JUMPI PUSH3 0x11BE PUSH3 0xBF7 JUMP JUMPDEST JUMPDEST PUSH1 0x0 PUSH3 0x11CF DUP5 DUP3 DUP6 ADD PUSH3 0x118F JUMP JUMPDEST SWAP2 POP POP SWAP3 SWAP2 POP POP JUMP JUMPDEST PUSH3 0x11E3 DUP2 PUSH3 0xC01 JUMP JUMPDEST DUP3 MSTORE POP POP JUMP JUMPDEST PUSH1 0x0 PUSH1 0x40 DUP3 ADD SWAP1 POP PUSH3 0x1200 PUSH1 0x0 DUP4 ADD DUP6 PUSH3 0xEA8 JUMP JUMPDEST PUSH3 0x120F PUSH1 0x20 DUP4 ADD DUP5 PUSH3 0x11D8 JUMP JUMPDEST SWAP4 SWAP3 POP POP POP JUMP JUMPDEST PUSH32 0x4E487B7100000000000000000000000000000000000000000000000000000000 PUSH1 0x0 MSTORE PUSH1 0x1 PUSH1 0x4 MSTORE PUSH1 0x24 PUSH1 0x0 REVERT JUMPDEST PUSH1 0x0 DUP2 MLOAD SWAP1 POP SWAP2 SWAP1 POP JUMP JUMPDEST PUSH1 0x0 DUP3 DUP3 MSTORE PUSH1 0x20 DUP3 ADD SWAP1 POP SWAP3 SWAP2 POP POP JUMP JUMPDEST PUSH1 0x0 JUMPDEST DUP4 DUP2 LT ISZERO PUSH3 0x1281 JUMPI DUP1 DUP3 ADD MLOAD DUP2 DUP5 ADD MSTORE PUSH1 0x20 DUP2 ADD SWAP1 POP PUSH3 0x1264 JUMP JUMPDEST PUSH1 0x0 DUP5 DUP5 ADD MSTORE POP POP POP POP JUMP JUMPDEST PUSH1 0x0 PUSH3 0x129A DUP3 PUSH3 0x1245 JUMP JUMPDEST PUSH3 0x12A6 DUP2 DUP6 PUSH3 0x1250 JUMP JUMPDEST SWAP4 POP PUSH3 0x12B8 DUP2 DUP6 PUSH1 0x20 DUP7 ADD PUSH3 0x1261 JUMP JUMPDEST PUSH3 0x12C3 DUP2 PUSH3 0xF1D JUMP JUMPDEST DUP5 ADD SWAP2 POP POP SWAP3 SWAP2 POP POP JUMP JUMPDEST PUSH1 0x0 PUSH1 0x80 DUP3 ADD SWAP1 POP PUSH3 0x12E5 PUSH1 0x0 DUP4 ADD DUP8 PUSH3 0x11D8 JUMP JUMPDEST PUSH3 0x12F4 PUSH1 0x20 DUP4 ADD DUP7 PUSH3 0x11D8 JUMP JUMPDEST PUSH3 0x1303 PUSH1 0x40 DUP4 ADD DUP6 PUSH3 0x11D8 JUMP JUMPDEST DUP2 DUP2 SUB PUSH1 0x60 DUP4 ADD MSTORE PUSH3 0x1317 DUP2 DUP5 PUSH3 0x128D JUMP JUMPDEST SWAP1 POP SWAP6 SWAP5 POP POP POP POP POP JUMP JUMPDEST PUSH32 0x4E487B7100000000000000000000000000000000000000000000000000000000 PUSH1 0x0 MSTORE PUSH1 0x21 PUSH1 0x4 MSTORE PUSH1 0x24 PUSH1 0x0 REVERT JUMPDEST PUSH1 0x6 DUP2 LT PUSH3 0x1365 JUMPI PUSH3 0x1364 PUSH3 0x1322 JUMP JUMPDEST JUMPDEST POP JUMP JUMPDEST PUSH1 0x0 DUP2 SWAP1 POP PUSH3 0x1378 DUP3 PUSH3 0x1351 JUMP JUMPDEST SWAP2 SWAP1 POP JUMP JUMPDEST PUSH1 0x0 PUSH3 0x138A DUP3 PUSH3 0x1368 JUMP JUMPDEST SWAP1 POP SWAP2 SWAP1 POP JUMP JUMPDEST PUSH3 0x139C DUP2 PUSH3 0x137D JUMP JUMPDEST DUP3 MSTORE POP POP JUMP JUMPDEST PUSH1 0x0 PUSH1 0x20 DUP3 ADD SWAP1 POP PUSH3 0x13B9 PUSH1 0x0 DUP4 ADD DUP5 PUSH3 0x1391 JUMP JUMPDEST SWAP3 SWAP2 POP POP JUMP INVALID PUSH1 0x80 PUSH1 0x40 MSTORE PUSH1 0x1 PUSH1 0xC PUSH1 0x0 PUSH2 0x100 EXP DUP2 SLOAD DUP2 PUSH1 0xFF MUL NOT AND SWAP1 DUP4 ISZERO ISZERO MUL OR SWAP1 SSTORE POP PUSH1 0x0 PUSH1 0xD SSTORE PUSH1 0x0 PUSH1 0xE SSTORE PUSH1 0x1 TIMESTAMP PUSH3 0x38 SWAP2 SWAP1 PUSH3 0x268 JUMP JUMPDEST PUSH1 0xF SSTORE PUSH1 0x0 PUSH1 0x10 SSTORE CALLVALUE DUP1 ISZERO PUSH3 0x4D JUMPI PUSH1 0x0 DUP1 REVERT JUMPDEST POP PUSH1 0x40 MLOAD PUSH3 0x12CA CODESIZE SUB DUP1 PUSH3 0x12CA DUP4 CODECOPY DUP2 DUP2 ADD PUSH1 0x40 MSTORE DUP2 ADD SWAP1 PUSH3 0x73 SWAP2 SWAP1 PUSH3 0x467 JUMP JUMPDEST CALLER PUSH1 0x0 DUP1 PUSH2 0x100 EXP DUP2 SLOAD DUP2 PUSH20 0xFFFFFFFFFFFFFFFFFFFFFFFFFFFFFFFFFFFFFFFF MUL NOT AND SWAP1 DUP4 PUSH20 0xFFFFFFFFFFFFFFFFFFFFFFFFFFFFFFFFFFFFFFFF AND MUL OR SWAP1 SSTORE POP ORIGIN PUSH1 0x1 PUSH1 0x0 PUSH2 0x100 EXP DUP2 SLOAD DUP2 PUSH20 0xFFFFFFFFFFFFFFFFFFFFFFFFFFFFFFFFFFFFFFFF MUL NOT AND SWAP1 DUP4 PUSH20 0xFFFFFFFFFFFFFFFFFFFFFFFFFFFFFFFFFFFFFFFF AND MUL OR SWAP1 SSTORE POP DUP2 PUSH1 0x5 DUP2 SWAP1 SSTORE POP DUP4 PUSH1 0x2 DUP2 SWAP1 SSTORE POP DUP3 PUSH1 0x6 DUP2 SWAP1 SSTORE POP DUP3 PUSH1 0x7 DUP2 SWAP1 SSTORE POP PUSH3 0x12E PUSH1 0x5 SLOAD PUSH1 0x2 SLOAD PUSH3 0x1E1 PUSH1 0x20 SHL PUSH3 0x64D OR SWAP1 SWAP2 SWAP1 PUSH1 0x20 SHR JUMP JUMPDEST PUSH1 0x3 DUP2 SWAP1 SSTORE POP PUSH3 0x152 PUSH1 0x6 SLOAD PUSH1 0x3 SLOAD PUSH3 0x212 PUSH1 0x20 SHL PUSH3 0x679 OR SWAP1 SWAP2 SWAP1 PUSH1 0x20 SHR JUMP JUMPDEST PUSH1 0x8 DUP2 SWAP1 SSTORE POP DUP1 PUSH1 0xB SWAP1 DUP2 PUSH3 0x169 SWAP2 SWAP1 PUSH3 0x739 JUMP JUMPDEST POP TIMESTAMP PUSH1 0x9 DUP2 SWAP1 SSTORE POP TIMESTAMP PUSH1 0x1 PUSH1 0x0 SWAP1 SLOAD SWAP1 PUSH2 0x100 EXP SWAP1 DIV PUSH20 0xFFFFFFFFFFFFFFFFFFFFFFFFFFFFFFFFFFFFFFFF AND PUSH20 0xFFFFFFFFFFFFFFFFFFFFFFFFFFFFFFFFFFFFFFFF AND PUSH32 0xF9F75C99C0E3522CD19FFC66FD6C94989A3F0821D37D5C5BB176AAB904C6335D PUSH1 0x40 MLOAD PUSH1 0x40 MLOAD DUP1 SWAP2 SUB SWAP1 LOG3 POP POP POP POP PUSH3 0x8B6 JUMP JUMPDEST PUSH1 0x0 DUP1 DUP3 DUP5 PUSH3 0x1F2 SWAP2 SWAP1 PUSH3 0x268 JUMP JUMPDEST SWAP1 POP DUP4 DUP2 LT ISZERO PUSH3 0x208 JUMPI PUSH3 0x207 PUSH3 0x820 JUMP JUMPDEST JUMPDEST DUP1 SWAP2 POP POP SWAP3 SWAP2 POP POP JUMP JUMPDEST PUSH1 0x0 DUP1 DUP3 DUP5 PUSH3 0x223 SWAP2 SWAP1 PUSH3 0x87E JUMP JUMPDEST SWAP1 POP DUP1 SWAP2 POP POP SWAP3 SWAP2 POP POP JUMP JUMPDEST PUSH1 0x0 DUP2 SWAP1 POP SWAP2 SWAP1 POP JUMP JUMPDEST PUSH32 0x4E487B7100000000000000000000000000000000000000000000000000000000 PUSH1 0x0 MSTORE PUSH1 0x11 PUSH1 0x4 MSTORE PUSH1 0x24 PUSH1 0x0 REVERT JUMPDEST PUSH1 0x0 PUSH3 0x275 DUP3 PUSH3 0x22F JUMP JUMPDEST SWAP2 POP PUSH3 0x282 DUP4 PUSH3 0x22F JUMP JUMPDEST SWAP3 POP DUP3 DUP3 ADD SWAP1 POP DUP1 DUP3 GT ISZERO PUSH3 0x29D JUMPI PUSH3 0x29C PUSH3 0x239 JUMP JUMPDEST JUMPDEST SWAP3 SWAP2 POP POP JUMP JUMPDEST PUSH1 0x0 PUSH1 0x40 MLOAD SWAP1 POP SWAP1 JUMP JUMPDEST PUSH1 0x0 DUP1 REVERT JUMPDEST PUSH1 0x0 DUP1 REVERT JUMPDEST PUSH3 0x2C2 DUP2 PUSH3 0x22F JUMP JUMPDEST DUP2 EQ PUSH3 0x2CE JUMPI PUSH1 0x0 DUP1 REVERT JUMPDEST POP JUMP JUMPDEST PUSH1 0x0 DUP2 MLOAD SWAP1 POP PUSH3 0x2E2 DUP2 PUSH3 0x2B7 JUMP JUMPDEST SWAP3 SWAP2 POP POP JUMP JUMPDEST PUSH1 0x0 DUP1 REVERT JUMPDEST PUSH1 0x0 DUP1 REVERT JUMPDEST PUSH1 0x0 PUSH1 0x1F NOT PUSH1 0x1F DUP4 ADD AND SWAP1 POP SWAP2 SWAP1 POP JUMP JUMPDEST PUSH32 0x4E487B7100000000000000000000000000000000000000000000000000000000 PUSH1 0x0 MSTORE PUSH1 0x41 PUSH1 0x4 MSTORE PUSH1 0x24 PUSH1 0x0 REVERT JUMPDEST PUSH3 0x33D DUP3 PUSH3 0x2F2 JUMP JUMPDEST DUP2 ADD DUP2 DUP2 LT PUSH8 0xFFFFFFFFFFFFFFFF DUP3 GT OR ISZERO PUSH3 0x35F JUMPI PUSH3 0x35E PUSH3 0x303 JUMP JUMPDEST JUMPDEST DUP1 PUSH1 0x40 MSTORE POP POP POP JUMP JUMPDEST PUSH1 0x0 PUSH3 0x374 PUSH3 0x2A3 JUMP JUMPDEST SWAP1 POP PUSH3 0x382 DUP3 DUP3 PUSH3 0x332 JUMP JUMPDEST SWAP2 SWAP1 POP JUMP JUMPDEST PUSH1 0x0 PUSH8 0xFFFFFFFFFFFFFFFF DUP3 GT ISZERO PUSH3 0x3A5 JUMPI PUSH3 0x3A4 PUSH3 0x303 JUMP JUMPDEST JUMPDEST PUSH3 0x3B0 DUP3 PUSH3 0x2F2 JUMP JUMPDEST SWAP1 POP PUSH1 0x20 DUP2 ADD SWAP1 POP SWAP2 SWAP1 POP JUMP JUMPDEST PUSH1 0x0 JUMPDEST DUP4 DUP2 LT ISZERO PUSH3 0x3DD JUMPI DUP1 DUP3 ADD MLOAD DUP2 DUP5 ADD MSTORE PUSH1 0x20 DUP2 ADD SWAP1 POP PUSH3 0x3C0 JUMP JUMPDEST PUSH1 0x0 DUP5 DUP5 ADD MSTORE POP POP POP POP JUMP JUMPDEST PUSH1 0x0 PUSH3 0x400 PUSH3 0x3FA DUP5 PUSH3 0x387 JUMP JUMPDEST PUSH3 0x368 JUMP JUMPDEST SWAP1 POP DUP3 DUP2 MSTORE PUSH1 0x20 DUP2 ADD DUP5 DUP5 DUP5 ADD GT ISZERO PUSH3 0x41F JUMPI PUSH3 0x41E PUSH3 0x2ED JUMP JUMPDEST JUMPDEST PUSH3 0x42C DUP5 DUP3 DUP6 PUSH3 0x3BD JUMP JUMPDEST POP SWAP4 SWAP3 POP POP POP JUMP JUMPDEST PUSH1 0x0 DUP3 PUSH1 0x1F DUP4 ADD SLT PUSH3 0x44C JUMPI PUSH3 0x44B PUSH3 0x2E8 JUMP JUMPDEST JUMPDEST DUP2 MLOAD PUSH3 0x45E DUP5 DUP3 PUSH1 0x20 DUP7 ADD PUSH3 0x3E9 JUMP JUMPDEST SWAP2 POP POP SWAP3 SWAP2 POP POP JUMP JUMPDEST PUSH1 0x0 DUP1 PUSH1 0x0 DUP1 PUSH1 0x80 DUP6 DUP8 SUB SLT ISZERO PUSH3 0x484 JUMPI PUSH3 0x483 PUSH3 0x2AD JUMP JUMPDEST JUMPDEST PUSH1 0x0 PUSH3 0x494 DUP8 DUP3 DUP9 ADD PUSH3 0x2D1 JUMP JUMPDEST SWAP5 POP POP PUSH1 0x20 PUSH3 0x4A7 DUP8 DUP3 DUP9 ADD PUSH3 0x2D1 JUMP JUMPDEST SWAP4 POP POP PUSH1 0x40 PUSH3 0x4BA DUP8 DUP3 DUP9 ADD PUSH3 0x2D1 JUMP JUMPDEST SWAP3 POP POP PUSH1 0x60 DUP6 ADD MLOAD PUSH8 0xFFFFFFFFFFFFFFFF DUP2 GT ISZERO PUSH3 0x4DE JUMPI PUSH3 0x4DD PUSH3 0x2B2 JUMP JUMPDEST JUMPDEST PUSH3 0x4EC DUP8 DUP3 DUP9 ADD PUSH3 0x434 JUMP JUMPDEST SWAP2 POP POP SWAP3 SWAP6 SWAP2 SWAP5 POP SWAP3 POP JUMP JUMPDEST PUSH1 0x0 DUP2 MLOAD SWAP1 POP SWAP2 SWAP1 POP JUMP JUMPDEST PUSH32 0x4E487B7100000000000000000000000000000000000000000000000000000000 PUSH1 0x0 MSTORE PUSH1 0x22 PUSH1 0x4 MSTORE PUSH1 0x24 PUSH1 0x0 REVERT JUMPDEST PUSH1 0x0 PUSH1 0x2 DUP3 DIV SWAP1 POP PUSH1 0x1 DUP3 AND DUP1 PUSH3 0x54B JUMPI PUSH1 0x7F DUP3 AND SWAP2 POP JUMPDEST PUSH1 0x20 DUP3 LT DUP2 SUB PUSH3 0x561 JUMPI PUSH3 0x560 PUSH3 0x503 JUMP JUMPDEST JUMPDEST POP SWAP2 SWAP1 POP JUMP JUMPDEST PUSH1 0x0 DUP2 SWAP1 POP DUP2 PUSH1 0x0 MSTORE PUSH1 0x20 PUSH1 0x0 KECCAK256 SWAP1 POP SWAP2 SWAP1 POP JUMP JUMPDEST PUSH1 0x0 PUSH1 0x20 PUSH1 0x1F DUP4 ADD DIV SWAP1 POP SWAP2 SWAP1 POP JUMP JUMPDEST PUSH1 0x0 DUP3 DUP3 SHL SWAP1 POP SWAP3 SWAP2 POP POP JUMP JUMPDEST PUSH1 0x0 PUSH1 0x8 DUP4 MUL PUSH3 0x5CB PUSH32 0xFFFFFFFFFFFFFFFFFFFFFFFFFFFFFFFFFFFFFFFFFFFFFFFFFFFFFFFFFFFFFFFF DUP3 PUSH3 0x58C JUMP JUMPDEST PUSH3 0x5D7 DUP7 DUP4 PUSH3 0x58C JUMP JUMPDEST SWAP6 POP DUP1 NOT DUP5 AND SWAP4 POP DUP1 DUP7 AND DUP5 OR SWAP3 POP POP POP SWAP4 SWAP3 POP POP POP JUMP JUMPDEST PUSH1 0x0 DUP2 SWAP1 POP SWAP2 SWAP1 POP JUMP JUMPDEST PUSH1 0x0 PUSH3 0x61A PUSH3 0x614 PUSH3 0x60E DUP5 PUSH3 0x22F JUMP JUMPDEST PUSH3 0x5EF JUMP JUMPDEST PUSH3 0x22F JUMP JUMPDEST SWAP1 POP SWAP2 SWAP1 POP JUMP JUMPDEST PUSH1 0x0 DUP2 SWAP1 POP SWAP2 SWAP1 POP JUMP JUMPDEST PUSH3 0x636 DUP4 PUSH3 0x5F9 JUMP JUMPDEST PUSH3 0x64E PUSH3 0x645 DUP3 PUSH3 0x621 JUMP JUMPDEST DUP5 DUP5 SLOAD PUSH3 0x599 JUMP JUMPDEST DUP3 SSTORE POP POP POP POP JUMP JUMPDEST PUSH1 0x0 SWAP1 JUMP JUMPDEST PUSH3 0x665 PUSH3 0x656 JUMP JUMPDEST PUSH3 0x672 DUP2 DUP5 DUP5 PUSH3 0x62B JUMP JUMPDEST POP POP POP JUMP JUMPDEST JUMPDEST DUP2 DUP2 LT ISZERO PUSH3 0x69A JUMPI PUSH3 0x68E PUSH1 0x0 DUP3 PUSH3 0x65B JUMP JUMPDEST PUSH1 0x1 DUP2 ADD SWAP1 POP PUSH3 0x678 JUMP JUMPDEST POP POP JUMP JUMPDEST PUSH1 0x1F DUP3 GT ISZERO PUSH3 0x6E9 JUMPI PUSH3 0x6B3 DUP2 PUSH3 0x567 JUMP JUMPDEST PUSH3 0x6BE DUP5 PUSH3 0x57C JUMP JUMPDEST DUP2 ADD PUSH1 0x20 DUP6 LT ISZERO PUSH3 0x6CE JUMPI DUP2 SWAP1 POP JUMPDEST PUSH3 0x6E6 PUSH3 0x6DD DUP6 PUSH3 0x57C JUMP JUMPDEST DUP4 ADD DUP3 PUSH3 0x677 JUMP JUMPDEST POP POP JUMPDEST POP POP POP JUMP JUMPDEST PUSH1 0x0 DUP3 DUP3 SHR SWAP1 POP SWAP3 SWAP2 POP POP JUMP JUMPDEST PUSH1 0x0 PUSH3 0x70E PUSH1 0x0 NOT DUP5 PUSH1 0x8 MUL PUSH3 0x6EE JUMP JUMPDEST NOT DUP1 DUP4 AND SWAP2 POP POP SWAP3 SWAP2 POP POP JUMP JUMPDEST PUSH1 0x0 PUSH3 0x729 DUP4 DUP4 PUSH3 0x6FB JUMP JUMPDEST SWAP2 POP DUP3 PUSH1 0x2 MUL DUP3 OR SWAP1 POP SWAP3 SWAP2 POP POP JUMP JUMPDEST PUSH3 0x744 DUP3 PUSH3 0x4F8 JUMP JUMPDEST PUSH8 0xFFFFFFFFFFFFFFFF DUP2 GT ISZERO PUSH3 0x760 JUMPI PUSH3 0x75F PUSH3 0x303 JUMP JUMPDEST JUMPDEST PUSH3 0x76C DUP3 SLOAD PUSH3 0x532 JUMP JUMPDEST PUSH3 0x779 DUP3 DUP3 DUP6 PUSH3 0x69E JUMP JUMPDEST PUSH1 0x0 PUSH1 0x20 SWAP1 POP PUSH1 0x1F DUP4 GT PUSH1 0x1 DUP2 EQ PUSH3 0x7B1 JUMPI PUSH1 0x0 DUP5 ISZERO PUSH3 0x79C JUMPI DUP3 DUP8 ADD MLOAD SWAP1 POP JUMPDEST PUSH3 0x7A8 DUP6 DUP3 PUSH3 0x71B JUMP JUMPDEST DUP7 SSTORE POP PUSH3 0x818 JUMP JUMPDEST PUSH1 0x1F NOT DUP5 AND PUSH3 0x7C1 DUP7 PUSH3 0x567 JUMP JUMPDEST PUSH1 0x0 JUMPDEST DUP3 DUP2 LT ISZERO PUSH3 0x7EB JUMPI DUP5 DUP10 ADD MLOAD DUP3 SSTORE PUSH1 0x1 DUP3 ADD SWAP2 POP PUSH1 0x20 DUP6 ADD SWAP5 POP PUSH1 0x20 DUP2 ADD SWAP1 POP PUSH3 0x7C4 JUMP JUMPDEST DUP7 DUP4 LT ISZERO PUSH3 0x80B JUMPI DUP5 DUP10 ADD MLOAD PUSH3 0x807 PUSH1 0x1F DUP10 AND DUP3 PUSH3 0x6FB JUMP JUMPDEST DUP4 SSTORE POP JUMPDEST PUSH1 0x1 PUSH1 0x2 DUP9 MUL ADD DUP9 SSTORE POP POP POP JUMPDEST POP POP POP POP POP POP JUMP JUMPDEST PUSH32 0x4E487B7100000000000000000000000000000000000000000000000000000000 PUSH1 0x0 MSTORE PUSH1 0x1 PUSH1 0x4 MSTORE PUSH1 0x24 PUSH1 0x0 REVERT JUMPDEST PUSH32 0x4E487B7100000000000000000000000000000000000000000000000000000000 PUSH1 0x0 MSTORE PUSH1 0x12 PUSH1 0x4 MSTORE PUSH1 0x24 PUSH1 0x0 REVERT JUMPDEST PUSH1 0x0 PUSH3 0x88B DUP3 PUSH3 0x22F JUMP JUMPDEST SWAP2 POP PUSH3 0x898 DUP4 PUSH3 0x22F JUMP JUMPDEST SWAP3 POP DUP3 PUSH3 0x8AB JUMPI PUSH3 0x8AA PUSH3 0x84F JUMP JUMPDEST JUMPDEST DUP3 DUP3 DIV SWAP1 POP SWAP3 SWAP2 POP POP JUMP JUMPDEST PUSH2 0xA04 DUP1 PUSH3 0x8C6 PUSH1 0x0 CODECOPY PUSH1 0x0 RETURN INVALID PUSH1 0x80 PUSH1 0x40 MSTORE PUSH1 0x4 CALLDATASIZE LT PUSH2 0x55 JUMPI PUSH1 0x0 CALLDATALOAD PUSH1 0xE0 SHR DUP1 PUSH4 0x12065FE0 EQ PUSH2 0x5A JUMPI DUP1 PUSH4 0x268F1153 EQ PUSH2 0x85 JUMPI DUP1 PUSH4 0x28FD10D7 EQ PUSH2 0xAE JUMPI DUP1 PUSH4 0x29C68DC1 EQ PUSH2 0xEB JUMPI DUP1 PUSH4 0x8DA5CB5B EQ PUSH2 0x116 JUMPI DUP1 PUSH4 0xE8B5E51F EQ PUSH2 0x141 JUMPI JUMPDEST PUSH1 0x0 DUP1 REVERT JUMPDEST CALLVALUE DUP1 ISZERO PUSH2 0x66 JUMPI PUSH1 0x0 DUP1 REVERT JUMPDEST POP PUSH2 0x6F PUSH2 0x14B JUMP JUMPDEST PUSH1 0x40 MLOAD PUSH2 0x7C SWAP2 SWAP1 PUSH2 0x6D4 JUMP JUMPDEST PUSH1 0x40 MLOAD DUP1 SWAP2 SUB SWAP1 RETURN JUMPDEST CALLVALUE DUP1 ISZERO PUSH2 0x91 JUMPI PUSH1 0x0 DUP1 REVERT JUMPDEST POP PUSH2 0xAC PUSH1 0x4 DUP1 CALLDATASIZE SUB DUP2 ADD SWAP1 PUSH2 0xA7 SWAP2 SWAP1 PUSH2 0x719 JUMP JUMPDEST PUSH2 0x153 JUMP JUMPDEST STOP JUMPDEST CALLVALUE DUP1 ISZERO PUSH2 0xBA JUMPI PUSH1 0x0 DUP1 REVERT JUMPDEST POP PUSH2 0xD5 PUSH1 0x4 DUP1 CALLDATASIZE SUB DUP2 ADD SWAP1 PUSH2 0xD0 SWAP2 SWAP1 PUSH2 0x7A4 JUMP JUMPDEST PUSH2 0x227 JUMP JUMPDEST PUSH1 0x40 MLOAD PUSH2 0xE2 SWAP2 SWAP1 PUSH2 0x7EC JUMP JUMPDEST PUSH1 0x40 MLOAD DUP1 SWAP2 SUB SWAP1 RETURN JUMPDEST CALLVALUE DUP1 ISZERO PUSH2 0xF7 JUMPI PUSH1 0x0 DUP1 REVERT JUMPDEST POP PUSH2 0x100 PUSH2 0x247 JUMP JUMPDEST PUSH1 0x40 MLOAD PUSH2 0x10D SWAP2 SWAP1 PUSH2 0x7EC JUMP JUMPDEST PUSH1 0x40 MLOAD DUP1 SWAP2 SUB SWAP1 RETURN JUMPDEST CALLVALUE DUP1 ISZERO PUSH2 0x122 JUMPI PUSH1 0x0 DUP1 REVERT JUMPDEST POP PUSH2 0x12B PUSH2 0x320 JUMP JUMPDEST PUSH1 0x40 MLOAD PUSH2 0x138 SWAP2 SWAP1 PUSH2 0x816 JUMP JUMPDEST PUSH1 0x40 MLOAD DUP1 SWAP2 SUB SWAP1 RETURN JUMPDEST PUSH2 0x149 PUSH2 0x344 JUMP JUMPDEST STOP JUMPDEST PUSH1 0x0 SELFBALANCE SWAP1 POP SWAP1 JUMP JUMPDEST PUSH1 0x0 DUP1 SLOAD SWAP1 PUSH2 0x100 EXP SWAP1 DIV PUSH20 0xFFFFFFFFFFFFFFFFFFFFFFFFFFFFFFFFFFFFFFFF AND PUSH20 0xFFFFFFFFFFFFFFFFFFFFFFFFFFFFFFFFFFFFFFFF AND CALLER PUSH20 0xFFFFFFFFFFFFFFFFFFFFFFFFFFFFFFFFFFFFFFFF AND EQ PUSH2 0x1AB JUMPI PUSH1 0x0 DUP1 REVERT JUMPDEST DUP1 PUSH1 0x15 PUSH1 0x0 PUSH2 0x100 EXP DUP2 SLOAD DUP2 PUSH1 0xFF MUL NOT AND SWAP1 DUP4 PUSH1 0x5 DUP2 GT ISZERO PUSH2 0x1D0 JUMPI PUSH2 0x1CF PUSH2 0x831 JUMP JUMPDEST JUMPDEST MUL OR SWAP1 SSTORE POP TIMESTAMP PUSH1 0x15 PUSH1 0x0 SWAP1 SLOAD SWAP1 PUSH2 0x100 EXP SWAP1 DIV PUSH1 0xFF AND PUSH1 0x5 DUP2 GT ISZERO PUSH2 0x1F8 JUMPI PUSH2 0x1F7 PUSH2 0x831 JUMP JUMPDEST JUMPDEST PUSH32 0xAAAE373901E745122C2E0925AD006227969C6CD190B7D5EA2FB7FDBD1D955B35 PUSH1 0x40 MLOAD PUSH1 0x40 MLOAD DUP1 SWAP2 SUB SWAP1 LOG3 POP JUMP JUMPDEST PUSH1 0x11 PUSH1 0x20 MSTORE DUP1 PUSH1 0x0 MSTORE PUSH1 0x40 PUSH1 0x0 KECCAK256 PUSH1 0x0 SWAP2 POP SLOAD SWAP1 PUSH2 0x100 EXP SWAP1 DIV PUSH1 0xFF AND DUP2 JUMP JUMPDEST PUSH1 0x0 DUP1 PUSH1 0x0 SWAP1 SLOAD SWAP1 PUSH2 0x100 EXP SWAP1 DIV PUSH20 0xFFFFFFFFFFFFFFFFFFFFFFFFFFFFFFFFFFFFFFFF AND PUSH20 0xFFFFFFFFFFFFFFFFFFFFFFFFFFFFFFFFFFFFFFFF AND CALLER PUSH20 0xFFFFFFFFFFFFFFFFFFFFFFFFFFFFFFFFFFFFFFFF AND EQ PUSH2 0x2A2 JUMPI PUSH1 0x0 DUP1 REVERT JUMPDEST PUSH1 0xC PUSH1 0x0 SWAP1 SLOAD SWAP1 PUSH2 0x100 EXP SWAP1 DIV PUSH1 0xFF AND ISZERO PUSH1 0xC PUSH1 0x0 PUSH2 0x100 EXP DUP2 SLOAD DUP2 PUSH1 0xFF MUL NOT AND SWAP1 DUP4 ISZERO ISZERO MUL OR SWAP1 SSTORE POP TIMESTAMP PUSH1 0xC PUSH1 0x0 SWAP1 SLOAD SWAP1 PUSH2 0x100 EXP SWAP1 DIV PUSH1 0xFF AND ISZERO ISZERO PUSH32 0x160914EA27C60AA29A5F3A69D74E6069869DE36E38939DE1E0A66B921D8623D2 PUSH1 0x40 MLOAD PUSH1 0x40 MLOAD DUP1 SWAP2 SUB SWAP1 LOG3 PUSH1 0xC PUSH1 0x0 SWAP1 SLOAD SWAP1 PUSH2 0x100 EXP SWAP1 DIV PUSH1 0xFF AND SWAP1 POP SWAP1 JUMP JUMPDEST PUSH1 0x0 DUP1 SLOAD SWAP1 PUSH2 0x100 EXP SWAP1 DIV PUSH20 0xFFFFFFFFFFFFFFFFFFFFFFFFFFFFFFFFFFFFFFFF AND DUP2 JUMP JUMPDEST PUSH1 0x0 PUSH1 0x5 DUP2 GT ISZERO PUSH2 0x358 JUMPI PUSH2 0x357 PUSH2 0x831 JUMP JUMPDEST JUMPDEST PUSH1 0x15 PUSH1 0x0 SWAP1 SLOAD SWAP1 PUSH2 0x100 EXP SWAP1 DIV PUSH1 0xFF AND PUSH1 0x5 DUP2 GT ISZERO PUSH2 0x37A JUMPI PUSH2 0x379 PUSH2 0x831 JUMP JUMPDEST JUMPDEST EQ PUSH2 0x384 JUMPI PUSH1 0x0 DUP1 REVERT JUMPDEST PUSH1 0x0 PUSH1 0x2 SLOAD SELFBALANCE LT PUSH2 0x64A JUMPI PUSH2 0x3A4 PUSH1 0x2 SLOAD SELFBALANCE PUSH2 0x694 SWAP1 SWAP2 SWAP1 PUSH4 0xFFFFFFFF AND JUMP JUMPDEST SWAP1 POP PUSH2 0x3B9 DUP2 SELFBALANCE PUSH2 0x694 SWAP1 SWAP2 SWAP1 PUSH4 0xFFFFFFFF AND JUMP JUMPDEST POP CALLVALUE DUP2 GT ISZERO PUSH2 0x3CB JUMPI PUSH2 0x3CA PUSH2 0x860 JUMP JUMPDEST JUMPDEST PUSH1 0x0 DUP2 GT ISZERO PUSH2 0x4DB JUMPI CALLER PUSH20 0xFFFFFFFFFFFFFFFFFFFFFFFFFFFFFFFFFFFFFFFF AND PUSH2 0x8FC DUP3 SWAP1 DUP2 ISZERO MUL SWAP1 PUSH1 0x40 MLOAD PUSH1 0x0 PUSH1 0x40 MLOAD DUP1 DUP4 SUB DUP2 DUP6 DUP9 DUP9 CALL SWAP4 POP POP POP POP ISZERO DUP1 ISZERO PUSH2 0x41A JUMPI RETURNDATASIZE PUSH1 0x0 DUP1 RETURNDATACOPY RETURNDATASIZE PUSH1 0x0 REVERT JUMPDEST POP TIMESTAMP DUP2 CALLER PUSH20 0xFFFFFFFFFFFFFFFFFFFFFFFFFFFFFFFFFFFFFFFF AND PUSH32 0x566803F6E271B911C84F87631BCD310D6A6510BF8882577A96FC76975703E431 PUSH1 0x40 MLOAD PUSH1 0x40 MLOAD DUP1 SWAP2 SUB SWAP1 LOG4 PUSH1 0x1 PUSH1 0x15 PUSH1 0x0 PUSH2 0x100 EXP DUP2 SLOAD DUP2 PUSH1 0xFF MUL NOT AND SWAP1 DUP4 PUSH1 0x5 DUP2 GT ISZERO PUSH2 0x486 JUMPI PUSH2 0x485 PUSH2 0x831 JUMP JUMPDEST JUMPDEST MUL OR SWAP1 SSTORE POP TIMESTAMP PUSH1 0x15 PUSH1 0x0 SWAP1 SLOAD SWAP1 PUSH2 0x100 EXP SWAP1 DIV PUSH1 0xFF AND PUSH1 0x5 DUP2 GT ISZERO PUSH2 0x4AE JUMPI PUSH2 0x4AD PUSH2 0x831 JUMP JUMPDEST JUMPDEST PUSH32 0xAAAE373901E745122C2E0925AD006227969C6CD190B7D5EA2FB7FDBD1D955B35 PUSH1 0x40 MLOAD PUSH1 0x40 MLOAD DUP1 SWAP2 SUB SWAP1 LOG3 JUMPDEST PUSH1 0x1 PUSH1 0x11 PUSH1 0x0 CALLER PUSH20 0xFFFFFFFFFFFFFFFFFFFFFFFFFFFFFFFFFFFFFFFF AND PUSH20 0xFFFFFFFFFFFFFFFFFFFFFFFFFFFFFFFFFFFFFFFF AND DUP2 MSTORE PUSH1 0x20 ADD SWAP1 DUP2 MSTORE PUSH1 0x20 ADD PUSH1 0x0 KECCAK256 PUSH1 0x0 PUSH2 0x100 EXP DUP2 SLOAD DUP2 PUSH1 0xFF MUL NOT AND SWAP1 DUP4 ISZERO ISZERO MUL OR SWAP1 SSTORE POP PUSH1 0xD PUSH1 0x0 DUP2 SLOAD DUP1 SWAP3 SWAP2 SWAP1 PUSH2 0x546 SWAP1 PUSH2 0x8BE JUMP JUMPDEST SWAP2 SWAP1 POP SSTORE POP PUSH2 0x5AF PUSH2 0x561 DUP3 CALLVALUE PUSH2 0x694 SWAP1 SWAP2 SWAP1 PUSH4 0xFFFFFFFF AND JUMP JUMPDEST PUSH1 0x12 PUSH1 0x0 CALLER PUSH20 0xFFFFFFFFFFFFFFFFFFFFFFFFFFFFFFFFFFFFFFFF AND PUSH20 0xFFFFFFFFFFFFFFFFFFFFFFFFFFFFFFFFFFFFFFFF AND DUP2 MSTORE PUSH1 0x20 ADD SWAP1 DUP2 MSTORE PUSH1 0x20 ADD PUSH1 0x0 KECCAK256 SLOAD PUSH2 0x64D SWAP1 SWAP2 SWAP1 PUSH4 0xFFFFFFFF AND JUMP JUMPDEST PUSH1 0x12 PUSH1 0x0 CALLER PUSH20 0xFFFFFFFFFFFFFFFFFFFFFFFFFFFFFFFFFFFFFFFF AND PUSH20 0xFFFFFFFFFFFFFFFFFFFFFFFFFFFFFFFFFFFFFFFF AND DUP2 MSTORE PUSH1 0x20 ADD SWAP1 DUP2 MSTORE PUSH1 0x20 ADD PUSH1 0x0 KECCAK256 DUP2 SWAP1 SSTORE POP TIMESTAMP PUSH2 0x606 DUP3 CALLVALUE PUSH2 0x694 SWAP1 SWAP2 SWAP1 PUSH4 0xFFFFFFFF AND JUMP JUMPDEST CALLER PUSH20 0xFFFFFFFFFFFFFFFFFFFFFFFFFFFFFFFFFFFFFFFF AND PUSH32 0x1B0969CE7F5B05C5E0969329A05CDBD7E2E2F6CEE33BA26FD6E6BBCFF82312CD PUSH1 0x40 MLOAD PUSH1 0x40 MLOAD DUP1 SWAP2 SUB SWAP1 LOG4 JUMPDEST POP JUMP JUMPDEST PUSH1 0x0 DUP1 DUP3 DUP5 PUSH2 0x65C SWAP2 SWAP1 PUSH2 0x906 JUMP JUMPDEST SWAP1 POP DUP4 DUP2 LT ISZERO PUSH2 0x66F JUMPI PUSH2 0x66E PUSH2 0x860 JUMP JUMPDEST JUMPDEST DUP1 SWAP2 POP POP SWAP3 SWAP2 POP POP JUMP JUMPDEST PUSH1 0x0 DUP1 DUP3 DUP5 PUSH2 0x688 SWAP2 SWAP1 PUSH2 0x969 JUMP JUMPDEST SWAP1 POP DUP1 SWAP2 POP POP SWAP3 SWAP2 POP POP JUMP JUMPDEST PUSH1 0x0 DUP3 DUP3 GT ISZERO PUSH2 0x6A7 JUMPI PUSH2 0x6A6 PUSH2 0x860 JUMP JUMPDEST JUMPDEST DUP2 DUP4 PUSH2 0x6B3 SWAP2 SWAP1 PUSH2 0x99A JUMP JUMPDEST SWAP1 POP SWAP3 SWAP2 POP POP JUMP JUMPDEST PUSH1 0x0 DUP2 SWAP1 POP SWAP2 SWAP1 POP JUMP JUMPDEST PUSH2 0x6CE DUP2 PUSH2 0x6BB JUMP JUMPDEST DUP3 MSTORE POP POP JUMP JUMPDEST PUSH1 0x0 PUSH1 0x20 DUP3 ADD SWAP1 POP PUSH2 0x6E9 PUSH1 0x0 DUP4 ADD DUP5 PUSH2 0x6C5 JUMP JUMPDEST SWAP3 SWAP2 POP POP JUMP JUMPDEST PUSH1 0x0 DUP1 REVERT JUMPDEST PUSH1 0x6 DUP2 LT PUSH2 0x701 JUMPI PUSH1 0x0 DUP1 REVERT JUMPDEST POP JUMP JUMPDEST PUSH1 0x0 DUP2 CALLDATALOAD SWAP1 POP PUSH2 0x713 DUP2 PUSH2 0x6F4 JUMP JUMPDEST SWAP3 SWAP2 POP POP JUMP JUMPDEST PUSH1 0x0 PUSH1 0x20 DUP3 DUP5 SUB SLT ISZERO PUSH2 0x72F JUMPI PUSH2 0x72E PUSH2 0x6EF JUMP JUMPDEST JUMPDEST PUSH1 0x0 PUSH2 0x73D DUP5 DUP3 DUP6 ADD PUSH2 0x704 JUMP JUMPDEST SWAP2 POP POP SWAP3 SWAP2 POP POP JUMP JUMPDEST PUSH1 0x0 PUSH20 0xFFFFFFFFFFFFFFFFFFFFFFFFFFFFFFFFFFFFFFFF DUP3 AND SWAP1 POP SWAP2 SWAP1 POP JUMP JUMPDEST PUSH1 0x0 PUSH2 0x771 DUP3 PUSH2 0x746 JUMP JUMPDEST SWAP1 POP SWAP2 SWAP1 POP JUMP JUMPDEST PUSH2 0x781 DUP2 PUSH2 0x766 JUMP JUMPDEST DUP2 EQ PUSH2 0x78C JUMPI PUSH1 0x0 DUP1 REVERT JUMPDEST POP JUMP JUMPDEST PUSH1 0x0 DUP2 CALLDATALOAD SWAP1 POP PUSH2 0x79E DUP2 PUSH2 0x778 JUMP JUMPDEST SWAP3 SWAP2 POP POP JUMP JUMPDEST PUSH1 0x0 PUSH1 0x20 DUP3 DUP5 SUB SLT ISZERO PUSH2 0x7BA JUMPI PUSH2 0x7B9 PUSH2 0x6EF JUMP JUMPDEST JUMPDEST PUSH1 0x0 PUSH2 0x7C8 DUP5 DUP3 DUP6 ADD PUSH2 0x78F JUMP JUMPDEST SWAP2 POP POP SWAP3 SWAP2 POP POP JUMP JUMPDEST PUSH1 0x0 DUP2 ISZERO ISZERO SWAP1 POP SWAP2 SWAP1 POP JUMP JUMPDEST PUSH2 0x7E6 DUP2 PUSH2 0x7D1 JUMP JUMPDEST DUP3 MSTORE POP POP JUMP JUMPDEST PUSH1 0x0 PUSH1 0x20 DUP3 ADD SWAP1 POP PUSH2 0x801 PUSH1 0x0 DUP4 ADD DUP5 PUSH2 0x7DD JUMP JUMPDEST SWAP3 SWAP2 POP POP JUMP JUMPDEST PUSH2 0x810 DUP2 PUSH2 0x766 JUMP JUMPDEST DUP3 MSTORE POP POP JUMP JUMPDEST PUSH1 0x0 PUSH1 0x20 DUP3 ADD SWAP1 POP PUSH2 0x82B PUSH1 0x0 DUP4 ADD DUP5 PUSH2 0x807 JUMP JUMPDEST SWAP3 SWAP2 POP POP JUMP JUMPDEST PUSH32 0x4E487B7100000000000000000000000000000000000000000000000000000000 PUSH1 0x0 MSTORE PUSH1 0x21 PUSH1 0x4 MSTORE PUSH1 0x24 PUSH1 0x0 REVERT JUMPDEST PUSH32 0x4E487B7100000000000000000000000000000000000000000000000000000000 PUSH1 0x0 MSTORE PUSH1 0x1 PUSH1 0x4 MSTORE PUSH1 0x24 PUSH1 0x0 REVERT JUMPDEST PUSH32 0x4E487B7100000000000000000000000000000000000000000000000000000000 PUSH1 0x0 MSTORE PUSH1 0x11 PUSH1 0x4 MSTORE PUSH1 0x24 PUSH1 0x0 REVERT JUMPDEST PUSH1 0x0 PUSH2 0x8C9 DUP3 PUSH2 0x6BB JUMP JUMPDEST SWAP2 POP PUSH32 0xFFFFFFFFFFFFFFFFFFFFFFFFFFFFFFFFFFFFFFFFFFFFFFFFFFFFFFFFFFFFFFFF DUP3 SUB PUSH2 0x8FB JUMPI PUSH2 0x8FA PUSH2 0x88F JUMP JUMPDEST JUMPDEST PUSH1 0x1 DUP3 ADD SWAP1 POP SWAP2 SWAP1 POP JUMP JUMPDEST PUSH1 0x0 PUSH2 0x911 DUP3 PUSH2 0x6BB JUMP JUMPDEST SWAP2 POP PUSH2 0x91C DUP4 PUSH2 0x6BB JUMP JUMPDEST SWAP3 POP DUP3 DUP3 ADD SWAP1 POP DUP1 DUP3 GT ISZERO PUSH2 0x934 JUMPI PUSH2 0x933 PUSH2 0x88F JUMP JUMPDEST JUMPDEST SWAP3 SWAP2 POP POP JUMP JUMPDEST PUSH32 0x4E487B7100000000000000000000000000000000000000000000000000000000 PUSH1 0x0 MSTORE PUSH1 0x12 PUSH1 0x4 MSTORE PUSH1 0x24 PUSH1 0x0 REVERT JUMPDEST PUSH1 0x0 PUSH2 0x974 DUP3 PUSH2 0x6BB JUMP JUMPDEST SWAP2 POP PUSH2 0x97F DUP4 PUSH2 0x6BB JUMP JUMPDEST SWAP3 POP DUP3 PUSH2 0x98F JUMPI PUSH2 0x98E PUSH2 0x93A JUMP JUMPDEST JUMPDEST DUP3 DUP3 DIV SWAP1 POP SWAP3 SWAP2 POP POP JUMP JUMPDEST PUSH1 0x0 PUSH2 0x9A5 DUP3 PUSH2 0x6BB JUMP JUMPDEST SWAP2 POP PUSH2 0x9B0 DUP4 PUSH2 0x6BB JUMP JUMPDEST SWAP3 POP DUP3 DUP3 SUB SWAP1 POP DUP2 DUP2 GT ISZERO PUSH2 0x9C8 JUMPI PUSH2 0x9C7 PUSH2 0x88F JUMP JUMPDEST JUMPDEST SWAP3 SWAP2 POP POP JUMP INVALID LOG2 PUSH5 0x6970667358 0x22 SLT KECCAK256 0xC8 PUSH32 0x57B33D8B4CCB5FDAE77E767876179FB2C637424BED644ADA503411C0F9676473 PUSH16 0x6C63430008120033A264697066735822 SLT KECCAK256 0xA9 0x21 KECCAK256 0x1E 0xD1 0x2E 0xFB DUP13 0x1E 0xD0 0xE1 PUSH14 0x5FF24C70D984DD2E734EDA3330AF 0x4E PUSH26 0x3008F6F164736F6C634300081200330000000000000000000000 "
				},
				"gasEstimates": {
					"creation": {
						"codeDepositCost": "1983800",
						"executionCost": "26364",
						"totalCost": "2010164"
					},
					"external": {
						"applyForCredit(uint256,uint256,uint256,bytes)": "infinite",
						"changeCreditState(address)": "infinite",
						"changeCreditState(address,uint8)": "infinite",
						"credits(uint256)": "4957",
						"getCredits()": "infinite",
						"getUsersCredits()": "infinite",
						"owner()": "2511",
						"setFraudStatus(address)": "infinite",
						"users(address)": "infinite"
					}
				},
				"methodIdentifiers": {
					"applyForCredit(uint256,uint256,uint256,bytes)": "ebb53e89",
					"changeCreditState(address)": "59658c48",
					"changeCreditState(address,uint8)": "fa838e54",
					"credits(uint256)": "036a1c22",
					"getCredits()": "823a71af",
					"getUsersCredits()": "5a524d07",
					"owner()": "8da5cb5b",
					"setFraudStatus(address)": "bb9e4247",
					"users(address)": "a87430ba"
				}
			},
			"storageLayout": {
				"storage": [
					{
						"astId": 534,
						"contract": "Project Module 2/PeerToPeerLending.sol:PeerToPeerLending",
						"label": "owner",
						"offset": 0,
						"slot": "0",
						"type": "t_address"
					},
					{
						"astId": 585,
						"contract": "Project Module 2/PeerToPeerLending.sol:PeerToPeerLending",
						"label": "users",
						"offset": 0,
						"slot": "1",
						"type": "t_mapping(t_address,t_struct(User)580_storage)"
					},
					{
						"astId": 588,
						"contract": "Project Module 2/PeerToPeerLending.sol:PeerToPeerLending",
						"label": "credits",
						"offset": 0,
						"slot": "2",
						"type": "t_array(t_address)dyn_storage"
					}
				],
				"types": {
					"t_address": {
						"encoding": "inplace",
						"label": "address",
						"numberOfBytes": "20"
					},
					"t_array(t_address)dyn_storage": {
						"base": "t_address",
						"encoding": "dynamic_array",
						"label": "address[]",
						"numberOfBytes": "32"
					},
					"t_bool": {
						"encoding": "inplace",
						"label": "bool",
						"numberOfBytes": "1"
					},
					"t_mapping(t_address,t_struct(User)580_storage)": {
						"encoding": "mapping",
						"key": "t_address",
						"label": "mapping(address => struct PeerToPeerLending.User)",
						"numberOfBytes": "32",
						"value": "t_struct(User)580_storage"
					},
					"t_struct(User)580_storage": {
						"encoding": "inplace",
						"label": "struct PeerToPeerLending.User",
						"members": [
							{
								"astId": 572,
								"contract": "Project Module 2/PeerToPeerLending.sol:PeerToPeerLending",
								"label": "credited",
								"offset": 0,
								"slot": "0",
								"type": "t_bool"
							},
							{
								"astId": 574,
								"contract": "Project Module 2/PeerToPeerLending.sol:PeerToPeerLending",
								"label": "activeCredit",
								"offset": 1,
								"slot": "0",
								"type": "t_address"
							},
							{
								"astId": 576,
								"contract": "Project Module 2/PeerToPeerLending.sol:PeerToPeerLending",
								"label": "fraudStatus",
								"offset": 21,
								"slot": "0",
								"type": "t_bool"
							},
							{
								"astId": 579,
								"contract": "Project Module 2/PeerToPeerLending.sol:PeerToPeerLending",
								"label": "allCredits",
								"offset": 0,
								"slot": "1",
								"type": "t_array(t_address)dyn_storage"
							}
						],
						"numberOfBytes": "64"
					}
				}
			},
			"userdoc": {
				"kind": "user",
				"methods": {},
				"version": 1
			}
		}
	}
}