{
	"LABS 8 Aug/Task 1 lab8.sol": {
		"StudentRegSystem": {
			"abi": [
				{
					"inputs": [],
					"name": "countOfStudents",
					"outputs": [
						{
							"internalType": "uint256",
							"name": "AI",
							"type": "uint256"
						},
						{
							"internalType": "uint256",
							"name": "Blockchain",
							"type": "uint256"
						},
						{
							"internalType": "uint256",
							"name": "E_Commerce",
							"type": "uint256"
						},
						{
							"internalType": "uint256",
							"name": "Arts",
							"type": "uint256"
						}
					],
					"stateMutability": "view",
					"type": "function"
				},
				{
					"inputs": [
						{
							"internalType": "string",
							"name": "_name",
							"type": "string"
						},
						{
							"internalType": "uint256",
							"name": "_age",
							"type": "uint256"
						},
						{
							"internalType": "uint256",
							"name": "_date",
							"type": "uint256"
						},
						{
							"internalType": "enum StudentRegSystem.Department",
							"name": "_departnment",
							"type": "uint8"
						}
					],
					"name": "register",
					"outputs": [
						{
							"internalType": "uint256",
							"name": "",
							"type": "uint256"
						}
					],
					"stateMutability": "nonpayable",
					"type": "function"
				},
				{
					"inputs": [
						{
							"internalType": "uint256",
							"name": "_rollNo",
							"type": "uint256"
						}
					],
					"name": "retrieve",
					"outputs": [
						{
							"internalType": "string",
							"name": "name",
							"type": "string"
						},
						{
							"internalType": "uint256",
							"name": "age",
							"type": "uint256"
						},
						{
							"internalType": "uint256",
							"name": "date",
							"type": "uint256"
						},
						{
							"internalType": "enum StudentRegSystem.Department",
							"name": "departnment",
							"type": "uint8"
						},
						{
							"internalType": "enum StudentRegSystem.Status",
							"name": "status",
							"type": "uint8"
						},
						{
							"internalType": "uint256",
							"name": "obtAInedMarks",
							"type": "uint256"
						}
					],
					"stateMutability": "view",
					"type": "function"
				},
				{
					"inputs": [],
					"name": "studentLength",
					"outputs": [
						{
							"internalType": "uint256",
							"name": "",
							"type": "uint256"
						}
					],
					"stateMutability": "view",
					"type": "function"
				},
				{
					"inputs": [],
					"name": "top3Achivers",
					"outputs": [],
					"stateMutability": "nonpayable",
					"type": "function"
				},
				{
					"inputs": [],
					"name": "topGetter",
					"outputs": [
						{
							"internalType": "uint256[3]",
							"name": "",
							"type": "uint256[3]"
						}
					],
					"stateMutability": "view",
					"type": "function"
				},
				{
					"inputs": [
						{
							"internalType": "uint256",
							"name": "_rollNo",
							"type": "uint256"
						},
						{
							"internalType": "string",
							"name": "_name",
							"type": "string"
						},
						{
							"internalType": "uint256",
							"name": "_age",
							"type": "uint256"
						},
						{
							"internalType": "uint256",
							"name": "_date",
							"type": "uint256"
						},
						{
							"internalType": "enum StudentRegSystem.Department",
							"name": "_departnment",
							"type": "uint8"
						},
						{
							"internalType": "enum StudentRegSystem.Status",
							"name": "_status",
							"type": "uint8"
						},
						{
							"internalType": "uint256",
							"name": "_obtAInedMarks",
							"type": "uint256"
						}
					],
					"name": "update",
					"outputs": [],
					"stateMutability": "nonpayable",
					"type": "function"
				}
			],
			"devdoc": {
				"kind": "dev",
				"methods": {},
				"version": 1
			},
			"evm": {
				"assembly": "    /* \"LABS 8 Aug/Task 1 lab8.sol\":60:2974  contract StudentRegSystem {... */\n  mstore(0x40, 0x80)\n  callvalue\n  dup1\n  iszero\n  tag_1\n  jumpi\n  0x00\n  dup1\n  revert\ntag_1:\n  pop\n  dataSize(sub_0)\n  dup1\n  dataOffset(sub_0)\n  0x00\n  codecopy\n  0x00\n  return\nstop\n\nsub_0: assembly {\n        /* \"LABS 8 Aug/Task 1 lab8.sol\":60:2974  contract StudentRegSystem {... */\n      mstore(0x40, 0x80)\n      callvalue\n      dup1\n      iszero\n      tag_1\n      jumpi\n      0x00\n      dup1\n      revert\n    tag_1:\n      pop\n      jumpi(tag_2, lt(calldatasize, 0x04))\n      shr(0xe0, calldataload(0x00))\n      dup1\n      0x835c21b6\n      gt\n      tag_10\n      jumpi\n      dup1\n      0x835c21b6\n      eq\n      tag_6\n      jumpi\n      dup1\n      0x8f88708b\n      eq\n      tag_7\n      jumpi\n      dup1\n      0xb9adfc3e\n      eq\n      tag_8\n      jumpi\n      dup1\n      0xd6e9f06f\n      eq\n      tag_9\n      jumpi\n      jump(tag_2)\n    tag_10:\n      dup1\n      0x48e3eeda\n      eq\n      tag_3\n      jumpi\n      dup1\n      0x56322050\n      eq\n      tag_4\n      jumpi\n      dup1\n      0x739a87e9\n      eq\n      tag_5\n      jumpi\n    tag_2:\n      0x00\n      dup1\n      revert\n        /* \"LABS 8 Aug/Task 1 lab8.sol\":905:1226  function update(uint _rollNo,string memory _name,uint _age,uint _date,Department _departnment,Status _status,uint _obtAInedMarks)public{... */\n    tag_3:\n      tag_11\n      0x04\n      dup1\n      calldatasize\n      sub\n      dup2\n      add\n      swap1\n      tag_12\n      swap2\n      swap1\n      tag_13\n      jump\t// in\n    tag_12:\n      tag_14\n      jump\t// in\n    tag_11:\n      stop\n        /* \"LABS 8 Aug/Task 1 lab8.sol\":2415:2971  function top3Achivers()public {... */\n    tag_4:\n      tag_15\n      tag_16\n      jump\t// in\n    tag_15:\n      stop\n        /* \"LABS 8 Aug/Task 1 lab8.sol\":2322:2409  function topGetter()public view returns (uint[3] memory) {... */\n    tag_5:\n      tag_17\n      tag_18\n      jump\t// in\n    tag_17:\n      mload(0x40)\n      tag_19\n      swap2\n      swap1\n      tag_20\n      jump\t// in\n    tag_19:\n      mload(0x40)\n      dup1\n      swap2\n      sub\n      swap1\n      return\n        /* \"LABS 8 Aug/Task 1 lab8.sol\":601:899  function register(string memory _name, uint _age, uint _date, Department _departnment)public returns(uint){... */\n    tag_6:\n      tag_21\n      0x04\n      dup1\n      calldatasize\n      sub\n      dup2\n      add\n      swap1\n      tag_22\n      swap2\n      swap1\n      tag_23\n      jump\t// in\n    tag_22:\n      tag_24\n      jump\t// in\n    tag_21:\n      mload(0x40)\n      tag_25\n      swap2\n      swap1\n      tag_26\n      jump\t// in\n    tag_25:\n      mload(0x40)\n      dup1\n      swap2\n      sub\n      swap1\n      return\n        /* \"LABS 8 Aug/Task 1 lab8.sol\":1232:1598  function retrieve(uint _rollNo)public view returns(string memory name,uint age,uint date,Department departnment, Status status,uint obtAInedMarks){... */\n    tag_7:\n      tag_27\n      0x04\n      dup1\n      calldatasize\n      sub\n      dup2\n      add\n      swap1\n      tag_28\n      swap2\n      swap1\n      tag_29\n      jump\t// in\n    tag_28:\n      tag_30\n      jump\t// in\n    tag_27:\n      mload(0x40)\n      tag_31\n      swap7\n      swap6\n      swap5\n      swap4\n      swap3\n      swap2\n      swap1\n      tag_32\n      jump\t// in\n    tag_31:\n      mload(0x40)\n      dup1\n      swap2\n      sub\n      swap1\n      return\n        /* \"LABS 8 Aug/Task 1 lab8.sol\":1604:2316  function countOfStudents()public view returns(uint AI ,uint Blockchain, uint E_Commerce, uint Arts){... */\n    tag_8:\n      tag_33\n      tag_34\n      jump\t// in\n    tag_33:\n      mload(0x40)\n      tag_35\n      swap5\n      swap4\n      swap3\n      swap2\n      swap1\n      tag_36\n      jump\t// in\n    tag_35:\n      mload(0x40)\n      dup1\n      swap2\n      sub\n      swap1\n      return\n        /* \"LABS 8 Aug/Task 1 lab8.sol\":548:573  uint public studentLength */\n    tag_9:\n      tag_37\n      tag_38\n      jump\t// in\n    tag_37:\n      mload(0x40)\n      tag_39\n      swap2\n      swap1\n      tag_26\n      jump\t// in\n    tag_39:\n      mload(0x40)\n      dup1\n      swap2\n      sub\n      swap1\n      return\n        /* \"LABS 8 Aug/Task 1 lab8.sol\":905:1226  function update(uint _rollNo,string memory _name,uint _age,uint _date,Department _departnment,Status _status,uint _obtAInedMarks)public{... */\n    tag_14:\n        /* \"LABS 8 Aug/Task 1 lab8.sol\":1062:1063  0 */\n      0x00\n        /* \"LABS 8 Aug/Task 1 lab8.sol\":1054:1061  _rollNo */\n      dup8\n        /* \"LABS 8 Aug/Task 1 lab8.sol\":1054:1063  _rollNo>0 */\n      gt\n        /* \"LABS 8 Aug/Task 1 lab8.sol\":1054:1089  _rollNo>0||_rollNo <= studentLength */\n      dup1\n      tag_41\n      jumpi\n      pop\n        /* \"LABS 8 Aug/Task 1 lab8.sol\":1076:1089  studentLength */\n      sload(0x01)\n        /* \"LABS 8 Aug/Task 1 lab8.sol\":1065:1072  _rollNo */\n      dup8\n        /* \"LABS 8 Aug/Task 1 lab8.sol\":1065:1089  _rollNo <= studentLength */\n      gt\n      iszero\n        /* \"LABS 8 Aug/Task 1 lab8.sol\":1054:1089  _rollNo>0||_rollNo <= studentLength */\n    tag_41:\n        /* \"LABS 8 Aug/Task 1 lab8.sol\":1051:1209  if(_rollNo>0||_rollNo <= studentLength){... */\n      iszero\n      tag_42\n      jumpi\n        /* \"LABS 8 Aug/Task 1 lab8.sol\":1130:1196  Student(_name, _age, _date, _departnment, _status, _obtAInedMarks) */\n      mload(0x40)\n      dup1\n      0xc0\n      add\n      0x40\n      mstore\n      dup1\n        /* \"LABS 8 Aug/Task 1 lab8.sol\":1138:1143  _name */\n      dup8\n        /* \"LABS 8 Aug/Task 1 lab8.sol\":1130:1196  Student(_name, _age, _date, _departnment, _status, _obtAInedMarks) */\n      dup2\n      mstore\n      0x20\n      add\n        /* \"LABS 8 Aug/Task 1 lab8.sol\":1145:1149  _age */\n      dup7\n        /* \"LABS 8 Aug/Task 1 lab8.sol\":1130:1196  Student(_name, _age, _date, _departnment, _status, _obtAInedMarks) */\n      dup2\n      mstore\n      0x20\n      add\n        /* \"LABS 8 Aug/Task 1 lab8.sol\":1151:1156  _date */\n      dup6\n        /* \"LABS 8 Aug/Task 1 lab8.sol\":1130:1196  Student(_name, _age, _date, _departnment, _status, _obtAInedMarks) */\n      dup2\n      mstore\n      0x20\n      add\n        /* \"LABS 8 Aug/Task 1 lab8.sol\":1158:1170  _departnment */\n      dup5\n        /* \"LABS 8 Aug/Task 1 lab8.sol\":1130:1196  Student(_name, _age, _date, _departnment, _status, _obtAInedMarks) */\n      0x03\n      dup2\n      gt\n      iszero\n      tag_43\n      jumpi\n      tag_44\n      tag_45\n      jump\t// in\n    tag_44:\n    tag_43:\n      dup2\n      mstore\n      0x20\n      add\n        /* \"LABS 8 Aug/Task 1 lab8.sol\":1172:1179  _status */\n      dup4\n        /* \"LABS 8 Aug/Task 1 lab8.sol\":1130:1196  Student(_name, _age, _date, _departnment, _status, _obtAInedMarks) */\n      0x03\n      dup2\n      gt\n      iszero\n      tag_46\n      jumpi\n      tag_47\n      tag_45\n      jump\t// in\n    tag_47:\n    tag_46:\n      dup2\n      mstore\n      0x20\n      add\n        /* \"LABS 8 Aug/Task 1 lab8.sol\":1181:1195  _obtAInedMarks */\n      dup3\n        /* \"LABS 8 Aug/Task 1 lab8.sol\":1130:1196  Student(_name, _age, _date, _departnment, _status, _obtAInedMarks) */\n      dup2\n      mstore\n      pop\n        /* \"LABS 8 Aug/Task 1 lab8.sol\":1105:1118  TotalStudents */\n      0x00\n        /* \"LABS 8 Aug/Task 1 lab8.sol\":1105:1127  TotalStudents[_rollNo] */\n      dup1\n        /* \"LABS 8 Aug/Task 1 lab8.sol\":1119:1126  _rollNo */\n      dup10\n        /* \"LABS 8 Aug/Task 1 lab8.sol\":1105:1127  TotalStudents[_rollNo] */\n      dup2\n      mstore\n      0x20\n      add\n      swap1\n      dup2\n      mstore\n      0x20\n      add\n      0x00\n      keccak256\n        /* \"LABS 8 Aug/Task 1 lab8.sol\":1105:1196  TotalStudents[_rollNo] = Student(_name, _age, _date, _departnment, _status, _obtAInedMarks) */\n      0x00\n      dup3\n      add\n      mload\n      dup2\n      0x00\n      add\n      swap1\n      dup2\n      tag_48\n      swap2\n      swap1\n      tag_49\n      jump\t// in\n    tag_48:\n      pop\n      0x20\n      dup3\n      add\n      mload\n      dup2\n      0x01\n      add\n      sstore\n      0x40\n      dup3\n      add\n      mload\n      dup2\n      0x02\n      add\n      sstore\n      0x60\n      dup3\n      add\n      mload\n      dup2\n      0x03\n      add\n      exp(0x0100, 0x00)\n      dup2\n      sload\n      dup2\n      0xff\n      mul\n      not\n      and\n      swap1\n      dup4\n      0x03\n      dup2\n      gt\n      iszero\n      tag_50\n      jumpi\n      tag_51\n      tag_45\n      jump\t// in\n    tag_51:\n    tag_50:\n      mul\n      or\n      swap1\n      sstore\n      pop\n      0x80\n      dup3\n      add\n      mload\n      dup2\n      0x03\n      add\n      exp(0x0100, 0x01)\n      dup2\n      sload\n      dup2\n      0xff\n      mul\n      not\n      and\n      swap1\n      dup4\n      0x03\n      dup2\n      gt\n      iszero\n      tag_52\n      jumpi\n      tag_53\n      tag_45\n      jump\t// in\n    tag_53:\n    tag_52:\n      mul\n      or\n      swap1\n      sstore\n      pop\n      0xa0\n      dup3\n      add\n      mload\n      dup2\n      0x04\n      add\n      sstore\n      swap1\n      pop\n      pop\n        /* \"LABS 8 Aug/Task 1 lab8.sol\":1051:1209  if(_rollNo>0||_rollNo <= studentLength){... */\n    tag_42:\n        /* \"LABS 8 Aug/Task 1 lab8.sol\":905:1226  function update(uint _rollNo,string memory _name,uint _age,uint _date,Department _departnment,Status _status,uint _obtAInedMarks)public{... */\n      pop\n      pop\n      pop\n      pop\n      pop\n      pop\n      pop\n      jump\t// out\n        /* \"LABS 8 Aug/Task 1 lab8.sol\":2415:2971  function top3Achivers()public {... */\n    tag_16:\n        /* \"LABS 8 Aug/Task 1 lab8.sol\":2456:2474  uint[] memory _arr */\n      0x00\n        /* \"LABS 8 Aug/Task 1 lab8.sol\":2488:2501  studentLength */\n      sload(0x01)\n        /* \"LABS 8 Aug/Task 1 lab8.sol\":2477:2502  new uint[](studentLength) */\n      0xffffffffffffffff\n      dup2\n      gt\n      iszero\n      tag_55\n      jumpi\n      tag_56\n      tag_57\n      jump\t// in\n    tag_56:\n    tag_55:\n      mload(0x40)\n      swap1\n      dup1\n      dup3\n      mstore\n      dup1\n      0x20\n      mul\n      0x20\n      add\n      dup3\n      add\n      0x40\n      mstore\n      dup1\n      iszero\n      tag_58\n      jumpi\n      dup2\n      0x20\n      add\n      0x20\n      dup3\n      mul\n      dup1\n      calldatasize\n      dup4\n      calldatacopy\n      dup1\n      dup3\n      add\n      swap2\n      pop\n      pop\n      swap1\n      pop\n    tag_58:\n      pop\n        /* \"LABS 8 Aug/Task 1 lab8.sol\":2456:2502  uint[] memory _arr = new uint[](studentLength) */\n      swap1\n      pop\n        /* \"LABS 8 Aug/Task 1 lab8.sol\":2517:2523  uint j */\n      0x00\n        /* \"LABS 8 Aug/Task 1 lab8.sol\":2513:2880  for(uint j = 0;j < _arr.length;j++){... */\n    tag_59:\n        /* \"LABS 8 Aug/Task 1 lab8.sol\":2532:2536  _arr */\n      dup2\n        /* \"LABS 8 Aug/Task 1 lab8.sol\":2532:2543  _arr.length */\n      mload\n        /* \"LABS 8 Aug/Task 1 lab8.sol\":2528:2529  j */\n      dup2\n        /* \"LABS 8 Aug/Task 1 lab8.sol\":2528:2543  j < _arr.length */\n      lt\n        /* \"LABS 8 Aug/Task 1 lab8.sol\":2513:2880  for(uint j = 0;j < _arr.length;j++){... */\n      iszero\n      tag_60\n      jumpi\n        /* \"LABS 8 Aug/Task 1 lab8.sol\":2568:2574  uint k */\n      0x00\n        /* \"LABS 8 Aug/Task 1 lab8.sol\":2563:2869  for (uint k = 0 ; k < _arr.length-1 ; k++){... */\n    tag_62:\n        /* \"LABS 8 Aug/Task 1 lab8.sol\":2597:2598  1 */\n      0x01\n        /* \"LABS 8 Aug/Task 1 lab8.sol\":2585:2589  _arr */\n      dup4\n        /* \"LABS 8 Aug/Task 1 lab8.sol\":2585:2596  _arr.length */\n      mload\n        /* \"LABS 8 Aug/Task 1 lab8.sol\":2585:2598  _arr.length-1 */\n      tag_65\n      swap2\n      swap1\n      tag_66\n      jump\t// in\n    tag_65:\n        /* \"LABS 8 Aug/Task 1 lab8.sol\":2581:2582  k */\n      dup2\n        /* \"LABS 8 Aug/Task 1 lab8.sol\":2581:2598  k < _arr.length-1 */\n      lt\n        /* \"LABS 8 Aug/Task 1 lab8.sol\":2563:2869  for (uint k = 0 ; k < _arr.length-1 ; k++){... */\n      iszero\n      tag_63\n      jumpi\n        /* \"LABS 8 Aug/Task 1 lab8.sol\":2666:2679  TotalStudents */\n      0x00\n        /* \"LABS 8 Aug/Task 1 lab8.sol\":2666:2690  TotalStudents[_arr[k+1]] */\n      dup1\n        /* \"LABS 8 Aug/Task 1 lab8.sol\":2680:2684  _arr */\n      dup5\n        /* \"LABS 8 Aug/Task 1 lab8.sol\":2687:2688  1 */\n      0x01\n        /* \"LABS 8 Aug/Task 1 lab8.sol\":2685:2686  k */\n      dup5\n        /* \"LABS 8 Aug/Task 1 lab8.sol\":2685:2688  k+1 */\n      tag_67\n      swap2\n      swap1\n      tag_68\n      jump\t// in\n    tag_67:\n        /* \"LABS 8 Aug/Task 1 lab8.sol\":2680:2689  _arr[k+1] */\n      dup2\n      mload\n      dup2\n      lt\n      tag_69\n      jumpi\n      tag_70\n      tag_71\n      jump\t// in\n    tag_70:\n    tag_69:\n      0x20\n      mul\n      0x20\n      add\n      add\n      mload\n        /* \"LABS 8 Aug/Task 1 lab8.sol\":2666:2690  TotalStudents[_arr[k+1]] */\n      dup2\n      mstore\n      0x20\n      add\n      swap1\n      dup2\n      mstore\n      0x20\n      add\n      0x00\n      keccak256\n        /* \"LABS 8 Aug/Task 1 lab8.sol\":2666:2704  TotalStudents[_arr[k+1]].obtAInedMarks */\n      0x04\n      add\n      sload\n        /* \"LABS 8 Aug/Task 1 lab8.sol\":2627:2640  TotalStudents */\n      0x00\n        /* \"LABS 8 Aug/Task 1 lab8.sol\":2627:2649  TotalStudents[_arr[k]] */\n      dup1\n        /* \"LABS 8 Aug/Task 1 lab8.sol\":2641:2645  _arr */\n      dup6\n        /* \"LABS 8 Aug/Task 1 lab8.sol\":2646:2647  k */\n      dup5\n        /* \"LABS 8 Aug/Task 1 lab8.sol\":2641:2648  _arr[k] */\n      dup2\n      mload\n      dup2\n      lt\n      tag_72\n      jumpi\n      tag_73\n      tag_71\n      jump\t// in\n    tag_73:\n    tag_72:\n      0x20\n      mul\n      0x20\n      add\n      add\n      mload\n        /* \"LABS 8 Aug/Task 1 lab8.sol\":2627:2649  TotalStudents[_arr[k]] */\n      dup2\n      mstore\n      0x20\n      add\n      swap1\n      dup2\n      mstore\n      0x20\n      add\n      0x00\n      keccak256\n        /* \"LABS 8 Aug/Task 1 lab8.sol\":2627:2663  TotalStudents[_arr[k]].obtAInedMarks */\n      0x04\n      add\n      sload\n        /* \"LABS 8 Aug/Task 1 lab8.sol\":2627:2704  TotalStudents[_arr[k]].obtAInedMarks < TotalStudents[_arr[k+1]].obtAInedMarks */\n      lt\n        /* \"LABS 8 Aug/Task 1 lab8.sol\":2624:2854  if(TotalStudents[_arr[k]].obtAInedMarks < TotalStudents[_arr[k+1]].obtAInedMarks){... */\n      iszero\n      tag_74\n      jumpi\n        /* \"LABS 8 Aug/Task 1 lab8.sol\":2728:2740  uint _bucket */\n      0x00\n        /* \"LABS 8 Aug/Task 1 lab8.sol\":2743:2747  _arr */\n      dup4\n        /* \"LABS 8 Aug/Task 1 lab8.sol\":2750:2751  1 */\n      0x01\n        /* \"LABS 8 Aug/Task 1 lab8.sol\":2748:2749  k */\n      dup4\n        /* \"LABS 8 Aug/Task 1 lab8.sol\":2748:2751  k+1 */\n      tag_75\n      swap2\n      swap1\n      tag_68\n      jump\t// in\n    tag_75:\n        /* \"LABS 8 Aug/Task 1 lab8.sol\":2743:2752  _arr[k+1] */\n      dup2\n      mload\n      dup2\n      lt\n      tag_76\n      jumpi\n      tag_77\n      tag_71\n      jump\t// in\n    tag_77:\n    tag_76:\n      0x20\n      mul\n      0x20\n      add\n      add\n      mload\n        /* \"LABS 8 Aug/Task 1 lab8.sol\":2728:2752  uint _bucket = _arr[k+1] */\n      swap1\n      pop\n        /* \"LABS 8 Aug/Task 1 lab8.sol\":2787:2791  _arr */\n      dup4\n        /* \"LABS 8 Aug/Task 1 lab8.sol\":2792:2793  k */\n      dup3\n        /* \"LABS 8 Aug/Task 1 lab8.sol\":2787:2794  _arr[k] */\n      dup2\n      mload\n      dup2\n      lt\n      tag_78\n      jumpi\n      tag_79\n      tag_71\n      jump\t// in\n    tag_79:\n    tag_78:\n      0x20\n      mul\n      0x20\n      add\n      add\n      mload\n        /* \"LABS 8 Aug/Task 1 lab8.sol\":2775:2779  _arr */\n      dup5\n        /* \"LABS 8 Aug/Task 1 lab8.sol\":2782:2783  1 */\n      0x01\n        /* \"LABS 8 Aug/Task 1 lab8.sol\":2780:2781  k */\n      dup5\n        /* \"LABS 8 Aug/Task 1 lab8.sol\":2780:2783  k+1 */\n      tag_80\n      swap2\n      swap1\n      tag_68\n      jump\t// in\n    tag_80:\n        /* \"LABS 8 Aug/Task 1 lab8.sol\":2775:2784  _arr[k+1] */\n      dup2\n      mload\n      dup2\n      lt\n      tag_81\n      jumpi\n      tag_82\n      tag_71\n      jump\t// in\n    tag_82:\n    tag_81:\n      0x20\n      mul\n      0x20\n      add\n      add\n        /* \"LABS 8 Aug/Task 1 lab8.sol\":2775:2794  _arr[k+1] = _arr[k] */\n      dup2\n      dup2\n      mstore\n      pop\n      pop\n        /* \"LABS 8 Aug/Task 1 lab8.sol\":2827:2834  _bucket */\n      dup1\n        /* \"LABS 8 Aug/Task 1 lab8.sol\":2817:2821  _arr */\n      dup5\n        /* \"LABS 8 Aug/Task 1 lab8.sol\":2822:2823  k */\n      dup4\n        /* \"LABS 8 Aug/Task 1 lab8.sol\":2817:2824  _arr[k] */\n      dup2\n      mload\n      dup2\n      lt\n      tag_83\n      jumpi\n      tag_84\n      tag_71\n      jump\t// in\n    tag_84:\n    tag_83:\n      0x20\n      mul\n      0x20\n      add\n      add\n        /* \"LABS 8 Aug/Task 1 lab8.sol\":2817:2834  _arr[k] = _bucket */\n      dup2\n      dup2\n      mstore\n      pop\n      pop\n        /* \"LABS 8 Aug/Task 1 lab8.sol\":2705:2854  {... */\n      pop\n        /* \"LABS 8 Aug/Task 1 lab8.sol\":2624:2854  if(TotalStudents[_arr[k]].obtAInedMarks < TotalStudents[_arr[k+1]].obtAInedMarks){... */\n    tag_74:\n        /* \"LABS 8 Aug/Task 1 lab8.sol\":2601:2604  k++ */\n      dup1\n      dup1\n      tag_85\n      swap1\n      tag_86\n      jump\t// in\n    tag_85:\n      swap2\n      pop\n      pop\n        /* \"LABS 8 Aug/Task 1 lab8.sol\":2563:2869  for (uint k = 0 ; k < _arr.length-1 ; k++){... */\n      jump(tag_62)\n    tag_63:\n      pop\n        /* \"LABS 8 Aug/Task 1 lab8.sol\":2544:2547  j++ */\n      dup1\n      dup1\n      tag_87\n      swap1\n      tag_86\n      jump\t// in\n    tag_87:\n      swap2\n      pop\n      pop\n        /* \"LABS 8 Aug/Task 1 lab8.sol\":2513:2880  for(uint j = 0;j < _arr.length;j++){... */\n      jump(tag_59)\n    tag_60:\n      pop\n        /* \"LABS 8 Aug/Task 1 lab8.sol\":2900:2904  _arr */\n      dup1\n        /* \"LABS 8 Aug/Task 1 lab8.sol\":2905:2906  0 */\n      0x00\n        /* \"LABS 8 Aug/Task 1 lab8.sol\":2900:2907  _arr[0] */\n      dup2\n      mload\n      dup2\n      lt\n      tag_88\n      jumpi\n      tag_89\n      tag_71\n      jump\t// in\n    tag_89:\n    tag_88:\n      0x20\n      mul\n      0x20\n      add\n      add\n      mload\n        /* \"LABS 8 Aug/Task 1 lab8.sol\":2890:2894  top3 */\n      0x02\n        /* \"LABS 8 Aug/Task 1 lab8.sol\":2895:2896  0 */\n      0x00\n        /* \"LABS 8 Aug/Task 1 lab8.sol\":2890:2897  top3[0] */\n      0x03\n      dup2\n      lt\n      tag_90\n      jumpi\n      tag_91\n      tag_71\n      jump\t// in\n    tag_91:\n    tag_90:\n      add\n        /* \"LABS 8 Aug/Task 1 lab8.sol\":2890:2907  top3[0] = _arr[0] */\n      dup2\n      swap1\n      sstore\n      pop\n        /* \"LABS 8 Aug/Task 1 lab8.sol\":2928:2932  _arr */\n      dup1\n        /* \"LABS 8 Aug/Task 1 lab8.sol\":2933:2934  1 */\n      0x01\n        /* \"LABS 8 Aug/Task 1 lab8.sol\":2928:2935  _arr[1] */\n      dup2\n      mload\n      dup2\n      lt\n      tag_93\n      jumpi\n      tag_94\n      tag_71\n      jump\t// in\n    tag_94:\n    tag_93:\n      0x20\n      mul\n      0x20\n      add\n      add\n      mload\n        /* \"LABS 8 Aug/Task 1 lab8.sol\":2918:2922  top3 */\n      0x02\n        /* \"LABS 8 Aug/Task 1 lab8.sol\":2923:2924  1 */\n      0x01\n        /* \"LABS 8 Aug/Task 1 lab8.sol\":2918:2925  top3[1] */\n      0x03\n      dup2\n      lt\n      tag_95\n      jumpi\n      tag_96\n      tag_71\n      jump\t// in\n    tag_96:\n    tag_95:\n      add\n        /* \"LABS 8 Aug/Task 1 lab8.sol\":2918:2935  top3[1] = _arr[1] */\n      dup2\n      swap1\n      sstore\n      pop\n        /* \"LABS 8 Aug/Task 1 lab8.sol\":2956:2960  _arr */\n      dup1\n        /* \"LABS 8 Aug/Task 1 lab8.sol\":2961:2962  2 */\n      0x02\n        /* \"LABS 8 Aug/Task 1 lab8.sol\":2956:2963  _arr[2] */\n      dup2\n      mload\n      dup2\n      lt\n      tag_98\n      jumpi\n      tag_99\n      tag_71\n      jump\t// in\n    tag_99:\n    tag_98:\n      0x20\n      mul\n      0x20\n      add\n      add\n      mload\n        /* \"LABS 8 Aug/Task 1 lab8.sol\":2946:2950  top3 */\n      0x02\n        /* \"LABS 8 Aug/Task 1 lab8.sol\":2951:2952  2 */\n      dup1\n        /* \"LABS 8 Aug/Task 1 lab8.sol\":2946:2953  top3[2] */\n      0x03\n      dup2\n      lt\n      tag_100\n      jumpi\n      tag_101\n      tag_71\n      jump\t// in\n    tag_101:\n    tag_100:\n      add\n        /* \"LABS 8 Aug/Task 1 lab8.sol\":2946:2963  top3[2] = _arr[2] */\n      dup2\n      swap1\n      sstore\n      pop\n        /* \"LABS 8 Aug/Task 1 lab8.sol\":2445:2971  {... */\n      pop\n        /* \"LABS 8 Aug/Task 1 lab8.sol\":2415:2971  function top3Achivers()public {... */\n      jump\t// out\n        /* \"LABS 8 Aug/Task 1 lab8.sol\":2322:2409  function topGetter()public view returns (uint[3] memory) {... */\n    tag_18:\n        /* \"LABS 8 Aug/Task 1 lab8.sol\":2363:2377  uint[3] memory */\n      tag_103\n      tag_104\n      jump\t// in\n    tag_103:\n        /* \"LABS 8 Aug/Task 1 lab8.sol\":2397:2401  top3 */\n      0x02\n        /* \"LABS 8 Aug/Task 1 lab8.sol\":2390:2401  return top3 */\n      0x03\n      dup1\n      0x20\n      mul\n      mload(0x40)\n      swap1\n      dup2\n      add\n      0x40\n      mstore\n      dup1\n      swap3\n      swap2\n      swap1\n      dup3\n      0x03\n      dup1\n      iszero\n      tag_106\n      jumpi\n      0x20\n      mul\n      dup3\n      add\n      swap2\n    tag_107:\n      dup2\n      sload\n      dup2\n      mstore\n      0x20\n      add\n      swap1\n      0x01\n      add\n      swap1\n      dup1\n      dup4\n      gt\n      tag_107\n      jumpi\n    tag_106:\n      pop\n      pop\n      pop\n      pop\n      pop\n      swap1\n      pop\n        /* \"LABS 8 Aug/Task 1 lab8.sol\":2322:2409  function topGetter()public view returns (uint[3] memory) {... */\n      swap1\n      jump\t// out\n        /* \"LABS 8 Aug/Task 1 lab8.sol\":601:899  function register(string memory _name, uint _age, uint _date, Department _departnment)public returns(uint){... */\n    tag_24:\n        /* \"LABS 8 Aug/Task 1 lab8.sol\":702:706  uint */\n      0x00\n        /* \"LABS 8 Aug/Task 1 lab8.sol\":718:728  uint _roll */\n      dup1\n        /* \"LABS 8 Aug/Task 1 lab8.sol\":745:746  1 */\n      0x01\n        /* \"LABS 8 Aug/Task 1 lab8.sol\":731:744  studentLength */\n      dup1\n      sload\n        /* \"LABS 8 Aug/Task 1 lab8.sol\":731:746  studentLength+1 */\n      tag_109\n      swap2\n      swap1\n      tag_68\n      jump\t// in\n    tag_109:\n        /* \"LABS 8 Aug/Task 1 lab8.sol\":718:746  uint _roll = studentLength+1 */\n      swap1\n      pop\n        /* \"LABS 8 Aug/Task 1 lab8.sol\":778:837  Student(_name,_age,_date,_departnment,Status.NotEnrolled,0) */\n      mload(0x40)\n      dup1\n      0xc0\n      add\n      0x40\n      mstore\n      dup1\n        /* \"LABS 8 Aug/Task 1 lab8.sol\":786:791  _name */\n      dup8\n        /* \"LABS 8 Aug/Task 1 lab8.sol\":778:837  Student(_name,_age,_date,_departnment,Status.NotEnrolled,0) */\n      dup2\n      mstore\n      0x20\n      add\n        /* \"LABS 8 Aug/Task 1 lab8.sol\":792:796  _age */\n      dup7\n        /* \"LABS 8 Aug/Task 1 lab8.sol\":778:837  Student(_name,_age,_date,_departnment,Status.NotEnrolled,0) */\n      dup2\n      mstore\n      0x20\n      add\n        /* \"LABS 8 Aug/Task 1 lab8.sol\":797:802  _date */\n      dup6\n        /* \"LABS 8 Aug/Task 1 lab8.sol\":778:837  Student(_name,_age,_date,_departnment,Status.NotEnrolled,0) */\n      dup2\n      mstore\n      0x20\n      add\n        /* \"LABS 8 Aug/Task 1 lab8.sol\":803:815  _departnment */\n      dup5\n        /* \"LABS 8 Aug/Task 1 lab8.sol\":778:837  Student(_name,_age,_date,_departnment,Status.NotEnrolled,0) */\n      0x03\n      dup2\n      gt\n      iszero\n      tag_110\n      jumpi\n      tag_111\n      tag_45\n      jump\t// in\n    tag_111:\n    tag_110:\n      dup2\n      mstore\n      0x20\n      add\n        /* \"LABS 8 Aug/Task 1 lab8.sol\":816:834  Status.NotEnrolled */\n      0x00\n        /* \"LABS 8 Aug/Task 1 lab8.sol\":778:837  Student(_name,_age,_date,_departnment,Status.NotEnrolled,0) */\n      0x03\n      dup2\n      gt\n      iszero\n      tag_112\n      jumpi\n      tag_113\n      tag_45\n      jump\t// in\n    tag_113:\n    tag_112:\n      dup2\n      mstore\n      0x20\n      add\n        /* \"LABS 8 Aug/Task 1 lab8.sol\":835:836  0 */\n      0x00\n        /* \"LABS 8 Aug/Task 1 lab8.sol\":778:837  Student(_name,_age,_date,_departnment,Status.NotEnrolled,0) */\n      dup2\n      mstore\n      pop\n        /* \"LABS 8 Aug/Task 1 lab8.sol\":757:770  TotalStudents */\n      0x00\n        /* \"LABS 8 Aug/Task 1 lab8.sol\":757:777  TotalStudents[_roll] */\n      dup1\n        /* \"LABS 8 Aug/Task 1 lab8.sol\":771:776  _roll */\n      dup4\n        /* \"LABS 8 Aug/Task 1 lab8.sol\":757:777  TotalStudents[_roll] */\n      dup2\n      mstore\n      0x20\n      add\n      swap1\n      dup2\n      mstore\n      0x20\n      add\n      0x00\n      keccak256\n        /* \"LABS 8 Aug/Task 1 lab8.sol\":757:837  TotalStudents[_roll]=Student(_name,_age,_date,_departnment,Status.NotEnrolled,0) */\n      0x00\n      dup3\n      add\n      mload\n      dup2\n      0x00\n      add\n      swap1\n      dup2\n      tag_114\n      swap2\n      swap1\n      tag_49\n      jump\t// in\n    tag_114:\n      pop\n      0x20\n      dup3\n      add\n      mload\n      dup2\n      0x01\n      add\n      sstore\n      0x40\n      dup3\n      add\n      mload\n      dup2\n      0x02\n      add\n      sstore\n      0x60\n      dup3\n      add\n      mload\n      dup2\n      0x03\n      add\n      exp(0x0100, 0x00)\n      dup2\n      sload\n      dup2\n      0xff\n      mul\n      not\n      and\n      swap1\n      dup4\n      0x03\n      dup2\n      gt\n      iszero\n      tag_115\n      jumpi\n      tag_116\n      tag_45\n      jump\t// in\n    tag_116:\n    tag_115:\n      mul\n      or\n      swap1\n      sstore\n      pop\n      0x80\n      dup3\n      add\n      mload\n      dup2\n      0x03\n      add\n      exp(0x0100, 0x01)\n      dup2\n      sload\n      dup2\n      0xff\n      mul\n      not\n      and\n      swap1\n      dup4\n      0x03\n      dup2\n      gt\n      iszero\n      tag_117\n      jumpi\n      tag_118\n      tag_45\n      jump\t// in\n    tag_118:\n    tag_117:\n      mul\n      or\n      swap1\n      sstore\n      pop\n      0xa0\n      dup3\n      add\n      mload\n      dup2\n      0x04\n      add\n      sstore\n      swap1\n      pop\n      pop\n        /* \"LABS 8 Aug/Task 1 lab8.sol\":849:862  studentLength */\n      0x01\n      0x00\n        /* \"LABS 8 Aug/Task 1 lab8.sol\":849:864  studentLength++ */\n      dup2\n      sload\n      dup1\n      swap3\n      swap2\n      swap1\n      tag_119\n      swap1\n      tag_86\n      jump\t// in\n    tag_119:\n      swap2\n      swap1\n      pop\n      sstore\n      pop\n        /* \"LABS 8 Aug/Task 1 lab8.sol\":886:891  _roll */\n      dup1\n        /* \"LABS 8 Aug/Task 1 lab8.sol\":879:891  return _roll */\n      swap2\n      pop\n      pop\n        /* \"LABS 8 Aug/Task 1 lab8.sol\":601:899  function register(string memory _name, uint _age, uint _date, Department _departnment)public returns(uint){... */\n      swap5\n      swap4\n      pop\n      pop\n      pop\n      pop\n      jump\t// out\n        /* \"LABS 8 Aug/Task 1 lab8.sol\":1232:1598  function retrieve(uint _rollNo)public view returns(string memory name,uint age,uint date,Department departnment, Status status,uint obtAInedMarks){... */\n    tag_30:\n        /* \"LABS 8 Aug/Task 1 lab8.sol\":1283:1301  string memory name */\n      0x60\n        /* \"LABS 8 Aug/Task 1 lab8.sol\":1302:1310  uint age */\n      0x00\n        /* \"LABS 8 Aug/Task 1 lab8.sol\":1311:1320  uint date */\n      dup1\n        /* \"LABS 8 Aug/Task 1 lab8.sol\":1321:1343  Department departnment */\n      0x00\n        /* \"LABS 8 Aug/Task 1 lab8.sol\":1345:1358  Status status */\n      dup1\n        /* \"LABS 8 Aug/Task 1 lab8.sol\":1359:1377  uint obtAInedMarks */\n      0x00\n        /* \"LABS 8 Aug/Task 1 lab8.sol\":1397:1410  TotalStudents */\n      dup1\n        /* \"LABS 8 Aug/Task 1 lab8.sol\":1397:1419  TotalStudents[_rollNo] */\n      0x00\n        /* \"LABS 8 Aug/Task 1 lab8.sol\":1411:1418  _rollNo */\n      dup9\n        /* \"LABS 8 Aug/Task 1 lab8.sol\":1397:1419  TotalStudents[_rollNo] */\n      dup2\n      mstore\n      0x20\n      add\n      swap1\n      dup2\n      mstore\n      0x20\n      add\n      0x00\n      keccak256\n        /* \"LABS 8 Aug/Task 1 lab8.sol\":1397:1424  TotalStudents[_rollNo].name */\n      0x00\n      add\n        /* \"LABS 8 Aug/Task 1 lab8.sol\":1425:1438  TotalStudents */\n      0x00\n        /* \"LABS 8 Aug/Task 1 lab8.sol\":1425:1447  TotalStudents[_rollNo] */\n      dup1\n        /* \"LABS 8 Aug/Task 1 lab8.sol\":1439:1446  _rollNo */\n      dup10\n        /* \"LABS 8 Aug/Task 1 lab8.sol\":1425:1447  TotalStudents[_rollNo] */\n      dup2\n      mstore\n      0x20\n      add\n      swap1\n      dup2\n      mstore\n      0x20\n      add\n      0x00\n      keccak256\n        /* \"LABS 8 Aug/Task 1 lab8.sol\":1425:1451  TotalStudents[_rollNo].age */\n      0x01\n      add\n      sload\n        /* \"LABS 8 Aug/Task 1 lab8.sol\":1452:1465  TotalStudents */\n      0x00\n        /* \"LABS 8 Aug/Task 1 lab8.sol\":1452:1474  TotalStudents[_rollNo] */\n      dup1\n        /* \"LABS 8 Aug/Task 1 lab8.sol\":1466:1473  _rollNo */\n      dup11\n        /* \"LABS 8 Aug/Task 1 lab8.sol\":1452:1474  TotalStudents[_rollNo] */\n      dup2\n      mstore\n      0x20\n      add\n      swap1\n      dup2\n      mstore\n      0x20\n      add\n      0x00\n      keccak256\n        /* \"LABS 8 Aug/Task 1 lab8.sol\":1452:1479  TotalStudents[_rollNo].date */\n      0x02\n      add\n      sload\n        /* \"LABS 8 Aug/Task 1 lab8.sol\":1480:1493  TotalStudents */\n      0x00\n        /* \"LABS 8 Aug/Task 1 lab8.sol\":1480:1502  TotalStudents[_rollNo] */\n      dup1\n        /* \"LABS 8 Aug/Task 1 lab8.sol\":1494:1501  _rollNo */\n      dup12\n        /* \"LABS 8 Aug/Task 1 lab8.sol\":1480:1502  TotalStudents[_rollNo] */\n      dup2\n      mstore\n      0x20\n      add\n      swap1\n      dup2\n      mstore\n      0x20\n      add\n      0x00\n      keccak256\n        /* \"LABS 8 Aug/Task 1 lab8.sol\":1480:1514  TotalStudents[_rollNo].departnment */\n      0x03\n      add\n      0x00\n      swap1\n      sload\n      swap1\n      0x0100\n      exp\n      swap1\n      div\n      0xff\n      and\n        /* \"LABS 8 Aug/Task 1 lab8.sol\":1515:1528  TotalStudents */\n      0x00\n        /* \"LABS 8 Aug/Task 1 lab8.sol\":1515:1537  TotalStudents[_rollNo] */\n      dup1\n        /* \"LABS 8 Aug/Task 1 lab8.sol\":1529:1536  _rollNo */\n      dup13\n        /* \"LABS 8 Aug/Task 1 lab8.sol\":1515:1537  TotalStudents[_rollNo] */\n      dup2\n      mstore\n      0x20\n      add\n      swap1\n      dup2\n      mstore\n      0x20\n      add\n      0x00\n      keccak256\n        /* \"LABS 8 Aug/Task 1 lab8.sol\":1515:1544  TotalStudents[_rollNo].status */\n      0x03\n      add\n      0x01\n      swap1\n      sload\n      swap1\n      0x0100\n      exp\n      swap1\n      div\n      0xff\n      and\n        /* \"LABS 8 Aug/Task 1 lab8.sol\":1545:1558  TotalStudents */\n      0x00\n        /* \"LABS 8 Aug/Task 1 lab8.sol\":1545:1567  TotalStudents[_rollNo] */\n      dup1\n        /* \"LABS 8 Aug/Task 1 lab8.sol\":1559:1566  _rollNo */\n      dup14\n        /* \"LABS 8 Aug/Task 1 lab8.sol\":1545:1567  TotalStudents[_rollNo] */\n      dup2\n      mstore\n      0x20\n      add\n      swap1\n      dup2\n      mstore\n      0x20\n      add\n      0x00\n      keccak256\n        /* \"LABS 8 Aug/Task 1 lab8.sol\":1545:1581  TotalStudents[_rollNo].obtAInedMarks */\n      0x04\n      add\n      sload\n        /* \"LABS 8 Aug/Task 1 lab8.sol\":1389:1582  return (TotalStudents[_rollNo].name,TotalStudents[_rollNo].age,TotalStudents[_rollNo].date,TotalStudents[_rollNo].departnment,TotalStudents[_rollNo].status,TotalStudents[_rollNo].obtAInedMarks) */\n      dup6\n      dup1\n      sload\n      tag_121\n      swap1\n      tag_122\n      jump\t// in\n    tag_121:\n      dup1\n      0x1f\n      add\n      0x20\n      dup1\n      swap2\n      div\n      mul\n      0x20\n      add\n      mload(0x40)\n      swap1\n      dup2\n      add\n      0x40\n      mstore\n      dup1\n      swap3\n      swap2\n      swap1\n      dup2\n      dup2\n      mstore\n      0x20\n      add\n      dup3\n      dup1\n      sload\n      tag_123\n      swap1\n      tag_122\n      jump\t// in\n    tag_123:\n      dup1\n      iszero\n      tag_124\n      jumpi\n      dup1\n      0x1f\n      lt\n      tag_125\n      jumpi\n      0x0100\n      dup1\n      dup4\n      sload\n      div\n      mul\n      dup4\n      mstore\n      swap2\n      0x20\n      add\n      swap2\n      jump(tag_124)\n    tag_125:\n      dup3\n      add\n      swap2\n      swap1\n      0x00\n      mstore\n      keccak256(0x00, 0x20)\n      swap1\n    tag_126:\n      dup2\n      sload\n      dup2\n      mstore\n      swap1\n      0x01\n      add\n      swap1\n      0x20\n      add\n      dup1\n      dup4\n      gt\n      tag_126\n      jumpi\n      dup3\n      swap1\n      sub\n      0x1f\n      and\n      dup3\n      add\n      swap2\n    tag_124:\n      pop\n      pop\n      pop\n      pop\n      pop\n      swap6\n      pop\n      swap6\n      pop\n      swap6\n      pop\n      swap6\n      pop\n      swap6\n      pop\n      swap6\n      pop\n      swap6\n      pop\n        /* \"LABS 8 Aug/Task 1 lab8.sol\":1232:1598  function retrieve(uint _rollNo)public view returns(string memory name,uint age,uint date,Department departnment, Status status,uint obtAInedMarks){... */\n      swap2\n      swap4\n      swap6\n      pop\n      swap2\n      swap4\n      swap6\n      jump\t// out\n        /* \"LABS 8 Aug/Task 1 lab8.sol\":1604:2316  function countOfStudents()public view returns(uint AI ,uint Blockchain, uint E_Commerce, uint Arts){... */\n    tag_34:\n        /* \"LABS 8 Aug/Task 1 lab8.sol\":1650:1657  uint AI */\n      0x00\n        /* \"LABS 8 Aug/Task 1 lab8.sol\":1659:1674  uint Blockchain */\n      dup1\n        /* \"LABS 8 Aug/Task 1 lab8.sol\":1676:1691  uint E_Commerce */\n      0x00\n        /* \"LABS 8 Aug/Task 1 lab8.sol\":1693:1702  uint Arts */\n      dup1\n        /* \"LABS 8 Aug/Task 1 lab8.sol\":1714:1722  uint _AI */\n      0x00\n        /* \"LABS 8 Aug/Task 1 lab8.sol\":1733:1749  uint _Blockchain */\n      dup1\n        /* \"LABS 8 Aug/Task 1 lab8.sol\":1760:1776  uint _E_Commerce */\n      0x00\n        /* \"LABS 8 Aug/Task 1 lab8.sol\":1787:1796  uint _Art */\n      dup1\n        /* \"LABS 8 Aug/Task 1 lab8.sol\":1811:1817  uint i */\n      0x00\n        /* \"LABS 8 Aug/Task 1 lab8.sol\":1818:1819  1 */\n      0x01\n        /* \"LABS 8 Aug/Task 1 lab8.sol\":1811:1819  uint i=1 */\n      swap1\n      pop\n        /* \"LABS 8 Aug/Task 1 lab8.sol\":1807:2247  for(uint i=1;i<=studentLength;i+1){... */\n    tag_128:\n        /* \"LABS 8 Aug/Task 1 lab8.sol\":1823:1836  studentLength */\n      sload(0x01)\n        /* \"LABS 8 Aug/Task 1 lab8.sol\":1820:1821  i */\n      dup2\n        /* \"LABS 8 Aug/Task 1 lab8.sol\":1820:1836  i<=studentLength */\n      gt\n        /* \"LABS 8 Aug/Task 1 lab8.sol\":1807:2247  for(uint i=1;i<=studentLength;i+1){... */\n      tag_129\n      jumpi\n        /* \"LABS 8 Aug/Task 1 lab8.sol\":1900:1901  0 */\n      0x00\n        /* \"LABS 8 Aug/Task 1 lab8.sol\":1889:1902  Department(0) */\n      0x03\n      dup2\n      gt\n      iszero\n      tag_131\n      jumpi\n      tag_132\n      tag_45\n      jump\t// in\n    tag_132:\n    tag_131:\n        /* \"LABS 8 Aug/Task 1 lab8.sol\":1859:1902  TotalStudents[i].departnment==Department(0) */\n      0x03\n      dup2\n      gt\n      iszero\n      tag_133\n      jumpi\n      tag_134\n      tag_45\n      jump\t// in\n    tag_134:\n    tag_133:\n        /* \"LABS 8 Aug/Task 1 lab8.sol\":1859:1872  TotalStudents */\n      0x00\n        /* \"LABS 8 Aug/Task 1 lab8.sol\":1859:1875  TotalStudents[i] */\n      dup1\n        /* \"LABS 8 Aug/Task 1 lab8.sol\":1873:1874  i */\n      dup4\n        /* \"LABS 8 Aug/Task 1 lab8.sol\":1859:1875  TotalStudents[i] */\n      dup2\n      mstore\n      0x20\n      add\n      swap1\n      dup2\n      mstore\n      0x20\n      add\n      0x00\n      keccak256\n        /* \"LABS 8 Aug/Task 1 lab8.sol\":1859:1887  TotalStudents[i].departnment */\n      0x03\n      add\n      0x00\n      swap1\n      sload\n      swap1\n      0x0100\n      exp\n      swap1\n      div\n      0xff\n      and\n        /* \"LABS 8 Aug/Task 1 lab8.sol\":1859:1902  TotalStudents[i].departnment==Department(0) */\n      0x03\n      dup2\n      gt\n      iszero\n      tag_135\n      jumpi\n      tag_136\n      tag_45\n      jump\t// in\n    tag_136:\n    tag_135:\n      sub\n        /* \"LABS 8 Aug/Task 1 lab8.sol\":1856:2236  if(TotalStudents[i].departnment==Department(0)){... */\n      tag_137\n      jumpi\n        /* \"LABS 8 Aug/Task 1 lab8.sol\":1922:1927  _AI++ */\n      dup5\n      dup1\n      tag_138\n      swap1\n      tag_86\n      jump\t// in\n    tag_138:\n      swap6\n      pop\n      pop\n        /* \"LABS 8 Aug/Task 1 lab8.sol\":1856:2236  if(TotalStudents[i].departnment==Department(0)){... */\n      jump(tag_139)\n    tag_137:\n        /* \"LABS 8 Aug/Task 1 lab8.sol\":1992:1993  1 */\n      0x01\n        /* \"LABS 8 Aug/Task 1 lab8.sol\":1981:1994  Department(1) */\n      0x03\n      dup2\n      gt\n      iszero\n      tag_140\n      jumpi\n      tag_141\n      tag_45\n      jump\t// in\n    tag_141:\n    tag_140:\n        /* \"LABS 8 Aug/Task 1 lab8.sol\":1951:1994  TotalStudents[i].departnment==Department(1) */\n      0x03\n      dup2\n      gt\n      iszero\n      tag_142\n      jumpi\n      tag_143\n      tag_45\n      jump\t// in\n    tag_143:\n    tag_142:\n        /* \"LABS 8 Aug/Task 1 lab8.sol\":1951:1964  TotalStudents */\n      0x00\n        /* \"LABS 8 Aug/Task 1 lab8.sol\":1951:1967  TotalStudents[i] */\n      dup1\n        /* \"LABS 8 Aug/Task 1 lab8.sol\":1965:1966  i */\n      dup4\n        /* \"LABS 8 Aug/Task 1 lab8.sol\":1951:1967  TotalStudents[i] */\n      dup2\n      mstore\n      0x20\n      add\n      swap1\n      dup2\n      mstore\n      0x20\n      add\n      0x00\n      keccak256\n        /* \"LABS 8 Aug/Task 1 lab8.sol\":1951:1979  TotalStudents[i].departnment */\n      0x03\n      add\n      0x00\n      swap1\n      sload\n      swap1\n      0x0100\n      exp\n      swap1\n      div\n      0xff\n      and\n        /* \"LABS 8 Aug/Task 1 lab8.sol\":1951:1994  TotalStudents[i].departnment==Department(1) */\n      0x03\n      dup2\n      gt\n      iszero\n      tag_144\n      jumpi\n      tag_145\n      tag_45\n      jump\t// in\n    tag_145:\n    tag_144:\n      sub\n        /* \"LABS 8 Aug/Task 1 lab8.sol\":1948:2236  if(TotalStudents[i].departnment==Department(1)){... */\n      tag_146\n      jumpi\n        /* \"LABS 8 Aug/Task 1 lab8.sol\":2014:2027  _Blockchain++ */\n      dup4\n      dup1\n      tag_147\n      swap1\n      tag_86\n      jump\t// in\n    tag_147:\n      swap5\n      pop\n      pop\n        /* \"LABS 8 Aug/Task 1 lab8.sol\":1948:2236  if(TotalStudents[i].departnment==Department(1)){... */\n      jump(tag_148)\n    tag_146:\n        /* \"LABS 8 Aug/Task 1 lab8.sol\":2092:2093  2 */\n      0x02\n        /* \"LABS 8 Aug/Task 1 lab8.sol\":2081:2094  Department(2) */\n      0x03\n      dup2\n      gt\n      iszero\n      tag_149\n      jumpi\n      tag_150\n      tag_45\n      jump\t// in\n    tag_150:\n    tag_149:\n        /* \"LABS 8 Aug/Task 1 lab8.sol\":2051:2094  TotalStudents[i].departnment==Department(2) */\n      0x03\n      dup2\n      gt\n      iszero\n      tag_151\n      jumpi\n      tag_152\n      tag_45\n      jump\t// in\n    tag_152:\n    tag_151:\n        /* \"LABS 8 Aug/Task 1 lab8.sol\":2051:2064  TotalStudents */\n      0x00\n        /* \"LABS 8 Aug/Task 1 lab8.sol\":2051:2067  TotalStudents[i] */\n      dup1\n        /* \"LABS 8 Aug/Task 1 lab8.sol\":2065:2066  i */\n      dup4\n        /* \"LABS 8 Aug/Task 1 lab8.sol\":2051:2067  TotalStudents[i] */\n      dup2\n      mstore\n      0x20\n      add\n      swap1\n      dup2\n      mstore\n      0x20\n      add\n      0x00\n      keccak256\n        /* \"LABS 8 Aug/Task 1 lab8.sol\":2051:2079  TotalStudents[i].departnment */\n      0x03\n      add\n      0x00\n      swap1\n      sload\n      swap1\n      0x0100\n      exp\n      swap1\n      div\n      0xff\n      and\n        /* \"LABS 8 Aug/Task 1 lab8.sol\":2051:2094  TotalStudents[i].departnment==Department(2) */\n      0x03\n      dup2\n      gt\n      iszero\n      tag_153\n      jumpi\n      tag_154\n      tag_45\n      jump\t// in\n    tag_154:\n    tag_153:\n      sub\n        /* \"LABS 8 Aug/Task 1 lab8.sol\":2048:2236  if(TotalStudents[i].departnment==Department(2)){... */\n      tag_155\n      jumpi\n        /* \"LABS 8 Aug/Task 1 lab8.sol\":2114:2127  _E_Commerce++ */\n      dup3\n      dup1\n      tag_156\n      swap1\n      tag_86\n      jump\t// in\n    tag_156:\n      swap4\n      pop\n      pop\n        /* \"LABS 8 Aug/Task 1 lab8.sol\":2048:2236  if(TotalStudents[i].departnment==Department(2)){... */\n      jump(tag_157)\n    tag_155:\n        /* \"LABS 8 Aug/Task 1 lab8.sol\":2192:2193  3 */\n      0x03\n        /* \"LABS 8 Aug/Task 1 lab8.sol\":2181:2194  Department(3) */\n      dup1\n      dup2\n      gt\n      iszero\n      tag_158\n      jumpi\n      tag_159\n      tag_45\n      jump\t// in\n    tag_159:\n    tag_158:\n        /* \"LABS 8 Aug/Task 1 lab8.sol\":2151:2194  TotalStudents[i].departnment==Department(3) */\n      0x03\n      dup2\n      gt\n      iszero\n      tag_160\n      jumpi\n      tag_161\n      tag_45\n      jump\t// in\n    tag_161:\n    tag_160:\n        /* \"LABS 8 Aug/Task 1 lab8.sol\":2151:2164  TotalStudents */\n      0x00\n        /* \"LABS 8 Aug/Task 1 lab8.sol\":2151:2167  TotalStudents[i] */\n      dup1\n        /* \"LABS 8 Aug/Task 1 lab8.sol\":2165:2166  i */\n      dup4\n        /* \"LABS 8 Aug/Task 1 lab8.sol\":2151:2167  TotalStudents[i] */\n      dup2\n      mstore\n      0x20\n      add\n      swap1\n      dup2\n      mstore\n      0x20\n      add\n      0x00\n      keccak256\n        /* \"LABS 8 Aug/Task 1 lab8.sol\":2151:2179  TotalStudents[i].departnment */\n      0x03\n      add\n      0x00\n      swap1\n      sload\n      swap1\n      0x0100\n      exp\n      swap1\n      div\n      0xff\n      and\n        /* \"LABS 8 Aug/Task 1 lab8.sol\":2151:2194  TotalStudents[i].departnment==Department(3) */\n      0x03\n      dup2\n      gt\n      iszero\n      tag_162\n      jumpi\n      tag_163\n      tag_45\n      jump\t// in\n    tag_163:\n    tag_162:\n      sub\n        /* \"LABS 8 Aug/Task 1 lab8.sol\":2148:2236  if(TotalStudents[i].departnment==Department(3)){... */\n      tag_164\n      jumpi\n        /* \"LABS 8 Aug/Task 1 lab8.sol\":2214:2220  _Art++ */\n      dup2\n      dup1\n      tag_165\n      swap1\n      tag_86\n      jump\t// in\n    tag_165:\n      swap3\n      pop\n      pop\n        /* \"LABS 8 Aug/Task 1 lab8.sol\":2148:2236  if(TotalStudents[i].departnment==Department(3)){... */\n    tag_164:\n        /* \"LABS 8 Aug/Task 1 lab8.sol\":2048:2236  if(TotalStudents[i].departnment==Department(2)){... */\n    tag_157:\n        /* \"LABS 8 Aug/Task 1 lab8.sol\":1948:2236  if(TotalStudents[i].departnment==Department(1)){... */\n    tag_148:\n        /* \"LABS 8 Aug/Task 1 lab8.sol\":1856:2236  if(TotalStudents[i].departnment==Department(0)){... */\n    tag_139:\n        /* \"LABS 8 Aug/Task 1 lab8.sol\":1839:1840  1 */\n      0x01\n        /* \"LABS 8 Aug/Task 1 lab8.sol\":1837:1838  i */\n      dup2\n        /* \"LABS 8 Aug/Task 1 lab8.sol\":1837:1840  i+1 */\n      tag_166\n      swap2\n      swap1\n      tag_68\n      jump\t// in\n    tag_166:\n      pop\n        /* \"LABS 8 Aug/Task 1 lab8.sol\":1807:2247  for(uint i=1;i<=studentLength;i+1){... */\n      jump(tag_128)\n    tag_129:\n      pop\n        /* \"LABS 8 Aug/Task 1 lab8.sol\":2265:2268  _AI */\n      dup4\n        /* \"LABS 8 Aug/Task 1 lab8.sol\":2270:2281  _Blockchain */\n      dup4\n        /* \"LABS 8 Aug/Task 1 lab8.sol\":2283:2294  _E_Commerce */\n      dup4\n        /* \"LABS 8 Aug/Task 1 lab8.sol\":2296:2300  _Art */\n      dup4\n        /* \"LABS 8 Aug/Task 1 lab8.sol\":2257:2301  return (_AI, _Blockchain, _E_Commerce, _Art) */\n      swap8\n      pop\n      swap8\n      pop\n      swap8\n      pop\n      swap8\n      pop\n      pop\n      pop\n      pop\n      pop\n        /* \"LABS 8 Aug/Task 1 lab8.sol\":1604:2316  function countOfStudents()public view returns(uint AI ,uint Blockchain, uint E_Commerce, uint Arts){... */\n      swap1\n      swap2\n      swap3\n      swap4\n      jump\t// out\n        /* \"LABS 8 Aug/Task 1 lab8.sol\":548:573  uint public studentLength */\n    tag_38:\n      sload(0x01)\n      dup2\n      jump\t// out\n    tag_104:\n      mload(0x40)\n      dup1\n      0x60\n      add\n      0x40\n      mstore\n      dup1\n      0x03\n      swap1\n      0x20\n      dup3\n      mul\n      dup1\n      calldatasize\n      dup4\n      calldatacopy\n      dup1\n      dup3\n      add\n      swap2\n      pop\n      pop\n      swap1\n      pop\n      pop\n      swap1\n      jump\t// out\n        /* \"#utility.yul\":7:82   */\n    tag_167:\n        /* \"#utility.yul\":40:46   */\n      0x00\n        /* \"#utility.yul\":73:75   */\n      0x40\n        /* \"#utility.yul\":67:76   */\n      mload\n        /* \"#utility.yul\":57:76   */\n      swap1\n      pop\n        /* \"#utility.yul\":7:82   */\n      swap1\n      jump\t// out\n        /* \"#utility.yul\":88:205   */\n    tag_168:\n        /* \"#utility.yul\":197:198   */\n      0x00\n        /* \"#utility.yul\":194:195   */\n      dup1\n        /* \"#utility.yul\":187:199   */\n      revert\n        /* \"#utility.yul\":211:328   */\n    tag_169:\n        /* \"#utility.yul\":320:321   */\n      0x00\n        /* \"#utility.yul\":317:318   */\n      dup1\n        /* \"#utility.yul\":310:322   */\n      revert\n        /* \"#utility.yul\":334:411   */\n    tag_170:\n        /* \"#utility.yul\":371:378   */\n      0x00\n        /* \"#utility.yul\":400:405   */\n      dup2\n        /* \"#utility.yul\":389:405   */\n      swap1\n      pop\n        /* \"#utility.yul\":334:411   */\n      swap2\n      swap1\n      pop\n      jump\t// out\n        /* \"#utility.yul\":417:539   */\n    tag_171:\n        /* \"#utility.yul\":490:514   */\n      tag_229\n        /* \"#utility.yul\":508:513   */\n      dup2\n        /* \"#utility.yul\":490:514   */\n      tag_170\n      jump\t// in\n    tag_229:\n        /* \"#utility.yul\":483:488   */\n      dup2\n        /* \"#utility.yul\":480:515   */\n      eq\n        /* \"#utility.yul\":470:533   */\n      tag_230\n      jumpi\n        /* \"#utility.yul\":529:530   */\n      0x00\n        /* \"#utility.yul\":526:527   */\n      dup1\n        /* \"#utility.yul\":519:531   */\n      revert\n        /* \"#utility.yul\":470:533   */\n    tag_230:\n        /* \"#utility.yul\":417:539   */\n      pop\n      jump\t// out\n        /* \"#utility.yul\":545:684   */\n    tag_172:\n        /* \"#utility.yul\":591:596   */\n      0x00\n        /* \"#utility.yul\":629:635   */\n      dup2\n        /* \"#utility.yul\":616:636   */\n      calldataload\n        /* \"#utility.yul\":607:636   */\n      swap1\n      pop\n        /* \"#utility.yul\":645:678   */\n      tag_232\n        /* \"#utility.yul\":672:677   */\n      dup2\n        /* \"#utility.yul\":645:678   */\n      tag_171\n      jump\t// in\n    tag_232:\n        /* \"#utility.yul\":545:684   */\n      swap3\n      swap2\n      pop\n      pop\n      jump\t// out\n        /* \"#utility.yul\":690:807   */\n    tag_173:\n        /* \"#utility.yul\":799:800   */\n      0x00\n        /* \"#utility.yul\":796:797   */\n      dup1\n        /* \"#utility.yul\":789:801   */\n      revert\n        /* \"#utility.yul\":813:930   */\n    tag_174:\n        /* \"#utility.yul\":922:923   */\n      0x00\n        /* \"#utility.yul\":919:920   */\n      dup1\n        /* \"#utility.yul\":912:924   */\n      revert\n        /* \"#utility.yul\":936:1038   */\n    tag_175:\n        /* \"#utility.yul\":977:983   */\n      0x00\n        /* \"#utility.yul\":1028:1030   */\n      0x1f\n        /* \"#utility.yul\":1024:1031   */\n      not\n        /* \"#utility.yul\":1019:1021   */\n      0x1f\n        /* \"#utility.yul\":1012:1017   */\n      dup4\n        /* \"#utility.yul\":1008:1022   */\n      add\n        /* \"#utility.yul\":1004:1032   */\n      and\n        /* \"#utility.yul\":994:1032   */\n      swap1\n      pop\n        /* \"#utility.yul\":936:1038   */\n      swap2\n      swap1\n      pop\n      jump\t// out\n        /* \"#utility.yul\":1044:1224   */\n    tag_57:\n        /* \"#utility.yul\":1092:1169   */\n      0x4e487b7100000000000000000000000000000000000000000000000000000000\n        /* \"#utility.yul\":1089:1090   */\n      0x00\n        /* \"#utility.yul\":1082:1170   */\n      mstore\n        /* \"#utility.yul\":1189:1193   */\n      0x41\n        /* \"#utility.yul\":1186:1187   */\n      0x04\n        /* \"#utility.yul\":1179:1194   */\n      mstore\n        /* \"#utility.yul\":1213:1217   */\n      0x24\n        /* \"#utility.yul\":1210:1211   */\n      0x00\n        /* \"#utility.yul\":1203:1218   */\n      revert\n        /* \"#utility.yul\":1230:1511   */\n    tag_176:\n        /* \"#utility.yul\":1313:1340   */\n      tag_238\n        /* \"#utility.yul\":1335:1339   */\n      dup3\n        /* \"#utility.yul\":1313:1340   */\n      tag_175\n      jump\t// in\n    tag_238:\n        /* \"#utility.yul\":1305:1311   */\n      dup2\n        /* \"#utility.yul\":1301:1341   */\n      add\n        /* \"#utility.yul\":1443:1449   */\n      dup2\n        /* \"#utility.yul\":1431:1441   */\n      dup2\n        /* \"#utility.yul\":1428:1450   */\n      lt\n        /* \"#utility.yul\":1407:1425   */\n      0xffffffffffffffff\n        /* \"#utility.yul\":1395:1405   */\n      dup3\n        /* \"#utility.yul\":1392:1426   */\n      gt\n        /* \"#utility.yul\":1389:1451   */\n      or\n        /* \"#utility.yul\":1386:1474   */\n      iszero\n      tag_239\n      jumpi\n        /* \"#utility.yul\":1454:1472   */\n      tag_240\n      tag_57\n      jump\t// in\n    tag_240:\n        /* \"#utility.yul\":1386:1474   */\n    tag_239:\n        /* \"#utility.yul\":1494:1504   */\n      dup1\n        /* \"#utility.yul\":1490:1492   */\n      0x40\n        /* \"#utility.yul\":1483:1505   */\n      mstore\n        /* \"#utility.yul\":1273:1511   */\n      pop\n        /* \"#utility.yul\":1230:1511   */\n      pop\n      pop\n      jump\t// out\n        /* \"#utility.yul\":1517:1646   */\n    tag_177:\n        /* \"#utility.yul\":1551:1557   */\n      0x00\n        /* \"#utility.yul\":1578:1598   */\n      tag_242\n      tag_167\n      jump\t// in\n    tag_242:\n        /* \"#utility.yul\":1568:1598   */\n      swap1\n      pop\n        /* \"#utility.yul\":1607:1640   */\n      tag_243\n        /* \"#utility.yul\":1635:1639   */\n      dup3\n        /* \"#utility.yul\":1627:1633   */\n      dup3\n        /* \"#utility.yul\":1607:1640   */\n      tag_176\n      jump\t// in\n    tag_243:\n        /* \"#utility.yul\":1517:1646   */\n      swap2\n      swap1\n      pop\n      jump\t// out\n        /* \"#utility.yul\":1652:1960   */\n    tag_178:\n        /* \"#utility.yul\":1714:1718   */\n      0x00\n        /* \"#utility.yul\":1804:1822   */\n      0xffffffffffffffff\n        /* \"#utility.yul\":1796:1802   */\n      dup3\n        /* \"#utility.yul\":1793:1823   */\n      gt\n        /* \"#utility.yul\":1790:1846   */\n      iszero\n      tag_245\n      jumpi\n        /* \"#utility.yul\":1826:1844   */\n      tag_246\n      tag_57\n      jump\t// in\n    tag_246:\n        /* \"#utility.yul\":1790:1846   */\n    tag_245:\n        /* \"#utility.yul\":1864:1893   */\n      tag_247\n        /* \"#utility.yul\":1886:1892   */\n      dup3\n        /* \"#utility.yul\":1864:1893   */\n      tag_175\n      jump\t// in\n    tag_247:\n        /* \"#utility.yul\":1856:1893   */\n      swap1\n      pop\n        /* \"#utility.yul\":1948:1952   */\n      0x20\n        /* \"#utility.yul\":1942:1946   */\n      dup2\n        /* \"#utility.yul\":1938:1953   */\n      add\n        /* \"#utility.yul\":1930:1953   */\n      swap1\n      pop\n        /* \"#utility.yul\":1652:1960   */\n      swap2\n      swap1\n      pop\n      jump\t// out\n        /* \"#utility.yul\":1966:2112   */\n    tag_179:\n        /* \"#utility.yul\":2063:2069   */\n      dup3\n        /* \"#utility.yul\":2058:2061   */\n      dup2\n        /* \"#utility.yul\":2053:2056   */\n      dup4\n        /* \"#utility.yul\":2040:2070   */\n      calldatacopy\n        /* \"#utility.yul\":2104:2105   */\n      0x00\n        /* \"#utility.yul\":2095:2101   */\n      dup4\n        /* \"#utility.yul\":2090:2093   */\n      dup4\n        /* \"#utility.yul\":2086:2102   */\n      add\n        /* \"#utility.yul\":2079:2106   */\n      mstore\n        /* \"#utility.yul\":1966:2112   */\n      pop\n      pop\n      pop\n      jump\t// out\n        /* \"#utility.yul\":2118:2543   */\n    tag_180:\n        /* \"#utility.yul\":2196:2201   */\n      0x00\n        /* \"#utility.yul\":2221:2287   */\n      tag_250\n        /* \"#utility.yul\":2237:2286   */\n      tag_251\n        /* \"#utility.yul\":2279:2285   */\n      dup5\n        /* \"#utility.yul\":2237:2286   */\n      tag_178\n      jump\t// in\n    tag_251:\n        /* \"#utility.yul\":2221:2287   */\n      tag_177\n      jump\t// in\n    tag_250:\n        /* \"#utility.yul\":2212:2287   */\n      swap1\n      pop\n        /* \"#utility.yul\":2310:2316   */\n      dup3\n        /* \"#utility.yul\":2303:2308   */\n      dup2\n        /* \"#utility.yul\":2296:2317   */\n      mstore\n        /* \"#utility.yul\":2348:2352   */\n      0x20\n        /* \"#utility.yul\":2341:2346   */\n      dup2\n        /* \"#utility.yul\":2337:2353   */\n      add\n        /* \"#utility.yul\":2386:2389   */\n      dup5\n        /* \"#utility.yul\":2377:2383   */\n      dup5\n        /* \"#utility.yul\":2372:2375   */\n      dup5\n        /* \"#utility.yul\":2368:2384   */\n      add\n        /* \"#utility.yul\":2365:2390   */\n      gt\n        /* \"#utility.yul\":2362:2474   */\n      iszero\n      tag_252\n      jumpi\n        /* \"#utility.yul\":2393:2472   */\n      tag_253\n      tag_174\n      jump\t// in\n    tag_253:\n        /* \"#utility.yul\":2362:2474   */\n    tag_252:\n        /* \"#utility.yul\":2483:2537   */\n      tag_254\n        /* \"#utility.yul\":2530:2536   */\n      dup5\n        /* \"#utility.yul\":2525:2528   */\n      dup3\n        /* \"#utility.yul\":2520:2523   */\n      dup6\n        /* \"#utility.yul\":2483:2537   */\n      tag_179\n      jump\t// in\n    tag_254:\n        /* \"#utility.yul\":2202:2543   */\n      pop\n        /* \"#utility.yul\":2118:2543   */\n      swap4\n      swap3\n      pop\n      pop\n      pop\n      jump\t// out\n        /* \"#utility.yul\":2563:2903   */\n    tag_181:\n        /* \"#utility.yul\":2619:2624   */\n      0x00\n        /* \"#utility.yul\":2668:2671   */\n      dup3\n        /* \"#utility.yul\":2661:2665   */\n      0x1f\n        /* \"#utility.yul\":2653:2659   */\n      dup4\n        /* \"#utility.yul\":2649:2666   */\n      add\n        /* \"#utility.yul\":2645:2672   */\n      slt\n        /* \"#utility.yul\":2635:2757   */\n      tag_256\n      jumpi\n        /* \"#utility.yul\":2676:2755   */\n      tag_257\n      tag_173\n      jump\t// in\n    tag_257:\n        /* \"#utility.yul\":2635:2757   */\n    tag_256:\n        /* \"#utility.yul\":2793:2799   */\n      dup2\n        /* \"#utility.yul\":2780:2800   */\n      calldataload\n        /* \"#utility.yul\":2818:2897   */\n      tag_258\n        /* \"#utility.yul\":2893:2896   */\n      dup5\n        /* \"#utility.yul\":2885:2891   */\n      dup3\n        /* \"#utility.yul\":2878:2882   */\n      0x20\n        /* \"#utility.yul\":2870:2876   */\n      dup7\n        /* \"#utility.yul\":2866:2883   */\n      add\n        /* \"#utility.yul\":2818:2897   */\n      tag_180\n      jump\t// in\n    tag_258:\n        /* \"#utility.yul\":2809:2897   */\n      swap2\n      pop\n        /* \"#utility.yul\":2625:2903   */\n      pop\n        /* \"#utility.yul\":2563:2903   */\n      swap3\n      swap2\n      pop\n      pop\n      jump\t// out\n        /* \"#utility.yul\":2909:3020   */\n    tag_182:\n        /* \"#utility.yul\":2994:2995   */\n      0x04\n        /* \"#utility.yul\":2987:2992   */\n      dup2\n        /* \"#utility.yul\":2984:2996   */\n      lt\n        /* \"#utility.yul\":2974:3014   */\n      tag_260\n      jumpi\n        /* \"#utility.yul\":3010:3011   */\n      0x00\n        /* \"#utility.yul\":3007:3008   */\n      dup1\n        /* \"#utility.yul\":3000:3012   */\n      revert\n        /* \"#utility.yul\":2974:3014   */\n    tag_260:\n        /* \"#utility.yul\":2909:3020   */\n      pop\n      jump\t// out\n        /* \"#utility.yul\":3026:3189   */\n    tag_183:\n        /* \"#utility.yul\":3084:3089   */\n      0x00\n        /* \"#utility.yul\":3122:3128   */\n      dup2\n        /* \"#utility.yul\":3109:3129   */\n      calldataload\n        /* \"#utility.yul\":3100:3129   */\n      swap1\n      pop\n        /* \"#utility.yul\":3138:3183   */\n      tag_262\n        /* \"#utility.yul\":3177:3182   */\n      dup2\n        /* \"#utility.yul\":3138:3183   */\n      tag_182\n      jump\t// in\n    tag_262:\n        /* \"#utility.yul\":3026:3189   */\n      swap3\n      swap2\n      pop\n      pop\n      jump\t// out\n        /* \"#utility.yul\":3195:3303   */\n    tag_184:\n        /* \"#utility.yul\":3277:3278   */\n      0x04\n        /* \"#utility.yul\":3270:3275   */\n      dup2\n        /* \"#utility.yul\":3267:3279   */\n      lt\n        /* \"#utility.yul\":3257:3297   */\n      tag_264\n      jumpi\n        /* \"#utility.yul\":3293:3294   */\n      0x00\n        /* \"#utility.yul\":3290:3291   */\n      dup1\n        /* \"#utility.yul\":3283:3295   */\n      revert\n        /* \"#utility.yul\":3257:3297   */\n    tag_264:\n        /* \"#utility.yul\":3195:3303   */\n      pop\n      jump\t// out\n        /* \"#utility.yul\":3309:3466   */\n    tag_185:\n        /* \"#utility.yul\":3364:3369   */\n      0x00\n        /* \"#utility.yul\":3402:3408   */\n      dup2\n        /* \"#utility.yul\":3389:3409   */\n      calldataload\n        /* \"#utility.yul\":3380:3409   */\n      swap1\n      pop\n        /* \"#utility.yul\":3418:3460   */\n      tag_266\n        /* \"#utility.yul\":3454:3459   */\n      dup2\n        /* \"#utility.yul\":3418:3460   */\n      tag_184\n      jump\t// in\n    tag_266:\n        /* \"#utility.yul\":3309:3466   */\n      swap3\n      swap2\n      pop\n      pop\n      jump\t// out\n        /* \"#utility.yul\":3472:4897   */\n    tag_13:\n        /* \"#utility.yul\":3616:3622   */\n      0x00\n        /* \"#utility.yul\":3624:3630   */\n      dup1\n        /* \"#utility.yul\":3632:3638   */\n      0x00\n        /* \"#utility.yul\":3640:3646   */\n      dup1\n        /* \"#utility.yul\":3648:3654   */\n      0x00\n        /* \"#utility.yul\":3656:3662   */\n      dup1\n        /* \"#utility.yul\":3664:3670   */\n      0x00\n        /* \"#utility.yul\":3713:3716   */\n      0xe0\n        /* \"#utility.yul\":3701:3710   */\n      dup9\n        /* \"#utility.yul\":3692:3699   */\n      dup11\n        /* \"#utility.yul\":3688:3711   */\n      sub\n        /* \"#utility.yul\":3684:3717   */\n      slt\n        /* \"#utility.yul\":3681:3801   */\n      iszero\n      tag_268\n      jumpi\n        /* \"#utility.yul\":3720:3799   */\n      tag_269\n      tag_168\n      jump\t// in\n    tag_269:\n        /* \"#utility.yul\":3681:3801   */\n    tag_268:\n        /* \"#utility.yul\":3840:3841   */\n      0x00\n        /* \"#utility.yul\":3865:3918   */\n      tag_270\n        /* \"#utility.yul\":3910:3917   */\n      dup11\n        /* \"#utility.yul\":3901:3907   */\n      dup3\n        /* \"#utility.yul\":3890:3899   */\n      dup12\n        /* \"#utility.yul\":3886:3908   */\n      add\n        /* \"#utility.yul\":3865:3918   */\n      tag_172\n      jump\t// in\n    tag_270:\n        /* \"#utility.yul\":3855:3918   */\n      swap8\n      pop\n        /* \"#utility.yul\":3811:3928   */\n      pop\n        /* \"#utility.yul\":3995:3997   */\n      0x20\n        /* \"#utility.yul\":3984:3993   */\n      dup9\n        /* \"#utility.yul\":3980:3998   */\n      add\n        /* \"#utility.yul\":3967:3999   */\n      calldataload\n        /* \"#utility.yul\":4026:4044   */\n      0xffffffffffffffff\n        /* \"#utility.yul\":4018:4024   */\n      dup2\n        /* \"#utility.yul\":4015:4045   */\n      gt\n        /* \"#utility.yul\":4012:4129   */\n      iszero\n      tag_271\n      jumpi\n        /* \"#utility.yul\":4048:4127   */\n      tag_272\n      tag_169\n      jump\t// in\n    tag_272:\n        /* \"#utility.yul\":4012:4129   */\n    tag_271:\n        /* \"#utility.yul\":4153:4216   */\n      tag_273\n        /* \"#utility.yul\":4208:4215   */\n      dup11\n        /* \"#utility.yul\":4199:4205   */\n      dup3\n        /* \"#utility.yul\":4188:4197   */\n      dup12\n        /* \"#utility.yul\":4184:4206   */\n      add\n        /* \"#utility.yul\":4153:4216   */\n      tag_181\n      jump\t// in\n    tag_273:\n        /* \"#utility.yul\":4143:4216   */\n      swap7\n      pop\n        /* \"#utility.yul\":3938:4226   */\n      pop\n        /* \"#utility.yul\":4265:4267   */\n      0x40\n        /* \"#utility.yul\":4291:4344   */\n      tag_274\n        /* \"#utility.yul\":4336:4343   */\n      dup11\n        /* \"#utility.yul\":4327:4333   */\n      dup3\n        /* \"#utility.yul\":4316:4325   */\n      dup12\n        /* \"#utility.yul\":4312:4334   */\n      add\n        /* \"#utility.yul\":4291:4344   */\n      tag_172\n      jump\t// in\n    tag_274:\n        /* \"#utility.yul\":4281:4344   */\n      swap6\n      pop\n        /* \"#utility.yul\":4236:4354   */\n      pop\n        /* \"#utility.yul\":4393:4395   */\n      0x60\n        /* \"#utility.yul\":4419:4472   */\n      tag_275\n        /* \"#utility.yul\":4464:4471   */\n      dup11\n        /* \"#utility.yul\":4455:4461   */\n      dup3\n        /* \"#utility.yul\":4444:4453   */\n      dup12\n        /* \"#utility.yul\":4440:4462   */\n      add\n        /* \"#utility.yul\":4419:4472   */\n      tag_172\n      jump\t// in\n    tag_275:\n        /* \"#utility.yul\":4409:4472   */\n      swap5\n      pop\n        /* \"#utility.yul\":4364:4482   */\n      pop\n        /* \"#utility.yul\":4521:4524   */\n      0x80\n        /* \"#utility.yul\":4548:4613   */\n      tag_276\n        /* \"#utility.yul\":4605:4612   */\n      dup11\n        /* \"#utility.yul\":4596:4602   */\n      dup3\n        /* \"#utility.yul\":4585:4594   */\n      dup12\n        /* \"#utility.yul\":4581:4603   */\n      add\n        /* \"#utility.yul\":4548:4613   */\n      tag_183\n      jump\t// in\n    tag_276:\n        /* \"#utility.yul\":4538:4613   */\n      swap4\n      pop\n        /* \"#utility.yul\":4492:4623   */\n      pop\n        /* \"#utility.yul\":4662:4665   */\n      0xa0\n        /* \"#utility.yul\":4689:4751   */\n      tag_277\n        /* \"#utility.yul\":4743:4750   */\n      dup11\n        /* \"#utility.yul\":4734:4740   */\n      dup3\n        /* \"#utility.yul\":4723:4732   */\n      dup12\n        /* \"#utility.yul\":4719:4741   */\n      add\n        /* \"#utility.yul\":4689:4751   */\n      tag_185\n      jump\t// in\n    tag_277:\n        /* \"#utility.yul\":4679:4751   */\n      swap3\n      pop\n        /* \"#utility.yul\":4633:4761   */\n      pop\n        /* \"#utility.yul\":4800:4803   */\n      0xc0\n        /* \"#utility.yul\":4827:4880   */\n      tag_278\n        /* \"#utility.yul\":4872:4879   */\n      dup11\n        /* \"#utility.yul\":4863:4869   */\n      dup3\n        /* \"#utility.yul\":4852:4861   */\n      dup12\n        /* \"#utility.yul\":4848:4870   */\n      add\n        /* \"#utility.yul\":4827:4880   */\n      tag_172\n      jump\t// in\n    tag_278:\n        /* \"#utility.yul\":4817:4880   */\n      swap2\n      pop\n        /* \"#utility.yul\":4771:4890   */\n      pop\n        /* \"#utility.yul\":3472:4897   */\n      swap3\n      swap6\n      swap9\n      swap2\n      swap5\n      swap8\n      pop\n      swap3\n      swap6\n      pop\n      jump\t// out\n        /* \"#utility.yul\":4903:5007   */\n    tag_186:\n        /* \"#utility.yul\":4968:4974   */\n      0x00\n        /* \"#utility.yul\":4996:5000   */\n      0x03\n        /* \"#utility.yul\":4986:5000   */\n      swap1\n      pop\n        /* \"#utility.yul\":4903:5007   */\n      swap2\n      swap1\n      pop\n      jump\t// out\n        /* \"#utility.yul\":5013:5156   */\n    tag_187:\n        /* \"#utility.yul\":5110:5121   */\n      0x00\n        /* \"#utility.yul\":5147:5150   */\n      dup2\n        /* \"#utility.yul\":5132:5150   */\n      swap1\n      pop\n        /* \"#utility.yul\":5013:5156   */\n      swap3\n      swap2\n      pop\n      pop\n      jump\t// out\n        /* \"#utility.yul\":5162:5260   */\n    tag_188:\n        /* \"#utility.yul\":5227:5231   */\n      0x00\n        /* \"#utility.yul\":5250:5253   */\n      dup2\n        /* \"#utility.yul\":5242:5253   */\n      swap1\n      pop\n        /* \"#utility.yul\":5162:5260   */\n      swap2\n      swap1\n      pop\n      jump\t// out\n        /* \"#utility.yul\":5266:5374   */\n    tag_189:\n        /* \"#utility.yul\":5343:5367   */\n      tag_283\n        /* \"#utility.yul\":5361:5366   */\n      dup2\n        /* \"#utility.yul\":5343:5367   */\n      tag_170\n      jump\t// in\n    tag_283:\n        /* \"#utility.yul\":5338:5341   */\n      dup3\n        /* \"#utility.yul\":5331:5368   */\n      mstore\n        /* \"#utility.yul\":5266:5374   */\n      pop\n      pop\n      jump\t// out\n        /* \"#utility.yul\":5380:5559   */\n    tag_190:\n        /* \"#utility.yul\":5449:5459   */\n      0x00\n        /* \"#utility.yul\":5470:5516   */\n      tag_285\n        /* \"#utility.yul\":5512:5515   */\n      dup4\n        /* \"#utility.yul\":5504:5510   */\n      dup4\n        /* \"#utility.yul\":5470:5516   */\n      tag_189\n      jump\t// in\n    tag_285:\n        /* \"#utility.yul\":5548:5552   */\n      0x20\n        /* \"#utility.yul\":5543:5546   */\n      dup4\n        /* \"#utility.yul\":5539:5553   */\n      add\n        /* \"#utility.yul\":5525:5553   */\n      swap1\n      pop\n        /* \"#utility.yul\":5380:5559   */\n      swap3\n      swap2\n      pop\n      pop\n      jump\t// out\n        /* \"#utility.yul\":5565:5676   */\n    tag_191:\n        /* \"#utility.yul\":5633:5637   */\n      0x00\n        /* \"#utility.yul\":5665:5669   */\n      0x20\n        /* \"#utility.yul\":5660:5663   */\n      dup3\n        /* \"#utility.yul\":5656:5670   */\n      add\n        /* \"#utility.yul\":5648:5670   */\n      swap1\n      pop\n        /* \"#utility.yul\":5565:5676   */\n      swap2\n      swap1\n      pop\n      jump\t// out\n        /* \"#utility.yul\":5714:6408   */\n    tag_192:\n        /* \"#utility.yul\":5850:5902   */\n      tag_288\n        /* \"#utility.yul\":5896:5901   */\n      dup2\n        /* \"#utility.yul\":5850:5902   */\n      tag_186\n      jump\t// in\n    tag_288:\n        /* \"#utility.yul\":5918:6002   */\n      tag_289\n        /* \"#utility.yul\":5995:6001   */\n      dup2\n        /* \"#utility.yul\":5990:5993   */\n      dup5\n        /* \"#utility.yul\":5918:6002   */\n      tag_187\n      jump\t// in\n    tag_289:\n        /* \"#utility.yul\":5911:6002   */\n      swap3\n      pop\n        /* \"#utility.yul\":6026:6080   */\n      tag_290\n        /* \"#utility.yul\":6074:6079   */\n      dup3\n        /* \"#utility.yul\":6026:6080   */\n      tag_188\n      jump\t// in\n    tag_290:\n        /* \"#utility.yul\":6103:6110   */\n      dup1\n        /* \"#utility.yul\":6134:6135   */\n      0x00\n        /* \"#utility.yul\":6119:6401   */\n    tag_291:\n        /* \"#utility.yul\":6144:6150   */\n      dup4\n        /* \"#utility.yul\":6141:6142   */\n      dup2\n        /* \"#utility.yul\":6138:6151   */\n      lt\n        /* \"#utility.yul\":6119:6401   */\n      iszero\n      tag_293\n      jumpi\n        /* \"#utility.yul\":6220:6226   */\n      dup2\n        /* \"#utility.yul\":6214:6227   */\n      mload\n        /* \"#utility.yul\":6247:6310   */\n      tag_294\n        /* \"#utility.yul\":6306:6309   */\n      dup8\n        /* \"#utility.yul\":6291:6304   */\n      dup3\n        /* \"#utility.yul\":6247:6310   */\n      tag_190\n      jump\t// in\n    tag_294:\n        /* \"#utility.yul\":6240:6310   */\n      swap7\n      pop\n        /* \"#utility.yul\":6333:6391   */\n      tag_295\n        /* \"#utility.yul\":6384:6390   */\n      dup4\n        /* \"#utility.yul\":6333:6391   */\n      tag_191\n      jump\t// in\n    tag_295:\n        /* \"#utility.yul\":6323:6391   */\n      swap3\n      pop\n        /* \"#utility.yul\":6179:6401   */\n      pop\n        /* \"#utility.yul\":6166:6167   */\n      0x01\n        /* \"#utility.yul\":6163:6164   */\n      dup2\n        /* \"#utility.yul\":6159:6168   */\n      add\n        /* \"#utility.yul\":6154:6168   */\n      swap1\n      pop\n        /* \"#utility.yul\":6119:6401   */\n      jump(tag_291)\n    tag_293:\n        /* \"#utility.yul\":6123:6137   */\n      pop\n        /* \"#utility.yul\":5826:6408   */\n      pop\n      pop\n      pop\n        /* \"#utility.yul\":5714:6408   */\n      pop\n      pop\n      jump\t// out\n        /* \"#utility.yul\":6414:6728   */\n    tag_20:\n        /* \"#utility.yul\":6553:6557   */\n      0x00\n        /* \"#utility.yul\":6591:6593   */\n      0x60\n        /* \"#utility.yul\":6580:6589   */\n      dup3\n        /* \"#utility.yul\":6576:6594   */\n      add\n        /* \"#utility.yul\":6568:6594   */\n      swap1\n      pop\n        /* \"#utility.yul\":6604:6721   */\n      tag_297\n        /* \"#utility.yul\":6718:6719   */\n      0x00\n        /* \"#utility.yul\":6707:6716   */\n      dup4\n        /* \"#utility.yul\":6703:6720   */\n      add\n        /* \"#utility.yul\":6694:6700   */\n      dup5\n        /* \"#utility.yul\":6604:6721   */\n      tag_192\n      jump\t// in\n    tag_297:\n        /* \"#utility.yul\":6414:6728   */\n      swap3\n      swap2\n      pop\n      pop\n      jump\t// out\n        /* \"#utility.yul\":6734:7703   */\n    tag_23:\n        /* \"#utility.yul\":6842:6848   */\n      0x00\n        /* \"#utility.yul\":6850:6856   */\n      dup1\n        /* \"#utility.yul\":6858:6864   */\n      0x00\n        /* \"#utility.yul\":6866:6872   */\n      dup1\n        /* \"#utility.yul\":6915:6918   */\n      0x80\n        /* \"#utility.yul\":6903:6912   */\n      dup6\n        /* \"#utility.yul\":6894:6901   */\n      dup8\n        /* \"#utility.yul\":6890:6913   */\n      sub\n        /* \"#utility.yul\":6886:6919   */\n      slt\n        /* \"#utility.yul\":6883:7003   */\n      iszero\n      tag_299\n      jumpi\n        /* \"#utility.yul\":6922:7001   */\n      tag_300\n      tag_168\n      jump\t// in\n    tag_300:\n        /* \"#utility.yul\":6883:7003   */\n    tag_299:\n        /* \"#utility.yul\":7070:7071   */\n      0x00\n        /* \"#utility.yul\":7059:7068   */\n      dup6\n        /* \"#utility.yul\":7055:7072   */\n      add\n        /* \"#utility.yul\":7042:7073   */\n      calldataload\n        /* \"#utility.yul\":7100:7118   */\n      0xffffffffffffffff\n        /* \"#utility.yul\":7092:7098   */\n      dup2\n        /* \"#utility.yul\":7089:7119   */\n      gt\n        /* \"#utility.yul\":7086:7203   */\n      iszero\n      tag_301\n      jumpi\n        /* \"#utility.yul\":7122:7201   */\n      tag_302\n      tag_169\n      jump\t// in\n    tag_302:\n        /* \"#utility.yul\":7086:7203   */\n    tag_301:\n        /* \"#utility.yul\":7227:7290   */\n      tag_303\n        /* \"#utility.yul\":7282:7289   */\n      dup8\n        /* \"#utility.yul\":7273:7279   */\n      dup3\n        /* \"#utility.yul\":7262:7271   */\n      dup9\n        /* \"#utility.yul\":7258:7280   */\n      add\n        /* \"#utility.yul\":7227:7290   */\n      tag_181\n      jump\t// in\n    tag_303:\n        /* \"#utility.yul\":7217:7290   */\n      swap5\n      pop\n        /* \"#utility.yul\":7013:7300   */\n      pop\n        /* \"#utility.yul\":7339:7341   */\n      0x20\n        /* \"#utility.yul\":7365:7418   */\n      tag_304\n        /* \"#utility.yul\":7410:7417   */\n      dup8\n        /* \"#utility.yul\":7401:7407   */\n      dup3\n        /* \"#utility.yul\":7390:7399   */\n      dup9\n        /* \"#utility.yul\":7386:7408   */\n      add\n        /* \"#utility.yul\":7365:7418   */\n      tag_172\n      jump\t// in\n    tag_304:\n        /* \"#utility.yul\":7355:7418   */\n      swap4\n      pop\n        /* \"#utility.yul\":7310:7428   */\n      pop\n        /* \"#utility.yul\":7467:7469   */\n      0x40\n        /* \"#utility.yul\":7493:7546   */\n      tag_305\n        /* \"#utility.yul\":7538:7545   */\n      dup8\n        /* \"#utility.yul\":7529:7535   */\n      dup3\n        /* \"#utility.yul\":7518:7527   */\n      dup9\n        /* \"#utility.yul\":7514:7536   */\n      add\n        /* \"#utility.yul\":7493:7546   */\n      tag_172\n      jump\t// in\n    tag_305:\n        /* \"#utility.yul\":7483:7546   */\n      swap3\n      pop\n        /* \"#utility.yul\":7438:7556   */\n      pop\n        /* \"#utility.yul\":7595:7597   */\n      0x60\n        /* \"#utility.yul\":7621:7686   */\n      tag_306\n        /* \"#utility.yul\":7678:7685   */\n      dup8\n        /* \"#utility.yul\":7669:7675   */\n      dup3\n        /* \"#utility.yul\":7658:7667   */\n      dup9\n        /* \"#utility.yul\":7654:7676   */\n      add\n        /* \"#utility.yul\":7621:7686   */\n      tag_183\n      jump\t// in\n    tag_306:\n        /* \"#utility.yul\":7611:7686   */\n      swap2\n      pop\n        /* \"#utility.yul\":7566:7696   */\n      pop\n        /* \"#utility.yul\":6734:7703   */\n      swap3\n      swap6\n      swap2\n      swap5\n      pop\n      swap3\n      pop\n      jump\t// out\n        /* \"#utility.yul\":7709:7827   */\n    tag_193:\n        /* \"#utility.yul\":7796:7820   */\n      tag_308\n        /* \"#utility.yul\":7814:7819   */\n      dup2\n        /* \"#utility.yul\":7796:7820   */\n      tag_170\n      jump\t// in\n    tag_308:\n        /* \"#utility.yul\":7791:7794   */\n      dup3\n        /* \"#utility.yul\":7784:7821   */\n      mstore\n        /* \"#utility.yul\":7709:7827   */\n      pop\n      pop\n      jump\t// out\n        /* \"#utility.yul\":7833:8055   */\n    tag_26:\n        /* \"#utility.yul\":7926:7930   */\n      0x00\n        /* \"#utility.yul\":7964:7966   */\n      0x20\n        /* \"#utility.yul\":7953:7962   */\n      dup3\n        /* \"#utility.yul\":7949:7967   */\n      add\n        /* \"#utility.yul\":7941:7967   */\n      swap1\n      pop\n        /* \"#utility.yul\":7977:8048   */\n      tag_310\n        /* \"#utility.yul\":8045:8046   */\n      0x00\n        /* \"#utility.yul\":8034:8043   */\n      dup4\n        /* \"#utility.yul\":8030:8047   */\n      add\n        /* \"#utility.yul\":8021:8027   */\n      dup5\n        /* \"#utility.yul\":7977:8048   */\n      tag_193\n      jump\t// in\n    tag_310:\n        /* \"#utility.yul\":7833:8055   */\n      swap3\n      swap2\n      pop\n      pop\n      jump\t// out\n        /* \"#utility.yul\":8061:8390   */\n    tag_29:\n        /* \"#utility.yul\":8120:8126   */\n      0x00\n        /* \"#utility.yul\":8169:8171   */\n      0x20\n        /* \"#utility.yul\":8157:8166   */\n      dup3\n        /* \"#utility.yul\":8148:8155   */\n      dup5\n        /* \"#utility.yul\":8144:8167   */\n      sub\n        /* \"#utility.yul\":8140:8172   */\n      slt\n        /* \"#utility.yul\":8137:8256   */\n      iszero\n      tag_312\n      jumpi\n        /* \"#utility.yul\":8175:8254   */\n      tag_313\n      tag_168\n      jump\t// in\n    tag_313:\n        /* \"#utility.yul\":8137:8256   */\n    tag_312:\n        /* \"#utility.yul\":8295:8296   */\n      0x00\n        /* \"#utility.yul\":8320:8373   */\n      tag_314\n        /* \"#utility.yul\":8365:8372   */\n      dup5\n        /* \"#utility.yul\":8356:8362   */\n      dup3\n        /* \"#utility.yul\":8345:8354   */\n      dup6\n        /* \"#utility.yul\":8341:8363   */\n      add\n        /* \"#utility.yul\":8320:8373   */\n      tag_172\n      jump\t// in\n    tag_314:\n        /* \"#utility.yul\":8310:8373   */\n      swap2\n      pop\n        /* \"#utility.yul\":8266:8383   */\n      pop\n        /* \"#utility.yul\":8061:8390   */\n      swap3\n      swap2\n      pop\n      pop\n      jump\t// out\n        /* \"#utility.yul\":8396:8495   */\n    tag_194:\n        /* \"#utility.yul\":8448:8454   */\n      0x00\n        /* \"#utility.yul\":8482:8487   */\n      dup2\n        /* \"#utility.yul\":8476:8488   */\n      mload\n        /* \"#utility.yul\":8466:8488   */\n      swap1\n      pop\n        /* \"#utility.yul\":8396:8495   */\n      swap2\n      swap1\n      pop\n      jump\t// out\n        /* \"#utility.yul\":8501:8670   */\n    tag_195:\n        /* \"#utility.yul\":8585:8596   */\n      0x00\n        /* \"#utility.yul\":8619:8625   */\n      dup3\n        /* \"#utility.yul\":8614:8617   */\n      dup3\n        /* \"#utility.yul\":8607:8626   */\n      mstore\n        /* \"#utility.yul\":8659:8663   */\n      0x20\n        /* \"#utility.yul\":8654:8657   */\n      dup3\n        /* \"#utility.yul\":8650:8664   */\n      add\n        /* \"#utility.yul\":8635:8664   */\n      swap1\n      pop\n        /* \"#utility.yul\":8501:8670   */\n      swap3\n      swap2\n      pop\n      pop\n      jump\t// out\n        /* \"#utility.yul\":8676:8922   */\n    tag_196:\n        /* \"#utility.yul\":8757:8758   */\n      0x00\n        /* \"#utility.yul\":8767:8880   */\n    tag_318:\n        /* \"#utility.yul\":8781:8787   */\n      dup4\n        /* \"#utility.yul\":8778:8779   */\n      dup2\n        /* \"#utility.yul\":8775:8788   */\n      lt\n        /* \"#utility.yul\":8767:8880   */\n      iszero\n      tag_320\n      jumpi\n        /* \"#utility.yul\":8866:8867   */\n      dup1\n        /* \"#utility.yul\":8861:8864   */\n      dup3\n        /* \"#utility.yul\":8857:8868   */\n      add\n        /* \"#utility.yul\":8851:8869   */\n      mload\n        /* \"#utility.yul\":8847:8848   */\n      dup2\n        /* \"#utility.yul\":8842:8845   */\n      dup5\n        /* \"#utility.yul\":8838:8849   */\n      add\n        /* \"#utility.yul\":8831:8870   */\n      mstore\n        /* \"#utility.yul\":8803:8805   */\n      0x20\n        /* \"#utility.yul\":8800:8801   */\n      dup2\n        /* \"#utility.yul\":8796:8806   */\n      add\n        /* \"#utility.yul\":8791:8806   */\n      swap1\n      pop\n        /* \"#utility.yul\":8767:8880   */\n      jump(tag_318)\n    tag_320:\n        /* \"#utility.yul\":8914:8915   */\n      0x00\n        /* \"#utility.yul\":8905:8911   */\n      dup5\n        /* \"#utility.yul\":8900:8903   */\n      dup5\n        /* \"#utility.yul\":8896:8912   */\n      add\n        /* \"#utility.yul\":8889:8916   */\n      mstore\n        /* \"#utility.yul\":8738:8922   */\n      pop\n        /* \"#utility.yul\":8676:8922   */\n      pop\n      pop\n      pop\n      jump\t// out\n        /* \"#utility.yul\":8928:9305   */\n    tag_197:\n        /* \"#utility.yul\":9016:9019   */\n      0x00\n        /* \"#utility.yul\":9044:9083   */\n      tag_322\n        /* \"#utility.yul\":9077:9082   */\n      dup3\n        /* \"#utility.yul\":9044:9083   */\n      tag_194\n      jump\t// in\n    tag_322:\n        /* \"#utility.yul\":9099:9170   */\n      tag_323\n        /* \"#utility.yul\":9163:9169   */\n      dup2\n        /* \"#utility.yul\":9158:9161   */\n      dup6\n        /* \"#utility.yul\":9099:9170   */\n      tag_195\n      jump\t// in\n    tag_323:\n        /* \"#utility.yul\":9092:9170   */\n      swap4\n      pop\n        /* \"#utility.yul\":9179:9244   */\n      tag_324\n        /* \"#utility.yul\":9237:9243   */\n      dup2\n        /* \"#utility.yul\":9232:9235   */\n      dup6\n        /* \"#utility.yul\":9225:9229   */\n      0x20\n        /* \"#utility.yul\":9218:9223   */\n      dup7\n        /* \"#utility.yul\":9214:9230   */\n      add\n        /* \"#utility.yul\":9179:9244   */\n      tag_196\n      jump\t// in\n    tag_324:\n        /* \"#utility.yul\":9269:9298   */\n      tag_325\n        /* \"#utility.yul\":9291:9297   */\n      dup2\n        /* \"#utility.yul\":9269:9298   */\n      tag_175\n      jump\t// in\n    tag_325:\n        /* \"#utility.yul\":9264:9267   */\n      dup5\n        /* \"#utility.yul\":9260:9299   */\n      add\n        /* \"#utility.yul\":9253:9299   */\n      swap2\n      pop\n        /* \"#utility.yul\":9020:9305   */\n      pop\n        /* \"#utility.yul\":8928:9305   */\n      swap3\n      swap2\n      pop\n      pop\n      jump\t// out\n        /* \"#utility.yul\":9311:9491   */\n    tag_45:\n        /* \"#utility.yul\":9359:9436   */\n      0x4e487b7100000000000000000000000000000000000000000000000000000000\n        /* \"#utility.yul\":9356:9357   */\n      0x00\n        /* \"#utility.yul\":9349:9437   */\n      mstore\n        /* \"#utility.yul\":9456:9460   */\n      0x21\n        /* \"#utility.yul\":9453:9454   */\n      0x04\n        /* \"#utility.yul\":9446:9461   */\n      mstore\n        /* \"#utility.yul\":9480:9484   */\n      0x24\n        /* \"#utility.yul\":9477:9478   */\n      0x00\n        /* \"#utility.yul\":9470:9485   */\n      revert\n        /* \"#utility.yul\":9497:9614   */\n    tag_198:\n        /* \"#utility.yul\":9582:9583   */\n      0x04\n        /* \"#utility.yul\":9575:9580   */\n      dup2\n        /* \"#utility.yul\":9572:9584   */\n      lt\n        /* \"#utility.yul\":9562:9608   */\n      tag_328\n      jumpi\n        /* \"#utility.yul\":9588:9606   */\n      tag_329\n      tag_45\n      jump\t// in\n    tag_329:\n        /* \"#utility.yul\":9562:9608   */\n    tag_328:\n        /* \"#utility.yul\":9497:9614   */\n      pop\n      jump\t// out\n        /* \"#utility.yul\":9620:9755   */\n    tag_199:\n        /* \"#utility.yul\":9669:9676   */\n      0x00\n        /* \"#utility.yul\":9698:9703   */\n      dup2\n        /* \"#utility.yul\":9687:9703   */\n      swap1\n      pop\n        /* \"#utility.yul\":9704:9749   */\n      tag_331\n        /* \"#utility.yul\":9743:9748   */\n      dup3\n        /* \"#utility.yul\":9704:9749   */\n      tag_198\n      jump\t// in\n    tag_331:\n        /* \"#utility.yul\":9620:9755   */\n      swap2\n      swap1\n      pop\n      jump\t// out\n        /* \"#utility.yul\":9761:9896   */\n    tag_200:\n        /* \"#utility.yul\":9821:9830   */\n      0x00\n        /* \"#utility.yul\":9854:9890   */\n      tag_333\n        /* \"#utility.yul\":9884:9889   */\n      dup3\n        /* \"#utility.yul\":9854:9890   */\n      tag_199\n      jump\t// in\n    tag_333:\n        /* \"#utility.yul\":9841:9890   */\n      swap1\n      pop\n        /* \"#utility.yul\":9761:9896   */\n      swap2\n      swap1\n      pop\n      jump\t// out\n        /* \"#utility.yul\":9902:10053   */\n    tag_201:\n        /* \"#utility.yul\":9999:10046   */\n      tag_335\n        /* \"#utility.yul\":10040:10045   */\n      dup2\n        /* \"#utility.yul\":9999:10046   */\n      tag_200\n      jump\t// in\n    tag_335:\n        /* \"#utility.yul\":9994:9997   */\n      dup3\n        /* \"#utility.yul\":9987:10047   */\n      mstore\n        /* \"#utility.yul\":9902:10053   */\n      pop\n      pop\n      jump\t// out\n        /* \"#utility.yul\":10059:10173   */\n    tag_202:\n        /* \"#utility.yul\":10141:10142   */\n      0x04\n        /* \"#utility.yul\":10134:10139   */\n      dup2\n        /* \"#utility.yul\":10131:10143   */\n      lt\n        /* \"#utility.yul\":10121:10167   */\n      tag_337\n      jumpi\n        /* \"#utility.yul\":10147:10165   */\n      tag_338\n      tag_45\n      jump\t// in\n    tag_338:\n        /* \"#utility.yul\":10121:10167   */\n    tag_337:\n        /* \"#utility.yul\":10059:10173   */\n      pop\n      jump\t// out\n        /* \"#utility.yul\":10179:10308   */\n    tag_203:\n        /* \"#utility.yul\":10225:10232   */\n      0x00\n        /* \"#utility.yul\":10254:10259   */\n      dup2\n        /* \"#utility.yul\":10243:10259   */\n      swap1\n      pop\n        /* \"#utility.yul\":10260:10302   */\n      tag_340\n        /* \"#utility.yul\":10296:10301   */\n      dup3\n        /* \"#utility.yul\":10260:10302   */\n      tag_202\n      jump\t// in\n    tag_340:\n        /* \"#utility.yul\":10179:10308   */\n      swap2\n      swap1\n      pop\n      jump\t// out\n        /* \"#utility.yul\":10314:10443   */\n    tag_204:\n        /* \"#utility.yul\":10371:10380   */\n      0x00\n        /* \"#utility.yul\":10404:10437   */\n      tag_342\n        /* \"#utility.yul\":10431:10436   */\n      dup3\n        /* \"#utility.yul\":10404:10437   */\n      tag_203\n      jump\t// in\n    tag_342:\n        /* \"#utility.yul\":10391:10437   */\n      swap1\n      pop\n        /* \"#utility.yul\":10314:10443   */\n      swap2\n      swap1\n      pop\n      jump\t// out\n        /* \"#utility.yul\":10449:10594   */\n    tag_205:\n        /* \"#utility.yul\":10543:10587   */\n      tag_344\n        /* \"#utility.yul\":10581:10586   */\n      dup2\n        /* \"#utility.yul\":10543:10587   */\n      tag_204\n      jump\t// in\n    tag_344:\n        /* \"#utility.yul\":10538:10541   */\n      dup3\n        /* \"#utility.yul\":10531:10588   */\n      mstore\n        /* \"#utility.yul\":10449:10594   */\n      pop\n      pop\n      jump\t// out\n        /* \"#utility.yul\":10600:11500   */\n    tag_32:\n        /* \"#utility.yul\":10870:10874   */\n      0x00\n        /* \"#utility.yul\":10908:10911   */\n      0xc0\n        /* \"#utility.yul\":10897:10906   */\n      dup3\n        /* \"#utility.yul\":10893:10912   */\n      add\n        /* \"#utility.yul\":10885:10912   */\n      swap1\n      pop\n        /* \"#utility.yul\":10958:10967   */\n      dup2\n        /* \"#utility.yul\":10952:10956   */\n      dup2\n        /* \"#utility.yul\":10948:10968   */\n      sub\n        /* \"#utility.yul\":10944:10945   */\n      0x00\n        /* \"#utility.yul\":10933:10942   */\n      dup4\n        /* \"#utility.yul\":10929:10946   */\n      add\n        /* \"#utility.yul\":10922:10969   */\n      mstore\n        /* \"#utility.yul\":10986:11064   */\n      tag_346\n        /* \"#utility.yul\":11059:11063   */\n      dup2\n        /* \"#utility.yul\":11050:11056   */\n      dup10\n        /* \"#utility.yul\":10986:11064   */\n      tag_197\n      jump\t// in\n    tag_346:\n        /* \"#utility.yul\":10978:11064   */\n      swap1\n      pop\n        /* \"#utility.yul\":11074:11146   */\n      tag_347\n        /* \"#utility.yul\":11142:11144   */\n      0x20\n        /* \"#utility.yul\":11131:11140   */\n      dup4\n        /* \"#utility.yul\":11127:11145   */\n      add\n        /* \"#utility.yul\":11118:11124   */\n      dup9\n        /* \"#utility.yul\":11074:11146   */\n      tag_193\n      jump\t// in\n    tag_347:\n        /* \"#utility.yul\":11156:11228   */\n      tag_348\n        /* \"#utility.yul\":11224:11226   */\n      0x40\n        /* \"#utility.yul\":11213:11222   */\n      dup4\n        /* \"#utility.yul\":11209:11227   */\n      add\n        /* \"#utility.yul\":11200:11206   */\n      dup8\n        /* \"#utility.yul\":11156:11228   */\n      tag_193\n      jump\t// in\n    tag_348:\n        /* \"#utility.yul\":11238:11320   */\n      tag_349\n        /* \"#utility.yul\":11316:11318   */\n      0x60\n        /* \"#utility.yul\":11305:11314   */\n      dup4\n        /* \"#utility.yul\":11301:11319   */\n      add\n        /* \"#utility.yul\":11292:11298   */\n      dup7\n        /* \"#utility.yul\":11238:11320   */\n      tag_201\n      jump\t// in\n    tag_349:\n        /* \"#utility.yul\":11330:11410   */\n      tag_350\n        /* \"#utility.yul\":11405:11408   */\n      0x80\n        /* \"#utility.yul\":11394:11403   */\n      dup4\n        /* \"#utility.yul\":11390:11409   */\n      add\n        /* \"#utility.yul\":11381:11387   */\n      dup6\n        /* \"#utility.yul\":11330:11410   */\n      tag_205\n      jump\t// in\n    tag_350:\n        /* \"#utility.yul\":11420:11493   */\n      tag_351\n        /* \"#utility.yul\":11488:11491   */\n      0xa0\n        /* \"#utility.yul\":11477:11486   */\n      dup4\n        /* \"#utility.yul\":11473:11492   */\n      add\n        /* \"#utility.yul\":11464:11470   */\n      dup5\n        /* \"#utility.yul\":11420:11493   */\n      tag_193\n      jump\t// in\n    tag_351:\n        /* \"#utility.yul\":10600:11500   */\n      swap8\n      swap7\n      pop\n      pop\n      pop\n      pop\n      pop\n      pop\n      pop\n      jump\t// out\n        /* \"#utility.yul\":11506:12059   */\n    tag_36:\n        /* \"#utility.yul\":11683:11687   */\n      0x00\n        /* \"#utility.yul\":11721:11724   */\n      0x80\n        /* \"#utility.yul\":11710:11719   */\n      dup3\n        /* \"#utility.yul\":11706:11725   */\n      add\n        /* \"#utility.yul\":11698:11725   */\n      swap1\n      pop\n        /* \"#utility.yul\":11735:11806   */\n      tag_353\n        /* \"#utility.yul\":11803:11804   */\n      0x00\n        /* \"#utility.yul\":11792:11801   */\n      dup4\n        /* \"#utility.yul\":11788:11805   */\n      add\n        /* \"#utility.yul\":11779:11785   */\n      dup8\n        /* \"#utility.yul\":11735:11806   */\n      tag_193\n      jump\t// in\n    tag_353:\n        /* \"#utility.yul\":11816:11888   */\n      tag_354\n        /* \"#utility.yul\":11884:11886   */\n      0x20\n        /* \"#utility.yul\":11873:11882   */\n      dup4\n        /* \"#utility.yul\":11869:11887   */\n      add\n        /* \"#utility.yul\":11860:11866   */\n      dup7\n        /* \"#utility.yul\":11816:11888   */\n      tag_193\n      jump\t// in\n    tag_354:\n        /* \"#utility.yul\":11898:11970   */\n      tag_355\n        /* \"#utility.yul\":11966:11968   */\n      0x40\n        /* \"#utility.yul\":11955:11964   */\n      dup4\n        /* \"#utility.yul\":11951:11969   */\n      add\n        /* \"#utility.yul\":11942:11948   */\n      dup6\n        /* \"#utility.yul\":11898:11970   */\n      tag_193\n      jump\t// in\n    tag_355:\n        /* \"#utility.yul\":11980:12052   */\n      tag_356\n        /* \"#utility.yul\":12048:12050   */\n      0x60\n        /* \"#utility.yul\":12037:12046   */\n      dup4\n        /* \"#utility.yul\":12033:12051   */\n      add\n        /* \"#utility.yul\":12024:12030   */\n      dup5\n        /* \"#utility.yul\":11980:12052   */\n      tag_193\n      jump\t// in\n    tag_356:\n        /* \"#utility.yul\":11506:12059   */\n      swap6\n      swap5\n      pop\n      pop\n      pop\n      pop\n      pop\n      jump\t// out\n        /* \"#utility.yul\":12065:12245   */\n    tag_206:\n        /* \"#utility.yul\":12113:12190   */\n      0x4e487b7100000000000000000000000000000000000000000000000000000000\n        /* \"#utility.yul\":12110:12111   */\n      0x00\n        /* \"#utility.yul\":12103:12191   */\n      mstore\n        /* \"#utility.yul\":12210:12214   */\n      0x22\n        /* \"#utility.yul\":12207:12208   */\n      0x04\n        /* \"#utility.yul\":12200:12215   */\n      mstore\n        /* \"#utility.yul\":12234:12238   */\n      0x24\n        /* \"#utility.yul\":12231:12232   */\n      0x00\n        /* \"#utility.yul\":12224:12239   */\n      revert\n        /* \"#utility.yul\":12251:12571   */\n    tag_122:\n        /* \"#utility.yul\":12295:12301   */\n      0x00\n        /* \"#utility.yul\":12332:12333   */\n      0x02\n        /* \"#utility.yul\":12326:12330   */\n      dup3\n        /* \"#utility.yul\":12322:12334   */\n      div\n        /* \"#utility.yul\":12312:12334   */\n      swap1\n      pop\n        /* \"#utility.yul\":12379:12380   */\n      0x01\n        /* \"#utility.yul\":12373:12377   */\n      dup3\n        /* \"#utility.yul\":12369:12381   */\n      and\n        /* \"#utility.yul\":12400:12418   */\n      dup1\n        /* \"#utility.yul\":12390:12471   */\n      tag_359\n      jumpi\n        /* \"#utility.yul\":12456:12460   */\n      0x7f\n        /* \"#utility.yul\":12448:12454   */\n      dup3\n        /* \"#utility.yul\":12444:12461   */\n      and\n        /* \"#utility.yul\":12434:12461   */\n      swap2\n      pop\n        /* \"#utility.yul\":12390:12471   */\n    tag_359:\n        /* \"#utility.yul\":12518:12520   */\n      0x20\n        /* \"#utility.yul\":12510:12516   */\n      dup3\n        /* \"#utility.yul\":12507:12521   */\n      lt\n        /* \"#utility.yul\":12487:12505   */\n      dup2\n        /* \"#utility.yul\":12484:12522   */\n      sub\n        /* \"#utility.yul\":12481:12565   */\n      tag_360\n      jumpi\n        /* \"#utility.yul\":12537:12555   */\n      tag_361\n      tag_206\n      jump\t// in\n    tag_361:\n        /* \"#utility.yul\":12481:12565   */\n    tag_360:\n        /* \"#utility.yul\":12302:12571   */\n      pop\n        /* \"#utility.yul\":12251:12571   */\n      swap2\n      swap1\n      pop\n      jump\t// out\n        /* \"#utility.yul\":12577:12718   */\n    tag_207:\n        /* \"#utility.yul\":12626:12630   */\n      0x00\n        /* \"#utility.yul\":12649:12652   */\n      dup2\n        /* \"#utility.yul\":12641:12652   */\n      swap1\n      pop\n        /* \"#utility.yul\":12672:12675   */\n      dup2\n        /* \"#utility.yul\":12669:12670   */\n      0x00\n        /* \"#utility.yul\":12662:12676   */\n      mstore\n        /* \"#utility.yul\":12706:12710   */\n      0x20\n        /* \"#utility.yul\":12703:12704   */\n      0x00\n        /* \"#utility.yul\":12693:12711   */\n      keccak256\n        /* \"#utility.yul\":12685:12711   */\n      swap1\n      pop\n        /* \"#utility.yul\":12577:12718   */\n      swap2\n      swap1\n      pop\n      jump\t// out\n        /* \"#utility.yul\":12724:12817   */\n    tag_208:\n        /* \"#utility.yul\":12761:12767   */\n      0x00\n        /* \"#utility.yul\":12808:12810   */\n      0x20\n        /* \"#utility.yul\":12803:12805   */\n      0x1f\n        /* \"#utility.yul\":12796:12801   */\n      dup4\n        /* \"#utility.yul\":12792:12806   */\n      add\n        /* \"#utility.yul\":12788:12811   */\n      div\n        /* \"#utility.yul\":12778:12811   */\n      swap1\n      pop\n        /* \"#utility.yul\":12724:12817   */\n      swap2\n      swap1\n      pop\n      jump\t// out\n        /* \"#utility.yul\":12823:12930   */\n    tag_209:\n        /* \"#utility.yul\":12867:12875   */\n      0x00\n        /* \"#utility.yul\":12917:12922   */\n      dup3\n        /* \"#utility.yul\":12911:12915   */\n      dup3\n        /* \"#utility.yul\":12907:12923   */\n      shl\n        /* \"#utility.yul\":12886:12923   */\n      swap1\n      pop\n        /* \"#utility.yul\":12823:12930   */\n      swap3\n      swap2\n      pop\n      pop\n      jump\t// out\n        /* \"#utility.yul\":12936:13329   */\n    tag_210:\n        /* \"#utility.yul\":13005:13011   */\n      0x00\n        /* \"#utility.yul\":13055:13056   */\n      0x08\n        /* \"#utility.yul\":13043:13053   */\n      dup4\n        /* \"#utility.yul\":13039:13057   */\n      mul\n        /* \"#utility.yul\":13078:13175   */\n      tag_366\n        /* \"#utility.yul\":13108:13174   */\n      0xffffffffffffffffffffffffffffffffffffffffffffffffffffffffffffffff\n        /* \"#utility.yul\":13097:13106   */\n      dup3\n        /* \"#utility.yul\":13078:13175   */\n      tag_209\n      jump\t// in\n    tag_366:\n        /* \"#utility.yul\":13196:13235   */\n      tag_367\n        /* \"#utility.yul\":13226:13234   */\n      dup7\n        /* \"#utility.yul\":13215:13224   */\n      dup4\n        /* \"#utility.yul\":13196:13235   */\n      tag_209\n      jump\t// in\n    tag_367:\n        /* \"#utility.yul\":13184:13235   */\n      swap6\n      pop\n        /* \"#utility.yul\":13268:13272   */\n      dup1\n        /* \"#utility.yul\":13264:13273   */\n      not\n        /* \"#utility.yul\":13257:13262   */\n      dup5\n        /* \"#utility.yul\":13253:13274   */\n      and\n        /* \"#utility.yul\":13244:13274   */\n      swap4\n      pop\n        /* \"#utility.yul\":13317:13321   */\n      dup1\n        /* \"#utility.yul\":13307:13315   */\n      dup7\n        /* \"#utility.yul\":13303:13322   */\n      and\n        /* \"#utility.yul\":13296:13301   */\n      dup5\n        /* \"#utility.yul\":13293:13323   */\n      or\n        /* \"#utility.yul\":13283:13323   */\n      swap3\n      pop\n        /* \"#utility.yul\":13012:13329   */\n      pop\n      pop\n        /* \"#utility.yul\":12936:13329   */\n      swap4\n      swap3\n      pop\n      pop\n      pop\n      jump\t// out\n        /* \"#utility.yul\":13335:13395   */\n    tag_211:\n        /* \"#utility.yul\":13363:13366   */\n      0x00\n        /* \"#utility.yul\":13384:13389   */\n      dup2\n        /* \"#utility.yul\":13377:13389   */\n      swap1\n      pop\n        /* \"#utility.yul\":13335:13395   */\n      swap2\n      swap1\n      pop\n      jump\t// out\n        /* \"#utility.yul\":13401:13543   */\n    tag_212:\n        /* \"#utility.yul\":13451:13460   */\n      0x00\n        /* \"#utility.yul\":13484:13537   */\n      tag_370\n        /* \"#utility.yul\":13502:13536   */\n      tag_371\n        /* \"#utility.yul\":13511:13535   */\n      tag_372\n        /* \"#utility.yul\":13529:13534   */\n      dup5\n        /* \"#utility.yul\":13511:13535   */\n      tag_170\n      jump\t// in\n    tag_372:\n        /* \"#utility.yul\":13502:13536   */\n      tag_211\n      jump\t// in\n    tag_371:\n        /* \"#utility.yul\":13484:13537   */\n      tag_170\n      jump\t// in\n    tag_370:\n        /* \"#utility.yul\":13471:13537   */\n      swap1\n      pop\n        /* \"#utility.yul\":13401:13543   */\n      swap2\n      swap1\n      pop\n      jump\t// out\n        /* \"#utility.yul\":13549:13624   */\n    tag_213:\n        /* \"#utility.yul\":13592:13595   */\n      0x00\n        /* \"#utility.yul\":13613:13618   */\n      dup2\n        /* \"#utility.yul\":13606:13618   */\n      swap1\n      pop\n        /* \"#utility.yul\":13549:13624   */\n      swap2\n      swap1\n      pop\n      jump\t// out\n        /* \"#utility.yul\":13630:13899   */\n    tag_214:\n        /* \"#utility.yul\":13740:13779   */\n      tag_375\n        /* \"#utility.yul\":13771:13778   */\n      dup4\n        /* \"#utility.yul\":13740:13779   */\n      tag_212\n      jump\t// in\n    tag_375:\n        /* \"#utility.yul\":13801:13892   */\n      tag_376\n        /* \"#utility.yul\":13850:13891   */\n      tag_377\n        /* \"#utility.yul\":13874:13890   */\n      dup3\n        /* \"#utility.yul\":13850:13891   */\n      tag_213\n      jump\t// in\n    tag_377:\n        /* \"#utility.yul\":13842:13848   */\n      dup5\n        /* \"#utility.yul\":13835:13839   */\n      dup5\n        /* \"#utility.yul\":13829:13840   */\n      sload\n        /* \"#utility.yul\":13801:13892   */\n      tag_210\n      jump\t// in\n    tag_376:\n        /* \"#utility.yul\":13795:13799   */\n      dup3\n        /* \"#utility.yul\":13788:13893   */\n      sstore\n        /* \"#utility.yul\":13706:13899   */\n      pop\n        /* \"#utility.yul\":13630:13899   */\n      pop\n      pop\n      pop\n      jump\t// out\n        /* \"#utility.yul\":13905:13978   */\n    tag_215:\n        /* \"#utility.yul\":13950:13953   */\n      0x00\n        /* \"#utility.yul\":13905:13978   */\n      swap1\n      jump\t// out\n        /* \"#utility.yul\":13984:14173   */\n    tag_216:\n        /* \"#utility.yul\":14061:14093   */\n      tag_380\n      tag_215\n      jump\t// in\n    tag_380:\n        /* \"#utility.yul\":14102:14167   */\n      tag_381\n        /* \"#utility.yul\":14160:14166   */\n      dup2\n        /* \"#utility.yul\":14152:14158   */\n      dup5\n        /* \"#utility.yul\":14146:14150   */\n      dup5\n        /* \"#utility.yul\":14102:14167   */\n      tag_214\n      jump\t// in\n    tag_381:\n        /* \"#utility.yul\":14037:14173   */\n      pop\n        /* \"#utility.yul\":13984:14173   */\n      pop\n      pop\n      jump\t// out\n        /* \"#utility.yul\":14179:14365   */\n    tag_217:\n        /* \"#utility.yul\":14239:14359   */\n    tag_383:\n        /* \"#utility.yul\":14256:14259   */\n      dup2\n        /* \"#utility.yul\":14249:14254   */\n      dup2\n        /* \"#utility.yul\":14246:14260   */\n      lt\n        /* \"#utility.yul\":14239:14359   */\n      iszero\n      tag_385\n      jumpi\n        /* \"#utility.yul\":14310:14349   */\n      tag_386\n        /* \"#utility.yul\":14347:14348   */\n      0x00\n        /* \"#utility.yul\":14340:14345   */\n      dup3\n        /* \"#utility.yul\":14310:14349   */\n      tag_216\n      jump\t// in\n    tag_386:\n        /* \"#utility.yul\":14283:14284   */\n      0x01\n        /* \"#utility.yul\":14276:14281   */\n      dup2\n        /* \"#utility.yul\":14272:14285   */\n      add\n        /* \"#utility.yul\":14263:14285   */\n      swap1\n      pop\n        /* \"#utility.yul\":14239:14359   */\n      jump(tag_383)\n    tag_385:\n        /* \"#utility.yul\":14179:14365   */\n      pop\n      pop\n      jump\t// out\n        /* \"#utility.yul\":14371:14914   */\n    tag_218:\n        /* \"#utility.yul\":14472:14474   */\n      0x1f\n        /* \"#utility.yul\":14467:14470   */\n      dup3\n        /* \"#utility.yul\":14464:14475   */\n      gt\n        /* \"#utility.yul\":14461:14907   */\n      iszero\n      tag_388\n      jumpi\n        /* \"#utility.yul\":14506:14544   */\n      tag_389\n        /* \"#utility.yul\":14538:14543   */\n      dup2\n        /* \"#utility.yul\":14506:14544   */\n      tag_207\n      jump\t// in\n    tag_389:\n        /* \"#utility.yul\":14590:14619   */\n      tag_390\n        /* \"#utility.yul\":14608:14618   */\n      dup5\n        /* \"#utility.yul\":14590:14619   */\n      tag_208\n      jump\t// in\n    tag_390:\n        /* \"#utility.yul\":14580:14588   */\n      dup2\n        /* \"#utility.yul\":14576:14620   */\n      add\n        /* \"#utility.yul\":14773:14775   */\n      0x20\n        /* \"#utility.yul\":14761:14771   */\n      dup6\n        /* \"#utility.yul\":14758:14776   */\n      lt\n        /* \"#utility.yul\":14755:14804   */\n      iszero\n      tag_391\n      jumpi\n        /* \"#utility.yul\":14794:14802   */\n      dup2\n        /* \"#utility.yul\":14779:14802   */\n      swap1\n      pop\n        /* \"#utility.yul\":14755:14804   */\n    tag_391:\n        /* \"#utility.yul\":14817:14897   */\n      tag_392\n        /* \"#utility.yul\":14873:14895   */\n      tag_393\n        /* \"#utility.yul\":14891:14894   */\n      dup6\n        /* \"#utility.yul\":14873:14895   */\n      tag_208\n      jump\t// in\n    tag_393:\n        /* \"#utility.yul\":14863:14871   */\n      dup4\n        /* \"#utility.yul\":14859:14896   */\n      add\n        /* \"#utility.yul\":14846:14857   */\n      dup3\n        /* \"#utility.yul\":14817:14897   */\n      tag_217\n      jump\t// in\n    tag_392:\n        /* \"#utility.yul\":14476:14907   */\n      pop\n      pop\n        /* \"#utility.yul\":14461:14907   */\n    tag_388:\n        /* \"#utility.yul\":14371:14914   */\n      pop\n      pop\n      pop\n      jump\t// out\n        /* \"#utility.yul\":14920:15037   */\n    tag_219:\n        /* \"#utility.yul\":14974:14982   */\n      0x00\n        /* \"#utility.yul\":15024:15029   */\n      dup3\n        /* \"#utility.yul\":15018:15022   */\n      dup3\n        /* \"#utility.yul\":15014:15030   */\n      shr\n        /* \"#utility.yul\":14993:15030   */\n      swap1\n      pop\n        /* \"#utility.yul\":14920:15037   */\n      swap3\n      swap2\n      pop\n      pop\n      jump\t// out\n        /* \"#utility.yul\":15043:15212   */\n    tag_220:\n        /* \"#utility.yul\":15087:15093   */\n      0x00\n        /* \"#utility.yul\":15120:15171   */\n      tag_396\n        /* \"#utility.yul\":15168:15169   */\n      0x00\n        /* \"#utility.yul\":15164:15170   */\n      not\n        /* \"#utility.yul\":15156:15161   */\n      dup5\n        /* \"#utility.yul\":15153:15154   */\n      0x08\n        /* \"#utility.yul\":15149:15162   */\n      mul\n        /* \"#utility.yul\":15120:15171   */\n      tag_219\n      jump\t// in\n    tag_396:\n        /* \"#utility.yul\":15116:15172   */\n      not\n        /* \"#utility.yul\":15201:15205   */\n      dup1\n        /* \"#utility.yul\":15195:15199   */\n      dup4\n        /* \"#utility.yul\":15191:15206   */\n      and\n        /* \"#utility.yul\":15181:15206   */\n      swap2\n      pop\n        /* \"#utility.yul\":15094:15212   */\n      pop\n        /* \"#utility.yul\":15043:15212   */\n      swap3\n      swap2\n      pop\n      pop\n      jump\t// out\n        /* \"#utility.yul\":15217:15512   */\n    tag_221:\n        /* \"#utility.yul\":15293:15297   */\n      0x00\n        /* \"#utility.yul\":15439:15468   */\n      tag_398\n        /* \"#utility.yul\":15464:15467   */\n      dup4\n        /* \"#utility.yul\":15458:15462   */\n      dup4\n        /* \"#utility.yul\":15439:15468   */\n      tag_220\n      jump\t// in\n    tag_398:\n        /* \"#utility.yul\":15431:15468   */\n      swap2\n      pop\n        /* \"#utility.yul\":15501:15504   */\n      dup3\n        /* \"#utility.yul\":15498:15499   */\n      0x02\n        /* \"#utility.yul\":15494:15505   */\n      mul\n        /* \"#utility.yul\":15488:15492   */\n      dup3\n        /* \"#utility.yul\":15485:15506   */\n      or\n        /* \"#utility.yul\":15477:15506   */\n      swap1\n      pop\n        /* \"#utility.yul\":15217:15512   */\n      swap3\n      swap2\n      pop\n      pop\n      jump\t// out\n        /* \"#utility.yul\":15517:16912   */\n    tag_49:\n        /* \"#utility.yul\":15634:15671   */\n      tag_400\n        /* \"#utility.yul\":15667:15670   */\n      dup3\n        /* \"#utility.yul\":15634:15671   */\n      tag_194\n      jump\t// in\n    tag_400:\n        /* \"#utility.yul\":15736:15754   */\n      0xffffffffffffffff\n        /* \"#utility.yul\":15728:15734   */\n      dup2\n        /* \"#utility.yul\":15725:15755   */\n      gt\n        /* \"#utility.yul\":15722:15778   */\n      iszero\n      tag_401\n      jumpi\n        /* \"#utility.yul\":15758:15776   */\n      tag_402\n      tag_57\n      jump\t// in\n    tag_402:\n        /* \"#utility.yul\":15722:15778   */\n    tag_401:\n        /* \"#utility.yul\":15802:15840   */\n      tag_403\n        /* \"#utility.yul\":15834:15838   */\n      dup3\n        /* \"#utility.yul\":15828:15839   */\n      sload\n        /* \"#utility.yul\":15802:15840   */\n      tag_122\n      jump\t// in\n    tag_403:\n        /* \"#utility.yul\":15887:15954   */\n      tag_404\n        /* \"#utility.yul\":15947:15953   */\n      dup3\n        /* \"#utility.yul\":15939:15945   */\n      dup3\n        /* \"#utility.yul\":15933:15937   */\n      dup6\n        /* \"#utility.yul\":15887:15954   */\n      tag_218\n      jump\t// in\n    tag_404:\n        /* \"#utility.yul\":15981:15982   */\n      0x00\n        /* \"#utility.yul\":16005:16009   */\n      0x20\n        /* \"#utility.yul\":15992:16009   */\n      swap1\n      pop\n        /* \"#utility.yul\":16037:16039   */\n      0x1f\n        /* \"#utility.yul\":16029:16035   */\n      dup4\n        /* \"#utility.yul\":16026:16040   */\n      gt\n        /* \"#utility.yul\":16054:16055   */\n      0x01\n        /* \"#utility.yul\":16049:16667   */\n      dup2\n      eq\n      tag_406\n      jumpi\n        /* \"#utility.yul\":16711:16712   */\n      0x00\n        /* \"#utility.yul\":16728:16734   */\n      dup5\n        /* \"#utility.yul\":16725:16802   */\n      iszero\n      tag_407\n      jumpi\n        /* \"#utility.yul\":16777:16786   */\n      dup3\n        /* \"#utility.yul\":16772:16775   */\n      dup8\n        /* \"#utility.yul\":16768:16787   */\n      add\n        /* \"#utility.yul\":16762:16788   */\n      mload\n        /* \"#utility.yul\":16753:16788   */\n      swap1\n      pop\n        /* \"#utility.yul\":16725:16802   */\n    tag_407:\n        /* \"#utility.yul\":16828:16895   */\n      tag_408\n        /* \"#utility.yul\":16888:16894   */\n      dup6\n        /* \"#utility.yul\":16881:16886   */\n      dup3\n        /* \"#utility.yul\":16828:16895   */\n      tag_221\n      jump\t// in\n    tag_408:\n        /* \"#utility.yul\":16822:16826   */\n      dup7\n        /* \"#utility.yul\":16815:16896   */\n      sstore\n        /* \"#utility.yul\":16684:16906   */\n      pop\n        /* \"#utility.yul\":16019:16906   */\n      jump(tag_405)\n        /* \"#utility.yul\":16049:16667   */\n    tag_406:\n        /* \"#utility.yul\":16101:16105   */\n      0x1f\n        /* \"#utility.yul\":16097:16106   */\n      not\n        /* \"#utility.yul\":16089:16095   */\n      dup5\n        /* \"#utility.yul\":16085:16107   */\n      and\n        /* \"#utility.yul\":16135:16172   */\n      tag_409\n        /* \"#utility.yul\":16167:16171   */\n      dup7\n        /* \"#utility.yul\":16135:16172   */\n      tag_207\n      jump\t// in\n    tag_409:\n        /* \"#utility.yul\":16194:16195   */\n      0x00\n        /* \"#utility.yul\":16208:16416   */\n    tag_410:\n        /* \"#utility.yul\":16222:16229   */\n      dup3\n        /* \"#utility.yul\":16219:16220   */\n      dup2\n        /* \"#utility.yul\":16216:16230   */\n      lt\n        /* \"#utility.yul\":16208:16416   */\n      iszero\n      tag_412\n      jumpi\n        /* \"#utility.yul\":16301:16310   */\n      dup5\n        /* \"#utility.yul\":16296:16299   */\n      dup10\n        /* \"#utility.yul\":16292:16311   */\n      add\n        /* \"#utility.yul\":16286:16312   */\n      mload\n        /* \"#utility.yul\":16278:16284   */\n      dup3\n        /* \"#utility.yul\":16271:16313   */\n      sstore\n        /* \"#utility.yul\":16352:16353   */\n      0x01\n        /* \"#utility.yul\":16344:16350   */\n      dup3\n        /* \"#utility.yul\":16340:16354   */\n      add\n        /* \"#utility.yul\":16330:16354   */\n      swap2\n      pop\n        /* \"#utility.yul\":16399:16401   */\n      0x20\n        /* \"#utility.yul\":16388:16397   */\n      dup6\n        /* \"#utility.yul\":16384:16402   */\n      add\n        /* \"#utility.yul\":16371:16402   */\n      swap5\n      pop\n        /* \"#utility.yul\":16245:16249   */\n      0x20\n        /* \"#utility.yul\":16242:16243   */\n      dup2\n        /* \"#utility.yul\":16238:16250   */\n      add\n        /* \"#utility.yul\":16233:16250   */\n      swap1\n      pop\n        /* \"#utility.yul\":16208:16416   */\n      jump(tag_410)\n    tag_412:\n        /* \"#utility.yul\":16444:16450   */\n      dup7\n        /* \"#utility.yul\":16435:16442   */\n      dup4\n        /* \"#utility.yul\":16432:16451   */\n      lt\n        /* \"#utility.yul\":16429:16608   */\n      iszero\n      tag_413\n      jumpi\n        /* \"#utility.yul\":16502:16511   */\n      dup5\n        /* \"#utility.yul\":16497:16500   */\n      dup10\n        /* \"#utility.yul\":16493:16512   */\n      add\n        /* \"#utility.yul\":16487:16513   */\n      mload\n        /* \"#utility.yul\":16545:16593   */\n      tag_414\n        /* \"#utility.yul\":16587:16591   */\n      0x1f\n        /* \"#utility.yul\":16579:16585   */\n      dup10\n        /* \"#utility.yul\":16575:16592   */\n      and\n        /* \"#utility.yul\":16564:16573   */\n      dup3\n        /* \"#utility.yul\":16545:16593   */\n      tag_220\n      jump\t// in\n    tag_414:\n        /* \"#utility.yul\":16537:16543   */\n      dup4\n        /* \"#utility.yul\":16530:16594   */\n      sstore\n        /* \"#utility.yul\":16452:16608   */\n      pop\n        /* \"#utility.yul\":16429:16608   */\n    tag_413:\n        /* \"#utility.yul\":16654:16655   */\n      0x01\n        /* \"#utility.yul\":16650:16651   */\n      0x02\n        /* \"#utility.yul\":16642:16648   */\n      dup9\n        /* \"#utility.yul\":16638:16652   */\n      mul\n        /* \"#utility.yul\":16634:16656   */\n      add\n        /* \"#utility.yul\":16628:16632   */\n      dup9\n        /* \"#utility.yul\":16621:16657   */\n      sstore\n        /* \"#utility.yul\":16056:16667   */\n      pop\n      pop\n      pop\n        /* \"#utility.yul\":16019:16906   */\n    tag_405:\n      pop\n        /* \"#utility.yul\":15609:16912   */\n      pop\n      pop\n      pop\n        /* \"#utility.yul\":15517:16912   */\n      pop\n      pop\n      jump\t// out\n        /* \"#utility.yul\":16918:17098   */\n    tag_222:\n        /* \"#utility.yul\":16966:17043   */\n      0x4e487b7100000000000000000000000000000000000000000000000000000000\n        /* \"#utility.yul\":16963:16964   */\n      0x00\n        /* \"#utility.yul\":16956:17044   */\n      mstore\n        /* \"#utility.yul\":17063:17067   */\n      0x11\n        /* \"#utility.yul\":17060:17061   */\n      0x04\n        /* \"#utility.yul\":17053:17068   */\n      mstore\n        /* \"#utility.yul\":17087:17091   */\n      0x24\n        /* \"#utility.yul\":17084:17085   */\n      0x00\n        /* \"#utility.yul\":17077:17092   */\n      revert\n        /* \"#utility.yul\":17104:17298   */\n    tag_66:\n        /* \"#utility.yul\":17144:17148   */\n      0x00\n        /* \"#utility.yul\":17164:17184   */\n      tag_417\n        /* \"#utility.yul\":17182:17183   */\n      dup3\n        /* \"#utility.yul\":17164:17184   */\n      tag_170\n      jump\t// in\n    tag_417:\n        /* \"#utility.yul\":17159:17184   */\n      swap2\n      pop\n        /* \"#utility.yul\":17198:17218   */\n      tag_418\n        /* \"#utility.yul\":17216:17217   */\n      dup4\n        /* \"#utility.yul\":17198:17218   */\n      tag_170\n      jump\t// in\n    tag_418:\n        /* \"#utility.yul\":17193:17218   */\n      swap3\n      pop\n        /* \"#utility.yul\":17242:17243   */\n      dup3\n        /* \"#utility.yul\":17239:17240   */\n      dup3\n        /* \"#utility.yul\":17235:17244   */\n      sub\n        /* \"#utility.yul\":17227:17244   */\n      swap1\n      pop\n        /* \"#utility.yul\":17266:17267   */\n      dup2\n        /* \"#utility.yul\":17260:17264   */\n      dup2\n        /* \"#utility.yul\":17257:17268   */\n      gt\n        /* \"#utility.yul\":17254:17291   */\n      iszero\n      tag_419\n      jumpi\n        /* \"#utility.yul\":17271:17289   */\n      tag_420\n      tag_222\n      jump\t// in\n    tag_420:\n        /* \"#utility.yul\":17254:17291   */\n    tag_419:\n        /* \"#utility.yul\":17104:17298   */\n      swap3\n      swap2\n      pop\n      pop\n      jump\t// out\n        /* \"#utility.yul\":17304:17495   */\n    tag_68:\n        /* \"#utility.yul\":17344:17347   */\n      0x00\n        /* \"#utility.yul\":17363:17383   */\n      tag_422\n        /* \"#utility.yul\":17381:17382   */\n      dup3\n        /* \"#utility.yul\":17363:17383   */\n      tag_170\n      jump\t// in\n    tag_422:\n        /* \"#utility.yul\":17358:17383   */\n      swap2\n      pop\n        /* \"#utility.yul\":17397:17417   */\n      tag_423\n        /* \"#utility.yul\":17415:17416   */\n      dup4\n        /* \"#utility.yul\":17397:17417   */\n      tag_170\n      jump\t// in\n    tag_423:\n        /* \"#utility.yul\":17392:17417   */\n      swap3\n      pop\n        /* \"#utility.yul\":17440:17441   */\n      dup3\n        /* \"#utility.yul\":17437:17438   */\n      dup3\n        /* \"#utility.yul\":17433:17442   */\n      add\n        /* \"#utility.yul\":17426:17442   */\n      swap1\n      pop\n        /* \"#utility.yul\":17461:17464   */\n      dup1\n        /* \"#utility.yul\":17458:17459   */\n      dup3\n        /* \"#utility.yul\":17455:17465   */\n      gt\n        /* \"#utility.yul\":17452:17488   */\n      iszero\n      tag_424\n      jumpi\n        /* \"#utility.yul\":17468:17486   */\n      tag_425\n      tag_222\n      jump\t// in\n    tag_425:\n        /* \"#utility.yul\":17452:17488   */\n    tag_424:\n        /* \"#utility.yul\":17304:17495   */\n      swap3\n      swap2\n      pop\n      pop\n      jump\t// out\n        /* \"#utility.yul\":17501:17681   */\n    tag_71:\n        /* \"#utility.yul\":17549:17626   */\n      0x4e487b7100000000000000000000000000000000000000000000000000000000\n        /* \"#utility.yul\":17546:17547   */\n      0x00\n        /* \"#utility.yul\":17539:17627   */\n      mstore\n        /* \"#utility.yul\":17646:17650   */\n      0x32\n        /* \"#utility.yul\":17643:17644   */\n      0x04\n        /* \"#utility.yul\":17636:17651   */\n      mstore\n        /* \"#utility.yul\":17670:17674   */\n      0x24\n        /* \"#utility.yul\":17667:17668   */\n      0x00\n        /* \"#utility.yul\":17660:17675   */\n      revert\n        /* \"#utility.yul\":17687:17920   */\n    tag_86:\n        /* \"#utility.yul\":17726:17729   */\n      0x00\n        /* \"#utility.yul\":17749:17773   */\n      tag_428\n        /* \"#utility.yul\":17767:17772   */\n      dup3\n        /* \"#utility.yul\":17749:17773   */\n      tag_170\n      jump\t// in\n    tag_428:\n        /* \"#utility.yul\":17740:17773   */\n      swap2\n      pop\n        /* \"#utility.yul\":17795:17861   */\n      0xffffffffffffffffffffffffffffffffffffffffffffffffffffffffffffffff\n        /* \"#utility.yul\":17788:17793   */\n      dup3\n        /* \"#utility.yul\":17785:17862   */\n      sub\n        /* \"#utility.yul\":17782:17885   */\n      tag_429\n      jumpi\n        /* \"#utility.yul\":17865:17883   */\n      tag_430\n      tag_222\n      jump\t// in\n    tag_430:\n        /* \"#utility.yul\":17782:17885   */\n    tag_429:\n        /* \"#utility.yul\":17912:17913   */\n      0x01\n        /* \"#utility.yul\":17905:17910   */\n      dup3\n        /* \"#utility.yul\":17901:17914   */\n      add\n        /* \"#utility.yul\":17894:17914   */\n      swap1\n      pop\n        /* \"#utility.yul\":17687:17920   */\n      swap2\n      swap1\n      pop\n      jump\t// out\n\n    auxdata: 0xa2646970667358221220c4363d7bb9ce13269f51879cb51d36ae56e4bf2af4cc4dd81d0552ec1e54db0364736f6c63430008120033\n}\n",
				"bytecode": {
					"linkReferences": {},
					"object": "608060405234801561001057600080fd5b5061140b806100206000396000f3fe608060405234801561001057600080fd5b506004361061007d5760003560e01c8063835c21b61161005b578063835c21b6146100c65780638f88708b146100f6578063b9adfc3e1461012b578063d6e9f06f1461014c5761007d565b806348e3eeda14610082578063563220501461009e578063739a87e9146100a8575b600080fd5b61009c60048036038101906100979190610ba0565b61016a565b005b6100a6610284565b005b6100b06104c8565b6040516100bd9190610d09565b60405180910390f35b6100e060048036038101906100db9190610d24565b610513565b6040516100ed9190610db6565b60405180910390f35b610110600480360381019061010b9190610dd1565b610646565b60405161012296959493929190610f3c565b60405180910390f35b61013361078e565b6040516101439493929190610fa4565b60405180910390f35b61015461099e565b6040516101619190610db6565b60405180910390f35b600087118061017b57506001548711155b1561027b576040518060c001604052808781526020018681526020018581526020018460038111156101b0576101af610e7d565b5b81526020018360038111156101c8576101c7610e7d565b5b81526020018281525060008089815260200190815260200160002060008201518160000190816101f891906111f5565b50602082015181600101556040820151816002015560608201518160030160006101000a81548160ff0219169083600381111561023857610237610e7d565b5b021790555060808201518160030160016101000a81548160ff0219169083600381111561026857610267610e7d565b5b021790555060a082015181600401559050505b50505050505050565b600060015467ffffffffffffffff8111156102a2576102a1610a2b565b5b6040519080825280602002602001820160405280156102d05781602001602082028036833780820191505090505b50905060005b81518110156104235760005b600183516102f091906112f6565b81101561040f5760008084600184610308919061132a565b815181106103195761031861135e565b5b60200260200101518152602001908152602001600020600401546000808584815181106103495761034861135e565b5b602002602001015181526020019081526020016000206004015410156103fc57600083600183610379919061132a565b8151811061038a5761038961135e565b5b602002602001015190508382815181106103a7576103a661135e565b5b6020026020010151846001846103bd919061132a565b815181106103ce576103cd61135e565b5b602002602001018181525050808483815181106103ee576103ed61135e565b5b602002602001018181525050505b80806104079061138d565b9150506102e2565b50808061041b9061138d565b9150506102d6565b50806000815181106104385761043761135e565b5b602002602001015160026000600381106104555761045461135e565b5b01819055508060018151811061046e5761046d61135e565b5b6020026020010151600260016003811061048b5761048a61135e565b5b0181905550806002815181106104a4576104a361135e565b5b6020026020010151600280600381106104c0576104bf61135e565b5b018190555050565b6104d06109a4565b6002600380602002604051908101604052809291908260038015610509576020028201915b8154815260200190600101908083116104f5575b5050505050905090565b60008060018054610524919061132a565b90506040518060c0016040528087815260200186815260200185815260200184600381111561055657610555610e7d565b5b81526020016000600381111561056f5761056e610e7d565b5b8152602001600081525060008083815260200190815260200160002060008201518160000190816105a091906111f5565b50602082015181600101556040820151816002015560608201518160030160006101000a81548160ff021916908360038111156105e0576105df610e7d565b5b021790555060808201518160030160016101000a81548160ff021916908360038111156106105761060f610e7d565b5b021790555060a08201518160040155905050600160008154809291906106359061138d565b919050555080915050949350505050565b60606000806000806000806000888152602001908152602001600020600001600080898152602001908152602001600020600101546000808a8152602001908152602001600020600201546000808b815260200190815260200160002060030160009054906101000a900460ff166000808c815260200190815260200160002060030160019054906101000a900460ff166000808d8152602001908152602001600020600401548580546106f990611018565b80601f016020809104026020016040519081016040528092919081815260200182805461072590611018565b80156107725780601f1061074757610100808354040283529160200191610772565b820191906000526020600020905b81548152906001019060200180831161075557829003601f168201915b5050505050955095509550955095509550955091939550919395565b6000806000806000806000806000600190505b600154811161098757600060038111156107be576107bd610e7d565b5b60038111156107d0576107cf610e7d565b5b60008083815260200190815260200160002060030160009054906101000a900460ff16600381111561080557610804610e7d565b5b0361081d5784806108159061138d565b955050610974565b6001600381111561083157610830610e7d565b5b600381111561084357610842610e7d565b5b60008083815260200190815260200160002060030160009054906101000a900460ff16600381111561087857610877610e7d565b5b036108905783806108889061138d565b945050610973565b600260038111156108a4576108a3610e7d565b5b60038111156108b6576108b5610e7d565b5b60008083815260200190815260200160002060030160009054906101000a900460ff1660038111156108eb576108ea610e7d565b5b036109035782806108fb9061138d565b935050610972565b60038081111561091657610915610e7d565b5b600381111561092857610927610e7d565b5b60008083815260200190815260200160002060030160009054906101000a900460ff16600381111561095d5761095c610e7d565b5b0361097157818061096d9061138d565b9250505b5b5b5b600181610981919061132a565b506107a1565b508383838397509750975097505050505090919293565b60015481565b6040518060600160405280600390602082028036833780820191505090505090565b6000604051905090565b600080fd5b600080fd5b6000819050919050565b6109ed816109da565b81146109f857600080fd5b50565b600081359050610a0a816109e4565b92915050565b600080fd5b600080fd5b6000601f19601f8301169050919050565b7f4e487b7100000000000000000000000000000000000000000000000000000000600052604160045260246000fd5b610a6382610a1a565b810181811067ffffffffffffffff82111715610a8257610a81610a2b565b5b80604052505050565b6000610a956109c6565b9050610aa18282610a5a565b919050565b600067ffffffffffffffff821115610ac157610ac0610a2b565b5b610aca82610a1a565b9050602081019050919050565b82818337600083830152505050565b6000610af9610af484610aa6565b610a8b565b905082815260208101848484011115610b1557610b14610a15565b5b610b20848285610ad7565b509392505050565b600082601f830112610b3d57610b3c610a10565b5b8135610b4d848260208601610ae6565b91505092915050565b60048110610b6357600080fd5b50565b600081359050610b7581610b56565b92915050565b60048110610b8857600080fd5b50565b600081359050610b9a81610b7b565b92915050565b600080600080600080600060e0888a031215610bbf57610bbe6109d0565b5b6000610bcd8a828b016109fb565b975050602088013567ffffffffffffffff811115610bee57610bed6109d5565b5b610bfa8a828b01610b28565b9650506040610c0b8a828b016109fb565b9550506060610c1c8a828b016109fb565b9450506080610c2d8a828b01610b66565b93505060a0610c3e8a828b01610b8b565b92505060c0610c4f8a828b016109fb565b91505092959891949750929550565b600060039050919050565b600081905092915050565b6000819050919050565b610c87816109da565b82525050565b6000610c998383610c7e565b60208301905092915050565b6000602082019050919050565b610cbb81610c5e565b610cc58184610c69565b9250610cd082610c74565b8060005b83811015610d01578151610ce88782610c8d565b9650610cf383610ca5565b925050600181019050610cd4565b505050505050565b6000606082019050610d1e6000830184610cb2565b92915050565b60008060008060808587031215610d3e57610d3d6109d0565b5b600085013567ffffffffffffffff811115610d5c57610d5b6109d5565b5b610d6887828801610b28565b9450506020610d79878288016109fb565b9350506040610d8a878288016109fb565b9250506060610d9b87828801610b66565b91505092959194509250565b610db0816109da565b82525050565b6000602082019050610dcb6000830184610da7565b92915050565b600060208284031215610de757610de66109d0565b5b6000610df5848285016109fb565b91505092915050565b600081519050919050565b600082825260208201905092915050565b60005b83811015610e38578082015181840152602081019050610e1d565b60008484015250505050565b6000610e4f82610dfe565b610e598185610e09565b9350610e69818560208601610e1a565b610e7281610a1a565b840191505092915050565b7f4e487b7100000000000000000000000000000000000000000000000000000000600052602160045260246000fd5b60048110610ebd57610ebc610e7d565b5b50565b6000819050610ece82610eac565b919050565b6000610ede82610ec0565b9050919050565b610eee81610ed3565b82525050565b60048110610f0557610f04610e7d565b5b50565b6000819050610f1682610ef4565b919050565b6000610f2682610f08565b9050919050565b610f3681610f1b565b82525050565b600060c0820190508181036000830152610f568189610e44565b9050610f656020830188610da7565b610f726040830187610da7565b610f7f6060830186610ee5565b610f8c6080830185610f2d565b610f9960a0830184610da7565b979650505050505050565b6000608082019050610fb96000830187610da7565b610fc66020830186610da7565b610fd36040830185610da7565b610fe06060830184610da7565b95945050505050565b7f4e487b7100000000000000000000000000000000000000000000000000000000600052602260045260246000fd5b6000600282049050600182168061103057607f821691505b60208210810361104357611042610fe9565b5b50919050565b60008190508160005260206000209050919050565b60006020601f8301049050919050565b600082821b905092915050565b6000600883026110ab7fffffffffffffffffffffffffffffffffffffffffffffffffffffffffffffffff8261106e565b6110b5868361106e565b95508019841693508086168417925050509392505050565b6000819050919050565b60006110f26110ed6110e8846109da565b6110cd565b6109da565b9050919050565b6000819050919050565b61110c836110d7565b611120611118826110f9565b84845461107b565b825550505050565b600090565b611135611128565b611140818484611103565b505050565b5b818110156111645761115960008261112d565b600181019050611146565b5050565b601f8211156111a95761117a81611049565b6111838461105e565b81016020851015611192578190505b6111a661119e8561105e565b830182611145565b50505b505050565b600082821c905092915050565b60006111cc600019846008026111ae565b1980831691505092915050565b60006111e583836111bb565b9150826002028217905092915050565b6111fe82610dfe565b67ffffffffffffffff81111561121757611216610a2b565b5b6112218254611018565b61122c828285611168565b600060209050601f83116001811461125f576000841561124d578287015190505b61125785826111d9565b8655506112bf565b601f19841661126d86611049565b60005b8281101561129557848901518255600182019150602085019450602081019050611270565b868310156112b257848901516112ae601f8916826111bb565b8355505b6001600288020188555050505b505050505050565b7f4e487b7100000000000000000000000000000000000000000000000000000000600052601160045260246000fd5b6000611301826109da565b915061130c836109da565b9250828203905081811115611324576113236112c7565b5b92915050565b6000611335826109da565b9150611340836109da565b9250828201905080821115611358576113576112c7565b5b92915050565b7f4e487b7100000000000000000000000000000000000000000000000000000000600052603260045260246000fd5b6000611398826109da565b91507fffffffffffffffffffffffffffffffffffffffffffffffffffffffffffffffff82036113ca576113c96112c7565b5b60018201905091905056fea2646970667358221220c4363d7bb9ce13269f51879cb51d36ae56e4bf2af4cc4dd81d0552ec1e54db0364736f6c63430008120033",
					"opcodes": "PUSH1 0x80 PUSH1 0x40 MSTORE CALLVALUE DUP1 ISZERO PUSH2 0x10 JUMPI PUSH1 0x0 DUP1 REVERT JUMPDEST POP PUSH2 0x140B DUP1 PUSH2 0x20 PUSH1 0x0 CODECOPY PUSH1 0x0 RETURN INVALID PUSH1 0x80 PUSH1 0x40 MSTORE CALLVALUE DUP1 ISZERO PUSH2 0x10 JUMPI PUSH1 0x0 DUP1 REVERT JUMPDEST POP PUSH1 0x4 CALLDATASIZE LT PUSH2 0x7D JUMPI PUSH1 0x0 CALLDATALOAD PUSH1 0xE0 SHR DUP1 PUSH4 0x835C21B6 GT PUSH2 0x5B JUMPI DUP1 PUSH4 0x835C21B6 EQ PUSH2 0xC6 JUMPI DUP1 PUSH4 0x8F88708B EQ PUSH2 0xF6 JUMPI DUP1 PUSH4 0xB9ADFC3E EQ PUSH2 0x12B JUMPI DUP1 PUSH4 0xD6E9F06F EQ PUSH2 0x14C JUMPI PUSH2 0x7D JUMP JUMPDEST DUP1 PUSH4 0x48E3EEDA EQ PUSH2 0x82 JUMPI DUP1 PUSH4 0x56322050 EQ PUSH2 0x9E JUMPI DUP1 PUSH4 0x739A87E9 EQ PUSH2 0xA8 JUMPI JUMPDEST PUSH1 0x0 DUP1 REVERT JUMPDEST PUSH2 0x9C PUSH1 0x4 DUP1 CALLDATASIZE SUB DUP2 ADD SWAP1 PUSH2 0x97 SWAP2 SWAP1 PUSH2 0xBA0 JUMP JUMPDEST PUSH2 0x16A JUMP JUMPDEST STOP JUMPDEST PUSH2 0xA6 PUSH2 0x284 JUMP JUMPDEST STOP JUMPDEST PUSH2 0xB0 PUSH2 0x4C8 JUMP JUMPDEST PUSH1 0x40 MLOAD PUSH2 0xBD SWAP2 SWAP1 PUSH2 0xD09 JUMP JUMPDEST PUSH1 0x40 MLOAD DUP1 SWAP2 SUB SWAP1 RETURN JUMPDEST PUSH2 0xE0 PUSH1 0x4 DUP1 CALLDATASIZE SUB DUP2 ADD SWAP1 PUSH2 0xDB SWAP2 SWAP1 PUSH2 0xD24 JUMP JUMPDEST PUSH2 0x513 JUMP JUMPDEST PUSH1 0x40 MLOAD PUSH2 0xED SWAP2 SWAP1 PUSH2 0xDB6 JUMP JUMPDEST PUSH1 0x40 MLOAD DUP1 SWAP2 SUB SWAP1 RETURN JUMPDEST PUSH2 0x110 PUSH1 0x4 DUP1 CALLDATASIZE SUB DUP2 ADD SWAP1 PUSH2 0x10B SWAP2 SWAP1 PUSH2 0xDD1 JUMP JUMPDEST PUSH2 0x646 JUMP JUMPDEST PUSH1 0x40 MLOAD PUSH2 0x122 SWAP7 SWAP6 SWAP5 SWAP4 SWAP3 SWAP2 SWAP1 PUSH2 0xF3C JUMP JUMPDEST PUSH1 0x40 MLOAD DUP1 SWAP2 SUB SWAP1 RETURN JUMPDEST PUSH2 0x133 PUSH2 0x78E JUMP JUMPDEST PUSH1 0x40 MLOAD PUSH2 0x143 SWAP5 SWAP4 SWAP3 SWAP2 SWAP1 PUSH2 0xFA4 JUMP JUMPDEST PUSH1 0x40 MLOAD DUP1 SWAP2 SUB SWAP1 RETURN JUMPDEST PUSH2 0x154 PUSH2 0x99E JUMP JUMPDEST PUSH1 0x40 MLOAD PUSH2 0x161 SWAP2 SWAP1 PUSH2 0xDB6 JUMP JUMPDEST PUSH1 0x40 MLOAD DUP1 SWAP2 SUB SWAP1 RETURN JUMPDEST PUSH1 0x0 DUP8 GT DUP1 PUSH2 0x17B JUMPI POP PUSH1 0x1 SLOAD DUP8 GT ISZERO JUMPDEST ISZERO PUSH2 0x27B JUMPI PUSH1 0x40 MLOAD DUP1 PUSH1 0xC0 ADD PUSH1 0x40 MSTORE DUP1 DUP8 DUP2 MSTORE PUSH1 0x20 ADD DUP7 DUP2 MSTORE PUSH1 0x20 ADD DUP6 DUP2 MSTORE PUSH1 0x20 ADD DUP5 PUSH1 0x3 DUP2 GT ISZERO PUSH2 0x1B0 JUMPI PUSH2 0x1AF PUSH2 0xE7D JUMP JUMPDEST JUMPDEST DUP2 MSTORE PUSH1 0x20 ADD DUP4 PUSH1 0x3 DUP2 GT ISZERO PUSH2 0x1C8 JUMPI PUSH2 0x1C7 PUSH2 0xE7D JUMP JUMPDEST JUMPDEST DUP2 MSTORE PUSH1 0x20 ADD DUP3 DUP2 MSTORE POP PUSH1 0x0 DUP1 DUP10 DUP2 MSTORE PUSH1 0x20 ADD SWAP1 DUP2 MSTORE PUSH1 0x20 ADD PUSH1 0x0 KECCAK256 PUSH1 0x0 DUP3 ADD MLOAD DUP2 PUSH1 0x0 ADD SWAP1 DUP2 PUSH2 0x1F8 SWAP2 SWAP1 PUSH2 0x11F5 JUMP JUMPDEST POP PUSH1 0x20 DUP3 ADD MLOAD DUP2 PUSH1 0x1 ADD SSTORE PUSH1 0x40 DUP3 ADD MLOAD DUP2 PUSH1 0x2 ADD SSTORE PUSH1 0x60 DUP3 ADD MLOAD DUP2 PUSH1 0x3 ADD PUSH1 0x0 PUSH2 0x100 EXP DUP2 SLOAD DUP2 PUSH1 0xFF MUL NOT AND SWAP1 DUP4 PUSH1 0x3 DUP2 GT ISZERO PUSH2 0x238 JUMPI PUSH2 0x237 PUSH2 0xE7D JUMP JUMPDEST JUMPDEST MUL OR SWAP1 SSTORE POP PUSH1 0x80 DUP3 ADD MLOAD DUP2 PUSH1 0x3 ADD PUSH1 0x1 PUSH2 0x100 EXP DUP2 SLOAD DUP2 PUSH1 0xFF MUL NOT AND SWAP1 DUP4 PUSH1 0x3 DUP2 GT ISZERO PUSH2 0x268 JUMPI PUSH2 0x267 PUSH2 0xE7D JUMP JUMPDEST JUMPDEST MUL OR SWAP1 SSTORE POP PUSH1 0xA0 DUP3 ADD MLOAD DUP2 PUSH1 0x4 ADD SSTORE SWAP1 POP POP JUMPDEST POP POP POP POP POP POP POP JUMP JUMPDEST PUSH1 0x0 PUSH1 0x1 SLOAD PUSH8 0xFFFFFFFFFFFFFFFF DUP2 GT ISZERO PUSH2 0x2A2 JUMPI PUSH2 0x2A1 PUSH2 0xA2B JUMP JUMPDEST JUMPDEST PUSH1 0x40 MLOAD SWAP1 DUP1 DUP3 MSTORE DUP1 PUSH1 0x20 MUL PUSH1 0x20 ADD DUP3 ADD PUSH1 0x40 MSTORE DUP1 ISZERO PUSH2 0x2D0 JUMPI DUP2 PUSH1 0x20 ADD PUSH1 0x20 DUP3 MUL DUP1 CALLDATASIZE DUP4 CALLDATACOPY DUP1 DUP3 ADD SWAP2 POP POP SWAP1 POP JUMPDEST POP SWAP1 POP PUSH1 0x0 JUMPDEST DUP2 MLOAD DUP2 LT ISZERO PUSH2 0x423 JUMPI PUSH1 0x0 JUMPDEST PUSH1 0x1 DUP4 MLOAD PUSH2 0x2F0 SWAP2 SWAP1 PUSH2 0x12F6 JUMP JUMPDEST DUP2 LT ISZERO PUSH2 0x40F JUMPI PUSH1 0x0 DUP1 DUP5 PUSH1 0x1 DUP5 PUSH2 0x308 SWAP2 SWAP1 PUSH2 0x132A JUMP JUMPDEST DUP2 MLOAD DUP2 LT PUSH2 0x319 JUMPI PUSH2 0x318 PUSH2 0x135E JUMP JUMPDEST JUMPDEST PUSH1 0x20 MUL PUSH1 0x20 ADD ADD MLOAD DUP2 MSTORE PUSH1 0x20 ADD SWAP1 DUP2 MSTORE PUSH1 0x20 ADD PUSH1 0x0 KECCAK256 PUSH1 0x4 ADD SLOAD PUSH1 0x0 DUP1 DUP6 DUP5 DUP2 MLOAD DUP2 LT PUSH2 0x349 JUMPI PUSH2 0x348 PUSH2 0x135E JUMP JUMPDEST JUMPDEST PUSH1 0x20 MUL PUSH1 0x20 ADD ADD MLOAD DUP2 MSTORE PUSH1 0x20 ADD SWAP1 DUP2 MSTORE PUSH1 0x20 ADD PUSH1 0x0 KECCAK256 PUSH1 0x4 ADD SLOAD LT ISZERO PUSH2 0x3FC JUMPI PUSH1 0x0 DUP4 PUSH1 0x1 DUP4 PUSH2 0x379 SWAP2 SWAP1 PUSH2 0x132A JUMP JUMPDEST DUP2 MLOAD DUP2 LT PUSH2 0x38A JUMPI PUSH2 0x389 PUSH2 0x135E JUMP JUMPDEST JUMPDEST PUSH1 0x20 MUL PUSH1 0x20 ADD ADD MLOAD SWAP1 POP DUP4 DUP3 DUP2 MLOAD DUP2 LT PUSH2 0x3A7 JUMPI PUSH2 0x3A6 PUSH2 0x135E JUMP JUMPDEST JUMPDEST PUSH1 0x20 MUL PUSH1 0x20 ADD ADD MLOAD DUP5 PUSH1 0x1 DUP5 PUSH2 0x3BD SWAP2 SWAP1 PUSH2 0x132A JUMP JUMPDEST DUP2 MLOAD DUP2 LT PUSH2 0x3CE JUMPI PUSH2 0x3CD PUSH2 0x135E JUMP JUMPDEST JUMPDEST PUSH1 0x20 MUL PUSH1 0x20 ADD ADD DUP2 DUP2 MSTORE POP POP DUP1 DUP5 DUP4 DUP2 MLOAD DUP2 LT PUSH2 0x3EE JUMPI PUSH2 0x3ED PUSH2 0x135E JUMP JUMPDEST JUMPDEST PUSH1 0x20 MUL PUSH1 0x20 ADD ADD DUP2 DUP2 MSTORE POP POP POP JUMPDEST DUP1 DUP1 PUSH2 0x407 SWAP1 PUSH2 0x138D JUMP JUMPDEST SWAP2 POP POP PUSH2 0x2E2 JUMP JUMPDEST POP DUP1 DUP1 PUSH2 0x41B SWAP1 PUSH2 0x138D JUMP JUMPDEST SWAP2 POP POP PUSH2 0x2D6 JUMP JUMPDEST POP DUP1 PUSH1 0x0 DUP2 MLOAD DUP2 LT PUSH2 0x438 JUMPI PUSH2 0x437 PUSH2 0x135E JUMP JUMPDEST JUMPDEST PUSH1 0x20 MUL PUSH1 0x20 ADD ADD MLOAD PUSH1 0x2 PUSH1 0x0 PUSH1 0x3 DUP2 LT PUSH2 0x455 JUMPI PUSH2 0x454 PUSH2 0x135E JUMP JUMPDEST JUMPDEST ADD DUP2 SWAP1 SSTORE POP DUP1 PUSH1 0x1 DUP2 MLOAD DUP2 LT PUSH2 0x46E JUMPI PUSH2 0x46D PUSH2 0x135E JUMP JUMPDEST JUMPDEST PUSH1 0x20 MUL PUSH1 0x20 ADD ADD MLOAD PUSH1 0x2 PUSH1 0x1 PUSH1 0x3 DUP2 LT PUSH2 0x48B JUMPI PUSH2 0x48A PUSH2 0x135E JUMP JUMPDEST JUMPDEST ADD DUP2 SWAP1 SSTORE POP DUP1 PUSH1 0x2 DUP2 MLOAD DUP2 LT PUSH2 0x4A4 JUMPI PUSH2 0x4A3 PUSH2 0x135E JUMP JUMPDEST JUMPDEST PUSH1 0x20 MUL PUSH1 0x20 ADD ADD MLOAD PUSH1 0x2 DUP1 PUSH1 0x3 DUP2 LT PUSH2 0x4C0 JUMPI PUSH2 0x4BF PUSH2 0x135E JUMP JUMPDEST JUMPDEST ADD DUP2 SWAP1 SSTORE POP POP JUMP JUMPDEST PUSH2 0x4D0 PUSH2 0x9A4 JUMP JUMPDEST PUSH1 0x2 PUSH1 0x3 DUP1 PUSH1 0x20 MUL PUSH1 0x40 MLOAD SWAP1 DUP2 ADD PUSH1 0x40 MSTORE DUP1 SWAP3 SWAP2 SWAP1 DUP3 PUSH1 0x3 DUP1 ISZERO PUSH2 0x509 JUMPI PUSH1 0x20 MUL DUP3 ADD SWAP2 JUMPDEST DUP2 SLOAD DUP2 MSTORE PUSH1 0x20 ADD SWAP1 PUSH1 0x1 ADD SWAP1 DUP1 DUP4 GT PUSH2 0x4F5 JUMPI JUMPDEST POP POP POP POP POP SWAP1 POP SWAP1 JUMP JUMPDEST PUSH1 0x0 DUP1 PUSH1 0x1 DUP1 SLOAD PUSH2 0x524 SWAP2 SWAP1 PUSH2 0x132A JUMP JUMPDEST SWAP1 POP PUSH1 0x40 MLOAD DUP1 PUSH1 0xC0 ADD PUSH1 0x40 MSTORE DUP1 DUP8 DUP2 MSTORE PUSH1 0x20 ADD DUP7 DUP2 MSTORE PUSH1 0x20 ADD DUP6 DUP2 MSTORE PUSH1 0x20 ADD DUP5 PUSH1 0x3 DUP2 GT ISZERO PUSH2 0x556 JUMPI PUSH2 0x555 PUSH2 0xE7D JUMP JUMPDEST JUMPDEST DUP2 MSTORE PUSH1 0x20 ADD PUSH1 0x0 PUSH1 0x3 DUP2 GT ISZERO PUSH2 0x56F JUMPI PUSH2 0x56E PUSH2 0xE7D JUMP JUMPDEST JUMPDEST DUP2 MSTORE PUSH1 0x20 ADD PUSH1 0x0 DUP2 MSTORE POP PUSH1 0x0 DUP1 DUP4 DUP2 MSTORE PUSH1 0x20 ADD SWAP1 DUP2 MSTORE PUSH1 0x20 ADD PUSH1 0x0 KECCAK256 PUSH1 0x0 DUP3 ADD MLOAD DUP2 PUSH1 0x0 ADD SWAP1 DUP2 PUSH2 0x5A0 SWAP2 SWAP1 PUSH2 0x11F5 JUMP JUMPDEST POP PUSH1 0x20 DUP3 ADD MLOAD DUP2 PUSH1 0x1 ADD SSTORE PUSH1 0x40 DUP3 ADD MLOAD DUP2 PUSH1 0x2 ADD SSTORE PUSH1 0x60 DUP3 ADD MLOAD DUP2 PUSH1 0x3 ADD PUSH1 0x0 PUSH2 0x100 EXP DUP2 SLOAD DUP2 PUSH1 0xFF MUL NOT AND SWAP1 DUP4 PUSH1 0x3 DUP2 GT ISZERO PUSH2 0x5E0 JUMPI PUSH2 0x5DF PUSH2 0xE7D JUMP JUMPDEST JUMPDEST MUL OR SWAP1 SSTORE POP PUSH1 0x80 DUP3 ADD MLOAD DUP2 PUSH1 0x3 ADD PUSH1 0x1 PUSH2 0x100 EXP DUP2 SLOAD DUP2 PUSH1 0xFF MUL NOT AND SWAP1 DUP4 PUSH1 0x3 DUP2 GT ISZERO PUSH2 0x610 JUMPI PUSH2 0x60F PUSH2 0xE7D JUMP JUMPDEST JUMPDEST MUL OR SWAP1 SSTORE POP PUSH1 0xA0 DUP3 ADD MLOAD DUP2 PUSH1 0x4 ADD SSTORE SWAP1 POP POP PUSH1 0x1 PUSH1 0x0 DUP2 SLOAD DUP1 SWAP3 SWAP2 SWAP1 PUSH2 0x635 SWAP1 PUSH2 0x138D JUMP JUMPDEST SWAP2 SWAP1 POP SSTORE POP DUP1 SWAP2 POP POP SWAP5 SWAP4 POP POP POP POP JUMP JUMPDEST PUSH1 0x60 PUSH1 0x0 DUP1 PUSH1 0x0 DUP1 PUSH1 0x0 DUP1 PUSH1 0x0 DUP9 DUP2 MSTORE PUSH1 0x20 ADD SWAP1 DUP2 MSTORE PUSH1 0x20 ADD PUSH1 0x0 KECCAK256 PUSH1 0x0 ADD PUSH1 0x0 DUP1 DUP10 DUP2 MSTORE PUSH1 0x20 ADD SWAP1 DUP2 MSTORE PUSH1 0x20 ADD PUSH1 0x0 KECCAK256 PUSH1 0x1 ADD SLOAD PUSH1 0x0 DUP1 DUP11 DUP2 MSTORE PUSH1 0x20 ADD SWAP1 DUP2 MSTORE PUSH1 0x20 ADD PUSH1 0x0 KECCAK256 PUSH1 0x2 ADD SLOAD PUSH1 0x0 DUP1 DUP12 DUP2 MSTORE PUSH1 0x20 ADD SWAP1 DUP2 MSTORE PUSH1 0x20 ADD PUSH1 0x0 KECCAK256 PUSH1 0x3 ADD PUSH1 0x0 SWAP1 SLOAD SWAP1 PUSH2 0x100 EXP SWAP1 DIV PUSH1 0xFF AND PUSH1 0x0 DUP1 DUP13 DUP2 MSTORE PUSH1 0x20 ADD SWAP1 DUP2 MSTORE PUSH1 0x20 ADD PUSH1 0x0 KECCAK256 PUSH1 0x3 ADD PUSH1 0x1 SWAP1 SLOAD SWAP1 PUSH2 0x100 EXP SWAP1 DIV PUSH1 0xFF AND PUSH1 0x0 DUP1 DUP14 DUP2 MSTORE PUSH1 0x20 ADD SWAP1 DUP2 MSTORE PUSH1 0x20 ADD PUSH1 0x0 KECCAK256 PUSH1 0x4 ADD SLOAD DUP6 DUP1 SLOAD PUSH2 0x6F9 SWAP1 PUSH2 0x1018 JUMP JUMPDEST DUP1 PUSH1 0x1F ADD PUSH1 0x20 DUP1 SWAP2 DIV MUL PUSH1 0x20 ADD PUSH1 0x40 MLOAD SWAP1 DUP2 ADD PUSH1 0x40 MSTORE DUP1 SWAP3 SWAP2 SWAP1 DUP2 DUP2 MSTORE PUSH1 0x20 ADD DUP3 DUP1 SLOAD PUSH2 0x725 SWAP1 PUSH2 0x1018 JUMP JUMPDEST DUP1 ISZERO PUSH2 0x772 JUMPI DUP1 PUSH1 0x1F LT PUSH2 0x747 JUMPI PUSH2 0x100 DUP1 DUP4 SLOAD DIV MUL DUP4 MSTORE SWAP2 PUSH1 0x20 ADD SWAP2 PUSH2 0x772 JUMP JUMPDEST DUP3 ADD SWAP2 SWAP1 PUSH1 0x0 MSTORE PUSH1 0x20 PUSH1 0x0 KECCAK256 SWAP1 JUMPDEST DUP2 SLOAD DUP2 MSTORE SWAP1 PUSH1 0x1 ADD SWAP1 PUSH1 0x20 ADD DUP1 DUP4 GT PUSH2 0x755 JUMPI DUP3 SWAP1 SUB PUSH1 0x1F AND DUP3 ADD SWAP2 JUMPDEST POP POP POP POP POP SWAP6 POP SWAP6 POP SWAP6 POP SWAP6 POP SWAP6 POP SWAP6 POP SWAP6 POP SWAP2 SWAP4 SWAP6 POP SWAP2 SWAP4 SWAP6 JUMP JUMPDEST PUSH1 0x0 DUP1 PUSH1 0x0 DUP1 PUSH1 0x0 DUP1 PUSH1 0x0 DUP1 PUSH1 0x0 PUSH1 0x1 SWAP1 POP JUMPDEST PUSH1 0x1 SLOAD DUP2 GT PUSH2 0x987 JUMPI PUSH1 0x0 PUSH1 0x3 DUP2 GT ISZERO PUSH2 0x7BE JUMPI PUSH2 0x7BD PUSH2 0xE7D JUMP JUMPDEST JUMPDEST PUSH1 0x3 DUP2 GT ISZERO PUSH2 0x7D0 JUMPI PUSH2 0x7CF PUSH2 0xE7D JUMP JUMPDEST JUMPDEST PUSH1 0x0 DUP1 DUP4 DUP2 MSTORE PUSH1 0x20 ADD SWAP1 DUP2 MSTORE PUSH1 0x20 ADD PUSH1 0x0 KECCAK256 PUSH1 0x3 ADD PUSH1 0x0 SWAP1 SLOAD SWAP1 PUSH2 0x100 EXP SWAP1 DIV PUSH1 0xFF AND PUSH1 0x3 DUP2 GT ISZERO PUSH2 0x805 JUMPI PUSH2 0x804 PUSH2 0xE7D JUMP JUMPDEST JUMPDEST SUB PUSH2 0x81D JUMPI DUP5 DUP1 PUSH2 0x815 SWAP1 PUSH2 0x138D JUMP JUMPDEST SWAP6 POP POP PUSH2 0x974 JUMP JUMPDEST PUSH1 0x1 PUSH1 0x3 DUP2 GT ISZERO PUSH2 0x831 JUMPI PUSH2 0x830 PUSH2 0xE7D JUMP JUMPDEST JUMPDEST PUSH1 0x3 DUP2 GT ISZERO PUSH2 0x843 JUMPI PUSH2 0x842 PUSH2 0xE7D JUMP JUMPDEST JUMPDEST PUSH1 0x0 DUP1 DUP4 DUP2 MSTORE PUSH1 0x20 ADD SWAP1 DUP2 MSTORE PUSH1 0x20 ADD PUSH1 0x0 KECCAK256 PUSH1 0x3 ADD PUSH1 0x0 SWAP1 SLOAD SWAP1 PUSH2 0x100 EXP SWAP1 DIV PUSH1 0xFF AND PUSH1 0x3 DUP2 GT ISZERO PUSH2 0x878 JUMPI PUSH2 0x877 PUSH2 0xE7D JUMP JUMPDEST JUMPDEST SUB PUSH2 0x890 JUMPI DUP4 DUP1 PUSH2 0x888 SWAP1 PUSH2 0x138D JUMP JUMPDEST SWAP5 POP POP PUSH2 0x973 JUMP JUMPDEST PUSH1 0x2 PUSH1 0x3 DUP2 GT ISZERO PUSH2 0x8A4 JUMPI PUSH2 0x8A3 PUSH2 0xE7D JUMP JUMPDEST JUMPDEST PUSH1 0x3 DUP2 GT ISZERO PUSH2 0x8B6 JUMPI PUSH2 0x8B5 PUSH2 0xE7D JUMP JUMPDEST JUMPDEST PUSH1 0x0 DUP1 DUP4 DUP2 MSTORE PUSH1 0x20 ADD SWAP1 DUP2 MSTORE PUSH1 0x20 ADD PUSH1 0x0 KECCAK256 PUSH1 0x3 ADD PUSH1 0x0 SWAP1 SLOAD SWAP1 PUSH2 0x100 EXP SWAP1 DIV PUSH1 0xFF AND PUSH1 0x3 DUP2 GT ISZERO PUSH2 0x8EB JUMPI PUSH2 0x8EA PUSH2 0xE7D JUMP JUMPDEST JUMPDEST SUB PUSH2 0x903 JUMPI DUP3 DUP1 PUSH2 0x8FB SWAP1 PUSH2 0x138D JUMP JUMPDEST SWAP4 POP POP PUSH2 0x972 JUMP JUMPDEST PUSH1 0x3 DUP1 DUP2 GT ISZERO PUSH2 0x916 JUMPI PUSH2 0x915 PUSH2 0xE7D JUMP JUMPDEST JUMPDEST PUSH1 0x3 DUP2 GT ISZERO PUSH2 0x928 JUMPI PUSH2 0x927 PUSH2 0xE7D JUMP JUMPDEST JUMPDEST PUSH1 0x0 DUP1 DUP4 DUP2 MSTORE PUSH1 0x20 ADD SWAP1 DUP2 MSTORE PUSH1 0x20 ADD PUSH1 0x0 KECCAK256 PUSH1 0x3 ADD PUSH1 0x0 SWAP1 SLOAD SWAP1 PUSH2 0x100 EXP SWAP1 DIV PUSH1 0xFF AND PUSH1 0x3 DUP2 GT ISZERO PUSH2 0x95D JUMPI PUSH2 0x95C PUSH2 0xE7D JUMP JUMPDEST JUMPDEST SUB PUSH2 0x971 JUMPI DUP2 DUP1 PUSH2 0x96D SWAP1 PUSH2 0x138D JUMP JUMPDEST SWAP3 POP POP JUMPDEST JUMPDEST JUMPDEST JUMPDEST PUSH1 0x1 DUP2 PUSH2 0x981 SWAP2 SWAP1 PUSH2 0x132A JUMP JUMPDEST POP PUSH2 0x7A1 JUMP JUMPDEST POP DUP4 DUP4 DUP4 DUP4 SWAP8 POP SWAP8 POP SWAP8 POP SWAP8 POP POP POP POP POP SWAP1 SWAP2 SWAP3 SWAP4 JUMP JUMPDEST PUSH1 0x1 SLOAD DUP2 JUMP JUMPDEST PUSH1 0x40 MLOAD DUP1 PUSH1 0x60 ADD PUSH1 0x40 MSTORE DUP1 PUSH1 0x3 SWAP1 PUSH1 0x20 DUP3 MUL DUP1 CALLDATASIZE DUP4 CALLDATACOPY DUP1 DUP3 ADD SWAP2 POP POP SWAP1 POP POP SWAP1 JUMP JUMPDEST PUSH1 0x0 PUSH1 0x40 MLOAD SWAP1 POP SWAP1 JUMP JUMPDEST PUSH1 0x0 DUP1 REVERT JUMPDEST PUSH1 0x0 DUP1 REVERT JUMPDEST PUSH1 0x0 DUP2 SWAP1 POP SWAP2 SWAP1 POP JUMP JUMPDEST PUSH2 0x9ED DUP2 PUSH2 0x9DA JUMP JUMPDEST DUP2 EQ PUSH2 0x9F8 JUMPI PUSH1 0x0 DUP1 REVERT JUMPDEST POP JUMP JUMPDEST PUSH1 0x0 DUP2 CALLDATALOAD SWAP1 POP PUSH2 0xA0A DUP2 PUSH2 0x9E4 JUMP JUMPDEST SWAP3 SWAP2 POP POP JUMP JUMPDEST PUSH1 0x0 DUP1 REVERT JUMPDEST PUSH1 0x0 DUP1 REVERT JUMPDEST PUSH1 0x0 PUSH1 0x1F NOT PUSH1 0x1F DUP4 ADD AND SWAP1 POP SWAP2 SWAP1 POP JUMP JUMPDEST PUSH32 0x4E487B7100000000000000000000000000000000000000000000000000000000 PUSH1 0x0 MSTORE PUSH1 0x41 PUSH1 0x4 MSTORE PUSH1 0x24 PUSH1 0x0 REVERT JUMPDEST PUSH2 0xA63 DUP3 PUSH2 0xA1A JUMP JUMPDEST DUP2 ADD DUP2 DUP2 LT PUSH8 0xFFFFFFFFFFFFFFFF DUP3 GT OR ISZERO PUSH2 0xA82 JUMPI PUSH2 0xA81 PUSH2 0xA2B JUMP JUMPDEST JUMPDEST DUP1 PUSH1 0x40 MSTORE POP POP POP JUMP JUMPDEST PUSH1 0x0 PUSH2 0xA95 PUSH2 0x9C6 JUMP JUMPDEST SWAP1 POP PUSH2 0xAA1 DUP3 DUP3 PUSH2 0xA5A JUMP JUMPDEST SWAP2 SWAP1 POP JUMP JUMPDEST PUSH1 0x0 PUSH8 0xFFFFFFFFFFFFFFFF DUP3 GT ISZERO PUSH2 0xAC1 JUMPI PUSH2 0xAC0 PUSH2 0xA2B JUMP JUMPDEST JUMPDEST PUSH2 0xACA DUP3 PUSH2 0xA1A JUMP JUMPDEST SWAP1 POP PUSH1 0x20 DUP2 ADD SWAP1 POP SWAP2 SWAP1 POP JUMP JUMPDEST DUP3 DUP2 DUP4 CALLDATACOPY PUSH1 0x0 DUP4 DUP4 ADD MSTORE POP POP POP JUMP JUMPDEST PUSH1 0x0 PUSH2 0xAF9 PUSH2 0xAF4 DUP5 PUSH2 0xAA6 JUMP JUMPDEST PUSH2 0xA8B JUMP JUMPDEST SWAP1 POP DUP3 DUP2 MSTORE PUSH1 0x20 DUP2 ADD DUP5 DUP5 DUP5 ADD GT ISZERO PUSH2 0xB15 JUMPI PUSH2 0xB14 PUSH2 0xA15 JUMP JUMPDEST JUMPDEST PUSH2 0xB20 DUP5 DUP3 DUP6 PUSH2 0xAD7 JUMP JUMPDEST POP SWAP4 SWAP3 POP POP POP JUMP JUMPDEST PUSH1 0x0 DUP3 PUSH1 0x1F DUP4 ADD SLT PUSH2 0xB3D JUMPI PUSH2 0xB3C PUSH2 0xA10 JUMP JUMPDEST JUMPDEST DUP2 CALLDATALOAD PUSH2 0xB4D DUP5 DUP3 PUSH1 0x20 DUP7 ADD PUSH2 0xAE6 JUMP JUMPDEST SWAP2 POP POP SWAP3 SWAP2 POP POP JUMP JUMPDEST PUSH1 0x4 DUP2 LT PUSH2 0xB63 JUMPI PUSH1 0x0 DUP1 REVERT JUMPDEST POP JUMP JUMPDEST PUSH1 0x0 DUP2 CALLDATALOAD SWAP1 POP PUSH2 0xB75 DUP2 PUSH2 0xB56 JUMP JUMPDEST SWAP3 SWAP2 POP POP JUMP JUMPDEST PUSH1 0x4 DUP2 LT PUSH2 0xB88 JUMPI PUSH1 0x0 DUP1 REVERT JUMPDEST POP JUMP JUMPDEST PUSH1 0x0 DUP2 CALLDATALOAD SWAP1 POP PUSH2 0xB9A DUP2 PUSH2 0xB7B JUMP JUMPDEST SWAP3 SWAP2 POP POP JUMP JUMPDEST PUSH1 0x0 DUP1 PUSH1 0x0 DUP1 PUSH1 0x0 DUP1 PUSH1 0x0 PUSH1 0xE0 DUP9 DUP11 SUB SLT ISZERO PUSH2 0xBBF JUMPI PUSH2 0xBBE PUSH2 0x9D0 JUMP JUMPDEST JUMPDEST PUSH1 0x0 PUSH2 0xBCD DUP11 DUP3 DUP12 ADD PUSH2 0x9FB JUMP JUMPDEST SWAP8 POP POP PUSH1 0x20 DUP9 ADD CALLDATALOAD PUSH8 0xFFFFFFFFFFFFFFFF DUP2 GT ISZERO PUSH2 0xBEE JUMPI PUSH2 0xBED PUSH2 0x9D5 JUMP JUMPDEST JUMPDEST PUSH2 0xBFA DUP11 DUP3 DUP12 ADD PUSH2 0xB28 JUMP JUMPDEST SWAP7 POP POP PUSH1 0x40 PUSH2 0xC0B DUP11 DUP3 DUP12 ADD PUSH2 0x9FB JUMP JUMPDEST SWAP6 POP POP PUSH1 0x60 PUSH2 0xC1C DUP11 DUP3 DUP12 ADD PUSH2 0x9FB JUMP JUMPDEST SWAP5 POP POP PUSH1 0x80 PUSH2 0xC2D DUP11 DUP3 DUP12 ADD PUSH2 0xB66 JUMP JUMPDEST SWAP4 POP POP PUSH1 0xA0 PUSH2 0xC3E DUP11 DUP3 DUP12 ADD PUSH2 0xB8B JUMP JUMPDEST SWAP3 POP POP PUSH1 0xC0 PUSH2 0xC4F DUP11 DUP3 DUP12 ADD PUSH2 0x9FB JUMP JUMPDEST SWAP2 POP POP SWAP3 SWAP6 SWAP9 SWAP2 SWAP5 SWAP8 POP SWAP3 SWAP6 POP JUMP JUMPDEST PUSH1 0x0 PUSH1 0x3 SWAP1 POP SWAP2 SWAP1 POP JUMP JUMPDEST PUSH1 0x0 DUP2 SWAP1 POP SWAP3 SWAP2 POP POP JUMP JUMPDEST PUSH1 0x0 DUP2 SWAP1 POP SWAP2 SWAP1 POP JUMP JUMPDEST PUSH2 0xC87 DUP2 PUSH2 0x9DA JUMP JUMPDEST DUP3 MSTORE POP POP JUMP JUMPDEST PUSH1 0x0 PUSH2 0xC99 DUP4 DUP4 PUSH2 0xC7E JUMP JUMPDEST PUSH1 0x20 DUP4 ADD SWAP1 POP SWAP3 SWAP2 POP POP JUMP JUMPDEST PUSH1 0x0 PUSH1 0x20 DUP3 ADD SWAP1 POP SWAP2 SWAP1 POP JUMP JUMPDEST PUSH2 0xCBB DUP2 PUSH2 0xC5E JUMP JUMPDEST PUSH2 0xCC5 DUP2 DUP5 PUSH2 0xC69 JUMP JUMPDEST SWAP3 POP PUSH2 0xCD0 DUP3 PUSH2 0xC74 JUMP JUMPDEST DUP1 PUSH1 0x0 JUMPDEST DUP4 DUP2 LT ISZERO PUSH2 0xD01 JUMPI DUP2 MLOAD PUSH2 0xCE8 DUP8 DUP3 PUSH2 0xC8D JUMP JUMPDEST SWAP7 POP PUSH2 0xCF3 DUP4 PUSH2 0xCA5 JUMP JUMPDEST SWAP3 POP POP PUSH1 0x1 DUP2 ADD SWAP1 POP PUSH2 0xCD4 JUMP JUMPDEST POP POP POP POP POP POP JUMP JUMPDEST PUSH1 0x0 PUSH1 0x60 DUP3 ADD SWAP1 POP PUSH2 0xD1E PUSH1 0x0 DUP4 ADD DUP5 PUSH2 0xCB2 JUMP JUMPDEST SWAP3 SWAP2 POP POP JUMP JUMPDEST PUSH1 0x0 DUP1 PUSH1 0x0 DUP1 PUSH1 0x80 DUP6 DUP8 SUB SLT ISZERO PUSH2 0xD3E JUMPI PUSH2 0xD3D PUSH2 0x9D0 JUMP JUMPDEST JUMPDEST PUSH1 0x0 DUP6 ADD CALLDATALOAD PUSH8 0xFFFFFFFFFFFFFFFF DUP2 GT ISZERO PUSH2 0xD5C JUMPI PUSH2 0xD5B PUSH2 0x9D5 JUMP JUMPDEST JUMPDEST PUSH2 0xD68 DUP8 DUP3 DUP9 ADD PUSH2 0xB28 JUMP JUMPDEST SWAP5 POP POP PUSH1 0x20 PUSH2 0xD79 DUP8 DUP3 DUP9 ADD PUSH2 0x9FB JUMP JUMPDEST SWAP4 POP POP PUSH1 0x40 PUSH2 0xD8A DUP8 DUP3 DUP9 ADD PUSH2 0x9FB JUMP JUMPDEST SWAP3 POP POP PUSH1 0x60 PUSH2 0xD9B DUP8 DUP3 DUP9 ADD PUSH2 0xB66 JUMP JUMPDEST SWAP2 POP POP SWAP3 SWAP6 SWAP2 SWAP5 POP SWAP3 POP JUMP JUMPDEST PUSH2 0xDB0 DUP2 PUSH2 0x9DA JUMP JUMPDEST DUP3 MSTORE POP POP JUMP JUMPDEST PUSH1 0x0 PUSH1 0x20 DUP3 ADD SWAP1 POP PUSH2 0xDCB PUSH1 0x0 DUP4 ADD DUP5 PUSH2 0xDA7 JUMP JUMPDEST SWAP3 SWAP2 POP POP JUMP JUMPDEST PUSH1 0x0 PUSH1 0x20 DUP3 DUP5 SUB SLT ISZERO PUSH2 0xDE7 JUMPI PUSH2 0xDE6 PUSH2 0x9D0 JUMP JUMPDEST JUMPDEST PUSH1 0x0 PUSH2 0xDF5 DUP5 DUP3 DUP6 ADD PUSH2 0x9FB JUMP JUMPDEST SWAP2 POP POP SWAP3 SWAP2 POP POP JUMP JUMPDEST PUSH1 0x0 DUP2 MLOAD SWAP1 POP SWAP2 SWAP1 POP JUMP JUMPDEST PUSH1 0x0 DUP3 DUP3 MSTORE PUSH1 0x20 DUP3 ADD SWAP1 POP SWAP3 SWAP2 POP POP JUMP JUMPDEST PUSH1 0x0 JUMPDEST DUP4 DUP2 LT ISZERO PUSH2 0xE38 JUMPI DUP1 DUP3 ADD MLOAD DUP2 DUP5 ADD MSTORE PUSH1 0x20 DUP2 ADD SWAP1 POP PUSH2 0xE1D JUMP JUMPDEST PUSH1 0x0 DUP5 DUP5 ADD MSTORE POP POP POP POP JUMP JUMPDEST PUSH1 0x0 PUSH2 0xE4F DUP3 PUSH2 0xDFE JUMP JUMPDEST PUSH2 0xE59 DUP2 DUP6 PUSH2 0xE09 JUMP JUMPDEST SWAP4 POP PUSH2 0xE69 DUP2 DUP6 PUSH1 0x20 DUP7 ADD PUSH2 0xE1A JUMP JUMPDEST PUSH2 0xE72 DUP2 PUSH2 0xA1A JUMP JUMPDEST DUP5 ADD SWAP2 POP POP SWAP3 SWAP2 POP POP JUMP JUMPDEST PUSH32 0x4E487B7100000000000000000000000000000000000000000000000000000000 PUSH1 0x0 MSTORE PUSH1 0x21 PUSH1 0x4 MSTORE PUSH1 0x24 PUSH1 0x0 REVERT JUMPDEST PUSH1 0x4 DUP2 LT PUSH2 0xEBD JUMPI PUSH2 0xEBC PUSH2 0xE7D JUMP JUMPDEST JUMPDEST POP JUMP JUMPDEST PUSH1 0x0 DUP2 SWAP1 POP PUSH2 0xECE DUP3 PUSH2 0xEAC JUMP JUMPDEST SWAP2 SWAP1 POP JUMP JUMPDEST PUSH1 0x0 PUSH2 0xEDE DUP3 PUSH2 0xEC0 JUMP JUMPDEST SWAP1 POP SWAP2 SWAP1 POP JUMP JUMPDEST PUSH2 0xEEE DUP2 PUSH2 0xED3 JUMP JUMPDEST DUP3 MSTORE POP POP JUMP JUMPDEST PUSH1 0x4 DUP2 LT PUSH2 0xF05 JUMPI PUSH2 0xF04 PUSH2 0xE7D JUMP JUMPDEST JUMPDEST POP JUMP JUMPDEST PUSH1 0x0 DUP2 SWAP1 POP PUSH2 0xF16 DUP3 PUSH2 0xEF4 JUMP JUMPDEST SWAP2 SWAP1 POP JUMP JUMPDEST PUSH1 0x0 PUSH2 0xF26 DUP3 PUSH2 0xF08 JUMP JUMPDEST SWAP1 POP SWAP2 SWAP1 POP JUMP JUMPDEST PUSH2 0xF36 DUP2 PUSH2 0xF1B JUMP JUMPDEST DUP3 MSTORE POP POP JUMP JUMPDEST PUSH1 0x0 PUSH1 0xC0 DUP3 ADD SWAP1 POP DUP2 DUP2 SUB PUSH1 0x0 DUP4 ADD MSTORE PUSH2 0xF56 DUP2 DUP10 PUSH2 0xE44 JUMP JUMPDEST SWAP1 POP PUSH2 0xF65 PUSH1 0x20 DUP4 ADD DUP9 PUSH2 0xDA7 JUMP JUMPDEST PUSH2 0xF72 PUSH1 0x40 DUP4 ADD DUP8 PUSH2 0xDA7 JUMP JUMPDEST PUSH2 0xF7F PUSH1 0x60 DUP4 ADD DUP7 PUSH2 0xEE5 JUMP JUMPDEST PUSH2 0xF8C PUSH1 0x80 DUP4 ADD DUP6 PUSH2 0xF2D JUMP JUMPDEST PUSH2 0xF99 PUSH1 0xA0 DUP4 ADD DUP5 PUSH2 0xDA7 JUMP JUMPDEST SWAP8 SWAP7 POP POP POP POP POP POP POP JUMP JUMPDEST PUSH1 0x0 PUSH1 0x80 DUP3 ADD SWAP1 POP PUSH2 0xFB9 PUSH1 0x0 DUP4 ADD DUP8 PUSH2 0xDA7 JUMP JUMPDEST PUSH2 0xFC6 PUSH1 0x20 DUP4 ADD DUP7 PUSH2 0xDA7 JUMP JUMPDEST PUSH2 0xFD3 PUSH1 0x40 DUP4 ADD DUP6 PUSH2 0xDA7 JUMP JUMPDEST PUSH2 0xFE0 PUSH1 0x60 DUP4 ADD DUP5 PUSH2 0xDA7 JUMP JUMPDEST SWAP6 SWAP5 POP POP POP POP POP JUMP JUMPDEST PUSH32 0x4E487B7100000000000000000000000000000000000000000000000000000000 PUSH1 0x0 MSTORE PUSH1 0x22 PUSH1 0x4 MSTORE PUSH1 0x24 PUSH1 0x0 REVERT JUMPDEST PUSH1 0x0 PUSH1 0x2 DUP3 DIV SWAP1 POP PUSH1 0x1 DUP3 AND DUP1 PUSH2 0x1030 JUMPI PUSH1 0x7F DUP3 AND SWAP2 POP JUMPDEST PUSH1 0x20 DUP3 LT DUP2 SUB PUSH2 0x1043 JUMPI PUSH2 0x1042 PUSH2 0xFE9 JUMP JUMPDEST JUMPDEST POP SWAP2 SWAP1 POP JUMP JUMPDEST PUSH1 0x0 DUP2 SWAP1 POP DUP2 PUSH1 0x0 MSTORE PUSH1 0x20 PUSH1 0x0 KECCAK256 SWAP1 POP SWAP2 SWAP1 POP JUMP JUMPDEST PUSH1 0x0 PUSH1 0x20 PUSH1 0x1F DUP4 ADD DIV SWAP1 POP SWAP2 SWAP1 POP JUMP JUMPDEST PUSH1 0x0 DUP3 DUP3 SHL SWAP1 POP SWAP3 SWAP2 POP POP JUMP JUMPDEST PUSH1 0x0 PUSH1 0x8 DUP4 MUL PUSH2 0x10AB PUSH32 0xFFFFFFFFFFFFFFFFFFFFFFFFFFFFFFFFFFFFFFFFFFFFFFFFFFFFFFFFFFFFFFFF DUP3 PUSH2 0x106E JUMP JUMPDEST PUSH2 0x10B5 DUP7 DUP4 PUSH2 0x106E JUMP JUMPDEST SWAP6 POP DUP1 NOT DUP5 AND SWAP4 POP DUP1 DUP7 AND DUP5 OR SWAP3 POP POP POP SWAP4 SWAP3 POP POP POP JUMP JUMPDEST PUSH1 0x0 DUP2 SWAP1 POP SWAP2 SWAP1 POP JUMP JUMPDEST PUSH1 0x0 PUSH2 0x10F2 PUSH2 0x10ED PUSH2 0x10E8 DUP5 PUSH2 0x9DA JUMP JUMPDEST PUSH2 0x10CD JUMP JUMPDEST PUSH2 0x9DA JUMP JUMPDEST SWAP1 POP SWAP2 SWAP1 POP JUMP JUMPDEST PUSH1 0x0 DUP2 SWAP1 POP SWAP2 SWAP1 POP JUMP JUMPDEST PUSH2 0x110C DUP4 PUSH2 0x10D7 JUMP JUMPDEST PUSH2 0x1120 PUSH2 0x1118 DUP3 PUSH2 0x10F9 JUMP JUMPDEST DUP5 DUP5 SLOAD PUSH2 0x107B JUMP JUMPDEST DUP3 SSTORE POP POP POP POP JUMP JUMPDEST PUSH1 0x0 SWAP1 JUMP JUMPDEST PUSH2 0x1135 PUSH2 0x1128 JUMP JUMPDEST PUSH2 0x1140 DUP2 DUP5 DUP5 PUSH2 0x1103 JUMP JUMPDEST POP POP POP JUMP JUMPDEST JUMPDEST DUP2 DUP2 LT ISZERO PUSH2 0x1164 JUMPI PUSH2 0x1159 PUSH1 0x0 DUP3 PUSH2 0x112D JUMP JUMPDEST PUSH1 0x1 DUP2 ADD SWAP1 POP PUSH2 0x1146 JUMP JUMPDEST POP POP JUMP JUMPDEST PUSH1 0x1F DUP3 GT ISZERO PUSH2 0x11A9 JUMPI PUSH2 0x117A DUP2 PUSH2 0x1049 JUMP JUMPDEST PUSH2 0x1183 DUP5 PUSH2 0x105E JUMP JUMPDEST DUP2 ADD PUSH1 0x20 DUP6 LT ISZERO PUSH2 0x1192 JUMPI DUP2 SWAP1 POP JUMPDEST PUSH2 0x11A6 PUSH2 0x119E DUP6 PUSH2 0x105E JUMP JUMPDEST DUP4 ADD DUP3 PUSH2 0x1145 JUMP JUMPDEST POP POP JUMPDEST POP POP POP JUMP JUMPDEST PUSH1 0x0 DUP3 DUP3 SHR SWAP1 POP SWAP3 SWAP2 POP POP JUMP JUMPDEST PUSH1 0x0 PUSH2 0x11CC PUSH1 0x0 NOT DUP5 PUSH1 0x8 MUL PUSH2 0x11AE JUMP JUMPDEST NOT DUP1 DUP4 AND SWAP2 POP POP SWAP3 SWAP2 POP POP JUMP JUMPDEST PUSH1 0x0 PUSH2 0x11E5 DUP4 DUP4 PUSH2 0x11BB JUMP JUMPDEST SWAP2 POP DUP3 PUSH1 0x2 MUL DUP3 OR SWAP1 POP SWAP3 SWAP2 POP POP JUMP JUMPDEST PUSH2 0x11FE DUP3 PUSH2 0xDFE JUMP JUMPDEST PUSH8 0xFFFFFFFFFFFFFFFF DUP2 GT ISZERO PUSH2 0x1217 JUMPI PUSH2 0x1216 PUSH2 0xA2B JUMP JUMPDEST JUMPDEST PUSH2 0x1221 DUP3 SLOAD PUSH2 0x1018 JUMP JUMPDEST PUSH2 0x122C DUP3 DUP3 DUP6 PUSH2 0x1168 JUMP JUMPDEST PUSH1 0x0 PUSH1 0x20 SWAP1 POP PUSH1 0x1F DUP4 GT PUSH1 0x1 DUP2 EQ PUSH2 0x125F JUMPI PUSH1 0x0 DUP5 ISZERO PUSH2 0x124D JUMPI DUP3 DUP8 ADD MLOAD SWAP1 POP JUMPDEST PUSH2 0x1257 DUP6 DUP3 PUSH2 0x11D9 JUMP JUMPDEST DUP7 SSTORE POP PUSH2 0x12BF JUMP JUMPDEST PUSH1 0x1F NOT DUP5 AND PUSH2 0x126D DUP7 PUSH2 0x1049 JUMP JUMPDEST PUSH1 0x0 JUMPDEST DUP3 DUP2 LT ISZERO PUSH2 0x1295 JUMPI DUP5 DUP10 ADD MLOAD DUP3 SSTORE PUSH1 0x1 DUP3 ADD SWAP2 POP PUSH1 0x20 DUP6 ADD SWAP5 POP PUSH1 0x20 DUP2 ADD SWAP1 POP PUSH2 0x1270 JUMP JUMPDEST DUP7 DUP4 LT ISZERO PUSH2 0x12B2 JUMPI DUP5 DUP10 ADD MLOAD PUSH2 0x12AE PUSH1 0x1F DUP10 AND DUP3 PUSH2 0x11BB JUMP JUMPDEST DUP4 SSTORE POP JUMPDEST PUSH1 0x1 PUSH1 0x2 DUP9 MUL ADD DUP9 SSTORE POP POP POP JUMPDEST POP POP POP POP POP POP JUMP JUMPDEST PUSH32 0x4E487B7100000000000000000000000000000000000000000000000000000000 PUSH1 0x0 MSTORE PUSH1 0x11 PUSH1 0x4 MSTORE PUSH1 0x24 PUSH1 0x0 REVERT JUMPDEST PUSH1 0x0 PUSH2 0x1301 DUP3 PUSH2 0x9DA JUMP JUMPDEST SWAP2 POP PUSH2 0x130C DUP4 PUSH2 0x9DA JUMP JUMPDEST SWAP3 POP DUP3 DUP3 SUB SWAP1 POP DUP2 DUP2 GT ISZERO PUSH2 0x1324 JUMPI PUSH2 0x1323 PUSH2 0x12C7 JUMP JUMPDEST JUMPDEST SWAP3 SWAP2 POP POP JUMP JUMPDEST PUSH1 0x0 PUSH2 0x1335 DUP3 PUSH2 0x9DA JUMP JUMPDEST SWAP2 POP PUSH2 0x1340 DUP4 PUSH2 0x9DA JUMP JUMPDEST SWAP3 POP DUP3 DUP3 ADD SWAP1 POP DUP1 DUP3 GT ISZERO PUSH2 0x1358 JUMPI PUSH2 0x1357 PUSH2 0x12C7 JUMP JUMPDEST JUMPDEST SWAP3 SWAP2 POP POP JUMP JUMPDEST PUSH32 0x4E487B7100000000000000000000000000000000000000000000000000000000 PUSH1 0x0 MSTORE PUSH1 0x32 PUSH1 0x4 MSTORE PUSH1 0x24 PUSH1 0x0 REVERT JUMPDEST PUSH1 0x0 PUSH2 0x1398 DUP3 PUSH2 0x9DA JUMP JUMPDEST SWAP2 POP PUSH32 0xFFFFFFFFFFFFFFFFFFFFFFFFFFFFFFFFFFFFFFFFFFFFFFFFFFFFFFFFFFFFFFFF DUP3 SUB PUSH2 0x13CA JUMPI PUSH2 0x13C9 PUSH2 0x12C7 JUMP JUMPDEST JUMPDEST PUSH1 0x1 DUP3 ADD SWAP1 POP SWAP2 SWAP1 POP JUMP INVALID LOG2 PUSH5 0x6970667358 0x22 SLT KECCAK256 0xC4 CALLDATASIZE RETURNDATASIZE PUSH28 0xB9CE13269F51879CB51D36AE56E4BF2AF4CC4DD81D0552EC1E54DB03 PUSH5 0x736F6C6343 STOP ADDMOD SLT STOP CALLER "
				},
				"gasEstimates": {
					"creation": {
						"codeDepositCost": "1026200",
						"executionCost": "1067",
						"totalCost": "1027267"
					},
					"external": {
						"countOfStudents()": "infinite",
						"register(string,uint256,uint256,uint8)": "infinite",
						"retrieve(uint256)": "infinite",
						"studentLength()": "2495",
						"top3Achivers()": "infinite",
						"topGetter()": "infinite",
						"update(uint256,string,uint256,uint256,uint8,uint8,uint256)": "infinite"
					}
				},
				"methodIdentifiers": {
					"countOfStudents()": "b9adfc3e",
					"register(string,uint256,uint256,uint8)": "835c21b6",
					"retrieve(uint256)": "8f88708b",
					"studentLength()": "d6e9f06f",
					"top3Achivers()": "56322050",
					"topGetter()": "739a87e9",
					"update(uint256,string,uint256,uint256,uint8,uint8,uint256)": "48e3eeda"
				}
			},
			"storageLayout": {
				"storage": [
					{
						"astId": 31,
						"contract": "LABS 8 Aug/Task 1 lab8.sol:StudentRegSystem",
						"label": "TotalStudents",
						"offset": 0,
						"slot": "0",
						"type": "t_mapping(t_uint256,t_struct(Student)26_storage)"
					},
					{
						"astId": 33,
						"contract": "LABS 8 Aug/Task 1 lab8.sol:StudentRegSystem",
						"label": "studentLength",
						"offset": 0,
						"slot": "1",
						"type": "t_uint256"
					},
					{
						"astId": 37,
						"contract": "LABS 8 Aug/Task 1 lab8.sol:StudentRegSystem",
						"label": "top3",
						"offset": 0,
						"slot": "2",
						"type": "t_array(t_uint256)3_storage"
					}
				],
				"types": {
					"t_array(t_uint256)3_storage": {
						"base": "t_uint256",
						"encoding": "inplace",
						"label": "uint256[3]",
						"numberOfBytes": "96"
					},
					"t_enum(Department)6": {
						"encoding": "inplace",
						"label": "enum StudentRegSystem.Department",
						"numberOfBytes": "1"
					},
					"t_enum(Status)11": {
						"encoding": "inplace",
						"label": "enum StudentRegSystem.Status",
						"numberOfBytes": "1"
					},
					"t_mapping(t_uint256,t_struct(Student)26_storage)": {
						"encoding": "mapping",
						"key": "t_uint256",
						"label": "mapping(uint256 => struct StudentRegSystem.Student)",
						"numberOfBytes": "32",
						"value": "t_struct(Student)26_storage"
					},
					"t_string_storage": {
						"encoding": "bytes",
						"label": "string",
						"numberOfBytes": "32"
					},
					"t_struct(Student)26_storage": {
						"encoding": "inplace",
						"label": "struct StudentRegSystem.Student",
						"members": [
							{
								"astId": 13,
								"contract": "LABS 8 Aug/Task 1 lab8.sol:StudentRegSystem",
								"label": "name",
								"offset": 0,
								"slot": "0",
								"type": "t_string_storage"
							},
							{
								"astId": 15,
								"contract": "LABS 8 Aug/Task 1 lab8.sol:StudentRegSystem",
								"label": "age",
								"offset": 0,
								"slot": "1",
								"type": "t_uint256"
							},
							{
								"astId": 17,
								"contract": "LABS 8 Aug/Task 1 lab8.sol:StudentRegSystem",
								"label": "date",
								"offset": 0,
								"slot": "2",
								"type": "t_uint256"
							},
							{
								"astId": 20,
								"contract": "LABS 8 Aug/Task 1 lab8.sol:StudentRegSystem",
								"label": "departnment",
								"offset": 0,
								"slot": "3",
								"type": "t_enum(Department)6"
							},
							{
								"astId": 23,
								"contract": "LABS 8 Aug/Task 1 lab8.sol:StudentRegSystem",
								"label": "status",
								"offset": 1,
								"slot": "3",
								"type": "t_enum(Status)11"
							},
							{
								"astId": 25,
								"contract": "LABS 8 Aug/Task 1 lab8.sol:StudentRegSystem",
								"label": "obtAInedMarks",
								"offset": 0,
								"slot": "4",
								"type": "t_uint256"
							}
						],
						"numberOfBytes": "160"
					},
					"t_uint256": {
						"encoding": "inplace",
						"label": "uint256",
						"numberOfBytes": "32"
					}
				}
			},
			"userdoc": {
				"kind": "user",
				"methods": {},
				"version": 1
			}
		}
	}
}