{
	"LABS 8 Aug/Task 1 lab8.sol": {
		"StudentRegistrationSystem": {
			"abi": [
				{
					"inputs": [],
					"name": "StudentCount",
					"outputs": [
						{
							"internalType": "uint256",
							"name": "",
							"type": "uint256"
						}
					],
					"stateMutability": "view",
					"type": "function"
				},
				{
					"inputs": [],
					"name": "Top3BlockchainAchievers",
					"outputs": [
						{
							"components": [
								{
									"internalType": "string",
									"name": "name",
									"type": "string"
								},
								{
									"internalType": "uint256",
									"name": "age",
									"type": "uint256"
								},
								{
									"internalType": "uint256",
									"name": "date",
									"type": "uint256"
								},
								{
									"internalType": "enum StudentRegistrationSystem.Department",
									"name": "department",
									"type": "uint8"
								},
								{
									"internalType": "enum StudentRegistrationSystem.Status",
									"name": "status",
									"type": "uint8"
								},
								{
									"internalType": "uint256",
									"name": "ObtainedMarks",
									"type": "uint256"
								}
							],
							"internalType": "struct StudentRegistrationSystem.Student",
							"name": "S1",
							"type": "tuple"
						},
						{
							"components": [
								{
									"internalType": "string",
									"name": "name",
									"type": "string"
								},
								{
									"internalType": "uint256",
									"name": "age",
									"type": "uint256"
								},
								{
									"internalType": "uint256",
									"name": "date",
									"type": "uint256"
								},
								{
									"internalType": "enum StudentRegistrationSystem.Department",
									"name": "department",
									"type": "uint8"
								},
								{
									"internalType": "enum StudentRegistrationSystem.Status",
									"name": "status",
									"type": "uint8"
								},
								{
									"internalType": "uint256",
									"name": "ObtainedMarks",
									"type": "uint256"
								}
							],
							"internalType": "struct StudentRegistrationSystem.Student",
							"name": "S2",
							"type": "tuple"
						},
						{
							"components": [
								{
									"internalType": "string",
									"name": "name",
									"type": "string"
								},
								{
									"internalType": "uint256",
									"name": "age",
									"type": "uint256"
								},
								{
									"internalType": "uint256",
									"name": "date",
									"type": "uint256"
								},
								{
									"internalType": "enum StudentRegistrationSystem.Department",
									"name": "department",
									"type": "uint8"
								},
								{
									"internalType": "enum StudentRegistrationSystem.Status",
									"name": "status",
									"type": "uint8"
								},
								{
									"internalType": "uint256",
									"name": "ObtainedMarks",
									"type": "uint256"
								}
							],
							"internalType": "struct StudentRegistrationSystem.Student",
							"name": "S3",
							"type": "tuple"
						}
					],
					"stateMutability": "view",
					"type": "function"
				},
				{
					"inputs": [
						{
							"internalType": "enum StudentRegistrationSystem.Department",
							"name": "department",
							"type": "uint8"
						}
					],
					"name": "getCount",
					"outputs": [
						{
							"internalType": "uint256",
							"name": "",
							"type": "uint256"
						}
					],
					"stateMutability": "view",
					"type": "function"
				},
				{
					"inputs": [
						{
							"internalType": "string",
							"name": "name",
							"type": "string"
						},
						{
							"internalType": "uint256",
							"name": "age",
							"type": "uint256"
						},
						{
							"internalType": "uint256",
							"name": "date",
							"type": "uint256"
						},
						{
							"internalType": "enum StudentRegistrationSystem.Department",
							"name": "department",
							"type": "uint8"
						},
						{
							"internalType": "uint256",
							"name": "ObtainedMarks",
							"type": "uint256"
						},
						{
							"internalType": "enum StudentRegistrationSystem.Status",
							"name": "status",
							"type": "uint8"
						}
					],
					"name": "register",
					"outputs": [
						{
							"internalType": "uint256",
							"name": "",
							"type": "uint256"
						}
					],
					"stateMutability": "nonpayable",
					"type": "function"
				},
				{
					"inputs": [
						{
							"internalType": "uint256",
							"name": "rollno",
							"type": "uint256"
						}
					],
					"name": "retrieve",
					"outputs": [
						{
							"internalType": "string",
							"name": "name",
							"type": "string"
						},
						{
							"internalType": "uint256",
							"name": "age",
							"type": "uint256"
						},
						{
							"internalType": "uint256",
							"name": "date",
							"type": "uint256"
						},
						{
							"internalType": "enum StudentRegistrationSystem.Department",
							"name": "department",
							"type": "uint8"
						},
						{
							"internalType": "enum StudentRegistrationSystem.Status",
							"name": "status",
							"type": "uint8"
						},
						{
							"internalType": "uint256",
							"name": "ObtainedMarks",
							"type": "uint256"
						}
					],
					"stateMutability": "view",
					"type": "function"
				},
				{
					"inputs": [
						{
							"internalType": "uint256",
							"name": "rollno",
							"type": "uint256"
						},
						{
							"internalType": "string",
							"name": "name",
							"type": "string"
						},
						{
							"internalType": "uint256",
							"name": "age",
							"type": "uint256"
						},
						{
							"internalType": "uint256",
							"name": "date",
							"type": "uint256"
						},
						{
							"internalType": "enum StudentRegistrationSystem.Department",
							"name": "department",
							"type": "uint8"
						},
						{
							"internalType": "enum StudentRegistrationSystem.Status",
							"name": "status",
							"type": "uint8"
						},
						{
							"internalType": "uint256",
							"name": "_ObtainedMarks",
							"type": "uint256"
						}
					],
					"name": "update",
					"outputs": [],
					"stateMutability": "nonpayable",
					"type": "function"
				}
			],
			"devdoc": {
				"kind": "dev",
				"methods": {},
				"version": 1
			},
			"evm": {
				"assembly": "    /* \"LABS 8 Aug/Task 1 lab8.sol\":58:3569  contract StudentRegistrationSystem {... */\n  mstore(0x40, 0x80)\n  callvalue\n  dup1\n  iszero\n  tag_1\n  jumpi\n  0x00\n  dup1\n  revert\ntag_1:\n  pop\n  dataSize(sub_0)\n  dup1\n  dataOffset(sub_0)\n  0x00\n  codecopy\n  0x00\n  return\nstop\n\nsub_0: assembly {\n        /* \"LABS 8 Aug/Task 1 lab8.sol\":58:3569  contract StudentRegistrationSystem {... */\n      mstore(0x40, 0x80)\n      callvalue\n      dup1\n      iszero\n      tag_1\n      jumpi\n      0x00\n      dup1\n      revert\n    tag_1:\n      pop\n      jumpi(tag_2, lt(calldatasize, 0x04))\n      shr(0xe0, calldataload(0x00))\n      dup1\n      0x234ffa5d\n      eq\n      tag_3\n      jumpi\n      dup1\n      0x48e3eeda\n      eq\n      tag_4\n      jumpi\n      dup1\n      0x4973ccfb\n      eq\n      tag_5\n      jumpi\n      dup1\n      0x8f88708b\n      eq\n      tag_6\n      jumpi\n      dup1\n      0xa819dfbb\n      eq\n      tag_7\n      jumpi\n      dup1\n      0xfb9ad0fd\n      eq\n      tag_8\n      jumpi\n    tag_2:\n      0x00\n      dup1\n      revert\n        /* \"LABS 8 Aug/Task 1 lab8.sol\":640:1114  function register(... */\n    tag_3:\n      tag_9\n      0x04\n      dup1\n      calldatasize\n      sub\n      dup2\n      add\n      swap1\n      tag_10\n      swap2\n      swap1\n      tag_11\n      jump\t// in\n    tag_10:\n      tag_12\n      jump\t// in\n    tag_9:\n      mload(0x40)\n      tag_13\n      swap2\n      swap1\n      tag_14\n      jump\t// in\n    tag_13:\n      mload(0x40)\n      dup1\n      swap2\n      sub\n      swap1\n      return\n        /* \"LABS 8 Aug/Task 1 lab8.sol\":1134:1621  function update(... */\n    tag_4:\n      tag_15\n      0x04\n      dup1\n      calldatasize\n      sub\n      dup2\n      add\n      swap1\n      tag_16\n      swap2\n      swap1\n      tag_17\n      jump\t// in\n    tag_16:\n      tag_18\n      jump\t// in\n    tag_15:\n      stop\n        /* \"LABS 8 Aug/Task 1 lab8.sol\":571:598  uint256 public StudentCount */\n    tag_5:\n      tag_19\n      tag_20\n      jump\t// in\n    tag_19:\n      mload(0x40)\n      tag_21\n      swap2\n      swap1\n      tag_14\n      jump\t// in\n    tag_21:\n      mload(0x40)\n      dup1\n      swap2\n      sub\n      swap1\n      return\n        /* \"LABS 8 Aug/Task 1 lab8.sol\":1641:2282  function retrieve(uint256 rollno)... */\n    tag_6:\n      tag_22\n      0x04\n      dup1\n      calldatasize\n      sub\n      dup2\n      add\n      swap1\n      tag_23\n      swap2\n      swap1\n      tag_24\n      jump\t// in\n    tag_23:\n      tag_25\n      jump\t// in\n    tag_22:\n      mload(0x40)\n      tag_26\n      swap7\n      swap6\n      swap5\n      swap4\n      swap3\n      swap2\n      swap1\n      tag_27\n      jump\t// in\n    tag_26:\n      mload(0x40)\n      dup1\n      swap2\n      sub\n      swap1\n      return\n        /* \"LABS 8 Aug/Task 1 lab8.sol\":2302:2593  function getCount(Department department) public view returns (uint256) {... */\n    tag_7:\n      tag_28\n      0x04\n      dup1\n      calldatasize\n      sub\n      dup2\n      add\n      swap1\n      tag_29\n      swap2\n      swap1\n      tag_30\n      jump\t// in\n    tag_29:\n      tag_31\n      jump\t// in\n    tag_28:\n      mload(0x40)\n      tag_32\n      swap2\n      swap1\n      tag_14\n      jump\t// in\n    tag_32:\n      mload(0x40)\n      dup1\n      swap2\n      sub\n      swap1\n      return\n        /* \"LABS 8 Aug/Task 1 lab8.sol\":2613:3566  function Top3BlockchainAchievers() public view returns (Student memory S1, Student memory S2, Student memory S3) {... */\n    tag_8:\n      tag_33\n      tag_34\n      jump\t// in\n    tag_33:\n      mload(0x40)\n      tag_35\n      swap4\n      swap3\n      swap2\n      swap1\n      tag_36\n      jump\t// in\n    tag_35:\n      mload(0x40)\n      dup1\n      swap2\n      sub\n      swap1\n      return\n        /* \"LABS 8 Aug/Task 1 lab8.sol\":640:1114  function register(... */\n    tag_12:\n        /* \"LABS 8 Aug/Task 1 lab8.sol\":836:843  uint256 */\n      0x00\n        /* \"LABS 8 Aug/Task 1 lab8.sol\":855:868  uint256 _roll */\n      dup1\n        /* \"LABS 8 Aug/Task 1 lab8.sol\":886:887  1 */\n      0x01\n        /* \"LABS 8 Aug/Task 1 lab8.sol\":871:883  StudentCount */\n      dup1\n      sload\n        /* \"LABS 8 Aug/Task 1 lab8.sol\":871:887  StudentCount + 1 */\n      tag_38\n      swap2\n      swap1\n      tag_39\n      jump\t// in\n    tag_38:\n        /* \"LABS 8 Aug/Task 1 lab8.sol\":855:887  uint256 _roll = StudentCount + 1 */\n      swap1\n      pop\n        /* \"LABS 8 Aug/Task 1 lab8.sol\":920:1061  Student(... */\n      mload(0x40)\n      dup1\n      0xc0\n      add\n      0x40\n      mstore\n      dup1\n        /* \"LABS 8 Aug/Task 1 lab8.sol\":941:945  name */\n      dup10\n        /* \"LABS 8 Aug/Task 1 lab8.sol\":920:1061  Student(... */\n      dup2\n      mstore\n      0x20\n      add\n        /* \"LABS 8 Aug/Task 1 lab8.sol\":959:962  age */\n      dup9\n        /* \"LABS 8 Aug/Task 1 lab8.sol\":920:1061  Student(... */\n      dup2\n      mstore\n      0x20\n      add\n        /* \"LABS 8 Aug/Task 1 lab8.sol\":976:980  date */\n      dup8\n        /* \"LABS 8 Aug/Task 1 lab8.sol\":920:1061  Student(... */\n      dup2\n      mstore\n      0x20\n      add\n        /* \"LABS 8 Aug/Task 1 lab8.sol\":994:1004  department */\n      dup7\n        /* \"LABS 8 Aug/Task 1 lab8.sol\":920:1061  Student(... */\n      0x03\n      dup2\n      gt\n      iszero\n      tag_40\n      jumpi\n      tag_41\n      tag_42\n      jump\t// in\n    tag_41:\n    tag_40:\n      dup2\n      mstore\n      0x20\n      add\n        /* \"LABS 8 Aug/Task 1 lab8.sol\":1018:1024  status */\n      dup5\n        /* \"LABS 8 Aug/Task 1 lab8.sol\":920:1061  Student(... */\n      0x03\n      dup2\n      gt\n      iszero\n      tag_43\n      jumpi\n      tag_44\n      tag_42\n      jump\t// in\n    tag_44:\n    tag_43:\n      dup2\n      mstore\n      0x20\n      add\n        /* \"LABS 8 Aug/Task 1 lab8.sol\":1038:1051  ObtainedMarks */\n      dup6\n        /* \"LABS 8 Aug/Task 1 lab8.sol\":920:1061  Student(... */\n      dup2\n      mstore\n      pop\n        /* \"LABS 8 Aug/Task 1 lab8.sol\":897:910  TotalStudents */\n      0x00\n        /* \"LABS 8 Aug/Task 1 lab8.sol\":897:917  TotalStudents[_roll] */\n      dup1\n        /* \"LABS 8 Aug/Task 1 lab8.sol\":911:916  _roll */\n      dup4\n        /* \"LABS 8 Aug/Task 1 lab8.sol\":897:917  TotalStudents[_roll] */\n      dup2\n      mstore\n      0x20\n      add\n      swap1\n      dup2\n      mstore\n      0x20\n      add\n      0x00\n      keccak256\n        /* \"LABS 8 Aug/Task 1 lab8.sol\":897:1061  TotalStudents[_roll] = Student(... */\n      0x00\n      dup3\n      add\n      mload\n      dup2\n      0x00\n      add\n      swap1\n      dup2\n      tag_45\n      swap2\n      swap1\n      tag_46\n      jump\t// in\n    tag_45:\n      pop\n      0x20\n      dup3\n      add\n      mload\n      dup2\n      0x01\n      add\n      sstore\n      0x40\n      dup3\n      add\n      mload\n      dup2\n      0x02\n      add\n      sstore\n      0x60\n      dup3\n      add\n      mload\n      dup2\n      0x03\n      add\n      exp(0x0100, 0x00)\n      dup2\n      sload\n      dup2\n      0xff\n      mul\n      not\n      and\n      swap1\n      dup4\n      0x03\n      dup2\n      gt\n      iszero\n      tag_47\n      jumpi\n      tag_48\n      tag_42\n      jump\t// in\n    tag_48:\n    tag_47:\n      mul\n      or\n      swap1\n      sstore\n      pop\n      0x80\n      dup3\n      add\n      mload\n      dup2\n      0x03\n      add\n      exp(0x0100, 0x01)\n      dup2\n      sload\n      dup2\n      0xff\n      mul\n      not\n      and\n      swap1\n      dup4\n      0x03\n      dup2\n      gt\n      iszero\n      tag_49\n      jumpi\n      tag_50\n      tag_42\n      jump\t// in\n    tag_50:\n    tag_49:\n      mul\n      or\n      swap1\n      sstore\n      pop\n      0xa0\n      dup3\n      add\n      mload\n      dup2\n      0x04\n      add\n      sstore\n      swap1\n      pop\n      pop\n        /* \"LABS 8 Aug/Task 1 lab8.sol\":1071:1083  StudentCount */\n      0x01\n      0x00\n        /* \"LABS 8 Aug/Task 1 lab8.sol\":1071:1085  StudentCount++ */\n      dup2\n      sload\n      dup1\n      swap3\n      swap2\n      swap1\n      tag_51\n      swap1\n      tag_52\n      jump\t// in\n    tag_51:\n      swap2\n      swap1\n      pop\n      sstore\n      pop\n        /* \"LABS 8 Aug/Task 1 lab8.sol\":1102:1107  _roll */\n      dup1\n        /* \"LABS 8 Aug/Task 1 lab8.sol\":1095:1107  return _roll */\n      swap2\n      pop\n      pop\n        /* \"LABS 8 Aug/Task 1 lab8.sol\":640:1114  function register(... */\n      swap7\n      swap6\n      pop\n      pop\n      pop\n      pop\n      pop\n      pop\n      jump\t// out\n        /* \"LABS 8 Aug/Task 1 lab8.sol\":1134:1621  function update(... */\n    tag_18:\n        /* \"LABS 8 Aug/Task 1 lab8.sol\":1367:1368  0 */\n      0x00\n        /* \"LABS 8 Aug/Task 1 lab8.sol\":1358:1364  rollno */\n      dup8\n        /* \"LABS 8 Aug/Task 1 lab8.sol\":1358:1368  rollno > 0 */\n      gt\n        /* \"LABS 8 Aug/Task 1 lab8.sol\":1358:1394  rollno > 0 && rollno <= StudentCount */\n      dup1\n      iszero\n      tag_54\n      jumpi\n      pop\n        /* \"LABS 8 Aug/Task 1 lab8.sol\":1382:1394  StudentCount */\n      sload(0x01)\n        /* \"LABS 8 Aug/Task 1 lab8.sol\":1372:1378  rollno */\n      dup8\n        /* \"LABS 8 Aug/Task 1 lab8.sol\":1372:1394  rollno <= StudentCount */\n      gt\n      iszero\n        /* \"LABS 8 Aug/Task 1 lab8.sol\":1358:1394  rollno > 0 && rollno <= StudentCount */\n    tag_54:\n        /* \"LABS 8 Aug/Task 1 lab8.sol\":1354:1615  if (rollno > 0 && rollno <= StudentCount) {... */\n      iszero\n      tag_55\n      jumpi\n        /* \"LABS 8 Aug/Task 1 lab8.sol\":1434:1604  Student(... */\n      mload(0x40)\n      dup1\n      0xc0\n      add\n      0x40\n      mstore\n      dup1\n        /* \"LABS 8 Aug/Task 1 lab8.sol\":1459:1463  name */\n      dup8\n        /* \"LABS 8 Aug/Task 1 lab8.sol\":1434:1604  Student(... */\n      dup2\n      mstore\n      0x20\n      add\n        /* \"LABS 8 Aug/Task 1 lab8.sol\":1481:1484  age */\n      dup7\n        /* \"LABS 8 Aug/Task 1 lab8.sol\":1434:1604  Student(... */\n      dup2\n      mstore\n      0x20\n      add\n        /* \"LABS 8 Aug/Task 1 lab8.sol\":1502:1506  date */\n      dup6\n        /* \"LABS 8 Aug/Task 1 lab8.sol\":1434:1604  Student(... */\n      dup2\n      mstore\n      0x20\n      add\n        /* \"LABS 8 Aug/Task 1 lab8.sol\":1524:1534  department */\n      dup5\n        /* \"LABS 8 Aug/Task 1 lab8.sol\":1434:1604  Student(... */\n      0x03\n      dup2\n      gt\n      iszero\n      tag_56\n      jumpi\n      tag_57\n      tag_42\n      jump\t// in\n    tag_57:\n    tag_56:\n      dup2\n      mstore\n      0x20\n      add\n        /* \"LABS 8 Aug/Task 1 lab8.sol\":1552:1558  status */\n      dup4\n        /* \"LABS 8 Aug/Task 1 lab8.sol\":1434:1604  Student(... */\n      0x03\n      dup2\n      gt\n      iszero\n      tag_58\n      jumpi\n      tag_59\n      tag_42\n      jump\t// in\n    tag_59:\n    tag_58:\n      dup2\n      mstore\n      0x20\n      add\n        /* \"LABS 8 Aug/Task 1 lab8.sol\":1576:1590  _ObtainedMarks */\n      dup3\n        /* \"LABS 8 Aug/Task 1 lab8.sol\":1434:1604  Student(... */\n      dup2\n      mstore\n      pop\n        /* \"LABS 8 Aug/Task 1 lab8.sol\":1410:1423  TotalStudents */\n      0x00\n        /* \"LABS 8 Aug/Task 1 lab8.sol\":1410:1431  TotalStudents[rollno] */\n      dup1\n        /* \"LABS 8 Aug/Task 1 lab8.sol\":1424:1430  rollno */\n      dup10\n        /* \"LABS 8 Aug/Task 1 lab8.sol\":1410:1431  TotalStudents[rollno] */\n      dup2\n      mstore\n      0x20\n      add\n      swap1\n      dup2\n      mstore\n      0x20\n      add\n      0x00\n      keccak256\n        /* \"LABS 8 Aug/Task 1 lab8.sol\":1410:1604  TotalStudents[rollno] = Student(... */\n      0x00\n      dup3\n      add\n      mload\n      dup2\n      0x00\n      add\n      swap1\n      dup2\n      tag_60\n      swap2\n      swap1\n      tag_46\n      jump\t// in\n    tag_60:\n      pop\n      0x20\n      dup3\n      add\n      mload\n      dup2\n      0x01\n      add\n      sstore\n      0x40\n      dup3\n      add\n      mload\n      dup2\n      0x02\n      add\n      sstore\n      0x60\n      dup3\n      add\n      mload\n      dup2\n      0x03\n      add\n      exp(0x0100, 0x00)\n      dup2\n      sload\n      dup2\n      0xff\n      mul\n      not\n      and\n      swap1\n      dup4\n      0x03\n      dup2\n      gt\n      iszero\n      tag_61\n      jumpi\n      tag_62\n      tag_42\n      jump\t// in\n    tag_62:\n    tag_61:\n      mul\n      or\n      swap1\n      sstore\n      pop\n      0x80\n      dup3\n      add\n      mload\n      dup2\n      0x03\n      add\n      exp(0x0100, 0x01)\n      dup2\n      sload\n      dup2\n      0xff\n      mul\n      not\n      and\n      swap1\n      dup4\n      0x03\n      dup2\n      gt\n      iszero\n      tag_63\n      jumpi\n      tag_64\n      tag_42\n      jump\t// in\n    tag_64:\n    tag_63:\n      mul\n      or\n      swap1\n      sstore\n      pop\n      0xa0\n      dup3\n      add\n      mload\n      dup2\n      0x04\n      add\n      sstore\n      swap1\n      pop\n      pop\n        /* \"LABS 8 Aug/Task 1 lab8.sol\":1354:1615  if (rollno > 0 && rollno <= StudentCount) {... */\n    tag_55:\n        /* \"LABS 8 Aug/Task 1 lab8.sol\":1134:1621  function update(... */\n      pop\n      pop\n      pop\n      pop\n      pop\n      pop\n      pop\n      jump\t// out\n        /* \"LABS 8 Aug/Task 1 lab8.sol\":571:598  uint256 public StudentCount */\n    tag_20:\n      sload(0x01)\n      dup2\n      jump\t// out\n        /* \"LABS 8 Aug/Task 1 lab8.sol\":1641:2282  function retrieve(uint256 rollno)... */\n    tag_25:\n        /* \"LABS 8 Aug/Task 1 lab8.sol\":1733:1751  string memory name */\n      0x60\n        /* \"LABS 8 Aug/Task 1 lab8.sol\":1765:1776  uint256 age */\n      0x00\n        /* \"LABS 8 Aug/Task 1 lab8.sol\":1790:1802  uint256 date */\n      dup1\n        /* \"LABS 8 Aug/Task 1 lab8.sol\":1816:1837  Department department */\n      0x00\n        /* \"LABS 8 Aug/Task 1 lab8.sol\":1851:1864  Status status */\n      dup1\n        /* \"LABS 8 Aug/Task 1 lab8.sol\":1878:1899  uint256 ObtainedMarks */\n      0x00\n        /* \"LABS 8 Aug/Task 1 lab8.sol\":1941:1942  0 */\n      dup1\n        /* \"LABS 8 Aug/Task 1 lab8.sol\":1932:1938  rollno */\n      dup8\n        /* \"LABS 8 Aug/Task 1 lab8.sol\":1932:1942  rollno > 0 */\n      gt\n        /* \"LABS 8 Aug/Task 1 lab8.sol\":1932:1968  rollno > 0 && rollno <= StudentCount */\n      dup1\n      iszero\n      tag_66\n      jumpi\n      pop\n        /* \"LABS 8 Aug/Task 1 lab8.sol\":1956:1968  StudentCount */\n      sload(0x01)\n        /* \"LABS 8 Aug/Task 1 lab8.sol\":1946:1952  rollno */\n      dup8\n        /* \"LABS 8 Aug/Task 1 lab8.sol\":1946:1968  rollno <= StudentCount */\n      gt\n      iszero\n        /* \"LABS 8 Aug/Task 1 lab8.sol\":1932:1968  rollno > 0 && rollno <= StudentCount */\n    tag_66:\n        /* \"LABS 8 Aug/Task 1 lab8.sol\":1924:1992  require(rollno > 0 && rollno <= StudentCount, \"Invalid roll number\") */\n      tag_67\n      jumpi\n      mload(0x40)\n      0x08c379a000000000000000000000000000000000000000000000000000000000\n      dup2\n      mstore\n      0x04\n      add\n      tag_68\n      swap1\n      tag_69\n      jump\t// in\n    tag_68:\n      mload(0x40)\n      dup1\n      swap2\n      sub\n      swap1\n      revert\n    tag_67:\n        /* \"LABS 8 Aug/Task 1 lab8.sol\":2023:2036  TotalStudents */\n      0x00\n        /* \"LABS 8 Aug/Task 1 lab8.sol\":2023:2044  TotalStudents[rollno] */\n      dup1\n        /* \"LABS 8 Aug/Task 1 lab8.sol\":2037:2043  rollno */\n      dup9\n        /* \"LABS 8 Aug/Task 1 lab8.sol\":2023:2044  TotalStudents[rollno] */\n      dup2\n      mstore\n      0x20\n      add\n      swap1\n      dup2\n      mstore\n      0x20\n      add\n      0x00\n      keccak256\n        /* \"LABS 8 Aug/Task 1 lab8.sol\":2023:2049  TotalStudents[rollno].name */\n      0x00\n      add\n        /* \"LABS 8 Aug/Task 1 lab8.sol\":2063:2076  TotalStudents */\n      0x00\n        /* \"LABS 8 Aug/Task 1 lab8.sol\":2063:2084  TotalStudents[rollno] */\n      dup1\n        /* \"LABS 8 Aug/Task 1 lab8.sol\":2077:2083  rollno */\n      dup10\n        /* \"LABS 8 Aug/Task 1 lab8.sol\":2063:2084  TotalStudents[rollno] */\n      dup2\n      mstore\n      0x20\n      add\n      swap1\n      dup2\n      mstore\n      0x20\n      add\n      0x00\n      keccak256\n        /* \"LABS 8 Aug/Task 1 lab8.sol\":2063:2088  TotalStudents[rollno].age */\n      0x01\n      add\n      sload\n        /* \"LABS 8 Aug/Task 1 lab8.sol\":2102:2115  TotalStudents */\n      0x00\n        /* \"LABS 8 Aug/Task 1 lab8.sol\":2102:2123  TotalStudents[rollno] */\n      dup1\n        /* \"LABS 8 Aug/Task 1 lab8.sol\":2116:2122  rollno */\n      dup11\n        /* \"LABS 8 Aug/Task 1 lab8.sol\":2102:2123  TotalStudents[rollno] */\n      dup2\n      mstore\n      0x20\n      add\n      swap1\n      dup2\n      mstore\n      0x20\n      add\n      0x00\n      keccak256\n        /* \"LABS 8 Aug/Task 1 lab8.sol\":2102:2128  TotalStudents[rollno].date */\n      0x02\n      add\n      sload\n        /* \"LABS 8 Aug/Task 1 lab8.sol\":2142:2155  TotalStudents */\n      0x00\n        /* \"LABS 8 Aug/Task 1 lab8.sol\":2142:2163  TotalStudents[rollno] */\n      dup1\n        /* \"LABS 8 Aug/Task 1 lab8.sol\":2156:2162  rollno */\n      dup12\n        /* \"LABS 8 Aug/Task 1 lab8.sol\":2142:2163  TotalStudents[rollno] */\n      dup2\n      mstore\n      0x20\n      add\n      swap1\n      dup2\n      mstore\n      0x20\n      add\n      0x00\n      keccak256\n        /* \"LABS 8 Aug/Task 1 lab8.sol\":2142:2174  TotalStudents[rollno].department */\n      0x03\n      add\n      0x00\n      swap1\n      sload\n      swap1\n      0x0100\n      exp\n      swap1\n      div\n      0xff\n      and\n        /* \"LABS 8 Aug/Task 1 lab8.sol\":2188:2201  TotalStudents */\n      0x00\n        /* \"LABS 8 Aug/Task 1 lab8.sol\":2188:2209  TotalStudents[rollno] */\n      dup1\n        /* \"LABS 8 Aug/Task 1 lab8.sol\":2202:2208  rollno */\n      dup13\n        /* \"LABS 8 Aug/Task 1 lab8.sol\":2188:2209  TotalStudents[rollno] */\n      dup2\n      mstore\n      0x20\n      add\n      swap1\n      dup2\n      mstore\n      0x20\n      add\n      0x00\n      keccak256\n        /* \"LABS 8 Aug/Task 1 lab8.sol\":2188:2216  TotalStudents[rollno].status */\n      0x03\n      add\n      0x01\n      swap1\n      sload\n      swap1\n      0x0100\n      exp\n      swap1\n      div\n      0xff\n      and\n        /* \"LABS 8 Aug/Task 1 lab8.sol\":2230:2243  TotalStudents */\n      0x00\n        /* \"LABS 8 Aug/Task 1 lab8.sol\":2230:2251  TotalStudents[rollno] */\n      dup1\n        /* \"LABS 8 Aug/Task 1 lab8.sol\":2244:2250  rollno */\n      dup14\n        /* \"LABS 8 Aug/Task 1 lab8.sol\":2230:2251  TotalStudents[rollno] */\n      dup2\n      mstore\n      0x20\n      add\n      swap1\n      dup2\n      mstore\n      0x20\n      add\n      0x00\n      keccak256\n        /* \"LABS 8 Aug/Task 1 lab8.sol\":2230:2265  TotalStudents[rollno].ObtainedMarks */\n      0x04\n      add\n      sload\n        /* \"LABS 8 Aug/Task 1 lab8.sol\":2002:2275  return (... */\n      dup6\n      dup1\n      sload\n      tag_70\n      swap1\n      tag_71\n      jump\t// in\n    tag_70:\n      dup1\n      0x1f\n      add\n      0x20\n      dup1\n      swap2\n      div\n      mul\n      0x20\n      add\n      mload(0x40)\n      swap1\n      dup2\n      add\n      0x40\n      mstore\n      dup1\n      swap3\n      swap2\n      swap1\n      dup2\n      dup2\n      mstore\n      0x20\n      add\n      dup3\n      dup1\n      sload\n      tag_72\n      swap1\n      tag_71\n      jump\t// in\n    tag_72:\n      dup1\n      iszero\n      tag_73\n      jumpi\n      dup1\n      0x1f\n      lt\n      tag_74\n      jumpi\n      0x0100\n      dup1\n      dup4\n      sload\n      div\n      mul\n      dup4\n      mstore\n      swap2\n      0x20\n      add\n      swap2\n      jump(tag_73)\n    tag_74:\n      dup3\n      add\n      swap2\n      swap1\n      0x00\n      mstore\n      keccak256(0x00, 0x20)\n      swap1\n    tag_75:\n      dup2\n      sload\n      dup2\n      mstore\n      swap1\n      0x01\n      add\n      swap1\n      0x20\n      add\n      dup1\n      dup4\n      gt\n      tag_75\n      jumpi\n      dup3\n      swap1\n      sub\n      0x1f\n      and\n      dup3\n      add\n      swap2\n    tag_73:\n      pop\n      pop\n      pop\n      pop\n      pop\n      swap6\n      pop\n      swap6\n      pop\n      swap6\n      pop\n      swap6\n      pop\n      swap6\n      pop\n      swap6\n      pop\n      swap6\n      pop\n        /* \"LABS 8 Aug/Task 1 lab8.sol\":1641:2282  function retrieve(uint256 rollno)... */\n      swap2\n      swap4\n      swap6\n      pop\n      swap2\n      swap4\n      swap6\n      jump\t// out\n        /* \"LABS 8 Aug/Task 1 lab8.sol\":2302:2593  function getCount(Department department) public view returns (uint256) {... */\n    tag_31:\n        /* \"LABS 8 Aug/Task 1 lab8.sol\":2364:2371  uint256 */\n      0x00\n        /* \"LABS 8 Aug/Task 1 lab8.sol\":2383:2396  uint256 count */\n      dup1\n        /* \"LABS 8 Aug/Task 1 lab8.sol\":2399:2400  0 */\n      0x00\n        /* \"LABS 8 Aug/Task 1 lab8.sol\":2383:2400  uint256 count = 0 */\n      swap1\n      pop\n        /* \"LABS 8 Aug/Task 1 lab8.sol\":2415:2424  uint256 i */\n      0x00\n        /* \"LABS 8 Aug/Task 1 lab8.sol\":2427:2428  1 */\n      0x01\n        /* \"LABS 8 Aug/Task 1 lab8.sol\":2415:2428  uint256 i = 1 */\n      swap1\n      pop\n        /* \"LABS 8 Aug/Task 1 lab8.sol\":2410:2565  for (uint256 i = 1; i <= StudentCount; i++) {... */\n    tag_77:\n        /* \"LABS 8 Aug/Task 1 lab8.sol\":2435:2447  StudentCount */\n      sload(0x01)\n        /* \"LABS 8 Aug/Task 1 lab8.sol\":2430:2431  i */\n      dup2\n        /* \"LABS 8 Aug/Task 1 lab8.sol\":2430:2447  i <= StudentCount */\n      gt\n        /* \"LABS 8 Aug/Task 1 lab8.sol\":2410:2565  for (uint256 i = 1; i <= StudentCount; i++) {... */\n      tag_78\n      jumpi\n        /* \"LABS 8 Aug/Task 1 lab8.sol\":2503:2513  department */\n      dup4\n        /* \"LABS 8 Aug/Task 1 lab8.sol\":2472:2513  TotalStudents[i].department == department */\n      0x03\n      dup2\n      gt\n      iszero\n      tag_80\n      jumpi\n      tag_81\n      tag_42\n      jump\t// in\n    tag_81:\n    tag_80:\n        /* \"LABS 8 Aug/Task 1 lab8.sol\":2472:2485  TotalStudents */\n      0x00\n        /* \"LABS 8 Aug/Task 1 lab8.sol\":2472:2488  TotalStudents[i] */\n      dup1\n        /* \"LABS 8 Aug/Task 1 lab8.sol\":2486:2487  i */\n      dup4\n        /* \"LABS 8 Aug/Task 1 lab8.sol\":2472:2488  TotalStudents[i] */\n      dup2\n      mstore\n      0x20\n      add\n      swap1\n      dup2\n      mstore\n      0x20\n      add\n      0x00\n      keccak256\n        /* \"LABS 8 Aug/Task 1 lab8.sol\":2472:2499  TotalStudents[i].department */\n      0x03\n      add\n      0x00\n      swap1\n      sload\n      swap1\n      0x0100\n      exp\n      swap1\n      div\n      0xff\n      and\n        /* \"LABS 8 Aug/Task 1 lab8.sol\":2472:2513  TotalStudents[i].department == department */\n      0x03\n      dup2\n      gt\n      iszero\n      tag_82\n      jumpi\n      tag_83\n      tag_42\n      jump\t// in\n    tag_83:\n    tag_82:\n      sub\n        /* \"LABS 8 Aug/Task 1 lab8.sol\":2468:2555  if (TotalStudents[i].department == department) {... */\n      tag_84\n      jumpi\n        /* \"LABS 8 Aug/Task 1 lab8.sol\":2533:2540  count++ */\n      dup2\n      dup1\n      tag_85\n      swap1\n      tag_52\n      jump\t// in\n    tag_85:\n      swap3\n      pop\n      pop\n        /* \"LABS 8 Aug/Task 1 lab8.sol\":2468:2555  if (TotalStudents[i].department == department) {... */\n    tag_84:\n        /* \"LABS 8 Aug/Task 1 lab8.sol\":2449:2452  i++ */\n      dup1\n      dup1\n      tag_86\n      swap1\n      tag_52\n      jump\t// in\n    tag_86:\n      swap2\n      pop\n      pop\n        /* \"LABS 8 Aug/Task 1 lab8.sol\":2410:2565  for (uint256 i = 1; i <= StudentCount; i++) {... */\n      jump(tag_77)\n    tag_78:\n      pop\n        /* \"LABS 8 Aug/Task 1 lab8.sol\":2581:2586  count */\n      dup1\n        /* \"LABS 8 Aug/Task 1 lab8.sol\":2574:2586  return count */\n      swap2\n      pop\n      pop\n        /* \"LABS 8 Aug/Task 1 lab8.sol\":2302:2593  function getCount(Department department) public view returns (uint256) {... */\n      swap2\n      swap1\n      pop\n      jump\t// out\n        /* \"LABS 8 Aug/Task 1 lab8.sol\":2613:3566  function Top3BlockchainAchievers() public view returns (Student memory S1, Student memory S2, Student memory S3) {... */\n    tag_34:\n        /* \"LABS 8 Aug/Task 1 lab8.sol\":2669:2686  Student memory S1 */\n      tag_87\n      tag_88\n      jump\t// in\n    tag_87:\n        /* \"LABS 8 Aug/Task 1 lab8.sol\":2688:2705  Student memory S2 */\n      tag_89\n      tag_88\n      jump\t// in\n    tag_89:\n        /* \"LABS 8 Aug/Task 1 lab8.sol\":2707:2724  Student memory S3 */\n      tag_90\n      tag_88\n      jump\t// in\n    tag_90:\n        /* \"LABS 8 Aug/Task 1 lab8.sol\":2741:2750  uint256 i */\n      0x00\n        /* \"LABS 8 Aug/Task 1 lab8.sol\":2753:2754  1 */\n      0x01\n        /* \"LABS 8 Aug/Task 1 lab8.sol\":2741:2754  uint256 i = 1 */\n      swap1\n      pop\n        /* \"LABS 8 Aug/Task 1 lab8.sol\":2736:3560  for (uint256 i = 1; i <= StudentCount; i++) {... */\n    tag_92:\n        /* \"LABS 8 Aug/Task 1 lab8.sol\":2761:2773  StudentCount */\n      sload(0x01)\n        /* \"LABS 8 Aug/Task 1 lab8.sol\":2756:2757  i */\n      dup2\n        /* \"LABS 8 Aug/Task 1 lab8.sol\":2756:2773  i <= StudentCount */\n      gt\n        /* \"LABS 8 Aug/Task 1 lab8.sol\":2736:3560  for (uint256 i = 1; i <= StudentCount; i++) {... */\n      tag_93\n      jumpi\n        /* \"LABS 8 Aug/Task 1 lab8.sol\":2829:2850  Department.Blockchain */\n      0x01\n        /* \"LABS 8 Aug/Task 1 lab8.sol\":2798:2850  TotalStudents[i].department == Department.Blockchain */\n      0x03\n      dup2\n      gt\n      iszero\n      tag_95\n      jumpi\n      tag_96\n      tag_42\n      jump\t// in\n    tag_96:\n    tag_95:\n        /* \"LABS 8 Aug/Task 1 lab8.sol\":2798:2811  TotalStudents */\n      0x00\n        /* \"LABS 8 Aug/Task 1 lab8.sol\":2798:2814  TotalStudents[i] */\n      dup1\n        /* \"LABS 8 Aug/Task 1 lab8.sol\":2812:2813  i */\n      dup4\n        /* \"LABS 8 Aug/Task 1 lab8.sol\":2798:2814  TotalStudents[i] */\n      dup2\n      mstore\n      0x20\n      add\n      swap1\n      dup2\n      mstore\n      0x20\n      add\n      0x00\n      keccak256\n        /* \"LABS 8 Aug/Task 1 lab8.sol\":2798:2825  TotalStudents[i].department */\n      0x03\n      add\n      0x00\n      swap1\n      sload\n      swap1\n      0x0100\n      exp\n      swap1\n      div\n      0xff\n      and\n        /* \"LABS 8 Aug/Task 1 lab8.sol\":2798:2850  TotalStudents[i].department == Department.Blockchain */\n      0x03\n      dup2\n      gt\n      iszero\n      tag_97\n      jumpi\n      tag_98\n      tag_42\n      jump\t// in\n    tag_98:\n    tag_97:\n      sub\n        /* \"LABS 8 Aug/Task 1 lab8.sol\":2794:3550  if (TotalStudents[i].department == Department.Blockchain) {... */\n      tag_99\n      jumpi\n        /* \"LABS 8 Aug/Task 1 lab8.sol\":2901:2916  Status.Enrolled */\n      0x01\n        /* \"LABS 8 Aug/Task 1 lab8.sol\":2874:2916  TotalStudents[i].status == Status.Enrolled */\n      0x03\n      dup2\n      gt\n      iszero\n      tag_100\n      jumpi\n      tag_101\n      tag_42\n      jump\t// in\n    tag_101:\n    tag_100:\n        /* \"LABS 8 Aug/Task 1 lab8.sol\":2874:2887  TotalStudents */\n      0x00\n        /* \"LABS 8 Aug/Task 1 lab8.sol\":2874:2890  TotalStudents[i] */\n      dup1\n        /* \"LABS 8 Aug/Task 1 lab8.sol\":2888:2889  i */\n      dup4\n        /* \"LABS 8 Aug/Task 1 lab8.sol\":2874:2890  TotalStudents[i] */\n      dup2\n      mstore\n      0x20\n      add\n      swap1\n      dup2\n      mstore\n      0x20\n      add\n      0x00\n      keccak256\n        /* \"LABS 8 Aug/Task 1 lab8.sol\":2874:2897  TotalStudents[i].status */\n      0x03\n      add\n      0x01\n      swap1\n      sload\n      swap1\n      0x0100\n      exp\n      swap1\n      div\n      0xff\n      and\n        /* \"LABS 8 Aug/Task 1 lab8.sol\":2874:2916  TotalStudents[i].status == Status.Enrolled */\n      0x03\n      dup2\n      gt\n      iszero\n      tag_102\n      jumpi\n      tag_103\n      tag_42\n      jump\t// in\n    tag_103:\n    tag_102:\n      sub\n        /* \"LABS 8 Aug/Task 1 lab8.sol\":2870:3536  if (TotalStudents[i].status == Status.Enrolled) {... */\n      tag_104\n      jumpi\n        /* \"LABS 8 Aug/Task 1 lab8.sol\":2977:2979  S1 */\n      dup4\n        /* \"LABS 8 Aug/Task 1 lab8.sol\":2977:2993  S1.ObtainedMarks */\n      0xa0\n      add\n      mload\n        /* \"LABS 8 Aug/Task 1 lab8.sol\":2944:2957  TotalStudents */\n      0x00\n        /* \"LABS 8 Aug/Task 1 lab8.sol\":2944:2960  TotalStudents[i] */\n      dup1\n        /* \"LABS 8 Aug/Task 1 lab8.sol\":2958:2959  i */\n      dup4\n        /* \"LABS 8 Aug/Task 1 lab8.sol\":2944:2960  TotalStudents[i] */\n      dup2\n      mstore\n      0x20\n      add\n      swap1\n      dup2\n      mstore\n      0x20\n      add\n      0x00\n      keccak256\n        /* \"LABS 8 Aug/Task 1 lab8.sol\":2944:2974  TotalStudents[i].ObtainedMarks */\n      0x04\n      add\n      sload\n        /* \"LABS 8 Aug/Task 1 lab8.sol\":2944:2993  TotalStudents[i].ObtainedMarks > S1.ObtainedMarks */\n      gt\n        /* \"LABS 8 Aug/Task 1 lab8.sol\":2940:3518  if (TotalStudents[i].ObtainedMarks > S1.ObtainedMarks) {... */\n      iszero\n      tag_105\n      jumpi\n        /* \"LABS 8 Aug/Task 1 lab8.sol\":3026:3028  S2 */\n      dup3\n        /* \"LABS 8 Aug/Task 1 lab8.sol\":3021:3028  S3 = S2 */\n      swap2\n      pop\n        /* \"LABS 8 Aug/Task 1 lab8.sol\":3059:3061  S1 */\n      dup4\n        /* \"LABS 8 Aug/Task 1 lab8.sol\":3054:3061  S2 = S1 */\n      swap3\n      pop\n        /* \"LABS 8 Aug/Task 1 lab8.sol\":3092:3105  TotalStudents */\n      0x00\n        /* \"LABS 8 Aug/Task 1 lab8.sol\":3092:3108  TotalStudents[i] */\n      dup1\n        /* \"LABS 8 Aug/Task 1 lab8.sol\":3106:3107  i */\n      dup3\n        /* \"LABS 8 Aug/Task 1 lab8.sol\":3092:3108  TotalStudents[i] */\n      dup2\n      mstore\n      0x20\n      add\n      swap1\n      dup2\n      mstore\n      0x20\n      add\n      0x00\n      keccak256\n        /* \"LABS 8 Aug/Task 1 lab8.sol\":3087:3108  S1 = TotalStudents[i] */\n      mload(0x40)\n      dup1\n      0xc0\n      add\n      0x40\n      mstore\n      swap1\n      dup2\n      0x00\n      dup3\n      add\n      dup1\n      sload\n      tag_106\n      swap1\n      tag_71\n      jump\t// in\n    tag_106:\n      dup1\n      0x1f\n      add\n      0x20\n      dup1\n      swap2\n      div\n      mul\n      0x20\n      add\n      mload(0x40)\n      swap1\n      dup2\n      add\n      0x40\n      mstore\n      dup1\n      swap3\n      swap2\n      swap1\n      dup2\n      dup2\n      mstore\n      0x20\n      add\n      dup3\n      dup1\n      sload\n      tag_107\n      swap1\n      tag_71\n      jump\t// in\n    tag_107:\n      dup1\n      iszero\n      tag_108\n      jumpi\n      dup1\n      0x1f\n      lt\n      tag_109\n      jumpi\n      0x0100\n      dup1\n      dup4\n      sload\n      div\n      mul\n      dup4\n      mstore\n      swap2\n      0x20\n      add\n      swap2\n      jump(tag_108)\n    tag_109:\n      dup3\n      add\n      swap2\n      swap1\n      0x00\n      mstore\n      keccak256(0x00, 0x20)\n      swap1\n    tag_110:\n      dup2\n      sload\n      dup2\n      mstore\n      swap1\n      0x01\n      add\n      swap1\n      0x20\n      add\n      dup1\n      dup4\n      gt\n      tag_110\n      jumpi\n      dup3\n      swap1\n      sub\n      0x1f\n      and\n      dup3\n      add\n      swap2\n    tag_108:\n      pop\n      pop\n      pop\n      pop\n      pop\n      dup2\n      mstore\n      0x20\n      add\n      0x01\n      dup3\n      add\n      sload\n      dup2\n      mstore\n      0x20\n      add\n      0x02\n      dup3\n      add\n      sload\n      dup2\n      mstore\n      0x20\n      add\n      0x03\n      dup3\n      add\n      0x00\n      swap1\n      sload\n      swap1\n      0x0100\n      exp\n      swap1\n      div\n      0xff\n      and\n      0x03\n      dup2\n      gt\n      iszero\n      tag_111\n      jumpi\n      tag_112\n      tag_42\n      jump\t// in\n    tag_112:\n    tag_111:\n      0x03\n      dup2\n      gt\n      iszero\n      tag_113\n      jumpi\n      tag_114\n      tag_42\n      jump\t// in\n    tag_114:\n    tag_113:\n      dup2\n      mstore\n      0x20\n      add\n      0x03\n      dup3\n      add\n      0x01\n      swap1\n      sload\n      swap1\n      0x0100\n      exp\n      swap1\n      div\n      0xff\n      and\n      0x03\n      dup2\n      gt\n      iszero\n      tag_115\n      jumpi\n      tag_116\n      tag_42\n      jump\t// in\n    tag_116:\n    tag_115:\n      0x03\n      dup2\n      gt\n      iszero\n      tag_117\n      jumpi\n      tag_118\n      tag_42\n      jump\t// in\n    tag_118:\n    tag_117:\n      dup2\n      mstore\n      0x20\n      add\n      0x04\n      dup3\n      add\n      sload\n      dup2\n      mstore\n      pop\n      pop\n      swap4\n      pop\n        /* \"LABS 8 Aug/Task 1 lab8.sol\":2940:3518  if (TotalStudents[i].ObtainedMarks > S1.ObtainedMarks) {... */\n      jump(tag_119)\n    tag_105:\n        /* \"LABS 8 Aug/Task 1 lab8.sol\":3199:3201  S2 */\n      dup3\n        /* \"LABS 8 Aug/Task 1 lab8.sol\":3199:3215  S2.ObtainedMarks */\n      0xa0\n      add\n      mload\n        /* \"LABS 8 Aug/Task 1 lab8.sol\":3166:3179  TotalStudents */\n      0x00\n        /* \"LABS 8 Aug/Task 1 lab8.sol\":3166:3182  TotalStudents[i] */\n      dup1\n        /* \"LABS 8 Aug/Task 1 lab8.sol\":3180:3181  i */\n      dup4\n        /* \"LABS 8 Aug/Task 1 lab8.sol\":3166:3182  TotalStudents[i] */\n      dup2\n      mstore\n      0x20\n      add\n      swap1\n      dup2\n      mstore\n      0x20\n      add\n      0x00\n      keccak256\n        /* \"LABS 8 Aug/Task 1 lab8.sol\":3166:3196  TotalStudents[i].ObtainedMarks */\n      0x04\n      add\n      sload\n        /* \"LABS 8 Aug/Task 1 lab8.sol\":3166:3215  TotalStudents[i].ObtainedMarks > S2.ObtainedMarks */\n      gt\n        /* \"LABS 8 Aug/Task 1 lab8.sol\":3137:3518  if (... */\n      iszero\n      tag_120\n      jumpi\n        /* \"LABS 8 Aug/Task 1 lab8.sol\":3269:3271  S2 */\n      dup3\n        /* \"LABS 8 Aug/Task 1 lab8.sol\":3264:3271  S3 = S2 */\n      swap2\n      pop\n        /* \"LABS 8 Aug/Task 1 lab8.sol\":3302:3315  TotalStudents */\n      0x00\n        /* \"LABS 8 Aug/Task 1 lab8.sol\":3302:3318  TotalStudents[i] */\n      dup1\n        /* \"LABS 8 Aug/Task 1 lab8.sol\":3316:3317  i */\n      dup3\n        /* \"LABS 8 Aug/Task 1 lab8.sol\":3302:3318  TotalStudents[i] */\n      dup2\n      mstore\n      0x20\n      add\n      swap1\n      dup2\n      mstore\n      0x20\n      add\n      0x00\n      keccak256\n        /* \"LABS 8 Aug/Task 1 lab8.sol\":3297:3318  S1 = TotalStudents[i] */\n      mload(0x40)\n      dup1\n      0xc0\n      add\n      0x40\n      mstore\n      swap1\n      dup2\n      0x00\n      dup3\n      add\n      dup1\n      sload\n      tag_121\n      swap1\n      tag_71\n      jump\t// in\n    tag_121:\n      dup1\n      0x1f\n      add\n      0x20\n      dup1\n      swap2\n      div\n      mul\n      0x20\n      add\n      mload(0x40)\n      swap1\n      dup2\n      add\n      0x40\n      mstore\n      dup1\n      swap3\n      swap2\n      swap1\n      dup2\n      dup2\n      mstore\n      0x20\n      add\n      dup3\n      dup1\n      sload\n      tag_122\n      swap1\n      tag_71\n      jump\t// in\n    tag_122:\n      dup1\n      iszero\n      tag_123\n      jumpi\n      dup1\n      0x1f\n      lt\n      tag_124\n      jumpi\n      0x0100\n      dup1\n      dup4\n      sload\n      div\n      mul\n      dup4\n      mstore\n      swap2\n      0x20\n      add\n      swap2\n      jump(tag_123)\n    tag_124:\n      dup3\n      add\n      swap2\n      swap1\n      0x00\n      mstore\n      keccak256(0x00, 0x20)\n      swap1\n    tag_125:\n      dup2\n      sload\n      dup2\n      mstore\n      swap1\n      0x01\n      add\n      swap1\n      0x20\n      add\n      dup1\n      dup4\n      gt\n      tag_125\n      jumpi\n      dup3\n      swap1\n      sub\n      0x1f\n      and\n      dup3\n      add\n      swap2\n    tag_123:\n      pop\n      pop\n      pop\n      pop\n      pop\n      dup2\n      mstore\n      0x20\n      add\n      0x01\n      dup3\n      add\n      sload\n      dup2\n      mstore\n      0x20\n      add\n      0x02\n      dup3\n      add\n      sload\n      dup2\n      mstore\n      0x20\n      add\n      0x03\n      dup3\n      add\n      0x00\n      swap1\n      sload\n      swap1\n      0x0100\n      exp\n      swap1\n      div\n      0xff\n      and\n      0x03\n      dup2\n      gt\n      iszero\n      tag_126\n      jumpi\n      tag_127\n      tag_42\n      jump\t// in\n    tag_127:\n    tag_126:\n      0x03\n      dup2\n      gt\n      iszero\n      tag_128\n      jumpi\n      tag_129\n      tag_42\n      jump\t// in\n    tag_129:\n    tag_128:\n      dup2\n      mstore\n      0x20\n      add\n      0x03\n      dup3\n      add\n      0x01\n      swap1\n      sload\n      swap1\n      0x0100\n      exp\n      swap1\n      div\n      0xff\n      and\n      0x03\n      dup2\n      gt\n      iszero\n      tag_130\n      jumpi\n      tag_131\n      tag_42\n      jump\t// in\n    tag_131:\n    tag_130:\n      0x03\n      dup2\n      gt\n      iszero\n      tag_132\n      jumpi\n      tag_133\n      tag_42\n      jump\t// in\n    tag_133:\n    tag_132:\n      dup2\n      mstore\n      0x20\n      add\n      0x04\n      dup3\n      add\n      sload\n      dup2\n      mstore\n      pop\n      pop\n      swap4\n      pop\n        /* \"LABS 8 Aug/Task 1 lab8.sol\":3137:3518  if (... */\n      jump(tag_134)\n    tag_120:\n        /* \"LABS 8 Aug/Task 1 lab8.sol\":3409:3411  S3 */\n      dup2\n        /* \"LABS 8 Aug/Task 1 lab8.sol\":3409:3425  S3.ObtainedMarks */\n      0xa0\n      add\n      mload\n        /* \"LABS 8 Aug/Task 1 lab8.sol\":3376:3389  TotalStudents */\n      0x00\n        /* \"LABS 8 Aug/Task 1 lab8.sol\":3376:3392  TotalStudents[i] */\n      dup1\n        /* \"LABS 8 Aug/Task 1 lab8.sol\":3390:3391  i */\n      dup4\n        /* \"LABS 8 Aug/Task 1 lab8.sol\":3376:3392  TotalStudents[i] */\n      dup2\n      mstore\n      0x20\n      add\n      swap1\n      dup2\n      mstore\n      0x20\n      add\n      0x00\n      keccak256\n        /* \"LABS 8 Aug/Task 1 lab8.sol\":3376:3406  TotalStudents[i].ObtainedMarks */\n      0x04\n      add\n      sload\n        /* \"LABS 8 Aug/Task 1 lab8.sol\":3376:3425  TotalStudents[i].ObtainedMarks > S3.ObtainedMarks */\n      gt\n        /* \"LABS 8 Aug/Task 1 lab8.sol\":3347:3518  if (... */\n      iszero\n      tag_135\n      jumpi\n        /* \"LABS 8 Aug/Task 1 lab8.sol\":3479:3492  TotalStudents */\n      0x00\n        /* \"LABS 8 Aug/Task 1 lab8.sol\":3479:3495  TotalStudents[i] */\n      dup1\n        /* \"LABS 8 Aug/Task 1 lab8.sol\":3493:3494  i */\n      dup3\n        /* \"LABS 8 Aug/Task 1 lab8.sol\":3479:3495  TotalStudents[i] */\n      dup2\n      mstore\n      0x20\n      add\n      swap1\n      dup2\n      mstore\n      0x20\n      add\n      0x00\n      keccak256\n        /* \"LABS 8 Aug/Task 1 lab8.sol\":3474:3495  S3 = TotalStudents[i] */\n      mload(0x40)\n      dup1\n      0xc0\n      add\n      0x40\n      mstore\n      swap1\n      dup2\n      0x00\n      dup3\n      add\n      dup1\n      sload\n      tag_136\n      swap1\n      tag_71\n      jump\t// in\n    tag_136:\n      dup1\n      0x1f\n      add\n      0x20\n      dup1\n      swap2\n      div\n      mul\n      0x20\n      add\n      mload(0x40)\n      swap1\n      dup2\n      add\n      0x40\n      mstore\n      dup1\n      swap3\n      swap2\n      swap1\n      dup2\n      dup2\n      mstore\n      0x20\n      add\n      dup3\n      dup1\n      sload\n      tag_137\n      swap1\n      tag_71\n      jump\t// in\n    tag_137:\n      dup1\n      iszero\n      tag_138\n      jumpi\n      dup1\n      0x1f\n      lt\n      tag_139\n      jumpi\n      0x0100\n      dup1\n      dup4\n      sload\n      div\n      mul\n      dup4\n      mstore\n      swap2\n      0x20\n      add\n      swap2\n      jump(tag_138)\n    tag_139:\n      dup3\n      add\n      swap2\n      swap1\n      0x00\n      mstore\n      keccak256(0x00, 0x20)\n      swap1\n    tag_140:\n      dup2\n      sload\n      dup2\n      mstore\n      swap1\n      0x01\n      add\n      swap1\n      0x20\n      add\n      dup1\n      dup4\n      gt\n      tag_140\n      jumpi\n      dup3\n      swap1\n      sub\n      0x1f\n      and\n      dup3\n      add\n      swap2\n    tag_138:\n      pop\n      pop\n      pop\n      pop\n      pop\n      dup2\n      mstore\n      0x20\n      add\n      0x01\n      dup3\n      add\n      sload\n      dup2\n      mstore\n      0x20\n      add\n      0x02\n      dup3\n      add\n      sload\n      dup2\n      mstore\n      0x20\n      add\n      0x03\n      dup3\n      add\n      0x00\n      swap1\n      sload\n      swap1\n      0x0100\n      exp\n      swap1\n      div\n      0xff\n      and\n      0x03\n      dup2\n      gt\n      iszero\n      tag_141\n      jumpi\n      tag_142\n      tag_42\n      jump\t// in\n    tag_142:\n    tag_141:\n      0x03\n      dup2\n      gt\n      iszero\n      tag_143\n      jumpi\n      tag_144\n      tag_42\n      jump\t// in\n    tag_144:\n    tag_143:\n      dup2\n      mstore\n      0x20\n      add\n      0x03\n      dup3\n      add\n      0x01\n      swap1\n      sload\n      swap1\n      0x0100\n      exp\n      swap1\n      div\n      0xff\n      and\n      0x03\n      dup2\n      gt\n      iszero\n      tag_145\n      jumpi\n      tag_146\n      tag_42\n      jump\t// in\n    tag_146:\n    tag_145:\n      0x03\n      dup2\n      gt\n      iszero\n      tag_147\n      jumpi\n      tag_148\n      tag_42\n      jump\t// in\n    tag_148:\n    tag_147:\n      dup2\n      mstore\n      0x20\n      add\n      0x04\n      dup3\n      add\n      sload\n      dup2\n      mstore\n      pop\n      pop\n      swap2\n      pop\n        /* \"LABS 8 Aug/Task 1 lab8.sol\":3347:3518  if (... */\n    tag_135:\n        /* \"LABS 8 Aug/Task 1 lab8.sol\":3137:3518  if (... */\n    tag_134:\n        /* \"LABS 8 Aug/Task 1 lab8.sol\":2940:3518  if (TotalStudents[i].ObtainedMarks > S1.ObtainedMarks) {... */\n    tag_119:\n        /* \"LABS 8 Aug/Task 1 lab8.sol\":2870:3536  if (TotalStudents[i].status == Status.Enrolled) {... */\n    tag_104:\n        /* \"LABS 8 Aug/Task 1 lab8.sol\":2794:3550  if (TotalStudents[i].department == Department.Blockchain) {... */\n    tag_99:\n        /* \"LABS 8 Aug/Task 1 lab8.sol\":2775:2778  i++ */\n      dup1\n      dup1\n      tag_149\n      swap1\n      tag_52\n      jump\t// in\n    tag_149:\n      swap2\n      pop\n      pop\n        /* \"LABS 8 Aug/Task 1 lab8.sol\":2736:3560  for (uint256 i = 1; i <= StudentCount; i++) {... */\n      jump(tag_92)\n    tag_93:\n      pop\n        /* \"LABS 8 Aug/Task 1 lab8.sol\":2613:3566  function Top3BlockchainAchievers() public view returns (Student memory S1, Student memory S2, Student memory S3) {... */\n      swap1\n      swap2\n      swap3\n      jump\t// out\n    tag_88:\n      mload(0x40)\n      dup1\n      0xc0\n      add\n      0x40\n      mstore\n      dup1\n      0x60\n      dup2\n      mstore\n      0x20\n      add\n      0x00\n      dup2\n      mstore\n      0x20\n      add\n      0x00\n      dup2\n      mstore\n      0x20\n      add\n      0x00\n      0x03\n      dup2\n      gt\n      iszero\n      tag_150\n      jumpi\n      tag_151\n      tag_42\n      jump\t// in\n    tag_151:\n    tag_150:\n      dup2\n      mstore\n      0x20\n      add\n      0x00\n      0x03\n      dup2\n      gt\n      iszero\n      tag_152\n      jumpi\n      tag_153\n      tag_42\n      jump\t// in\n    tag_153:\n    tag_152:\n      dup2\n      mstore\n      0x20\n      add\n      0x00\n      dup2\n      mstore\n      pop\n      swap1\n      jump\t// out\n        /* \"#utility.yul\":7:82   */\n    tag_154:\n        /* \"#utility.yul\":40:46   */\n      0x00\n        /* \"#utility.yul\":73:75   */\n      0x40\n        /* \"#utility.yul\":67:76   */\n      mload\n        /* \"#utility.yul\":57:76   */\n      swap1\n      pop\n        /* \"#utility.yul\":7:82   */\n      swap1\n      jump\t// out\n        /* \"#utility.yul\":88:205   */\n    tag_155:\n        /* \"#utility.yul\":197:198   */\n      0x00\n        /* \"#utility.yul\":194:195   */\n      dup1\n        /* \"#utility.yul\":187:199   */\n      revert\n        /* \"#utility.yul\":211:328   */\n    tag_156:\n        /* \"#utility.yul\":320:321   */\n      0x00\n        /* \"#utility.yul\":317:318   */\n      dup1\n        /* \"#utility.yul\":310:322   */\n      revert\n        /* \"#utility.yul\":334:451   */\n    tag_157:\n        /* \"#utility.yul\":443:444   */\n      0x00\n        /* \"#utility.yul\":440:441   */\n      dup1\n        /* \"#utility.yul\":433:445   */\n      revert\n        /* \"#utility.yul\":457:574   */\n    tag_158:\n        /* \"#utility.yul\":566:567   */\n      0x00\n        /* \"#utility.yul\":563:564   */\n      dup1\n        /* \"#utility.yul\":556:568   */\n      revert\n        /* \"#utility.yul\":580:682   */\n    tag_159:\n        /* \"#utility.yul\":621:627   */\n      0x00\n        /* \"#utility.yul\":672:674   */\n      0x1f\n        /* \"#utility.yul\":668:675   */\n      not\n        /* \"#utility.yul\":663:665   */\n      0x1f\n        /* \"#utility.yul\":656:661   */\n      dup4\n        /* \"#utility.yul\":652:666   */\n      add\n        /* \"#utility.yul\":648:676   */\n      and\n        /* \"#utility.yul\":638:676   */\n      swap1\n      pop\n        /* \"#utility.yul\":580:682   */\n      swap2\n      swap1\n      pop\n      jump\t// out\n        /* \"#utility.yul\":688:868   */\n    tag_160:\n        /* \"#utility.yul\":736:813   */\n      0x4e487b7100000000000000000000000000000000000000000000000000000000\n        /* \"#utility.yul\":733:734   */\n      0x00\n        /* \"#utility.yul\":726:814   */\n      mstore\n        /* \"#utility.yul\":833:837   */\n      0x41\n        /* \"#utility.yul\":830:831   */\n      0x04\n        /* \"#utility.yul\":823:838   */\n      mstore\n        /* \"#utility.yul\":857:861   */\n      0x24\n        /* \"#utility.yul\":854:855   */\n      0x00\n        /* \"#utility.yul\":847:862   */\n      revert\n        /* \"#utility.yul\":874:1155   */\n    tag_161:\n        /* \"#utility.yul\":957:984   */\n      tag_221\n        /* \"#utility.yul\":979:983   */\n      dup3\n        /* \"#utility.yul\":957:984   */\n      tag_159\n      jump\t// in\n    tag_221:\n        /* \"#utility.yul\":949:955   */\n      dup2\n        /* \"#utility.yul\":945:985   */\n      add\n        /* \"#utility.yul\":1087:1093   */\n      dup2\n        /* \"#utility.yul\":1075:1085   */\n      dup2\n        /* \"#utility.yul\":1072:1094   */\n      lt\n        /* \"#utility.yul\":1051:1069   */\n      0xffffffffffffffff\n        /* \"#utility.yul\":1039:1049   */\n      dup3\n        /* \"#utility.yul\":1036:1070   */\n      gt\n        /* \"#utility.yul\":1033:1095   */\n      or\n        /* \"#utility.yul\":1030:1118   */\n      iszero\n      tag_222\n      jumpi\n        /* \"#utility.yul\":1098:1116   */\n      tag_223\n      tag_160\n      jump\t// in\n    tag_223:\n        /* \"#utility.yul\":1030:1118   */\n    tag_222:\n        /* \"#utility.yul\":1138:1148   */\n      dup1\n        /* \"#utility.yul\":1134:1136   */\n      0x40\n        /* \"#utility.yul\":1127:1149   */\n      mstore\n        /* \"#utility.yul\":917:1155   */\n      pop\n        /* \"#utility.yul\":874:1155   */\n      pop\n      pop\n      jump\t// out\n        /* \"#utility.yul\":1161:1290   */\n    tag_162:\n        /* \"#utility.yul\":1195:1201   */\n      0x00\n        /* \"#utility.yul\":1222:1242   */\n      tag_225\n      tag_154\n      jump\t// in\n    tag_225:\n        /* \"#utility.yul\":1212:1242   */\n      swap1\n      pop\n        /* \"#utility.yul\":1251:1284   */\n      tag_226\n        /* \"#utility.yul\":1279:1283   */\n      dup3\n        /* \"#utility.yul\":1271:1277   */\n      dup3\n        /* \"#utility.yul\":1251:1284   */\n      tag_161\n      jump\t// in\n    tag_226:\n        /* \"#utility.yul\":1161:1290   */\n      swap2\n      swap1\n      pop\n      jump\t// out\n        /* \"#utility.yul\":1296:1604   */\n    tag_163:\n        /* \"#utility.yul\":1358:1362   */\n      0x00\n        /* \"#utility.yul\":1448:1466   */\n      0xffffffffffffffff\n        /* \"#utility.yul\":1440:1446   */\n      dup3\n        /* \"#utility.yul\":1437:1467   */\n      gt\n        /* \"#utility.yul\":1434:1490   */\n      iszero\n      tag_228\n      jumpi\n        /* \"#utility.yul\":1470:1488   */\n      tag_229\n      tag_160\n      jump\t// in\n    tag_229:\n        /* \"#utility.yul\":1434:1490   */\n    tag_228:\n        /* \"#utility.yul\":1508:1537   */\n      tag_230\n        /* \"#utility.yul\":1530:1536   */\n      dup3\n        /* \"#utility.yul\":1508:1537   */\n      tag_159\n      jump\t// in\n    tag_230:\n        /* \"#utility.yul\":1500:1537   */\n      swap1\n      pop\n        /* \"#utility.yul\":1592:1596   */\n      0x20\n        /* \"#utility.yul\":1586:1590   */\n      dup2\n        /* \"#utility.yul\":1582:1597   */\n      add\n        /* \"#utility.yul\":1574:1597   */\n      swap1\n      pop\n        /* \"#utility.yul\":1296:1604   */\n      swap2\n      swap1\n      pop\n      jump\t// out\n        /* \"#utility.yul\":1610:1756   */\n    tag_164:\n        /* \"#utility.yul\":1707:1713   */\n      dup3\n        /* \"#utility.yul\":1702:1705   */\n      dup2\n        /* \"#utility.yul\":1697:1700   */\n      dup4\n        /* \"#utility.yul\":1684:1714   */\n      calldatacopy\n        /* \"#utility.yul\":1748:1749   */\n      0x00\n        /* \"#utility.yul\":1739:1745   */\n      dup4\n        /* \"#utility.yul\":1734:1737   */\n      dup4\n        /* \"#utility.yul\":1730:1746   */\n      add\n        /* \"#utility.yul\":1723:1750   */\n      mstore\n        /* \"#utility.yul\":1610:1756   */\n      pop\n      pop\n      pop\n      jump\t// out\n        /* \"#utility.yul\":1762:2187   */\n    tag_165:\n        /* \"#utility.yul\":1840:1845   */\n      0x00\n        /* \"#utility.yul\":1865:1931   */\n      tag_233\n        /* \"#utility.yul\":1881:1930   */\n      tag_234\n        /* \"#utility.yul\":1923:1929   */\n      dup5\n        /* \"#utility.yul\":1881:1930   */\n      tag_163\n      jump\t// in\n    tag_234:\n        /* \"#utility.yul\":1865:1931   */\n      tag_162\n      jump\t// in\n    tag_233:\n        /* \"#utility.yul\":1856:1931   */\n      swap1\n      pop\n        /* \"#utility.yul\":1954:1960   */\n      dup3\n        /* \"#utility.yul\":1947:1952   */\n      dup2\n        /* \"#utility.yul\":1940:1961   */\n      mstore\n        /* \"#utility.yul\":1992:1996   */\n      0x20\n        /* \"#utility.yul\":1985:1990   */\n      dup2\n        /* \"#utility.yul\":1981:1997   */\n      add\n        /* \"#utility.yul\":2030:2033   */\n      dup5\n        /* \"#utility.yul\":2021:2027   */\n      dup5\n        /* \"#utility.yul\":2016:2019   */\n      dup5\n        /* \"#utility.yul\":2012:2028   */\n      add\n        /* \"#utility.yul\":2009:2034   */\n      gt\n        /* \"#utility.yul\":2006:2118   */\n      iszero\n      tag_235\n      jumpi\n        /* \"#utility.yul\":2037:2116   */\n      tag_236\n      tag_158\n      jump\t// in\n    tag_236:\n        /* \"#utility.yul\":2006:2118   */\n    tag_235:\n        /* \"#utility.yul\":2127:2181   */\n      tag_237\n        /* \"#utility.yul\":2174:2180   */\n      dup5\n        /* \"#utility.yul\":2169:2172   */\n      dup3\n        /* \"#utility.yul\":2164:2167   */\n      dup6\n        /* \"#utility.yul\":2127:2181   */\n      tag_164\n      jump\t// in\n    tag_237:\n        /* \"#utility.yul\":1846:2187   */\n      pop\n        /* \"#utility.yul\":1762:2187   */\n      swap4\n      swap3\n      pop\n      pop\n      pop\n      jump\t// out\n        /* \"#utility.yul\":2207:2547   */\n    tag_166:\n        /* \"#utility.yul\":2263:2268   */\n      0x00\n        /* \"#utility.yul\":2312:2315   */\n      dup3\n        /* \"#utility.yul\":2305:2309   */\n      0x1f\n        /* \"#utility.yul\":2297:2303   */\n      dup4\n        /* \"#utility.yul\":2293:2310   */\n      add\n        /* \"#utility.yul\":2289:2316   */\n      slt\n        /* \"#utility.yul\":2279:2401   */\n      tag_239\n      jumpi\n        /* \"#utility.yul\":2320:2399   */\n      tag_240\n      tag_157\n      jump\t// in\n    tag_240:\n        /* \"#utility.yul\":2279:2401   */\n    tag_239:\n        /* \"#utility.yul\":2437:2443   */\n      dup2\n        /* \"#utility.yul\":2424:2444   */\n      calldataload\n        /* \"#utility.yul\":2462:2541   */\n      tag_241\n        /* \"#utility.yul\":2537:2540   */\n      dup5\n        /* \"#utility.yul\":2529:2535   */\n      dup3\n        /* \"#utility.yul\":2522:2526   */\n      0x20\n        /* \"#utility.yul\":2514:2520   */\n      dup7\n        /* \"#utility.yul\":2510:2527   */\n      add\n        /* \"#utility.yul\":2462:2541   */\n      tag_165\n      jump\t// in\n    tag_241:\n        /* \"#utility.yul\":2453:2541   */\n      swap2\n      pop\n        /* \"#utility.yul\":2269:2547   */\n      pop\n        /* \"#utility.yul\":2207:2547   */\n      swap3\n      swap2\n      pop\n      pop\n      jump\t// out\n        /* \"#utility.yul\":2553:2630   */\n    tag_167:\n        /* \"#utility.yul\":2590:2597   */\n      0x00\n        /* \"#utility.yul\":2619:2624   */\n      dup2\n        /* \"#utility.yul\":2608:2624   */\n      swap1\n      pop\n        /* \"#utility.yul\":2553:2630   */\n      swap2\n      swap1\n      pop\n      jump\t// out\n        /* \"#utility.yul\":2636:2758   */\n    tag_168:\n        /* \"#utility.yul\":2709:2733   */\n      tag_244\n        /* \"#utility.yul\":2727:2732   */\n      dup2\n        /* \"#utility.yul\":2709:2733   */\n      tag_167\n      jump\t// in\n    tag_244:\n        /* \"#utility.yul\":2702:2707   */\n      dup2\n        /* \"#utility.yul\":2699:2734   */\n      eq\n        /* \"#utility.yul\":2689:2752   */\n      tag_245\n      jumpi\n        /* \"#utility.yul\":2748:2749   */\n      0x00\n        /* \"#utility.yul\":2745:2746   */\n      dup1\n        /* \"#utility.yul\":2738:2750   */\n      revert\n        /* \"#utility.yul\":2689:2752   */\n    tag_245:\n        /* \"#utility.yul\":2636:2758   */\n      pop\n      jump\t// out\n        /* \"#utility.yul\":2764:2903   */\n    tag_169:\n        /* \"#utility.yul\":2810:2815   */\n      0x00\n        /* \"#utility.yul\":2848:2854   */\n      dup2\n        /* \"#utility.yul\":2835:2855   */\n      calldataload\n        /* \"#utility.yul\":2826:2855   */\n      swap1\n      pop\n        /* \"#utility.yul\":2864:2897   */\n      tag_247\n        /* \"#utility.yul\":2891:2896   */\n      dup2\n        /* \"#utility.yul\":2864:2897   */\n      tag_168\n      jump\t// in\n    tag_247:\n        /* \"#utility.yul\":2764:2903   */\n      swap3\n      swap2\n      pop\n      pop\n      jump\t// out\n        /* \"#utility.yul\":2909:3020   */\n    tag_170:\n        /* \"#utility.yul\":2994:2995   */\n      0x04\n        /* \"#utility.yul\":2987:2992   */\n      dup2\n        /* \"#utility.yul\":2984:2996   */\n      lt\n        /* \"#utility.yul\":2974:3014   */\n      tag_249\n      jumpi\n        /* \"#utility.yul\":3010:3011   */\n      0x00\n        /* \"#utility.yul\":3007:3008   */\n      dup1\n        /* \"#utility.yul\":3000:3012   */\n      revert\n        /* \"#utility.yul\":2974:3014   */\n    tag_249:\n        /* \"#utility.yul\":2909:3020   */\n      pop\n      jump\t// out\n        /* \"#utility.yul\":3026:3189   */\n    tag_171:\n        /* \"#utility.yul\":3084:3089   */\n      0x00\n        /* \"#utility.yul\":3122:3128   */\n      dup2\n        /* \"#utility.yul\":3109:3129   */\n      calldataload\n        /* \"#utility.yul\":3100:3129   */\n      swap1\n      pop\n        /* \"#utility.yul\":3138:3183   */\n      tag_251\n        /* \"#utility.yul\":3177:3182   */\n      dup2\n        /* \"#utility.yul\":3138:3183   */\n      tag_170\n      jump\t// in\n    tag_251:\n        /* \"#utility.yul\":3026:3189   */\n      swap3\n      swap2\n      pop\n      pop\n      jump\t// out\n        /* \"#utility.yul\":3195:3303   */\n    tag_172:\n        /* \"#utility.yul\":3277:3278   */\n      0x04\n        /* \"#utility.yul\":3270:3275   */\n      dup2\n        /* \"#utility.yul\":3267:3279   */\n      lt\n        /* \"#utility.yul\":3257:3297   */\n      tag_253\n      jumpi\n        /* \"#utility.yul\":3293:3294   */\n      0x00\n        /* \"#utility.yul\":3290:3291   */\n      dup1\n        /* \"#utility.yul\":3283:3295   */\n      revert\n        /* \"#utility.yul\":3257:3297   */\n    tag_253:\n        /* \"#utility.yul\":3195:3303   */\n      pop\n      jump\t// out\n        /* \"#utility.yul\":3309:3466   */\n    tag_173:\n        /* \"#utility.yul\":3364:3369   */\n      0x00\n        /* \"#utility.yul\":3402:3408   */\n      dup2\n        /* \"#utility.yul\":3389:3409   */\n      calldataload\n        /* \"#utility.yul\":3380:3409   */\n      swap1\n      pop\n        /* \"#utility.yul\":3418:3460   */\n      tag_255\n        /* \"#utility.yul\":3454:3459   */\n      dup2\n        /* \"#utility.yul\":3418:3460   */\n      tag_172\n      jump\t// in\n    tag_255:\n        /* \"#utility.yul\":3309:3466   */\n      swap3\n      swap2\n      pop\n      pop\n      jump\t// out\n        /* \"#utility.yul\":3472:4751   */\n    tag_11:\n        /* \"#utility.yul\":3607:3613   */\n      0x00\n        /* \"#utility.yul\":3615:3621   */\n      dup1\n        /* \"#utility.yul\":3623:3629   */\n      0x00\n        /* \"#utility.yul\":3631:3637   */\n      dup1\n        /* \"#utility.yul\":3639:3645   */\n      0x00\n        /* \"#utility.yul\":3647:3653   */\n      dup1\n        /* \"#utility.yul\":3696:3699   */\n      0xc0\n        /* \"#utility.yul\":3684:3693   */\n      dup8\n        /* \"#utility.yul\":3675:3682   */\n      dup10\n        /* \"#utility.yul\":3671:3694   */\n      sub\n        /* \"#utility.yul\":3667:3700   */\n      slt\n        /* \"#utility.yul\":3664:3784   */\n      iszero\n      tag_257\n      jumpi\n        /* \"#utility.yul\":3703:3782   */\n      tag_258\n      tag_155\n      jump\t// in\n    tag_258:\n        /* \"#utility.yul\":3664:3784   */\n    tag_257:\n        /* \"#utility.yul\":3851:3852   */\n      0x00\n        /* \"#utility.yul\":3840:3849   */\n      dup8\n        /* \"#utility.yul\":3836:3853   */\n      add\n        /* \"#utility.yul\":3823:3854   */\n      calldataload\n        /* \"#utility.yul\":3881:3899   */\n      0xffffffffffffffff\n        /* \"#utility.yul\":3873:3879   */\n      dup2\n        /* \"#utility.yul\":3870:3900   */\n      gt\n        /* \"#utility.yul\":3867:3984   */\n      iszero\n      tag_259\n      jumpi\n        /* \"#utility.yul\":3903:3982   */\n      tag_260\n      tag_156\n      jump\t// in\n    tag_260:\n        /* \"#utility.yul\":3867:3984   */\n    tag_259:\n        /* \"#utility.yul\":4008:4071   */\n      tag_261\n        /* \"#utility.yul\":4063:4070   */\n      dup10\n        /* \"#utility.yul\":4054:4060   */\n      dup3\n        /* \"#utility.yul\":4043:4052   */\n      dup11\n        /* \"#utility.yul\":4039:4061   */\n      add\n        /* \"#utility.yul\":4008:4071   */\n      tag_166\n      jump\t// in\n    tag_261:\n        /* \"#utility.yul\":3998:4071   */\n      swap7\n      pop\n        /* \"#utility.yul\":3794:4081   */\n      pop\n        /* \"#utility.yul\":4120:4122   */\n      0x20\n        /* \"#utility.yul\":4146:4199   */\n      tag_262\n        /* \"#utility.yul\":4191:4198   */\n      dup10\n        /* \"#utility.yul\":4182:4188   */\n      dup3\n        /* \"#utility.yul\":4171:4180   */\n      dup11\n        /* \"#utility.yul\":4167:4189   */\n      add\n        /* \"#utility.yul\":4146:4199   */\n      tag_169\n      jump\t// in\n    tag_262:\n        /* \"#utility.yul\":4136:4199   */\n      swap6\n      pop\n        /* \"#utility.yul\":4091:4209   */\n      pop\n        /* \"#utility.yul\":4248:4250   */\n      0x40\n        /* \"#utility.yul\":4274:4327   */\n      tag_263\n        /* \"#utility.yul\":4319:4326   */\n      dup10\n        /* \"#utility.yul\":4310:4316   */\n      dup3\n        /* \"#utility.yul\":4299:4308   */\n      dup11\n        /* \"#utility.yul\":4295:4317   */\n      add\n        /* \"#utility.yul\":4274:4327   */\n      tag_169\n      jump\t// in\n    tag_263:\n        /* \"#utility.yul\":4264:4327   */\n      swap5\n      pop\n        /* \"#utility.yul\":4219:4337   */\n      pop\n        /* \"#utility.yul\":4376:4378   */\n      0x60\n        /* \"#utility.yul\":4402:4467   */\n      tag_264\n        /* \"#utility.yul\":4459:4466   */\n      dup10\n        /* \"#utility.yul\":4450:4456   */\n      dup3\n        /* \"#utility.yul\":4439:4448   */\n      dup11\n        /* \"#utility.yul\":4435:4457   */\n      add\n        /* \"#utility.yul\":4402:4467   */\n      tag_171\n      jump\t// in\n    tag_264:\n        /* \"#utility.yul\":4392:4467   */\n      swap4\n      pop\n        /* \"#utility.yul\":4347:4477   */\n      pop\n        /* \"#utility.yul\":4516:4519   */\n      0x80\n        /* \"#utility.yul\":4543:4596   */\n      tag_265\n        /* \"#utility.yul\":4588:4595   */\n      dup10\n        /* \"#utility.yul\":4579:4585   */\n      dup3\n        /* \"#utility.yul\":4568:4577   */\n      dup11\n        /* \"#utility.yul\":4564:4586   */\n      add\n        /* \"#utility.yul\":4543:4596   */\n      tag_169\n      jump\t// in\n    tag_265:\n        /* \"#utility.yul\":4533:4596   */\n      swap3\n      pop\n        /* \"#utility.yul\":4487:4606   */\n      pop\n        /* \"#utility.yul\":4645:4648   */\n      0xa0\n        /* \"#utility.yul\":4672:4734   */\n      tag_266\n        /* \"#utility.yul\":4726:4733   */\n      dup10\n        /* \"#utility.yul\":4717:4723   */\n      dup3\n        /* \"#utility.yul\":4706:4715   */\n      dup11\n        /* \"#utility.yul\":4702:4724   */\n      add\n        /* \"#utility.yul\":4672:4734   */\n      tag_173\n      jump\t// in\n    tag_266:\n        /* \"#utility.yul\":4662:4734   */\n      swap2\n      pop\n        /* \"#utility.yul\":4616:4744   */\n      pop\n        /* \"#utility.yul\":3472:4751   */\n      swap3\n      swap6\n      pop\n      swap3\n      swap6\n      pop\n      swap3\n      swap6\n      jump\t// out\n        /* \"#utility.yul\":4757:4875   */\n    tag_174:\n        /* \"#utility.yul\":4844:4868   */\n      tag_268\n        /* \"#utility.yul\":4862:4867   */\n      dup2\n        /* \"#utility.yul\":4844:4868   */\n      tag_167\n      jump\t// in\n    tag_268:\n        /* \"#utility.yul\":4839:4842   */\n      dup3\n        /* \"#utility.yul\":4832:4869   */\n      mstore\n        /* \"#utility.yul\":4757:4875   */\n      pop\n      pop\n      jump\t// out\n        /* \"#utility.yul\":4881:5103   */\n    tag_14:\n        /* \"#utility.yul\":4974:4978   */\n      0x00\n        /* \"#utility.yul\":5012:5014   */\n      0x20\n        /* \"#utility.yul\":5001:5010   */\n      dup3\n        /* \"#utility.yul\":4997:5015   */\n      add\n        /* \"#utility.yul\":4989:5015   */\n      swap1\n      pop\n        /* \"#utility.yul\":5025:5096   */\n      tag_270\n        /* \"#utility.yul\":5093:5094   */\n      0x00\n        /* \"#utility.yul\":5082:5091   */\n      dup4\n        /* \"#utility.yul\":5078:5095   */\n      add\n        /* \"#utility.yul\":5069:5075   */\n      dup5\n        /* \"#utility.yul\":5025:5096   */\n      tag_174\n      jump\t// in\n    tag_270:\n        /* \"#utility.yul\":4881:5103   */\n      swap3\n      swap2\n      pop\n      pop\n      jump\t// out\n        /* \"#utility.yul\":5109:6534   */\n    tag_17:\n        /* \"#utility.yul\":5253:5259   */\n      0x00\n        /* \"#utility.yul\":5261:5267   */\n      dup1\n        /* \"#utility.yul\":5269:5275   */\n      0x00\n        /* \"#utility.yul\":5277:5283   */\n      dup1\n        /* \"#utility.yul\":5285:5291   */\n      0x00\n        /* \"#utility.yul\":5293:5299   */\n      dup1\n        /* \"#utility.yul\":5301:5307   */\n      0x00\n        /* \"#utility.yul\":5350:5353   */\n      0xe0\n        /* \"#utility.yul\":5338:5347   */\n      dup9\n        /* \"#utility.yul\":5329:5336   */\n      dup11\n        /* \"#utility.yul\":5325:5348   */\n      sub\n        /* \"#utility.yul\":5321:5354   */\n      slt\n        /* \"#utility.yul\":5318:5438   */\n      iszero\n      tag_272\n      jumpi\n        /* \"#utility.yul\":5357:5436   */\n      tag_273\n      tag_155\n      jump\t// in\n    tag_273:\n        /* \"#utility.yul\":5318:5438   */\n    tag_272:\n        /* \"#utility.yul\":5477:5478   */\n      0x00\n        /* \"#utility.yul\":5502:5555   */\n      tag_274\n        /* \"#utility.yul\":5547:5554   */\n      dup11\n        /* \"#utility.yul\":5538:5544   */\n      dup3\n        /* \"#utility.yul\":5527:5536   */\n      dup12\n        /* \"#utility.yul\":5523:5545   */\n      add\n        /* \"#utility.yul\":5502:5555   */\n      tag_169\n      jump\t// in\n    tag_274:\n        /* \"#utility.yul\":5492:5555   */\n      swap8\n      pop\n        /* \"#utility.yul\":5448:5565   */\n      pop\n        /* \"#utility.yul\":5632:5634   */\n      0x20\n        /* \"#utility.yul\":5621:5630   */\n      dup9\n        /* \"#utility.yul\":5617:5635   */\n      add\n        /* \"#utility.yul\":5604:5636   */\n      calldataload\n        /* \"#utility.yul\":5663:5681   */\n      0xffffffffffffffff\n        /* \"#utility.yul\":5655:5661   */\n      dup2\n        /* \"#utility.yul\":5652:5682   */\n      gt\n        /* \"#utility.yul\":5649:5766   */\n      iszero\n      tag_275\n      jumpi\n        /* \"#utility.yul\":5685:5764   */\n      tag_276\n      tag_156\n      jump\t// in\n    tag_276:\n        /* \"#utility.yul\":5649:5766   */\n    tag_275:\n        /* \"#utility.yul\":5790:5853   */\n      tag_277\n        /* \"#utility.yul\":5845:5852   */\n      dup11\n        /* \"#utility.yul\":5836:5842   */\n      dup3\n        /* \"#utility.yul\":5825:5834   */\n      dup12\n        /* \"#utility.yul\":5821:5843   */\n      add\n        /* \"#utility.yul\":5790:5853   */\n      tag_166\n      jump\t// in\n    tag_277:\n        /* \"#utility.yul\":5780:5853   */\n      swap7\n      pop\n        /* \"#utility.yul\":5575:5863   */\n      pop\n        /* \"#utility.yul\":5902:5904   */\n      0x40\n        /* \"#utility.yul\":5928:5981   */\n      tag_278\n        /* \"#utility.yul\":5973:5980   */\n      dup11\n        /* \"#utility.yul\":5964:5970   */\n      dup3\n        /* \"#utility.yul\":5953:5962   */\n      dup12\n        /* \"#utility.yul\":5949:5971   */\n      add\n        /* \"#utility.yul\":5928:5981   */\n      tag_169\n      jump\t// in\n    tag_278:\n        /* \"#utility.yul\":5918:5981   */\n      swap6\n      pop\n        /* \"#utility.yul\":5873:5991   */\n      pop\n        /* \"#utility.yul\":6030:6032   */\n      0x60\n        /* \"#utility.yul\":6056:6109   */\n      tag_279\n        /* \"#utility.yul\":6101:6108   */\n      dup11\n        /* \"#utility.yul\":6092:6098   */\n      dup3\n        /* \"#utility.yul\":6081:6090   */\n      dup12\n        /* \"#utility.yul\":6077:6099   */\n      add\n        /* \"#utility.yul\":6056:6109   */\n      tag_169\n      jump\t// in\n    tag_279:\n        /* \"#utility.yul\":6046:6109   */\n      swap5\n      pop\n        /* \"#utility.yul\":6001:6119   */\n      pop\n        /* \"#utility.yul\":6158:6161   */\n      0x80\n        /* \"#utility.yul\":6185:6250   */\n      tag_280\n        /* \"#utility.yul\":6242:6249   */\n      dup11\n        /* \"#utility.yul\":6233:6239   */\n      dup3\n        /* \"#utility.yul\":6222:6231   */\n      dup12\n        /* \"#utility.yul\":6218:6240   */\n      add\n        /* \"#utility.yul\":6185:6250   */\n      tag_171\n      jump\t// in\n    tag_280:\n        /* \"#utility.yul\":6175:6250   */\n      swap4\n      pop\n        /* \"#utility.yul\":6129:6260   */\n      pop\n        /* \"#utility.yul\":6299:6302   */\n      0xa0\n        /* \"#utility.yul\":6326:6388   */\n      tag_281\n        /* \"#utility.yul\":6380:6387   */\n      dup11\n        /* \"#utility.yul\":6371:6377   */\n      dup3\n        /* \"#utility.yul\":6360:6369   */\n      dup12\n        /* \"#utility.yul\":6356:6378   */\n      add\n        /* \"#utility.yul\":6326:6388   */\n      tag_173\n      jump\t// in\n    tag_281:\n        /* \"#utility.yul\":6316:6388   */\n      swap3\n      pop\n        /* \"#utility.yul\":6270:6398   */\n      pop\n        /* \"#utility.yul\":6437:6440   */\n      0xc0\n        /* \"#utility.yul\":6464:6517   */\n      tag_282\n        /* \"#utility.yul\":6509:6516   */\n      dup11\n        /* \"#utility.yul\":6500:6506   */\n      dup3\n        /* \"#utility.yul\":6489:6498   */\n      dup12\n        /* \"#utility.yul\":6485:6507   */\n      add\n        /* \"#utility.yul\":6464:6517   */\n      tag_169\n      jump\t// in\n    tag_282:\n        /* \"#utility.yul\":6454:6517   */\n      swap2\n      pop\n        /* \"#utility.yul\":6408:6527   */\n      pop\n        /* \"#utility.yul\":5109:6534   */\n      swap3\n      swap6\n      swap9\n      swap2\n      swap5\n      swap8\n      pop\n      swap3\n      swap6\n      pop\n      jump\t// out\n        /* \"#utility.yul\":6540:6869   */\n    tag_24:\n        /* \"#utility.yul\":6599:6605   */\n      0x00\n        /* \"#utility.yul\":6648:6650   */\n      0x20\n        /* \"#utility.yul\":6636:6645   */\n      dup3\n        /* \"#utility.yul\":6627:6634   */\n      dup5\n        /* \"#utility.yul\":6623:6646   */\n      sub\n        /* \"#utility.yul\":6619:6651   */\n      slt\n        /* \"#utility.yul\":6616:6735   */\n      iszero\n      tag_284\n      jumpi\n        /* \"#utility.yul\":6654:6733   */\n      tag_285\n      tag_155\n      jump\t// in\n    tag_285:\n        /* \"#utility.yul\":6616:6735   */\n    tag_284:\n        /* \"#utility.yul\":6774:6775   */\n      0x00\n        /* \"#utility.yul\":6799:6852   */\n      tag_286\n        /* \"#utility.yul\":6844:6851   */\n      dup5\n        /* \"#utility.yul\":6835:6841   */\n      dup3\n        /* \"#utility.yul\":6824:6833   */\n      dup6\n        /* \"#utility.yul\":6820:6842   */\n      add\n        /* \"#utility.yul\":6799:6852   */\n      tag_169\n      jump\t// in\n    tag_286:\n        /* \"#utility.yul\":6789:6852   */\n      swap2\n      pop\n        /* \"#utility.yul\":6745:6862   */\n      pop\n        /* \"#utility.yul\":6540:6869   */\n      swap3\n      swap2\n      pop\n      pop\n      jump\t// out\n        /* \"#utility.yul\":6875:6974   */\n    tag_175:\n        /* \"#utility.yul\":6927:6933   */\n      0x00\n        /* \"#utility.yul\":6961:6966   */\n      dup2\n        /* \"#utility.yul\":6955:6967   */\n      mload\n        /* \"#utility.yul\":6945:6967   */\n      swap1\n      pop\n        /* \"#utility.yul\":6875:6974   */\n      swap2\n      swap1\n      pop\n      jump\t// out\n        /* \"#utility.yul\":6980:7149   */\n    tag_176:\n        /* \"#utility.yul\":7064:7075   */\n      0x00\n        /* \"#utility.yul\":7098:7104   */\n      dup3\n        /* \"#utility.yul\":7093:7096   */\n      dup3\n        /* \"#utility.yul\":7086:7105   */\n      mstore\n        /* \"#utility.yul\":7138:7142   */\n      0x20\n        /* \"#utility.yul\":7133:7136   */\n      dup3\n        /* \"#utility.yul\":7129:7143   */\n      add\n        /* \"#utility.yul\":7114:7143   */\n      swap1\n      pop\n        /* \"#utility.yul\":6980:7149   */\n      swap3\n      swap2\n      pop\n      pop\n      jump\t// out\n        /* \"#utility.yul\":7155:7401   */\n    tag_177:\n        /* \"#utility.yul\":7236:7237   */\n      0x00\n        /* \"#utility.yul\":7246:7359   */\n    tag_290:\n        /* \"#utility.yul\":7260:7266   */\n      dup4\n        /* \"#utility.yul\":7257:7258   */\n      dup2\n        /* \"#utility.yul\":7254:7267   */\n      lt\n        /* \"#utility.yul\":7246:7359   */\n      iszero\n      tag_292\n      jumpi\n        /* \"#utility.yul\":7345:7346   */\n      dup1\n        /* \"#utility.yul\":7340:7343   */\n      dup3\n        /* \"#utility.yul\":7336:7347   */\n      add\n        /* \"#utility.yul\":7330:7348   */\n      mload\n        /* \"#utility.yul\":7326:7327   */\n      dup2\n        /* \"#utility.yul\":7321:7324   */\n      dup5\n        /* \"#utility.yul\":7317:7328   */\n      add\n        /* \"#utility.yul\":7310:7349   */\n      mstore\n        /* \"#utility.yul\":7282:7284   */\n      0x20\n        /* \"#utility.yul\":7279:7280   */\n      dup2\n        /* \"#utility.yul\":7275:7285   */\n      add\n        /* \"#utility.yul\":7270:7285   */\n      swap1\n      pop\n        /* \"#utility.yul\":7246:7359   */\n      jump(tag_290)\n    tag_292:\n        /* \"#utility.yul\":7393:7394   */\n      0x00\n        /* \"#utility.yul\":7384:7390   */\n      dup5\n        /* \"#utility.yul\":7379:7382   */\n      dup5\n        /* \"#utility.yul\":7375:7391   */\n      add\n        /* \"#utility.yul\":7368:7395   */\n      mstore\n        /* \"#utility.yul\":7217:7401   */\n      pop\n        /* \"#utility.yul\":7155:7401   */\n      pop\n      pop\n      pop\n      jump\t// out\n        /* \"#utility.yul\":7407:7784   */\n    tag_178:\n        /* \"#utility.yul\":7495:7498   */\n      0x00\n        /* \"#utility.yul\":7523:7562   */\n      tag_294\n        /* \"#utility.yul\":7556:7561   */\n      dup3\n        /* \"#utility.yul\":7523:7562   */\n      tag_175\n      jump\t// in\n    tag_294:\n        /* \"#utility.yul\":7578:7649   */\n      tag_295\n        /* \"#utility.yul\":7642:7648   */\n      dup2\n        /* \"#utility.yul\":7637:7640   */\n      dup6\n        /* \"#utility.yul\":7578:7649   */\n      tag_176\n      jump\t// in\n    tag_295:\n        /* \"#utility.yul\":7571:7649   */\n      swap4\n      pop\n        /* \"#utility.yul\":7658:7723   */\n      tag_296\n        /* \"#utility.yul\":7716:7722   */\n      dup2\n        /* \"#utility.yul\":7711:7714   */\n      dup6\n        /* \"#utility.yul\":7704:7708   */\n      0x20\n        /* \"#utility.yul\":7697:7702   */\n      dup7\n        /* \"#utility.yul\":7693:7709   */\n      add\n        /* \"#utility.yul\":7658:7723   */\n      tag_177\n      jump\t// in\n    tag_296:\n        /* \"#utility.yul\":7748:7777   */\n      tag_297\n        /* \"#utility.yul\":7770:7776   */\n      dup2\n        /* \"#utility.yul\":7748:7777   */\n      tag_159\n      jump\t// in\n    tag_297:\n        /* \"#utility.yul\":7743:7746   */\n      dup5\n        /* \"#utility.yul\":7739:7778   */\n      add\n        /* \"#utility.yul\":7732:7778   */\n      swap2\n      pop\n        /* \"#utility.yul\":7499:7784   */\n      pop\n        /* \"#utility.yul\":7407:7784   */\n      swap3\n      swap2\n      pop\n      pop\n      jump\t// out\n        /* \"#utility.yul\":7790:7970   */\n    tag_42:\n        /* \"#utility.yul\":7838:7915   */\n      0x4e487b7100000000000000000000000000000000000000000000000000000000\n        /* \"#utility.yul\":7835:7836   */\n      0x00\n        /* \"#utility.yul\":7828:7916   */\n      mstore\n        /* \"#utility.yul\":7935:7939   */\n      0x21\n        /* \"#utility.yul\":7932:7933   */\n      0x04\n        /* \"#utility.yul\":7925:7940   */\n      mstore\n        /* \"#utility.yul\":7959:7963   */\n      0x24\n        /* \"#utility.yul\":7956:7957   */\n      0x00\n        /* \"#utility.yul\":7949:7964   */\n      revert\n        /* \"#utility.yul\":7976:8093   */\n    tag_179:\n        /* \"#utility.yul\":8061:8062   */\n      0x04\n        /* \"#utility.yul\":8054:8059   */\n      dup2\n        /* \"#utility.yul\":8051:8063   */\n      lt\n        /* \"#utility.yul\":8041:8087   */\n      tag_300\n      jumpi\n        /* \"#utility.yul\":8067:8085   */\n      tag_301\n      tag_42\n      jump\t// in\n    tag_301:\n        /* \"#utility.yul\":8041:8087   */\n    tag_300:\n        /* \"#utility.yul\":7976:8093   */\n      pop\n      jump\t// out\n        /* \"#utility.yul\":8099:8234   */\n    tag_180:\n        /* \"#utility.yul\":8148:8155   */\n      0x00\n        /* \"#utility.yul\":8177:8182   */\n      dup2\n        /* \"#utility.yul\":8166:8182   */\n      swap1\n      pop\n        /* \"#utility.yul\":8183:8228   */\n      tag_303\n        /* \"#utility.yul\":8222:8227   */\n      dup3\n        /* \"#utility.yul\":8183:8228   */\n      tag_179\n      jump\t// in\n    tag_303:\n        /* \"#utility.yul\":8099:8234   */\n      swap2\n      swap1\n      pop\n      jump\t// out\n        /* \"#utility.yul\":8240:8375   */\n    tag_181:\n        /* \"#utility.yul\":8300:8309   */\n      0x00\n        /* \"#utility.yul\":8333:8369   */\n      tag_305\n        /* \"#utility.yul\":8363:8368   */\n      dup3\n        /* \"#utility.yul\":8333:8369   */\n      tag_180\n      jump\t// in\n    tag_305:\n        /* \"#utility.yul\":8320:8369   */\n      swap1\n      pop\n        /* \"#utility.yul\":8240:8375   */\n      swap2\n      swap1\n      pop\n      jump\t// out\n        /* \"#utility.yul\":8381:8532   */\n    tag_182:\n        /* \"#utility.yul\":8478:8525   */\n      tag_307\n        /* \"#utility.yul\":8519:8524   */\n      dup2\n        /* \"#utility.yul\":8478:8525   */\n      tag_181\n      jump\t// in\n    tag_307:\n        /* \"#utility.yul\":8473:8476   */\n      dup3\n        /* \"#utility.yul\":8466:8526   */\n      mstore\n        /* \"#utility.yul\":8381:8532   */\n      pop\n      pop\n      jump\t// out\n        /* \"#utility.yul\":8538:8652   */\n    tag_183:\n        /* \"#utility.yul\":8620:8621   */\n      0x04\n        /* \"#utility.yul\":8613:8618   */\n      dup2\n        /* \"#utility.yul\":8610:8622   */\n      lt\n        /* \"#utility.yul\":8600:8646   */\n      tag_309\n      jumpi\n        /* \"#utility.yul\":8626:8644   */\n      tag_310\n      tag_42\n      jump\t// in\n    tag_310:\n        /* \"#utility.yul\":8600:8646   */\n    tag_309:\n        /* \"#utility.yul\":8538:8652   */\n      pop\n      jump\t// out\n        /* \"#utility.yul\":8658:8787   */\n    tag_184:\n        /* \"#utility.yul\":8704:8711   */\n      0x00\n        /* \"#utility.yul\":8733:8738   */\n      dup2\n        /* \"#utility.yul\":8722:8738   */\n      swap1\n      pop\n        /* \"#utility.yul\":8739:8781   */\n      tag_312\n        /* \"#utility.yul\":8775:8780   */\n      dup3\n        /* \"#utility.yul\":8739:8781   */\n      tag_183\n      jump\t// in\n    tag_312:\n        /* \"#utility.yul\":8658:8787   */\n      swap2\n      swap1\n      pop\n      jump\t// out\n        /* \"#utility.yul\":8793:8922   */\n    tag_185:\n        /* \"#utility.yul\":8850:8859   */\n      0x00\n        /* \"#utility.yul\":8883:8916   */\n      tag_314\n        /* \"#utility.yul\":8910:8915   */\n      dup3\n        /* \"#utility.yul\":8883:8916   */\n      tag_184\n      jump\t// in\n    tag_314:\n        /* \"#utility.yul\":8870:8916   */\n      swap1\n      pop\n        /* \"#utility.yul\":8793:8922   */\n      swap2\n      swap1\n      pop\n      jump\t// out\n        /* \"#utility.yul\":8928:9073   */\n    tag_186:\n        /* \"#utility.yul\":9022:9066   */\n      tag_316\n        /* \"#utility.yul\":9060:9065   */\n      dup2\n        /* \"#utility.yul\":9022:9066   */\n      tag_185\n      jump\t// in\n    tag_316:\n        /* \"#utility.yul\":9017:9020   */\n      dup3\n        /* \"#utility.yul\":9010:9067   */\n      mstore\n        /* \"#utility.yul\":8928:9073   */\n      pop\n      pop\n      jump\t// out\n        /* \"#utility.yul\":9079:9979   */\n    tag_27:\n        /* \"#utility.yul\":9349:9353   */\n      0x00\n        /* \"#utility.yul\":9387:9390   */\n      0xc0\n        /* \"#utility.yul\":9376:9385   */\n      dup3\n        /* \"#utility.yul\":9372:9391   */\n      add\n        /* \"#utility.yul\":9364:9391   */\n      swap1\n      pop\n        /* \"#utility.yul\":9437:9446   */\n      dup2\n        /* \"#utility.yul\":9431:9435   */\n      dup2\n        /* \"#utility.yul\":9427:9447   */\n      sub\n        /* \"#utility.yul\":9423:9424   */\n      0x00\n        /* \"#utility.yul\":9412:9421   */\n      dup4\n        /* \"#utility.yul\":9408:9425   */\n      add\n        /* \"#utility.yul\":9401:9448   */\n      mstore\n        /* \"#utility.yul\":9465:9543   */\n      tag_318\n        /* \"#utility.yul\":9538:9542   */\n      dup2\n        /* \"#utility.yul\":9529:9535   */\n      dup10\n        /* \"#utility.yul\":9465:9543   */\n      tag_178\n      jump\t// in\n    tag_318:\n        /* \"#utility.yul\":9457:9543   */\n      swap1\n      pop\n        /* \"#utility.yul\":9553:9625   */\n      tag_319\n        /* \"#utility.yul\":9621:9623   */\n      0x20\n        /* \"#utility.yul\":9610:9619   */\n      dup4\n        /* \"#utility.yul\":9606:9624   */\n      add\n        /* \"#utility.yul\":9597:9603   */\n      dup9\n        /* \"#utility.yul\":9553:9625   */\n      tag_174\n      jump\t// in\n    tag_319:\n        /* \"#utility.yul\":9635:9707   */\n      tag_320\n        /* \"#utility.yul\":9703:9705   */\n      0x40\n        /* \"#utility.yul\":9692:9701   */\n      dup4\n        /* \"#utility.yul\":9688:9706   */\n      add\n        /* \"#utility.yul\":9679:9685   */\n      dup8\n        /* \"#utility.yul\":9635:9707   */\n      tag_174\n      jump\t// in\n    tag_320:\n        /* \"#utility.yul\":9717:9799   */\n      tag_321\n        /* \"#utility.yul\":9795:9797   */\n      0x60\n        /* \"#utility.yul\":9784:9793   */\n      dup4\n        /* \"#utility.yul\":9780:9798   */\n      add\n        /* \"#utility.yul\":9771:9777   */\n      dup7\n        /* \"#utility.yul\":9717:9799   */\n      tag_182\n      jump\t// in\n    tag_321:\n        /* \"#utility.yul\":9809:9889   */\n      tag_322\n        /* \"#utility.yul\":9884:9887   */\n      0x80\n        /* \"#utility.yul\":9873:9882   */\n      dup4\n        /* \"#utility.yul\":9869:9888   */\n      add\n        /* \"#utility.yul\":9860:9866   */\n      dup6\n        /* \"#utility.yul\":9809:9889   */\n      tag_186\n      jump\t// in\n    tag_322:\n        /* \"#utility.yul\":9899:9972   */\n      tag_323\n        /* \"#utility.yul\":9967:9970   */\n      0xa0\n        /* \"#utility.yul\":9956:9965   */\n      dup4\n        /* \"#utility.yul\":9952:9971   */\n      add\n        /* \"#utility.yul\":9943:9949   */\n      dup5\n        /* \"#utility.yul\":9899:9972   */\n      tag_174\n      jump\t// in\n    tag_323:\n        /* \"#utility.yul\":9079:9979   */\n      swap8\n      swap7\n      pop\n      pop\n      pop\n      pop\n      pop\n      pop\n      pop\n      jump\t// out\n        /* \"#utility.yul\":9985:10338   */\n    tag_30:\n        /* \"#utility.yul\":10056:10062   */\n      0x00\n        /* \"#utility.yul\":10105:10107   */\n      0x20\n        /* \"#utility.yul\":10093:10102   */\n      dup3\n        /* \"#utility.yul\":10084:10091   */\n      dup5\n        /* \"#utility.yul\":10080:10103   */\n      sub\n        /* \"#utility.yul\":10076:10108   */\n      slt\n        /* \"#utility.yul\":10073:10192   */\n      iszero\n      tag_325\n      jumpi\n        /* \"#utility.yul\":10111:10190   */\n      tag_326\n      tag_155\n      jump\t// in\n    tag_326:\n        /* \"#utility.yul\":10073:10192   */\n    tag_325:\n        /* \"#utility.yul\":10231:10232   */\n      0x00\n        /* \"#utility.yul\":10256:10321   */\n      tag_327\n        /* \"#utility.yul\":10313:10320   */\n      dup5\n        /* \"#utility.yul\":10304:10310   */\n      dup3\n        /* \"#utility.yul\":10293:10302   */\n      dup6\n        /* \"#utility.yul\":10289:10311   */\n      add\n        /* \"#utility.yul\":10256:10321   */\n      tag_171\n      jump\t// in\n    tag_327:\n        /* \"#utility.yul\":10246:10321   */\n      swap2\n      pop\n        /* \"#utility.yul\":10202:10331   */\n      pop\n        /* \"#utility.yul\":9985:10338   */\n      swap3\n      swap2\n      pop\n      pop\n      jump\t// out\n        /* \"#utility.yul\":10344:10503   */\n    tag_187:\n        /* \"#utility.yul\":10418:10429   */\n      0x00\n        /* \"#utility.yul\":10452:10458   */\n      dup3\n        /* \"#utility.yul\":10447:10450   */\n      dup3\n        /* \"#utility.yul\":10440:10459   */\n      mstore\n        /* \"#utility.yul\":10492:10496   */\n      0x20\n        /* \"#utility.yul\":10487:10490   */\n      dup3\n        /* \"#utility.yul\":10483:10497   */\n      add\n        /* \"#utility.yul\":10468:10497   */\n      swap1\n      pop\n        /* \"#utility.yul\":10344:10503   */\n      swap3\n      swap2\n      pop\n      pop\n      jump\t// out\n        /* \"#utility.yul\":10509:10866   */\n    tag_188:\n        /* \"#utility.yul\":10587:10590   */\n      0x00\n        /* \"#utility.yul\":10615:10654   */\n      tag_330\n        /* \"#utility.yul\":10648:10653   */\n      dup3\n        /* \"#utility.yul\":10615:10654   */\n      tag_175\n      jump\t// in\n    tag_330:\n        /* \"#utility.yul\":10670:10731   */\n      tag_331\n        /* \"#utility.yul\":10724:10730   */\n      dup2\n        /* \"#utility.yul\":10719:10722   */\n      dup6\n        /* \"#utility.yul\":10670:10731   */\n      tag_187\n      jump\t// in\n    tag_331:\n        /* \"#utility.yul\":10663:10731   */\n      swap4\n      pop\n        /* \"#utility.yul\":10740:10805   */\n      tag_332\n        /* \"#utility.yul\":10798:10804   */\n      dup2\n        /* \"#utility.yul\":10793:10796   */\n      dup6\n        /* \"#utility.yul\":10786:10790   */\n      0x20\n        /* \"#utility.yul\":10779:10784   */\n      dup7\n        /* \"#utility.yul\":10775:10791   */\n      add\n        /* \"#utility.yul\":10740:10805   */\n      tag_177\n      jump\t// in\n    tag_332:\n        /* \"#utility.yul\":10830:10859   */\n      tag_333\n        /* \"#utility.yul\":10852:10858   */\n      dup2\n        /* \"#utility.yul\":10830:10859   */\n      tag_159\n      jump\t// in\n    tag_333:\n        /* \"#utility.yul\":10825:10828   */\n      dup5\n        /* \"#utility.yul\":10821:10860   */\n      add\n        /* \"#utility.yul\":10814:10860   */\n      swap2\n      pop\n        /* \"#utility.yul\":10591:10866   */\n      pop\n        /* \"#utility.yul\":10509:10866   */\n      swap3\n      swap2\n      pop\n      pop\n      jump\t// out\n        /* \"#utility.yul\":10872:10980   */\n    tag_189:\n        /* \"#utility.yul\":10949:10973   */\n      tag_335\n        /* \"#utility.yul\":10967:10972   */\n      dup2\n        /* \"#utility.yul\":10949:10973   */\n      tag_167\n      jump\t// in\n    tag_335:\n        /* \"#utility.yul\":10944:10947   */\n      dup3\n        /* \"#utility.yul\":10937:10974   */\n      mstore\n        /* \"#utility.yul\":10872:10980   */\n      pop\n      pop\n      jump\t// out\n        /* \"#utility.yul\":10986:11127   */\n    tag_190:\n        /* \"#utility.yul\":11073:11120   */\n      tag_337\n        /* \"#utility.yul\":11114:11119   */\n      dup2\n        /* \"#utility.yul\":11073:11120   */\n      tag_181\n      jump\t// in\n    tag_337:\n        /* \"#utility.yul\":11068:11071   */\n      dup3\n        /* \"#utility.yul\":11061:11121   */\n      mstore\n        /* \"#utility.yul\":10986:11127   */\n      pop\n      pop\n      jump\t// out\n        /* \"#utility.yul\":11133:11268   */\n    tag_191:\n        /* \"#utility.yul\":11217:11261   */\n      tag_339\n        /* \"#utility.yul\":11255:11260   */\n      dup2\n        /* \"#utility.yul\":11217:11261   */\n      tag_185\n      jump\t// in\n    tag_339:\n        /* \"#utility.yul\":11212:11215   */\n      dup3\n        /* \"#utility.yul\":11205:11262   */\n      mstore\n        /* \"#utility.yul\":11133:11268   */\n      pop\n      pop\n      jump\t// out\n        /* \"#utility.yul\":11366:12697   */\n    tag_192:\n        /* \"#utility.yul\":11481:11484   */\n      0x00\n        /* \"#utility.yul\":11517:11521   */\n      0xc0\n        /* \"#utility.yul\":11512:11515   */\n      dup4\n        /* \"#utility.yul\":11508:11522   */\n      add\n        /* \"#utility.yul\":11604:11608   */\n      0x00\n        /* \"#utility.yul\":11597:11602   */\n      dup4\n        /* \"#utility.yul\":11593:11609   */\n      add\n        /* \"#utility.yul\":11587:11610   */\n      mload\n        /* \"#utility.yul\":11657:11660   */\n      dup5\n        /* \"#utility.yul\":11651:11655   */\n      dup3\n        /* \"#utility.yul\":11647:11661   */\n      sub\n        /* \"#utility.yul\":11640:11644   */\n      0x00\n        /* \"#utility.yul\":11635:11638   */\n      dup7\n        /* \"#utility.yul\":11631:11645   */\n      add\n        /* \"#utility.yul\":11624:11662   */\n      mstore\n        /* \"#utility.yul\":11683:11756   */\n      tag_341\n        /* \"#utility.yul\":11751:11755   */\n      dup3\n        /* \"#utility.yul\":11737:11749   */\n      dup3\n        /* \"#utility.yul\":11683:11756   */\n      tag_188\n      jump\t// in\n    tag_341:\n        /* \"#utility.yul\":11675:11756   */\n      swap2\n      pop\n        /* \"#utility.yul\":11532:11767   */\n      pop\n        /* \"#utility.yul\":11848:11852   */\n      0x20\n        /* \"#utility.yul\":11841:11846   */\n      dup4\n        /* \"#utility.yul\":11837:11853   */\n      add\n        /* \"#utility.yul\":11831:11854   */\n      mload\n        /* \"#utility.yul\":11867:11930   */\n      tag_342\n        /* \"#utility.yul\":11924:11928   */\n      0x20\n        /* \"#utility.yul\":11919:11922   */\n      dup7\n        /* \"#utility.yul\":11915:11929   */\n      add\n        /* \"#utility.yul\":11901:11913   */\n      dup3\n        /* \"#utility.yul\":11867:11930   */\n      tag_189\n      jump\t// in\n    tag_342:\n        /* \"#utility.yul\":11777:11940   */\n      pop\n        /* \"#utility.yul\":12022:12026   */\n      0x40\n        /* \"#utility.yul\":12015:12020   */\n      dup4\n        /* \"#utility.yul\":12011:12027   */\n      add\n        /* \"#utility.yul\":12005:12028   */\n      mload\n        /* \"#utility.yul\":12041:12104   */\n      tag_343\n        /* \"#utility.yul\":12098:12102   */\n      0x40\n        /* \"#utility.yul\":12093:12096   */\n      dup7\n        /* \"#utility.yul\":12089:12103   */\n      add\n        /* \"#utility.yul\":12075:12087   */\n      dup3\n        /* \"#utility.yul\":12041:12104   */\n      tag_189\n      jump\t// in\n    tag_343:\n        /* \"#utility.yul\":11950:12114   */\n      pop\n        /* \"#utility.yul\":12202:12206   */\n      0x60\n        /* \"#utility.yul\":12195:12200   */\n      dup4\n        /* \"#utility.yul\":12191:12207   */\n      add\n        /* \"#utility.yul\":12185:12208   */\n      mload\n        /* \"#utility.yul\":12221:12294   */\n      tag_344\n        /* \"#utility.yul\":12288:12292   */\n      0x60\n        /* \"#utility.yul\":12283:12286   */\n      dup7\n        /* \"#utility.yul\":12279:12293   */\n      add\n        /* \"#utility.yul\":12265:12277   */\n      dup3\n        /* \"#utility.yul\":12221:12294   */\n      tag_190\n      jump\t// in\n    tag_344:\n        /* \"#utility.yul\":12124:12304   */\n      pop\n        /* \"#utility.yul\":12388:12392   */\n      0x80\n        /* \"#utility.yul\":12381:12386   */\n      dup4\n        /* \"#utility.yul\":12377:12393   */\n      add\n        /* \"#utility.yul\":12371:12394   */\n      mload\n        /* \"#utility.yul\":12407:12477   */\n      tag_345\n        /* \"#utility.yul\":12471:12475   */\n      0x80\n        /* \"#utility.yul\":12466:12469   */\n      dup7\n        /* \"#utility.yul\":12462:12476   */\n      add\n        /* \"#utility.yul\":12448:12460   */\n      dup3\n        /* \"#utility.yul\":12407:12477   */\n      tag_191\n      jump\t// in\n    tag_345:\n        /* \"#utility.yul\":12314:12487   */\n      pop\n        /* \"#utility.yul\":12578:12582   */\n      0xa0\n        /* \"#utility.yul\":12571:12576   */\n      dup4\n        /* \"#utility.yul\":12567:12583   */\n      add\n        /* \"#utility.yul\":12561:12584   */\n      mload\n        /* \"#utility.yul\":12597:12660   */\n      tag_346\n        /* \"#utility.yul\":12654:12658   */\n      0xa0\n        /* \"#utility.yul\":12649:12652   */\n      dup7\n        /* \"#utility.yul\":12645:12659   */\n      add\n        /* \"#utility.yul\":12631:12643   */\n      dup3\n        /* \"#utility.yul\":12597:12660   */\n      tag_189\n      jump\t// in\n    tag_346:\n        /* \"#utility.yul\":12497:12670   */\n      pop\n        /* \"#utility.yul\":12687:12691   */\n      dup1\n        /* \"#utility.yul\":12680:12691   */\n      swap2\n      pop\n        /* \"#utility.yul\":11486:12697   */\n      pop\n        /* \"#utility.yul\":11366:12697   */\n      swap3\n      swap2\n      pop\n      pop\n      jump\t// out\n        /* \"#utility.yul\":12703:13574   */\n    tag_36:\n        /* \"#utility.yul\":12990:12994   */\n      0x00\n        /* \"#utility.yul\":13028:13030   */\n      0x60\n        /* \"#utility.yul\":13017:13026   */\n      dup3\n        /* \"#utility.yul\":13013:13031   */\n      add\n        /* \"#utility.yul\":13005:13031   */\n      swap1\n      pop\n        /* \"#utility.yul\":13077:13086   */\n      dup2\n        /* \"#utility.yul\":13071:13075   */\n      dup2\n        /* \"#utility.yul\":13067:13087   */\n      sub\n        /* \"#utility.yul\":13063:13064   */\n      0x00\n        /* \"#utility.yul\":13052:13061   */\n      dup4\n        /* \"#utility.yul\":13048:13065   */\n      add\n        /* \"#utility.yul\":13041:13088   */\n      mstore\n        /* \"#utility.yul\":13105:13209   */\n      tag_348\n        /* \"#utility.yul\":13204:13208   */\n      dup2\n        /* \"#utility.yul\":13195:13201   */\n      dup7\n        /* \"#utility.yul\":13105:13209   */\n      tag_192\n      jump\t// in\n    tag_348:\n        /* \"#utility.yul\":13097:13209   */\n      swap1\n      pop\n        /* \"#utility.yul\":13256:13265   */\n      dup2\n        /* \"#utility.yul\":13250:13254   */\n      dup2\n        /* \"#utility.yul\":13246:13266   */\n      sub\n        /* \"#utility.yul\":13241:13243   */\n      0x20\n        /* \"#utility.yul\":13230:13239   */\n      dup4\n        /* \"#utility.yul\":13226:13244   */\n      add\n        /* \"#utility.yul\":13219:13267   */\n      mstore\n        /* \"#utility.yul\":13284:13388   */\n      tag_349\n        /* \"#utility.yul\":13383:13387   */\n      dup2\n        /* \"#utility.yul\":13374:13380   */\n      dup6\n        /* \"#utility.yul\":13284:13388   */\n      tag_192\n      jump\t// in\n    tag_349:\n        /* \"#utility.yul\":13276:13388   */\n      swap1\n      pop\n        /* \"#utility.yul\":13435:13444   */\n      dup2\n        /* \"#utility.yul\":13429:13433   */\n      dup2\n        /* \"#utility.yul\":13425:13445   */\n      sub\n        /* \"#utility.yul\":13420:13422   */\n      0x40\n        /* \"#utility.yul\":13409:13418   */\n      dup4\n        /* \"#utility.yul\":13405:13423   */\n      add\n        /* \"#utility.yul\":13398:13446   */\n      mstore\n        /* \"#utility.yul\":13463:13567   */\n      tag_350\n        /* \"#utility.yul\":13562:13566   */\n      dup2\n        /* \"#utility.yul\":13553:13559   */\n      dup5\n        /* \"#utility.yul\":13463:13567   */\n      tag_192\n      jump\t// in\n    tag_350:\n        /* \"#utility.yul\":13455:13567   */\n      swap1\n      pop\n        /* \"#utility.yul\":12703:13574   */\n      swap5\n      swap4\n      pop\n      pop\n      pop\n      pop\n      jump\t// out\n        /* \"#utility.yul\":13580:13760   */\n    tag_193:\n        /* \"#utility.yul\":13628:13705   */\n      0x4e487b7100000000000000000000000000000000000000000000000000000000\n        /* \"#utility.yul\":13625:13626   */\n      0x00\n        /* \"#utility.yul\":13618:13706   */\n      mstore\n        /* \"#utility.yul\":13725:13729   */\n      0x11\n        /* \"#utility.yul\":13722:13723   */\n      0x04\n        /* \"#utility.yul\":13715:13730   */\n      mstore\n        /* \"#utility.yul\":13749:13753   */\n      0x24\n        /* \"#utility.yul\":13746:13747   */\n      0x00\n        /* \"#utility.yul\":13739:13754   */\n      revert\n        /* \"#utility.yul\":13766:13957   */\n    tag_39:\n        /* \"#utility.yul\":13806:13809   */\n      0x00\n        /* \"#utility.yul\":13825:13845   */\n      tag_353\n        /* \"#utility.yul\":13843:13844   */\n      dup3\n        /* \"#utility.yul\":13825:13845   */\n      tag_167\n      jump\t// in\n    tag_353:\n        /* \"#utility.yul\":13820:13845   */\n      swap2\n      pop\n        /* \"#utility.yul\":13859:13879   */\n      tag_354\n        /* \"#utility.yul\":13877:13878   */\n      dup4\n        /* \"#utility.yul\":13859:13879   */\n      tag_167\n      jump\t// in\n    tag_354:\n        /* \"#utility.yul\":13854:13879   */\n      swap3\n      pop\n        /* \"#utility.yul\":13902:13903   */\n      dup3\n        /* \"#utility.yul\":13899:13900   */\n      dup3\n        /* \"#utility.yul\":13895:13904   */\n      add\n        /* \"#utility.yul\":13888:13904   */\n      swap1\n      pop\n        /* \"#utility.yul\":13923:13926   */\n      dup1\n        /* \"#utility.yul\":13920:13921   */\n      dup3\n        /* \"#utility.yul\":13917:13927   */\n      gt\n        /* \"#utility.yul\":13914:13950   */\n      iszero\n      tag_355\n      jumpi\n        /* \"#utility.yul\":13930:13948   */\n      tag_356\n      tag_193\n      jump\t// in\n    tag_356:\n        /* \"#utility.yul\":13914:13950   */\n    tag_355:\n        /* \"#utility.yul\":13766:13957   */\n      swap3\n      swap2\n      pop\n      pop\n      jump\t// out\n        /* \"#utility.yul\":13963:14143   */\n    tag_194:\n        /* \"#utility.yul\":14011:14088   */\n      0x4e487b7100000000000000000000000000000000000000000000000000000000\n        /* \"#utility.yul\":14008:14009   */\n      0x00\n        /* \"#utility.yul\":14001:14089   */\n      mstore\n        /* \"#utility.yul\":14108:14112   */\n      0x22\n        /* \"#utility.yul\":14105:14106   */\n      0x04\n        /* \"#utility.yul\":14098:14113   */\n      mstore\n        /* \"#utility.yul\":14132:14136   */\n      0x24\n        /* \"#utility.yul\":14129:14130   */\n      0x00\n        /* \"#utility.yul\":14122:14137   */\n      revert\n        /* \"#utility.yul\":14149:14469   */\n    tag_71:\n        /* \"#utility.yul\":14193:14199   */\n      0x00\n        /* \"#utility.yul\":14230:14231   */\n      0x02\n        /* \"#utility.yul\":14224:14228   */\n      dup3\n        /* \"#utility.yul\":14220:14232   */\n      div\n        /* \"#utility.yul\":14210:14232   */\n      swap1\n      pop\n        /* \"#utility.yul\":14277:14278   */\n      0x01\n        /* \"#utility.yul\":14271:14275   */\n      dup3\n        /* \"#utility.yul\":14267:14279   */\n      and\n        /* \"#utility.yul\":14298:14316   */\n      dup1\n        /* \"#utility.yul\":14288:14369   */\n      tag_359\n      jumpi\n        /* \"#utility.yul\":14354:14358   */\n      0x7f\n        /* \"#utility.yul\":14346:14352   */\n      dup3\n        /* \"#utility.yul\":14342:14359   */\n      and\n        /* \"#utility.yul\":14332:14359   */\n      swap2\n      pop\n        /* \"#utility.yul\":14288:14369   */\n    tag_359:\n        /* \"#utility.yul\":14416:14418   */\n      0x20\n        /* \"#utility.yul\":14408:14414   */\n      dup3\n        /* \"#utility.yul\":14405:14419   */\n      lt\n        /* \"#utility.yul\":14385:14403   */\n      dup2\n        /* \"#utility.yul\":14382:14420   */\n      sub\n        /* \"#utility.yul\":14379:14463   */\n      tag_360\n      jumpi\n        /* \"#utility.yul\":14435:14453   */\n      tag_361\n      tag_194\n      jump\t// in\n    tag_361:\n        /* \"#utility.yul\":14379:14463   */\n    tag_360:\n        /* \"#utility.yul\":14200:14469   */\n      pop\n        /* \"#utility.yul\":14149:14469   */\n      swap2\n      swap1\n      pop\n      jump\t// out\n        /* \"#utility.yul\":14475:14616   */\n    tag_195:\n        /* \"#utility.yul\":14524:14528   */\n      0x00\n        /* \"#utility.yul\":14547:14550   */\n      dup2\n        /* \"#utility.yul\":14539:14550   */\n      swap1\n      pop\n        /* \"#utility.yul\":14570:14573   */\n      dup2\n        /* \"#utility.yul\":14567:14568   */\n      0x00\n        /* \"#utility.yul\":14560:14574   */\n      mstore\n        /* \"#utility.yul\":14604:14608   */\n      0x20\n        /* \"#utility.yul\":14601:14602   */\n      0x00\n        /* \"#utility.yul\":14591:14609   */\n      keccak256\n        /* \"#utility.yul\":14583:14609   */\n      swap1\n      pop\n        /* \"#utility.yul\":14475:14616   */\n      swap2\n      swap1\n      pop\n      jump\t// out\n        /* \"#utility.yul\":14622:14715   */\n    tag_196:\n        /* \"#utility.yul\":14659:14665   */\n      0x00\n        /* \"#utility.yul\":14706:14708   */\n      0x20\n        /* \"#utility.yul\":14701:14703   */\n      0x1f\n        /* \"#utility.yul\":14694:14699   */\n      dup4\n        /* \"#utility.yul\":14690:14704   */\n      add\n        /* \"#utility.yul\":14686:14709   */\n      div\n        /* \"#utility.yul\":14676:14709   */\n      swap1\n      pop\n        /* \"#utility.yul\":14622:14715   */\n      swap2\n      swap1\n      pop\n      jump\t// out\n        /* \"#utility.yul\":14721:14828   */\n    tag_197:\n        /* \"#utility.yul\":14765:14773   */\n      0x00\n        /* \"#utility.yul\":14815:14820   */\n      dup3\n        /* \"#utility.yul\":14809:14813   */\n      dup3\n        /* \"#utility.yul\":14805:14821   */\n      shl\n        /* \"#utility.yul\":14784:14821   */\n      swap1\n      pop\n        /* \"#utility.yul\":14721:14828   */\n      swap3\n      swap2\n      pop\n      pop\n      jump\t// out\n        /* \"#utility.yul\":14834:15227   */\n    tag_198:\n        /* \"#utility.yul\":14903:14909   */\n      0x00\n        /* \"#utility.yul\":14953:14954   */\n      0x08\n        /* \"#utility.yul\":14941:14951   */\n      dup4\n        /* \"#utility.yul\":14937:14955   */\n      mul\n        /* \"#utility.yul\":14976:15073   */\n      tag_366\n        /* \"#utility.yul\":15006:15072   */\n      0xffffffffffffffffffffffffffffffffffffffffffffffffffffffffffffffff\n        /* \"#utility.yul\":14995:15004   */\n      dup3\n        /* \"#utility.yul\":14976:15073   */\n      tag_197\n      jump\t// in\n    tag_366:\n        /* \"#utility.yul\":15094:15133   */\n      tag_367\n        /* \"#utility.yul\":15124:15132   */\n      dup7\n        /* \"#utility.yul\":15113:15122   */\n      dup4\n        /* \"#utility.yul\":15094:15133   */\n      tag_197\n      jump\t// in\n    tag_367:\n        /* \"#utility.yul\":15082:15133   */\n      swap6\n      pop\n        /* \"#utility.yul\":15166:15170   */\n      dup1\n        /* \"#utility.yul\":15162:15171   */\n      not\n        /* \"#utility.yul\":15155:15160   */\n      dup5\n        /* \"#utility.yul\":15151:15172   */\n      and\n        /* \"#utility.yul\":15142:15172   */\n      swap4\n      pop\n        /* \"#utility.yul\":15215:15219   */\n      dup1\n        /* \"#utility.yul\":15205:15213   */\n      dup7\n        /* \"#utility.yul\":15201:15220   */\n      and\n        /* \"#utility.yul\":15194:15199   */\n      dup5\n        /* \"#utility.yul\":15191:15221   */\n      or\n        /* \"#utility.yul\":15181:15221   */\n      swap3\n      pop\n        /* \"#utility.yul\":14910:15227   */\n      pop\n      pop\n        /* \"#utility.yul\":14834:15227   */\n      swap4\n      swap3\n      pop\n      pop\n      pop\n      jump\t// out\n        /* \"#utility.yul\":15233:15293   */\n    tag_199:\n        /* \"#utility.yul\":15261:15264   */\n      0x00\n        /* \"#utility.yul\":15282:15287   */\n      dup2\n        /* \"#utility.yul\":15275:15287   */\n      swap1\n      pop\n        /* \"#utility.yul\":15233:15293   */\n      swap2\n      swap1\n      pop\n      jump\t// out\n        /* \"#utility.yul\":15299:15441   */\n    tag_200:\n        /* \"#utility.yul\":15349:15358   */\n      0x00\n        /* \"#utility.yul\":15382:15435   */\n      tag_370\n        /* \"#utility.yul\":15400:15434   */\n      tag_371\n        /* \"#utility.yul\":15409:15433   */\n      tag_372\n        /* \"#utility.yul\":15427:15432   */\n      dup5\n        /* \"#utility.yul\":15409:15433   */\n      tag_167\n      jump\t// in\n    tag_372:\n        /* \"#utility.yul\":15400:15434   */\n      tag_199\n      jump\t// in\n    tag_371:\n        /* \"#utility.yul\":15382:15435   */\n      tag_167\n      jump\t// in\n    tag_370:\n        /* \"#utility.yul\":15369:15435   */\n      swap1\n      pop\n        /* \"#utility.yul\":15299:15441   */\n      swap2\n      swap1\n      pop\n      jump\t// out\n        /* \"#utility.yul\":15447:15522   */\n    tag_201:\n        /* \"#utility.yul\":15490:15493   */\n      0x00\n        /* \"#utility.yul\":15511:15516   */\n      dup2\n        /* \"#utility.yul\":15504:15516   */\n      swap1\n      pop\n        /* \"#utility.yul\":15447:15522   */\n      swap2\n      swap1\n      pop\n      jump\t// out\n        /* \"#utility.yul\":15528:15797   */\n    tag_202:\n        /* \"#utility.yul\":15638:15677   */\n      tag_375\n        /* \"#utility.yul\":15669:15676   */\n      dup4\n        /* \"#utility.yul\":15638:15677   */\n      tag_200\n      jump\t// in\n    tag_375:\n        /* \"#utility.yul\":15699:15790   */\n      tag_376\n        /* \"#utility.yul\":15748:15789   */\n      tag_377\n        /* \"#utility.yul\":15772:15788   */\n      dup3\n        /* \"#utility.yul\":15748:15789   */\n      tag_201\n      jump\t// in\n    tag_377:\n        /* \"#utility.yul\":15740:15746   */\n      dup5\n        /* \"#utility.yul\":15733:15737   */\n      dup5\n        /* \"#utility.yul\":15727:15738   */\n      sload\n        /* \"#utility.yul\":15699:15790   */\n      tag_198\n      jump\t// in\n    tag_376:\n        /* \"#utility.yul\":15693:15697   */\n      dup3\n        /* \"#utility.yul\":15686:15791   */\n      sstore\n        /* \"#utility.yul\":15604:15797   */\n      pop\n        /* \"#utility.yul\":15528:15797   */\n      pop\n      pop\n      pop\n      jump\t// out\n        /* \"#utility.yul\":15803:15876   */\n    tag_203:\n        /* \"#utility.yul\":15848:15851   */\n      0x00\n        /* \"#utility.yul\":15803:15876   */\n      swap1\n      jump\t// out\n        /* \"#utility.yul\":15882:16071   */\n    tag_204:\n        /* \"#utility.yul\":15959:15991   */\n      tag_380\n      tag_203\n      jump\t// in\n    tag_380:\n        /* \"#utility.yul\":16000:16065   */\n      tag_381\n        /* \"#utility.yul\":16058:16064   */\n      dup2\n        /* \"#utility.yul\":16050:16056   */\n      dup5\n        /* \"#utility.yul\":16044:16048   */\n      dup5\n        /* \"#utility.yul\":16000:16065   */\n      tag_202\n      jump\t// in\n    tag_381:\n        /* \"#utility.yul\":15935:16071   */\n      pop\n        /* \"#utility.yul\":15882:16071   */\n      pop\n      pop\n      jump\t// out\n        /* \"#utility.yul\":16077:16263   */\n    tag_205:\n        /* \"#utility.yul\":16137:16257   */\n    tag_383:\n        /* \"#utility.yul\":16154:16157   */\n      dup2\n        /* \"#utility.yul\":16147:16152   */\n      dup2\n        /* \"#utility.yul\":16144:16158   */\n      lt\n        /* \"#utility.yul\":16137:16257   */\n      iszero\n      tag_385\n      jumpi\n        /* \"#utility.yul\":16208:16247   */\n      tag_386\n        /* \"#utility.yul\":16245:16246   */\n      0x00\n        /* \"#utility.yul\":16238:16243   */\n      dup3\n        /* \"#utility.yul\":16208:16247   */\n      tag_204\n      jump\t// in\n    tag_386:\n        /* \"#utility.yul\":16181:16182   */\n      0x01\n        /* \"#utility.yul\":16174:16179   */\n      dup2\n        /* \"#utility.yul\":16170:16183   */\n      add\n        /* \"#utility.yul\":16161:16183   */\n      swap1\n      pop\n        /* \"#utility.yul\":16137:16257   */\n      jump(tag_383)\n    tag_385:\n        /* \"#utility.yul\":16077:16263   */\n      pop\n      pop\n      jump\t// out\n        /* \"#utility.yul\":16269:16812   */\n    tag_206:\n        /* \"#utility.yul\":16370:16372   */\n      0x1f\n        /* \"#utility.yul\":16365:16368   */\n      dup3\n        /* \"#utility.yul\":16362:16373   */\n      gt\n        /* \"#utility.yul\":16359:16805   */\n      iszero\n      tag_388\n      jumpi\n        /* \"#utility.yul\":16404:16442   */\n      tag_389\n        /* \"#utility.yul\":16436:16441   */\n      dup2\n        /* \"#utility.yul\":16404:16442   */\n      tag_195\n      jump\t// in\n    tag_389:\n        /* \"#utility.yul\":16488:16517   */\n      tag_390\n        /* \"#utility.yul\":16506:16516   */\n      dup5\n        /* \"#utility.yul\":16488:16517   */\n      tag_196\n      jump\t// in\n    tag_390:\n        /* \"#utility.yul\":16478:16486   */\n      dup2\n        /* \"#utility.yul\":16474:16518   */\n      add\n        /* \"#utility.yul\":16671:16673   */\n      0x20\n        /* \"#utility.yul\":16659:16669   */\n      dup6\n        /* \"#utility.yul\":16656:16674   */\n      lt\n        /* \"#utility.yul\":16653:16702   */\n      iszero\n      tag_391\n      jumpi\n        /* \"#utility.yul\":16692:16700   */\n      dup2\n        /* \"#utility.yul\":16677:16700   */\n      swap1\n      pop\n        /* \"#utility.yul\":16653:16702   */\n    tag_391:\n        /* \"#utility.yul\":16715:16795   */\n      tag_392\n        /* \"#utility.yul\":16771:16793   */\n      tag_393\n        /* \"#utility.yul\":16789:16792   */\n      dup6\n        /* \"#utility.yul\":16771:16793   */\n      tag_196\n      jump\t// in\n    tag_393:\n        /* \"#utility.yul\":16761:16769   */\n      dup4\n        /* \"#utility.yul\":16757:16794   */\n      add\n        /* \"#utility.yul\":16744:16755   */\n      dup3\n        /* \"#utility.yul\":16715:16795   */\n      tag_205\n      jump\t// in\n    tag_392:\n        /* \"#utility.yul\":16374:16805   */\n      pop\n      pop\n        /* \"#utility.yul\":16359:16805   */\n    tag_388:\n        /* \"#utility.yul\":16269:16812   */\n      pop\n      pop\n      pop\n      jump\t// out\n        /* \"#utility.yul\":16818:16935   */\n    tag_207:\n        /* \"#utility.yul\":16872:16880   */\n      0x00\n        /* \"#utility.yul\":16922:16927   */\n      dup3\n        /* \"#utility.yul\":16916:16920   */\n      dup3\n        /* \"#utility.yul\":16912:16928   */\n      shr\n        /* \"#utility.yul\":16891:16928   */\n      swap1\n      pop\n        /* \"#utility.yul\":16818:16935   */\n      swap3\n      swap2\n      pop\n      pop\n      jump\t// out\n        /* \"#utility.yul\":16941:17110   */\n    tag_208:\n        /* \"#utility.yul\":16985:16991   */\n      0x00\n        /* \"#utility.yul\":17018:17069   */\n      tag_396\n        /* \"#utility.yul\":17066:17067   */\n      0x00\n        /* \"#utility.yul\":17062:17068   */\n      not\n        /* \"#utility.yul\":17054:17059   */\n      dup5\n        /* \"#utility.yul\":17051:17052   */\n      0x08\n        /* \"#utility.yul\":17047:17060   */\n      mul\n        /* \"#utility.yul\":17018:17069   */\n      tag_207\n      jump\t// in\n    tag_396:\n        /* \"#utility.yul\":17014:17070   */\n      not\n        /* \"#utility.yul\":17099:17103   */\n      dup1\n        /* \"#utility.yul\":17093:17097   */\n      dup4\n        /* \"#utility.yul\":17089:17104   */\n      and\n        /* \"#utility.yul\":17079:17104   */\n      swap2\n      pop\n        /* \"#utility.yul\":16992:17110   */\n      pop\n        /* \"#utility.yul\":16941:17110   */\n      swap3\n      swap2\n      pop\n      pop\n      jump\t// out\n        /* \"#utility.yul\":17115:17410   */\n    tag_209:\n        /* \"#utility.yul\":17191:17195   */\n      0x00\n        /* \"#utility.yul\":17337:17366   */\n      tag_398\n        /* \"#utility.yul\":17362:17365   */\n      dup4\n        /* \"#utility.yul\":17356:17360   */\n      dup4\n        /* \"#utility.yul\":17337:17366   */\n      tag_208\n      jump\t// in\n    tag_398:\n        /* \"#utility.yul\":17329:17366   */\n      swap2\n      pop\n        /* \"#utility.yul\":17399:17402   */\n      dup3\n        /* \"#utility.yul\":17396:17397   */\n      0x02\n        /* \"#utility.yul\":17392:17403   */\n      mul\n        /* \"#utility.yul\":17386:17390   */\n      dup3\n        /* \"#utility.yul\":17383:17404   */\n      or\n        /* \"#utility.yul\":17375:17404   */\n      swap1\n      pop\n        /* \"#utility.yul\":17115:17410   */\n      swap3\n      swap2\n      pop\n      pop\n      jump\t// out\n        /* \"#utility.yul\":17415:18810   */\n    tag_46:\n        /* \"#utility.yul\":17532:17569   */\n      tag_400\n        /* \"#utility.yul\":17565:17568   */\n      dup3\n        /* \"#utility.yul\":17532:17569   */\n      tag_175\n      jump\t// in\n    tag_400:\n        /* \"#utility.yul\":17634:17652   */\n      0xffffffffffffffff\n        /* \"#utility.yul\":17626:17632   */\n      dup2\n        /* \"#utility.yul\":17623:17653   */\n      gt\n        /* \"#utility.yul\":17620:17676   */\n      iszero\n      tag_401\n      jumpi\n        /* \"#utility.yul\":17656:17674   */\n      tag_402\n      tag_160\n      jump\t// in\n    tag_402:\n        /* \"#utility.yul\":17620:17676   */\n    tag_401:\n        /* \"#utility.yul\":17700:17738   */\n      tag_403\n        /* \"#utility.yul\":17732:17736   */\n      dup3\n        /* \"#utility.yul\":17726:17737   */\n      sload\n        /* \"#utility.yul\":17700:17738   */\n      tag_71\n      jump\t// in\n    tag_403:\n        /* \"#utility.yul\":17785:17852   */\n      tag_404\n        /* \"#utility.yul\":17845:17851   */\n      dup3\n        /* \"#utility.yul\":17837:17843   */\n      dup3\n        /* \"#utility.yul\":17831:17835   */\n      dup6\n        /* \"#utility.yul\":17785:17852   */\n      tag_206\n      jump\t// in\n    tag_404:\n        /* \"#utility.yul\":17879:17880   */\n      0x00\n        /* \"#utility.yul\":17903:17907   */\n      0x20\n        /* \"#utility.yul\":17890:17907   */\n      swap1\n      pop\n        /* \"#utility.yul\":17935:17937   */\n      0x1f\n        /* \"#utility.yul\":17927:17933   */\n      dup4\n        /* \"#utility.yul\":17924:17938   */\n      gt\n        /* \"#utility.yul\":17952:17953   */\n      0x01\n        /* \"#utility.yul\":17947:18565   */\n      dup2\n      eq\n      tag_406\n      jumpi\n        /* \"#utility.yul\":18609:18610   */\n      0x00\n        /* \"#utility.yul\":18626:18632   */\n      dup5\n        /* \"#utility.yul\":18623:18700   */\n      iszero\n      tag_407\n      jumpi\n        /* \"#utility.yul\":18675:18684   */\n      dup3\n        /* \"#utility.yul\":18670:18673   */\n      dup8\n        /* \"#utility.yul\":18666:18685   */\n      add\n        /* \"#utility.yul\":18660:18686   */\n      mload\n        /* \"#utility.yul\":18651:18686   */\n      swap1\n      pop\n        /* \"#utility.yul\":18623:18700   */\n    tag_407:\n        /* \"#utility.yul\":18726:18793   */\n      tag_408\n        /* \"#utility.yul\":18786:18792   */\n      dup6\n        /* \"#utility.yul\":18779:18784   */\n      dup3\n        /* \"#utility.yul\":18726:18793   */\n      tag_209\n      jump\t// in\n    tag_408:\n        /* \"#utility.yul\":18720:18724   */\n      dup7\n        /* \"#utility.yul\":18713:18794   */\n      sstore\n        /* \"#utility.yul\":18582:18804   */\n      pop\n        /* \"#utility.yul\":17917:18804   */\n      jump(tag_405)\n        /* \"#utility.yul\":17947:18565   */\n    tag_406:\n        /* \"#utility.yul\":17999:18003   */\n      0x1f\n        /* \"#utility.yul\":17995:18004   */\n      not\n        /* \"#utility.yul\":17987:17993   */\n      dup5\n        /* \"#utility.yul\":17983:18005   */\n      and\n        /* \"#utility.yul\":18033:18070   */\n      tag_409\n        /* \"#utility.yul\":18065:18069   */\n      dup7\n        /* \"#utility.yul\":18033:18070   */\n      tag_195\n      jump\t// in\n    tag_409:\n        /* \"#utility.yul\":18092:18093   */\n      0x00\n        /* \"#utility.yul\":18106:18314   */\n    tag_410:\n        /* \"#utility.yul\":18120:18127   */\n      dup3\n        /* \"#utility.yul\":18117:18118   */\n      dup2\n        /* \"#utility.yul\":18114:18128   */\n      lt\n        /* \"#utility.yul\":18106:18314   */\n      iszero\n      tag_412\n      jumpi\n        /* \"#utility.yul\":18199:18208   */\n      dup5\n        /* \"#utility.yul\":18194:18197   */\n      dup10\n        /* \"#utility.yul\":18190:18209   */\n      add\n        /* \"#utility.yul\":18184:18210   */\n      mload\n        /* \"#utility.yul\":18176:18182   */\n      dup3\n        /* \"#utility.yul\":18169:18211   */\n      sstore\n        /* \"#utility.yul\":18250:18251   */\n      0x01\n        /* \"#utility.yul\":18242:18248   */\n      dup3\n        /* \"#utility.yul\":18238:18252   */\n      add\n        /* \"#utility.yul\":18228:18252   */\n      swap2\n      pop\n        /* \"#utility.yul\":18297:18299   */\n      0x20\n        /* \"#utility.yul\":18286:18295   */\n      dup6\n        /* \"#utility.yul\":18282:18300   */\n      add\n        /* \"#utility.yul\":18269:18300   */\n      swap5\n      pop\n        /* \"#utility.yul\":18143:18147   */\n      0x20\n        /* \"#utility.yul\":18140:18141   */\n      dup2\n        /* \"#utility.yul\":18136:18148   */\n      add\n        /* \"#utility.yul\":18131:18148   */\n      swap1\n      pop\n        /* \"#utility.yul\":18106:18314   */\n      jump(tag_410)\n    tag_412:\n        /* \"#utility.yul\":18342:18348   */\n      dup7\n        /* \"#utility.yul\":18333:18340   */\n      dup4\n        /* \"#utility.yul\":18330:18349   */\n      lt\n        /* \"#utility.yul\":18327:18506   */\n      iszero\n      tag_413\n      jumpi\n        /* \"#utility.yul\":18400:18409   */\n      dup5\n        /* \"#utility.yul\":18395:18398   */\n      dup10\n        /* \"#utility.yul\":18391:18410   */\n      add\n        /* \"#utility.yul\":18385:18411   */\n      mload\n        /* \"#utility.yul\":18443:18491   */\n      tag_414\n        /* \"#utility.yul\":18485:18489   */\n      0x1f\n        /* \"#utility.yul\":18477:18483   */\n      dup10\n        /* \"#utility.yul\":18473:18490   */\n      and\n        /* \"#utility.yul\":18462:18471   */\n      dup3\n        /* \"#utility.yul\":18443:18491   */\n      tag_208\n      jump\t// in\n    tag_414:\n        /* \"#utility.yul\":18435:18441   */\n      dup4\n        /* \"#utility.yul\":18428:18492   */\n      sstore\n        /* \"#utility.yul\":18350:18506   */\n      pop\n        /* \"#utility.yul\":18327:18506   */\n    tag_413:\n        /* \"#utility.yul\":18552:18553   */\n      0x01\n        /* \"#utility.yul\":18548:18549   */\n      0x02\n        /* \"#utility.yul\":18540:18546   */\n      dup9\n        /* \"#utility.yul\":18536:18550   */\n      mul\n        /* \"#utility.yul\":18532:18554   */\n      add\n        /* \"#utility.yul\":18526:18530   */\n      dup9\n        /* \"#utility.yul\":18519:18555   */\n      sstore\n        /* \"#utility.yul\":17954:18565   */\n      pop\n      pop\n      pop\n        /* \"#utility.yul\":17917:18804   */\n    tag_405:\n      pop\n        /* \"#utility.yul\":17507:18810   */\n      pop\n      pop\n      pop\n        /* \"#utility.yul\":17415:18810   */\n      pop\n      pop\n      jump\t// out\n        /* \"#utility.yul\":18816:19049   */\n    tag_52:\n        /* \"#utility.yul\":18855:18858   */\n      0x00\n        /* \"#utility.yul\":18878:18902   */\n      tag_416\n        /* \"#utility.yul\":18896:18901   */\n      dup3\n        /* \"#utility.yul\":18878:18902   */\n      tag_167\n      jump\t// in\n    tag_416:\n        /* \"#utility.yul\":18869:18902   */\n      swap2\n      pop\n        /* \"#utility.yul\":18924:18990   */\n      0xffffffffffffffffffffffffffffffffffffffffffffffffffffffffffffffff\n        /* \"#utility.yul\":18917:18922   */\n      dup3\n        /* \"#utility.yul\":18914:18991   */\n      sub\n        /* \"#utility.yul\":18911:19014   */\n      tag_417\n      jumpi\n        /* \"#utility.yul\":18994:19012   */\n      tag_418\n      tag_193\n      jump\t// in\n    tag_418:\n        /* \"#utility.yul\":18911:19014   */\n    tag_417:\n        /* \"#utility.yul\":19041:19042   */\n      0x01\n        /* \"#utility.yul\":19034:19039   */\n      dup3\n        /* \"#utility.yul\":19030:19043   */\n      add\n        /* \"#utility.yul\":19023:19043   */\n      swap1\n      pop\n        /* \"#utility.yul\":18816:19049   */\n      swap2\n      swap1\n      pop\n      jump\t// out\n        /* \"#utility.yul\":19055:19224   */\n    tag_210:\n        /* \"#utility.yul\":19195:19216   */\n      0x496e76616c696420726f6c6c206e756d62657200000000000000000000000000\n        /* \"#utility.yul\":19191:19192   */\n      0x00\n        /* \"#utility.yul\":19183:19189   */\n      dup3\n        /* \"#utility.yul\":19179:19193   */\n      add\n        /* \"#utility.yul\":19172:19217   */\n      mstore\n        /* \"#utility.yul\":19055:19224   */\n      pop\n      jump\t// out\n        /* \"#utility.yul\":19230:19596   */\n    tag_211:\n        /* \"#utility.yul\":19372:19375   */\n      0x00\n        /* \"#utility.yul\":19393:19460   */\n      tag_421\n        /* \"#utility.yul\":19457:19459   */\n      0x13\n        /* \"#utility.yul\":19452:19455   */\n      dup4\n        /* \"#utility.yul\":19393:19460   */\n      tag_176\n      jump\t// in\n    tag_421:\n        /* \"#utility.yul\":19386:19460   */\n      swap2\n      pop\n        /* \"#utility.yul\":19469:19562   */\n      tag_422\n        /* \"#utility.yul\":19558:19561   */\n      dup3\n        /* \"#utility.yul\":19469:19562   */\n      tag_210\n      jump\t// in\n    tag_422:\n        /* \"#utility.yul\":19587:19589   */\n      0x20\n        /* \"#utility.yul\":19582:19585   */\n      dup3\n        /* \"#utility.yul\":19578:19590   */\n      add\n        /* \"#utility.yul\":19571:19590   */\n      swap1\n      pop\n        /* \"#utility.yul\":19230:19596   */\n      swap2\n      swap1\n      pop\n      jump\t// out\n        /* \"#utility.yul\":19602:20021   */\n    tag_69:\n        /* \"#utility.yul\":19768:19772   */\n      0x00\n        /* \"#utility.yul\":19806:19808   */\n      0x20\n        /* \"#utility.yul\":19795:19804   */\n      dup3\n        /* \"#utility.yul\":19791:19809   */\n      add\n        /* \"#utility.yul\":19783:19809   */\n      swap1\n      pop\n        /* \"#utility.yul\":19855:19864   */\n      dup2\n        /* \"#utility.yul\":19849:19853   */\n      dup2\n        /* \"#utility.yul\":19845:19865   */\n      sub\n        /* \"#utility.yul\":19841:19842   */\n      0x00\n        /* \"#utility.yul\":19830:19839   */\n      dup4\n        /* \"#utility.yul\":19826:19843   */\n      add\n        /* \"#utility.yul\":19819:19866   */\n      mstore\n        /* \"#utility.yul\":19883:20014   */\n      tag_424\n        /* \"#utility.yul\":20009:20013   */\n      dup2\n        /* \"#utility.yul\":19883:20014   */\n      tag_211\n      jump\t// in\n    tag_424:\n        /* \"#utility.yul\":19875:20014   */\n      swap1\n      pop\n        /* \"#utility.yul\":19602:20021   */\n      swap2\n      swap1\n      pop\n      jump\t// out\n\n    auxdata: 0xa2646970667358221220664fc0e5bcc6591611c3567f87be78aeaf69b0ec8af98f0c2df09cc21aa389db64736f6c63430008120033\n}\n",
				"bytecode": {
					"linkReferences": {},
					"object": "608060405234801561001057600080fd5b50611635806100206000396000f3fe608060405234801561001057600080fd5b50600436106100625760003560e01c8063234ffa5d1461006757806348e3eeda146100975780634973ccfb146100b35780638f88708b146100d1578063a819dfbb14610106578063fb9ad0fd14610136575b600080fd5b610081600480360381019061007c9190610d2d565b610156565b60405161008e9190610de5565b60405180910390f35b6100b160048036038101906100ac9190610e00565b610289565b005b6100bb6103a4565b6040516100c89190610de5565b60405180910390f35b6100eb60048036038101906100e69190610ebe565b6103aa565b6040516100fd96959493929190611029565b60405180910390f35b610120600480360381019061011b9190611091565b610542565b60405161012d9190610de5565b60405180910390f35b61013e6105d2565b60405161014d939291906111be565b60405180910390f35b600080600180546101679190611239565b90506040518060c0016040528089815260200188815260200187815260200186600381111561019957610198610f6a565b5b81526020018460038111156101b1576101b0610f6a565b5b81526020018581525060008083815260200190815260200160002060008201518160000190816101e19190611479565b50602082015181600101556040820151816002015560608201518160030160006101000a81548160ff0219169083600381111561022157610220610f6a565b5b021790555060808201518160030160016101000a81548160ff0219169083600381111561025157610250610f6a565b5b021790555060a08201518160040155905050600160008154809291906102769061154b565b9190505550809150509695505050505050565b60008711801561029b57506001548711155b1561039b576040518060c001604052808781526020018681526020018581526020018460038111156102d0576102cf610f6a565b5b81526020018360038111156102e8576102e7610f6a565b5b81526020018281525060008089815260200190815260200160002060008201518160000190816103189190611479565b50602082015181600101556040820151816002015560608201518160030160006101000a81548160ff0219169083600381111561035857610357610f6a565b5b021790555060808201518160030160016101000a81548160ff0219169083600381111561038857610387610f6a565b5b021790555060a082015181600401559050505b50505050505050565b60015481565b6060600080600080600080871180156103c557506001548711155b610404576040517f08c379a00000000000000000000000000000000000000000000000000000000081526004016103fb906115df565b60405180910390fd5b600080888152602001908152602001600020600001600080898152602001908152602001600020600101546000808a8152602001908152602001600020600201546000808b815260200190815260200160002060030160009054906101000a900460ff166000808c815260200190815260200160002060030160019054906101000a900460ff166000808d8152602001908152602001600020600401548580546104ad9061129c565b80601f01602080910402602001604051908101604052809291908181526020018280546104d99061129c565b80156105265780601f106104fb57610100808354040283529160200191610526565b820191906000526020600020905b81548152906001019060200180831161050957829003601f168201915b5050505050955095509550955095509550955091939550919395565b600080600090506000600190505b60015481116105c85783600381111561056c5761056b610f6a565b5b60008083815260200190815260200160002060030160009054906101000a900460ff1660038111156105a1576105a0610f6a565b5b036105b55781806105b19061154b565b9250505b80806105c09061154b565b915050610550565b5080915050919050565b6105da610af9565b6105e2610af9565b6105ea610af9565b6000600190505b6001548111610af3576001600381111561060e5761060d610f6a565b5b60008083815260200190815260200160002060030160009054906101000a900460ff16600381111561064357610642610f6a565b5b03610ae0576001600381111561065c5761065b610f6a565b5b60008083815260200190815260200160002060030160019054906101000a900460ff16600381111561069157610690610f6a565b5b03610adf578360a00151600080838152602001908152602001600020600401541115610807578291508392506000808281526020019081526020016000206040518060c00160405290816000820180546106ea9061129c565b80601f01602080910402602001604051908101604052809291908181526020018280546107169061129c565b80156107635780601f1061073857610100808354040283529160200191610763565b820191906000526020600020905b81548152906001019060200180831161074657829003601f168201915b5050505050815260200160018201548152602001600282015481526020016003820160009054906101000a900460ff1660038111156107a5576107a4610f6a565b5b60038111156107b7576107b6610f6a565b5b81526020016003820160019054906101000a900460ff1660038111156107e0576107df610f6a565b5b60038111156107f2576107f1610f6a565b5b81526020016004820154815250509350610ade565b8260a00151600080838152602001908152602001600020600401541115610975578291506000808281526020019081526020016000206040518060c00160405290816000820180546108589061129c565b80601f01602080910402602001604051908101604052809291908181526020018280546108849061129c565b80156108d15780601f106108a6576101008083540402835291602001916108d1565b820191906000526020600020905b8154815290600101906020018083116108b457829003601f168201915b5050505050815260200160018201548152602001600282015481526020016003820160009054906101000a900460ff16600381111561091357610912610f6a565b5b600381111561092557610924610f6a565b5b81526020016003820160019054906101000a900460ff16600381111561094e5761094d610f6a565b5b60038111156109605761095f610f6a565b5b81526020016004820154815250509350610add565b8160a00151600080838152602001908152602001600020600401541115610adc576000808281526020019081526020016000206040518060c00160405290816000820180546109c39061129c565b80601f01602080910402602001604051908101604052809291908181526020018280546109ef9061129c565b8015610a3c5780601f10610a1157610100808354040283529160200191610a3c565b820191906000526020600020905b815481529060010190602001808311610a1f57829003601f168201915b5050505050815260200160018201548152602001600282015481526020016003820160009054906101000a900460ff166003811115610a7e57610a7d610f6a565b5b6003811115610a9057610a8f610f6a565b5b81526020016003820160019054906101000a900460ff166003811115610ab957610ab8610f6a565b5b6003811115610acb57610aca610f6a565b5b815260200160048201548152505091505b5b5b5b5b8080610aeb9061154b565b9150506105f1565b50909192565b6040518060c0016040528060608152602001600081526020016000815260200160006003811115610b2d57610b2c610f6a565b5b815260200160006003811115610b4657610b45610f6a565b5b8152602001600081525090565b6000604051905090565b600080fd5b600080fd5b600080fd5b600080fd5b6000601f19601f8301169050919050565b7f4e487b7100000000000000000000000000000000000000000000000000000000600052604160045260246000fd5b610bba82610b71565b810181811067ffffffffffffffff82111715610bd957610bd8610b82565b5b80604052505050565b6000610bec610b53565b9050610bf88282610bb1565b919050565b600067ffffffffffffffff821115610c1857610c17610b82565b5b610c2182610b71565b9050602081019050919050565b82818337600083830152505050565b6000610c50610c4b84610bfd565b610be2565b905082815260208101848484011115610c6c57610c6b610b6c565b5b610c77848285610c2e565b509392505050565b600082601f830112610c9457610c93610b67565b5b8135610ca4848260208601610c3d565b91505092915050565b6000819050919050565b610cc081610cad565b8114610ccb57600080fd5b50565b600081359050610cdd81610cb7565b92915050565b60048110610cf057600080fd5b50565b600081359050610d0281610ce3565b92915050565b60048110610d1557600080fd5b50565b600081359050610d2781610d08565b92915050565b60008060008060008060c08789031215610d4a57610d49610b5d565b5b600087013567ffffffffffffffff811115610d6857610d67610b62565b5b610d7489828a01610c7f565b9650506020610d8589828a01610cce565b9550506040610d9689828a01610cce565b9450506060610da789828a01610cf3565b9350506080610db889828a01610cce565b92505060a0610dc989828a01610d18565b9150509295509295509295565b610ddf81610cad565b82525050565b6000602082019050610dfa6000830184610dd6565b92915050565b600080600080600080600060e0888a031215610e1f57610e1e610b5d565b5b6000610e2d8a828b01610cce565b975050602088013567ffffffffffffffff811115610e4e57610e4d610b62565b5b610e5a8a828b01610c7f565b9650506040610e6b8a828b01610cce565b9550506060610e7c8a828b01610cce565b9450506080610e8d8a828b01610cf3565b93505060a0610e9e8a828b01610d18565b92505060c0610eaf8a828b01610cce565b91505092959891949750929550565b600060208284031215610ed457610ed3610b5d565b5b6000610ee284828501610cce565b91505092915050565b600081519050919050565b600082825260208201905092915050565b60005b83811015610f25578082015181840152602081019050610f0a565b60008484015250505050565b6000610f3c82610eeb565b610f468185610ef6565b9350610f56818560208601610f07565b610f5f81610b71565b840191505092915050565b7f4e487b7100000000000000000000000000000000000000000000000000000000600052602160045260246000fd5b60048110610faa57610fa9610f6a565b5b50565b6000819050610fbb82610f99565b919050565b6000610fcb82610fad565b9050919050565b610fdb81610fc0565b82525050565b60048110610ff257610ff1610f6a565b5b50565b600081905061100382610fe1565b919050565b600061101382610ff5565b9050919050565b61102381611008565b82525050565b600060c08201905081810360008301526110438189610f31565b90506110526020830188610dd6565b61105f6040830187610dd6565b61106c6060830186610fd2565b611079608083018561101a565b61108660a0830184610dd6565b979650505050505050565b6000602082840312156110a7576110a6610b5d565b5b60006110b584828501610cf3565b91505092915050565b600082825260208201905092915050565b60006110da82610eeb565b6110e481856110be565b93506110f4818560208601610f07565b6110fd81610b71565b840191505092915050565b61111181610cad565b82525050565b61112081610fc0565b82525050565b61112f81611008565b82525050565b600060c083016000830151848203600086015261115282826110cf565b91505060208301516111676020860182611108565b50604083015161117a6040860182611108565b50606083015161118d6060860182611117565b5060808301516111a06080860182611126565b5060a08301516111b360a0860182611108565b508091505092915050565b600060608201905081810360008301526111d88186611135565b905081810360208301526111ec8185611135565b905081810360408301526112008184611135565b9050949350505050565b7f4e487b7100000000000000000000000000000000000000000000000000000000600052601160045260246000fd5b600061124482610cad565b915061124f83610cad565b92508282019050808211156112675761126661120a565b5b92915050565b7f4e487b7100000000000000000000000000000000000000000000000000000000600052602260045260246000fd5b600060028204905060018216806112b457607f821691505b6020821081036112c7576112c661126d565b5b50919050565b60008190508160005260206000209050919050565b60006020601f8301049050919050565b600082821b905092915050565b60006008830261132f7fffffffffffffffffffffffffffffffffffffffffffffffffffffffffffffffff826112f2565b61133986836112f2565b95508019841693508086168417925050509392505050565b6000819050919050565b600061137661137161136c84610cad565b611351565b610cad565b9050919050565b6000819050919050565b6113908361135b565b6113a461139c8261137d565b8484546112ff565b825550505050565b600090565b6113b96113ac565b6113c4818484611387565b505050565b5b818110156113e8576113dd6000826113b1565b6001810190506113ca565b5050565b601f82111561142d576113fe816112cd565b611407846112e2565b81016020851015611416578190505b61142a611422856112e2565b8301826113c9565b50505b505050565b600082821c905092915050565b600061145060001984600802611432565b1980831691505092915050565b6000611469838361143f565b9150826002028217905092915050565b61148282610eeb565b67ffffffffffffffff81111561149b5761149a610b82565b5b6114a5825461129c565b6114b08282856113ec565b600060209050601f8311600181146114e357600084156114d1578287015190505b6114db858261145d565b865550611543565b601f1984166114f1866112cd565b60005b82811015611519578489015182556001820191506020850194506020810190506114f4565b868310156115365784890151611532601f89168261143f565b8355505b6001600288020188555050505b505050505050565b600061155682610cad565b91507fffffffffffffffffffffffffffffffffffffffffffffffffffffffffffffffff82036115885761158761120a565b5b600182019050919050565b7f496e76616c696420726f6c6c206e756d62657200000000000000000000000000600082015250565b60006115c9601383610ef6565b91506115d482611593565b602082019050919050565b600060208201905081810360008301526115f8816115bc565b905091905056fea2646970667358221220664fc0e5bcc6591611c3567f87be78aeaf69b0ec8af98f0c2df09cc21aa389db64736f6c63430008120033",
					"opcodes": "PUSH1 0x80 PUSH1 0x40 MSTORE CALLVALUE DUP1 ISZERO PUSH2 0x10 JUMPI PUSH1 0x0 DUP1 REVERT JUMPDEST POP PUSH2 0x1635 DUP1 PUSH2 0x20 PUSH1 0x0 CODECOPY PUSH1 0x0 RETURN INVALID PUSH1 0x80 PUSH1 0x40 MSTORE CALLVALUE DUP1 ISZERO PUSH2 0x10 JUMPI PUSH1 0x0 DUP1 REVERT JUMPDEST POP PUSH1 0x4 CALLDATASIZE LT PUSH2 0x62 JUMPI PUSH1 0x0 CALLDATALOAD PUSH1 0xE0 SHR DUP1 PUSH4 0x234FFA5D EQ PUSH2 0x67 JUMPI DUP1 PUSH4 0x48E3EEDA EQ PUSH2 0x97 JUMPI DUP1 PUSH4 0x4973CCFB EQ PUSH2 0xB3 JUMPI DUP1 PUSH4 0x8F88708B EQ PUSH2 0xD1 JUMPI DUP1 PUSH4 0xA819DFBB EQ PUSH2 0x106 JUMPI DUP1 PUSH4 0xFB9AD0FD EQ PUSH2 0x136 JUMPI JUMPDEST PUSH1 0x0 DUP1 REVERT JUMPDEST PUSH2 0x81 PUSH1 0x4 DUP1 CALLDATASIZE SUB DUP2 ADD SWAP1 PUSH2 0x7C SWAP2 SWAP1 PUSH2 0xD2D JUMP JUMPDEST PUSH2 0x156 JUMP JUMPDEST PUSH1 0x40 MLOAD PUSH2 0x8E SWAP2 SWAP1 PUSH2 0xDE5 JUMP JUMPDEST PUSH1 0x40 MLOAD DUP1 SWAP2 SUB SWAP1 RETURN JUMPDEST PUSH2 0xB1 PUSH1 0x4 DUP1 CALLDATASIZE SUB DUP2 ADD SWAP1 PUSH2 0xAC SWAP2 SWAP1 PUSH2 0xE00 JUMP JUMPDEST PUSH2 0x289 JUMP JUMPDEST STOP JUMPDEST PUSH2 0xBB PUSH2 0x3A4 JUMP JUMPDEST PUSH1 0x40 MLOAD PUSH2 0xC8 SWAP2 SWAP1 PUSH2 0xDE5 JUMP JUMPDEST PUSH1 0x40 MLOAD DUP1 SWAP2 SUB SWAP1 RETURN JUMPDEST PUSH2 0xEB PUSH1 0x4 DUP1 CALLDATASIZE SUB DUP2 ADD SWAP1 PUSH2 0xE6 SWAP2 SWAP1 PUSH2 0xEBE JUMP JUMPDEST PUSH2 0x3AA JUMP JUMPDEST PUSH1 0x40 MLOAD PUSH2 0xFD SWAP7 SWAP6 SWAP5 SWAP4 SWAP3 SWAP2 SWAP1 PUSH2 0x1029 JUMP JUMPDEST PUSH1 0x40 MLOAD DUP1 SWAP2 SUB SWAP1 RETURN JUMPDEST PUSH2 0x120 PUSH1 0x4 DUP1 CALLDATASIZE SUB DUP2 ADD SWAP1 PUSH2 0x11B SWAP2 SWAP1 PUSH2 0x1091 JUMP JUMPDEST PUSH2 0x542 JUMP JUMPDEST PUSH1 0x40 MLOAD PUSH2 0x12D SWAP2 SWAP1 PUSH2 0xDE5 JUMP JUMPDEST PUSH1 0x40 MLOAD DUP1 SWAP2 SUB SWAP1 RETURN JUMPDEST PUSH2 0x13E PUSH2 0x5D2 JUMP JUMPDEST PUSH1 0x40 MLOAD PUSH2 0x14D SWAP4 SWAP3 SWAP2 SWAP1 PUSH2 0x11BE JUMP JUMPDEST PUSH1 0x40 MLOAD DUP1 SWAP2 SUB SWAP1 RETURN JUMPDEST PUSH1 0x0 DUP1 PUSH1 0x1 DUP1 SLOAD PUSH2 0x167 SWAP2 SWAP1 PUSH2 0x1239 JUMP JUMPDEST SWAP1 POP PUSH1 0x40 MLOAD DUP1 PUSH1 0xC0 ADD PUSH1 0x40 MSTORE DUP1 DUP10 DUP2 MSTORE PUSH1 0x20 ADD DUP9 DUP2 MSTORE PUSH1 0x20 ADD DUP8 DUP2 MSTORE PUSH1 0x20 ADD DUP7 PUSH1 0x3 DUP2 GT ISZERO PUSH2 0x199 JUMPI PUSH2 0x198 PUSH2 0xF6A JUMP JUMPDEST JUMPDEST DUP2 MSTORE PUSH1 0x20 ADD DUP5 PUSH1 0x3 DUP2 GT ISZERO PUSH2 0x1B1 JUMPI PUSH2 0x1B0 PUSH2 0xF6A JUMP JUMPDEST JUMPDEST DUP2 MSTORE PUSH1 0x20 ADD DUP6 DUP2 MSTORE POP PUSH1 0x0 DUP1 DUP4 DUP2 MSTORE PUSH1 0x20 ADD SWAP1 DUP2 MSTORE PUSH1 0x20 ADD PUSH1 0x0 KECCAK256 PUSH1 0x0 DUP3 ADD MLOAD DUP2 PUSH1 0x0 ADD SWAP1 DUP2 PUSH2 0x1E1 SWAP2 SWAP1 PUSH2 0x1479 JUMP JUMPDEST POP PUSH1 0x20 DUP3 ADD MLOAD DUP2 PUSH1 0x1 ADD SSTORE PUSH1 0x40 DUP3 ADD MLOAD DUP2 PUSH1 0x2 ADD SSTORE PUSH1 0x60 DUP3 ADD MLOAD DUP2 PUSH1 0x3 ADD PUSH1 0x0 PUSH2 0x100 EXP DUP2 SLOAD DUP2 PUSH1 0xFF MUL NOT AND SWAP1 DUP4 PUSH1 0x3 DUP2 GT ISZERO PUSH2 0x221 JUMPI PUSH2 0x220 PUSH2 0xF6A JUMP JUMPDEST JUMPDEST MUL OR SWAP1 SSTORE POP PUSH1 0x80 DUP3 ADD MLOAD DUP2 PUSH1 0x3 ADD PUSH1 0x1 PUSH2 0x100 EXP DUP2 SLOAD DUP2 PUSH1 0xFF MUL NOT AND SWAP1 DUP4 PUSH1 0x3 DUP2 GT ISZERO PUSH2 0x251 JUMPI PUSH2 0x250 PUSH2 0xF6A JUMP JUMPDEST JUMPDEST MUL OR SWAP1 SSTORE POP PUSH1 0xA0 DUP3 ADD MLOAD DUP2 PUSH1 0x4 ADD SSTORE SWAP1 POP POP PUSH1 0x1 PUSH1 0x0 DUP2 SLOAD DUP1 SWAP3 SWAP2 SWAP1 PUSH2 0x276 SWAP1 PUSH2 0x154B JUMP JUMPDEST SWAP2 SWAP1 POP SSTORE POP DUP1 SWAP2 POP POP SWAP7 SWAP6 POP POP POP POP POP POP JUMP JUMPDEST PUSH1 0x0 DUP8 GT DUP1 ISZERO PUSH2 0x29B JUMPI POP PUSH1 0x1 SLOAD DUP8 GT ISZERO JUMPDEST ISZERO PUSH2 0x39B JUMPI PUSH1 0x40 MLOAD DUP1 PUSH1 0xC0 ADD PUSH1 0x40 MSTORE DUP1 DUP8 DUP2 MSTORE PUSH1 0x20 ADD DUP7 DUP2 MSTORE PUSH1 0x20 ADD DUP6 DUP2 MSTORE PUSH1 0x20 ADD DUP5 PUSH1 0x3 DUP2 GT ISZERO PUSH2 0x2D0 JUMPI PUSH2 0x2CF PUSH2 0xF6A JUMP JUMPDEST JUMPDEST DUP2 MSTORE PUSH1 0x20 ADD DUP4 PUSH1 0x3 DUP2 GT ISZERO PUSH2 0x2E8 JUMPI PUSH2 0x2E7 PUSH2 0xF6A JUMP JUMPDEST JUMPDEST DUP2 MSTORE PUSH1 0x20 ADD DUP3 DUP2 MSTORE POP PUSH1 0x0 DUP1 DUP10 DUP2 MSTORE PUSH1 0x20 ADD SWAP1 DUP2 MSTORE PUSH1 0x20 ADD PUSH1 0x0 KECCAK256 PUSH1 0x0 DUP3 ADD MLOAD DUP2 PUSH1 0x0 ADD SWAP1 DUP2 PUSH2 0x318 SWAP2 SWAP1 PUSH2 0x1479 JUMP JUMPDEST POP PUSH1 0x20 DUP3 ADD MLOAD DUP2 PUSH1 0x1 ADD SSTORE PUSH1 0x40 DUP3 ADD MLOAD DUP2 PUSH1 0x2 ADD SSTORE PUSH1 0x60 DUP3 ADD MLOAD DUP2 PUSH1 0x3 ADD PUSH1 0x0 PUSH2 0x100 EXP DUP2 SLOAD DUP2 PUSH1 0xFF MUL NOT AND SWAP1 DUP4 PUSH1 0x3 DUP2 GT ISZERO PUSH2 0x358 JUMPI PUSH2 0x357 PUSH2 0xF6A JUMP JUMPDEST JUMPDEST MUL OR SWAP1 SSTORE POP PUSH1 0x80 DUP3 ADD MLOAD DUP2 PUSH1 0x3 ADD PUSH1 0x1 PUSH2 0x100 EXP DUP2 SLOAD DUP2 PUSH1 0xFF MUL NOT AND SWAP1 DUP4 PUSH1 0x3 DUP2 GT ISZERO PUSH2 0x388 JUMPI PUSH2 0x387 PUSH2 0xF6A JUMP JUMPDEST JUMPDEST MUL OR SWAP1 SSTORE POP PUSH1 0xA0 DUP3 ADD MLOAD DUP2 PUSH1 0x4 ADD SSTORE SWAP1 POP POP JUMPDEST POP POP POP POP POP POP POP JUMP JUMPDEST PUSH1 0x1 SLOAD DUP2 JUMP JUMPDEST PUSH1 0x60 PUSH1 0x0 DUP1 PUSH1 0x0 DUP1 PUSH1 0x0 DUP1 DUP8 GT DUP1 ISZERO PUSH2 0x3C5 JUMPI POP PUSH1 0x1 SLOAD DUP8 GT ISZERO JUMPDEST PUSH2 0x404 JUMPI PUSH1 0x40 MLOAD PUSH32 0x8C379A000000000000000000000000000000000000000000000000000000000 DUP2 MSTORE PUSH1 0x4 ADD PUSH2 0x3FB SWAP1 PUSH2 0x15DF JUMP JUMPDEST PUSH1 0x40 MLOAD DUP1 SWAP2 SUB SWAP1 REVERT JUMPDEST PUSH1 0x0 DUP1 DUP9 DUP2 MSTORE PUSH1 0x20 ADD SWAP1 DUP2 MSTORE PUSH1 0x20 ADD PUSH1 0x0 KECCAK256 PUSH1 0x0 ADD PUSH1 0x0 DUP1 DUP10 DUP2 MSTORE PUSH1 0x20 ADD SWAP1 DUP2 MSTORE PUSH1 0x20 ADD PUSH1 0x0 KECCAK256 PUSH1 0x1 ADD SLOAD PUSH1 0x0 DUP1 DUP11 DUP2 MSTORE PUSH1 0x20 ADD SWAP1 DUP2 MSTORE PUSH1 0x20 ADD PUSH1 0x0 KECCAK256 PUSH1 0x2 ADD SLOAD PUSH1 0x0 DUP1 DUP12 DUP2 MSTORE PUSH1 0x20 ADD SWAP1 DUP2 MSTORE PUSH1 0x20 ADD PUSH1 0x0 KECCAK256 PUSH1 0x3 ADD PUSH1 0x0 SWAP1 SLOAD SWAP1 PUSH2 0x100 EXP SWAP1 DIV PUSH1 0xFF AND PUSH1 0x0 DUP1 DUP13 DUP2 MSTORE PUSH1 0x20 ADD SWAP1 DUP2 MSTORE PUSH1 0x20 ADD PUSH1 0x0 KECCAK256 PUSH1 0x3 ADD PUSH1 0x1 SWAP1 SLOAD SWAP1 PUSH2 0x100 EXP SWAP1 DIV PUSH1 0xFF AND PUSH1 0x0 DUP1 DUP14 DUP2 MSTORE PUSH1 0x20 ADD SWAP1 DUP2 MSTORE PUSH1 0x20 ADD PUSH1 0x0 KECCAK256 PUSH1 0x4 ADD SLOAD DUP6 DUP1 SLOAD PUSH2 0x4AD SWAP1 PUSH2 0x129C JUMP JUMPDEST DUP1 PUSH1 0x1F ADD PUSH1 0x20 DUP1 SWAP2 DIV MUL PUSH1 0x20 ADD PUSH1 0x40 MLOAD SWAP1 DUP2 ADD PUSH1 0x40 MSTORE DUP1 SWAP3 SWAP2 SWAP1 DUP2 DUP2 MSTORE PUSH1 0x20 ADD DUP3 DUP1 SLOAD PUSH2 0x4D9 SWAP1 PUSH2 0x129C JUMP JUMPDEST DUP1 ISZERO PUSH2 0x526 JUMPI DUP1 PUSH1 0x1F LT PUSH2 0x4FB JUMPI PUSH2 0x100 DUP1 DUP4 SLOAD DIV MUL DUP4 MSTORE SWAP2 PUSH1 0x20 ADD SWAP2 PUSH2 0x526 JUMP JUMPDEST DUP3 ADD SWAP2 SWAP1 PUSH1 0x0 MSTORE PUSH1 0x20 PUSH1 0x0 KECCAK256 SWAP1 JUMPDEST DUP2 SLOAD DUP2 MSTORE SWAP1 PUSH1 0x1 ADD SWAP1 PUSH1 0x20 ADD DUP1 DUP4 GT PUSH2 0x509 JUMPI DUP3 SWAP1 SUB PUSH1 0x1F AND DUP3 ADD SWAP2 JUMPDEST POP POP POP POP POP SWAP6 POP SWAP6 POP SWAP6 POP SWAP6 POP SWAP6 POP SWAP6 POP SWAP6 POP SWAP2 SWAP4 SWAP6 POP SWAP2 SWAP4 SWAP6 JUMP JUMPDEST PUSH1 0x0 DUP1 PUSH1 0x0 SWAP1 POP PUSH1 0x0 PUSH1 0x1 SWAP1 POP JUMPDEST PUSH1 0x1 SLOAD DUP2 GT PUSH2 0x5C8 JUMPI DUP4 PUSH1 0x3 DUP2 GT ISZERO PUSH2 0x56C JUMPI PUSH2 0x56B PUSH2 0xF6A JUMP JUMPDEST JUMPDEST PUSH1 0x0 DUP1 DUP4 DUP2 MSTORE PUSH1 0x20 ADD SWAP1 DUP2 MSTORE PUSH1 0x20 ADD PUSH1 0x0 KECCAK256 PUSH1 0x3 ADD PUSH1 0x0 SWAP1 SLOAD SWAP1 PUSH2 0x100 EXP SWAP1 DIV PUSH1 0xFF AND PUSH1 0x3 DUP2 GT ISZERO PUSH2 0x5A1 JUMPI PUSH2 0x5A0 PUSH2 0xF6A JUMP JUMPDEST JUMPDEST SUB PUSH2 0x5B5 JUMPI DUP2 DUP1 PUSH2 0x5B1 SWAP1 PUSH2 0x154B JUMP JUMPDEST SWAP3 POP POP JUMPDEST DUP1 DUP1 PUSH2 0x5C0 SWAP1 PUSH2 0x154B JUMP JUMPDEST SWAP2 POP POP PUSH2 0x550 JUMP JUMPDEST POP DUP1 SWAP2 POP POP SWAP2 SWAP1 POP JUMP JUMPDEST PUSH2 0x5DA PUSH2 0xAF9 JUMP JUMPDEST PUSH2 0x5E2 PUSH2 0xAF9 JUMP JUMPDEST PUSH2 0x5EA PUSH2 0xAF9 JUMP JUMPDEST PUSH1 0x0 PUSH1 0x1 SWAP1 POP JUMPDEST PUSH1 0x1 SLOAD DUP2 GT PUSH2 0xAF3 JUMPI PUSH1 0x1 PUSH1 0x3 DUP2 GT ISZERO PUSH2 0x60E JUMPI PUSH2 0x60D PUSH2 0xF6A JUMP JUMPDEST JUMPDEST PUSH1 0x0 DUP1 DUP4 DUP2 MSTORE PUSH1 0x20 ADD SWAP1 DUP2 MSTORE PUSH1 0x20 ADD PUSH1 0x0 KECCAK256 PUSH1 0x3 ADD PUSH1 0x0 SWAP1 SLOAD SWAP1 PUSH2 0x100 EXP SWAP1 DIV PUSH1 0xFF AND PUSH1 0x3 DUP2 GT ISZERO PUSH2 0x643 JUMPI PUSH2 0x642 PUSH2 0xF6A JUMP JUMPDEST JUMPDEST SUB PUSH2 0xAE0 JUMPI PUSH1 0x1 PUSH1 0x3 DUP2 GT ISZERO PUSH2 0x65C JUMPI PUSH2 0x65B PUSH2 0xF6A JUMP JUMPDEST JUMPDEST PUSH1 0x0 DUP1 DUP4 DUP2 MSTORE PUSH1 0x20 ADD SWAP1 DUP2 MSTORE PUSH1 0x20 ADD PUSH1 0x0 KECCAK256 PUSH1 0x3 ADD PUSH1 0x1 SWAP1 SLOAD SWAP1 PUSH2 0x100 EXP SWAP1 DIV PUSH1 0xFF AND PUSH1 0x3 DUP2 GT ISZERO PUSH2 0x691 JUMPI PUSH2 0x690 PUSH2 0xF6A JUMP JUMPDEST JUMPDEST SUB PUSH2 0xADF JUMPI DUP4 PUSH1 0xA0 ADD MLOAD PUSH1 0x0 DUP1 DUP4 DUP2 MSTORE PUSH1 0x20 ADD SWAP1 DUP2 MSTORE PUSH1 0x20 ADD PUSH1 0x0 KECCAK256 PUSH1 0x4 ADD SLOAD GT ISZERO PUSH2 0x807 JUMPI DUP3 SWAP2 POP DUP4 SWAP3 POP PUSH1 0x0 DUP1 DUP3 DUP2 MSTORE PUSH1 0x20 ADD SWAP1 DUP2 MSTORE PUSH1 0x20 ADD PUSH1 0x0 KECCAK256 PUSH1 0x40 MLOAD DUP1 PUSH1 0xC0 ADD PUSH1 0x40 MSTORE SWAP1 DUP2 PUSH1 0x0 DUP3 ADD DUP1 SLOAD PUSH2 0x6EA SWAP1 PUSH2 0x129C JUMP JUMPDEST DUP1 PUSH1 0x1F ADD PUSH1 0x20 DUP1 SWAP2 DIV MUL PUSH1 0x20 ADD PUSH1 0x40 MLOAD SWAP1 DUP2 ADD PUSH1 0x40 MSTORE DUP1 SWAP3 SWAP2 SWAP1 DUP2 DUP2 MSTORE PUSH1 0x20 ADD DUP3 DUP1 SLOAD PUSH2 0x716 SWAP1 PUSH2 0x129C JUMP JUMPDEST DUP1 ISZERO PUSH2 0x763 JUMPI DUP1 PUSH1 0x1F LT PUSH2 0x738 JUMPI PUSH2 0x100 DUP1 DUP4 SLOAD DIV MUL DUP4 MSTORE SWAP2 PUSH1 0x20 ADD SWAP2 PUSH2 0x763 JUMP JUMPDEST DUP3 ADD SWAP2 SWAP1 PUSH1 0x0 MSTORE PUSH1 0x20 PUSH1 0x0 KECCAK256 SWAP1 JUMPDEST DUP2 SLOAD DUP2 MSTORE SWAP1 PUSH1 0x1 ADD SWAP1 PUSH1 0x20 ADD DUP1 DUP4 GT PUSH2 0x746 JUMPI DUP3 SWAP1 SUB PUSH1 0x1F AND DUP3 ADD SWAP2 JUMPDEST POP POP POP POP POP DUP2 MSTORE PUSH1 0x20 ADD PUSH1 0x1 DUP3 ADD SLOAD DUP2 MSTORE PUSH1 0x20 ADD PUSH1 0x2 DUP3 ADD SLOAD DUP2 MSTORE PUSH1 0x20 ADD PUSH1 0x3 DUP3 ADD PUSH1 0x0 SWAP1 SLOAD SWAP1 PUSH2 0x100 EXP SWAP1 DIV PUSH1 0xFF AND PUSH1 0x3 DUP2 GT ISZERO PUSH2 0x7A5 JUMPI PUSH2 0x7A4 PUSH2 0xF6A JUMP JUMPDEST JUMPDEST PUSH1 0x3 DUP2 GT ISZERO PUSH2 0x7B7 JUMPI PUSH2 0x7B6 PUSH2 0xF6A JUMP JUMPDEST JUMPDEST DUP2 MSTORE PUSH1 0x20 ADD PUSH1 0x3 DUP3 ADD PUSH1 0x1 SWAP1 SLOAD SWAP1 PUSH2 0x100 EXP SWAP1 DIV PUSH1 0xFF AND PUSH1 0x3 DUP2 GT ISZERO PUSH2 0x7E0 JUMPI PUSH2 0x7DF PUSH2 0xF6A JUMP JUMPDEST JUMPDEST PUSH1 0x3 DUP2 GT ISZERO PUSH2 0x7F2 JUMPI PUSH2 0x7F1 PUSH2 0xF6A JUMP JUMPDEST JUMPDEST DUP2 MSTORE PUSH1 0x20 ADD PUSH1 0x4 DUP3 ADD SLOAD DUP2 MSTORE POP POP SWAP4 POP PUSH2 0xADE JUMP JUMPDEST DUP3 PUSH1 0xA0 ADD MLOAD PUSH1 0x0 DUP1 DUP4 DUP2 MSTORE PUSH1 0x20 ADD SWAP1 DUP2 MSTORE PUSH1 0x20 ADD PUSH1 0x0 KECCAK256 PUSH1 0x4 ADD SLOAD GT ISZERO PUSH2 0x975 JUMPI DUP3 SWAP2 POP PUSH1 0x0 DUP1 DUP3 DUP2 MSTORE PUSH1 0x20 ADD SWAP1 DUP2 MSTORE PUSH1 0x20 ADD PUSH1 0x0 KECCAK256 PUSH1 0x40 MLOAD DUP1 PUSH1 0xC0 ADD PUSH1 0x40 MSTORE SWAP1 DUP2 PUSH1 0x0 DUP3 ADD DUP1 SLOAD PUSH2 0x858 SWAP1 PUSH2 0x129C JUMP JUMPDEST DUP1 PUSH1 0x1F ADD PUSH1 0x20 DUP1 SWAP2 DIV MUL PUSH1 0x20 ADD PUSH1 0x40 MLOAD SWAP1 DUP2 ADD PUSH1 0x40 MSTORE DUP1 SWAP3 SWAP2 SWAP1 DUP2 DUP2 MSTORE PUSH1 0x20 ADD DUP3 DUP1 SLOAD PUSH2 0x884 SWAP1 PUSH2 0x129C JUMP JUMPDEST DUP1 ISZERO PUSH2 0x8D1 JUMPI DUP1 PUSH1 0x1F LT PUSH2 0x8A6 JUMPI PUSH2 0x100 DUP1 DUP4 SLOAD DIV MUL DUP4 MSTORE SWAP2 PUSH1 0x20 ADD SWAP2 PUSH2 0x8D1 JUMP JUMPDEST DUP3 ADD SWAP2 SWAP1 PUSH1 0x0 MSTORE PUSH1 0x20 PUSH1 0x0 KECCAK256 SWAP1 JUMPDEST DUP2 SLOAD DUP2 MSTORE SWAP1 PUSH1 0x1 ADD SWAP1 PUSH1 0x20 ADD DUP1 DUP4 GT PUSH2 0x8B4 JUMPI DUP3 SWAP1 SUB PUSH1 0x1F AND DUP3 ADD SWAP2 JUMPDEST POP POP POP POP POP DUP2 MSTORE PUSH1 0x20 ADD PUSH1 0x1 DUP3 ADD SLOAD DUP2 MSTORE PUSH1 0x20 ADD PUSH1 0x2 DUP3 ADD SLOAD DUP2 MSTORE PUSH1 0x20 ADD PUSH1 0x3 DUP3 ADD PUSH1 0x0 SWAP1 SLOAD SWAP1 PUSH2 0x100 EXP SWAP1 DIV PUSH1 0xFF AND PUSH1 0x3 DUP2 GT ISZERO PUSH2 0x913 JUMPI PUSH2 0x912 PUSH2 0xF6A JUMP JUMPDEST JUMPDEST PUSH1 0x3 DUP2 GT ISZERO PUSH2 0x925 JUMPI PUSH2 0x924 PUSH2 0xF6A JUMP JUMPDEST JUMPDEST DUP2 MSTORE PUSH1 0x20 ADD PUSH1 0x3 DUP3 ADD PUSH1 0x1 SWAP1 SLOAD SWAP1 PUSH2 0x100 EXP SWAP1 DIV PUSH1 0xFF AND PUSH1 0x3 DUP2 GT ISZERO PUSH2 0x94E JUMPI PUSH2 0x94D PUSH2 0xF6A JUMP JUMPDEST JUMPDEST PUSH1 0x3 DUP2 GT ISZERO PUSH2 0x960 JUMPI PUSH2 0x95F PUSH2 0xF6A JUMP JUMPDEST JUMPDEST DUP2 MSTORE PUSH1 0x20 ADD PUSH1 0x4 DUP3 ADD SLOAD DUP2 MSTORE POP POP SWAP4 POP PUSH2 0xADD JUMP JUMPDEST DUP2 PUSH1 0xA0 ADD MLOAD PUSH1 0x0 DUP1 DUP4 DUP2 MSTORE PUSH1 0x20 ADD SWAP1 DUP2 MSTORE PUSH1 0x20 ADD PUSH1 0x0 KECCAK256 PUSH1 0x4 ADD SLOAD GT ISZERO PUSH2 0xADC JUMPI PUSH1 0x0 DUP1 DUP3 DUP2 MSTORE PUSH1 0x20 ADD SWAP1 DUP2 MSTORE PUSH1 0x20 ADD PUSH1 0x0 KECCAK256 PUSH1 0x40 MLOAD DUP1 PUSH1 0xC0 ADD PUSH1 0x40 MSTORE SWAP1 DUP2 PUSH1 0x0 DUP3 ADD DUP1 SLOAD PUSH2 0x9C3 SWAP1 PUSH2 0x129C JUMP JUMPDEST DUP1 PUSH1 0x1F ADD PUSH1 0x20 DUP1 SWAP2 DIV MUL PUSH1 0x20 ADD PUSH1 0x40 MLOAD SWAP1 DUP2 ADD PUSH1 0x40 MSTORE DUP1 SWAP3 SWAP2 SWAP1 DUP2 DUP2 MSTORE PUSH1 0x20 ADD DUP3 DUP1 SLOAD PUSH2 0x9EF SWAP1 PUSH2 0x129C JUMP JUMPDEST DUP1 ISZERO PUSH2 0xA3C JUMPI DUP1 PUSH1 0x1F LT PUSH2 0xA11 JUMPI PUSH2 0x100 DUP1 DUP4 SLOAD DIV MUL DUP4 MSTORE SWAP2 PUSH1 0x20 ADD SWAP2 PUSH2 0xA3C JUMP JUMPDEST DUP3 ADD SWAP2 SWAP1 PUSH1 0x0 MSTORE PUSH1 0x20 PUSH1 0x0 KECCAK256 SWAP1 JUMPDEST DUP2 SLOAD DUP2 MSTORE SWAP1 PUSH1 0x1 ADD SWAP1 PUSH1 0x20 ADD DUP1 DUP4 GT PUSH2 0xA1F JUMPI DUP3 SWAP1 SUB PUSH1 0x1F AND DUP3 ADD SWAP2 JUMPDEST POP POP POP POP POP DUP2 MSTORE PUSH1 0x20 ADD PUSH1 0x1 DUP3 ADD SLOAD DUP2 MSTORE PUSH1 0x20 ADD PUSH1 0x2 DUP3 ADD SLOAD DUP2 MSTORE PUSH1 0x20 ADD PUSH1 0x3 DUP3 ADD PUSH1 0x0 SWAP1 SLOAD SWAP1 PUSH2 0x100 EXP SWAP1 DIV PUSH1 0xFF AND PUSH1 0x3 DUP2 GT ISZERO PUSH2 0xA7E JUMPI PUSH2 0xA7D PUSH2 0xF6A JUMP JUMPDEST JUMPDEST PUSH1 0x3 DUP2 GT ISZERO PUSH2 0xA90 JUMPI PUSH2 0xA8F PUSH2 0xF6A JUMP JUMPDEST JUMPDEST DUP2 MSTORE PUSH1 0x20 ADD PUSH1 0x3 DUP3 ADD PUSH1 0x1 SWAP1 SLOAD SWAP1 PUSH2 0x100 EXP SWAP1 DIV PUSH1 0xFF AND PUSH1 0x3 DUP2 GT ISZERO PUSH2 0xAB9 JUMPI PUSH2 0xAB8 PUSH2 0xF6A JUMP JUMPDEST JUMPDEST PUSH1 0x3 DUP2 GT ISZERO PUSH2 0xACB JUMPI PUSH2 0xACA PUSH2 0xF6A JUMP JUMPDEST JUMPDEST DUP2 MSTORE PUSH1 0x20 ADD PUSH1 0x4 DUP3 ADD SLOAD DUP2 MSTORE POP POP SWAP2 POP JUMPDEST JUMPDEST JUMPDEST JUMPDEST JUMPDEST DUP1 DUP1 PUSH2 0xAEB SWAP1 PUSH2 0x154B JUMP JUMPDEST SWAP2 POP POP PUSH2 0x5F1 JUMP JUMPDEST POP SWAP1 SWAP2 SWAP3 JUMP JUMPDEST PUSH1 0x40 MLOAD DUP1 PUSH1 0xC0 ADD PUSH1 0x40 MSTORE DUP1 PUSH1 0x60 DUP2 MSTORE PUSH1 0x20 ADD PUSH1 0x0 DUP2 MSTORE PUSH1 0x20 ADD PUSH1 0x0 DUP2 MSTORE PUSH1 0x20 ADD PUSH1 0x0 PUSH1 0x3 DUP2 GT ISZERO PUSH2 0xB2D JUMPI PUSH2 0xB2C PUSH2 0xF6A JUMP JUMPDEST JUMPDEST DUP2 MSTORE PUSH1 0x20 ADD PUSH1 0x0 PUSH1 0x3 DUP2 GT ISZERO PUSH2 0xB46 JUMPI PUSH2 0xB45 PUSH2 0xF6A JUMP JUMPDEST JUMPDEST DUP2 MSTORE PUSH1 0x20 ADD PUSH1 0x0 DUP2 MSTORE POP SWAP1 JUMP JUMPDEST PUSH1 0x0 PUSH1 0x40 MLOAD SWAP1 POP SWAP1 JUMP JUMPDEST PUSH1 0x0 DUP1 REVERT JUMPDEST PUSH1 0x0 DUP1 REVERT JUMPDEST PUSH1 0x0 DUP1 REVERT JUMPDEST PUSH1 0x0 DUP1 REVERT JUMPDEST PUSH1 0x0 PUSH1 0x1F NOT PUSH1 0x1F DUP4 ADD AND SWAP1 POP SWAP2 SWAP1 POP JUMP JUMPDEST PUSH32 0x4E487B7100000000000000000000000000000000000000000000000000000000 PUSH1 0x0 MSTORE PUSH1 0x41 PUSH1 0x4 MSTORE PUSH1 0x24 PUSH1 0x0 REVERT JUMPDEST PUSH2 0xBBA DUP3 PUSH2 0xB71 JUMP JUMPDEST DUP2 ADD DUP2 DUP2 LT PUSH8 0xFFFFFFFFFFFFFFFF DUP3 GT OR ISZERO PUSH2 0xBD9 JUMPI PUSH2 0xBD8 PUSH2 0xB82 JUMP JUMPDEST JUMPDEST DUP1 PUSH1 0x40 MSTORE POP POP POP JUMP JUMPDEST PUSH1 0x0 PUSH2 0xBEC PUSH2 0xB53 JUMP JUMPDEST SWAP1 POP PUSH2 0xBF8 DUP3 DUP3 PUSH2 0xBB1 JUMP JUMPDEST SWAP2 SWAP1 POP JUMP JUMPDEST PUSH1 0x0 PUSH8 0xFFFFFFFFFFFFFFFF DUP3 GT ISZERO PUSH2 0xC18 JUMPI PUSH2 0xC17 PUSH2 0xB82 JUMP JUMPDEST JUMPDEST PUSH2 0xC21 DUP3 PUSH2 0xB71 JUMP JUMPDEST SWAP1 POP PUSH1 0x20 DUP2 ADD SWAP1 POP SWAP2 SWAP1 POP JUMP JUMPDEST DUP3 DUP2 DUP4 CALLDATACOPY PUSH1 0x0 DUP4 DUP4 ADD MSTORE POP POP POP JUMP JUMPDEST PUSH1 0x0 PUSH2 0xC50 PUSH2 0xC4B DUP5 PUSH2 0xBFD JUMP JUMPDEST PUSH2 0xBE2 JUMP JUMPDEST SWAP1 POP DUP3 DUP2 MSTORE PUSH1 0x20 DUP2 ADD DUP5 DUP5 DUP5 ADD GT ISZERO PUSH2 0xC6C JUMPI PUSH2 0xC6B PUSH2 0xB6C JUMP JUMPDEST JUMPDEST PUSH2 0xC77 DUP5 DUP3 DUP6 PUSH2 0xC2E JUMP JUMPDEST POP SWAP4 SWAP3 POP POP POP JUMP JUMPDEST PUSH1 0x0 DUP3 PUSH1 0x1F DUP4 ADD SLT PUSH2 0xC94 JUMPI PUSH2 0xC93 PUSH2 0xB67 JUMP JUMPDEST JUMPDEST DUP2 CALLDATALOAD PUSH2 0xCA4 DUP5 DUP3 PUSH1 0x20 DUP7 ADD PUSH2 0xC3D JUMP JUMPDEST SWAP2 POP POP SWAP3 SWAP2 POP POP JUMP JUMPDEST PUSH1 0x0 DUP2 SWAP1 POP SWAP2 SWAP1 POP JUMP JUMPDEST PUSH2 0xCC0 DUP2 PUSH2 0xCAD JUMP JUMPDEST DUP2 EQ PUSH2 0xCCB JUMPI PUSH1 0x0 DUP1 REVERT JUMPDEST POP JUMP JUMPDEST PUSH1 0x0 DUP2 CALLDATALOAD SWAP1 POP PUSH2 0xCDD DUP2 PUSH2 0xCB7 JUMP JUMPDEST SWAP3 SWAP2 POP POP JUMP JUMPDEST PUSH1 0x4 DUP2 LT PUSH2 0xCF0 JUMPI PUSH1 0x0 DUP1 REVERT JUMPDEST POP JUMP JUMPDEST PUSH1 0x0 DUP2 CALLDATALOAD SWAP1 POP PUSH2 0xD02 DUP2 PUSH2 0xCE3 JUMP JUMPDEST SWAP3 SWAP2 POP POP JUMP JUMPDEST PUSH1 0x4 DUP2 LT PUSH2 0xD15 JUMPI PUSH1 0x0 DUP1 REVERT JUMPDEST POP JUMP JUMPDEST PUSH1 0x0 DUP2 CALLDATALOAD SWAP1 POP PUSH2 0xD27 DUP2 PUSH2 0xD08 JUMP JUMPDEST SWAP3 SWAP2 POP POP JUMP JUMPDEST PUSH1 0x0 DUP1 PUSH1 0x0 DUP1 PUSH1 0x0 DUP1 PUSH1 0xC0 DUP8 DUP10 SUB SLT ISZERO PUSH2 0xD4A JUMPI PUSH2 0xD49 PUSH2 0xB5D JUMP JUMPDEST JUMPDEST PUSH1 0x0 DUP8 ADD CALLDATALOAD PUSH8 0xFFFFFFFFFFFFFFFF DUP2 GT ISZERO PUSH2 0xD68 JUMPI PUSH2 0xD67 PUSH2 0xB62 JUMP JUMPDEST JUMPDEST PUSH2 0xD74 DUP10 DUP3 DUP11 ADD PUSH2 0xC7F JUMP JUMPDEST SWAP7 POP POP PUSH1 0x20 PUSH2 0xD85 DUP10 DUP3 DUP11 ADD PUSH2 0xCCE JUMP JUMPDEST SWAP6 POP POP PUSH1 0x40 PUSH2 0xD96 DUP10 DUP3 DUP11 ADD PUSH2 0xCCE JUMP JUMPDEST SWAP5 POP POP PUSH1 0x60 PUSH2 0xDA7 DUP10 DUP3 DUP11 ADD PUSH2 0xCF3 JUMP JUMPDEST SWAP4 POP POP PUSH1 0x80 PUSH2 0xDB8 DUP10 DUP3 DUP11 ADD PUSH2 0xCCE JUMP JUMPDEST SWAP3 POP POP PUSH1 0xA0 PUSH2 0xDC9 DUP10 DUP3 DUP11 ADD PUSH2 0xD18 JUMP JUMPDEST SWAP2 POP POP SWAP3 SWAP6 POP SWAP3 SWAP6 POP SWAP3 SWAP6 JUMP JUMPDEST PUSH2 0xDDF DUP2 PUSH2 0xCAD JUMP JUMPDEST DUP3 MSTORE POP POP JUMP JUMPDEST PUSH1 0x0 PUSH1 0x20 DUP3 ADD SWAP1 POP PUSH2 0xDFA PUSH1 0x0 DUP4 ADD DUP5 PUSH2 0xDD6 JUMP JUMPDEST SWAP3 SWAP2 POP POP JUMP JUMPDEST PUSH1 0x0 DUP1 PUSH1 0x0 DUP1 PUSH1 0x0 DUP1 PUSH1 0x0 PUSH1 0xE0 DUP9 DUP11 SUB SLT ISZERO PUSH2 0xE1F JUMPI PUSH2 0xE1E PUSH2 0xB5D JUMP JUMPDEST JUMPDEST PUSH1 0x0 PUSH2 0xE2D DUP11 DUP3 DUP12 ADD PUSH2 0xCCE JUMP JUMPDEST SWAP8 POP POP PUSH1 0x20 DUP9 ADD CALLDATALOAD PUSH8 0xFFFFFFFFFFFFFFFF DUP2 GT ISZERO PUSH2 0xE4E JUMPI PUSH2 0xE4D PUSH2 0xB62 JUMP JUMPDEST JUMPDEST PUSH2 0xE5A DUP11 DUP3 DUP12 ADD PUSH2 0xC7F JUMP JUMPDEST SWAP7 POP POP PUSH1 0x40 PUSH2 0xE6B DUP11 DUP3 DUP12 ADD PUSH2 0xCCE JUMP JUMPDEST SWAP6 POP POP PUSH1 0x60 PUSH2 0xE7C DUP11 DUP3 DUP12 ADD PUSH2 0xCCE JUMP JUMPDEST SWAP5 POP POP PUSH1 0x80 PUSH2 0xE8D DUP11 DUP3 DUP12 ADD PUSH2 0xCF3 JUMP JUMPDEST SWAP4 POP POP PUSH1 0xA0 PUSH2 0xE9E DUP11 DUP3 DUP12 ADD PUSH2 0xD18 JUMP JUMPDEST SWAP3 POP POP PUSH1 0xC0 PUSH2 0xEAF DUP11 DUP3 DUP12 ADD PUSH2 0xCCE JUMP JUMPDEST SWAP2 POP POP SWAP3 SWAP6 SWAP9 SWAP2 SWAP5 SWAP8 POP SWAP3 SWAP6 POP JUMP JUMPDEST PUSH1 0x0 PUSH1 0x20 DUP3 DUP5 SUB SLT ISZERO PUSH2 0xED4 JUMPI PUSH2 0xED3 PUSH2 0xB5D JUMP JUMPDEST JUMPDEST PUSH1 0x0 PUSH2 0xEE2 DUP5 DUP3 DUP6 ADD PUSH2 0xCCE JUMP JUMPDEST SWAP2 POP POP SWAP3 SWAP2 POP POP JUMP JUMPDEST PUSH1 0x0 DUP2 MLOAD SWAP1 POP SWAP2 SWAP1 POP JUMP JUMPDEST PUSH1 0x0 DUP3 DUP3 MSTORE PUSH1 0x20 DUP3 ADD SWAP1 POP SWAP3 SWAP2 POP POP JUMP JUMPDEST PUSH1 0x0 JUMPDEST DUP4 DUP2 LT ISZERO PUSH2 0xF25 JUMPI DUP1 DUP3 ADD MLOAD DUP2 DUP5 ADD MSTORE PUSH1 0x20 DUP2 ADD SWAP1 POP PUSH2 0xF0A JUMP JUMPDEST PUSH1 0x0 DUP5 DUP5 ADD MSTORE POP POP POP POP JUMP JUMPDEST PUSH1 0x0 PUSH2 0xF3C DUP3 PUSH2 0xEEB JUMP JUMPDEST PUSH2 0xF46 DUP2 DUP6 PUSH2 0xEF6 JUMP JUMPDEST SWAP4 POP PUSH2 0xF56 DUP2 DUP6 PUSH1 0x20 DUP7 ADD PUSH2 0xF07 JUMP JUMPDEST PUSH2 0xF5F DUP2 PUSH2 0xB71 JUMP JUMPDEST DUP5 ADD SWAP2 POP POP SWAP3 SWAP2 POP POP JUMP JUMPDEST PUSH32 0x4E487B7100000000000000000000000000000000000000000000000000000000 PUSH1 0x0 MSTORE PUSH1 0x21 PUSH1 0x4 MSTORE PUSH1 0x24 PUSH1 0x0 REVERT JUMPDEST PUSH1 0x4 DUP2 LT PUSH2 0xFAA JUMPI PUSH2 0xFA9 PUSH2 0xF6A JUMP JUMPDEST JUMPDEST POP JUMP JUMPDEST PUSH1 0x0 DUP2 SWAP1 POP PUSH2 0xFBB DUP3 PUSH2 0xF99 JUMP JUMPDEST SWAP2 SWAP1 POP JUMP JUMPDEST PUSH1 0x0 PUSH2 0xFCB DUP3 PUSH2 0xFAD JUMP JUMPDEST SWAP1 POP SWAP2 SWAP1 POP JUMP JUMPDEST PUSH2 0xFDB DUP2 PUSH2 0xFC0 JUMP JUMPDEST DUP3 MSTORE POP POP JUMP JUMPDEST PUSH1 0x4 DUP2 LT PUSH2 0xFF2 JUMPI PUSH2 0xFF1 PUSH2 0xF6A JUMP JUMPDEST JUMPDEST POP JUMP JUMPDEST PUSH1 0x0 DUP2 SWAP1 POP PUSH2 0x1003 DUP3 PUSH2 0xFE1 JUMP JUMPDEST SWAP2 SWAP1 POP JUMP JUMPDEST PUSH1 0x0 PUSH2 0x1013 DUP3 PUSH2 0xFF5 JUMP JUMPDEST SWAP1 POP SWAP2 SWAP1 POP JUMP JUMPDEST PUSH2 0x1023 DUP2 PUSH2 0x1008 JUMP JUMPDEST DUP3 MSTORE POP POP JUMP JUMPDEST PUSH1 0x0 PUSH1 0xC0 DUP3 ADD SWAP1 POP DUP2 DUP2 SUB PUSH1 0x0 DUP4 ADD MSTORE PUSH2 0x1043 DUP2 DUP10 PUSH2 0xF31 JUMP JUMPDEST SWAP1 POP PUSH2 0x1052 PUSH1 0x20 DUP4 ADD DUP9 PUSH2 0xDD6 JUMP JUMPDEST PUSH2 0x105F PUSH1 0x40 DUP4 ADD DUP8 PUSH2 0xDD6 JUMP JUMPDEST PUSH2 0x106C PUSH1 0x60 DUP4 ADD DUP7 PUSH2 0xFD2 JUMP JUMPDEST PUSH2 0x1079 PUSH1 0x80 DUP4 ADD DUP6 PUSH2 0x101A JUMP JUMPDEST PUSH2 0x1086 PUSH1 0xA0 DUP4 ADD DUP5 PUSH2 0xDD6 JUMP JUMPDEST SWAP8 SWAP7 POP POP POP POP POP POP POP JUMP JUMPDEST PUSH1 0x0 PUSH1 0x20 DUP3 DUP5 SUB SLT ISZERO PUSH2 0x10A7 JUMPI PUSH2 0x10A6 PUSH2 0xB5D JUMP JUMPDEST JUMPDEST PUSH1 0x0 PUSH2 0x10B5 DUP5 DUP3 DUP6 ADD PUSH2 0xCF3 JUMP JUMPDEST SWAP2 POP POP SWAP3 SWAP2 POP POP JUMP JUMPDEST PUSH1 0x0 DUP3 DUP3 MSTORE PUSH1 0x20 DUP3 ADD SWAP1 POP SWAP3 SWAP2 POP POP JUMP JUMPDEST PUSH1 0x0 PUSH2 0x10DA DUP3 PUSH2 0xEEB JUMP JUMPDEST PUSH2 0x10E4 DUP2 DUP6 PUSH2 0x10BE JUMP JUMPDEST SWAP4 POP PUSH2 0x10F4 DUP2 DUP6 PUSH1 0x20 DUP7 ADD PUSH2 0xF07 JUMP JUMPDEST PUSH2 0x10FD DUP2 PUSH2 0xB71 JUMP JUMPDEST DUP5 ADD SWAP2 POP POP SWAP3 SWAP2 POP POP JUMP JUMPDEST PUSH2 0x1111 DUP2 PUSH2 0xCAD JUMP JUMPDEST DUP3 MSTORE POP POP JUMP JUMPDEST PUSH2 0x1120 DUP2 PUSH2 0xFC0 JUMP JUMPDEST DUP3 MSTORE POP POP JUMP JUMPDEST PUSH2 0x112F DUP2 PUSH2 0x1008 JUMP JUMPDEST DUP3 MSTORE POP POP JUMP JUMPDEST PUSH1 0x0 PUSH1 0xC0 DUP4 ADD PUSH1 0x0 DUP4 ADD MLOAD DUP5 DUP3 SUB PUSH1 0x0 DUP7 ADD MSTORE PUSH2 0x1152 DUP3 DUP3 PUSH2 0x10CF JUMP JUMPDEST SWAP2 POP POP PUSH1 0x20 DUP4 ADD MLOAD PUSH2 0x1167 PUSH1 0x20 DUP7 ADD DUP3 PUSH2 0x1108 JUMP JUMPDEST POP PUSH1 0x40 DUP4 ADD MLOAD PUSH2 0x117A PUSH1 0x40 DUP7 ADD DUP3 PUSH2 0x1108 JUMP JUMPDEST POP PUSH1 0x60 DUP4 ADD MLOAD PUSH2 0x118D PUSH1 0x60 DUP7 ADD DUP3 PUSH2 0x1117 JUMP JUMPDEST POP PUSH1 0x80 DUP4 ADD MLOAD PUSH2 0x11A0 PUSH1 0x80 DUP7 ADD DUP3 PUSH2 0x1126 JUMP JUMPDEST POP PUSH1 0xA0 DUP4 ADD MLOAD PUSH2 0x11B3 PUSH1 0xA0 DUP7 ADD DUP3 PUSH2 0x1108 JUMP JUMPDEST POP DUP1 SWAP2 POP POP SWAP3 SWAP2 POP POP JUMP JUMPDEST PUSH1 0x0 PUSH1 0x60 DUP3 ADD SWAP1 POP DUP2 DUP2 SUB PUSH1 0x0 DUP4 ADD MSTORE PUSH2 0x11D8 DUP2 DUP7 PUSH2 0x1135 JUMP JUMPDEST SWAP1 POP DUP2 DUP2 SUB PUSH1 0x20 DUP4 ADD MSTORE PUSH2 0x11EC DUP2 DUP6 PUSH2 0x1135 JUMP JUMPDEST SWAP1 POP DUP2 DUP2 SUB PUSH1 0x40 DUP4 ADD MSTORE PUSH2 0x1200 DUP2 DUP5 PUSH2 0x1135 JUMP JUMPDEST SWAP1 POP SWAP5 SWAP4 POP POP POP POP JUMP JUMPDEST PUSH32 0x4E487B7100000000000000000000000000000000000000000000000000000000 PUSH1 0x0 MSTORE PUSH1 0x11 PUSH1 0x4 MSTORE PUSH1 0x24 PUSH1 0x0 REVERT JUMPDEST PUSH1 0x0 PUSH2 0x1244 DUP3 PUSH2 0xCAD JUMP JUMPDEST SWAP2 POP PUSH2 0x124F DUP4 PUSH2 0xCAD JUMP JUMPDEST SWAP3 POP DUP3 DUP3 ADD SWAP1 POP DUP1 DUP3 GT ISZERO PUSH2 0x1267 JUMPI PUSH2 0x1266 PUSH2 0x120A JUMP JUMPDEST JUMPDEST SWAP3 SWAP2 POP POP JUMP JUMPDEST PUSH32 0x4E487B7100000000000000000000000000000000000000000000000000000000 PUSH1 0x0 MSTORE PUSH1 0x22 PUSH1 0x4 MSTORE PUSH1 0x24 PUSH1 0x0 REVERT JUMPDEST PUSH1 0x0 PUSH1 0x2 DUP3 DIV SWAP1 POP PUSH1 0x1 DUP3 AND DUP1 PUSH2 0x12B4 JUMPI PUSH1 0x7F DUP3 AND SWAP2 POP JUMPDEST PUSH1 0x20 DUP3 LT DUP2 SUB PUSH2 0x12C7 JUMPI PUSH2 0x12C6 PUSH2 0x126D JUMP JUMPDEST JUMPDEST POP SWAP2 SWAP1 POP JUMP JUMPDEST PUSH1 0x0 DUP2 SWAP1 POP DUP2 PUSH1 0x0 MSTORE PUSH1 0x20 PUSH1 0x0 KECCAK256 SWAP1 POP SWAP2 SWAP1 POP JUMP JUMPDEST PUSH1 0x0 PUSH1 0x20 PUSH1 0x1F DUP4 ADD DIV SWAP1 POP SWAP2 SWAP1 POP JUMP JUMPDEST PUSH1 0x0 DUP3 DUP3 SHL SWAP1 POP SWAP3 SWAP2 POP POP JUMP JUMPDEST PUSH1 0x0 PUSH1 0x8 DUP4 MUL PUSH2 0x132F PUSH32 0xFFFFFFFFFFFFFFFFFFFFFFFFFFFFFFFFFFFFFFFFFFFFFFFFFFFFFFFFFFFFFFFF DUP3 PUSH2 0x12F2 JUMP JUMPDEST PUSH2 0x1339 DUP7 DUP4 PUSH2 0x12F2 JUMP JUMPDEST SWAP6 POP DUP1 NOT DUP5 AND SWAP4 POP DUP1 DUP7 AND DUP5 OR SWAP3 POP POP POP SWAP4 SWAP3 POP POP POP JUMP JUMPDEST PUSH1 0x0 DUP2 SWAP1 POP SWAP2 SWAP1 POP JUMP JUMPDEST PUSH1 0x0 PUSH2 0x1376 PUSH2 0x1371 PUSH2 0x136C DUP5 PUSH2 0xCAD JUMP JUMPDEST PUSH2 0x1351 JUMP JUMPDEST PUSH2 0xCAD JUMP JUMPDEST SWAP1 POP SWAP2 SWAP1 POP JUMP JUMPDEST PUSH1 0x0 DUP2 SWAP1 POP SWAP2 SWAP1 POP JUMP JUMPDEST PUSH2 0x1390 DUP4 PUSH2 0x135B JUMP JUMPDEST PUSH2 0x13A4 PUSH2 0x139C DUP3 PUSH2 0x137D JUMP JUMPDEST DUP5 DUP5 SLOAD PUSH2 0x12FF JUMP JUMPDEST DUP3 SSTORE POP POP POP POP JUMP JUMPDEST PUSH1 0x0 SWAP1 JUMP JUMPDEST PUSH2 0x13B9 PUSH2 0x13AC JUMP JUMPDEST PUSH2 0x13C4 DUP2 DUP5 DUP5 PUSH2 0x1387 JUMP JUMPDEST POP POP POP JUMP JUMPDEST JUMPDEST DUP2 DUP2 LT ISZERO PUSH2 0x13E8 JUMPI PUSH2 0x13DD PUSH1 0x0 DUP3 PUSH2 0x13B1 JUMP JUMPDEST PUSH1 0x1 DUP2 ADD SWAP1 POP PUSH2 0x13CA JUMP JUMPDEST POP POP JUMP JUMPDEST PUSH1 0x1F DUP3 GT ISZERO PUSH2 0x142D JUMPI PUSH2 0x13FE DUP2 PUSH2 0x12CD JUMP JUMPDEST PUSH2 0x1407 DUP5 PUSH2 0x12E2 JUMP JUMPDEST DUP2 ADD PUSH1 0x20 DUP6 LT ISZERO PUSH2 0x1416 JUMPI DUP2 SWAP1 POP JUMPDEST PUSH2 0x142A PUSH2 0x1422 DUP6 PUSH2 0x12E2 JUMP JUMPDEST DUP4 ADD DUP3 PUSH2 0x13C9 JUMP JUMPDEST POP POP JUMPDEST POP POP POP JUMP JUMPDEST PUSH1 0x0 DUP3 DUP3 SHR SWAP1 POP SWAP3 SWAP2 POP POP JUMP JUMPDEST PUSH1 0x0 PUSH2 0x1450 PUSH1 0x0 NOT DUP5 PUSH1 0x8 MUL PUSH2 0x1432 JUMP JUMPDEST NOT DUP1 DUP4 AND SWAP2 POP POP SWAP3 SWAP2 POP POP JUMP JUMPDEST PUSH1 0x0 PUSH2 0x1469 DUP4 DUP4 PUSH2 0x143F JUMP JUMPDEST SWAP2 POP DUP3 PUSH1 0x2 MUL DUP3 OR SWAP1 POP SWAP3 SWAP2 POP POP JUMP JUMPDEST PUSH2 0x1482 DUP3 PUSH2 0xEEB JUMP JUMPDEST PUSH8 0xFFFFFFFFFFFFFFFF DUP2 GT ISZERO PUSH2 0x149B JUMPI PUSH2 0x149A PUSH2 0xB82 JUMP JUMPDEST JUMPDEST PUSH2 0x14A5 DUP3 SLOAD PUSH2 0x129C JUMP JUMPDEST PUSH2 0x14B0 DUP3 DUP3 DUP6 PUSH2 0x13EC JUMP JUMPDEST PUSH1 0x0 PUSH1 0x20 SWAP1 POP PUSH1 0x1F DUP4 GT PUSH1 0x1 DUP2 EQ PUSH2 0x14E3 JUMPI PUSH1 0x0 DUP5 ISZERO PUSH2 0x14D1 JUMPI DUP3 DUP8 ADD MLOAD SWAP1 POP JUMPDEST PUSH2 0x14DB DUP6 DUP3 PUSH2 0x145D JUMP JUMPDEST DUP7 SSTORE POP PUSH2 0x1543 JUMP JUMPDEST PUSH1 0x1F NOT DUP5 AND PUSH2 0x14F1 DUP7 PUSH2 0x12CD JUMP JUMPDEST PUSH1 0x0 JUMPDEST DUP3 DUP2 LT ISZERO PUSH2 0x1519 JUMPI DUP5 DUP10 ADD MLOAD DUP3 SSTORE PUSH1 0x1 DUP3 ADD SWAP2 POP PUSH1 0x20 DUP6 ADD SWAP5 POP PUSH1 0x20 DUP2 ADD SWAP1 POP PUSH2 0x14F4 JUMP JUMPDEST DUP7 DUP4 LT ISZERO PUSH2 0x1536 JUMPI DUP5 DUP10 ADD MLOAD PUSH2 0x1532 PUSH1 0x1F DUP10 AND DUP3 PUSH2 0x143F JUMP JUMPDEST DUP4 SSTORE POP JUMPDEST PUSH1 0x1 PUSH1 0x2 DUP9 MUL ADD DUP9 SSTORE POP POP POP JUMPDEST POP POP POP POP POP POP JUMP JUMPDEST PUSH1 0x0 PUSH2 0x1556 DUP3 PUSH2 0xCAD JUMP JUMPDEST SWAP2 POP PUSH32 0xFFFFFFFFFFFFFFFFFFFFFFFFFFFFFFFFFFFFFFFFFFFFFFFFFFFFFFFFFFFFFFFF DUP3 SUB PUSH2 0x1588 JUMPI PUSH2 0x1587 PUSH2 0x120A JUMP JUMPDEST JUMPDEST PUSH1 0x1 DUP3 ADD SWAP1 POP SWAP2 SWAP1 POP JUMP JUMPDEST PUSH32 0x496E76616C696420726F6C6C206E756D62657200000000000000000000000000 PUSH1 0x0 DUP3 ADD MSTORE POP JUMP JUMPDEST PUSH1 0x0 PUSH2 0x15C9 PUSH1 0x13 DUP4 PUSH2 0xEF6 JUMP JUMPDEST SWAP2 POP PUSH2 0x15D4 DUP3 PUSH2 0x1593 JUMP JUMPDEST PUSH1 0x20 DUP3 ADD SWAP1 POP SWAP2 SWAP1 POP JUMP JUMPDEST PUSH1 0x0 PUSH1 0x20 DUP3 ADD SWAP1 POP DUP2 DUP2 SUB PUSH1 0x0 DUP4 ADD MSTORE PUSH2 0x15F8 DUP2 PUSH2 0x15BC JUMP JUMPDEST SWAP1 POP SWAP2 SWAP1 POP JUMP INVALID LOG2 PUSH5 0x6970667358 0x22 SLT KECCAK256 PUSH7 0x4FC0E5BCC65916 GT 0xC3 JUMP PUSH32 0x87BE78AEAF69B0EC8AF98F0C2DF09CC21AA389DB64736F6C6343000812003300 "
				},
				"gasEstimates": {
					"creation": {
						"codeDepositCost": "1137000",
						"executionCost": "1180",
						"totalCost": "1138180"
					},
					"external": {
						"StudentCount()": "2451",
						"Top3BlockchainAchievers()": "infinite",
						"getCount(uint8)": "infinite",
						"register(string,uint256,uint256,uint8,uint256,uint8)": "infinite",
						"retrieve(uint256)": "infinite",
						"update(uint256,string,uint256,uint256,uint8,uint8,uint256)": "infinite"
					}
				},
				"methodIdentifiers": {
					"StudentCount()": "4973ccfb",
					"Top3BlockchainAchievers()": "fb9ad0fd",
					"getCount(uint8)": "a819dfbb",
					"register(string,uint256,uint256,uint8,uint256,uint8)": "234ffa5d",
					"retrieve(uint256)": "8f88708b",
					"update(uint256,string,uint256,uint256,uint8,uint8,uint256)": "48e3eeda"
				}
			},
			"storageLayout": {
				"storage": [
					{
						"astId": 31,
						"contract": "LABS 8 Aug/Task 1 lab8.sol:StudentRegistrationSystem",
						"label": "TotalStudents",
						"offset": 0,
						"slot": "0",
						"type": "t_mapping(t_uint256,t_struct(Student)26_storage)"
					},
					{
						"astId": 33,
						"contract": "LABS 8 Aug/Task 1 lab8.sol:StudentRegistrationSystem",
						"label": "StudentCount",
						"offset": 0,
						"slot": "1",
						"type": "t_uint256"
					},
					{
						"astId": 37,
						"contract": "LABS 8 Aug/Task 1 lab8.sol:StudentRegistrationSystem",
						"label": "top3",
						"offset": 0,
						"slot": "2",
						"type": "t_array(t_uint256)3_storage"
					}
				],
				"types": {
					"t_array(t_uint256)3_storage": {
						"base": "t_uint256",
						"encoding": "inplace",
						"label": "uint256[3]",
						"numberOfBytes": "96"
					},
					"t_enum(Department)6": {
						"encoding": "inplace",
						"label": "enum StudentRegistrationSystem.Department",
						"numberOfBytes": "1"
					},
					"t_enum(Status)11": {
						"encoding": "inplace",
						"label": "enum StudentRegistrationSystem.Status",
						"numberOfBytes": "1"
					},
					"t_mapping(t_uint256,t_struct(Student)26_storage)": {
						"encoding": "mapping",
						"key": "t_uint256",
						"label": "mapping(uint256 => struct StudentRegistrationSystem.Student)",
						"numberOfBytes": "32",
						"value": "t_struct(Student)26_storage"
					},
					"t_string_storage": {
						"encoding": "bytes",
						"label": "string",
						"numberOfBytes": "32"
					},
					"t_struct(Student)26_storage": {
						"encoding": "inplace",
						"label": "struct StudentRegistrationSystem.Student",
						"members": [
							{
								"astId": 13,
								"contract": "LABS 8 Aug/Task 1 lab8.sol:StudentRegistrationSystem",
								"label": "name",
								"offset": 0,
								"slot": "0",
								"type": "t_string_storage"
							},
							{
								"astId": 15,
								"contract": "LABS 8 Aug/Task 1 lab8.sol:StudentRegistrationSystem",
								"label": "age",
								"offset": 0,
								"slot": "1",
								"type": "t_uint256"
							},
							{
								"astId": 17,
								"contract": "LABS 8 Aug/Task 1 lab8.sol:StudentRegistrationSystem",
								"label": "date",
								"offset": 0,
								"slot": "2",
								"type": "t_uint256"
							},
							{
								"astId": 20,
								"contract": "LABS 8 Aug/Task 1 lab8.sol:StudentRegistrationSystem",
								"label": "department",
								"offset": 0,
								"slot": "3",
								"type": "t_enum(Department)6"
							},
							{
								"astId": 23,
								"contract": "LABS 8 Aug/Task 1 lab8.sol:StudentRegistrationSystem",
								"label": "status",
								"offset": 1,
								"slot": "3",
								"type": "t_enum(Status)11"
							},
							{
								"astId": 25,
								"contract": "LABS 8 Aug/Task 1 lab8.sol:StudentRegistrationSystem",
								"label": "ObtainedMarks",
								"offset": 0,
								"slot": "4",
								"type": "t_uint256"
							}
						],
						"numberOfBytes": "160"
					},
					"t_uint256": {
						"encoding": "inplace",
						"label": "uint256",
						"numberOfBytes": "32"
					}
				}
			},
			"userdoc": {
				"kind": "user",
				"methods": {},
				"version": 1
			}
		}
	}
}