{
	"LABS 8 Aug/Task 1 lab8.sol": {
		"StudentRegisterationSystem": {
			"abi": [
				{
					"inputs": [
						{
							"internalType": "enum StudentRegisterationSystem.Department",
							"name": "_department",
							"type": "uint8"
						}
					],
					"name": "getDepartmentStudentCount",
					"outputs": [
						{
							"internalType": "uint256",
							"name": "",
							"type": "uint256"
						}
					],
					"stateMutability": "view",
					"type": "function"
				},
				{
					"inputs": [],
					"name": "getTop3BlockchainAchievers",
					"outputs": [
						{
							"internalType": "string[3]",
							"name": "names",
							"type": "string[3]"
						},
						{
							"internalType": "uint256[3]",
							"name": "ages",
							"type": "uint256[3]"
						},
						{
							"internalType": "uint256[3]",
							"name": "registrationDates",
							"type": "uint256[3]"
						},
						{
							"internalType": "enum StudentRegisterationSystem.Status[3]",
							"name": "statuses",
							"type": "uint8[3]"
						},
						{
							"internalType": "uint256[3]",
							"name": "obtainedMarks",
							"type": "uint256[3]"
						}
					],
					"stateMutability": "view",
					"type": "function"
				},
				{
					"inputs": [
						{
							"internalType": "uint256",
							"name": "rollnumber",
							"type": "uint256"
						},
						{
							"internalType": "string",
							"name": "name",
							"type": "string"
						},
						{
							"internalType": "uint256",
							"name": "age",
							"type": "uint256"
						},
						{
							"internalType": "enum StudentRegisterationSystem.Department",
							"name": "department",
							"type": "uint8"
						},
						{
							"internalType": "enum StudentRegisterationSystem.Status",
							"name": "status",
							"type": "uint8"
						},
						{
							"internalType": "uint256",
							"name": "ObtainedMarks",
							"type": "uint256"
						},
						{
							"internalType": "uint256",
							"name": "registrationDate",
							"type": "uint256"
						}
					],
					"name": "registerStudent",
					"outputs": [],
					"stateMutability": "nonpayable",
					"type": "function"
				},
				{
					"inputs": [
						{
							"internalType": "uint256",
							"name": "rollnumber",
							"type": "uint256"
						}
					],
					"name": "retrieve",
					"outputs": [
						{
							"internalType": "string",
							"name": "name",
							"type": "string"
						},
						{
							"internalType": "uint256",
							"name": "age",
							"type": "uint256"
						},
						{
							"internalType": "uint256",
							"name": "registrationDate",
							"type": "uint256"
						},
						{
							"internalType": "enum StudentRegisterationSystem.Department",
							"name": "department",
							"type": "uint8"
						},
						{
							"internalType": "enum StudentRegisterationSystem.Status",
							"name": "status",
							"type": "uint8"
						},
						{
							"internalType": "uint256",
							"name": "ObtainedMarks",
							"type": "uint256"
						}
					],
					"stateMutability": "view",
					"type": "function"
				},
				{
					"inputs": [
						{
							"internalType": "uint256",
							"name": "",
							"type": "uint256"
						}
					],
					"name": "students",
					"outputs": [
						{
							"internalType": "string",
							"name": "name",
							"type": "string"
						},
						{
							"internalType": "uint256",
							"name": "age",
							"type": "uint256"
						},
						{
							"internalType": "uint256",
							"name": "registrationDate",
							"type": "uint256"
						},
						{
							"internalType": "enum StudentRegisterationSystem.Department",
							"name": "department",
							"type": "uint8"
						},
						{
							"internalType": "enum StudentRegisterationSystem.Status",
							"name": "status",
							"type": "uint8"
						},
						{
							"internalType": "uint256",
							"name": "ObtainedMarks",
							"type": "uint256"
						}
					],
					"stateMutability": "view",
					"type": "function"
				},
				{
					"inputs": [],
					"name": "totalStudents",
					"outputs": [
						{
							"internalType": "uint256",
							"name": "",
							"type": "uint256"
						}
					],
					"stateMutability": "view",
					"type": "function"
				},
				{
					"inputs": [
						{
							"internalType": "uint256",
							"name": "rollnumber",
							"type": "uint256"
						},
						{
							"internalType": "string",
							"name": "Name",
							"type": "string"
						},
						{
							"internalType": "uint256",
							"name": "Age",
							"type": "uint256"
						},
						{
							"internalType": "enum StudentRegisterationSystem.Department",
							"name": "department",
							"type": "uint8"
						},
						{
							"internalType": "enum StudentRegisterationSystem.Status",
							"name": "status",
							"type": "uint8"
						},
						{
							"internalType": "uint256",
							"name": "ObtainedMarks",
							"type": "uint256"
						},
						{
							"internalType": "uint256",
							"name": "registrationDate",
							"type": "uint256"
						}
					],
					"name": "updateStudentInfo",
					"outputs": [],
					"stateMutability": "nonpayable",
					"type": "function"
				}
			],
			"devdoc": {
				"kind": "dev",
				"methods": {},
				"version": 1
			},
			"evm": {
				"assembly": "    /* \"LABS 8 Aug/Task 1 lab8.sol\":61:3921  contract StudentRegisterationSystem{... */\n  mstore(0x40, 0x80)\n  callvalue\n  dup1\n  iszero\n  tag_1\n  jumpi\n  0x00\n  dup1\n  revert\ntag_1:\n  pop\n  dataSize(sub_0)\n  dup1\n  dataOffset(sub_0)\n  0x00\n  codecopy\n  0x00\n  return\nstop\n\nsub_0: assembly {\n        /* \"LABS 8 Aug/Task 1 lab8.sol\":61:3921  contract StudentRegisterationSystem{... */\n      mstore(0x40, 0x80)\n      callvalue\n      dup1\n      iszero\n      tag_1\n      jumpi\n      0x00\n      dup1\n      revert\n    tag_1:\n      pop\n      jumpi(tag_2, lt(calldatasize, 0x04))\n      shr(0xe0, calldataload(0x00))\n      dup1\n      0x8f88708b\n      gt\n      tag_10\n      jumpi\n      dup1\n      0x8f88708b\n      eq\n      tag_6\n      jumpi\n      dup1\n      0x9852bf8e\n      eq\n      tag_7\n      jumpi\n      dup1\n      0x9aa0ebad\n      eq\n      tag_8\n      jumpi\n      dup1\n      0xf1b2841a\n      eq\n      tag_9\n      jumpi\n      jump(tag_2)\n    tag_10:\n      dup1\n      0x06ead22e\n      eq\n      tag_3\n      jumpi\n      dup1\n      0x12b4e900\n      eq\n      tag_4\n      jumpi\n      dup1\n      0x230c65c7\n      eq\n      tag_5\n      jumpi\n    tag_2:\n      0x00\n      dup1\n      revert\n        /* \"LABS 8 Aug/Task 1 lab8.sol\":581:621  mapping(uint => Student) public students */\n    tag_3:\n      tag_11\n      0x04\n      dup1\n      calldatasize\n      sub\n      dup2\n      add\n      swap1\n      tag_12\n      swap2\n      swap1\n      tag_13\n      jump\t// in\n    tag_12:\n      tag_14\n      jump\t// in\n    tag_11:\n      mload(0x40)\n      tag_15\n      swap7\n      swap6\n      swap5\n      swap4\n      swap3\n      swap2\n      swap1\n      tag_16\n      jump\t// in\n    tag_15:\n      mload(0x40)\n      dup1\n      swap2\n      sub\n      swap1\n      return\n        /* \"LABS 8 Aug/Task 1 lab8.sol\":2401:3912  function getTop3BlockchainAchievers() public view returns (... */\n    tag_4:\n      tag_17\n      tag_18\n      jump\t// in\n    tag_17:\n      mload(0x40)\n      tag_19\n      swap6\n      swap5\n      swap4\n      swap3\n      swap2\n      swap1\n      tag_20\n      jump\t// in\n    tag_19:\n      mload(0x40)\n      dup1\n      swap2\n      sub\n      swap1\n      return\n        /* \"LABS 8 Aug/Task 1 lab8.sol\":1157:1557  function updateStudentInfo(... */\n    tag_5:\n      tag_21\n      0x04\n      dup1\n      calldatasize\n      sub\n      dup2\n      add\n      swap1\n      tag_22\n      swap2\n      swap1\n      tag_23\n      jump\t// in\n    tag_22:\n      tag_24\n      jump\t// in\n    tag_21:\n      stop\n        /* \"LABS 8 Aug/Task 1 lab8.sol\":1581:2091  function retrieve (uint rollnumber) public view returns (... */\n    tag_6:\n      tag_25\n      0x04\n      dup1\n      calldatasize\n      sub\n      dup2\n      add\n      swap1\n      tag_26\n      swap2\n      swap1\n      tag_13\n      jump\t// in\n    tag_26:\n      tag_27\n      jump\t// in\n    tag_25:\n      mload(0x40)\n      tag_28\n      swap7\n      swap6\n      swap5\n      swap4\n      swap3\n      swap2\n      swap1\n      tag_16\n      jump\t// in\n    tag_28:\n      mload(0x40)\n      dup1\n      swap2\n      sub\n      swap1\n      return\n        /* \"LABS 8 Aug/Task 1 lab8.sol\":628:653  uint public totalStudents */\n    tag_7:\n      tag_29\n      tag_30\n      jump\t// in\n    tag_29:\n      mload(0x40)\n      tag_31\n      swap2\n      swap1\n      tag_32\n      jump\t// in\n    tag_31:\n      mload(0x40)\n      dup1\n      swap2\n      sub\n      swap1\n      return\n        /* \"LABS 8 Aug/Task 1 lab8.sol\":677:1134  function registerStudent(... */\n    tag_8:\n      tag_33\n      0x04\n      dup1\n      calldatasize\n      sub\n      dup2\n      add\n      swap1\n      tag_34\n      swap2\n      swap1\n      tag_23\n      jump\t// in\n    tag_34:\n      tag_35\n      jump\t// in\n    tag_33:\n      stop\n        /* \"LABS 8 Aug/Task 1 lab8.sol\":2111:2384  function getDepartmentStudentCount(Department _department) public view returns (uint) {... */\n    tag_9:\n      tag_36\n      0x04\n      dup1\n      calldatasize\n      sub\n      dup2\n      add\n      swap1\n      tag_37\n      swap2\n      swap1\n      tag_38\n      jump\t// in\n    tag_37:\n      tag_39\n      jump\t// in\n    tag_36:\n      mload(0x40)\n      tag_40\n      swap2\n      swap1\n      tag_32\n      jump\t// in\n    tag_40:\n      mload(0x40)\n      dup1\n      swap2\n      sub\n      swap1\n      return\n        /* \"LABS 8 Aug/Task 1 lab8.sol\":581:621  mapping(uint => Student) public students */\n    tag_14:\n      mstore(0x20, 0x00)\n      dup1\n      0x00\n      mstore\n      keccak256(0x00, 0x40)\n      0x00\n      swap2\n      pop\n      swap1\n      pop\n      dup1\n      0x00\n      add\n      dup1\n      sload\n      tag_41\n      swap1\n      tag_42\n      jump\t// in\n    tag_41:\n      dup1\n      0x1f\n      add\n      0x20\n      dup1\n      swap2\n      div\n      mul\n      0x20\n      add\n      mload(0x40)\n      swap1\n      dup2\n      add\n      0x40\n      mstore\n      dup1\n      swap3\n      swap2\n      swap1\n      dup2\n      dup2\n      mstore\n      0x20\n      add\n      dup3\n      dup1\n      sload\n      tag_43\n      swap1\n      tag_42\n      jump\t// in\n    tag_43:\n      dup1\n      iszero\n      tag_44\n      jumpi\n      dup1\n      0x1f\n      lt\n      tag_45\n      jumpi\n      0x0100\n      dup1\n      dup4\n      sload\n      div\n      mul\n      dup4\n      mstore\n      swap2\n      0x20\n      add\n      swap2\n      jump(tag_44)\n    tag_45:\n      dup3\n      add\n      swap2\n      swap1\n      0x00\n      mstore\n      keccak256(0x00, 0x20)\n      swap1\n    tag_46:\n      dup2\n      sload\n      dup2\n      mstore\n      swap1\n      0x01\n      add\n      swap1\n      0x20\n      add\n      dup1\n      dup4\n      gt\n      tag_46\n      jumpi\n      dup3\n      swap1\n      sub\n      0x1f\n      and\n      dup3\n      add\n      swap2\n    tag_44:\n      pop\n      pop\n      pop\n      pop\n      pop\n      swap1\n      dup1\n      0x01\n      add\n      sload\n      swap1\n      dup1\n      0x02\n      add\n      sload\n      swap1\n      dup1\n      0x03\n      add\n      0x00\n      swap1\n      sload\n      swap1\n      0x0100\n      exp\n      swap1\n      div\n      0xff\n      and\n      swap1\n      dup1\n      0x03\n      add\n      0x01\n      swap1\n      sload\n      swap1\n      0x0100\n      exp\n      swap1\n      div\n      0xff\n      and\n      swap1\n      dup1\n      0x04\n      add\n      sload\n      swap1\n      pop\n      dup7\n      jump\t// out\n        /* \"LABS 8 Aug/Task 1 lab8.sol\":2401:3912  function getTop3BlockchainAchievers() public view returns (... */\n    tag_18:\n        /* \"LABS 8 Aug/Task 1 lab8.sol\":2466:2488  string[3] memory names */\n      tag_47\n      tag_48\n      jump\t// in\n    tag_47:\n        /* \"LABS 8 Aug/Task 1 lab8.sol\":2495:2514  uint[3] memory ages */\n      tag_49\n      tag_50\n      jump\t// in\n    tag_49:\n        /* \"LABS 8 Aug/Task 1 lab8.sol\":2521:2553  uint[3] memory registrationDates */\n      tag_51\n      tag_50\n      jump\t// in\n    tag_51:\n        /* \"LABS 8 Aug/Task 1 lab8.sol\":2560:2585  Status[3] memory statuses */\n      tag_52\n      tag_53\n      jump\t// in\n    tag_52:\n        /* \"LABS 8 Aug/Task 1 lab8.sol\":2592:2620  uint[3] memory obtainedMarks */\n      tag_54\n      tag_50\n      jump\t// in\n    tag_54:\n        /* \"LABS 8 Aug/Task 1 lab8.sol\":2631:2654  uint[3] memory topMarks */\n      tag_56\n      tag_50\n      jump\t// in\n    tag_56:\n        /* \"LABS 8 Aug/Task 1 lab8.sol\":2668:2674  uint i */\n      0x00\n        /* \"LABS 8 Aug/Task 1 lab8.sol\":2677:2678  1 */\n      0x01\n        /* \"LABS 8 Aug/Task 1 lab8.sol\":2668:2678  uint i = 1 */\n      swap1\n      pop\n        /* \"LABS 8 Aug/Task 1 lab8.sol\":2663:3836  for (uint i = 1; i <= totalStudents; i++) {... */\n    tag_57:\n        /* \"LABS 8 Aug/Task 1 lab8.sol\":2685:2698  totalStudents */\n      sload(0x01)\n        /* \"LABS 8 Aug/Task 1 lab8.sol\":2680:2681  i */\n      dup2\n        /* \"LABS 8 Aug/Task 1 lab8.sol\":2680:2698  i <= totalStudents */\n      gt\n        /* \"LABS 8 Aug/Task 1 lab8.sol\":2663:3836  for (uint i = 1; i <= totalStudents; i++) {... */\n      tag_58\n      jumpi\n        /* \"LABS 8 Aug/Task 1 lab8.sol\":2716:2739  Student storage student */\n      0x00\n        /* \"LABS 8 Aug/Task 1 lab8.sol\":2742:2750  students */\n      dup1\n        /* \"LABS 8 Aug/Task 1 lab8.sol\":2742:2753  students[i] */\n      0x00\n        /* \"LABS 8 Aug/Task 1 lab8.sol\":2751:2752  i */\n      dup4\n        /* \"LABS 8 Aug/Task 1 lab8.sol\":2742:2753  students[i] */\n      dup2\n      mstore\n      0x20\n      add\n      swap1\n      dup2\n      mstore\n      0x20\n      add\n      0x00\n      keccak256\n        /* \"LABS 8 Aug/Task 1 lab8.sol\":2716:2753  Student storage student = students[i] */\n      swap1\n      pop\n        /* \"LABS 8 Aug/Task 1 lab8.sol\":2792:2813  Department.Blockchain */\n      0x01\n        /* \"LABS 8 Aug/Task 1 lab8.sol\":2770:2813  student.department == Department.Blockchain */\n      0x03\n      dup2\n      gt\n      iszero\n      tag_60\n      jumpi\n      tag_61\n      tag_62\n      jump\t// in\n    tag_61:\n    tag_60:\n        /* \"LABS 8 Aug/Task 1 lab8.sol\":2770:2777  student */\n      dup2\n        /* \"LABS 8 Aug/Task 1 lab8.sol\":2770:2788  student.department */\n      0x03\n      add\n      0x00\n      swap1\n      sload\n      swap1\n      0x0100\n      exp\n      swap1\n      div\n      0xff\n      and\n        /* \"LABS 8 Aug/Task 1 lab8.sol\":2770:2813  student.department == Department.Blockchain */\n      0x03\n      dup2\n      gt\n      iszero\n      tag_63\n      jumpi\n      tag_64\n      tag_62\n      jump\t// in\n    tag_64:\n    tag_63:\n      eq\n        /* \"LABS 8 Aug/Task 1 lab8.sol\":2770:2850  student.department == Department.Blockchain && student.status != Status.Expelled */\n      dup1\n      iszero\n      tag_65\n      jumpi\n      pop\n        /* \"LABS 8 Aug/Task 1 lab8.sol\":2835:2850  Status.Expelled */\n      0x03\n        /* \"LABS 8 Aug/Task 1 lab8.sol\":2817:2850  student.status != Status.Expelled */\n      dup1\n      dup2\n      gt\n      iszero\n      tag_66\n      jumpi\n      tag_67\n      tag_62\n      jump\t// in\n    tag_67:\n    tag_66:\n        /* \"LABS 8 Aug/Task 1 lab8.sol\":2817:2824  student */\n      dup2\n        /* \"LABS 8 Aug/Task 1 lab8.sol\":2817:2831  student.status */\n      0x03\n      add\n      0x01\n      swap1\n      sload\n      swap1\n      0x0100\n      exp\n      swap1\n      div\n      0xff\n      and\n        /* \"LABS 8 Aug/Task 1 lab8.sol\":2817:2850  student.status != Status.Expelled */\n      0x03\n      dup2\n      gt\n      iszero\n      tag_68\n      jumpi\n      tag_69\n      tag_62\n      jump\t// in\n    tag_69:\n    tag_68:\n      eq\n      iszero\n        /* \"LABS 8 Aug/Task 1 lab8.sol\":2770:2850  student.department == Department.Blockchain && student.status != Status.Expelled */\n    tag_65:\n        /* \"LABS 8 Aug/Task 1 lab8.sol\":2770:2890  student.department == Department.Blockchain && student.status != Status.Expelled && student.status != Status.NotEnrolled */\n      dup1\n      iszero\n      tag_70\n      jumpi\n      pop\n        /* \"LABS 8 Aug/Task 1 lab8.sol\":2872:2890  Status.NotEnrolled */\n      0x01\n        /* \"LABS 8 Aug/Task 1 lab8.sol\":2854:2890  student.status != Status.NotEnrolled */\n      0x03\n      dup2\n      gt\n      iszero\n      tag_71\n      jumpi\n      tag_72\n      tag_62\n      jump\t// in\n    tag_72:\n    tag_71:\n        /* \"LABS 8 Aug/Task 1 lab8.sol\":2854:2861  student */\n      dup2\n        /* \"LABS 8 Aug/Task 1 lab8.sol\":2854:2868  student.status */\n      0x03\n      add\n      0x01\n      swap1\n      sload\n      swap1\n      0x0100\n      exp\n      swap1\n      div\n      0xff\n      and\n        /* \"LABS 8 Aug/Task 1 lab8.sol\":2854:2890  student.status != Status.NotEnrolled */\n      0x03\n      dup2\n      gt\n      iszero\n      tag_73\n      jumpi\n      tag_74\n      tag_62\n      jump\t// in\n    tag_74:\n    tag_73:\n      eq\n      iszero\n        /* \"LABS 8 Aug/Task 1 lab8.sol\":2770:2890  student.department == Department.Blockchain && student.status != Status.Expelled && student.status != Status.NotEnrolled */\n    tag_70:\n        /* \"LABS 8 Aug/Task 1 lab8.sol\":2766:3829  if (student.department == Department.Blockchain && student.status != Status.Expelled && student.status != Status.NotEnrolled) {... */\n      iszero\n      tag_75\n      jumpi\n        /* \"LABS 8 Aug/Task 1 lab8.sol\":2912:2918  uint j */\n      0x00\n        /* \"LABS 8 Aug/Task 1 lab8.sol\":2907:3818  for (uint j = 0; j < 3; j++) {... */\n    tag_76:\n        /* \"LABS 8 Aug/Task 1 lab8.sol\":2928:2929  3 */\n      0x03\n        /* \"LABS 8 Aug/Task 1 lab8.sol\":2924:2925  j */\n      dup2\n        /* \"LABS 8 Aug/Task 1 lab8.sol\":2924:2929  j < 3 */\n      lt\n        /* \"LABS 8 Aug/Task 1 lab8.sol\":2907:3818  for (uint j = 0; j < 3; j++) {... */\n      iszero\n      tag_77\n      jumpi\n        /* \"LABS 8 Aug/Task 1 lab8.sol\":2983:2991  topMarks */\n      dup4\n        /* \"LABS 8 Aug/Task 1 lab8.sol\":2992:2993  j */\n      dup2\n        /* \"LABS 8 Aug/Task 1 lab8.sol\":2983:2994  topMarks[j] */\n      0x03\n      dup2\n      lt\n      tag_79\n      jumpi\n      tag_80\n      tag_81\n      jump\t// in\n    tag_80:\n    tag_79:\n      0x20\n      mul\n      add\n      mload\n        /* \"LABS 8 Aug/Task 1 lab8.sol\":2959:2966  student */\n      dup3\n        /* \"LABS 8 Aug/Task 1 lab8.sol\":2959:2980  student.ObtainedMarks */\n      0x04\n      add\n      sload\n        /* \"LABS 8 Aug/Task 1 lab8.sol\":2959:2994  student.ObtainedMarks > topMarks[j] */\n      gt\n        /* \"LABS 8 Aug/Task 1 lab8.sol\":2955:3803  if (student.ObtainedMarks > topMarks[j]) {... */\n      iszero\n      tag_82\n      jumpi\n        /* \"LABS 8 Aug/Task 1 lab8.sol\":3024:3030  uint k */\n      0x00\n        /* \"LABS 8 Aug/Task 1 lab8.sol\":3033:3034  2 */\n      0x02\n        /* \"LABS 8 Aug/Task 1 lab8.sol\":3024:3034  uint k = 2 */\n      swap1\n      pop\n        /* \"LABS 8 Aug/Task 1 lab8.sol\":3019:3422  for (uint k = 2; k > j; k--) {... */\n    tag_83:\n        /* \"LABS 8 Aug/Task 1 lab8.sol\":3040:3041  j */\n      dup2\n        /* \"LABS 8 Aug/Task 1 lab8.sol\":3036:3037  k */\n      dup2\n        /* \"LABS 8 Aug/Task 1 lab8.sol\":3036:3041  k > j */\n      gt\n        /* \"LABS 8 Aug/Task 1 lab8.sol\":3019:3422  for (uint k = 2; k > j; k--) {... */\n      iszero\n      tag_84\n      jumpi\n        /* \"LABS 8 Aug/Task 1 lab8.sol\":3089:3097  topMarks */\n      dup5\n        /* \"LABS 8 Aug/Task 1 lab8.sol\":3102:3103  1 */\n      0x01\n        /* \"LABS 8 Aug/Task 1 lab8.sol\":3098:3099  k */\n      dup3\n        /* \"LABS 8 Aug/Task 1 lab8.sol\":3098:3103  k - 1 */\n      tag_86\n      swap2\n      swap1\n      tag_87\n      jump\t// in\n    tag_86:\n        /* \"LABS 8 Aug/Task 1 lab8.sol\":3089:3104  topMarks[k - 1] */\n      0x03\n      dup2\n      lt\n      tag_88\n      jumpi\n      tag_89\n      tag_81\n      jump\t// in\n    tag_89:\n    tag_88:\n      0x20\n      mul\n      add\n      mload\n        /* \"LABS 8 Aug/Task 1 lab8.sol\":3075:3083  topMarks */\n      dup6\n        /* \"LABS 8 Aug/Task 1 lab8.sol\":3084:3085  k */\n      dup3\n        /* \"LABS 8 Aug/Task 1 lab8.sol\":3075:3086  topMarks[k] */\n      0x03\n      dup2\n      lt\n      tag_90\n      jumpi\n      tag_91\n      tag_81\n      jump\t// in\n    tag_91:\n    tag_90:\n      0x20\n      mul\n      add\n        /* \"LABS 8 Aug/Task 1 lab8.sol\":3075:3104  topMarks[k] = topMarks[k - 1] */\n      dup2\n      dup2\n      mstore\n      pop\n      pop\n        /* \"LABS 8 Aug/Task 1 lab8.sol\":3142:3147  names */\n      dup10\n        /* \"LABS 8 Aug/Task 1 lab8.sol\":3152:3153  1 */\n      0x01\n        /* \"LABS 8 Aug/Task 1 lab8.sol\":3148:3149  k */\n      dup3\n        /* \"LABS 8 Aug/Task 1 lab8.sol\":3148:3153  k - 1 */\n      tag_92\n      swap2\n      swap1\n      tag_87\n      jump\t// in\n    tag_92:\n        /* \"LABS 8 Aug/Task 1 lab8.sol\":3142:3154  names[k - 1] */\n      0x03\n      dup2\n      lt\n      tag_93\n      jumpi\n      tag_94\n      tag_81\n      jump\t// in\n    tag_94:\n    tag_93:\n      0x20\n      mul\n      add\n      mload\n        /* \"LABS 8 Aug/Task 1 lab8.sol\":3131:3136  names */\n      dup11\n        /* \"LABS 8 Aug/Task 1 lab8.sol\":3137:3138  k */\n      dup3\n        /* \"LABS 8 Aug/Task 1 lab8.sol\":3131:3139  names[k] */\n      0x03\n      dup2\n      lt\n      tag_95\n      jumpi\n      tag_96\n      tag_81\n      jump\t// in\n    tag_96:\n    tag_95:\n      0x20\n      mul\n      add\n        /* \"LABS 8 Aug/Task 1 lab8.sol\":3131:3154  names[k] = names[k - 1] */\n      dup2\n      swap1\n      mstore\n      pop\n        /* \"LABS 8 Aug/Task 1 lab8.sol\":3191:3195  ages */\n      dup9\n        /* \"LABS 8 Aug/Task 1 lab8.sol\":3200:3201  1 */\n      0x01\n        /* \"LABS 8 Aug/Task 1 lab8.sol\":3196:3197  k */\n      dup3\n        /* \"LABS 8 Aug/Task 1 lab8.sol\":3196:3201  k - 1 */\n      tag_97\n      swap2\n      swap1\n      tag_87\n      jump\t// in\n    tag_97:\n        /* \"LABS 8 Aug/Task 1 lab8.sol\":3191:3202  ages[k - 1] */\n      0x03\n      dup2\n      lt\n      tag_98\n      jumpi\n      tag_99\n      tag_81\n      jump\t// in\n    tag_99:\n    tag_98:\n      0x20\n      mul\n      add\n      mload\n        /* \"LABS 8 Aug/Task 1 lab8.sol\":3181:3185  ages */\n      dup10\n        /* \"LABS 8 Aug/Task 1 lab8.sol\":3186:3187  k */\n      dup3\n        /* \"LABS 8 Aug/Task 1 lab8.sol\":3181:3188  ages[k] */\n      0x03\n      dup2\n      lt\n      tag_100\n      jumpi\n      tag_101\n      tag_81\n      jump\t// in\n    tag_101:\n    tag_100:\n      0x20\n      mul\n      add\n        /* \"LABS 8 Aug/Task 1 lab8.sol\":3181:3202  ages[k] = ages[k - 1] */\n      dup2\n      dup2\n      mstore\n      pop\n      pop\n        /* \"LABS 8 Aug/Task 1 lab8.sol\":3252:3269  registrationDates */\n      dup8\n        /* \"LABS 8 Aug/Task 1 lab8.sol\":3274:3275  1 */\n      0x01\n        /* \"LABS 8 Aug/Task 1 lab8.sol\":3270:3271  k */\n      dup3\n        /* \"LABS 8 Aug/Task 1 lab8.sol\":3270:3275  k - 1 */\n      tag_102\n      swap2\n      swap1\n      tag_87\n      jump\t// in\n    tag_102:\n        /* \"LABS 8 Aug/Task 1 lab8.sol\":3252:3276  registrationDates[k - 1] */\n      0x03\n      dup2\n      lt\n      tag_103\n      jumpi\n      tag_104\n      tag_81\n      jump\t// in\n    tag_104:\n    tag_103:\n      0x20\n      mul\n      add\n      mload\n        /* \"LABS 8 Aug/Task 1 lab8.sol\":3229:3246  registrationDates */\n      dup9\n        /* \"LABS 8 Aug/Task 1 lab8.sol\":3247:3248  k */\n      dup3\n        /* \"LABS 8 Aug/Task 1 lab8.sol\":3229:3249  registrationDates[k] */\n      0x03\n      dup2\n      lt\n      tag_105\n      jumpi\n      tag_106\n      tag_81\n      jump\t// in\n    tag_106:\n    tag_105:\n      0x20\n      mul\n      add\n        /* \"LABS 8 Aug/Task 1 lab8.sol\":3229:3276  registrationDates[k] = registrationDates[k - 1] */\n      dup2\n      dup2\n      mstore\n      pop\n      pop\n        /* \"LABS 8 Aug/Task 1 lab8.sol\":3317:3325  statuses */\n      dup7\n        /* \"LABS 8 Aug/Task 1 lab8.sol\":3330:3331  1 */\n      0x01\n        /* \"LABS 8 Aug/Task 1 lab8.sol\":3326:3327  k */\n      dup3\n        /* \"LABS 8 Aug/Task 1 lab8.sol\":3326:3331  k - 1 */\n      tag_107\n      swap2\n      swap1\n      tag_87\n      jump\t// in\n    tag_107:\n        /* \"LABS 8 Aug/Task 1 lab8.sol\":3317:3332  statuses[k - 1] */\n      0x03\n      dup2\n      lt\n      tag_108\n      jumpi\n      tag_109\n      tag_81\n      jump\t// in\n    tag_109:\n    tag_108:\n      0x20\n      mul\n      add\n      mload\n        /* \"LABS 8 Aug/Task 1 lab8.sol\":3303:3311  statuses */\n      dup8\n        /* \"LABS 8 Aug/Task 1 lab8.sol\":3312:3313  k */\n      dup3\n        /* \"LABS 8 Aug/Task 1 lab8.sol\":3303:3314  statuses[k] */\n      0x03\n      dup2\n      lt\n      tag_110\n      jumpi\n      tag_111\n      tag_81\n      jump\t// in\n    tag_111:\n    tag_110:\n      0x20\n      mul\n      add\n        /* \"LABS 8 Aug/Task 1 lab8.sol\":3303:3332  statuses[k] = statuses[k - 1] */\n      swap1\n      0x03\n      dup2\n      gt\n      iszero\n      tag_112\n      jumpi\n      tag_113\n      tag_62\n      jump\t// in\n    tag_113:\n    tag_112:\n      swap1\n      dup2\n      0x03\n      dup2\n      gt\n      iszero\n      tag_114\n      jumpi\n      tag_115\n      tag_62\n      jump\t// in\n    tag_115:\n    tag_114:\n      dup2\n      mstore\n      pop\n      pop\n        /* \"LABS 8 Aug/Task 1 lab8.sol\":3378:3391  obtainedMarks */\n      dup6\n        /* \"LABS 8 Aug/Task 1 lab8.sol\":3396:3397  1 */\n      0x01\n        /* \"LABS 8 Aug/Task 1 lab8.sol\":3392:3393  k */\n      dup3\n        /* \"LABS 8 Aug/Task 1 lab8.sol\":3392:3397  k - 1 */\n      tag_116\n      swap2\n      swap1\n      tag_87\n      jump\t// in\n    tag_116:\n        /* \"LABS 8 Aug/Task 1 lab8.sol\":3378:3398  obtainedMarks[k - 1] */\n      0x03\n      dup2\n      lt\n      tag_117\n      jumpi\n      tag_118\n      tag_81\n      jump\t// in\n    tag_118:\n    tag_117:\n      0x20\n      mul\n      add\n      mload\n        /* \"LABS 8 Aug/Task 1 lab8.sol\":3359:3372  obtainedMarks */\n      dup7\n        /* \"LABS 8 Aug/Task 1 lab8.sol\":3373:3374  k */\n      dup3\n        /* \"LABS 8 Aug/Task 1 lab8.sol\":3359:3375  obtainedMarks[k] */\n      0x03\n      dup2\n      lt\n      tag_119\n      jumpi\n      tag_120\n      tag_81\n      jump\t// in\n    tag_120:\n    tag_119:\n      0x20\n      mul\n      add\n        /* \"LABS 8 Aug/Task 1 lab8.sol\":3359:3398  obtainedMarks[k] = obtainedMarks[k - 1] */\n      dup2\n      dup2\n      mstore\n      pop\n      pop\n        /* \"LABS 8 Aug/Task 1 lab8.sol\":3043:3046  k-- */\n      dup1\n      dup1\n      tag_121\n      swap1\n      tag_122\n      jump\t// in\n    tag_121:\n      swap2\n      pop\n      pop\n        /* \"LABS 8 Aug/Task 1 lab8.sol\":3019:3422  for (uint k = 2; k > j; k--) {... */\n      jump(tag_83)\n    tag_84:\n      pop\n        /* \"LABS 8 Aug/Task 1 lab8.sol\":3458:3465  student */\n      dup2\n        /* \"LABS 8 Aug/Task 1 lab8.sol\":3458:3479  student.ObtainedMarks */\n      0x04\n      add\n      sload\n        /* \"LABS 8 Aug/Task 1 lab8.sol\":3444:3452  topMarks */\n      dup5\n        /* \"LABS 8 Aug/Task 1 lab8.sol\":3453:3454  j */\n      dup3\n        /* \"LABS 8 Aug/Task 1 lab8.sol\":3444:3455  topMarks[j] */\n      0x03\n      dup2\n      lt\n      tag_123\n      jumpi\n      tag_124\n      tag_81\n      jump\t// in\n    tag_124:\n    tag_123:\n      0x20\n      mul\n      add\n        /* \"LABS 8 Aug/Task 1 lab8.sol\":3444:3479  topMarks[j] = student.ObtainedMarks */\n      dup2\n      dup2\n      mstore\n      pop\n      pop\n        /* \"LABS 8 Aug/Task 1 lab8.sol\":3513:3520  student */\n      dup2\n        /* \"LABS 8 Aug/Task 1 lab8.sol\":3513:3525  student.name */\n      0x00\n      add\n        /* \"LABS 8 Aug/Task 1 lab8.sol\":3502:3525  names[j] = student.name */\n      dup1\n      sload\n      tag_125\n      swap1\n      tag_42\n      jump\t// in\n    tag_125:\n      dup1\n      0x1f\n      add\n      0x20\n      dup1\n      swap2\n      div\n      mul\n      0x20\n      add\n      mload(0x40)\n      swap1\n      dup2\n      add\n      0x40\n      mstore\n      dup1\n      swap3\n      swap2\n      swap1\n      dup2\n      dup2\n      mstore\n      0x20\n      add\n      dup3\n      dup1\n      sload\n      tag_126\n      swap1\n      tag_42\n      jump\t// in\n    tag_126:\n      dup1\n      iszero\n      tag_127\n      jumpi\n      dup1\n      0x1f\n      lt\n      tag_128\n      jumpi\n      0x0100\n      dup1\n      dup4\n      sload\n      div\n      mul\n      dup4\n      mstore\n      swap2\n      0x20\n      add\n      swap2\n      jump(tag_127)\n    tag_128:\n      dup3\n      add\n      swap2\n      swap1\n      0x00\n      mstore\n      keccak256(0x00, 0x20)\n      swap1\n    tag_129:\n      dup2\n      sload\n      dup2\n      mstore\n      swap1\n      0x01\n      add\n      swap1\n      0x20\n      add\n      dup1\n      dup4\n      gt\n      tag_129\n      jumpi\n      dup3\n      swap1\n      sub\n      0x1f\n      and\n      dup3\n      add\n      swap2\n    tag_127:\n      pop\n      pop\n      pop\n      pop\n      pop\n        /* \"LABS 8 Aug/Task 1 lab8.sol\":3502:3507  names */\n      dup10\n        /* \"LABS 8 Aug/Task 1 lab8.sol\":3508:3509  j */\n      dup3\n        /* \"LABS 8 Aug/Task 1 lab8.sol\":3502:3510  names[j] */\n      0x03\n      dup2\n      lt\n      tag_130\n      jumpi\n      tag_131\n      tag_81\n      jump\t// in\n    tag_131:\n    tag_130:\n      0x20\n      mul\n      add\n        /* \"LABS 8 Aug/Task 1 lab8.sol\":3502:3525  names[j] = student.name */\n      dup2\n      swap1\n      mstore\n      pop\n        /* \"LABS 8 Aug/Task 1 lab8.sol\":3558:3565  student */\n      dup2\n        /* \"LABS 8 Aug/Task 1 lab8.sol\":3558:3569  student.age */\n      0x01\n      add\n      sload\n        /* \"LABS 8 Aug/Task 1 lab8.sol\":3548:3552  ages */\n      dup9\n        /* \"LABS 8 Aug/Task 1 lab8.sol\":3553:3554  j */\n      dup3\n        /* \"LABS 8 Aug/Task 1 lab8.sol\":3548:3555  ages[j] */\n      0x03\n      dup2\n      lt\n      tag_132\n      jumpi\n      tag_133\n      tag_81\n      jump\t// in\n    tag_133:\n    tag_132:\n      0x20\n      mul\n      add\n        /* \"LABS 8 Aug/Task 1 lab8.sol\":3548:3569  ages[j] = student.age */\n      dup2\n      dup2\n      mstore\n      pop\n      pop\n        /* \"LABS 8 Aug/Task 1 lab8.sol\":3615:3622  student */\n      dup2\n        /* \"LABS 8 Aug/Task 1 lab8.sol\":3615:3639  student.registrationDate */\n      0x02\n      add\n      sload\n        /* \"LABS 8 Aug/Task 1 lab8.sol\":3592:3609  registrationDates */\n      dup8\n        /* \"LABS 8 Aug/Task 1 lab8.sol\":3610:3611  j */\n      dup3\n        /* \"LABS 8 Aug/Task 1 lab8.sol\":3592:3612  registrationDates[j] */\n      0x03\n      dup2\n      lt\n      tag_134\n      jumpi\n      tag_135\n      tag_81\n      jump\t// in\n    tag_135:\n    tag_134:\n      0x20\n      mul\n      add\n        /* \"LABS 8 Aug/Task 1 lab8.sol\":3592:3639  registrationDates[j] = student.registrationDate */\n      dup2\n      dup2\n      mstore\n      pop\n      pop\n        /* \"LABS 8 Aug/Task 1 lab8.sol\":3676:3683  student */\n      dup2\n        /* \"LABS 8 Aug/Task 1 lab8.sol\":3676:3690  student.status */\n      0x03\n      add\n      0x01\n      swap1\n      sload\n      swap1\n      0x0100\n      exp\n      swap1\n      div\n      0xff\n      and\n        /* \"LABS 8 Aug/Task 1 lab8.sol\":3662:3670  statuses */\n      dup7\n        /* \"LABS 8 Aug/Task 1 lab8.sol\":3671:3672  j */\n      dup3\n        /* \"LABS 8 Aug/Task 1 lab8.sol\":3662:3673  statuses[j] */\n      0x03\n      dup2\n      lt\n      tag_136\n      jumpi\n      tag_137\n      tag_81\n      jump\t// in\n    tag_137:\n    tag_136:\n      0x20\n      mul\n      add\n        /* \"LABS 8 Aug/Task 1 lab8.sol\":3662:3690  statuses[j] = student.status */\n      swap1\n      0x03\n      dup2\n      gt\n      iszero\n      tag_138\n      jumpi\n      tag_139\n      tag_62\n      jump\t// in\n    tag_139:\n    tag_138:\n      swap1\n      dup2\n      0x03\n      dup2\n      gt\n      iszero\n      tag_140\n      jumpi\n      tag_141\n      tag_62\n      jump\t// in\n    tag_141:\n    tag_140:\n      dup2\n      mstore\n      pop\n      pop\n        /* \"LABS 8 Aug/Task 1 lab8.sol\":3732:3739  student */\n      dup2\n        /* \"LABS 8 Aug/Task 1 lab8.sol\":3732:3753  student.ObtainedMarks */\n      0x04\n      add\n      sload\n        /* \"LABS 8 Aug/Task 1 lab8.sol\":3713:3726  obtainedMarks */\n      dup6\n        /* \"LABS 8 Aug/Task 1 lab8.sol\":3727:3728  j */\n      dup3\n        /* \"LABS 8 Aug/Task 1 lab8.sol\":3713:3729  obtainedMarks[j] */\n      0x03\n      dup2\n      lt\n      tag_142\n      jumpi\n      tag_143\n      tag_81\n      jump\t// in\n    tag_143:\n    tag_142:\n      0x20\n      mul\n      add\n        /* \"LABS 8 Aug/Task 1 lab8.sol\":3713:3753  obtainedMarks[j] = student.ObtainedMarks */\n      dup2\n      dup2\n      mstore\n      pop\n      pop\n        /* \"LABS 8 Aug/Task 1 lab8.sol\":3776:3781  break */\n      jump(tag_77)\n        /* \"LABS 8 Aug/Task 1 lab8.sol\":2955:3803  if (student.ObtainedMarks > topMarks[j]) {... */\n    tag_82:\n        /* \"LABS 8 Aug/Task 1 lab8.sol\":2931:2934  j++ */\n      dup1\n      dup1\n      tag_144\n      swap1\n      tag_145\n      jump\t// in\n    tag_144:\n      swap2\n      pop\n      pop\n        /* \"LABS 8 Aug/Task 1 lab8.sol\":2907:3818  for (uint j = 0; j < 3; j++) {... */\n      jump(tag_76)\n    tag_77:\n      pop\n        /* \"LABS 8 Aug/Task 1 lab8.sol\":2766:3829  if (student.department == Department.Blockchain && student.status != Status.Expelled && student.status != Status.NotEnrolled) {... */\n    tag_75:\n        /* \"LABS 8 Aug/Task 1 lab8.sol\":2705:3836  {... */\n      pop\n        /* \"LABS 8 Aug/Task 1 lab8.sol\":2700:2703  i++ */\n      dup1\n      dup1\n      tag_146\n      swap1\n      tag_145\n      jump\t// in\n    tag_146:\n      swap2\n      pop\n      pop\n        /* \"LABS 8 Aug/Task 1 lab8.sol\":2663:3836  for (uint i = 1; i <= totalStudents; i++) {... */\n      jump(tag_57)\n    tag_58:\n      pop\n        /* \"LABS 8 Aug/Task 1 lab8.sol\":3844:3908  return (names, ages, registrationDates, statuses, obtainedMarks) */\n      pop\n        /* \"LABS 8 Aug/Task 1 lab8.sol\":2401:3912  function getTop3BlockchainAchievers() public view returns (... */\n      swap1\n      swap2\n      swap3\n      swap4\n      swap5\n      jump\t// out\n        /* \"LABS 8 Aug/Task 1 lab8.sol\":1157:1557  function updateStudentInfo(... */\n    tag_24:\n        /* \"LABS 8 Aug/Task 1 lab8.sol\":1423:1549  Student(... */\n      mload(0x40)\n      dup1\n      0xc0\n      add\n      0x40\n      mstore\n      dup1\n        /* \"LABS 8 Aug/Task 1 lab8.sol\":1441:1445  Name */\n      dup8\n        /* \"LABS 8 Aug/Task 1 lab8.sol\":1423:1549  Student(... */\n      dup2\n      mstore\n      0x20\n      add\n        /* \"LABS 8 Aug/Task 1 lab8.sol\":1456:1459  Age */\n      dup7\n        /* \"LABS 8 Aug/Task 1 lab8.sol\":1423:1549  Student(... */\n      dup2\n      mstore\n      0x20\n      add\n        /* \"LABS 8 Aug/Task 1 lab8.sol\":1470:1486  registrationDate */\n      dup3\n        /* \"LABS 8 Aug/Task 1 lab8.sol\":1423:1549  Student(... */\n      dup2\n      mstore\n      0x20\n      add\n        /* \"LABS 8 Aug/Task 1 lab8.sol\":1497:1507  department */\n      dup6\n        /* \"LABS 8 Aug/Task 1 lab8.sol\":1423:1549  Student(... */\n      0x03\n      dup2\n      gt\n      iszero\n      tag_148\n      jumpi\n      tag_149\n      tag_62\n      jump\t// in\n    tag_149:\n    tag_148:\n      dup2\n      mstore\n      0x20\n      add\n        /* \"LABS 8 Aug/Task 1 lab8.sol\":1518:1524  status */\n      dup5\n        /* \"LABS 8 Aug/Task 1 lab8.sol\":1423:1549  Student(... */\n      0x03\n      dup2\n      gt\n      iszero\n      tag_150\n      jumpi\n      tag_151\n      tag_62\n      jump\t// in\n    tag_151:\n    tag_150:\n      dup2\n      mstore\n      0x20\n      add\n        /* \"LABS 8 Aug/Task 1 lab8.sol\":1535:1548  ObtainedMarks */\n      dup4\n        /* \"LABS 8 Aug/Task 1 lab8.sol\":1423:1549  Student(... */\n      dup2\n      mstore\n      pop\n        /* \"LABS 8 Aug/Task 1 lab8.sol\":1400:1408  students */\n      0x00\n        /* \"LABS 8 Aug/Task 1 lab8.sol\":1400:1420  students[rollnumber] */\n      dup1\n        /* \"LABS 8 Aug/Task 1 lab8.sol\":1409:1419  rollnumber */\n      dup10\n        /* \"LABS 8 Aug/Task 1 lab8.sol\":1400:1420  students[rollnumber] */\n      dup2\n      mstore\n      0x20\n      add\n      swap1\n      dup2\n      mstore\n      0x20\n      add\n      0x00\n      keccak256\n        /* \"LABS 8 Aug/Task 1 lab8.sol\":1400:1549  students[rollnumber] = Student(... */\n      0x00\n      dup3\n      add\n      mload\n      dup2\n      0x00\n      add\n      swap1\n      dup2\n      tag_152\n      swap2\n      swap1\n      tag_153\n      jump\t// in\n    tag_152:\n      pop\n      0x20\n      dup3\n      add\n      mload\n      dup2\n      0x01\n      add\n      sstore\n      0x40\n      dup3\n      add\n      mload\n      dup2\n      0x02\n      add\n      sstore\n      0x60\n      dup3\n      add\n      mload\n      dup2\n      0x03\n      add\n      exp(0x0100, 0x00)\n      dup2\n      sload\n      dup2\n      0xff\n      mul\n      not\n      and\n      swap1\n      dup4\n      0x03\n      dup2\n      gt\n      iszero\n      tag_154\n      jumpi\n      tag_155\n      tag_62\n      jump\t// in\n    tag_155:\n    tag_154:\n      mul\n      or\n      swap1\n      sstore\n      pop\n      0x80\n      dup3\n      add\n      mload\n      dup2\n      0x03\n      add\n      exp(0x0100, 0x01)\n      dup2\n      sload\n      dup2\n      0xff\n      mul\n      not\n      and\n      swap1\n      dup4\n      0x03\n      dup2\n      gt\n      iszero\n      tag_156\n      jumpi\n      tag_157\n      tag_62\n      jump\t// in\n    tag_157:\n    tag_156:\n      mul\n      or\n      swap1\n      sstore\n      pop\n      0xa0\n      dup3\n      add\n      mload\n      dup2\n      0x04\n      add\n      sstore\n      swap1\n      pop\n      pop\n        /* \"LABS 8 Aug/Task 1 lab8.sol\":1157:1557  function updateStudentInfo(... */\n      pop\n      pop\n      pop\n      pop\n      pop\n      pop\n      pop\n      jump\t// out\n        /* \"LABS 8 Aug/Task 1 lab8.sol\":1581:2091  function retrieve (uint rollnumber) public view returns (... */\n    tag_27:\n        /* \"LABS 8 Aug/Task 1 lab8.sol\":1648:1666  string memory name */\n      0x60\n        /* \"LABS 8 Aug/Task 1 lab8.sol\":1677:1685  uint age */\n      0x00\n        /* \"LABS 8 Aug/Task 1 lab8.sol\":1696:1717  uint registrationDate */\n      dup1\n        /* \"LABS 8 Aug/Task 1 lab8.sol\":1728:1749  Department department */\n      0x00\n        /* \"LABS 8 Aug/Task 1 lab8.sol\":1760:1773  Status status */\n      dup1\n        /* \"LABS 8 Aug/Task 1 lab8.sol\":1784:1802  uint ObtainedMarks */\n      0x00\n        /* \"LABS 8 Aug/Task 1 lab8.sol\":1812:1835  Student storage student */\n      dup1\n        /* \"LABS 8 Aug/Task 1 lab8.sol\":1838:1846  students */\n      0x00\n        /* \"LABS 8 Aug/Task 1 lab8.sol\":1838:1858  students[rollnumber] */\n      dup1\n        /* \"LABS 8 Aug/Task 1 lab8.sol\":1847:1857  rollnumber */\n      dup10\n        /* \"LABS 8 Aug/Task 1 lab8.sol\":1838:1858  students[rollnumber] */\n      dup2\n      mstore\n      0x20\n      add\n      swap1\n      dup2\n      mstore\n      0x20\n      add\n      0x00\n      keccak256\n        /* \"LABS 8 Aug/Task 1 lab8.sol\":1812:1858  Student storage student = students[rollnumber] */\n      swap1\n      pop\n        /* \"LABS 8 Aug/Task 1 lab8.sol\":1897:1904  student */\n      dup1\n        /* \"LABS 8 Aug/Task 1 lab8.sol\":1897:1909  student.name */\n      0x00\n      add\n        /* \"LABS 8 Aug/Task 1 lab8.sol\":1924:1931  student */\n      dup2\n        /* \"LABS 8 Aug/Task 1 lab8.sol\":1924:1935  student.age */\n      0x01\n      add\n      sload\n        /* \"LABS 8 Aug/Task 1 lab8.sol\":1950:1957  student */\n      dup3\n        /* \"LABS 8 Aug/Task 1 lab8.sol\":1950:1974  student.registrationDate */\n      0x02\n      add\n      sload\n        /* \"LABS 8 Aug/Task 1 lab8.sol\":1989:1996  student */\n      dup4\n        /* \"LABS 8 Aug/Task 1 lab8.sol\":1989:2007  student.department */\n      0x03\n      add\n      0x00\n      swap1\n      sload\n      swap1\n      0x0100\n      exp\n      swap1\n      div\n      0xff\n      and\n        /* \"LABS 8 Aug/Task 1 lab8.sol\":2022:2029  student */\n      dup5\n        /* \"LABS 8 Aug/Task 1 lab8.sol\":2022:2036  student.status */\n      0x03\n      add\n      0x01\n      swap1\n      sload\n      swap1\n      0x0100\n      exp\n      swap1\n      div\n      0xff\n      and\n        /* \"LABS 8 Aug/Task 1 lab8.sol\":2051:2058  student */\n      dup6\n        /* \"LABS 8 Aug/Task 1 lab8.sol\":2051:2072  student.ObtainedMarks */\n      0x04\n      add\n      sload\n        /* \"LABS 8 Aug/Task 1 lab8.sol\":1875:2083  return (... */\n      dup6\n      dup1\n      sload\n      tag_159\n      swap1\n      tag_42\n      jump\t// in\n    tag_159:\n      dup1\n      0x1f\n      add\n      0x20\n      dup1\n      swap2\n      div\n      mul\n      0x20\n      add\n      mload(0x40)\n      swap1\n      dup2\n      add\n      0x40\n      mstore\n      dup1\n      swap3\n      swap2\n      swap1\n      dup2\n      dup2\n      mstore\n      0x20\n      add\n      dup3\n      dup1\n      sload\n      tag_160\n      swap1\n      tag_42\n      jump\t// in\n    tag_160:\n      dup1\n      iszero\n      tag_161\n      jumpi\n      dup1\n      0x1f\n      lt\n      tag_162\n      jumpi\n      0x0100\n      dup1\n      dup4\n      sload\n      div\n      mul\n      dup4\n      mstore\n      swap2\n      0x20\n      add\n      swap2\n      jump(tag_161)\n    tag_162:\n      dup3\n      add\n      swap2\n      swap1\n      0x00\n      mstore\n      keccak256(0x00, 0x20)\n      swap1\n    tag_163:\n      dup2\n      sload\n      dup2\n      mstore\n      swap1\n      0x01\n      add\n      swap1\n      0x20\n      add\n      dup1\n      dup4\n      gt\n      tag_163\n      jumpi\n      dup3\n      swap1\n      sub\n      0x1f\n      and\n      dup3\n      add\n      swap2\n    tag_161:\n      pop\n      pop\n      pop\n      pop\n      pop\n      swap6\n      pop\n      swap7\n      pop\n      swap7\n      pop\n      swap7\n      pop\n      swap7\n      pop\n      swap7\n      pop\n      swap7\n      pop\n      pop\n        /* \"LABS 8 Aug/Task 1 lab8.sol\":1581:2091  function retrieve (uint rollnumber) public view returns (... */\n      swap2\n      swap4\n      swap6\n      pop\n      swap2\n      swap4\n      swap6\n      jump\t// out\n        /* \"LABS 8 Aug/Task 1 lab8.sol\":628:653  uint public totalStudents */\n    tag_30:\n      sload(0x01)\n      dup2\n      jump\t// out\n        /* \"LABS 8 Aug/Task 1 lab8.sol\":677:1134  function registerStudent(... */\n    tag_35:\n        /* \"LABS 8 Aug/Task 1 lab8.sol\":941:1096  Student(... */\n      mload(0x40)\n      dup1\n      0xc0\n      add\n      0x40\n      mstore\n      dup1\n        /* \"LABS 8 Aug/Task 1 lab8.sol\":963:967  name */\n      dup8\n        /* \"LABS 8 Aug/Task 1 lab8.sol\":941:1096  Student(... */\n      dup2\n      mstore\n      0x20\n      add\n        /* \"LABS 8 Aug/Task 1 lab8.sol\":983:986  age */\n      dup7\n        /* \"LABS 8 Aug/Task 1 lab8.sol\":941:1096  Student(... */\n      dup2\n      mstore\n      0x20\n      add\n        /* \"LABS 8 Aug/Task 1 lab8.sol\":1002:1018  registrationDate */\n      dup3\n        /* \"LABS 8 Aug/Task 1 lab8.sol\":941:1096  Student(... */\n      dup2\n      mstore\n      0x20\n      add\n        /* \"LABS 8 Aug/Task 1 lab8.sol\":1034:1044  department */\n      dup6\n        /* \"LABS 8 Aug/Task 1 lab8.sol\":941:1096  Student(... */\n      0x03\n      dup2\n      gt\n      iszero\n      tag_165\n      jumpi\n      tag_166\n      tag_62\n      jump\t// in\n    tag_166:\n    tag_165:\n      dup2\n      mstore\n      0x20\n      add\n        /* \"LABS 8 Aug/Task 1 lab8.sol\":1060:1066  status */\n      dup5\n        /* \"LABS 8 Aug/Task 1 lab8.sol\":941:1096  Student(... */\n      0x03\n      dup2\n      gt\n      iszero\n      tag_167\n      jumpi\n      tag_168\n      tag_62\n      jump\t// in\n    tag_168:\n    tag_167:\n      dup2\n      mstore\n      0x20\n      add\n        /* \"LABS 8 Aug/Task 1 lab8.sol\":1082:1095  ObtainedMarks */\n      dup4\n        /* \"LABS 8 Aug/Task 1 lab8.sol\":941:1096  Student(... */\n      dup2\n      mstore\n      pop\n        /* \"LABS 8 Aug/Task 1 lab8.sol\":918:926  students */\n      0x00\n        /* \"LABS 8 Aug/Task 1 lab8.sol\":918:938  students[rollnumber] */\n      dup1\n        /* \"LABS 8 Aug/Task 1 lab8.sol\":927:937  rollnumber */\n      dup10\n        /* \"LABS 8 Aug/Task 1 lab8.sol\":918:938  students[rollnumber] */\n      dup2\n      mstore\n      0x20\n      add\n      swap1\n      dup2\n      mstore\n      0x20\n      add\n      0x00\n      keccak256\n        /* \"LABS 8 Aug/Task 1 lab8.sol\":918:1096  students[rollnumber] = Student(... */\n      0x00\n      dup3\n      add\n      mload\n      dup2\n      0x00\n      add\n      swap1\n      dup2\n      tag_169\n      swap2\n      swap1\n      tag_153\n      jump\t// in\n    tag_169:\n      pop\n      0x20\n      dup3\n      add\n      mload\n      dup2\n      0x01\n      add\n      sstore\n      0x40\n      dup3\n      add\n      mload\n      dup2\n      0x02\n      add\n      sstore\n      0x60\n      dup3\n      add\n      mload\n      dup2\n      0x03\n      add\n      exp(0x0100, 0x00)\n      dup2\n      sload\n      dup2\n      0xff\n      mul\n      not\n      and\n      swap1\n      dup4\n      0x03\n      dup2\n      gt\n      iszero\n      tag_170\n      jumpi\n      tag_171\n      tag_62\n      jump\t// in\n    tag_171:\n    tag_170:\n      mul\n      or\n      swap1\n      sstore\n      pop\n      0x80\n      dup3\n      add\n      mload\n      dup2\n      0x03\n      add\n      exp(0x0100, 0x01)\n      dup2\n      sload\n      dup2\n      0xff\n      mul\n      not\n      and\n      swap1\n      dup4\n      0x03\n      dup2\n      gt\n      iszero\n      tag_172\n      jumpi\n      tag_173\n      tag_62\n      jump\t// in\n    tag_173:\n    tag_172:\n      mul\n      or\n      swap1\n      sstore\n      pop\n      0xa0\n      dup3\n      add\n      mload\n      dup2\n      0x04\n      add\n      sstore\n      swap1\n      pop\n      pop\n        /* \"LABS 8 Aug/Task 1 lab8.sol\":1111:1124  totalStudents */\n      0x01\n      0x00\n        /* \"LABS 8 Aug/Task 1 lab8.sol\":1111:1126  totalStudents++ */\n      dup2\n      sload\n      dup1\n      swap3\n      swap2\n      swap1\n      tag_174\n      swap1\n      tag_145\n      jump\t// in\n    tag_174:\n      swap2\n      swap1\n      pop\n      sstore\n      pop\n        /* \"LABS 8 Aug/Task 1 lab8.sol\":677:1134  function registerStudent(... */\n      pop\n      pop\n      pop\n      pop\n      pop\n      pop\n      pop\n      jump\t// out\n        /* \"LABS 8 Aug/Task 1 lab8.sol\":2111:2384  function getDepartmentStudentCount(Department _department) public view returns (uint) {... */\n    tag_39:\n        /* \"LABS 8 Aug/Task 1 lab8.sol\":2191:2195  uint */\n      0x00\n        /* \"LABS 8 Aug/Task 1 lab8.sol\":2204:2214  uint count */\n      dup1\n        /* \"LABS 8 Aug/Task 1 lab8.sol\":2217:2218  0 */\n      0x00\n        /* \"LABS 8 Aug/Task 1 lab8.sol\":2204:2218  uint count = 0 */\n      swap1\n      pop\n        /* \"LABS 8 Aug/Task 1 lab8.sol\":2230:2236  uint i */\n      0x00\n        /* \"LABS 8 Aug/Task 1 lab8.sol\":2239:2240  1 */\n      0x01\n        /* \"LABS 8 Aug/Task 1 lab8.sol\":2230:2240  uint i = 1 */\n      swap1\n      pop\n        /* \"LABS 8 Aug/Task 1 lab8.sol\":2225:2362  for (uint i = 1; i <= totalStudents; i++) {... */\n    tag_176:\n        /* \"LABS 8 Aug/Task 1 lab8.sol\":2247:2260  totalStudents */\n      sload(0x01)\n        /* \"LABS 8 Aug/Task 1 lab8.sol\":2242:2243  i */\n      dup2\n        /* \"LABS 8 Aug/Task 1 lab8.sol\":2242:2260  i <= totalStudents */\n      gt\n        /* \"LABS 8 Aug/Task 1 lab8.sol\":2225:2362  for (uint i = 1; i <= totalStudents; i++) {... */\n      tag_177\n      jumpi\n        /* \"LABS 8 Aug/Task 1 lab8.sol\":2308:2319  _department */\n      dup4\n        /* \"LABS 8 Aug/Task 1 lab8.sol\":2282:2319  students[i].department == _department */\n      0x03\n      dup2\n      gt\n      iszero\n      tag_179\n      jumpi\n      tag_180\n      tag_62\n      jump\t// in\n    tag_180:\n    tag_179:\n        /* \"LABS 8 Aug/Task 1 lab8.sol\":2282:2290  students */\n      0x00\n        /* \"LABS 8 Aug/Task 1 lab8.sol\":2282:2293  students[i] */\n      dup1\n        /* \"LABS 8 Aug/Task 1 lab8.sol\":2291:2292  i */\n      dup4\n        /* \"LABS 8 Aug/Task 1 lab8.sol\":2282:2293  students[i] */\n      dup2\n      mstore\n      0x20\n      add\n      swap1\n      dup2\n      mstore\n      0x20\n      add\n      0x00\n      keccak256\n        /* \"LABS 8 Aug/Task 1 lab8.sol\":2282:2304  students[i].department */\n      0x03\n      add\n      0x00\n      swap1\n      sload\n      swap1\n      0x0100\n      exp\n      swap1\n      div\n      0xff\n      and\n        /* \"LABS 8 Aug/Task 1 lab8.sol\":2282:2319  students[i].department == _department */\n      0x03\n      dup2\n      gt\n      iszero\n      tag_181\n      jumpi\n      tag_182\n      tag_62\n      jump\t// in\n    tag_182:\n    tag_181:\n      sub\n        /* \"LABS 8 Aug/Task 1 lab8.sol\":2278:2355  if (students[i].department == _department) {... */\n      tag_183\n      jumpi\n        /* \"LABS 8 Aug/Task 1 lab8.sol\":2336:2343  count++ */\n      dup2\n      dup1\n      tag_184\n      swap1\n      tag_145\n      jump\t// in\n    tag_184:\n      swap3\n      pop\n      pop\n        /* \"LABS 8 Aug/Task 1 lab8.sol\":2278:2355  if (students[i].department == _department) {... */\n    tag_183:\n        /* \"LABS 8 Aug/Task 1 lab8.sol\":2262:2265  i++ */\n      dup1\n      dup1\n      tag_185\n      swap1\n      tag_145\n      jump\t// in\n    tag_185:\n      swap2\n      pop\n      pop\n        /* \"LABS 8 Aug/Task 1 lab8.sol\":2225:2362  for (uint i = 1; i <= totalStudents; i++) {... */\n      jump(tag_176)\n    tag_177:\n      pop\n        /* \"LABS 8 Aug/Task 1 lab8.sol\":2375:2380  count */\n      dup1\n        /* \"LABS 8 Aug/Task 1 lab8.sol\":2368:2380  return count */\n      swap2\n      pop\n      pop\n        /* \"LABS 8 Aug/Task 1 lab8.sol\":2111:2384  function getDepartmentStudentCount(Department _department) public view returns (uint) {... */\n      swap2\n      swap1\n      pop\n      jump\t// out\n    tag_48:\n      mload(0x40)\n      dup1\n      0x60\n      add\n      0x40\n      mstore\n      dup1\n      0x03\n      swap1\n    tag_186:\n      0x60\n      dup2\n      mstore\n      0x20\n      add\n      swap1\n      0x01\n      swap1\n      sub\n      swap1\n      dup2\n      tag_186\n      jumpi\n      swap1\n      pop\n      pop\n      swap1\n      jump\t// out\n    tag_50:\n      mload(0x40)\n      dup1\n      0x60\n      add\n      0x40\n      mstore\n      dup1\n      0x03\n      swap1\n      0x20\n      dup3\n      mul\n      dup1\n      calldatasize\n      dup4\n      calldatacopy\n      dup1\n      dup3\n      add\n      swap2\n      pop\n      pop\n      swap1\n      pop\n      pop\n      swap1\n      jump\t// out\n    tag_53:\n      mload(0x40)\n      dup1\n      0x60\n      add\n      0x40\n      mstore\n      dup1\n      0x03\n      swap1\n      0x20\n      dup3\n      mul\n      dup1\n      calldatasize\n      dup4\n      calldatacopy\n      dup1\n      dup3\n      add\n      swap2\n      pop\n      pop\n      swap1\n      pop\n      pop\n      swap1\n      jump\t// out\n        /* \"#utility.yul\":7:82   */\n    tag_187:\n        /* \"#utility.yul\":40:46   */\n      0x00\n        /* \"#utility.yul\":73:75   */\n      0x40\n        /* \"#utility.yul\":67:76   */\n      mload\n        /* \"#utility.yul\":57:76   */\n      swap1\n      pop\n        /* \"#utility.yul\":7:82   */\n      swap1\n      jump\t// out\n        /* \"#utility.yul\":88:205   */\n    tag_188:\n        /* \"#utility.yul\":197:198   */\n      0x00\n        /* \"#utility.yul\":194:195   */\n      dup1\n        /* \"#utility.yul\":187:199   */\n      revert\n        /* \"#utility.yul\":211:328   */\n    tag_189:\n        /* \"#utility.yul\":320:321   */\n      0x00\n        /* \"#utility.yul\":317:318   */\n      dup1\n        /* \"#utility.yul\":310:322   */\n      revert\n        /* \"#utility.yul\":334:411   */\n    tag_190:\n        /* \"#utility.yul\":371:378   */\n      0x00\n        /* \"#utility.yul\":400:405   */\n      dup2\n        /* \"#utility.yul\":389:405   */\n      swap1\n      pop\n        /* \"#utility.yul\":334:411   */\n      swap2\n      swap1\n      pop\n      jump\t// out\n        /* \"#utility.yul\":417:539   */\n    tag_191:\n        /* \"#utility.yul\":490:514   */\n      tag_265\n        /* \"#utility.yul\":508:513   */\n      dup2\n        /* \"#utility.yul\":490:514   */\n      tag_190\n      jump\t// in\n    tag_265:\n        /* \"#utility.yul\":483:488   */\n      dup2\n        /* \"#utility.yul\":480:515   */\n      eq\n        /* \"#utility.yul\":470:533   */\n      tag_266\n      jumpi\n        /* \"#utility.yul\":529:530   */\n      0x00\n        /* \"#utility.yul\":526:527   */\n      dup1\n        /* \"#utility.yul\":519:531   */\n      revert\n        /* \"#utility.yul\":470:533   */\n    tag_266:\n        /* \"#utility.yul\":417:539   */\n      pop\n      jump\t// out\n        /* \"#utility.yul\":545:684   */\n    tag_192:\n        /* \"#utility.yul\":591:596   */\n      0x00\n        /* \"#utility.yul\":629:635   */\n      dup2\n        /* \"#utility.yul\":616:636   */\n      calldataload\n        /* \"#utility.yul\":607:636   */\n      swap1\n      pop\n        /* \"#utility.yul\":645:678   */\n      tag_268\n        /* \"#utility.yul\":672:677   */\n      dup2\n        /* \"#utility.yul\":645:678   */\n      tag_191\n      jump\t// in\n    tag_268:\n        /* \"#utility.yul\":545:684   */\n      swap3\n      swap2\n      pop\n      pop\n      jump\t// out\n        /* \"#utility.yul\":690:1019   */\n    tag_13:\n        /* \"#utility.yul\":749:755   */\n      0x00\n        /* \"#utility.yul\":798:800   */\n      0x20\n        /* \"#utility.yul\":786:795   */\n      dup3\n        /* \"#utility.yul\":777:784   */\n      dup5\n        /* \"#utility.yul\":773:796   */\n      sub\n        /* \"#utility.yul\":769:801   */\n      slt\n        /* \"#utility.yul\":766:885   */\n      iszero\n      tag_270\n      jumpi\n        /* \"#utility.yul\":804:883   */\n      tag_271\n      tag_188\n      jump\t// in\n    tag_271:\n        /* \"#utility.yul\":766:885   */\n    tag_270:\n        /* \"#utility.yul\":924:925   */\n      0x00\n        /* \"#utility.yul\":949:1002   */\n      tag_272\n        /* \"#utility.yul\":994:1001   */\n      dup5\n        /* \"#utility.yul\":985:991   */\n      dup3\n        /* \"#utility.yul\":974:983   */\n      dup6\n        /* \"#utility.yul\":970:992   */\n      add\n        /* \"#utility.yul\":949:1002   */\n      tag_192\n      jump\t// in\n    tag_272:\n        /* \"#utility.yul\":939:1002   */\n      swap2\n      pop\n        /* \"#utility.yul\":895:1012   */\n      pop\n        /* \"#utility.yul\":690:1019   */\n      swap3\n      swap2\n      pop\n      pop\n      jump\t// out\n        /* \"#utility.yul\":1025:1124   */\n    tag_193:\n        /* \"#utility.yul\":1077:1083   */\n      0x00\n        /* \"#utility.yul\":1111:1116   */\n      dup2\n        /* \"#utility.yul\":1105:1117   */\n      mload\n        /* \"#utility.yul\":1095:1117   */\n      swap1\n      pop\n        /* \"#utility.yul\":1025:1124   */\n      swap2\n      swap1\n      pop\n      jump\t// out\n        /* \"#utility.yul\":1130:1299   */\n    tag_194:\n        /* \"#utility.yul\":1214:1225   */\n      0x00\n        /* \"#utility.yul\":1248:1254   */\n      dup3\n        /* \"#utility.yul\":1243:1246   */\n      dup3\n        /* \"#utility.yul\":1236:1255   */\n      mstore\n        /* \"#utility.yul\":1288:1292   */\n      0x20\n        /* \"#utility.yul\":1283:1286   */\n      dup3\n        /* \"#utility.yul\":1279:1293   */\n      add\n        /* \"#utility.yul\":1264:1293   */\n      swap1\n      pop\n        /* \"#utility.yul\":1130:1299   */\n      swap3\n      swap2\n      pop\n      pop\n      jump\t// out\n        /* \"#utility.yul\":1305:1551   */\n    tag_195:\n        /* \"#utility.yul\":1386:1387   */\n      0x00\n        /* \"#utility.yul\":1396:1509   */\n    tag_276:\n        /* \"#utility.yul\":1410:1416   */\n      dup4\n        /* \"#utility.yul\":1407:1408   */\n      dup2\n        /* \"#utility.yul\":1404:1417   */\n      lt\n        /* \"#utility.yul\":1396:1509   */\n      iszero\n      tag_278\n      jumpi\n        /* \"#utility.yul\":1495:1496   */\n      dup1\n        /* \"#utility.yul\":1490:1493   */\n      dup3\n        /* \"#utility.yul\":1486:1497   */\n      add\n        /* \"#utility.yul\":1480:1498   */\n      mload\n        /* \"#utility.yul\":1476:1477   */\n      dup2\n        /* \"#utility.yul\":1471:1474   */\n      dup5\n        /* \"#utility.yul\":1467:1478   */\n      add\n        /* \"#utility.yul\":1460:1499   */\n      mstore\n        /* \"#utility.yul\":1432:1434   */\n      0x20\n        /* \"#utility.yul\":1429:1430   */\n      dup2\n        /* \"#utility.yul\":1425:1435   */\n      add\n        /* \"#utility.yul\":1420:1435   */\n      swap1\n      pop\n        /* \"#utility.yul\":1396:1509   */\n      jump(tag_276)\n    tag_278:\n        /* \"#utility.yul\":1543:1544   */\n      0x00\n        /* \"#utility.yul\":1534:1540   */\n      dup5\n        /* \"#utility.yul\":1529:1532   */\n      dup5\n        /* \"#utility.yul\":1525:1541   */\n      add\n        /* \"#utility.yul\":1518:1545   */\n      mstore\n        /* \"#utility.yul\":1367:1551   */\n      pop\n        /* \"#utility.yul\":1305:1551   */\n      pop\n      pop\n      pop\n      jump\t// out\n        /* \"#utility.yul\":1557:1659   */\n    tag_196:\n        /* \"#utility.yul\":1598:1604   */\n      0x00\n        /* \"#utility.yul\":1649:1651   */\n      0x1f\n        /* \"#utility.yul\":1645:1652   */\n      not\n        /* \"#utility.yul\":1640:1642   */\n      0x1f\n        /* \"#utility.yul\":1633:1638   */\n      dup4\n        /* \"#utility.yul\":1629:1643   */\n      add\n        /* \"#utility.yul\":1625:1653   */\n      and\n        /* \"#utility.yul\":1615:1653   */\n      swap1\n      pop\n        /* \"#utility.yul\":1557:1659   */\n      swap2\n      swap1\n      pop\n      jump\t// out\n        /* \"#utility.yul\":1665:2042   */\n    tag_197:\n        /* \"#utility.yul\":1753:1756   */\n      0x00\n        /* \"#utility.yul\":1781:1820   */\n      tag_281\n        /* \"#utility.yul\":1814:1819   */\n      dup3\n        /* \"#utility.yul\":1781:1820   */\n      tag_193\n      jump\t// in\n    tag_281:\n        /* \"#utility.yul\":1836:1907   */\n      tag_282\n        /* \"#utility.yul\":1900:1906   */\n      dup2\n        /* \"#utility.yul\":1895:1898   */\n      dup6\n        /* \"#utility.yul\":1836:1907   */\n      tag_194\n      jump\t// in\n    tag_282:\n        /* \"#utility.yul\":1829:1907   */\n      swap4\n      pop\n        /* \"#utility.yul\":1916:1981   */\n      tag_283\n        /* \"#utility.yul\":1974:1980   */\n      dup2\n        /* \"#utility.yul\":1969:1972   */\n      dup6\n        /* \"#utility.yul\":1962:1966   */\n      0x20\n        /* \"#utility.yul\":1955:1960   */\n      dup7\n        /* \"#utility.yul\":1951:1967   */\n      add\n        /* \"#utility.yul\":1916:1981   */\n      tag_195\n      jump\t// in\n    tag_283:\n        /* \"#utility.yul\":2006:2035   */\n      tag_284\n        /* \"#utility.yul\":2028:2034   */\n      dup2\n        /* \"#utility.yul\":2006:2035   */\n      tag_196\n      jump\t// in\n    tag_284:\n        /* \"#utility.yul\":2001:2004   */\n      dup5\n        /* \"#utility.yul\":1997:2036   */\n      add\n        /* \"#utility.yul\":1990:2036   */\n      swap2\n      pop\n        /* \"#utility.yul\":1757:2042   */\n      pop\n        /* \"#utility.yul\":1665:2042   */\n      swap3\n      swap2\n      pop\n      pop\n      jump\t// out\n        /* \"#utility.yul\":2048:2166   */\n    tag_198:\n        /* \"#utility.yul\":2135:2159   */\n      tag_286\n        /* \"#utility.yul\":2153:2158   */\n      dup2\n        /* \"#utility.yul\":2135:2159   */\n      tag_190\n      jump\t// in\n    tag_286:\n        /* \"#utility.yul\":2130:2133   */\n      dup3\n        /* \"#utility.yul\":2123:2160   */\n      mstore\n        /* \"#utility.yul\":2048:2166   */\n      pop\n      pop\n      jump\t// out\n        /* \"#utility.yul\":2172:2352   */\n    tag_62:\n        /* \"#utility.yul\":2220:2297   */\n      0x4e487b7100000000000000000000000000000000000000000000000000000000\n        /* \"#utility.yul\":2217:2218   */\n      0x00\n        /* \"#utility.yul\":2210:2298   */\n      mstore\n        /* \"#utility.yul\":2317:2321   */\n      0x21\n        /* \"#utility.yul\":2314:2315   */\n      0x04\n        /* \"#utility.yul\":2307:2322   */\n      mstore\n        /* \"#utility.yul\":2341:2345   */\n      0x24\n        /* \"#utility.yul\":2338:2339   */\n      0x00\n        /* \"#utility.yul\":2331:2346   */\n      revert\n        /* \"#utility.yul\":2358:2475   */\n    tag_199:\n        /* \"#utility.yul\":2443:2444   */\n      0x04\n        /* \"#utility.yul\":2436:2441   */\n      dup2\n        /* \"#utility.yul\":2433:2445   */\n      lt\n        /* \"#utility.yul\":2423:2469   */\n      tag_289\n      jumpi\n        /* \"#utility.yul\":2449:2467   */\n      tag_290\n      tag_62\n      jump\t// in\n    tag_290:\n        /* \"#utility.yul\":2423:2469   */\n    tag_289:\n        /* \"#utility.yul\":2358:2475   */\n      pop\n      jump\t// out\n        /* \"#utility.yul\":2481:2616   */\n    tag_200:\n        /* \"#utility.yul\":2530:2537   */\n      0x00\n        /* \"#utility.yul\":2559:2564   */\n      dup2\n        /* \"#utility.yul\":2548:2564   */\n      swap1\n      pop\n        /* \"#utility.yul\":2565:2610   */\n      tag_292\n        /* \"#utility.yul\":2604:2609   */\n      dup3\n        /* \"#utility.yul\":2565:2610   */\n      tag_199\n      jump\t// in\n    tag_292:\n        /* \"#utility.yul\":2481:2616   */\n      swap2\n      swap1\n      pop\n      jump\t// out\n        /* \"#utility.yul\":2622:2757   */\n    tag_201:\n        /* \"#utility.yul\":2682:2691   */\n      0x00\n        /* \"#utility.yul\":2715:2751   */\n      tag_294\n        /* \"#utility.yul\":2745:2750   */\n      dup3\n        /* \"#utility.yul\":2715:2751   */\n      tag_200\n      jump\t// in\n    tag_294:\n        /* \"#utility.yul\":2702:2751   */\n      swap1\n      pop\n        /* \"#utility.yul\":2622:2757   */\n      swap2\n      swap1\n      pop\n      jump\t// out\n        /* \"#utility.yul\":2763:2914   */\n    tag_202:\n        /* \"#utility.yul\":2860:2907   */\n      tag_296\n        /* \"#utility.yul\":2901:2906   */\n      dup2\n        /* \"#utility.yul\":2860:2907   */\n      tag_201\n      jump\t// in\n    tag_296:\n        /* \"#utility.yul\":2855:2858   */\n      dup3\n        /* \"#utility.yul\":2848:2908   */\n      mstore\n        /* \"#utility.yul\":2763:2914   */\n      pop\n      pop\n      jump\t// out\n        /* \"#utility.yul\":2920:3034   */\n    tag_203:\n        /* \"#utility.yul\":3002:3003   */\n      0x04\n        /* \"#utility.yul\":2995:3000   */\n      dup2\n        /* \"#utility.yul\":2992:3004   */\n      lt\n        /* \"#utility.yul\":2982:3028   */\n      tag_298\n      jumpi\n        /* \"#utility.yul\":3008:3026   */\n      tag_299\n      tag_62\n      jump\t// in\n    tag_299:\n        /* \"#utility.yul\":2982:3028   */\n    tag_298:\n        /* \"#utility.yul\":2920:3034   */\n      pop\n      jump\t// out\n        /* \"#utility.yul\":3040:3169   */\n    tag_204:\n        /* \"#utility.yul\":3086:3093   */\n      0x00\n        /* \"#utility.yul\":3115:3120   */\n      dup2\n        /* \"#utility.yul\":3104:3120   */\n      swap1\n      pop\n        /* \"#utility.yul\":3121:3163   */\n      tag_301\n        /* \"#utility.yul\":3157:3162   */\n      dup3\n        /* \"#utility.yul\":3121:3163   */\n      tag_203\n      jump\t// in\n    tag_301:\n        /* \"#utility.yul\":3040:3169   */\n      swap2\n      swap1\n      pop\n      jump\t// out\n        /* \"#utility.yul\":3175:3304   */\n    tag_205:\n        /* \"#utility.yul\":3232:3241   */\n      0x00\n        /* \"#utility.yul\":3265:3298   */\n      tag_303\n        /* \"#utility.yul\":3292:3297   */\n      dup3\n        /* \"#utility.yul\":3265:3298   */\n      tag_204\n      jump\t// in\n    tag_303:\n        /* \"#utility.yul\":3252:3298   */\n      swap1\n      pop\n        /* \"#utility.yul\":3175:3304   */\n      swap2\n      swap1\n      pop\n      jump\t// out\n        /* \"#utility.yul\":3310:3455   */\n    tag_206:\n        /* \"#utility.yul\":3404:3448   */\n      tag_305\n        /* \"#utility.yul\":3442:3447   */\n      dup2\n        /* \"#utility.yul\":3404:3448   */\n      tag_205\n      jump\t// in\n    tag_305:\n        /* \"#utility.yul\":3399:3402   */\n      dup3\n        /* \"#utility.yul\":3392:3449   */\n      mstore\n        /* \"#utility.yul\":3310:3455   */\n      pop\n      pop\n      jump\t// out\n        /* \"#utility.yul\":3461:4361   */\n    tag_16:\n        /* \"#utility.yul\":3731:3735   */\n      0x00\n        /* \"#utility.yul\":3769:3772   */\n      0xc0\n        /* \"#utility.yul\":3758:3767   */\n      dup3\n        /* \"#utility.yul\":3754:3773   */\n      add\n        /* \"#utility.yul\":3746:3773   */\n      swap1\n      pop\n        /* \"#utility.yul\":3819:3828   */\n      dup2\n        /* \"#utility.yul\":3813:3817   */\n      dup2\n        /* \"#utility.yul\":3809:3829   */\n      sub\n        /* \"#utility.yul\":3805:3806   */\n      0x00\n        /* \"#utility.yul\":3794:3803   */\n      dup4\n        /* \"#utility.yul\":3790:3807   */\n      add\n        /* \"#utility.yul\":3783:3830   */\n      mstore\n        /* \"#utility.yul\":3847:3925   */\n      tag_307\n        /* \"#utility.yul\":3920:3924   */\n      dup2\n        /* \"#utility.yul\":3911:3917   */\n      dup10\n        /* \"#utility.yul\":3847:3925   */\n      tag_197\n      jump\t// in\n    tag_307:\n        /* \"#utility.yul\":3839:3925   */\n      swap1\n      pop\n        /* \"#utility.yul\":3935:4007   */\n      tag_308\n        /* \"#utility.yul\":4003:4005   */\n      0x20\n        /* \"#utility.yul\":3992:4001   */\n      dup4\n        /* \"#utility.yul\":3988:4006   */\n      add\n        /* \"#utility.yul\":3979:3985   */\n      dup9\n        /* \"#utility.yul\":3935:4007   */\n      tag_198\n      jump\t// in\n    tag_308:\n        /* \"#utility.yul\":4017:4089   */\n      tag_309\n        /* \"#utility.yul\":4085:4087   */\n      0x40\n        /* \"#utility.yul\":4074:4083   */\n      dup4\n        /* \"#utility.yul\":4070:4088   */\n      add\n        /* \"#utility.yul\":4061:4067   */\n      dup8\n        /* \"#utility.yul\":4017:4089   */\n      tag_198\n      jump\t// in\n    tag_309:\n        /* \"#utility.yul\":4099:4181   */\n      tag_310\n        /* \"#utility.yul\":4177:4179   */\n      0x60\n        /* \"#utility.yul\":4166:4175   */\n      dup4\n        /* \"#utility.yul\":4162:4180   */\n      add\n        /* \"#utility.yul\":4153:4159   */\n      dup7\n        /* \"#utility.yul\":4099:4181   */\n      tag_202\n      jump\t// in\n    tag_310:\n        /* \"#utility.yul\":4191:4271   */\n      tag_311\n        /* \"#utility.yul\":4266:4269   */\n      0x80\n        /* \"#utility.yul\":4255:4264   */\n      dup4\n        /* \"#utility.yul\":4251:4270   */\n      add\n        /* \"#utility.yul\":4242:4248   */\n      dup6\n        /* \"#utility.yul\":4191:4271   */\n      tag_206\n      jump\t// in\n    tag_311:\n        /* \"#utility.yul\":4281:4354   */\n      tag_312\n        /* \"#utility.yul\":4349:4352   */\n      0xa0\n        /* \"#utility.yul\":4338:4347   */\n      dup4\n        /* \"#utility.yul\":4334:4353   */\n      add\n        /* \"#utility.yul\":4325:4331   */\n      dup5\n        /* \"#utility.yul\":4281:4354   */\n      tag_198\n      jump\t// in\n    tag_312:\n        /* \"#utility.yul\":3461:4361   */\n      swap8\n      swap7\n      pop\n      pop\n      pop\n      pop\n      pop\n      pop\n      pop\n      jump\t// out\n        /* \"#utility.yul\":4367:4481   */\n    tag_207:\n        /* \"#utility.yul\":4442:4448   */\n      0x00\n        /* \"#utility.yul\":4470:4474   */\n      0x03\n        /* \"#utility.yul\":4460:4474   */\n      swap1\n      pop\n        /* \"#utility.yul\":4367:4481   */\n      swap2\n      swap1\n      pop\n      jump\t// out\n        /* \"#utility.yul\":4487:4640   */\n    tag_208:\n        /* \"#utility.yul\":4594:4605   */\n      0x00\n        /* \"#utility.yul\":4631:4634   */\n      dup2\n        /* \"#utility.yul\":4616:4634   */\n      swap1\n      pop\n        /* \"#utility.yul\":4487:4640   */\n      swap3\n      swap2\n      pop\n      pop\n      jump\t// out\n        /* \"#utility.yul\":4646:4754   */\n    tag_209:\n        /* \"#utility.yul\":4721:4725   */\n      0x00\n        /* \"#utility.yul\":4744:4747   */\n      dup2\n        /* \"#utility.yul\":4736:4747   */\n      swap1\n      pop\n        /* \"#utility.yul\":4646:4754   */\n      swap2\n      swap1\n      pop\n      jump\t// out\n        /* \"#utility.yul\":4760:4919   */\n    tag_210:\n        /* \"#utility.yul\":4834:4845   */\n      0x00\n        /* \"#utility.yul\":4868:4874   */\n      dup3\n        /* \"#utility.yul\":4863:4866   */\n      dup3\n        /* \"#utility.yul\":4856:4875   */\n      mstore\n        /* \"#utility.yul\":4908:4912   */\n      0x20\n        /* \"#utility.yul\":4903:4906   */\n      dup3\n        /* \"#utility.yul\":4899:4913   */\n      add\n        /* \"#utility.yul\":4884:4913   */\n      swap1\n      pop\n        /* \"#utility.yul\":4760:4919   */\n      swap3\n      swap2\n      pop\n      pop\n      jump\t// out\n        /* \"#utility.yul\":4925:5282   */\n    tag_211:\n        /* \"#utility.yul\":5003:5006   */\n      0x00\n        /* \"#utility.yul\":5031:5070   */\n      tag_318\n        /* \"#utility.yul\":5064:5069   */\n      dup3\n        /* \"#utility.yul\":5031:5070   */\n      tag_193\n      jump\t// in\n    tag_318:\n        /* \"#utility.yul\":5086:5147   */\n      tag_319\n        /* \"#utility.yul\":5140:5146   */\n      dup2\n        /* \"#utility.yul\":5135:5138   */\n      dup6\n        /* \"#utility.yul\":5086:5147   */\n      tag_210\n      jump\t// in\n    tag_319:\n        /* \"#utility.yul\":5079:5147   */\n      swap4\n      pop\n        /* \"#utility.yul\":5156:5221   */\n      tag_320\n        /* \"#utility.yul\":5214:5220   */\n      dup2\n        /* \"#utility.yul\":5209:5212   */\n      dup6\n        /* \"#utility.yul\":5202:5206   */\n      0x20\n        /* \"#utility.yul\":5195:5200   */\n      dup7\n        /* \"#utility.yul\":5191:5207   */\n      add\n        /* \"#utility.yul\":5156:5221   */\n      tag_195\n      jump\t// in\n    tag_320:\n        /* \"#utility.yul\":5246:5275   */\n      tag_321\n        /* \"#utility.yul\":5268:5274   */\n      dup2\n        /* \"#utility.yul\":5246:5275   */\n      tag_196\n      jump\t// in\n    tag_321:\n        /* \"#utility.yul\":5241:5244   */\n      dup5\n        /* \"#utility.yul\":5237:5276   */\n      add\n        /* \"#utility.yul\":5230:5276   */\n      swap2\n      pop\n        /* \"#utility.yul\":5007:5282   */\n      pop\n        /* \"#utility.yul\":4925:5282   */\n      swap3\n      swap2\n      pop\n      pop\n      jump\t// out\n        /* \"#utility.yul\":5288:5484   */\n    tag_212:\n        /* \"#utility.yul\":5377:5387   */\n      0x00\n        /* \"#utility.yul\":5412:5478   */\n      tag_323\n        /* \"#utility.yul\":5474:5477   */\n      dup4\n        /* \"#utility.yul\":5466:5472   */\n      dup4\n        /* \"#utility.yul\":5412:5478   */\n      tag_211\n      jump\t// in\n    tag_323:\n        /* \"#utility.yul\":5398:5478   */\n      swap1\n      pop\n        /* \"#utility.yul\":5288:5484   */\n      swap3\n      swap2\n      pop\n      pop\n      jump\t// out\n        /* \"#utility.yul\":5490:5611   */\n    tag_213:\n        /* \"#utility.yul\":5568:5572   */\n      0x00\n        /* \"#utility.yul\":5600:5604   */\n      0x20\n        /* \"#utility.yul\":5595:5598   */\n      dup3\n        /* \"#utility.yul\":5591:5605   */\n      add\n        /* \"#utility.yul\":5583:5605   */\n      swap1\n      pop\n        /* \"#utility.yul\":5490:5611   */\n      swap2\n      swap1\n      pop\n      jump\t// out\n        /* \"#utility.yul\":5647:6626   */\n    tag_214:\n        /* \"#utility.yul\":5782:5785   */\n      0x00\n        /* \"#utility.yul\":5811:5873   */\n      tag_326\n        /* \"#utility.yul\":5867:5872   */\n      dup3\n        /* \"#utility.yul\":5811:5873   */\n      tag_207\n      jump\t// in\n    tag_326:\n        /* \"#utility.yul\":5889:5983   */\n      tag_327\n        /* \"#utility.yul\":5976:5982   */\n      dup2\n        /* \"#utility.yul\":5971:5974   */\n      dup6\n        /* \"#utility.yul\":5889:5983   */\n      tag_208\n      jump\t// in\n    tag_327:\n        /* \"#utility.yul\":5882:5983   */\n      swap4\n      pop\n        /* \"#utility.yul\":6009:6012   */\n      dup4\n        /* \"#utility.yul\":6054:6058   */\n      0x20\n        /* \"#utility.yul\":6046:6052   */\n      dup3\n        /* \"#utility.yul\":6042:6059   */\n      mul\n        /* \"#utility.yul\":6037:6040   */\n      dup6\n        /* \"#utility.yul\":6033:6060   */\n      add\n        /* \"#utility.yul\":6084:6148   */\n      tag_328\n        /* \"#utility.yul\":6142:6147   */\n      dup6\n        /* \"#utility.yul\":6084:6148   */\n      tag_209\n      jump\t// in\n    tag_328:\n        /* \"#utility.yul\":6171:6178   */\n      dup1\n        /* \"#utility.yul\":6202:6203   */\n      0x00\n        /* \"#utility.yul\":6187:6581   */\n    tag_329:\n        /* \"#utility.yul\":6212:6218   */\n      dup6\n        /* \"#utility.yul\":6209:6210   */\n      dup2\n        /* \"#utility.yul\":6206:6219   */\n      lt\n        /* \"#utility.yul\":6187:6581   */\n      iszero\n      tag_331\n      jumpi\n        /* \"#utility.yul\":6283:6292   */\n      dup5\n        /* \"#utility.yul\":6277:6281   */\n      dup5\n        /* \"#utility.yul\":6273:6293   */\n      sub\n        /* \"#utility.yul\":6268:6271   */\n      dup10\n        /* \"#utility.yul\":6261:6294   */\n      mstore\n        /* \"#utility.yul\":6334:6340   */\n      dup2\n        /* \"#utility.yul\":6328:6341   */\n      mload\n        /* \"#utility.yul\":6362:6446   */\n      tag_332\n        /* \"#utility.yul\":6441:6445   */\n      dup6\n        /* \"#utility.yul\":6426:6439   */\n      dup3\n        /* \"#utility.yul\":6362:6446   */\n      tag_212\n      jump\t// in\n    tag_332:\n        /* \"#utility.yul\":6354:6446   */\n      swap5\n      pop\n        /* \"#utility.yul\":6469:6537   */\n      tag_333\n        /* \"#utility.yul\":6530:6536   */\n      dup4\n        /* \"#utility.yul\":6469:6537   */\n      tag_213\n      jump\t// in\n    tag_333:\n        /* \"#utility.yul\":6459:6537   */\n      swap3\n      pop\n        /* \"#utility.yul\":6566:6570   */\n      0x20\n        /* \"#utility.yul\":6561:6564   */\n      dup11\n        /* \"#utility.yul\":6557:6571   */\n      add\n        /* \"#utility.yul\":6550:6571   */\n      swap10\n      pop\n        /* \"#utility.yul\":6247:6581   */\n      pop\n        /* \"#utility.yul\":6234:6235   */\n      0x01\n        /* \"#utility.yul\":6231:6232   */\n      dup2\n        /* \"#utility.yul\":6227:6236   */\n      add\n        /* \"#utility.yul\":6222:6236   */\n      swap1\n      pop\n        /* \"#utility.yul\":6187:6581   */\n      jump(tag_329)\n    tag_331:\n        /* \"#utility.yul\":6191:6205   */\n      pop\n        /* \"#utility.yul\":6597:6601   */\n      dup3\n        /* \"#utility.yul\":6590:6601   */\n      swap8\n      pop\n        /* \"#utility.yul\":6617:6620   */\n      dup8\n        /* \"#utility.yul\":6610:6620   */\n      swap6\n      pop\n        /* \"#utility.yul\":5787:6626   */\n      pop\n      pop\n      pop\n      pop\n      pop\n        /* \"#utility.yul\":5647:6626   */\n      swap3\n      swap2\n      pop\n      pop\n      jump\t// out\n        /* \"#utility.yul\":6632:6736   */\n    tag_215:\n        /* \"#utility.yul\":6697:6703   */\n      0x00\n        /* \"#utility.yul\":6725:6729   */\n      0x03\n        /* \"#utility.yul\":6715:6729   */\n      swap1\n      pop\n        /* \"#utility.yul\":6632:6736   */\n      swap2\n      swap1\n      pop\n      jump\t// out\n        /* \"#utility.yul\":6742:6885   */\n    tag_216:\n        /* \"#utility.yul\":6839:6850   */\n      0x00\n        /* \"#utility.yul\":6876:6879   */\n      dup2\n        /* \"#utility.yul\":6861:6879   */\n      swap1\n      pop\n        /* \"#utility.yul\":6742:6885   */\n      swap3\n      swap2\n      pop\n      pop\n      jump\t// out\n        /* \"#utility.yul\":6891:6989   */\n    tag_217:\n        /* \"#utility.yul\":6956:6960   */\n      0x00\n        /* \"#utility.yul\":6979:6982   */\n      dup2\n        /* \"#utility.yul\":6971:6982   */\n      swap1\n      pop\n        /* \"#utility.yul\":6891:6989   */\n      swap2\n      swap1\n      pop\n      jump\t// out\n        /* \"#utility.yul\":6995:7103   */\n    tag_218:\n        /* \"#utility.yul\":7072:7096   */\n      tag_338\n        /* \"#utility.yul\":7090:7095   */\n      dup2\n        /* \"#utility.yul\":7072:7096   */\n      tag_190\n      jump\t// in\n    tag_338:\n        /* \"#utility.yul\":7067:7070   */\n      dup3\n        /* \"#utility.yul\":7060:7097   */\n      mstore\n        /* \"#utility.yul\":6995:7103   */\n      pop\n      pop\n      jump\t// out\n        /* \"#utility.yul\":7109:7288   */\n    tag_219:\n        /* \"#utility.yul\":7178:7188   */\n      0x00\n        /* \"#utility.yul\":7199:7245   */\n      tag_340\n        /* \"#utility.yul\":7241:7244   */\n      dup4\n        /* \"#utility.yul\":7233:7239   */\n      dup4\n        /* \"#utility.yul\":7199:7245   */\n      tag_218\n      jump\t// in\n    tag_340:\n        /* \"#utility.yul\":7277:7281   */\n      0x20\n        /* \"#utility.yul\":7272:7275   */\n      dup4\n        /* \"#utility.yul\":7268:7282   */\n      add\n        /* \"#utility.yul\":7254:7282   */\n      swap1\n      pop\n        /* \"#utility.yul\":7109:7288   */\n      swap3\n      swap2\n      pop\n      pop\n      jump\t// out\n        /* \"#utility.yul\":7294:7405   */\n    tag_220:\n        /* \"#utility.yul\":7362:7366   */\n      0x00\n        /* \"#utility.yul\":7394:7398   */\n      0x20\n        /* \"#utility.yul\":7389:7392   */\n      dup3\n        /* \"#utility.yul\":7385:7399   */\n      add\n        /* \"#utility.yul\":7377:7399   */\n      swap1\n      pop\n        /* \"#utility.yul\":7294:7405   */\n      swap2\n      swap1\n      pop\n      jump\t// out\n        /* \"#utility.yul\":7443:8137   */\n    tag_221:\n        /* \"#utility.yul\":7579:7631   */\n      tag_343\n        /* \"#utility.yul\":7625:7630   */\n      dup2\n        /* \"#utility.yul\":7579:7631   */\n      tag_215\n      jump\t// in\n    tag_343:\n        /* \"#utility.yul\":7647:7731   */\n      tag_344\n        /* \"#utility.yul\":7724:7730   */\n      dup2\n        /* \"#utility.yul\":7719:7722   */\n      dup5\n        /* \"#utility.yul\":7647:7731   */\n      tag_216\n      jump\t// in\n    tag_344:\n        /* \"#utility.yul\":7640:7731   */\n      swap3\n      pop\n        /* \"#utility.yul\":7755:7809   */\n      tag_345\n        /* \"#utility.yul\":7803:7808   */\n      dup3\n        /* \"#utility.yul\":7755:7809   */\n      tag_217\n      jump\t// in\n    tag_345:\n        /* \"#utility.yul\":7832:7839   */\n      dup1\n        /* \"#utility.yul\":7863:7864   */\n      0x00\n        /* \"#utility.yul\":7848:8130   */\n    tag_346:\n        /* \"#utility.yul\":7873:7879   */\n      dup4\n        /* \"#utility.yul\":7870:7871   */\n      dup2\n        /* \"#utility.yul\":7867:7880   */\n      lt\n        /* \"#utility.yul\":7848:8130   */\n      iszero\n      tag_348\n      jumpi\n        /* \"#utility.yul\":7949:7955   */\n      dup2\n        /* \"#utility.yul\":7943:7956   */\n      mload\n        /* \"#utility.yul\":7976:8039   */\n      tag_349\n        /* \"#utility.yul\":8035:8038   */\n      dup8\n        /* \"#utility.yul\":8020:8033   */\n      dup3\n        /* \"#utility.yul\":7976:8039   */\n      tag_219\n      jump\t// in\n    tag_349:\n        /* \"#utility.yul\":7969:8039   */\n      swap7\n      pop\n        /* \"#utility.yul\":8062:8120   */\n      tag_350\n        /* \"#utility.yul\":8113:8119   */\n      dup4\n        /* \"#utility.yul\":8062:8120   */\n      tag_220\n      jump\t// in\n    tag_350:\n        /* \"#utility.yul\":8052:8120   */\n      swap3\n      pop\n        /* \"#utility.yul\":7908:8130   */\n      pop\n        /* \"#utility.yul\":7895:7896   */\n      0x01\n        /* \"#utility.yul\":7892:7893   */\n      dup2\n        /* \"#utility.yul\":7888:7897   */\n      add\n        /* \"#utility.yul\":7883:7897   */\n      swap1\n      pop\n        /* \"#utility.yul\":7848:8130   */\n      jump(tag_346)\n    tag_348:\n        /* \"#utility.yul\":7852:7866   */\n      pop\n        /* \"#utility.yul\":7555:8137   */\n      pop\n      pop\n      pop\n        /* \"#utility.yul\":7443:8137   */\n      pop\n      pop\n      jump\t// out\n        /* \"#utility.yul\":8143:8256   */\n    tag_222:\n        /* \"#utility.yul\":8217:8223   */\n      0x00\n        /* \"#utility.yul\":8245:8249   */\n      0x03\n        /* \"#utility.yul\":8235:8249   */\n      swap1\n      pop\n        /* \"#utility.yul\":8143:8256   */\n      swap2\n      swap1\n      pop\n      jump\t// out\n        /* \"#utility.yul\":8262:8403   */\n    tag_223:\n        /* \"#utility.yul\":8357:8368   */\n      0x00\n        /* \"#utility.yul\":8394:8397   */\n      dup2\n        /* \"#utility.yul\":8379:8397   */\n      swap1\n      pop\n        /* \"#utility.yul\":8262:8403   */\n      swap3\n      swap2\n      pop\n      pop\n      jump\t// out\n        /* \"#utility.yul\":8409:8516   */\n    tag_224:\n        /* \"#utility.yul\":8483:8487   */\n      0x00\n        /* \"#utility.yul\":8506:8509   */\n      dup2\n        /* \"#utility.yul\":8498:8509   */\n      swap1\n      pop\n        /* \"#utility.yul\":8409:8516   */\n      swap2\n      swap1\n      pop\n      jump\t// out\n        /* \"#utility.yul\":8522:8657   */\n    tag_225:\n        /* \"#utility.yul\":8606:8650   */\n      tag_355\n        /* \"#utility.yul\":8644:8649   */\n      dup2\n        /* \"#utility.yul\":8606:8650   */\n      tag_205\n      jump\t// in\n    tag_355:\n        /* \"#utility.yul\":8601:8604   */\n      dup3\n        /* \"#utility.yul\":8594:8651   */\n      mstore\n        /* \"#utility.yul\":8522:8657   */\n      pop\n      pop\n      jump\t// out\n        /* \"#utility.yul\":8663:8856   */\n    tag_226:\n        /* \"#utility.yul\":8739:8749   */\n      0x00\n        /* \"#utility.yul\":8760:8813   */\n      tag_357\n        /* \"#utility.yul\":8809:8812   */\n      dup4\n        /* \"#utility.yul\":8801:8807   */\n      dup4\n        /* \"#utility.yul\":8760:8813   */\n      tag_225\n      jump\t// in\n    tag_357:\n        /* \"#utility.yul\":8845:8849   */\n      0x20\n        /* \"#utility.yul\":8840:8843   */\n      dup4\n        /* \"#utility.yul\":8836:8850   */\n      add\n        /* \"#utility.yul\":8822:8850   */\n      swap1\n      pop\n        /* \"#utility.yul\":8663:8856   */\n      swap3\n      swap2\n      pop\n      pop\n      jump\t// out\n        /* \"#utility.yul\":8862:8982   */\n    tag_227:\n        /* \"#utility.yul\":8939:8943   */\n      0x00\n        /* \"#utility.yul\":8971:8975   */\n      0x20\n        /* \"#utility.yul\":8966:8969   */\n      dup3\n        /* \"#utility.yul\":8962:8976   */\n      add\n        /* \"#utility.yul\":8954:8976   */\n      swap1\n      pop\n        /* \"#utility.yul\":8862:8982   */\n      swap2\n      swap1\n      pop\n      jump\t// out\n        /* \"#utility.yul\":9049:9782   */\n    tag_228:\n        /* \"#utility.yul\":9192:9253   */\n      tag_360\n        /* \"#utility.yul\":9247:9252   */\n      dup2\n        /* \"#utility.yul\":9192:9253   */\n      tag_222\n      jump\t// in\n    tag_360:\n        /* \"#utility.yul\":9269:9351   */\n      tag_361\n        /* \"#utility.yul\":9344:9350   */\n      dup2\n        /* \"#utility.yul\":9339:9342   */\n      dup5\n        /* \"#utility.yul\":9269:9351   */\n      tag_223\n      jump\t// in\n    tag_361:\n        /* \"#utility.yul\":9262:9351   */\n      swap3\n      pop\n        /* \"#utility.yul\":9375:9438   */\n      tag_362\n        /* \"#utility.yul\":9432:9437   */\n      dup3\n        /* \"#utility.yul\":9375:9438   */\n      tag_224\n      jump\t// in\n    tag_362:\n        /* \"#utility.yul\":9461:9468   */\n      dup1\n        /* \"#utility.yul\":9492:9493   */\n      0x00\n        /* \"#utility.yul\":9477:9775   */\n    tag_363:\n        /* \"#utility.yul\":9502:9508   */\n      dup4\n        /* \"#utility.yul\":9499:9500   */\n      dup2\n        /* \"#utility.yul\":9496:9509   */\n      lt\n        /* \"#utility.yul\":9477:9775   */\n      iszero\n      tag_365\n      jumpi\n        /* \"#utility.yul\":9578:9584   */\n      dup2\n        /* \"#utility.yul\":9572:9585   */\n      mload\n        /* \"#utility.yul\":9605:9675   */\n      tag_366\n        /* \"#utility.yul\":9671:9674   */\n      dup8\n        /* \"#utility.yul\":9656:9669   */\n      dup3\n        /* \"#utility.yul\":9605:9675   */\n      tag_226\n      jump\t// in\n    tag_366:\n        /* \"#utility.yul\":9598:9675   */\n      swap7\n      pop\n        /* \"#utility.yul\":9698:9765   */\n      tag_367\n        /* \"#utility.yul\":9758:9764   */\n      dup4\n        /* \"#utility.yul\":9698:9765   */\n      tag_227\n      jump\t// in\n    tag_367:\n        /* \"#utility.yul\":9688:9765   */\n      swap3\n      pop\n        /* \"#utility.yul\":9537:9775   */\n      pop\n        /* \"#utility.yul\":9524:9525   */\n      0x01\n        /* \"#utility.yul\":9521:9522   */\n      dup2\n        /* \"#utility.yul\":9517:9526   */\n      add\n        /* \"#utility.yul\":9512:9526   */\n      swap1\n      pop\n        /* \"#utility.yul\":9477:9775   */\n      jump(tag_363)\n    tag_365:\n        /* \"#utility.yul\":9481:9495   */\n      pop\n        /* \"#utility.yul\":9168:9782   */\n      pop\n      pop\n      pop\n        /* \"#utility.yul\":9049:9782   */\n      pop\n      pop\n      jump\t// out\n        /* \"#utility.yul\":9788:11019   */\n    tag_20:\n        /* \"#utility.yul\":10250:10254   */\n      0x00\n        /* \"#utility.yul\":10288:10291   */\n      0x01a0\n        /* \"#utility.yul\":10277:10286   */\n      dup3\n        /* \"#utility.yul\":10273:10292   */\n      add\n        /* \"#utility.yul\":10265:10292   */\n      swap1\n      pop\n        /* \"#utility.yul\":10338:10347   */\n      dup2\n        /* \"#utility.yul\":10332:10336   */\n      dup2\n        /* \"#utility.yul\":10328:10348   */\n      sub\n        /* \"#utility.yul\":10324:10325   */\n      0x00\n        /* \"#utility.yul\":10313:10322   */\n      dup4\n        /* \"#utility.yul\":10309:10326   */\n      add\n        /* \"#utility.yul\":10302:10349   */\n      mstore\n        /* \"#utility.yul\":10366:10490   */\n      tag_369\n        /* \"#utility.yul\":10485:10489   */\n      dup2\n        /* \"#utility.yul\":10476:10482   */\n      dup9\n        /* \"#utility.yul\":10366:10490   */\n      tag_214\n      jump\t// in\n    tag_369:\n        /* \"#utility.yul\":10358:10490   */\n      swap1\n      pop\n        /* \"#utility.yul\":10500:10618   */\n      tag_370\n        /* \"#utility.yul\":10614:10616   */\n      0x20\n        /* \"#utility.yul\":10603:10612   */\n      dup4\n        /* \"#utility.yul\":10599:10617   */\n      add\n        /* \"#utility.yul\":10590:10596   */\n      dup8\n        /* \"#utility.yul\":10500:10618   */\n      tag_221\n      jump\t// in\n    tag_370:\n        /* \"#utility.yul\":10628:10747   */\n      tag_371\n        /* \"#utility.yul\":10742:10745   */\n      0x80\n        /* \"#utility.yul\":10731:10740   */\n      dup4\n        /* \"#utility.yul\":10727:10746   */\n      add\n        /* \"#utility.yul\":10718:10724   */\n      dup7\n        /* \"#utility.yul\":10628:10747   */\n      tag_221\n      jump\t// in\n    tag_371:\n        /* \"#utility.yul\":10757:10883   */\n      tag_372\n        /* \"#utility.yul\":10878:10881   */\n      0xe0\n        /* \"#utility.yul\":10867:10876   */\n      dup4\n        /* \"#utility.yul\":10863:10882   */\n      add\n        /* \"#utility.yul\":10854:10860   */\n      dup6\n        /* \"#utility.yul\":10757:10883   */\n      tag_228\n      jump\t// in\n    tag_372:\n        /* \"#utility.yul\":10893:11012   */\n      tag_373\n        /* \"#utility.yul\":11007:11010   */\n      0x0140\n        /* \"#utility.yul\":10996:11005   */\n      dup4\n        /* \"#utility.yul\":10992:11011   */\n      add\n        /* \"#utility.yul\":10983:10989   */\n      dup5\n        /* \"#utility.yul\":10893:11012   */\n      tag_221\n      jump\t// in\n    tag_373:\n        /* \"#utility.yul\":9788:11019   */\n      swap7\n      swap6\n      pop\n      pop\n      pop\n      pop\n      pop\n      pop\n      jump\t// out\n        /* \"#utility.yul\":11025:11142   */\n    tag_229:\n        /* \"#utility.yul\":11134:11135   */\n      0x00\n        /* \"#utility.yul\":11131:11132   */\n      dup1\n        /* \"#utility.yul\":11124:11136   */\n      revert\n        /* \"#utility.yul\":11148:11265   */\n    tag_230:\n        /* \"#utility.yul\":11257:11258   */\n      0x00\n        /* \"#utility.yul\":11254:11255   */\n      dup1\n        /* \"#utility.yul\":11247:11259   */\n      revert\n        /* \"#utility.yul\":11271:11451   */\n    tag_231:\n        /* \"#utility.yul\":11319:11396   */\n      0x4e487b7100000000000000000000000000000000000000000000000000000000\n        /* \"#utility.yul\":11316:11317   */\n      0x00\n        /* \"#utility.yul\":11309:11397   */\n      mstore\n        /* \"#utility.yul\":11416:11420   */\n      0x41\n        /* \"#utility.yul\":11413:11414   */\n      0x04\n        /* \"#utility.yul\":11406:11421   */\n      mstore\n        /* \"#utility.yul\":11440:11444   */\n      0x24\n        /* \"#utility.yul\":11437:11438   */\n      0x00\n        /* \"#utility.yul\":11430:11445   */\n      revert\n        /* \"#utility.yul\":11457:11738   */\n    tag_232:\n        /* \"#utility.yul\":11540:11567   */\n      tag_378\n        /* \"#utility.yul\":11562:11566   */\n      dup3\n        /* \"#utility.yul\":11540:11567   */\n      tag_196\n      jump\t// in\n    tag_378:\n        /* \"#utility.yul\":11532:11538   */\n      dup2\n        /* \"#utility.yul\":11528:11568   */\n      add\n        /* \"#utility.yul\":11670:11676   */\n      dup2\n        /* \"#utility.yul\":11658:11668   */\n      dup2\n        /* \"#utility.yul\":11655:11677   */\n      lt\n        /* \"#utility.yul\":11634:11652   */\n      0xffffffffffffffff\n        /* \"#utility.yul\":11622:11632   */\n      dup3\n        /* \"#utility.yul\":11619:11653   */\n      gt\n        /* \"#utility.yul\":11616:11678   */\n      or\n        /* \"#utility.yul\":11613:11701   */\n      iszero\n      tag_379\n      jumpi\n        /* \"#utility.yul\":11681:11699   */\n      tag_380\n      tag_231\n      jump\t// in\n    tag_380:\n        /* \"#utility.yul\":11613:11701   */\n    tag_379:\n        /* \"#utility.yul\":11721:11731   */\n      dup1\n        /* \"#utility.yul\":11717:11719   */\n      0x40\n        /* \"#utility.yul\":11710:11732   */\n      mstore\n        /* \"#utility.yul\":11500:11738   */\n      pop\n        /* \"#utility.yul\":11457:11738   */\n      pop\n      pop\n      jump\t// out\n        /* \"#utility.yul\":11744:11873   */\n    tag_233:\n        /* \"#utility.yul\":11778:11784   */\n      0x00\n        /* \"#utility.yul\":11805:11825   */\n      tag_382\n      tag_187\n      jump\t// in\n    tag_382:\n        /* \"#utility.yul\":11795:11825   */\n      swap1\n      pop\n        /* \"#utility.yul\":11834:11867   */\n      tag_383\n        /* \"#utility.yul\":11862:11866   */\n      dup3\n        /* \"#utility.yul\":11854:11860   */\n      dup3\n        /* \"#utility.yul\":11834:11867   */\n      tag_232\n      jump\t// in\n    tag_383:\n        /* \"#utility.yul\":11744:11873   */\n      swap2\n      swap1\n      pop\n      jump\t// out\n        /* \"#utility.yul\":11879:12187   */\n    tag_234:\n        /* \"#utility.yul\":11941:11945   */\n      0x00\n        /* \"#utility.yul\":12031:12049   */\n      0xffffffffffffffff\n        /* \"#utility.yul\":12023:12029   */\n      dup3\n        /* \"#utility.yul\":12020:12050   */\n      gt\n        /* \"#utility.yul\":12017:12073   */\n      iszero\n      tag_385\n      jumpi\n        /* \"#utility.yul\":12053:12071   */\n      tag_386\n      tag_231\n      jump\t// in\n    tag_386:\n        /* \"#utility.yul\":12017:12073   */\n    tag_385:\n        /* \"#utility.yul\":12091:12120   */\n      tag_387\n        /* \"#utility.yul\":12113:12119   */\n      dup3\n        /* \"#utility.yul\":12091:12120   */\n      tag_196\n      jump\t// in\n    tag_387:\n        /* \"#utility.yul\":12083:12120   */\n      swap1\n      pop\n        /* \"#utility.yul\":12175:12179   */\n      0x20\n        /* \"#utility.yul\":12169:12173   */\n      dup2\n        /* \"#utility.yul\":12165:12180   */\n      add\n        /* \"#utility.yul\":12157:12180   */\n      swap1\n      pop\n        /* \"#utility.yul\":11879:12187   */\n      swap2\n      swap1\n      pop\n      jump\t// out\n        /* \"#utility.yul\":12193:12339   */\n    tag_235:\n        /* \"#utility.yul\":12290:12296   */\n      dup3\n        /* \"#utility.yul\":12285:12288   */\n      dup2\n        /* \"#utility.yul\":12280:12283   */\n      dup4\n        /* \"#utility.yul\":12267:12297   */\n      calldatacopy\n        /* \"#utility.yul\":12331:12332   */\n      0x00\n        /* \"#utility.yul\":12322:12328   */\n      dup4\n        /* \"#utility.yul\":12317:12320   */\n      dup4\n        /* \"#utility.yul\":12313:12329   */\n      add\n        /* \"#utility.yul\":12306:12333   */\n      mstore\n        /* \"#utility.yul\":12193:12339   */\n      pop\n      pop\n      pop\n      jump\t// out\n        /* \"#utility.yul\":12345:12770   */\n    tag_236:\n        /* \"#utility.yul\":12423:12428   */\n      0x00\n        /* \"#utility.yul\":12448:12514   */\n      tag_390\n        /* \"#utility.yul\":12464:12513   */\n      tag_391\n        /* \"#utility.yul\":12506:12512   */\n      dup5\n        /* \"#utility.yul\":12464:12513   */\n      tag_234\n      jump\t// in\n    tag_391:\n        /* \"#utility.yul\":12448:12514   */\n      tag_233\n      jump\t// in\n    tag_390:\n        /* \"#utility.yul\":12439:12514   */\n      swap1\n      pop\n        /* \"#utility.yul\":12537:12543   */\n      dup3\n        /* \"#utility.yul\":12530:12535   */\n      dup2\n        /* \"#utility.yul\":12523:12544   */\n      mstore\n        /* \"#utility.yul\":12575:12579   */\n      0x20\n        /* \"#utility.yul\":12568:12573   */\n      dup2\n        /* \"#utility.yul\":12564:12580   */\n      add\n        /* \"#utility.yul\":12613:12616   */\n      dup5\n        /* \"#utility.yul\":12604:12610   */\n      dup5\n        /* \"#utility.yul\":12599:12602   */\n      dup5\n        /* \"#utility.yul\":12595:12611   */\n      add\n        /* \"#utility.yul\":12592:12617   */\n      gt\n        /* \"#utility.yul\":12589:12701   */\n      iszero\n      tag_392\n      jumpi\n        /* \"#utility.yul\":12620:12699   */\n      tag_393\n      tag_230\n      jump\t// in\n    tag_393:\n        /* \"#utility.yul\":12589:12701   */\n    tag_392:\n        /* \"#utility.yul\":12710:12764   */\n      tag_394\n        /* \"#utility.yul\":12757:12763   */\n      dup5\n        /* \"#utility.yul\":12752:12755   */\n      dup3\n        /* \"#utility.yul\":12747:12750   */\n      dup6\n        /* \"#utility.yul\":12710:12764   */\n      tag_235\n      jump\t// in\n    tag_394:\n        /* \"#utility.yul\":12429:12770   */\n      pop\n        /* \"#utility.yul\":12345:12770   */\n      swap4\n      swap3\n      pop\n      pop\n      pop\n      jump\t// out\n        /* \"#utility.yul\":12790:13130   */\n    tag_237:\n        /* \"#utility.yul\":12846:12851   */\n      0x00\n        /* \"#utility.yul\":12895:12898   */\n      dup3\n        /* \"#utility.yul\":12888:12892   */\n      0x1f\n        /* \"#utility.yul\":12880:12886   */\n      dup4\n        /* \"#utility.yul\":12876:12893   */\n      add\n        /* \"#utility.yul\":12872:12899   */\n      slt\n        /* \"#utility.yul\":12862:12984   */\n      tag_396\n      jumpi\n        /* \"#utility.yul\":12903:12982   */\n      tag_397\n      tag_229\n      jump\t// in\n    tag_397:\n        /* \"#utility.yul\":12862:12984   */\n    tag_396:\n        /* \"#utility.yul\":13020:13026   */\n      dup2\n        /* \"#utility.yul\":13007:13027   */\n      calldataload\n        /* \"#utility.yul\":13045:13124   */\n      tag_398\n        /* \"#utility.yul\":13120:13123   */\n      dup5\n        /* \"#utility.yul\":13112:13118   */\n      dup3\n        /* \"#utility.yul\":13105:13109   */\n      0x20\n        /* \"#utility.yul\":13097:13103   */\n      dup7\n        /* \"#utility.yul\":13093:13110   */\n      add\n        /* \"#utility.yul\":13045:13124   */\n      tag_236\n      jump\t// in\n    tag_398:\n        /* \"#utility.yul\":13036:13124   */\n      swap2\n      pop\n        /* \"#utility.yul\":12852:13130   */\n      pop\n        /* \"#utility.yul\":12790:13130   */\n      swap3\n      swap2\n      pop\n      pop\n      jump\t// out\n        /* \"#utility.yul\":13136:13247   */\n    tag_238:\n        /* \"#utility.yul\":13221:13222   */\n      0x04\n        /* \"#utility.yul\":13214:13219   */\n      dup2\n        /* \"#utility.yul\":13211:13223   */\n      lt\n        /* \"#utility.yul\":13201:13241   */\n      tag_400\n      jumpi\n        /* \"#utility.yul\":13237:13238   */\n      0x00\n        /* \"#utility.yul\":13234:13235   */\n      dup1\n        /* \"#utility.yul\":13227:13239   */\n      revert\n        /* \"#utility.yul\":13201:13241   */\n    tag_400:\n        /* \"#utility.yul\":13136:13247   */\n      pop\n      jump\t// out\n        /* \"#utility.yul\":13253:13416   */\n    tag_239:\n        /* \"#utility.yul\":13311:13316   */\n      0x00\n        /* \"#utility.yul\":13349:13355   */\n      dup2\n        /* \"#utility.yul\":13336:13356   */\n      calldataload\n        /* \"#utility.yul\":13327:13356   */\n      swap1\n      pop\n        /* \"#utility.yul\":13365:13410   */\n      tag_402\n        /* \"#utility.yul\":13404:13409   */\n      dup2\n        /* \"#utility.yul\":13365:13410   */\n      tag_238\n      jump\t// in\n    tag_402:\n        /* \"#utility.yul\":13253:13416   */\n      swap3\n      swap2\n      pop\n      pop\n      jump\t// out\n        /* \"#utility.yul\":13422:13530   */\n    tag_240:\n        /* \"#utility.yul\":13504:13505   */\n      0x04\n        /* \"#utility.yul\":13497:13502   */\n      dup2\n        /* \"#utility.yul\":13494:13506   */\n      lt\n        /* \"#utility.yul\":13484:13524   */\n      tag_404\n      jumpi\n        /* \"#utility.yul\":13520:13521   */\n      0x00\n        /* \"#utility.yul\":13517:13518   */\n      dup1\n        /* \"#utility.yul\":13510:13522   */\n      revert\n        /* \"#utility.yul\":13484:13524   */\n    tag_404:\n        /* \"#utility.yul\":13422:13530   */\n      pop\n      jump\t// out\n        /* \"#utility.yul\":13536:13693   */\n    tag_241:\n        /* \"#utility.yul\":13591:13596   */\n      0x00\n        /* \"#utility.yul\":13629:13635   */\n      dup2\n        /* \"#utility.yul\":13616:13636   */\n      calldataload\n        /* \"#utility.yul\":13607:13636   */\n      swap1\n      pop\n        /* \"#utility.yul\":13645:13687   */\n      tag_406\n        /* \"#utility.yul\":13681:13686   */\n      dup2\n        /* \"#utility.yul\":13645:13687   */\n      tag_240\n      jump\t// in\n    tag_406:\n        /* \"#utility.yul\":13536:13693   */\n      swap3\n      swap2\n      pop\n      pop\n      jump\t// out\n        /* \"#utility.yul\":13699:15124   */\n    tag_23:\n        /* \"#utility.yul\":13843:13849   */\n      0x00\n        /* \"#utility.yul\":13851:13857   */\n      dup1\n        /* \"#utility.yul\":13859:13865   */\n      0x00\n        /* \"#utility.yul\":13867:13873   */\n      dup1\n        /* \"#utility.yul\":13875:13881   */\n      0x00\n        /* \"#utility.yul\":13883:13889   */\n      dup1\n        /* \"#utility.yul\":13891:13897   */\n      0x00\n        /* \"#utility.yul\":13940:13943   */\n      0xe0\n        /* \"#utility.yul\":13928:13937   */\n      dup9\n        /* \"#utility.yul\":13919:13926   */\n      dup11\n        /* \"#utility.yul\":13915:13938   */\n      sub\n        /* \"#utility.yul\":13911:13944   */\n      slt\n        /* \"#utility.yul\":13908:14028   */\n      iszero\n      tag_408\n      jumpi\n        /* \"#utility.yul\":13947:14026   */\n      tag_409\n      tag_188\n      jump\t// in\n    tag_409:\n        /* \"#utility.yul\":13908:14028   */\n    tag_408:\n        /* \"#utility.yul\":14067:14068   */\n      0x00\n        /* \"#utility.yul\":14092:14145   */\n      tag_410\n        /* \"#utility.yul\":14137:14144   */\n      dup11\n        /* \"#utility.yul\":14128:14134   */\n      dup3\n        /* \"#utility.yul\":14117:14126   */\n      dup12\n        /* \"#utility.yul\":14113:14135   */\n      add\n        /* \"#utility.yul\":14092:14145   */\n      tag_192\n      jump\t// in\n    tag_410:\n        /* \"#utility.yul\":14082:14145   */\n      swap8\n      pop\n        /* \"#utility.yul\":14038:14155   */\n      pop\n        /* \"#utility.yul\":14222:14224   */\n      0x20\n        /* \"#utility.yul\":14211:14220   */\n      dup9\n        /* \"#utility.yul\":14207:14225   */\n      add\n        /* \"#utility.yul\":14194:14226   */\n      calldataload\n        /* \"#utility.yul\":14253:14271   */\n      0xffffffffffffffff\n        /* \"#utility.yul\":14245:14251   */\n      dup2\n        /* \"#utility.yul\":14242:14272   */\n      gt\n        /* \"#utility.yul\":14239:14356   */\n      iszero\n      tag_411\n      jumpi\n        /* \"#utility.yul\":14275:14354   */\n      tag_412\n      tag_189\n      jump\t// in\n    tag_412:\n        /* \"#utility.yul\":14239:14356   */\n    tag_411:\n        /* \"#utility.yul\":14380:14443   */\n      tag_413\n        /* \"#utility.yul\":14435:14442   */\n      dup11\n        /* \"#utility.yul\":14426:14432   */\n      dup3\n        /* \"#utility.yul\":14415:14424   */\n      dup12\n        /* \"#utility.yul\":14411:14433   */\n      add\n        /* \"#utility.yul\":14380:14443   */\n      tag_237\n      jump\t// in\n    tag_413:\n        /* \"#utility.yul\":14370:14443   */\n      swap7\n      pop\n        /* \"#utility.yul\":14165:14453   */\n      pop\n        /* \"#utility.yul\":14492:14494   */\n      0x40\n        /* \"#utility.yul\":14518:14571   */\n      tag_414\n        /* \"#utility.yul\":14563:14570   */\n      dup11\n        /* \"#utility.yul\":14554:14560   */\n      dup3\n        /* \"#utility.yul\":14543:14552   */\n      dup12\n        /* \"#utility.yul\":14539:14561   */\n      add\n        /* \"#utility.yul\":14518:14571   */\n      tag_192\n      jump\t// in\n    tag_414:\n        /* \"#utility.yul\":14508:14571   */\n      swap6\n      pop\n        /* \"#utility.yul\":14463:14581   */\n      pop\n        /* \"#utility.yul\":14620:14622   */\n      0x60\n        /* \"#utility.yul\":14646:14711   */\n      tag_415\n        /* \"#utility.yul\":14703:14710   */\n      dup11\n        /* \"#utility.yul\":14694:14700   */\n      dup3\n        /* \"#utility.yul\":14683:14692   */\n      dup12\n        /* \"#utility.yul\":14679:14701   */\n      add\n        /* \"#utility.yul\":14646:14711   */\n      tag_239\n      jump\t// in\n    tag_415:\n        /* \"#utility.yul\":14636:14711   */\n      swap5\n      pop\n        /* \"#utility.yul\":14591:14721   */\n      pop\n        /* \"#utility.yul\":14760:14763   */\n      0x80\n        /* \"#utility.yul\":14787:14849   */\n      tag_416\n        /* \"#utility.yul\":14841:14848   */\n      dup11\n        /* \"#utility.yul\":14832:14838   */\n      dup3\n        /* \"#utility.yul\":14821:14830   */\n      dup12\n        /* \"#utility.yul\":14817:14839   */\n      add\n        /* \"#utility.yul\":14787:14849   */\n      tag_241\n      jump\t// in\n    tag_416:\n        /* \"#utility.yul\":14777:14849   */\n      swap4\n      pop\n        /* \"#utility.yul\":14731:14859   */\n      pop\n        /* \"#utility.yul\":14898:14901   */\n      0xa0\n        /* \"#utility.yul\":14925:14978   */\n      tag_417\n        /* \"#utility.yul\":14970:14977   */\n      dup11\n        /* \"#utility.yul\":14961:14967   */\n      dup3\n        /* \"#utility.yul\":14950:14959   */\n      dup12\n        /* \"#utility.yul\":14946:14968   */\n      add\n        /* \"#utility.yul\":14925:14978   */\n      tag_192\n      jump\t// in\n    tag_417:\n        /* \"#utility.yul\":14915:14978   */\n      swap3\n      pop\n        /* \"#utility.yul\":14869:14988   */\n      pop\n        /* \"#utility.yul\":15027:15030   */\n      0xc0\n        /* \"#utility.yul\":15054:15107   */\n      tag_418\n        /* \"#utility.yul\":15099:15106   */\n      dup11\n        /* \"#utility.yul\":15090:15096   */\n      dup3\n        /* \"#utility.yul\":15079:15088   */\n      dup12\n        /* \"#utility.yul\":15075:15097   */\n      add\n        /* \"#utility.yul\":15054:15107   */\n      tag_192\n      jump\t// in\n    tag_418:\n        /* \"#utility.yul\":15044:15107   */\n      swap2\n      pop\n        /* \"#utility.yul\":14998:15117   */\n      pop\n        /* \"#utility.yul\":13699:15124   */\n      swap3\n      swap6\n      swap9\n      swap2\n      swap5\n      swap8\n      pop\n      swap3\n      swap6\n      pop\n      jump\t// out\n        /* \"#utility.yul\":15130:15352   */\n    tag_32:\n        /* \"#utility.yul\":15223:15227   */\n      0x00\n        /* \"#utility.yul\":15261:15263   */\n      0x20\n        /* \"#utility.yul\":15250:15259   */\n      dup3\n        /* \"#utility.yul\":15246:15264   */\n      add\n        /* \"#utility.yul\":15238:15264   */\n      swap1\n      pop\n        /* \"#utility.yul\":15274:15345   */\n      tag_420\n        /* \"#utility.yul\":15342:15343   */\n      0x00\n        /* \"#utility.yul\":15331:15340   */\n      dup4\n        /* \"#utility.yul\":15327:15344   */\n      add\n        /* \"#utility.yul\":15318:15324   */\n      dup5\n        /* \"#utility.yul\":15274:15345   */\n      tag_198\n      jump\t// in\n    tag_420:\n        /* \"#utility.yul\":15130:15352   */\n      swap3\n      swap2\n      pop\n      pop\n      jump\t// out\n        /* \"#utility.yul\":15358:15711   */\n    tag_38:\n        /* \"#utility.yul\":15429:15435   */\n      0x00\n        /* \"#utility.yul\":15478:15480   */\n      0x20\n        /* \"#utility.yul\":15466:15475   */\n      dup3\n        /* \"#utility.yul\":15457:15464   */\n      dup5\n        /* \"#utility.yul\":15453:15476   */\n      sub\n        /* \"#utility.yul\":15449:15481   */\n      slt\n        /* \"#utility.yul\":15446:15565   */\n      iszero\n      tag_422\n      jumpi\n        /* \"#utility.yul\":15484:15563   */\n      tag_423\n      tag_188\n      jump\t// in\n    tag_423:\n        /* \"#utility.yul\":15446:15565   */\n    tag_422:\n        /* \"#utility.yul\":15604:15605   */\n      0x00\n        /* \"#utility.yul\":15629:15694   */\n      tag_424\n        /* \"#utility.yul\":15686:15693   */\n      dup5\n        /* \"#utility.yul\":15677:15683   */\n      dup3\n        /* \"#utility.yul\":15666:15675   */\n      dup6\n        /* \"#utility.yul\":15662:15684   */\n      add\n        /* \"#utility.yul\":15629:15694   */\n      tag_239\n      jump\t// in\n    tag_424:\n        /* \"#utility.yul\":15619:15694   */\n      swap2\n      pop\n        /* \"#utility.yul\":15575:15704   */\n      pop\n        /* \"#utility.yul\":15358:15711   */\n      swap3\n      swap2\n      pop\n      pop\n      jump\t// out\n        /* \"#utility.yul\":15717:15897   */\n    tag_242:\n        /* \"#utility.yul\":15765:15842   */\n      0x4e487b7100000000000000000000000000000000000000000000000000000000\n        /* \"#utility.yul\":15762:15763   */\n      0x00\n        /* \"#utility.yul\":15755:15843   */\n      mstore\n        /* \"#utility.yul\":15862:15866   */\n      0x22\n        /* \"#utility.yul\":15859:15860   */\n      0x04\n        /* \"#utility.yul\":15852:15867   */\n      mstore\n        /* \"#utility.yul\":15886:15890   */\n      0x24\n        /* \"#utility.yul\":15883:15884   */\n      0x00\n        /* \"#utility.yul\":15876:15891   */\n      revert\n        /* \"#utility.yul\":15903:16223   */\n    tag_42:\n        /* \"#utility.yul\":15947:15953   */\n      0x00\n        /* \"#utility.yul\":15984:15985   */\n      0x02\n        /* \"#utility.yul\":15978:15982   */\n      dup3\n        /* \"#utility.yul\":15974:15986   */\n      div\n        /* \"#utility.yul\":15964:15986   */\n      swap1\n      pop\n        /* \"#utility.yul\":16031:16032   */\n      0x01\n        /* \"#utility.yul\":16025:16029   */\n      dup3\n        /* \"#utility.yul\":16021:16033   */\n      and\n        /* \"#utility.yul\":16052:16070   */\n      dup1\n        /* \"#utility.yul\":16042:16123   */\n      tag_427\n      jumpi\n        /* \"#utility.yul\":16108:16112   */\n      0x7f\n        /* \"#utility.yul\":16100:16106   */\n      dup3\n        /* \"#utility.yul\":16096:16113   */\n      and\n        /* \"#utility.yul\":16086:16113   */\n      swap2\n      pop\n        /* \"#utility.yul\":16042:16123   */\n    tag_427:\n        /* \"#utility.yul\":16170:16172   */\n      0x20\n        /* \"#utility.yul\":16162:16168   */\n      dup3\n        /* \"#utility.yul\":16159:16173   */\n      lt\n        /* \"#utility.yul\":16139:16157   */\n      dup2\n        /* \"#utility.yul\":16136:16174   */\n      sub\n        /* \"#utility.yul\":16133:16217   */\n      tag_428\n      jumpi\n        /* \"#utility.yul\":16189:16207   */\n      tag_429\n      tag_242\n      jump\t// in\n    tag_429:\n        /* \"#utility.yul\":16133:16217   */\n    tag_428:\n        /* \"#utility.yul\":15954:16223   */\n      pop\n        /* \"#utility.yul\":15903:16223   */\n      swap2\n      swap1\n      pop\n      jump\t// out\n        /* \"#utility.yul\":16229:16409   */\n    tag_81:\n        /* \"#utility.yul\":16277:16354   */\n      0x4e487b7100000000000000000000000000000000000000000000000000000000\n        /* \"#utility.yul\":16274:16275   */\n      0x00\n        /* \"#utility.yul\":16267:16355   */\n      mstore\n        /* \"#utility.yul\":16374:16378   */\n      0x32\n        /* \"#utility.yul\":16371:16372   */\n      0x04\n        /* \"#utility.yul\":16364:16379   */\n      mstore\n        /* \"#utility.yul\":16398:16402   */\n      0x24\n        /* \"#utility.yul\":16395:16396   */\n      0x00\n        /* \"#utility.yul\":16388:16403   */\n      revert\n        /* \"#utility.yul\":16415:16595   */\n    tag_243:\n        /* \"#utility.yul\":16463:16540   */\n      0x4e487b7100000000000000000000000000000000000000000000000000000000\n        /* \"#utility.yul\":16460:16461   */\n      0x00\n        /* \"#utility.yul\":16453:16541   */\n      mstore\n        /* \"#utility.yul\":16560:16564   */\n      0x11\n        /* \"#utility.yul\":16557:16558   */\n      0x04\n        /* \"#utility.yul\":16550:16565   */\n      mstore\n        /* \"#utility.yul\":16584:16588   */\n      0x24\n        /* \"#utility.yul\":16581:16582   */\n      0x00\n        /* \"#utility.yul\":16574:16589   */\n      revert\n        /* \"#utility.yul\":16601:16795   */\n    tag_87:\n        /* \"#utility.yul\":16641:16645   */\n      0x00\n        /* \"#utility.yul\":16661:16681   */\n      tag_433\n        /* \"#utility.yul\":16679:16680   */\n      dup3\n        /* \"#utility.yul\":16661:16681   */\n      tag_190\n      jump\t// in\n    tag_433:\n        /* \"#utility.yul\":16656:16681   */\n      swap2\n      pop\n        /* \"#utility.yul\":16695:16715   */\n      tag_434\n        /* \"#utility.yul\":16713:16714   */\n      dup4\n        /* \"#utility.yul\":16695:16715   */\n      tag_190\n      jump\t// in\n    tag_434:\n        /* \"#utility.yul\":16690:16715   */\n      swap3\n      pop\n        /* \"#utility.yul\":16739:16740   */\n      dup3\n        /* \"#utility.yul\":16736:16737   */\n      dup3\n        /* \"#utility.yul\":16732:16741   */\n      sub\n        /* \"#utility.yul\":16724:16741   */\n      swap1\n      pop\n        /* \"#utility.yul\":16763:16764   */\n      dup2\n        /* \"#utility.yul\":16757:16761   */\n      dup2\n        /* \"#utility.yul\":16754:16765   */\n      gt\n        /* \"#utility.yul\":16751:16788   */\n      iszero\n      tag_435\n      jumpi\n        /* \"#utility.yul\":16768:16786   */\n      tag_436\n      tag_243\n      jump\t// in\n    tag_436:\n        /* \"#utility.yul\":16751:16788   */\n    tag_435:\n        /* \"#utility.yul\":16601:16795   */\n      swap3\n      swap2\n      pop\n      pop\n      jump\t// out\n        /* \"#utility.yul\":16801:16972   */\n    tag_122:\n        /* \"#utility.yul\":16840:16843   */\n      0x00\n        /* \"#utility.yul\":16863:16887   */\n      tag_438\n        /* \"#utility.yul\":16881:16886   */\n      dup3\n        /* \"#utility.yul\":16863:16887   */\n      tag_190\n      jump\t// in\n    tag_438:\n        /* \"#utility.yul\":16854:16887   */\n      swap2\n      pop\n        /* \"#utility.yul\":16909:16913   */\n      0x00\n        /* \"#utility.yul\":16902:16907   */\n      dup3\n        /* \"#utility.yul\":16899:16914   */\n      sub\n        /* \"#utility.yul\":16896:16937   */\n      tag_439\n      jumpi\n        /* \"#utility.yul\":16917:16935   */\n      tag_440\n      tag_243\n      jump\t// in\n    tag_440:\n        /* \"#utility.yul\":16896:16937   */\n    tag_439:\n        /* \"#utility.yul\":16964:16965   */\n      0x01\n        /* \"#utility.yul\":16957:16962   */\n      dup3\n        /* \"#utility.yul\":16953:16966   */\n      sub\n        /* \"#utility.yul\":16946:16966   */\n      swap1\n      pop\n        /* \"#utility.yul\":16801:16972   */\n      swap2\n      swap1\n      pop\n      jump\t// out\n        /* \"#utility.yul\":16978:17211   */\n    tag_145:\n        /* \"#utility.yul\":17017:17020   */\n      0x00\n        /* \"#utility.yul\":17040:17064   */\n      tag_442\n        /* \"#utility.yul\":17058:17063   */\n      dup3\n        /* \"#utility.yul\":17040:17064   */\n      tag_190\n      jump\t// in\n    tag_442:\n        /* \"#utility.yul\":17031:17064   */\n      swap2\n      pop\n        /* \"#utility.yul\":17086:17152   */\n      0xffffffffffffffffffffffffffffffffffffffffffffffffffffffffffffffff\n        /* \"#utility.yul\":17079:17084   */\n      dup3\n        /* \"#utility.yul\":17076:17153   */\n      sub\n        /* \"#utility.yul\":17073:17176   */\n      tag_443\n      jumpi\n        /* \"#utility.yul\":17156:17174   */\n      tag_444\n      tag_243\n      jump\t// in\n    tag_444:\n        /* \"#utility.yul\":17073:17176   */\n    tag_443:\n        /* \"#utility.yul\":17203:17204   */\n      0x01\n        /* \"#utility.yul\":17196:17201   */\n      dup3\n        /* \"#utility.yul\":17192:17205   */\n      add\n        /* \"#utility.yul\":17185:17205   */\n      swap1\n      pop\n        /* \"#utility.yul\":16978:17211   */\n      swap2\n      swap1\n      pop\n      jump\t// out\n        /* \"#utility.yul\":17217:17358   */\n    tag_244:\n        /* \"#utility.yul\":17266:17270   */\n      0x00\n        /* \"#utility.yul\":17289:17292   */\n      dup2\n        /* \"#utility.yul\":17281:17292   */\n      swap1\n      pop\n        /* \"#utility.yul\":17312:17315   */\n      dup2\n        /* \"#utility.yul\":17309:17310   */\n      0x00\n        /* \"#utility.yul\":17302:17316   */\n      mstore\n        /* \"#utility.yul\":17346:17350   */\n      0x20\n        /* \"#utility.yul\":17343:17344   */\n      0x00\n        /* \"#utility.yul\":17333:17351   */\n      keccak256\n        /* \"#utility.yul\":17325:17351   */\n      swap1\n      pop\n        /* \"#utility.yul\":17217:17358   */\n      swap2\n      swap1\n      pop\n      jump\t// out\n        /* \"#utility.yul\":17364:17457   */\n    tag_245:\n        /* \"#utility.yul\":17401:17407   */\n      0x00\n        /* \"#utility.yul\":17448:17450   */\n      0x20\n        /* \"#utility.yul\":17443:17445   */\n      0x1f\n        /* \"#utility.yul\":17436:17441   */\n      dup4\n        /* \"#utility.yul\":17432:17446   */\n      add\n        /* \"#utility.yul\":17428:17451   */\n      div\n        /* \"#utility.yul\":17418:17451   */\n      swap1\n      pop\n        /* \"#utility.yul\":17364:17457   */\n      swap2\n      swap1\n      pop\n      jump\t// out\n        /* \"#utility.yul\":17463:17570   */\n    tag_246:\n        /* \"#utility.yul\":17507:17515   */\n      0x00\n        /* \"#utility.yul\":17557:17562   */\n      dup3\n        /* \"#utility.yul\":17551:17555   */\n      dup3\n        /* \"#utility.yul\":17547:17563   */\n      shl\n        /* \"#utility.yul\":17526:17563   */\n      swap1\n      pop\n        /* \"#utility.yul\":17463:17570   */\n      swap3\n      swap2\n      pop\n      pop\n      jump\t// out\n        /* \"#utility.yul\":17576:17969   */\n    tag_247:\n        /* \"#utility.yul\":17645:17651   */\n      0x00\n        /* \"#utility.yul\":17695:17696   */\n      0x08\n        /* \"#utility.yul\":17683:17693   */\n      dup4\n        /* \"#utility.yul\":17679:17697   */\n      mul\n        /* \"#utility.yul\":17718:17815   */\n      tag_449\n        /* \"#utility.yul\":17748:17814   */\n      0xffffffffffffffffffffffffffffffffffffffffffffffffffffffffffffffff\n        /* \"#utility.yul\":17737:17746   */\n      dup3\n        /* \"#utility.yul\":17718:17815   */\n      tag_246\n      jump\t// in\n    tag_449:\n        /* \"#utility.yul\":17836:17875   */\n      tag_450\n        /* \"#utility.yul\":17866:17874   */\n      dup7\n        /* \"#utility.yul\":17855:17864   */\n      dup4\n        /* \"#utility.yul\":17836:17875   */\n      tag_246\n      jump\t// in\n    tag_450:\n        /* \"#utility.yul\":17824:17875   */\n      swap6\n      pop\n        /* \"#utility.yul\":17908:17912   */\n      dup1\n        /* \"#utility.yul\":17904:17913   */\n      not\n        /* \"#utility.yul\":17897:17902   */\n      dup5\n        /* \"#utility.yul\":17893:17914   */\n      and\n        /* \"#utility.yul\":17884:17914   */\n      swap4\n      pop\n        /* \"#utility.yul\":17957:17961   */\n      dup1\n        /* \"#utility.yul\":17947:17955   */\n      dup7\n        /* \"#utility.yul\":17943:17962   */\n      and\n        /* \"#utility.yul\":17936:17941   */\n      dup5\n        /* \"#utility.yul\":17933:17963   */\n      or\n        /* \"#utility.yul\":17923:17963   */\n      swap3\n      pop\n        /* \"#utility.yul\":17652:17969   */\n      pop\n      pop\n        /* \"#utility.yul\":17576:17969   */\n      swap4\n      swap3\n      pop\n      pop\n      pop\n      jump\t// out\n        /* \"#utility.yul\":17975:18035   */\n    tag_248:\n        /* \"#utility.yul\":18003:18006   */\n      0x00\n        /* \"#utility.yul\":18024:18029   */\n      dup2\n        /* \"#utility.yul\":18017:18029   */\n      swap1\n      pop\n        /* \"#utility.yul\":17975:18035   */\n      swap2\n      swap1\n      pop\n      jump\t// out\n        /* \"#utility.yul\":18041:18183   */\n    tag_249:\n        /* \"#utility.yul\":18091:18100   */\n      0x00\n        /* \"#utility.yul\":18124:18177   */\n      tag_453\n        /* \"#utility.yul\":18142:18176   */\n      tag_454\n        /* \"#utility.yul\":18151:18175   */\n      tag_455\n        /* \"#utility.yul\":18169:18174   */\n      dup5\n        /* \"#utility.yul\":18151:18175   */\n      tag_190\n      jump\t// in\n    tag_455:\n        /* \"#utility.yul\":18142:18176   */\n      tag_248\n      jump\t// in\n    tag_454:\n        /* \"#utility.yul\":18124:18177   */\n      tag_190\n      jump\t// in\n    tag_453:\n        /* \"#utility.yul\":18111:18177   */\n      swap1\n      pop\n        /* \"#utility.yul\":18041:18183   */\n      swap2\n      swap1\n      pop\n      jump\t// out\n        /* \"#utility.yul\":18189:18264   */\n    tag_250:\n        /* \"#utility.yul\":18232:18235   */\n      0x00\n        /* \"#utility.yul\":18253:18258   */\n      dup2\n        /* \"#utility.yul\":18246:18258   */\n      swap1\n      pop\n        /* \"#utility.yul\":18189:18264   */\n      swap2\n      swap1\n      pop\n      jump\t// out\n        /* \"#utility.yul\":18270:18539   */\n    tag_251:\n        /* \"#utility.yul\":18380:18419   */\n      tag_458\n        /* \"#utility.yul\":18411:18418   */\n      dup4\n        /* \"#utility.yul\":18380:18419   */\n      tag_249\n      jump\t// in\n    tag_458:\n        /* \"#utility.yul\":18441:18532   */\n      tag_459\n        /* \"#utility.yul\":18490:18531   */\n      tag_460\n        /* \"#utility.yul\":18514:18530   */\n      dup3\n        /* \"#utility.yul\":18490:18531   */\n      tag_250\n      jump\t// in\n    tag_460:\n        /* \"#utility.yul\":18482:18488   */\n      dup5\n        /* \"#utility.yul\":18475:18479   */\n      dup5\n        /* \"#utility.yul\":18469:18480   */\n      sload\n        /* \"#utility.yul\":18441:18532   */\n      tag_247\n      jump\t// in\n    tag_459:\n        /* \"#utility.yul\":18435:18439   */\n      dup3\n        /* \"#utility.yul\":18428:18533   */\n      sstore\n        /* \"#utility.yul\":18346:18539   */\n      pop\n        /* \"#utility.yul\":18270:18539   */\n      pop\n      pop\n      pop\n      jump\t// out\n        /* \"#utility.yul\":18545:18618   */\n    tag_252:\n        /* \"#utility.yul\":18590:18593   */\n      0x00\n        /* \"#utility.yul\":18545:18618   */\n      swap1\n      jump\t// out\n        /* \"#utility.yul\":18624:18813   */\n    tag_253:\n        /* \"#utility.yul\":18701:18733   */\n      tag_463\n      tag_252\n      jump\t// in\n    tag_463:\n        /* \"#utility.yul\":18742:18807   */\n      tag_464\n        /* \"#utility.yul\":18800:18806   */\n      dup2\n        /* \"#utility.yul\":18792:18798   */\n      dup5\n        /* \"#utility.yul\":18786:18790   */\n      dup5\n        /* \"#utility.yul\":18742:18807   */\n      tag_251\n      jump\t// in\n    tag_464:\n        /* \"#utility.yul\":18677:18813   */\n      pop\n        /* \"#utility.yul\":18624:18813   */\n      pop\n      pop\n      jump\t// out\n        /* \"#utility.yul\":18819:19005   */\n    tag_254:\n        /* \"#utility.yul\":18879:18999   */\n    tag_466:\n        /* \"#utility.yul\":18896:18899   */\n      dup2\n        /* \"#utility.yul\":18889:18894   */\n      dup2\n        /* \"#utility.yul\":18886:18900   */\n      lt\n        /* \"#utility.yul\":18879:18999   */\n      iszero\n      tag_468\n      jumpi\n        /* \"#utility.yul\":18950:18989   */\n      tag_469\n        /* \"#utility.yul\":18987:18988   */\n      0x00\n        /* \"#utility.yul\":18980:18985   */\n      dup3\n        /* \"#utility.yul\":18950:18989   */\n      tag_253\n      jump\t// in\n    tag_469:\n        /* \"#utility.yul\":18923:18924   */\n      0x01\n        /* \"#utility.yul\":18916:18921   */\n      dup2\n        /* \"#utility.yul\":18912:18925   */\n      add\n        /* \"#utility.yul\":18903:18925   */\n      swap1\n      pop\n        /* \"#utility.yul\":18879:18999   */\n      jump(tag_466)\n    tag_468:\n        /* \"#utility.yul\":18819:19005   */\n      pop\n      pop\n      jump\t// out\n        /* \"#utility.yul\":19011:19554   */\n    tag_255:\n        /* \"#utility.yul\":19112:19114   */\n      0x1f\n        /* \"#utility.yul\":19107:19110   */\n      dup3\n        /* \"#utility.yul\":19104:19115   */\n      gt\n        /* \"#utility.yul\":19101:19547   */\n      iszero\n      tag_471\n      jumpi\n        /* \"#utility.yul\":19146:19184   */\n      tag_472\n        /* \"#utility.yul\":19178:19183   */\n      dup2\n        /* \"#utility.yul\":19146:19184   */\n      tag_244\n      jump\t// in\n    tag_472:\n        /* \"#utility.yul\":19230:19259   */\n      tag_473\n        /* \"#utility.yul\":19248:19258   */\n      dup5\n        /* \"#utility.yul\":19230:19259   */\n      tag_245\n      jump\t// in\n    tag_473:\n        /* \"#utility.yul\":19220:19228   */\n      dup2\n        /* \"#utility.yul\":19216:19260   */\n      add\n        /* \"#utility.yul\":19413:19415   */\n      0x20\n        /* \"#utility.yul\":19401:19411   */\n      dup6\n        /* \"#utility.yul\":19398:19416   */\n      lt\n        /* \"#utility.yul\":19395:19444   */\n      iszero\n      tag_474\n      jumpi\n        /* \"#utility.yul\":19434:19442   */\n      dup2\n        /* \"#utility.yul\":19419:19442   */\n      swap1\n      pop\n        /* \"#utility.yul\":19395:19444   */\n    tag_474:\n        /* \"#utility.yul\":19457:19537   */\n      tag_475\n        /* \"#utility.yul\":19513:19535   */\n      tag_476\n        /* \"#utility.yul\":19531:19534   */\n      dup6\n        /* \"#utility.yul\":19513:19535   */\n      tag_245\n      jump\t// in\n    tag_476:\n        /* \"#utility.yul\":19503:19511   */\n      dup4\n        /* \"#utility.yul\":19499:19536   */\n      add\n        /* \"#utility.yul\":19486:19497   */\n      dup3\n        /* \"#utility.yul\":19457:19537   */\n      tag_254\n      jump\t// in\n    tag_475:\n        /* \"#utility.yul\":19116:19547   */\n      pop\n      pop\n        /* \"#utility.yul\":19101:19547   */\n    tag_471:\n        /* \"#utility.yul\":19011:19554   */\n      pop\n      pop\n      pop\n      jump\t// out\n        /* \"#utility.yul\":19560:19677   */\n    tag_256:\n        /* \"#utility.yul\":19614:19622   */\n      0x00\n        /* \"#utility.yul\":19664:19669   */\n      dup3\n        /* \"#utility.yul\":19658:19662   */\n      dup3\n        /* \"#utility.yul\":19654:19670   */\n      shr\n        /* \"#utility.yul\":19633:19670   */\n      swap1\n      pop\n        /* \"#utility.yul\":19560:19677   */\n      swap3\n      swap2\n      pop\n      pop\n      jump\t// out\n        /* \"#utility.yul\":19683:19852   */\n    tag_257:\n        /* \"#utility.yul\":19727:19733   */\n      0x00\n        /* \"#utility.yul\":19760:19811   */\n      tag_479\n        /* \"#utility.yul\":19808:19809   */\n      0x00\n        /* \"#utility.yul\":19804:19810   */\n      not\n        /* \"#utility.yul\":19796:19801   */\n      dup5\n        /* \"#utility.yul\":19793:19794   */\n      0x08\n        /* \"#utility.yul\":19789:19802   */\n      mul\n        /* \"#utility.yul\":19760:19811   */\n      tag_256\n      jump\t// in\n    tag_479:\n        /* \"#utility.yul\":19756:19812   */\n      not\n        /* \"#utility.yul\":19841:19845   */\n      dup1\n        /* \"#utility.yul\":19835:19839   */\n      dup4\n        /* \"#utility.yul\":19831:19846   */\n      and\n        /* \"#utility.yul\":19821:19846   */\n      swap2\n      pop\n        /* \"#utility.yul\":19734:19852   */\n      pop\n        /* \"#utility.yul\":19683:19852   */\n      swap3\n      swap2\n      pop\n      pop\n      jump\t// out\n        /* \"#utility.yul\":19857:20152   */\n    tag_258:\n        /* \"#utility.yul\":19933:19937   */\n      0x00\n        /* \"#utility.yul\":20079:20108   */\n      tag_481\n        /* \"#utility.yul\":20104:20107   */\n      dup4\n        /* \"#utility.yul\":20098:20102   */\n      dup4\n        /* \"#utility.yul\":20079:20108   */\n      tag_257\n      jump\t// in\n    tag_481:\n        /* \"#utility.yul\":20071:20108   */\n      swap2\n      pop\n        /* \"#utility.yul\":20141:20144   */\n      dup3\n        /* \"#utility.yul\":20138:20139   */\n      0x02\n        /* \"#utility.yul\":20134:20145   */\n      mul\n        /* \"#utility.yul\":20128:20132   */\n      dup3\n        /* \"#utility.yul\":20125:20146   */\n      or\n        /* \"#utility.yul\":20117:20146   */\n      swap1\n      pop\n        /* \"#utility.yul\":19857:20152   */\n      swap3\n      swap2\n      pop\n      pop\n      jump\t// out\n        /* \"#utility.yul\":20157:21552   */\n    tag_153:\n        /* \"#utility.yul\":20274:20311   */\n      tag_483\n        /* \"#utility.yul\":20307:20310   */\n      dup3\n        /* \"#utility.yul\":20274:20311   */\n      tag_193\n      jump\t// in\n    tag_483:\n        /* \"#utility.yul\":20376:20394   */\n      0xffffffffffffffff\n        /* \"#utility.yul\":20368:20374   */\n      dup2\n        /* \"#utility.yul\":20365:20395   */\n      gt\n        /* \"#utility.yul\":20362:20418   */\n      iszero\n      tag_484\n      jumpi\n        /* \"#utility.yul\":20398:20416   */\n      tag_485\n      tag_231\n      jump\t// in\n    tag_485:\n        /* \"#utility.yul\":20362:20418   */\n    tag_484:\n        /* \"#utility.yul\":20442:20480   */\n      tag_486\n        /* \"#utility.yul\":20474:20478   */\n      dup3\n        /* \"#utility.yul\":20468:20479   */\n      sload\n        /* \"#utility.yul\":20442:20480   */\n      tag_42\n      jump\t// in\n    tag_486:\n        /* \"#utility.yul\":20527:20594   */\n      tag_487\n        /* \"#utility.yul\":20587:20593   */\n      dup3\n        /* \"#utility.yul\":20579:20585   */\n      dup3\n        /* \"#utility.yul\":20573:20577   */\n      dup6\n        /* \"#utility.yul\":20527:20594   */\n      tag_255\n      jump\t// in\n    tag_487:\n        /* \"#utility.yul\":20621:20622   */\n      0x00\n        /* \"#utility.yul\":20645:20649   */\n      0x20\n        /* \"#utility.yul\":20632:20649   */\n      swap1\n      pop\n        /* \"#utility.yul\":20677:20679   */\n      0x1f\n        /* \"#utility.yul\":20669:20675   */\n      dup4\n        /* \"#utility.yul\":20666:20680   */\n      gt\n        /* \"#utility.yul\":20694:20695   */\n      0x01\n        /* \"#utility.yul\":20689:21307   */\n      dup2\n      eq\n      tag_489\n      jumpi\n        /* \"#utility.yul\":21351:21352   */\n      0x00\n        /* \"#utility.yul\":21368:21374   */\n      dup5\n        /* \"#utility.yul\":21365:21442   */\n      iszero\n      tag_490\n      jumpi\n        /* \"#utility.yul\":21417:21426   */\n      dup3\n        /* \"#utility.yul\":21412:21415   */\n      dup8\n        /* \"#utility.yul\":21408:21427   */\n      add\n        /* \"#utility.yul\":21402:21428   */\n      mload\n        /* \"#utility.yul\":21393:21428   */\n      swap1\n      pop\n        /* \"#utility.yul\":21365:21442   */\n    tag_490:\n        /* \"#utility.yul\":21468:21535   */\n      tag_491\n        /* \"#utility.yul\":21528:21534   */\n      dup6\n        /* \"#utility.yul\":21521:21526   */\n      dup3\n        /* \"#utility.yul\":21468:21535   */\n      tag_258\n      jump\t// in\n    tag_491:\n        /* \"#utility.yul\":21462:21466   */\n      dup7\n        /* \"#utility.yul\":21455:21536   */\n      sstore\n        /* \"#utility.yul\":21324:21546   */\n      pop\n        /* \"#utility.yul\":20659:21546   */\n      jump(tag_488)\n        /* \"#utility.yul\":20689:21307   */\n    tag_489:\n        /* \"#utility.yul\":20741:20745   */\n      0x1f\n        /* \"#utility.yul\":20737:20746   */\n      not\n        /* \"#utility.yul\":20729:20735   */\n      dup5\n        /* \"#utility.yul\":20725:20747   */\n      and\n        /* \"#utility.yul\":20775:20812   */\n      tag_492\n        /* \"#utility.yul\":20807:20811   */\n      dup7\n        /* \"#utility.yul\":20775:20812   */\n      tag_244\n      jump\t// in\n    tag_492:\n        /* \"#utility.yul\":20834:20835   */\n      0x00\n        /* \"#utility.yul\":20848:21056   */\n    tag_493:\n        /* \"#utility.yul\":20862:20869   */\n      dup3\n        /* \"#utility.yul\":20859:20860   */\n      dup2\n        /* \"#utility.yul\":20856:20870   */\n      lt\n        /* \"#utility.yul\":20848:21056   */\n      iszero\n      tag_495\n      jumpi\n        /* \"#utility.yul\":20941:20950   */\n      dup5\n        /* \"#utility.yul\":20936:20939   */\n      dup10\n        /* \"#utility.yul\":20932:20951   */\n      add\n        /* \"#utility.yul\":20926:20952   */\n      mload\n        /* \"#utility.yul\":20918:20924   */\n      dup3\n        /* \"#utility.yul\":20911:20953   */\n      sstore\n        /* \"#utility.yul\":20992:20993   */\n      0x01\n        /* \"#utility.yul\":20984:20990   */\n      dup3\n        /* \"#utility.yul\":20980:20994   */\n      add\n        /* \"#utility.yul\":20970:20994   */\n      swap2\n      pop\n        /* \"#utility.yul\":21039:21041   */\n      0x20\n        /* \"#utility.yul\":21028:21037   */\n      dup6\n        /* \"#utility.yul\":21024:21042   */\n      add\n        /* \"#utility.yul\":21011:21042   */\n      swap5\n      pop\n        /* \"#utility.yul\":20885:20889   */\n      0x20\n        /* \"#utility.yul\":20882:20883   */\n      dup2\n        /* \"#utility.yul\":20878:20890   */\n      add\n        /* \"#utility.yul\":20873:20890   */\n      swap1\n      pop\n        /* \"#utility.yul\":20848:21056   */\n      jump(tag_493)\n    tag_495:\n        /* \"#utility.yul\":21084:21090   */\n      dup7\n        /* \"#utility.yul\":21075:21082   */\n      dup4\n        /* \"#utility.yul\":21072:21091   */\n      lt\n        /* \"#utility.yul\":21069:21248   */\n      iszero\n      tag_496\n      jumpi\n        /* \"#utility.yul\":21142:21151   */\n      dup5\n        /* \"#utility.yul\":21137:21140   */\n      dup10\n        /* \"#utility.yul\":21133:21152   */\n      add\n        /* \"#utility.yul\":21127:21153   */\n      mload\n        /* \"#utility.yul\":21185:21233   */\n      tag_497\n        /* \"#utility.yul\":21227:21231   */\n      0x1f\n        /* \"#utility.yul\":21219:21225   */\n      dup10\n        /* \"#utility.yul\":21215:21232   */\n      and\n        /* \"#utility.yul\":21204:21213   */\n      dup3\n        /* \"#utility.yul\":21185:21233   */\n      tag_257\n      jump\t// in\n    tag_497:\n        /* \"#utility.yul\":21177:21183   */\n      dup4\n        /* \"#utility.yul\":21170:21234   */\n      sstore\n        /* \"#utility.yul\":21092:21248   */\n      pop\n        /* \"#utility.yul\":21069:21248   */\n    tag_496:\n        /* \"#utility.yul\":21294:21295   */\n      0x01\n        /* \"#utility.yul\":21290:21291   */\n      0x02\n        /* \"#utility.yul\":21282:21288   */\n      dup9\n        /* \"#utility.yul\":21278:21292   */\n      mul\n        /* \"#utility.yul\":21274:21296   */\n      add\n        /* \"#utility.yul\":21268:21272   */\n      dup9\n        /* \"#utility.yul\":21261:21297   */\n      sstore\n        /* \"#utility.yul\":20696:21307   */\n      pop\n      pop\n      pop\n        /* \"#utility.yul\":20659:21546   */\n    tag_488:\n      pop\n        /* \"#utility.yul\":20249:21552   */\n      pop\n      pop\n      pop\n        /* \"#utility.yul\":20157:21552   */\n      pop\n      pop\n      jump\t// out\n\n    auxdata: 0xa264697066735822122018225c9f3b31de048b13ff053f81a7febfed6136c49dddb0fd55dabe362078a564736f6c63430008120033\n}\n",
				"bytecode": {
					"linkReferences": {},
					"object": "608060405234801561001057600080fd5b506116d9806100206000396000f3fe608060405234801561001057600080fd5b506004361061007d5760003560e01c80638f88708b1161005b5780638f88708b146100f55780639852bf8e1461012a5780639aa0ebad14610148578063f1b2841a146101645761007d565b806306ead22e1461008257806312b4e900146100b7578063230c65c7146100d9575b600080fd5b61009c60048036038101906100979190610b98565b610194565b6040516100ae96959493929190610d23565b60405180910390f35b6100bf610272565b6040516100d0959493929190610fe1565b60405180910390f35b6100f360048036038101906100ee91906111bc565b610737565b005b61010f600480360381019061010a9190610b98565b61083a565b60405161012196959493929190610d23565b60405180910390f35b610132610932565b60405161013f919061127a565b60405180910390f35b610162600480360381019061015d91906111bc565b610938565b005b61017e60048036038101906101799190611295565b610a53565b60405161018b919061127a565b60405180910390f35b60006020528060005260406000206000915090508060000180546101b7906112f1565b80601f01602080910402602001604051908101604052809291908181526020018280546101e3906112f1565b80156102305780601f1061020557610100808354040283529160200191610230565b820191906000526020600020905b81548152906001019060200180831161021357829003601f168201915b5050505050908060010154908060020154908060030160009054906101000a900460ff16908060030160019054906101000a900460ff16908060040154905086565b61027a610ae3565b610282610b0a565b61028a610b0a565b610292610b2c565b61029a610b0a565b6102a2610b0a565b6000600190505b600154811161072e5760008060008381526020019081526020016000209050600160038111156102dc576102db610c64565b5b8160030160009054906101000a900460ff166003811115610300576102ff610c64565b5b148015610342575060038081111561031b5761031a610c64565b5b8160030160019054906101000a900460ff16600381111561033f5761033e610c64565b5b14155b801561038457506001600381111561035d5761035c610c64565b5b8160030160019054906101000a900460ff16600381111561038157610380610c64565b5b14155b1561071a5760005b6003811015610718578381600381106103a8576103a7611322565b5b602002015182600401541115610705576000600290505b8181111561057f57846001826103d59190611380565b600381106103e6576103e5611322565b5b60200201518582600381106103fe576103fd611322565b5b602002018181525050896001826104159190611380565b6003811061042657610425611322565b5b60200201518a826003811061043e5761043d611322565b5b6020020181905250886001826104549190611380565b6003811061046557610464611322565b5b602002015189826003811061047d5761047c611322565b5b602002018181525050876001826104949190611380565b600381106104a5576104a4611322565b5b60200201518882600381106104bd576104bc611322565b5b602002018181525050866001826104d49190611380565b600381106104e5576104e4611322565b5b60200201518782600381106104fd576104fc611322565b5b6020020190600381111561051457610513610c64565b5b9081600381111561052857610527610c64565b5b815250508560018261053a9190611380565b6003811061054b5761054a611322565b5b602002015186826003811061056357610562611322565b5b6020020181815250508080610577906113b4565b9150506103bf565b50816004015484826003811061059857610597611322565b5b6020020181815250508160000180546105b0906112f1565b80601f01602080910402602001604051908101604052809291908181526020018280546105dc906112f1565b80156106295780601f106105fe57610100808354040283529160200191610629565b820191906000526020600020905b81548152906001019060200180831161060c57829003601f168201915b505050505089826003811061064157610640611322565b5b6020020181905250816001015488826003811061066157610660611322565b5b602002018181525050816002015487826003811061068257610681611322565b5b6020020181815250508160030160019054906101000a900460ff168682600381106106b0576106af611322565b5b602002019060038111156106c7576106c6610c64565b5b908160038111156106db576106da610c64565b5b8152505081600401548582600381106106f7576106f6611322565b5b602002018181525050610718565b8080610710906113dd565b91505061038c565b505b508080610726906113dd565b9150506102a9565b50509091929394565b6040518060c0016040528087815260200186815260200182815260200185600381111561076757610766610c64565b5b815260200184600381111561077f5761077e610c64565b5b81526020018381525060008089815260200190815260200160002060008201518160000190816107af91906115d1565b50602082015181600101556040820151816002015560608201518160030160006101000a81548160ff021916908360038111156107ef576107ee610c64565b5b021790555060808201518160030160016101000a81548160ff0219169083600381111561081f5761081e610c64565b5b021790555060a0820151816004015590505050505050505050565b6060600080600080600080600080898152602001908152602001600020905080600001816001015482600201548360030160009054906101000a900460ff168460030160019054906101000a900460ff16856004015485805461089c906112f1565b80601f01602080910402602001604051908101604052809291908181526020018280546108c8906112f1565b80156109155780601f106108ea57610100808354040283529160200191610915565b820191906000526020600020905b8154815290600101906020018083116108f857829003601f168201915b505050505095509650965096509650965096505091939550919395565b60015481565b6040518060c0016040528087815260200186815260200182815260200185600381111561096857610967610c64565b5b81526020018460038111156109805761097f610c64565b5b81526020018381525060008089815260200190815260200160002060008201518160000190816109b091906115d1565b50602082015181600101556040820151816002015560608201518160030160006101000a81548160ff021916908360038111156109f0576109ef610c64565b5b021790555060808201518160030160016101000a81548160ff02191690836003811115610a2057610a1f610c64565b5b021790555060a0820151816004015590505060016000815480929190610a45906113dd565b919050555050505050505050565b600080600090506000600190505b6001548111610ad957836003811115610a7d57610a7c610c64565b5b60008083815260200190815260200160002060030160009054906101000a900460ff166003811115610ab257610ab1610c64565b5b03610ac6578180610ac2906113dd565b9250505b8080610ad1906113dd565b915050610a61565b5080915050919050565b60405180606001604052806003905b6060815260200190600190039081610af25790505090565b6040518060600160405280600390602082028036833780820191505090505090565b6040518060600160405280600390602082028036833780820191505090505090565b6000604051905090565b600080fd5b600080fd5b6000819050919050565b610b7581610b62565b8114610b8057600080fd5b50565b600081359050610b9281610b6c565b92915050565b600060208284031215610bae57610bad610b58565b5b6000610bbc84828501610b83565b91505092915050565b600081519050919050565b600082825260208201905092915050565b60005b83811015610bff578082015181840152602081019050610be4565b60008484015250505050565b6000601f19601f8301169050919050565b6000610c2782610bc5565b610c318185610bd0565b9350610c41818560208601610be1565b610c4a81610c0b565b840191505092915050565b610c5e81610b62565b82525050565b7f4e487b7100000000000000000000000000000000000000000000000000000000600052602160045260246000fd5b60048110610ca457610ca3610c64565b5b50565b6000819050610cb582610c93565b919050565b6000610cc582610ca7565b9050919050565b610cd581610cba565b82525050565b60048110610cec57610ceb610c64565b5b50565b6000819050610cfd82610cdb565b919050565b6000610d0d82610cef565b9050919050565b610d1d81610d02565b82525050565b600060c0820190508181036000830152610d3d8189610c1c565b9050610d4c6020830188610c55565b610d596040830187610c55565b610d666060830186610ccc565b610d736080830185610d14565b610d8060a0830184610c55565b979650505050505050565b600060039050919050565b600081905092915050565b6000819050919050565b600082825260208201905092915050565b6000610dc782610bc5565b610dd18185610dab565b9350610de1818560208601610be1565b610dea81610c0b565b840191505092915050565b6000610e018383610dbc565b905092915050565b6000602082019050919050565b6000610e2182610d8b565b610e2b8185610d96565b935083602082028501610e3d85610da1565b8060005b85811015610e795784840389528151610e5a8582610df5565b9450610e6583610e09565b925060208a01995050600181019050610e41565b50829750879550505050505092915050565b600060039050919050565b600081905092915050565b6000819050919050565b610eb481610b62565b82525050565b6000610ec68383610eab565b60208301905092915050565b6000602082019050919050565b610ee881610e8b565b610ef28184610e96565b9250610efd82610ea1565b8060005b83811015610f2e578151610f158782610eba565b9650610f2083610ed2565b925050600181019050610f01565b505050505050565b600060039050919050565b600081905092915050565b6000819050919050565b610f5f81610d02565b82525050565b6000610f718383610f56565b60208301905092915050565b6000602082019050919050565b610f9381610f36565b610f9d8184610f41565b9250610fa882610f4c565b8060005b83811015610fd9578151610fc08782610f65565b9650610fcb83610f7d565b925050600181019050610fac565b505050505050565b60006101a0820190508181036000830152610ffc8188610e16565b905061100b6020830187610edf565b6110186080830186610edf565b61102560e0830185610f8a565b611033610140830184610edf565b9695505050505050565b600080fd5b600080fd5b7f4e487b7100000000000000000000000000000000000000000000000000000000600052604160045260246000fd5b61107f82610c0b565b810181811067ffffffffffffffff8211171561109e5761109d611047565b5b80604052505050565b60006110b1610b4e565b90506110bd8282611076565b919050565b600067ffffffffffffffff8211156110dd576110dc611047565b5b6110e682610c0b565b9050602081019050919050565b82818337600083830152505050565b6000611115611110846110c2565b6110a7565b90508281526020810184848401111561113157611130611042565b5b61113c8482856110f3565b509392505050565b600082601f8301126111595761115861103d565b5b8135611169848260208601611102565b91505092915050565b6004811061117f57600080fd5b50565b60008135905061119181611172565b92915050565b600481106111a457600080fd5b50565b6000813590506111b681611197565b92915050565b600080600080600080600060e0888a0312156111db576111da610b58565b5b60006111e98a828b01610b83565b975050602088013567ffffffffffffffff81111561120a57611209610b5d565b5b6112168a828b01611144565b96505060406112278a828b01610b83565b95505060606112388a828b01611182565b94505060806112498a828b016111a7565b93505060a061125a8a828b01610b83565b92505060c061126b8a828b01610b83565b91505092959891949750929550565b600060208201905061128f6000830184610c55565b92915050565b6000602082840312156112ab576112aa610b58565b5b60006112b984828501611182565b91505092915050565b7f4e487b7100000000000000000000000000000000000000000000000000000000600052602260045260246000fd5b6000600282049050600182168061130957607f821691505b60208210810361131c5761131b6112c2565b5b50919050565b7f4e487b7100000000000000000000000000000000000000000000000000000000600052603260045260246000fd5b7f4e487b7100000000000000000000000000000000000000000000000000000000600052601160045260246000fd5b600061138b82610b62565b915061139683610b62565b92508282039050818111156113ae576113ad611351565b5b92915050565b60006113bf82610b62565b9150600082036113d2576113d1611351565b5b600182039050919050565b60006113e882610b62565b91507fffffffffffffffffffffffffffffffffffffffffffffffffffffffffffffffff820361141a57611419611351565b5b600182019050919050565b60008190508160005260206000209050919050565b60006020601f8301049050919050565b600082821b905092915050565b6000600883026114877fffffffffffffffffffffffffffffffffffffffffffffffffffffffffffffffff8261144a565b611491868361144a565b95508019841693508086168417925050509392505050565b6000819050919050565b60006114ce6114c96114c484610b62565b6114a9565b610b62565b9050919050565b6000819050919050565b6114e8836114b3565b6114fc6114f4826114d5565b848454611457565b825550505050565b600090565b611511611504565b61151c8184846114df565b505050565b5b8181101561154057611535600082611509565b600181019050611522565b5050565b601f8211156115855761155681611425565b61155f8461143a565b8101602085101561156e578190505b61158261157a8561143a565b830182611521565b50505b505050565b600082821c905092915050565b60006115a86000198460080261158a565b1980831691505092915050565b60006115c18383611597565b9150826002028217905092915050565b6115da82610bc5565b67ffffffffffffffff8111156115f3576115f2611047565b5b6115fd82546112f1565b611608828285611544565b600060209050601f83116001811461163b5760008415611629578287015190505b61163385826115b5565b86555061169b565b601f19841661164986611425565b60005b828110156116715784890151825560018201915060208501945060208101905061164c565b8683101561168e578489015161168a601f891682611597565b8355505b6001600288020188555050505b50505050505056fea264697066735822122018225c9f3b31de048b13ff053f81a7febfed6136c49dddb0fd55dabe362078a564736f6c63430008120033",
					"opcodes": "PUSH1 0x80 PUSH1 0x40 MSTORE CALLVALUE DUP1 ISZERO PUSH2 0x10 JUMPI PUSH1 0x0 DUP1 REVERT JUMPDEST POP PUSH2 0x16D9 DUP1 PUSH2 0x20 PUSH1 0x0 CODECOPY PUSH1 0x0 RETURN INVALID PUSH1 0x80 PUSH1 0x40 MSTORE CALLVALUE DUP1 ISZERO PUSH2 0x10 JUMPI PUSH1 0x0 DUP1 REVERT JUMPDEST POP PUSH1 0x4 CALLDATASIZE LT PUSH2 0x7D JUMPI PUSH1 0x0 CALLDATALOAD PUSH1 0xE0 SHR DUP1 PUSH4 0x8F88708B GT PUSH2 0x5B JUMPI DUP1 PUSH4 0x8F88708B EQ PUSH2 0xF5 JUMPI DUP1 PUSH4 0x9852BF8E EQ PUSH2 0x12A JUMPI DUP1 PUSH4 0x9AA0EBAD EQ PUSH2 0x148 JUMPI DUP1 PUSH4 0xF1B2841A EQ PUSH2 0x164 JUMPI PUSH2 0x7D JUMP JUMPDEST DUP1 PUSH4 0x6EAD22E EQ PUSH2 0x82 JUMPI DUP1 PUSH4 0x12B4E900 EQ PUSH2 0xB7 JUMPI DUP1 PUSH4 0x230C65C7 EQ PUSH2 0xD9 JUMPI JUMPDEST PUSH1 0x0 DUP1 REVERT JUMPDEST PUSH2 0x9C PUSH1 0x4 DUP1 CALLDATASIZE SUB DUP2 ADD SWAP1 PUSH2 0x97 SWAP2 SWAP1 PUSH2 0xB98 JUMP JUMPDEST PUSH2 0x194 JUMP JUMPDEST PUSH1 0x40 MLOAD PUSH2 0xAE SWAP7 SWAP6 SWAP5 SWAP4 SWAP3 SWAP2 SWAP1 PUSH2 0xD23 JUMP JUMPDEST PUSH1 0x40 MLOAD DUP1 SWAP2 SUB SWAP1 RETURN JUMPDEST PUSH2 0xBF PUSH2 0x272 JUMP JUMPDEST PUSH1 0x40 MLOAD PUSH2 0xD0 SWAP6 SWAP5 SWAP4 SWAP3 SWAP2 SWAP1 PUSH2 0xFE1 JUMP JUMPDEST PUSH1 0x40 MLOAD DUP1 SWAP2 SUB SWAP1 RETURN JUMPDEST PUSH2 0xF3 PUSH1 0x4 DUP1 CALLDATASIZE SUB DUP2 ADD SWAP1 PUSH2 0xEE SWAP2 SWAP1 PUSH2 0x11BC JUMP JUMPDEST PUSH2 0x737 JUMP JUMPDEST STOP JUMPDEST PUSH2 0x10F PUSH1 0x4 DUP1 CALLDATASIZE SUB DUP2 ADD SWAP1 PUSH2 0x10A SWAP2 SWAP1 PUSH2 0xB98 JUMP JUMPDEST PUSH2 0x83A JUMP JUMPDEST PUSH1 0x40 MLOAD PUSH2 0x121 SWAP7 SWAP6 SWAP5 SWAP4 SWAP3 SWAP2 SWAP1 PUSH2 0xD23 JUMP JUMPDEST PUSH1 0x40 MLOAD DUP1 SWAP2 SUB SWAP1 RETURN JUMPDEST PUSH2 0x132 PUSH2 0x932 JUMP JUMPDEST PUSH1 0x40 MLOAD PUSH2 0x13F SWAP2 SWAP1 PUSH2 0x127A JUMP JUMPDEST PUSH1 0x40 MLOAD DUP1 SWAP2 SUB SWAP1 RETURN JUMPDEST PUSH2 0x162 PUSH1 0x4 DUP1 CALLDATASIZE SUB DUP2 ADD SWAP1 PUSH2 0x15D SWAP2 SWAP1 PUSH2 0x11BC JUMP JUMPDEST PUSH2 0x938 JUMP JUMPDEST STOP JUMPDEST PUSH2 0x17E PUSH1 0x4 DUP1 CALLDATASIZE SUB DUP2 ADD SWAP1 PUSH2 0x179 SWAP2 SWAP1 PUSH2 0x1295 JUMP JUMPDEST PUSH2 0xA53 JUMP JUMPDEST PUSH1 0x40 MLOAD PUSH2 0x18B SWAP2 SWAP1 PUSH2 0x127A JUMP JUMPDEST PUSH1 0x40 MLOAD DUP1 SWAP2 SUB SWAP1 RETURN JUMPDEST PUSH1 0x0 PUSH1 0x20 MSTORE DUP1 PUSH1 0x0 MSTORE PUSH1 0x40 PUSH1 0x0 KECCAK256 PUSH1 0x0 SWAP2 POP SWAP1 POP DUP1 PUSH1 0x0 ADD DUP1 SLOAD PUSH2 0x1B7 SWAP1 PUSH2 0x12F1 JUMP JUMPDEST DUP1 PUSH1 0x1F ADD PUSH1 0x20 DUP1 SWAP2 DIV MUL PUSH1 0x20 ADD PUSH1 0x40 MLOAD SWAP1 DUP2 ADD PUSH1 0x40 MSTORE DUP1 SWAP3 SWAP2 SWAP1 DUP2 DUP2 MSTORE PUSH1 0x20 ADD DUP3 DUP1 SLOAD PUSH2 0x1E3 SWAP1 PUSH2 0x12F1 JUMP JUMPDEST DUP1 ISZERO PUSH2 0x230 JUMPI DUP1 PUSH1 0x1F LT PUSH2 0x205 JUMPI PUSH2 0x100 DUP1 DUP4 SLOAD DIV MUL DUP4 MSTORE SWAP2 PUSH1 0x20 ADD SWAP2 PUSH2 0x230 JUMP JUMPDEST DUP3 ADD SWAP2 SWAP1 PUSH1 0x0 MSTORE PUSH1 0x20 PUSH1 0x0 KECCAK256 SWAP1 JUMPDEST DUP2 SLOAD DUP2 MSTORE SWAP1 PUSH1 0x1 ADD SWAP1 PUSH1 0x20 ADD DUP1 DUP4 GT PUSH2 0x213 JUMPI DUP3 SWAP1 SUB PUSH1 0x1F AND DUP3 ADD SWAP2 JUMPDEST POP POP POP POP POP SWAP1 DUP1 PUSH1 0x1 ADD SLOAD SWAP1 DUP1 PUSH1 0x2 ADD SLOAD SWAP1 DUP1 PUSH1 0x3 ADD PUSH1 0x0 SWAP1 SLOAD SWAP1 PUSH2 0x100 EXP SWAP1 DIV PUSH1 0xFF AND SWAP1 DUP1 PUSH1 0x3 ADD PUSH1 0x1 SWAP1 SLOAD SWAP1 PUSH2 0x100 EXP SWAP1 DIV PUSH1 0xFF AND SWAP1 DUP1 PUSH1 0x4 ADD SLOAD SWAP1 POP DUP7 JUMP JUMPDEST PUSH2 0x27A PUSH2 0xAE3 JUMP JUMPDEST PUSH2 0x282 PUSH2 0xB0A JUMP JUMPDEST PUSH2 0x28A PUSH2 0xB0A JUMP JUMPDEST PUSH2 0x292 PUSH2 0xB2C JUMP JUMPDEST PUSH2 0x29A PUSH2 0xB0A JUMP JUMPDEST PUSH2 0x2A2 PUSH2 0xB0A JUMP JUMPDEST PUSH1 0x0 PUSH1 0x1 SWAP1 POP JUMPDEST PUSH1 0x1 SLOAD DUP2 GT PUSH2 0x72E JUMPI PUSH1 0x0 DUP1 PUSH1 0x0 DUP4 DUP2 MSTORE PUSH1 0x20 ADD SWAP1 DUP2 MSTORE PUSH1 0x20 ADD PUSH1 0x0 KECCAK256 SWAP1 POP PUSH1 0x1 PUSH1 0x3 DUP2 GT ISZERO PUSH2 0x2DC JUMPI PUSH2 0x2DB PUSH2 0xC64 JUMP JUMPDEST JUMPDEST DUP2 PUSH1 0x3 ADD PUSH1 0x0 SWAP1 SLOAD SWAP1 PUSH2 0x100 EXP SWAP1 DIV PUSH1 0xFF AND PUSH1 0x3 DUP2 GT ISZERO PUSH2 0x300 JUMPI PUSH2 0x2FF PUSH2 0xC64 JUMP JUMPDEST JUMPDEST EQ DUP1 ISZERO PUSH2 0x342 JUMPI POP PUSH1 0x3 DUP1 DUP2 GT ISZERO PUSH2 0x31B JUMPI PUSH2 0x31A PUSH2 0xC64 JUMP JUMPDEST JUMPDEST DUP2 PUSH1 0x3 ADD PUSH1 0x1 SWAP1 SLOAD SWAP1 PUSH2 0x100 EXP SWAP1 DIV PUSH1 0xFF AND PUSH1 0x3 DUP2 GT ISZERO PUSH2 0x33F JUMPI PUSH2 0x33E PUSH2 0xC64 JUMP JUMPDEST JUMPDEST EQ ISZERO JUMPDEST DUP1 ISZERO PUSH2 0x384 JUMPI POP PUSH1 0x1 PUSH1 0x3 DUP2 GT ISZERO PUSH2 0x35D JUMPI PUSH2 0x35C PUSH2 0xC64 JUMP JUMPDEST JUMPDEST DUP2 PUSH1 0x3 ADD PUSH1 0x1 SWAP1 SLOAD SWAP1 PUSH2 0x100 EXP SWAP1 DIV PUSH1 0xFF AND PUSH1 0x3 DUP2 GT ISZERO PUSH2 0x381 JUMPI PUSH2 0x380 PUSH2 0xC64 JUMP JUMPDEST JUMPDEST EQ ISZERO JUMPDEST ISZERO PUSH2 0x71A JUMPI PUSH1 0x0 JUMPDEST PUSH1 0x3 DUP2 LT ISZERO PUSH2 0x718 JUMPI DUP4 DUP2 PUSH1 0x3 DUP2 LT PUSH2 0x3A8 JUMPI PUSH2 0x3A7 PUSH2 0x1322 JUMP JUMPDEST JUMPDEST PUSH1 0x20 MUL ADD MLOAD DUP3 PUSH1 0x4 ADD SLOAD GT ISZERO PUSH2 0x705 JUMPI PUSH1 0x0 PUSH1 0x2 SWAP1 POP JUMPDEST DUP2 DUP2 GT ISZERO PUSH2 0x57F JUMPI DUP5 PUSH1 0x1 DUP3 PUSH2 0x3D5 SWAP2 SWAP1 PUSH2 0x1380 JUMP JUMPDEST PUSH1 0x3 DUP2 LT PUSH2 0x3E6 JUMPI PUSH2 0x3E5 PUSH2 0x1322 JUMP JUMPDEST JUMPDEST PUSH1 0x20 MUL ADD MLOAD DUP6 DUP3 PUSH1 0x3 DUP2 LT PUSH2 0x3FE JUMPI PUSH2 0x3FD PUSH2 0x1322 JUMP JUMPDEST JUMPDEST PUSH1 0x20 MUL ADD DUP2 DUP2 MSTORE POP POP DUP10 PUSH1 0x1 DUP3 PUSH2 0x415 SWAP2 SWAP1 PUSH2 0x1380 JUMP JUMPDEST PUSH1 0x3 DUP2 LT PUSH2 0x426 JUMPI PUSH2 0x425 PUSH2 0x1322 JUMP JUMPDEST JUMPDEST PUSH1 0x20 MUL ADD MLOAD DUP11 DUP3 PUSH1 0x3 DUP2 LT PUSH2 0x43E JUMPI PUSH2 0x43D PUSH2 0x1322 JUMP JUMPDEST JUMPDEST PUSH1 0x20 MUL ADD DUP2 SWAP1 MSTORE POP DUP9 PUSH1 0x1 DUP3 PUSH2 0x454 SWAP2 SWAP1 PUSH2 0x1380 JUMP JUMPDEST PUSH1 0x3 DUP2 LT PUSH2 0x465 JUMPI PUSH2 0x464 PUSH2 0x1322 JUMP JUMPDEST JUMPDEST PUSH1 0x20 MUL ADD MLOAD DUP10 DUP3 PUSH1 0x3 DUP2 LT PUSH2 0x47D JUMPI PUSH2 0x47C PUSH2 0x1322 JUMP JUMPDEST JUMPDEST PUSH1 0x20 MUL ADD DUP2 DUP2 MSTORE POP POP DUP8 PUSH1 0x1 DUP3 PUSH2 0x494 SWAP2 SWAP1 PUSH2 0x1380 JUMP JUMPDEST PUSH1 0x3 DUP2 LT PUSH2 0x4A5 JUMPI PUSH2 0x4A4 PUSH2 0x1322 JUMP JUMPDEST JUMPDEST PUSH1 0x20 MUL ADD MLOAD DUP9 DUP3 PUSH1 0x3 DUP2 LT PUSH2 0x4BD JUMPI PUSH2 0x4BC PUSH2 0x1322 JUMP JUMPDEST JUMPDEST PUSH1 0x20 MUL ADD DUP2 DUP2 MSTORE POP POP DUP7 PUSH1 0x1 DUP3 PUSH2 0x4D4 SWAP2 SWAP1 PUSH2 0x1380 JUMP JUMPDEST PUSH1 0x3 DUP2 LT PUSH2 0x4E5 JUMPI PUSH2 0x4E4 PUSH2 0x1322 JUMP JUMPDEST JUMPDEST PUSH1 0x20 MUL ADD MLOAD DUP8 DUP3 PUSH1 0x3 DUP2 LT PUSH2 0x4FD JUMPI PUSH2 0x4FC PUSH2 0x1322 JUMP JUMPDEST JUMPDEST PUSH1 0x20 MUL ADD SWAP1 PUSH1 0x3 DUP2 GT ISZERO PUSH2 0x514 JUMPI PUSH2 0x513 PUSH2 0xC64 JUMP JUMPDEST JUMPDEST SWAP1 DUP2 PUSH1 0x3 DUP2 GT ISZERO PUSH2 0x528 JUMPI PUSH2 0x527 PUSH2 0xC64 JUMP JUMPDEST JUMPDEST DUP2 MSTORE POP POP DUP6 PUSH1 0x1 DUP3 PUSH2 0x53A SWAP2 SWAP1 PUSH2 0x1380 JUMP JUMPDEST PUSH1 0x3 DUP2 LT PUSH2 0x54B JUMPI PUSH2 0x54A PUSH2 0x1322 JUMP JUMPDEST JUMPDEST PUSH1 0x20 MUL ADD MLOAD DUP7 DUP3 PUSH1 0x3 DUP2 LT PUSH2 0x563 JUMPI PUSH2 0x562 PUSH2 0x1322 JUMP JUMPDEST JUMPDEST PUSH1 0x20 MUL ADD DUP2 DUP2 MSTORE POP POP DUP1 DUP1 PUSH2 0x577 SWAP1 PUSH2 0x13B4 JUMP JUMPDEST SWAP2 POP POP PUSH2 0x3BF JUMP JUMPDEST POP DUP2 PUSH1 0x4 ADD SLOAD DUP5 DUP3 PUSH1 0x3 DUP2 LT PUSH2 0x598 JUMPI PUSH2 0x597 PUSH2 0x1322 JUMP JUMPDEST JUMPDEST PUSH1 0x20 MUL ADD DUP2 DUP2 MSTORE POP POP DUP2 PUSH1 0x0 ADD DUP1 SLOAD PUSH2 0x5B0 SWAP1 PUSH2 0x12F1 JUMP JUMPDEST DUP1 PUSH1 0x1F ADD PUSH1 0x20 DUP1 SWAP2 DIV MUL PUSH1 0x20 ADD PUSH1 0x40 MLOAD SWAP1 DUP2 ADD PUSH1 0x40 MSTORE DUP1 SWAP3 SWAP2 SWAP1 DUP2 DUP2 MSTORE PUSH1 0x20 ADD DUP3 DUP1 SLOAD PUSH2 0x5DC SWAP1 PUSH2 0x12F1 JUMP JUMPDEST DUP1 ISZERO PUSH2 0x629 JUMPI DUP1 PUSH1 0x1F LT PUSH2 0x5FE JUMPI PUSH2 0x100 DUP1 DUP4 SLOAD DIV MUL DUP4 MSTORE SWAP2 PUSH1 0x20 ADD SWAP2 PUSH2 0x629 JUMP JUMPDEST DUP3 ADD SWAP2 SWAP1 PUSH1 0x0 MSTORE PUSH1 0x20 PUSH1 0x0 KECCAK256 SWAP1 JUMPDEST DUP2 SLOAD DUP2 MSTORE SWAP1 PUSH1 0x1 ADD SWAP1 PUSH1 0x20 ADD DUP1 DUP4 GT PUSH2 0x60C JUMPI DUP3 SWAP1 SUB PUSH1 0x1F AND DUP3 ADD SWAP2 JUMPDEST POP POP POP POP POP DUP10 DUP3 PUSH1 0x3 DUP2 LT PUSH2 0x641 JUMPI PUSH2 0x640 PUSH2 0x1322 JUMP JUMPDEST JUMPDEST PUSH1 0x20 MUL ADD DUP2 SWAP1 MSTORE POP DUP2 PUSH1 0x1 ADD SLOAD DUP9 DUP3 PUSH1 0x3 DUP2 LT PUSH2 0x661 JUMPI PUSH2 0x660 PUSH2 0x1322 JUMP JUMPDEST JUMPDEST PUSH1 0x20 MUL ADD DUP2 DUP2 MSTORE POP POP DUP2 PUSH1 0x2 ADD SLOAD DUP8 DUP3 PUSH1 0x3 DUP2 LT PUSH2 0x682 JUMPI PUSH2 0x681 PUSH2 0x1322 JUMP JUMPDEST JUMPDEST PUSH1 0x20 MUL ADD DUP2 DUP2 MSTORE POP POP DUP2 PUSH1 0x3 ADD PUSH1 0x1 SWAP1 SLOAD SWAP1 PUSH2 0x100 EXP SWAP1 DIV PUSH1 0xFF AND DUP7 DUP3 PUSH1 0x3 DUP2 LT PUSH2 0x6B0 JUMPI PUSH2 0x6AF PUSH2 0x1322 JUMP JUMPDEST JUMPDEST PUSH1 0x20 MUL ADD SWAP1 PUSH1 0x3 DUP2 GT ISZERO PUSH2 0x6C7 JUMPI PUSH2 0x6C6 PUSH2 0xC64 JUMP JUMPDEST JUMPDEST SWAP1 DUP2 PUSH1 0x3 DUP2 GT ISZERO PUSH2 0x6DB JUMPI PUSH2 0x6DA PUSH2 0xC64 JUMP JUMPDEST JUMPDEST DUP2 MSTORE POP POP DUP2 PUSH1 0x4 ADD SLOAD DUP6 DUP3 PUSH1 0x3 DUP2 LT PUSH2 0x6F7 JUMPI PUSH2 0x6F6 PUSH2 0x1322 JUMP JUMPDEST JUMPDEST PUSH1 0x20 MUL ADD DUP2 DUP2 MSTORE POP POP PUSH2 0x718 JUMP JUMPDEST DUP1 DUP1 PUSH2 0x710 SWAP1 PUSH2 0x13DD JUMP JUMPDEST SWAP2 POP POP PUSH2 0x38C JUMP JUMPDEST POP JUMPDEST POP DUP1 DUP1 PUSH2 0x726 SWAP1 PUSH2 0x13DD JUMP JUMPDEST SWAP2 POP POP PUSH2 0x2A9 JUMP JUMPDEST POP POP SWAP1 SWAP2 SWAP3 SWAP4 SWAP5 JUMP JUMPDEST PUSH1 0x40 MLOAD DUP1 PUSH1 0xC0 ADD PUSH1 0x40 MSTORE DUP1 DUP8 DUP2 MSTORE PUSH1 0x20 ADD DUP7 DUP2 MSTORE PUSH1 0x20 ADD DUP3 DUP2 MSTORE PUSH1 0x20 ADD DUP6 PUSH1 0x3 DUP2 GT ISZERO PUSH2 0x767 JUMPI PUSH2 0x766 PUSH2 0xC64 JUMP JUMPDEST JUMPDEST DUP2 MSTORE PUSH1 0x20 ADD DUP5 PUSH1 0x3 DUP2 GT ISZERO PUSH2 0x77F JUMPI PUSH2 0x77E PUSH2 0xC64 JUMP JUMPDEST JUMPDEST DUP2 MSTORE PUSH1 0x20 ADD DUP4 DUP2 MSTORE POP PUSH1 0x0 DUP1 DUP10 DUP2 MSTORE PUSH1 0x20 ADD SWAP1 DUP2 MSTORE PUSH1 0x20 ADD PUSH1 0x0 KECCAK256 PUSH1 0x0 DUP3 ADD MLOAD DUP2 PUSH1 0x0 ADD SWAP1 DUP2 PUSH2 0x7AF SWAP2 SWAP1 PUSH2 0x15D1 JUMP JUMPDEST POP PUSH1 0x20 DUP3 ADD MLOAD DUP2 PUSH1 0x1 ADD SSTORE PUSH1 0x40 DUP3 ADD MLOAD DUP2 PUSH1 0x2 ADD SSTORE PUSH1 0x60 DUP3 ADD MLOAD DUP2 PUSH1 0x3 ADD PUSH1 0x0 PUSH2 0x100 EXP DUP2 SLOAD DUP2 PUSH1 0xFF MUL NOT AND SWAP1 DUP4 PUSH1 0x3 DUP2 GT ISZERO PUSH2 0x7EF JUMPI PUSH2 0x7EE PUSH2 0xC64 JUMP JUMPDEST JUMPDEST MUL OR SWAP1 SSTORE POP PUSH1 0x80 DUP3 ADD MLOAD DUP2 PUSH1 0x3 ADD PUSH1 0x1 PUSH2 0x100 EXP DUP2 SLOAD DUP2 PUSH1 0xFF MUL NOT AND SWAP1 DUP4 PUSH1 0x3 DUP2 GT ISZERO PUSH2 0x81F JUMPI PUSH2 0x81E PUSH2 0xC64 JUMP JUMPDEST JUMPDEST MUL OR SWAP1 SSTORE POP PUSH1 0xA0 DUP3 ADD MLOAD DUP2 PUSH1 0x4 ADD SSTORE SWAP1 POP POP POP POP POP POP POP POP POP JUMP JUMPDEST PUSH1 0x60 PUSH1 0x0 DUP1 PUSH1 0x0 DUP1 PUSH1 0x0 DUP1 PUSH1 0x0 DUP1 DUP10 DUP2 MSTORE PUSH1 0x20 ADD SWAP1 DUP2 MSTORE PUSH1 0x20 ADD PUSH1 0x0 KECCAK256 SWAP1 POP DUP1 PUSH1 0x0 ADD DUP2 PUSH1 0x1 ADD SLOAD DUP3 PUSH1 0x2 ADD SLOAD DUP4 PUSH1 0x3 ADD PUSH1 0x0 SWAP1 SLOAD SWAP1 PUSH2 0x100 EXP SWAP1 DIV PUSH1 0xFF AND DUP5 PUSH1 0x3 ADD PUSH1 0x1 SWAP1 SLOAD SWAP1 PUSH2 0x100 EXP SWAP1 DIV PUSH1 0xFF AND DUP6 PUSH1 0x4 ADD SLOAD DUP6 DUP1 SLOAD PUSH2 0x89C SWAP1 PUSH2 0x12F1 JUMP JUMPDEST DUP1 PUSH1 0x1F ADD PUSH1 0x20 DUP1 SWAP2 DIV MUL PUSH1 0x20 ADD PUSH1 0x40 MLOAD SWAP1 DUP2 ADD PUSH1 0x40 MSTORE DUP1 SWAP3 SWAP2 SWAP1 DUP2 DUP2 MSTORE PUSH1 0x20 ADD DUP3 DUP1 SLOAD PUSH2 0x8C8 SWAP1 PUSH2 0x12F1 JUMP JUMPDEST DUP1 ISZERO PUSH2 0x915 JUMPI DUP1 PUSH1 0x1F LT PUSH2 0x8EA JUMPI PUSH2 0x100 DUP1 DUP4 SLOAD DIV MUL DUP4 MSTORE SWAP2 PUSH1 0x20 ADD SWAP2 PUSH2 0x915 JUMP JUMPDEST DUP3 ADD SWAP2 SWAP1 PUSH1 0x0 MSTORE PUSH1 0x20 PUSH1 0x0 KECCAK256 SWAP1 JUMPDEST DUP2 SLOAD DUP2 MSTORE SWAP1 PUSH1 0x1 ADD SWAP1 PUSH1 0x20 ADD DUP1 DUP4 GT PUSH2 0x8F8 JUMPI DUP3 SWAP1 SUB PUSH1 0x1F AND DUP3 ADD SWAP2 JUMPDEST POP POP POP POP POP SWAP6 POP SWAP7 POP SWAP7 POP SWAP7 POP SWAP7 POP SWAP7 POP SWAP7 POP POP SWAP2 SWAP4 SWAP6 POP SWAP2 SWAP4 SWAP6 JUMP JUMPDEST PUSH1 0x1 SLOAD DUP2 JUMP JUMPDEST PUSH1 0x40 MLOAD DUP1 PUSH1 0xC0 ADD PUSH1 0x40 MSTORE DUP1 DUP8 DUP2 MSTORE PUSH1 0x20 ADD DUP7 DUP2 MSTORE PUSH1 0x20 ADD DUP3 DUP2 MSTORE PUSH1 0x20 ADD DUP6 PUSH1 0x3 DUP2 GT ISZERO PUSH2 0x968 JUMPI PUSH2 0x967 PUSH2 0xC64 JUMP JUMPDEST JUMPDEST DUP2 MSTORE PUSH1 0x20 ADD DUP5 PUSH1 0x3 DUP2 GT ISZERO PUSH2 0x980 JUMPI PUSH2 0x97F PUSH2 0xC64 JUMP JUMPDEST JUMPDEST DUP2 MSTORE PUSH1 0x20 ADD DUP4 DUP2 MSTORE POP PUSH1 0x0 DUP1 DUP10 DUP2 MSTORE PUSH1 0x20 ADD SWAP1 DUP2 MSTORE PUSH1 0x20 ADD PUSH1 0x0 KECCAK256 PUSH1 0x0 DUP3 ADD MLOAD DUP2 PUSH1 0x0 ADD SWAP1 DUP2 PUSH2 0x9B0 SWAP2 SWAP1 PUSH2 0x15D1 JUMP JUMPDEST POP PUSH1 0x20 DUP3 ADD MLOAD DUP2 PUSH1 0x1 ADD SSTORE PUSH1 0x40 DUP3 ADD MLOAD DUP2 PUSH1 0x2 ADD SSTORE PUSH1 0x60 DUP3 ADD MLOAD DUP2 PUSH1 0x3 ADD PUSH1 0x0 PUSH2 0x100 EXP DUP2 SLOAD DUP2 PUSH1 0xFF MUL NOT AND SWAP1 DUP4 PUSH1 0x3 DUP2 GT ISZERO PUSH2 0x9F0 JUMPI PUSH2 0x9EF PUSH2 0xC64 JUMP JUMPDEST JUMPDEST MUL OR SWAP1 SSTORE POP PUSH1 0x80 DUP3 ADD MLOAD DUP2 PUSH1 0x3 ADD PUSH1 0x1 PUSH2 0x100 EXP DUP2 SLOAD DUP2 PUSH1 0xFF MUL NOT AND SWAP1 DUP4 PUSH1 0x3 DUP2 GT ISZERO PUSH2 0xA20 JUMPI PUSH2 0xA1F PUSH2 0xC64 JUMP JUMPDEST JUMPDEST MUL OR SWAP1 SSTORE POP PUSH1 0xA0 DUP3 ADD MLOAD DUP2 PUSH1 0x4 ADD SSTORE SWAP1 POP POP PUSH1 0x1 PUSH1 0x0 DUP2 SLOAD DUP1 SWAP3 SWAP2 SWAP1 PUSH2 0xA45 SWAP1 PUSH2 0x13DD JUMP JUMPDEST SWAP2 SWAP1 POP SSTORE POP POP POP POP POP POP POP POP JUMP JUMPDEST PUSH1 0x0 DUP1 PUSH1 0x0 SWAP1 POP PUSH1 0x0 PUSH1 0x1 SWAP1 POP JUMPDEST PUSH1 0x1 SLOAD DUP2 GT PUSH2 0xAD9 JUMPI DUP4 PUSH1 0x3 DUP2 GT ISZERO PUSH2 0xA7D JUMPI PUSH2 0xA7C PUSH2 0xC64 JUMP JUMPDEST JUMPDEST PUSH1 0x0 DUP1 DUP4 DUP2 MSTORE PUSH1 0x20 ADD SWAP1 DUP2 MSTORE PUSH1 0x20 ADD PUSH1 0x0 KECCAK256 PUSH1 0x3 ADD PUSH1 0x0 SWAP1 SLOAD SWAP1 PUSH2 0x100 EXP SWAP1 DIV PUSH1 0xFF AND PUSH1 0x3 DUP2 GT ISZERO PUSH2 0xAB2 JUMPI PUSH2 0xAB1 PUSH2 0xC64 JUMP JUMPDEST JUMPDEST SUB PUSH2 0xAC6 JUMPI DUP2 DUP1 PUSH2 0xAC2 SWAP1 PUSH2 0x13DD JUMP JUMPDEST SWAP3 POP POP JUMPDEST DUP1 DUP1 PUSH2 0xAD1 SWAP1 PUSH2 0x13DD JUMP JUMPDEST SWAP2 POP POP PUSH2 0xA61 JUMP JUMPDEST POP DUP1 SWAP2 POP POP SWAP2 SWAP1 POP JUMP JUMPDEST PUSH1 0x40 MLOAD DUP1 PUSH1 0x60 ADD PUSH1 0x40 MSTORE DUP1 PUSH1 0x3 SWAP1 JUMPDEST PUSH1 0x60 DUP2 MSTORE PUSH1 0x20 ADD SWAP1 PUSH1 0x1 SWAP1 SUB SWAP1 DUP2 PUSH2 0xAF2 JUMPI SWAP1 POP POP SWAP1 JUMP JUMPDEST PUSH1 0x40 MLOAD DUP1 PUSH1 0x60 ADD PUSH1 0x40 MSTORE DUP1 PUSH1 0x3 SWAP1 PUSH1 0x20 DUP3 MUL DUP1 CALLDATASIZE DUP4 CALLDATACOPY DUP1 DUP3 ADD SWAP2 POP POP SWAP1 POP POP SWAP1 JUMP JUMPDEST PUSH1 0x40 MLOAD DUP1 PUSH1 0x60 ADD PUSH1 0x40 MSTORE DUP1 PUSH1 0x3 SWAP1 PUSH1 0x20 DUP3 MUL DUP1 CALLDATASIZE DUP4 CALLDATACOPY DUP1 DUP3 ADD SWAP2 POP POP SWAP1 POP POP SWAP1 JUMP JUMPDEST PUSH1 0x0 PUSH1 0x40 MLOAD SWAP1 POP SWAP1 JUMP JUMPDEST PUSH1 0x0 DUP1 REVERT JUMPDEST PUSH1 0x0 DUP1 REVERT JUMPDEST PUSH1 0x0 DUP2 SWAP1 POP SWAP2 SWAP1 POP JUMP JUMPDEST PUSH2 0xB75 DUP2 PUSH2 0xB62 JUMP JUMPDEST DUP2 EQ PUSH2 0xB80 JUMPI PUSH1 0x0 DUP1 REVERT JUMPDEST POP JUMP JUMPDEST PUSH1 0x0 DUP2 CALLDATALOAD SWAP1 POP PUSH2 0xB92 DUP2 PUSH2 0xB6C JUMP JUMPDEST SWAP3 SWAP2 POP POP JUMP JUMPDEST PUSH1 0x0 PUSH1 0x20 DUP3 DUP5 SUB SLT ISZERO PUSH2 0xBAE JUMPI PUSH2 0xBAD PUSH2 0xB58 JUMP JUMPDEST JUMPDEST PUSH1 0x0 PUSH2 0xBBC DUP5 DUP3 DUP6 ADD PUSH2 0xB83 JUMP JUMPDEST SWAP2 POP POP SWAP3 SWAP2 POP POP JUMP JUMPDEST PUSH1 0x0 DUP2 MLOAD SWAP1 POP SWAP2 SWAP1 POP JUMP JUMPDEST PUSH1 0x0 DUP3 DUP3 MSTORE PUSH1 0x20 DUP3 ADD SWAP1 POP SWAP3 SWAP2 POP POP JUMP JUMPDEST PUSH1 0x0 JUMPDEST DUP4 DUP2 LT ISZERO PUSH2 0xBFF JUMPI DUP1 DUP3 ADD MLOAD DUP2 DUP5 ADD MSTORE PUSH1 0x20 DUP2 ADD SWAP1 POP PUSH2 0xBE4 JUMP JUMPDEST PUSH1 0x0 DUP5 DUP5 ADD MSTORE POP POP POP POP JUMP JUMPDEST PUSH1 0x0 PUSH1 0x1F NOT PUSH1 0x1F DUP4 ADD AND SWAP1 POP SWAP2 SWAP1 POP JUMP JUMPDEST PUSH1 0x0 PUSH2 0xC27 DUP3 PUSH2 0xBC5 JUMP JUMPDEST PUSH2 0xC31 DUP2 DUP6 PUSH2 0xBD0 JUMP JUMPDEST SWAP4 POP PUSH2 0xC41 DUP2 DUP6 PUSH1 0x20 DUP7 ADD PUSH2 0xBE1 JUMP JUMPDEST PUSH2 0xC4A DUP2 PUSH2 0xC0B JUMP JUMPDEST DUP5 ADD SWAP2 POP POP SWAP3 SWAP2 POP POP JUMP JUMPDEST PUSH2 0xC5E DUP2 PUSH2 0xB62 JUMP JUMPDEST DUP3 MSTORE POP POP JUMP JUMPDEST PUSH32 0x4E487B7100000000000000000000000000000000000000000000000000000000 PUSH1 0x0 MSTORE PUSH1 0x21 PUSH1 0x4 MSTORE PUSH1 0x24 PUSH1 0x0 REVERT JUMPDEST PUSH1 0x4 DUP2 LT PUSH2 0xCA4 JUMPI PUSH2 0xCA3 PUSH2 0xC64 JUMP JUMPDEST JUMPDEST POP JUMP JUMPDEST PUSH1 0x0 DUP2 SWAP1 POP PUSH2 0xCB5 DUP3 PUSH2 0xC93 JUMP JUMPDEST SWAP2 SWAP1 POP JUMP JUMPDEST PUSH1 0x0 PUSH2 0xCC5 DUP3 PUSH2 0xCA7 JUMP JUMPDEST SWAP1 POP SWAP2 SWAP1 POP JUMP JUMPDEST PUSH2 0xCD5 DUP2 PUSH2 0xCBA JUMP JUMPDEST DUP3 MSTORE POP POP JUMP JUMPDEST PUSH1 0x4 DUP2 LT PUSH2 0xCEC JUMPI PUSH2 0xCEB PUSH2 0xC64 JUMP JUMPDEST JUMPDEST POP JUMP JUMPDEST PUSH1 0x0 DUP2 SWAP1 POP PUSH2 0xCFD DUP3 PUSH2 0xCDB JUMP JUMPDEST SWAP2 SWAP1 POP JUMP JUMPDEST PUSH1 0x0 PUSH2 0xD0D DUP3 PUSH2 0xCEF JUMP JUMPDEST SWAP1 POP SWAP2 SWAP1 POP JUMP JUMPDEST PUSH2 0xD1D DUP2 PUSH2 0xD02 JUMP JUMPDEST DUP3 MSTORE POP POP JUMP JUMPDEST PUSH1 0x0 PUSH1 0xC0 DUP3 ADD SWAP1 POP DUP2 DUP2 SUB PUSH1 0x0 DUP4 ADD MSTORE PUSH2 0xD3D DUP2 DUP10 PUSH2 0xC1C JUMP JUMPDEST SWAP1 POP PUSH2 0xD4C PUSH1 0x20 DUP4 ADD DUP9 PUSH2 0xC55 JUMP JUMPDEST PUSH2 0xD59 PUSH1 0x40 DUP4 ADD DUP8 PUSH2 0xC55 JUMP JUMPDEST PUSH2 0xD66 PUSH1 0x60 DUP4 ADD DUP7 PUSH2 0xCCC JUMP JUMPDEST PUSH2 0xD73 PUSH1 0x80 DUP4 ADD DUP6 PUSH2 0xD14 JUMP JUMPDEST PUSH2 0xD80 PUSH1 0xA0 DUP4 ADD DUP5 PUSH2 0xC55 JUMP JUMPDEST SWAP8 SWAP7 POP POP POP POP POP POP POP JUMP JUMPDEST PUSH1 0x0 PUSH1 0x3 SWAP1 POP SWAP2 SWAP1 POP JUMP JUMPDEST PUSH1 0x0 DUP2 SWAP1 POP SWAP3 SWAP2 POP POP JUMP JUMPDEST PUSH1 0x0 DUP2 SWAP1 POP SWAP2 SWAP1 POP JUMP JUMPDEST PUSH1 0x0 DUP3 DUP3 MSTORE PUSH1 0x20 DUP3 ADD SWAP1 POP SWAP3 SWAP2 POP POP JUMP JUMPDEST PUSH1 0x0 PUSH2 0xDC7 DUP3 PUSH2 0xBC5 JUMP JUMPDEST PUSH2 0xDD1 DUP2 DUP6 PUSH2 0xDAB JUMP JUMPDEST SWAP4 POP PUSH2 0xDE1 DUP2 DUP6 PUSH1 0x20 DUP7 ADD PUSH2 0xBE1 JUMP JUMPDEST PUSH2 0xDEA DUP2 PUSH2 0xC0B JUMP JUMPDEST DUP5 ADD SWAP2 POP POP SWAP3 SWAP2 POP POP JUMP JUMPDEST PUSH1 0x0 PUSH2 0xE01 DUP4 DUP4 PUSH2 0xDBC JUMP JUMPDEST SWAP1 POP SWAP3 SWAP2 POP POP JUMP JUMPDEST PUSH1 0x0 PUSH1 0x20 DUP3 ADD SWAP1 POP SWAP2 SWAP1 POP JUMP JUMPDEST PUSH1 0x0 PUSH2 0xE21 DUP3 PUSH2 0xD8B JUMP JUMPDEST PUSH2 0xE2B DUP2 DUP6 PUSH2 0xD96 JUMP JUMPDEST SWAP4 POP DUP4 PUSH1 0x20 DUP3 MUL DUP6 ADD PUSH2 0xE3D DUP6 PUSH2 0xDA1 JUMP JUMPDEST DUP1 PUSH1 0x0 JUMPDEST DUP6 DUP2 LT ISZERO PUSH2 0xE79 JUMPI DUP5 DUP5 SUB DUP10 MSTORE DUP2 MLOAD PUSH2 0xE5A DUP6 DUP3 PUSH2 0xDF5 JUMP JUMPDEST SWAP5 POP PUSH2 0xE65 DUP4 PUSH2 0xE09 JUMP JUMPDEST SWAP3 POP PUSH1 0x20 DUP11 ADD SWAP10 POP POP PUSH1 0x1 DUP2 ADD SWAP1 POP PUSH2 0xE41 JUMP JUMPDEST POP DUP3 SWAP8 POP DUP8 SWAP6 POP POP POP POP POP POP SWAP3 SWAP2 POP POP JUMP JUMPDEST PUSH1 0x0 PUSH1 0x3 SWAP1 POP SWAP2 SWAP1 POP JUMP JUMPDEST PUSH1 0x0 DUP2 SWAP1 POP SWAP3 SWAP2 POP POP JUMP JUMPDEST PUSH1 0x0 DUP2 SWAP1 POP SWAP2 SWAP1 POP JUMP JUMPDEST PUSH2 0xEB4 DUP2 PUSH2 0xB62 JUMP JUMPDEST DUP3 MSTORE POP POP JUMP JUMPDEST PUSH1 0x0 PUSH2 0xEC6 DUP4 DUP4 PUSH2 0xEAB JUMP JUMPDEST PUSH1 0x20 DUP4 ADD SWAP1 POP SWAP3 SWAP2 POP POP JUMP JUMPDEST PUSH1 0x0 PUSH1 0x20 DUP3 ADD SWAP1 POP SWAP2 SWAP1 POP JUMP JUMPDEST PUSH2 0xEE8 DUP2 PUSH2 0xE8B JUMP JUMPDEST PUSH2 0xEF2 DUP2 DUP5 PUSH2 0xE96 JUMP JUMPDEST SWAP3 POP PUSH2 0xEFD DUP3 PUSH2 0xEA1 JUMP JUMPDEST DUP1 PUSH1 0x0 JUMPDEST DUP4 DUP2 LT ISZERO PUSH2 0xF2E JUMPI DUP2 MLOAD PUSH2 0xF15 DUP8 DUP3 PUSH2 0xEBA JUMP JUMPDEST SWAP7 POP PUSH2 0xF20 DUP4 PUSH2 0xED2 JUMP JUMPDEST SWAP3 POP POP PUSH1 0x1 DUP2 ADD SWAP1 POP PUSH2 0xF01 JUMP JUMPDEST POP POP POP POP POP POP JUMP JUMPDEST PUSH1 0x0 PUSH1 0x3 SWAP1 POP SWAP2 SWAP1 POP JUMP JUMPDEST PUSH1 0x0 DUP2 SWAP1 POP SWAP3 SWAP2 POP POP JUMP JUMPDEST PUSH1 0x0 DUP2 SWAP1 POP SWAP2 SWAP1 POP JUMP JUMPDEST PUSH2 0xF5F DUP2 PUSH2 0xD02 JUMP JUMPDEST DUP3 MSTORE POP POP JUMP JUMPDEST PUSH1 0x0 PUSH2 0xF71 DUP4 DUP4 PUSH2 0xF56 JUMP JUMPDEST PUSH1 0x20 DUP4 ADD SWAP1 POP SWAP3 SWAP2 POP POP JUMP JUMPDEST PUSH1 0x0 PUSH1 0x20 DUP3 ADD SWAP1 POP SWAP2 SWAP1 POP JUMP JUMPDEST PUSH2 0xF93 DUP2 PUSH2 0xF36 JUMP JUMPDEST PUSH2 0xF9D DUP2 DUP5 PUSH2 0xF41 JUMP JUMPDEST SWAP3 POP PUSH2 0xFA8 DUP3 PUSH2 0xF4C JUMP JUMPDEST DUP1 PUSH1 0x0 JUMPDEST DUP4 DUP2 LT ISZERO PUSH2 0xFD9 JUMPI DUP2 MLOAD PUSH2 0xFC0 DUP8 DUP3 PUSH2 0xF65 JUMP JUMPDEST SWAP7 POP PUSH2 0xFCB DUP4 PUSH2 0xF7D JUMP JUMPDEST SWAP3 POP POP PUSH1 0x1 DUP2 ADD SWAP1 POP PUSH2 0xFAC JUMP JUMPDEST POP POP POP POP POP POP JUMP JUMPDEST PUSH1 0x0 PUSH2 0x1A0 DUP3 ADD SWAP1 POP DUP2 DUP2 SUB PUSH1 0x0 DUP4 ADD MSTORE PUSH2 0xFFC DUP2 DUP9 PUSH2 0xE16 JUMP JUMPDEST SWAP1 POP PUSH2 0x100B PUSH1 0x20 DUP4 ADD DUP8 PUSH2 0xEDF JUMP JUMPDEST PUSH2 0x1018 PUSH1 0x80 DUP4 ADD DUP7 PUSH2 0xEDF JUMP JUMPDEST PUSH2 0x1025 PUSH1 0xE0 DUP4 ADD DUP6 PUSH2 0xF8A JUMP JUMPDEST PUSH2 0x1033 PUSH2 0x140 DUP4 ADD DUP5 PUSH2 0xEDF JUMP JUMPDEST SWAP7 SWAP6 POP POP POP POP POP POP JUMP JUMPDEST PUSH1 0x0 DUP1 REVERT JUMPDEST PUSH1 0x0 DUP1 REVERT JUMPDEST PUSH32 0x4E487B7100000000000000000000000000000000000000000000000000000000 PUSH1 0x0 MSTORE PUSH1 0x41 PUSH1 0x4 MSTORE PUSH1 0x24 PUSH1 0x0 REVERT JUMPDEST PUSH2 0x107F DUP3 PUSH2 0xC0B JUMP JUMPDEST DUP2 ADD DUP2 DUP2 LT PUSH8 0xFFFFFFFFFFFFFFFF DUP3 GT OR ISZERO PUSH2 0x109E JUMPI PUSH2 0x109D PUSH2 0x1047 JUMP JUMPDEST JUMPDEST DUP1 PUSH1 0x40 MSTORE POP POP POP JUMP JUMPDEST PUSH1 0x0 PUSH2 0x10B1 PUSH2 0xB4E JUMP JUMPDEST SWAP1 POP PUSH2 0x10BD DUP3 DUP3 PUSH2 0x1076 JUMP JUMPDEST SWAP2 SWAP1 POP JUMP JUMPDEST PUSH1 0x0 PUSH8 0xFFFFFFFFFFFFFFFF DUP3 GT ISZERO PUSH2 0x10DD JUMPI PUSH2 0x10DC PUSH2 0x1047 JUMP JUMPDEST JUMPDEST PUSH2 0x10E6 DUP3 PUSH2 0xC0B JUMP JUMPDEST SWAP1 POP PUSH1 0x20 DUP2 ADD SWAP1 POP SWAP2 SWAP1 POP JUMP JUMPDEST DUP3 DUP2 DUP4 CALLDATACOPY PUSH1 0x0 DUP4 DUP4 ADD MSTORE POP POP POP JUMP JUMPDEST PUSH1 0x0 PUSH2 0x1115 PUSH2 0x1110 DUP5 PUSH2 0x10C2 JUMP JUMPDEST PUSH2 0x10A7 JUMP JUMPDEST SWAP1 POP DUP3 DUP2 MSTORE PUSH1 0x20 DUP2 ADD DUP5 DUP5 DUP5 ADD GT ISZERO PUSH2 0x1131 JUMPI PUSH2 0x1130 PUSH2 0x1042 JUMP JUMPDEST JUMPDEST PUSH2 0x113C DUP5 DUP3 DUP6 PUSH2 0x10F3 JUMP JUMPDEST POP SWAP4 SWAP3 POP POP POP JUMP JUMPDEST PUSH1 0x0 DUP3 PUSH1 0x1F DUP4 ADD SLT PUSH2 0x1159 JUMPI PUSH2 0x1158 PUSH2 0x103D JUMP JUMPDEST JUMPDEST DUP2 CALLDATALOAD PUSH2 0x1169 DUP5 DUP3 PUSH1 0x20 DUP7 ADD PUSH2 0x1102 JUMP JUMPDEST SWAP2 POP POP SWAP3 SWAP2 POP POP JUMP JUMPDEST PUSH1 0x4 DUP2 LT PUSH2 0x117F JUMPI PUSH1 0x0 DUP1 REVERT JUMPDEST POP JUMP JUMPDEST PUSH1 0x0 DUP2 CALLDATALOAD SWAP1 POP PUSH2 0x1191 DUP2 PUSH2 0x1172 JUMP JUMPDEST SWAP3 SWAP2 POP POP JUMP JUMPDEST PUSH1 0x4 DUP2 LT PUSH2 0x11A4 JUMPI PUSH1 0x0 DUP1 REVERT JUMPDEST POP JUMP JUMPDEST PUSH1 0x0 DUP2 CALLDATALOAD SWAP1 POP PUSH2 0x11B6 DUP2 PUSH2 0x1197 JUMP JUMPDEST SWAP3 SWAP2 POP POP JUMP JUMPDEST PUSH1 0x0 DUP1 PUSH1 0x0 DUP1 PUSH1 0x0 DUP1 PUSH1 0x0 PUSH1 0xE0 DUP9 DUP11 SUB SLT ISZERO PUSH2 0x11DB JUMPI PUSH2 0x11DA PUSH2 0xB58 JUMP JUMPDEST JUMPDEST PUSH1 0x0 PUSH2 0x11E9 DUP11 DUP3 DUP12 ADD PUSH2 0xB83 JUMP JUMPDEST SWAP8 POP POP PUSH1 0x20 DUP9 ADD CALLDATALOAD PUSH8 0xFFFFFFFFFFFFFFFF DUP2 GT ISZERO PUSH2 0x120A JUMPI PUSH2 0x1209 PUSH2 0xB5D JUMP JUMPDEST JUMPDEST PUSH2 0x1216 DUP11 DUP3 DUP12 ADD PUSH2 0x1144 JUMP JUMPDEST SWAP7 POP POP PUSH1 0x40 PUSH2 0x1227 DUP11 DUP3 DUP12 ADD PUSH2 0xB83 JUMP JUMPDEST SWAP6 POP POP PUSH1 0x60 PUSH2 0x1238 DUP11 DUP3 DUP12 ADD PUSH2 0x1182 JUMP JUMPDEST SWAP5 POP POP PUSH1 0x80 PUSH2 0x1249 DUP11 DUP3 DUP12 ADD PUSH2 0x11A7 JUMP JUMPDEST SWAP4 POP POP PUSH1 0xA0 PUSH2 0x125A DUP11 DUP3 DUP12 ADD PUSH2 0xB83 JUMP JUMPDEST SWAP3 POP POP PUSH1 0xC0 PUSH2 0x126B DUP11 DUP3 DUP12 ADD PUSH2 0xB83 JUMP JUMPDEST SWAP2 POP POP SWAP3 SWAP6 SWAP9 SWAP2 SWAP5 SWAP8 POP SWAP3 SWAP6 POP JUMP JUMPDEST PUSH1 0x0 PUSH1 0x20 DUP3 ADD SWAP1 POP PUSH2 0x128F PUSH1 0x0 DUP4 ADD DUP5 PUSH2 0xC55 JUMP JUMPDEST SWAP3 SWAP2 POP POP JUMP JUMPDEST PUSH1 0x0 PUSH1 0x20 DUP3 DUP5 SUB SLT ISZERO PUSH2 0x12AB JUMPI PUSH2 0x12AA PUSH2 0xB58 JUMP JUMPDEST JUMPDEST PUSH1 0x0 PUSH2 0x12B9 DUP5 DUP3 DUP6 ADD PUSH2 0x1182 JUMP JUMPDEST SWAP2 POP POP SWAP3 SWAP2 POP POP JUMP JUMPDEST PUSH32 0x4E487B7100000000000000000000000000000000000000000000000000000000 PUSH1 0x0 MSTORE PUSH1 0x22 PUSH1 0x4 MSTORE PUSH1 0x24 PUSH1 0x0 REVERT JUMPDEST PUSH1 0x0 PUSH1 0x2 DUP3 DIV SWAP1 POP PUSH1 0x1 DUP3 AND DUP1 PUSH2 0x1309 JUMPI PUSH1 0x7F DUP3 AND SWAP2 POP JUMPDEST PUSH1 0x20 DUP3 LT DUP2 SUB PUSH2 0x131C JUMPI PUSH2 0x131B PUSH2 0x12C2 JUMP JUMPDEST JUMPDEST POP SWAP2 SWAP1 POP JUMP JUMPDEST PUSH32 0x4E487B7100000000000000000000000000000000000000000000000000000000 PUSH1 0x0 MSTORE PUSH1 0x32 PUSH1 0x4 MSTORE PUSH1 0x24 PUSH1 0x0 REVERT JUMPDEST PUSH32 0x4E487B7100000000000000000000000000000000000000000000000000000000 PUSH1 0x0 MSTORE PUSH1 0x11 PUSH1 0x4 MSTORE PUSH1 0x24 PUSH1 0x0 REVERT JUMPDEST PUSH1 0x0 PUSH2 0x138B DUP3 PUSH2 0xB62 JUMP JUMPDEST SWAP2 POP PUSH2 0x1396 DUP4 PUSH2 0xB62 JUMP JUMPDEST SWAP3 POP DUP3 DUP3 SUB SWAP1 POP DUP2 DUP2 GT ISZERO PUSH2 0x13AE JUMPI PUSH2 0x13AD PUSH2 0x1351 JUMP JUMPDEST JUMPDEST SWAP3 SWAP2 POP POP JUMP JUMPDEST PUSH1 0x0 PUSH2 0x13BF DUP3 PUSH2 0xB62 JUMP JUMPDEST SWAP2 POP PUSH1 0x0 DUP3 SUB PUSH2 0x13D2 JUMPI PUSH2 0x13D1 PUSH2 0x1351 JUMP JUMPDEST JUMPDEST PUSH1 0x1 DUP3 SUB SWAP1 POP SWAP2 SWAP1 POP JUMP JUMPDEST PUSH1 0x0 PUSH2 0x13E8 DUP3 PUSH2 0xB62 JUMP JUMPDEST SWAP2 POP PUSH32 0xFFFFFFFFFFFFFFFFFFFFFFFFFFFFFFFFFFFFFFFFFFFFFFFFFFFFFFFFFFFFFFFF DUP3 SUB PUSH2 0x141A JUMPI PUSH2 0x1419 PUSH2 0x1351 JUMP JUMPDEST JUMPDEST PUSH1 0x1 DUP3 ADD SWAP1 POP SWAP2 SWAP1 POP JUMP JUMPDEST PUSH1 0x0 DUP2 SWAP1 POP DUP2 PUSH1 0x0 MSTORE PUSH1 0x20 PUSH1 0x0 KECCAK256 SWAP1 POP SWAP2 SWAP1 POP JUMP JUMPDEST PUSH1 0x0 PUSH1 0x20 PUSH1 0x1F DUP4 ADD DIV SWAP1 POP SWAP2 SWAP1 POP JUMP JUMPDEST PUSH1 0x0 DUP3 DUP3 SHL SWAP1 POP SWAP3 SWAP2 POP POP JUMP JUMPDEST PUSH1 0x0 PUSH1 0x8 DUP4 MUL PUSH2 0x1487 PUSH32 0xFFFFFFFFFFFFFFFFFFFFFFFFFFFFFFFFFFFFFFFFFFFFFFFFFFFFFFFFFFFFFFFF DUP3 PUSH2 0x144A JUMP JUMPDEST PUSH2 0x1491 DUP7 DUP4 PUSH2 0x144A JUMP JUMPDEST SWAP6 POP DUP1 NOT DUP5 AND SWAP4 POP DUP1 DUP7 AND DUP5 OR SWAP3 POP POP POP SWAP4 SWAP3 POP POP POP JUMP JUMPDEST PUSH1 0x0 DUP2 SWAP1 POP SWAP2 SWAP1 POP JUMP JUMPDEST PUSH1 0x0 PUSH2 0x14CE PUSH2 0x14C9 PUSH2 0x14C4 DUP5 PUSH2 0xB62 JUMP JUMPDEST PUSH2 0x14A9 JUMP JUMPDEST PUSH2 0xB62 JUMP JUMPDEST SWAP1 POP SWAP2 SWAP1 POP JUMP JUMPDEST PUSH1 0x0 DUP2 SWAP1 POP SWAP2 SWAP1 POP JUMP JUMPDEST PUSH2 0x14E8 DUP4 PUSH2 0x14B3 JUMP JUMPDEST PUSH2 0x14FC PUSH2 0x14F4 DUP3 PUSH2 0x14D5 JUMP JUMPDEST DUP5 DUP5 SLOAD PUSH2 0x1457 JUMP JUMPDEST DUP3 SSTORE POP POP POP POP JUMP JUMPDEST PUSH1 0x0 SWAP1 JUMP JUMPDEST PUSH2 0x1511 PUSH2 0x1504 JUMP JUMPDEST PUSH2 0x151C DUP2 DUP5 DUP5 PUSH2 0x14DF JUMP JUMPDEST POP POP POP JUMP JUMPDEST JUMPDEST DUP2 DUP2 LT ISZERO PUSH2 0x1540 JUMPI PUSH2 0x1535 PUSH1 0x0 DUP3 PUSH2 0x1509 JUMP JUMPDEST PUSH1 0x1 DUP2 ADD SWAP1 POP PUSH2 0x1522 JUMP JUMPDEST POP POP JUMP JUMPDEST PUSH1 0x1F DUP3 GT ISZERO PUSH2 0x1585 JUMPI PUSH2 0x1556 DUP2 PUSH2 0x1425 JUMP JUMPDEST PUSH2 0x155F DUP5 PUSH2 0x143A JUMP JUMPDEST DUP2 ADD PUSH1 0x20 DUP6 LT ISZERO PUSH2 0x156E JUMPI DUP2 SWAP1 POP JUMPDEST PUSH2 0x1582 PUSH2 0x157A DUP6 PUSH2 0x143A JUMP JUMPDEST DUP4 ADD DUP3 PUSH2 0x1521 JUMP JUMPDEST POP POP JUMPDEST POP POP POP JUMP JUMPDEST PUSH1 0x0 DUP3 DUP3 SHR SWAP1 POP SWAP3 SWAP2 POP POP JUMP JUMPDEST PUSH1 0x0 PUSH2 0x15A8 PUSH1 0x0 NOT DUP5 PUSH1 0x8 MUL PUSH2 0x158A JUMP JUMPDEST NOT DUP1 DUP4 AND SWAP2 POP POP SWAP3 SWAP2 POP POP JUMP JUMPDEST PUSH1 0x0 PUSH2 0x15C1 DUP4 DUP4 PUSH2 0x1597 JUMP JUMPDEST SWAP2 POP DUP3 PUSH1 0x2 MUL DUP3 OR SWAP1 POP SWAP3 SWAP2 POP POP JUMP JUMPDEST PUSH2 0x15DA DUP3 PUSH2 0xBC5 JUMP JUMPDEST PUSH8 0xFFFFFFFFFFFFFFFF DUP2 GT ISZERO PUSH2 0x15F3 JUMPI PUSH2 0x15F2 PUSH2 0x1047 JUMP JUMPDEST JUMPDEST PUSH2 0x15FD DUP3 SLOAD PUSH2 0x12F1 JUMP JUMPDEST PUSH2 0x1608 DUP3 DUP3 DUP6 PUSH2 0x1544 JUMP JUMPDEST PUSH1 0x0 PUSH1 0x20 SWAP1 POP PUSH1 0x1F DUP4 GT PUSH1 0x1 DUP2 EQ PUSH2 0x163B JUMPI PUSH1 0x0 DUP5 ISZERO PUSH2 0x1629 JUMPI DUP3 DUP8 ADD MLOAD SWAP1 POP JUMPDEST PUSH2 0x1633 DUP6 DUP3 PUSH2 0x15B5 JUMP JUMPDEST DUP7 SSTORE POP PUSH2 0x169B JUMP JUMPDEST PUSH1 0x1F NOT DUP5 AND PUSH2 0x1649 DUP7 PUSH2 0x1425 JUMP JUMPDEST PUSH1 0x0 JUMPDEST DUP3 DUP2 LT ISZERO PUSH2 0x1671 JUMPI DUP5 DUP10 ADD MLOAD DUP3 SSTORE PUSH1 0x1 DUP3 ADD SWAP2 POP PUSH1 0x20 DUP6 ADD SWAP5 POP PUSH1 0x20 DUP2 ADD SWAP1 POP PUSH2 0x164C JUMP JUMPDEST DUP7 DUP4 LT ISZERO PUSH2 0x168E JUMPI DUP5 DUP10 ADD MLOAD PUSH2 0x168A PUSH1 0x1F DUP10 AND DUP3 PUSH2 0x1597 JUMP JUMPDEST DUP4 SSTORE POP JUMPDEST PUSH1 0x1 PUSH1 0x2 DUP9 MUL ADD DUP9 SSTORE POP POP POP JUMPDEST POP POP POP POP POP POP JUMP INVALID LOG2 PUSH5 0x6970667358 0x22 SLT KECCAK256 XOR 0x22 0x5C SWAP16 EXTCODESIZE BALANCE 0xDE DIV DUP12 SGT SELFDESTRUCT SDIV EXTCODEHASH DUP2 0xA7 INVALID 0xBF 0xED PUSH2 0x36C4 SWAP14 0xDD 0xB0 REVERT SSTORE 0xDA 0xBE CALLDATASIZE KECCAK256 PUSH25 0xA564736F6C6343000812003300000000000000000000000000 "
				},
				"gasEstimates": {
					"creation": {
						"codeDepositCost": "1169800",
						"executionCost": "1214",
						"totalCost": "1171014"
					},
					"external": {
						"getDepartmentStudentCount(uint8)": "infinite",
						"getTop3BlockchainAchievers()": "infinite",
						"registerStudent(uint256,string,uint256,uint8,uint8,uint256,uint256)": "infinite",
						"retrieve(uint256)": "infinite",
						"students(uint256)": "infinite",
						"totalStudents()": "2451",
						"updateStudentInfo(uint256,string,uint256,uint8,uint8,uint256,uint256)": "infinite"
					}
				},
				"methodIdentifiers": {
					"getDepartmentStudentCount(uint8)": "f1b2841a",
					"getTop3BlockchainAchievers()": "12b4e900",
					"registerStudent(uint256,string,uint256,uint8,uint8,uint256,uint256)": "9aa0ebad",
					"retrieve(uint256)": "8f88708b",
					"students(uint256)": "06ead22e",
					"totalStudents()": "9852bf8e",
					"updateStudentInfo(uint256,string,uint256,uint8,uint8,uint256,uint256)": "230c65c7"
				}
			},
			"storageLayout": {
				"storage": [
					{
						"astId": 31,
						"contract": "LABS 8 Aug/Task 1 lab8.sol:StudentRegisterationSystem",
						"label": "students",
						"offset": 0,
						"slot": "0",
						"type": "t_mapping(t_uint256,t_struct(Student)26_storage)"
					},
					{
						"astId": 33,
						"contract": "LABS 8 Aug/Task 1 lab8.sol:StudentRegisterationSystem",
						"label": "totalStudents",
						"offset": 0,
						"slot": "1",
						"type": "t_uint256"
					}
				],
				"types": {
					"t_enum(Department)6": {
						"encoding": "inplace",
						"label": "enum StudentRegisterationSystem.Department",
						"numberOfBytes": "1"
					},
					"t_enum(Status)11": {
						"encoding": "inplace",
						"label": "enum StudentRegisterationSystem.Status",
						"numberOfBytes": "1"
					},
					"t_mapping(t_uint256,t_struct(Student)26_storage)": {
						"encoding": "mapping",
						"key": "t_uint256",
						"label": "mapping(uint256 => struct StudentRegisterationSystem.Student)",
						"numberOfBytes": "32",
						"value": "t_struct(Student)26_storage"
					},
					"t_string_storage": {
						"encoding": "bytes",
						"label": "string",
						"numberOfBytes": "32"
					},
					"t_struct(Student)26_storage": {
						"encoding": "inplace",
						"label": "struct StudentRegisterationSystem.Student",
						"members": [
							{
								"astId": 13,
								"contract": "LABS 8 Aug/Task 1 lab8.sol:StudentRegisterationSystem",
								"label": "name",
								"offset": 0,
								"slot": "0",
								"type": "t_string_storage"
							},
							{
								"astId": 15,
								"contract": "LABS 8 Aug/Task 1 lab8.sol:StudentRegisterationSystem",
								"label": "age",
								"offset": 0,
								"slot": "1",
								"type": "t_uint256"
							},
							{
								"astId": 17,
								"contract": "LABS 8 Aug/Task 1 lab8.sol:StudentRegisterationSystem",
								"label": "registrationDate",
								"offset": 0,
								"slot": "2",
								"type": "t_uint256"
							},
							{
								"astId": 20,
								"contract": "LABS 8 Aug/Task 1 lab8.sol:StudentRegisterationSystem",
								"label": "department",
								"offset": 0,
								"slot": "3",
								"type": "t_enum(Department)6"
							},
							{
								"astId": 23,
								"contract": "LABS 8 Aug/Task 1 lab8.sol:StudentRegisterationSystem",
								"label": "status",
								"offset": 1,
								"slot": "3",
								"type": "t_enum(Status)11"
							},
							{
								"astId": 25,
								"contract": "LABS 8 Aug/Task 1 lab8.sol:StudentRegisterationSystem",
								"label": "ObtainedMarks",
								"offset": 0,
								"slot": "4",
								"type": "t_uint256"
							}
						],
						"numberOfBytes": "160"
					},
					"t_uint256": {
						"encoding": "inplace",
						"label": "uint256",
						"numberOfBytes": "32"
					}
				}
			},
			"userdoc": {
				"kind": "user",
				"methods": {},
				"version": 1
			}
		}
	}
}