{
	"data": {
		"bytecode": {
			"linkReferences": {},
			"object": "608060405261271060005534801561001657600080fd5b506102ab806100266000396000f3fe608060405234801561001057600080fd5b50600436106100415760003560e01c806308b929391461004657806376e5b58714610064578063a750e29314610080575b600080fd5b61004e61009c565b60405161005b919061013c565b60405180910390f35b61007e60048036038101906100799190610188565b6100a2565b005b61009a60048036038101906100959190610188565b610108565b005b60005481565b8060005410156100ed57600054816040517f03eb8b540000000000000000000000000000000000000000000000000000000081526004016100e49291906101b5565b60405180910390fd5b806000808282546100fe919061020d565b9250508190555050565b806000808282546101199190610241565b9250508190555050565b6000819050919050565b61013681610123565b82525050565b6000602082019050610151600083018461012d565b92915050565b600080fd5b61016581610123565b811461017057600080fd5b50565b6000813590506101828161015c565b92915050565b60006020828403121561019e5761019d610157565b5b60006101ac84828501610173565b91505092915050565b60006040820190506101ca600083018561012d565b6101d7602083018461012d565b9392505050565b7f4e487b7100000000000000000000000000000000000000000000000000000000600052601160045260246000fd5b600061021882610123565b915061022383610123565b925082820390508181111561023b5761023a6101de565b5b92915050565b600061024c82610123565b915061025783610123565b925082820190508082111561026f5761026e6101de565b5b9291505056fea26469706673582212206f314ea36112c61b276c672e838354d7597b4c3a6f10fe5763600e6bf3a6f8fd64736f6c63430008120033",
			"opcodes": "PUSH1 0x80 PUSH1 0x40 MSTORE PUSH2 0x2710 PUSH1 0x0 SSTORE CALLVALUE DUP1 ISZERO PUSH2 0x16 JUMPI PUSH1 0x0 DUP1 REVERT JUMPDEST POP PUSH2 0x2AB DUP1 PUSH2 0x26 PUSH1 0x0 CODECOPY PUSH1 0x0 RETURN INVALID PUSH1 0x80 PUSH1 0x40 MSTORE CALLVALUE DUP1 ISZERO PUSH2 0x10 JUMPI PUSH1 0x0 DUP1 REVERT JUMPDEST POP PUSH1 0x4 CALLDATASIZE LT PUSH2 0x41 JUMPI PUSH1 0x0 CALLDATALOAD PUSH1 0xE0 SHR DUP1 PUSH4 0x8B92939 EQ PUSH2 0x46 JUMPI DUP1 PUSH4 0x76E5B587 EQ PUSH2 0x64 JUMPI DUP1 PUSH4 0xA750E293 EQ PUSH2 0x80 JUMPI JUMPDEST PUSH1 0x0 DUP1 REVERT JUMPDEST PUSH2 0x4E PUSH2 0x9C JUMP JUMPDEST PUSH1 0x40 MLOAD PUSH2 0x5B SWAP2 SWAP1 PUSH2 0x13C JUMP JUMPDEST PUSH1 0x40 MLOAD DUP1 SWAP2 SUB SWAP1 RETURN JUMPDEST PUSH2 0x7E PUSH1 0x4 DUP1 CALLDATASIZE SUB DUP2 ADD SWAP1 PUSH2 0x79 SWAP2 SWAP1 PUSH2 0x188 JUMP JUMPDEST PUSH2 0xA2 JUMP JUMPDEST STOP JUMPDEST PUSH2 0x9A PUSH1 0x4 DUP1 CALLDATASIZE SUB DUP2 ADD SWAP1 PUSH2 0x95 SWAP2 SWAP1 PUSH2 0x188 JUMP JUMPDEST PUSH2 0x108 JUMP JUMPDEST STOP JUMPDEST PUSH1 0x0 SLOAD DUP2 JUMP JUMPDEST DUP1 PUSH1 0x0 SLOAD LT ISZERO PUSH2 0xED JUMPI PUSH1 0x0 SLOAD DUP2 PUSH1 0x40 MLOAD PUSH32 0x3EB8B5400000000000000000000000000000000000000000000000000000000 DUP2 MSTORE PUSH1 0x4 ADD PUSH2 0xE4 SWAP3 SWAP2 SWAP1 PUSH2 0x1B5 JUMP JUMPDEST PUSH1 0x40 MLOAD DUP1 SWAP2 SUB SWAP1 REVERT JUMPDEST DUP1 PUSH1 0x0 DUP1 DUP3 DUP3 SLOAD PUSH2 0xFE SWAP2 SWAP1 PUSH2 0x20D JUMP JUMPDEST SWAP3 POP POP DUP2 SWAP1 SSTORE POP POP JUMP JUMPDEST DUP1 PUSH1 0x0 DUP1 DUP3 DUP3 SLOAD PUSH2 0x119 SWAP2 SWAP1 PUSH2 0x241 JUMP JUMPDEST SWAP3 POP POP DUP2 SWAP1 SSTORE POP POP JUMP JUMPDEST PUSH1 0x0 DUP2 SWAP1 POP SWAP2 SWAP1 POP JUMP JUMPDEST PUSH2 0x136 DUP2 PUSH2 0x123 JUMP JUMPDEST DUP3 MSTORE POP POP JUMP JUMPDEST PUSH1 0x0 PUSH1 0x20 DUP3 ADD SWAP1 POP PUSH2 0x151 PUSH1 0x0 DUP4 ADD DUP5 PUSH2 0x12D JUMP JUMPDEST SWAP3 SWAP2 POP POP JUMP JUMPDEST PUSH1 0x0 DUP1 REVERT JUMPDEST PUSH2 0x165 DUP2 PUSH2 0x123 JUMP JUMPDEST DUP2 EQ PUSH2 0x170 JUMPI PUSH1 0x0 DUP1 REVERT JUMPDEST POP JUMP JUMPDEST PUSH1 0x0 DUP2 CALLDATALOAD SWAP1 POP PUSH2 0x182 DUP2 PUSH2 0x15C JUMP JUMPDEST SWAP3 SWAP2 POP POP JUMP JUMPDEST PUSH1 0x0 PUSH1 0x20 DUP3 DUP5 SUB SLT ISZERO PUSH2 0x19E JUMPI PUSH2 0x19D PUSH2 0x157 JUMP JUMPDEST JUMPDEST PUSH1 0x0 PUSH2 0x1AC DUP5 DUP3 DUP6 ADD PUSH2 0x173 JUMP JUMPDEST SWAP2 POP POP SWAP3 SWAP2 POP POP JUMP JUMPDEST PUSH1 0x0 PUSH1 0x40 DUP3 ADD SWAP1 POP PUSH2 0x1CA PUSH1 0x0 DUP4 ADD DUP6 PUSH2 0x12D JUMP JUMPDEST PUSH2 0x1D7 PUSH1 0x20 DUP4 ADD DUP5 PUSH2 0x12D JUMP JUMPDEST SWAP4 SWAP3 POP POP POP JUMP JUMPDEST PUSH32 0x4E487B7100000000000000000000000000000000000000000000000000000000 PUSH1 0x0 MSTORE PUSH1 0x11 PUSH1 0x4 MSTORE PUSH1 0x24 PUSH1 0x0 REVERT JUMPDEST PUSH1 0x0 PUSH2 0x218 DUP3 PUSH2 0x123 JUMP JUMPDEST SWAP2 POP PUSH2 0x223 DUP4 PUSH2 0x123 JUMP JUMPDEST SWAP3 POP DUP3 DUP3 SUB SWAP1 POP DUP2 DUP2 GT ISZERO PUSH2 0x23B JUMPI PUSH2 0x23A PUSH2 0x1DE JUMP JUMPDEST JUMPDEST SWAP3 SWAP2 POP POP JUMP JUMPDEST PUSH1 0x0 PUSH2 0x24C DUP3 PUSH2 0x123 JUMP JUMPDEST SWAP2 POP PUSH2 0x257 DUP4 PUSH2 0x123 JUMP JUMPDEST SWAP3 POP DUP3 DUP3 ADD SWAP1 POP DUP1 DUP3 GT ISZERO PUSH2 0x26F JUMPI PUSH2 0x26E PUSH2 0x1DE JUMP JUMPDEST JUMPDEST SWAP3 SWAP2 POP POP JUMP INVALID LOG2 PUSH5 0x6970667358 0x22 SLT KECCAK256 PUSH16 0x314EA36112C61B276C672E838354D759 PUSH28 0x4C3A6F10FE5763600E6BF3A6F8FD64736F6C63430008120033000000 "
		},
		"gasEstimates": {
			"creation": {
				"codeDepositCost": "136600",
				"executionCost": "22289",
				"totalCost": "158889"
			},
			"external": {
				"ATMRefill(uint256)": "infinite",
				"CashAvailable()": "2407",
				"MoneyWithdraw(uint256)": "infinite"
			}
		},
		"methodIdentifiers": {
			"ATMRefill(uint256)": "a750e293",
			"CashAvailable()": "08b92939",
			"MoneyWithdraw(uint256)": "76e5b587"
		}
	},
	"abi": [
		{
			"inputs": [
				{
					"internalType": "uint256",
					"name": "insuficientFunds",
					"type": "uint256"
				},
				{
					"internalType": "uint256",
					"name": "Currentcash",
					"type": "uint256"
				}
			],
			"name": "InsufficientFunds",
			"type": "error"
		},
		{
			"inputs": [
				{
					"internalType": "uint256",
					"name": "refillAmount",
					"type": "uint256"
				}
			],
			"name": "ATMRefill",
			"outputs": [],
			"stateMutability": "nonpayable",
			"type": "function"
		},
		{
			"inputs": [],
			"name": "CashAvailable",
			"outputs": [
				{
					"internalType": "uint256",
					"name": "",
					"type": "uint256"
				}
			],
			"stateMutability": "view",
			"type": "function"
		},
		{
			"inputs": [
				{
					"internalType": "uint256",
					"name": "WithdrawAmount",
					"type": "uint256"
				}
			],
			"name": "MoneyWithdraw",
			"outputs": [],
			"stateMutability": "nonpayable",
			"type": "function"
		}
	]
}