{
	"data": {
		"bytecode": {
			"linkReferences": {},
			"object": "608060405234801561001057600080fd5b50610699806100206000396000f3fe608060405234801561001057600080fd5b506004361061002b5760003560e01c8063f6fac9f514610030575b600080fd5b61003861003a565b005b7f0d9f69314e834cd1fcb9f6af7a4fa384c01b253b675920042ab32273de670590620249f060405161006c91906102ba565b60405180910390a160405180604001604052806040518060400160405280600581526020017f696e74656c000000000000000000000000000000000000000000000000000000815250815260200160108152506040516100cc91906103e0565b6040518091039020600060028111156100e8576100e76103f7565b5b620186a07fb7cb3e49b4ec09a148706bede73dce11f05491dc27eed607696709426603d7ff60405161011990610472565b60405180910390a47fdb5314170881fa5fdd3e9921dbc50bd6b3d983b71f6866474ed235614e4ada9e60016040516101519190610526565b60405180910390a17fb95d0a0e8e53d9ef8aa9399cbb4785e542510399b340ed430cc84ae3555adb46600060405180604001604052806040518060400160405280600281526020017f68700000000000000000000000000000000000000000000000000000000000008152508152602001600881525060806040516101d893929190610625565b60405180910390a17ff2a75fe4d7cd25bbe769d566fbf5a20c67283479ab765ae5857c5ba963305b5560405160405180910390a1565b600082825260208201905092915050565b7f4870000000000000000000000000000000000000000000000000000000000000600082015250565b600061025560028361020e565b91506102608261021f565b602082019050919050565b6000819050919050565b6000819050919050565b6000819050919050565b60006102a461029f61029a8461026b565b61027f565b610275565b9050919050565b6102b481610289565b82525050565b600060408201905081810360008301526102d381610248565b90506102e260208301846102ab565b92915050565b600081519050919050565b600081905092915050565b60005b8381101561031c578082015181840152602081019050610301565b60008484015250505050565b6000601f19601f8301169050919050565b6000610344826102e8565b61034e81856102f3565b935061035e8185602086016102fe565b61036781610328565b840191505092915050565b600061037e8383610339565b905092915050565b61038f81610275565b82525050565b60006103a18383610386565b60208301905092915050565b600080830160008301516103c18582610372565b94505060208301516103d38582610395565b9450508391505092915050565b60006103ec82846103ad565b915081905092915050565b7f4e487b7100000000000000000000000000000000000000000000000000000000600052602160045260246000fd5b7f64656c6c00000000000000000000000000000000000000000000000000000000600082015250565b600061045c60048361020e565b915061046782610426565b602082019050919050565b6000602082019050818103600083015261048b8161044f565b9050919050565b7f4c656e6f766f0000000000000000000000000000000000000000000000000000600082015250565b60006104c860068361020e565b91506104d382610492565b602082019050919050565b600381106104ef576104ee6103f7565b5b50565b6000819050610500826104de565b919050565b6000610510826104f2565b9050919050565b61052081610505565b82525050565b6000604082019050818103600083015261053f816104bb565b905061054e6020830184610517565b92915050565b600082825260208201905092915050565b6000610570826102e8565b61057a8185610554565b935061058a8185602086016102fe565b61059381610328565b840191505092915050565b6105a781610275565b82525050565b600060408301600083015184820360008601526105ca8282610565565b91505060208301516105df602086018261059e565b508091505092915050565b6000819050919050565b600061060f61060a610605846105ea565b61027f565b610275565b9050919050565b61061f816105f4565b82525050565b600060608201905061063a6000830186610517565b818103602083015261064c81856105ad565b905061065b6040830184610616565b94935050505056fea2646970667358221220a500062e8aaddb80c036ca5b0ad463f0846f6aebbe8cd52835fc76a9b3873c2b64736f6c63430008120033",
			"opcodes": "PUSH1 0x80 PUSH1 0x40 MSTORE CALLVALUE DUP1 ISZERO PUSH2 0x10 JUMPI PUSH1 0x0 DUP1 REVERT JUMPDEST POP PUSH2 0x699 DUP1 PUSH2 0x20 PUSH1 0x0 CODECOPY PUSH1 0x0 RETURN INVALID PUSH1 0x80 PUSH1 0x40 MSTORE CALLVALUE DUP1 ISZERO PUSH2 0x10 JUMPI PUSH1 0x0 DUP1 REVERT JUMPDEST POP PUSH1 0x4 CALLDATASIZE LT PUSH2 0x2B JUMPI PUSH1 0x0 CALLDATALOAD PUSH1 0xE0 SHR DUP1 PUSH4 0xF6FAC9F5 EQ PUSH2 0x30 JUMPI JUMPDEST PUSH1 0x0 DUP1 REVERT JUMPDEST PUSH2 0x38 PUSH2 0x3A JUMP JUMPDEST STOP JUMPDEST PUSH32 0xD9F69314E834CD1FCB9F6AF7A4FA384C01B253B675920042AB32273DE670590 PUSH3 0x249F0 PUSH1 0x40 MLOAD PUSH2 0x6C SWAP2 SWAP1 PUSH2 0x2BA JUMP JUMPDEST PUSH1 0x40 MLOAD DUP1 SWAP2 SUB SWAP1 LOG1 PUSH1 0x40 MLOAD DUP1 PUSH1 0x40 ADD PUSH1 0x40 MSTORE DUP1 PUSH1 0x40 MLOAD DUP1 PUSH1 0x40 ADD PUSH1 0x40 MSTORE DUP1 PUSH1 0x5 DUP2 MSTORE PUSH1 0x20 ADD PUSH32 0x696E74656C000000000000000000000000000000000000000000000000000000 DUP2 MSTORE POP DUP2 MSTORE PUSH1 0x20 ADD PUSH1 0x10 DUP2 MSTORE POP PUSH1 0x40 MLOAD PUSH2 0xCC SWAP2 SWAP1 PUSH2 0x3E0 JUMP JUMPDEST PUSH1 0x40 MLOAD DUP1 SWAP2 SUB SWAP1 KECCAK256 PUSH1 0x0 PUSH1 0x2 DUP2 GT ISZERO PUSH2 0xE8 JUMPI PUSH2 0xE7 PUSH2 0x3F7 JUMP JUMPDEST JUMPDEST PUSH3 0x186A0 PUSH32 0xB7CB3E49B4EC09A148706BEDE73DCE11F05491DC27EED607696709426603D7FF PUSH1 0x40 MLOAD PUSH2 0x119 SWAP1 PUSH2 0x472 JUMP JUMPDEST PUSH1 0x40 MLOAD DUP1 SWAP2 SUB SWAP1 LOG4 PUSH32 0xDB5314170881FA5FDD3E9921DBC50BD6B3D983B71F6866474ED235614E4ADA9E PUSH1 0x1 PUSH1 0x40 MLOAD PUSH2 0x151 SWAP2 SWAP1 PUSH2 0x526 JUMP JUMPDEST PUSH1 0x40 MLOAD DUP1 SWAP2 SUB SWAP1 LOG1 PUSH32 0xB95D0A0E8E53D9EF8AA9399CBB4785E542510399B340ED430CC84AE3555ADB46 PUSH1 0x0 PUSH1 0x40 MLOAD DUP1 PUSH1 0x40 ADD PUSH1 0x40 MSTORE DUP1 PUSH1 0x40 MLOAD DUP1 PUSH1 0x40 ADD PUSH1 0x40 MSTORE DUP1 PUSH1 0x2 DUP2 MSTORE PUSH1 0x20 ADD PUSH32 0x6870000000000000000000000000000000000000000000000000000000000000 DUP2 MSTORE POP DUP2 MSTORE PUSH1 0x20 ADD PUSH1 0x8 DUP2 MSTORE POP PUSH1 0x80 PUSH1 0x40 MLOAD PUSH2 0x1D8 SWAP4 SWAP3 SWAP2 SWAP1 PUSH2 0x625 JUMP JUMPDEST PUSH1 0x40 MLOAD DUP1 SWAP2 SUB SWAP1 LOG1 PUSH32 0xF2A75FE4D7CD25BBE769D566FBF5A20C67283479AB765AE5857C5BA963305B55 PUSH1 0x40 MLOAD PUSH1 0x40 MLOAD DUP1 SWAP2 SUB SWAP1 LOG1 JUMP JUMPDEST PUSH1 0x0 DUP3 DUP3 MSTORE PUSH1 0x20 DUP3 ADD SWAP1 POP SWAP3 SWAP2 POP POP JUMP JUMPDEST PUSH32 0x4870000000000000000000000000000000000000000000000000000000000000 PUSH1 0x0 DUP3 ADD MSTORE POP JUMP JUMPDEST PUSH1 0x0 PUSH2 0x255 PUSH1 0x2 DUP4 PUSH2 0x20E JUMP JUMPDEST SWAP2 POP PUSH2 0x260 DUP3 PUSH2 0x21F JUMP JUMPDEST PUSH1 0x20 DUP3 ADD SWAP1 POP SWAP2 SWAP1 POP JUMP JUMPDEST PUSH1 0x0 DUP2 SWAP1 POP SWAP2 SWAP1 POP JUMP JUMPDEST PUSH1 0x0 DUP2 SWAP1 POP SWAP2 SWAP1 POP JUMP JUMPDEST PUSH1 0x0 DUP2 SWAP1 POP SWAP2 SWAP1 POP JUMP JUMPDEST PUSH1 0x0 PUSH2 0x2A4 PUSH2 0x29F PUSH2 0x29A DUP5 PUSH2 0x26B JUMP JUMPDEST PUSH2 0x27F JUMP JUMPDEST PUSH2 0x275 JUMP JUMPDEST SWAP1 POP SWAP2 SWAP1 POP JUMP JUMPDEST PUSH2 0x2B4 DUP2 PUSH2 0x289 JUMP JUMPDEST DUP3 MSTORE POP POP JUMP JUMPDEST PUSH1 0x0 PUSH1 0x40 DUP3 ADD SWAP1 POP DUP2 DUP2 SUB PUSH1 0x0 DUP4 ADD MSTORE PUSH2 0x2D3 DUP2 PUSH2 0x248 JUMP JUMPDEST SWAP1 POP PUSH2 0x2E2 PUSH1 0x20 DUP4 ADD DUP5 PUSH2 0x2AB JUMP JUMPDEST SWAP3 SWAP2 POP POP JUMP JUMPDEST PUSH1 0x0 DUP2 MLOAD SWAP1 POP SWAP2 SWAP1 POP JUMP JUMPDEST PUSH1 0x0 DUP2 SWAP1 POP SWAP3 SWAP2 POP POP JUMP JUMPDEST PUSH1 0x0 JUMPDEST DUP4 DUP2 LT ISZERO PUSH2 0x31C JUMPI DUP1 DUP3 ADD MLOAD DUP2 DUP5 ADD MSTORE PUSH1 0x20 DUP2 ADD SWAP1 POP PUSH2 0x301 JUMP JUMPDEST PUSH1 0x0 DUP5 DUP5 ADD MSTORE POP POP POP POP JUMP JUMPDEST PUSH1 0x0 PUSH1 0x1F NOT PUSH1 0x1F DUP4 ADD AND SWAP1 POP SWAP2 SWAP1 POP JUMP JUMPDEST PUSH1 0x0 PUSH2 0x344 DUP3 PUSH2 0x2E8 JUMP JUMPDEST PUSH2 0x34E DUP2 DUP6 PUSH2 0x2F3 JUMP JUMPDEST SWAP4 POP PUSH2 0x35E DUP2 DUP6 PUSH1 0x20 DUP7 ADD PUSH2 0x2FE JUMP JUMPDEST PUSH2 0x367 DUP2 PUSH2 0x328 JUMP JUMPDEST DUP5 ADD SWAP2 POP POP SWAP3 SWAP2 POP POP JUMP JUMPDEST PUSH1 0x0 PUSH2 0x37E DUP4 DUP4 PUSH2 0x339 JUMP JUMPDEST SWAP1 POP SWAP3 SWAP2 POP POP JUMP JUMPDEST PUSH2 0x38F DUP2 PUSH2 0x275 JUMP JUMPDEST DUP3 MSTORE POP POP JUMP JUMPDEST PUSH1 0x0 PUSH2 0x3A1 DUP4 DUP4 PUSH2 0x386 JUMP JUMPDEST PUSH1 0x20 DUP4 ADD SWAP1 POP SWAP3 SWAP2 POP POP JUMP JUMPDEST PUSH1 0x0 DUP1 DUP4 ADD PUSH1 0x0 DUP4 ADD MLOAD PUSH2 0x3C1 DUP6 DUP3 PUSH2 0x372 JUMP JUMPDEST SWAP5 POP POP PUSH1 0x20 DUP4 ADD MLOAD PUSH2 0x3D3 DUP6 DUP3 PUSH2 0x395 JUMP JUMPDEST SWAP5 POP POP DUP4 SWAP2 POP POP SWAP3 SWAP2 POP POP JUMP JUMPDEST PUSH1 0x0 PUSH2 0x3EC DUP3 DUP5 PUSH2 0x3AD JUMP JUMPDEST SWAP2 POP DUP2 SWAP1 POP SWAP3 SWAP2 POP POP JUMP JUMPDEST PUSH32 0x4E487B7100000000000000000000000000000000000000000000000000000000 PUSH1 0x0 MSTORE PUSH1 0x21 PUSH1 0x4 MSTORE PUSH1 0x24 PUSH1 0x0 REVERT JUMPDEST PUSH32 0x64656C6C00000000000000000000000000000000000000000000000000000000 PUSH1 0x0 DUP3 ADD MSTORE POP JUMP JUMPDEST PUSH1 0x0 PUSH2 0x45C PUSH1 0x4 DUP4 PUSH2 0x20E JUMP JUMPDEST SWAP2 POP PUSH2 0x467 DUP3 PUSH2 0x426 JUMP JUMPDEST PUSH1 0x20 DUP3 ADD SWAP1 POP SWAP2 SWAP1 POP JUMP JUMPDEST PUSH1 0x0 PUSH1 0x20 DUP3 ADD SWAP1 POP DUP2 DUP2 SUB PUSH1 0x0 DUP4 ADD MSTORE PUSH2 0x48B DUP2 PUSH2 0x44F JUMP JUMPDEST SWAP1 POP SWAP2 SWAP1 POP JUMP JUMPDEST PUSH32 0x4C656E6F766F0000000000000000000000000000000000000000000000000000 PUSH1 0x0 DUP3 ADD MSTORE POP JUMP JUMPDEST PUSH1 0x0 PUSH2 0x4C8 PUSH1 0x6 DUP4 PUSH2 0x20E JUMP JUMPDEST SWAP2 POP PUSH2 0x4D3 DUP3 PUSH2 0x492 JUMP JUMPDEST PUSH1 0x20 DUP3 ADD SWAP1 POP SWAP2 SWAP1 POP JUMP JUMPDEST PUSH1 0x3 DUP2 LT PUSH2 0x4EF JUMPI PUSH2 0x4EE PUSH2 0x3F7 JUMP JUMPDEST JUMPDEST POP JUMP JUMPDEST PUSH1 0x0 DUP2 SWAP1 POP PUSH2 0x500 DUP3 PUSH2 0x4DE JUMP JUMPDEST SWAP2 SWAP1 POP JUMP JUMPDEST PUSH1 0x0 PUSH2 0x510 DUP3 PUSH2 0x4F2 JUMP JUMPDEST SWAP1 POP SWAP2 SWAP1 POP JUMP JUMPDEST PUSH2 0x520 DUP2 PUSH2 0x505 JUMP JUMPDEST DUP3 MSTORE POP POP JUMP JUMPDEST PUSH1 0x0 PUSH1 0x40 DUP3 ADD SWAP1 POP DUP2 DUP2 SUB PUSH1 0x0 DUP4 ADD MSTORE PUSH2 0x53F DUP2 PUSH2 0x4BB JUMP JUMPDEST SWAP1 POP PUSH2 0x54E PUSH1 0x20 DUP4 ADD DUP5 PUSH2 0x517 JUMP JUMPDEST SWAP3 SWAP2 POP POP JUMP JUMPDEST PUSH1 0x0 DUP3 DUP3 MSTORE PUSH1 0x20 DUP3 ADD SWAP1 POP SWAP3 SWAP2 POP POP JUMP JUMPDEST PUSH1 0x0 PUSH2 0x570 DUP3 PUSH2 0x2E8 JUMP JUMPDEST PUSH2 0x57A DUP2 DUP6 PUSH2 0x554 JUMP JUMPDEST SWAP4 POP PUSH2 0x58A DUP2 DUP6 PUSH1 0x20 DUP7 ADD PUSH2 0x2FE JUMP JUMPDEST PUSH2 0x593 DUP2 PUSH2 0x328 JUMP JUMPDEST DUP5 ADD SWAP2 POP POP SWAP3 SWAP2 POP POP JUMP JUMPDEST PUSH2 0x5A7 DUP2 PUSH2 0x275 JUMP JUMPDEST DUP3 MSTORE POP POP JUMP JUMPDEST PUSH1 0x0 PUSH1 0x40 DUP4 ADD PUSH1 0x0 DUP4 ADD MLOAD DUP5 DUP3 SUB PUSH1 0x0 DUP7 ADD MSTORE PUSH2 0x5CA DUP3 DUP3 PUSH2 0x565 JUMP JUMPDEST SWAP2 POP POP PUSH1 0x20 DUP4 ADD MLOAD PUSH2 0x5DF PUSH1 0x20 DUP7 ADD DUP3 PUSH2 0x59E JUMP JUMPDEST POP DUP1 SWAP2 POP POP SWAP3 SWAP2 POP POP JUMP JUMPDEST PUSH1 0x0 DUP2 SWAP1 POP SWAP2 SWAP1 POP JUMP JUMPDEST PUSH1 0x0 PUSH2 0x60F PUSH2 0x60A PUSH2 0x605 DUP5 PUSH2 0x5EA JUMP JUMPDEST PUSH2 0x27F JUMP JUMPDEST PUSH2 0x275 JUMP JUMPDEST SWAP1 POP SWAP2 SWAP1 POP JUMP JUMPDEST PUSH2 0x61F DUP2 PUSH2 0x5F4 JUMP JUMPDEST DUP3 MSTORE POP POP JUMP JUMPDEST PUSH1 0x0 PUSH1 0x60 DUP3 ADD SWAP1 POP PUSH2 0x63A PUSH1 0x0 DUP4 ADD DUP7 PUSH2 0x517 JUMP JUMPDEST DUP2 DUP2 SUB PUSH1 0x20 DUP4 ADD MSTORE PUSH2 0x64C DUP2 DUP6 PUSH2 0x5AD JUMP JUMPDEST SWAP1 POP PUSH2 0x65B PUSH1 0x40 DUP4 ADD DUP5 PUSH2 0x616 JUMP JUMPDEST SWAP5 SWAP4 POP POP POP POP JUMP INVALID LOG2 PUSH5 0x6970667358 0x22 SLT KECCAK256 0xA5 STOP MOD 0x2E DUP11 0xAD 0xDB DUP1 0xC0 CALLDATASIZE 0xCA JUMPDEST EXP 0xD4 PUSH4 0xF0846F6A 0xEB 0xBE DUP13 0xD5 0x28 CALLDATALOAD 0xFC PUSH23 0xA9B3873C2B64736F6C6343000812003300000000000000 "
		},
		"gasEstimates": {
			"creation": {
				"codeDepositCost": "337800",
				"executionCost": "374",
				"totalCost": "338174"
			},
			"external": {
				"emits()": "infinite"
			}
		},
		"methodIdentifiers": {
			"emits()": "f6fac9f5"
		}
	},
	"abi": [
		{
			"anonymous": false,
			"inputs": [],
			"name": "empty",
			"type": "event"
		},
		{
			"anonymous": false,
			"inputs": [
				{
					"indexed": false,
					"internalType": "enum Events.Quality",
					"name": "quality",
					"type": "uint8"
				},
				{
					"components": [
						{
							"internalType": "string",
							"name": "microprocessor",
							"type": "string"
						},
						{
							"internalType": "uint256",
							"name": "RAM",
							"type": "uint256"
						}
					],
					"indexed": false,
					"internalType": "struct Events.specs",
					"name": "spec",
					"type": "tuple"
				},
				{
					"indexed": false,
					"internalType": "uint256",
					"name": "ROM",
					"type": "uint256"
				}
			],
			"name": "m",
			"type": "event"
		},
		{
			"anonymous": false,
			"inputs": [
				{
					"indexed": false,
					"internalType": "string",
					"name": "",
					"type": "string"
				},
				{
					"indexed": false,
					"internalType": "enum Events.Quality",
					"name": "",
					"type": "uint8"
				}
			],
			"name": "mu",
			"type": "event"
		},
		{
			"anonymous": false,
			"inputs": [
				{
					"indexed": false,
					"internalType": "string",
					"name": "laptop",
					"type": "string"
				},
				{
					"indexed": false,
					"internalType": "uint256",
					"name": "price",
					"type": "uint256"
				}
			],
			"name": "multi",
			"type": "event"
		},
		{
			"anonymous": false,
			"inputs": [
				{
					"indexed": false,
					"internalType": "string",
					"name": "laptop",
					"type": "string"
				},
				{
					"indexed": true,
					"internalType": "uint256",
					"name": "price",
					"type": "uint256"
				},
				{
					"indexed": true,
					"internalType": "enum Events.Quality",
					"name": "q",
					"type": "uint8"
				},
				{
					"components": [
						{
							"internalType": "string",
							"name": "microprocessor",
							"type": "string"
						},
						{
							"internalType": "uint256",
							"name": "RAM",
							"type": "uint256"
						}
					],
					"indexed": true,
					"internalType": "struct Events.specs",
					"name": "s",
					"type": "tuple"
				}
			],
			"name": "multiple",
			"type": "event"
		},
		{
			"inputs": [],
			"name": "emits",
			"outputs": [],
			"stateMutability": "nonpayable",
			"type": "function"
		}
	]
}