{
	"data": {
		"bytecode": {
			"linkReferences": {},
			"object": "608060405234801561001057600080fd5b506109c0806100206000396000f3fe608060405234801561001057600080fd5b50600436106100365760003560e01c80631de21b761461003b57806333f3b2a41461005a575b600080fd5b610043610076565b6040516100519291906102c4565b60405180910390f35b610074600480360381019061006f9190610469565b610110565b005b6000806000018054610087906104f4565b80601f01602080910402602001604051908101604052809291908181526020018280546100b3906104f4565b80156101005780601f106100d557610100808354040283529160200191610100565b820191906000526020600020905b8154815290600101906020018083116100e357829003601f168201915b5050505050908060010154905082565b60008060405180604001604052908160008201805461012e906104f4565b80601f016020809104026020016040519081016040528092919081815260200182805461015a906104f4565b80156101a75780601f1061017c576101008083540402835291602001916101a7565b820191906000526020600020905b81548152906001019060200180831161018a57829003601f168201915b505050505081526020016001820154815250509050826000800190816101cd91906106d1565b50816000600101819055507f5958bc72d14e22344b431a5f576ce751b30507084565b740437b34914451f767816000424360405161020e9493929190610937565b60405180910390a1505050565b600081519050919050565b600082825260208201905092915050565b60005b8381101561025557808201518184015260208101905061023a565b60008484015250505050565b6000601f19601f8301169050919050565b600061027d8261021b565b6102878185610226565b9350610297818560208601610237565b6102a081610261565b840191505092915050565b6000819050919050565b6102be816102ab565b82525050565b600060408201905081810360008301526102de8185610272565b90506102ed60208301846102b5565b9392505050565b6000604051905090565b600080fd5b600080fd5b600080fd5b600080fd5b7f4e487b7100000000000000000000000000000000000000000000000000000000600052604160045260246000fd5b61034a82610261565b810181811067ffffffffffffffff8211171561036957610368610312565b5b80604052505050565b600061037c6102f4565b90506103888282610341565b919050565b600067ffffffffffffffff8211156103a8576103a7610312565b5b6103b182610261565b9050602081019050919050565b82818337600083830152505050565b60006103e06103db8461038d565b610372565b9050828152602081018484840111156103fc576103fb61030d565b5b6104078482856103be565b509392505050565b600082601f83011261042457610423610308565b5b81356104348482602086016103cd565b91505092915050565b610446816102ab565b811461045157600080fd5b50565b6000813590506104638161043d565b92915050565b600080604083850312156104805761047f6102fe565b5b600083013567ffffffffffffffff81111561049e5761049d610303565b5b6104aa8582860161040f565b92505060206104bb85828601610454565b9150509250929050565b7f4e487b7100000000000000000000000000000000000000000000000000000000600052602260045260246000fd5b6000600282049050600182168061050c57607f821691505b60208210810361051f5761051e6104c5565b5b50919050565b60008190508160005260206000209050919050565b60006020601f8301049050919050565b600082821b905092915050565b6000600883026105877fffffffffffffffffffffffffffffffffffffffffffffffffffffffffffffffff8261054a565b610591868361054a565b95508019841693508086168417925050509392505050565b6000819050919050565b60006105ce6105c96105c4846102ab565b6105a9565b6102ab565b9050919050565b6000819050919050565b6105e8836105b3565b6105fc6105f4826105d5565b848454610557565b825550505050565b600090565b610611610604565b61061c8184846105df565b505050565b5b8181101561064057610635600082610609565b600181019050610622565b5050565b601f8211156106855761065681610525565b61065f8461053a565b8101602085101561066e578190505b61068261067a8561053a565b830182610621565b50505b505050565b600082821c905092915050565b60006106a86000198460080261068a565b1980831691505092915050565b60006106c18383610697565b9150826002028217905092915050565b6106da8261021b565b67ffffffffffffffff8111156106f3576106f2610312565b5b6106fd82546104f4565b610708828285610644565b600060209050601f83116001811461073b5760008415610729578287015190505b61073385826106b5565b86555061079b565b601f19841661074986610525565b60005b828110156107715784890151825560018201915060208501945060208101905061074c565b8683101561078e578489015161078a601f891682610697565b8355505b6001600288020188555050505b505050505050565b600082825260208201905092915050565b60006107bf8261021b565b6107c981856107a3565b93506107d9818560208601610237565b6107e281610261565b840191505092915050565b6107f6816102ab565b82525050565b6000604083016000830151848203600086015261081982826107b4565b915050602083015161082e60208601826107ed565b508091505092915050565b60008154610846816104f4565b61085081866107a3565b9450600182166000811461086b5760018114610881576108b4565b60ff1983168652811515602002860193506108b4565b61088a85610525565b60005b838110156108ac5781548189015260018201915060208101905061088d565b808801955050505b50505092915050565b60008160001c9050919050565b6000819050919050565b60006108e76108e2836108bd565b6108ca565b9050919050565b6000604083016000808401858303600087015261090b8382610839565b9250506001840154905061091e816108d4565b61092b60208701826107ed565b50819250505092915050565b6000608082019050818103600083015261095181876107fc565b9050818103602083015261096581866108ee565b905061097460408301856102b5565b61098160608301846102b5565b9594505050505056fea2646970667358221220dc67458a4a93a1d6af53cf3148d90be3c15941e4449f7a1150a23fa72cd79cf164736f6c63430008120033",
			"opcodes": "PUSH1 0x80 PUSH1 0x40 MSTORE CALLVALUE DUP1 ISZERO PUSH2 0x10 JUMPI PUSH1 0x0 DUP1 REVERT JUMPDEST POP PUSH2 0x9C0 DUP1 PUSH2 0x20 PUSH1 0x0 CODECOPY PUSH1 0x0 RETURN INVALID PUSH1 0x80 PUSH1 0x40 MSTORE CALLVALUE DUP1 ISZERO PUSH2 0x10 JUMPI PUSH1 0x0 DUP1 REVERT JUMPDEST POP PUSH1 0x4 CALLDATASIZE LT PUSH2 0x36 JUMPI PUSH1 0x0 CALLDATALOAD PUSH1 0xE0 SHR DUP1 PUSH4 0x1DE21B76 EQ PUSH2 0x3B JUMPI DUP1 PUSH4 0x33F3B2A4 EQ PUSH2 0x5A JUMPI JUMPDEST PUSH1 0x0 DUP1 REVERT JUMPDEST PUSH2 0x43 PUSH2 0x76 JUMP JUMPDEST PUSH1 0x40 MLOAD PUSH2 0x51 SWAP3 SWAP2 SWAP1 PUSH2 0x2C4 JUMP JUMPDEST PUSH1 0x40 MLOAD DUP1 SWAP2 SUB SWAP1 RETURN JUMPDEST PUSH2 0x74 PUSH1 0x4 DUP1 CALLDATASIZE SUB DUP2 ADD SWAP1 PUSH2 0x6F SWAP2 SWAP1 PUSH2 0x469 JUMP JUMPDEST PUSH2 0x110 JUMP JUMPDEST STOP JUMPDEST PUSH1 0x0 DUP1 PUSH1 0x0 ADD DUP1 SLOAD PUSH2 0x87 SWAP1 PUSH2 0x4F4 JUMP JUMPDEST DUP1 PUSH1 0x1F ADD PUSH1 0x20 DUP1 SWAP2 DIV MUL PUSH1 0x20 ADD PUSH1 0x40 MLOAD SWAP1 DUP2 ADD PUSH1 0x40 MSTORE DUP1 SWAP3 SWAP2 SWAP1 DUP2 DUP2 MSTORE PUSH1 0x20 ADD DUP3 DUP1 SLOAD PUSH2 0xB3 SWAP1 PUSH2 0x4F4 JUMP JUMPDEST DUP1 ISZERO PUSH2 0x100 JUMPI DUP1 PUSH1 0x1F LT PUSH2 0xD5 JUMPI PUSH2 0x100 DUP1 DUP4 SLOAD DIV MUL DUP4 MSTORE SWAP2 PUSH1 0x20 ADD SWAP2 PUSH2 0x100 JUMP JUMPDEST DUP3 ADD SWAP2 SWAP1 PUSH1 0x0 MSTORE PUSH1 0x20 PUSH1 0x0 KECCAK256 SWAP1 JUMPDEST DUP2 SLOAD DUP2 MSTORE SWAP1 PUSH1 0x1 ADD SWAP1 PUSH1 0x20 ADD DUP1 DUP4 GT PUSH2 0xE3 JUMPI DUP3 SWAP1 SUB PUSH1 0x1F AND DUP3 ADD SWAP2 JUMPDEST POP POP POP POP POP SWAP1 DUP1 PUSH1 0x1 ADD SLOAD SWAP1 POP DUP3 JUMP JUMPDEST PUSH1 0x0 DUP1 PUSH1 0x40 MLOAD DUP1 PUSH1 0x40 ADD PUSH1 0x40 MSTORE SWAP1 DUP2 PUSH1 0x0 DUP3 ADD DUP1 SLOAD PUSH2 0x12E SWAP1 PUSH2 0x4F4 JUMP JUMPDEST DUP1 PUSH1 0x1F ADD PUSH1 0x20 DUP1 SWAP2 DIV MUL PUSH1 0x20 ADD PUSH1 0x40 MLOAD SWAP1 DUP2 ADD PUSH1 0x40 MSTORE DUP1 SWAP3 SWAP2 SWAP1 DUP2 DUP2 MSTORE PUSH1 0x20 ADD DUP3 DUP1 SLOAD PUSH2 0x15A SWAP1 PUSH2 0x4F4 JUMP JUMPDEST DUP1 ISZERO PUSH2 0x1A7 JUMPI DUP1 PUSH1 0x1F LT PUSH2 0x17C JUMPI PUSH2 0x100 DUP1 DUP4 SLOAD DIV MUL DUP4 MSTORE SWAP2 PUSH1 0x20 ADD SWAP2 PUSH2 0x1A7 JUMP JUMPDEST DUP3 ADD SWAP2 SWAP1 PUSH1 0x0 MSTORE PUSH1 0x20 PUSH1 0x0 KECCAK256 SWAP1 JUMPDEST DUP2 SLOAD DUP2 MSTORE SWAP1 PUSH1 0x1 ADD SWAP1 PUSH1 0x20 ADD DUP1 DUP4 GT PUSH2 0x18A JUMPI DUP3 SWAP1 SUB PUSH1 0x1F AND DUP3 ADD SWAP2 JUMPDEST POP POP POP POP POP DUP2 MSTORE PUSH1 0x20 ADD PUSH1 0x1 DUP3 ADD SLOAD DUP2 MSTORE POP POP SWAP1 POP DUP3 PUSH1 0x0 DUP1 ADD SWAP1 DUP2 PUSH2 0x1CD SWAP2 SWAP1 PUSH2 0x6D1 JUMP JUMPDEST POP DUP2 PUSH1 0x0 PUSH1 0x1 ADD DUP2 SWAP1 SSTORE POP PUSH32 0x5958BC72D14E22344B431A5F576CE751B30507084565B740437B34914451F767 DUP2 PUSH1 0x0 TIMESTAMP NUMBER PUSH1 0x40 MLOAD PUSH2 0x20E SWAP5 SWAP4 SWAP3 SWAP2 SWAP1 PUSH2 0x937 JUMP JUMPDEST PUSH1 0x40 MLOAD DUP1 SWAP2 SUB SWAP1 LOG1 POP POP POP JUMP JUMPDEST PUSH1 0x0 DUP2 MLOAD SWAP1 POP SWAP2 SWAP1 POP JUMP JUMPDEST PUSH1 0x0 DUP3 DUP3 MSTORE PUSH1 0x20 DUP3 ADD SWAP1 POP SWAP3 SWAP2 POP POP JUMP JUMPDEST PUSH1 0x0 JUMPDEST DUP4 DUP2 LT ISZERO PUSH2 0x255 JUMPI DUP1 DUP3 ADD MLOAD DUP2 DUP5 ADD MSTORE PUSH1 0x20 DUP2 ADD SWAP1 POP PUSH2 0x23A JUMP JUMPDEST PUSH1 0x0 DUP5 DUP5 ADD MSTORE POP POP POP POP JUMP JUMPDEST PUSH1 0x0 PUSH1 0x1F NOT PUSH1 0x1F DUP4 ADD AND SWAP1 POP SWAP2 SWAP1 POP JUMP JUMPDEST PUSH1 0x0 PUSH2 0x27D DUP3 PUSH2 0x21B JUMP JUMPDEST PUSH2 0x287 DUP2 DUP6 PUSH2 0x226 JUMP JUMPDEST SWAP4 POP PUSH2 0x297 DUP2 DUP6 PUSH1 0x20 DUP7 ADD PUSH2 0x237 JUMP JUMPDEST PUSH2 0x2A0 DUP2 PUSH2 0x261 JUMP JUMPDEST DUP5 ADD SWAP2 POP POP SWAP3 SWAP2 POP POP JUMP JUMPDEST PUSH1 0x0 DUP2 SWAP1 POP SWAP2 SWAP1 POP JUMP JUMPDEST PUSH2 0x2BE DUP2 PUSH2 0x2AB JUMP JUMPDEST DUP3 MSTORE POP POP JUMP JUMPDEST PUSH1 0x0 PUSH1 0x40 DUP3 ADD SWAP1 POP DUP2 DUP2 SUB PUSH1 0x0 DUP4 ADD MSTORE PUSH2 0x2DE DUP2 DUP6 PUSH2 0x272 JUMP JUMPDEST SWAP1 POP PUSH2 0x2ED PUSH1 0x20 DUP4 ADD DUP5 PUSH2 0x2B5 JUMP JUMPDEST SWAP4 SWAP3 POP POP POP JUMP JUMPDEST PUSH1 0x0 PUSH1 0x40 MLOAD SWAP1 POP SWAP1 JUMP JUMPDEST PUSH1 0x0 DUP1 REVERT JUMPDEST PUSH1 0x0 DUP1 REVERT JUMPDEST PUSH1 0x0 DUP1 REVERT JUMPDEST PUSH1 0x0 DUP1 REVERT JUMPDEST PUSH32 0x4E487B7100000000000000000000000000000000000000000000000000000000 PUSH1 0x0 MSTORE PUSH1 0x41 PUSH1 0x4 MSTORE PUSH1 0x24 PUSH1 0x0 REVERT JUMPDEST PUSH2 0x34A DUP3 PUSH2 0x261 JUMP JUMPDEST DUP2 ADD DUP2 DUP2 LT PUSH8 0xFFFFFFFFFFFFFFFF DUP3 GT OR ISZERO PUSH2 0x369 JUMPI PUSH2 0x368 PUSH2 0x312 JUMP JUMPDEST JUMPDEST DUP1 PUSH1 0x40 MSTORE POP POP POP JUMP JUMPDEST PUSH1 0x0 PUSH2 0x37C PUSH2 0x2F4 JUMP JUMPDEST SWAP1 POP PUSH2 0x388 DUP3 DUP3 PUSH2 0x341 JUMP JUMPDEST SWAP2 SWAP1 POP JUMP JUMPDEST PUSH1 0x0 PUSH8 0xFFFFFFFFFFFFFFFF DUP3 GT ISZERO PUSH2 0x3A8 JUMPI PUSH2 0x3A7 PUSH2 0x312 JUMP JUMPDEST JUMPDEST PUSH2 0x3B1 DUP3 PUSH2 0x261 JUMP JUMPDEST SWAP1 POP PUSH1 0x20 DUP2 ADD SWAP1 POP SWAP2 SWAP1 POP JUMP JUMPDEST DUP3 DUP2 DUP4 CALLDATACOPY PUSH1 0x0 DUP4 DUP4 ADD MSTORE POP POP POP JUMP JUMPDEST PUSH1 0x0 PUSH2 0x3E0 PUSH2 0x3DB DUP5 PUSH2 0x38D JUMP JUMPDEST PUSH2 0x372 JUMP JUMPDEST SWAP1 POP DUP3 DUP2 MSTORE PUSH1 0x20 DUP2 ADD DUP5 DUP5 DUP5 ADD GT ISZERO PUSH2 0x3FC JUMPI PUSH2 0x3FB PUSH2 0x30D JUMP JUMPDEST JUMPDEST PUSH2 0x407 DUP5 DUP3 DUP6 PUSH2 0x3BE JUMP JUMPDEST POP SWAP4 SWAP3 POP POP POP JUMP JUMPDEST PUSH1 0x0 DUP3 PUSH1 0x1F DUP4 ADD SLT PUSH2 0x424 JUMPI PUSH2 0x423 PUSH2 0x308 JUMP JUMPDEST JUMPDEST DUP2 CALLDATALOAD PUSH2 0x434 DUP5 DUP3 PUSH1 0x20 DUP7 ADD PUSH2 0x3CD JUMP JUMPDEST SWAP2 POP POP SWAP3 SWAP2 POP POP JUMP JUMPDEST PUSH2 0x446 DUP2 PUSH2 0x2AB JUMP JUMPDEST DUP2 EQ PUSH2 0x451 JUMPI PUSH1 0x0 DUP1 REVERT JUMPDEST POP JUMP JUMPDEST PUSH1 0x0 DUP2 CALLDATALOAD SWAP1 POP PUSH2 0x463 DUP2 PUSH2 0x43D JUMP JUMPDEST SWAP3 SWAP2 POP POP JUMP JUMPDEST PUSH1 0x0 DUP1 PUSH1 0x40 DUP4 DUP6 SUB SLT ISZERO PUSH2 0x480 JUMPI PUSH2 0x47F PUSH2 0x2FE JUMP JUMPDEST JUMPDEST PUSH1 0x0 DUP4 ADD CALLDATALOAD PUSH8 0xFFFFFFFFFFFFFFFF DUP2 GT ISZERO PUSH2 0x49E JUMPI PUSH2 0x49D PUSH2 0x303 JUMP JUMPDEST JUMPDEST PUSH2 0x4AA DUP6 DUP3 DUP7 ADD PUSH2 0x40F JUMP JUMPDEST SWAP3 POP POP PUSH1 0x20 PUSH2 0x4BB DUP6 DUP3 DUP7 ADD PUSH2 0x454 JUMP JUMPDEST SWAP2 POP POP SWAP3 POP SWAP3 SWAP1 POP JUMP JUMPDEST PUSH32 0x4E487B7100000000000000000000000000000000000000000000000000000000 PUSH1 0x0 MSTORE PUSH1 0x22 PUSH1 0x4 MSTORE PUSH1 0x24 PUSH1 0x0 REVERT JUMPDEST PUSH1 0x0 PUSH1 0x2 DUP3 DIV SWAP1 POP PUSH1 0x1 DUP3 AND DUP1 PUSH2 0x50C JUMPI PUSH1 0x7F DUP3 AND SWAP2 POP JUMPDEST PUSH1 0x20 DUP3 LT DUP2 SUB PUSH2 0x51F JUMPI PUSH2 0x51E PUSH2 0x4C5 JUMP JUMPDEST JUMPDEST POP SWAP2 SWAP1 POP JUMP JUMPDEST PUSH1 0x0 DUP2 SWAP1 POP DUP2 PUSH1 0x0 MSTORE PUSH1 0x20 PUSH1 0x0 KECCAK256 SWAP1 POP SWAP2 SWAP1 POP JUMP JUMPDEST PUSH1 0x0 PUSH1 0x20 PUSH1 0x1F DUP4 ADD DIV SWAP1 POP SWAP2 SWAP1 POP JUMP JUMPDEST PUSH1 0x0 DUP3 DUP3 SHL SWAP1 POP SWAP3 SWAP2 POP POP JUMP JUMPDEST PUSH1 0x0 PUSH1 0x8 DUP4 MUL PUSH2 0x587 PUSH32 0xFFFFFFFFFFFFFFFFFFFFFFFFFFFFFFFFFFFFFFFFFFFFFFFFFFFFFFFFFFFFFFFF DUP3 PUSH2 0x54A JUMP JUMPDEST PUSH2 0x591 DUP7 DUP4 PUSH2 0x54A JUMP JUMPDEST SWAP6 POP DUP1 NOT DUP5 AND SWAP4 POP DUP1 DUP7 AND DUP5 OR SWAP3 POP POP POP SWAP4 SWAP3 POP POP POP JUMP JUMPDEST PUSH1 0x0 DUP2 SWAP1 POP SWAP2 SWAP1 POP JUMP JUMPDEST PUSH1 0x0 PUSH2 0x5CE PUSH2 0x5C9 PUSH2 0x5C4 DUP5 PUSH2 0x2AB JUMP JUMPDEST PUSH2 0x5A9 JUMP JUMPDEST PUSH2 0x2AB JUMP JUMPDEST SWAP1 POP SWAP2 SWAP1 POP JUMP JUMPDEST PUSH1 0x0 DUP2 SWAP1 POP SWAP2 SWAP1 POP JUMP JUMPDEST PUSH2 0x5E8 DUP4 PUSH2 0x5B3 JUMP JUMPDEST PUSH2 0x5FC PUSH2 0x5F4 DUP3 PUSH2 0x5D5 JUMP JUMPDEST DUP5 DUP5 SLOAD PUSH2 0x557 JUMP JUMPDEST DUP3 SSTORE POP POP POP POP JUMP JUMPDEST PUSH1 0x0 SWAP1 JUMP JUMPDEST PUSH2 0x611 PUSH2 0x604 JUMP JUMPDEST PUSH2 0x61C DUP2 DUP5 DUP5 PUSH2 0x5DF JUMP JUMPDEST POP POP POP JUMP JUMPDEST JUMPDEST DUP2 DUP2 LT ISZERO PUSH2 0x640 JUMPI PUSH2 0x635 PUSH1 0x0 DUP3 PUSH2 0x609 JUMP JUMPDEST PUSH1 0x1 DUP2 ADD SWAP1 POP PUSH2 0x622 JUMP JUMPDEST POP POP JUMP JUMPDEST PUSH1 0x1F DUP3 GT ISZERO PUSH2 0x685 JUMPI PUSH2 0x656 DUP2 PUSH2 0x525 JUMP JUMPDEST PUSH2 0x65F DUP5 PUSH2 0x53A JUMP JUMPDEST DUP2 ADD PUSH1 0x20 DUP6 LT ISZERO PUSH2 0x66E JUMPI DUP2 SWAP1 POP JUMPDEST PUSH2 0x682 PUSH2 0x67A DUP6 PUSH2 0x53A JUMP JUMPDEST DUP4 ADD DUP3 PUSH2 0x621 JUMP JUMPDEST POP POP JUMPDEST POP POP POP JUMP JUMPDEST PUSH1 0x0 DUP3 DUP3 SHR SWAP1 POP SWAP3 SWAP2 POP POP JUMP JUMPDEST PUSH1 0x0 PUSH2 0x6A8 PUSH1 0x0 NOT DUP5 PUSH1 0x8 MUL PUSH2 0x68A JUMP JUMPDEST NOT DUP1 DUP4 AND SWAP2 POP POP SWAP3 SWAP2 POP POP JUMP JUMPDEST PUSH1 0x0 PUSH2 0x6C1 DUP4 DUP4 PUSH2 0x697 JUMP JUMPDEST SWAP2 POP DUP3 PUSH1 0x2 MUL DUP3 OR SWAP1 POP SWAP3 SWAP2 POP POP JUMP JUMPDEST PUSH2 0x6DA DUP3 PUSH2 0x21B JUMP JUMPDEST PUSH8 0xFFFFFFFFFFFFFFFF DUP2 GT ISZERO PUSH2 0x6F3 JUMPI PUSH2 0x6F2 PUSH2 0x312 JUMP JUMPDEST JUMPDEST PUSH2 0x6FD DUP3 SLOAD PUSH2 0x4F4 JUMP JUMPDEST PUSH2 0x708 DUP3 DUP3 DUP6 PUSH2 0x644 JUMP JUMPDEST PUSH1 0x0 PUSH1 0x20 SWAP1 POP PUSH1 0x1F DUP4 GT PUSH1 0x1 DUP2 EQ PUSH2 0x73B JUMPI PUSH1 0x0 DUP5 ISZERO PUSH2 0x729 JUMPI DUP3 DUP8 ADD MLOAD SWAP1 POP JUMPDEST PUSH2 0x733 DUP6 DUP3 PUSH2 0x6B5 JUMP JUMPDEST DUP7 SSTORE POP PUSH2 0x79B JUMP JUMPDEST PUSH1 0x1F NOT DUP5 AND PUSH2 0x749 DUP7 PUSH2 0x525 JUMP JUMPDEST PUSH1 0x0 JUMPDEST DUP3 DUP2 LT ISZERO PUSH2 0x771 JUMPI DUP5 DUP10 ADD MLOAD DUP3 SSTORE PUSH1 0x1 DUP3 ADD SWAP2 POP PUSH1 0x20 DUP6 ADD SWAP5 POP PUSH1 0x20 DUP2 ADD SWAP1 POP PUSH2 0x74C JUMP JUMPDEST DUP7 DUP4 LT ISZERO PUSH2 0x78E JUMPI DUP5 DUP10 ADD MLOAD PUSH2 0x78A PUSH1 0x1F DUP10 AND DUP3 PUSH2 0x697 JUMP JUMPDEST DUP4 SSTORE POP JUMPDEST PUSH1 0x1 PUSH1 0x2 DUP9 MUL ADD DUP9 SSTORE POP POP POP JUMPDEST POP POP POP POP POP POP JUMP JUMPDEST PUSH1 0x0 DUP3 DUP3 MSTORE PUSH1 0x20 DUP3 ADD SWAP1 POP SWAP3 SWAP2 POP POP JUMP JUMPDEST PUSH1 0x0 PUSH2 0x7BF DUP3 PUSH2 0x21B JUMP JUMPDEST PUSH2 0x7C9 DUP2 DUP6 PUSH2 0x7A3 JUMP JUMPDEST SWAP4 POP PUSH2 0x7D9 DUP2 DUP6 PUSH1 0x20 DUP7 ADD PUSH2 0x237 JUMP JUMPDEST PUSH2 0x7E2 DUP2 PUSH2 0x261 JUMP JUMPDEST DUP5 ADD SWAP2 POP POP SWAP3 SWAP2 POP POP JUMP JUMPDEST PUSH2 0x7F6 DUP2 PUSH2 0x2AB JUMP JUMPDEST DUP3 MSTORE POP POP JUMP JUMPDEST PUSH1 0x0 PUSH1 0x40 DUP4 ADD PUSH1 0x0 DUP4 ADD MLOAD DUP5 DUP3 SUB PUSH1 0x0 DUP7 ADD MSTORE PUSH2 0x819 DUP3 DUP3 PUSH2 0x7B4 JUMP JUMPDEST SWAP2 POP POP PUSH1 0x20 DUP4 ADD MLOAD PUSH2 0x82E PUSH1 0x20 DUP7 ADD DUP3 PUSH2 0x7ED JUMP JUMPDEST POP DUP1 SWAP2 POP POP SWAP3 SWAP2 POP POP JUMP JUMPDEST PUSH1 0x0 DUP2 SLOAD PUSH2 0x846 DUP2 PUSH2 0x4F4 JUMP JUMPDEST PUSH2 0x850 DUP2 DUP7 PUSH2 0x7A3 JUMP JUMPDEST SWAP5 POP PUSH1 0x1 DUP3 AND PUSH1 0x0 DUP2 EQ PUSH2 0x86B JUMPI PUSH1 0x1 DUP2 EQ PUSH2 0x881 JUMPI PUSH2 0x8B4 JUMP JUMPDEST PUSH1 0xFF NOT DUP4 AND DUP7 MSTORE DUP2 ISZERO ISZERO PUSH1 0x20 MUL DUP7 ADD SWAP4 POP PUSH2 0x8B4 JUMP JUMPDEST PUSH2 0x88A DUP6 PUSH2 0x525 JUMP JUMPDEST PUSH1 0x0 JUMPDEST DUP4 DUP2 LT ISZERO PUSH2 0x8AC JUMPI DUP2 SLOAD DUP2 DUP10 ADD MSTORE PUSH1 0x1 DUP3 ADD SWAP2 POP PUSH1 0x20 DUP2 ADD SWAP1 POP PUSH2 0x88D JUMP JUMPDEST DUP1 DUP9 ADD SWAP6 POP POP POP JUMPDEST POP POP POP SWAP3 SWAP2 POP POP JUMP JUMPDEST PUSH1 0x0 DUP2 PUSH1 0x0 SHR SWAP1 POP SWAP2 SWAP1 POP JUMP JUMPDEST PUSH1 0x0 DUP2 SWAP1 POP SWAP2 SWAP1 POP JUMP JUMPDEST PUSH1 0x0 PUSH2 0x8E7 PUSH2 0x8E2 DUP4 PUSH2 0x8BD JUMP JUMPDEST PUSH2 0x8CA JUMP JUMPDEST SWAP1 POP SWAP2 SWAP1 POP JUMP JUMPDEST PUSH1 0x0 PUSH1 0x40 DUP4 ADD PUSH1 0x0 DUP1 DUP5 ADD DUP6 DUP4 SUB PUSH1 0x0 DUP8 ADD MSTORE PUSH2 0x90B DUP4 DUP3 PUSH2 0x839 JUMP JUMPDEST SWAP3 POP POP PUSH1 0x1 DUP5 ADD SLOAD SWAP1 POP PUSH2 0x91E DUP2 PUSH2 0x8D4 JUMP JUMPDEST PUSH2 0x92B PUSH1 0x20 DUP8 ADD DUP3 PUSH2 0x7ED JUMP JUMPDEST POP DUP2 SWAP3 POP POP POP SWAP3 SWAP2 POP POP JUMP JUMPDEST PUSH1 0x0 PUSH1 0x80 DUP3 ADD SWAP1 POP DUP2 DUP2 SUB PUSH1 0x0 DUP4 ADD MSTORE PUSH2 0x951 DUP2 DUP8 PUSH2 0x7FC JUMP JUMPDEST SWAP1 POP DUP2 DUP2 SUB PUSH1 0x20 DUP4 ADD MSTORE PUSH2 0x965 DUP2 DUP7 PUSH2 0x8EE JUMP JUMPDEST SWAP1 POP PUSH2 0x974 PUSH1 0x40 DUP4 ADD DUP6 PUSH2 0x2B5 JUMP JUMPDEST PUSH2 0x981 PUSH1 0x60 DUP4 ADD DUP5 PUSH2 0x2B5 JUMP JUMPDEST SWAP6 SWAP5 POP POP POP POP POP JUMP INVALID LOG2 PUSH5 0x6970667358 0x22 SLT KECCAK256 0xDC PUSH8 0x458A4A93A1D6AF53 0xCF BALANCE BASEFEE 0xD9 SIGNEXTEND 0xE3 0xC1 MSIZE COINBASE 0xE4 PREVRANDAO SWAP16 PUSH27 0x1150A23FA72CD79CF164736F6C6343000812003300000000000000 "
		},
		"gasEstimates": {
			"creation": {
				"codeDepositCost": "499200",
				"executionCost": "530",
				"totalCost": "499730"
			},
			"external": {
				"P1()": "infinite",
				"setPersonInfo(string,uint256)": "infinite"
			}
		},
		"methodIdentifiers": {
			"P1()": "1de21b76",
			"setPersonInfo(string,uint256)": "33f3b2a4"
		}
	},
	"abi": [
		{
			"anonymous": false,
			"inputs": [
				{
					"components": [
						{
							"internalType": "string",
							"name": "name",
							"type": "string"
						},
						{
							"internalType": "uint256",
							"name": "age",
							"type": "uint256"
						}
					],
					"indexed": false,
					"internalType": "struct PersonContract.PersonInfo",
					"name": "oldValue",
					"type": "tuple"
				},
				{
					"components": [
						{
							"internalType": "string",
							"name": "name",
							"type": "string"
						},
						{
							"internalType": "uint256",
							"name": "age",
							"type": "uint256"
						}
					],
					"indexed": false,
					"internalType": "struct PersonContract.PersonInfo",
					"name": "newValue",
					"type": "tuple"
				},
				{
					"indexed": false,
					"internalType": "uint256",
					"name": "timestamp",
					"type": "uint256"
				},
				{
					"indexed": false,
					"internalType": "uint256",
					"name": "blockNumber",
					"type": "uint256"
				}
			],
			"name": "Update",
			"type": "event"
		},
		{
			"inputs": [],
			"name": "P1",
			"outputs": [
				{
					"internalType": "string",
					"name": "name",
					"type": "string"
				},
				{
					"internalType": "uint256",
					"name": "age",
					"type": "uint256"
				}
			],
			"stateMutability": "view",
			"type": "function"
		},
		{
			"inputs": [
				{
					"internalType": "string",
					"name": "newName",
					"type": "string"
				},
				{
					"internalType": "uint256",
					"name": "newAge",
					"type": "uint256"
				}
			],
			"name": "setPersonInfo",
			"outputs": [],
			"stateMutability": "nonpayable",
			"type": "function"
		}
	]
}