{
	"LABS 7 Aug/Task 7 lab7.sol": {
		"CarContract": {
			"abi": [
				{
					"inputs": [],
					"stateMutability": "nonpayable",
					"type": "constructor"
				},
				{
					"inputs": [],
					"name": "car",
					"outputs": [
						{
							"internalType": "string",
							"name": "make",
							"type": "string"
						},
						{
							"internalType": "uint256",
							"name": "model",
							"type": "uint256"
						},
						{
							"internalType": "string",
							"name": "variant",
							"type": "string"
						}
					],
					"stateMutability": "view",
					"type": "function"
				},
				{
					"inputs": [],
					"name": "initCar1",
					"outputs": [
						{
							"components": [
								{
									"internalType": "string",
									"name": "make",
									"type": "string"
								},
								{
									"internalType": "uint256",
									"name": "model",
									"type": "uint256"
								},
								{
									"internalType": "string",
									"name": "variant",
									"type": "string"
								}
							],
							"internalType": "struct CarContract.Car",
							"name": "State",
							"type": "tuple"
						},
						{
							"components": [
								{
									"internalType": "string",
									"name": "make",
									"type": "string"
								},
								{
									"internalType": "uint256",
									"name": "model",
									"type": "uint256"
								},
								{
									"internalType": "string",
									"name": "variant",
									"type": "string"
								}
							],
							"internalType": "struct CarContract.Car",
							"name": "Local",
							"type": "tuple"
						}
					],
					"stateMutability": "nonpayable",
					"type": "function"
				},
				{
					"inputs": [],
					"name": "initCar2",
					"outputs": [
						{
							"components": [
								{
									"internalType": "string",
									"name": "make",
									"type": "string"
								},
								{
									"internalType": "uint256",
									"name": "model",
									"type": "uint256"
								},
								{
									"internalType": "string",
									"name": "variant",
									"type": "string"
								}
							],
							"internalType": "struct CarContract.Car",
							"name": "State",
							"type": "tuple"
						},
						{
							"components": [
								{
									"internalType": "string",
									"name": "make",
									"type": "string"
								},
								{
									"internalType": "uint256",
									"name": "model",
									"type": "uint256"
								},
								{
									"internalType": "string",
									"name": "variant",
									"type": "string"
								}
							],
							"internalType": "struct CarContract.Car",
							"name": "Local",
							"type": "tuple"
						}
					],
					"stateMutability": "view",
					"type": "function"
				}
			],
			"devdoc": {
				"kind": "dev",
				"methods": {},
				"version": 1
			},
			"evm": {
				"assembly": "    /* \"LABS 7 Aug/Task 7 lab7.sol\":60:778  contract CarContract {... */\n  mstore(0x40, 0x80)\n    /* \"LABS 7 Aug/Task 7 lab7.sol\":207:275  constructor() {... */\n  callvalue\n  dup1\n  iszero\n  tag_1\n  jumpi\n  0x00\n  dup1\n  revert\ntag_1:\n  pop\n    /* \"LABS 7 Aug/Task 7 lab7.sol\":238:266  Car(\"Toyota\", 2000, \"Prado\") */\n  mload(0x40)\n  dup1\n  0x60\n  add\n  0x40\n  mstore\n  dup1\n  mload(0x40)\n  dup1\n  0x40\n  add\n  0x40\n  mstore\n  dup1\n  0x06\n  dup2\n  mstore\n  0x20\n  add\n  0x546f796f74610000000000000000000000000000000000000000000000000000\n  dup2\n  mstore\n  pop\n  dup2\n  mstore\n  0x20\n  add\n    /* \"LABS 7 Aug/Task 7 lab7.sol\":252:256  2000 */\n  0x07d0\n    /* \"LABS 7 Aug/Task 7 lab7.sol\":238:266  Car(\"Toyota\", 2000, \"Prado\") */\n  dup2\n  mstore\n  0x20\n  add\n  mload(0x40)\n  dup1\n  0x40\n  add\n  0x40\n  mstore\n  dup1\n  0x05\n  dup2\n  mstore\n  0x20\n  add\n  0x507261646f000000000000000000000000000000000000000000000000000000\n  dup2\n  mstore\n  pop\n  dup2\n  mstore\n  pop\n    /* \"LABS 7 Aug/Task 7 lab7.sol\":232:235  car */\n  0x00\n    /* \"LABS 7 Aug/Task 7 lab7.sol\":232:266  car = Car(\"Toyota\", 2000, \"Prado\") */\n  dup1\n  dup3\n  add\n  mload\n  dup2\n  0x00\n  add\n  swap1\n  dup2\n  tag_4\n  swap2\n  swap1\n  tag_5\n  jump\t// in\ntag_4:\n  pop\n  0x20\n  dup3\n  add\n  mload\n  dup2\n  0x01\n  add\n  sstore\n  0x40\n  dup3\n  add\n  mload\n  dup2\n  0x02\n  add\n  swap1\n  dup2\n  tag_6\n  swap2\n  swap1\n  tag_5\n  jump\t// in\ntag_6:\n  pop\n  swap1\n  pop\n  pop\n    /* \"LABS 7 Aug/Task 7 lab7.sol\":60:778  contract CarContract {... */\n  jump(tag_7)\n    /* \"#utility.yul\":7:106   */\ntag_8:\n    /* \"#utility.yul\":59:65   */\n  0x00\n    /* \"#utility.yul\":93:98   */\n  dup2\n    /* \"#utility.yul\":87:99   */\n  mload\n    /* \"#utility.yul\":77:99   */\n  swap1\n  pop\n    /* \"#utility.yul\":7:106   */\n  swap2\n  swap1\n  pop\n  jump\t// out\n    /* \"#utility.yul\":112:292   */\ntag_9:\n    /* \"#utility.yul\":160:237   */\n  0x4e487b7100000000000000000000000000000000000000000000000000000000\n    /* \"#utility.yul\":157:158   */\n  0x00\n    /* \"#utility.yul\":150:238   */\n  mstore\n    /* \"#utility.yul\":257:261   */\n  0x41\n    /* \"#utility.yul\":254:255   */\n  0x04\n    /* \"#utility.yul\":247:262   */\n  mstore\n    /* \"#utility.yul\":281:285   */\n  0x24\n    /* \"#utility.yul\":278:279   */\n  0x00\n    /* \"#utility.yul\":271:286   */\n  revert\n    /* \"#utility.yul\":298:478   */\ntag_10:\n    /* \"#utility.yul\":346:423   */\n  0x4e487b7100000000000000000000000000000000000000000000000000000000\n    /* \"#utility.yul\":343:344   */\n  0x00\n    /* \"#utility.yul\":336:424   */\n  mstore\n    /* \"#utility.yul\":443:447   */\n  0x22\n    /* \"#utility.yul\":440:441   */\n  0x04\n    /* \"#utility.yul\":433:448   */\n  mstore\n    /* \"#utility.yul\":467:471   */\n  0x24\n    /* \"#utility.yul\":464:465   */\n  0x00\n    /* \"#utility.yul\":457:472   */\n  revert\n    /* \"#utility.yul\":484:804   */\ntag_11:\n    /* \"#utility.yul\":528:534   */\n  0x00\n    /* \"#utility.yul\":565:566   */\n  0x02\n    /* \"#utility.yul\":559:563   */\n  dup3\n    /* \"#utility.yul\":555:567   */\n  div\n    /* \"#utility.yul\":545:567   */\n  swap1\n  pop\n    /* \"#utility.yul\":612:613   */\n  0x01\n    /* \"#utility.yul\":606:610   */\n  dup3\n    /* \"#utility.yul\":602:614   */\n  and\n    /* \"#utility.yul\":633:651   */\n  dup1\n    /* \"#utility.yul\":623:704   */\n  tag_33\n  jumpi\n    /* \"#utility.yul\":689:693   */\n  0x7f\n    /* \"#utility.yul\":681:687   */\n  dup3\n    /* \"#utility.yul\":677:694   */\n  and\n    /* \"#utility.yul\":667:694   */\n  swap2\n  pop\n    /* \"#utility.yul\":623:704   */\ntag_33:\n    /* \"#utility.yul\":751:753   */\n  0x20\n    /* \"#utility.yul\":743:749   */\n  dup3\n    /* \"#utility.yul\":740:754   */\n  lt\n    /* \"#utility.yul\":720:738   */\n  dup2\n    /* \"#utility.yul\":717:755   */\n  sub\n    /* \"#utility.yul\":714:798   */\n  tag_34\n  jumpi\n    /* \"#utility.yul\":770:788   */\n  tag_35\n  tag_10\n  jump\t// in\ntag_35:\n    /* \"#utility.yul\":714:798   */\ntag_34:\n    /* \"#utility.yul\":535:804   */\n  pop\n    /* \"#utility.yul\":484:804   */\n  swap2\n  swap1\n  pop\n  jump\t// out\n    /* \"#utility.yul\":810:951   */\ntag_12:\n    /* \"#utility.yul\":859:863   */\n  0x00\n    /* \"#utility.yul\":882:885   */\n  dup2\n    /* \"#utility.yul\":874:885   */\n  swap1\n  pop\n    /* \"#utility.yul\":905:908   */\n  dup2\n    /* \"#utility.yul\":902:903   */\n  0x00\n    /* \"#utility.yul\":895:909   */\n  mstore\n    /* \"#utility.yul\":939:943   */\n  0x20\n    /* \"#utility.yul\":936:937   */\n  0x00\n    /* \"#utility.yul\":926:944   */\n  keccak256\n    /* \"#utility.yul\":918:944   */\n  swap1\n  pop\n    /* \"#utility.yul\":810:951   */\n  swap2\n  swap1\n  pop\n  jump\t// out\n    /* \"#utility.yul\":957:1050   */\ntag_13:\n    /* \"#utility.yul\":994:1000   */\n  0x00\n    /* \"#utility.yul\":1041:1043   */\n  0x20\n    /* \"#utility.yul\":1036:1038   */\n  0x1f\n    /* \"#utility.yul\":1029:1034   */\n  dup4\n    /* \"#utility.yul\":1025:1039   */\n  add\n    /* \"#utility.yul\":1021:1044   */\n  div\n    /* \"#utility.yul\":1011:1044   */\n  swap1\n  pop\n    /* \"#utility.yul\":957:1050   */\n  swap2\n  swap1\n  pop\n  jump\t// out\n    /* \"#utility.yul\":1056:1163   */\ntag_14:\n    /* \"#utility.yul\":1100:1108   */\n  0x00\n    /* \"#utility.yul\":1150:1155   */\n  dup3\n    /* \"#utility.yul\":1144:1148   */\n  dup3\n    /* \"#utility.yul\":1140:1156   */\n  shl\n    /* \"#utility.yul\":1119:1156   */\n  swap1\n  pop\n    /* \"#utility.yul\":1056:1163   */\n  swap3\n  swap2\n  pop\n  pop\n  jump\t// out\n    /* \"#utility.yul\":1169:1562   */\ntag_15:\n    /* \"#utility.yul\":1238:1244   */\n  0x00\n    /* \"#utility.yul\":1288:1289   */\n  0x08\n    /* \"#utility.yul\":1276:1286   */\n  dup4\n    /* \"#utility.yul\":1272:1290   */\n  mul\n    /* \"#utility.yul\":1311:1408   */\n  tag_40\n    /* \"#utility.yul\":1341:1407   */\n  0xffffffffffffffffffffffffffffffffffffffffffffffffffffffffffffffff\n    /* \"#utility.yul\":1330:1339   */\n  dup3\n    /* \"#utility.yul\":1311:1408   */\n  tag_14\n  jump\t// in\ntag_40:\n    /* \"#utility.yul\":1429:1468   */\n  tag_41\n    /* \"#utility.yul\":1459:1467   */\n  dup7\n    /* \"#utility.yul\":1448:1457   */\n  dup4\n    /* \"#utility.yul\":1429:1468   */\n  tag_14\n  jump\t// in\ntag_41:\n    /* \"#utility.yul\":1417:1468   */\n  swap6\n  pop\n    /* \"#utility.yul\":1501:1505   */\n  dup1\n    /* \"#utility.yul\":1497:1506   */\n  not\n    /* \"#utility.yul\":1490:1495   */\n  dup5\n    /* \"#utility.yul\":1486:1507   */\n  and\n    /* \"#utility.yul\":1477:1507   */\n  swap4\n  pop\n    /* \"#utility.yul\":1550:1554   */\n  dup1\n    /* \"#utility.yul\":1540:1548   */\n  dup7\n    /* \"#utility.yul\":1536:1555   */\n  and\n    /* \"#utility.yul\":1529:1534   */\n  dup5\n    /* \"#utility.yul\":1526:1556   */\n  or\n    /* \"#utility.yul\":1516:1556   */\n  swap3\n  pop\n    /* \"#utility.yul\":1245:1562   */\n  pop\n  pop\n    /* \"#utility.yul\":1169:1562   */\n  swap4\n  swap3\n  pop\n  pop\n  pop\n  jump\t// out\n    /* \"#utility.yul\":1568:1645   */\ntag_16:\n    /* \"#utility.yul\":1605:1612   */\n  0x00\n    /* \"#utility.yul\":1634:1639   */\n  dup2\n    /* \"#utility.yul\":1623:1639   */\n  swap1\n  pop\n    /* \"#utility.yul\":1568:1645   */\n  swap2\n  swap1\n  pop\n  jump\t// out\n    /* \"#utility.yul\":1651:1711   */\ntag_17:\n    /* \"#utility.yul\":1679:1682   */\n  0x00\n    /* \"#utility.yul\":1700:1705   */\n  dup2\n    /* \"#utility.yul\":1693:1705   */\n  swap1\n  pop\n    /* \"#utility.yul\":1651:1711   */\n  swap2\n  swap1\n  pop\n  jump\t// out\n    /* \"#utility.yul\":1717:1859   */\ntag_18:\n    /* \"#utility.yul\":1767:1776   */\n  0x00\n    /* \"#utility.yul\":1800:1853   */\n  tag_45\n    /* \"#utility.yul\":1818:1852   */\n  tag_46\n    /* \"#utility.yul\":1827:1851   */\n  tag_47\n    /* \"#utility.yul\":1845:1850   */\n  dup5\n    /* \"#utility.yul\":1827:1851   */\n  tag_16\n  jump\t// in\ntag_47:\n    /* \"#utility.yul\":1818:1852   */\n  tag_17\n  jump\t// in\ntag_46:\n    /* \"#utility.yul\":1800:1853   */\n  tag_16\n  jump\t// in\ntag_45:\n    /* \"#utility.yul\":1787:1853   */\n  swap1\n  pop\n    /* \"#utility.yul\":1717:1859   */\n  swap2\n  swap1\n  pop\n  jump\t// out\n    /* \"#utility.yul\":1865:1940   */\ntag_19:\n    /* \"#utility.yul\":1908:1911   */\n  0x00\n    /* \"#utility.yul\":1929:1934   */\n  dup2\n    /* \"#utility.yul\":1922:1934   */\n  swap1\n  pop\n    /* \"#utility.yul\":1865:1940   */\n  swap2\n  swap1\n  pop\n  jump\t// out\n    /* \"#utility.yul\":1946:2215   */\ntag_20:\n    /* \"#utility.yul\":2056:2095   */\n  tag_50\n    /* \"#utility.yul\":2087:2094   */\n  dup4\n    /* \"#utility.yul\":2056:2095   */\n  tag_18\n  jump\t// in\ntag_50:\n    /* \"#utility.yul\":2117:2208   */\n  tag_51\n    /* \"#utility.yul\":2166:2207   */\n  tag_52\n    /* \"#utility.yul\":2190:2206   */\n  dup3\n    /* \"#utility.yul\":2166:2207   */\n  tag_19\n  jump\t// in\ntag_52:\n    /* \"#utility.yul\":2158:2164   */\n  dup5\n    /* \"#utility.yul\":2151:2155   */\n  dup5\n    /* \"#utility.yul\":2145:2156   */\n  sload\n    /* \"#utility.yul\":2117:2208   */\n  tag_15\n  jump\t// in\ntag_51:\n    /* \"#utility.yul\":2111:2115   */\n  dup3\n    /* \"#utility.yul\":2104:2209   */\n  sstore\n    /* \"#utility.yul\":2022:2215   */\n  pop\n    /* \"#utility.yul\":1946:2215   */\n  pop\n  pop\n  pop\n  jump\t// out\n    /* \"#utility.yul\":2221:2294   */\ntag_21:\n    /* \"#utility.yul\":2266:2269   */\n  0x00\n    /* \"#utility.yul\":2221:2294   */\n  swap1\n  jump\t// out\n    /* \"#utility.yul\":2300:2489   */\ntag_22:\n    /* \"#utility.yul\":2377:2409   */\n  tag_55\n  tag_21\n  jump\t// in\ntag_55:\n    /* \"#utility.yul\":2418:2483   */\n  tag_56\n    /* \"#utility.yul\":2476:2482   */\n  dup2\n    /* \"#utility.yul\":2468:2474   */\n  dup5\n    /* \"#utility.yul\":2462:2466   */\n  dup5\n    /* \"#utility.yul\":2418:2483   */\n  tag_20\n  jump\t// in\ntag_56:\n    /* \"#utility.yul\":2353:2489   */\n  pop\n    /* \"#utility.yul\":2300:2489   */\n  pop\n  pop\n  jump\t// out\n    /* \"#utility.yul\":2495:2681   */\ntag_23:\n    /* \"#utility.yul\":2555:2675   */\ntag_58:\n    /* \"#utility.yul\":2572:2575   */\n  dup2\n    /* \"#utility.yul\":2565:2570   */\n  dup2\n    /* \"#utility.yul\":2562:2576   */\n  lt\n    /* \"#utility.yul\":2555:2675   */\n  iszero\n  tag_60\n  jumpi\n    /* \"#utility.yul\":2626:2665   */\n  tag_61\n    /* \"#utility.yul\":2663:2664   */\n  0x00\n    /* \"#utility.yul\":2656:2661   */\n  dup3\n    /* \"#utility.yul\":2626:2665   */\n  tag_22\n  jump\t// in\ntag_61:\n    /* \"#utility.yul\":2599:2600   */\n  0x01\n    /* \"#utility.yul\":2592:2597   */\n  dup2\n    /* \"#utility.yul\":2588:2601   */\n  add\n    /* \"#utility.yul\":2579:2601   */\n  swap1\n  pop\n    /* \"#utility.yul\":2555:2675   */\n  jump(tag_58)\ntag_60:\n    /* \"#utility.yul\":2495:2681   */\n  pop\n  pop\n  jump\t// out\n    /* \"#utility.yul\":2687:3230   */\ntag_24:\n    /* \"#utility.yul\":2788:2790   */\n  0x1f\n    /* \"#utility.yul\":2783:2786   */\n  dup3\n    /* \"#utility.yul\":2780:2791   */\n  gt\n    /* \"#utility.yul\":2777:3223   */\n  iszero\n  tag_63\n  jumpi\n    /* \"#utility.yul\":2822:2860   */\n  tag_64\n    /* \"#utility.yul\":2854:2859   */\n  dup2\n    /* \"#utility.yul\":2822:2860   */\n  tag_12\n  jump\t// in\ntag_64:\n    /* \"#utility.yul\":2906:2935   */\n  tag_65\n    /* \"#utility.yul\":2924:2934   */\n  dup5\n    /* \"#utility.yul\":2906:2935   */\n  tag_13\n  jump\t// in\ntag_65:\n    /* \"#utility.yul\":2896:2904   */\n  dup2\n    /* \"#utility.yul\":2892:2936   */\n  add\n    /* \"#utility.yul\":3089:3091   */\n  0x20\n    /* \"#utility.yul\":3077:3087   */\n  dup6\n    /* \"#utility.yul\":3074:3092   */\n  lt\n    /* \"#utility.yul\":3071:3120   */\n  iszero\n  tag_66\n  jumpi\n    /* \"#utility.yul\":3110:3118   */\n  dup2\n    /* \"#utility.yul\":3095:3118   */\n  swap1\n  pop\n    /* \"#utility.yul\":3071:3120   */\ntag_66:\n    /* \"#utility.yul\":3133:3213   */\n  tag_67\n    /* \"#utility.yul\":3189:3211   */\n  tag_68\n    /* \"#utility.yul\":3207:3210   */\n  dup6\n    /* \"#utility.yul\":3189:3211   */\n  tag_13\n  jump\t// in\ntag_68:\n    /* \"#utility.yul\":3179:3187   */\n  dup4\n    /* \"#utility.yul\":3175:3212   */\n  add\n    /* \"#utility.yul\":3162:3173   */\n  dup3\n    /* \"#utility.yul\":3133:3213   */\n  tag_23\n  jump\t// in\ntag_67:\n    /* \"#utility.yul\":2792:3223   */\n  pop\n  pop\n    /* \"#utility.yul\":2777:3223   */\ntag_63:\n    /* \"#utility.yul\":2687:3230   */\n  pop\n  pop\n  pop\n  jump\t// out\n    /* \"#utility.yul\":3236:3353   */\ntag_25:\n    /* \"#utility.yul\":3290:3298   */\n  0x00\n    /* \"#utility.yul\":3340:3345   */\n  dup3\n    /* \"#utility.yul\":3334:3338   */\n  dup3\n    /* \"#utility.yul\":3330:3346   */\n  shr\n    /* \"#utility.yul\":3309:3346   */\n  swap1\n  pop\n    /* \"#utility.yul\":3236:3353   */\n  swap3\n  swap2\n  pop\n  pop\n  jump\t// out\n    /* \"#utility.yul\":3359:3528   */\ntag_26:\n    /* \"#utility.yul\":3403:3409   */\n  0x00\n    /* \"#utility.yul\":3436:3487   */\n  tag_71\n    /* \"#utility.yul\":3484:3485   */\n  0x00\n    /* \"#utility.yul\":3480:3486   */\n  not\n    /* \"#utility.yul\":3472:3477   */\n  dup5\n    /* \"#utility.yul\":3469:3470   */\n  0x08\n    /* \"#utility.yul\":3465:3478   */\n  mul\n    /* \"#utility.yul\":3436:3487   */\n  tag_25\n  jump\t// in\ntag_71:\n    /* \"#utility.yul\":3432:3488   */\n  not\n    /* \"#utility.yul\":3517:3521   */\n  dup1\n    /* \"#utility.yul\":3511:3515   */\n  dup4\n    /* \"#utility.yul\":3507:3522   */\n  and\n    /* \"#utility.yul\":3497:3522   */\n  swap2\n  pop\n    /* \"#utility.yul\":3410:3528   */\n  pop\n    /* \"#utility.yul\":3359:3528   */\n  swap3\n  swap2\n  pop\n  pop\n  jump\t// out\n    /* \"#utility.yul\":3533:3828   */\ntag_27:\n    /* \"#utility.yul\":3609:3613   */\n  0x00\n    /* \"#utility.yul\":3755:3784   */\n  tag_73\n    /* \"#utility.yul\":3780:3783   */\n  dup4\n    /* \"#utility.yul\":3774:3778   */\n  dup4\n    /* \"#utility.yul\":3755:3784   */\n  tag_26\n  jump\t// in\ntag_73:\n    /* \"#utility.yul\":3747:3784   */\n  swap2\n  pop\n    /* \"#utility.yul\":3817:3820   */\n  dup3\n    /* \"#utility.yul\":3814:3815   */\n  0x02\n    /* \"#utility.yul\":3810:3821   */\n  mul\n    /* \"#utility.yul\":3804:3808   */\n  dup3\n    /* \"#utility.yul\":3801:3822   */\n  or\n    /* \"#utility.yul\":3793:3822   */\n  swap1\n  pop\n    /* \"#utility.yul\":3533:3828   */\n  swap3\n  swap2\n  pop\n  pop\n  jump\t// out\n    /* \"#utility.yul\":3833:5228   */\ntag_5:\n    /* \"#utility.yul\":3950:3987   */\n  tag_75\n    /* \"#utility.yul\":3983:3986   */\n  dup3\n    /* \"#utility.yul\":3950:3987   */\n  tag_8\n  jump\t// in\ntag_75:\n    /* \"#utility.yul\":4052:4070   */\n  0xffffffffffffffff\n    /* \"#utility.yul\":4044:4050   */\n  dup2\n    /* \"#utility.yul\":4041:4071   */\n  gt\n    /* \"#utility.yul\":4038:4094   */\n  iszero\n  tag_76\n  jumpi\n    /* \"#utility.yul\":4074:4092   */\n  tag_77\n  tag_9\n  jump\t// in\ntag_77:\n    /* \"#utility.yul\":4038:4094   */\ntag_76:\n    /* \"#utility.yul\":4118:4156   */\n  tag_78\n    /* \"#utility.yul\":4150:4154   */\n  dup3\n    /* \"#utility.yul\":4144:4155   */\n  sload\n    /* \"#utility.yul\":4118:4156   */\n  tag_11\n  jump\t// in\ntag_78:\n    /* \"#utility.yul\":4203:4270   */\n  tag_79\n    /* \"#utility.yul\":4263:4269   */\n  dup3\n    /* \"#utility.yul\":4255:4261   */\n  dup3\n    /* \"#utility.yul\":4249:4253   */\n  dup6\n    /* \"#utility.yul\":4203:4270   */\n  tag_24\n  jump\t// in\ntag_79:\n    /* \"#utility.yul\":4297:4298   */\n  0x00\n    /* \"#utility.yul\":4321:4325   */\n  0x20\n    /* \"#utility.yul\":4308:4325   */\n  swap1\n  pop\n    /* \"#utility.yul\":4353:4355   */\n  0x1f\n    /* \"#utility.yul\":4345:4351   */\n  dup4\n    /* \"#utility.yul\":4342:4356   */\n  gt\n    /* \"#utility.yul\":4370:4371   */\n  0x01\n    /* \"#utility.yul\":4365:4983   */\n  dup2\n  eq\n  tag_81\n  jumpi\n    /* \"#utility.yul\":5027:5028   */\n  0x00\n    /* \"#utility.yul\":5044:5050   */\n  dup5\n    /* \"#utility.yul\":5041:5118   */\n  iszero\n  tag_82\n  jumpi\n    /* \"#utility.yul\":5093:5102   */\n  dup3\n    /* \"#utility.yul\":5088:5091   */\n  dup8\n    /* \"#utility.yul\":5084:5103   */\n  add\n    /* \"#utility.yul\":5078:5104   */\n  mload\n    /* \"#utility.yul\":5069:5104   */\n  swap1\n  pop\n    /* \"#utility.yul\":5041:5118   */\ntag_82:\n    /* \"#utility.yul\":5144:5211   */\n  tag_83\n    /* \"#utility.yul\":5204:5210   */\n  dup6\n    /* \"#utility.yul\":5197:5202   */\n  dup3\n    /* \"#utility.yul\":5144:5211   */\n  tag_27\n  jump\t// in\ntag_83:\n    /* \"#utility.yul\":5138:5142   */\n  dup7\n    /* \"#utility.yul\":5131:5212   */\n  sstore\n    /* \"#utility.yul\":5000:5222   */\n  pop\n    /* \"#utility.yul\":4335:5222   */\n  jump(tag_80)\n    /* \"#utility.yul\":4365:4983   */\ntag_81:\n    /* \"#utility.yul\":4417:4421   */\n  0x1f\n    /* \"#utility.yul\":4413:4422   */\n  not\n    /* \"#utility.yul\":4405:4411   */\n  dup5\n    /* \"#utility.yul\":4401:4423   */\n  and\n    /* \"#utility.yul\":4451:4488   */\n  tag_84\n    /* \"#utility.yul\":4483:4487   */\n  dup7\n    /* \"#utility.yul\":4451:4488   */\n  tag_12\n  jump\t// in\ntag_84:\n    /* \"#utility.yul\":4510:4511   */\n  0x00\n    /* \"#utility.yul\":4524:4732   */\ntag_85:\n    /* \"#utility.yul\":4538:4545   */\n  dup3\n    /* \"#utility.yul\":4535:4536   */\n  dup2\n    /* \"#utility.yul\":4532:4546   */\n  lt\n    /* \"#utility.yul\":4524:4732   */\n  iszero\n  tag_87\n  jumpi\n    /* \"#utility.yul\":4617:4626   */\n  dup5\n    /* \"#utility.yul\":4612:4615   */\n  dup10\n    /* \"#utility.yul\":4608:4627   */\n  add\n    /* \"#utility.yul\":4602:4628   */\n  mload\n    /* \"#utility.yul\":4594:4600   */\n  dup3\n    /* \"#utility.yul\":4587:4629   */\n  sstore\n    /* \"#utility.yul\":4668:4669   */\n  0x01\n    /* \"#utility.yul\":4660:4666   */\n  dup3\n    /* \"#utility.yul\":4656:4670   */\n  add\n    /* \"#utility.yul\":4646:4670   */\n  swap2\n  pop\n    /* \"#utility.yul\":4715:4717   */\n  0x20\n    /* \"#utility.yul\":4704:4713   */\n  dup6\n    /* \"#utility.yul\":4700:4718   */\n  add\n    /* \"#utility.yul\":4687:4718   */\n  swap5\n  pop\n    /* \"#utility.yul\":4561:4565   */\n  0x20\n    /* \"#utility.yul\":4558:4559   */\n  dup2\n    /* \"#utility.yul\":4554:4566   */\n  add\n    /* \"#utility.yul\":4549:4566   */\n  swap1\n  pop\n    /* \"#utility.yul\":4524:4732   */\n  jump(tag_85)\ntag_87:\n    /* \"#utility.yul\":4760:4766   */\n  dup7\n    /* \"#utility.yul\":4751:4758   */\n  dup4\n    /* \"#utility.yul\":4748:4767   */\n  lt\n    /* \"#utility.yul\":4745:4924   */\n  iszero\n  tag_88\n  jumpi\n    /* \"#utility.yul\":4818:4827   */\n  dup5\n    /* \"#utility.yul\":4813:4816   */\n  dup10\n    /* \"#utility.yul\":4809:4828   */\n  add\n    /* \"#utility.yul\":4803:4829   */\n  mload\n    /* \"#utility.yul\":4861:4909   */\n  tag_89\n    /* \"#utility.yul\":4903:4907   */\n  0x1f\n    /* \"#utility.yul\":4895:4901   */\n  dup10\n    /* \"#utility.yul\":4891:4908   */\n  and\n    /* \"#utility.yul\":4880:4889   */\n  dup3\n    /* \"#utility.yul\":4861:4909   */\n  tag_26\n  jump\t// in\ntag_89:\n    /* \"#utility.yul\":4853:4859   */\n  dup4\n    /* \"#utility.yul\":4846:4910   */\n  sstore\n    /* \"#utility.yul\":4768:4924   */\n  pop\n    /* \"#utility.yul\":4745:4924   */\ntag_88:\n    /* \"#utility.yul\":4970:4971   */\n  0x01\n    /* \"#utility.yul\":4966:4967   */\n  0x02\n    /* \"#utility.yul\":4958:4964   */\n  dup9\n    /* \"#utility.yul\":4954:4968   */\n  mul\n    /* \"#utility.yul\":4950:4972   */\n  add\n    /* \"#utility.yul\":4944:4948   */\n  dup9\n    /* \"#utility.yul\":4937:4973   */\n  sstore\n    /* \"#utility.yul\":4372:4983   */\n  pop\n  pop\n  pop\n    /* \"#utility.yul\":4335:5222   */\ntag_80:\n  pop\n    /* \"#utility.yul\":3925:5228   */\n  pop\n  pop\n  pop\n    /* \"#utility.yul\":3833:5228   */\n  pop\n  pop\n  jump\t// out\n    /* \"LABS 7 Aug/Task 7 lab7.sol\":60:778  contract CarContract {... */\ntag_7:\n  dataSize(sub_0)\n  dup1\n  dataOffset(sub_0)\n  0x00\n  codecopy\n  0x00\n  return\nstop\n\nsub_0: assembly {\n        /* \"LABS 7 Aug/Task 7 lab7.sol\":60:778  contract CarContract {... */\n      mstore(0x40, 0x80)\n      callvalue\n      dup1\n      iszero\n      tag_1\n      jumpi\n      0x00\n      dup1\n      revert\n    tag_1:\n      pop\n      jumpi(tag_2, lt(calldatasize, 0x04))\n      shr(0xe0, calldataload(0x00))\n      dup1\n      0x1d2aec85\n      eq\n      tag_3\n      jumpi\n      dup1\n      0x6f674521\n      eq\n      tag_4\n      jumpi\n      dup1\n      0xee26fac3\n      eq\n      tag_5\n      jumpi\n    tag_2:\n      0x00\n      dup1\n      revert\n        /* \"LABS 7 Aug/Task 7 lab7.sol\":283:525  function initCar1() public returns (Car memory State, Car memory Local) {... */\n    tag_3:\n      tag_6\n      tag_7\n      jump\t// in\n    tag_6:\n      mload(0x40)\n      tag_8\n      swap3\n      swap2\n      swap1\n      tag_9\n      jump\t// in\n    tag_8:\n      mload(0x40)\n      dup1\n      swap2\n      sub\n      swap1\n      return\n        /* \"LABS 7 Aug/Task 7 lab7.sol\":533:775  function initCar2() public view returns (Car memory State, Car memory Local) {... */\n    tag_4:\n      tag_10\n      tag_11\n      jump\t// in\n    tag_10:\n      mload(0x40)\n      tag_12\n      swap3\n      swap2\n      swap1\n      tag_9\n      jump\t// in\n    tag_12:\n      mload(0x40)\n      dup1\n      swap2\n      sub\n      swap1\n      return\n        /* \"LABS 7 Aug/Task 7 lab7.sol\":184:198  Car public car */\n    tag_5:\n      tag_13\n      tag_14\n      jump\t// in\n    tag_13:\n      mload(0x40)\n      tag_15\n      swap4\n      swap3\n      swap2\n      swap1\n      tag_16\n      jump\t// in\n    tag_15:\n      mload(0x40)\n      dup1\n      swap2\n      sub\n      swap1\n      return\n        /* \"LABS 7 Aug/Task 7 lab7.sol\":283:525  function initCar1() public returns (Car memory State, Car memory Local) {... */\n    tag_7:\n        /* \"LABS 7 Aug/Task 7 lab7.sol\":319:335  Car memory State */\n      tag_17\n      tag_18\n      jump\t// in\n    tag_17:\n        /* \"LABS 7 Aug/Task 7 lab7.sol\":337:353  Car memory Local */\n      tag_19\n      tag_18\n      jump\t// in\n    tag_19:\n        /* \"LABS 7 Aug/Task 7 lab7.sol\":366:382  Car storage _car */\n      0x00\n        /* \"LABS 7 Aug/Task 7 lab7.sol\":400:419  _car.make = \"Honda\" */\n      mload(0x40)\n      dup1\n      0x40\n      add\n      0x40\n      mstore\n      dup1\n      0x05\n      dup2\n      mstore\n      0x20\n      add\n      0x486f6e6461000000000000000000000000000000000000000000000000000000\n      dup2\n      mstore\n      pop\n        /* \"LABS 7 Aug/Task 7 lab7.sol\":400:404  _car */\n      dup2\n        /* \"LABS 7 Aug/Task 7 lab7.sol\":400:409  _car.make */\n      0x00\n      add\n        /* \"LABS 7 Aug/Task 7 lab7.sol\":400:419  _car.make = \"Honda\" */\n      swap1\n      dup2\n      tag_21\n      swap2\n      swap1\n      tag_22\n      jump\t// in\n    tag_21:\n      pop\n        /* \"LABS 7 Aug/Task 7 lab7.sol\":443:447  2001 */\n      0x07d1\n        /* \"LABS 7 Aug/Task 7 lab7.sol\":430:434  _car */\n      dup2\n        /* \"LABS 7 Aug/Task 7 lab7.sol\":430:440  _car.model */\n      0x01\n      add\n        /* \"LABS 7 Aug/Task 7 lab7.sol\":430:447  _car.model = 2001 */\n      dup2\n      swap1\n      sstore\n      pop\n        /* \"LABS 7 Aug/Task 7 lab7.sol\":458:480  _car.variant = \"Civic\" */\n      mload(0x40)\n      dup1\n      0x40\n      add\n      0x40\n      mstore\n      dup1\n      0x05\n      dup2\n      mstore\n      0x20\n      add\n      0x4369766963000000000000000000000000000000000000000000000000000000\n      dup2\n      mstore\n      pop\n        /* \"LABS 7 Aug/Task 7 lab7.sol\":458:462  _car */\n      dup2\n        /* \"LABS 7 Aug/Task 7 lab7.sol\":458:470  _car.variant */\n      0x02\n      add\n        /* \"LABS 7 Aug/Task 7 lab7.sol\":458:480  _car.variant = \"Civic\" */\n      swap1\n      dup2\n      tag_23\n      swap2\n      swap1\n      tag_22\n      jump\t// in\n    tag_23:\n      pop\n        /* \"LABS 7 Aug/Task 7 lab7.sol\":499:502  car */\n      0x00\n        /* \"LABS 7 Aug/Task 7 lab7.sol\":504:508  _car */\n      dup2\n        /* \"LABS 7 Aug/Task 7 lab7.sol\":491:509  return (car, _car) */\n      dup2\n      mload(0x40)\n      dup1\n      0x60\n      add\n      0x40\n      mstore\n      swap1\n      dup2\n      0x00\n      dup3\n      add\n      dup1\n      sload\n      tag_24\n      swap1\n      tag_25\n      jump\t// in\n    tag_24:\n      dup1\n      0x1f\n      add\n      0x20\n      dup1\n      swap2\n      div\n      mul\n      0x20\n      add\n      mload(0x40)\n      swap1\n      dup2\n      add\n      0x40\n      mstore\n      dup1\n      swap3\n      swap2\n      swap1\n      dup2\n      dup2\n      mstore\n      0x20\n      add\n      dup3\n      dup1\n      sload\n      tag_26\n      swap1\n      tag_25\n      jump\t// in\n    tag_26:\n      dup1\n      iszero\n      tag_27\n      jumpi\n      dup1\n      0x1f\n      lt\n      tag_28\n      jumpi\n      0x0100\n      dup1\n      dup4\n      sload\n      div\n      mul\n      dup4\n      mstore\n      swap2\n      0x20\n      add\n      swap2\n      jump(tag_27)\n    tag_28:\n      dup3\n      add\n      swap2\n      swap1\n      0x00\n      mstore\n      keccak256(0x00, 0x20)\n      swap1\n    tag_29:\n      dup2\n      sload\n      dup2\n      mstore\n      swap1\n      0x01\n      add\n      swap1\n      0x20\n      add\n      dup1\n      dup4\n      gt\n      tag_29\n      jumpi\n      dup3\n      swap1\n      sub\n      0x1f\n      and\n      dup3\n      add\n      swap2\n    tag_27:\n      pop\n      pop\n      pop\n      pop\n      pop\n      dup2\n      mstore\n      0x20\n      add\n      0x01\n      dup3\n      add\n      sload\n      dup2\n      mstore\n      0x20\n      add\n      0x02\n      dup3\n      add\n      dup1\n      sload\n      tag_30\n      swap1\n      tag_25\n      jump\t// in\n    tag_30:\n      dup1\n      0x1f\n      add\n      0x20\n      dup1\n      swap2\n      div\n      mul\n      0x20\n      add\n      mload(0x40)\n      swap1\n      dup2\n      add\n      0x40\n      mstore\n      dup1\n      swap3\n      swap2\n      swap1\n      dup2\n      dup2\n      mstore\n      0x20\n      add\n      dup3\n      dup1\n      sload\n      tag_31\n      swap1\n      tag_25\n      jump\t// in\n    tag_31:\n      dup1\n      iszero\n      tag_32\n      jumpi\n      dup1\n      0x1f\n      lt\n      tag_33\n      jumpi\n      0x0100\n      dup1\n      dup4\n      sload\n      div\n      mul\n      dup4\n      mstore\n      swap2\n      0x20\n      add\n      swap2\n      jump(tag_32)\n    tag_33:\n      dup3\n      add\n      swap2\n      swap1\n      0x00\n      mstore\n      keccak256(0x00, 0x20)\n      swap1\n    tag_34:\n      dup2\n      sload\n      dup2\n      mstore\n      swap1\n      0x01\n      add\n      swap1\n      0x20\n      add\n      dup1\n      dup4\n      gt\n      tag_34\n      jumpi\n      dup3\n      swap1\n      sub\n      0x1f\n      and\n      dup3\n      add\n      swap2\n    tag_32:\n      pop\n      pop\n      pop\n      pop\n      pop\n      dup2\n      mstore\n      pop\n      pop\n      swap2\n      pop\n      dup1\n      mload(0x40)\n      dup1\n      0x60\n      add\n      0x40\n      mstore\n      swap1\n      dup2\n      0x00\n      dup3\n      add\n      dup1\n      sload\n      tag_35\n      swap1\n      tag_25\n      jump\t// in\n    tag_35:\n      dup1\n      0x1f\n      add\n      0x20\n      dup1\n      swap2\n      div\n      mul\n      0x20\n      add\n      mload(0x40)\n      swap1\n      dup2\n      add\n      0x40\n      mstore\n      dup1\n      swap3\n      swap2\n      swap1\n      dup2\n      dup2\n      mstore\n      0x20\n      add\n      dup3\n      dup1\n      sload\n      tag_36\n      swap1\n      tag_25\n      jump\t// in\n    tag_36:\n      dup1\n      iszero\n      tag_37\n      jumpi\n      dup1\n      0x1f\n      lt\n      tag_38\n      jumpi\n      0x0100\n      dup1\n      dup4\n      sload\n      div\n      mul\n      dup4\n      mstore\n      swap2\n      0x20\n      add\n      swap2\n      jump(tag_37)\n    tag_38:\n      dup3\n      add\n      swap2\n      swap1\n      0x00\n      mstore\n      keccak256(0x00, 0x20)\n      swap1\n    tag_39:\n      dup2\n      sload\n      dup2\n      mstore\n      swap1\n      0x01\n      add\n      swap1\n      0x20\n      add\n      dup1\n      dup4\n      gt\n      tag_39\n      jumpi\n      dup3\n      swap1\n      sub\n      0x1f\n      and\n      dup3\n      add\n      swap2\n    tag_37:\n      pop\n      pop\n      pop\n      pop\n      pop\n      dup2\n      mstore\n      0x20\n      add\n      0x01\n      dup3\n      add\n      sload\n      dup2\n      mstore\n      0x20\n      add\n      0x02\n      dup3\n      add\n      dup1\n      sload\n      tag_40\n      swap1\n      tag_25\n      jump\t// in\n    tag_40:\n      dup1\n      0x1f\n      add\n      0x20\n      dup1\n      swap2\n      div\n      mul\n      0x20\n      add\n      mload(0x40)\n      swap1\n      dup2\n      add\n      0x40\n      mstore\n      dup1\n      swap3\n      swap2\n      swap1\n      dup2\n      dup2\n      mstore\n      0x20\n      add\n      dup3\n      dup1\n      sload\n      tag_41\n      swap1\n      tag_25\n      jump\t// in\n    tag_41:\n      dup1\n      iszero\n      tag_42\n      jumpi\n      dup1\n      0x1f\n      lt\n      tag_43\n      jumpi\n      0x0100\n      dup1\n      dup4\n      sload\n      div\n      mul\n      dup4\n      mstore\n      swap2\n      0x20\n      add\n      swap2\n      jump(tag_42)\n    tag_43:\n      dup3\n      add\n      swap2\n      swap1\n      0x00\n      mstore\n      keccak256(0x00, 0x20)\n      swap1\n    tag_44:\n      dup2\n      sload\n      dup2\n      mstore\n      swap1\n      0x01\n      add\n      swap1\n      0x20\n      add\n      dup1\n      dup4\n      gt\n      tag_44\n      jumpi\n      dup3\n      swap1\n      sub\n      0x1f\n      and\n      dup3\n      add\n      swap2\n    tag_42:\n      pop\n      pop\n      pop\n      pop\n      pop\n      dup2\n      mstore\n      pop\n      pop\n      swap1\n      pop\n      swap3\n      pop\n      swap3\n      pop\n      pop\n        /* \"LABS 7 Aug/Task 7 lab7.sol\":283:525  function initCar1() public returns (Car memory State, Car memory Local) {... */\n      swap1\n      swap2\n      jump\t// out\n        /* \"LABS 7 Aug/Task 7 lab7.sol\":533:775  function initCar2() public view returns (Car memory State, Car memory Local) {... */\n    tag_11:\n        /* \"LABS 7 Aug/Task 7 lab7.sol\":574:590  Car memory State */\n      tag_45\n      tag_18\n      jump\t// in\n    tag_45:\n        /* \"LABS 7 Aug/Task 7 lab7.sol\":592:608  Car memory Local */\n      tag_46\n      tag_18\n      jump\t// in\n    tag_46:\n        /* \"LABS 7 Aug/Task 7 lab7.sol\":630:645  Car memory _car */\n      0x00\n        /* \"LABS 7 Aug/Task 7 lab7.sol\":648:651  car */\n      dup1\n        /* \"LABS 7 Aug/Task 7 lab7.sol\":630:651  Car memory _car = car */\n      mload(0x40)\n      dup1\n      0x60\n      add\n      0x40\n      mstore\n      swap1\n      dup2\n      0x00\n      dup3\n      add\n      dup1\n      sload\n      tag_48\n      swap1\n      tag_25\n      jump\t// in\n    tag_48:\n      dup1\n      0x1f\n      add\n      0x20\n      dup1\n      swap2\n      div\n      mul\n      0x20\n      add\n      mload(0x40)\n      swap1\n      dup2\n      add\n      0x40\n      mstore\n      dup1\n      swap3\n      swap2\n      swap1\n      dup2\n      dup2\n      mstore\n      0x20\n      add\n      dup3\n      dup1\n      sload\n      tag_49\n      swap1\n      tag_25\n      jump\t// in\n    tag_49:\n      dup1\n      iszero\n      tag_50\n      jumpi\n      dup1\n      0x1f\n      lt\n      tag_51\n      jumpi\n      0x0100\n      dup1\n      dup4\n      sload\n      div\n      mul\n      dup4\n      mstore\n      swap2\n      0x20\n      add\n      swap2\n      jump(tag_50)\n    tag_51:\n      dup3\n      add\n      swap2\n      swap1\n      0x00\n      mstore\n      keccak256(0x00, 0x20)\n      swap1\n    tag_52:\n      dup2\n      sload\n      dup2\n      mstore\n      swap1\n      0x01\n      add\n      swap1\n      0x20\n      add\n      dup1\n      dup4\n      gt\n      tag_52\n      jumpi\n      dup3\n      swap1\n      sub\n      0x1f\n      and\n      dup3\n      add\n      swap2\n    tag_50:\n      pop\n      pop\n      pop\n      pop\n      pop\n      dup2\n      mstore\n      0x20\n      add\n      0x01\n      dup3\n      add\n      sload\n      dup2\n      mstore\n      0x20\n      add\n      0x02\n      dup3\n      add\n      dup1\n      sload\n      tag_53\n      swap1\n      tag_25\n      jump\t// in\n    tag_53:\n      dup1\n      0x1f\n      add\n      0x20\n      dup1\n      swap2\n      div\n      mul\n      0x20\n      add\n      mload(0x40)\n      swap1\n      dup2\n      add\n      0x40\n      mstore\n      dup1\n      swap3\n      swap2\n      swap1\n      dup2\n      dup2\n      mstore\n      0x20\n      add\n      dup3\n      dup1\n      sload\n      tag_54\n      swap1\n      tag_25\n      jump\t// in\n    tag_54:\n      dup1\n      iszero\n      tag_55\n      jumpi\n      dup1\n      0x1f\n      lt\n      tag_56\n      jumpi\n      0x0100\n      dup1\n      dup4\n      sload\n      div\n      mul\n      dup4\n      mstore\n      swap2\n      0x20\n      add\n      swap2\n      jump(tag_55)\n    tag_56:\n      dup3\n      add\n      swap2\n      swap1\n      0x00\n      mstore\n      keccak256(0x00, 0x20)\n      swap1\n    tag_57:\n      dup2\n      sload\n      dup2\n      mstore\n      swap1\n      0x01\n      add\n      swap1\n      0x20\n      add\n      dup1\n      dup4\n      gt\n      tag_57\n      jumpi\n      dup3\n      swap1\n      sub\n      0x1f\n      and\n      dup3\n      add\n      swap2\n    tag_55:\n      pop\n      pop\n      pop\n      pop\n      pop\n      dup2\n      mstore\n      pop\n      pop\n      swap1\n      pop\n        /* \"LABS 7 Aug/Task 7 lab7.sol\":661:680  _car.make = \"Honda\" */\n      mload(0x40)\n      dup1\n      0x40\n      add\n      0x40\n      mstore\n      dup1\n      0x05\n      dup2\n      mstore\n      0x20\n      add\n      0x486f6e6461000000000000000000000000000000000000000000000000000000\n      dup2\n      mstore\n      pop\n        /* \"LABS 7 Aug/Task 7 lab7.sol\":661:665  _car */\n      dup2\n        /* \"LABS 7 Aug/Task 7 lab7.sol\":661:670  _car.make */\n      0x00\n      add\n        /* \"LABS 7 Aug/Task 7 lab7.sol\":661:680  _car.make = \"Honda\" */\n      dup2\n      swap1\n      mstore\n      pop\n        /* \"LABS 7 Aug/Task 7 lab7.sol\":703:707  2001 */\n      0x07d1\n        /* \"LABS 7 Aug/Task 7 lab7.sol\":690:694  _car */\n      dup2\n        /* \"LABS 7 Aug/Task 7 lab7.sol\":690:700  _car.model */\n      0x20\n      add\n        /* \"LABS 7 Aug/Task 7 lab7.sol\":690:707  _car.model = 2001 */\n      dup2\n      dup2\n      mstore\n      pop\n      pop\n        /* \"LABS 7 Aug/Task 7 lab7.sol\":717:739  _car.variant = \"Civic\" */\n      mload(0x40)\n      dup1\n      0x40\n      add\n      0x40\n      mstore\n      dup1\n      0x05\n      dup2\n      mstore\n      0x20\n      add\n      0x4369766963000000000000000000000000000000000000000000000000000000\n      dup2\n      mstore\n      pop\n        /* \"LABS 7 Aug/Task 7 lab7.sol\":717:721  _car */\n      dup2\n        /* \"LABS 7 Aug/Task 7 lab7.sol\":717:729  _car.variant */\n      0x40\n      add\n        /* \"LABS 7 Aug/Task 7 lab7.sol\":717:739  _car.variant = \"Civic\" */\n      dup2\n      swap1\n      mstore\n      pop\n        /* \"LABS 7 Aug/Task 7 lab7.sol\":757:760  car */\n      0x00\n        /* \"LABS 7 Aug/Task 7 lab7.sol\":762:766  _car */\n      dup2\n        /* \"LABS 7 Aug/Task 7 lab7.sol\":749:767  return (car, _car) */\n      dup2\n      mload(0x40)\n      dup1\n      0x60\n      add\n      0x40\n      mstore\n      swap1\n      dup2\n      0x00\n      dup3\n      add\n      dup1\n      sload\n      tag_58\n      swap1\n      tag_25\n      jump\t// in\n    tag_58:\n      dup1\n      0x1f\n      add\n      0x20\n      dup1\n      swap2\n      div\n      mul\n      0x20\n      add\n      mload(0x40)\n      swap1\n      dup2\n      add\n      0x40\n      mstore\n      dup1\n      swap3\n      swap2\n      swap1\n      dup2\n      dup2\n      mstore\n      0x20\n      add\n      dup3\n      dup1\n      sload\n      tag_59\n      swap1\n      tag_25\n      jump\t// in\n    tag_59:\n      dup1\n      iszero\n      tag_60\n      jumpi\n      dup1\n      0x1f\n      lt\n      tag_61\n      jumpi\n      0x0100\n      dup1\n      dup4\n      sload\n      div\n      mul\n      dup4\n      mstore\n      swap2\n      0x20\n      add\n      swap2\n      jump(tag_60)\n    tag_61:\n      dup3\n      add\n      swap2\n      swap1\n      0x00\n      mstore\n      keccak256(0x00, 0x20)\n      swap1\n    tag_62:\n      dup2\n      sload\n      dup2\n      mstore\n      swap1\n      0x01\n      add\n      swap1\n      0x20\n      add\n      dup1\n      dup4\n      gt\n      tag_62\n      jumpi\n      dup3\n      swap1\n      sub\n      0x1f\n      and\n      dup3\n      add\n      swap2\n    tag_60:\n      pop\n      pop\n      pop\n      pop\n      pop\n      dup2\n      mstore\n      0x20\n      add\n      0x01\n      dup3\n      add\n      sload\n      dup2\n      mstore\n      0x20\n      add\n      0x02\n      dup3\n      add\n      dup1\n      sload\n      tag_63\n      swap1\n      tag_25\n      jump\t// in\n    tag_63:\n      dup1\n      0x1f\n      add\n      0x20\n      dup1\n      swap2\n      div\n      mul\n      0x20\n      add\n      mload(0x40)\n      swap1\n      dup2\n      add\n      0x40\n      mstore\n      dup1\n      swap3\n      swap2\n      swap1\n      dup2\n      dup2\n      mstore\n      0x20\n      add\n      dup3\n      dup1\n      sload\n      tag_64\n      swap1\n      tag_25\n      jump\t// in\n    tag_64:\n      dup1\n      iszero\n      tag_65\n      jumpi\n      dup1\n      0x1f\n      lt\n      tag_66\n      jumpi\n      0x0100\n      dup1\n      dup4\n      sload\n      div\n      mul\n      dup4\n      mstore\n      swap2\n      0x20\n      add\n      swap2\n      jump(tag_65)\n    tag_66:\n      dup3\n      add\n      swap2\n      swap1\n      0x00\n      mstore\n      keccak256(0x00, 0x20)\n      swap1\n    tag_67:\n      dup2\n      sload\n      dup2\n      mstore\n      swap1\n      0x01\n      add\n      swap1\n      0x20\n      add\n      dup1\n      dup4\n      gt\n      tag_67\n      jumpi\n      dup3\n      swap1\n      sub\n      0x1f\n      and\n      dup3\n      add\n      swap2\n    tag_65:\n      pop\n      pop\n      pop\n      pop\n      pop\n      dup2\n      mstore\n      pop\n      pop\n      swap2\n      pop\n      swap3\n      pop\n      swap3\n      pop\n      pop\n        /* \"LABS 7 Aug/Task 7 lab7.sol\":533:775  function initCar2() public view returns (Car memory State, Car memory Local) {... */\n      swap1\n      swap2\n      jump\t// out\n        /* \"LABS 7 Aug/Task 7 lab7.sol\":184:198  Car public car */\n    tag_14:\n      0x00\n      dup1\n      0x00\n      add\n      dup1\n      sload\n      tag_68\n      swap1\n      tag_25\n      jump\t// in\n    tag_68:\n      dup1\n      0x1f\n      add\n      0x20\n      dup1\n      swap2\n      div\n      mul\n      0x20\n      add\n      mload(0x40)\n      swap1\n      dup2\n      add\n      0x40\n      mstore\n      dup1\n      swap3\n      swap2\n      swap1\n      dup2\n      dup2\n      mstore\n      0x20\n      add\n      dup3\n      dup1\n      sload\n      tag_69\n      swap1\n      tag_25\n      jump\t// in\n    tag_69:\n      dup1\n      iszero\n      tag_70\n      jumpi\n      dup1\n      0x1f\n      lt\n      tag_71\n      jumpi\n      0x0100\n      dup1\n      dup4\n      sload\n      div\n      mul\n      dup4\n      mstore\n      swap2\n      0x20\n      add\n      swap2\n      jump(tag_70)\n    tag_71:\n      dup3\n      add\n      swap2\n      swap1\n      0x00\n      mstore\n      keccak256(0x00, 0x20)\n      swap1\n    tag_72:\n      dup2\n      sload\n      dup2\n      mstore\n      swap1\n      0x01\n      add\n      swap1\n      0x20\n      add\n      dup1\n      dup4\n      gt\n      tag_72\n      jumpi\n      dup3\n      swap1\n      sub\n      0x1f\n      and\n      dup3\n      add\n      swap2\n    tag_70:\n      pop\n      pop\n      pop\n      pop\n      pop\n      swap1\n      dup1\n      0x01\n      add\n      sload\n      swap1\n      dup1\n      0x02\n      add\n      dup1\n      sload\n      tag_73\n      swap1\n      tag_25\n      jump\t// in\n    tag_73:\n      dup1\n      0x1f\n      add\n      0x20\n      dup1\n      swap2\n      div\n      mul\n      0x20\n      add\n      mload(0x40)\n      swap1\n      dup2\n      add\n      0x40\n      mstore\n      dup1\n      swap3\n      swap2\n      swap1\n      dup2\n      dup2\n      mstore\n      0x20\n      add\n      dup3\n      dup1\n      sload\n      tag_74\n      swap1\n      tag_25\n      jump\t// in\n    tag_74:\n      dup1\n      iszero\n      tag_75\n      jumpi\n      dup1\n      0x1f\n      lt\n      tag_76\n      jumpi\n      0x0100\n      dup1\n      dup4\n      sload\n      div\n      mul\n      dup4\n      mstore\n      swap2\n      0x20\n      add\n      swap2\n      jump(tag_75)\n    tag_76:\n      dup3\n      add\n      swap2\n      swap1\n      0x00\n      mstore\n      keccak256(0x00, 0x20)\n      swap1\n    tag_77:\n      dup2\n      sload\n      dup2\n      mstore\n      swap1\n      0x01\n      add\n      swap1\n      0x20\n      add\n      dup1\n      dup4\n      gt\n      tag_77\n      jumpi\n      dup3\n      swap1\n      sub\n      0x1f\n      and\n      dup3\n      add\n      swap2\n    tag_75:\n      pop\n      pop\n      pop\n      pop\n      pop\n      swap1\n      pop\n      dup4\n      jump\t// out\n    tag_18:\n      mload(0x40)\n      dup1\n      0x60\n      add\n      0x40\n      mstore\n      dup1\n      0x60\n      dup2\n      mstore\n      0x20\n      add\n      0x00\n      dup2\n      mstore\n      0x20\n      add\n      0x60\n      dup2\n      mstore\n      pop\n      swap1\n      jump\t// out\n        /* \"#utility.yul\":7:106   */\n    tag_78:\n        /* \"#utility.yul\":59:65   */\n      0x00\n        /* \"#utility.yul\":93:98   */\n      dup2\n        /* \"#utility.yul\":87:99   */\n      mload\n        /* \"#utility.yul\":77:99   */\n      swap1\n      pop\n        /* \"#utility.yul\":7:106   */\n      swap2\n      swap1\n      pop\n      jump\t// out\n        /* \"#utility.yul\":112:271   */\n    tag_79:\n        /* \"#utility.yul\":186:197   */\n      0x00\n        /* \"#utility.yul\":220:226   */\n      dup3\n        /* \"#utility.yul\":215:218   */\n      dup3\n        /* \"#utility.yul\":208:227   */\n      mstore\n        /* \"#utility.yul\":260:264   */\n      0x20\n        /* \"#utility.yul\":255:258   */\n      dup3\n        /* \"#utility.yul\":251:265   */\n      add\n        /* \"#utility.yul\":236:265   */\n      swap1\n      pop\n        /* \"#utility.yul\":112:271   */\n      swap3\n      swap2\n      pop\n      pop\n      jump\t// out\n        /* \"#utility.yul\":277:523   */\n    tag_80:\n        /* \"#utility.yul\":358:359   */\n      0x00\n        /* \"#utility.yul\":368:481   */\n    tag_110:\n        /* \"#utility.yul\":382:388   */\n      dup4\n        /* \"#utility.yul\":379:380   */\n      dup2\n        /* \"#utility.yul\":376:389   */\n      lt\n        /* \"#utility.yul\":368:481   */\n      iszero\n      tag_112\n      jumpi\n        /* \"#utility.yul\":467:468   */\n      dup1\n        /* \"#utility.yul\":462:465   */\n      dup3\n        /* \"#utility.yul\":458:469   */\n      add\n        /* \"#utility.yul\":452:470   */\n      mload\n        /* \"#utility.yul\":448:449   */\n      dup2\n        /* \"#utility.yul\":443:446   */\n      dup5\n        /* \"#utility.yul\":439:450   */\n      add\n        /* \"#utility.yul\":432:471   */\n      mstore\n        /* \"#utility.yul\":404:406   */\n      0x20\n        /* \"#utility.yul\":401:402   */\n      dup2\n        /* \"#utility.yul\":397:407   */\n      add\n        /* \"#utility.yul\":392:407   */\n      swap1\n      pop\n        /* \"#utility.yul\":368:481   */\n      jump(tag_110)\n    tag_112:\n        /* \"#utility.yul\":515:516   */\n      0x00\n        /* \"#utility.yul\":506:512   */\n      dup5\n        /* \"#utility.yul\":501:504   */\n      dup5\n        /* \"#utility.yul\":497:513   */\n      add\n        /* \"#utility.yul\":490:517   */\n      mstore\n        /* \"#utility.yul\":339:523   */\n      pop\n        /* \"#utility.yul\":277:523   */\n      pop\n      pop\n      pop\n      jump\t// out\n        /* \"#utility.yul\":529:631   */\n    tag_81:\n        /* \"#utility.yul\":570:576   */\n      0x00\n        /* \"#utility.yul\":621:623   */\n      0x1f\n        /* \"#utility.yul\":617:624   */\n      not\n        /* \"#utility.yul\":612:614   */\n      0x1f\n        /* \"#utility.yul\":605:610   */\n      dup4\n        /* \"#utility.yul\":601:615   */\n      add\n        /* \"#utility.yul\":597:625   */\n      and\n        /* \"#utility.yul\":587:625   */\n      swap1\n      pop\n        /* \"#utility.yul\":529:631   */\n      swap2\n      swap1\n      pop\n      jump\t// out\n        /* \"#utility.yul\":637:994   */\n    tag_82:\n        /* \"#utility.yul\":715:718   */\n      0x00\n        /* \"#utility.yul\":743:782   */\n      tag_115\n        /* \"#utility.yul\":776:781   */\n      dup3\n        /* \"#utility.yul\":743:782   */\n      tag_78\n      jump\t// in\n    tag_115:\n        /* \"#utility.yul\":798:859   */\n      tag_116\n        /* \"#utility.yul\":852:858   */\n      dup2\n        /* \"#utility.yul\":847:850   */\n      dup6\n        /* \"#utility.yul\":798:859   */\n      tag_79\n      jump\t// in\n    tag_116:\n        /* \"#utility.yul\":791:859   */\n      swap4\n      pop\n        /* \"#utility.yul\":868:933   */\n      tag_117\n        /* \"#utility.yul\":926:932   */\n      dup2\n        /* \"#utility.yul\":921:924   */\n      dup6\n        /* \"#utility.yul\":914:918   */\n      0x20\n        /* \"#utility.yul\":907:912   */\n      dup7\n        /* \"#utility.yul\":903:919   */\n      add\n        /* \"#utility.yul\":868:933   */\n      tag_80\n      jump\t// in\n    tag_117:\n        /* \"#utility.yul\":958:987   */\n      tag_118\n        /* \"#utility.yul\":980:986   */\n      dup2\n        /* \"#utility.yul\":958:987   */\n      tag_81\n      jump\t// in\n    tag_118:\n        /* \"#utility.yul\":953:956   */\n      dup5\n        /* \"#utility.yul\":949:988   */\n      add\n        /* \"#utility.yul\":942:988   */\n      swap2\n      pop\n        /* \"#utility.yul\":719:994   */\n      pop\n        /* \"#utility.yul\":637:994   */\n      swap3\n      swap2\n      pop\n      pop\n      jump\t// out\n        /* \"#utility.yul\":1000:1077   */\n    tag_83:\n        /* \"#utility.yul\":1037:1044   */\n      0x00\n        /* \"#utility.yul\":1066:1071   */\n      dup2\n        /* \"#utility.yul\":1055:1071   */\n      swap1\n      pop\n        /* \"#utility.yul\":1000:1077   */\n      swap2\n      swap1\n      pop\n      jump\t// out\n        /* \"#utility.yul\":1083:1191   */\n    tag_84:\n        /* \"#utility.yul\":1160:1184   */\n      tag_121\n        /* \"#utility.yul\":1178:1183   */\n      dup2\n        /* \"#utility.yul\":1160:1184   */\n      tag_83\n      jump\t// in\n    tag_121:\n        /* \"#utility.yul\":1155:1158   */\n      dup3\n        /* \"#utility.yul\":1148:1185   */\n      mstore\n        /* \"#utility.yul\":1083:1191   */\n      pop\n      pop\n      jump\t// out\n        /* \"#utility.yul\":1253:2094   */\n    tag_85:\n        /* \"#utility.yul\":1358:1361   */\n      0x00\n        /* \"#utility.yul\":1394:1398   */\n      0x60\n        /* \"#utility.yul\":1389:1392   */\n      dup4\n        /* \"#utility.yul\":1385:1399   */\n      add\n        /* \"#utility.yul\":1481:1485   */\n      0x00\n        /* \"#utility.yul\":1474:1479   */\n      dup4\n        /* \"#utility.yul\":1470:1486   */\n      add\n        /* \"#utility.yul\":1464:1487   */\n      mload\n        /* \"#utility.yul\":1534:1537   */\n      dup5\n        /* \"#utility.yul\":1528:1532   */\n      dup3\n        /* \"#utility.yul\":1524:1538   */\n      sub\n        /* \"#utility.yul\":1517:1521   */\n      0x00\n        /* \"#utility.yul\":1512:1515   */\n      dup7\n        /* \"#utility.yul\":1508:1522   */\n      add\n        /* \"#utility.yul\":1501:1539   */\n      mstore\n        /* \"#utility.yul\":1560:1633   */\n      tag_123\n        /* \"#utility.yul\":1628:1632   */\n      dup3\n        /* \"#utility.yul\":1614:1626   */\n      dup3\n        /* \"#utility.yul\":1560:1633   */\n      tag_82\n      jump\t// in\n    tag_123:\n        /* \"#utility.yul\":1552:1633   */\n      swap2\n      pop\n        /* \"#utility.yul\":1409:1644   */\n      pop\n        /* \"#utility.yul\":1727:1731   */\n      0x20\n        /* \"#utility.yul\":1720:1725   */\n      dup4\n        /* \"#utility.yul\":1716:1732   */\n      add\n        /* \"#utility.yul\":1710:1733   */\n      mload\n        /* \"#utility.yul\":1746:1809   */\n      tag_124\n        /* \"#utility.yul\":1803:1807   */\n      0x20\n        /* \"#utility.yul\":1798:1801   */\n      dup7\n        /* \"#utility.yul\":1794:1808   */\n      add\n        /* \"#utility.yul\":1780:1792   */\n      dup3\n        /* \"#utility.yul\":1746:1809   */\n      tag_84\n      jump\t// in\n    tag_124:\n        /* \"#utility.yul\":1654:1819   */\n      pop\n        /* \"#utility.yul\":1904:1908   */\n      0x40\n        /* \"#utility.yul\":1897:1902   */\n      dup4\n        /* \"#utility.yul\":1893:1909   */\n      add\n        /* \"#utility.yul\":1887:1910   */\n      mload\n        /* \"#utility.yul\":1957:1960   */\n      dup5\n        /* \"#utility.yul\":1951:1955   */\n      dup3\n        /* \"#utility.yul\":1947:1961   */\n      sub\n        /* \"#utility.yul\":1940:1944   */\n      0x40\n        /* \"#utility.yul\":1935:1938   */\n      dup7\n        /* \"#utility.yul\":1931:1945   */\n      add\n        /* \"#utility.yul\":1924:1962   */\n      mstore\n        /* \"#utility.yul\":1983:2056   */\n      tag_125\n        /* \"#utility.yul\":2051:2055   */\n      dup3\n        /* \"#utility.yul\":2037:2049   */\n      dup3\n        /* \"#utility.yul\":1983:2056   */\n      tag_82\n      jump\t// in\n    tag_125:\n        /* \"#utility.yul\":1975:2056   */\n      swap2\n      pop\n        /* \"#utility.yul\":1829:2067   */\n      pop\n        /* \"#utility.yul\":2084:2088   */\n      dup1\n        /* \"#utility.yul\":2077:2088   */\n      swap2\n      pop\n        /* \"#utility.yul\":1363:2094   */\n      pop\n        /* \"#utility.yul\":1253:2094   */\n      swap3\n      swap2\n      pop\n      pop\n      jump\t// out\n        /* \"#utility.yul\":2100:2678   */\n    tag_9:\n        /* \"#utility.yul\":2293:2297   */\n      0x00\n        /* \"#utility.yul\":2331:2333   */\n      0x40\n        /* \"#utility.yul\":2320:2329   */\n      dup3\n        /* \"#utility.yul\":2316:2334   */\n      add\n        /* \"#utility.yul\":2308:2334   */\n      swap1\n      pop\n        /* \"#utility.yul\":2380:2389   */\n      dup2\n        /* \"#utility.yul\":2374:2378   */\n      dup2\n        /* \"#utility.yul\":2370:2390   */\n      sub\n        /* \"#utility.yul\":2366:2367   */\n      0x00\n        /* \"#utility.yul\":2355:2364   */\n      dup4\n        /* \"#utility.yul\":2351:2368   */\n      add\n        /* \"#utility.yul\":2344:2391   */\n      mstore\n        /* \"#utility.yul\":2408:2502   */\n      tag_127\n        /* \"#utility.yul\":2497:2501   */\n      dup2\n        /* \"#utility.yul\":2488:2494   */\n      dup6\n        /* \"#utility.yul\":2408:2502   */\n      tag_85\n      jump\t// in\n    tag_127:\n        /* \"#utility.yul\":2400:2502   */\n      swap1\n      pop\n        /* \"#utility.yul\":2549:2558   */\n      dup2\n        /* \"#utility.yul\":2543:2547   */\n      dup2\n        /* \"#utility.yul\":2539:2559   */\n      sub\n        /* \"#utility.yul\":2534:2536   */\n      0x20\n        /* \"#utility.yul\":2523:2532   */\n      dup4\n        /* \"#utility.yul\":2519:2537   */\n      add\n        /* \"#utility.yul\":2512:2560   */\n      mstore\n        /* \"#utility.yul\":2577:2671   */\n      tag_128\n        /* \"#utility.yul\":2666:2670   */\n      dup2\n        /* \"#utility.yul\":2657:2663   */\n      dup5\n        /* \"#utility.yul\":2577:2671   */\n      tag_85\n      jump\t// in\n    tag_128:\n        /* \"#utility.yul\":2569:2671   */\n      swap1\n      pop\n        /* \"#utility.yul\":2100:2678   */\n      swap4\n      swap3\n      pop\n      pop\n      pop\n      jump\t// out\n        /* \"#utility.yul\":2684:2853   */\n    tag_86:\n        /* \"#utility.yul\":2768:2779   */\n      0x00\n        /* \"#utility.yul\":2802:2808   */\n      dup3\n        /* \"#utility.yul\":2797:2800   */\n      dup3\n        /* \"#utility.yul\":2790:2809   */\n      mstore\n        /* \"#utility.yul\":2842:2846   */\n      0x20\n        /* \"#utility.yul\":2837:2840   */\n      dup3\n        /* \"#utility.yul\":2833:2847   */\n      add\n        /* \"#utility.yul\":2818:2847   */\n      swap1\n      pop\n        /* \"#utility.yul\":2684:2853   */\n      swap3\n      swap2\n      pop\n      pop\n      jump\t// out\n        /* \"#utility.yul\":2859:3236   */\n    tag_87:\n        /* \"#utility.yul\":2947:2950   */\n      0x00\n        /* \"#utility.yul\":2975:3014   */\n      tag_131\n        /* \"#utility.yul\":3008:3013   */\n      dup3\n        /* \"#utility.yul\":2975:3014   */\n      tag_78\n      jump\t// in\n    tag_131:\n        /* \"#utility.yul\":3030:3101   */\n      tag_132\n        /* \"#utility.yul\":3094:3100   */\n      dup2\n        /* \"#utility.yul\":3089:3092   */\n      dup6\n        /* \"#utility.yul\":3030:3101   */\n      tag_86\n      jump\t// in\n    tag_132:\n        /* \"#utility.yul\":3023:3101   */\n      swap4\n      pop\n        /* \"#utility.yul\":3110:3175   */\n      tag_133\n        /* \"#utility.yul\":3168:3174   */\n      dup2\n        /* \"#utility.yul\":3163:3166   */\n      dup6\n        /* \"#utility.yul\":3156:3160   */\n      0x20\n        /* \"#utility.yul\":3149:3154   */\n      dup7\n        /* \"#utility.yul\":3145:3161   */\n      add\n        /* \"#utility.yul\":3110:3175   */\n      tag_80\n      jump\t// in\n    tag_133:\n        /* \"#utility.yul\":3200:3229   */\n      tag_134\n        /* \"#utility.yul\":3222:3228   */\n      dup2\n        /* \"#utility.yul\":3200:3229   */\n      tag_81\n      jump\t// in\n    tag_134:\n        /* \"#utility.yul\":3195:3198   */\n      dup5\n        /* \"#utility.yul\":3191:3230   */\n      add\n        /* \"#utility.yul\":3184:3230   */\n      swap2\n      pop\n        /* \"#utility.yul\":2951:3236   */\n      pop\n        /* \"#utility.yul\":2859:3236   */\n      swap3\n      swap2\n      pop\n      pop\n      jump\t// out\n        /* \"#utility.yul\":3242:3360   */\n    tag_88:\n        /* \"#utility.yul\":3329:3353   */\n      tag_136\n        /* \"#utility.yul\":3347:3352   */\n      dup2\n        /* \"#utility.yul\":3329:3353   */\n      tag_83\n      jump\t// in\n    tag_136:\n        /* \"#utility.yul\":3324:3327   */\n      dup3\n        /* \"#utility.yul\":3317:3354   */\n      mstore\n        /* \"#utility.yul\":3242:3360   */\n      pop\n      pop\n      jump\t// out\n        /* \"#utility.yul\":3366:3990   */\n    tag_16:\n        /* \"#utility.yul\":3555:3559   */\n      0x00\n        /* \"#utility.yul\":3593:3595   */\n      0x60\n        /* \"#utility.yul\":3582:3591   */\n      dup3\n        /* \"#utility.yul\":3578:3596   */\n      add\n        /* \"#utility.yul\":3570:3596   */\n      swap1\n      pop\n        /* \"#utility.yul\":3642:3651   */\n      dup2\n        /* \"#utility.yul\":3636:3640   */\n      dup2\n        /* \"#utility.yul\":3632:3652   */\n      sub\n        /* \"#utility.yul\":3628:3629   */\n      0x00\n        /* \"#utility.yul\":3617:3626   */\n      dup4\n        /* \"#utility.yul\":3613:3630   */\n      add\n        /* \"#utility.yul\":3606:3653   */\n      mstore\n        /* \"#utility.yul\":3670:3748   */\n      tag_138\n        /* \"#utility.yul\":3743:3747   */\n      dup2\n        /* \"#utility.yul\":3734:3740   */\n      dup7\n        /* \"#utility.yul\":3670:3748   */\n      tag_87\n      jump\t// in\n    tag_138:\n        /* \"#utility.yul\":3662:3748   */\n      swap1\n      pop\n        /* \"#utility.yul\":3758:3830   */\n      tag_139\n        /* \"#utility.yul\":3826:3828   */\n      0x20\n        /* \"#utility.yul\":3815:3824   */\n      dup4\n        /* \"#utility.yul\":3811:3829   */\n      add\n        /* \"#utility.yul\":3802:3808   */\n      dup6\n        /* \"#utility.yul\":3758:3830   */\n      tag_88\n      jump\t// in\n    tag_139:\n        /* \"#utility.yul\":3877:3886   */\n      dup2\n        /* \"#utility.yul\":3871:3875   */\n      dup2\n        /* \"#utility.yul\":3867:3887   */\n      sub\n        /* \"#utility.yul\":3862:3864   */\n      0x40\n        /* \"#utility.yul\":3851:3860   */\n      dup4\n        /* \"#utility.yul\":3847:3865   */\n      add\n        /* \"#utility.yul\":3840:3888   */\n      mstore\n        /* \"#utility.yul\":3905:3983   */\n      tag_140\n        /* \"#utility.yul\":3978:3982   */\n      dup2\n        /* \"#utility.yul\":3969:3975   */\n      dup5\n        /* \"#utility.yul\":3905:3983   */\n      tag_87\n      jump\t// in\n    tag_140:\n        /* \"#utility.yul\":3897:3983   */\n      swap1\n      pop\n        /* \"#utility.yul\":3366:3990   */\n      swap5\n      swap4\n      pop\n      pop\n      pop\n      pop\n      jump\t// out\n        /* \"#utility.yul\":3996:4176   */\n    tag_89:\n        /* \"#utility.yul\":4044:4121   */\n      0x4e487b7100000000000000000000000000000000000000000000000000000000\n        /* \"#utility.yul\":4041:4042   */\n      0x00\n        /* \"#utility.yul\":4034:4122   */\n      mstore\n        /* \"#utility.yul\":4141:4145   */\n      0x41\n        /* \"#utility.yul\":4138:4139   */\n      0x04\n        /* \"#utility.yul\":4131:4146   */\n      mstore\n        /* \"#utility.yul\":4165:4169   */\n      0x24\n        /* \"#utility.yul\":4162:4163   */\n      0x00\n        /* \"#utility.yul\":4155:4170   */\n      revert\n        /* \"#utility.yul\":4182:4362   */\n    tag_90:\n        /* \"#utility.yul\":4230:4307   */\n      0x4e487b7100000000000000000000000000000000000000000000000000000000\n        /* \"#utility.yul\":4227:4228   */\n      0x00\n        /* \"#utility.yul\":4220:4308   */\n      mstore\n        /* \"#utility.yul\":4327:4331   */\n      0x22\n        /* \"#utility.yul\":4324:4325   */\n      0x04\n        /* \"#utility.yul\":4317:4332   */\n      mstore\n        /* \"#utility.yul\":4351:4355   */\n      0x24\n        /* \"#utility.yul\":4348:4349   */\n      0x00\n        /* \"#utility.yul\":4341:4356   */\n      revert\n        /* \"#utility.yul\":4368:4688   */\n    tag_25:\n        /* \"#utility.yul\":4412:4418   */\n      0x00\n        /* \"#utility.yul\":4449:4450   */\n      0x02\n        /* \"#utility.yul\":4443:4447   */\n      dup3\n        /* \"#utility.yul\":4439:4451   */\n      div\n        /* \"#utility.yul\":4429:4451   */\n      swap1\n      pop\n        /* \"#utility.yul\":4496:4497   */\n      0x01\n        /* \"#utility.yul\":4490:4494   */\n      dup3\n        /* \"#utility.yul\":4486:4498   */\n      and\n        /* \"#utility.yul\":4517:4535   */\n      dup1\n        /* \"#utility.yul\":4507:4588   */\n      tag_144\n      jumpi\n        /* \"#utility.yul\":4573:4577   */\n      0x7f\n        /* \"#utility.yul\":4565:4571   */\n      dup3\n        /* \"#utility.yul\":4561:4578   */\n      and\n        /* \"#utility.yul\":4551:4578   */\n      swap2\n      pop\n        /* \"#utility.yul\":4507:4588   */\n    tag_144:\n        /* \"#utility.yul\":4635:4637   */\n      0x20\n        /* \"#utility.yul\":4627:4633   */\n      dup3\n        /* \"#utility.yul\":4624:4638   */\n      lt\n        /* \"#utility.yul\":4604:4622   */\n      dup2\n        /* \"#utility.yul\":4601:4639   */\n      sub\n        /* \"#utility.yul\":4598:4682   */\n      tag_145\n      jumpi\n        /* \"#utility.yul\":4654:4672   */\n      tag_146\n      tag_90\n      jump\t// in\n    tag_146:\n        /* \"#utility.yul\":4598:4682   */\n    tag_145:\n        /* \"#utility.yul\":4419:4688   */\n      pop\n        /* \"#utility.yul\":4368:4688   */\n      swap2\n      swap1\n      pop\n      jump\t// out\n        /* \"#utility.yul\":4694:4835   */\n    tag_91:\n        /* \"#utility.yul\":4743:4747   */\n      0x00\n        /* \"#utility.yul\":4766:4769   */\n      dup2\n        /* \"#utility.yul\":4758:4769   */\n      swap1\n      pop\n        /* \"#utility.yul\":4789:4792   */\n      dup2\n        /* \"#utility.yul\":4786:4787   */\n      0x00\n        /* \"#utility.yul\":4779:4793   */\n      mstore\n        /* \"#utility.yul\":4823:4827   */\n      0x20\n        /* \"#utility.yul\":4820:4821   */\n      0x00\n        /* \"#utility.yul\":4810:4828   */\n      keccak256\n        /* \"#utility.yul\":4802:4828   */\n      swap1\n      pop\n        /* \"#utility.yul\":4694:4835   */\n      swap2\n      swap1\n      pop\n      jump\t// out\n        /* \"#utility.yul\":4841:4934   */\n    tag_92:\n        /* \"#utility.yul\":4878:4884   */\n      0x00\n        /* \"#utility.yul\":4925:4927   */\n      0x20\n        /* \"#utility.yul\":4920:4922   */\n      0x1f\n        /* \"#utility.yul\":4913:4918   */\n      dup4\n        /* \"#utility.yul\":4909:4923   */\n      add\n        /* \"#utility.yul\":4905:4928   */\n      div\n        /* \"#utility.yul\":4895:4928   */\n      swap1\n      pop\n        /* \"#utility.yul\":4841:4934   */\n      swap2\n      swap1\n      pop\n      jump\t// out\n        /* \"#utility.yul\":4940:5047   */\n    tag_93:\n        /* \"#utility.yul\":4984:4992   */\n      0x00\n        /* \"#utility.yul\":5034:5039   */\n      dup3\n        /* \"#utility.yul\":5028:5032   */\n      dup3\n        /* \"#utility.yul\":5024:5040   */\n      shl\n        /* \"#utility.yul\":5003:5040   */\n      swap1\n      pop\n        /* \"#utility.yul\":4940:5047   */\n      swap3\n      swap2\n      pop\n      pop\n      jump\t// out\n        /* \"#utility.yul\":5053:5446   */\n    tag_94:\n        /* \"#utility.yul\":5122:5128   */\n      0x00\n        /* \"#utility.yul\":5172:5173   */\n      0x08\n        /* \"#utility.yul\":5160:5170   */\n      dup4\n        /* \"#utility.yul\":5156:5174   */\n      mul\n        /* \"#utility.yul\":5195:5292   */\n      tag_151\n        /* \"#utility.yul\":5225:5291   */\n      0xffffffffffffffffffffffffffffffffffffffffffffffffffffffffffffffff\n        /* \"#utility.yul\":5214:5223   */\n      dup3\n        /* \"#utility.yul\":5195:5292   */\n      tag_93\n      jump\t// in\n    tag_151:\n        /* \"#utility.yul\":5313:5352   */\n      tag_152\n        /* \"#utility.yul\":5343:5351   */\n      dup7\n        /* \"#utility.yul\":5332:5341   */\n      dup4\n        /* \"#utility.yul\":5313:5352   */\n      tag_93\n      jump\t// in\n    tag_152:\n        /* \"#utility.yul\":5301:5352   */\n      swap6\n      pop\n        /* \"#utility.yul\":5385:5389   */\n      dup1\n        /* \"#utility.yul\":5381:5390   */\n      not\n        /* \"#utility.yul\":5374:5379   */\n      dup5\n        /* \"#utility.yul\":5370:5391   */\n      and\n        /* \"#utility.yul\":5361:5391   */\n      swap4\n      pop\n        /* \"#utility.yul\":5434:5438   */\n      dup1\n        /* \"#utility.yul\":5424:5432   */\n      dup7\n        /* \"#utility.yul\":5420:5439   */\n      and\n        /* \"#utility.yul\":5413:5418   */\n      dup5\n        /* \"#utility.yul\":5410:5440   */\n      or\n        /* \"#utility.yul\":5400:5440   */\n      swap3\n      pop\n        /* \"#utility.yul\":5129:5446   */\n      pop\n      pop\n        /* \"#utility.yul\":5053:5446   */\n      swap4\n      swap3\n      pop\n      pop\n      pop\n      jump\t// out\n        /* \"#utility.yul\":5452:5512   */\n    tag_95:\n        /* \"#utility.yul\":5480:5483   */\n      0x00\n        /* \"#utility.yul\":5501:5506   */\n      dup2\n        /* \"#utility.yul\":5494:5506   */\n      swap1\n      pop\n        /* \"#utility.yul\":5452:5512   */\n      swap2\n      swap1\n      pop\n      jump\t// out\n        /* \"#utility.yul\":5518:5660   */\n    tag_96:\n        /* \"#utility.yul\":5568:5577   */\n      0x00\n        /* \"#utility.yul\":5601:5654   */\n      tag_155\n        /* \"#utility.yul\":5619:5653   */\n      tag_156\n        /* \"#utility.yul\":5628:5652   */\n      tag_157\n        /* \"#utility.yul\":5646:5651   */\n      dup5\n        /* \"#utility.yul\":5628:5652   */\n      tag_83\n      jump\t// in\n    tag_157:\n        /* \"#utility.yul\":5619:5653   */\n      tag_95\n      jump\t// in\n    tag_156:\n        /* \"#utility.yul\":5601:5654   */\n      tag_83\n      jump\t// in\n    tag_155:\n        /* \"#utility.yul\":5588:5654   */\n      swap1\n      pop\n        /* \"#utility.yul\":5518:5660   */\n      swap2\n      swap1\n      pop\n      jump\t// out\n        /* \"#utility.yul\":5666:5741   */\n    tag_97:\n        /* \"#utility.yul\":5709:5712   */\n      0x00\n        /* \"#utility.yul\":5730:5735   */\n      dup2\n        /* \"#utility.yul\":5723:5735   */\n      swap1\n      pop\n        /* \"#utility.yul\":5666:5741   */\n      swap2\n      swap1\n      pop\n      jump\t// out\n        /* \"#utility.yul\":5747:6016   */\n    tag_98:\n        /* \"#utility.yul\":5857:5896   */\n      tag_160\n        /* \"#utility.yul\":5888:5895   */\n      dup4\n        /* \"#utility.yul\":5857:5896   */\n      tag_96\n      jump\t// in\n    tag_160:\n        /* \"#utility.yul\":5918:6009   */\n      tag_161\n        /* \"#utility.yul\":5967:6008   */\n      tag_162\n        /* \"#utility.yul\":5991:6007   */\n      dup3\n        /* \"#utility.yul\":5967:6008   */\n      tag_97\n      jump\t// in\n    tag_162:\n        /* \"#utility.yul\":5959:5965   */\n      dup5\n        /* \"#utility.yul\":5952:5956   */\n      dup5\n        /* \"#utility.yul\":5946:5957   */\n      sload\n        /* \"#utility.yul\":5918:6009   */\n      tag_94\n      jump\t// in\n    tag_161:\n        /* \"#utility.yul\":5912:5916   */\n      dup3\n        /* \"#utility.yul\":5905:6010   */\n      sstore\n        /* \"#utility.yul\":5823:6016   */\n      pop\n        /* \"#utility.yul\":5747:6016   */\n      pop\n      pop\n      pop\n      jump\t// out\n        /* \"#utility.yul\":6022:6095   */\n    tag_99:\n        /* \"#utility.yul\":6067:6070   */\n      0x00\n        /* \"#utility.yul\":6022:6095   */\n      swap1\n      jump\t// out\n        /* \"#utility.yul\":6101:6290   */\n    tag_100:\n        /* \"#utility.yul\":6178:6210   */\n      tag_165\n      tag_99\n      jump\t// in\n    tag_165:\n        /* \"#utility.yul\":6219:6284   */\n      tag_166\n        /* \"#utility.yul\":6277:6283   */\n      dup2\n        /* \"#utility.yul\":6269:6275   */\n      dup5\n        /* \"#utility.yul\":6263:6267   */\n      dup5\n        /* \"#utility.yul\":6219:6284   */\n      tag_98\n      jump\t// in\n    tag_166:\n        /* \"#utility.yul\":6154:6290   */\n      pop\n        /* \"#utility.yul\":6101:6290   */\n      pop\n      pop\n      jump\t// out\n        /* \"#utility.yul\":6296:6482   */\n    tag_101:\n        /* \"#utility.yul\":6356:6476   */\n    tag_168:\n        /* \"#utility.yul\":6373:6376   */\n      dup2\n        /* \"#utility.yul\":6366:6371   */\n      dup2\n        /* \"#utility.yul\":6363:6377   */\n      lt\n        /* \"#utility.yul\":6356:6476   */\n      iszero\n      tag_170\n      jumpi\n        /* \"#utility.yul\":6427:6466   */\n      tag_171\n        /* \"#utility.yul\":6464:6465   */\n      0x00\n        /* \"#utility.yul\":6457:6462   */\n      dup3\n        /* \"#utility.yul\":6427:6466   */\n      tag_100\n      jump\t// in\n    tag_171:\n        /* \"#utility.yul\":6400:6401   */\n      0x01\n        /* \"#utility.yul\":6393:6398   */\n      dup2\n        /* \"#utility.yul\":6389:6402   */\n      add\n        /* \"#utility.yul\":6380:6402   */\n      swap1\n      pop\n        /* \"#utility.yul\":6356:6476   */\n      jump(tag_168)\n    tag_170:\n        /* \"#utility.yul\":6296:6482   */\n      pop\n      pop\n      jump\t// out\n        /* \"#utility.yul\":6488:7031   */\n    tag_102:\n        /* \"#utility.yul\":6589:6591   */\n      0x1f\n        /* \"#utility.yul\":6584:6587   */\n      dup3\n        /* \"#utility.yul\":6581:6592   */\n      gt\n        /* \"#utility.yul\":6578:7024   */\n      iszero\n      tag_173\n      jumpi\n        /* \"#utility.yul\":6623:6661   */\n      tag_174\n        /* \"#utility.yul\":6655:6660   */\n      dup2\n        /* \"#utility.yul\":6623:6661   */\n      tag_91\n      jump\t// in\n    tag_174:\n        /* \"#utility.yul\":6707:6736   */\n      tag_175\n        /* \"#utility.yul\":6725:6735   */\n      dup5\n        /* \"#utility.yul\":6707:6736   */\n      tag_92\n      jump\t// in\n    tag_175:\n        /* \"#utility.yul\":6697:6705   */\n      dup2\n        /* \"#utility.yul\":6693:6737   */\n      add\n        /* \"#utility.yul\":6890:6892   */\n      0x20\n        /* \"#utility.yul\":6878:6888   */\n      dup6\n        /* \"#utility.yul\":6875:6893   */\n      lt\n        /* \"#utility.yul\":6872:6921   */\n      iszero\n      tag_176\n      jumpi\n        /* \"#utility.yul\":6911:6919   */\n      dup2\n        /* \"#utility.yul\":6896:6919   */\n      swap1\n      pop\n        /* \"#utility.yul\":6872:6921   */\n    tag_176:\n        /* \"#utility.yul\":6934:7014   */\n      tag_177\n        /* \"#utility.yul\":6990:7012   */\n      tag_178\n        /* \"#utility.yul\":7008:7011   */\n      dup6\n        /* \"#utility.yul\":6990:7012   */\n      tag_92\n      jump\t// in\n    tag_178:\n        /* \"#utility.yul\":6980:6988   */\n      dup4\n        /* \"#utility.yul\":6976:7013   */\n      add\n        /* \"#utility.yul\":6963:6974   */\n      dup3\n        /* \"#utility.yul\":6934:7014   */\n      tag_101\n      jump\t// in\n    tag_177:\n        /* \"#utility.yul\":6593:7024   */\n      pop\n      pop\n        /* \"#utility.yul\":6578:7024   */\n    tag_173:\n        /* \"#utility.yul\":6488:7031   */\n      pop\n      pop\n      pop\n      jump\t// out\n        /* \"#utility.yul\":7037:7154   */\n    tag_103:\n        /* \"#utility.yul\":7091:7099   */\n      0x00\n        /* \"#utility.yul\":7141:7146   */\n      dup3\n        /* \"#utility.yul\":7135:7139   */\n      dup3\n        /* \"#utility.yul\":7131:7147   */\n      shr\n        /* \"#utility.yul\":7110:7147   */\n      swap1\n      pop\n        /* \"#utility.yul\":7037:7154   */\n      swap3\n      swap2\n      pop\n      pop\n      jump\t// out\n        /* \"#utility.yul\":7160:7329   */\n    tag_104:\n        /* \"#utility.yul\":7204:7210   */\n      0x00\n        /* \"#utility.yul\":7237:7288   */\n      tag_181\n        /* \"#utility.yul\":7285:7286   */\n      0x00\n        /* \"#utility.yul\":7281:7287   */\n      not\n        /* \"#utility.yul\":7273:7278   */\n      dup5\n        /* \"#utility.yul\":7270:7271   */\n      0x08\n        /* \"#utility.yul\":7266:7279   */\n      mul\n        /* \"#utility.yul\":7237:7288   */\n      tag_103\n      jump\t// in\n    tag_181:\n        /* \"#utility.yul\":7233:7289   */\n      not\n        /* \"#utility.yul\":7318:7322   */\n      dup1\n        /* \"#utility.yul\":7312:7316   */\n      dup4\n        /* \"#utility.yul\":7308:7323   */\n      and\n        /* \"#utility.yul\":7298:7323   */\n      swap2\n      pop\n        /* \"#utility.yul\":7211:7329   */\n      pop\n        /* \"#utility.yul\":7160:7329   */\n      swap3\n      swap2\n      pop\n      pop\n      jump\t// out\n        /* \"#utility.yul\":7334:7629   */\n    tag_105:\n        /* \"#utility.yul\":7410:7414   */\n      0x00\n        /* \"#utility.yul\":7556:7585   */\n      tag_183\n        /* \"#utility.yul\":7581:7584   */\n      dup4\n        /* \"#utility.yul\":7575:7579   */\n      dup4\n        /* \"#utility.yul\":7556:7585   */\n      tag_104\n      jump\t// in\n    tag_183:\n        /* \"#utility.yul\":7548:7585   */\n      swap2\n      pop\n        /* \"#utility.yul\":7618:7621   */\n      dup3\n        /* \"#utility.yul\":7615:7616   */\n      0x02\n        /* \"#utility.yul\":7611:7622   */\n      mul\n        /* \"#utility.yul\":7605:7609   */\n      dup3\n        /* \"#utility.yul\":7602:7623   */\n      or\n        /* \"#utility.yul\":7594:7623   */\n      swap1\n      pop\n        /* \"#utility.yul\":7334:7629   */\n      swap3\n      swap2\n      pop\n      pop\n      jump\t// out\n        /* \"#utility.yul\":7634:9029   */\n    tag_22:\n        /* \"#utility.yul\":7751:7788   */\n      tag_185\n        /* \"#utility.yul\":7784:7787   */\n      dup3\n        /* \"#utility.yul\":7751:7788   */\n      tag_78\n      jump\t// in\n    tag_185:\n        /* \"#utility.yul\":7853:7871   */\n      0xffffffffffffffff\n        /* \"#utility.yul\":7845:7851   */\n      dup2\n        /* \"#utility.yul\":7842:7872   */\n      gt\n        /* \"#utility.yul\":7839:7895   */\n      iszero\n      tag_186\n      jumpi\n        /* \"#utility.yul\":7875:7893   */\n      tag_187\n      tag_89\n      jump\t// in\n    tag_187:\n        /* \"#utility.yul\":7839:7895   */\n    tag_186:\n        /* \"#utility.yul\":7919:7957   */\n      tag_188\n        /* \"#utility.yul\":7951:7955   */\n      dup3\n        /* \"#utility.yul\":7945:7956   */\n      sload\n        /* \"#utility.yul\":7919:7957   */\n      tag_25\n      jump\t// in\n    tag_188:\n        /* \"#utility.yul\":8004:8071   */\n      tag_189\n        /* \"#utility.yul\":8064:8070   */\n      dup3\n        /* \"#utility.yul\":8056:8062   */\n      dup3\n        /* \"#utility.yul\":8050:8054   */\n      dup6\n        /* \"#utility.yul\":8004:8071   */\n      tag_102\n      jump\t// in\n    tag_189:\n        /* \"#utility.yul\":8098:8099   */\n      0x00\n        /* \"#utility.yul\":8122:8126   */\n      0x20\n        /* \"#utility.yul\":8109:8126   */\n      swap1\n      pop\n        /* \"#utility.yul\":8154:8156   */\n      0x1f\n        /* \"#utility.yul\":8146:8152   */\n      dup4\n        /* \"#utility.yul\":8143:8157   */\n      gt\n        /* \"#utility.yul\":8171:8172   */\n      0x01\n        /* \"#utility.yul\":8166:8784   */\n      dup2\n      eq\n      tag_191\n      jumpi\n        /* \"#utility.yul\":8828:8829   */\n      0x00\n        /* \"#utility.yul\":8845:8851   */\n      dup5\n        /* \"#utility.yul\":8842:8919   */\n      iszero\n      tag_192\n      jumpi\n        /* \"#utility.yul\":8894:8903   */\n      dup3\n        /* \"#utility.yul\":8889:8892   */\n      dup8\n        /* \"#utility.yul\":8885:8904   */\n      add\n        /* \"#utility.yul\":8879:8905   */\n      mload\n        /* \"#utility.yul\":8870:8905   */\n      swap1\n      pop\n        /* \"#utility.yul\":8842:8919   */\n    tag_192:\n        /* \"#utility.yul\":8945:9012   */\n      tag_193\n        /* \"#utility.yul\":9005:9011   */\n      dup6\n        /* \"#utility.yul\":8998:9003   */\n      dup3\n        /* \"#utility.yul\":8945:9012   */\n      tag_105\n      jump\t// in\n    tag_193:\n        /* \"#utility.yul\":8939:8943   */\n      dup7\n        /* \"#utility.yul\":8932:9013   */\n      sstore\n        /* \"#utility.yul\":8801:9023   */\n      pop\n        /* \"#utility.yul\":8136:9023   */\n      jump(tag_190)\n        /* \"#utility.yul\":8166:8784   */\n    tag_191:\n        /* \"#utility.yul\":8218:8222   */\n      0x1f\n        /* \"#utility.yul\":8214:8223   */\n      not\n        /* \"#utility.yul\":8206:8212   */\n      dup5\n        /* \"#utility.yul\":8202:8224   */\n      and\n        /* \"#utility.yul\":8252:8289   */\n      tag_194\n        /* \"#utility.yul\":8284:8288   */\n      dup7\n        /* \"#utility.yul\":8252:8289   */\n      tag_91\n      jump\t// in\n    tag_194:\n        /* \"#utility.yul\":8311:8312   */\n      0x00\n        /* \"#utility.yul\":8325:8533   */\n    tag_195:\n        /* \"#utility.yul\":8339:8346   */\n      dup3\n        /* \"#utility.yul\":8336:8337   */\n      dup2\n        /* \"#utility.yul\":8333:8347   */\n      lt\n        /* \"#utility.yul\":8325:8533   */\n      iszero\n      tag_197\n      jumpi\n        /* \"#utility.yul\":8418:8427   */\n      dup5\n        /* \"#utility.yul\":8413:8416   */\n      dup10\n        /* \"#utility.yul\":8409:8428   */\n      add\n        /* \"#utility.yul\":8403:8429   */\n      mload\n        /* \"#utility.yul\":8395:8401   */\n      dup3\n        /* \"#utility.yul\":8388:8430   */\n      sstore\n        /* \"#utility.yul\":8469:8470   */\n      0x01\n        /* \"#utility.yul\":8461:8467   */\n      dup3\n        /* \"#utility.yul\":8457:8471   */\n      add\n        /* \"#utility.yul\":8447:8471   */\n      swap2\n      pop\n        /* \"#utility.yul\":8516:8518   */\n      0x20\n        /* \"#utility.yul\":8505:8514   */\n      dup6\n        /* \"#utility.yul\":8501:8519   */\n      add\n        /* \"#utility.yul\":8488:8519   */\n      swap5\n      pop\n        /* \"#utility.yul\":8362:8366   */\n      0x20\n        /* \"#utility.yul\":8359:8360   */\n      dup2\n        /* \"#utility.yul\":8355:8367   */\n      add\n        /* \"#utility.yul\":8350:8367   */\n      swap1\n      pop\n        /* \"#utility.yul\":8325:8533   */\n      jump(tag_195)\n    tag_197:\n        /* \"#utility.yul\":8561:8567   */\n      dup7\n        /* \"#utility.yul\":8552:8559   */\n      dup4\n        /* \"#utility.yul\":8549:8568   */\n      lt\n        /* \"#utility.yul\":8546:8725   */\n      iszero\n      tag_198\n      jumpi\n        /* \"#utility.yul\":8619:8628   */\n      dup5\n        /* \"#utility.yul\":8614:8617   */\n      dup10\n        /* \"#utility.yul\":8610:8629   */\n      add\n        /* \"#utility.yul\":8604:8630   */\n      mload\n        /* \"#utility.yul\":8662:8710   */\n      tag_199\n        /* \"#utility.yul\":8704:8708   */\n      0x1f\n        /* \"#utility.yul\":8696:8702   */\n      dup10\n        /* \"#utility.yul\":8692:8709   */\n      and\n        /* \"#utility.yul\":8681:8690   */\n      dup3\n        /* \"#utility.yul\":8662:8710   */\n      tag_104\n      jump\t// in\n    tag_199:\n        /* \"#utility.yul\":8654:8660   */\n      dup4\n        /* \"#utility.yul\":8647:8711   */\n      sstore\n        /* \"#utility.yul\":8569:8725   */\n      pop\n        /* \"#utility.yul\":8546:8725   */\n    tag_198:\n        /* \"#utility.yul\":8771:8772   */\n      0x01\n        /* \"#utility.yul\":8767:8768   */\n      0x02\n        /* \"#utility.yul\":8759:8765   */\n      dup9\n        /* \"#utility.yul\":8755:8769   */\n      mul\n        /* \"#utility.yul\":8751:8773   */\n      add\n        /* \"#utility.yul\":8745:8749   */\n      dup9\n        /* \"#utility.yul\":8738:8774   */\n      sstore\n        /* \"#utility.yul\":8173:8784   */\n      pop\n      pop\n      pop\n        /* \"#utility.yul\":8136:9023   */\n    tag_190:\n      pop\n        /* \"#utility.yul\":7726:9029   */\n      pop\n      pop\n      pop\n        /* \"#utility.yul\":7634:9029   */\n      pop\n      pop\n      jump\t// out\n\n    auxdata: 0xa2646970667358221220e090378fb5d8aa91e25b00f3b1df3ac25408a7999becfefde9f2656816e025bb64736f6c63430008120033\n}\n",
				"bytecode": {
					"linkReferences": {},
					"object": "60806040523480156200001157600080fd5b5060405180606001604052806040518060400160405280600681526020017f546f796f7461000000000000000000000000000000000000000000000000000081525081526020016107d081526020016040518060400160405280600581526020017f507261646f000000000000000000000000000000000000000000000000000000815250815250600080820151816000019081620000b1919062000357565b50602082015181600101556040820151816002019081620000d3919062000357565b509050506200043e565b600081519050919050565b7f4e487b7100000000000000000000000000000000000000000000000000000000600052604160045260246000fd5b7f4e487b7100000000000000000000000000000000000000000000000000000000600052602260045260246000fd5b600060028204905060018216806200015f57607f821691505b60208210810362000175576200017462000117565b5b50919050565b60008190508160005260206000209050919050565b60006020601f8301049050919050565b600082821b905092915050565b600060088302620001df7fffffffffffffffffffffffffffffffffffffffffffffffffffffffffffffffff82620001a0565b620001eb8683620001a0565b95508019841693508086168417925050509392505050565b6000819050919050565b6000819050919050565b600062000238620002326200022c8462000203565b6200020d565b62000203565b9050919050565b6000819050919050565b620002548362000217565b6200026c62000263826200023f565b848454620001ad565b825550505050565b600090565b6200028362000274565b6200029081848462000249565b505050565b5b81811015620002b857620002ac60008262000279565b60018101905062000296565b5050565b601f8211156200030757620002d1816200017b565b620002dc8462000190565b81016020851015620002ec578190505b62000304620002fb8562000190565b83018262000295565b50505b505050565b600082821c905092915050565b60006200032c600019846008026200030c565b1980831691505092915050565b600062000347838362000319565b9150826002028217905092915050565b6200036282620000dd565b67ffffffffffffffff8111156200037e576200037d620000e8565b5b6200038a825462000146565b62000397828285620002bc565b600060209050601f831160018114620003cf5760008415620003ba578287015190505b620003c6858262000339565b86555062000436565b601f198416620003df866200017b565b60005b828110156200040957848901518255600182019150602085019450602081019050620003e2565b8683101562000429578489015162000425601f89168262000319565b8355505b6001600288020188555050505b505050505050565b610d52806200044e6000396000f3fe608060405234801561001057600080fd5b50600436106100415760003560e01c80631d2aec85146100465780636f67452114610065578063ee26fac314610084575b600080fd5b61004e6100a4565b60405161005c92919061093a565b60405180910390f35b61006d6103d3565b60405161007b92919061093a565b60405180910390f35b61008c6106f1565b60405161009b939291906109ca565b60405180910390f35b6100ac610819565b6100b4610819565b60006040518060400160405280600581526020017f486f6e64610000000000000000000000000000000000000000000000000000008152508160000190816100fc9190610c4a565b506107d181600101819055506040518060400160405280600581526020017f436976696300000000000000000000000000000000000000000000000000000081525081600201908161014e9190610c4a565b506000818160405180606001604052908160008201805461016e90610a6d565b80601f016020809104026020016040519081016040528092919081815260200182805461019a90610a6d565b80156101e75780601f106101bc576101008083540402835291602001916101e7565b820191906000526020600020905b8154815290600101906020018083116101ca57829003601f168201915b505050505081526020016001820154815260200160028201805461020a90610a6d565b80601f016020809104026020016040519081016040528092919081815260200182805461023690610a6d565b80156102835780601f1061025857610100808354040283529160200191610283565b820191906000526020600020905b81548152906001019060200180831161026657829003601f168201915b5050505050815250509150806040518060600160405290816000820180546102aa90610a6d565b80601f01602080910402602001604051908101604052809291908181526020018280546102d690610a6d565b80156103235780601f106102f857610100808354040283529160200191610323565b820191906000526020600020905b81548152906001019060200180831161030657829003601f168201915b505050505081526020016001820154815260200160028201805461034690610a6d565b80601f016020809104026020016040519081016040528092919081815260200182805461037290610a6d565b80156103bf5780601f10610394576101008083540402835291602001916103bf565b820191906000526020600020905b8154815290600101906020018083116103a257829003601f168201915b505050505081525050905092509250509091565b6103db610819565b6103e3610819565b60008060405180606001604052908160008201805461040190610a6d565b80601f016020809104026020016040519081016040528092919081815260200182805461042d90610a6d565b801561047a5780601f1061044f5761010080835404028352916020019161047a565b820191906000526020600020905b81548152906001019060200180831161045d57829003601f168201915b505050505081526020016001820154815260200160028201805461049d90610a6d565b80601f01602080910402602001604051908101604052809291908181526020018280546104c990610a6d565b80156105165780601f106104eb57610100808354040283529160200191610516565b820191906000526020600020905b8154815290600101906020018083116104f957829003601f168201915b50505050508152505090506040518060400160405280600581526020017f486f6e646100000000000000000000000000000000000000000000000000000081525081600001819052506107d18160200181815250506040518060400160405280600581526020017f43697669630000000000000000000000000000000000000000000000000000008152508160400181905250600081816040518060600160405290816000820180546105c890610a6d565b80601f01602080910402602001604051908101604052809291908181526020018280546105f490610a6d565b80156106415780601f1061061657610100808354040283529160200191610641565b820191906000526020600020905b81548152906001019060200180831161062457829003601f168201915b505050505081526020016001820154815260200160028201805461066490610a6d565b80601f016020809104026020016040519081016040528092919081815260200182805461069090610a6d565b80156106dd5780601f106106b2576101008083540402835291602001916106dd565b820191906000526020600020905b8154815290600101906020018083116106c057829003601f168201915b505050505081525050915092509250509091565b600080600001805461070290610a6d565b80601f016020809104026020016040519081016040528092919081815260200182805461072e90610a6d565b801561077b5780601f106107505761010080835404028352916020019161077b565b820191906000526020600020905b81548152906001019060200180831161075e57829003601f168201915b50505050509080600101549080600201805461079690610a6d565b80601f01602080910402602001604051908101604052809291908181526020018280546107c290610a6d565b801561080f5780601f106107e45761010080835404028352916020019161080f565b820191906000526020600020905b8154815290600101906020018083116107f257829003601f168201915b5050505050905083565b60405180606001604052806060815260200160008152602001606081525090565b600081519050919050565b600082825260208201905092915050565b60005b83811015610874578082015181840152602081019050610859565b60008484015250505050565b6000601f19601f8301169050919050565b600061089c8261083a565b6108a68185610845565b93506108b6818560208601610856565b6108bf81610880565b840191505092915050565b6000819050919050565b6108dd816108ca565b82525050565b600060608301600083015184820360008601526109008282610891565b915050602083015161091560208601826108d4565b506040830151848203604086015261092d8282610891565b9150508091505092915050565b6000604082019050818103600083015261095481856108e3565b9050818103602083015261096881846108e3565b90509392505050565b600082825260208201905092915050565b600061098d8261083a565b6109978185610971565b93506109a7818560208601610856565b6109b081610880565b840191505092915050565b6109c4816108ca565b82525050565b600060608201905081810360008301526109e48186610982565b90506109f360208301856109bb565b8181036040830152610a058184610982565b9050949350505050565b7f4e487b7100000000000000000000000000000000000000000000000000000000600052604160045260246000fd5b7f4e487b7100000000000000000000000000000000000000000000000000000000600052602260045260246000fd5b60006002820490506001821680610a8557607f821691505b602082108103610a9857610a97610a3e565b5b50919050565b60008190508160005260206000209050919050565b60006020601f8301049050919050565b600082821b905092915050565b600060088302610b007fffffffffffffffffffffffffffffffffffffffffffffffffffffffffffffffff82610ac3565b610b0a8683610ac3565b95508019841693508086168417925050509392505050565b6000819050919050565b6000610b47610b42610b3d846108ca565b610b22565b6108ca565b9050919050565b6000819050919050565b610b6183610b2c565b610b75610b6d82610b4e565b848454610ad0565b825550505050565b600090565b610b8a610b7d565b610b95818484610b58565b505050565b5b81811015610bb957610bae600082610b82565b600181019050610b9b565b5050565b601f821115610bfe57610bcf81610a9e565b610bd884610ab3565b81016020851015610be7578190505b610bfb610bf385610ab3565b830182610b9a565b50505b505050565b600082821c905092915050565b6000610c2160001984600802610c03565b1980831691505092915050565b6000610c3a8383610c10565b9150826002028217905092915050565b610c538261083a565b67ffffffffffffffff811115610c6c57610c6b610a0f565b5b610c768254610a6d565b610c81828285610bbd565b600060209050601f831160018114610cb45760008415610ca2578287015190505b610cac8582610c2e565b865550610d14565b601f198416610cc286610a9e565b60005b82811015610cea57848901518255600182019150602085019450602081019050610cc5565b86831015610d075784890151610d03601f891682610c10565b8355505b6001600288020188555050505b50505050505056fea2646970667358221220e090378fb5d8aa91e25b00f3b1df3ac25408a7999becfefde9f2656816e025bb64736f6c63430008120033",
					"opcodes": "PUSH1 0x80 PUSH1 0x40 MSTORE CALLVALUE DUP1 ISZERO PUSH3 0x11 JUMPI PUSH1 0x0 DUP1 REVERT JUMPDEST POP PUSH1 0x40 MLOAD DUP1 PUSH1 0x60 ADD PUSH1 0x40 MSTORE DUP1 PUSH1 0x40 MLOAD DUP1 PUSH1 0x40 ADD PUSH1 0x40 MSTORE DUP1 PUSH1 0x6 DUP2 MSTORE PUSH1 0x20 ADD PUSH32 0x546F796F74610000000000000000000000000000000000000000000000000000 DUP2 MSTORE POP DUP2 MSTORE PUSH1 0x20 ADD PUSH2 0x7D0 DUP2 MSTORE PUSH1 0x20 ADD PUSH1 0x40 MLOAD DUP1 PUSH1 0x40 ADD PUSH1 0x40 MSTORE DUP1 PUSH1 0x5 DUP2 MSTORE PUSH1 0x20 ADD PUSH32 0x507261646F000000000000000000000000000000000000000000000000000000 DUP2 MSTORE POP DUP2 MSTORE POP PUSH1 0x0 DUP1 DUP3 ADD MLOAD DUP2 PUSH1 0x0 ADD SWAP1 DUP2 PUSH3 0xB1 SWAP2 SWAP1 PUSH3 0x357 JUMP JUMPDEST POP PUSH1 0x20 DUP3 ADD MLOAD DUP2 PUSH1 0x1 ADD SSTORE PUSH1 0x40 DUP3 ADD MLOAD DUP2 PUSH1 0x2 ADD SWAP1 DUP2 PUSH3 0xD3 SWAP2 SWAP1 PUSH3 0x357 JUMP JUMPDEST POP SWAP1 POP POP PUSH3 0x43E JUMP JUMPDEST PUSH1 0x0 DUP2 MLOAD SWAP1 POP SWAP2 SWAP1 POP JUMP JUMPDEST PUSH32 0x4E487B7100000000000000000000000000000000000000000000000000000000 PUSH1 0x0 MSTORE PUSH1 0x41 PUSH1 0x4 MSTORE PUSH1 0x24 PUSH1 0x0 REVERT JUMPDEST PUSH32 0x4E487B7100000000000000000000000000000000000000000000000000000000 PUSH1 0x0 MSTORE PUSH1 0x22 PUSH1 0x4 MSTORE PUSH1 0x24 PUSH1 0x0 REVERT JUMPDEST PUSH1 0x0 PUSH1 0x2 DUP3 DIV SWAP1 POP PUSH1 0x1 DUP3 AND DUP1 PUSH3 0x15F JUMPI PUSH1 0x7F DUP3 AND SWAP2 POP JUMPDEST PUSH1 0x20 DUP3 LT DUP2 SUB PUSH3 0x175 JUMPI PUSH3 0x174 PUSH3 0x117 JUMP JUMPDEST JUMPDEST POP SWAP2 SWAP1 POP JUMP JUMPDEST PUSH1 0x0 DUP2 SWAP1 POP DUP2 PUSH1 0x0 MSTORE PUSH1 0x20 PUSH1 0x0 KECCAK256 SWAP1 POP SWAP2 SWAP1 POP JUMP JUMPDEST PUSH1 0x0 PUSH1 0x20 PUSH1 0x1F DUP4 ADD DIV SWAP1 POP SWAP2 SWAP1 POP JUMP JUMPDEST PUSH1 0x0 DUP3 DUP3 SHL SWAP1 POP SWAP3 SWAP2 POP POP JUMP JUMPDEST PUSH1 0x0 PUSH1 0x8 DUP4 MUL PUSH3 0x1DF PUSH32 0xFFFFFFFFFFFFFFFFFFFFFFFFFFFFFFFFFFFFFFFFFFFFFFFFFFFFFFFFFFFFFFFF DUP3 PUSH3 0x1A0 JUMP JUMPDEST PUSH3 0x1EB DUP7 DUP4 PUSH3 0x1A0 JUMP JUMPDEST SWAP6 POP DUP1 NOT DUP5 AND SWAP4 POP DUP1 DUP7 AND DUP5 OR SWAP3 POP POP POP SWAP4 SWAP3 POP POP POP JUMP JUMPDEST PUSH1 0x0 DUP2 SWAP1 POP SWAP2 SWAP1 POP JUMP JUMPDEST PUSH1 0x0 DUP2 SWAP1 POP SWAP2 SWAP1 POP JUMP JUMPDEST PUSH1 0x0 PUSH3 0x238 PUSH3 0x232 PUSH3 0x22C DUP5 PUSH3 0x203 JUMP JUMPDEST PUSH3 0x20D JUMP JUMPDEST PUSH3 0x203 JUMP JUMPDEST SWAP1 POP SWAP2 SWAP1 POP JUMP JUMPDEST PUSH1 0x0 DUP2 SWAP1 POP SWAP2 SWAP1 POP JUMP JUMPDEST PUSH3 0x254 DUP4 PUSH3 0x217 JUMP JUMPDEST PUSH3 0x26C PUSH3 0x263 DUP3 PUSH3 0x23F JUMP JUMPDEST DUP5 DUP5 SLOAD PUSH3 0x1AD JUMP JUMPDEST DUP3 SSTORE POP POP POP POP JUMP JUMPDEST PUSH1 0x0 SWAP1 JUMP JUMPDEST PUSH3 0x283 PUSH3 0x274 JUMP JUMPDEST PUSH3 0x290 DUP2 DUP5 DUP5 PUSH3 0x249 JUMP JUMPDEST POP POP POP JUMP JUMPDEST JUMPDEST DUP2 DUP2 LT ISZERO PUSH3 0x2B8 JUMPI PUSH3 0x2AC PUSH1 0x0 DUP3 PUSH3 0x279 JUMP JUMPDEST PUSH1 0x1 DUP2 ADD SWAP1 POP PUSH3 0x296 JUMP JUMPDEST POP POP JUMP JUMPDEST PUSH1 0x1F DUP3 GT ISZERO PUSH3 0x307 JUMPI PUSH3 0x2D1 DUP2 PUSH3 0x17B JUMP JUMPDEST PUSH3 0x2DC DUP5 PUSH3 0x190 JUMP JUMPDEST DUP2 ADD PUSH1 0x20 DUP6 LT ISZERO PUSH3 0x2EC JUMPI DUP2 SWAP1 POP JUMPDEST PUSH3 0x304 PUSH3 0x2FB DUP6 PUSH3 0x190 JUMP JUMPDEST DUP4 ADD DUP3 PUSH3 0x295 JUMP JUMPDEST POP POP JUMPDEST POP POP POP JUMP JUMPDEST PUSH1 0x0 DUP3 DUP3 SHR SWAP1 POP SWAP3 SWAP2 POP POP JUMP JUMPDEST PUSH1 0x0 PUSH3 0x32C PUSH1 0x0 NOT DUP5 PUSH1 0x8 MUL PUSH3 0x30C JUMP JUMPDEST NOT DUP1 DUP4 AND SWAP2 POP POP SWAP3 SWAP2 POP POP JUMP JUMPDEST PUSH1 0x0 PUSH3 0x347 DUP4 DUP4 PUSH3 0x319 JUMP JUMPDEST SWAP2 POP DUP3 PUSH1 0x2 MUL DUP3 OR SWAP1 POP SWAP3 SWAP2 POP POP JUMP JUMPDEST PUSH3 0x362 DUP3 PUSH3 0xDD JUMP JUMPDEST PUSH8 0xFFFFFFFFFFFFFFFF DUP2 GT ISZERO PUSH3 0x37E JUMPI PUSH3 0x37D PUSH3 0xE8 JUMP JUMPDEST JUMPDEST PUSH3 0x38A DUP3 SLOAD PUSH3 0x146 JUMP JUMPDEST PUSH3 0x397 DUP3 DUP3 DUP6 PUSH3 0x2BC JUMP JUMPDEST PUSH1 0x0 PUSH1 0x20 SWAP1 POP PUSH1 0x1F DUP4 GT PUSH1 0x1 DUP2 EQ PUSH3 0x3CF JUMPI PUSH1 0x0 DUP5 ISZERO PUSH3 0x3BA JUMPI DUP3 DUP8 ADD MLOAD SWAP1 POP JUMPDEST PUSH3 0x3C6 DUP6 DUP3 PUSH3 0x339 JUMP JUMPDEST DUP7 SSTORE POP PUSH3 0x436 JUMP JUMPDEST PUSH1 0x1F NOT DUP5 AND PUSH3 0x3DF DUP7 PUSH3 0x17B JUMP JUMPDEST PUSH1 0x0 JUMPDEST DUP3 DUP2 LT ISZERO PUSH3 0x409 JUMPI DUP5 DUP10 ADD MLOAD DUP3 SSTORE PUSH1 0x1 DUP3 ADD SWAP2 POP PUSH1 0x20 DUP6 ADD SWAP5 POP PUSH1 0x20 DUP2 ADD SWAP1 POP PUSH3 0x3E2 JUMP JUMPDEST DUP7 DUP4 LT ISZERO PUSH3 0x429 JUMPI DUP5 DUP10 ADD MLOAD PUSH3 0x425 PUSH1 0x1F DUP10 AND DUP3 PUSH3 0x319 JUMP JUMPDEST DUP4 SSTORE POP JUMPDEST PUSH1 0x1 PUSH1 0x2 DUP9 MUL ADD DUP9 SSTORE POP POP POP JUMPDEST POP POP POP POP POP POP JUMP JUMPDEST PUSH2 0xD52 DUP1 PUSH3 0x44E PUSH1 0x0 CODECOPY PUSH1 0x0 RETURN INVALID PUSH1 0x80 PUSH1 0x40 MSTORE CALLVALUE DUP1 ISZERO PUSH2 0x10 JUMPI PUSH1 0x0 DUP1 REVERT JUMPDEST POP PUSH1 0x4 CALLDATASIZE LT PUSH2 0x41 JUMPI PUSH1 0x0 CALLDATALOAD PUSH1 0xE0 SHR DUP1 PUSH4 0x1D2AEC85 EQ PUSH2 0x46 JUMPI DUP1 PUSH4 0x6F674521 EQ PUSH2 0x65 JUMPI DUP1 PUSH4 0xEE26FAC3 EQ PUSH2 0x84 JUMPI JUMPDEST PUSH1 0x0 DUP1 REVERT JUMPDEST PUSH2 0x4E PUSH2 0xA4 JUMP JUMPDEST PUSH1 0x40 MLOAD PUSH2 0x5C SWAP3 SWAP2 SWAP1 PUSH2 0x93A JUMP JUMPDEST PUSH1 0x40 MLOAD DUP1 SWAP2 SUB SWAP1 RETURN JUMPDEST PUSH2 0x6D PUSH2 0x3D3 JUMP JUMPDEST PUSH1 0x40 MLOAD PUSH2 0x7B SWAP3 SWAP2 SWAP1 PUSH2 0x93A JUMP JUMPDEST PUSH1 0x40 MLOAD DUP1 SWAP2 SUB SWAP1 RETURN JUMPDEST PUSH2 0x8C PUSH2 0x6F1 JUMP JUMPDEST PUSH1 0x40 MLOAD PUSH2 0x9B SWAP4 SWAP3 SWAP2 SWAP1 PUSH2 0x9CA JUMP JUMPDEST PUSH1 0x40 MLOAD DUP1 SWAP2 SUB SWAP1 RETURN JUMPDEST PUSH2 0xAC PUSH2 0x819 JUMP JUMPDEST PUSH2 0xB4 PUSH2 0x819 JUMP JUMPDEST PUSH1 0x0 PUSH1 0x40 MLOAD DUP1 PUSH1 0x40 ADD PUSH1 0x40 MSTORE DUP1 PUSH1 0x5 DUP2 MSTORE PUSH1 0x20 ADD PUSH32 0x486F6E6461000000000000000000000000000000000000000000000000000000 DUP2 MSTORE POP DUP2 PUSH1 0x0 ADD SWAP1 DUP2 PUSH2 0xFC SWAP2 SWAP1 PUSH2 0xC4A JUMP JUMPDEST POP PUSH2 0x7D1 DUP2 PUSH1 0x1 ADD DUP2 SWAP1 SSTORE POP PUSH1 0x40 MLOAD DUP1 PUSH1 0x40 ADD PUSH1 0x40 MSTORE DUP1 PUSH1 0x5 DUP2 MSTORE PUSH1 0x20 ADD PUSH32 0x4369766963000000000000000000000000000000000000000000000000000000 DUP2 MSTORE POP DUP2 PUSH1 0x2 ADD SWAP1 DUP2 PUSH2 0x14E SWAP2 SWAP1 PUSH2 0xC4A JUMP JUMPDEST POP PUSH1 0x0 DUP2 DUP2 PUSH1 0x40 MLOAD DUP1 PUSH1 0x60 ADD PUSH1 0x40 MSTORE SWAP1 DUP2 PUSH1 0x0 DUP3 ADD DUP1 SLOAD PUSH2 0x16E SWAP1 PUSH2 0xA6D JUMP JUMPDEST DUP1 PUSH1 0x1F ADD PUSH1 0x20 DUP1 SWAP2 DIV MUL PUSH1 0x20 ADD PUSH1 0x40 MLOAD SWAP1 DUP2 ADD PUSH1 0x40 MSTORE DUP1 SWAP3 SWAP2 SWAP1 DUP2 DUP2 MSTORE PUSH1 0x20 ADD DUP3 DUP1 SLOAD PUSH2 0x19A SWAP1 PUSH2 0xA6D JUMP JUMPDEST DUP1 ISZERO PUSH2 0x1E7 JUMPI DUP1 PUSH1 0x1F LT PUSH2 0x1BC JUMPI PUSH2 0x100 DUP1 DUP4 SLOAD DIV MUL DUP4 MSTORE SWAP2 PUSH1 0x20 ADD SWAP2 PUSH2 0x1E7 JUMP JUMPDEST DUP3 ADD SWAP2 SWAP1 PUSH1 0x0 MSTORE PUSH1 0x20 PUSH1 0x0 KECCAK256 SWAP1 JUMPDEST DUP2 SLOAD DUP2 MSTORE SWAP1 PUSH1 0x1 ADD SWAP1 PUSH1 0x20 ADD DUP1 DUP4 GT PUSH2 0x1CA JUMPI DUP3 SWAP1 SUB PUSH1 0x1F AND DUP3 ADD SWAP2 JUMPDEST POP POP POP POP POP DUP2 MSTORE PUSH1 0x20 ADD PUSH1 0x1 DUP3 ADD SLOAD DUP2 MSTORE PUSH1 0x20 ADD PUSH1 0x2 DUP3 ADD DUP1 SLOAD PUSH2 0x20A SWAP1 PUSH2 0xA6D JUMP JUMPDEST DUP1 PUSH1 0x1F ADD PUSH1 0x20 DUP1 SWAP2 DIV MUL PUSH1 0x20 ADD PUSH1 0x40 MLOAD SWAP1 DUP2 ADD PUSH1 0x40 MSTORE DUP1 SWAP3 SWAP2 SWAP1 DUP2 DUP2 MSTORE PUSH1 0x20 ADD DUP3 DUP1 SLOAD PUSH2 0x236 SWAP1 PUSH2 0xA6D JUMP JUMPDEST DUP1 ISZERO PUSH2 0x283 JUMPI DUP1 PUSH1 0x1F LT PUSH2 0x258 JUMPI PUSH2 0x100 DUP1 DUP4 SLOAD DIV MUL DUP4 MSTORE SWAP2 PUSH1 0x20 ADD SWAP2 PUSH2 0x283 JUMP JUMPDEST DUP3 ADD SWAP2 SWAP1 PUSH1 0x0 MSTORE PUSH1 0x20 PUSH1 0x0 KECCAK256 SWAP1 JUMPDEST DUP2 SLOAD DUP2 MSTORE SWAP1 PUSH1 0x1 ADD SWAP1 PUSH1 0x20 ADD DUP1 DUP4 GT PUSH2 0x266 JUMPI DUP3 SWAP1 SUB PUSH1 0x1F AND DUP3 ADD SWAP2 JUMPDEST POP POP POP POP POP DUP2 MSTORE POP POP SWAP2 POP DUP1 PUSH1 0x40 MLOAD DUP1 PUSH1 0x60 ADD PUSH1 0x40 MSTORE SWAP1 DUP2 PUSH1 0x0 DUP3 ADD DUP1 SLOAD PUSH2 0x2AA SWAP1 PUSH2 0xA6D JUMP JUMPDEST DUP1 PUSH1 0x1F ADD PUSH1 0x20 DUP1 SWAP2 DIV MUL PUSH1 0x20 ADD PUSH1 0x40 MLOAD SWAP1 DUP2 ADD PUSH1 0x40 MSTORE DUP1 SWAP3 SWAP2 SWAP1 DUP2 DUP2 MSTORE PUSH1 0x20 ADD DUP3 DUP1 SLOAD PUSH2 0x2D6 SWAP1 PUSH2 0xA6D JUMP JUMPDEST DUP1 ISZERO PUSH2 0x323 JUMPI DUP1 PUSH1 0x1F LT PUSH2 0x2F8 JUMPI PUSH2 0x100 DUP1 DUP4 SLOAD DIV MUL DUP4 MSTORE SWAP2 PUSH1 0x20 ADD SWAP2 PUSH2 0x323 JUMP JUMPDEST DUP3 ADD SWAP2 SWAP1 PUSH1 0x0 MSTORE PUSH1 0x20 PUSH1 0x0 KECCAK256 SWAP1 JUMPDEST DUP2 SLOAD DUP2 MSTORE SWAP1 PUSH1 0x1 ADD SWAP1 PUSH1 0x20 ADD DUP1 DUP4 GT PUSH2 0x306 JUMPI DUP3 SWAP1 SUB PUSH1 0x1F AND DUP3 ADD SWAP2 JUMPDEST POP POP POP POP POP DUP2 MSTORE PUSH1 0x20 ADD PUSH1 0x1 DUP3 ADD SLOAD DUP2 MSTORE PUSH1 0x20 ADD PUSH1 0x2 DUP3 ADD DUP1 SLOAD PUSH2 0x346 SWAP1 PUSH2 0xA6D JUMP JUMPDEST DUP1 PUSH1 0x1F ADD PUSH1 0x20 DUP1 SWAP2 DIV MUL PUSH1 0x20 ADD PUSH1 0x40 MLOAD SWAP1 DUP2 ADD PUSH1 0x40 MSTORE DUP1 SWAP3 SWAP2 SWAP1 DUP2 DUP2 MSTORE PUSH1 0x20 ADD DUP3 DUP1 SLOAD PUSH2 0x372 SWAP1 PUSH2 0xA6D JUMP JUMPDEST DUP1 ISZERO PUSH2 0x3BF JUMPI DUP1 PUSH1 0x1F LT PUSH2 0x394 JUMPI PUSH2 0x100 DUP1 DUP4 SLOAD DIV MUL DUP4 MSTORE SWAP2 PUSH1 0x20 ADD SWAP2 PUSH2 0x3BF JUMP JUMPDEST DUP3 ADD SWAP2 SWAP1 PUSH1 0x0 MSTORE PUSH1 0x20 PUSH1 0x0 KECCAK256 SWAP1 JUMPDEST DUP2 SLOAD DUP2 MSTORE SWAP1 PUSH1 0x1 ADD SWAP1 PUSH1 0x20 ADD DUP1 DUP4 GT PUSH2 0x3A2 JUMPI DUP3 SWAP1 SUB PUSH1 0x1F AND DUP3 ADD SWAP2 JUMPDEST POP POP POP POP POP DUP2 MSTORE POP POP SWAP1 POP SWAP3 POP SWAP3 POP POP SWAP1 SWAP2 JUMP JUMPDEST PUSH2 0x3DB PUSH2 0x819 JUMP JUMPDEST PUSH2 0x3E3 PUSH2 0x819 JUMP JUMPDEST PUSH1 0x0 DUP1 PUSH1 0x40 MLOAD DUP1 PUSH1 0x60 ADD PUSH1 0x40 MSTORE SWAP1 DUP2 PUSH1 0x0 DUP3 ADD DUP1 SLOAD PUSH2 0x401 SWAP1 PUSH2 0xA6D JUMP JUMPDEST DUP1 PUSH1 0x1F ADD PUSH1 0x20 DUP1 SWAP2 DIV MUL PUSH1 0x20 ADD PUSH1 0x40 MLOAD SWAP1 DUP2 ADD PUSH1 0x40 MSTORE DUP1 SWAP3 SWAP2 SWAP1 DUP2 DUP2 MSTORE PUSH1 0x20 ADD DUP3 DUP1 SLOAD PUSH2 0x42D SWAP1 PUSH2 0xA6D JUMP JUMPDEST DUP1 ISZERO PUSH2 0x47A JUMPI DUP1 PUSH1 0x1F LT PUSH2 0x44F JUMPI PUSH2 0x100 DUP1 DUP4 SLOAD DIV MUL DUP4 MSTORE SWAP2 PUSH1 0x20 ADD SWAP2 PUSH2 0x47A JUMP JUMPDEST DUP3 ADD SWAP2 SWAP1 PUSH1 0x0 MSTORE PUSH1 0x20 PUSH1 0x0 KECCAK256 SWAP1 JUMPDEST DUP2 SLOAD DUP2 MSTORE SWAP1 PUSH1 0x1 ADD SWAP1 PUSH1 0x20 ADD DUP1 DUP4 GT PUSH2 0x45D JUMPI DUP3 SWAP1 SUB PUSH1 0x1F AND DUP3 ADD SWAP2 JUMPDEST POP POP POP POP POP DUP2 MSTORE PUSH1 0x20 ADD PUSH1 0x1 DUP3 ADD SLOAD DUP2 MSTORE PUSH1 0x20 ADD PUSH1 0x2 DUP3 ADD DUP1 SLOAD PUSH2 0x49D SWAP1 PUSH2 0xA6D JUMP JUMPDEST DUP1 PUSH1 0x1F ADD PUSH1 0x20 DUP1 SWAP2 DIV MUL PUSH1 0x20 ADD PUSH1 0x40 MLOAD SWAP1 DUP2 ADD PUSH1 0x40 MSTORE DUP1 SWAP3 SWAP2 SWAP1 DUP2 DUP2 MSTORE PUSH1 0x20 ADD DUP3 DUP1 SLOAD PUSH2 0x4C9 SWAP1 PUSH2 0xA6D JUMP JUMPDEST DUP1 ISZERO PUSH2 0x516 JUMPI DUP1 PUSH1 0x1F LT PUSH2 0x4EB JUMPI PUSH2 0x100 DUP1 DUP4 SLOAD DIV MUL DUP4 MSTORE SWAP2 PUSH1 0x20 ADD SWAP2 PUSH2 0x516 JUMP JUMPDEST DUP3 ADD SWAP2 SWAP1 PUSH1 0x0 MSTORE PUSH1 0x20 PUSH1 0x0 KECCAK256 SWAP1 JUMPDEST DUP2 SLOAD DUP2 MSTORE SWAP1 PUSH1 0x1 ADD SWAP1 PUSH1 0x20 ADD DUP1 DUP4 GT PUSH2 0x4F9 JUMPI DUP3 SWAP1 SUB PUSH1 0x1F AND DUP3 ADD SWAP2 JUMPDEST POP POP POP POP POP DUP2 MSTORE POP POP SWAP1 POP PUSH1 0x40 MLOAD DUP1 PUSH1 0x40 ADD PUSH1 0x40 MSTORE DUP1 PUSH1 0x5 DUP2 MSTORE PUSH1 0x20 ADD PUSH32 0x486F6E6461000000000000000000000000000000000000000000000000000000 DUP2 MSTORE POP DUP2 PUSH1 0x0 ADD DUP2 SWAP1 MSTORE POP PUSH2 0x7D1 DUP2 PUSH1 0x20 ADD DUP2 DUP2 MSTORE POP POP PUSH1 0x40 MLOAD DUP1 PUSH1 0x40 ADD PUSH1 0x40 MSTORE DUP1 PUSH1 0x5 DUP2 MSTORE PUSH1 0x20 ADD PUSH32 0x4369766963000000000000000000000000000000000000000000000000000000 DUP2 MSTORE POP DUP2 PUSH1 0x40 ADD DUP2 SWAP1 MSTORE POP PUSH1 0x0 DUP2 DUP2 PUSH1 0x40 MLOAD DUP1 PUSH1 0x60 ADD PUSH1 0x40 MSTORE SWAP1 DUP2 PUSH1 0x0 DUP3 ADD DUP1 SLOAD PUSH2 0x5C8 SWAP1 PUSH2 0xA6D JUMP JUMPDEST DUP1 PUSH1 0x1F ADD PUSH1 0x20 DUP1 SWAP2 DIV MUL PUSH1 0x20 ADD PUSH1 0x40 MLOAD SWAP1 DUP2 ADD PUSH1 0x40 MSTORE DUP1 SWAP3 SWAP2 SWAP1 DUP2 DUP2 MSTORE PUSH1 0x20 ADD DUP3 DUP1 SLOAD PUSH2 0x5F4 SWAP1 PUSH2 0xA6D JUMP JUMPDEST DUP1 ISZERO PUSH2 0x641 JUMPI DUP1 PUSH1 0x1F LT PUSH2 0x616 JUMPI PUSH2 0x100 DUP1 DUP4 SLOAD DIV MUL DUP4 MSTORE SWAP2 PUSH1 0x20 ADD SWAP2 PUSH2 0x641 JUMP JUMPDEST DUP3 ADD SWAP2 SWAP1 PUSH1 0x0 MSTORE PUSH1 0x20 PUSH1 0x0 KECCAK256 SWAP1 JUMPDEST DUP2 SLOAD DUP2 MSTORE SWAP1 PUSH1 0x1 ADD SWAP1 PUSH1 0x20 ADD DUP1 DUP4 GT PUSH2 0x624 JUMPI DUP3 SWAP1 SUB PUSH1 0x1F AND DUP3 ADD SWAP2 JUMPDEST POP POP POP POP POP DUP2 MSTORE PUSH1 0x20 ADD PUSH1 0x1 DUP3 ADD SLOAD DUP2 MSTORE PUSH1 0x20 ADD PUSH1 0x2 DUP3 ADD DUP1 SLOAD PUSH2 0x664 SWAP1 PUSH2 0xA6D JUMP JUMPDEST DUP1 PUSH1 0x1F ADD PUSH1 0x20 DUP1 SWAP2 DIV MUL PUSH1 0x20 ADD PUSH1 0x40 MLOAD SWAP1 DUP2 ADD PUSH1 0x40 MSTORE DUP1 SWAP3 SWAP2 SWAP1 DUP2 DUP2 MSTORE PUSH1 0x20 ADD DUP3 DUP1 SLOAD PUSH2 0x690 SWAP1 PUSH2 0xA6D JUMP JUMPDEST DUP1 ISZERO PUSH2 0x6DD JUMPI DUP1 PUSH1 0x1F LT PUSH2 0x6B2 JUMPI PUSH2 0x100 DUP1 DUP4 SLOAD DIV MUL DUP4 MSTORE SWAP2 PUSH1 0x20 ADD SWAP2 PUSH2 0x6DD JUMP JUMPDEST DUP3 ADD SWAP2 SWAP1 PUSH1 0x0 MSTORE PUSH1 0x20 PUSH1 0x0 KECCAK256 SWAP1 JUMPDEST DUP2 SLOAD DUP2 MSTORE SWAP1 PUSH1 0x1 ADD SWAP1 PUSH1 0x20 ADD DUP1 DUP4 GT PUSH2 0x6C0 JUMPI DUP3 SWAP1 SUB PUSH1 0x1F AND DUP3 ADD SWAP2 JUMPDEST POP POP POP POP POP DUP2 MSTORE POP POP SWAP2 POP SWAP3 POP SWAP3 POP POP SWAP1 SWAP2 JUMP JUMPDEST PUSH1 0x0 DUP1 PUSH1 0x0 ADD DUP1 SLOAD PUSH2 0x702 SWAP1 PUSH2 0xA6D JUMP JUMPDEST DUP1 PUSH1 0x1F ADD PUSH1 0x20 DUP1 SWAP2 DIV MUL PUSH1 0x20 ADD PUSH1 0x40 MLOAD SWAP1 DUP2 ADD PUSH1 0x40 MSTORE DUP1 SWAP3 SWAP2 SWAP1 DUP2 DUP2 MSTORE PUSH1 0x20 ADD DUP3 DUP1 SLOAD PUSH2 0x72E SWAP1 PUSH2 0xA6D JUMP JUMPDEST DUP1 ISZERO PUSH2 0x77B JUMPI DUP1 PUSH1 0x1F LT PUSH2 0x750 JUMPI PUSH2 0x100 DUP1 DUP4 SLOAD DIV MUL DUP4 MSTORE SWAP2 PUSH1 0x20 ADD SWAP2 PUSH2 0x77B JUMP JUMPDEST DUP3 ADD SWAP2 SWAP1 PUSH1 0x0 MSTORE PUSH1 0x20 PUSH1 0x0 KECCAK256 SWAP1 JUMPDEST DUP2 SLOAD DUP2 MSTORE SWAP1 PUSH1 0x1 ADD SWAP1 PUSH1 0x20 ADD DUP1 DUP4 GT PUSH2 0x75E JUMPI DUP3 SWAP1 SUB PUSH1 0x1F AND DUP3 ADD SWAP2 JUMPDEST POP POP POP POP POP SWAP1 DUP1 PUSH1 0x1 ADD SLOAD SWAP1 DUP1 PUSH1 0x2 ADD DUP1 SLOAD PUSH2 0x796 SWAP1 PUSH2 0xA6D JUMP JUMPDEST DUP1 PUSH1 0x1F ADD PUSH1 0x20 DUP1 SWAP2 DIV MUL PUSH1 0x20 ADD PUSH1 0x40 MLOAD SWAP1 DUP2 ADD PUSH1 0x40 MSTORE DUP1 SWAP3 SWAP2 SWAP1 DUP2 DUP2 MSTORE PUSH1 0x20 ADD DUP3 DUP1 SLOAD PUSH2 0x7C2 SWAP1 PUSH2 0xA6D JUMP JUMPDEST DUP1 ISZERO PUSH2 0x80F JUMPI DUP1 PUSH1 0x1F LT PUSH2 0x7E4 JUMPI PUSH2 0x100 DUP1 DUP4 SLOAD DIV MUL DUP4 MSTORE SWAP2 PUSH1 0x20 ADD SWAP2 PUSH2 0x80F JUMP JUMPDEST DUP3 ADD SWAP2 SWAP1 PUSH1 0x0 MSTORE PUSH1 0x20 PUSH1 0x0 KECCAK256 SWAP1 JUMPDEST DUP2 SLOAD DUP2 MSTORE SWAP1 PUSH1 0x1 ADD SWAP1 PUSH1 0x20 ADD DUP1 DUP4 GT PUSH2 0x7F2 JUMPI DUP3 SWAP1 SUB PUSH1 0x1F AND DUP3 ADD SWAP2 JUMPDEST POP POP POP POP POP SWAP1 POP DUP4 JUMP JUMPDEST PUSH1 0x40 MLOAD DUP1 PUSH1 0x60 ADD PUSH1 0x40 MSTORE DUP1 PUSH1 0x60 DUP2 MSTORE PUSH1 0x20 ADD PUSH1 0x0 DUP2 MSTORE PUSH1 0x20 ADD PUSH1 0x60 DUP2 MSTORE POP SWAP1 JUMP JUMPDEST PUSH1 0x0 DUP2 MLOAD SWAP1 POP SWAP2 SWAP1 POP JUMP JUMPDEST PUSH1 0x0 DUP3 DUP3 MSTORE PUSH1 0x20 DUP3 ADD SWAP1 POP SWAP3 SWAP2 POP POP JUMP JUMPDEST PUSH1 0x0 JUMPDEST DUP4 DUP2 LT ISZERO PUSH2 0x874 JUMPI DUP1 DUP3 ADD MLOAD DUP2 DUP5 ADD MSTORE PUSH1 0x20 DUP2 ADD SWAP1 POP PUSH2 0x859 JUMP JUMPDEST PUSH1 0x0 DUP5 DUP5 ADD MSTORE POP POP POP POP JUMP JUMPDEST PUSH1 0x0 PUSH1 0x1F NOT PUSH1 0x1F DUP4 ADD AND SWAP1 POP SWAP2 SWAP1 POP JUMP JUMPDEST PUSH1 0x0 PUSH2 0x89C DUP3 PUSH2 0x83A JUMP JUMPDEST PUSH2 0x8A6 DUP2 DUP6 PUSH2 0x845 JUMP JUMPDEST SWAP4 POP PUSH2 0x8B6 DUP2 DUP6 PUSH1 0x20 DUP7 ADD PUSH2 0x856 JUMP JUMPDEST PUSH2 0x8BF DUP2 PUSH2 0x880 JUMP JUMPDEST DUP5 ADD SWAP2 POP POP SWAP3 SWAP2 POP POP JUMP JUMPDEST PUSH1 0x0 DUP2 SWAP1 POP SWAP2 SWAP1 POP JUMP JUMPDEST PUSH2 0x8DD DUP2 PUSH2 0x8CA JUMP JUMPDEST DUP3 MSTORE POP POP JUMP JUMPDEST PUSH1 0x0 PUSH1 0x60 DUP4 ADD PUSH1 0x0 DUP4 ADD MLOAD DUP5 DUP3 SUB PUSH1 0x0 DUP7 ADD MSTORE PUSH2 0x900 DUP3 DUP3 PUSH2 0x891 JUMP JUMPDEST SWAP2 POP POP PUSH1 0x20 DUP4 ADD MLOAD PUSH2 0x915 PUSH1 0x20 DUP7 ADD DUP3 PUSH2 0x8D4 JUMP JUMPDEST POP PUSH1 0x40 DUP4 ADD MLOAD DUP5 DUP3 SUB PUSH1 0x40 DUP7 ADD MSTORE PUSH2 0x92D DUP3 DUP3 PUSH2 0x891 JUMP JUMPDEST SWAP2 POP POP DUP1 SWAP2 POP POP SWAP3 SWAP2 POP POP JUMP JUMPDEST PUSH1 0x0 PUSH1 0x40 DUP3 ADD SWAP1 POP DUP2 DUP2 SUB PUSH1 0x0 DUP4 ADD MSTORE PUSH2 0x954 DUP2 DUP6 PUSH2 0x8E3 JUMP JUMPDEST SWAP1 POP DUP2 DUP2 SUB PUSH1 0x20 DUP4 ADD MSTORE PUSH2 0x968 DUP2 DUP5 PUSH2 0x8E3 JUMP JUMPDEST SWAP1 POP SWAP4 SWAP3 POP POP POP JUMP JUMPDEST PUSH1 0x0 DUP3 DUP3 MSTORE PUSH1 0x20 DUP3 ADD SWAP1 POP SWAP3 SWAP2 POP POP JUMP JUMPDEST PUSH1 0x0 PUSH2 0x98D DUP3 PUSH2 0x83A JUMP JUMPDEST PUSH2 0x997 DUP2 DUP6 PUSH2 0x971 JUMP JUMPDEST SWAP4 POP PUSH2 0x9A7 DUP2 DUP6 PUSH1 0x20 DUP7 ADD PUSH2 0x856 JUMP JUMPDEST PUSH2 0x9B0 DUP2 PUSH2 0x880 JUMP JUMPDEST DUP5 ADD SWAP2 POP POP SWAP3 SWAP2 POP POP JUMP JUMPDEST PUSH2 0x9C4 DUP2 PUSH2 0x8CA JUMP JUMPDEST DUP3 MSTORE POP POP JUMP JUMPDEST PUSH1 0x0 PUSH1 0x60 DUP3 ADD SWAP1 POP DUP2 DUP2 SUB PUSH1 0x0 DUP4 ADD MSTORE PUSH2 0x9E4 DUP2 DUP7 PUSH2 0x982 JUMP JUMPDEST SWAP1 POP PUSH2 0x9F3 PUSH1 0x20 DUP4 ADD DUP6 PUSH2 0x9BB JUMP JUMPDEST DUP2 DUP2 SUB PUSH1 0x40 DUP4 ADD MSTORE PUSH2 0xA05 DUP2 DUP5 PUSH2 0x982 JUMP JUMPDEST SWAP1 POP SWAP5 SWAP4 POP POP POP POP JUMP JUMPDEST PUSH32 0x4E487B7100000000000000000000000000000000000000000000000000000000 PUSH1 0x0 MSTORE PUSH1 0x41 PUSH1 0x4 MSTORE PUSH1 0x24 PUSH1 0x0 REVERT JUMPDEST PUSH32 0x4E487B7100000000000000000000000000000000000000000000000000000000 PUSH1 0x0 MSTORE PUSH1 0x22 PUSH1 0x4 MSTORE PUSH1 0x24 PUSH1 0x0 REVERT JUMPDEST PUSH1 0x0 PUSH1 0x2 DUP3 DIV SWAP1 POP PUSH1 0x1 DUP3 AND DUP1 PUSH2 0xA85 JUMPI PUSH1 0x7F DUP3 AND SWAP2 POP JUMPDEST PUSH1 0x20 DUP3 LT DUP2 SUB PUSH2 0xA98 JUMPI PUSH2 0xA97 PUSH2 0xA3E JUMP JUMPDEST JUMPDEST POP SWAP2 SWAP1 POP JUMP JUMPDEST PUSH1 0x0 DUP2 SWAP1 POP DUP2 PUSH1 0x0 MSTORE PUSH1 0x20 PUSH1 0x0 KECCAK256 SWAP1 POP SWAP2 SWAP1 POP JUMP JUMPDEST PUSH1 0x0 PUSH1 0x20 PUSH1 0x1F DUP4 ADD DIV SWAP1 POP SWAP2 SWAP1 POP JUMP JUMPDEST PUSH1 0x0 DUP3 DUP3 SHL SWAP1 POP SWAP3 SWAP2 POP POP JUMP JUMPDEST PUSH1 0x0 PUSH1 0x8 DUP4 MUL PUSH2 0xB00 PUSH32 0xFFFFFFFFFFFFFFFFFFFFFFFFFFFFFFFFFFFFFFFFFFFFFFFFFFFFFFFFFFFFFFFF DUP3 PUSH2 0xAC3 JUMP JUMPDEST PUSH2 0xB0A DUP7 DUP4 PUSH2 0xAC3 JUMP JUMPDEST SWAP6 POP DUP1 NOT DUP5 AND SWAP4 POP DUP1 DUP7 AND DUP5 OR SWAP3 POP POP POP SWAP4 SWAP3 POP POP POP JUMP JUMPDEST PUSH1 0x0 DUP2 SWAP1 POP SWAP2 SWAP1 POP JUMP JUMPDEST PUSH1 0x0 PUSH2 0xB47 PUSH2 0xB42 PUSH2 0xB3D DUP5 PUSH2 0x8CA JUMP JUMPDEST PUSH2 0xB22 JUMP JUMPDEST PUSH2 0x8CA JUMP JUMPDEST SWAP1 POP SWAP2 SWAP1 POP JUMP JUMPDEST PUSH1 0x0 DUP2 SWAP1 POP SWAP2 SWAP1 POP JUMP JUMPDEST PUSH2 0xB61 DUP4 PUSH2 0xB2C JUMP JUMPDEST PUSH2 0xB75 PUSH2 0xB6D DUP3 PUSH2 0xB4E JUMP JUMPDEST DUP5 DUP5 SLOAD PUSH2 0xAD0 JUMP JUMPDEST DUP3 SSTORE POP POP POP POP JUMP JUMPDEST PUSH1 0x0 SWAP1 JUMP JUMPDEST PUSH2 0xB8A PUSH2 0xB7D JUMP JUMPDEST PUSH2 0xB95 DUP2 DUP5 DUP5 PUSH2 0xB58 JUMP JUMPDEST POP POP POP JUMP JUMPDEST JUMPDEST DUP2 DUP2 LT ISZERO PUSH2 0xBB9 JUMPI PUSH2 0xBAE PUSH1 0x0 DUP3 PUSH2 0xB82 JUMP JUMPDEST PUSH1 0x1 DUP2 ADD SWAP1 POP PUSH2 0xB9B JUMP JUMPDEST POP POP JUMP JUMPDEST PUSH1 0x1F DUP3 GT ISZERO PUSH2 0xBFE JUMPI PUSH2 0xBCF DUP2 PUSH2 0xA9E JUMP JUMPDEST PUSH2 0xBD8 DUP5 PUSH2 0xAB3 JUMP JUMPDEST DUP2 ADD PUSH1 0x20 DUP6 LT ISZERO PUSH2 0xBE7 JUMPI DUP2 SWAP1 POP JUMPDEST PUSH2 0xBFB PUSH2 0xBF3 DUP6 PUSH2 0xAB3 JUMP JUMPDEST DUP4 ADD DUP3 PUSH2 0xB9A JUMP JUMPDEST POP POP JUMPDEST POP POP POP JUMP JUMPDEST PUSH1 0x0 DUP3 DUP3 SHR SWAP1 POP SWAP3 SWAP2 POP POP JUMP JUMPDEST PUSH1 0x0 PUSH2 0xC21 PUSH1 0x0 NOT DUP5 PUSH1 0x8 MUL PUSH2 0xC03 JUMP JUMPDEST NOT DUP1 DUP4 AND SWAP2 POP POP SWAP3 SWAP2 POP POP JUMP JUMPDEST PUSH1 0x0 PUSH2 0xC3A DUP4 DUP4 PUSH2 0xC10 JUMP JUMPDEST SWAP2 POP DUP3 PUSH1 0x2 MUL DUP3 OR SWAP1 POP SWAP3 SWAP2 POP POP JUMP JUMPDEST PUSH2 0xC53 DUP3 PUSH2 0x83A JUMP JUMPDEST PUSH8 0xFFFFFFFFFFFFFFFF DUP2 GT ISZERO PUSH2 0xC6C JUMPI PUSH2 0xC6B PUSH2 0xA0F JUMP JUMPDEST JUMPDEST PUSH2 0xC76 DUP3 SLOAD PUSH2 0xA6D JUMP JUMPDEST PUSH2 0xC81 DUP3 DUP3 DUP6 PUSH2 0xBBD JUMP JUMPDEST PUSH1 0x0 PUSH1 0x20 SWAP1 POP PUSH1 0x1F DUP4 GT PUSH1 0x1 DUP2 EQ PUSH2 0xCB4 JUMPI PUSH1 0x0 DUP5 ISZERO PUSH2 0xCA2 JUMPI DUP3 DUP8 ADD MLOAD SWAP1 POP JUMPDEST PUSH2 0xCAC DUP6 DUP3 PUSH2 0xC2E JUMP JUMPDEST DUP7 SSTORE POP PUSH2 0xD14 JUMP JUMPDEST PUSH1 0x1F NOT DUP5 AND PUSH2 0xCC2 DUP7 PUSH2 0xA9E JUMP JUMPDEST PUSH1 0x0 JUMPDEST DUP3 DUP2 LT ISZERO PUSH2 0xCEA JUMPI DUP5 DUP10 ADD MLOAD DUP3 SSTORE PUSH1 0x1 DUP3 ADD SWAP2 POP PUSH1 0x20 DUP6 ADD SWAP5 POP PUSH1 0x20 DUP2 ADD SWAP1 POP PUSH2 0xCC5 JUMP JUMPDEST DUP7 DUP4 LT ISZERO PUSH2 0xD07 JUMPI DUP5 DUP10 ADD MLOAD PUSH2 0xD03 PUSH1 0x1F DUP10 AND DUP3 PUSH2 0xC10 JUMP JUMPDEST DUP4 SSTORE POP JUMPDEST PUSH1 0x1 PUSH1 0x2 DUP9 MUL ADD DUP9 SSTORE POP POP POP JUMPDEST POP POP POP POP POP POP JUMP INVALID LOG2 PUSH5 0x6970667358 0x22 SLT KECCAK256 0xE0 SWAP1 CALLDATACOPY DUP16 0xB5 0xD8 0xAA SWAP2 0xE2 JUMPDEST STOP RETURN 0xB1 0xDF GASPRICE 0xC2 SLOAD ADDMOD 0xA7 SWAP10 SWAP12 0xEC INVALID REVERT 0xE9 CALLCODE PUSH6 0x6816E025BB64 PUSH20 0x6F6C634300081200330000000000000000000000 "
				},
				"gasEstimates": {
					"creation": {
						"codeDepositCost": "682000",
						"executionCost": "infinite",
						"totalCost": "infinite"
					},
					"external": {
						"car()": "infinite",
						"initCar1()": "infinite",
						"initCar2()": "infinite"
					}
				},
				"methodIdentifiers": {
					"car()": "ee26fac3",
					"initCar1()": "1d2aec85",
					"initCar2()": "6f674521"
				}
			},
			"storageLayout": {
				"storage": [
					{
						"astId": 11,
						"contract": "LABS 7 Aug/Task 7 lab7.sol:CarContract",
						"label": "car",
						"offset": 0,
						"slot": "0",
						"type": "t_struct(Car)8_storage"
					}
				],
				"types": {
					"t_string_storage": {
						"encoding": "bytes",
						"label": "string",
						"numberOfBytes": "32"
					},
					"t_struct(Car)8_storage": {
						"encoding": "inplace",
						"label": "struct CarContract.Car",
						"members": [
							{
								"astId": 3,
								"contract": "LABS 7 Aug/Task 7 lab7.sol:CarContract",
								"label": "make",
								"offset": 0,
								"slot": "0",
								"type": "t_string_storage"
							},
							{
								"astId": 5,
								"contract": "LABS 7 Aug/Task 7 lab7.sol:CarContract",
								"label": "model",
								"offset": 0,
								"slot": "1",
								"type": "t_uint256"
							},
							{
								"astId": 7,
								"contract": "LABS 7 Aug/Task 7 lab7.sol:CarContract",
								"label": "variant",
								"offset": 0,
								"slot": "2",
								"type": "t_string_storage"
							}
						],
						"numberOfBytes": "96"
					},
					"t_uint256": {
						"encoding": "inplace",
						"label": "uint256",
						"numberOfBytes": "32"
					}
				}
			},
			"userdoc": {
				"kind": "user",
				"methods": {},
				"version": 1
			}
		}
	}
}