{
	"data": {
		"bytecode": {
			"linkReferences": {},
			"object": "608060405234801561001057600080fd5b506113a3806100206000396000f3fe608060405234801561001057600080fd5b506004361061007d5760003560e01c8063689f739a1161005b578063689f739a146100da5780638f88708b1461010a578063907084f01461013f578063a819dfbb146101495761007d565b806306907e2e1461008257806348e3eeda146100a05780634973ccfb146100bc575b600080fd5b61008a610179565b60405161009791906109ab565b60405180910390f35b6100ba60048036038101906100b59190610b96565b6101c4565b005b6100c46102df565b6040516100d19190610c63565b60405180910390f35b6100f460048036038101906100ef9190610c7e565b6102e5565b6040516101019190610c63565b60405180910390f35b610124600480360381019061011f9190610d15565b610418565b60405161013696959493929190610e80565b60405180910390f35b6101476105b0565b005b610163600480360381019061015e9190610ee8565b610844565b6040516101709190610c63565b60405180910390f35b6101816108d4565b60026003806020026040519081016040528092919082600380156101ba576020028201915b8154815260200190600101908083116101a6575b5050505050905090565b6000871180156101d657506001548711155b156102d6576040518060c0016040528087815260200186815260200185815260200184600381111561020b5761020a610dc1565b5b815260200183600381111561022357610222610dc1565b5b81526020018281525060008089815260200190815260200160002060008201518160000190816102539190611121565b50602082015181600101556040820151816002015560608201518160030160006101000a81548160ff0219169083600381111561029357610292610dc1565b5b021790555060808201518160030160016101000a81548160ff021916908360038111156102c3576102c2610dc1565b5b021790555060a082015181600401559050505b50505050505050565b60015481565b600080600180546102f69190611222565b90506040518060c0016040528088815260200187815260200186815260200185600381111561032857610327610dc1565b5b81526020016000600381111561034157610340610dc1565b5b81526020018481525060008083815260200190815260200160002060008201518160000190816103719190611121565b50602082015181600101556040820151816002015560608201518160030160006101000a81548160ff021916908360038111156103b1576103b0610dc1565b5b021790555060808201518160030160016101000a81548160ff021916908360038111156103e1576103e0610dc1565b5b021790555060a082015181600401559050506001600081548092919061040690611256565b91905055508091505095945050505050565b60606000806000806000808711801561043357506001548711155b610472576040517f08c379a0000000000000000000000000000000000000000000000000000000008152600401610469906112ea565b60405180910390fd5b600080888152602001908152602001600020600001600080898152602001908152602001600020600101546000808a8152602001908152602001600020600201546000808b815260200190815260200160002060030160009054906101000a900460ff166000808c815260200190815260200160002060030160019054906101000a900460ff166000808d81526020019081526020016000206004015485805461051b90610f44565b80601f016020809104026020016040519081016040528092919081815260200182805461054790610f44565b80156105945780601f1061056957610100808354040283529160200191610594565b820191906000526020600020905b81548152906001019060200180831161057757829003601f168201915b5050505050955095509550955095509550955091939550919395565b600060015467ffffffffffffffff8111156105ce576105cd610a21565b5b6040519080825280602002602001820160405280156105fc5781602001602082028036833780820191505090505b5090506000600190505b600154811161064e57808260018361061e919061130a565b8151811061062f5761062e61133e565b5b602002602001018181525050808061064690611256565b915050610606565b5060005b815181101561079f5760005b6001835161066c919061130a565b81101561078b57600080846001846106849190611222565b815181106106955761069461133e565b5b60200260200101518152602001908152602001600020600401546000808584815181106106c5576106c461133e565b5b60200260200101518152602001908152602001600020600401541015610778576000836001836106f59190611222565b815181106107065761070561133e565b5b602002602001015190508382815181106107235761072261133e565b5b6020026020010151846001846107399190611222565b8151811061074a5761074961133e565b5b6020026020010181815250508084838151811061076a5761076961133e565b5b602002602001018181525050505b808061078390611256565b91505061065e565b50808061079790611256565b915050610652565b50806000815181106107b4576107b361133e565b5b602002602001015160026000600381106107d1576107d061133e565b5b0181905550806001815181106107ea576107e961133e565b5b602002602001015160026001600381106108075761080661133e565b5b0181905550806002815181106108205761081f61133e565b5b60200260200101516002806003811061083c5761083b61133e565b5b018190555050565b600080600090506000600190505b60015481116108ca5783600381111561086e5761086d610dc1565b5b60008083815260200190815260200160002060030160009054906101000a900460ff1660038111156108a3576108a2610dc1565b5b036108b75781806108b390611256565b9250505b80806108c290611256565b915050610852565b5080915050919050565b6040518060600160405280600390602082028036833780820191505090505090565b600060039050919050565b600081905092915050565b6000819050919050565b6000819050919050565b61092981610916565b82525050565b600061093b8383610920565b60208301905092915050565b6000602082019050919050565b61095d816108f6565b6109678184610901565b92506109728261090c565b8060005b838110156109a357815161098a878261092f565b965061099583610947565b925050600181019050610976565b505050505050565b60006060820190506109c06000830184610954565b92915050565b6000604051905090565b600080fd5b600080fd5b6109e381610916565b81146109ee57600080fd5b50565b600081359050610a00816109da565b92915050565b600080fd5b600080fd5b6000601f19601f8301169050919050565b7f4e487b7100000000000000000000000000000000000000000000000000000000600052604160045260246000fd5b610a5982610a10565b810181811067ffffffffffffffff82111715610a7857610a77610a21565b5b80604052505050565b6000610a8b6109c6565b9050610a978282610a50565b919050565b600067ffffffffffffffff821115610ab757610ab6610a21565b5b610ac082610a10565b9050602081019050919050565b82818337600083830152505050565b6000610aef610aea84610a9c565b610a81565b905082815260208101848484011115610b0b57610b0a610a0b565b5b610b16848285610acd565b509392505050565b600082601f830112610b3357610b32610a06565b5b8135610b43848260208601610adc565b91505092915050565b60048110610b5957600080fd5b50565b600081359050610b6b81610b4c565b92915050565b60048110610b7e57600080fd5b50565b600081359050610b9081610b71565b92915050565b600080600080600080600060e0888a031215610bb557610bb46109d0565b5b6000610bc38a828b016109f1565b975050602088013567ffffffffffffffff811115610be457610be36109d5565b5b610bf08a828b01610b1e565b9650506040610c018a828b016109f1565b9550506060610c128a828b016109f1565b9450506080610c238a828b01610b5c565b93505060a0610c348a828b01610b81565b92505060c0610c458a828b016109f1565b91505092959891949750929550565b610c5d81610916565b82525050565b6000602082019050610c786000830184610c54565b92915050565b600080600080600060a08688031215610c9a57610c996109d0565b5b600086013567ffffffffffffffff811115610cb857610cb76109d5565b5b610cc488828901610b1e565b9550506020610cd5888289016109f1565b9450506040610ce6888289016109f1565b9350506060610cf788828901610b5c565b9250506080610d08888289016109f1565b9150509295509295909350565b600060208284031215610d2b57610d2a6109d0565b5b6000610d39848285016109f1565b91505092915050565b600081519050919050565b600082825260208201905092915050565b60005b83811015610d7c578082015181840152602081019050610d61565b60008484015250505050565b6000610d9382610d42565b610d9d8185610d4d565b9350610dad818560208601610d5e565b610db681610a10565b840191505092915050565b7f4e487b7100000000000000000000000000000000000000000000000000000000600052602160045260246000fd5b60048110610e0157610e00610dc1565b5b50565b6000819050610e1282610df0565b919050565b6000610e2282610e04565b9050919050565b610e3281610e17565b82525050565b60048110610e4957610e48610dc1565b5b50565b6000819050610e5a82610e38565b919050565b6000610e6a82610e4c565b9050919050565b610e7a81610e5f565b82525050565b600060c0820190508181036000830152610e9a8189610d88565b9050610ea96020830188610c54565b610eb66040830187610c54565b610ec36060830186610e29565b610ed06080830185610e71565b610edd60a0830184610c54565b979650505050505050565b600060208284031215610efe57610efd6109d0565b5b6000610f0c84828501610b5c565b91505092915050565b7f4e487b7100000000000000000000000000000000000000000000000000000000600052602260045260246000fd5b60006002820490506001821680610f5c57607f821691505b602082108103610f6f57610f6e610f15565b5b50919050565b60008190508160005260206000209050919050565b60006020601f8301049050919050565b600082821b905092915050565b600060088302610fd77fffffffffffffffffffffffffffffffffffffffffffffffffffffffffffffffff82610f9a565b610fe18683610f9a565b95508019841693508086168417925050509392505050565b6000819050919050565b600061101e61101961101484610916565b610ff9565b610916565b9050919050565b6000819050919050565b61103883611003565b61104c61104482611025565b848454610fa7565b825550505050565b600090565b611061611054565b61106c81848461102f565b505050565b5b8181101561109057611085600082611059565b600181019050611072565b5050565b601f8211156110d5576110a681610f75565b6110af84610f8a565b810160208510156110be578190505b6110d26110ca85610f8a565b830182611071565b50505b505050565b600082821c905092915050565b60006110f8600019846008026110da565b1980831691505092915050565b600061111183836110e7565b9150826002028217905092915050565b61112a82610d42565b67ffffffffffffffff81111561114357611142610a21565b5b61114d8254610f44565b611158828285611094565b600060209050601f83116001811461118b5760008415611179578287015190505b6111838582611105565b8655506111eb565b601f19841661119986610f75565b60005b828110156111c15784890151825560018201915060208501945060208101905061119c565b868310156111de57848901516111da601f8916826110e7565b8355505b6001600288020188555050505b505050505050565b7f4e487b7100000000000000000000000000000000000000000000000000000000600052601160045260246000fd5b600061122d82610916565b915061123883610916565b92508282019050808211156112505761124f6111f3565b5b92915050565b600061126182610916565b91507fffffffffffffffffffffffffffffffffffffffffffffffffffffffffffffffff8203611293576112926111f3565b5b600182019050919050565b7f496e76616c696420726f6c6c206e756d62657200000000000000000000000000600082015250565b60006112d4601383610d4d565b91506112df8261129e565b602082019050919050565b60006020820190508181036000830152611303816112c7565b9050919050565b600061131582610916565b915061132083610916565b9250828203905081811115611338576113376111f3565b5b92915050565b7f4e487b7100000000000000000000000000000000000000000000000000000000600052603260045260246000fdfea26469706673582212200adf3bc3b79717e0924e8be5b0012d2fdeca81682b6c37fb03224d4e62d5200a64736f6c63430008120033",
			"opcodes": "PUSH1 0x80 PUSH1 0x40 MSTORE CALLVALUE DUP1 ISZERO PUSH2 0x10 JUMPI PUSH1 0x0 DUP1 REVERT JUMPDEST POP PUSH2 0x13A3 DUP1 PUSH2 0x20 PUSH1 0x0 CODECOPY PUSH1 0x0 RETURN INVALID PUSH1 0x80 PUSH1 0x40 MSTORE CALLVALUE DUP1 ISZERO PUSH2 0x10 JUMPI PUSH1 0x0 DUP1 REVERT JUMPDEST POP PUSH1 0x4 CALLDATASIZE LT PUSH2 0x7D JUMPI PUSH1 0x0 CALLDATALOAD PUSH1 0xE0 SHR DUP1 PUSH4 0x689F739A GT PUSH2 0x5B JUMPI DUP1 PUSH4 0x689F739A EQ PUSH2 0xDA JUMPI DUP1 PUSH4 0x8F88708B EQ PUSH2 0x10A JUMPI DUP1 PUSH4 0x907084F0 EQ PUSH2 0x13F JUMPI DUP1 PUSH4 0xA819DFBB EQ PUSH2 0x149 JUMPI PUSH2 0x7D JUMP JUMPDEST DUP1 PUSH4 0x6907E2E EQ PUSH2 0x82 JUMPI DUP1 PUSH4 0x48E3EEDA EQ PUSH2 0xA0 JUMPI DUP1 PUSH4 0x4973CCFB EQ PUSH2 0xBC JUMPI JUMPDEST PUSH1 0x0 DUP1 REVERT JUMPDEST PUSH2 0x8A PUSH2 0x179 JUMP JUMPDEST PUSH1 0x40 MLOAD PUSH2 0x97 SWAP2 SWAP1 PUSH2 0x9AB JUMP JUMPDEST PUSH1 0x40 MLOAD DUP1 SWAP2 SUB SWAP1 RETURN JUMPDEST PUSH2 0xBA PUSH1 0x4 DUP1 CALLDATASIZE SUB DUP2 ADD SWAP1 PUSH2 0xB5 SWAP2 SWAP1 PUSH2 0xB96 JUMP JUMPDEST PUSH2 0x1C4 JUMP JUMPDEST STOP JUMPDEST PUSH2 0xC4 PUSH2 0x2DF JUMP JUMPDEST PUSH1 0x40 MLOAD PUSH2 0xD1 SWAP2 SWAP1 PUSH2 0xC63 JUMP JUMPDEST PUSH1 0x40 MLOAD DUP1 SWAP2 SUB SWAP1 RETURN JUMPDEST PUSH2 0xF4 PUSH1 0x4 DUP1 CALLDATASIZE SUB DUP2 ADD SWAP1 PUSH2 0xEF SWAP2 SWAP1 PUSH2 0xC7E JUMP JUMPDEST PUSH2 0x2E5 JUMP JUMPDEST PUSH1 0x40 MLOAD PUSH2 0x101 SWAP2 SWAP1 PUSH2 0xC63 JUMP JUMPDEST PUSH1 0x40 MLOAD DUP1 SWAP2 SUB SWAP1 RETURN JUMPDEST PUSH2 0x124 PUSH1 0x4 DUP1 CALLDATASIZE SUB DUP2 ADD SWAP1 PUSH2 0x11F SWAP2 SWAP1 PUSH2 0xD15 JUMP JUMPDEST PUSH2 0x418 JUMP JUMPDEST PUSH1 0x40 MLOAD PUSH2 0x136 SWAP7 SWAP6 SWAP5 SWAP4 SWAP3 SWAP2 SWAP1 PUSH2 0xE80 JUMP JUMPDEST PUSH1 0x40 MLOAD DUP1 SWAP2 SUB SWAP1 RETURN JUMPDEST PUSH2 0x147 PUSH2 0x5B0 JUMP JUMPDEST STOP JUMPDEST PUSH2 0x163 PUSH1 0x4 DUP1 CALLDATASIZE SUB DUP2 ADD SWAP1 PUSH2 0x15E SWAP2 SWAP1 PUSH2 0xEE8 JUMP JUMPDEST PUSH2 0x844 JUMP JUMPDEST PUSH1 0x40 MLOAD PUSH2 0x170 SWAP2 SWAP1 PUSH2 0xC63 JUMP JUMPDEST PUSH1 0x40 MLOAD DUP1 SWAP2 SUB SWAP1 RETURN JUMPDEST PUSH2 0x181 PUSH2 0x8D4 JUMP JUMPDEST PUSH1 0x2 PUSH1 0x3 DUP1 PUSH1 0x20 MUL PUSH1 0x40 MLOAD SWAP1 DUP2 ADD PUSH1 0x40 MSTORE DUP1 SWAP3 SWAP2 SWAP1 DUP3 PUSH1 0x3 DUP1 ISZERO PUSH2 0x1BA JUMPI PUSH1 0x20 MUL DUP3 ADD SWAP2 JUMPDEST DUP2 SLOAD DUP2 MSTORE PUSH1 0x20 ADD SWAP1 PUSH1 0x1 ADD SWAP1 DUP1 DUP4 GT PUSH2 0x1A6 JUMPI JUMPDEST POP POP POP POP POP SWAP1 POP SWAP1 JUMP JUMPDEST PUSH1 0x0 DUP8 GT DUP1 ISZERO PUSH2 0x1D6 JUMPI POP PUSH1 0x1 SLOAD DUP8 GT ISZERO JUMPDEST ISZERO PUSH2 0x2D6 JUMPI PUSH1 0x40 MLOAD DUP1 PUSH1 0xC0 ADD PUSH1 0x40 MSTORE DUP1 DUP8 DUP2 MSTORE PUSH1 0x20 ADD DUP7 DUP2 MSTORE PUSH1 0x20 ADD DUP6 DUP2 MSTORE PUSH1 0x20 ADD DUP5 PUSH1 0x3 DUP2 GT ISZERO PUSH2 0x20B JUMPI PUSH2 0x20A PUSH2 0xDC1 JUMP JUMPDEST JUMPDEST DUP2 MSTORE PUSH1 0x20 ADD DUP4 PUSH1 0x3 DUP2 GT ISZERO PUSH2 0x223 JUMPI PUSH2 0x222 PUSH2 0xDC1 JUMP JUMPDEST JUMPDEST DUP2 MSTORE PUSH1 0x20 ADD DUP3 DUP2 MSTORE POP PUSH1 0x0 DUP1 DUP10 DUP2 MSTORE PUSH1 0x20 ADD SWAP1 DUP2 MSTORE PUSH1 0x20 ADD PUSH1 0x0 KECCAK256 PUSH1 0x0 DUP3 ADD MLOAD DUP2 PUSH1 0x0 ADD SWAP1 DUP2 PUSH2 0x253 SWAP2 SWAP1 PUSH2 0x1121 JUMP JUMPDEST POP PUSH1 0x20 DUP3 ADD MLOAD DUP2 PUSH1 0x1 ADD SSTORE PUSH1 0x40 DUP3 ADD MLOAD DUP2 PUSH1 0x2 ADD SSTORE PUSH1 0x60 DUP3 ADD MLOAD DUP2 PUSH1 0x3 ADD PUSH1 0x0 PUSH2 0x100 EXP DUP2 SLOAD DUP2 PUSH1 0xFF MUL NOT AND SWAP1 DUP4 PUSH1 0x3 DUP2 GT ISZERO PUSH2 0x293 JUMPI PUSH2 0x292 PUSH2 0xDC1 JUMP JUMPDEST JUMPDEST MUL OR SWAP1 SSTORE POP PUSH1 0x80 DUP3 ADD MLOAD DUP2 PUSH1 0x3 ADD PUSH1 0x1 PUSH2 0x100 EXP DUP2 SLOAD DUP2 PUSH1 0xFF MUL NOT AND SWAP1 DUP4 PUSH1 0x3 DUP2 GT ISZERO PUSH2 0x2C3 JUMPI PUSH2 0x2C2 PUSH2 0xDC1 JUMP JUMPDEST JUMPDEST MUL OR SWAP1 SSTORE POP PUSH1 0xA0 DUP3 ADD MLOAD DUP2 PUSH1 0x4 ADD SSTORE SWAP1 POP POP JUMPDEST POP POP POP POP POP POP POP JUMP JUMPDEST PUSH1 0x1 SLOAD DUP2 JUMP JUMPDEST PUSH1 0x0 DUP1 PUSH1 0x1 DUP1 SLOAD PUSH2 0x2F6 SWAP2 SWAP1 PUSH2 0x1222 JUMP JUMPDEST SWAP1 POP PUSH1 0x40 MLOAD DUP1 PUSH1 0xC0 ADD PUSH1 0x40 MSTORE DUP1 DUP9 DUP2 MSTORE PUSH1 0x20 ADD DUP8 DUP2 MSTORE PUSH1 0x20 ADD DUP7 DUP2 MSTORE PUSH1 0x20 ADD DUP6 PUSH1 0x3 DUP2 GT ISZERO PUSH2 0x328 JUMPI PUSH2 0x327 PUSH2 0xDC1 JUMP JUMPDEST JUMPDEST DUP2 MSTORE PUSH1 0x20 ADD PUSH1 0x0 PUSH1 0x3 DUP2 GT ISZERO PUSH2 0x341 JUMPI PUSH2 0x340 PUSH2 0xDC1 JUMP JUMPDEST JUMPDEST DUP2 MSTORE PUSH1 0x20 ADD DUP5 DUP2 MSTORE POP PUSH1 0x0 DUP1 DUP4 DUP2 MSTORE PUSH1 0x20 ADD SWAP1 DUP2 MSTORE PUSH1 0x20 ADD PUSH1 0x0 KECCAK256 PUSH1 0x0 DUP3 ADD MLOAD DUP2 PUSH1 0x0 ADD SWAP1 DUP2 PUSH2 0x371 SWAP2 SWAP1 PUSH2 0x1121 JUMP JUMPDEST POP PUSH1 0x20 DUP3 ADD MLOAD DUP2 PUSH1 0x1 ADD SSTORE PUSH1 0x40 DUP3 ADD MLOAD DUP2 PUSH1 0x2 ADD SSTORE PUSH1 0x60 DUP3 ADD MLOAD DUP2 PUSH1 0x3 ADD PUSH1 0x0 PUSH2 0x100 EXP DUP2 SLOAD DUP2 PUSH1 0xFF MUL NOT AND SWAP1 DUP4 PUSH1 0x3 DUP2 GT ISZERO PUSH2 0x3B1 JUMPI PUSH2 0x3B0 PUSH2 0xDC1 JUMP JUMPDEST JUMPDEST MUL OR SWAP1 SSTORE POP PUSH1 0x80 DUP3 ADD MLOAD DUP2 PUSH1 0x3 ADD PUSH1 0x1 PUSH2 0x100 EXP DUP2 SLOAD DUP2 PUSH1 0xFF MUL NOT AND SWAP1 DUP4 PUSH1 0x3 DUP2 GT ISZERO PUSH2 0x3E1 JUMPI PUSH2 0x3E0 PUSH2 0xDC1 JUMP JUMPDEST JUMPDEST MUL OR SWAP1 SSTORE POP PUSH1 0xA0 DUP3 ADD MLOAD DUP2 PUSH1 0x4 ADD SSTORE SWAP1 POP POP PUSH1 0x1 PUSH1 0x0 DUP2 SLOAD DUP1 SWAP3 SWAP2 SWAP1 PUSH2 0x406 SWAP1 PUSH2 0x1256 JUMP JUMPDEST SWAP2 SWAP1 POP SSTORE POP DUP1 SWAP2 POP POP SWAP6 SWAP5 POP POP POP POP POP JUMP JUMPDEST PUSH1 0x60 PUSH1 0x0 DUP1 PUSH1 0x0 DUP1 PUSH1 0x0 DUP1 DUP8 GT DUP1 ISZERO PUSH2 0x433 JUMPI POP PUSH1 0x1 SLOAD DUP8 GT ISZERO JUMPDEST PUSH2 0x472 JUMPI PUSH1 0x40 MLOAD PUSH32 0x8C379A000000000000000000000000000000000000000000000000000000000 DUP2 MSTORE PUSH1 0x4 ADD PUSH2 0x469 SWAP1 PUSH2 0x12EA JUMP JUMPDEST PUSH1 0x40 MLOAD DUP1 SWAP2 SUB SWAP1 REVERT JUMPDEST PUSH1 0x0 DUP1 DUP9 DUP2 MSTORE PUSH1 0x20 ADD SWAP1 DUP2 MSTORE PUSH1 0x20 ADD PUSH1 0x0 KECCAK256 PUSH1 0x0 ADD PUSH1 0x0 DUP1 DUP10 DUP2 MSTORE PUSH1 0x20 ADD SWAP1 DUP2 MSTORE PUSH1 0x20 ADD PUSH1 0x0 KECCAK256 PUSH1 0x1 ADD SLOAD PUSH1 0x0 DUP1 DUP11 DUP2 MSTORE PUSH1 0x20 ADD SWAP1 DUP2 MSTORE PUSH1 0x20 ADD PUSH1 0x0 KECCAK256 PUSH1 0x2 ADD SLOAD PUSH1 0x0 DUP1 DUP12 DUP2 MSTORE PUSH1 0x20 ADD SWAP1 DUP2 MSTORE PUSH1 0x20 ADD PUSH1 0x0 KECCAK256 PUSH1 0x3 ADD PUSH1 0x0 SWAP1 SLOAD SWAP1 PUSH2 0x100 EXP SWAP1 DIV PUSH1 0xFF AND PUSH1 0x0 DUP1 DUP13 DUP2 MSTORE PUSH1 0x20 ADD SWAP1 DUP2 MSTORE PUSH1 0x20 ADD PUSH1 0x0 KECCAK256 PUSH1 0x3 ADD PUSH1 0x1 SWAP1 SLOAD SWAP1 PUSH2 0x100 EXP SWAP1 DIV PUSH1 0xFF AND PUSH1 0x0 DUP1 DUP14 DUP2 MSTORE PUSH1 0x20 ADD SWAP1 DUP2 MSTORE PUSH1 0x20 ADD PUSH1 0x0 KECCAK256 PUSH1 0x4 ADD SLOAD DUP6 DUP1 SLOAD PUSH2 0x51B SWAP1 PUSH2 0xF44 JUMP JUMPDEST DUP1 PUSH1 0x1F ADD PUSH1 0x20 DUP1 SWAP2 DIV MUL PUSH1 0x20 ADD PUSH1 0x40 MLOAD SWAP1 DUP2 ADD PUSH1 0x40 MSTORE DUP1 SWAP3 SWAP2 SWAP1 DUP2 DUP2 MSTORE PUSH1 0x20 ADD DUP3 DUP1 SLOAD PUSH2 0x547 SWAP1 PUSH2 0xF44 JUMP JUMPDEST DUP1 ISZERO PUSH2 0x594 JUMPI DUP1 PUSH1 0x1F LT PUSH2 0x569 JUMPI PUSH2 0x100 DUP1 DUP4 SLOAD DIV MUL DUP4 MSTORE SWAP2 PUSH1 0x20 ADD SWAP2 PUSH2 0x594 JUMP JUMPDEST DUP3 ADD SWAP2 SWAP1 PUSH1 0x0 MSTORE PUSH1 0x20 PUSH1 0x0 KECCAK256 SWAP1 JUMPDEST DUP2 SLOAD DUP2 MSTORE SWAP1 PUSH1 0x1 ADD SWAP1 PUSH1 0x20 ADD DUP1 DUP4 GT PUSH2 0x577 JUMPI DUP3 SWAP1 SUB PUSH1 0x1F AND DUP3 ADD SWAP2 JUMPDEST POP POP POP POP POP SWAP6 POP SWAP6 POP SWAP6 POP SWAP6 POP SWAP6 POP SWAP6 POP SWAP6 POP SWAP2 SWAP4 SWAP6 POP SWAP2 SWAP4 SWAP6 JUMP JUMPDEST PUSH1 0x0 PUSH1 0x1 SLOAD PUSH8 0xFFFFFFFFFFFFFFFF DUP2 GT ISZERO PUSH2 0x5CE JUMPI PUSH2 0x5CD PUSH2 0xA21 JUMP JUMPDEST JUMPDEST PUSH1 0x40 MLOAD SWAP1 DUP1 DUP3 MSTORE DUP1 PUSH1 0x20 MUL PUSH1 0x20 ADD DUP3 ADD PUSH1 0x40 MSTORE DUP1 ISZERO PUSH2 0x5FC JUMPI DUP2 PUSH1 0x20 ADD PUSH1 0x20 DUP3 MUL DUP1 CALLDATASIZE DUP4 CALLDATACOPY DUP1 DUP3 ADD SWAP2 POP POP SWAP1 POP JUMPDEST POP SWAP1 POP PUSH1 0x0 PUSH1 0x1 SWAP1 POP JUMPDEST PUSH1 0x1 SLOAD DUP2 GT PUSH2 0x64E JUMPI DUP1 DUP3 PUSH1 0x1 DUP4 PUSH2 0x61E SWAP2 SWAP1 PUSH2 0x130A JUMP JUMPDEST DUP2 MLOAD DUP2 LT PUSH2 0x62F JUMPI PUSH2 0x62E PUSH2 0x133E JUMP JUMPDEST JUMPDEST PUSH1 0x20 MUL PUSH1 0x20 ADD ADD DUP2 DUP2 MSTORE POP POP DUP1 DUP1 PUSH2 0x646 SWAP1 PUSH2 0x1256 JUMP JUMPDEST SWAP2 POP POP PUSH2 0x606 JUMP JUMPDEST POP PUSH1 0x0 JUMPDEST DUP2 MLOAD DUP2 LT ISZERO PUSH2 0x79F JUMPI PUSH1 0x0 JUMPDEST PUSH1 0x1 DUP4 MLOAD PUSH2 0x66C SWAP2 SWAP1 PUSH2 0x130A JUMP JUMPDEST DUP2 LT ISZERO PUSH2 0x78B JUMPI PUSH1 0x0 DUP1 DUP5 PUSH1 0x1 DUP5 PUSH2 0x684 SWAP2 SWAP1 PUSH2 0x1222 JUMP JUMPDEST DUP2 MLOAD DUP2 LT PUSH2 0x695 JUMPI PUSH2 0x694 PUSH2 0x133E JUMP JUMPDEST JUMPDEST PUSH1 0x20 MUL PUSH1 0x20 ADD ADD MLOAD DUP2 MSTORE PUSH1 0x20 ADD SWAP1 DUP2 MSTORE PUSH1 0x20 ADD PUSH1 0x0 KECCAK256 PUSH1 0x4 ADD SLOAD PUSH1 0x0 DUP1 DUP6 DUP5 DUP2 MLOAD DUP2 LT PUSH2 0x6C5 JUMPI PUSH2 0x6C4 PUSH2 0x133E JUMP JUMPDEST JUMPDEST PUSH1 0x20 MUL PUSH1 0x20 ADD ADD MLOAD DUP2 MSTORE PUSH1 0x20 ADD SWAP1 DUP2 MSTORE PUSH1 0x20 ADD PUSH1 0x0 KECCAK256 PUSH1 0x4 ADD SLOAD LT ISZERO PUSH2 0x778 JUMPI PUSH1 0x0 DUP4 PUSH1 0x1 DUP4 PUSH2 0x6F5 SWAP2 SWAP1 PUSH2 0x1222 JUMP JUMPDEST DUP2 MLOAD DUP2 LT PUSH2 0x706 JUMPI PUSH2 0x705 PUSH2 0x133E JUMP JUMPDEST JUMPDEST PUSH1 0x20 MUL PUSH1 0x20 ADD ADD MLOAD SWAP1 POP DUP4 DUP3 DUP2 MLOAD DUP2 LT PUSH2 0x723 JUMPI PUSH2 0x722 PUSH2 0x133E JUMP JUMPDEST JUMPDEST PUSH1 0x20 MUL PUSH1 0x20 ADD ADD MLOAD DUP5 PUSH1 0x1 DUP5 PUSH2 0x739 SWAP2 SWAP1 PUSH2 0x1222 JUMP JUMPDEST DUP2 MLOAD DUP2 LT PUSH2 0x74A JUMPI PUSH2 0x749 PUSH2 0x133E JUMP JUMPDEST JUMPDEST PUSH1 0x20 MUL PUSH1 0x20 ADD ADD DUP2 DUP2 MSTORE POP POP DUP1 DUP5 DUP4 DUP2 MLOAD DUP2 LT PUSH2 0x76A JUMPI PUSH2 0x769 PUSH2 0x133E JUMP JUMPDEST JUMPDEST PUSH1 0x20 MUL PUSH1 0x20 ADD ADD DUP2 DUP2 MSTORE POP POP POP JUMPDEST DUP1 DUP1 PUSH2 0x783 SWAP1 PUSH2 0x1256 JUMP JUMPDEST SWAP2 POP POP PUSH2 0x65E JUMP JUMPDEST POP DUP1 DUP1 PUSH2 0x797 SWAP1 PUSH2 0x1256 JUMP JUMPDEST SWAP2 POP POP PUSH2 0x652 JUMP JUMPDEST POP DUP1 PUSH1 0x0 DUP2 MLOAD DUP2 LT PUSH2 0x7B4 JUMPI PUSH2 0x7B3 PUSH2 0x133E JUMP JUMPDEST JUMPDEST PUSH1 0x20 MUL PUSH1 0x20 ADD ADD MLOAD PUSH1 0x2 PUSH1 0x0 PUSH1 0x3 DUP2 LT PUSH2 0x7D1 JUMPI PUSH2 0x7D0 PUSH2 0x133E JUMP JUMPDEST JUMPDEST ADD DUP2 SWAP1 SSTORE POP DUP1 PUSH1 0x1 DUP2 MLOAD DUP2 LT PUSH2 0x7EA JUMPI PUSH2 0x7E9 PUSH2 0x133E JUMP JUMPDEST JUMPDEST PUSH1 0x20 MUL PUSH1 0x20 ADD ADD MLOAD PUSH1 0x2 PUSH1 0x1 PUSH1 0x3 DUP2 LT PUSH2 0x807 JUMPI PUSH2 0x806 PUSH2 0x133E JUMP JUMPDEST JUMPDEST ADD DUP2 SWAP1 SSTORE POP DUP1 PUSH1 0x2 DUP2 MLOAD DUP2 LT PUSH2 0x820 JUMPI PUSH2 0x81F PUSH2 0x133E JUMP JUMPDEST JUMPDEST PUSH1 0x20 MUL PUSH1 0x20 ADD ADD MLOAD PUSH1 0x2 DUP1 PUSH1 0x3 DUP2 LT PUSH2 0x83C JUMPI PUSH2 0x83B PUSH2 0x133E JUMP JUMPDEST JUMPDEST ADD DUP2 SWAP1 SSTORE POP POP JUMP JUMPDEST PUSH1 0x0 DUP1 PUSH1 0x0 SWAP1 POP PUSH1 0x0 PUSH1 0x1 SWAP1 POP JUMPDEST PUSH1 0x1 SLOAD DUP2 GT PUSH2 0x8CA JUMPI DUP4 PUSH1 0x3 DUP2 GT ISZERO PUSH2 0x86E JUMPI PUSH2 0x86D PUSH2 0xDC1 JUMP JUMPDEST JUMPDEST PUSH1 0x0 DUP1 DUP4 DUP2 MSTORE PUSH1 0x20 ADD SWAP1 DUP2 MSTORE PUSH1 0x20 ADD PUSH1 0x0 KECCAK256 PUSH1 0x3 ADD PUSH1 0x0 SWAP1 SLOAD SWAP1 PUSH2 0x100 EXP SWAP1 DIV PUSH1 0xFF AND PUSH1 0x3 DUP2 GT ISZERO PUSH2 0x8A3 JUMPI PUSH2 0x8A2 PUSH2 0xDC1 JUMP JUMPDEST JUMPDEST SUB PUSH2 0x8B7 JUMPI DUP2 DUP1 PUSH2 0x8B3 SWAP1 PUSH2 0x1256 JUMP JUMPDEST SWAP3 POP POP JUMPDEST DUP1 DUP1 PUSH2 0x8C2 SWAP1 PUSH2 0x1256 JUMP JUMPDEST SWAP2 POP POP PUSH2 0x852 JUMP JUMPDEST POP DUP1 SWAP2 POP POP SWAP2 SWAP1 POP JUMP JUMPDEST PUSH1 0x40 MLOAD DUP1 PUSH1 0x60 ADD PUSH1 0x40 MSTORE DUP1 PUSH1 0x3 SWAP1 PUSH1 0x20 DUP3 MUL DUP1 CALLDATASIZE DUP4 CALLDATACOPY DUP1 DUP3 ADD SWAP2 POP POP SWAP1 POP POP SWAP1 JUMP JUMPDEST PUSH1 0x0 PUSH1 0x3 SWAP1 POP SWAP2 SWAP1 POP JUMP JUMPDEST PUSH1 0x0 DUP2 SWAP1 POP SWAP3 SWAP2 POP POP JUMP JUMPDEST PUSH1 0x0 DUP2 SWAP1 POP SWAP2 SWAP1 POP JUMP JUMPDEST PUSH1 0x0 DUP2 SWAP1 POP SWAP2 SWAP1 POP JUMP JUMPDEST PUSH2 0x929 DUP2 PUSH2 0x916 JUMP JUMPDEST DUP3 MSTORE POP POP JUMP JUMPDEST PUSH1 0x0 PUSH2 0x93B DUP4 DUP4 PUSH2 0x920 JUMP JUMPDEST PUSH1 0x20 DUP4 ADD SWAP1 POP SWAP3 SWAP2 POP POP JUMP JUMPDEST PUSH1 0x0 PUSH1 0x20 DUP3 ADD SWAP1 POP SWAP2 SWAP1 POP JUMP JUMPDEST PUSH2 0x95D DUP2 PUSH2 0x8F6 JUMP JUMPDEST PUSH2 0x967 DUP2 DUP5 PUSH2 0x901 JUMP JUMPDEST SWAP3 POP PUSH2 0x972 DUP3 PUSH2 0x90C JUMP JUMPDEST DUP1 PUSH1 0x0 JUMPDEST DUP4 DUP2 LT ISZERO PUSH2 0x9A3 JUMPI DUP2 MLOAD PUSH2 0x98A DUP8 DUP3 PUSH2 0x92F JUMP JUMPDEST SWAP7 POP PUSH2 0x995 DUP4 PUSH2 0x947 JUMP JUMPDEST SWAP3 POP POP PUSH1 0x1 DUP2 ADD SWAP1 POP PUSH2 0x976 JUMP JUMPDEST POP POP POP POP POP POP JUMP JUMPDEST PUSH1 0x0 PUSH1 0x60 DUP3 ADD SWAP1 POP PUSH2 0x9C0 PUSH1 0x0 DUP4 ADD DUP5 PUSH2 0x954 JUMP JUMPDEST SWAP3 SWAP2 POP POP JUMP JUMPDEST PUSH1 0x0 PUSH1 0x40 MLOAD SWAP1 POP SWAP1 JUMP JUMPDEST PUSH1 0x0 DUP1 REVERT JUMPDEST PUSH1 0x0 DUP1 REVERT JUMPDEST PUSH2 0x9E3 DUP2 PUSH2 0x916 JUMP JUMPDEST DUP2 EQ PUSH2 0x9EE JUMPI PUSH1 0x0 DUP1 REVERT JUMPDEST POP JUMP JUMPDEST PUSH1 0x0 DUP2 CALLDATALOAD SWAP1 POP PUSH2 0xA00 DUP2 PUSH2 0x9DA JUMP JUMPDEST SWAP3 SWAP2 POP POP JUMP JUMPDEST PUSH1 0x0 DUP1 REVERT JUMPDEST PUSH1 0x0 DUP1 REVERT JUMPDEST PUSH1 0x0 PUSH1 0x1F NOT PUSH1 0x1F DUP4 ADD AND SWAP1 POP SWAP2 SWAP1 POP JUMP JUMPDEST PUSH32 0x4E487B7100000000000000000000000000000000000000000000000000000000 PUSH1 0x0 MSTORE PUSH1 0x41 PUSH1 0x4 MSTORE PUSH1 0x24 PUSH1 0x0 REVERT JUMPDEST PUSH2 0xA59 DUP3 PUSH2 0xA10 JUMP JUMPDEST DUP2 ADD DUP2 DUP2 LT PUSH8 0xFFFFFFFFFFFFFFFF DUP3 GT OR ISZERO PUSH2 0xA78 JUMPI PUSH2 0xA77 PUSH2 0xA21 JUMP JUMPDEST JUMPDEST DUP1 PUSH1 0x40 MSTORE POP POP POP JUMP JUMPDEST PUSH1 0x0 PUSH2 0xA8B PUSH2 0x9C6 JUMP JUMPDEST SWAP1 POP PUSH2 0xA97 DUP3 DUP3 PUSH2 0xA50 JUMP JUMPDEST SWAP2 SWAP1 POP JUMP JUMPDEST PUSH1 0x0 PUSH8 0xFFFFFFFFFFFFFFFF DUP3 GT ISZERO PUSH2 0xAB7 JUMPI PUSH2 0xAB6 PUSH2 0xA21 JUMP JUMPDEST JUMPDEST PUSH2 0xAC0 DUP3 PUSH2 0xA10 JUMP JUMPDEST SWAP1 POP PUSH1 0x20 DUP2 ADD SWAP1 POP SWAP2 SWAP1 POP JUMP JUMPDEST DUP3 DUP2 DUP4 CALLDATACOPY PUSH1 0x0 DUP4 DUP4 ADD MSTORE POP POP POP JUMP JUMPDEST PUSH1 0x0 PUSH2 0xAEF PUSH2 0xAEA DUP5 PUSH2 0xA9C JUMP JUMPDEST PUSH2 0xA81 JUMP JUMPDEST SWAP1 POP DUP3 DUP2 MSTORE PUSH1 0x20 DUP2 ADD DUP5 DUP5 DUP5 ADD GT ISZERO PUSH2 0xB0B JUMPI PUSH2 0xB0A PUSH2 0xA0B JUMP JUMPDEST JUMPDEST PUSH2 0xB16 DUP5 DUP3 DUP6 PUSH2 0xACD JUMP JUMPDEST POP SWAP4 SWAP3 POP POP POP JUMP JUMPDEST PUSH1 0x0 DUP3 PUSH1 0x1F DUP4 ADD SLT PUSH2 0xB33 JUMPI PUSH2 0xB32 PUSH2 0xA06 JUMP JUMPDEST JUMPDEST DUP2 CALLDATALOAD PUSH2 0xB43 DUP5 DUP3 PUSH1 0x20 DUP7 ADD PUSH2 0xADC JUMP JUMPDEST SWAP2 POP POP SWAP3 SWAP2 POP POP JUMP JUMPDEST PUSH1 0x4 DUP2 LT PUSH2 0xB59 JUMPI PUSH1 0x0 DUP1 REVERT JUMPDEST POP JUMP JUMPDEST PUSH1 0x0 DUP2 CALLDATALOAD SWAP1 POP PUSH2 0xB6B DUP2 PUSH2 0xB4C JUMP JUMPDEST SWAP3 SWAP2 POP POP JUMP JUMPDEST PUSH1 0x4 DUP2 LT PUSH2 0xB7E JUMPI PUSH1 0x0 DUP1 REVERT JUMPDEST POP JUMP JUMPDEST PUSH1 0x0 DUP2 CALLDATALOAD SWAP1 POP PUSH2 0xB90 DUP2 PUSH2 0xB71 JUMP JUMPDEST SWAP3 SWAP2 POP POP JUMP JUMPDEST PUSH1 0x0 DUP1 PUSH1 0x0 DUP1 PUSH1 0x0 DUP1 PUSH1 0x0 PUSH1 0xE0 DUP9 DUP11 SUB SLT ISZERO PUSH2 0xBB5 JUMPI PUSH2 0xBB4 PUSH2 0x9D0 JUMP JUMPDEST JUMPDEST PUSH1 0x0 PUSH2 0xBC3 DUP11 DUP3 DUP12 ADD PUSH2 0x9F1 JUMP JUMPDEST SWAP8 POP POP PUSH1 0x20 DUP9 ADD CALLDATALOAD PUSH8 0xFFFFFFFFFFFFFFFF DUP2 GT ISZERO PUSH2 0xBE4 JUMPI PUSH2 0xBE3 PUSH2 0x9D5 JUMP JUMPDEST JUMPDEST PUSH2 0xBF0 DUP11 DUP3 DUP12 ADD PUSH2 0xB1E JUMP JUMPDEST SWAP7 POP POP PUSH1 0x40 PUSH2 0xC01 DUP11 DUP3 DUP12 ADD PUSH2 0x9F1 JUMP JUMPDEST SWAP6 POP POP PUSH1 0x60 PUSH2 0xC12 DUP11 DUP3 DUP12 ADD PUSH2 0x9F1 JUMP JUMPDEST SWAP5 POP POP PUSH1 0x80 PUSH2 0xC23 DUP11 DUP3 DUP12 ADD PUSH2 0xB5C JUMP JUMPDEST SWAP4 POP POP PUSH1 0xA0 PUSH2 0xC34 DUP11 DUP3 DUP12 ADD PUSH2 0xB81 JUMP JUMPDEST SWAP3 POP POP PUSH1 0xC0 PUSH2 0xC45 DUP11 DUP3 DUP12 ADD PUSH2 0x9F1 JUMP JUMPDEST SWAP2 POP POP SWAP3 SWAP6 SWAP9 SWAP2 SWAP5 SWAP8 POP SWAP3 SWAP6 POP JUMP JUMPDEST PUSH2 0xC5D DUP2 PUSH2 0x916 JUMP JUMPDEST DUP3 MSTORE POP POP JUMP JUMPDEST PUSH1 0x0 PUSH1 0x20 DUP3 ADD SWAP1 POP PUSH2 0xC78 PUSH1 0x0 DUP4 ADD DUP5 PUSH2 0xC54 JUMP JUMPDEST SWAP3 SWAP2 POP POP JUMP JUMPDEST PUSH1 0x0 DUP1 PUSH1 0x0 DUP1 PUSH1 0x0 PUSH1 0xA0 DUP7 DUP9 SUB SLT ISZERO PUSH2 0xC9A JUMPI PUSH2 0xC99 PUSH2 0x9D0 JUMP JUMPDEST JUMPDEST PUSH1 0x0 DUP7 ADD CALLDATALOAD PUSH8 0xFFFFFFFFFFFFFFFF DUP2 GT ISZERO PUSH2 0xCB8 JUMPI PUSH2 0xCB7 PUSH2 0x9D5 JUMP JUMPDEST JUMPDEST PUSH2 0xCC4 DUP9 DUP3 DUP10 ADD PUSH2 0xB1E JUMP JUMPDEST SWAP6 POP POP PUSH1 0x20 PUSH2 0xCD5 DUP9 DUP3 DUP10 ADD PUSH2 0x9F1 JUMP JUMPDEST SWAP5 POP POP PUSH1 0x40 PUSH2 0xCE6 DUP9 DUP3 DUP10 ADD PUSH2 0x9F1 JUMP JUMPDEST SWAP4 POP POP PUSH1 0x60 PUSH2 0xCF7 DUP9 DUP3 DUP10 ADD PUSH2 0xB5C JUMP JUMPDEST SWAP3 POP POP PUSH1 0x80 PUSH2 0xD08 DUP9 DUP3 DUP10 ADD PUSH2 0x9F1 JUMP JUMPDEST SWAP2 POP POP SWAP3 SWAP6 POP SWAP3 SWAP6 SWAP1 SWAP4 POP JUMP JUMPDEST PUSH1 0x0 PUSH1 0x20 DUP3 DUP5 SUB SLT ISZERO PUSH2 0xD2B JUMPI PUSH2 0xD2A PUSH2 0x9D0 JUMP JUMPDEST JUMPDEST PUSH1 0x0 PUSH2 0xD39 DUP5 DUP3 DUP6 ADD PUSH2 0x9F1 JUMP JUMPDEST SWAP2 POP POP SWAP3 SWAP2 POP POP JUMP JUMPDEST PUSH1 0x0 DUP2 MLOAD SWAP1 POP SWAP2 SWAP1 POP JUMP JUMPDEST PUSH1 0x0 DUP3 DUP3 MSTORE PUSH1 0x20 DUP3 ADD SWAP1 POP SWAP3 SWAP2 POP POP JUMP JUMPDEST PUSH1 0x0 JUMPDEST DUP4 DUP2 LT ISZERO PUSH2 0xD7C JUMPI DUP1 DUP3 ADD MLOAD DUP2 DUP5 ADD MSTORE PUSH1 0x20 DUP2 ADD SWAP1 POP PUSH2 0xD61 JUMP JUMPDEST PUSH1 0x0 DUP5 DUP5 ADD MSTORE POP POP POP POP JUMP JUMPDEST PUSH1 0x0 PUSH2 0xD93 DUP3 PUSH2 0xD42 JUMP JUMPDEST PUSH2 0xD9D DUP2 DUP6 PUSH2 0xD4D JUMP JUMPDEST SWAP4 POP PUSH2 0xDAD DUP2 DUP6 PUSH1 0x20 DUP7 ADD PUSH2 0xD5E JUMP JUMPDEST PUSH2 0xDB6 DUP2 PUSH2 0xA10 JUMP JUMPDEST DUP5 ADD SWAP2 POP POP SWAP3 SWAP2 POP POP JUMP JUMPDEST PUSH32 0x4E487B7100000000000000000000000000000000000000000000000000000000 PUSH1 0x0 MSTORE PUSH1 0x21 PUSH1 0x4 MSTORE PUSH1 0x24 PUSH1 0x0 REVERT JUMPDEST PUSH1 0x4 DUP2 LT PUSH2 0xE01 JUMPI PUSH2 0xE00 PUSH2 0xDC1 JUMP JUMPDEST JUMPDEST POP JUMP JUMPDEST PUSH1 0x0 DUP2 SWAP1 POP PUSH2 0xE12 DUP3 PUSH2 0xDF0 JUMP JUMPDEST SWAP2 SWAP1 POP JUMP JUMPDEST PUSH1 0x0 PUSH2 0xE22 DUP3 PUSH2 0xE04 JUMP JUMPDEST SWAP1 POP SWAP2 SWAP1 POP JUMP JUMPDEST PUSH2 0xE32 DUP2 PUSH2 0xE17 JUMP JUMPDEST DUP3 MSTORE POP POP JUMP JUMPDEST PUSH1 0x4 DUP2 LT PUSH2 0xE49 JUMPI PUSH2 0xE48 PUSH2 0xDC1 JUMP JUMPDEST JUMPDEST POP JUMP JUMPDEST PUSH1 0x0 DUP2 SWAP1 POP PUSH2 0xE5A DUP3 PUSH2 0xE38 JUMP JUMPDEST SWAP2 SWAP1 POP JUMP JUMPDEST PUSH1 0x0 PUSH2 0xE6A DUP3 PUSH2 0xE4C JUMP JUMPDEST SWAP1 POP SWAP2 SWAP1 POP JUMP JUMPDEST PUSH2 0xE7A DUP2 PUSH2 0xE5F JUMP JUMPDEST DUP3 MSTORE POP POP JUMP JUMPDEST PUSH1 0x0 PUSH1 0xC0 DUP3 ADD SWAP1 POP DUP2 DUP2 SUB PUSH1 0x0 DUP4 ADD MSTORE PUSH2 0xE9A DUP2 DUP10 PUSH2 0xD88 JUMP JUMPDEST SWAP1 POP PUSH2 0xEA9 PUSH1 0x20 DUP4 ADD DUP9 PUSH2 0xC54 JUMP JUMPDEST PUSH2 0xEB6 PUSH1 0x40 DUP4 ADD DUP8 PUSH2 0xC54 JUMP JUMPDEST PUSH2 0xEC3 PUSH1 0x60 DUP4 ADD DUP7 PUSH2 0xE29 JUMP JUMPDEST PUSH2 0xED0 PUSH1 0x80 DUP4 ADD DUP6 PUSH2 0xE71 JUMP JUMPDEST PUSH2 0xEDD PUSH1 0xA0 DUP4 ADD DUP5 PUSH2 0xC54 JUMP JUMPDEST SWAP8 SWAP7 POP POP POP POP POP POP POP JUMP JUMPDEST PUSH1 0x0 PUSH1 0x20 DUP3 DUP5 SUB SLT ISZERO PUSH2 0xEFE JUMPI PUSH2 0xEFD PUSH2 0x9D0 JUMP JUMPDEST JUMPDEST PUSH1 0x0 PUSH2 0xF0C DUP5 DUP3 DUP6 ADD PUSH2 0xB5C JUMP JUMPDEST SWAP2 POP POP SWAP3 SWAP2 POP POP JUMP JUMPDEST PUSH32 0x4E487B7100000000000000000000000000000000000000000000000000000000 PUSH1 0x0 MSTORE PUSH1 0x22 PUSH1 0x4 MSTORE PUSH1 0x24 PUSH1 0x0 REVERT JUMPDEST PUSH1 0x0 PUSH1 0x2 DUP3 DIV SWAP1 POP PUSH1 0x1 DUP3 AND DUP1 PUSH2 0xF5C JUMPI PUSH1 0x7F DUP3 AND SWAP2 POP JUMPDEST PUSH1 0x20 DUP3 LT DUP2 SUB PUSH2 0xF6F JUMPI PUSH2 0xF6E PUSH2 0xF15 JUMP JUMPDEST JUMPDEST POP SWAP2 SWAP1 POP JUMP JUMPDEST PUSH1 0x0 DUP2 SWAP1 POP DUP2 PUSH1 0x0 MSTORE PUSH1 0x20 PUSH1 0x0 KECCAK256 SWAP1 POP SWAP2 SWAP1 POP JUMP JUMPDEST PUSH1 0x0 PUSH1 0x20 PUSH1 0x1F DUP4 ADD DIV SWAP1 POP SWAP2 SWAP1 POP JUMP JUMPDEST PUSH1 0x0 DUP3 DUP3 SHL SWAP1 POP SWAP3 SWAP2 POP POP JUMP JUMPDEST PUSH1 0x0 PUSH1 0x8 DUP4 MUL PUSH2 0xFD7 PUSH32 0xFFFFFFFFFFFFFFFFFFFFFFFFFFFFFFFFFFFFFFFFFFFFFFFFFFFFFFFFFFFFFFFF DUP3 PUSH2 0xF9A JUMP JUMPDEST PUSH2 0xFE1 DUP7 DUP4 PUSH2 0xF9A JUMP JUMPDEST SWAP6 POP DUP1 NOT DUP5 AND SWAP4 POP DUP1 DUP7 AND DUP5 OR SWAP3 POP POP POP SWAP4 SWAP3 POP POP POP JUMP JUMPDEST PUSH1 0x0 DUP2 SWAP1 POP SWAP2 SWAP1 POP JUMP JUMPDEST PUSH1 0x0 PUSH2 0x101E PUSH2 0x1019 PUSH2 0x1014 DUP5 PUSH2 0x916 JUMP JUMPDEST PUSH2 0xFF9 JUMP JUMPDEST PUSH2 0x916 JUMP JUMPDEST SWAP1 POP SWAP2 SWAP1 POP JUMP JUMPDEST PUSH1 0x0 DUP2 SWAP1 POP SWAP2 SWAP1 POP JUMP JUMPDEST PUSH2 0x1038 DUP4 PUSH2 0x1003 JUMP JUMPDEST PUSH2 0x104C PUSH2 0x1044 DUP3 PUSH2 0x1025 JUMP JUMPDEST DUP5 DUP5 SLOAD PUSH2 0xFA7 JUMP JUMPDEST DUP3 SSTORE POP POP POP POP JUMP JUMPDEST PUSH1 0x0 SWAP1 JUMP JUMPDEST PUSH2 0x1061 PUSH2 0x1054 JUMP JUMPDEST PUSH2 0x106C DUP2 DUP5 DUP5 PUSH2 0x102F JUMP JUMPDEST POP POP POP JUMP JUMPDEST JUMPDEST DUP2 DUP2 LT ISZERO PUSH2 0x1090 JUMPI PUSH2 0x1085 PUSH1 0x0 DUP3 PUSH2 0x1059 JUMP JUMPDEST PUSH1 0x1 DUP2 ADD SWAP1 POP PUSH2 0x1072 JUMP JUMPDEST POP POP JUMP JUMPDEST PUSH1 0x1F DUP3 GT ISZERO PUSH2 0x10D5 JUMPI PUSH2 0x10A6 DUP2 PUSH2 0xF75 JUMP JUMPDEST PUSH2 0x10AF DUP5 PUSH2 0xF8A JUMP JUMPDEST DUP2 ADD PUSH1 0x20 DUP6 LT ISZERO PUSH2 0x10BE JUMPI DUP2 SWAP1 POP JUMPDEST PUSH2 0x10D2 PUSH2 0x10CA DUP6 PUSH2 0xF8A JUMP JUMPDEST DUP4 ADD DUP3 PUSH2 0x1071 JUMP JUMPDEST POP POP JUMPDEST POP POP POP JUMP JUMPDEST PUSH1 0x0 DUP3 DUP3 SHR SWAP1 POP SWAP3 SWAP2 POP POP JUMP JUMPDEST PUSH1 0x0 PUSH2 0x10F8 PUSH1 0x0 NOT DUP5 PUSH1 0x8 MUL PUSH2 0x10DA JUMP JUMPDEST NOT DUP1 DUP4 AND SWAP2 POP POP SWAP3 SWAP2 POP POP JUMP JUMPDEST PUSH1 0x0 PUSH2 0x1111 DUP4 DUP4 PUSH2 0x10E7 JUMP JUMPDEST SWAP2 POP DUP3 PUSH1 0x2 MUL DUP3 OR SWAP1 POP SWAP3 SWAP2 POP POP JUMP JUMPDEST PUSH2 0x112A DUP3 PUSH2 0xD42 JUMP JUMPDEST PUSH8 0xFFFFFFFFFFFFFFFF DUP2 GT ISZERO PUSH2 0x1143 JUMPI PUSH2 0x1142 PUSH2 0xA21 JUMP JUMPDEST JUMPDEST PUSH2 0x114D DUP3 SLOAD PUSH2 0xF44 JUMP JUMPDEST PUSH2 0x1158 DUP3 DUP3 DUP6 PUSH2 0x1094 JUMP JUMPDEST PUSH1 0x0 PUSH1 0x20 SWAP1 POP PUSH1 0x1F DUP4 GT PUSH1 0x1 DUP2 EQ PUSH2 0x118B JUMPI PUSH1 0x0 DUP5 ISZERO PUSH2 0x1179 JUMPI DUP3 DUP8 ADD MLOAD SWAP1 POP JUMPDEST PUSH2 0x1183 DUP6 DUP3 PUSH2 0x1105 JUMP JUMPDEST DUP7 SSTORE POP PUSH2 0x11EB JUMP JUMPDEST PUSH1 0x1F NOT DUP5 AND PUSH2 0x1199 DUP7 PUSH2 0xF75 JUMP JUMPDEST PUSH1 0x0 JUMPDEST DUP3 DUP2 LT ISZERO PUSH2 0x11C1 JUMPI DUP5 DUP10 ADD MLOAD DUP3 SSTORE PUSH1 0x1 DUP3 ADD SWAP2 POP PUSH1 0x20 DUP6 ADD SWAP5 POP PUSH1 0x20 DUP2 ADD SWAP1 POP PUSH2 0x119C JUMP JUMPDEST DUP7 DUP4 LT ISZERO PUSH2 0x11DE JUMPI DUP5 DUP10 ADD MLOAD PUSH2 0x11DA PUSH1 0x1F DUP10 AND DUP3 PUSH2 0x10E7 JUMP JUMPDEST DUP4 SSTORE POP JUMPDEST PUSH1 0x1 PUSH1 0x2 DUP9 MUL ADD DUP9 SSTORE POP POP POP JUMPDEST POP POP POP POP POP POP JUMP JUMPDEST PUSH32 0x4E487B7100000000000000000000000000000000000000000000000000000000 PUSH1 0x0 MSTORE PUSH1 0x11 PUSH1 0x4 MSTORE PUSH1 0x24 PUSH1 0x0 REVERT JUMPDEST PUSH1 0x0 PUSH2 0x122D DUP3 PUSH2 0x916 JUMP JUMPDEST SWAP2 POP PUSH2 0x1238 DUP4 PUSH2 0x916 JUMP JUMPDEST SWAP3 POP DUP3 DUP3 ADD SWAP1 POP DUP1 DUP3 GT ISZERO PUSH2 0x1250 JUMPI PUSH2 0x124F PUSH2 0x11F3 JUMP JUMPDEST JUMPDEST SWAP3 SWAP2 POP POP JUMP JUMPDEST PUSH1 0x0 PUSH2 0x1261 DUP3 PUSH2 0x916 JUMP JUMPDEST SWAP2 POP PUSH32 0xFFFFFFFFFFFFFFFFFFFFFFFFFFFFFFFFFFFFFFFFFFFFFFFFFFFFFFFFFFFFFFFF DUP3 SUB PUSH2 0x1293 JUMPI PUSH2 0x1292 PUSH2 0x11F3 JUMP JUMPDEST JUMPDEST PUSH1 0x1 DUP3 ADD SWAP1 POP SWAP2 SWAP1 POP JUMP JUMPDEST PUSH32 0x496E76616C696420726F6C6C206E756D62657200000000000000000000000000 PUSH1 0x0 DUP3 ADD MSTORE POP JUMP JUMPDEST PUSH1 0x0 PUSH2 0x12D4 PUSH1 0x13 DUP4 PUSH2 0xD4D JUMP JUMPDEST SWAP2 POP PUSH2 0x12DF DUP3 PUSH2 0x129E JUMP JUMPDEST PUSH1 0x20 DUP3 ADD SWAP1 POP SWAP2 SWAP1 POP JUMP JUMPDEST PUSH1 0x0 PUSH1 0x20 DUP3 ADD SWAP1 POP DUP2 DUP2 SUB PUSH1 0x0 DUP4 ADD MSTORE PUSH2 0x1303 DUP2 PUSH2 0x12C7 JUMP JUMPDEST SWAP1 POP SWAP2 SWAP1 POP JUMP JUMPDEST PUSH1 0x0 PUSH2 0x1315 DUP3 PUSH2 0x916 JUMP JUMPDEST SWAP2 POP PUSH2 0x1320 DUP4 PUSH2 0x916 JUMP JUMPDEST SWAP3 POP DUP3 DUP3 SUB SWAP1 POP DUP2 DUP2 GT ISZERO PUSH2 0x1338 JUMPI PUSH2 0x1337 PUSH2 0x11F3 JUMP JUMPDEST JUMPDEST SWAP3 SWAP2 POP POP JUMP JUMPDEST PUSH32 0x4E487B7100000000000000000000000000000000000000000000000000000000 PUSH1 0x0 MSTORE PUSH1 0x32 PUSH1 0x4 MSTORE PUSH1 0x24 PUSH1 0x0 REVERT INVALID LOG2 PUSH5 0x6970667358 0x22 SLT KECCAK256 EXP 0xDF EXTCODESIZE 0xC3 0xB7 SWAP8 OR 0xE0 SWAP3 0x4E DUP12 0xE5 0xB0 ADD 0x2D 0x2F 0xDE 0xCA DUP2 PUSH9 0x2B6C37FB03224D4E62 0xD5 KECCAK256 EXP PUSH5 0x736F6C6343 STOP ADDMOD SLT STOP CALLER "
		},
		"gasEstimates": {
			"creation": {
				"codeDepositCost": "1005400",
				"executionCost": "1047",
				"totalCost": "1006447"
			},
			"external": {
				"StudentCount()": "2474",
				"Top3Achievers()": "infinite",
				"TopAchiever()": "infinite",
				"getCount(uint8)": "infinite",
				"register(string,uint256,uint256,uint8,uint256)": "infinite",
				"retrieve(uint256)": "infinite",
				"update(uint256,string,uint256,uint256,uint8,uint8,uint256)": "infinite"
			}
		},
		"methodIdentifiers": {
			"StudentCount()": "4973ccfb",
			"Top3Achievers()": "907084f0",
			"TopAchiever()": "06907e2e",
			"getCount(uint8)": "a819dfbb",
			"register(string,uint256,uint256,uint8,uint256)": "689f739a",
			"retrieve(uint256)": "8f88708b",
			"update(uint256,string,uint256,uint256,uint8,uint8,uint256)": "48e3eeda"
		}
	},
	"abi": [
		{
			"inputs": [],
			"name": "StudentCount",
			"outputs": [
				{
					"internalType": "uint256",
					"name": "",
					"type": "uint256"
				}
			],
			"stateMutability": "view",
			"type": "function"
		},
		{
			"inputs": [],
			"name": "Top3Achievers",
			"outputs": [],
			"stateMutability": "nonpayable",
			"type": "function"
		},
		{
			"inputs": [],
			"name": "TopAchiever",
			"outputs": [
				{
					"internalType": "uint256[3]",
					"name": "",
					"type": "uint256[3]"
				}
			],
			"stateMutability": "view",
			"type": "function"
		},
		{
			"inputs": [
				{
					"internalType": "enum StudentRegistrationSystem.Department",
					"name": "department",
					"type": "uint8"
				}
			],
			"name": "getCount",
			"outputs": [
				{
					"internalType": "uint256",
					"name": "",
					"type": "uint256"
				}
			],
			"stateMutability": "view",
			"type": "function"
		},
		{
			"inputs": [
				{
					"internalType": "string",
					"name": "name",
					"type": "string"
				},
				{
					"internalType": "uint256",
					"name": "age",
					"type": "uint256"
				},
				{
					"internalType": "uint256",
					"name": "date",
					"type": "uint256"
				},
				{
					"internalType": "enum StudentRegistrationSystem.Department",
					"name": "department",
					"type": "uint8"
				},
				{
					"internalType": "uint256",
					"name": "ObtainedMarks",
					"type": "uint256"
				}
			],
			"name": "register",
			"outputs": [
				{
					"internalType": "uint256",
					"name": "",
					"type": "uint256"
				}
			],
			"stateMutability": "nonpayable",
			"type": "function"
		},
		{
			"inputs": [
				{
					"internalType": "uint256",
					"name": "rollno",
					"type": "uint256"
				}
			],
			"name": "retrieve",
			"outputs": [
				{
					"internalType": "string",
					"name": "name",
					"type": "string"
				},
				{
					"internalType": "uint256",
					"name": "age",
					"type": "uint256"
				},
				{
					"internalType": "uint256",
					"name": "date",
					"type": "uint256"
				},
				{
					"internalType": "enum StudentRegistrationSystem.Department",
					"name": "department",
					"type": "uint8"
				},
				{
					"internalType": "enum StudentRegistrationSystem.Status",
					"name": "status",
					"type": "uint8"
				},
				{
					"internalType": "uint256",
					"name": "ObtainedMarks",
					"type": "uint256"
				}
			],
			"stateMutability": "view",
			"type": "function"
		},
		{
			"inputs": [
				{
					"internalType": "uint256",
					"name": "rollno",
					"type": "uint256"
				},
				{
					"internalType": "string",
					"name": "name",
					"type": "string"
				},
				{
					"internalType": "uint256",
					"name": "age",
					"type": "uint256"
				},
				{
					"internalType": "uint256",
					"name": "date",
					"type": "uint256"
				},
				{
					"internalType": "enum StudentRegistrationSystem.Department",
					"name": "department",
					"type": "uint8"
				},
				{
					"internalType": "enum StudentRegistrationSystem.Status",
					"name": "status",
					"type": "uint8"
				},
				{
					"internalType": "uint256",
					"name": "_ObtainedMarks",
					"type": "uint256"
				}
			],
			"name": "update",
			"outputs": [],
			"stateMutability": "nonpayable",
			"type": "function"
		}
	]
}