{
	"data": {
		"bytecode": {
			"linkReferences": {},
			"object": "608060405234801561001057600080fd5b50611493806100206000396000f3fe608060405234801561001057600080fd5b506004361061007d5760003560e01c8063689f739a1161005b578063689f739a146100de5780638f88708b1461010e578063907084f014610143578063a819dfbb1461014d5761007d565b806306907e2e1461008257806348e3eeda146100a45780634973ccfb146100c0575b600080fd5b61008a61017d565b60405161009b959493929190610ac8565b60405180910390f35b6100be60048036038101906100b99190610cee565b6101ac565b005b6100c86102c7565b6040516100d59190610dbb565b60405180910390f35b6100f860048036038101906100f39190610dd6565b6102cd565b6040516101059190610dbb565b60405180910390f35b61012860048036038101906101239190610e6d565b610400565b60405161013a96959493929190610f70565b60405180910390f35b61014b610598565b005b61016760048036038101906101629190610fd8565b61082c565b6040516101749190610dbb565b60405180910390f35b6101856108bc565b61018d6108bc565b6101956108bc565b61019d6108de565b6101a56108bc565b9091929394565b6000871180156101be57506001548711155b156102be576040518060c001604052808781526020018681526020018581526020018460038111156101f3576101f26109d5565b5b815260200183600381111561020b5761020a6109d5565b5b815260200182815250600080898152602001908152602001600020600082015181600001908161023b9190611211565b50602082015181600101556040820151816002015560608201518160030160006101000a81548160ff0219169083600381111561027b5761027a6109d5565b5b021790555060808201518160030160016101000a81548160ff021916908360038111156102ab576102aa6109d5565b5b021790555060a082015181600401559050505b50505050505050565b60015481565b600080600180546102de9190611312565b90506040518060c001604052808881526020018781526020018681526020018560038111156103105761030f6109d5565b5b815260200160006003811115610329576103286109d5565b5b81526020018481525060008083815260200190815260200160002060008201518160000190816103599190611211565b50602082015181600101556040820151816002015560608201518160030160006101000a81548160ff02191690836003811115610399576103986109d5565b5b021790555060808201518160030160016101000a81548160ff021916908360038111156103c9576103c86109d5565b5b021790555060a08201518160040155905050600160008154809291906103ee90611346565b91905055508091505095945050505050565b60606000806000806000808711801561041b57506001548711155b61045a576040517f08c379a0000000000000000000000000000000000000000000000000000000008152600401610451906113da565b60405180910390fd5b600080888152602001908152602001600020600001600080898152602001908152602001600020600101546000808a8152602001908152602001600020600201546000808b815260200190815260200160002060030160009054906101000a900460ff166000808c815260200190815260200160002060030160019054906101000a900460ff166000808d81526020019081526020016000206004015485805461050390611034565b80601f016020809104026020016040519081016040528092919081815260200182805461052f90611034565b801561057c5780601f106105515761010080835404028352916020019161057c565b820191906000526020600020905b81548152906001019060200180831161055f57829003601f168201915b5050505050955095509550955095509550955091939550919395565b600060015467ffffffffffffffff8111156105b6576105b5610b79565b5b6040519080825280602002602001820160405280156105e45781602001602082028036833780820191505090505b5090506000600190505b600154811161063657808260018361060691906113fa565b815181106106175761061661142e565b5b602002602001018181525050808061062e90611346565b9150506105ee565b5060005b81518110156107875760005b6001835161065491906113fa565b811015610773576000808460018461066c9190611312565b8151811061067d5761067c61142e565b5b60200260200101518152602001908152602001600020600401546000808584815181106106ad576106ac61142e565b5b60200260200101518152602001908152602001600020600401541015610760576000836001836106dd9190611312565b815181106106ee576106ed61142e565b5b6020026020010151905083828151811061070b5761070a61142e565b5b6020026020010151846001846107219190611312565b815181106107325761073161142e565b5b602002602001018181525050808483815181106107525761075161142e565b5b602002602001018181525050505b808061076b90611346565b915050610646565b50808061077f90611346565b91505061063a565b508060008151811061079c5761079b61142e565b5b602002602001015160026000600381106107b9576107b861142e565b5b0181905550806001815181106107d2576107d161142e565b5b602002602001015160026001600381106107ef576107ee61142e565b5b0181905550806002815181106108085761080761142e565b5b6020026020010151600280600381106108245761082361142e565b5b018190555050565b600080600090506000600190505b60015481116108b257836003811115610856576108556109d5565b5b60008083815260200190815260200160002060030160009054906101000a900460ff16600381111561088b5761088a6109d5565b5b0361089f57818061089b90611346565b9250505b80806108aa90611346565b91505061083a565b5080915050919050565b6040518060600160405280600390602082028036833780820191505090505090565b6040518060600160405280600390602082028036833780820191505090505090565b600060039050919050565b600081905092915050565b6000819050919050565b6000819050919050565b61093381610920565b82525050565b6000610945838361092a565b60208301905092915050565b6000602082019050919050565b61096781610900565b610971818461090b565b925061097c82610916565b8060005b838110156109ad5781516109948782610939565b965061099f83610951565b925050600181019050610980565b505050505050565b600060039050919050565b600081905092915050565b6000819050919050565b7f4e487b7100000000000000000000000000000000000000000000000000000000600052602160045260246000fd5b60048110610a1557610a146109d5565b5b50565b6000819050610a2682610a04565b919050565b6000610a3682610a18565b9050919050565b610a4681610a2b565b82525050565b6000610a588383610a3d565b60208301905092915050565b6000602082019050919050565b610a7a816109b5565b610a8481846109c0565b9250610a8f826109cb565b8060005b83811015610ac0578151610aa78782610a4c565b9650610ab283610a64565b925050600181019050610a93565b505050505050565b60006101e082019050610ade600083018861095e565b610aeb606083018761095e565b610af860c083018661095e565b610b06610120830185610a71565b610b1461018083018461095e565b9695505050505050565b6000604051905090565b600080fd5b600080fd5b610b3b81610920565b8114610b4657600080fd5b50565b600081359050610b5881610b32565b92915050565b600080fd5b600080fd5b6000601f19601f8301169050919050565b7f4e487b7100000000000000000000000000000000000000000000000000000000600052604160045260246000fd5b610bb182610b68565b810181811067ffffffffffffffff82111715610bd057610bcf610b79565b5b80604052505050565b6000610be3610b1e565b9050610bef8282610ba8565b919050565b600067ffffffffffffffff821115610c0f57610c0e610b79565b5b610c1882610b68565b9050602081019050919050565b82818337600083830152505050565b6000610c47610c4284610bf4565b610bd9565b905082815260208101848484011115610c6357610c62610b63565b5b610c6e848285610c25565b509392505050565b600082601f830112610c8b57610c8a610b5e565b5b8135610c9b848260208601610c34565b91505092915050565b60048110610cb157600080fd5b50565b600081359050610cc381610ca4565b92915050565b60048110610cd657600080fd5b50565b600081359050610ce881610cc9565b92915050565b600080600080600080600060e0888a031215610d0d57610d0c610b28565b5b6000610d1b8a828b01610b49565b975050602088013567ffffffffffffffff811115610d3c57610d3b610b2d565b5b610d488a828b01610c76565b9650506040610d598a828b01610b49565b9550506060610d6a8a828b01610b49565b9450506080610d7b8a828b01610cb4565b93505060a0610d8c8a828b01610cd9565b92505060c0610d9d8a828b01610b49565b91505092959891949750929550565b610db581610920565b82525050565b6000602082019050610dd06000830184610dac565b92915050565b600080600080600060a08688031215610df257610df1610b28565b5b600086013567ffffffffffffffff811115610e1057610e0f610b2d565b5b610e1c88828901610c76565b9550506020610e2d88828901610b49565b9450506040610e3e88828901610b49565b9350506060610e4f88828901610cb4565b9250506080610e6088828901610b49565b9150509295509295909350565b600060208284031215610e8357610e82610b28565b5b6000610e9184828501610b49565b91505092915050565b600081519050919050565b600082825260208201905092915050565b60005b83811015610ed4578082015181840152602081019050610eb9565b60008484015250505050565b6000610eeb82610e9a565b610ef58185610ea5565b9350610f05818560208601610eb6565b610f0e81610b68565b840191505092915050565b60048110610f2a57610f296109d5565b5b50565b6000819050610f3b82610f19565b919050565b6000610f4b82610f2d565b9050919050565b610f5b81610f40565b82525050565b610f6a81610a2b565b82525050565b600060c0820190508181036000830152610f8a8189610ee0565b9050610f996020830188610dac565b610fa66040830187610dac565b610fb36060830186610f52565b610fc06080830185610f61565b610fcd60a0830184610dac565b979650505050505050565b600060208284031215610fee57610fed610b28565b5b6000610ffc84828501610cb4565b91505092915050565b7f4e487b7100000000000000000000000000000000000000000000000000000000600052602260045260246000fd5b6000600282049050600182168061104c57607f821691505b60208210810361105f5761105e611005565b5b50919050565b60008190508160005260206000209050919050565b60006020601f8301049050919050565b600082821b905092915050565b6000600883026110c77fffffffffffffffffffffffffffffffffffffffffffffffffffffffffffffffff8261108a565b6110d1868361108a565b95508019841693508086168417925050509392505050565b6000819050919050565b600061110e61110961110484610920565b6110e9565b610920565b9050919050565b6000819050919050565b611128836110f3565b61113c61113482611115565b848454611097565b825550505050565b600090565b611151611144565b61115c81848461111f565b505050565b5b8181101561118057611175600082611149565b600181019050611162565b5050565b601f8211156111c55761119681611065565b61119f8461107a565b810160208510156111ae578190505b6111c26111ba8561107a565b830182611161565b50505b505050565b600082821c905092915050565b60006111e8600019846008026111ca565b1980831691505092915050565b600061120183836111d7565b9150826002028217905092915050565b61121a82610e9a565b67ffffffffffffffff81111561123357611232610b79565b5b61123d8254611034565b611248828285611184565b600060209050601f83116001811461127b5760008415611269578287015190505b61127385826111f5565b8655506112db565b601f19841661128986611065565b60005b828110156112b15784890151825560018201915060208501945060208101905061128c565b868310156112ce57848901516112ca601f8916826111d7565b8355505b6001600288020188555050505b505050505050565b7f4e487b7100000000000000000000000000000000000000000000000000000000600052601160045260246000fd5b600061131d82610920565b915061132883610920565b92508282019050808211156113405761133f6112e3565b5b92915050565b600061135182610920565b91507fffffffffffffffffffffffffffffffffffffffffffffffffffffffffffffffff8203611383576113826112e3565b5b600182019050919050565b7f496e76616c696420726f6c6c206e756d62657200000000000000000000000000600082015250565b60006113c4601383610ea5565b91506113cf8261138e565b602082019050919050565b600060208201905081810360008301526113f3816113b7565b9050919050565b600061140582610920565b915061141083610920565b9250828203905081811115611428576114276112e3565b5b92915050565b7f4e487b7100000000000000000000000000000000000000000000000000000000600052603260045260246000fdfea2646970667358221220cc5e405bd04511f85a2b0065650d20b49e9e5cbfb86064c47d40b4e9281ebd1764736f6c63430008120033",
			"opcodes": "PUSH1 0x80 PUSH1 0x40 MSTORE CALLVALUE DUP1 ISZERO PUSH2 0x10 JUMPI PUSH1 0x0 DUP1 REVERT JUMPDEST POP PUSH2 0x1493 DUP1 PUSH2 0x20 PUSH1 0x0 CODECOPY PUSH1 0x0 RETURN INVALID PUSH1 0x80 PUSH1 0x40 MSTORE CALLVALUE DUP1 ISZERO PUSH2 0x10 JUMPI PUSH1 0x0 DUP1 REVERT JUMPDEST POP PUSH1 0x4 CALLDATASIZE LT PUSH2 0x7D JUMPI PUSH1 0x0 CALLDATALOAD PUSH1 0xE0 SHR DUP1 PUSH4 0x689F739A GT PUSH2 0x5B JUMPI DUP1 PUSH4 0x689F739A EQ PUSH2 0xDE JUMPI DUP1 PUSH4 0x8F88708B EQ PUSH2 0x10E JUMPI DUP1 PUSH4 0x907084F0 EQ PUSH2 0x143 JUMPI DUP1 PUSH4 0xA819DFBB EQ PUSH2 0x14D JUMPI PUSH2 0x7D JUMP JUMPDEST DUP1 PUSH4 0x6907E2E EQ PUSH2 0x82 JUMPI DUP1 PUSH4 0x48E3EEDA EQ PUSH2 0xA4 JUMPI DUP1 PUSH4 0x4973CCFB EQ PUSH2 0xC0 JUMPI JUMPDEST PUSH1 0x0 DUP1 REVERT JUMPDEST PUSH2 0x8A PUSH2 0x17D JUMP JUMPDEST PUSH1 0x40 MLOAD PUSH2 0x9B SWAP6 SWAP5 SWAP4 SWAP3 SWAP2 SWAP1 PUSH2 0xAC8 JUMP JUMPDEST PUSH1 0x40 MLOAD DUP1 SWAP2 SUB SWAP1 RETURN JUMPDEST PUSH2 0xBE PUSH1 0x4 DUP1 CALLDATASIZE SUB DUP2 ADD SWAP1 PUSH2 0xB9 SWAP2 SWAP1 PUSH2 0xCEE JUMP JUMPDEST PUSH2 0x1AC JUMP JUMPDEST STOP JUMPDEST PUSH2 0xC8 PUSH2 0x2C7 JUMP JUMPDEST PUSH1 0x40 MLOAD PUSH2 0xD5 SWAP2 SWAP1 PUSH2 0xDBB JUMP JUMPDEST PUSH1 0x40 MLOAD DUP1 SWAP2 SUB SWAP1 RETURN JUMPDEST PUSH2 0xF8 PUSH1 0x4 DUP1 CALLDATASIZE SUB DUP2 ADD SWAP1 PUSH2 0xF3 SWAP2 SWAP1 PUSH2 0xDD6 JUMP JUMPDEST PUSH2 0x2CD JUMP JUMPDEST PUSH1 0x40 MLOAD PUSH2 0x105 SWAP2 SWAP1 PUSH2 0xDBB JUMP JUMPDEST PUSH1 0x40 MLOAD DUP1 SWAP2 SUB SWAP1 RETURN JUMPDEST PUSH2 0x128 PUSH1 0x4 DUP1 CALLDATASIZE SUB DUP2 ADD SWAP1 PUSH2 0x123 SWAP2 SWAP1 PUSH2 0xE6D JUMP JUMPDEST PUSH2 0x400 JUMP JUMPDEST PUSH1 0x40 MLOAD PUSH2 0x13A SWAP7 SWAP6 SWAP5 SWAP4 SWAP3 SWAP2 SWAP1 PUSH2 0xF70 JUMP JUMPDEST PUSH1 0x40 MLOAD DUP1 SWAP2 SUB SWAP1 RETURN JUMPDEST PUSH2 0x14B PUSH2 0x598 JUMP JUMPDEST STOP JUMPDEST PUSH2 0x167 PUSH1 0x4 DUP1 CALLDATASIZE SUB DUP2 ADD SWAP1 PUSH2 0x162 SWAP2 SWAP1 PUSH2 0xFD8 JUMP JUMPDEST PUSH2 0x82C JUMP JUMPDEST PUSH1 0x40 MLOAD PUSH2 0x174 SWAP2 SWAP1 PUSH2 0xDBB JUMP JUMPDEST PUSH1 0x40 MLOAD DUP1 SWAP2 SUB SWAP1 RETURN JUMPDEST PUSH2 0x185 PUSH2 0x8BC JUMP JUMPDEST PUSH2 0x18D PUSH2 0x8BC JUMP JUMPDEST PUSH2 0x195 PUSH2 0x8BC JUMP JUMPDEST PUSH2 0x19D PUSH2 0x8DE JUMP JUMPDEST PUSH2 0x1A5 PUSH2 0x8BC JUMP JUMPDEST SWAP1 SWAP2 SWAP3 SWAP4 SWAP5 JUMP JUMPDEST PUSH1 0x0 DUP8 GT DUP1 ISZERO PUSH2 0x1BE JUMPI POP PUSH1 0x1 SLOAD DUP8 GT ISZERO JUMPDEST ISZERO PUSH2 0x2BE JUMPI PUSH1 0x40 MLOAD DUP1 PUSH1 0xC0 ADD PUSH1 0x40 MSTORE DUP1 DUP8 DUP2 MSTORE PUSH1 0x20 ADD DUP7 DUP2 MSTORE PUSH1 0x20 ADD DUP6 DUP2 MSTORE PUSH1 0x20 ADD DUP5 PUSH1 0x3 DUP2 GT ISZERO PUSH2 0x1F3 JUMPI PUSH2 0x1F2 PUSH2 0x9D5 JUMP JUMPDEST JUMPDEST DUP2 MSTORE PUSH1 0x20 ADD DUP4 PUSH1 0x3 DUP2 GT ISZERO PUSH2 0x20B JUMPI PUSH2 0x20A PUSH2 0x9D5 JUMP JUMPDEST JUMPDEST DUP2 MSTORE PUSH1 0x20 ADD DUP3 DUP2 MSTORE POP PUSH1 0x0 DUP1 DUP10 DUP2 MSTORE PUSH1 0x20 ADD SWAP1 DUP2 MSTORE PUSH1 0x20 ADD PUSH1 0x0 KECCAK256 PUSH1 0x0 DUP3 ADD MLOAD DUP2 PUSH1 0x0 ADD SWAP1 DUP2 PUSH2 0x23B SWAP2 SWAP1 PUSH2 0x1211 JUMP JUMPDEST POP PUSH1 0x20 DUP3 ADD MLOAD DUP2 PUSH1 0x1 ADD SSTORE PUSH1 0x40 DUP3 ADD MLOAD DUP2 PUSH1 0x2 ADD SSTORE PUSH1 0x60 DUP3 ADD MLOAD DUP2 PUSH1 0x3 ADD PUSH1 0x0 PUSH2 0x100 EXP DUP2 SLOAD DUP2 PUSH1 0xFF MUL NOT AND SWAP1 DUP4 PUSH1 0x3 DUP2 GT ISZERO PUSH2 0x27B JUMPI PUSH2 0x27A PUSH2 0x9D5 JUMP JUMPDEST JUMPDEST MUL OR SWAP1 SSTORE POP PUSH1 0x80 DUP3 ADD MLOAD DUP2 PUSH1 0x3 ADD PUSH1 0x1 PUSH2 0x100 EXP DUP2 SLOAD DUP2 PUSH1 0xFF MUL NOT AND SWAP1 DUP4 PUSH1 0x3 DUP2 GT ISZERO PUSH2 0x2AB JUMPI PUSH2 0x2AA PUSH2 0x9D5 JUMP JUMPDEST JUMPDEST MUL OR SWAP1 SSTORE POP PUSH1 0xA0 DUP3 ADD MLOAD DUP2 PUSH1 0x4 ADD SSTORE SWAP1 POP POP JUMPDEST POP POP POP POP POP POP POP JUMP JUMPDEST PUSH1 0x1 SLOAD DUP2 JUMP JUMPDEST PUSH1 0x0 DUP1 PUSH1 0x1 DUP1 SLOAD PUSH2 0x2DE SWAP2 SWAP1 PUSH2 0x1312 JUMP JUMPDEST SWAP1 POP PUSH1 0x40 MLOAD DUP1 PUSH1 0xC0 ADD PUSH1 0x40 MSTORE DUP1 DUP9 DUP2 MSTORE PUSH1 0x20 ADD DUP8 DUP2 MSTORE PUSH1 0x20 ADD DUP7 DUP2 MSTORE PUSH1 0x20 ADD DUP6 PUSH1 0x3 DUP2 GT ISZERO PUSH2 0x310 JUMPI PUSH2 0x30F PUSH2 0x9D5 JUMP JUMPDEST JUMPDEST DUP2 MSTORE PUSH1 0x20 ADD PUSH1 0x0 PUSH1 0x3 DUP2 GT ISZERO PUSH2 0x329 JUMPI PUSH2 0x328 PUSH2 0x9D5 JUMP JUMPDEST JUMPDEST DUP2 MSTORE PUSH1 0x20 ADD DUP5 DUP2 MSTORE POP PUSH1 0x0 DUP1 DUP4 DUP2 MSTORE PUSH1 0x20 ADD SWAP1 DUP2 MSTORE PUSH1 0x20 ADD PUSH1 0x0 KECCAK256 PUSH1 0x0 DUP3 ADD MLOAD DUP2 PUSH1 0x0 ADD SWAP1 DUP2 PUSH2 0x359 SWAP2 SWAP1 PUSH2 0x1211 JUMP JUMPDEST POP PUSH1 0x20 DUP3 ADD MLOAD DUP2 PUSH1 0x1 ADD SSTORE PUSH1 0x40 DUP3 ADD MLOAD DUP2 PUSH1 0x2 ADD SSTORE PUSH1 0x60 DUP3 ADD MLOAD DUP2 PUSH1 0x3 ADD PUSH1 0x0 PUSH2 0x100 EXP DUP2 SLOAD DUP2 PUSH1 0xFF MUL NOT AND SWAP1 DUP4 PUSH1 0x3 DUP2 GT ISZERO PUSH2 0x399 JUMPI PUSH2 0x398 PUSH2 0x9D5 JUMP JUMPDEST JUMPDEST MUL OR SWAP1 SSTORE POP PUSH1 0x80 DUP3 ADD MLOAD DUP2 PUSH1 0x3 ADD PUSH1 0x1 PUSH2 0x100 EXP DUP2 SLOAD DUP2 PUSH1 0xFF MUL NOT AND SWAP1 DUP4 PUSH1 0x3 DUP2 GT ISZERO PUSH2 0x3C9 JUMPI PUSH2 0x3C8 PUSH2 0x9D5 JUMP JUMPDEST JUMPDEST MUL OR SWAP1 SSTORE POP PUSH1 0xA0 DUP3 ADD MLOAD DUP2 PUSH1 0x4 ADD SSTORE SWAP1 POP POP PUSH1 0x1 PUSH1 0x0 DUP2 SLOAD DUP1 SWAP3 SWAP2 SWAP1 PUSH2 0x3EE SWAP1 PUSH2 0x1346 JUMP JUMPDEST SWAP2 SWAP1 POP SSTORE POP DUP1 SWAP2 POP POP SWAP6 SWAP5 POP POP POP POP POP JUMP JUMPDEST PUSH1 0x60 PUSH1 0x0 DUP1 PUSH1 0x0 DUP1 PUSH1 0x0 DUP1 DUP8 GT DUP1 ISZERO PUSH2 0x41B JUMPI POP PUSH1 0x1 SLOAD DUP8 GT ISZERO JUMPDEST PUSH2 0x45A JUMPI PUSH1 0x40 MLOAD PUSH32 0x8C379A000000000000000000000000000000000000000000000000000000000 DUP2 MSTORE PUSH1 0x4 ADD PUSH2 0x451 SWAP1 PUSH2 0x13DA JUMP JUMPDEST PUSH1 0x40 MLOAD DUP1 SWAP2 SUB SWAP1 REVERT JUMPDEST PUSH1 0x0 DUP1 DUP9 DUP2 MSTORE PUSH1 0x20 ADD SWAP1 DUP2 MSTORE PUSH1 0x20 ADD PUSH1 0x0 KECCAK256 PUSH1 0x0 ADD PUSH1 0x0 DUP1 DUP10 DUP2 MSTORE PUSH1 0x20 ADD SWAP1 DUP2 MSTORE PUSH1 0x20 ADD PUSH1 0x0 KECCAK256 PUSH1 0x1 ADD SLOAD PUSH1 0x0 DUP1 DUP11 DUP2 MSTORE PUSH1 0x20 ADD SWAP1 DUP2 MSTORE PUSH1 0x20 ADD PUSH1 0x0 KECCAK256 PUSH1 0x2 ADD SLOAD PUSH1 0x0 DUP1 DUP12 DUP2 MSTORE PUSH1 0x20 ADD SWAP1 DUP2 MSTORE PUSH1 0x20 ADD PUSH1 0x0 KECCAK256 PUSH1 0x3 ADD PUSH1 0x0 SWAP1 SLOAD SWAP1 PUSH2 0x100 EXP SWAP1 DIV PUSH1 0xFF AND PUSH1 0x0 DUP1 DUP13 DUP2 MSTORE PUSH1 0x20 ADD SWAP1 DUP2 MSTORE PUSH1 0x20 ADD PUSH1 0x0 KECCAK256 PUSH1 0x3 ADD PUSH1 0x1 SWAP1 SLOAD SWAP1 PUSH2 0x100 EXP SWAP1 DIV PUSH1 0xFF AND PUSH1 0x0 DUP1 DUP14 DUP2 MSTORE PUSH1 0x20 ADD SWAP1 DUP2 MSTORE PUSH1 0x20 ADD PUSH1 0x0 KECCAK256 PUSH1 0x4 ADD SLOAD DUP6 DUP1 SLOAD PUSH2 0x503 SWAP1 PUSH2 0x1034 JUMP JUMPDEST DUP1 PUSH1 0x1F ADD PUSH1 0x20 DUP1 SWAP2 DIV MUL PUSH1 0x20 ADD PUSH1 0x40 MLOAD SWAP1 DUP2 ADD PUSH1 0x40 MSTORE DUP1 SWAP3 SWAP2 SWAP1 DUP2 DUP2 MSTORE PUSH1 0x20 ADD DUP3 DUP1 SLOAD PUSH2 0x52F SWAP1 PUSH2 0x1034 JUMP JUMPDEST DUP1 ISZERO PUSH2 0x57C JUMPI DUP1 PUSH1 0x1F LT PUSH2 0x551 JUMPI PUSH2 0x100 DUP1 DUP4 SLOAD DIV MUL DUP4 MSTORE SWAP2 PUSH1 0x20 ADD SWAP2 PUSH2 0x57C JUMP JUMPDEST DUP3 ADD SWAP2 SWAP1 PUSH1 0x0 MSTORE PUSH1 0x20 PUSH1 0x0 KECCAK256 SWAP1 JUMPDEST DUP2 SLOAD DUP2 MSTORE SWAP1 PUSH1 0x1 ADD SWAP1 PUSH1 0x20 ADD DUP1 DUP4 GT PUSH2 0x55F JUMPI DUP3 SWAP1 SUB PUSH1 0x1F AND DUP3 ADD SWAP2 JUMPDEST POP POP POP POP POP SWAP6 POP SWAP6 POP SWAP6 POP SWAP6 POP SWAP6 POP SWAP6 POP SWAP6 POP SWAP2 SWAP4 SWAP6 POP SWAP2 SWAP4 SWAP6 JUMP JUMPDEST PUSH1 0x0 PUSH1 0x1 SLOAD PUSH8 0xFFFFFFFFFFFFFFFF DUP2 GT ISZERO PUSH2 0x5B6 JUMPI PUSH2 0x5B5 PUSH2 0xB79 JUMP JUMPDEST JUMPDEST PUSH1 0x40 MLOAD SWAP1 DUP1 DUP3 MSTORE DUP1 PUSH1 0x20 MUL PUSH1 0x20 ADD DUP3 ADD PUSH1 0x40 MSTORE DUP1 ISZERO PUSH2 0x5E4 JUMPI DUP2 PUSH1 0x20 ADD PUSH1 0x20 DUP3 MUL DUP1 CALLDATASIZE DUP4 CALLDATACOPY DUP1 DUP3 ADD SWAP2 POP POP SWAP1 POP JUMPDEST POP SWAP1 POP PUSH1 0x0 PUSH1 0x1 SWAP1 POP JUMPDEST PUSH1 0x1 SLOAD DUP2 GT PUSH2 0x636 JUMPI DUP1 DUP3 PUSH1 0x1 DUP4 PUSH2 0x606 SWAP2 SWAP1 PUSH2 0x13FA JUMP JUMPDEST DUP2 MLOAD DUP2 LT PUSH2 0x617 JUMPI PUSH2 0x616 PUSH2 0x142E JUMP JUMPDEST JUMPDEST PUSH1 0x20 MUL PUSH1 0x20 ADD ADD DUP2 DUP2 MSTORE POP POP DUP1 DUP1 PUSH2 0x62E SWAP1 PUSH2 0x1346 JUMP JUMPDEST SWAP2 POP POP PUSH2 0x5EE JUMP JUMPDEST POP PUSH1 0x0 JUMPDEST DUP2 MLOAD DUP2 LT ISZERO PUSH2 0x787 JUMPI PUSH1 0x0 JUMPDEST PUSH1 0x1 DUP4 MLOAD PUSH2 0x654 SWAP2 SWAP1 PUSH2 0x13FA JUMP JUMPDEST DUP2 LT ISZERO PUSH2 0x773 JUMPI PUSH1 0x0 DUP1 DUP5 PUSH1 0x1 DUP5 PUSH2 0x66C SWAP2 SWAP1 PUSH2 0x1312 JUMP JUMPDEST DUP2 MLOAD DUP2 LT PUSH2 0x67D JUMPI PUSH2 0x67C PUSH2 0x142E JUMP JUMPDEST JUMPDEST PUSH1 0x20 MUL PUSH1 0x20 ADD ADD MLOAD DUP2 MSTORE PUSH1 0x20 ADD SWAP1 DUP2 MSTORE PUSH1 0x20 ADD PUSH1 0x0 KECCAK256 PUSH1 0x4 ADD SLOAD PUSH1 0x0 DUP1 DUP6 DUP5 DUP2 MLOAD DUP2 LT PUSH2 0x6AD JUMPI PUSH2 0x6AC PUSH2 0x142E JUMP JUMPDEST JUMPDEST PUSH1 0x20 MUL PUSH1 0x20 ADD ADD MLOAD DUP2 MSTORE PUSH1 0x20 ADD SWAP1 DUP2 MSTORE PUSH1 0x20 ADD PUSH1 0x0 KECCAK256 PUSH1 0x4 ADD SLOAD LT ISZERO PUSH2 0x760 JUMPI PUSH1 0x0 DUP4 PUSH1 0x1 DUP4 PUSH2 0x6DD SWAP2 SWAP1 PUSH2 0x1312 JUMP JUMPDEST DUP2 MLOAD DUP2 LT PUSH2 0x6EE JUMPI PUSH2 0x6ED PUSH2 0x142E JUMP JUMPDEST JUMPDEST PUSH1 0x20 MUL PUSH1 0x20 ADD ADD MLOAD SWAP1 POP DUP4 DUP3 DUP2 MLOAD DUP2 LT PUSH2 0x70B JUMPI PUSH2 0x70A PUSH2 0x142E JUMP JUMPDEST JUMPDEST PUSH1 0x20 MUL PUSH1 0x20 ADD ADD MLOAD DUP5 PUSH1 0x1 DUP5 PUSH2 0x721 SWAP2 SWAP1 PUSH2 0x1312 JUMP JUMPDEST DUP2 MLOAD DUP2 LT PUSH2 0x732 JUMPI PUSH2 0x731 PUSH2 0x142E JUMP JUMPDEST JUMPDEST PUSH1 0x20 MUL PUSH1 0x20 ADD ADD DUP2 DUP2 MSTORE POP POP DUP1 DUP5 DUP4 DUP2 MLOAD DUP2 LT PUSH2 0x752 JUMPI PUSH2 0x751 PUSH2 0x142E JUMP JUMPDEST JUMPDEST PUSH1 0x20 MUL PUSH1 0x20 ADD ADD DUP2 DUP2 MSTORE POP POP POP JUMPDEST DUP1 DUP1 PUSH2 0x76B SWAP1 PUSH2 0x1346 JUMP JUMPDEST SWAP2 POP POP PUSH2 0x646 JUMP JUMPDEST POP DUP1 DUP1 PUSH2 0x77F SWAP1 PUSH2 0x1346 JUMP JUMPDEST SWAP2 POP POP PUSH2 0x63A JUMP JUMPDEST POP DUP1 PUSH1 0x0 DUP2 MLOAD DUP2 LT PUSH2 0x79C JUMPI PUSH2 0x79B PUSH2 0x142E JUMP JUMPDEST JUMPDEST PUSH1 0x20 MUL PUSH1 0x20 ADD ADD MLOAD PUSH1 0x2 PUSH1 0x0 PUSH1 0x3 DUP2 LT PUSH2 0x7B9 JUMPI PUSH2 0x7B8 PUSH2 0x142E JUMP JUMPDEST JUMPDEST ADD DUP2 SWAP1 SSTORE POP DUP1 PUSH1 0x1 DUP2 MLOAD DUP2 LT PUSH2 0x7D2 JUMPI PUSH2 0x7D1 PUSH2 0x142E JUMP JUMPDEST JUMPDEST PUSH1 0x20 MUL PUSH1 0x20 ADD ADD MLOAD PUSH1 0x2 PUSH1 0x1 PUSH1 0x3 DUP2 LT PUSH2 0x7EF JUMPI PUSH2 0x7EE PUSH2 0x142E JUMP JUMPDEST JUMPDEST ADD DUP2 SWAP1 SSTORE POP DUP1 PUSH1 0x2 DUP2 MLOAD DUP2 LT PUSH2 0x808 JUMPI PUSH2 0x807 PUSH2 0x142E JUMP JUMPDEST JUMPDEST PUSH1 0x20 MUL PUSH1 0x20 ADD ADD MLOAD PUSH1 0x2 DUP1 PUSH1 0x3 DUP2 LT PUSH2 0x824 JUMPI PUSH2 0x823 PUSH2 0x142E JUMP JUMPDEST JUMPDEST ADD DUP2 SWAP1 SSTORE POP POP JUMP JUMPDEST PUSH1 0x0 DUP1 PUSH1 0x0 SWAP1 POP PUSH1 0x0 PUSH1 0x1 SWAP1 POP JUMPDEST PUSH1 0x1 SLOAD DUP2 GT PUSH2 0x8B2 JUMPI DUP4 PUSH1 0x3 DUP2 GT ISZERO PUSH2 0x856 JUMPI PUSH2 0x855 PUSH2 0x9D5 JUMP JUMPDEST JUMPDEST PUSH1 0x0 DUP1 DUP4 DUP2 MSTORE PUSH1 0x20 ADD SWAP1 DUP2 MSTORE PUSH1 0x20 ADD PUSH1 0x0 KECCAK256 PUSH1 0x3 ADD PUSH1 0x0 SWAP1 SLOAD SWAP1 PUSH2 0x100 EXP SWAP1 DIV PUSH1 0xFF AND PUSH1 0x3 DUP2 GT ISZERO PUSH2 0x88B JUMPI PUSH2 0x88A PUSH2 0x9D5 JUMP JUMPDEST JUMPDEST SUB PUSH2 0x89F JUMPI DUP2 DUP1 PUSH2 0x89B SWAP1 PUSH2 0x1346 JUMP JUMPDEST SWAP3 POP POP JUMPDEST DUP1 DUP1 PUSH2 0x8AA SWAP1 PUSH2 0x1346 JUMP JUMPDEST SWAP2 POP POP PUSH2 0x83A JUMP JUMPDEST POP DUP1 SWAP2 POP POP SWAP2 SWAP1 POP JUMP JUMPDEST PUSH1 0x40 MLOAD DUP1 PUSH1 0x60 ADD PUSH1 0x40 MSTORE DUP1 PUSH1 0x3 SWAP1 PUSH1 0x20 DUP3 MUL DUP1 CALLDATASIZE DUP4 CALLDATACOPY DUP1 DUP3 ADD SWAP2 POP POP SWAP1 POP POP SWAP1 JUMP JUMPDEST PUSH1 0x40 MLOAD DUP1 PUSH1 0x60 ADD PUSH1 0x40 MSTORE DUP1 PUSH1 0x3 SWAP1 PUSH1 0x20 DUP3 MUL DUP1 CALLDATASIZE DUP4 CALLDATACOPY DUP1 DUP3 ADD SWAP2 POP POP SWAP1 POP POP SWAP1 JUMP JUMPDEST PUSH1 0x0 PUSH1 0x3 SWAP1 POP SWAP2 SWAP1 POP JUMP JUMPDEST PUSH1 0x0 DUP2 SWAP1 POP SWAP3 SWAP2 POP POP JUMP JUMPDEST PUSH1 0x0 DUP2 SWAP1 POP SWAP2 SWAP1 POP JUMP JUMPDEST PUSH1 0x0 DUP2 SWAP1 POP SWAP2 SWAP1 POP JUMP JUMPDEST PUSH2 0x933 DUP2 PUSH2 0x920 JUMP JUMPDEST DUP3 MSTORE POP POP JUMP JUMPDEST PUSH1 0x0 PUSH2 0x945 DUP4 DUP4 PUSH2 0x92A JUMP JUMPDEST PUSH1 0x20 DUP4 ADD SWAP1 POP SWAP3 SWAP2 POP POP JUMP JUMPDEST PUSH1 0x0 PUSH1 0x20 DUP3 ADD SWAP1 POP SWAP2 SWAP1 POP JUMP JUMPDEST PUSH2 0x967 DUP2 PUSH2 0x900 JUMP JUMPDEST PUSH2 0x971 DUP2 DUP5 PUSH2 0x90B JUMP JUMPDEST SWAP3 POP PUSH2 0x97C DUP3 PUSH2 0x916 JUMP JUMPDEST DUP1 PUSH1 0x0 JUMPDEST DUP4 DUP2 LT ISZERO PUSH2 0x9AD JUMPI DUP2 MLOAD PUSH2 0x994 DUP8 DUP3 PUSH2 0x939 JUMP JUMPDEST SWAP7 POP PUSH2 0x99F DUP4 PUSH2 0x951 JUMP JUMPDEST SWAP3 POP POP PUSH1 0x1 DUP2 ADD SWAP1 POP PUSH2 0x980 JUMP JUMPDEST POP POP POP POP POP POP JUMP JUMPDEST PUSH1 0x0 PUSH1 0x3 SWAP1 POP SWAP2 SWAP1 POP JUMP JUMPDEST PUSH1 0x0 DUP2 SWAP1 POP SWAP3 SWAP2 POP POP JUMP JUMPDEST PUSH1 0x0 DUP2 SWAP1 POP SWAP2 SWAP1 POP JUMP JUMPDEST PUSH32 0x4E487B7100000000000000000000000000000000000000000000000000000000 PUSH1 0x0 MSTORE PUSH1 0x21 PUSH1 0x4 MSTORE PUSH1 0x24 PUSH1 0x0 REVERT JUMPDEST PUSH1 0x4 DUP2 LT PUSH2 0xA15 JUMPI PUSH2 0xA14 PUSH2 0x9D5 JUMP JUMPDEST JUMPDEST POP JUMP JUMPDEST PUSH1 0x0 DUP2 SWAP1 POP PUSH2 0xA26 DUP3 PUSH2 0xA04 JUMP JUMPDEST SWAP2 SWAP1 POP JUMP JUMPDEST PUSH1 0x0 PUSH2 0xA36 DUP3 PUSH2 0xA18 JUMP JUMPDEST SWAP1 POP SWAP2 SWAP1 POP JUMP JUMPDEST PUSH2 0xA46 DUP2 PUSH2 0xA2B JUMP JUMPDEST DUP3 MSTORE POP POP JUMP JUMPDEST PUSH1 0x0 PUSH2 0xA58 DUP4 DUP4 PUSH2 0xA3D JUMP JUMPDEST PUSH1 0x20 DUP4 ADD SWAP1 POP SWAP3 SWAP2 POP POP JUMP JUMPDEST PUSH1 0x0 PUSH1 0x20 DUP3 ADD SWAP1 POP SWAP2 SWAP1 POP JUMP JUMPDEST PUSH2 0xA7A DUP2 PUSH2 0x9B5 JUMP JUMPDEST PUSH2 0xA84 DUP2 DUP5 PUSH2 0x9C0 JUMP JUMPDEST SWAP3 POP PUSH2 0xA8F DUP3 PUSH2 0x9CB JUMP JUMPDEST DUP1 PUSH1 0x0 JUMPDEST DUP4 DUP2 LT ISZERO PUSH2 0xAC0 JUMPI DUP2 MLOAD PUSH2 0xAA7 DUP8 DUP3 PUSH2 0xA4C JUMP JUMPDEST SWAP7 POP PUSH2 0xAB2 DUP4 PUSH2 0xA64 JUMP JUMPDEST SWAP3 POP POP PUSH1 0x1 DUP2 ADD SWAP1 POP PUSH2 0xA93 JUMP JUMPDEST POP POP POP POP POP POP JUMP JUMPDEST PUSH1 0x0 PUSH2 0x1E0 DUP3 ADD SWAP1 POP PUSH2 0xADE PUSH1 0x0 DUP4 ADD DUP9 PUSH2 0x95E JUMP JUMPDEST PUSH2 0xAEB PUSH1 0x60 DUP4 ADD DUP8 PUSH2 0x95E JUMP JUMPDEST PUSH2 0xAF8 PUSH1 0xC0 DUP4 ADD DUP7 PUSH2 0x95E JUMP JUMPDEST PUSH2 0xB06 PUSH2 0x120 DUP4 ADD DUP6 PUSH2 0xA71 JUMP JUMPDEST PUSH2 0xB14 PUSH2 0x180 DUP4 ADD DUP5 PUSH2 0x95E JUMP JUMPDEST SWAP7 SWAP6 POP POP POP POP POP POP JUMP JUMPDEST PUSH1 0x0 PUSH1 0x40 MLOAD SWAP1 POP SWAP1 JUMP JUMPDEST PUSH1 0x0 DUP1 REVERT JUMPDEST PUSH1 0x0 DUP1 REVERT JUMPDEST PUSH2 0xB3B DUP2 PUSH2 0x920 JUMP JUMPDEST DUP2 EQ PUSH2 0xB46 JUMPI PUSH1 0x0 DUP1 REVERT JUMPDEST POP JUMP JUMPDEST PUSH1 0x0 DUP2 CALLDATALOAD SWAP1 POP PUSH2 0xB58 DUP2 PUSH2 0xB32 JUMP JUMPDEST SWAP3 SWAP2 POP POP JUMP JUMPDEST PUSH1 0x0 DUP1 REVERT JUMPDEST PUSH1 0x0 DUP1 REVERT JUMPDEST PUSH1 0x0 PUSH1 0x1F NOT PUSH1 0x1F DUP4 ADD AND SWAP1 POP SWAP2 SWAP1 POP JUMP JUMPDEST PUSH32 0x4E487B7100000000000000000000000000000000000000000000000000000000 PUSH1 0x0 MSTORE PUSH1 0x41 PUSH1 0x4 MSTORE PUSH1 0x24 PUSH1 0x0 REVERT JUMPDEST PUSH2 0xBB1 DUP3 PUSH2 0xB68 JUMP JUMPDEST DUP2 ADD DUP2 DUP2 LT PUSH8 0xFFFFFFFFFFFFFFFF DUP3 GT OR ISZERO PUSH2 0xBD0 JUMPI PUSH2 0xBCF PUSH2 0xB79 JUMP JUMPDEST JUMPDEST DUP1 PUSH1 0x40 MSTORE POP POP POP JUMP JUMPDEST PUSH1 0x0 PUSH2 0xBE3 PUSH2 0xB1E JUMP JUMPDEST SWAP1 POP PUSH2 0xBEF DUP3 DUP3 PUSH2 0xBA8 JUMP JUMPDEST SWAP2 SWAP1 POP JUMP JUMPDEST PUSH1 0x0 PUSH8 0xFFFFFFFFFFFFFFFF DUP3 GT ISZERO PUSH2 0xC0F JUMPI PUSH2 0xC0E PUSH2 0xB79 JUMP JUMPDEST JUMPDEST PUSH2 0xC18 DUP3 PUSH2 0xB68 JUMP JUMPDEST SWAP1 POP PUSH1 0x20 DUP2 ADD SWAP1 POP SWAP2 SWAP1 POP JUMP JUMPDEST DUP3 DUP2 DUP4 CALLDATACOPY PUSH1 0x0 DUP4 DUP4 ADD MSTORE POP POP POP JUMP JUMPDEST PUSH1 0x0 PUSH2 0xC47 PUSH2 0xC42 DUP5 PUSH2 0xBF4 JUMP JUMPDEST PUSH2 0xBD9 JUMP JUMPDEST SWAP1 POP DUP3 DUP2 MSTORE PUSH1 0x20 DUP2 ADD DUP5 DUP5 DUP5 ADD GT ISZERO PUSH2 0xC63 JUMPI PUSH2 0xC62 PUSH2 0xB63 JUMP JUMPDEST JUMPDEST PUSH2 0xC6E DUP5 DUP3 DUP6 PUSH2 0xC25 JUMP JUMPDEST POP SWAP4 SWAP3 POP POP POP JUMP JUMPDEST PUSH1 0x0 DUP3 PUSH1 0x1F DUP4 ADD SLT PUSH2 0xC8B JUMPI PUSH2 0xC8A PUSH2 0xB5E JUMP JUMPDEST JUMPDEST DUP2 CALLDATALOAD PUSH2 0xC9B DUP5 DUP3 PUSH1 0x20 DUP7 ADD PUSH2 0xC34 JUMP JUMPDEST SWAP2 POP POP SWAP3 SWAP2 POP POP JUMP JUMPDEST PUSH1 0x4 DUP2 LT PUSH2 0xCB1 JUMPI PUSH1 0x0 DUP1 REVERT JUMPDEST POP JUMP JUMPDEST PUSH1 0x0 DUP2 CALLDATALOAD SWAP1 POP PUSH2 0xCC3 DUP2 PUSH2 0xCA4 JUMP JUMPDEST SWAP3 SWAP2 POP POP JUMP JUMPDEST PUSH1 0x4 DUP2 LT PUSH2 0xCD6 JUMPI PUSH1 0x0 DUP1 REVERT JUMPDEST POP JUMP JUMPDEST PUSH1 0x0 DUP2 CALLDATALOAD SWAP1 POP PUSH2 0xCE8 DUP2 PUSH2 0xCC9 JUMP JUMPDEST SWAP3 SWAP2 POP POP JUMP JUMPDEST PUSH1 0x0 DUP1 PUSH1 0x0 DUP1 PUSH1 0x0 DUP1 PUSH1 0x0 PUSH1 0xE0 DUP9 DUP11 SUB SLT ISZERO PUSH2 0xD0D JUMPI PUSH2 0xD0C PUSH2 0xB28 JUMP JUMPDEST JUMPDEST PUSH1 0x0 PUSH2 0xD1B DUP11 DUP3 DUP12 ADD PUSH2 0xB49 JUMP JUMPDEST SWAP8 POP POP PUSH1 0x20 DUP9 ADD CALLDATALOAD PUSH8 0xFFFFFFFFFFFFFFFF DUP2 GT ISZERO PUSH2 0xD3C JUMPI PUSH2 0xD3B PUSH2 0xB2D JUMP JUMPDEST JUMPDEST PUSH2 0xD48 DUP11 DUP3 DUP12 ADD PUSH2 0xC76 JUMP JUMPDEST SWAP7 POP POP PUSH1 0x40 PUSH2 0xD59 DUP11 DUP3 DUP12 ADD PUSH2 0xB49 JUMP JUMPDEST SWAP6 POP POP PUSH1 0x60 PUSH2 0xD6A DUP11 DUP3 DUP12 ADD PUSH2 0xB49 JUMP JUMPDEST SWAP5 POP POP PUSH1 0x80 PUSH2 0xD7B DUP11 DUP3 DUP12 ADD PUSH2 0xCB4 JUMP JUMPDEST SWAP4 POP POP PUSH1 0xA0 PUSH2 0xD8C DUP11 DUP3 DUP12 ADD PUSH2 0xCD9 JUMP JUMPDEST SWAP3 POP POP PUSH1 0xC0 PUSH2 0xD9D DUP11 DUP3 DUP12 ADD PUSH2 0xB49 JUMP JUMPDEST SWAP2 POP POP SWAP3 SWAP6 SWAP9 SWAP2 SWAP5 SWAP8 POP SWAP3 SWAP6 POP JUMP JUMPDEST PUSH2 0xDB5 DUP2 PUSH2 0x920 JUMP JUMPDEST DUP3 MSTORE POP POP JUMP JUMPDEST PUSH1 0x0 PUSH1 0x20 DUP3 ADD SWAP1 POP PUSH2 0xDD0 PUSH1 0x0 DUP4 ADD DUP5 PUSH2 0xDAC JUMP JUMPDEST SWAP3 SWAP2 POP POP JUMP JUMPDEST PUSH1 0x0 DUP1 PUSH1 0x0 DUP1 PUSH1 0x0 PUSH1 0xA0 DUP7 DUP9 SUB SLT ISZERO PUSH2 0xDF2 JUMPI PUSH2 0xDF1 PUSH2 0xB28 JUMP JUMPDEST JUMPDEST PUSH1 0x0 DUP7 ADD CALLDATALOAD PUSH8 0xFFFFFFFFFFFFFFFF DUP2 GT ISZERO PUSH2 0xE10 JUMPI PUSH2 0xE0F PUSH2 0xB2D JUMP JUMPDEST JUMPDEST PUSH2 0xE1C DUP9 DUP3 DUP10 ADD PUSH2 0xC76 JUMP JUMPDEST SWAP6 POP POP PUSH1 0x20 PUSH2 0xE2D DUP9 DUP3 DUP10 ADD PUSH2 0xB49 JUMP JUMPDEST SWAP5 POP POP PUSH1 0x40 PUSH2 0xE3E DUP9 DUP3 DUP10 ADD PUSH2 0xB49 JUMP JUMPDEST SWAP4 POP POP PUSH1 0x60 PUSH2 0xE4F DUP9 DUP3 DUP10 ADD PUSH2 0xCB4 JUMP JUMPDEST SWAP3 POP POP PUSH1 0x80 PUSH2 0xE60 DUP9 DUP3 DUP10 ADD PUSH2 0xB49 JUMP JUMPDEST SWAP2 POP POP SWAP3 SWAP6 POP SWAP3 SWAP6 SWAP1 SWAP4 POP JUMP JUMPDEST PUSH1 0x0 PUSH1 0x20 DUP3 DUP5 SUB SLT ISZERO PUSH2 0xE83 JUMPI PUSH2 0xE82 PUSH2 0xB28 JUMP JUMPDEST JUMPDEST PUSH1 0x0 PUSH2 0xE91 DUP5 DUP3 DUP6 ADD PUSH2 0xB49 JUMP JUMPDEST SWAP2 POP POP SWAP3 SWAP2 POP POP JUMP JUMPDEST PUSH1 0x0 DUP2 MLOAD SWAP1 POP SWAP2 SWAP1 POP JUMP JUMPDEST PUSH1 0x0 DUP3 DUP3 MSTORE PUSH1 0x20 DUP3 ADD SWAP1 POP SWAP3 SWAP2 POP POP JUMP JUMPDEST PUSH1 0x0 JUMPDEST DUP4 DUP2 LT ISZERO PUSH2 0xED4 JUMPI DUP1 DUP3 ADD MLOAD DUP2 DUP5 ADD MSTORE PUSH1 0x20 DUP2 ADD SWAP1 POP PUSH2 0xEB9 JUMP JUMPDEST PUSH1 0x0 DUP5 DUP5 ADD MSTORE POP POP POP POP JUMP JUMPDEST PUSH1 0x0 PUSH2 0xEEB DUP3 PUSH2 0xE9A JUMP JUMPDEST PUSH2 0xEF5 DUP2 DUP6 PUSH2 0xEA5 JUMP JUMPDEST SWAP4 POP PUSH2 0xF05 DUP2 DUP6 PUSH1 0x20 DUP7 ADD PUSH2 0xEB6 JUMP JUMPDEST PUSH2 0xF0E DUP2 PUSH2 0xB68 JUMP JUMPDEST DUP5 ADD SWAP2 POP POP SWAP3 SWAP2 POP POP JUMP JUMPDEST PUSH1 0x4 DUP2 LT PUSH2 0xF2A JUMPI PUSH2 0xF29 PUSH2 0x9D5 JUMP JUMPDEST JUMPDEST POP JUMP JUMPDEST PUSH1 0x0 DUP2 SWAP1 POP PUSH2 0xF3B DUP3 PUSH2 0xF19 JUMP JUMPDEST SWAP2 SWAP1 POP JUMP JUMPDEST PUSH1 0x0 PUSH2 0xF4B DUP3 PUSH2 0xF2D JUMP JUMPDEST SWAP1 POP SWAP2 SWAP1 POP JUMP JUMPDEST PUSH2 0xF5B DUP2 PUSH2 0xF40 JUMP JUMPDEST DUP3 MSTORE POP POP JUMP JUMPDEST PUSH2 0xF6A DUP2 PUSH2 0xA2B JUMP JUMPDEST DUP3 MSTORE POP POP JUMP JUMPDEST PUSH1 0x0 PUSH1 0xC0 DUP3 ADD SWAP1 POP DUP2 DUP2 SUB PUSH1 0x0 DUP4 ADD MSTORE PUSH2 0xF8A DUP2 DUP10 PUSH2 0xEE0 JUMP JUMPDEST SWAP1 POP PUSH2 0xF99 PUSH1 0x20 DUP4 ADD DUP9 PUSH2 0xDAC JUMP JUMPDEST PUSH2 0xFA6 PUSH1 0x40 DUP4 ADD DUP8 PUSH2 0xDAC JUMP JUMPDEST PUSH2 0xFB3 PUSH1 0x60 DUP4 ADD DUP7 PUSH2 0xF52 JUMP JUMPDEST PUSH2 0xFC0 PUSH1 0x80 DUP4 ADD DUP6 PUSH2 0xF61 JUMP JUMPDEST PUSH2 0xFCD PUSH1 0xA0 DUP4 ADD DUP5 PUSH2 0xDAC JUMP JUMPDEST SWAP8 SWAP7 POP POP POP POP POP POP POP JUMP JUMPDEST PUSH1 0x0 PUSH1 0x20 DUP3 DUP5 SUB SLT ISZERO PUSH2 0xFEE JUMPI PUSH2 0xFED PUSH2 0xB28 JUMP JUMPDEST JUMPDEST PUSH1 0x0 PUSH2 0xFFC DUP5 DUP3 DUP6 ADD PUSH2 0xCB4 JUMP JUMPDEST SWAP2 POP POP SWAP3 SWAP2 POP POP JUMP JUMPDEST PUSH32 0x4E487B7100000000000000000000000000000000000000000000000000000000 PUSH1 0x0 MSTORE PUSH1 0x22 PUSH1 0x4 MSTORE PUSH1 0x24 PUSH1 0x0 REVERT JUMPDEST PUSH1 0x0 PUSH1 0x2 DUP3 DIV SWAP1 POP PUSH1 0x1 DUP3 AND DUP1 PUSH2 0x104C JUMPI PUSH1 0x7F DUP3 AND SWAP2 POP JUMPDEST PUSH1 0x20 DUP3 LT DUP2 SUB PUSH2 0x105F JUMPI PUSH2 0x105E PUSH2 0x1005 JUMP JUMPDEST JUMPDEST POP SWAP2 SWAP1 POP JUMP JUMPDEST PUSH1 0x0 DUP2 SWAP1 POP DUP2 PUSH1 0x0 MSTORE PUSH1 0x20 PUSH1 0x0 KECCAK256 SWAP1 POP SWAP2 SWAP1 POP JUMP JUMPDEST PUSH1 0x0 PUSH1 0x20 PUSH1 0x1F DUP4 ADD DIV SWAP1 POP SWAP2 SWAP1 POP JUMP JUMPDEST PUSH1 0x0 DUP3 DUP3 SHL SWAP1 POP SWAP3 SWAP2 POP POP JUMP JUMPDEST PUSH1 0x0 PUSH1 0x8 DUP4 MUL PUSH2 0x10C7 PUSH32 0xFFFFFFFFFFFFFFFFFFFFFFFFFFFFFFFFFFFFFFFFFFFFFFFFFFFFFFFFFFFFFFFF DUP3 PUSH2 0x108A JUMP JUMPDEST PUSH2 0x10D1 DUP7 DUP4 PUSH2 0x108A JUMP JUMPDEST SWAP6 POP DUP1 NOT DUP5 AND SWAP4 POP DUP1 DUP7 AND DUP5 OR SWAP3 POP POP POP SWAP4 SWAP3 POP POP POP JUMP JUMPDEST PUSH1 0x0 DUP2 SWAP1 POP SWAP2 SWAP1 POP JUMP JUMPDEST PUSH1 0x0 PUSH2 0x110E PUSH2 0x1109 PUSH2 0x1104 DUP5 PUSH2 0x920 JUMP JUMPDEST PUSH2 0x10E9 JUMP JUMPDEST PUSH2 0x920 JUMP JUMPDEST SWAP1 POP SWAP2 SWAP1 POP JUMP JUMPDEST PUSH1 0x0 DUP2 SWAP1 POP SWAP2 SWAP1 POP JUMP JUMPDEST PUSH2 0x1128 DUP4 PUSH2 0x10F3 JUMP JUMPDEST PUSH2 0x113C PUSH2 0x1134 DUP3 PUSH2 0x1115 JUMP JUMPDEST DUP5 DUP5 SLOAD PUSH2 0x1097 JUMP JUMPDEST DUP3 SSTORE POP POP POP POP JUMP JUMPDEST PUSH1 0x0 SWAP1 JUMP JUMPDEST PUSH2 0x1151 PUSH2 0x1144 JUMP JUMPDEST PUSH2 0x115C DUP2 DUP5 DUP5 PUSH2 0x111F JUMP JUMPDEST POP POP POP JUMP JUMPDEST JUMPDEST DUP2 DUP2 LT ISZERO PUSH2 0x1180 JUMPI PUSH2 0x1175 PUSH1 0x0 DUP3 PUSH2 0x1149 JUMP JUMPDEST PUSH1 0x1 DUP2 ADD SWAP1 POP PUSH2 0x1162 JUMP JUMPDEST POP POP JUMP JUMPDEST PUSH1 0x1F DUP3 GT ISZERO PUSH2 0x11C5 JUMPI PUSH2 0x1196 DUP2 PUSH2 0x1065 JUMP JUMPDEST PUSH2 0x119F DUP5 PUSH2 0x107A JUMP JUMPDEST DUP2 ADD PUSH1 0x20 DUP6 LT ISZERO PUSH2 0x11AE JUMPI DUP2 SWAP1 POP JUMPDEST PUSH2 0x11C2 PUSH2 0x11BA DUP6 PUSH2 0x107A JUMP JUMPDEST DUP4 ADD DUP3 PUSH2 0x1161 JUMP JUMPDEST POP POP JUMPDEST POP POP POP JUMP JUMPDEST PUSH1 0x0 DUP3 DUP3 SHR SWAP1 POP SWAP3 SWAP2 POP POP JUMP JUMPDEST PUSH1 0x0 PUSH2 0x11E8 PUSH1 0x0 NOT DUP5 PUSH1 0x8 MUL PUSH2 0x11CA JUMP JUMPDEST NOT DUP1 DUP4 AND SWAP2 POP POP SWAP3 SWAP2 POP POP JUMP JUMPDEST PUSH1 0x0 PUSH2 0x1201 DUP4 DUP4 PUSH2 0x11D7 JUMP JUMPDEST SWAP2 POP DUP3 PUSH1 0x2 MUL DUP3 OR SWAP1 POP SWAP3 SWAP2 POP POP JUMP JUMPDEST PUSH2 0x121A DUP3 PUSH2 0xE9A JUMP JUMPDEST PUSH8 0xFFFFFFFFFFFFFFFF DUP2 GT ISZERO PUSH2 0x1233 JUMPI PUSH2 0x1232 PUSH2 0xB79 JUMP JUMPDEST JUMPDEST PUSH2 0x123D DUP3 SLOAD PUSH2 0x1034 JUMP JUMPDEST PUSH2 0x1248 DUP3 DUP3 DUP6 PUSH2 0x1184 JUMP JUMPDEST PUSH1 0x0 PUSH1 0x20 SWAP1 POP PUSH1 0x1F DUP4 GT PUSH1 0x1 DUP2 EQ PUSH2 0x127B JUMPI PUSH1 0x0 DUP5 ISZERO PUSH2 0x1269 JUMPI DUP3 DUP8 ADD MLOAD SWAP1 POP JUMPDEST PUSH2 0x1273 DUP6 DUP3 PUSH2 0x11F5 JUMP JUMPDEST DUP7 SSTORE POP PUSH2 0x12DB JUMP JUMPDEST PUSH1 0x1F NOT DUP5 AND PUSH2 0x1289 DUP7 PUSH2 0x1065 JUMP JUMPDEST PUSH1 0x0 JUMPDEST DUP3 DUP2 LT ISZERO PUSH2 0x12B1 JUMPI DUP5 DUP10 ADD MLOAD DUP3 SSTORE PUSH1 0x1 DUP3 ADD SWAP2 POP PUSH1 0x20 DUP6 ADD SWAP5 POP PUSH1 0x20 DUP2 ADD SWAP1 POP PUSH2 0x128C JUMP JUMPDEST DUP7 DUP4 LT ISZERO PUSH2 0x12CE JUMPI DUP5 DUP10 ADD MLOAD PUSH2 0x12CA PUSH1 0x1F DUP10 AND DUP3 PUSH2 0x11D7 JUMP JUMPDEST DUP4 SSTORE POP JUMPDEST PUSH1 0x1 PUSH1 0x2 DUP9 MUL ADD DUP9 SSTORE POP POP POP JUMPDEST POP POP POP POP POP POP JUMP JUMPDEST PUSH32 0x4E487B7100000000000000000000000000000000000000000000000000000000 PUSH1 0x0 MSTORE PUSH1 0x11 PUSH1 0x4 MSTORE PUSH1 0x24 PUSH1 0x0 REVERT JUMPDEST PUSH1 0x0 PUSH2 0x131D DUP3 PUSH2 0x920 JUMP JUMPDEST SWAP2 POP PUSH2 0x1328 DUP4 PUSH2 0x920 JUMP JUMPDEST SWAP3 POP DUP3 DUP3 ADD SWAP1 POP DUP1 DUP3 GT ISZERO PUSH2 0x1340 JUMPI PUSH2 0x133F PUSH2 0x12E3 JUMP JUMPDEST JUMPDEST SWAP3 SWAP2 POP POP JUMP JUMPDEST PUSH1 0x0 PUSH2 0x1351 DUP3 PUSH2 0x920 JUMP JUMPDEST SWAP2 POP PUSH32 0xFFFFFFFFFFFFFFFFFFFFFFFFFFFFFFFFFFFFFFFFFFFFFFFFFFFFFFFFFFFFFFFF DUP3 SUB PUSH2 0x1383 JUMPI PUSH2 0x1382 PUSH2 0x12E3 JUMP JUMPDEST JUMPDEST PUSH1 0x1 DUP3 ADD SWAP1 POP SWAP2 SWAP1 POP JUMP JUMPDEST PUSH32 0x496E76616C696420726F6C6C206E756D62657200000000000000000000000000 PUSH1 0x0 DUP3 ADD MSTORE POP JUMP JUMPDEST PUSH1 0x0 PUSH2 0x13C4 PUSH1 0x13 DUP4 PUSH2 0xEA5 JUMP JUMPDEST SWAP2 POP PUSH2 0x13CF DUP3 PUSH2 0x138E JUMP JUMPDEST PUSH1 0x20 DUP3 ADD SWAP1 POP SWAP2 SWAP1 POP JUMP JUMPDEST PUSH1 0x0 PUSH1 0x20 DUP3 ADD SWAP1 POP DUP2 DUP2 SUB PUSH1 0x0 DUP4 ADD MSTORE PUSH2 0x13F3 DUP2 PUSH2 0x13B7 JUMP JUMPDEST SWAP1 POP SWAP2 SWAP1 POP JUMP JUMPDEST PUSH1 0x0 PUSH2 0x1405 DUP3 PUSH2 0x920 JUMP JUMPDEST SWAP2 POP PUSH2 0x1410 DUP4 PUSH2 0x920 JUMP JUMPDEST SWAP3 POP DUP3 DUP3 SUB SWAP1 POP DUP2 DUP2 GT ISZERO PUSH2 0x1428 JUMPI PUSH2 0x1427 PUSH2 0x12E3 JUMP JUMPDEST JUMPDEST SWAP3 SWAP2 POP POP JUMP JUMPDEST PUSH32 0x4E487B7100000000000000000000000000000000000000000000000000000000 PUSH1 0x0 MSTORE PUSH1 0x32 PUSH1 0x4 MSTORE PUSH1 0x24 PUSH1 0x0 REVERT INVALID LOG2 PUSH5 0x6970667358 0x22 SLT KECCAK256 0xCC 0x5E BLOCKHASH JUMPDEST 0xD0 GASLIMIT GT 0xF8 GAS 0x2B STOP PUSH6 0x650D20B49E9E 0x5C 0xBF 0xB8 PUSH1 0x64 0xC4 PUSH30 0x40B4E9281EBD1764736F6C63430008120033000000000000000000000000 "
		},
		"gasEstimates": {
			"creation": {
				"codeDepositCost": "1053400",
				"executionCost": "1094",
				"totalCost": "1054494"
			},
			"external": {
				"StudentCount()": "2474",
				"Top3Achievers()": "infinite",
				"TopAchiever()": "infinite",
				"getCount(uint8)": "infinite",
				"register(string,uint256,uint256,uint8,uint256)": "infinite",
				"retrieve(uint256)": "infinite",
				"update(uint256,string,uint256,uint256,uint8,uint8,uint256)": "infinite"
			}
		},
		"methodIdentifiers": {
			"StudentCount()": "4973ccfb",
			"Top3Achievers()": "907084f0",
			"TopAchiever()": "06907e2e",
			"getCount(uint8)": "a819dfbb",
			"register(string,uint256,uint256,uint8,uint256)": "689f739a",
			"retrieve(uint256)": "8f88708b",
			"update(uint256,string,uint256,uint256,uint8,uint8,uint256)": "48e3eeda"
		}
	},
	"abi": [
		{
			"inputs": [],
			"name": "StudentCount",
			"outputs": [
				{
					"internalType": "uint256",
					"name": "",
					"type": "uint256"
				}
			],
			"stateMutability": "view",
			"type": "function"
		},
		{
			"inputs": [],
			"name": "Top3Achievers",
			"outputs": [],
			"stateMutability": "nonpayable",
			"type": "function"
		},
		{
			"inputs": [],
			"name": "TopAchiever",
			"outputs": [
				{
					"internalType": "uint256[3]",
					"name": "names",
					"type": "uint256[3]"
				},
				{
					"internalType": "uint256[3]",
					"name": "ages",
					"type": "uint256[3]"
				},
				{
					"internalType": "uint256[3]",
					"name": "registrationDates",
					"type": "uint256[3]"
				},
				{
					"internalType": "enum StudentRegistrationSystem.Status[3]",
					"name": "statuses",
					"type": "uint8[3]"
				},
				{
					"internalType": "uint256[3]",
					"name": "obtainedMarks",
					"type": "uint256[3]"
				}
			],
			"stateMutability": "pure",
			"type": "function"
		},
		{
			"inputs": [
				{
					"internalType": "enum StudentRegistrationSystem.Department",
					"name": "department",
					"type": "uint8"
				}
			],
			"name": "getCount",
			"outputs": [
				{
					"internalType": "uint256",
					"name": "",
					"type": "uint256"
				}
			],
			"stateMutability": "view",
			"type": "function"
		},
		{
			"inputs": [
				{
					"internalType": "string",
					"name": "name",
					"type": "string"
				},
				{
					"internalType": "uint256",
					"name": "age",
					"type": "uint256"
				},
				{
					"internalType": "uint256",
					"name": "date",
					"type": "uint256"
				},
				{
					"internalType": "enum StudentRegistrationSystem.Department",
					"name": "department",
					"type": "uint8"
				},
				{
					"internalType": "uint256",
					"name": "ObtainedMarks",
					"type": "uint256"
				}
			],
			"name": "register",
			"outputs": [
				{
					"internalType": "uint256",
					"name": "",
					"type": "uint256"
				}
			],
			"stateMutability": "nonpayable",
			"type": "function"
		},
		{
			"inputs": [
				{
					"internalType": "uint256",
					"name": "rollno",
					"type": "uint256"
				}
			],
			"name": "retrieve",
			"outputs": [
				{
					"internalType": "string",
					"name": "name",
					"type": "string"
				},
				{
					"internalType": "uint256",
					"name": "age",
					"type": "uint256"
				},
				{
					"internalType": "uint256",
					"name": "date",
					"type": "uint256"
				},
				{
					"internalType": "enum StudentRegistrationSystem.Department",
					"name": "department",
					"type": "uint8"
				},
				{
					"internalType": "enum StudentRegistrationSystem.Status",
					"name": "status",
					"type": "uint8"
				},
				{
					"internalType": "uint256",
					"name": "ObtainedMarks",
					"type": "uint256"
				}
			],
			"stateMutability": "view",
			"type": "function"
		},
		{
			"inputs": [
				{
					"internalType": "uint256",
					"name": "rollno",
					"type": "uint256"
				},
				{
					"internalType": "string",
					"name": "name",
					"type": "string"
				},
				{
					"internalType": "uint256",
					"name": "age",
					"type": "uint256"
				},
				{
					"internalType": "uint256",
					"name": "date",
					"type": "uint256"
				},
				{
					"internalType": "enum StudentRegistrationSystem.Department",
					"name": "department",
					"type": "uint8"
				},
				{
					"internalType": "enum StudentRegistrationSystem.Status",
					"name": "status",
					"type": "uint8"
				},
				{
					"internalType": "uint256",
					"name": "_ObtainedMarks",
					"type": "uint256"
				}
			],
			"name": "update",
			"outputs": [],
			"stateMutability": "nonpayable",
			"type": "function"
		}
	]
}