{
	"data": {
		"bytecode": {
			"linkReferences": {},
			"object": "608060405234801561001057600080fd5b50611696806100206000396000f3fe608060405234801561001057600080fd5b50600436106100625760003560e01c806306ead22e1461006757806312b4e9001461009c5780631f713eb9146100be5780637168014d146100da578063a819dfbb1461010f578063ea81e5ad1461013f575b600080fd5b610081600480360381019061007c9190610b55565b61015b565b60405161009396959493929190610ce0565b60405180910390f35b6100a4610239565b6040516100b5959493929190610f9e565b60405180910390f35b6100d860048036038101906100d39190611179565b6106fa565b005b6100f460048036038101906100ef9190610b55565b610815565b60405161010696959493929190610ce0565b60405180910390f35b61012960048036038101906101249190611237565b61090d565b6040516101369190611264565b60405180910390f35b61015960048036038101906101549190611179565b61099d565b005b600060205280600052604060002060009150905080600001805461017e906112ae565b80601f01602080910402602001604051908101604052809291908181526020018280546101aa906112ae565b80156101f75780601f106101cc576101008083540402835291602001916101f7565b820191906000526020600020905b8154815290600101906020018083116101da57829003601f168201915b5050505050908060010154908060020154908060030160009054906101000a900460ff16908060030160019054906101000a900460ff16908060040154905086565b610241610aa0565b610249610ac7565b610251610ac7565b610259610ae9565b610261610ac7565b610269610ac7565b6000600190505b60015481116106f15760008060008381526020019081526020016000209050600160038111156102a3576102a2610c21565b5b8160030160009054906101000a900460ff1660038111156102c7576102c6610c21565b5b14801561030957506003808111156102e2576102e1610c21565b5b8160030160019054906101000a900460ff16600381111561030657610305610c21565b5b14155b801561034b57506001600381111561032457610323610c21565b5b8160030160019054906101000a900460ff16600381111561034857610347610c21565b5b14155b156106dd5760005b60038110156106db5783816003811061036f5761036e6112df565b5b6020020151826004015411156106c8576000600290505b81811115610546578460018261039c919061133d565b600381106103ad576103ac6112df565b5b60200201518582600381106103c5576103c46112df565b5b602002018181525050896001826103dc919061133d565b600381106103ed576103ec6112df565b5b60200201518a8260038110610405576104046112df565b5b60200201819052508860018261041b919061133d565b6003811061042c5761042b6112df565b5b6020020151898260038110610444576104436112df565b5b6020020181815250508760018261045b919061133d565b6003811061046c5761046b6112df565b5b6020020151888260038110610484576104836112df565b5b6020020181815250508660018261049b919061133d565b600381106104ac576104ab6112df565b5b60200201518782600381106104c4576104c36112df565b5b602002019060038111156104db576104da610c21565b5b908160038111156104ef576104ee610c21565b5b8152505085600182610501919061133d565b60038110610512576105116112df565b5b602002015186826003811061052a576105296112df565b5b602002018181525050808061053e90611371565b915050610386565b50816004015484826003811061055f5761055e6112df565b5b602002018181525050816000018054610577906112ae565b80601f01602080910402602001604051908101604052809291908181526020018280546105a3906112ae565b80156105f05780601f106105c5576101008083540402835291602001916105f0565b820191906000526020600020905b8154815290600101906020018083116105d357829003601f168201915b5050505050898260038110610608576106076112df565b5b60200201819052508160010154888260038110610628576106276112df565b5b6020020181815250508160020154878260038110610649576106486112df565b5b6020020181815250508160030160019054906101000a900460ff16868260038110610677576106766112df565b5b6020020190600381111561068e5761068d610c21565b5b908160038111156106a2576106a1610c21565b5b8152505081600401548582600381106106be576106bd6112df565b5b6020020181815250505b80806106d39061139a565b915050610353565b505b5080806106e99061139a565b915050610270565b50509091929394565b6040518060c0016040528087815260200186815260200185815260200184600381111561072a57610729610c21565b5b815260200183600381111561074257610741610c21565b5b8152602001828152506000808981526020019081526020016000206000820151816000019081610772919061158e565b50602082015181600101556040820151816002015560608201518160030160006101000a81548160ff021916908360038111156107b2576107b1610c21565b5b021790555060808201518160030160016101000a81548160ff021916908360038111156107e2576107e1610c21565b5b021790555060a08201518160040155905050600160008154809291906108079061139a565b919050555050505050505050565b6060600080600080600080600080898152602001908152602001600020905080600001816001015482600201548360030160009054906101000a900460ff168460030160019054906101000a900460ff168560040154858054610877906112ae565b80601f01602080910402602001604051908101604052809291908181526020018280546108a3906112ae565b80156108f05780601f106108c5576101008083540402835291602001916108f0565b820191906000526020600020905b8154815290600101906020018083116108d357829003601f168201915b505050505095509650965096509650965096505091939550919395565b600080600090506000600190505b60015481116109935783600381111561093757610936610c21565b5b60008083815260200190815260200160002060030160009054906101000a900460ff16600381111561096c5761096b610c21565b5b0361098057818061097c9061139a565b9250505b808061098b9061139a565b91505061091b565b5080915050919050565b6040518060c001604052808781526020018681526020018581526020018460038111156109cd576109cc610c21565b5b81526020018360038111156109e5576109e4610c21565b5b8152602001828152506000808981526020019081526020016000206000820151816000019081610a15919061158e565b50602082015181600101556040820151816002015560608201518160030160006101000a81548160ff02191690836003811115610a5557610a54610c21565b5b021790555060808201518160030160016101000a81548160ff02191690836003811115610a8557610a84610c21565b5b021790555060a0820151816004015590505050505050505050565b60405180606001604052806003905b6060815260200190600190039081610aaf5790505090565b6040518060600160405280600390602082028036833780820191505090505090565b6040518060600160405280600390602082028036833780820191505090505090565b6000604051905090565b600080fd5b600080fd5b6000819050919050565b610b3281610b1f565b8114610b3d57600080fd5b50565b600081359050610b4f81610b29565b92915050565b600060208284031215610b6b57610b6a610b15565b5b6000610b7984828501610b40565b91505092915050565b600081519050919050565b600082825260208201905092915050565b60005b83811015610bbc578082015181840152602081019050610ba1565b60008484015250505050565b6000601f19601f8301169050919050565b6000610be482610b82565b610bee8185610b8d565b9350610bfe818560208601610b9e565b610c0781610bc8565b840191505092915050565b610c1b81610b1f565b82525050565b7f4e487b7100000000000000000000000000000000000000000000000000000000600052602160045260246000fd5b60048110610c6157610c60610c21565b5b50565b6000819050610c7282610c50565b919050565b6000610c8282610c64565b9050919050565b610c9281610c77565b82525050565b60048110610ca957610ca8610c21565b5b50565b6000819050610cba82610c98565b919050565b6000610cca82610cac565b9050919050565b610cda81610cbf565b82525050565b600060c0820190508181036000830152610cfa8189610bd9565b9050610d096020830188610c12565b610d166040830187610c12565b610d236060830186610c89565b610d306080830185610cd1565b610d3d60a0830184610c12565b979650505050505050565b600060039050919050565b600081905092915050565b6000819050919050565b600082825260208201905092915050565b6000610d8482610b82565b610d8e8185610d68565b9350610d9e818560208601610b9e565b610da781610bc8565b840191505092915050565b6000610dbe8383610d79565b905092915050565b6000602082019050919050565b6000610dde82610d48565b610de88185610d53565b935083602082028501610dfa85610d5e565b8060005b85811015610e365784840389528151610e178582610db2565b9450610e2283610dc6565b925060208a01995050600181019050610dfe565b50829750879550505050505092915050565b600060039050919050565b600081905092915050565b6000819050919050565b610e7181610b1f565b82525050565b6000610e838383610e68565b60208301905092915050565b6000602082019050919050565b610ea581610e48565b610eaf8184610e53565b9250610eba82610e5e565b8060005b83811015610eeb578151610ed28782610e77565b9650610edd83610e8f565b925050600181019050610ebe565b505050505050565b600060039050919050565b600081905092915050565b6000819050919050565b610f1c81610cbf565b82525050565b6000610f2e8383610f13565b60208301905092915050565b6000602082019050919050565b610f5081610ef3565b610f5a8184610efe565b9250610f6582610f09565b8060005b83811015610f96578151610f7d8782610f22565b9650610f8883610f3a565b925050600181019050610f69565b505050505050565b60006101a0820190508181036000830152610fb98188610dd3565b9050610fc86020830187610e9c565b610fd56080830186610e9c565b610fe260e0830185610f47565b610ff0610140830184610e9c565b9695505050505050565b600080fd5b600080fd5b7f4e487b7100000000000000000000000000000000000000000000000000000000600052604160045260246000fd5b61103c82610bc8565b810181811067ffffffffffffffff8211171561105b5761105a611004565b5b80604052505050565b600061106e610b0b565b905061107a8282611033565b919050565b600067ffffffffffffffff82111561109a57611099611004565b5b6110a382610bc8565b9050602081019050919050565b82818337600083830152505050565b60006110d26110cd8461107f565b611064565b9050828152602081018484840111156110ee576110ed610fff565b5b6110f98482856110b0565b509392505050565b600082601f83011261111657611115610ffa565b5b81356111268482602086016110bf565b91505092915050565b6004811061113c57600080fd5b50565b60008135905061114e8161112f565b92915050565b6004811061116157600080fd5b50565b60008135905061117381611154565b92915050565b600080600080600080600060e0888a03121561119857611197610b15565b5b60006111a68a828b01610b40565b975050602088013567ffffffffffffffff8111156111c7576111c6610b1a565b5b6111d38a828b01611101565b96505060406111e48a828b01610b40565b95505060606111f58a828b01610b40565b94505060806112068a828b0161113f565b93505060a06112178a828b01611164565b92505060c06112288a828b01610b40565b91505092959891949750929550565b60006020828403121561124d5761124c610b15565b5b600061125b8482850161113f565b91505092915050565b60006020820190506112796000830184610c12565b92915050565b7f4e487b7100000000000000000000000000000000000000000000000000000000600052602260045260246000fd5b600060028204905060018216806112c657607f821691505b6020821081036112d9576112d861127f565b5b50919050565b7f4e487b7100000000000000000000000000000000000000000000000000000000600052603260045260246000fd5b7f4e487b7100000000000000000000000000000000000000000000000000000000600052601160045260246000fd5b600061134882610b1f565b915061135383610b1f565b925082820390508181111561136b5761136a61130e565b5b92915050565b600061137c82610b1f565b91506000820361138f5761138e61130e565b5b600182039050919050565b60006113a582610b1f565b91507fffffffffffffffffffffffffffffffffffffffffffffffffffffffffffffffff82036113d7576113d661130e565b5b600182019050919050565b60008190508160005260206000209050919050565b60006020601f8301049050919050565b600082821b905092915050565b6000600883026114447fffffffffffffffffffffffffffffffffffffffffffffffffffffffffffffffff82611407565b61144e8683611407565b95508019841693508086168417925050509392505050565b6000819050919050565b600061148b61148661148184610b1f565b611466565b610b1f565b9050919050565b6000819050919050565b6114a583611470565b6114b96114b182611492565b848454611414565b825550505050565b600090565b6114ce6114c1565b6114d981848461149c565b505050565b5b818110156114fd576114f26000826114c6565b6001810190506114df565b5050565b601f82111561154257611513816113e2565b61151c846113f7565b8101602085101561152b578190505b61153f611537856113f7565b8301826114de565b50505b505050565b600082821c905092915050565b600061156560001984600802611547565b1980831691505092915050565b600061157e8383611554565b9150826002028217905092915050565b61159782610b82565b67ffffffffffffffff8111156115b0576115af611004565b5b6115ba82546112ae565b6115c5828285611501565b600060209050601f8311600181146115f857600084156115e6578287015190505b6115f08582611572565b865550611658565b601f198416611606866113e2565b60005b8281101561162e57848901518255600182019150602085019450602081019050611609565b8683101561164b5784890151611647601f891682611554565b8355505b6001600288020188555050505b50505050505056fea26469706673582212209a02eec5f72c9b3070f4c65a156b8dd0cd7841228c3fa7151e4e4e54786add8464736f6c63430008120033",
			"opcodes": "PUSH1 0x80 PUSH1 0x40 MSTORE CALLVALUE DUP1 ISZERO PUSH2 0x10 JUMPI PUSH1 0x0 DUP1 REVERT JUMPDEST POP PUSH2 0x1696 DUP1 PUSH2 0x20 PUSH1 0x0 CODECOPY PUSH1 0x0 RETURN INVALID PUSH1 0x80 PUSH1 0x40 MSTORE CALLVALUE DUP1 ISZERO PUSH2 0x10 JUMPI PUSH1 0x0 DUP1 REVERT JUMPDEST POP PUSH1 0x4 CALLDATASIZE LT PUSH2 0x62 JUMPI PUSH1 0x0 CALLDATALOAD PUSH1 0xE0 SHR DUP1 PUSH4 0x6EAD22E EQ PUSH2 0x67 JUMPI DUP1 PUSH4 0x12B4E900 EQ PUSH2 0x9C JUMPI DUP1 PUSH4 0x1F713EB9 EQ PUSH2 0xBE JUMPI DUP1 PUSH4 0x7168014D EQ PUSH2 0xDA JUMPI DUP1 PUSH4 0xA819DFBB EQ PUSH2 0x10F JUMPI DUP1 PUSH4 0xEA81E5AD EQ PUSH2 0x13F JUMPI JUMPDEST PUSH1 0x0 DUP1 REVERT JUMPDEST PUSH2 0x81 PUSH1 0x4 DUP1 CALLDATASIZE SUB DUP2 ADD SWAP1 PUSH2 0x7C SWAP2 SWAP1 PUSH2 0xB55 JUMP JUMPDEST PUSH2 0x15B JUMP JUMPDEST PUSH1 0x40 MLOAD PUSH2 0x93 SWAP7 SWAP6 SWAP5 SWAP4 SWAP3 SWAP2 SWAP1 PUSH2 0xCE0 JUMP JUMPDEST PUSH1 0x40 MLOAD DUP1 SWAP2 SUB SWAP1 RETURN JUMPDEST PUSH2 0xA4 PUSH2 0x239 JUMP JUMPDEST PUSH1 0x40 MLOAD PUSH2 0xB5 SWAP6 SWAP5 SWAP4 SWAP3 SWAP2 SWAP1 PUSH2 0xF9E JUMP JUMPDEST PUSH1 0x40 MLOAD DUP1 SWAP2 SUB SWAP1 RETURN JUMPDEST PUSH2 0xD8 PUSH1 0x4 DUP1 CALLDATASIZE SUB DUP2 ADD SWAP1 PUSH2 0xD3 SWAP2 SWAP1 PUSH2 0x1179 JUMP JUMPDEST PUSH2 0x6FA JUMP JUMPDEST STOP JUMPDEST PUSH2 0xF4 PUSH1 0x4 DUP1 CALLDATASIZE SUB DUP2 ADD SWAP1 PUSH2 0xEF SWAP2 SWAP1 PUSH2 0xB55 JUMP JUMPDEST PUSH2 0x815 JUMP JUMPDEST PUSH1 0x40 MLOAD PUSH2 0x106 SWAP7 SWAP6 SWAP5 SWAP4 SWAP3 SWAP2 SWAP1 PUSH2 0xCE0 JUMP JUMPDEST PUSH1 0x40 MLOAD DUP1 SWAP2 SUB SWAP1 RETURN JUMPDEST PUSH2 0x129 PUSH1 0x4 DUP1 CALLDATASIZE SUB DUP2 ADD SWAP1 PUSH2 0x124 SWAP2 SWAP1 PUSH2 0x1237 JUMP JUMPDEST PUSH2 0x90D JUMP JUMPDEST PUSH1 0x40 MLOAD PUSH2 0x136 SWAP2 SWAP1 PUSH2 0x1264 JUMP JUMPDEST PUSH1 0x40 MLOAD DUP1 SWAP2 SUB SWAP1 RETURN JUMPDEST PUSH2 0x159 PUSH1 0x4 DUP1 CALLDATASIZE SUB DUP2 ADD SWAP1 PUSH2 0x154 SWAP2 SWAP1 PUSH2 0x1179 JUMP JUMPDEST PUSH2 0x99D JUMP JUMPDEST STOP JUMPDEST PUSH1 0x0 PUSH1 0x20 MSTORE DUP1 PUSH1 0x0 MSTORE PUSH1 0x40 PUSH1 0x0 KECCAK256 PUSH1 0x0 SWAP2 POP SWAP1 POP DUP1 PUSH1 0x0 ADD DUP1 SLOAD PUSH2 0x17E SWAP1 PUSH2 0x12AE JUMP JUMPDEST DUP1 PUSH1 0x1F ADD PUSH1 0x20 DUP1 SWAP2 DIV MUL PUSH1 0x20 ADD PUSH1 0x40 MLOAD SWAP1 DUP2 ADD PUSH1 0x40 MSTORE DUP1 SWAP3 SWAP2 SWAP1 DUP2 DUP2 MSTORE PUSH1 0x20 ADD DUP3 DUP1 SLOAD PUSH2 0x1AA SWAP1 PUSH2 0x12AE JUMP JUMPDEST DUP1 ISZERO PUSH2 0x1F7 JUMPI DUP1 PUSH1 0x1F LT PUSH2 0x1CC JUMPI PUSH2 0x100 DUP1 DUP4 SLOAD DIV MUL DUP4 MSTORE SWAP2 PUSH1 0x20 ADD SWAP2 PUSH2 0x1F7 JUMP JUMPDEST DUP3 ADD SWAP2 SWAP1 PUSH1 0x0 MSTORE PUSH1 0x20 PUSH1 0x0 KECCAK256 SWAP1 JUMPDEST DUP2 SLOAD DUP2 MSTORE SWAP1 PUSH1 0x1 ADD SWAP1 PUSH1 0x20 ADD DUP1 DUP4 GT PUSH2 0x1DA JUMPI DUP3 SWAP1 SUB PUSH1 0x1F AND DUP3 ADD SWAP2 JUMPDEST POP POP POP POP POP SWAP1 DUP1 PUSH1 0x1 ADD SLOAD SWAP1 DUP1 PUSH1 0x2 ADD SLOAD SWAP1 DUP1 PUSH1 0x3 ADD PUSH1 0x0 SWAP1 SLOAD SWAP1 PUSH2 0x100 EXP SWAP1 DIV PUSH1 0xFF AND SWAP1 DUP1 PUSH1 0x3 ADD PUSH1 0x1 SWAP1 SLOAD SWAP1 PUSH2 0x100 EXP SWAP1 DIV PUSH1 0xFF AND SWAP1 DUP1 PUSH1 0x4 ADD SLOAD SWAP1 POP DUP7 JUMP JUMPDEST PUSH2 0x241 PUSH2 0xAA0 JUMP JUMPDEST PUSH2 0x249 PUSH2 0xAC7 JUMP JUMPDEST PUSH2 0x251 PUSH2 0xAC7 JUMP JUMPDEST PUSH2 0x259 PUSH2 0xAE9 JUMP JUMPDEST PUSH2 0x261 PUSH2 0xAC7 JUMP JUMPDEST PUSH2 0x269 PUSH2 0xAC7 JUMP JUMPDEST PUSH1 0x0 PUSH1 0x1 SWAP1 POP JUMPDEST PUSH1 0x1 SLOAD DUP2 GT PUSH2 0x6F1 JUMPI PUSH1 0x0 DUP1 PUSH1 0x0 DUP4 DUP2 MSTORE PUSH1 0x20 ADD SWAP1 DUP2 MSTORE PUSH1 0x20 ADD PUSH1 0x0 KECCAK256 SWAP1 POP PUSH1 0x1 PUSH1 0x3 DUP2 GT ISZERO PUSH2 0x2A3 JUMPI PUSH2 0x2A2 PUSH2 0xC21 JUMP JUMPDEST JUMPDEST DUP2 PUSH1 0x3 ADD PUSH1 0x0 SWAP1 SLOAD SWAP1 PUSH2 0x100 EXP SWAP1 DIV PUSH1 0xFF AND PUSH1 0x3 DUP2 GT ISZERO PUSH2 0x2C7 JUMPI PUSH2 0x2C6 PUSH2 0xC21 JUMP JUMPDEST JUMPDEST EQ DUP1 ISZERO PUSH2 0x309 JUMPI POP PUSH1 0x3 DUP1 DUP2 GT ISZERO PUSH2 0x2E2 JUMPI PUSH2 0x2E1 PUSH2 0xC21 JUMP JUMPDEST JUMPDEST DUP2 PUSH1 0x3 ADD PUSH1 0x1 SWAP1 SLOAD SWAP1 PUSH2 0x100 EXP SWAP1 DIV PUSH1 0xFF AND PUSH1 0x3 DUP2 GT ISZERO PUSH2 0x306 JUMPI PUSH2 0x305 PUSH2 0xC21 JUMP JUMPDEST JUMPDEST EQ ISZERO JUMPDEST DUP1 ISZERO PUSH2 0x34B JUMPI POP PUSH1 0x1 PUSH1 0x3 DUP2 GT ISZERO PUSH2 0x324 JUMPI PUSH2 0x323 PUSH2 0xC21 JUMP JUMPDEST JUMPDEST DUP2 PUSH1 0x3 ADD PUSH1 0x1 SWAP1 SLOAD SWAP1 PUSH2 0x100 EXP SWAP1 DIV PUSH1 0xFF AND PUSH1 0x3 DUP2 GT ISZERO PUSH2 0x348 JUMPI PUSH2 0x347 PUSH2 0xC21 JUMP JUMPDEST JUMPDEST EQ ISZERO JUMPDEST ISZERO PUSH2 0x6DD JUMPI PUSH1 0x0 JUMPDEST PUSH1 0x3 DUP2 LT ISZERO PUSH2 0x6DB JUMPI DUP4 DUP2 PUSH1 0x3 DUP2 LT PUSH2 0x36F JUMPI PUSH2 0x36E PUSH2 0x12DF JUMP JUMPDEST JUMPDEST PUSH1 0x20 MUL ADD MLOAD DUP3 PUSH1 0x4 ADD SLOAD GT ISZERO PUSH2 0x6C8 JUMPI PUSH1 0x0 PUSH1 0x2 SWAP1 POP JUMPDEST DUP2 DUP2 GT ISZERO PUSH2 0x546 JUMPI DUP5 PUSH1 0x1 DUP3 PUSH2 0x39C SWAP2 SWAP1 PUSH2 0x133D JUMP JUMPDEST PUSH1 0x3 DUP2 LT PUSH2 0x3AD JUMPI PUSH2 0x3AC PUSH2 0x12DF JUMP JUMPDEST JUMPDEST PUSH1 0x20 MUL ADD MLOAD DUP6 DUP3 PUSH1 0x3 DUP2 LT PUSH2 0x3C5 JUMPI PUSH2 0x3C4 PUSH2 0x12DF JUMP JUMPDEST JUMPDEST PUSH1 0x20 MUL ADD DUP2 DUP2 MSTORE POP POP DUP10 PUSH1 0x1 DUP3 PUSH2 0x3DC SWAP2 SWAP1 PUSH2 0x133D JUMP JUMPDEST PUSH1 0x3 DUP2 LT PUSH2 0x3ED JUMPI PUSH2 0x3EC PUSH2 0x12DF JUMP JUMPDEST JUMPDEST PUSH1 0x20 MUL ADD MLOAD DUP11 DUP3 PUSH1 0x3 DUP2 LT PUSH2 0x405 JUMPI PUSH2 0x404 PUSH2 0x12DF JUMP JUMPDEST JUMPDEST PUSH1 0x20 MUL ADD DUP2 SWAP1 MSTORE POP DUP9 PUSH1 0x1 DUP3 PUSH2 0x41B SWAP2 SWAP1 PUSH2 0x133D JUMP JUMPDEST PUSH1 0x3 DUP2 LT PUSH2 0x42C JUMPI PUSH2 0x42B PUSH2 0x12DF JUMP JUMPDEST JUMPDEST PUSH1 0x20 MUL ADD MLOAD DUP10 DUP3 PUSH1 0x3 DUP2 LT PUSH2 0x444 JUMPI PUSH2 0x443 PUSH2 0x12DF JUMP JUMPDEST JUMPDEST PUSH1 0x20 MUL ADD DUP2 DUP2 MSTORE POP POP DUP8 PUSH1 0x1 DUP3 PUSH2 0x45B SWAP2 SWAP1 PUSH2 0x133D JUMP JUMPDEST PUSH1 0x3 DUP2 LT PUSH2 0x46C JUMPI PUSH2 0x46B PUSH2 0x12DF JUMP JUMPDEST JUMPDEST PUSH1 0x20 MUL ADD MLOAD DUP9 DUP3 PUSH1 0x3 DUP2 LT PUSH2 0x484 JUMPI PUSH2 0x483 PUSH2 0x12DF JUMP JUMPDEST JUMPDEST PUSH1 0x20 MUL ADD DUP2 DUP2 MSTORE POP POP DUP7 PUSH1 0x1 DUP3 PUSH2 0x49B SWAP2 SWAP1 PUSH2 0x133D JUMP JUMPDEST PUSH1 0x3 DUP2 LT PUSH2 0x4AC JUMPI PUSH2 0x4AB PUSH2 0x12DF JUMP JUMPDEST JUMPDEST PUSH1 0x20 MUL ADD MLOAD DUP8 DUP3 PUSH1 0x3 DUP2 LT PUSH2 0x4C4 JUMPI PUSH2 0x4C3 PUSH2 0x12DF JUMP JUMPDEST JUMPDEST PUSH1 0x20 MUL ADD SWAP1 PUSH1 0x3 DUP2 GT ISZERO PUSH2 0x4DB JUMPI PUSH2 0x4DA PUSH2 0xC21 JUMP JUMPDEST JUMPDEST SWAP1 DUP2 PUSH1 0x3 DUP2 GT ISZERO PUSH2 0x4EF JUMPI PUSH2 0x4EE PUSH2 0xC21 JUMP JUMPDEST JUMPDEST DUP2 MSTORE POP POP DUP6 PUSH1 0x1 DUP3 PUSH2 0x501 SWAP2 SWAP1 PUSH2 0x133D JUMP JUMPDEST PUSH1 0x3 DUP2 LT PUSH2 0x512 JUMPI PUSH2 0x511 PUSH2 0x12DF JUMP JUMPDEST JUMPDEST PUSH1 0x20 MUL ADD MLOAD DUP7 DUP3 PUSH1 0x3 DUP2 LT PUSH2 0x52A JUMPI PUSH2 0x529 PUSH2 0x12DF JUMP JUMPDEST JUMPDEST PUSH1 0x20 MUL ADD DUP2 DUP2 MSTORE POP POP DUP1 DUP1 PUSH2 0x53E SWAP1 PUSH2 0x1371 JUMP JUMPDEST SWAP2 POP POP PUSH2 0x386 JUMP JUMPDEST POP DUP2 PUSH1 0x4 ADD SLOAD DUP5 DUP3 PUSH1 0x3 DUP2 LT PUSH2 0x55F JUMPI PUSH2 0x55E PUSH2 0x12DF JUMP JUMPDEST JUMPDEST PUSH1 0x20 MUL ADD DUP2 DUP2 MSTORE POP POP DUP2 PUSH1 0x0 ADD DUP1 SLOAD PUSH2 0x577 SWAP1 PUSH2 0x12AE JUMP JUMPDEST DUP1 PUSH1 0x1F ADD PUSH1 0x20 DUP1 SWAP2 DIV MUL PUSH1 0x20 ADD PUSH1 0x40 MLOAD SWAP1 DUP2 ADD PUSH1 0x40 MSTORE DUP1 SWAP3 SWAP2 SWAP1 DUP2 DUP2 MSTORE PUSH1 0x20 ADD DUP3 DUP1 SLOAD PUSH2 0x5A3 SWAP1 PUSH2 0x12AE JUMP JUMPDEST DUP1 ISZERO PUSH2 0x5F0 JUMPI DUP1 PUSH1 0x1F LT PUSH2 0x5C5 JUMPI PUSH2 0x100 DUP1 DUP4 SLOAD DIV MUL DUP4 MSTORE SWAP2 PUSH1 0x20 ADD SWAP2 PUSH2 0x5F0 JUMP JUMPDEST DUP3 ADD SWAP2 SWAP1 PUSH1 0x0 MSTORE PUSH1 0x20 PUSH1 0x0 KECCAK256 SWAP1 JUMPDEST DUP2 SLOAD DUP2 MSTORE SWAP1 PUSH1 0x1 ADD SWAP1 PUSH1 0x20 ADD DUP1 DUP4 GT PUSH2 0x5D3 JUMPI DUP3 SWAP1 SUB PUSH1 0x1F AND DUP3 ADD SWAP2 JUMPDEST POP POP POP POP POP DUP10 DUP3 PUSH1 0x3 DUP2 LT PUSH2 0x608 JUMPI PUSH2 0x607 PUSH2 0x12DF JUMP JUMPDEST JUMPDEST PUSH1 0x20 MUL ADD DUP2 SWAP1 MSTORE POP DUP2 PUSH1 0x1 ADD SLOAD DUP9 DUP3 PUSH1 0x3 DUP2 LT PUSH2 0x628 JUMPI PUSH2 0x627 PUSH2 0x12DF JUMP JUMPDEST JUMPDEST PUSH1 0x20 MUL ADD DUP2 DUP2 MSTORE POP POP DUP2 PUSH1 0x2 ADD SLOAD DUP8 DUP3 PUSH1 0x3 DUP2 LT PUSH2 0x649 JUMPI PUSH2 0x648 PUSH2 0x12DF JUMP JUMPDEST JUMPDEST PUSH1 0x20 MUL ADD DUP2 DUP2 MSTORE POP POP DUP2 PUSH1 0x3 ADD PUSH1 0x1 SWAP1 SLOAD SWAP1 PUSH2 0x100 EXP SWAP1 DIV PUSH1 0xFF AND DUP7 DUP3 PUSH1 0x3 DUP2 LT PUSH2 0x677 JUMPI PUSH2 0x676 PUSH2 0x12DF JUMP JUMPDEST JUMPDEST PUSH1 0x20 MUL ADD SWAP1 PUSH1 0x3 DUP2 GT ISZERO PUSH2 0x68E JUMPI PUSH2 0x68D PUSH2 0xC21 JUMP JUMPDEST JUMPDEST SWAP1 DUP2 PUSH1 0x3 DUP2 GT ISZERO PUSH2 0x6A2 JUMPI PUSH2 0x6A1 PUSH2 0xC21 JUMP JUMPDEST JUMPDEST DUP2 MSTORE POP POP DUP2 PUSH1 0x4 ADD SLOAD DUP6 DUP3 PUSH1 0x3 DUP2 LT PUSH2 0x6BE JUMPI PUSH2 0x6BD PUSH2 0x12DF JUMP JUMPDEST JUMPDEST PUSH1 0x20 MUL ADD DUP2 DUP2 MSTORE POP POP JUMPDEST DUP1 DUP1 PUSH2 0x6D3 SWAP1 PUSH2 0x139A JUMP JUMPDEST SWAP2 POP POP PUSH2 0x353 JUMP JUMPDEST POP JUMPDEST POP DUP1 DUP1 PUSH2 0x6E9 SWAP1 PUSH2 0x139A JUMP JUMPDEST SWAP2 POP POP PUSH2 0x270 JUMP JUMPDEST POP POP SWAP1 SWAP2 SWAP3 SWAP4 SWAP5 JUMP JUMPDEST PUSH1 0x40 MLOAD DUP1 PUSH1 0xC0 ADD PUSH1 0x40 MSTORE DUP1 DUP8 DUP2 MSTORE PUSH1 0x20 ADD DUP7 DUP2 MSTORE PUSH1 0x20 ADD DUP6 DUP2 MSTORE PUSH1 0x20 ADD DUP5 PUSH1 0x3 DUP2 GT ISZERO PUSH2 0x72A JUMPI PUSH2 0x729 PUSH2 0xC21 JUMP JUMPDEST JUMPDEST DUP2 MSTORE PUSH1 0x20 ADD DUP4 PUSH1 0x3 DUP2 GT ISZERO PUSH2 0x742 JUMPI PUSH2 0x741 PUSH2 0xC21 JUMP JUMPDEST JUMPDEST DUP2 MSTORE PUSH1 0x20 ADD DUP3 DUP2 MSTORE POP PUSH1 0x0 DUP1 DUP10 DUP2 MSTORE PUSH1 0x20 ADD SWAP1 DUP2 MSTORE PUSH1 0x20 ADD PUSH1 0x0 KECCAK256 PUSH1 0x0 DUP3 ADD MLOAD DUP2 PUSH1 0x0 ADD SWAP1 DUP2 PUSH2 0x772 SWAP2 SWAP1 PUSH2 0x158E JUMP JUMPDEST POP PUSH1 0x20 DUP3 ADD MLOAD DUP2 PUSH1 0x1 ADD SSTORE PUSH1 0x40 DUP3 ADD MLOAD DUP2 PUSH1 0x2 ADD SSTORE PUSH1 0x60 DUP3 ADD MLOAD DUP2 PUSH1 0x3 ADD PUSH1 0x0 PUSH2 0x100 EXP DUP2 SLOAD DUP2 PUSH1 0xFF MUL NOT AND SWAP1 DUP4 PUSH1 0x3 DUP2 GT ISZERO PUSH2 0x7B2 JUMPI PUSH2 0x7B1 PUSH2 0xC21 JUMP JUMPDEST JUMPDEST MUL OR SWAP1 SSTORE POP PUSH1 0x80 DUP3 ADD MLOAD DUP2 PUSH1 0x3 ADD PUSH1 0x1 PUSH2 0x100 EXP DUP2 SLOAD DUP2 PUSH1 0xFF MUL NOT AND SWAP1 DUP4 PUSH1 0x3 DUP2 GT ISZERO PUSH2 0x7E2 JUMPI PUSH2 0x7E1 PUSH2 0xC21 JUMP JUMPDEST JUMPDEST MUL OR SWAP1 SSTORE POP PUSH1 0xA0 DUP3 ADD MLOAD DUP2 PUSH1 0x4 ADD SSTORE SWAP1 POP POP PUSH1 0x1 PUSH1 0x0 DUP2 SLOAD DUP1 SWAP3 SWAP2 SWAP1 PUSH2 0x807 SWAP1 PUSH2 0x139A JUMP JUMPDEST SWAP2 SWAP1 POP SSTORE POP POP POP POP POP POP POP POP JUMP JUMPDEST PUSH1 0x60 PUSH1 0x0 DUP1 PUSH1 0x0 DUP1 PUSH1 0x0 DUP1 PUSH1 0x0 DUP1 DUP10 DUP2 MSTORE PUSH1 0x20 ADD SWAP1 DUP2 MSTORE PUSH1 0x20 ADD PUSH1 0x0 KECCAK256 SWAP1 POP DUP1 PUSH1 0x0 ADD DUP2 PUSH1 0x1 ADD SLOAD DUP3 PUSH1 0x2 ADD SLOAD DUP4 PUSH1 0x3 ADD PUSH1 0x0 SWAP1 SLOAD SWAP1 PUSH2 0x100 EXP SWAP1 DIV PUSH1 0xFF AND DUP5 PUSH1 0x3 ADD PUSH1 0x1 SWAP1 SLOAD SWAP1 PUSH2 0x100 EXP SWAP1 DIV PUSH1 0xFF AND DUP6 PUSH1 0x4 ADD SLOAD DUP6 DUP1 SLOAD PUSH2 0x877 SWAP1 PUSH2 0x12AE JUMP JUMPDEST DUP1 PUSH1 0x1F ADD PUSH1 0x20 DUP1 SWAP2 DIV MUL PUSH1 0x20 ADD PUSH1 0x40 MLOAD SWAP1 DUP2 ADD PUSH1 0x40 MSTORE DUP1 SWAP3 SWAP2 SWAP1 DUP2 DUP2 MSTORE PUSH1 0x20 ADD DUP3 DUP1 SLOAD PUSH2 0x8A3 SWAP1 PUSH2 0x12AE JUMP JUMPDEST DUP1 ISZERO PUSH2 0x8F0 JUMPI DUP1 PUSH1 0x1F LT PUSH2 0x8C5 JUMPI PUSH2 0x100 DUP1 DUP4 SLOAD DIV MUL DUP4 MSTORE SWAP2 PUSH1 0x20 ADD SWAP2 PUSH2 0x8F0 JUMP JUMPDEST DUP3 ADD SWAP2 SWAP1 PUSH1 0x0 MSTORE PUSH1 0x20 PUSH1 0x0 KECCAK256 SWAP1 JUMPDEST DUP2 SLOAD DUP2 MSTORE SWAP1 PUSH1 0x1 ADD SWAP1 PUSH1 0x20 ADD DUP1 DUP4 GT PUSH2 0x8D3 JUMPI DUP3 SWAP1 SUB PUSH1 0x1F AND DUP3 ADD SWAP2 JUMPDEST POP POP POP POP POP SWAP6 POP SWAP7 POP SWAP7 POP SWAP7 POP SWAP7 POP SWAP7 POP SWAP7 POP POP SWAP2 SWAP4 SWAP6 POP SWAP2 SWAP4 SWAP6 JUMP JUMPDEST PUSH1 0x0 DUP1 PUSH1 0x0 SWAP1 POP PUSH1 0x0 PUSH1 0x1 SWAP1 POP JUMPDEST PUSH1 0x1 SLOAD DUP2 GT PUSH2 0x993 JUMPI DUP4 PUSH1 0x3 DUP2 GT ISZERO PUSH2 0x937 JUMPI PUSH2 0x936 PUSH2 0xC21 JUMP JUMPDEST JUMPDEST PUSH1 0x0 DUP1 DUP4 DUP2 MSTORE PUSH1 0x20 ADD SWAP1 DUP2 MSTORE PUSH1 0x20 ADD PUSH1 0x0 KECCAK256 PUSH1 0x3 ADD PUSH1 0x0 SWAP1 SLOAD SWAP1 PUSH2 0x100 EXP SWAP1 DIV PUSH1 0xFF AND PUSH1 0x3 DUP2 GT ISZERO PUSH2 0x96C JUMPI PUSH2 0x96B PUSH2 0xC21 JUMP JUMPDEST JUMPDEST SUB PUSH2 0x980 JUMPI DUP2 DUP1 PUSH2 0x97C SWAP1 PUSH2 0x139A JUMP JUMPDEST SWAP3 POP POP JUMPDEST DUP1 DUP1 PUSH2 0x98B SWAP1 PUSH2 0x139A JUMP JUMPDEST SWAP2 POP POP PUSH2 0x91B JUMP JUMPDEST POP DUP1 SWAP2 POP POP SWAP2 SWAP1 POP JUMP JUMPDEST PUSH1 0x40 MLOAD DUP1 PUSH1 0xC0 ADD PUSH1 0x40 MSTORE DUP1 DUP8 DUP2 MSTORE PUSH1 0x20 ADD DUP7 DUP2 MSTORE PUSH1 0x20 ADD DUP6 DUP2 MSTORE PUSH1 0x20 ADD DUP5 PUSH1 0x3 DUP2 GT ISZERO PUSH2 0x9CD JUMPI PUSH2 0x9CC PUSH2 0xC21 JUMP JUMPDEST JUMPDEST DUP2 MSTORE PUSH1 0x20 ADD DUP4 PUSH1 0x3 DUP2 GT ISZERO PUSH2 0x9E5 JUMPI PUSH2 0x9E4 PUSH2 0xC21 JUMP JUMPDEST JUMPDEST DUP2 MSTORE PUSH1 0x20 ADD DUP3 DUP2 MSTORE POP PUSH1 0x0 DUP1 DUP10 DUP2 MSTORE PUSH1 0x20 ADD SWAP1 DUP2 MSTORE PUSH1 0x20 ADD PUSH1 0x0 KECCAK256 PUSH1 0x0 DUP3 ADD MLOAD DUP2 PUSH1 0x0 ADD SWAP1 DUP2 PUSH2 0xA15 SWAP2 SWAP1 PUSH2 0x158E JUMP JUMPDEST POP PUSH1 0x20 DUP3 ADD MLOAD DUP2 PUSH1 0x1 ADD SSTORE PUSH1 0x40 DUP3 ADD MLOAD DUP2 PUSH1 0x2 ADD SSTORE PUSH1 0x60 DUP3 ADD MLOAD DUP2 PUSH1 0x3 ADD PUSH1 0x0 PUSH2 0x100 EXP DUP2 SLOAD DUP2 PUSH1 0xFF MUL NOT AND SWAP1 DUP4 PUSH1 0x3 DUP2 GT ISZERO PUSH2 0xA55 JUMPI PUSH2 0xA54 PUSH2 0xC21 JUMP JUMPDEST JUMPDEST MUL OR SWAP1 SSTORE POP PUSH1 0x80 DUP3 ADD MLOAD DUP2 PUSH1 0x3 ADD PUSH1 0x1 PUSH2 0x100 EXP DUP2 SLOAD DUP2 PUSH1 0xFF MUL NOT AND SWAP1 DUP4 PUSH1 0x3 DUP2 GT ISZERO PUSH2 0xA85 JUMPI PUSH2 0xA84 PUSH2 0xC21 JUMP JUMPDEST JUMPDEST MUL OR SWAP1 SSTORE POP PUSH1 0xA0 DUP3 ADD MLOAD DUP2 PUSH1 0x4 ADD SSTORE SWAP1 POP POP POP POP POP POP POP POP POP JUMP JUMPDEST PUSH1 0x40 MLOAD DUP1 PUSH1 0x60 ADD PUSH1 0x40 MSTORE DUP1 PUSH1 0x3 SWAP1 JUMPDEST PUSH1 0x60 DUP2 MSTORE PUSH1 0x20 ADD SWAP1 PUSH1 0x1 SWAP1 SUB SWAP1 DUP2 PUSH2 0xAAF JUMPI SWAP1 POP POP SWAP1 JUMP JUMPDEST PUSH1 0x40 MLOAD DUP1 PUSH1 0x60 ADD PUSH1 0x40 MSTORE DUP1 PUSH1 0x3 SWAP1 PUSH1 0x20 DUP3 MUL DUP1 CALLDATASIZE DUP4 CALLDATACOPY DUP1 DUP3 ADD SWAP2 POP POP SWAP1 POP POP SWAP1 JUMP JUMPDEST PUSH1 0x40 MLOAD DUP1 PUSH1 0x60 ADD PUSH1 0x40 MSTORE DUP1 PUSH1 0x3 SWAP1 PUSH1 0x20 DUP3 MUL DUP1 CALLDATASIZE DUP4 CALLDATACOPY DUP1 DUP3 ADD SWAP2 POP POP SWAP1 POP POP SWAP1 JUMP JUMPDEST PUSH1 0x0 PUSH1 0x40 MLOAD SWAP1 POP SWAP1 JUMP JUMPDEST PUSH1 0x0 DUP1 REVERT JUMPDEST PUSH1 0x0 DUP1 REVERT JUMPDEST PUSH1 0x0 DUP2 SWAP1 POP SWAP2 SWAP1 POP JUMP JUMPDEST PUSH2 0xB32 DUP2 PUSH2 0xB1F JUMP JUMPDEST DUP2 EQ PUSH2 0xB3D JUMPI PUSH1 0x0 DUP1 REVERT JUMPDEST POP JUMP JUMPDEST PUSH1 0x0 DUP2 CALLDATALOAD SWAP1 POP PUSH2 0xB4F DUP2 PUSH2 0xB29 JUMP JUMPDEST SWAP3 SWAP2 POP POP JUMP JUMPDEST PUSH1 0x0 PUSH1 0x20 DUP3 DUP5 SUB SLT ISZERO PUSH2 0xB6B JUMPI PUSH2 0xB6A PUSH2 0xB15 JUMP JUMPDEST JUMPDEST PUSH1 0x0 PUSH2 0xB79 DUP5 DUP3 DUP6 ADD PUSH2 0xB40 JUMP JUMPDEST SWAP2 POP POP SWAP3 SWAP2 POP POP JUMP JUMPDEST PUSH1 0x0 DUP2 MLOAD SWAP1 POP SWAP2 SWAP1 POP JUMP JUMPDEST PUSH1 0x0 DUP3 DUP3 MSTORE PUSH1 0x20 DUP3 ADD SWAP1 POP SWAP3 SWAP2 POP POP JUMP JUMPDEST PUSH1 0x0 JUMPDEST DUP4 DUP2 LT ISZERO PUSH2 0xBBC JUMPI DUP1 DUP3 ADD MLOAD DUP2 DUP5 ADD MSTORE PUSH1 0x20 DUP2 ADD SWAP1 POP PUSH2 0xBA1 JUMP JUMPDEST PUSH1 0x0 DUP5 DUP5 ADD MSTORE POP POP POP POP JUMP JUMPDEST PUSH1 0x0 PUSH1 0x1F NOT PUSH1 0x1F DUP4 ADD AND SWAP1 POP SWAP2 SWAP1 POP JUMP JUMPDEST PUSH1 0x0 PUSH2 0xBE4 DUP3 PUSH2 0xB82 JUMP JUMPDEST PUSH2 0xBEE DUP2 DUP6 PUSH2 0xB8D JUMP JUMPDEST SWAP4 POP PUSH2 0xBFE DUP2 DUP6 PUSH1 0x20 DUP7 ADD PUSH2 0xB9E JUMP JUMPDEST PUSH2 0xC07 DUP2 PUSH2 0xBC8 JUMP JUMPDEST DUP5 ADD SWAP2 POP POP SWAP3 SWAP2 POP POP JUMP JUMPDEST PUSH2 0xC1B DUP2 PUSH2 0xB1F JUMP JUMPDEST DUP3 MSTORE POP POP JUMP JUMPDEST PUSH32 0x4E487B7100000000000000000000000000000000000000000000000000000000 PUSH1 0x0 MSTORE PUSH1 0x21 PUSH1 0x4 MSTORE PUSH1 0x24 PUSH1 0x0 REVERT JUMPDEST PUSH1 0x4 DUP2 LT PUSH2 0xC61 JUMPI PUSH2 0xC60 PUSH2 0xC21 JUMP JUMPDEST JUMPDEST POP JUMP JUMPDEST PUSH1 0x0 DUP2 SWAP1 POP PUSH2 0xC72 DUP3 PUSH2 0xC50 JUMP JUMPDEST SWAP2 SWAP1 POP JUMP JUMPDEST PUSH1 0x0 PUSH2 0xC82 DUP3 PUSH2 0xC64 JUMP JUMPDEST SWAP1 POP SWAP2 SWAP1 POP JUMP JUMPDEST PUSH2 0xC92 DUP2 PUSH2 0xC77 JUMP JUMPDEST DUP3 MSTORE POP POP JUMP JUMPDEST PUSH1 0x4 DUP2 LT PUSH2 0xCA9 JUMPI PUSH2 0xCA8 PUSH2 0xC21 JUMP JUMPDEST JUMPDEST POP JUMP JUMPDEST PUSH1 0x0 DUP2 SWAP1 POP PUSH2 0xCBA DUP3 PUSH2 0xC98 JUMP JUMPDEST SWAP2 SWAP1 POP JUMP JUMPDEST PUSH1 0x0 PUSH2 0xCCA DUP3 PUSH2 0xCAC JUMP JUMPDEST SWAP1 POP SWAP2 SWAP1 POP JUMP JUMPDEST PUSH2 0xCDA DUP2 PUSH2 0xCBF JUMP JUMPDEST DUP3 MSTORE POP POP JUMP JUMPDEST PUSH1 0x0 PUSH1 0xC0 DUP3 ADD SWAP1 POP DUP2 DUP2 SUB PUSH1 0x0 DUP4 ADD MSTORE PUSH2 0xCFA DUP2 DUP10 PUSH2 0xBD9 JUMP JUMPDEST SWAP1 POP PUSH2 0xD09 PUSH1 0x20 DUP4 ADD DUP9 PUSH2 0xC12 JUMP JUMPDEST PUSH2 0xD16 PUSH1 0x40 DUP4 ADD DUP8 PUSH2 0xC12 JUMP JUMPDEST PUSH2 0xD23 PUSH1 0x60 DUP4 ADD DUP7 PUSH2 0xC89 JUMP JUMPDEST PUSH2 0xD30 PUSH1 0x80 DUP4 ADD DUP6 PUSH2 0xCD1 JUMP JUMPDEST PUSH2 0xD3D PUSH1 0xA0 DUP4 ADD DUP5 PUSH2 0xC12 JUMP JUMPDEST SWAP8 SWAP7 POP POP POP POP POP POP POP JUMP JUMPDEST PUSH1 0x0 PUSH1 0x3 SWAP1 POP SWAP2 SWAP1 POP JUMP JUMPDEST PUSH1 0x0 DUP2 SWAP1 POP SWAP3 SWAP2 POP POP JUMP JUMPDEST PUSH1 0x0 DUP2 SWAP1 POP SWAP2 SWAP1 POP JUMP JUMPDEST PUSH1 0x0 DUP3 DUP3 MSTORE PUSH1 0x20 DUP3 ADD SWAP1 POP SWAP3 SWAP2 POP POP JUMP JUMPDEST PUSH1 0x0 PUSH2 0xD84 DUP3 PUSH2 0xB82 JUMP JUMPDEST PUSH2 0xD8E DUP2 DUP6 PUSH2 0xD68 JUMP JUMPDEST SWAP4 POP PUSH2 0xD9E DUP2 DUP6 PUSH1 0x20 DUP7 ADD PUSH2 0xB9E JUMP JUMPDEST PUSH2 0xDA7 DUP2 PUSH2 0xBC8 JUMP JUMPDEST DUP5 ADD SWAP2 POP POP SWAP3 SWAP2 POP POP JUMP JUMPDEST PUSH1 0x0 PUSH2 0xDBE DUP4 DUP4 PUSH2 0xD79 JUMP JUMPDEST SWAP1 POP SWAP3 SWAP2 POP POP JUMP JUMPDEST PUSH1 0x0 PUSH1 0x20 DUP3 ADD SWAP1 POP SWAP2 SWAP1 POP JUMP JUMPDEST PUSH1 0x0 PUSH2 0xDDE DUP3 PUSH2 0xD48 JUMP JUMPDEST PUSH2 0xDE8 DUP2 DUP6 PUSH2 0xD53 JUMP JUMPDEST SWAP4 POP DUP4 PUSH1 0x20 DUP3 MUL DUP6 ADD PUSH2 0xDFA DUP6 PUSH2 0xD5E JUMP JUMPDEST DUP1 PUSH1 0x0 JUMPDEST DUP6 DUP2 LT ISZERO PUSH2 0xE36 JUMPI DUP5 DUP5 SUB DUP10 MSTORE DUP2 MLOAD PUSH2 0xE17 DUP6 DUP3 PUSH2 0xDB2 JUMP JUMPDEST SWAP5 POP PUSH2 0xE22 DUP4 PUSH2 0xDC6 JUMP JUMPDEST SWAP3 POP PUSH1 0x20 DUP11 ADD SWAP10 POP POP PUSH1 0x1 DUP2 ADD SWAP1 POP PUSH2 0xDFE JUMP JUMPDEST POP DUP3 SWAP8 POP DUP8 SWAP6 POP POP POP POP POP POP SWAP3 SWAP2 POP POP JUMP JUMPDEST PUSH1 0x0 PUSH1 0x3 SWAP1 POP SWAP2 SWAP1 POP JUMP JUMPDEST PUSH1 0x0 DUP2 SWAP1 POP SWAP3 SWAP2 POP POP JUMP JUMPDEST PUSH1 0x0 DUP2 SWAP1 POP SWAP2 SWAP1 POP JUMP JUMPDEST PUSH2 0xE71 DUP2 PUSH2 0xB1F JUMP JUMPDEST DUP3 MSTORE POP POP JUMP JUMPDEST PUSH1 0x0 PUSH2 0xE83 DUP4 DUP4 PUSH2 0xE68 JUMP JUMPDEST PUSH1 0x20 DUP4 ADD SWAP1 POP SWAP3 SWAP2 POP POP JUMP JUMPDEST PUSH1 0x0 PUSH1 0x20 DUP3 ADD SWAP1 POP SWAP2 SWAP1 POP JUMP JUMPDEST PUSH2 0xEA5 DUP2 PUSH2 0xE48 JUMP JUMPDEST PUSH2 0xEAF DUP2 DUP5 PUSH2 0xE53 JUMP JUMPDEST SWAP3 POP PUSH2 0xEBA DUP3 PUSH2 0xE5E JUMP JUMPDEST DUP1 PUSH1 0x0 JUMPDEST DUP4 DUP2 LT ISZERO PUSH2 0xEEB JUMPI DUP2 MLOAD PUSH2 0xED2 DUP8 DUP3 PUSH2 0xE77 JUMP JUMPDEST SWAP7 POP PUSH2 0xEDD DUP4 PUSH2 0xE8F JUMP JUMPDEST SWAP3 POP POP PUSH1 0x1 DUP2 ADD SWAP1 POP PUSH2 0xEBE JUMP JUMPDEST POP POP POP POP POP POP JUMP JUMPDEST PUSH1 0x0 PUSH1 0x3 SWAP1 POP SWAP2 SWAP1 POP JUMP JUMPDEST PUSH1 0x0 DUP2 SWAP1 POP SWAP3 SWAP2 POP POP JUMP JUMPDEST PUSH1 0x0 DUP2 SWAP1 POP SWAP2 SWAP1 POP JUMP JUMPDEST PUSH2 0xF1C DUP2 PUSH2 0xCBF JUMP JUMPDEST DUP3 MSTORE POP POP JUMP JUMPDEST PUSH1 0x0 PUSH2 0xF2E DUP4 DUP4 PUSH2 0xF13 JUMP JUMPDEST PUSH1 0x20 DUP4 ADD SWAP1 POP SWAP3 SWAP2 POP POP JUMP JUMPDEST PUSH1 0x0 PUSH1 0x20 DUP3 ADD SWAP1 POP SWAP2 SWAP1 POP JUMP JUMPDEST PUSH2 0xF50 DUP2 PUSH2 0xEF3 JUMP JUMPDEST PUSH2 0xF5A DUP2 DUP5 PUSH2 0xEFE JUMP JUMPDEST SWAP3 POP PUSH2 0xF65 DUP3 PUSH2 0xF09 JUMP JUMPDEST DUP1 PUSH1 0x0 JUMPDEST DUP4 DUP2 LT ISZERO PUSH2 0xF96 JUMPI DUP2 MLOAD PUSH2 0xF7D DUP8 DUP3 PUSH2 0xF22 JUMP JUMPDEST SWAP7 POP PUSH2 0xF88 DUP4 PUSH2 0xF3A JUMP JUMPDEST SWAP3 POP POP PUSH1 0x1 DUP2 ADD SWAP1 POP PUSH2 0xF69 JUMP JUMPDEST POP POP POP POP POP POP JUMP JUMPDEST PUSH1 0x0 PUSH2 0x1A0 DUP3 ADD SWAP1 POP DUP2 DUP2 SUB PUSH1 0x0 DUP4 ADD MSTORE PUSH2 0xFB9 DUP2 DUP9 PUSH2 0xDD3 JUMP JUMPDEST SWAP1 POP PUSH2 0xFC8 PUSH1 0x20 DUP4 ADD DUP8 PUSH2 0xE9C JUMP JUMPDEST PUSH2 0xFD5 PUSH1 0x80 DUP4 ADD DUP7 PUSH2 0xE9C JUMP JUMPDEST PUSH2 0xFE2 PUSH1 0xE0 DUP4 ADD DUP6 PUSH2 0xF47 JUMP JUMPDEST PUSH2 0xFF0 PUSH2 0x140 DUP4 ADD DUP5 PUSH2 0xE9C JUMP JUMPDEST SWAP7 SWAP6 POP POP POP POP POP POP JUMP JUMPDEST PUSH1 0x0 DUP1 REVERT JUMPDEST PUSH1 0x0 DUP1 REVERT JUMPDEST PUSH32 0x4E487B7100000000000000000000000000000000000000000000000000000000 PUSH1 0x0 MSTORE PUSH1 0x41 PUSH1 0x4 MSTORE PUSH1 0x24 PUSH1 0x0 REVERT JUMPDEST PUSH2 0x103C DUP3 PUSH2 0xBC8 JUMP JUMPDEST DUP2 ADD DUP2 DUP2 LT PUSH8 0xFFFFFFFFFFFFFFFF DUP3 GT OR ISZERO PUSH2 0x105B JUMPI PUSH2 0x105A PUSH2 0x1004 JUMP JUMPDEST JUMPDEST DUP1 PUSH1 0x40 MSTORE POP POP POP JUMP JUMPDEST PUSH1 0x0 PUSH2 0x106E PUSH2 0xB0B JUMP JUMPDEST SWAP1 POP PUSH2 0x107A DUP3 DUP3 PUSH2 0x1033 JUMP JUMPDEST SWAP2 SWAP1 POP JUMP JUMPDEST PUSH1 0x0 PUSH8 0xFFFFFFFFFFFFFFFF DUP3 GT ISZERO PUSH2 0x109A JUMPI PUSH2 0x1099 PUSH2 0x1004 JUMP JUMPDEST JUMPDEST PUSH2 0x10A3 DUP3 PUSH2 0xBC8 JUMP JUMPDEST SWAP1 POP PUSH1 0x20 DUP2 ADD SWAP1 POP SWAP2 SWAP1 POP JUMP JUMPDEST DUP3 DUP2 DUP4 CALLDATACOPY PUSH1 0x0 DUP4 DUP4 ADD MSTORE POP POP POP JUMP JUMPDEST PUSH1 0x0 PUSH2 0x10D2 PUSH2 0x10CD DUP5 PUSH2 0x107F JUMP JUMPDEST PUSH2 0x1064 JUMP JUMPDEST SWAP1 POP DUP3 DUP2 MSTORE PUSH1 0x20 DUP2 ADD DUP5 DUP5 DUP5 ADD GT ISZERO PUSH2 0x10EE JUMPI PUSH2 0x10ED PUSH2 0xFFF JUMP JUMPDEST JUMPDEST PUSH2 0x10F9 DUP5 DUP3 DUP6 PUSH2 0x10B0 JUMP JUMPDEST POP SWAP4 SWAP3 POP POP POP JUMP JUMPDEST PUSH1 0x0 DUP3 PUSH1 0x1F DUP4 ADD SLT PUSH2 0x1116 JUMPI PUSH2 0x1115 PUSH2 0xFFA JUMP JUMPDEST JUMPDEST DUP2 CALLDATALOAD PUSH2 0x1126 DUP5 DUP3 PUSH1 0x20 DUP7 ADD PUSH2 0x10BF JUMP JUMPDEST SWAP2 POP POP SWAP3 SWAP2 POP POP JUMP JUMPDEST PUSH1 0x4 DUP2 LT PUSH2 0x113C JUMPI PUSH1 0x0 DUP1 REVERT JUMPDEST POP JUMP JUMPDEST PUSH1 0x0 DUP2 CALLDATALOAD SWAP1 POP PUSH2 0x114E DUP2 PUSH2 0x112F JUMP JUMPDEST SWAP3 SWAP2 POP POP JUMP JUMPDEST PUSH1 0x4 DUP2 LT PUSH2 0x1161 JUMPI PUSH1 0x0 DUP1 REVERT JUMPDEST POP JUMP JUMPDEST PUSH1 0x0 DUP2 CALLDATALOAD SWAP1 POP PUSH2 0x1173 DUP2 PUSH2 0x1154 JUMP JUMPDEST SWAP3 SWAP2 POP POP JUMP JUMPDEST PUSH1 0x0 DUP1 PUSH1 0x0 DUP1 PUSH1 0x0 DUP1 PUSH1 0x0 PUSH1 0xE0 DUP9 DUP11 SUB SLT ISZERO PUSH2 0x1198 JUMPI PUSH2 0x1197 PUSH2 0xB15 JUMP JUMPDEST JUMPDEST PUSH1 0x0 PUSH2 0x11A6 DUP11 DUP3 DUP12 ADD PUSH2 0xB40 JUMP JUMPDEST SWAP8 POP POP PUSH1 0x20 DUP9 ADD CALLDATALOAD PUSH8 0xFFFFFFFFFFFFFFFF DUP2 GT ISZERO PUSH2 0x11C7 JUMPI PUSH2 0x11C6 PUSH2 0xB1A JUMP JUMPDEST JUMPDEST PUSH2 0x11D3 DUP11 DUP3 DUP12 ADD PUSH2 0x1101 JUMP JUMPDEST SWAP7 POP POP PUSH1 0x40 PUSH2 0x11E4 DUP11 DUP3 DUP12 ADD PUSH2 0xB40 JUMP JUMPDEST SWAP6 POP POP PUSH1 0x60 PUSH2 0x11F5 DUP11 DUP3 DUP12 ADD PUSH2 0xB40 JUMP JUMPDEST SWAP5 POP POP PUSH1 0x80 PUSH2 0x1206 DUP11 DUP3 DUP12 ADD PUSH2 0x113F JUMP JUMPDEST SWAP4 POP POP PUSH1 0xA0 PUSH2 0x1217 DUP11 DUP3 DUP12 ADD PUSH2 0x1164 JUMP JUMPDEST SWAP3 POP POP PUSH1 0xC0 PUSH2 0x1228 DUP11 DUP3 DUP12 ADD PUSH2 0xB40 JUMP JUMPDEST SWAP2 POP POP SWAP3 SWAP6 SWAP9 SWAP2 SWAP5 SWAP8 POP SWAP3 SWAP6 POP JUMP JUMPDEST PUSH1 0x0 PUSH1 0x20 DUP3 DUP5 SUB SLT ISZERO PUSH2 0x124D JUMPI PUSH2 0x124C PUSH2 0xB15 JUMP JUMPDEST JUMPDEST PUSH1 0x0 PUSH2 0x125B DUP5 DUP3 DUP6 ADD PUSH2 0x113F JUMP JUMPDEST SWAP2 POP POP SWAP3 SWAP2 POP POP JUMP JUMPDEST PUSH1 0x0 PUSH1 0x20 DUP3 ADD SWAP1 POP PUSH2 0x1279 PUSH1 0x0 DUP4 ADD DUP5 PUSH2 0xC12 JUMP JUMPDEST SWAP3 SWAP2 POP POP JUMP JUMPDEST PUSH32 0x4E487B7100000000000000000000000000000000000000000000000000000000 PUSH1 0x0 MSTORE PUSH1 0x22 PUSH1 0x4 MSTORE PUSH1 0x24 PUSH1 0x0 REVERT JUMPDEST PUSH1 0x0 PUSH1 0x2 DUP3 DIV SWAP1 POP PUSH1 0x1 DUP3 AND DUP1 PUSH2 0x12C6 JUMPI PUSH1 0x7F DUP3 AND SWAP2 POP JUMPDEST PUSH1 0x20 DUP3 LT DUP2 SUB PUSH2 0x12D9 JUMPI PUSH2 0x12D8 PUSH2 0x127F JUMP JUMPDEST JUMPDEST POP SWAP2 SWAP1 POP JUMP JUMPDEST PUSH32 0x4E487B7100000000000000000000000000000000000000000000000000000000 PUSH1 0x0 MSTORE PUSH1 0x32 PUSH1 0x4 MSTORE PUSH1 0x24 PUSH1 0x0 REVERT JUMPDEST PUSH32 0x4E487B7100000000000000000000000000000000000000000000000000000000 PUSH1 0x0 MSTORE PUSH1 0x11 PUSH1 0x4 MSTORE PUSH1 0x24 PUSH1 0x0 REVERT JUMPDEST PUSH1 0x0 PUSH2 0x1348 DUP3 PUSH2 0xB1F JUMP JUMPDEST SWAP2 POP PUSH2 0x1353 DUP4 PUSH2 0xB1F JUMP JUMPDEST SWAP3 POP DUP3 DUP3 SUB SWAP1 POP DUP2 DUP2 GT ISZERO PUSH2 0x136B JUMPI PUSH2 0x136A PUSH2 0x130E JUMP JUMPDEST JUMPDEST SWAP3 SWAP2 POP POP JUMP JUMPDEST PUSH1 0x0 PUSH2 0x137C DUP3 PUSH2 0xB1F JUMP JUMPDEST SWAP2 POP PUSH1 0x0 DUP3 SUB PUSH2 0x138F JUMPI PUSH2 0x138E PUSH2 0x130E JUMP JUMPDEST JUMPDEST PUSH1 0x1 DUP3 SUB SWAP1 POP SWAP2 SWAP1 POP JUMP JUMPDEST PUSH1 0x0 PUSH2 0x13A5 DUP3 PUSH2 0xB1F JUMP JUMPDEST SWAP2 POP PUSH32 0xFFFFFFFFFFFFFFFFFFFFFFFFFFFFFFFFFFFFFFFFFFFFFFFFFFFFFFFFFFFFFFFF DUP3 SUB PUSH2 0x13D7 JUMPI PUSH2 0x13D6 PUSH2 0x130E JUMP JUMPDEST JUMPDEST PUSH1 0x1 DUP3 ADD SWAP1 POP SWAP2 SWAP1 POP JUMP JUMPDEST PUSH1 0x0 DUP2 SWAP1 POP DUP2 PUSH1 0x0 MSTORE PUSH1 0x20 PUSH1 0x0 KECCAK256 SWAP1 POP SWAP2 SWAP1 POP JUMP JUMPDEST PUSH1 0x0 PUSH1 0x20 PUSH1 0x1F DUP4 ADD DIV SWAP1 POP SWAP2 SWAP1 POP JUMP JUMPDEST PUSH1 0x0 DUP3 DUP3 SHL SWAP1 POP SWAP3 SWAP2 POP POP JUMP JUMPDEST PUSH1 0x0 PUSH1 0x8 DUP4 MUL PUSH2 0x1444 PUSH32 0xFFFFFFFFFFFFFFFFFFFFFFFFFFFFFFFFFFFFFFFFFFFFFFFFFFFFFFFFFFFFFFFF DUP3 PUSH2 0x1407 JUMP JUMPDEST PUSH2 0x144E DUP7 DUP4 PUSH2 0x1407 JUMP JUMPDEST SWAP6 POP DUP1 NOT DUP5 AND SWAP4 POP DUP1 DUP7 AND DUP5 OR SWAP3 POP POP POP SWAP4 SWAP3 POP POP POP JUMP JUMPDEST PUSH1 0x0 DUP2 SWAP1 POP SWAP2 SWAP1 POP JUMP JUMPDEST PUSH1 0x0 PUSH2 0x148B PUSH2 0x1486 PUSH2 0x1481 DUP5 PUSH2 0xB1F JUMP JUMPDEST PUSH2 0x1466 JUMP JUMPDEST PUSH2 0xB1F JUMP JUMPDEST SWAP1 POP SWAP2 SWAP1 POP JUMP JUMPDEST PUSH1 0x0 DUP2 SWAP1 POP SWAP2 SWAP1 POP JUMP JUMPDEST PUSH2 0x14A5 DUP4 PUSH2 0x1470 JUMP JUMPDEST PUSH2 0x14B9 PUSH2 0x14B1 DUP3 PUSH2 0x1492 JUMP JUMPDEST DUP5 DUP5 SLOAD PUSH2 0x1414 JUMP JUMPDEST DUP3 SSTORE POP POP POP POP JUMP JUMPDEST PUSH1 0x0 SWAP1 JUMP JUMPDEST PUSH2 0x14CE PUSH2 0x14C1 JUMP JUMPDEST PUSH2 0x14D9 DUP2 DUP5 DUP5 PUSH2 0x149C JUMP JUMPDEST POP POP POP JUMP JUMPDEST JUMPDEST DUP2 DUP2 LT ISZERO PUSH2 0x14FD JUMPI PUSH2 0x14F2 PUSH1 0x0 DUP3 PUSH2 0x14C6 JUMP JUMPDEST PUSH1 0x1 DUP2 ADD SWAP1 POP PUSH2 0x14DF JUMP JUMPDEST POP POP JUMP JUMPDEST PUSH1 0x1F DUP3 GT ISZERO PUSH2 0x1542 JUMPI PUSH2 0x1513 DUP2 PUSH2 0x13E2 JUMP JUMPDEST PUSH2 0x151C DUP5 PUSH2 0x13F7 JUMP JUMPDEST DUP2 ADD PUSH1 0x20 DUP6 LT ISZERO PUSH2 0x152B JUMPI DUP2 SWAP1 POP JUMPDEST PUSH2 0x153F PUSH2 0x1537 DUP6 PUSH2 0x13F7 JUMP JUMPDEST DUP4 ADD DUP3 PUSH2 0x14DE JUMP JUMPDEST POP POP JUMPDEST POP POP POP JUMP JUMPDEST PUSH1 0x0 DUP3 DUP3 SHR SWAP1 POP SWAP3 SWAP2 POP POP JUMP JUMPDEST PUSH1 0x0 PUSH2 0x1565 PUSH1 0x0 NOT DUP5 PUSH1 0x8 MUL PUSH2 0x1547 JUMP JUMPDEST NOT DUP1 DUP4 AND SWAP2 POP POP SWAP3 SWAP2 POP POP JUMP JUMPDEST PUSH1 0x0 PUSH2 0x157E DUP4 DUP4 PUSH2 0x1554 JUMP JUMPDEST SWAP2 POP DUP3 PUSH1 0x2 MUL DUP3 OR SWAP1 POP SWAP3 SWAP2 POP POP JUMP JUMPDEST PUSH2 0x1597 DUP3 PUSH2 0xB82 JUMP JUMPDEST PUSH8 0xFFFFFFFFFFFFFFFF DUP2 GT ISZERO PUSH2 0x15B0 JUMPI PUSH2 0x15AF PUSH2 0x1004 JUMP JUMPDEST JUMPDEST PUSH2 0x15BA DUP3 SLOAD PUSH2 0x12AE JUMP JUMPDEST PUSH2 0x15C5 DUP3 DUP3 DUP6 PUSH2 0x1501 JUMP JUMPDEST PUSH1 0x0 PUSH1 0x20 SWAP1 POP PUSH1 0x1F DUP4 GT PUSH1 0x1 DUP2 EQ PUSH2 0x15F8 JUMPI PUSH1 0x0 DUP5 ISZERO PUSH2 0x15E6 JUMPI DUP3 DUP8 ADD MLOAD SWAP1 POP JUMPDEST PUSH2 0x15F0 DUP6 DUP3 PUSH2 0x1572 JUMP JUMPDEST DUP7 SSTORE POP PUSH2 0x1658 JUMP JUMPDEST PUSH1 0x1F NOT DUP5 AND PUSH2 0x1606 DUP7 PUSH2 0x13E2 JUMP JUMPDEST PUSH1 0x0 JUMPDEST DUP3 DUP2 LT ISZERO PUSH2 0x162E JUMPI DUP5 DUP10 ADD MLOAD DUP3 SSTORE PUSH1 0x1 DUP3 ADD SWAP2 POP PUSH1 0x20 DUP6 ADD SWAP5 POP PUSH1 0x20 DUP2 ADD SWAP1 POP PUSH2 0x1609 JUMP JUMPDEST DUP7 DUP4 LT ISZERO PUSH2 0x164B JUMPI DUP5 DUP10 ADD MLOAD PUSH2 0x1647 PUSH1 0x1F DUP10 AND DUP3 PUSH2 0x1554 JUMP JUMPDEST DUP4 SSTORE POP JUMPDEST PUSH1 0x1 PUSH1 0x2 DUP9 MUL ADD DUP9 SSTORE POP POP POP JUMPDEST POP POP POP POP POP POP JUMP INVALID LOG2 PUSH5 0x6970667358 0x22 SLT KECCAK256 SWAP11 MUL 0xEE 0xC5 0xF7 0x2C SWAP12 ADDRESS PUSH17 0xF4C65A156B8DD0CD7841228C3FA7151E4E 0x4E SLOAD PUSH25 0x6ADD8464736F6C634300081200330000000000000000000000 "
		},
		"gasEstimates": {
			"creation": {
				"codeDepositCost": "1156400",
				"executionCost": "1200",
				"totalCost": "1157600"
			},
			"external": {
				"RegisterStudents(uint256,string,uint256,uint256,uint8,uint8,uint256)": "infinite",
				"Retrieve(uint256)": "infinite",
				"UpdateStudentInfo(uint256,string,uint256,uint256,uint8,uint8,uint256)": "infinite",
				"getCount(uint8)": "infinite",
				"getTop3BlockchainAchievers()": "infinite",
				"students(uint256)": "infinite"
			}
		},
		"methodIdentifiers": {
			"RegisterStudents(uint256,string,uint256,uint256,uint8,uint8,uint256)": "1f713eb9",
			"Retrieve(uint256)": "7168014d",
			"UpdateStudentInfo(uint256,string,uint256,uint256,uint8,uint8,uint256)": "ea81e5ad",
			"getCount(uint8)": "a819dfbb",
			"getTop3BlockchainAchievers()": "12b4e900",
			"students(uint256)": "06ead22e"
		}
	},
	"abi": [
		{
			"inputs": [
				{
					"internalType": "uint256",
					"name": "rollnumber",
					"type": "uint256"
				},
				{
					"internalType": "string",
					"name": "name",
					"type": "string"
				},
				{
					"internalType": "uint256",
					"name": "age",
					"type": "uint256"
				},
				{
					"internalType": "uint256",
					"name": "registrationDate",
					"type": "uint256"
				},
				{
					"internalType": "enum StudentRegistrationSystem.Department",
					"name": "department",
					"type": "uint8"
				},
				{
					"internalType": "enum StudentRegistrationSystem.Status",
					"name": "status",
					"type": "uint8"
				},
				{
					"internalType": "uint256",
					"name": "ObtainedMarks",
					"type": "uint256"
				}
			],
			"name": "RegisterStudents",
			"outputs": [],
			"stateMutability": "nonpayable",
			"type": "function"
		},
		{
			"inputs": [
				{
					"internalType": "uint256",
					"name": "rollnumber",
					"type": "uint256"
				}
			],
			"name": "Retrieve",
			"outputs": [
				{
					"internalType": "string",
					"name": "name",
					"type": "string"
				},
				{
					"internalType": "uint256",
					"name": "age",
					"type": "uint256"
				},
				{
					"internalType": "uint256",
					"name": "registrationDate",
					"type": "uint256"
				},
				{
					"internalType": "enum StudentRegistrationSystem.Department",
					"name": "department",
					"type": "uint8"
				},
				{
					"internalType": "enum StudentRegistrationSystem.Status",
					"name": "status",
					"type": "uint8"
				},
				{
					"internalType": "uint256",
					"name": "ObtainedMarks",
					"type": "uint256"
				}
			],
			"stateMutability": "view",
			"type": "function"
		},
		{
			"inputs": [
				{
					"internalType": "uint256",
					"name": "rollnumber",
					"type": "uint256"
				},
				{
					"internalType": "string",
					"name": "name",
					"type": "string"
				},
				{
					"internalType": "uint256",
					"name": "age",
					"type": "uint256"
				},
				{
					"internalType": "uint256",
					"name": "registrationDate",
					"type": "uint256"
				},
				{
					"internalType": "enum StudentRegistrationSystem.Department",
					"name": "department",
					"type": "uint8"
				},
				{
					"internalType": "enum StudentRegistrationSystem.Status",
					"name": "status",
					"type": "uint8"
				},
				{
					"internalType": "uint256",
					"name": "ObtainedMarks",
					"type": "uint256"
				}
			],
			"name": "UpdateStudentInfo",
			"outputs": [],
			"stateMutability": "nonpayable",
			"type": "function"
		},
		{
			"inputs": [
				{
					"internalType": "enum StudentRegistrationSystem.Department",
					"name": "_department",
					"type": "uint8"
				}
			],
			"name": "getCount",
			"outputs": [
				{
					"internalType": "uint256",
					"name": "",
					"type": "uint256"
				}
			],
			"stateMutability": "view",
			"type": "function"
		},
		{
			"inputs": [],
			"name": "getTop3BlockchainAchievers",
			"outputs": [
				{
					"internalType": "string[3]",
					"name": "names",
					"type": "string[3]"
				},
				{
					"internalType": "uint256[3]",
					"name": "ages",
					"type": "uint256[3]"
				},
				{
					"internalType": "uint256[3]",
					"name": "registrationDates",
					"type": "uint256[3]"
				},
				{
					"internalType": "enum StudentRegistrationSystem.Status[3]",
					"name": "statuses",
					"type": "uint8[3]"
				},
				{
					"internalType": "uint256[3]",
					"name": "obtainedMarks",
					"type": "uint256[3]"
				}
			],
			"stateMutability": "view",
			"type": "function"
		},
		{
			"inputs": [
				{
					"internalType": "uint256",
					"name": "",
					"type": "uint256"
				}
			],
			"name": "students",
			"outputs": [
				{
					"internalType": "string",
					"name": "name",
					"type": "string"
				},
				{
					"internalType": "uint256",
					"name": "age",
					"type": "uint256"
				},
				{
					"internalType": "uint256",
					"name": "registrationDate",
					"type": "uint256"
				},
				{
					"internalType": "enum StudentRegistrationSystem.Department",
					"name": "department",
					"type": "uint8"
				},
				{
					"internalType": "enum StudentRegistrationSystem.Status",
					"name": "status",
					"type": "uint8"
				},
				{
					"internalType": "uint256",
					"name": "ObtainedMarks",
					"type": "uint256"
				}
			],
			"stateMutability": "view",
			"type": "function"
		}
	]
}