{
	"data": {
		"bytecode": {
			"linkReferences": {},
			"object": "6080604052600160025534801561001557600080fd5b506117cd806100256000396000f3fe608060405234801561001057600080fd5b50600436106100885760003560e01c80637168014d1161005b5780637168014d1461011e5780639852bf8e14610153578063a819dfbb14610171578063ea81e5ad146101a157610088565b806306ead22e1461008d57806312b4e900146100c2578063537aa3fe146100e45780635fb8fa3414610102575b600080fd5b6100a760048036038101906100a29190610bf5565b6101bd565b6040516100b996959493929190610d80565b60405180910390f35b6100ca61029b565b6040516100db95949392919061103e565b60405180910390f35b6100ec61075c565b6040516100f9919061109a565b60405180910390f35b61011c60048036038101906101179190611234565b610762565b005b61013860048036038101906101339190610bf5565b610888565b60405161014a96959493929190610d80565b60405180910390f35b61015b610980565b604051610168919061109a565b60405180910390f35b61018b600480360381019061018691906112cb565b610986565b604051610198919061109a565b60405180910390f35b6101bb60048036038101906101b691906112f8565b610a16565b005b60006020528060005260406000206000915090508060000180546101e0906113e5565b80601f016020809104026020016040519081016040528092919081815260200182805461020c906113e5565b80156102595780601f1061022e57610100808354040283529160200191610259565b820191906000526020600020905b81548152906001019060200180831161023c57829003601f168201915b5050505050908060010154908060020154908060030160009054906101000a900460ff16908060030160019054906101000a900460ff16908060040154905086565b6102a3610b40565b6102ab610b67565b6102b3610b67565b6102bb610b89565b6102c3610b67565b6102cb610b67565b6000600190505b600154811161075357600080600083815260200190815260200160002090506001600381111561030557610304610cc1565b5b8160030160009054906101000a900460ff16600381111561032957610328610cc1565b5b14801561036b575060038081111561034457610343610cc1565b5b8160030160019054906101000a900460ff16600381111561036857610367610cc1565b5b14155b80156103ad57506001600381111561038657610385610cc1565b5b8160030160019054906101000a900460ff1660038111156103aa576103a9610cc1565b5b14155b1561073f5760005b600381101561073d578381600381106103d1576103d0611416565b5b60200201518260040154111561072a576000600290505b818111156105a857846001826103fe9190611474565b6003811061040f5761040e611416565b5b602002015185826003811061042757610426611416565b5b6020020181815250508960018261043e9190611474565b6003811061044f5761044e611416565b5b60200201518a826003811061046757610466611416565b5b60200201819052508860018261047d9190611474565b6003811061048e5761048d611416565b5b60200201518982600381106104a6576104a5611416565b5b602002018181525050876001826104bd9190611474565b600381106104ce576104cd611416565b5b60200201518882600381106104e6576104e5611416565b5b602002018181525050866001826104fd9190611474565b6003811061050e5761050d611416565b5b602002015187826003811061052657610525611416565b5b6020020190600381111561053d5761053c610cc1565b5b9081600381111561055157610550610cc1565b5b81525050856001826105639190611474565b6003811061057457610573611416565b5b602002015186826003811061058c5761058b611416565b5b60200201818152505080806105a0906114a8565b9150506103e8565b5081600401548482600381106105c1576105c0611416565b5b6020020181815250508160000180546105d9906113e5565b80601f0160208091040260200160405190810160405280929190818152602001828054610605906113e5565b80156106525780601f1061062757610100808354040283529160200191610652565b820191906000526020600020905b81548152906001019060200180831161063557829003601f168201915b505050505089826003811061066a57610669611416565b5b6020020181905250816001015488826003811061068a57610689611416565b5b60200201818152505081600201548782600381106106ab576106aa611416565b5b6020020181815250508160030160019054906101000a900460ff168682600381106106d9576106d8611416565b5b602002019060038111156106f0576106ef610cc1565b5b9081600381111561070457610703610cc1565b5b8152505081600401548582600381106107205761071f611416565b5b6020020181815250505b8080610735906114d1565b9150506103b5565b505b50808061074b906114d1565b9150506102d2565b50509091929394565b60025481565b600061076c610b19565b90506040518060c0016040528087815260200186815260200142815260200185600381111561079e5761079d610cc1565b5b81526020018460038111156107b6576107b5610cc1565b5b81526020018381525060008083815260200190815260200160002060008201518160000190816107e691906116c5565b50602082015181600101556040820151816002015560608201518160030160006101000a81548160ff0219169083600381111561082657610825610cc1565b5b021790555060808201518160030160016101000a81548160ff0219169083600381111561085657610855610cc1565b5b021790555060a082015181600401559050506001600081548092919061087b906114d1565b9190505550505050505050565b6060600080600080600080600080898152602001908152602001600020905080600001816001015482600201548360030160009054906101000a900460ff168460030160019054906101000a900460ff1685600401548580546108ea906113e5565b80601f0160208091040260200160405190810160405280929190818152602001828054610916906113e5565b80156109635780601f1061093857610100808354040283529160200191610963565b820191906000526020600020905b81548152906001019060200180831161094657829003601f168201915b505050505095509650965096509650965096505091939550919395565b60015481565b600080600090506000600190505b6001548111610a0c578360038111156109b0576109af610cc1565b5b60008083815260200190815260200160002060030160009054906101000a900460ff1660038111156109e5576109e4610cc1565b5b036109f95781806109f5906114d1565b9250505b8080610a04906114d1565b915050610994565b5080915050919050565b6040518060c00160405280878152602001868152602001858152602001846003811115610a4657610a45610cc1565b5b8152602001836003811115610a5e57610a5d610cc1565b5b8152602001828152506000808981526020019081526020016000206000820151816000019081610a8e91906116c5565b50602082015181600101556040820151816002015560608201518160030160006101000a81548160ff02191690836003811115610ace57610acd610cc1565b5b021790555060808201518160030160016101000a81548160ff02191690836003811115610afe57610afd610cc1565b5b021790555060a0820151816004015590505050505050505050565b600080600254905060026000815480929190610b34906114d1565b91905055508091505090565b60405180606001604052806003905b6060815260200190600190039081610b4f5790505090565b6040518060600160405280600390602082028036833780820191505090505090565b6040518060600160405280600390602082028036833780820191505090505090565b6000604051905090565b600080fd5b600080fd5b6000819050919050565b610bd281610bbf565b8114610bdd57600080fd5b50565b600081359050610bef81610bc9565b92915050565b600060208284031215610c0b57610c0a610bb5565b5b6000610c1984828501610be0565b91505092915050565b600081519050919050565b600082825260208201905092915050565b60005b83811015610c5c578082015181840152602081019050610c41565b60008484015250505050565b6000601f19601f8301169050919050565b6000610c8482610c22565b610c8e8185610c2d565b9350610c9e818560208601610c3e565b610ca781610c68565b840191505092915050565b610cbb81610bbf565b82525050565b7f4e487b7100000000000000000000000000000000000000000000000000000000600052602160045260246000fd5b60048110610d0157610d00610cc1565b5b50565b6000819050610d1282610cf0565b919050565b6000610d2282610d04565b9050919050565b610d3281610d17565b82525050565b60048110610d4957610d48610cc1565b5b50565b6000819050610d5a82610d38565b919050565b6000610d6a82610d4c565b9050919050565b610d7a81610d5f565b82525050565b600060c0820190508181036000830152610d9a8189610c79565b9050610da96020830188610cb2565b610db66040830187610cb2565b610dc36060830186610d29565b610dd06080830185610d71565b610ddd60a0830184610cb2565b979650505050505050565b600060039050919050565b600081905092915050565b6000819050919050565b600082825260208201905092915050565b6000610e2482610c22565b610e2e8185610e08565b9350610e3e818560208601610c3e565b610e4781610c68565b840191505092915050565b6000610e5e8383610e19565b905092915050565b6000602082019050919050565b6000610e7e82610de8565b610e888185610df3565b935083602082028501610e9a85610dfe565b8060005b85811015610ed65784840389528151610eb78582610e52565b9450610ec283610e66565b925060208a01995050600181019050610e9e565b50829750879550505050505092915050565b600060039050919050565b600081905092915050565b6000819050919050565b610f1181610bbf565b82525050565b6000610f238383610f08565b60208301905092915050565b6000602082019050919050565b610f4581610ee8565b610f4f8184610ef3565b9250610f5a82610efe565b8060005b83811015610f8b578151610f728782610f17565b9650610f7d83610f2f565b925050600181019050610f5e565b505050505050565b600060039050919050565b600081905092915050565b6000819050919050565b610fbc81610d5f565b82525050565b6000610fce8383610fb3565b60208301905092915050565b6000602082019050919050565b610ff081610f93565b610ffa8184610f9e565b925061100582610fa9565b8060005b8381101561103657815161101d8782610fc2565b965061102883610fda565b925050600181019050611009565b505050505050565b60006101a08201905081810360008301526110598188610e73565b90506110686020830187610f3c565b6110756080830186610f3c565b61108260e0830185610fe7565b611090610140830184610f3c565b9695505050505050565b60006020820190506110af6000830184610cb2565b92915050565b600080fd5b600080fd5b7f4e487b7100000000000000000000000000000000000000000000000000000000600052604160045260246000fd5b6110f782610c68565b810181811067ffffffffffffffff82111715611116576111156110bf565b5b80604052505050565b6000611129610bab565b905061113582826110ee565b919050565b600067ffffffffffffffff821115611155576111546110bf565b5b61115e82610c68565b9050602081019050919050565b82818337600083830152505050565b600061118d6111888461113a565b61111f565b9050828152602081018484840111156111a9576111a86110ba565b5b6111b484828561116b565b509392505050565b600082601f8301126111d1576111d06110b5565b5b81356111e184826020860161117a565b91505092915050565b600481106111f757600080fd5b50565b600081359050611209816111ea565b92915050565b6004811061121c57600080fd5b50565b60008135905061122e8161120f565b92915050565b600080600080600060a086880312156112505761124f610bb5565b5b600086013567ffffffffffffffff81111561126e5761126d610bba565b5b61127a888289016111bc565b955050602061128b88828901610be0565b945050604061129c888289016111fa565b93505060606112ad8882890161121f565b92505060806112be88828901610be0565b9150509295509295909350565b6000602082840312156112e1576112e0610bb5565b5b60006112ef848285016111fa565b91505092915050565b600080600080600080600060e0888a03121561131757611316610bb5565b5b60006113258a828b01610be0565b975050602088013567ffffffffffffffff81111561134657611345610bba565b5b6113528a828b016111bc565b96505060406113638a828b01610be0565b95505060606113748a828b01610be0565b94505060806113858a828b016111fa565b93505060a06113968a828b0161121f565b92505060c06113a78a828b01610be0565b91505092959891949750929550565b7f4e487b7100000000000000000000000000000000000000000000000000000000600052602260045260246000fd5b600060028204905060018216806113fd57607f821691505b6020821081036114105761140f6113b6565b5b50919050565b7f4e487b7100000000000000000000000000000000000000000000000000000000600052603260045260246000fd5b7f4e487b7100000000000000000000000000000000000000000000000000000000600052601160045260246000fd5b600061147f82610bbf565b915061148a83610bbf565b92508282039050818111156114a2576114a1611445565b5b92915050565b60006114b382610bbf565b9150600082036114c6576114c5611445565b5b600182039050919050565b60006114dc82610bbf565b91507fffffffffffffffffffffffffffffffffffffffffffffffffffffffffffffffff820361150e5761150d611445565b5b600182019050919050565b60008190508160005260206000209050919050565b60006020601f8301049050919050565b600082821b905092915050565b60006008830261157b7fffffffffffffffffffffffffffffffffffffffffffffffffffffffffffffffff8261153e565b611585868361153e565b95508019841693508086168417925050509392505050565b6000819050919050565b60006115c26115bd6115b884610bbf565b61159d565b610bbf565b9050919050565b6000819050919050565b6115dc836115a7565b6115f06115e8826115c9565b84845461154b565b825550505050565b600090565b6116056115f8565b6116108184846115d3565b505050565b5b81811015611634576116296000826115fd565b600181019050611616565b5050565b601f8211156116795761164a81611519565b6116538461152e565b81016020851015611662578190505b61167661166e8561152e565b830182611615565b50505b505050565b600082821c905092915050565b600061169c6000198460080261167e565b1980831691505092915050565b60006116b5838361168b565b9150826002028217905092915050565b6116ce82610c22565b67ffffffffffffffff8111156116e7576116e66110bf565b5b6116f182546113e5565b6116fc828285611638565b600060209050601f83116001811461172f576000841561171d578287015190505b61172785826116a9565b86555061178f565b601f19841661173d86611519565b60005b8281101561176557848901518255600182019150602085019450602081019050611740565b86831015611782578489015161177e601f89168261168b565b8355505b6001600288020188555050505b50505050505056fea2646970667358221220f53501ceee5f07b016e5a92450810a60d84d0f895eda14c66f0c23c4a32acbdd64736f6c63430008120033",
			"opcodes": "PUSH1 0x80 PUSH1 0x40 MSTORE PUSH1 0x1 PUSH1 0x2 SSTORE CALLVALUE DUP1 ISZERO PUSH2 0x15 JUMPI PUSH1 0x0 DUP1 REVERT JUMPDEST POP PUSH2 0x17CD DUP1 PUSH2 0x25 PUSH1 0x0 CODECOPY PUSH1 0x0 RETURN INVALID PUSH1 0x80 PUSH1 0x40 MSTORE CALLVALUE DUP1 ISZERO PUSH2 0x10 JUMPI PUSH1 0x0 DUP1 REVERT JUMPDEST POP PUSH1 0x4 CALLDATASIZE LT PUSH2 0x88 JUMPI PUSH1 0x0 CALLDATALOAD PUSH1 0xE0 SHR DUP1 PUSH4 0x7168014D GT PUSH2 0x5B JUMPI DUP1 PUSH4 0x7168014D EQ PUSH2 0x11E JUMPI DUP1 PUSH4 0x9852BF8E EQ PUSH2 0x153 JUMPI DUP1 PUSH4 0xA819DFBB EQ PUSH2 0x171 JUMPI DUP1 PUSH4 0xEA81E5AD EQ PUSH2 0x1A1 JUMPI PUSH2 0x88 JUMP JUMPDEST DUP1 PUSH4 0x6EAD22E EQ PUSH2 0x8D JUMPI DUP1 PUSH4 0x12B4E900 EQ PUSH2 0xC2 JUMPI DUP1 PUSH4 0x537AA3FE EQ PUSH2 0xE4 JUMPI DUP1 PUSH4 0x5FB8FA34 EQ PUSH2 0x102 JUMPI JUMPDEST PUSH1 0x0 DUP1 REVERT JUMPDEST PUSH2 0xA7 PUSH1 0x4 DUP1 CALLDATASIZE SUB DUP2 ADD SWAP1 PUSH2 0xA2 SWAP2 SWAP1 PUSH2 0xBF5 JUMP JUMPDEST PUSH2 0x1BD JUMP JUMPDEST PUSH1 0x40 MLOAD PUSH2 0xB9 SWAP7 SWAP6 SWAP5 SWAP4 SWAP3 SWAP2 SWAP1 PUSH2 0xD80 JUMP JUMPDEST PUSH1 0x40 MLOAD DUP1 SWAP2 SUB SWAP1 RETURN JUMPDEST PUSH2 0xCA PUSH2 0x29B JUMP JUMPDEST PUSH1 0x40 MLOAD PUSH2 0xDB SWAP6 SWAP5 SWAP4 SWAP3 SWAP2 SWAP1 PUSH2 0x103E JUMP JUMPDEST PUSH1 0x40 MLOAD DUP1 SWAP2 SUB SWAP1 RETURN JUMPDEST PUSH2 0xEC PUSH2 0x75C JUMP JUMPDEST PUSH1 0x40 MLOAD PUSH2 0xF9 SWAP2 SWAP1 PUSH2 0x109A JUMP JUMPDEST PUSH1 0x40 MLOAD DUP1 SWAP2 SUB SWAP1 RETURN JUMPDEST PUSH2 0x11C PUSH1 0x4 DUP1 CALLDATASIZE SUB DUP2 ADD SWAP1 PUSH2 0x117 SWAP2 SWAP1 PUSH2 0x1234 JUMP JUMPDEST PUSH2 0x762 JUMP JUMPDEST STOP JUMPDEST PUSH2 0x138 PUSH1 0x4 DUP1 CALLDATASIZE SUB DUP2 ADD SWAP1 PUSH2 0x133 SWAP2 SWAP1 PUSH2 0xBF5 JUMP JUMPDEST PUSH2 0x888 JUMP JUMPDEST PUSH1 0x40 MLOAD PUSH2 0x14A SWAP7 SWAP6 SWAP5 SWAP4 SWAP3 SWAP2 SWAP1 PUSH2 0xD80 JUMP JUMPDEST PUSH1 0x40 MLOAD DUP1 SWAP2 SUB SWAP1 RETURN JUMPDEST PUSH2 0x15B PUSH2 0x980 JUMP JUMPDEST PUSH1 0x40 MLOAD PUSH2 0x168 SWAP2 SWAP1 PUSH2 0x109A JUMP JUMPDEST PUSH1 0x40 MLOAD DUP1 SWAP2 SUB SWAP1 RETURN JUMPDEST PUSH2 0x18B PUSH1 0x4 DUP1 CALLDATASIZE SUB DUP2 ADD SWAP1 PUSH2 0x186 SWAP2 SWAP1 PUSH2 0x12CB JUMP JUMPDEST PUSH2 0x986 JUMP JUMPDEST PUSH1 0x40 MLOAD PUSH2 0x198 SWAP2 SWAP1 PUSH2 0x109A JUMP JUMPDEST PUSH1 0x40 MLOAD DUP1 SWAP2 SUB SWAP1 RETURN JUMPDEST PUSH2 0x1BB PUSH1 0x4 DUP1 CALLDATASIZE SUB DUP2 ADD SWAP1 PUSH2 0x1B6 SWAP2 SWAP1 PUSH2 0x12F8 JUMP JUMPDEST PUSH2 0xA16 JUMP JUMPDEST STOP JUMPDEST PUSH1 0x0 PUSH1 0x20 MSTORE DUP1 PUSH1 0x0 MSTORE PUSH1 0x40 PUSH1 0x0 KECCAK256 PUSH1 0x0 SWAP2 POP SWAP1 POP DUP1 PUSH1 0x0 ADD DUP1 SLOAD PUSH2 0x1E0 SWAP1 PUSH2 0x13E5 JUMP JUMPDEST DUP1 PUSH1 0x1F ADD PUSH1 0x20 DUP1 SWAP2 DIV MUL PUSH1 0x20 ADD PUSH1 0x40 MLOAD SWAP1 DUP2 ADD PUSH1 0x40 MSTORE DUP1 SWAP3 SWAP2 SWAP1 DUP2 DUP2 MSTORE PUSH1 0x20 ADD DUP3 DUP1 SLOAD PUSH2 0x20C SWAP1 PUSH2 0x13E5 JUMP JUMPDEST DUP1 ISZERO PUSH2 0x259 JUMPI DUP1 PUSH1 0x1F LT PUSH2 0x22E JUMPI PUSH2 0x100 DUP1 DUP4 SLOAD DIV MUL DUP4 MSTORE SWAP2 PUSH1 0x20 ADD SWAP2 PUSH2 0x259 JUMP JUMPDEST DUP3 ADD SWAP2 SWAP1 PUSH1 0x0 MSTORE PUSH1 0x20 PUSH1 0x0 KECCAK256 SWAP1 JUMPDEST DUP2 SLOAD DUP2 MSTORE SWAP1 PUSH1 0x1 ADD SWAP1 PUSH1 0x20 ADD DUP1 DUP4 GT PUSH2 0x23C JUMPI DUP3 SWAP1 SUB PUSH1 0x1F AND DUP3 ADD SWAP2 JUMPDEST POP POP POP POP POP SWAP1 DUP1 PUSH1 0x1 ADD SLOAD SWAP1 DUP1 PUSH1 0x2 ADD SLOAD SWAP1 DUP1 PUSH1 0x3 ADD PUSH1 0x0 SWAP1 SLOAD SWAP1 PUSH2 0x100 EXP SWAP1 DIV PUSH1 0xFF AND SWAP1 DUP1 PUSH1 0x3 ADD PUSH1 0x1 SWAP1 SLOAD SWAP1 PUSH2 0x100 EXP SWAP1 DIV PUSH1 0xFF AND SWAP1 DUP1 PUSH1 0x4 ADD SLOAD SWAP1 POP DUP7 JUMP JUMPDEST PUSH2 0x2A3 PUSH2 0xB40 JUMP JUMPDEST PUSH2 0x2AB PUSH2 0xB67 JUMP JUMPDEST PUSH2 0x2B3 PUSH2 0xB67 JUMP JUMPDEST PUSH2 0x2BB PUSH2 0xB89 JUMP JUMPDEST PUSH2 0x2C3 PUSH2 0xB67 JUMP JUMPDEST PUSH2 0x2CB PUSH2 0xB67 JUMP JUMPDEST PUSH1 0x0 PUSH1 0x1 SWAP1 POP JUMPDEST PUSH1 0x1 SLOAD DUP2 GT PUSH2 0x753 JUMPI PUSH1 0x0 DUP1 PUSH1 0x0 DUP4 DUP2 MSTORE PUSH1 0x20 ADD SWAP1 DUP2 MSTORE PUSH1 0x20 ADD PUSH1 0x0 KECCAK256 SWAP1 POP PUSH1 0x1 PUSH1 0x3 DUP2 GT ISZERO PUSH2 0x305 JUMPI PUSH2 0x304 PUSH2 0xCC1 JUMP JUMPDEST JUMPDEST DUP2 PUSH1 0x3 ADD PUSH1 0x0 SWAP1 SLOAD SWAP1 PUSH2 0x100 EXP SWAP1 DIV PUSH1 0xFF AND PUSH1 0x3 DUP2 GT ISZERO PUSH2 0x329 JUMPI PUSH2 0x328 PUSH2 0xCC1 JUMP JUMPDEST JUMPDEST EQ DUP1 ISZERO PUSH2 0x36B JUMPI POP PUSH1 0x3 DUP1 DUP2 GT ISZERO PUSH2 0x344 JUMPI PUSH2 0x343 PUSH2 0xCC1 JUMP JUMPDEST JUMPDEST DUP2 PUSH1 0x3 ADD PUSH1 0x1 SWAP1 SLOAD SWAP1 PUSH2 0x100 EXP SWAP1 DIV PUSH1 0xFF AND PUSH1 0x3 DUP2 GT ISZERO PUSH2 0x368 JUMPI PUSH2 0x367 PUSH2 0xCC1 JUMP JUMPDEST JUMPDEST EQ ISZERO JUMPDEST DUP1 ISZERO PUSH2 0x3AD JUMPI POP PUSH1 0x1 PUSH1 0x3 DUP2 GT ISZERO PUSH2 0x386 JUMPI PUSH2 0x385 PUSH2 0xCC1 JUMP JUMPDEST JUMPDEST DUP2 PUSH1 0x3 ADD PUSH1 0x1 SWAP1 SLOAD SWAP1 PUSH2 0x100 EXP SWAP1 DIV PUSH1 0xFF AND PUSH1 0x3 DUP2 GT ISZERO PUSH2 0x3AA JUMPI PUSH2 0x3A9 PUSH2 0xCC1 JUMP JUMPDEST JUMPDEST EQ ISZERO JUMPDEST ISZERO PUSH2 0x73F JUMPI PUSH1 0x0 JUMPDEST PUSH1 0x3 DUP2 LT ISZERO PUSH2 0x73D JUMPI DUP4 DUP2 PUSH1 0x3 DUP2 LT PUSH2 0x3D1 JUMPI PUSH2 0x3D0 PUSH2 0x1416 JUMP JUMPDEST JUMPDEST PUSH1 0x20 MUL ADD MLOAD DUP3 PUSH1 0x4 ADD SLOAD GT ISZERO PUSH2 0x72A JUMPI PUSH1 0x0 PUSH1 0x2 SWAP1 POP JUMPDEST DUP2 DUP2 GT ISZERO PUSH2 0x5A8 JUMPI DUP5 PUSH1 0x1 DUP3 PUSH2 0x3FE SWAP2 SWAP1 PUSH2 0x1474 JUMP JUMPDEST PUSH1 0x3 DUP2 LT PUSH2 0x40F JUMPI PUSH2 0x40E PUSH2 0x1416 JUMP JUMPDEST JUMPDEST PUSH1 0x20 MUL ADD MLOAD DUP6 DUP3 PUSH1 0x3 DUP2 LT PUSH2 0x427 JUMPI PUSH2 0x426 PUSH2 0x1416 JUMP JUMPDEST JUMPDEST PUSH1 0x20 MUL ADD DUP2 DUP2 MSTORE POP POP DUP10 PUSH1 0x1 DUP3 PUSH2 0x43E SWAP2 SWAP1 PUSH2 0x1474 JUMP JUMPDEST PUSH1 0x3 DUP2 LT PUSH2 0x44F JUMPI PUSH2 0x44E PUSH2 0x1416 JUMP JUMPDEST JUMPDEST PUSH1 0x20 MUL ADD MLOAD DUP11 DUP3 PUSH1 0x3 DUP2 LT PUSH2 0x467 JUMPI PUSH2 0x466 PUSH2 0x1416 JUMP JUMPDEST JUMPDEST PUSH1 0x20 MUL ADD DUP2 SWAP1 MSTORE POP DUP9 PUSH1 0x1 DUP3 PUSH2 0x47D SWAP2 SWAP1 PUSH2 0x1474 JUMP JUMPDEST PUSH1 0x3 DUP2 LT PUSH2 0x48E JUMPI PUSH2 0x48D PUSH2 0x1416 JUMP JUMPDEST JUMPDEST PUSH1 0x20 MUL ADD MLOAD DUP10 DUP3 PUSH1 0x3 DUP2 LT PUSH2 0x4A6 JUMPI PUSH2 0x4A5 PUSH2 0x1416 JUMP JUMPDEST JUMPDEST PUSH1 0x20 MUL ADD DUP2 DUP2 MSTORE POP POP DUP8 PUSH1 0x1 DUP3 PUSH2 0x4BD SWAP2 SWAP1 PUSH2 0x1474 JUMP JUMPDEST PUSH1 0x3 DUP2 LT PUSH2 0x4CE JUMPI PUSH2 0x4CD PUSH2 0x1416 JUMP JUMPDEST JUMPDEST PUSH1 0x20 MUL ADD MLOAD DUP9 DUP3 PUSH1 0x3 DUP2 LT PUSH2 0x4E6 JUMPI PUSH2 0x4E5 PUSH2 0x1416 JUMP JUMPDEST JUMPDEST PUSH1 0x20 MUL ADD DUP2 DUP2 MSTORE POP POP DUP7 PUSH1 0x1 DUP3 PUSH2 0x4FD SWAP2 SWAP1 PUSH2 0x1474 JUMP JUMPDEST PUSH1 0x3 DUP2 LT PUSH2 0x50E JUMPI PUSH2 0x50D PUSH2 0x1416 JUMP JUMPDEST JUMPDEST PUSH1 0x20 MUL ADD MLOAD DUP8 DUP3 PUSH1 0x3 DUP2 LT PUSH2 0x526 JUMPI PUSH2 0x525 PUSH2 0x1416 JUMP JUMPDEST JUMPDEST PUSH1 0x20 MUL ADD SWAP1 PUSH1 0x3 DUP2 GT ISZERO PUSH2 0x53D JUMPI PUSH2 0x53C PUSH2 0xCC1 JUMP JUMPDEST JUMPDEST SWAP1 DUP2 PUSH1 0x3 DUP2 GT ISZERO PUSH2 0x551 JUMPI PUSH2 0x550 PUSH2 0xCC1 JUMP JUMPDEST JUMPDEST DUP2 MSTORE POP POP DUP6 PUSH1 0x1 DUP3 PUSH2 0x563 SWAP2 SWAP1 PUSH2 0x1474 JUMP JUMPDEST PUSH1 0x3 DUP2 LT PUSH2 0x574 JUMPI PUSH2 0x573 PUSH2 0x1416 JUMP JUMPDEST JUMPDEST PUSH1 0x20 MUL ADD MLOAD DUP7 DUP3 PUSH1 0x3 DUP2 LT PUSH2 0x58C JUMPI PUSH2 0x58B PUSH2 0x1416 JUMP JUMPDEST JUMPDEST PUSH1 0x20 MUL ADD DUP2 DUP2 MSTORE POP POP DUP1 DUP1 PUSH2 0x5A0 SWAP1 PUSH2 0x14A8 JUMP JUMPDEST SWAP2 POP POP PUSH2 0x3E8 JUMP JUMPDEST POP DUP2 PUSH1 0x4 ADD SLOAD DUP5 DUP3 PUSH1 0x3 DUP2 LT PUSH2 0x5C1 JUMPI PUSH2 0x5C0 PUSH2 0x1416 JUMP JUMPDEST JUMPDEST PUSH1 0x20 MUL ADD DUP2 DUP2 MSTORE POP POP DUP2 PUSH1 0x0 ADD DUP1 SLOAD PUSH2 0x5D9 SWAP1 PUSH2 0x13E5 JUMP JUMPDEST DUP1 PUSH1 0x1F ADD PUSH1 0x20 DUP1 SWAP2 DIV MUL PUSH1 0x20 ADD PUSH1 0x40 MLOAD SWAP1 DUP2 ADD PUSH1 0x40 MSTORE DUP1 SWAP3 SWAP2 SWAP1 DUP2 DUP2 MSTORE PUSH1 0x20 ADD DUP3 DUP1 SLOAD PUSH2 0x605 SWAP1 PUSH2 0x13E5 JUMP JUMPDEST DUP1 ISZERO PUSH2 0x652 JUMPI DUP1 PUSH1 0x1F LT PUSH2 0x627 JUMPI PUSH2 0x100 DUP1 DUP4 SLOAD DIV MUL DUP4 MSTORE SWAP2 PUSH1 0x20 ADD SWAP2 PUSH2 0x652 JUMP JUMPDEST DUP3 ADD SWAP2 SWAP1 PUSH1 0x0 MSTORE PUSH1 0x20 PUSH1 0x0 KECCAK256 SWAP1 JUMPDEST DUP2 SLOAD DUP2 MSTORE SWAP1 PUSH1 0x1 ADD SWAP1 PUSH1 0x20 ADD DUP1 DUP4 GT PUSH2 0x635 JUMPI DUP3 SWAP1 SUB PUSH1 0x1F AND DUP3 ADD SWAP2 JUMPDEST POP POP POP POP POP DUP10 DUP3 PUSH1 0x3 DUP2 LT PUSH2 0x66A JUMPI PUSH2 0x669 PUSH2 0x1416 JUMP JUMPDEST JUMPDEST PUSH1 0x20 MUL ADD DUP2 SWAP1 MSTORE POP DUP2 PUSH1 0x1 ADD SLOAD DUP9 DUP3 PUSH1 0x3 DUP2 LT PUSH2 0x68A JUMPI PUSH2 0x689 PUSH2 0x1416 JUMP JUMPDEST JUMPDEST PUSH1 0x20 MUL ADD DUP2 DUP2 MSTORE POP POP DUP2 PUSH1 0x2 ADD SLOAD DUP8 DUP3 PUSH1 0x3 DUP2 LT PUSH2 0x6AB JUMPI PUSH2 0x6AA PUSH2 0x1416 JUMP JUMPDEST JUMPDEST PUSH1 0x20 MUL ADD DUP2 DUP2 MSTORE POP POP DUP2 PUSH1 0x3 ADD PUSH1 0x1 SWAP1 SLOAD SWAP1 PUSH2 0x100 EXP SWAP1 DIV PUSH1 0xFF AND DUP7 DUP3 PUSH1 0x3 DUP2 LT PUSH2 0x6D9 JUMPI PUSH2 0x6D8 PUSH2 0x1416 JUMP JUMPDEST JUMPDEST PUSH1 0x20 MUL ADD SWAP1 PUSH1 0x3 DUP2 GT ISZERO PUSH2 0x6F0 JUMPI PUSH2 0x6EF PUSH2 0xCC1 JUMP JUMPDEST JUMPDEST SWAP1 DUP2 PUSH1 0x3 DUP2 GT ISZERO PUSH2 0x704 JUMPI PUSH2 0x703 PUSH2 0xCC1 JUMP JUMPDEST JUMPDEST DUP2 MSTORE POP POP DUP2 PUSH1 0x4 ADD SLOAD DUP6 DUP3 PUSH1 0x3 DUP2 LT PUSH2 0x720 JUMPI PUSH2 0x71F PUSH2 0x1416 JUMP JUMPDEST JUMPDEST PUSH1 0x20 MUL ADD DUP2 DUP2 MSTORE POP POP JUMPDEST DUP1 DUP1 PUSH2 0x735 SWAP1 PUSH2 0x14D1 JUMP JUMPDEST SWAP2 POP POP PUSH2 0x3B5 JUMP JUMPDEST POP JUMPDEST POP DUP1 DUP1 PUSH2 0x74B SWAP1 PUSH2 0x14D1 JUMP JUMPDEST SWAP2 POP POP PUSH2 0x2D2 JUMP JUMPDEST POP POP SWAP1 SWAP2 SWAP3 SWAP4 SWAP5 JUMP JUMPDEST PUSH1 0x2 SLOAD DUP2 JUMP JUMPDEST PUSH1 0x0 PUSH2 0x76C PUSH2 0xB19 JUMP JUMPDEST SWAP1 POP PUSH1 0x40 MLOAD DUP1 PUSH1 0xC0 ADD PUSH1 0x40 MSTORE DUP1 DUP8 DUP2 MSTORE PUSH1 0x20 ADD DUP7 DUP2 MSTORE PUSH1 0x20 ADD TIMESTAMP DUP2 MSTORE PUSH1 0x20 ADD DUP6 PUSH1 0x3 DUP2 GT ISZERO PUSH2 0x79E JUMPI PUSH2 0x79D PUSH2 0xCC1 JUMP JUMPDEST JUMPDEST DUP2 MSTORE PUSH1 0x20 ADD DUP5 PUSH1 0x3 DUP2 GT ISZERO PUSH2 0x7B6 JUMPI PUSH2 0x7B5 PUSH2 0xCC1 JUMP JUMPDEST JUMPDEST DUP2 MSTORE PUSH1 0x20 ADD DUP4 DUP2 MSTORE POP PUSH1 0x0 DUP1 DUP4 DUP2 MSTORE PUSH1 0x20 ADD SWAP1 DUP2 MSTORE PUSH1 0x20 ADD PUSH1 0x0 KECCAK256 PUSH1 0x0 DUP3 ADD MLOAD DUP2 PUSH1 0x0 ADD SWAP1 DUP2 PUSH2 0x7E6 SWAP2 SWAP1 PUSH2 0x16C5 JUMP JUMPDEST POP PUSH1 0x20 DUP3 ADD MLOAD DUP2 PUSH1 0x1 ADD SSTORE PUSH1 0x40 DUP3 ADD MLOAD DUP2 PUSH1 0x2 ADD SSTORE PUSH1 0x60 DUP3 ADD MLOAD DUP2 PUSH1 0x3 ADD PUSH1 0x0 PUSH2 0x100 EXP DUP2 SLOAD DUP2 PUSH1 0xFF MUL NOT AND SWAP1 DUP4 PUSH1 0x3 DUP2 GT ISZERO PUSH2 0x826 JUMPI PUSH2 0x825 PUSH2 0xCC1 JUMP JUMPDEST JUMPDEST MUL OR SWAP1 SSTORE POP PUSH1 0x80 DUP3 ADD MLOAD DUP2 PUSH1 0x3 ADD PUSH1 0x1 PUSH2 0x100 EXP DUP2 SLOAD DUP2 PUSH1 0xFF MUL NOT AND SWAP1 DUP4 PUSH1 0x3 DUP2 GT ISZERO PUSH2 0x856 JUMPI PUSH2 0x855 PUSH2 0xCC1 JUMP JUMPDEST JUMPDEST MUL OR SWAP1 SSTORE POP PUSH1 0xA0 DUP3 ADD MLOAD DUP2 PUSH1 0x4 ADD SSTORE SWAP1 POP POP PUSH1 0x1 PUSH1 0x0 DUP2 SLOAD DUP1 SWAP3 SWAP2 SWAP1 PUSH2 0x87B SWAP1 PUSH2 0x14D1 JUMP JUMPDEST SWAP2 SWAP1 POP SSTORE POP POP POP POP POP POP POP JUMP JUMPDEST PUSH1 0x60 PUSH1 0x0 DUP1 PUSH1 0x0 DUP1 PUSH1 0x0 DUP1 PUSH1 0x0 DUP1 DUP10 DUP2 MSTORE PUSH1 0x20 ADD SWAP1 DUP2 MSTORE PUSH1 0x20 ADD PUSH1 0x0 KECCAK256 SWAP1 POP DUP1 PUSH1 0x0 ADD DUP2 PUSH1 0x1 ADD SLOAD DUP3 PUSH1 0x2 ADD SLOAD DUP4 PUSH1 0x3 ADD PUSH1 0x0 SWAP1 SLOAD SWAP1 PUSH2 0x100 EXP SWAP1 DIV PUSH1 0xFF AND DUP5 PUSH1 0x3 ADD PUSH1 0x1 SWAP1 SLOAD SWAP1 PUSH2 0x100 EXP SWAP1 DIV PUSH1 0xFF AND DUP6 PUSH1 0x4 ADD SLOAD DUP6 DUP1 SLOAD PUSH2 0x8EA SWAP1 PUSH2 0x13E5 JUMP JUMPDEST DUP1 PUSH1 0x1F ADD PUSH1 0x20 DUP1 SWAP2 DIV MUL PUSH1 0x20 ADD PUSH1 0x40 MLOAD SWAP1 DUP2 ADD PUSH1 0x40 MSTORE DUP1 SWAP3 SWAP2 SWAP1 DUP2 DUP2 MSTORE PUSH1 0x20 ADD DUP3 DUP1 SLOAD PUSH2 0x916 SWAP1 PUSH2 0x13E5 JUMP JUMPDEST DUP1 ISZERO PUSH2 0x963 JUMPI DUP1 PUSH1 0x1F LT PUSH2 0x938 JUMPI PUSH2 0x100 DUP1 DUP4 SLOAD DIV MUL DUP4 MSTORE SWAP2 PUSH1 0x20 ADD SWAP2 PUSH2 0x963 JUMP JUMPDEST DUP3 ADD SWAP2 SWAP1 PUSH1 0x0 MSTORE PUSH1 0x20 PUSH1 0x0 KECCAK256 SWAP1 JUMPDEST DUP2 SLOAD DUP2 MSTORE SWAP1 PUSH1 0x1 ADD SWAP1 PUSH1 0x20 ADD DUP1 DUP4 GT PUSH2 0x946 JUMPI DUP3 SWAP1 SUB PUSH1 0x1F AND DUP3 ADD SWAP2 JUMPDEST POP POP POP POP POP SWAP6 POP SWAP7 POP SWAP7 POP SWAP7 POP SWAP7 POP SWAP7 POP SWAP7 POP POP SWAP2 SWAP4 SWAP6 POP SWAP2 SWAP4 SWAP6 JUMP JUMPDEST PUSH1 0x1 SLOAD DUP2 JUMP JUMPDEST PUSH1 0x0 DUP1 PUSH1 0x0 SWAP1 POP PUSH1 0x0 PUSH1 0x1 SWAP1 POP JUMPDEST PUSH1 0x1 SLOAD DUP2 GT PUSH2 0xA0C JUMPI DUP4 PUSH1 0x3 DUP2 GT ISZERO PUSH2 0x9B0 JUMPI PUSH2 0x9AF PUSH2 0xCC1 JUMP JUMPDEST JUMPDEST PUSH1 0x0 DUP1 DUP4 DUP2 MSTORE PUSH1 0x20 ADD SWAP1 DUP2 MSTORE PUSH1 0x20 ADD PUSH1 0x0 KECCAK256 PUSH1 0x3 ADD PUSH1 0x0 SWAP1 SLOAD SWAP1 PUSH2 0x100 EXP SWAP1 DIV PUSH1 0xFF AND PUSH1 0x3 DUP2 GT ISZERO PUSH2 0x9E5 JUMPI PUSH2 0x9E4 PUSH2 0xCC1 JUMP JUMPDEST JUMPDEST SUB PUSH2 0x9F9 JUMPI DUP2 DUP1 PUSH2 0x9F5 SWAP1 PUSH2 0x14D1 JUMP JUMPDEST SWAP3 POP POP JUMPDEST DUP1 DUP1 PUSH2 0xA04 SWAP1 PUSH2 0x14D1 JUMP JUMPDEST SWAP2 POP POP PUSH2 0x994 JUMP JUMPDEST POP DUP1 SWAP2 POP POP SWAP2 SWAP1 POP JUMP JUMPDEST PUSH1 0x40 MLOAD DUP1 PUSH1 0xC0 ADD PUSH1 0x40 MSTORE DUP1 DUP8 DUP2 MSTORE PUSH1 0x20 ADD DUP7 DUP2 MSTORE PUSH1 0x20 ADD DUP6 DUP2 MSTORE PUSH1 0x20 ADD DUP5 PUSH1 0x3 DUP2 GT ISZERO PUSH2 0xA46 JUMPI PUSH2 0xA45 PUSH2 0xCC1 JUMP JUMPDEST JUMPDEST DUP2 MSTORE PUSH1 0x20 ADD DUP4 PUSH1 0x3 DUP2 GT ISZERO PUSH2 0xA5E JUMPI PUSH2 0xA5D PUSH2 0xCC1 JUMP JUMPDEST JUMPDEST DUP2 MSTORE PUSH1 0x20 ADD DUP3 DUP2 MSTORE POP PUSH1 0x0 DUP1 DUP10 DUP2 MSTORE PUSH1 0x20 ADD SWAP1 DUP2 MSTORE PUSH1 0x20 ADD PUSH1 0x0 KECCAK256 PUSH1 0x0 DUP3 ADD MLOAD DUP2 PUSH1 0x0 ADD SWAP1 DUP2 PUSH2 0xA8E SWAP2 SWAP1 PUSH2 0x16C5 JUMP JUMPDEST POP PUSH1 0x20 DUP3 ADD MLOAD DUP2 PUSH1 0x1 ADD SSTORE PUSH1 0x40 DUP3 ADD MLOAD DUP2 PUSH1 0x2 ADD SSTORE PUSH1 0x60 DUP3 ADD MLOAD DUP2 PUSH1 0x3 ADD PUSH1 0x0 PUSH2 0x100 EXP DUP2 SLOAD DUP2 PUSH1 0xFF MUL NOT AND SWAP1 DUP4 PUSH1 0x3 DUP2 GT ISZERO PUSH2 0xACE JUMPI PUSH2 0xACD PUSH2 0xCC1 JUMP JUMPDEST JUMPDEST MUL OR SWAP1 SSTORE POP PUSH1 0x80 DUP3 ADD MLOAD DUP2 PUSH1 0x3 ADD PUSH1 0x1 PUSH2 0x100 EXP DUP2 SLOAD DUP2 PUSH1 0xFF MUL NOT AND SWAP1 DUP4 PUSH1 0x3 DUP2 GT ISZERO PUSH2 0xAFE JUMPI PUSH2 0xAFD PUSH2 0xCC1 JUMP JUMPDEST JUMPDEST MUL OR SWAP1 SSTORE POP PUSH1 0xA0 DUP3 ADD MLOAD DUP2 PUSH1 0x4 ADD SSTORE SWAP1 POP POP POP POP POP POP POP POP POP JUMP JUMPDEST PUSH1 0x0 DUP1 PUSH1 0x2 SLOAD SWAP1 POP PUSH1 0x2 PUSH1 0x0 DUP2 SLOAD DUP1 SWAP3 SWAP2 SWAP1 PUSH2 0xB34 SWAP1 PUSH2 0x14D1 JUMP JUMPDEST SWAP2 SWAP1 POP SSTORE POP DUP1 SWAP2 POP POP SWAP1 JUMP JUMPDEST PUSH1 0x40 MLOAD DUP1 PUSH1 0x60 ADD PUSH1 0x40 MSTORE DUP1 PUSH1 0x3 SWAP1 JUMPDEST PUSH1 0x60 DUP2 MSTORE PUSH1 0x20 ADD SWAP1 PUSH1 0x1 SWAP1 SUB SWAP1 DUP2 PUSH2 0xB4F JUMPI SWAP1 POP POP SWAP1 JUMP JUMPDEST PUSH1 0x40 MLOAD DUP1 PUSH1 0x60 ADD PUSH1 0x40 MSTORE DUP1 PUSH1 0x3 SWAP1 PUSH1 0x20 DUP3 MUL DUP1 CALLDATASIZE DUP4 CALLDATACOPY DUP1 DUP3 ADD SWAP2 POP POP SWAP1 POP POP SWAP1 JUMP JUMPDEST PUSH1 0x40 MLOAD DUP1 PUSH1 0x60 ADD PUSH1 0x40 MSTORE DUP1 PUSH1 0x3 SWAP1 PUSH1 0x20 DUP3 MUL DUP1 CALLDATASIZE DUP4 CALLDATACOPY DUP1 DUP3 ADD SWAP2 POP POP SWAP1 POP POP SWAP1 JUMP JUMPDEST PUSH1 0x0 PUSH1 0x40 MLOAD SWAP1 POP SWAP1 JUMP JUMPDEST PUSH1 0x0 DUP1 REVERT JUMPDEST PUSH1 0x0 DUP1 REVERT JUMPDEST PUSH1 0x0 DUP2 SWAP1 POP SWAP2 SWAP1 POP JUMP JUMPDEST PUSH2 0xBD2 DUP2 PUSH2 0xBBF JUMP JUMPDEST DUP2 EQ PUSH2 0xBDD JUMPI PUSH1 0x0 DUP1 REVERT JUMPDEST POP JUMP JUMPDEST PUSH1 0x0 DUP2 CALLDATALOAD SWAP1 POP PUSH2 0xBEF DUP2 PUSH2 0xBC9 JUMP JUMPDEST SWAP3 SWAP2 POP POP JUMP JUMPDEST PUSH1 0x0 PUSH1 0x20 DUP3 DUP5 SUB SLT ISZERO PUSH2 0xC0B JUMPI PUSH2 0xC0A PUSH2 0xBB5 JUMP JUMPDEST JUMPDEST PUSH1 0x0 PUSH2 0xC19 DUP5 DUP3 DUP6 ADD PUSH2 0xBE0 JUMP JUMPDEST SWAP2 POP POP SWAP3 SWAP2 POP POP JUMP JUMPDEST PUSH1 0x0 DUP2 MLOAD SWAP1 POP SWAP2 SWAP1 POP JUMP JUMPDEST PUSH1 0x0 DUP3 DUP3 MSTORE PUSH1 0x20 DUP3 ADD SWAP1 POP SWAP3 SWAP2 POP POP JUMP JUMPDEST PUSH1 0x0 JUMPDEST DUP4 DUP2 LT ISZERO PUSH2 0xC5C JUMPI DUP1 DUP3 ADD MLOAD DUP2 DUP5 ADD MSTORE PUSH1 0x20 DUP2 ADD SWAP1 POP PUSH2 0xC41 JUMP JUMPDEST PUSH1 0x0 DUP5 DUP5 ADD MSTORE POP POP POP POP JUMP JUMPDEST PUSH1 0x0 PUSH1 0x1F NOT PUSH1 0x1F DUP4 ADD AND SWAP1 POP SWAP2 SWAP1 POP JUMP JUMPDEST PUSH1 0x0 PUSH2 0xC84 DUP3 PUSH2 0xC22 JUMP JUMPDEST PUSH2 0xC8E DUP2 DUP6 PUSH2 0xC2D JUMP JUMPDEST SWAP4 POP PUSH2 0xC9E DUP2 DUP6 PUSH1 0x20 DUP7 ADD PUSH2 0xC3E JUMP JUMPDEST PUSH2 0xCA7 DUP2 PUSH2 0xC68 JUMP JUMPDEST DUP5 ADD SWAP2 POP POP SWAP3 SWAP2 POP POP JUMP JUMPDEST PUSH2 0xCBB DUP2 PUSH2 0xBBF JUMP JUMPDEST DUP3 MSTORE POP POP JUMP JUMPDEST PUSH32 0x4E487B7100000000000000000000000000000000000000000000000000000000 PUSH1 0x0 MSTORE PUSH1 0x21 PUSH1 0x4 MSTORE PUSH1 0x24 PUSH1 0x0 REVERT JUMPDEST PUSH1 0x4 DUP2 LT PUSH2 0xD01 JUMPI PUSH2 0xD00 PUSH2 0xCC1 JUMP JUMPDEST JUMPDEST POP JUMP JUMPDEST PUSH1 0x0 DUP2 SWAP1 POP PUSH2 0xD12 DUP3 PUSH2 0xCF0 JUMP JUMPDEST SWAP2 SWAP1 POP JUMP JUMPDEST PUSH1 0x0 PUSH2 0xD22 DUP3 PUSH2 0xD04 JUMP JUMPDEST SWAP1 POP SWAP2 SWAP1 POP JUMP JUMPDEST PUSH2 0xD32 DUP2 PUSH2 0xD17 JUMP JUMPDEST DUP3 MSTORE POP POP JUMP JUMPDEST PUSH1 0x4 DUP2 LT PUSH2 0xD49 JUMPI PUSH2 0xD48 PUSH2 0xCC1 JUMP JUMPDEST JUMPDEST POP JUMP JUMPDEST PUSH1 0x0 DUP2 SWAP1 POP PUSH2 0xD5A DUP3 PUSH2 0xD38 JUMP JUMPDEST SWAP2 SWAP1 POP JUMP JUMPDEST PUSH1 0x0 PUSH2 0xD6A DUP3 PUSH2 0xD4C JUMP JUMPDEST SWAP1 POP SWAP2 SWAP1 POP JUMP JUMPDEST PUSH2 0xD7A DUP2 PUSH2 0xD5F JUMP JUMPDEST DUP3 MSTORE POP POP JUMP JUMPDEST PUSH1 0x0 PUSH1 0xC0 DUP3 ADD SWAP1 POP DUP2 DUP2 SUB PUSH1 0x0 DUP4 ADD MSTORE PUSH2 0xD9A DUP2 DUP10 PUSH2 0xC79 JUMP JUMPDEST SWAP1 POP PUSH2 0xDA9 PUSH1 0x20 DUP4 ADD DUP9 PUSH2 0xCB2 JUMP JUMPDEST PUSH2 0xDB6 PUSH1 0x40 DUP4 ADD DUP8 PUSH2 0xCB2 JUMP JUMPDEST PUSH2 0xDC3 PUSH1 0x60 DUP4 ADD DUP7 PUSH2 0xD29 JUMP JUMPDEST PUSH2 0xDD0 PUSH1 0x80 DUP4 ADD DUP6 PUSH2 0xD71 JUMP JUMPDEST PUSH2 0xDDD PUSH1 0xA0 DUP4 ADD DUP5 PUSH2 0xCB2 JUMP JUMPDEST SWAP8 SWAP7 POP POP POP POP POP POP POP JUMP JUMPDEST PUSH1 0x0 PUSH1 0x3 SWAP1 POP SWAP2 SWAP1 POP JUMP JUMPDEST PUSH1 0x0 DUP2 SWAP1 POP SWAP3 SWAP2 POP POP JUMP JUMPDEST PUSH1 0x0 DUP2 SWAP1 POP SWAP2 SWAP1 POP JUMP JUMPDEST PUSH1 0x0 DUP3 DUP3 MSTORE PUSH1 0x20 DUP3 ADD SWAP1 POP SWAP3 SWAP2 POP POP JUMP JUMPDEST PUSH1 0x0 PUSH2 0xE24 DUP3 PUSH2 0xC22 JUMP JUMPDEST PUSH2 0xE2E DUP2 DUP6 PUSH2 0xE08 JUMP JUMPDEST SWAP4 POP PUSH2 0xE3E DUP2 DUP6 PUSH1 0x20 DUP7 ADD PUSH2 0xC3E JUMP JUMPDEST PUSH2 0xE47 DUP2 PUSH2 0xC68 JUMP JUMPDEST DUP5 ADD SWAP2 POP POP SWAP3 SWAP2 POP POP JUMP JUMPDEST PUSH1 0x0 PUSH2 0xE5E DUP4 DUP4 PUSH2 0xE19 JUMP JUMPDEST SWAP1 POP SWAP3 SWAP2 POP POP JUMP JUMPDEST PUSH1 0x0 PUSH1 0x20 DUP3 ADD SWAP1 POP SWAP2 SWAP1 POP JUMP JUMPDEST PUSH1 0x0 PUSH2 0xE7E DUP3 PUSH2 0xDE8 JUMP JUMPDEST PUSH2 0xE88 DUP2 DUP6 PUSH2 0xDF3 JUMP JUMPDEST SWAP4 POP DUP4 PUSH1 0x20 DUP3 MUL DUP6 ADD PUSH2 0xE9A DUP6 PUSH2 0xDFE JUMP JUMPDEST DUP1 PUSH1 0x0 JUMPDEST DUP6 DUP2 LT ISZERO PUSH2 0xED6 JUMPI DUP5 DUP5 SUB DUP10 MSTORE DUP2 MLOAD PUSH2 0xEB7 DUP6 DUP3 PUSH2 0xE52 JUMP JUMPDEST SWAP5 POP PUSH2 0xEC2 DUP4 PUSH2 0xE66 JUMP JUMPDEST SWAP3 POP PUSH1 0x20 DUP11 ADD SWAP10 POP POP PUSH1 0x1 DUP2 ADD SWAP1 POP PUSH2 0xE9E JUMP JUMPDEST POP DUP3 SWAP8 POP DUP8 SWAP6 POP POP POP POP POP POP SWAP3 SWAP2 POP POP JUMP JUMPDEST PUSH1 0x0 PUSH1 0x3 SWAP1 POP SWAP2 SWAP1 POP JUMP JUMPDEST PUSH1 0x0 DUP2 SWAP1 POP SWAP3 SWAP2 POP POP JUMP JUMPDEST PUSH1 0x0 DUP2 SWAP1 POP SWAP2 SWAP1 POP JUMP JUMPDEST PUSH2 0xF11 DUP2 PUSH2 0xBBF JUMP JUMPDEST DUP3 MSTORE POP POP JUMP JUMPDEST PUSH1 0x0 PUSH2 0xF23 DUP4 DUP4 PUSH2 0xF08 JUMP JUMPDEST PUSH1 0x20 DUP4 ADD SWAP1 POP SWAP3 SWAP2 POP POP JUMP JUMPDEST PUSH1 0x0 PUSH1 0x20 DUP3 ADD SWAP1 POP SWAP2 SWAP1 POP JUMP JUMPDEST PUSH2 0xF45 DUP2 PUSH2 0xEE8 JUMP JUMPDEST PUSH2 0xF4F DUP2 DUP5 PUSH2 0xEF3 JUMP JUMPDEST SWAP3 POP PUSH2 0xF5A DUP3 PUSH2 0xEFE JUMP JUMPDEST DUP1 PUSH1 0x0 JUMPDEST DUP4 DUP2 LT ISZERO PUSH2 0xF8B JUMPI DUP2 MLOAD PUSH2 0xF72 DUP8 DUP3 PUSH2 0xF17 JUMP JUMPDEST SWAP7 POP PUSH2 0xF7D DUP4 PUSH2 0xF2F JUMP JUMPDEST SWAP3 POP POP PUSH1 0x1 DUP2 ADD SWAP1 POP PUSH2 0xF5E JUMP JUMPDEST POP POP POP POP POP POP JUMP JUMPDEST PUSH1 0x0 PUSH1 0x3 SWAP1 POP SWAP2 SWAP1 POP JUMP JUMPDEST PUSH1 0x0 DUP2 SWAP1 POP SWAP3 SWAP2 POP POP JUMP JUMPDEST PUSH1 0x0 DUP2 SWAP1 POP SWAP2 SWAP1 POP JUMP JUMPDEST PUSH2 0xFBC DUP2 PUSH2 0xD5F JUMP JUMPDEST DUP3 MSTORE POP POP JUMP JUMPDEST PUSH1 0x0 PUSH2 0xFCE DUP4 DUP4 PUSH2 0xFB3 JUMP JUMPDEST PUSH1 0x20 DUP4 ADD SWAP1 POP SWAP3 SWAP2 POP POP JUMP JUMPDEST PUSH1 0x0 PUSH1 0x20 DUP3 ADD SWAP1 POP SWAP2 SWAP1 POP JUMP JUMPDEST PUSH2 0xFF0 DUP2 PUSH2 0xF93 JUMP JUMPDEST PUSH2 0xFFA DUP2 DUP5 PUSH2 0xF9E JUMP JUMPDEST SWAP3 POP PUSH2 0x1005 DUP3 PUSH2 0xFA9 JUMP JUMPDEST DUP1 PUSH1 0x0 JUMPDEST DUP4 DUP2 LT ISZERO PUSH2 0x1036 JUMPI DUP2 MLOAD PUSH2 0x101D DUP8 DUP3 PUSH2 0xFC2 JUMP JUMPDEST SWAP7 POP PUSH2 0x1028 DUP4 PUSH2 0xFDA JUMP JUMPDEST SWAP3 POP POP PUSH1 0x1 DUP2 ADD SWAP1 POP PUSH2 0x1009 JUMP JUMPDEST POP POP POP POP POP POP JUMP JUMPDEST PUSH1 0x0 PUSH2 0x1A0 DUP3 ADD SWAP1 POP DUP2 DUP2 SUB PUSH1 0x0 DUP4 ADD MSTORE PUSH2 0x1059 DUP2 DUP9 PUSH2 0xE73 JUMP JUMPDEST SWAP1 POP PUSH2 0x1068 PUSH1 0x20 DUP4 ADD DUP8 PUSH2 0xF3C JUMP JUMPDEST PUSH2 0x1075 PUSH1 0x80 DUP4 ADD DUP7 PUSH2 0xF3C JUMP JUMPDEST PUSH2 0x1082 PUSH1 0xE0 DUP4 ADD DUP6 PUSH2 0xFE7 JUMP JUMPDEST PUSH2 0x1090 PUSH2 0x140 DUP4 ADD DUP5 PUSH2 0xF3C JUMP JUMPDEST SWAP7 SWAP6 POP POP POP POP POP POP JUMP JUMPDEST PUSH1 0x0 PUSH1 0x20 DUP3 ADD SWAP1 POP PUSH2 0x10AF PUSH1 0x0 DUP4 ADD DUP5 PUSH2 0xCB2 JUMP JUMPDEST SWAP3 SWAP2 POP POP JUMP JUMPDEST PUSH1 0x0 DUP1 REVERT JUMPDEST PUSH1 0x0 DUP1 REVERT JUMPDEST PUSH32 0x4E487B7100000000000000000000000000000000000000000000000000000000 PUSH1 0x0 MSTORE PUSH1 0x41 PUSH1 0x4 MSTORE PUSH1 0x24 PUSH1 0x0 REVERT JUMPDEST PUSH2 0x10F7 DUP3 PUSH2 0xC68 JUMP JUMPDEST DUP2 ADD DUP2 DUP2 LT PUSH8 0xFFFFFFFFFFFFFFFF DUP3 GT OR ISZERO PUSH2 0x1116 JUMPI PUSH2 0x1115 PUSH2 0x10BF JUMP JUMPDEST JUMPDEST DUP1 PUSH1 0x40 MSTORE POP POP POP JUMP JUMPDEST PUSH1 0x0 PUSH2 0x1129 PUSH2 0xBAB JUMP JUMPDEST SWAP1 POP PUSH2 0x1135 DUP3 DUP3 PUSH2 0x10EE JUMP JUMPDEST SWAP2 SWAP1 POP JUMP JUMPDEST PUSH1 0x0 PUSH8 0xFFFFFFFFFFFFFFFF DUP3 GT ISZERO PUSH2 0x1155 JUMPI PUSH2 0x1154 PUSH2 0x10BF JUMP JUMPDEST JUMPDEST PUSH2 0x115E DUP3 PUSH2 0xC68 JUMP JUMPDEST SWAP1 POP PUSH1 0x20 DUP2 ADD SWAP1 POP SWAP2 SWAP1 POP JUMP JUMPDEST DUP3 DUP2 DUP4 CALLDATACOPY PUSH1 0x0 DUP4 DUP4 ADD MSTORE POP POP POP JUMP JUMPDEST PUSH1 0x0 PUSH2 0x118D PUSH2 0x1188 DUP5 PUSH2 0x113A JUMP JUMPDEST PUSH2 0x111F JUMP JUMPDEST SWAP1 POP DUP3 DUP2 MSTORE PUSH1 0x20 DUP2 ADD DUP5 DUP5 DUP5 ADD GT ISZERO PUSH2 0x11A9 JUMPI PUSH2 0x11A8 PUSH2 0x10BA JUMP JUMPDEST JUMPDEST PUSH2 0x11B4 DUP5 DUP3 DUP6 PUSH2 0x116B JUMP JUMPDEST POP SWAP4 SWAP3 POP POP POP JUMP JUMPDEST PUSH1 0x0 DUP3 PUSH1 0x1F DUP4 ADD SLT PUSH2 0x11D1 JUMPI PUSH2 0x11D0 PUSH2 0x10B5 JUMP JUMPDEST JUMPDEST DUP2 CALLDATALOAD PUSH2 0x11E1 DUP5 DUP3 PUSH1 0x20 DUP7 ADD PUSH2 0x117A JUMP JUMPDEST SWAP2 POP POP SWAP3 SWAP2 POP POP JUMP JUMPDEST PUSH1 0x4 DUP2 LT PUSH2 0x11F7 JUMPI PUSH1 0x0 DUP1 REVERT JUMPDEST POP JUMP JUMPDEST PUSH1 0x0 DUP2 CALLDATALOAD SWAP1 POP PUSH2 0x1209 DUP2 PUSH2 0x11EA JUMP JUMPDEST SWAP3 SWAP2 POP POP JUMP JUMPDEST PUSH1 0x4 DUP2 LT PUSH2 0x121C JUMPI PUSH1 0x0 DUP1 REVERT JUMPDEST POP JUMP JUMPDEST PUSH1 0x0 DUP2 CALLDATALOAD SWAP1 POP PUSH2 0x122E DUP2 PUSH2 0x120F JUMP JUMPDEST SWAP3 SWAP2 POP POP JUMP JUMPDEST PUSH1 0x0 DUP1 PUSH1 0x0 DUP1 PUSH1 0x0 PUSH1 0xA0 DUP7 DUP9 SUB SLT ISZERO PUSH2 0x1250 JUMPI PUSH2 0x124F PUSH2 0xBB5 JUMP JUMPDEST JUMPDEST PUSH1 0x0 DUP7 ADD CALLDATALOAD PUSH8 0xFFFFFFFFFFFFFFFF DUP2 GT ISZERO PUSH2 0x126E JUMPI PUSH2 0x126D PUSH2 0xBBA JUMP JUMPDEST JUMPDEST PUSH2 0x127A DUP9 DUP3 DUP10 ADD PUSH2 0x11BC JUMP JUMPDEST SWAP6 POP POP PUSH1 0x20 PUSH2 0x128B DUP9 DUP3 DUP10 ADD PUSH2 0xBE0 JUMP JUMPDEST SWAP5 POP POP PUSH1 0x40 PUSH2 0x129C DUP9 DUP3 DUP10 ADD PUSH2 0x11FA JUMP JUMPDEST SWAP4 POP POP PUSH1 0x60 PUSH2 0x12AD DUP9 DUP3 DUP10 ADD PUSH2 0x121F JUMP JUMPDEST SWAP3 POP POP PUSH1 0x80 PUSH2 0x12BE DUP9 DUP3 DUP10 ADD PUSH2 0xBE0 JUMP JUMPDEST SWAP2 POP POP SWAP3 SWAP6 POP SWAP3 SWAP6 SWAP1 SWAP4 POP JUMP JUMPDEST PUSH1 0x0 PUSH1 0x20 DUP3 DUP5 SUB SLT ISZERO PUSH2 0x12E1 JUMPI PUSH2 0x12E0 PUSH2 0xBB5 JUMP JUMPDEST JUMPDEST PUSH1 0x0 PUSH2 0x12EF DUP5 DUP3 DUP6 ADD PUSH2 0x11FA JUMP JUMPDEST SWAP2 POP POP SWAP3 SWAP2 POP POP JUMP JUMPDEST PUSH1 0x0 DUP1 PUSH1 0x0 DUP1 PUSH1 0x0 DUP1 PUSH1 0x0 PUSH1 0xE0 DUP9 DUP11 SUB SLT ISZERO PUSH2 0x1317 JUMPI PUSH2 0x1316 PUSH2 0xBB5 JUMP JUMPDEST JUMPDEST PUSH1 0x0 PUSH2 0x1325 DUP11 DUP3 DUP12 ADD PUSH2 0xBE0 JUMP JUMPDEST SWAP8 POP POP PUSH1 0x20 DUP9 ADD CALLDATALOAD PUSH8 0xFFFFFFFFFFFFFFFF DUP2 GT ISZERO PUSH2 0x1346 JUMPI PUSH2 0x1345 PUSH2 0xBBA JUMP JUMPDEST JUMPDEST PUSH2 0x1352 DUP11 DUP3 DUP12 ADD PUSH2 0x11BC JUMP JUMPDEST SWAP7 POP POP PUSH1 0x40 PUSH2 0x1363 DUP11 DUP3 DUP12 ADD PUSH2 0xBE0 JUMP JUMPDEST SWAP6 POP POP PUSH1 0x60 PUSH2 0x1374 DUP11 DUP3 DUP12 ADD PUSH2 0xBE0 JUMP JUMPDEST SWAP5 POP POP PUSH1 0x80 PUSH2 0x1385 DUP11 DUP3 DUP12 ADD PUSH2 0x11FA JUMP JUMPDEST SWAP4 POP POP PUSH1 0xA0 PUSH2 0x1396 DUP11 DUP3 DUP12 ADD PUSH2 0x121F JUMP JUMPDEST SWAP3 POP POP PUSH1 0xC0 PUSH2 0x13A7 DUP11 DUP3 DUP12 ADD PUSH2 0xBE0 JUMP JUMPDEST SWAP2 POP POP SWAP3 SWAP6 SWAP9 SWAP2 SWAP5 SWAP8 POP SWAP3 SWAP6 POP JUMP JUMPDEST PUSH32 0x4E487B7100000000000000000000000000000000000000000000000000000000 PUSH1 0x0 MSTORE PUSH1 0x22 PUSH1 0x4 MSTORE PUSH1 0x24 PUSH1 0x0 REVERT JUMPDEST PUSH1 0x0 PUSH1 0x2 DUP3 DIV SWAP1 POP PUSH1 0x1 DUP3 AND DUP1 PUSH2 0x13FD JUMPI PUSH1 0x7F DUP3 AND SWAP2 POP JUMPDEST PUSH1 0x20 DUP3 LT DUP2 SUB PUSH2 0x1410 JUMPI PUSH2 0x140F PUSH2 0x13B6 JUMP JUMPDEST JUMPDEST POP SWAP2 SWAP1 POP JUMP JUMPDEST PUSH32 0x4E487B7100000000000000000000000000000000000000000000000000000000 PUSH1 0x0 MSTORE PUSH1 0x32 PUSH1 0x4 MSTORE PUSH1 0x24 PUSH1 0x0 REVERT JUMPDEST PUSH32 0x4E487B7100000000000000000000000000000000000000000000000000000000 PUSH1 0x0 MSTORE PUSH1 0x11 PUSH1 0x4 MSTORE PUSH1 0x24 PUSH1 0x0 REVERT JUMPDEST PUSH1 0x0 PUSH2 0x147F DUP3 PUSH2 0xBBF JUMP JUMPDEST SWAP2 POP PUSH2 0x148A DUP4 PUSH2 0xBBF JUMP JUMPDEST SWAP3 POP DUP3 DUP3 SUB SWAP1 POP DUP2 DUP2 GT ISZERO PUSH2 0x14A2 JUMPI PUSH2 0x14A1 PUSH2 0x1445 JUMP JUMPDEST JUMPDEST SWAP3 SWAP2 POP POP JUMP JUMPDEST PUSH1 0x0 PUSH2 0x14B3 DUP3 PUSH2 0xBBF JUMP JUMPDEST SWAP2 POP PUSH1 0x0 DUP3 SUB PUSH2 0x14C6 JUMPI PUSH2 0x14C5 PUSH2 0x1445 JUMP JUMPDEST JUMPDEST PUSH1 0x1 DUP3 SUB SWAP1 POP SWAP2 SWAP1 POP JUMP JUMPDEST PUSH1 0x0 PUSH2 0x14DC DUP3 PUSH2 0xBBF JUMP JUMPDEST SWAP2 POP PUSH32 0xFFFFFFFFFFFFFFFFFFFFFFFFFFFFFFFFFFFFFFFFFFFFFFFFFFFFFFFFFFFFFFFF DUP3 SUB PUSH2 0x150E JUMPI PUSH2 0x150D PUSH2 0x1445 JUMP JUMPDEST JUMPDEST PUSH1 0x1 DUP3 ADD SWAP1 POP SWAP2 SWAP1 POP JUMP JUMPDEST PUSH1 0x0 DUP2 SWAP1 POP DUP2 PUSH1 0x0 MSTORE PUSH1 0x20 PUSH1 0x0 KECCAK256 SWAP1 POP SWAP2 SWAP1 POP JUMP JUMPDEST PUSH1 0x0 PUSH1 0x20 PUSH1 0x1F DUP4 ADD DIV SWAP1 POP SWAP2 SWAP1 POP JUMP JUMPDEST PUSH1 0x0 DUP3 DUP3 SHL SWAP1 POP SWAP3 SWAP2 POP POP JUMP JUMPDEST PUSH1 0x0 PUSH1 0x8 DUP4 MUL PUSH2 0x157B PUSH32 0xFFFFFFFFFFFFFFFFFFFFFFFFFFFFFFFFFFFFFFFFFFFFFFFFFFFFFFFFFFFFFFFF DUP3 PUSH2 0x153E JUMP JUMPDEST PUSH2 0x1585 DUP7 DUP4 PUSH2 0x153E JUMP JUMPDEST SWAP6 POP DUP1 NOT DUP5 AND SWAP4 POP DUP1 DUP7 AND DUP5 OR SWAP3 POP POP POP SWAP4 SWAP3 POP POP POP JUMP JUMPDEST PUSH1 0x0 DUP2 SWAP1 POP SWAP2 SWAP1 POP JUMP JUMPDEST PUSH1 0x0 PUSH2 0x15C2 PUSH2 0x15BD PUSH2 0x15B8 DUP5 PUSH2 0xBBF JUMP JUMPDEST PUSH2 0x159D JUMP JUMPDEST PUSH2 0xBBF JUMP JUMPDEST SWAP1 POP SWAP2 SWAP1 POP JUMP JUMPDEST PUSH1 0x0 DUP2 SWAP1 POP SWAP2 SWAP1 POP JUMP JUMPDEST PUSH2 0x15DC DUP4 PUSH2 0x15A7 JUMP JUMPDEST PUSH2 0x15F0 PUSH2 0x15E8 DUP3 PUSH2 0x15C9 JUMP JUMPDEST DUP5 DUP5 SLOAD PUSH2 0x154B JUMP JUMPDEST DUP3 SSTORE POP POP POP POP JUMP JUMPDEST PUSH1 0x0 SWAP1 JUMP JUMPDEST PUSH2 0x1605 PUSH2 0x15F8 JUMP JUMPDEST PUSH2 0x1610 DUP2 DUP5 DUP5 PUSH2 0x15D3 JUMP JUMPDEST POP POP POP JUMP JUMPDEST JUMPDEST DUP2 DUP2 LT ISZERO PUSH2 0x1634 JUMPI PUSH2 0x1629 PUSH1 0x0 DUP3 PUSH2 0x15FD JUMP JUMPDEST PUSH1 0x1 DUP2 ADD SWAP1 POP PUSH2 0x1616 JUMP JUMPDEST POP POP JUMP JUMPDEST PUSH1 0x1F DUP3 GT ISZERO PUSH2 0x1679 JUMPI PUSH2 0x164A DUP2 PUSH2 0x1519 JUMP JUMPDEST PUSH2 0x1653 DUP5 PUSH2 0x152E JUMP JUMPDEST DUP2 ADD PUSH1 0x20 DUP6 LT ISZERO PUSH2 0x1662 JUMPI DUP2 SWAP1 POP JUMPDEST PUSH2 0x1676 PUSH2 0x166E DUP6 PUSH2 0x152E JUMP JUMPDEST DUP4 ADD DUP3 PUSH2 0x1615 JUMP JUMPDEST POP POP JUMPDEST POP POP POP JUMP JUMPDEST PUSH1 0x0 DUP3 DUP3 SHR SWAP1 POP SWAP3 SWAP2 POP POP JUMP JUMPDEST PUSH1 0x0 PUSH2 0x169C PUSH1 0x0 NOT DUP5 PUSH1 0x8 MUL PUSH2 0x167E JUMP JUMPDEST NOT DUP1 DUP4 AND SWAP2 POP POP SWAP3 SWAP2 POP POP JUMP JUMPDEST PUSH1 0x0 PUSH2 0x16B5 DUP4 DUP4 PUSH2 0x168B JUMP JUMPDEST SWAP2 POP DUP3 PUSH1 0x2 MUL DUP3 OR SWAP1 POP SWAP3 SWAP2 POP POP JUMP JUMPDEST PUSH2 0x16CE DUP3 PUSH2 0xC22 JUMP JUMPDEST PUSH8 0xFFFFFFFFFFFFFFFF DUP2 GT ISZERO PUSH2 0x16E7 JUMPI PUSH2 0x16E6 PUSH2 0x10BF JUMP JUMPDEST JUMPDEST PUSH2 0x16F1 DUP3 SLOAD PUSH2 0x13E5 JUMP JUMPDEST PUSH2 0x16FC DUP3 DUP3 DUP6 PUSH2 0x1638 JUMP JUMPDEST PUSH1 0x0 PUSH1 0x20 SWAP1 POP PUSH1 0x1F DUP4 GT PUSH1 0x1 DUP2 EQ PUSH2 0x172F JUMPI PUSH1 0x0 DUP5 ISZERO PUSH2 0x171D JUMPI DUP3 DUP8 ADD MLOAD SWAP1 POP JUMPDEST PUSH2 0x1727 DUP6 DUP3 PUSH2 0x16A9 JUMP JUMPDEST DUP7 SSTORE POP PUSH2 0x178F JUMP JUMPDEST PUSH1 0x1F NOT DUP5 AND PUSH2 0x173D DUP7 PUSH2 0x1519 JUMP JUMPDEST PUSH1 0x0 JUMPDEST DUP3 DUP2 LT ISZERO PUSH2 0x1765 JUMPI DUP5 DUP10 ADD MLOAD DUP3 SSTORE PUSH1 0x1 DUP3 ADD SWAP2 POP PUSH1 0x20 DUP6 ADD SWAP5 POP PUSH1 0x20 DUP2 ADD SWAP1 POP PUSH2 0x1740 JUMP JUMPDEST DUP7 DUP4 LT ISZERO PUSH2 0x1782 JUMPI DUP5 DUP10 ADD MLOAD PUSH2 0x177E PUSH1 0x1F DUP10 AND DUP3 PUSH2 0x168B JUMP JUMPDEST DUP4 SSTORE POP JUMPDEST PUSH1 0x1 PUSH1 0x2 DUP9 MUL ADD DUP9 SSTORE POP POP POP JUMPDEST POP POP POP POP POP POP JUMP INVALID LOG2 PUSH5 0x6970667358 0x22 SLT KECCAK256 CREATE2 CALLDATALOAD ADD 0xCE 0xEE 0x5F SMOD 0xB0 AND 0xE5 0xA9 0x24 POP DUP2 EXP PUSH1 0xD8 0x4D 0xF DUP10 0x5E 0xDA EQ 0xC6 PUSH16 0xC23C4A32ACBDD64736F6C6343000812 STOP CALLER "
		},
		"gasEstimates": {
			"creation": {
				"codeDepositCost": "1218600",
				"executionCost": "23374",
				"totalCost": "1241974"
			},
			"external": {
				"RegisterStudent(string,uint256,uint8,uint8,uint256)": "infinite",
				"Retrieve(uint256)": "infinite",
				"UpdateStudentInfo(uint256,string,uint256,uint256,uint8,uint8,uint256)": "infinite",
				"getCount(uint8)": "infinite",
				"getTop3BlockchainAchievers()": "infinite",
				"nextRollNumber()": "2474",
				"students(uint256)": "infinite",
				"totalStudents()": "2451"
			},
			"internal": {
				"getNextRollNumber()": "26493"
			}
		},
		"methodIdentifiers": {
			"RegisterStudent(string,uint256,uint8,uint8,uint256)": "5fb8fa34",
			"Retrieve(uint256)": "7168014d",
			"UpdateStudentInfo(uint256,string,uint256,uint256,uint8,uint8,uint256)": "ea81e5ad",
			"getCount(uint8)": "a819dfbb",
			"getTop3BlockchainAchievers()": "12b4e900",
			"nextRollNumber()": "537aa3fe",
			"students(uint256)": "06ead22e",
			"totalStudents()": "9852bf8e"
		}
	},
	"abi": [
		{
			"inputs": [
				{
					"internalType": "string",
					"name": "name",
					"type": "string"
				},
				{
					"internalType": "uint256",
					"name": "age",
					"type": "uint256"
				},
				{
					"internalType": "enum StudentRegistrationSystem.Department",
					"name": "department",
					"type": "uint8"
				},
				{
					"internalType": "enum StudentRegistrationSystem.Status",
					"name": "status",
					"type": "uint8"
				},
				{
					"internalType": "uint256",
					"name": "obtainedMarks",
					"type": "uint256"
				}
			],
			"name": "RegisterStudent",
			"outputs": [],
			"stateMutability": "nonpayable",
			"type": "function"
		},
		{
			"inputs": [
				{
					"internalType": "uint256",
					"name": "rollnumber",
					"type": "uint256"
				}
			],
			"name": "Retrieve",
			"outputs": [
				{
					"internalType": "string",
					"name": "name",
					"type": "string"
				},
				{
					"internalType": "uint256",
					"name": "age",
					"type": "uint256"
				},
				{
					"internalType": "uint256",
					"name": "registrationDate",
					"type": "uint256"
				},
				{
					"internalType": "enum StudentRegistrationSystem.Department",
					"name": "department",
					"type": "uint8"
				},
				{
					"internalType": "enum StudentRegistrationSystem.Status",
					"name": "status",
					"type": "uint8"
				},
				{
					"internalType": "uint256",
					"name": "ObtainedMarks",
					"type": "uint256"
				}
			],
			"stateMutability": "view",
			"type": "function"
		},
		{
			"inputs": [
				{
					"internalType": "uint256",
					"name": "rollnumber",
					"type": "uint256"
				},
				{
					"internalType": "string",
					"name": "name",
					"type": "string"
				},
				{
					"internalType": "uint256",
					"name": "age",
					"type": "uint256"
				},
				{
					"internalType": "uint256",
					"name": "registrationDate",
					"type": "uint256"
				},
				{
					"internalType": "enum StudentRegistrationSystem.Department",
					"name": "department",
					"type": "uint8"
				},
				{
					"internalType": "enum StudentRegistrationSystem.Status",
					"name": "status",
					"type": "uint8"
				},
				{
					"internalType": "uint256",
					"name": "ObtainedMarks",
					"type": "uint256"
				}
			],
			"name": "UpdateStudentInfo",
			"outputs": [],
			"stateMutability": "nonpayable",
			"type": "function"
		},
		{
			"inputs": [
				{
					"internalType": "enum StudentRegistrationSystem.Department",
					"name": "_department",
					"type": "uint8"
				}
			],
			"name": "getCount",
			"outputs": [
				{
					"internalType": "uint256",
					"name": "",
					"type": "uint256"
				}
			],
			"stateMutability": "view",
			"type": "function"
		},
		{
			"inputs": [],
			"name": "getTop3BlockchainAchievers",
			"outputs": [
				{
					"internalType": "string[3]",
					"name": "names",
					"type": "string[3]"
				},
				{
					"internalType": "uint256[3]",
					"name": "ages",
					"type": "uint256[3]"
				},
				{
					"internalType": "uint256[3]",
					"name": "registrationDates",
					"type": "uint256[3]"
				},
				{
					"internalType": "enum StudentRegistrationSystem.Status[3]",
					"name": "statuses",
					"type": "uint8[3]"
				},
				{
					"internalType": "uint256[3]",
					"name": "obtainedMarks",
					"type": "uint256[3]"
				}
			],
			"stateMutability": "view",
			"type": "function"
		},
		{
			"inputs": [],
			"name": "nextRollNumber",
			"outputs": [
				{
					"internalType": "uint256",
					"name": "",
					"type": "uint256"
				}
			],
			"stateMutability": "view",
			"type": "function"
		},
		{
			"inputs": [
				{
					"internalType": "uint256",
					"name": "",
					"type": "uint256"
				}
			],
			"name": "students",
			"outputs": [
				{
					"internalType": "string",
					"name": "name",
					"type": "string"
				},
				{
					"internalType": "uint256",
					"name": "age",
					"type": "uint256"
				},
				{
					"internalType": "uint256",
					"name": "registrationDate",
					"type": "uint256"
				},
				{
					"internalType": "enum StudentRegistrationSystem.Department",
					"name": "department",
					"type": "uint8"
				},
				{
					"internalType": "enum StudentRegistrationSystem.Status",
					"name": "status",
					"type": "uint8"
				},
				{
					"internalType": "uint256",
					"name": "ObtainedMarks",
					"type": "uint256"
				}
			],
			"stateMutability": "view",
			"type": "function"
		},
		{
			"inputs": [],
			"name": "totalStudents",
			"outputs": [
				{
					"internalType": "uint256",
					"name": "",
					"type": "uint256"
				}
			],
			"stateMutability": "view",
			"type": "function"
		}
	]
}