{
	"LABS 18 Aug/Task All 18.sol": {
		"RegularBuyer": {
			"abi": [
				{
					"anonymous": false,
					"inputs": [
						{
							"indexed": false,
							"internalType": "address",
							"name": "Buyer",
							"type": "address"
						},
						{
							"indexed": false,
							"internalType": "address",
							"name": "sender",
							"type": "address"
						},
						{
							"indexed": false,
							"internalType": "uint256",
							"name": "valueOfPurchase",
							"type": "uint256"
						}
					],
					"name": "Purchase",
					"type": "event"
				},
				{
					"inputs": [
						{
							"internalType": "address",
							"name": "Seller",
							"type": "address"
						},
						{
							"internalType": "uint256",
							"name": "Cash",
							"type": "uint256"
						}
					],
					"name": "Buy",
					"outputs": [],
					"stateMutability": "nonpayable",
					"type": "function"
				},
				{
					"inputs": [
						{
							"internalType": "address",
							"name": "",
							"type": "address"
						}
					],
					"name": "Register",
					"outputs": [],
					"stateMutability": "nonpayable",
					"type": "function"
				},
				{
					"inputs": [
						{
							"internalType": "address",
							"name": "Buyer",
							"type": "address"
						},
						{
							"internalType": "uint256",
							"name": "ItemPrice",
							"type": "uint256"
						},
						{
							"internalType": "address",
							"name": "Seller",
							"type": "address"
						}
					],
					"name": "Sell",
					"outputs": [
						{
							"internalType": "string",
							"name": "",
							"type": "string"
						}
					],
					"stateMutability": "nonpayable",
					"type": "function"
				},
				{
					"inputs": [
						{
							"internalType": "address",
							"name": "",
							"type": "address"
						}
					],
					"name": "balance",
					"outputs": [
						{
							"internalType": "uint256",
							"name": "",
							"type": "uint256"
						}
					],
					"stateMutability": "view",
					"type": "function"
				}
			],
			"devdoc": {
				"kind": "dev",
				"methods": {},
				"version": 1
			},
			"evm": {
				"assembly": "    /* \"LABS 18 Aug/Task All 18.sol\":1947:1989  contract RegularBuyer is Marketplace{... */\n  mstore(0x40, 0x80)\n  callvalue\n  dup1\n  iszero\n  tag_1\n  jumpi\n  0x00\n  dup1\n  revert\ntag_1:\n  pop\n  dataSize(sub_0)\n  dup1\n  dataOffset(sub_0)\n  0x00\n  codecopy\n  0x00\n  return\nstop\n\nsub_0: assembly {\n        /* \"LABS 18 Aug/Task All 18.sol\":1947:1989  contract RegularBuyer is Marketplace{... */\n      mstore(0x40, 0x80)\n      callvalue\n      dup1\n      iszero\n      tag_1\n      jumpi\n      0x00\n      dup1\n      revert\n    tag_1:\n      pop\n      jumpi(tag_2, lt(calldatasize, 0x04))\n      shr(0xe0, calldataload(0x00))\n      dup1\n      0x13e27488\n      eq\n      tag_3\n      jumpi\n      dup1\n      0xe3d4187f\n      eq\n      tag_4\n      jumpi\n      dup1\n      0xe3d670d7\n      eq\n      tag_5\n      jumpi\n      dup1\n      0xeeda149c\n      eq\n      tag_6\n      jumpi\n    tag_2:\n      0x00\n      dup1\n      revert\n        /* \"LABS 18 Aug/Task All 18.sol\":846:1290  function Sell(address Buyer, uint ItemPrice, address Seller) virtual external returns (string memory) {... */\n    tag_3:\n      tag_7\n      0x04\n      dup1\n      calldatasize\n      sub\n      dup2\n      add\n      swap1\n      tag_8\n      swap2\n      swap1\n      tag_9\n      jump\t// in\n    tag_8:\n      tag_10\n      jump\t// in\n    tag_7:\n      mload(0x40)\n      tag_11\n      swap2\n      swap1\n      tag_12\n      jump\t// in\n    tag_11:\n      mload(0x40)\n      dup1\n      swap2\n      sub\n      swap1\n      return\n        /* \"LABS 18 Aug/Task All 18.sol\":443:824  function Buy(address Seller, uint Cash) virtual external {... */\n    tag_4:\n      tag_13\n      0x04\n      dup1\n      calldatasize\n      sub\n      dup2\n      add\n      swap1\n      tag_14\n      swap2\n      swap1\n      tag_15\n      jump\t// in\n    tag_14:\n      tag_16\n      jump\t// in\n    tag_13:\n      stop\n        /* \"LABS 18 Aug/Task All 18.sol\":118:157  mapping(address => uint) public balance */\n    tag_5:\n      tag_17\n      0x04\n      dup1\n      calldatasize\n      sub\n      dup2\n      add\n      swap1\n      tag_18\n      swap2\n      swap1\n      tag_19\n      jump\t// in\n    tag_18:\n      tag_20\n      jump\t// in\n    tag_17:\n      mload(0x40)\n      tag_21\n      swap2\n      swap1\n      tag_22\n      jump\t// in\n    tag_21:\n      mload(0x40)\n      dup1\n      swap2\n      sub\n      swap1\n      return\n        /* \"LABS 18 Aug/Task All 18.sol\":271:421  function Register(address) external {... */\n    tag_6:\n      tag_23\n      0x04\n      dup1\n      calldatasize\n      sub\n      dup2\n      add\n      swap1\n      tag_24\n      swap2\n      swap1\n      tag_19\n      jump\t// in\n    tag_24:\n      tag_25\n      jump\t// in\n    tag_23:\n      stop\n        /* \"LABS 18 Aug/Task All 18.sol\":846:1290  function Sell(address Buyer, uint ItemPrice, address Seller) virtual external returns (string memory) {... */\n    tag_10:\n        /* \"LABS 18 Aug/Task All 18.sol\":933:946  string memory */\n      0x60\n        /* \"LABS 18 Aug/Task All 18.sol\":989:990  0 */\n      0x00\n        /* \"LABS 18 Aug/Task All 18.sol\":967:974  balance */\n      dup1\n        /* \"LABS 18 Aug/Task All 18.sol\":967:986  balance[msg.sender] */\n      0x00\n        /* \"LABS 18 Aug/Task All 18.sol\":975:985  msg.sender */\n      caller\n        /* \"LABS 18 Aug/Task All 18.sol\":967:986  balance[msg.sender] */\n      0xffffffffffffffffffffffffffffffffffffffff\n      and\n      0xffffffffffffffffffffffffffffffffffffffff\n      and\n      dup2\n      mstore\n      0x20\n      add\n      swap1\n      dup2\n      mstore\n      0x20\n      add\n      0x00\n      keccak256\n      sload\n        /* \"LABS 18 Aug/Task All 18.sol\":967:990  balance[msg.sender] > 0 */\n      gt\n        /* \"LABS 18 Aug/Task All 18.sol\":959:1015  require(balance[msg.sender] > 0, \"Buyer Not Registered\") */\n      tag_27\n      jumpi\n      mload(0x40)\n      0x08c379a000000000000000000000000000000000000000000000000000000000\n      dup2\n      mstore\n      0x04\n      add\n      tag_28\n      swap1\n      tag_29\n      jump\t// in\n    tag_28:\n      mload(0x40)\n      dup1\n      swap2\n      sub\n      swap1\n      revert\n    tag_27:\n        /* \"LABS 18 Aug/Task All 18.sol\":1052:1053  0 */\n      0x00\n        /* \"LABS 18 Aug/Task All 18.sol\":1034:1041  balance */\n      dup1\n        /* \"LABS 18 Aug/Task All 18.sol\":1034:1049  balance[Seller] */\n      0x00\n        /* \"LABS 18 Aug/Task All 18.sol\":1042:1048  Seller */\n      dup5\n        /* \"LABS 18 Aug/Task All 18.sol\":1034:1049  balance[Seller] */\n      0xffffffffffffffffffffffffffffffffffffffff\n      and\n      0xffffffffffffffffffffffffffffffffffffffff\n      and\n      dup2\n      mstore\n      0x20\n      add\n      swap1\n      dup2\n      mstore\n      0x20\n      add\n      0x00\n      keccak256\n      sload\n        /* \"LABS 18 Aug/Task All 18.sol\":1034:1053  balance[Seller] > 0 */\n      gt\n        /* \"LABS 18 Aug/Task All 18.sol\":1026:1079  require(balance[Seller] > 0, \"Seller Not Registered\") */\n      tag_30\n      jumpi\n      mload(0x40)\n      0x08c379a000000000000000000000000000000000000000000000000000000000\n      dup2\n      mstore\n      0x04\n      add\n      tag_31\n      swap1\n      tag_32\n      jump\t// in\n    tag_31:\n      mload(0x40)\n      dup1\n      swap2\n      sub\n      swap1\n      revert\n    tag_30:\n        /* \"LABS 18 Aug/Task All 18.sol\":1110:1111  0 */\n      0x00\n        /* \"LABS 18 Aug/Task All 18.sol\":1098:1107  ItemPrice */\n      dup4\n        /* \"LABS 18 Aug/Task All 18.sol\":1098:1111  ItemPrice > 0 */\n      gt\n        /* \"LABS 18 Aug/Task All 18.sol\":1090:1151  require(ItemPrice > 0, \"ItemPrice Must Be Greater Than Zero\") */\n      tag_33\n      jumpi\n      mload(0x40)\n      0x08c379a000000000000000000000000000000000000000000000000000000000\n      dup2\n      mstore\n      0x04\n      add\n      tag_34\n      swap1\n      tag_35\n      jump\t// in\n    tag_34:\n      mload(0x40)\n      dup1\n      swap2\n      sub\n      swap1\n      revert\n    tag_33:\n        /* \"LABS 18 Aug/Task All 18.sol\":1180:1185  Buyer */\n      dup4\n        /* \"LABS 18 Aug/Task All 18.sol\":1170:1185  Seller != Buyer */\n      0xffffffffffffffffffffffffffffffffffffffff\n      and\n        /* \"LABS 18 Aug/Task All 18.sol\":1170:1176  Seller */\n      dup3\n        /* \"LABS 18 Aug/Task All 18.sol\":1170:1185  Seller != Buyer */\n      0xffffffffffffffffffffffffffffffffffffffff\n      and\n      sub\n        /* \"LABS 18 Aug/Task All 18.sol\":1162:1221  require(Seller != Buyer, \"Seller and Buyer Cannot Be Same\") */\n      tag_36\n      jumpi\n      mload(0x40)\n      0x08c379a000000000000000000000000000000000000000000000000000000000\n      dup2\n      mstore\n      0x04\n      add\n      tag_37\n      swap1\n      tag_38\n      jump\t// in\n    tag_37:\n      mload(0x40)\n      dup1\n      swap2\n      sub\n      swap1\n      revert\n    tag_36:\n        /* \"LABS 18 Aug/Task All 18.sol\":1232:1282  return (\"Item Will Be Shipped To Buyers Location\") */\n      mload(0x40)\n      dup1\n      0x60\n      add\n      0x40\n      mstore\n      dup1\n      0x27\n      dup2\n      mstore\n      0x20\n      add\n      data_11f4fd09b671a7d7f324cfa2be11ff8fb002ad06f4cf9af7f0d6c5649991785e\n      0x27\n      swap2\n      codecopy\n      swap1\n      pop\n        /* \"LABS 18 Aug/Task All 18.sol\":846:1290  function Sell(address Buyer, uint ItemPrice, address Seller) virtual external returns (string memory) {... */\n      swap4\n      swap3\n      pop\n      pop\n      pop\n      jump\t// out\n        /* \"LABS 18 Aug/Task All 18.sol\":443:824  function Buy(address Seller, uint Cash) virtual external {... */\n    tag_16:\n        /* \"LABS 18 Aug/Task All 18.sol\":541:542  0 */\n      0x00\n        /* \"LABS 18 Aug/Task All 18.sol\":519:526  balance */\n      dup1\n        /* \"LABS 18 Aug/Task All 18.sol\":519:538  balance[msg.sender] */\n      0x00\n        /* \"LABS 18 Aug/Task All 18.sol\":527:537  msg.sender */\n      caller\n        /* \"LABS 18 Aug/Task All 18.sol\":519:538  balance[msg.sender] */\n      0xffffffffffffffffffffffffffffffffffffffff\n      and\n      0xffffffffffffffffffffffffffffffffffffffff\n      and\n      dup2\n      mstore\n      0x20\n      add\n      swap1\n      dup2\n      mstore\n      0x20\n      add\n      0x00\n      keccak256\n      sload\n        /* \"LABS 18 Aug/Task All 18.sol\":519:542  balance[msg.sender] > 0 */\n      gt\n        /* \"LABS 18 Aug/Task All 18.sol\":511:567  require(balance[msg.sender] > 0, \"Buyer Not Registered\") */\n      tag_40\n      jumpi\n      mload(0x40)\n      0x08c379a000000000000000000000000000000000000000000000000000000000\n      dup2\n      mstore\n      0x04\n      add\n      tag_41\n      swap1\n      tag_29\n      jump\t// in\n    tag_41:\n      mload(0x40)\n      dup1\n      swap2\n      sub\n      swap1\n      revert\n    tag_40:\n        /* \"LABS 18 Aug/Task All 18.sol\":604:605  0 */\n      0x00\n        /* \"LABS 18 Aug/Task All 18.sol\":586:593  balance */\n      dup1\n        /* \"LABS 18 Aug/Task All 18.sol\":586:601  balance[Seller] */\n      0x00\n        /* \"LABS 18 Aug/Task All 18.sol\":594:600  Seller */\n      dup5\n        /* \"LABS 18 Aug/Task All 18.sol\":586:601  balance[Seller] */\n      0xffffffffffffffffffffffffffffffffffffffff\n      and\n      0xffffffffffffffffffffffffffffffffffffffff\n      and\n      dup2\n      mstore\n      0x20\n      add\n      swap1\n      dup2\n      mstore\n      0x20\n      add\n      0x00\n      keccak256\n      sload\n        /* \"LABS 18 Aug/Task All 18.sol\":586:605  balance[Seller] > 0 */\n      gt\n        /* \"LABS 18 Aug/Task All 18.sol\":578:631  require(balance[Seller] > 0, \"Seller Not Registered\") */\n      tag_42\n      jumpi\n      mload(0x40)\n      0x08c379a000000000000000000000000000000000000000000000000000000000\n      dup2\n      mstore\n      0x04\n      add\n      tag_43\n      swap1\n      tag_32\n      jump\t// in\n    tag_43:\n      mload(0x40)\n      dup1\n      swap2\n      sub\n      swap1\n      revert\n    tag_42:\n        /* \"LABS 18 Aug/Task All 18.sol\":658:659  0 */\n      0x00\n        /* \"LABS 18 Aug/Task All 18.sol\":650:654  Cash */\n      dup2\n        /* \"LABS 18 Aug/Task All 18.sol\":650:659  Cash == 0 */\n      eq\n        /* \"LABS 18 Aug/Task All 18.sol\":642:694  require(Cash == 0, \"Cash Must Be Greater Than Zero\") */\n      tag_44\n      jumpi\n      mload(0x40)\n      0x08c379a000000000000000000000000000000000000000000000000000000000\n      dup2\n      mstore\n      0x04\n      add\n      tag_45\n      swap1\n      tag_46\n      jump\t// in\n    tag_45:\n      mload(0x40)\n      dup1\n      swap2\n      sub\n      swap1\n      revert\n    tag_44:\n        /* \"LABS 18 Aug/Task All 18.sol\":728:732  Cash */\n      dup1\n        /* \"LABS 18 Aug/Task All 18.sol\":705:712  balance */\n      0x00\n        /* \"LABS 18 Aug/Task All 18.sol\":705:724  balance[msg.sender] */\n      dup1\n        /* \"LABS 18 Aug/Task All 18.sol\":713:723  msg.sender */\n      caller\n        /* \"LABS 18 Aug/Task All 18.sol\":705:724  balance[msg.sender] */\n      0xffffffffffffffffffffffffffffffffffffffff\n      and\n      0xffffffffffffffffffffffffffffffffffffffff\n      and\n      dup2\n      mstore\n      0x20\n      add\n      swap1\n      dup2\n      mstore\n      0x20\n      add\n      0x00\n      keccak256\n      0x00\n        /* \"LABS 18 Aug/Task All 18.sol\":705:732  balance[msg.sender] -= Cash */\n      dup3\n      dup3\n      sload\n      tag_47\n      swap2\n      swap1\n      tag_48\n      jump\t// in\n    tag_47:\n      swap3\n      pop\n      pop\n      dup2\n      swap1\n      sstore\n      pop\n        /* \"LABS 18 Aug/Task All 18.sol\":762:766  Cash */\n      dup1\n        /* \"LABS 18 Aug/Task All 18.sol\":743:750  balance */\n      0x00\n        /* \"LABS 18 Aug/Task All 18.sol\":743:758  balance[Seller] */\n      dup1\n        /* \"LABS 18 Aug/Task All 18.sol\":751:757  Seller */\n      dup5\n        /* \"LABS 18 Aug/Task All 18.sol\":743:758  balance[Seller] */\n      0xffffffffffffffffffffffffffffffffffffffff\n      and\n      0xffffffffffffffffffffffffffffffffffffffff\n      and\n      dup2\n      mstore\n      0x20\n      add\n      swap1\n      dup2\n      mstore\n      0x20\n      add\n      0x00\n      keccak256\n      0x00\n        /* \"LABS 18 Aug/Task All 18.sol\":743:766  balance[Seller] += Cash */\n      dup3\n      dup3\n      sload\n      tag_49\n      swap2\n      swap1\n      tag_50\n      jump\t// in\n    tag_49:\n      swap3\n      pop\n      pop\n      dup2\n      swap1\n      sstore\n      pop\n        /* \"LABS 18 Aug/Task All 18.sol\":782:816  Purchase(msg.sender, Seller, Cash) */\n      0x22e3ae3a20c49dce14046235895c7a3ffc0a6a5f3577c370177ad45fa619485d\n        /* \"LABS 18 Aug/Task All 18.sol\":791:801  msg.sender */\n      caller\n        /* \"LABS 18 Aug/Task All 18.sol\":803:809  Seller */\n      dup4\n        /* \"LABS 18 Aug/Task All 18.sol\":811:815  Cash */\n      dup4\n        /* \"LABS 18 Aug/Task All 18.sol\":782:816  Purchase(msg.sender, Seller, Cash) */\n      mload(0x40)\n      tag_51\n      swap4\n      swap3\n      swap2\n      swap1\n      tag_52\n      jump\t// in\n    tag_51:\n      mload(0x40)\n      dup1\n      swap2\n      sub\n      swap1\n      log1\n        /* \"LABS 18 Aug/Task All 18.sol\":443:824  function Buy(address Seller, uint Cash) virtual external {... */\n      pop\n      pop\n      jump\t// out\n        /* \"LABS 18 Aug/Task All 18.sol\":118:157  mapping(address => uint) public balance */\n    tag_20:\n      mstore(0x20, 0x00)\n      dup1\n      0x00\n      mstore\n      keccak256(0x00, 0x40)\n      0x00\n      swap2\n      pop\n      swap1\n      pop\n      sload\n      dup2\n      jump\t// out\n        /* \"LABS 18 Aug/Task All 18.sol\":271:421  function Register(address) external {... */\n    tag_25:\n        /* \"LABS 18 Aug/Task All 18.sol\":351:352  0 */\n      0x00\n        /* \"LABS 18 Aug/Task All 18.sol\":328:335  balance */\n      dup1\n        /* \"LABS 18 Aug/Task All 18.sol\":328:347  balance[msg.sender] */\n      0x00\n        /* \"LABS 18 Aug/Task All 18.sol\":336:346  msg.sender */\n      caller\n        /* \"LABS 18 Aug/Task All 18.sol\":328:347  balance[msg.sender] */\n      0xffffffffffffffffffffffffffffffffffffffff\n      and\n      0xffffffffffffffffffffffffffffffffffffffff\n      and\n      dup2\n      mstore\n      0x20\n      add\n      swap1\n      dup2\n      mstore\n      0x20\n      add\n      0x00\n      keccak256\n      sload\n        /* \"LABS 18 Aug/Task All 18.sol\":328:352  balance[msg.sender] == 0 */\n      eq\n        /* \"LABS 18 Aug/Task All 18.sol\":320:375  require(balance[msg.sender] == 0, \"Not Enough Balance\") */\n      tag_54\n      jumpi\n      mload(0x40)\n      0x08c379a000000000000000000000000000000000000000000000000000000000\n      dup2\n      mstore\n      0x04\n      add\n      tag_55\n      swap1\n      tag_56\n      jump\t// in\n    tag_55:\n      mload(0x40)\n      dup1\n      swap2\n      sub\n      swap1\n      revert\n    tag_54:\n        /* \"LABS 18 Aug/Task All 18.sol\":408:413  10000 */\n      0x2710\n        /* \"LABS 18 Aug/Task All 18.sol\":386:393  balance */\n      0x00\n        /* \"LABS 18 Aug/Task All 18.sol\":386:405  balance[msg.sender] */\n      dup1\n        /* \"LABS 18 Aug/Task All 18.sol\":394:404  msg.sender */\n      caller\n        /* \"LABS 18 Aug/Task All 18.sol\":386:405  balance[msg.sender] */\n      0xffffffffffffffffffffffffffffffffffffffff\n      and\n      0xffffffffffffffffffffffffffffffffffffffff\n      and\n      dup2\n      mstore\n      0x20\n      add\n      swap1\n      dup2\n      mstore\n      0x20\n      add\n      0x00\n      keccak256\n        /* \"LABS 18 Aug/Task All 18.sol\":386:413  balance[msg.sender] = 10000 */\n      dup2\n      swap1\n      sstore\n      pop\n        /* \"LABS 18 Aug/Task All 18.sol\":271:421  function Register(address) external {... */\n      pop\n      jump\t// out\n        /* \"#utility.yul\":88:205   */\n    tag_58:\n        /* \"#utility.yul\":197:198   */\n      0x00\n        /* \"#utility.yul\":194:195   */\n      dup1\n        /* \"#utility.yul\":187:199   */\n      revert\n        /* \"#utility.yul\":334:460   */\n    tag_60:\n        /* \"#utility.yul\":371:378   */\n      0x00\n        /* \"#utility.yul\":411:453   */\n      0xffffffffffffffffffffffffffffffffffffffff\n        /* \"#utility.yul\":404:409   */\n      dup3\n        /* \"#utility.yul\":400:454   */\n      and\n        /* \"#utility.yul\":389:454   */\n      swap1\n      pop\n        /* \"#utility.yul\":334:460   */\n      swap2\n      swap1\n      pop\n      jump\t// out\n        /* \"#utility.yul\":466:562   */\n    tag_61:\n        /* \"#utility.yul\":503:510   */\n      0x00\n        /* \"#utility.yul\":532:556   */\n      tag_93\n        /* \"#utility.yul\":550:555   */\n      dup3\n        /* \"#utility.yul\":532:556   */\n      tag_60\n      jump\t// in\n    tag_93:\n        /* \"#utility.yul\":521:556   */\n      swap1\n      pop\n        /* \"#utility.yul\":466:562   */\n      swap2\n      swap1\n      pop\n      jump\t// out\n        /* \"#utility.yul\":568:690   */\n    tag_62:\n        /* \"#utility.yul\":641:665   */\n      tag_95\n        /* \"#utility.yul\":659:664   */\n      dup2\n        /* \"#utility.yul\":641:665   */\n      tag_61\n      jump\t// in\n    tag_95:\n        /* \"#utility.yul\":634:639   */\n      dup2\n        /* \"#utility.yul\":631:666   */\n      eq\n        /* \"#utility.yul\":621:684   */\n      tag_96\n      jumpi\n        /* \"#utility.yul\":680:681   */\n      0x00\n        /* \"#utility.yul\":677:678   */\n      dup1\n        /* \"#utility.yul\":670:682   */\n      revert\n        /* \"#utility.yul\":621:684   */\n    tag_96:\n        /* \"#utility.yul\":568:690   */\n      pop\n      jump\t// out\n        /* \"#utility.yul\":696:835   */\n    tag_63:\n        /* \"#utility.yul\":742:747   */\n      0x00\n        /* \"#utility.yul\":780:786   */\n      dup2\n        /* \"#utility.yul\":767:787   */\n      calldataload\n        /* \"#utility.yul\":758:787   */\n      swap1\n      pop\n        /* \"#utility.yul\":796:829   */\n      tag_98\n        /* \"#utility.yul\":823:828   */\n      dup2\n        /* \"#utility.yul\":796:829   */\n      tag_62\n      jump\t// in\n    tag_98:\n        /* \"#utility.yul\":696:835   */\n      swap3\n      swap2\n      pop\n      pop\n      jump\t// out\n        /* \"#utility.yul\":841:918   */\n    tag_64:\n        /* \"#utility.yul\":878:885   */\n      0x00\n        /* \"#utility.yul\":907:912   */\n      dup2\n        /* \"#utility.yul\":896:912   */\n      swap1\n      pop\n        /* \"#utility.yul\":841:918   */\n      swap2\n      swap1\n      pop\n      jump\t// out\n        /* \"#utility.yul\":924:1046   */\n    tag_65:\n        /* \"#utility.yul\":997:1021   */\n      tag_101\n        /* \"#utility.yul\":1015:1020   */\n      dup2\n        /* \"#utility.yul\":997:1021   */\n      tag_64\n      jump\t// in\n    tag_101:\n        /* \"#utility.yul\":990:995   */\n      dup2\n        /* \"#utility.yul\":987:1022   */\n      eq\n        /* \"#utility.yul\":977:1040   */\n      tag_102\n      jumpi\n        /* \"#utility.yul\":1036:1037   */\n      0x00\n        /* \"#utility.yul\":1033:1034   */\n      dup1\n        /* \"#utility.yul\":1026:1038   */\n      revert\n        /* \"#utility.yul\":977:1040   */\n    tag_102:\n        /* \"#utility.yul\":924:1046   */\n      pop\n      jump\t// out\n        /* \"#utility.yul\":1052:1191   */\n    tag_66:\n        /* \"#utility.yul\":1098:1103   */\n      0x00\n        /* \"#utility.yul\":1136:1142   */\n      dup2\n        /* \"#utility.yul\":1123:1143   */\n      calldataload\n        /* \"#utility.yul\":1114:1143   */\n      swap1\n      pop\n        /* \"#utility.yul\":1152:1185   */\n      tag_104\n        /* \"#utility.yul\":1179:1184   */\n      dup2\n        /* \"#utility.yul\":1152:1185   */\n      tag_65\n      jump\t// in\n    tag_104:\n        /* \"#utility.yul\":1052:1191   */\n      swap3\n      swap2\n      pop\n      pop\n      jump\t// out\n        /* \"#utility.yul\":1197:1816   */\n    tag_9:\n        /* \"#utility.yul\":1274:1280   */\n      0x00\n        /* \"#utility.yul\":1282:1288   */\n      dup1\n        /* \"#utility.yul\":1290:1296   */\n      0x00\n        /* \"#utility.yul\":1339:1341   */\n      0x60\n        /* \"#utility.yul\":1327:1336   */\n      dup5\n        /* \"#utility.yul\":1318:1325   */\n      dup7\n        /* \"#utility.yul\":1314:1337   */\n      sub\n        /* \"#utility.yul\":1310:1342   */\n      slt\n        /* \"#utility.yul\":1307:1426   */\n      iszero\n      tag_106\n      jumpi\n        /* \"#utility.yul\":1345:1424   */\n      tag_107\n      tag_58\n      jump\t// in\n    tag_107:\n        /* \"#utility.yul\":1307:1426   */\n    tag_106:\n        /* \"#utility.yul\":1465:1466   */\n      0x00\n        /* \"#utility.yul\":1490:1543   */\n      tag_108\n        /* \"#utility.yul\":1535:1542   */\n      dup7\n        /* \"#utility.yul\":1526:1532   */\n      dup3\n        /* \"#utility.yul\":1515:1524   */\n      dup8\n        /* \"#utility.yul\":1511:1533   */\n      add\n        /* \"#utility.yul\":1490:1543   */\n      tag_63\n      jump\t// in\n    tag_108:\n        /* \"#utility.yul\":1480:1543   */\n      swap4\n      pop\n        /* \"#utility.yul\":1436:1553   */\n      pop\n        /* \"#utility.yul\":1592:1594   */\n      0x20\n        /* \"#utility.yul\":1618:1671   */\n      tag_109\n        /* \"#utility.yul\":1663:1670   */\n      dup7\n        /* \"#utility.yul\":1654:1660   */\n      dup3\n        /* \"#utility.yul\":1643:1652   */\n      dup8\n        /* \"#utility.yul\":1639:1661   */\n      add\n        /* \"#utility.yul\":1618:1671   */\n      tag_66\n      jump\t// in\n    tag_109:\n        /* \"#utility.yul\":1608:1671   */\n      swap3\n      pop\n        /* \"#utility.yul\":1563:1681   */\n      pop\n        /* \"#utility.yul\":1720:1722   */\n      0x40\n        /* \"#utility.yul\":1746:1799   */\n      tag_110\n        /* \"#utility.yul\":1791:1798   */\n      dup7\n        /* \"#utility.yul\":1782:1788   */\n      dup3\n        /* \"#utility.yul\":1771:1780   */\n      dup8\n        /* \"#utility.yul\":1767:1789   */\n      add\n        /* \"#utility.yul\":1746:1799   */\n      tag_63\n      jump\t// in\n    tag_110:\n        /* \"#utility.yul\":1736:1799   */\n      swap2\n      pop\n        /* \"#utility.yul\":1691:1809   */\n      pop\n        /* \"#utility.yul\":1197:1816   */\n      swap3\n      pop\n      swap3\n      pop\n      swap3\n      jump\t// out\n        /* \"#utility.yul\":1822:1921   */\n    tag_67:\n        /* \"#utility.yul\":1874:1880   */\n      0x00\n        /* \"#utility.yul\":1908:1913   */\n      dup2\n        /* \"#utility.yul\":1902:1914   */\n      mload\n        /* \"#utility.yul\":1892:1914   */\n      swap1\n      pop\n        /* \"#utility.yul\":1822:1921   */\n      swap2\n      swap1\n      pop\n      jump\t// out\n        /* \"#utility.yul\":1927:2096   */\n    tag_68:\n        /* \"#utility.yul\":2011:2022   */\n      0x00\n        /* \"#utility.yul\":2045:2051   */\n      dup3\n        /* \"#utility.yul\":2040:2043   */\n      dup3\n        /* \"#utility.yul\":2033:2052   */\n      mstore\n        /* \"#utility.yul\":2085:2089   */\n      0x20\n        /* \"#utility.yul\":2080:2083   */\n      dup3\n        /* \"#utility.yul\":2076:2090   */\n      add\n        /* \"#utility.yul\":2061:2090   */\n      swap1\n      pop\n        /* \"#utility.yul\":1927:2096   */\n      swap3\n      swap2\n      pop\n      pop\n      jump\t// out\n        /* \"#utility.yul\":2102:2348   */\n    tag_69:\n        /* \"#utility.yul\":2183:2184   */\n      0x00\n        /* \"#utility.yul\":2193:2306   */\n    tag_114:\n        /* \"#utility.yul\":2207:2213   */\n      dup4\n        /* \"#utility.yul\":2204:2205   */\n      dup2\n        /* \"#utility.yul\":2201:2214   */\n      lt\n        /* \"#utility.yul\":2193:2306   */\n      iszero\n      tag_116\n      jumpi\n        /* \"#utility.yul\":2292:2293   */\n      dup1\n        /* \"#utility.yul\":2287:2290   */\n      dup3\n        /* \"#utility.yul\":2283:2294   */\n      add\n        /* \"#utility.yul\":2277:2295   */\n      mload\n        /* \"#utility.yul\":2273:2274   */\n      dup2\n        /* \"#utility.yul\":2268:2271   */\n      dup5\n        /* \"#utility.yul\":2264:2275   */\n      add\n        /* \"#utility.yul\":2257:2296   */\n      mstore\n        /* \"#utility.yul\":2229:2231   */\n      0x20\n        /* \"#utility.yul\":2226:2227   */\n      dup2\n        /* \"#utility.yul\":2222:2232   */\n      add\n        /* \"#utility.yul\":2217:2232   */\n      swap1\n      pop\n        /* \"#utility.yul\":2193:2306   */\n      jump(tag_114)\n    tag_116:\n        /* \"#utility.yul\":2340:2341   */\n      0x00\n        /* \"#utility.yul\":2331:2337   */\n      dup5\n        /* \"#utility.yul\":2326:2329   */\n      dup5\n        /* \"#utility.yul\":2322:2338   */\n      add\n        /* \"#utility.yul\":2315:2342   */\n      mstore\n        /* \"#utility.yul\":2164:2348   */\n      pop\n        /* \"#utility.yul\":2102:2348   */\n      pop\n      pop\n      pop\n      jump\t// out\n        /* \"#utility.yul\":2354:2456   */\n    tag_70:\n        /* \"#utility.yul\":2395:2401   */\n      0x00\n        /* \"#utility.yul\":2446:2448   */\n      0x1f\n        /* \"#utility.yul\":2442:2449   */\n      not\n        /* \"#utility.yul\":2437:2439   */\n      0x1f\n        /* \"#utility.yul\":2430:2435   */\n      dup4\n        /* \"#utility.yul\":2426:2440   */\n      add\n        /* \"#utility.yul\":2422:2450   */\n      and\n        /* \"#utility.yul\":2412:2450   */\n      swap1\n      pop\n        /* \"#utility.yul\":2354:2456   */\n      swap2\n      swap1\n      pop\n      jump\t// out\n        /* \"#utility.yul\":2462:2839   */\n    tag_71:\n        /* \"#utility.yul\":2550:2553   */\n      0x00\n        /* \"#utility.yul\":2578:2617   */\n      tag_119\n        /* \"#utility.yul\":2611:2616   */\n      dup3\n        /* \"#utility.yul\":2578:2617   */\n      tag_67\n      jump\t// in\n    tag_119:\n        /* \"#utility.yul\":2633:2704   */\n      tag_120\n        /* \"#utility.yul\":2697:2703   */\n      dup2\n        /* \"#utility.yul\":2692:2695   */\n      dup6\n        /* \"#utility.yul\":2633:2704   */\n      tag_68\n      jump\t// in\n    tag_120:\n        /* \"#utility.yul\":2626:2704   */\n      swap4\n      pop\n        /* \"#utility.yul\":2713:2778   */\n      tag_121\n        /* \"#utility.yul\":2771:2777   */\n      dup2\n        /* \"#utility.yul\":2766:2769   */\n      dup6\n        /* \"#utility.yul\":2759:2763   */\n      0x20\n        /* \"#utility.yul\":2752:2757   */\n      dup7\n        /* \"#utility.yul\":2748:2764   */\n      add\n        /* \"#utility.yul\":2713:2778   */\n      tag_69\n      jump\t// in\n    tag_121:\n        /* \"#utility.yul\":2803:2832   */\n      tag_122\n        /* \"#utility.yul\":2825:2831   */\n      dup2\n        /* \"#utility.yul\":2803:2832   */\n      tag_70\n      jump\t// in\n    tag_122:\n        /* \"#utility.yul\":2798:2801   */\n      dup5\n        /* \"#utility.yul\":2794:2833   */\n      add\n        /* \"#utility.yul\":2787:2833   */\n      swap2\n      pop\n        /* \"#utility.yul\":2554:2839   */\n      pop\n        /* \"#utility.yul\":2462:2839   */\n      swap3\n      swap2\n      pop\n      pop\n      jump\t// out\n        /* \"#utility.yul\":2845:3158   */\n    tag_12:\n        /* \"#utility.yul\":2958:2962   */\n      0x00\n        /* \"#utility.yul\":2996:2998   */\n      0x20\n        /* \"#utility.yul\":2985:2994   */\n      dup3\n        /* \"#utility.yul\":2981:2999   */\n      add\n        /* \"#utility.yul\":2973:2999   */\n      swap1\n      pop\n        /* \"#utility.yul\":3045:3054   */\n      dup2\n        /* \"#utility.yul\":3039:3043   */\n      dup2\n        /* \"#utility.yul\":3035:3055   */\n      sub\n        /* \"#utility.yul\":3031:3032   */\n      0x00\n        /* \"#utility.yul\":3020:3029   */\n      dup4\n        /* \"#utility.yul\":3016:3033   */\n      add\n        /* \"#utility.yul\":3009:3056   */\n      mstore\n        /* \"#utility.yul\":3073:3151   */\n      tag_124\n        /* \"#utility.yul\":3146:3150   */\n      dup2\n        /* \"#utility.yul\":3137:3143   */\n      dup5\n        /* \"#utility.yul\":3073:3151   */\n      tag_71\n      jump\t// in\n    tag_124:\n        /* \"#utility.yul\":3065:3151   */\n      swap1\n      pop\n        /* \"#utility.yul\":2845:3158   */\n      swap3\n      swap2\n      pop\n      pop\n      jump\t// out\n        /* \"#utility.yul\":3164:3638   */\n    tag_15:\n        /* \"#utility.yul\":3232:3238   */\n      0x00\n        /* \"#utility.yul\":3240:3246   */\n      dup1\n        /* \"#utility.yul\":3289:3291   */\n      0x40\n        /* \"#utility.yul\":3277:3286   */\n      dup4\n        /* \"#utility.yul\":3268:3275   */\n      dup6\n        /* \"#utility.yul\":3264:3287   */\n      sub\n        /* \"#utility.yul\":3260:3292   */\n      slt\n        /* \"#utility.yul\":3257:3376   */\n      iszero\n      tag_126\n      jumpi\n        /* \"#utility.yul\":3295:3374   */\n      tag_127\n      tag_58\n      jump\t// in\n    tag_127:\n        /* \"#utility.yul\":3257:3376   */\n    tag_126:\n        /* \"#utility.yul\":3415:3416   */\n      0x00\n        /* \"#utility.yul\":3440:3493   */\n      tag_128\n        /* \"#utility.yul\":3485:3492   */\n      dup6\n        /* \"#utility.yul\":3476:3482   */\n      dup3\n        /* \"#utility.yul\":3465:3474   */\n      dup7\n        /* \"#utility.yul\":3461:3483   */\n      add\n        /* \"#utility.yul\":3440:3493   */\n      tag_63\n      jump\t// in\n    tag_128:\n        /* \"#utility.yul\":3430:3493   */\n      swap3\n      pop\n        /* \"#utility.yul\":3386:3503   */\n      pop\n        /* \"#utility.yul\":3542:3544   */\n      0x20\n        /* \"#utility.yul\":3568:3621   */\n      tag_129\n        /* \"#utility.yul\":3613:3620   */\n      dup6\n        /* \"#utility.yul\":3604:3610   */\n      dup3\n        /* \"#utility.yul\":3593:3602   */\n      dup7\n        /* \"#utility.yul\":3589:3611   */\n      add\n        /* \"#utility.yul\":3568:3621   */\n      tag_66\n      jump\t// in\n    tag_129:\n        /* \"#utility.yul\":3558:3621   */\n      swap2\n      pop\n        /* \"#utility.yul\":3513:3631   */\n      pop\n        /* \"#utility.yul\":3164:3638   */\n      swap3\n      pop\n      swap3\n      swap1\n      pop\n      jump\t// out\n        /* \"#utility.yul\":3644:3973   */\n    tag_19:\n        /* \"#utility.yul\":3703:3709   */\n      0x00\n        /* \"#utility.yul\":3752:3754   */\n      0x20\n        /* \"#utility.yul\":3740:3749   */\n      dup3\n        /* \"#utility.yul\":3731:3738   */\n      dup5\n        /* \"#utility.yul\":3727:3750   */\n      sub\n        /* \"#utility.yul\":3723:3755   */\n      slt\n        /* \"#utility.yul\":3720:3839   */\n      iszero\n      tag_131\n      jumpi\n        /* \"#utility.yul\":3758:3837   */\n      tag_132\n      tag_58\n      jump\t// in\n    tag_132:\n        /* \"#utility.yul\":3720:3839   */\n    tag_131:\n        /* \"#utility.yul\":3878:3879   */\n      0x00\n        /* \"#utility.yul\":3903:3956   */\n      tag_133\n        /* \"#utility.yul\":3948:3955   */\n      dup5\n        /* \"#utility.yul\":3939:3945   */\n      dup3\n        /* \"#utility.yul\":3928:3937   */\n      dup6\n        /* \"#utility.yul\":3924:3946   */\n      add\n        /* \"#utility.yul\":3903:3956   */\n      tag_63\n      jump\t// in\n    tag_133:\n        /* \"#utility.yul\":3893:3956   */\n      swap2\n      pop\n        /* \"#utility.yul\":3849:3966   */\n      pop\n        /* \"#utility.yul\":3644:3973   */\n      swap3\n      swap2\n      pop\n      pop\n      jump\t// out\n        /* \"#utility.yul\":3979:4097   */\n    tag_72:\n        /* \"#utility.yul\":4066:4090   */\n      tag_135\n        /* \"#utility.yul\":4084:4089   */\n      dup2\n        /* \"#utility.yul\":4066:4090   */\n      tag_64\n      jump\t// in\n    tag_135:\n        /* \"#utility.yul\":4061:4064   */\n      dup3\n        /* \"#utility.yul\":4054:4091   */\n      mstore\n        /* \"#utility.yul\":3979:4097   */\n      pop\n      pop\n      jump\t// out\n        /* \"#utility.yul\":4103:4325   */\n    tag_22:\n        /* \"#utility.yul\":4196:4200   */\n      0x00\n        /* \"#utility.yul\":4234:4236   */\n      0x20\n        /* \"#utility.yul\":4223:4232   */\n      dup3\n        /* \"#utility.yul\":4219:4237   */\n      add\n        /* \"#utility.yul\":4211:4237   */\n      swap1\n      pop\n        /* \"#utility.yul\":4247:4318   */\n      tag_137\n        /* \"#utility.yul\":4315:4316   */\n      0x00\n        /* \"#utility.yul\":4304:4313   */\n      dup4\n        /* \"#utility.yul\":4300:4317   */\n      add\n        /* \"#utility.yul\":4291:4297   */\n      dup5\n        /* \"#utility.yul\":4247:4318   */\n      tag_72\n      jump\t// in\n    tag_137:\n        /* \"#utility.yul\":4103:4325   */\n      swap3\n      swap2\n      pop\n      pop\n      jump\t// out\n        /* \"#utility.yul\":4331:4501   */\n    tag_73:\n        /* \"#utility.yul\":4471:4493   */\n      0x4275796572204e6f742052656769737465726564000000000000000000000000\n        /* \"#utility.yul\":4467:4468   */\n      0x00\n        /* \"#utility.yul\":4459:4465   */\n      dup3\n        /* \"#utility.yul\":4455:4469   */\n      add\n        /* \"#utility.yul\":4448:4494   */\n      mstore\n        /* \"#utility.yul\":4331:4501   */\n      pop\n      jump\t// out\n        /* \"#utility.yul\":4507:4873   */\n    tag_74:\n        /* \"#utility.yul\":4649:4652   */\n      0x00\n        /* \"#utility.yul\":4670:4737   */\n      tag_140\n        /* \"#utility.yul\":4734:4736   */\n      0x14\n        /* \"#utility.yul\":4729:4732   */\n      dup4\n        /* \"#utility.yul\":4670:4737   */\n      tag_68\n      jump\t// in\n    tag_140:\n        /* \"#utility.yul\":4663:4737   */\n      swap2\n      pop\n        /* \"#utility.yul\":4746:4839   */\n      tag_141\n        /* \"#utility.yul\":4835:4838   */\n      dup3\n        /* \"#utility.yul\":4746:4839   */\n      tag_73\n      jump\t// in\n    tag_141:\n        /* \"#utility.yul\":4864:4866   */\n      0x20\n        /* \"#utility.yul\":4859:4862   */\n      dup3\n        /* \"#utility.yul\":4855:4867   */\n      add\n        /* \"#utility.yul\":4848:4867   */\n      swap1\n      pop\n        /* \"#utility.yul\":4507:4873   */\n      swap2\n      swap1\n      pop\n      jump\t// out\n        /* \"#utility.yul\":4879:5298   */\n    tag_29:\n        /* \"#utility.yul\":5045:5049   */\n      0x00\n        /* \"#utility.yul\":5083:5085   */\n      0x20\n        /* \"#utility.yul\":5072:5081   */\n      dup3\n        /* \"#utility.yul\":5068:5086   */\n      add\n        /* \"#utility.yul\":5060:5086   */\n      swap1\n      pop\n        /* \"#utility.yul\":5132:5141   */\n      dup2\n        /* \"#utility.yul\":5126:5130   */\n      dup2\n        /* \"#utility.yul\":5122:5142   */\n      sub\n        /* \"#utility.yul\":5118:5119   */\n      0x00\n        /* \"#utility.yul\":5107:5116   */\n      dup4\n        /* \"#utility.yul\":5103:5120   */\n      add\n        /* \"#utility.yul\":5096:5143   */\n      mstore\n        /* \"#utility.yul\":5160:5291   */\n      tag_143\n        /* \"#utility.yul\":5286:5290   */\n      dup2\n        /* \"#utility.yul\":5160:5291   */\n      tag_74\n      jump\t// in\n    tag_143:\n        /* \"#utility.yul\":5152:5291   */\n      swap1\n      pop\n        /* \"#utility.yul\":4879:5298   */\n      swap2\n      swap1\n      pop\n      jump\t// out\n        /* \"#utility.yul\":5304:5475   */\n    tag_75:\n        /* \"#utility.yul\":5444:5467   */\n      0x53656c6c6572204e6f7420526567697374657265640000000000000000000000\n        /* \"#utility.yul\":5440:5441   */\n      0x00\n        /* \"#utility.yul\":5432:5438   */\n      dup3\n        /* \"#utility.yul\":5428:5442   */\n      add\n        /* \"#utility.yul\":5421:5468   */\n      mstore\n        /* \"#utility.yul\":5304:5475   */\n      pop\n      jump\t// out\n        /* \"#utility.yul\":5481:5847   */\n    tag_76:\n        /* \"#utility.yul\":5623:5626   */\n      0x00\n        /* \"#utility.yul\":5644:5711   */\n      tag_146\n        /* \"#utility.yul\":5708:5710   */\n      0x15\n        /* \"#utility.yul\":5703:5706   */\n      dup4\n        /* \"#utility.yul\":5644:5711   */\n      tag_68\n      jump\t// in\n    tag_146:\n        /* \"#utility.yul\":5637:5711   */\n      swap2\n      pop\n        /* \"#utility.yul\":5720:5813   */\n      tag_147\n        /* \"#utility.yul\":5809:5812   */\n      dup3\n        /* \"#utility.yul\":5720:5813   */\n      tag_75\n      jump\t// in\n    tag_147:\n        /* \"#utility.yul\":5838:5840   */\n      0x20\n        /* \"#utility.yul\":5833:5836   */\n      dup3\n        /* \"#utility.yul\":5829:5841   */\n      add\n        /* \"#utility.yul\":5822:5841   */\n      swap1\n      pop\n        /* \"#utility.yul\":5481:5847   */\n      swap2\n      swap1\n      pop\n      jump\t// out\n        /* \"#utility.yul\":5853:6272   */\n    tag_32:\n        /* \"#utility.yul\":6019:6023   */\n      0x00\n        /* \"#utility.yul\":6057:6059   */\n      0x20\n        /* \"#utility.yul\":6046:6055   */\n      dup3\n        /* \"#utility.yul\":6042:6060   */\n      add\n        /* \"#utility.yul\":6034:6060   */\n      swap1\n      pop\n        /* \"#utility.yul\":6106:6115   */\n      dup2\n        /* \"#utility.yul\":6100:6104   */\n      dup2\n        /* \"#utility.yul\":6096:6116   */\n      sub\n        /* \"#utility.yul\":6092:6093   */\n      0x00\n        /* \"#utility.yul\":6081:6090   */\n      dup4\n        /* \"#utility.yul\":6077:6094   */\n      add\n        /* \"#utility.yul\":6070:6117   */\n      mstore\n        /* \"#utility.yul\":6134:6265   */\n      tag_149\n        /* \"#utility.yul\":6260:6264   */\n      dup2\n        /* \"#utility.yul\":6134:6265   */\n      tag_76\n      jump\t// in\n    tag_149:\n        /* \"#utility.yul\":6126:6265   */\n      swap1\n      pop\n        /* \"#utility.yul\":5853:6272   */\n      swap2\n      swap1\n      pop\n      jump\t// out\n        /* \"#utility.yul\":6278:6500   */\n    tag_77:\n        /* \"#utility.yul\":6418:6452   */\n      0x4974656d5072696365204d7573742042652047726561746572205468616e205a\n        /* \"#utility.yul\":6414:6415   */\n      0x00\n        /* \"#utility.yul\":6406:6412   */\n      dup3\n        /* \"#utility.yul\":6402:6416   */\n      add\n        /* \"#utility.yul\":6395:6453   */\n      mstore\n        /* \"#utility.yul\":6487:6492   */\n      0x65726f0000000000000000000000000000000000000000000000000000000000\n        /* \"#utility.yul\":6482:6484   */\n      0x20\n        /* \"#utility.yul\":6474:6480   */\n      dup3\n        /* \"#utility.yul\":6470:6485   */\n      add\n        /* \"#utility.yul\":6463:6493   */\n      mstore\n        /* \"#utility.yul\":6278:6500   */\n      pop\n      jump\t// out\n        /* \"#utility.yul\":6506:6872   */\n    tag_78:\n        /* \"#utility.yul\":6648:6651   */\n      0x00\n        /* \"#utility.yul\":6669:6736   */\n      tag_152\n        /* \"#utility.yul\":6733:6735   */\n      0x23\n        /* \"#utility.yul\":6728:6731   */\n      dup4\n        /* \"#utility.yul\":6669:6736   */\n      tag_68\n      jump\t// in\n    tag_152:\n        /* \"#utility.yul\":6662:6736   */\n      swap2\n      pop\n        /* \"#utility.yul\":6745:6838   */\n      tag_153\n        /* \"#utility.yul\":6834:6837   */\n      dup3\n        /* \"#utility.yul\":6745:6838   */\n      tag_77\n      jump\t// in\n    tag_153:\n        /* \"#utility.yul\":6863:6865   */\n      0x40\n        /* \"#utility.yul\":6858:6861   */\n      dup3\n        /* \"#utility.yul\":6854:6866   */\n      add\n        /* \"#utility.yul\":6847:6866   */\n      swap1\n      pop\n        /* \"#utility.yul\":6506:6872   */\n      swap2\n      swap1\n      pop\n      jump\t// out\n        /* \"#utility.yul\":6878:7297   */\n    tag_35:\n        /* \"#utility.yul\":7044:7048   */\n      0x00\n        /* \"#utility.yul\":7082:7084   */\n      0x20\n        /* \"#utility.yul\":7071:7080   */\n      dup3\n        /* \"#utility.yul\":7067:7085   */\n      add\n        /* \"#utility.yul\":7059:7085   */\n      swap1\n      pop\n        /* \"#utility.yul\":7131:7140   */\n      dup2\n        /* \"#utility.yul\":7125:7129   */\n      dup2\n        /* \"#utility.yul\":7121:7141   */\n      sub\n        /* \"#utility.yul\":7117:7118   */\n      0x00\n        /* \"#utility.yul\":7106:7115   */\n      dup4\n        /* \"#utility.yul\":7102:7119   */\n      add\n        /* \"#utility.yul\":7095:7142   */\n      mstore\n        /* \"#utility.yul\":7159:7290   */\n      tag_155\n        /* \"#utility.yul\":7285:7289   */\n      dup2\n        /* \"#utility.yul\":7159:7290   */\n      tag_78\n      jump\t// in\n    tag_155:\n        /* \"#utility.yul\":7151:7290   */\n      swap1\n      pop\n        /* \"#utility.yul\":6878:7297   */\n      swap2\n      swap1\n      pop\n      jump\t// out\n        /* \"#utility.yul\":7303:7484   */\n    tag_79:\n        /* \"#utility.yul\":7443:7476   */\n      0x53656c6c657220616e642042757965722043616e6e6f742042652053616d6500\n        /* \"#utility.yul\":7439:7440   */\n      0x00\n        /* \"#utility.yul\":7431:7437   */\n      dup3\n        /* \"#utility.yul\":7427:7441   */\n      add\n        /* \"#utility.yul\":7420:7477   */\n      mstore\n        /* \"#utility.yul\":7303:7484   */\n      pop\n      jump\t// out\n        /* \"#utility.yul\":7490:7856   */\n    tag_80:\n        /* \"#utility.yul\":7632:7635   */\n      0x00\n        /* \"#utility.yul\":7653:7720   */\n      tag_158\n        /* \"#utility.yul\":7717:7719   */\n      0x1f\n        /* \"#utility.yul\":7712:7715   */\n      dup4\n        /* \"#utility.yul\":7653:7720   */\n      tag_68\n      jump\t// in\n    tag_158:\n        /* \"#utility.yul\":7646:7720   */\n      swap2\n      pop\n        /* \"#utility.yul\":7729:7822   */\n      tag_159\n        /* \"#utility.yul\":7818:7821   */\n      dup3\n        /* \"#utility.yul\":7729:7822   */\n      tag_79\n      jump\t// in\n    tag_159:\n        /* \"#utility.yul\":7847:7849   */\n      0x20\n        /* \"#utility.yul\":7842:7845   */\n      dup3\n        /* \"#utility.yul\":7838:7850   */\n      add\n        /* \"#utility.yul\":7831:7850   */\n      swap1\n      pop\n        /* \"#utility.yul\":7490:7856   */\n      swap2\n      swap1\n      pop\n      jump\t// out\n        /* \"#utility.yul\":7862:8281   */\n    tag_38:\n        /* \"#utility.yul\":8028:8032   */\n      0x00\n        /* \"#utility.yul\":8066:8068   */\n      0x20\n        /* \"#utility.yul\":8055:8064   */\n      dup3\n        /* \"#utility.yul\":8051:8069   */\n      add\n        /* \"#utility.yul\":8043:8069   */\n      swap1\n      pop\n        /* \"#utility.yul\":8115:8124   */\n      dup2\n        /* \"#utility.yul\":8109:8113   */\n      dup2\n        /* \"#utility.yul\":8105:8125   */\n      sub\n        /* \"#utility.yul\":8101:8102   */\n      0x00\n        /* \"#utility.yul\":8090:8099   */\n      dup4\n        /* \"#utility.yul\":8086:8103   */\n      add\n        /* \"#utility.yul\":8079:8126   */\n      mstore\n        /* \"#utility.yul\":8143:8274   */\n      tag_161\n        /* \"#utility.yul\":8269:8273   */\n      dup2\n        /* \"#utility.yul\":8143:8274   */\n      tag_80\n      jump\t// in\n    tag_161:\n        /* \"#utility.yul\":8135:8274   */\n      swap1\n      pop\n        /* \"#utility.yul\":7862:8281   */\n      swap2\n      swap1\n      pop\n      jump\t// out\n        /* \"#utility.yul\":8287:8467   */\n    tag_81:\n        /* \"#utility.yul\":8427:8459   */\n      0x43617368204d7573742042652047726561746572205468616e205a65726f0000\n        /* \"#utility.yul\":8423:8424   */\n      0x00\n        /* \"#utility.yul\":8415:8421   */\n      dup3\n        /* \"#utility.yul\":8411:8425   */\n      add\n        /* \"#utility.yul\":8404:8460   */\n      mstore\n        /* \"#utility.yul\":8287:8467   */\n      pop\n      jump\t// out\n        /* \"#utility.yul\":8473:8839   */\n    tag_82:\n        /* \"#utility.yul\":8615:8618   */\n      0x00\n        /* \"#utility.yul\":8636:8703   */\n      tag_164\n        /* \"#utility.yul\":8700:8702   */\n      0x1e\n        /* \"#utility.yul\":8695:8698   */\n      dup4\n        /* \"#utility.yul\":8636:8703   */\n      tag_68\n      jump\t// in\n    tag_164:\n        /* \"#utility.yul\":8629:8703   */\n      swap2\n      pop\n        /* \"#utility.yul\":8712:8805   */\n      tag_165\n        /* \"#utility.yul\":8801:8804   */\n      dup3\n        /* \"#utility.yul\":8712:8805   */\n      tag_81\n      jump\t// in\n    tag_165:\n        /* \"#utility.yul\":8830:8832   */\n      0x20\n        /* \"#utility.yul\":8825:8828   */\n      dup3\n        /* \"#utility.yul\":8821:8833   */\n      add\n        /* \"#utility.yul\":8814:8833   */\n      swap1\n      pop\n        /* \"#utility.yul\":8473:8839   */\n      swap2\n      swap1\n      pop\n      jump\t// out\n        /* \"#utility.yul\":8845:9264   */\n    tag_46:\n        /* \"#utility.yul\":9011:9015   */\n      0x00\n        /* \"#utility.yul\":9049:9051   */\n      0x20\n        /* \"#utility.yul\":9038:9047   */\n      dup3\n        /* \"#utility.yul\":9034:9052   */\n      add\n        /* \"#utility.yul\":9026:9052   */\n      swap1\n      pop\n        /* \"#utility.yul\":9098:9107   */\n      dup2\n        /* \"#utility.yul\":9092:9096   */\n      dup2\n        /* \"#utility.yul\":9088:9108   */\n      sub\n        /* \"#utility.yul\":9084:9085   */\n      0x00\n        /* \"#utility.yul\":9073:9082   */\n      dup4\n        /* \"#utility.yul\":9069:9086   */\n      add\n        /* \"#utility.yul\":9062:9109   */\n      mstore\n        /* \"#utility.yul\":9126:9257   */\n      tag_167\n        /* \"#utility.yul\":9252:9256   */\n      dup2\n        /* \"#utility.yul\":9126:9257   */\n      tag_82\n      jump\t// in\n    tag_167:\n        /* \"#utility.yul\":9118:9257   */\n      swap1\n      pop\n        /* \"#utility.yul\":8845:9264   */\n      swap2\n      swap1\n      pop\n      jump\t// out\n        /* \"#utility.yul\":9270:9450   */\n    tag_83:\n        /* \"#utility.yul\":9318:9395   */\n      0x4e487b7100000000000000000000000000000000000000000000000000000000\n        /* \"#utility.yul\":9315:9316   */\n      0x00\n        /* \"#utility.yul\":9308:9396   */\n      mstore\n        /* \"#utility.yul\":9415:9419   */\n      0x11\n        /* \"#utility.yul\":9412:9413   */\n      0x04\n        /* \"#utility.yul\":9405:9420   */\n      mstore\n        /* \"#utility.yul\":9439:9443   */\n      0x24\n        /* \"#utility.yul\":9436:9437   */\n      0x00\n        /* \"#utility.yul\":9429:9444   */\n      revert\n        /* \"#utility.yul\":9456:9650   */\n    tag_48:\n        /* \"#utility.yul\":9496:9500   */\n      0x00\n        /* \"#utility.yul\":9516:9536   */\n      tag_170\n        /* \"#utility.yul\":9534:9535   */\n      dup3\n        /* \"#utility.yul\":9516:9536   */\n      tag_64\n      jump\t// in\n    tag_170:\n        /* \"#utility.yul\":9511:9536   */\n      swap2\n      pop\n        /* \"#utility.yul\":9550:9570   */\n      tag_171\n        /* \"#utility.yul\":9568:9569   */\n      dup4\n        /* \"#utility.yul\":9550:9570   */\n      tag_64\n      jump\t// in\n    tag_171:\n        /* \"#utility.yul\":9545:9570   */\n      swap3\n      pop\n        /* \"#utility.yul\":9594:9595   */\n      dup3\n        /* \"#utility.yul\":9591:9592   */\n      dup3\n        /* \"#utility.yul\":9587:9596   */\n      sub\n        /* \"#utility.yul\":9579:9596   */\n      swap1\n      pop\n        /* \"#utility.yul\":9618:9619   */\n      dup2\n        /* \"#utility.yul\":9612:9616   */\n      dup2\n        /* \"#utility.yul\":9609:9620   */\n      gt\n        /* \"#utility.yul\":9606:9643   */\n      iszero\n      tag_172\n      jumpi\n        /* \"#utility.yul\":9623:9641   */\n      tag_173\n      tag_83\n      jump\t// in\n    tag_173:\n        /* \"#utility.yul\":9606:9643   */\n    tag_172:\n        /* \"#utility.yul\":9456:9650   */\n      swap3\n      swap2\n      pop\n      pop\n      jump\t// out\n        /* \"#utility.yul\":9656:9847   */\n    tag_50:\n        /* \"#utility.yul\":9696:9699   */\n      0x00\n        /* \"#utility.yul\":9715:9735   */\n      tag_175\n        /* \"#utility.yul\":9733:9734   */\n      dup3\n        /* \"#utility.yul\":9715:9735   */\n      tag_64\n      jump\t// in\n    tag_175:\n        /* \"#utility.yul\":9710:9735   */\n      swap2\n      pop\n        /* \"#utility.yul\":9749:9769   */\n      tag_176\n        /* \"#utility.yul\":9767:9768   */\n      dup4\n        /* \"#utility.yul\":9749:9769   */\n      tag_64\n      jump\t// in\n    tag_176:\n        /* \"#utility.yul\":9744:9769   */\n      swap3\n      pop\n        /* \"#utility.yul\":9792:9793   */\n      dup3\n        /* \"#utility.yul\":9789:9790   */\n      dup3\n        /* \"#utility.yul\":9785:9794   */\n      add\n        /* \"#utility.yul\":9778:9794   */\n      swap1\n      pop\n        /* \"#utility.yul\":9813:9816   */\n      dup1\n        /* \"#utility.yul\":9810:9811   */\n      dup3\n        /* \"#utility.yul\":9807:9817   */\n      gt\n        /* \"#utility.yul\":9804:9840   */\n      iszero\n      tag_177\n      jumpi\n        /* \"#utility.yul\":9820:9838   */\n      tag_178\n      tag_83\n      jump\t// in\n    tag_178:\n        /* \"#utility.yul\":9804:9840   */\n    tag_177:\n        /* \"#utility.yul\":9656:9847   */\n      swap3\n      swap2\n      pop\n      pop\n      jump\t// out\n        /* \"#utility.yul\":9853:9971   */\n    tag_84:\n        /* \"#utility.yul\":9940:9964   */\n      tag_180\n        /* \"#utility.yul\":9958:9963   */\n      dup2\n        /* \"#utility.yul\":9940:9964   */\n      tag_61\n      jump\t// in\n    tag_180:\n        /* \"#utility.yul\":9935:9938   */\n      dup3\n        /* \"#utility.yul\":9928:9965   */\n      mstore\n        /* \"#utility.yul\":9853:9971   */\n      pop\n      pop\n      jump\t// out\n        /* \"#utility.yul\":9977:10419   */\n    tag_52:\n        /* \"#utility.yul\":10126:10130   */\n      0x00\n        /* \"#utility.yul\":10164:10166   */\n      0x60\n        /* \"#utility.yul\":10153:10162   */\n      dup3\n        /* \"#utility.yul\":10149:10167   */\n      add\n        /* \"#utility.yul\":10141:10167   */\n      swap1\n      pop\n        /* \"#utility.yul\":10177:10248   */\n      tag_182\n        /* \"#utility.yul\":10245:10246   */\n      0x00\n        /* \"#utility.yul\":10234:10243   */\n      dup4\n        /* \"#utility.yul\":10230:10247   */\n      add\n        /* \"#utility.yul\":10221:10227   */\n      dup7\n        /* \"#utility.yul\":10177:10248   */\n      tag_84\n      jump\t// in\n    tag_182:\n        /* \"#utility.yul\":10258:10330   */\n      tag_183\n        /* \"#utility.yul\":10326:10328   */\n      0x20\n        /* \"#utility.yul\":10315:10324   */\n      dup4\n        /* \"#utility.yul\":10311:10329   */\n      add\n        /* \"#utility.yul\":10302:10308   */\n      dup6\n        /* \"#utility.yul\":10258:10330   */\n      tag_84\n      jump\t// in\n    tag_183:\n        /* \"#utility.yul\":10340:10412   */\n      tag_184\n        /* \"#utility.yul\":10408:10410   */\n      0x40\n        /* \"#utility.yul\":10397:10406   */\n      dup4\n        /* \"#utility.yul\":10393:10411   */\n      add\n        /* \"#utility.yul\":10384:10390   */\n      dup5\n        /* \"#utility.yul\":10340:10412   */\n      tag_72\n      jump\t// in\n    tag_184:\n        /* \"#utility.yul\":9977:10419   */\n      swap5\n      swap4\n      pop\n      pop\n      pop\n      pop\n      jump\t// out\n        /* \"#utility.yul\":10425:10593   */\n    tag_85:\n        /* \"#utility.yul\":10565:10585   */\n      0x4e6f7420456e6f7567682042616c616e63650000000000000000000000000000\n        /* \"#utility.yul\":10561:10562   */\n      0x00\n        /* \"#utility.yul\":10553:10559   */\n      dup3\n        /* \"#utility.yul\":10549:10563   */\n      add\n        /* \"#utility.yul\":10542:10586   */\n      mstore\n        /* \"#utility.yul\":10425:10593   */\n      pop\n      jump\t// out\n        /* \"#utility.yul\":10599:10965   */\n    tag_86:\n        /* \"#utility.yul\":10741:10744   */\n      0x00\n        /* \"#utility.yul\":10762:10829   */\n      tag_187\n        /* \"#utility.yul\":10826:10828   */\n      0x12\n        /* \"#utility.yul\":10821:10824   */\n      dup4\n        /* \"#utility.yul\":10762:10829   */\n      tag_68\n      jump\t// in\n    tag_187:\n        /* \"#utility.yul\":10755:10829   */\n      swap2\n      pop\n        /* \"#utility.yul\":10838:10931   */\n      tag_188\n        /* \"#utility.yul\":10927:10930   */\n      dup3\n        /* \"#utility.yul\":10838:10931   */\n      tag_85\n      jump\t// in\n    tag_188:\n        /* \"#utility.yul\":10956:10958   */\n      0x20\n        /* \"#utility.yul\":10951:10954   */\n      dup3\n        /* \"#utility.yul\":10947:10959   */\n      add\n        /* \"#utility.yul\":10940:10959   */\n      swap1\n      pop\n        /* \"#utility.yul\":10599:10965   */\n      swap2\n      swap1\n      pop\n      jump\t// out\n        /* \"#utility.yul\":10971:11390   */\n    tag_56:\n        /* \"#utility.yul\":11137:11141   */\n      0x00\n        /* \"#utility.yul\":11175:11177   */\n      0x20\n        /* \"#utility.yul\":11164:11173   */\n      dup3\n        /* \"#utility.yul\":11160:11178   */\n      add\n        /* \"#utility.yul\":11152:11178   */\n      swap1\n      pop\n        /* \"#utility.yul\":11224:11233   */\n      dup2\n        /* \"#utility.yul\":11218:11222   */\n      dup2\n        /* \"#utility.yul\":11214:11234   */\n      sub\n        /* \"#utility.yul\":11210:11211   */\n      0x00\n        /* \"#utility.yul\":11199:11208   */\n      dup4\n        /* \"#utility.yul\":11195:11212   */\n      add\n        /* \"#utility.yul\":11188:11235   */\n      mstore\n        /* \"#utility.yul\":11252:11383   */\n      tag_190\n        /* \"#utility.yul\":11378:11382   */\n      dup2\n        /* \"#utility.yul\":11252:11383   */\n      tag_86\n      jump\t// in\n    tag_190:\n        /* \"#utility.yul\":11244:11383   */\n      swap1\n      pop\n        /* \"#utility.yul\":10971:11390   */\n      swap2\n      swap1\n      pop\n      jump\t// out\n    stop\n    data_11f4fd09b671a7d7f324cfa2be11ff8fb002ad06f4cf9af7f0d6c5649991785e 4974656d2057696c6c204265205368697070656420546f20427579657273204c6f636174696f6e\n\n    auxdata: 0xa26469706673582212207259ac299bf62086f94cd3a52aa78b1bd33819d5bd24639c432a0f60da78316264736f6c63430008120033\n}\n",
				"bytecode": {
					"linkReferences": {},
					"object": "608060405234801561001057600080fd5b50610bec806100206000396000f3fe608060405234801561001057600080fd5b506004361061004c5760003560e01c806313e2748814610051578063e3d4187f14610081578063e3d670d71461009d578063eeda149c146100cd575b600080fd5b61006b60048036038101906100669190610668565b6100e9565b604051610078919061074b565b60405180910390f35b61009b6004803603810190610096919061076d565b6102c0565b005b6100b760048036038101906100b291906107ad565b6104ee565b6040516100c491906107e9565b60405180910390f35b6100e760048036038101906100e291906107ad565b610506565b005b606060008060003373ffffffffffffffffffffffffffffffffffffffff1673ffffffffffffffffffffffffffffffffffffffff168152602001908152602001600020541161016c576040517f08c379a000000000000000000000000000000000000000000000000000000000815260040161016390610850565b60405180910390fd5b60008060008473ffffffffffffffffffffffffffffffffffffffff1673ffffffffffffffffffffffffffffffffffffffff16815260200190815260200160002054116101ed576040517f08c379a00000000000000000000000000000000000000000000000000000000081526004016101e4906108bc565b60405180910390fd5b60008311610230576040517f08c379a00000000000000000000000000000000000000000000000000000000081526004016102279061094e565b60405180910390fd5b8373ffffffffffffffffffffffffffffffffffffffff168273ffffffffffffffffffffffffffffffffffffffff160361029e576040517f08c379a0000000000000000000000000000000000000000000000000000000008152600401610295906109ba565b60405180910390fd5b604051806060016040528060278152602001610b906027913990509392505050565b60008060003373ffffffffffffffffffffffffffffffffffffffff1673ffffffffffffffffffffffffffffffffffffffff1681526020019081526020016000205411610341576040517f08c379a000000000000000000000000000000000000000000000000000000000815260040161033890610850565b60405180910390fd5b60008060008473ffffffffffffffffffffffffffffffffffffffff1673ffffffffffffffffffffffffffffffffffffffff16815260200190815260200160002054116103c2576040517f08c379a00000000000000000000000000000000000000000000000000000000081526004016103b9906108bc565b60405180910390fd5b60008114610405576040517f08c379a00000000000000000000000000000000000000000000000000000000081526004016103fc90610a26565b60405180910390fd5b806000803373ffffffffffffffffffffffffffffffffffffffff1673ffffffffffffffffffffffffffffffffffffffff16815260200190815260200160002060008282546104539190610a75565b92505081905550806000808473ffffffffffffffffffffffffffffffffffffffff1673ffffffffffffffffffffffffffffffffffffffff16815260200190815260200160002060008282546104a89190610aa9565b925050819055507f22e3ae3a20c49dce14046235895c7a3ffc0a6a5f3577c370177ad45fa619485d3383836040516104e293929190610aec565b60405180910390a15050565b60006020528060005260406000206000915090505481565b60008060003373ffffffffffffffffffffffffffffffffffffffff1673ffffffffffffffffffffffffffffffffffffffff1681526020019081526020016000205414610587576040517f08c379a000000000000000000000000000000000000000000000000000000000815260040161057e90610b6f565b60405180910390fd5b6127106000803373ffffffffffffffffffffffffffffffffffffffff1673ffffffffffffffffffffffffffffffffffffffff1681526020019081526020016000208190555050565b600080fd5b600073ffffffffffffffffffffffffffffffffffffffff82169050919050565b60006105ff826105d4565b9050919050565b61060f816105f4565b811461061a57600080fd5b50565b60008135905061062c81610606565b92915050565b6000819050919050565b61064581610632565b811461065057600080fd5b50565b6000813590506106628161063c565b92915050565b600080600060608486031215610681576106806105cf565b5b600061068f8682870161061d565b93505060206106a086828701610653565b92505060406106b18682870161061d565b9150509250925092565b600081519050919050565b600082825260208201905092915050565b60005b838110156106f55780820151818401526020810190506106da565b60008484015250505050565b6000601f19601f8301169050919050565b600061071d826106bb565b61072781856106c6565b93506107378185602086016106d7565b61074081610701565b840191505092915050565b600060208201905081810360008301526107658184610712565b905092915050565b60008060408385031215610784576107836105cf565b5b60006107928582860161061d565b92505060206107a385828601610653565b9150509250929050565b6000602082840312156107c3576107c26105cf565b5b60006107d18482850161061d565b91505092915050565b6107e381610632565b82525050565b60006020820190506107fe60008301846107da565b92915050565b7f4275796572204e6f742052656769737465726564000000000000000000000000600082015250565b600061083a6014836106c6565b915061084582610804565b602082019050919050565b600060208201905081810360008301526108698161082d565b9050919050565b7f53656c6c6572204e6f7420526567697374657265640000000000000000000000600082015250565b60006108a66015836106c6565b91506108b182610870565b602082019050919050565b600060208201905081810360008301526108d581610899565b9050919050565b7f4974656d5072696365204d7573742042652047726561746572205468616e205a60008201527f65726f0000000000000000000000000000000000000000000000000000000000602082015250565b60006109386023836106c6565b9150610943826108dc565b604082019050919050565b600060208201905081810360008301526109678161092b565b9050919050565b7f53656c6c657220616e642042757965722043616e6e6f742042652053616d6500600082015250565b60006109a4601f836106c6565b91506109af8261096e565b602082019050919050565b600060208201905081810360008301526109d381610997565b9050919050565b7f43617368204d7573742042652047726561746572205468616e205a65726f0000600082015250565b6000610a10601e836106c6565b9150610a1b826109da565b602082019050919050565b60006020820190508181036000830152610a3f81610a03565b9050919050565b7f4e487b7100000000000000000000000000000000000000000000000000000000600052601160045260246000fd5b6000610a8082610632565b9150610a8b83610632565b9250828203905081811115610aa357610aa2610a46565b5b92915050565b6000610ab482610632565b9150610abf83610632565b9250828201905080821115610ad757610ad6610a46565b5b92915050565b610ae6816105f4565b82525050565b6000606082019050610b016000830186610add565b610b0e6020830185610add565b610b1b60408301846107da565b949350505050565b7f4e6f7420456e6f7567682042616c616e63650000000000000000000000000000600082015250565b6000610b596012836106c6565b9150610b6482610b23565b602082019050919050565b60006020820190508181036000830152610b8881610b4c565b905091905056fe4974656d2057696c6c204265205368697070656420546f20427579657273204c6f636174696f6ea26469706673582212207259ac299bf62086f94cd3a52aa78b1bd33819d5bd24639c432a0f60da78316264736f6c63430008120033",
					"opcodes": "PUSH1 0x80 PUSH1 0x40 MSTORE CALLVALUE DUP1 ISZERO PUSH2 0x10 JUMPI PUSH1 0x0 DUP1 REVERT JUMPDEST POP PUSH2 0xBEC DUP1 PUSH2 0x20 PUSH1 0x0 CODECOPY PUSH1 0x0 RETURN INVALID PUSH1 0x80 PUSH1 0x40 MSTORE CALLVALUE DUP1 ISZERO PUSH2 0x10 JUMPI PUSH1 0x0 DUP1 REVERT JUMPDEST POP PUSH1 0x4 CALLDATASIZE LT PUSH2 0x4C JUMPI PUSH1 0x0 CALLDATALOAD PUSH1 0xE0 SHR DUP1 PUSH4 0x13E27488 EQ PUSH2 0x51 JUMPI DUP1 PUSH4 0xE3D4187F EQ PUSH2 0x81 JUMPI DUP1 PUSH4 0xE3D670D7 EQ PUSH2 0x9D JUMPI DUP1 PUSH4 0xEEDA149C EQ PUSH2 0xCD JUMPI JUMPDEST PUSH1 0x0 DUP1 REVERT JUMPDEST PUSH2 0x6B PUSH1 0x4 DUP1 CALLDATASIZE SUB DUP2 ADD SWAP1 PUSH2 0x66 SWAP2 SWAP1 PUSH2 0x668 JUMP JUMPDEST PUSH2 0xE9 JUMP JUMPDEST PUSH1 0x40 MLOAD PUSH2 0x78 SWAP2 SWAP1 PUSH2 0x74B JUMP JUMPDEST PUSH1 0x40 MLOAD DUP1 SWAP2 SUB SWAP1 RETURN JUMPDEST PUSH2 0x9B PUSH1 0x4 DUP1 CALLDATASIZE SUB DUP2 ADD SWAP1 PUSH2 0x96 SWAP2 SWAP1 PUSH2 0x76D JUMP JUMPDEST PUSH2 0x2C0 JUMP JUMPDEST STOP JUMPDEST PUSH2 0xB7 PUSH1 0x4 DUP1 CALLDATASIZE SUB DUP2 ADD SWAP1 PUSH2 0xB2 SWAP2 SWAP1 PUSH2 0x7AD JUMP JUMPDEST PUSH2 0x4EE JUMP JUMPDEST PUSH1 0x40 MLOAD PUSH2 0xC4 SWAP2 SWAP1 PUSH2 0x7E9 JUMP JUMPDEST PUSH1 0x40 MLOAD DUP1 SWAP2 SUB SWAP1 RETURN JUMPDEST PUSH2 0xE7 PUSH1 0x4 DUP1 CALLDATASIZE SUB DUP2 ADD SWAP1 PUSH2 0xE2 SWAP2 SWAP1 PUSH2 0x7AD JUMP JUMPDEST PUSH2 0x506 JUMP JUMPDEST STOP JUMPDEST PUSH1 0x60 PUSH1 0x0 DUP1 PUSH1 0x0 CALLER PUSH20 0xFFFFFFFFFFFFFFFFFFFFFFFFFFFFFFFFFFFFFFFF AND PUSH20 0xFFFFFFFFFFFFFFFFFFFFFFFFFFFFFFFFFFFFFFFF AND DUP2 MSTORE PUSH1 0x20 ADD SWAP1 DUP2 MSTORE PUSH1 0x20 ADD PUSH1 0x0 KECCAK256 SLOAD GT PUSH2 0x16C JUMPI PUSH1 0x40 MLOAD PUSH32 0x8C379A000000000000000000000000000000000000000000000000000000000 DUP2 MSTORE PUSH1 0x4 ADD PUSH2 0x163 SWAP1 PUSH2 0x850 JUMP JUMPDEST PUSH1 0x40 MLOAD DUP1 SWAP2 SUB SWAP1 REVERT JUMPDEST PUSH1 0x0 DUP1 PUSH1 0x0 DUP5 PUSH20 0xFFFFFFFFFFFFFFFFFFFFFFFFFFFFFFFFFFFFFFFF AND PUSH20 0xFFFFFFFFFFFFFFFFFFFFFFFFFFFFFFFFFFFFFFFF AND DUP2 MSTORE PUSH1 0x20 ADD SWAP1 DUP2 MSTORE PUSH1 0x20 ADD PUSH1 0x0 KECCAK256 SLOAD GT PUSH2 0x1ED JUMPI PUSH1 0x40 MLOAD PUSH32 0x8C379A000000000000000000000000000000000000000000000000000000000 DUP2 MSTORE PUSH1 0x4 ADD PUSH2 0x1E4 SWAP1 PUSH2 0x8BC JUMP JUMPDEST PUSH1 0x40 MLOAD DUP1 SWAP2 SUB SWAP1 REVERT JUMPDEST PUSH1 0x0 DUP4 GT PUSH2 0x230 JUMPI PUSH1 0x40 MLOAD PUSH32 0x8C379A000000000000000000000000000000000000000000000000000000000 DUP2 MSTORE PUSH1 0x4 ADD PUSH2 0x227 SWAP1 PUSH2 0x94E JUMP JUMPDEST PUSH1 0x40 MLOAD DUP1 SWAP2 SUB SWAP1 REVERT JUMPDEST DUP4 PUSH20 0xFFFFFFFFFFFFFFFFFFFFFFFFFFFFFFFFFFFFFFFF AND DUP3 PUSH20 0xFFFFFFFFFFFFFFFFFFFFFFFFFFFFFFFFFFFFFFFF AND SUB PUSH2 0x29E JUMPI PUSH1 0x40 MLOAD PUSH32 0x8C379A000000000000000000000000000000000000000000000000000000000 DUP2 MSTORE PUSH1 0x4 ADD PUSH2 0x295 SWAP1 PUSH2 0x9BA JUMP JUMPDEST PUSH1 0x40 MLOAD DUP1 SWAP2 SUB SWAP1 REVERT JUMPDEST PUSH1 0x40 MLOAD DUP1 PUSH1 0x60 ADD PUSH1 0x40 MSTORE DUP1 PUSH1 0x27 DUP2 MSTORE PUSH1 0x20 ADD PUSH2 0xB90 PUSH1 0x27 SWAP2 CODECOPY SWAP1 POP SWAP4 SWAP3 POP POP POP JUMP JUMPDEST PUSH1 0x0 DUP1 PUSH1 0x0 CALLER PUSH20 0xFFFFFFFFFFFFFFFFFFFFFFFFFFFFFFFFFFFFFFFF AND PUSH20 0xFFFFFFFFFFFFFFFFFFFFFFFFFFFFFFFFFFFFFFFF AND DUP2 MSTORE PUSH1 0x20 ADD SWAP1 DUP2 MSTORE PUSH1 0x20 ADD PUSH1 0x0 KECCAK256 SLOAD GT PUSH2 0x341 JUMPI PUSH1 0x40 MLOAD PUSH32 0x8C379A000000000000000000000000000000000000000000000000000000000 DUP2 MSTORE PUSH1 0x4 ADD PUSH2 0x338 SWAP1 PUSH2 0x850 JUMP JUMPDEST PUSH1 0x40 MLOAD DUP1 SWAP2 SUB SWAP1 REVERT JUMPDEST PUSH1 0x0 DUP1 PUSH1 0x0 DUP5 PUSH20 0xFFFFFFFFFFFFFFFFFFFFFFFFFFFFFFFFFFFFFFFF AND PUSH20 0xFFFFFFFFFFFFFFFFFFFFFFFFFFFFFFFFFFFFFFFF AND DUP2 MSTORE PUSH1 0x20 ADD SWAP1 DUP2 MSTORE PUSH1 0x20 ADD PUSH1 0x0 KECCAK256 SLOAD GT PUSH2 0x3C2 JUMPI PUSH1 0x40 MLOAD PUSH32 0x8C379A000000000000000000000000000000000000000000000000000000000 DUP2 MSTORE PUSH1 0x4 ADD PUSH2 0x3B9 SWAP1 PUSH2 0x8BC JUMP JUMPDEST PUSH1 0x40 MLOAD DUP1 SWAP2 SUB SWAP1 REVERT JUMPDEST PUSH1 0x0 DUP2 EQ PUSH2 0x405 JUMPI PUSH1 0x40 MLOAD PUSH32 0x8C379A000000000000000000000000000000000000000000000000000000000 DUP2 MSTORE PUSH1 0x4 ADD PUSH2 0x3FC SWAP1 PUSH2 0xA26 JUMP JUMPDEST PUSH1 0x40 MLOAD DUP1 SWAP2 SUB SWAP1 REVERT JUMPDEST DUP1 PUSH1 0x0 DUP1 CALLER PUSH20 0xFFFFFFFFFFFFFFFFFFFFFFFFFFFFFFFFFFFFFFFF AND PUSH20 0xFFFFFFFFFFFFFFFFFFFFFFFFFFFFFFFFFFFFFFFF AND DUP2 MSTORE PUSH1 0x20 ADD SWAP1 DUP2 MSTORE PUSH1 0x20 ADD PUSH1 0x0 KECCAK256 PUSH1 0x0 DUP3 DUP3 SLOAD PUSH2 0x453 SWAP2 SWAP1 PUSH2 0xA75 JUMP JUMPDEST SWAP3 POP POP DUP2 SWAP1 SSTORE POP DUP1 PUSH1 0x0 DUP1 DUP5 PUSH20 0xFFFFFFFFFFFFFFFFFFFFFFFFFFFFFFFFFFFFFFFF AND PUSH20 0xFFFFFFFFFFFFFFFFFFFFFFFFFFFFFFFFFFFFFFFF AND DUP2 MSTORE PUSH1 0x20 ADD SWAP1 DUP2 MSTORE PUSH1 0x20 ADD PUSH1 0x0 KECCAK256 PUSH1 0x0 DUP3 DUP3 SLOAD PUSH2 0x4A8 SWAP2 SWAP1 PUSH2 0xAA9 JUMP JUMPDEST SWAP3 POP POP DUP2 SWAP1 SSTORE POP PUSH32 0x22E3AE3A20C49DCE14046235895C7A3FFC0A6A5F3577C370177AD45FA619485D CALLER DUP4 DUP4 PUSH1 0x40 MLOAD PUSH2 0x4E2 SWAP4 SWAP3 SWAP2 SWAP1 PUSH2 0xAEC JUMP JUMPDEST PUSH1 0x40 MLOAD DUP1 SWAP2 SUB SWAP1 LOG1 POP POP JUMP JUMPDEST PUSH1 0x0 PUSH1 0x20 MSTORE DUP1 PUSH1 0x0 MSTORE PUSH1 0x40 PUSH1 0x0 KECCAK256 PUSH1 0x0 SWAP2 POP SWAP1 POP SLOAD DUP2 JUMP JUMPDEST PUSH1 0x0 DUP1 PUSH1 0x0 CALLER PUSH20 0xFFFFFFFFFFFFFFFFFFFFFFFFFFFFFFFFFFFFFFFF AND PUSH20 0xFFFFFFFFFFFFFFFFFFFFFFFFFFFFFFFFFFFFFFFF AND DUP2 MSTORE PUSH1 0x20 ADD SWAP1 DUP2 MSTORE PUSH1 0x20 ADD PUSH1 0x0 KECCAK256 SLOAD EQ PUSH2 0x587 JUMPI PUSH1 0x40 MLOAD PUSH32 0x8C379A000000000000000000000000000000000000000000000000000000000 DUP2 MSTORE PUSH1 0x4 ADD PUSH2 0x57E SWAP1 PUSH2 0xB6F JUMP JUMPDEST PUSH1 0x40 MLOAD DUP1 SWAP2 SUB SWAP1 REVERT JUMPDEST PUSH2 0x2710 PUSH1 0x0 DUP1 CALLER PUSH20 0xFFFFFFFFFFFFFFFFFFFFFFFFFFFFFFFFFFFFFFFF AND PUSH20 0xFFFFFFFFFFFFFFFFFFFFFFFFFFFFFFFFFFFFFFFF AND DUP2 MSTORE PUSH1 0x20 ADD SWAP1 DUP2 MSTORE PUSH1 0x20 ADD PUSH1 0x0 KECCAK256 DUP2 SWAP1 SSTORE POP POP JUMP JUMPDEST PUSH1 0x0 DUP1 REVERT JUMPDEST PUSH1 0x0 PUSH20 0xFFFFFFFFFFFFFFFFFFFFFFFFFFFFFFFFFFFFFFFF DUP3 AND SWAP1 POP SWAP2 SWAP1 POP JUMP JUMPDEST PUSH1 0x0 PUSH2 0x5FF DUP3 PUSH2 0x5D4 JUMP JUMPDEST SWAP1 POP SWAP2 SWAP1 POP JUMP JUMPDEST PUSH2 0x60F DUP2 PUSH2 0x5F4 JUMP JUMPDEST DUP2 EQ PUSH2 0x61A JUMPI PUSH1 0x0 DUP1 REVERT JUMPDEST POP JUMP JUMPDEST PUSH1 0x0 DUP2 CALLDATALOAD SWAP1 POP PUSH2 0x62C DUP2 PUSH2 0x606 JUMP JUMPDEST SWAP3 SWAP2 POP POP JUMP JUMPDEST PUSH1 0x0 DUP2 SWAP1 POP SWAP2 SWAP1 POP JUMP JUMPDEST PUSH2 0x645 DUP2 PUSH2 0x632 JUMP JUMPDEST DUP2 EQ PUSH2 0x650 JUMPI PUSH1 0x0 DUP1 REVERT JUMPDEST POP JUMP JUMPDEST PUSH1 0x0 DUP2 CALLDATALOAD SWAP1 POP PUSH2 0x662 DUP2 PUSH2 0x63C JUMP JUMPDEST SWAP3 SWAP2 POP POP JUMP JUMPDEST PUSH1 0x0 DUP1 PUSH1 0x0 PUSH1 0x60 DUP5 DUP7 SUB SLT ISZERO PUSH2 0x681 JUMPI PUSH2 0x680 PUSH2 0x5CF JUMP JUMPDEST JUMPDEST PUSH1 0x0 PUSH2 0x68F DUP7 DUP3 DUP8 ADD PUSH2 0x61D JUMP JUMPDEST SWAP4 POP POP PUSH1 0x20 PUSH2 0x6A0 DUP7 DUP3 DUP8 ADD PUSH2 0x653 JUMP JUMPDEST SWAP3 POP POP PUSH1 0x40 PUSH2 0x6B1 DUP7 DUP3 DUP8 ADD PUSH2 0x61D JUMP JUMPDEST SWAP2 POP POP SWAP3 POP SWAP3 POP SWAP3 JUMP JUMPDEST PUSH1 0x0 DUP2 MLOAD SWAP1 POP SWAP2 SWAP1 POP JUMP JUMPDEST PUSH1 0x0 DUP3 DUP3 MSTORE PUSH1 0x20 DUP3 ADD SWAP1 POP SWAP3 SWAP2 POP POP JUMP JUMPDEST PUSH1 0x0 JUMPDEST DUP4 DUP2 LT ISZERO PUSH2 0x6F5 JUMPI DUP1 DUP3 ADD MLOAD DUP2 DUP5 ADD MSTORE PUSH1 0x20 DUP2 ADD SWAP1 POP PUSH2 0x6DA JUMP JUMPDEST PUSH1 0x0 DUP5 DUP5 ADD MSTORE POP POP POP POP JUMP JUMPDEST PUSH1 0x0 PUSH1 0x1F NOT PUSH1 0x1F DUP4 ADD AND SWAP1 POP SWAP2 SWAP1 POP JUMP JUMPDEST PUSH1 0x0 PUSH2 0x71D DUP3 PUSH2 0x6BB JUMP JUMPDEST PUSH2 0x727 DUP2 DUP6 PUSH2 0x6C6 JUMP JUMPDEST SWAP4 POP PUSH2 0x737 DUP2 DUP6 PUSH1 0x20 DUP7 ADD PUSH2 0x6D7 JUMP JUMPDEST PUSH2 0x740 DUP2 PUSH2 0x701 JUMP JUMPDEST DUP5 ADD SWAP2 POP POP SWAP3 SWAP2 POP POP JUMP JUMPDEST PUSH1 0x0 PUSH1 0x20 DUP3 ADD SWAP1 POP DUP2 DUP2 SUB PUSH1 0x0 DUP4 ADD MSTORE PUSH2 0x765 DUP2 DUP5 PUSH2 0x712 JUMP JUMPDEST SWAP1 POP SWAP3 SWAP2 POP POP JUMP JUMPDEST PUSH1 0x0 DUP1 PUSH1 0x40 DUP4 DUP6 SUB SLT ISZERO PUSH2 0x784 JUMPI PUSH2 0x783 PUSH2 0x5CF JUMP JUMPDEST JUMPDEST PUSH1 0x0 PUSH2 0x792 DUP6 DUP3 DUP7 ADD PUSH2 0x61D JUMP JUMPDEST SWAP3 POP POP PUSH1 0x20 PUSH2 0x7A3 DUP6 DUP3 DUP7 ADD PUSH2 0x653 JUMP JUMPDEST SWAP2 POP POP SWAP3 POP SWAP3 SWAP1 POP JUMP JUMPDEST PUSH1 0x0 PUSH1 0x20 DUP3 DUP5 SUB SLT ISZERO PUSH2 0x7C3 JUMPI PUSH2 0x7C2 PUSH2 0x5CF JUMP JUMPDEST JUMPDEST PUSH1 0x0 PUSH2 0x7D1 DUP5 DUP3 DUP6 ADD PUSH2 0x61D JUMP JUMPDEST SWAP2 POP POP SWAP3 SWAP2 POP POP JUMP JUMPDEST PUSH2 0x7E3 DUP2 PUSH2 0x632 JUMP JUMPDEST DUP3 MSTORE POP POP JUMP JUMPDEST PUSH1 0x0 PUSH1 0x20 DUP3 ADD SWAP1 POP PUSH2 0x7FE PUSH1 0x0 DUP4 ADD DUP5 PUSH2 0x7DA JUMP JUMPDEST SWAP3 SWAP2 POP POP JUMP JUMPDEST PUSH32 0x4275796572204E6F742052656769737465726564000000000000000000000000 PUSH1 0x0 DUP3 ADD MSTORE POP JUMP JUMPDEST PUSH1 0x0 PUSH2 0x83A PUSH1 0x14 DUP4 PUSH2 0x6C6 JUMP JUMPDEST SWAP2 POP PUSH2 0x845 DUP3 PUSH2 0x804 JUMP JUMPDEST PUSH1 0x20 DUP3 ADD SWAP1 POP SWAP2 SWAP1 POP JUMP JUMPDEST PUSH1 0x0 PUSH1 0x20 DUP3 ADD SWAP1 POP DUP2 DUP2 SUB PUSH1 0x0 DUP4 ADD MSTORE PUSH2 0x869 DUP2 PUSH2 0x82D JUMP JUMPDEST SWAP1 POP SWAP2 SWAP1 POP JUMP JUMPDEST PUSH32 0x53656C6C6572204E6F7420526567697374657265640000000000000000000000 PUSH1 0x0 DUP3 ADD MSTORE POP JUMP JUMPDEST PUSH1 0x0 PUSH2 0x8A6 PUSH1 0x15 DUP4 PUSH2 0x6C6 JUMP JUMPDEST SWAP2 POP PUSH2 0x8B1 DUP3 PUSH2 0x870 JUMP JUMPDEST PUSH1 0x20 DUP3 ADD SWAP1 POP SWAP2 SWAP1 POP JUMP JUMPDEST PUSH1 0x0 PUSH1 0x20 DUP3 ADD SWAP1 POP DUP2 DUP2 SUB PUSH1 0x0 DUP4 ADD MSTORE PUSH2 0x8D5 DUP2 PUSH2 0x899 JUMP JUMPDEST SWAP1 POP SWAP2 SWAP1 POP JUMP JUMPDEST PUSH32 0x4974656D5072696365204D7573742042652047726561746572205468616E205A PUSH1 0x0 DUP3 ADD MSTORE PUSH32 0x65726F0000000000000000000000000000000000000000000000000000000000 PUSH1 0x20 DUP3 ADD MSTORE POP JUMP JUMPDEST PUSH1 0x0 PUSH2 0x938 PUSH1 0x23 DUP4 PUSH2 0x6C6 JUMP JUMPDEST SWAP2 POP PUSH2 0x943 DUP3 PUSH2 0x8DC JUMP JUMPDEST PUSH1 0x40 DUP3 ADD SWAP1 POP SWAP2 SWAP1 POP JUMP JUMPDEST PUSH1 0x0 PUSH1 0x20 DUP3 ADD SWAP1 POP DUP2 DUP2 SUB PUSH1 0x0 DUP4 ADD MSTORE PUSH2 0x967 DUP2 PUSH2 0x92B JUMP JUMPDEST SWAP1 POP SWAP2 SWAP1 POP JUMP JUMPDEST PUSH32 0x53656C6C657220616E642042757965722043616E6E6F742042652053616D6500 PUSH1 0x0 DUP3 ADD MSTORE POP JUMP JUMPDEST PUSH1 0x0 PUSH2 0x9A4 PUSH1 0x1F DUP4 PUSH2 0x6C6 JUMP JUMPDEST SWAP2 POP PUSH2 0x9AF DUP3 PUSH2 0x96E JUMP JUMPDEST PUSH1 0x20 DUP3 ADD SWAP1 POP SWAP2 SWAP1 POP JUMP JUMPDEST PUSH1 0x0 PUSH1 0x20 DUP3 ADD SWAP1 POP DUP2 DUP2 SUB PUSH1 0x0 DUP4 ADD MSTORE PUSH2 0x9D3 DUP2 PUSH2 0x997 JUMP JUMPDEST SWAP1 POP SWAP2 SWAP1 POP JUMP JUMPDEST PUSH32 0x43617368204D7573742042652047726561746572205468616E205A65726F0000 PUSH1 0x0 DUP3 ADD MSTORE POP JUMP JUMPDEST PUSH1 0x0 PUSH2 0xA10 PUSH1 0x1E DUP4 PUSH2 0x6C6 JUMP JUMPDEST SWAP2 POP PUSH2 0xA1B DUP3 PUSH2 0x9DA JUMP JUMPDEST PUSH1 0x20 DUP3 ADD SWAP1 POP SWAP2 SWAP1 POP JUMP JUMPDEST PUSH1 0x0 PUSH1 0x20 DUP3 ADD SWAP1 POP DUP2 DUP2 SUB PUSH1 0x0 DUP4 ADD MSTORE PUSH2 0xA3F DUP2 PUSH2 0xA03 JUMP JUMPDEST SWAP1 POP SWAP2 SWAP1 POP JUMP JUMPDEST PUSH32 0x4E487B7100000000000000000000000000000000000000000000000000000000 PUSH1 0x0 MSTORE PUSH1 0x11 PUSH1 0x4 MSTORE PUSH1 0x24 PUSH1 0x0 REVERT JUMPDEST PUSH1 0x0 PUSH2 0xA80 DUP3 PUSH2 0x632 JUMP JUMPDEST SWAP2 POP PUSH2 0xA8B DUP4 PUSH2 0x632 JUMP JUMPDEST SWAP3 POP DUP3 DUP3 SUB SWAP1 POP DUP2 DUP2 GT ISZERO PUSH2 0xAA3 JUMPI PUSH2 0xAA2 PUSH2 0xA46 JUMP JUMPDEST JUMPDEST SWAP3 SWAP2 POP POP JUMP JUMPDEST PUSH1 0x0 PUSH2 0xAB4 DUP3 PUSH2 0x632 JUMP JUMPDEST SWAP2 POP PUSH2 0xABF DUP4 PUSH2 0x632 JUMP JUMPDEST SWAP3 POP DUP3 DUP3 ADD SWAP1 POP DUP1 DUP3 GT ISZERO PUSH2 0xAD7 JUMPI PUSH2 0xAD6 PUSH2 0xA46 JUMP JUMPDEST JUMPDEST SWAP3 SWAP2 POP POP JUMP JUMPDEST PUSH2 0xAE6 DUP2 PUSH2 0x5F4 JUMP JUMPDEST DUP3 MSTORE POP POP JUMP JUMPDEST PUSH1 0x0 PUSH1 0x60 DUP3 ADD SWAP1 POP PUSH2 0xB01 PUSH1 0x0 DUP4 ADD DUP7 PUSH2 0xADD JUMP JUMPDEST PUSH2 0xB0E PUSH1 0x20 DUP4 ADD DUP6 PUSH2 0xADD JUMP JUMPDEST PUSH2 0xB1B PUSH1 0x40 DUP4 ADD DUP5 PUSH2 0x7DA JUMP JUMPDEST SWAP5 SWAP4 POP POP POP POP JUMP JUMPDEST PUSH32 0x4E6F7420456E6F7567682042616C616E63650000000000000000000000000000 PUSH1 0x0 DUP3 ADD MSTORE POP JUMP JUMPDEST PUSH1 0x0 PUSH2 0xB59 PUSH1 0x12 DUP4 PUSH2 0x6C6 JUMP JUMPDEST SWAP2 POP PUSH2 0xB64 DUP3 PUSH2 0xB23 JUMP JUMPDEST PUSH1 0x20 DUP3 ADD SWAP1 POP SWAP2 SWAP1 POP JUMP JUMPDEST PUSH1 0x0 PUSH1 0x20 DUP3 ADD SWAP1 POP DUP2 DUP2 SUB PUSH1 0x0 DUP4 ADD MSTORE PUSH2 0xB88 DUP2 PUSH2 0xB4C JUMP JUMPDEST SWAP1 POP SWAP2 SWAP1 POP JUMP INVALID 0x49 PUSH21 0x656D2057696C6C204265205368697070656420546F KECCAK256 TIMESTAMP PUSH22 0x79657273204C6F636174696F6EA26469706673582212 KECCAK256 PUSH19 0x59AC299BF62086F94CD3A52AA78B1BD33819D5 0xBD 0x24 PUSH4 0x9C432A0F PUSH1 0xDA PUSH25 0x316264736F6C63430008120033000000000000000000000000 "
				},
				"gasEstimates": {
					"creation": {
						"codeDepositCost": "610400",
						"executionCost": "645",
						"totalCost": "611045"
					},
					"external": {
						"Buy(address,uint256)": "infinite",
						"Register(address)": "24914",
						"Sell(address,uint256,address)": "infinite",
						"balance(address)": "2836"
					}
				},
				"methodIdentifiers": {
					"Buy(address,uint256)": "e3d4187f",
					"Register(address)": "eeda149c",
					"Sell(address,uint256,address)": "13e27488",
					"balance(address)": "e3d670d7"
				}
			},
			"storageLayout": {
				"storage": [
					{
						"astId": 5,
						"contract": "LABS 18 Aug/Task All 18.sol:RegularBuyer",
						"label": "balance",
						"offset": 0,
						"slot": "0",
						"type": "t_mapping(t_address,t_uint256)"
					}
				],
				"types": {
					"t_address": {
						"encoding": "inplace",
						"label": "address",
						"numberOfBytes": "20"
					},
					"t_mapping(t_address,t_uint256)": {
						"encoding": "mapping",
						"key": "t_address",
						"label": "mapping(address => uint256)",
						"numberOfBytes": "32",
						"value": "t_uint256"
					},
					"t_uint256": {
						"encoding": "inplace",
						"label": "uint256",
						"numberOfBytes": "32"
					}
				}
			},
			"userdoc": {
				"kind": "user",
				"methods": {},
				"version": 1
			}
		}
	}
}