{
	"LABS 18 Aug/Task All 18.sol": {
		"PremiumSeller": {
			"abi": [
				{
					"inputs": [
						{
							"internalType": "uint256",
							"name": "temp",
							"type": "uint256"
						}
					],
					"stateMutability": "nonpayable",
					"type": "constructor"
				},
				{
					"anonymous": false,
					"inputs": [
						{
							"indexed": false,
							"internalType": "address",
							"name": "Buyer",
							"type": "address"
						},
						{
							"indexed": false,
							"internalType": "address",
							"name": "sender",
							"type": "address"
						},
						{
							"indexed": false,
							"internalType": "uint256",
							"name": "valueOfPurchase",
							"type": "uint256"
						}
					],
					"name": "Purchase",
					"type": "event"
				},
				{
					"inputs": [
						{
							"internalType": "address",
							"name": "Seller",
							"type": "address"
						},
						{
							"internalType": "uint256",
							"name": "Cash",
							"type": "uint256"
						}
					],
					"name": "Buy",
					"outputs": [],
					"stateMutability": "nonpayable",
					"type": "function"
				},
				{
					"inputs": [
						{
							"internalType": "address",
							"name": "",
							"type": "address"
						}
					],
					"name": "Register",
					"outputs": [],
					"stateMutability": "nonpayable",
					"type": "function"
				},
				{
					"inputs": [
						{
							"internalType": "address",
							"name": "Buyer",
							"type": "address"
						},
						{
							"internalType": "uint256",
							"name": "ItemPrice",
							"type": "uint256"
						},
						{
							"internalType": "address",
							"name": "Seller",
							"type": "address"
						}
					],
					"name": "Sell",
					"outputs": [
						{
							"internalType": "string",
							"name": "",
							"type": "string"
						}
					],
					"stateMutability": "nonpayable",
					"type": "function"
				},
				{
					"inputs": [
						{
							"internalType": "address",
							"name": "",
							"type": "address"
						}
					],
					"name": "balance",
					"outputs": [
						{
							"internalType": "uint256",
							"name": "",
							"type": "uint256"
						}
					],
					"stateMutability": "view",
					"type": "function"
				}
			],
			"devdoc": {
				"kind": "dev",
				"methods": {},
				"version": 1
			},
			"evm": {
				"assembly": "    /* \"LABS 18 Aug/Task All 18.sol\":1309:1929  contract PremiumSeller is Marketplace{... */\n  mstore(0x40, 0x80)\n    /* \"LABS 18 Aug/Task All 18.sol\":1384:1436  constructor(uint temp) {... */\n  callvalue\n  dup1\n  iszero\n  tag_1\n  jumpi\n  0x00\n  dup1\n  revert\ntag_1:\n  pop\n  mload(0x40)\n  sub(codesize, bytecodeSize)\n  dup1\n  bytecodeSize\n  dup4\n  codecopy\n  dup2\n  dup2\n  add\n  0x40\n  mstore\n  dup2\n  add\n  swap1\n  tag_2\n  swap2\n  swap1\n  tag_3\n  jump\t// in\ntag_2:\n    /* \"LABS 18 Aug/Task All 18.sol\":1424:1428  temp */\n  dup1\n    /* \"LABS 18 Aug/Task All 18.sol\":1418:1421  Fee */\n  0x01\n    /* \"LABS 18 Aug/Task All 18.sol\":1418:1428  Fee = temp */\n  dup2\n  swap1\n  sstore\n  pop\n    /* \"LABS 18 Aug/Task All 18.sol\":1384:1436  constructor(uint temp) {... */\n  pop\n    /* \"LABS 18 Aug/Task All 18.sol\":1309:1929  contract PremiumSeller is Marketplace{... */\n  jump(tag_6)\n    /* \"#utility.yul\":88:205   */\ntag_8:\n    /* \"#utility.yul\":197:198   */\n  0x00\n    /* \"#utility.yul\":194:195   */\n  dup1\n    /* \"#utility.yul\":187:199   */\n  revert\n    /* \"#utility.yul\":334:411   */\ntag_10:\n    /* \"#utility.yul\":371:378   */\n  0x00\n    /* \"#utility.yul\":400:405   */\n  dup2\n    /* \"#utility.yul\":389:405   */\n  swap1\n  pop\n    /* \"#utility.yul\":334:411   */\n  swap2\n  swap1\n  pop\n  jump\t// out\n    /* \"#utility.yul\":417:539   */\ntag_11:\n    /* \"#utility.yul\":490:514   */\n  tag_19\n    /* \"#utility.yul\":508:513   */\n  dup2\n    /* \"#utility.yul\":490:514   */\n  tag_10\n  jump\t// in\ntag_19:\n    /* \"#utility.yul\":483:488   */\n  dup2\n    /* \"#utility.yul\":480:515   */\n  eq\n    /* \"#utility.yul\":470:533   */\n  tag_20\n  jumpi\n    /* \"#utility.yul\":529:530   */\n  0x00\n    /* \"#utility.yul\":526:527   */\n  dup1\n    /* \"#utility.yul\":519:531   */\n  revert\n    /* \"#utility.yul\":470:533   */\ntag_20:\n    /* \"#utility.yul\":417:539   */\n  pop\n  jump\t// out\n    /* \"#utility.yul\":545:688   */\ntag_12:\n    /* \"#utility.yul\":602:607   */\n  0x00\n    /* \"#utility.yul\":633:639   */\n  dup2\n    /* \"#utility.yul\":627:640   */\n  mload\n    /* \"#utility.yul\":618:640   */\n  swap1\n  pop\n    /* \"#utility.yul\":649:682   */\n  tag_22\n    /* \"#utility.yul\":676:681   */\n  dup2\n    /* \"#utility.yul\":649:682   */\n  tag_11\n  jump\t// in\ntag_22:\n    /* \"#utility.yul\":545:688   */\n  swap3\n  swap2\n  pop\n  pop\n  jump\t// out\n    /* \"#utility.yul\":694:1045   */\ntag_3:\n    /* \"#utility.yul\":764:770   */\n  0x00\n    /* \"#utility.yul\":813:815   */\n  0x20\n    /* \"#utility.yul\":801:810   */\n  dup3\n    /* \"#utility.yul\":792:799   */\n  dup5\n    /* \"#utility.yul\":788:811   */\n  sub\n    /* \"#utility.yul\":784:816   */\n  slt\n    /* \"#utility.yul\":781:900   */\n  iszero\n  tag_24\n  jumpi\n    /* \"#utility.yul\":819:898   */\n  tag_25\n  tag_8\n  jump\t// in\ntag_25:\n    /* \"#utility.yul\":781:900   */\ntag_24:\n    /* \"#utility.yul\":939:940   */\n  0x00\n    /* \"#utility.yul\":964:1028   */\n  tag_26\n    /* \"#utility.yul\":1020:1027   */\n  dup5\n    /* \"#utility.yul\":1011:1017   */\n  dup3\n    /* \"#utility.yul\":1000:1009   */\n  dup6\n    /* \"#utility.yul\":996:1018   */\n  add\n    /* \"#utility.yul\":964:1028   */\n  tag_12\n  jump\t// in\ntag_26:\n    /* \"#utility.yul\":954:1028   */\n  swap2\n  pop\n    /* \"#utility.yul\":910:1038   */\n  pop\n    /* \"#utility.yul\":694:1045   */\n  swap3\n  swap2\n  pop\n  pop\n  jump\t// out\n    /* \"LABS 18 Aug/Task All 18.sol\":1309:1929  contract PremiumSeller is Marketplace{... */\ntag_6:\n  dataSize(sub_0)\n  dup1\n  dataOffset(sub_0)\n  0x00\n  codecopy\n  0x00\n  return\nstop\n\nsub_0: assembly {\n        /* \"LABS 18 Aug/Task All 18.sol\":1309:1929  contract PremiumSeller is Marketplace{... */\n      mstore(0x40, 0x80)\n      callvalue\n      dup1\n      iszero\n      tag_1\n      jumpi\n      0x00\n      dup1\n      revert\n    tag_1:\n      pop\n      jumpi(tag_2, lt(calldatasize, 0x04))\n      shr(0xe0, calldataload(0x00))\n      dup1\n      0x13e27488\n      eq\n      tag_3\n      jumpi\n      dup1\n      0xe3d4187f\n      eq\n      tag_4\n      jumpi\n      dup1\n      0xe3d670d7\n      eq\n      tag_5\n      jumpi\n      dup1\n      0xeeda149c\n      eq\n      tag_6\n      jumpi\n    tag_2:\n      0x00\n      dup1\n      revert\n        /* \"LABS 18 Aug/Task All 18.sol\":1442:1925  function Sell(address Buyer, uint ItemPrice, address Seller) override  external  returns(string memory){... */\n    tag_3:\n      tag_7\n      0x04\n      dup1\n      calldatasize\n      sub\n      dup2\n      add\n      swap1\n      tag_8\n      swap2\n      swap1\n      tag_9\n      jump\t// in\n    tag_8:\n      tag_10\n      jump\t// in\n    tag_7:\n      mload(0x40)\n      tag_11\n      swap2\n      swap1\n      tag_12\n      jump\t// in\n    tag_11:\n      mload(0x40)\n      dup1\n      swap2\n      sub\n      swap1\n      return\n        /* \"LABS 18 Aug/Task All 18.sol\":443:824  function Buy(address Seller, uint Cash) virtual external {... */\n    tag_4:\n      tag_13\n      0x04\n      dup1\n      calldatasize\n      sub\n      dup2\n      add\n      swap1\n      tag_14\n      swap2\n      swap1\n      tag_15\n      jump\t// in\n    tag_14:\n      tag_16\n      jump\t// in\n    tag_13:\n      stop\n        /* \"LABS 18 Aug/Task All 18.sol\":118:157  mapping(address => uint) public balance */\n    tag_5:\n      tag_17\n      0x04\n      dup1\n      calldatasize\n      sub\n      dup2\n      add\n      swap1\n      tag_18\n      swap2\n      swap1\n      tag_19\n      jump\t// in\n    tag_18:\n      tag_20\n      jump\t// in\n    tag_17:\n      mload(0x40)\n      tag_21\n      swap2\n      swap1\n      tag_22\n      jump\t// in\n    tag_21:\n      mload(0x40)\n      dup1\n      swap2\n      sub\n      swap1\n      return\n        /* \"LABS 18 Aug/Task All 18.sol\":271:421  function Register(address) external {... */\n    tag_6:\n      tag_23\n      0x04\n      dup1\n      calldatasize\n      sub\n      dup2\n      add\n      swap1\n      tag_24\n      swap2\n      swap1\n      tag_19\n      jump\t// in\n    tag_24:\n      tag_25\n      jump\t// in\n    tag_23:\n      stop\n        /* \"LABS 18 Aug/Task All 18.sol\":1442:1925  function Sell(address Buyer, uint ItemPrice, address Seller) override  external  returns(string memory){... */\n    tag_10:\n        /* \"LABS 18 Aug/Task All 18.sol\":1531:1544  string memory */\n      0x60\n        /* \"LABS 18 Aug/Task All 18.sol\":1582:1583  0 */\n      0x00\n        /* \"LABS 18 Aug/Task All 18.sol\":1564:1571  balance */\n      dup1\n        /* \"LABS 18 Aug/Task All 18.sol\":1564:1579  balance[Seller] */\n      0x00\n        /* \"LABS 18 Aug/Task All 18.sol\":1572:1578  Seller */\n      dup5\n        /* \"LABS 18 Aug/Task All 18.sol\":1564:1579  balance[Seller] */\n      0xffffffffffffffffffffffffffffffffffffffff\n      and\n      0xffffffffffffffffffffffffffffffffffffffff\n      and\n      dup2\n      mstore\n      0x20\n      add\n      swap1\n      dup2\n      mstore\n      0x20\n      add\n      0x00\n      keccak256\n      sload\n        /* \"LABS 18 Aug/Task All 18.sol\":1564:1583  balance[Seller] > 0 */\n      gt\n        /* \"LABS 18 Aug/Task All 18.sol\":1556:1620  require(balance[Seller] > 0, \"Balance Of Seller Cannot Be Zero\") */\n      tag_27\n      jumpi\n      mload(0x40)\n      0x08c379a000000000000000000000000000000000000000000000000000000000\n      dup2\n      mstore\n      0x04\n      add\n      tag_28\n      swap1\n      tag_29\n      jump\t// in\n    tag_28:\n      mload(0x40)\n      dup1\n      swap2\n      sub\n      swap1\n      revert\n    tag_27:\n        /* \"LABS 18 Aug/Task All 18.sol\":1631:1645  uint FeeAmount */\n      0x00\n        /* \"LABS 18 Aug/Task All 18.sol\":1666:1669  100 */\n      0x64\n        /* \"LABS 18 Aug/Task All 18.sol\":1660:1663  Fee */\n      sload(0x01)\n        /* \"LABS 18 Aug/Task All 18.sol\":1648:1657  ItemPrice */\n      dup6\n        /* \"LABS 18 Aug/Task All 18.sol\":1648:1663  ItemPrice * Fee */\n      tag_30\n      swap2\n      swap1\n      tag_31\n      jump\t// in\n    tag_30:\n        /* \"LABS 18 Aug/Task All 18.sol\":1648:1669  ItemPrice * Fee / 100 */\n      tag_32\n      swap2\n      swap1\n      tag_33\n      jump\t// in\n    tag_32:\n        /* \"LABS 18 Aug/Task All 18.sol\":1631:1669  uint FeeAmount = ItemPrice * Fee / 100 */\n      swap1\n      pop\n        /* \"LABS 18 Aug/Task All 18.sol\":1698:1707  FeeAmount */\n      dup1\n        /* \"LABS 18 Aug/Task All 18.sol\":1680:1687  balance */\n      0x00\n        /* \"LABS 18 Aug/Task All 18.sol\":1680:1694  balance[Buyer] */\n      dup1\n        /* \"LABS 18 Aug/Task All 18.sol\":1688:1693  Buyer */\n      dup8\n        /* \"LABS 18 Aug/Task All 18.sol\":1680:1694  balance[Buyer] */\n      0xffffffffffffffffffffffffffffffffffffffff\n      and\n      0xffffffffffffffffffffffffffffffffffffffff\n      and\n      dup2\n      mstore\n      0x20\n      add\n      swap1\n      dup2\n      mstore\n      0x20\n      add\n      0x00\n      keccak256\n      0x00\n        /* \"LABS 18 Aug/Task All 18.sol\":1680:1707  balance[Buyer] -= FeeAmount */\n      dup3\n      dup3\n      sload\n      tag_34\n      swap2\n      swap1\n      tag_35\n      jump\t// in\n    tag_34:\n      swap3\n      pop\n      pop\n      dup2\n      swap1\n      sstore\n      pop\n        /* \"LABS 18 Aug/Task All 18.sol\":1744:1753  FeeAmount */\n      dup1\n        /* \"LABS 18 Aug/Task All 18.sol\":1718:1725  balance */\n      0x00\n        /* \"LABS 18 Aug/Task All 18.sol\":1718:1740  balance[address(this)] */\n      dup1\n        /* \"LABS 18 Aug/Task All 18.sol\":1734:1738  this */\n      address\n        /* \"LABS 18 Aug/Task All 18.sol\":1718:1740  balance[address(this)] */\n      0xffffffffffffffffffffffffffffffffffffffff\n      and\n      0xffffffffffffffffffffffffffffffffffffffff\n      and\n      dup2\n      mstore\n      0x20\n      add\n      swap1\n      dup2\n      mstore\n      0x20\n      add\n      0x00\n      keccak256\n      0x00\n        /* \"LABS 18 Aug/Task All 18.sol\":1718:1753  balance[address(this)] += FeeAmount */\n      dup3\n      dup3\n      sload\n      tag_36\n      swap2\n      swap1\n      tag_37\n      jump\t// in\n    tag_36:\n      swap3\n      pop\n      pop\n      dup2\n      swap1\n      sstore\n      pop\n        /* \"LABS 18 Aug/Task All 18.sol\":1794:1795  0 */\n      0x00\n        /* \"LABS 18 Aug/Task All 18.sol\":1772:1779  balance */\n      dup1\n        /* \"LABS 18 Aug/Task All 18.sol\":1772:1791  balance[msg.sender] */\n      0x00\n        /* \"LABS 18 Aug/Task All 18.sol\":1780:1790  msg.sender */\n      caller\n        /* \"LABS 18 Aug/Task All 18.sol\":1772:1791  balance[msg.sender] */\n      0xffffffffffffffffffffffffffffffffffffffff\n      and\n      0xffffffffffffffffffffffffffffffffffffffff\n      and\n      dup2\n      mstore\n      0x20\n      add\n      swap1\n      dup2\n      mstore\n      0x20\n      add\n      0x00\n      keccak256\n      sload\n        /* \"LABS 18 Aug/Task All 18.sol\":1772:1795  balance[msg.sender] > 0 */\n      gt\n        /* \"LABS 18 Aug/Task All 18.sol\":1764:1820  require(balance[msg.sender] > 0, \"Buyer Not Registered\") */\n      tag_38\n      jumpi\n      mload(0x40)\n      0x08c379a000000000000000000000000000000000000000000000000000000000\n      dup2\n      mstore\n      0x04\n      add\n      tag_39\n      swap1\n      tag_40\n      jump\t// in\n    tag_39:\n      mload(0x40)\n      dup1\n      swap2\n      sub\n      swap1\n      revert\n    tag_38:\n        /* \"LABS 18 Aug/Task All 18.sol\":1857:1858  0 */\n      0x00\n        /* \"LABS 18 Aug/Task All 18.sol\":1839:1846  balance */\n      dup1\n        /* \"LABS 18 Aug/Task All 18.sol\":1839:1854  balance[Seller] */\n      0x00\n        /* \"LABS 18 Aug/Task All 18.sol\":1847:1853  Seller */\n      dup6\n        /* \"LABS 18 Aug/Task All 18.sol\":1839:1854  balance[Seller] */\n      0xffffffffffffffffffffffffffffffffffffffff\n      and\n      0xffffffffffffffffffffffffffffffffffffffff\n      and\n      dup2\n      mstore\n      0x20\n      add\n      swap1\n      dup2\n      mstore\n      0x20\n      add\n      0x00\n      keccak256\n      sload\n        /* \"LABS 18 Aug/Task All 18.sol\":1839:1858  balance[Seller] > 0 */\n      gt\n        /* \"LABS 18 Aug/Task All 18.sol\":1831:1884  require(balance[Seller] > 0, \"Seller Not Registered\") */\n      tag_41\n      jumpi\n      mload(0x40)\n      0x08c379a000000000000000000000000000000000000000000000000000000000\n      dup2\n      mstore\n      0x04\n      add\n      tag_42\n      swap1\n      tag_43\n      jump\t// in\n    tag_42:\n      mload(0x40)\n      dup1\n      swap2\n      sub\n      swap1\n      revert\n    tag_41:\n        /* \"LABS 18 Aug/Task All 18.sol\":1895:1917  return \"PremiumSeller\" */\n      mload(0x40)\n      dup1\n      0x40\n      add\n      0x40\n      mstore\n      dup1\n      0x0d\n      dup2\n      mstore\n      0x20\n      add\n      0x5072656d69756d53656c6c657200000000000000000000000000000000000000\n      dup2\n      mstore\n      pop\n      swap2\n      pop\n      pop\n        /* \"LABS 18 Aug/Task All 18.sol\":1442:1925  function Sell(address Buyer, uint ItemPrice, address Seller) override  external  returns(string memory){... */\n      swap4\n      swap3\n      pop\n      pop\n      pop\n      jump\t// out\n        /* \"LABS 18 Aug/Task All 18.sol\":443:824  function Buy(address Seller, uint Cash) virtual external {... */\n    tag_16:\n        /* \"LABS 18 Aug/Task All 18.sol\":541:542  0 */\n      0x00\n        /* \"LABS 18 Aug/Task All 18.sol\":519:526  balance */\n      dup1\n        /* \"LABS 18 Aug/Task All 18.sol\":519:538  balance[msg.sender] */\n      0x00\n        /* \"LABS 18 Aug/Task All 18.sol\":527:537  msg.sender */\n      caller\n        /* \"LABS 18 Aug/Task All 18.sol\":519:538  balance[msg.sender] */\n      0xffffffffffffffffffffffffffffffffffffffff\n      and\n      0xffffffffffffffffffffffffffffffffffffffff\n      and\n      dup2\n      mstore\n      0x20\n      add\n      swap1\n      dup2\n      mstore\n      0x20\n      add\n      0x00\n      keccak256\n      sload\n        /* \"LABS 18 Aug/Task All 18.sol\":519:542  balance[msg.sender] > 0 */\n      gt\n        /* \"LABS 18 Aug/Task All 18.sol\":511:567  require(balance[msg.sender] > 0, \"Buyer Not Registered\") */\n      tag_45\n      jumpi\n      mload(0x40)\n      0x08c379a000000000000000000000000000000000000000000000000000000000\n      dup2\n      mstore\n      0x04\n      add\n      tag_46\n      swap1\n      tag_40\n      jump\t// in\n    tag_46:\n      mload(0x40)\n      dup1\n      swap2\n      sub\n      swap1\n      revert\n    tag_45:\n        /* \"LABS 18 Aug/Task All 18.sol\":604:605  0 */\n      0x00\n        /* \"LABS 18 Aug/Task All 18.sol\":586:593  balance */\n      dup1\n        /* \"LABS 18 Aug/Task All 18.sol\":586:601  balance[Seller] */\n      0x00\n        /* \"LABS 18 Aug/Task All 18.sol\":594:600  Seller */\n      dup5\n        /* \"LABS 18 Aug/Task All 18.sol\":586:601  balance[Seller] */\n      0xffffffffffffffffffffffffffffffffffffffff\n      and\n      0xffffffffffffffffffffffffffffffffffffffff\n      and\n      dup2\n      mstore\n      0x20\n      add\n      swap1\n      dup2\n      mstore\n      0x20\n      add\n      0x00\n      keccak256\n      sload\n        /* \"LABS 18 Aug/Task All 18.sol\":586:605  balance[Seller] > 0 */\n      gt\n        /* \"LABS 18 Aug/Task All 18.sol\":578:631  require(balance[Seller] > 0, \"Seller Not Registered\") */\n      tag_47\n      jumpi\n      mload(0x40)\n      0x08c379a000000000000000000000000000000000000000000000000000000000\n      dup2\n      mstore\n      0x04\n      add\n      tag_48\n      swap1\n      tag_43\n      jump\t// in\n    tag_48:\n      mload(0x40)\n      dup1\n      swap2\n      sub\n      swap1\n      revert\n    tag_47:\n        /* \"LABS 18 Aug/Task All 18.sol\":658:659  0 */\n      0x00\n        /* \"LABS 18 Aug/Task All 18.sol\":650:654  Cash */\n      dup2\n        /* \"LABS 18 Aug/Task All 18.sol\":650:659  Cash == 0 */\n      eq\n        /* \"LABS 18 Aug/Task All 18.sol\":642:694  require(Cash == 0, \"Cash Must Be Greater Than Zero\") */\n      tag_49\n      jumpi\n      mload(0x40)\n      0x08c379a000000000000000000000000000000000000000000000000000000000\n      dup2\n      mstore\n      0x04\n      add\n      tag_50\n      swap1\n      tag_51\n      jump\t// in\n    tag_50:\n      mload(0x40)\n      dup1\n      swap2\n      sub\n      swap1\n      revert\n    tag_49:\n        /* \"LABS 18 Aug/Task All 18.sol\":728:732  Cash */\n      dup1\n        /* \"LABS 18 Aug/Task All 18.sol\":705:712  balance */\n      0x00\n        /* \"LABS 18 Aug/Task All 18.sol\":705:724  balance[msg.sender] */\n      dup1\n        /* \"LABS 18 Aug/Task All 18.sol\":713:723  msg.sender */\n      caller\n        /* \"LABS 18 Aug/Task All 18.sol\":705:724  balance[msg.sender] */\n      0xffffffffffffffffffffffffffffffffffffffff\n      and\n      0xffffffffffffffffffffffffffffffffffffffff\n      and\n      dup2\n      mstore\n      0x20\n      add\n      swap1\n      dup2\n      mstore\n      0x20\n      add\n      0x00\n      keccak256\n      0x00\n        /* \"LABS 18 Aug/Task All 18.sol\":705:732  balance[msg.sender] -= Cash */\n      dup3\n      dup3\n      sload\n      tag_52\n      swap2\n      swap1\n      tag_35\n      jump\t// in\n    tag_52:\n      swap3\n      pop\n      pop\n      dup2\n      swap1\n      sstore\n      pop\n        /* \"LABS 18 Aug/Task All 18.sol\":762:766  Cash */\n      dup1\n        /* \"LABS 18 Aug/Task All 18.sol\":743:750  balance */\n      0x00\n        /* \"LABS 18 Aug/Task All 18.sol\":743:758  balance[Seller] */\n      dup1\n        /* \"LABS 18 Aug/Task All 18.sol\":751:757  Seller */\n      dup5\n        /* \"LABS 18 Aug/Task All 18.sol\":743:758  balance[Seller] */\n      0xffffffffffffffffffffffffffffffffffffffff\n      and\n      0xffffffffffffffffffffffffffffffffffffffff\n      and\n      dup2\n      mstore\n      0x20\n      add\n      swap1\n      dup2\n      mstore\n      0x20\n      add\n      0x00\n      keccak256\n      0x00\n        /* \"LABS 18 Aug/Task All 18.sol\":743:766  balance[Seller] += Cash */\n      dup3\n      dup3\n      sload\n      tag_53\n      swap2\n      swap1\n      tag_37\n      jump\t// in\n    tag_53:\n      swap3\n      pop\n      pop\n      dup2\n      swap1\n      sstore\n      pop\n        /* \"LABS 18 Aug/Task All 18.sol\":782:816  Purchase(msg.sender, Seller, Cash) */\n      0x22e3ae3a20c49dce14046235895c7a3ffc0a6a5f3577c370177ad45fa619485d\n        /* \"LABS 18 Aug/Task All 18.sol\":791:801  msg.sender */\n      caller\n        /* \"LABS 18 Aug/Task All 18.sol\":803:809  Seller */\n      dup4\n        /* \"LABS 18 Aug/Task All 18.sol\":811:815  Cash */\n      dup4\n        /* \"LABS 18 Aug/Task All 18.sol\":782:816  Purchase(msg.sender, Seller, Cash) */\n      mload(0x40)\n      tag_54\n      swap4\n      swap3\n      swap2\n      swap1\n      tag_55\n      jump\t// in\n    tag_54:\n      mload(0x40)\n      dup1\n      swap2\n      sub\n      swap1\n      log1\n        /* \"LABS 18 Aug/Task All 18.sol\":443:824  function Buy(address Seller, uint Cash) virtual external {... */\n      pop\n      pop\n      jump\t// out\n        /* \"LABS 18 Aug/Task All 18.sol\":118:157  mapping(address => uint) public balance */\n    tag_20:\n      mstore(0x20, 0x00)\n      dup1\n      0x00\n      mstore\n      keccak256(0x00, 0x40)\n      0x00\n      swap2\n      pop\n      swap1\n      pop\n      sload\n      dup2\n      jump\t// out\n        /* \"LABS 18 Aug/Task All 18.sol\":271:421  function Register(address) external {... */\n    tag_25:\n        /* \"LABS 18 Aug/Task All 18.sol\":351:352  0 */\n      0x00\n        /* \"LABS 18 Aug/Task All 18.sol\":328:335  balance */\n      dup1\n        /* \"LABS 18 Aug/Task All 18.sol\":328:347  balance[msg.sender] */\n      0x00\n        /* \"LABS 18 Aug/Task All 18.sol\":336:346  msg.sender */\n      caller\n        /* \"LABS 18 Aug/Task All 18.sol\":328:347  balance[msg.sender] */\n      0xffffffffffffffffffffffffffffffffffffffff\n      and\n      0xffffffffffffffffffffffffffffffffffffffff\n      and\n      dup2\n      mstore\n      0x20\n      add\n      swap1\n      dup2\n      mstore\n      0x20\n      add\n      0x00\n      keccak256\n      sload\n        /* \"LABS 18 Aug/Task All 18.sol\":328:352  balance[msg.sender] == 0 */\n      eq\n        /* \"LABS 18 Aug/Task All 18.sol\":320:375  require(balance[msg.sender] == 0, \"Not Enough Balance\") */\n      tag_57\n      jumpi\n      mload(0x40)\n      0x08c379a000000000000000000000000000000000000000000000000000000000\n      dup2\n      mstore\n      0x04\n      add\n      tag_58\n      swap1\n      tag_59\n      jump\t// in\n    tag_58:\n      mload(0x40)\n      dup1\n      swap2\n      sub\n      swap1\n      revert\n    tag_57:\n        /* \"LABS 18 Aug/Task All 18.sol\":408:413  10000 */\n      0x2710\n        /* \"LABS 18 Aug/Task All 18.sol\":386:393  balance */\n      0x00\n        /* \"LABS 18 Aug/Task All 18.sol\":386:405  balance[msg.sender] */\n      dup1\n        /* \"LABS 18 Aug/Task All 18.sol\":394:404  msg.sender */\n      caller\n        /* \"LABS 18 Aug/Task All 18.sol\":386:405  balance[msg.sender] */\n      0xffffffffffffffffffffffffffffffffffffffff\n      and\n      0xffffffffffffffffffffffffffffffffffffffff\n      and\n      dup2\n      mstore\n      0x20\n      add\n      swap1\n      dup2\n      mstore\n      0x20\n      add\n      0x00\n      keccak256\n        /* \"LABS 18 Aug/Task All 18.sol\":386:413  balance[msg.sender] = 10000 */\n      dup2\n      swap1\n      sstore\n      pop\n        /* \"LABS 18 Aug/Task All 18.sol\":271:421  function Register(address) external {... */\n      pop\n      jump\t// out\n        /* \"#utility.yul\":88:205   */\n    tag_61:\n        /* \"#utility.yul\":197:198   */\n      0x00\n        /* \"#utility.yul\":194:195   */\n      dup1\n        /* \"#utility.yul\":187:199   */\n      revert\n        /* \"#utility.yul\":334:460   */\n    tag_63:\n        /* \"#utility.yul\":371:378   */\n      0x00\n        /* \"#utility.yul\":411:453   */\n      0xffffffffffffffffffffffffffffffffffffffff\n        /* \"#utility.yul\":404:409   */\n      dup3\n        /* \"#utility.yul\":400:454   */\n      and\n        /* \"#utility.yul\":389:454   */\n      swap1\n      pop\n        /* \"#utility.yul\":334:460   */\n      swap2\n      swap1\n      pop\n      jump\t// out\n        /* \"#utility.yul\":466:562   */\n    tag_64:\n        /* \"#utility.yul\":503:510   */\n      0x00\n        /* \"#utility.yul\":532:556   */\n      tag_95\n        /* \"#utility.yul\":550:555   */\n      dup3\n        /* \"#utility.yul\":532:556   */\n      tag_63\n      jump\t// in\n    tag_95:\n        /* \"#utility.yul\":521:556   */\n      swap1\n      pop\n        /* \"#utility.yul\":466:562   */\n      swap2\n      swap1\n      pop\n      jump\t// out\n        /* \"#utility.yul\":568:690   */\n    tag_65:\n        /* \"#utility.yul\":641:665   */\n      tag_97\n        /* \"#utility.yul\":659:664   */\n      dup2\n        /* \"#utility.yul\":641:665   */\n      tag_64\n      jump\t// in\n    tag_97:\n        /* \"#utility.yul\":634:639   */\n      dup2\n        /* \"#utility.yul\":631:666   */\n      eq\n        /* \"#utility.yul\":621:684   */\n      tag_98\n      jumpi\n        /* \"#utility.yul\":680:681   */\n      0x00\n        /* \"#utility.yul\":677:678   */\n      dup1\n        /* \"#utility.yul\":670:682   */\n      revert\n        /* \"#utility.yul\":621:684   */\n    tag_98:\n        /* \"#utility.yul\":568:690   */\n      pop\n      jump\t// out\n        /* \"#utility.yul\":696:835   */\n    tag_66:\n        /* \"#utility.yul\":742:747   */\n      0x00\n        /* \"#utility.yul\":780:786   */\n      dup2\n        /* \"#utility.yul\":767:787   */\n      calldataload\n        /* \"#utility.yul\":758:787   */\n      swap1\n      pop\n        /* \"#utility.yul\":796:829   */\n      tag_100\n        /* \"#utility.yul\":823:828   */\n      dup2\n        /* \"#utility.yul\":796:829   */\n      tag_65\n      jump\t// in\n    tag_100:\n        /* \"#utility.yul\":696:835   */\n      swap3\n      swap2\n      pop\n      pop\n      jump\t// out\n        /* \"#utility.yul\":841:918   */\n    tag_67:\n        /* \"#utility.yul\":878:885   */\n      0x00\n        /* \"#utility.yul\":907:912   */\n      dup2\n        /* \"#utility.yul\":896:912   */\n      swap1\n      pop\n        /* \"#utility.yul\":841:918   */\n      swap2\n      swap1\n      pop\n      jump\t// out\n        /* \"#utility.yul\":924:1046   */\n    tag_68:\n        /* \"#utility.yul\":997:1021   */\n      tag_103\n        /* \"#utility.yul\":1015:1020   */\n      dup2\n        /* \"#utility.yul\":997:1021   */\n      tag_67\n      jump\t// in\n    tag_103:\n        /* \"#utility.yul\":990:995   */\n      dup2\n        /* \"#utility.yul\":987:1022   */\n      eq\n        /* \"#utility.yul\":977:1040   */\n      tag_104\n      jumpi\n        /* \"#utility.yul\":1036:1037   */\n      0x00\n        /* \"#utility.yul\":1033:1034   */\n      dup1\n        /* \"#utility.yul\":1026:1038   */\n      revert\n        /* \"#utility.yul\":977:1040   */\n    tag_104:\n        /* \"#utility.yul\":924:1046   */\n      pop\n      jump\t// out\n        /* \"#utility.yul\":1052:1191   */\n    tag_69:\n        /* \"#utility.yul\":1098:1103   */\n      0x00\n        /* \"#utility.yul\":1136:1142   */\n      dup2\n        /* \"#utility.yul\":1123:1143   */\n      calldataload\n        /* \"#utility.yul\":1114:1143   */\n      swap1\n      pop\n        /* \"#utility.yul\":1152:1185   */\n      tag_106\n        /* \"#utility.yul\":1179:1184   */\n      dup2\n        /* \"#utility.yul\":1152:1185   */\n      tag_68\n      jump\t// in\n    tag_106:\n        /* \"#utility.yul\":1052:1191   */\n      swap3\n      swap2\n      pop\n      pop\n      jump\t// out\n        /* \"#utility.yul\":1197:1816   */\n    tag_9:\n        /* \"#utility.yul\":1274:1280   */\n      0x00\n        /* \"#utility.yul\":1282:1288   */\n      dup1\n        /* \"#utility.yul\":1290:1296   */\n      0x00\n        /* \"#utility.yul\":1339:1341   */\n      0x60\n        /* \"#utility.yul\":1327:1336   */\n      dup5\n        /* \"#utility.yul\":1318:1325   */\n      dup7\n        /* \"#utility.yul\":1314:1337   */\n      sub\n        /* \"#utility.yul\":1310:1342   */\n      slt\n        /* \"#utility.yul\":1307:1426   */\n      iszero\n      tag_108\n      jumpi\n        /* \"#utility.yul\":1345:1424   */\n      tag_109\n      tag_61\n      jump\t// in\n    tag_109:\n        /* \"#utility.yul\":1307:1426   */\n    tag_108:\n        /* \"#utility.yul\":1465:1466   */\n      0x00\n        /* \"#utility.yul\":1490:1543   */\n      tag_110\n        /* \"#utility.yul\":1535:1542   */\n      dup7\n        /* \"#utility.yul\":1526:1532   */\n      dup3\n        /* \"#utility.yul\":1515:1524   */\n      dup8\n        /* \"#utility.yul\":1511:1533   */\n      add\n        /* \"#utility.yul\":1490:1543   */\n      tag_66\n      jump\t// in\n    tag_110:\n        /* \"#utility.yul\":1480:1543   */\n      swap4\n      pop\n        /* \"#utility.yul\":1436:1553   */\n      pop\n        /* \"#utility.yul\":1592:1594   */\n      0x20\n        /* \"#utility.yul\":1618:1671   */\n      tag_111\n        /* \"#utility.yul\":1663:1670   */\n      dup7\n        /* \"#utility.yul\":1654:1660   */\n      dup3\n        /* \"#utility.yul\":1643:1652   */\n      dup8\n        /* \"#utility.yul\":1639:1661   */\n      add\n        /* \"#utility.yul\":1618:1671   */\n      tag_69\n      jump\t// in\n    tag_111:\n        /* \"#utility.yul\":1608:1671   */\n      swap3\n      pop\n        /* \"#utility.yul\":1563:1681   */\n      pop\n        /* \"#utility.yul\":1720:1722   */\n      0x40\n        /* \"#utility.yul\":1746:1799   */\n      tag_112\n        /* \"#utility.yul\":1791:1798   */\n      dup7\n        /* \"#utility.yul\":1782:1788   */\n      dup3\n        /* \"#utility.yul\":1771:1780   */\n      dup8\n        /* \"#utility.yul\":1767:1789   */\n      add\n        /* \"#utility.yul\":1746:1799   */\n      tag_66\n      jump\t// in\n    tag_112:\n        /* \"#utility.yul\":1736:1799   */\n      swap2\n      pop\n        /* \"#utility.yul\":1691:1809   */\n      pop\n        /* \"#utility.yul\":1197:1816   */\n      swap3\n      pop\n      swap3\n      pop\n      swap3\n      jump\t// out\n        /* \"#utility.yul\":1822:1921   */\n    tag_70:\n        /* \"#utility.yul\":1874:1880   */\n      0x00\n        /* \"#utility.yul\":1908:1913   */\n      dup2\n        /* \"#utility.yul\":1902:1914   */\n      mload\n        /* \"#utility.yul\":1892:1914   */\n      swap1\n      pop\n        /* \"#utility.yul\":1822:1921   */\n      swap2\n      swap1\n      pop\n      jump\t// out\n        /* \"#utility.yul\":1927:2096   */\n    tag_71:\n        /* \"#utility.yul\":2011:2022   */\n      0x00\n        /* \"#utility.yul\":2045:2051   */\n      dup3\n        /* \"#utility.yul\":2040:2043   */\n      dup3\n        /* \"#utility.yul\":2033:2052   */\n      mstore\n        /* \"#utility.yul\":2085:2089   */\n      0x20\n        /* \"#utility.yul\":2080:2083   */\n      dup3\n        /* \"#utility.yul\":2076:2090   */\n      add\n        /* \"#utility.yul\":2061:2090   */\n      swap1\n      pop\n        /* \"#utility.yul\":1927:2096   */\n      swap3\n      swap2\n      pop\n      pop\n      jump\t// out\n        /* \"#utility.yul\":2102:2348   */\n    tag_72:\n        /* \"#utility.yul\":2183:2184   */\n      0x00\n        /* \"#utility.yul\":2193:2306   */\n    tag_116:\n        /* \"#utility.yul\":2207:2213   */\n      dup4\n        /* \"#utility.yul\":2204:2205   */\n      dup2\n        /* \"#utility.yul\":2201:2214   */\n      lt\n        /* \"#utility.yul\":2193:2306   */\n      iszero\n      tag_118\n      jumpi\n        /* \"#utility.yul\":2292:2293   */\n      dup1\n        /* \"#utility.yul\":2287:2290   */\n      dup3\n        /* \"#utility.yul\":2283:2294   */\n      add\n        /* \"#utility.yul\":2277:2295   */\n      mload\n        /* \"#utility.yul\":2273:2274   */\n      dup2\n        /* \"#utility.yul\":2268:2271   */\n      dup5\n        /* \"#utility.yul\":2264:2275   */\n      add\n        /* \"#utility.yul\":2257:2296   */\n      mstore\n        /* \"#utility.yul\":2229:2231   */\n      0x20\n        /* \"#utility.yul\":2226:2227   */\n      dup2\n        /* \"#utility.yul\":2222:2232   */\n      add\n        /* \"#utility.yul\":2217:2232   */\n      swap1\n      pop\n        /* \"#utility.yul\":2193:2306   */\n      jump(tag_116)\n    tag_118:\n        /* \"#utility.yul\":2340:2341   */\n      0x00\n        /* \"#utility.yul\":2331:2337   */\n      dup5\n        /* \"#utility.yul\":2326:2329   */\n      dup5\n        /* \"#utility.yul\":2322:2338   */\n      add\n        /* \"#utility.yul\":2315:2342   */\n      mstore\n        /* \"#utility.yul\":2164:2348   */\n      pop\n        /* \"#utility.yul\":2102:2348   */\n      pop\n      pop\n      pop\n      jump\t// out\n        /* \"#utility.yul\":2354:2456   */\n    tag_73:\n        /* \"#utility.yul\":2395:2401   */\n      0x00\n        /* \"#utility.yul\":2446:2448   */\n      0x1f\n        /* \"#utility.yul\":2442:2449   */\n      not\n        /* \"#utility.yul\":2437:2439   */\n      0x1f\n        /* \"#utility.yul\":2430:2435   */\n      dup4\n        /* \"#utility.yul\":2426:2440   */\n      add\n        /* \"#utility.yul\":2422:2450   */\n      and\n        /* \"#utility.yul\":2412:2450   */\n      swap1\n      pop\n        /* \"#utility.yul\":2354:2456   */\n      swap2\n      swap1\n      pop\n      jump\t// out\n        /* \"#utility.yul\":2462:2839   */\n    tag_74:\n        /* \"#utility.yul\":2550:2553   */\n      0x00\n        /* \"#utility.yul\":2578:2617   */\n      tag_121\n        /* \"#utility.yul\":2611:2616   */\n      dup3\n        /* \"#utility.yul\":2578:2617   */\n      tag_70\n      jump\t// in\n    tag_121:\n        /* \"#utility.yul\":2633:2704   */\n      tag_122\n        /* \"#utility.yul\":2697:2703   */\n      dup2\n        /* \"#utility.yul\":2692:2695   */\n      dup6\n        /* \"#utility.yul\":2633:2704   */\n      tag_71\n      jump\t// in\n    tag_122:\n        /* \"#utility.yul\":2626:2704   */\n      swap4\n      pop\n        /* \"#utility.yul\":2713:2778   */\n      tag_123\n        /* \"#utility.yul\":2771:2777   */\n      dup2\n        /* \"#utility.yul\":2766:2769   */\n      dup6\n        /* \"#utility.yul\":2759:2763   */\n      0x20\n        /* \"#utility.yul\":2752:2757   */\n      dup7\n        /* \"#utility.yul\":2748:2764   */\n      add\n        /* \"#utility.yul\":2713:2778   */\n      tag_72\n      jump\t// in\n    tag_123:\n        /* \"#utility.yul\":2803:2832   */\n      tag_124\n        /* \"#utility.yul\":2825:2831   */\n      dup2\n        /* \"#utility.yul\":2803:2832   */\n      tag_73\n      jump\t// in\n    tag_124:\n        /* \"#utility.yul\":2798:2801   */\n      dup5\n        /* \"#utility.yul\":2794:2833   */\n      add\n        /* \"#utility.yul\":2787:2833   */\n      swap2\n      pop\n        /* \"#utility.yul\":2554:2839   */\n      pop\n        /* \"#utility.yul\":2462:2839   */\n      swap3\n      swap2\n      pop\n      pop\n      jump\t// out\n        /* \"#utility.yul\":2845:3158   */\n    tag_12:\n        /* \"#utility.yul\":2958:2962   */\n      0x00\n        /* \"#utility.yul\":2996:2998   */\n      0x20\n        /* \"#utility.yul\":2985:2994   */\n      dup3\n        /* \"#utility.yul\":2981:2999   */\n      add\n        /* \"#utility.yul\":2973:2999   */\n      swap1\n      pop\n        /* \"#utility.yul\":3045:3054   */\n      dup2\n        /* \"#utility.yul\":3039:3043   */\n      dup2\n        /* \"#utility.yul\":3035:3055   */\n      sub\n        /* \"#utility.yul\":3031:3032   */\n      0x00\n        /* \"#utility.yul\":3020:3029   */\n      dup4\n        /* \"#utility.yul\":3016:3033   */\n      add\n        /* \"#utility.yul\":3009:3056   */\n      mstore\n        /* \"#utility.yul\":3073:3151   */\n      tag_126\n        /* \"#utility.yul\":3146:3150   */\n      dup2\n        /* \"#utility.yul\":3137:3143   */\n      dup5\n        /* \"#utility.yul\":3073:3151   */\n      tag_74\n      jump\t// in\n    tag_126:\n        /* \"#utility.yul\":3065:3151   */\n      swap1\n      pop\n        /* \"#utility.yul\":2845:3158   */\n      swap3\n      swap2\n      pop\n      pop\n      jump\t// out\n        /* \"#utility.yul\":3164:3638   */\n    tag_15:\n        /* \"#utility.yul\":3232:3238   */\n      0x00\n        /* \"#utility.yul\":3240:3246   */\n      dup1\n        /* \"#utility.yul\":3289:3291   */\n      0x40\n        /* \"#utility.yul\":3277:3286   */\n      dup4\n        /* \"#utility.yul\":3268:3275   */\n      dup6\n        /* \"#utility.yul\":3264:3287   */\n      sub\n        /* \"#utility.yul\":3260:3292   */\n      slt\n        /* \"#utility.yul\":3257:3376   */\n      iszero\n      tag_128\n      jumpi\n        /* \"#utility.yul\":3295:3374   */\n      tag_129\n      tag_61\n      jump\t// in\n    tag_129:\n        /* \"#utility.yul\":3257:3376   */\n    tag_128:\n        /* \"#utility.yul\":3415:3416   */\n      0x00\n        /* \"#utility.yul\":3440:3493   */\n      tag_130\n        /* \"#utility.yul\":3485:3492   */\n      dup6\n        /* \"#utility.yul\":3476:3482   */\n      dup3\n        /* \"#utility.yul\":3465:3474   */\n      dup7\n        /* \"#utility.yul\":3461:3483   */\n      add\n        /* \"#utility.yul\":3440:3493   */\n      tag_66\n      jump\t// in\n    tag_130:\n        /* \"#utility.yul\":3430:3493   */\n      swap3\n      pop\n        /* \"#utility.yul\":3386:3503   */\n      pop\n        /* \"#utility.yul\":3542:3544   */\n      0x20\n        /* \"#utility.yul\":3568:3621   */\n      tag_131\n        /* \"#utility.yul\":3613:3620   */\n      dup6\n        /* \"#utility.yul\":3604:3610   */\n      dup3\n        /* \"#utility.yul\":3593:3602   */\n      dup7\n        /* \"#utility.yul\":3589:3611   */\n      add\n        /* \"#utility.yul\":3568:3621   */\n      tag_69\n      jump\t// in\n    tag_131:\n        /* \"#utility.yul\":3558:3621   */\n      swap2\n      pop\n        /* \"#utility.yul\":3513:3631   */\n      pop\n        /* \"#utility.yul\":3164:3638   */\n      swap3\n      pop\n      swap3\n      swap1\n      pop\n      jump\t// out\n        /* \"#utility.yul\":3644:3973   */\n    tag_19:\n        /* \"#utility.yul\":3703:3709   */\n      0x00\n        /* \"#utility.yul\":3752:3754   */\n      0x20\n        /* \"#utility.yul\":3740:3749   */\n      dup3\n        /* \"#utility.yul\":3731:3738   */\n      dup5\n        /* \"#utility.yul\":3727:3750   */\n      sub\n        /* \"#utility.yul\":3723:3755   */\n      slt\n        /* \"#utility.yul\":3720:3839   */\n      iszero\n      tag_133\n      jumpi\n        /* \"#utility.yul\":3758:3837   */\n      tag_134\n      tag_61\n      jump\t// in\n    tag_134:\n        /* \"#utility.yul\":3720:3839   */\n    tag_133:\n        /* \"#utility.yul\":3878:3879   */\n      0x00\n        /* \"#utility.yul\":3903:3956   */\n      tag_135\n        /* \"#utility.yul\":3948:3955   */\n      dup5\n        /* \"#utility.yul\":3939:3945   */\n      dup3\n        /* \"#utility.yul\":3928:3937   */\n      dup6\n        /* \"#utility.yul\":3924:3946   */\n      add\n        /* \"#utility.yul\":3903:3956   */\n      tag_66\n      jump\t// in\n    tag_135:\n        /* \"#utility.yul\":3893:3956   */\n      swap2\n      pop\n        /* \"#utility.yul\":3849:3966   */\n      pop\n        /* \"#utility.yul\":3644:3973   */\n      swap3\n      swap2\n      pop\n      pop\n      jump\t// out\n        /* \"#utility.yul\":3979:4097   */\n    tag_75:\n        /* \"#utility.yul\":4066:4090   */\n      tag_137\n        /* \"#utility.yul\":4084:4089   */\n      dup2\n        /* \"#utility.yul\":4066:4090   */\n      tag_67\n      jump\t// in\n    tag_137:\n        /* \"#utility.yul\":4061:4064   */\n      dup3\n        /* \"#utility.yul\":4054:4091   */\n      mstore\n        /* \"#utility.yul\":3979:4097   */\n      pop\n      pop\n      jump\t// out\n        /* \"#utility.yul\":4103:4325   */\n    tag_22:\n        /* \"#utility.yul\":4196:4200   */\n      0x00\n        /* \"#utility.yul\":4234:4236   */\n      0x20\n        /* \"#utility.yul\":4223:4232   */\n      dup3\n        /* \"#utility.yul\":4219:4237   */\n      add\n        /* \"#utility.yul\":4211:4237   */\n      swap1\n      pop\n        /* \"#utility.yul\":4247:4318   */\n      tag_139\n        /* \"#utility.yul\":4315:4316   */\n      0x00\n        /* \"#utility.yul\":4304:4313   */\n      dup4\n        /* \"#utility.yul\":4300:4317   */\n      add\n        /* \"#utility.yul\":4291:4297   */\n      dup5\n        /* \"#utility.yul\":4247:4318   */\n      tag_75\n      jump\t// in\n    tag_139:\n        /* \"#utility.yul\":4103:4325   */\n      swap3\n      swap2\n      pop\n      pop\n      jump\t// out\n        /* \"#utility.yul\":4331:4513   */\n    tag_76:\n        /* \"#utility.yul\":4471:4505   */\n      0x42616c616e6365204f662053656c6c65722043616e6e6f74204265205a65726f\n        /* \"#utility.yul\":4467:4468   */\n      0x00\n        /* \"#utility.yul\":4459:4465   */\n      dup3\n        /* \"#utility.yul\":4455:4469   */\n      add\n        /* \"#utility.yul\":4448:4506   */\n      mstore\n        /* \"#utility.yul\":4331:4513   */\n      pop\n      jump\t// out\n        /* \"#utility.yul\":4519:4885   */\n    tag_77:\n        /* \"#utility.yul\":4661:4664   */\n      0x00\n        /* \"#utility.yul\":4682:4749   */\n      tag_142\n        /* \"#utility.yul\":4746:4748   */\n      0x20\n        /* \"#utility.yul\":4741:4744   */\n      dup4\n        /* \"#utility.yul\":4682:4749   */\n      tag_71\n      jump\t// in\n    tag_142:\n        /* \"#utility.yul\":4675:4749   */\n      swap2\n      pop\n        /* \"#utility.yul\":4758:4851   */\n      tag_143\n        /* \"#utility.yul\":4847:4850   */\n      dup3\n        /* \"#utility.yul\":4758:4851   */\n      tag_76\n      jump\t// in\n    tag_143:\n        /* \"#utility.yul\":4876:4878   */\n      0x20\n        /* \"#utility.yul\":4871:4874   */\n      dup3\n        /* \"#utility.yul\":4867:4879   */\n      add\n        /* \"#utility.yul\":4860:4879   */\n      swap1\n      pop\n        /* \"#utility.yul\":4519:4885   */\n      swap2\n      swap1\n      pop\n      jump\t// out\n        /* \"#utility.yul\":4891:5310   */\n    tag_29:\n        /* \"#utility.yul\":5057:5061   */\n      0x00\n        /* \"#utility.yul\":5095:5097   */\n      0x20\n        /* \"#utility.yul\":5084:5093   */\n      dup3\n        /* \"#utility.yul\":5080:5098   */\n      add\n        /* \"#utility.yul\":5072:5098   */\n      swap1\n      pop\n        /* \"#utility.yul\":5144:5153   */\n      dup2\n        /* \"#utility.yul\":5138:5142   */\n      dup2\n        /* \"#utility.yul\":5134:5154   */\n      sub\n        /* \"#utility.yul\":5130:5131   */\n      0x00\n        /* \"#utility.yul\":5119:5128   */\n      dup4\n        /* \"#utility.yul\":5115:5132   */\n      add\n        /* \"#utility.yul\":5108:5155   */\n      mstore\n        /* \"#utility.yul\":5172:5303   */\n      tag_145\n        /* \"#utility.yul\":5298:5302   */\n      dup2\n        /* \"#utility.yul\":5172:5303   */\n      tag_77\n      jump\t// in\n    tag_145:\n        /* \"#utility.yul\":5164:5303   */\n      swap1\n      pop\n        /* \"#utility.yul\":4891:5310   */\n      swap2\n      swap1\n      pop\n      jump\t// out\n        /* \"#utility.yul\":5316:5496   */\n    tag_78:\n        /* \"#utility.yul\":5364:5441   */\n      0x4e487b7100000000000000000000000000000000000000000000000000000000\n        /* \"#utility.yul\":5361:5362   */\n      0x00\n        /* \"#utility.yul\":5354:5442   */\n      mstore\n        /* \"#utility.yul\":5461:5465   */\n      0x11\n        /* \"#utility.yul\":5458:5459   */\n      0x04\n        /* \"#utility.yul\":5451:5466   */\n      mstore\n        /* \"#utility.yul\":5485:5489   */\n      0x24\n        /* \"#utility.yul\":5482:5483   */\n      0x00\n        /* \"#utility.yul\":5475:5490   */\n      revert\n        /* \"#utility.yul\":5502:5912   */\n    tag_31:\n        /* \"#utility.yul\":5542:5549   */\n      0x00\n        /* \"#utility.yul\":5565:5585   */\n      tag_148\n        /* \"#utility.yul\":5583:5584   */\n      dup3\n        /* \"#utility.yul\":5565:5585   */\n      tag_67\n      jump\t// in\n    tag_148:\n        /* \"#utility.yul\":5560:5585   */\n      swap2\n      pop\n        /* \"#utility.yul\":5599:5619   */\n      tag_149\n        /* \"#utility.yul\":5617:5618   */\n      dup4\n        /* \"#utility.yul\":5599:5619   */\n      tag_67\n      jump\t// in\n    tag_149:\n        /* \"#utility.yul\":5594:5619   */\n      swap3\n      pop\n        /* \"#utility.yul\":5654:5655   */\n      dup3\n        /* \"#utility.yul\":5651:5652   */\n      dup3\n        /* \"#utility.yul\":5647:5656   */\n      mul\n        /* \"#utility.yul\":5676:5706   */\n      tag_150\n        /* \"#utility.yul\":5694:5705   */\n      dup2\n        /* \"#utility.yul\":5676:5706   */\n      tag_67\n      jump\t// in\n    tag_150:\n        /* \"#utility.yul\":5665:5706   */\n      swap2\n      pop\n        /* \"#utility.yul\":5855:5856   */\n      dup3\n        /* \"#utility.yul\":5846:5853   */\n      dup3\n        /* \"#utility.yul\":5842:5857   */\n      div\n        /* \"#utility.yul\":5839:5840   */\n      dup5\n        /* \"#utility.yul\":5836:5858   */\n      eq\n        /* \"#utility.yul\":5816:5817   */\n      dup4\n        /* \"#utility.yul\":5809:5818   */\n      iszero\n        /* \"#utility.yul\":5789:5872   */\n      or\n        /* \"#utility.yul\":5766:5905   */\n      tag_151\n      jumpi\n        /* \"#utility.yul\":5885:5903   */\n      tag_152\n      tag_78\n      jump\t// in\n    tag_152:\n        /* \"#utility.yul\":5766:5905   */\n    tag_151:\n        /* \"#utility.yul\":5550:5912   */\n      pop\n        /* \"#utility.yul\":5502:5912   */\n      swap3\n      swap2\n      pop\n      pop\n      jump\t// out\n        /* \"#utility.yul\":5918:6098   */\n    tag_79:\n        /* \"#utility.yul\":5966:6043   */\n      0x4e487b7100000000000000000000000000000000000000000000000000000000\n        /* \"#utility.yul\":5963:5964   */\n      0x00\n        /* \"#utility.yul\":5956:6044   */\n      mstore\n        /* \"#utility.yul\":6063:6067   */\n      0x12\n        /* \"#utility.yul\":6060:6061   */\n      0x04\n        /* \"#utility.yul\":6053:6068   */\n      mstore\n        /* \"#utility.yul\":6087:6091   */\n      0x24\n        /* \"#utility.yul\":6084:6085   */\n      0x00\n        /* \"#utility.yul\":6077:6092   */\n      revert\n        /* \"#utility.yul\":6104:6289   */\n    tag_33:\n        /* \"#utility.yul\":6144:6145   */\n      0x00\n        /* \"#utility.yul\":6161:6181   */\n      tag_155\n        /* \"#utility.yul\":6179:6180   */\n      dup3\n        /* \"#utility.yul\":6161:6181   */\n      tag_67\n      jump\t// in\n    tag_155:\n        /* \"#utility.yul\":6156:6181   */\n      swap2\n      pop\n        /* \"#utility.yul\":6195:6215   */\n      tag_156\n        /* \"#utility.yul\":6213:6214   */\n      dup4\n        /* \"#utility.yul\":6195:6215   */\n      tag_67\n      jump\t// in\n    tag_156:\n        /* \"#utility.yul\":6190:6215   */\n      swap3\n      pop\n        /* \"#utility.yul\":6234:6235   */\n      dup3\n        /* \"#utility.yul\":6224:6259   */\n      tag_157\n      jumpi\n        /* \"#utility.yul\":6239:6257   */\n      tag_158\n      tag_79\n      jump\t// in\n    tag_158:\n        /* \"#utility.yul\":6224:6259   */\n    tag_157:\n        /* \"#utility.yul\":6281:6282   */\n      dup3\n        /* \"#utility.yul\":6278:6279   */\n      dup3\n        /* \"#utility.yul\":6274:6283   */\n      div\n        /* \"#utility.yul\":6269:6283   */\n      swap1\n      pop\n        /* \"#utility.yul\":6104:6289   */\n      swap3\n      swap2\n      pop\n      pop\n      jump\t// out\n        /* \"#utility.yul\":6295:6489   */\n    tag_35:\n        /* \"#utility.yul\":6335:6339   */\n      0x00\n        /* \"#utility.yul\":6355:6375   */\n      tag_160\n        /* \"#utility.yul\":6373:6374   */\n      dup3\n        /* \"#utility.yul\":6355:6375   */\n      tag_67\n      jump\t// in\n    tag_160:\n        /* \"#utility.yul\":6350:6375   */\n      swap2\n      pop\n        /* \"#utility.yul\":6389:6409   */\n      tag_161\n        /* \"#utility.yul\":6407:6408   */\n      dup4\n        /* \"#utility.yul\":6389:6409   */\n      tag_67\n      jump\t// in\n    tag_161:\n        /* \"#utility.yul\":6384:6409   */\n      swap3\n      pop\n        /* \"#utility.yul\":6433:6434   */\n      dup3\n        /* \"#utility.yul\":6430:6431   */\n      dup3\n        /* \"#utility.yul\":6426:6435   */\n      sub\n        /* \"#utility.yul\":6418:6435   */\n      swap1\n      pop\n        /* \"#utility.yul\":6457:6458   */\n      dup2\n        /* \"#utility.yul\":6451:6455   */\n      dup2\n        /* \"#utility.yul\":6448:6459   */\n      gt\n        /* \"#utility.yul\":6445:6482   */\n      iszero\n      tag_162\n      jumpi\n        /* \"#utility.yul\":6462:6480   */\n      tag_163\n      tag_78\n      jump\t// in\n    tag_163:\n        /* \"#utility.yul\":6445:6482   */\n    tag_162:\n        /* \"#utility.yul\":6295:6489   */\n      swap3\n      swap2\n      pop\n      pop\n      jump\t// out\n        /* \"#utility.yul\":6495:6686   */\n    tag_37:\n        /* \"#utility.yul\":6535:6538   */\n      0x00\n        /* \"#utility.yul\":6554:6574   */\n      tag_165\n        /* \"#utility.yul\":6572:6573   */\n      dup3\n        /* \"#utility.yul\":6554:6574   */\n      tag_67\n      jump\t// in\n    tag_165:\n        /* \"#utility.yul\":6549:6574   */\n      swap2\n      pop\n        /* \"#utility.yul\":6588:6608   */\n      tag_166\n        /* \"#utility.yul\":6606:6607   */\n      dup4\n        /* \"#utility.yul\":6588:6608   */\n      tag_67\n      jump\t// in\n    tag_166:\n        /* \"#utility.yul\":6583:6608   */\n      swap3\n      pop\n        /* \"#utility.yul\":6631:6632   */\n      dup3\n        /* \"#utility.yul\":6628:6629   */\n      dup3\n        /* \"#utility.yul\":6624:6633   */\n      add\n        /* \"#utility.yul\":6617:6633   */\n      swap1\n      pop\n        /* \"#utility.yul\":6652:6655   */\n      dup1\n        /* \"#utility.yul\":6649:6650   */\n      dup3\n        /* \"#utility.yul\":6646:6656   */\n      gt\n        /* \"#utility.yul\":6643:6679   */\n      iszero\n      tag_167\n      jumpi\n        /* \"#utility.yul\":6659:6677   */\n      tag_168\n      tag_78\n      jump\t// in\n    tag_168:\n        /* \"#utility.yul\":6643:6679   */\n    tag_167:\n        /* \"#utility.yul\":6495:6686   */\n      swap3\n      swap2\n      pop\n      pop\n      jump\t// out\n        /* \"#utility.yul\":6692:6862   */\n    tag_80:\n        /* \"#utility.yul\":6832:6854   */\n      0x4275796572204e6f742052656769737465726564000000000000000000000000\n        /* \"#utility.yul\":6828:6829   */\n      0x00\n        /* \"#utility.yul\":6820:6826   */\n      dup3\n        /* \"#utility.yul\":6816:6830   */\n      add\n        /* \"#utility.yul\":6809:6855   */\n      mstore\n        /* \"#utility.yul\":6692:6862   */\n      pop\n      jump\t// out\n        /* \"#utility.yul\":6868:7234   */\n    tag_81:\n        /* \"#utility.yul\":7010:7013   */\n      0x00\n        /* \"#utility.yul\":7031:7098   */\n      tag_171\n        /* \"#utility.yul\":7095:7097   */\n      0x14\n        /* \"#utility.yul\":7090:7093   */\n      dup4\n        /* \"#utility.yul\":7031:7098   */\n      tag_71\n      jump\t// in\n    tag_171:\n        /* \"#utility.yul\":7024:7098   */\n      swap2\n      pop\n        /* \"#utility.yul\":7107:7200   */\n      tag_172\n        /* \"#utility.yul\":7196:7199   */\n      dup3\n        /* \"#utility.yul\":7107:7200   */\n      tag_80\n      jump\t// in\n    tag_172:\n        /* \"#utility.yul\":7225:7227   */\n      0x20\n        /* \"#utility.yul\":7220:7223   */\n      dup3\n        /* \"#utility.yul\":7216:7228   */\n      add\n        /* \"#utility.yul\":7209:7228   */\n      swap1\n      pop\n        /* \"#utility.yul\":6868:7234   */\n      swap2\n      swap1\n      pop\n      jump\t// out\n        /* \"#utility.yul\":7240:7659   */\n    tag_40:\n        /* \"#utility.yul\":7406:7410   */\n      0x00\n        /* \"#utility.yul\":7444:7446   */\n      0x20\n        /* \"#utility.yul\":7433:7442   */\n      dup3\n        /* \"#utility.yul\":7429:7447   */\n      add\n        /* \"#utility.yul\":7421:7447   */\n      swap1\n      pop\n        /* \"#utility.yul\":7493:7502   */\n      dup2\n        /* \"#utility.yul\":7487:7491   */\n      dup2\n        /* \"#utility.yul\":7483:7503   */\n      sub\n        /* \"#utility.yul\":7479:7480   */\n      0x00\n        /* \"#utility.yul\":7468:7477   */\n      dup4\n        /* \"#utility.yul\":7464:7481   */\n      add\n        /* \"#utility.yul\":7457:7504   */\n      mstore\n        /* \"#utility.yul\":7521:7652   */\n      tag_174\n        /* \"#utility.yul\":7647:7651   */\n      dup2\n        /* \"#utility.yul\":7521:7652   */\n      tag_81\n      jump\t// in\n    tag_174:\n        /* \"#utility.yul\":7513:7652   */\n      swap1\n      pop\n        /* \"#utility.yul\":7240:7659   */\n      swap2\n      swap1\n      pop\n      jump\t// out\n        /* \"#utility.yul\":7665:7836   */\n    tag_82:\n        /* \"#utility.yul\":7805:7828   */\n      0x53656c6c6572204e6f7420526567697374657265640000000000000000000000\n        /* \"#utility.yul\":7801:7802   */\n      0x00\n        /* \"#utility.yul\":7793:7799   */\n      dup3\n        /* \"#utility.yul\":7789:7803   */\n      add\n        /* \"#utility.yul\":7782:7829   */\n      mstore\n        /* \"#utility.yul\":7665:7836   */\n      pop\n      jump\t// out\n        /* \"#utility.yul\":7842:8208   */\n    tag_83:\n        /* \"#utility.yul\":7984:7987   */\n      0x00\n        /* \"#utility.yul\":8005:8072   */\n      tag_177\n        /* \"#utility.yul\":8069:8071   */\n      0x15\n        /* \"#utility.yul\":8064:8067   */\n      dup4\n        /* \"#utility.yul\":8005:8072   */\n      tag_71\n      jump\t// in\n    tag_177:\n        /* \"#utility.yul\":7998:8072   */\n      swap2\n      pop\n        /* \"#utility.yul\":8081:8174   */\n      tag_178\n        /* \"#utility.yul\":8170:8173   */\n      dup3\n        /* \"#utility.yul\":8081:8174   */\n      tag_82\n      jump\t// in\n    tag_178:\n        /* \"#utility.yul\":8199:8201   */\n      0x20\n        /* \"#utility.yul\":8194:8197   */\n      dup3\n        /* \"#utility.yul\":8190:8202   */\n      add\n        /* \"#utility.yul\":8183:8202   */\n      swap1\n      pop\n        /* \"#utility.yul\":7842:8208   */\n      swap2\n      swap1\n      pop\n      jump\t// out\n        /* \"#utility.yul\":8214:8633   */\n    tag_43:\n        /* \"#utility.yul\":8380:8384   */\n      0x00\n        /* \"#utility.yul\":8418:8420   */\n      0x20\n        /* \"#utility.yul\":8407:8416   */\n      dup3\n        /* \"#utility.yul\":8403:8421   */\n      add\n        /* \"#utility.yul\":8395:8421   */\n      swap1\n      pop\n        /* \"#utility.yul\":8467:8476   */\n      dup2\n        /* \"#utility.yul\":8461:8465   */\n      dup2\n        /* \"#utility.yul\":8457:8477   */\n      sub\n        /* \"#utility.yul\":8453:8454   */\n      0x00\n        /* \"#utility.yul\":8442:8451   */\n      dup4\n        /* \"#utility.yul\":8438:8455   */\n      add\n        /* \"#utility.yul\":8431:8478   */\n      mstore\n        /* \"#utility.yul\":8495:8626   */\n      tag_180\n        /* \"#utility.yul\":8621:8625   */\n      dup2\n        /* \"#utility.yul\":8495:8626   */\n      tag_83\n      jump\t// in\n    tag_180:\n        /* \"#utility.yul\":8487:8626   */\n      swap1\n      pop\n        /* \"#utility.yul\":8214:8633   */\n      swap2\n      swap1\n      pop\n      jump\t// out\n        /* \"#utility.yul\":8639:8819   */\n    tag_84:\n        /* \"#utility.yul\":8779:8811   */\n      0x43617368204d7573742042652047726561746572205468616e205a65726f0000\n        /* \"#utility.yul\":8775:8776   */\n      0x00\n        /* \"#utility.yul\":8767:8773   */\n      dup3\n        /* \"#utility.yul\":8763:8777   */\n      add\n        /* \"#utility.yul\":8756:8812   */\n      mstore\n        /* \"#utility.yul\":8639:8819   */\n      pop\n      jump\t// out\n        /* \"#utility.yul\":8825:9191   */\n    tag_85:\n        /* \"#utility.yul\":8967:8970   */\n      0x00\n        /* \"#utility.yul\":8988:9055   */\n      tag_183\n        /* \"#utility.yul\":9052:9054   */\n      0x1e\n        /* \"#utility.yul\":9047:9050   */\n      dup4\n        /* \"#utility.yul\":8988:9055   */\n      tag_71\n      jump\t// in\n    tag_183:\n        /* \"#utility.yul\":8981:9055   */\n      swap2\n      pop\n        /* \"#utility.yul\":9064:9157   */\n      tag_184\n        /* \"#utility.yul\":9153:9156   */\n      dup3\n        /* \"#utility.yul\":9064:9157   */\n      tag_84\n      jump\t// in\n    tag_184:\n        /* \"#utility.yul\":9182:9184   */\n      0x20\n        /* \"#utility.yul\":9177:9180   */\n      dup3\n        /* \"#utility.yul\":9173:9185   */\n      add\n        /* \"#utility.yul\":9166:9185   */\n      swap1\n      pop\n        /* \"#utility.yul\":8825:9191   */\n      swap2\n      swap1\n      pop\n      jump\t// out\n        /* \"#utility.yul\":9197:9616   */\n    tag_51:\n        /* \"#utility.yul\":9363:9367   */\n      0x00\n        /* \"#utility.yul\":9401:9403   */\n      0x20\n        /* \"#utility.yul\":9390:9399   */\n      dup3\n        /* \"#utility.yul\":9386:9404   */\n      add\n        /* \"#utility.yul\":9378:9404   */\n      swap1\n      pop\n        /* \"#utility.yul\":9450:9459   */\n      dup2\n        /* \"#utility.yul\":9444:9448   */\n      dup2\n        /* \"#utility.yul\":9440:9460   */\n      sub\n        /* \"#utility.yul\":9436:9437   */\n      0x00\n        /* \"#utility.yul\":9425:9434   */\n      dup4\n        /* \"#utility.yul\":9421:9438   */\n      add\n        /* \"#utility.yul\":9414:9461   */\n      mstore\n        /* \"#utility.yul\":9478:9609   */\n      tag_186\n        /* \"#utility.yul\":9604:9608   */\n      dup2\n        /* \"#utility.yul\":9478:9609   */\n      tag_85\n      jump\t// in\n    tag_186:\n        /* \"#utility.yul\":9470:9609   */\n      swap1\n      pop\n        /* \"#utility.yul\":9197:9616   */\n      swap2\n      swap1\n      pop\n      jump\t// out\n        /* \"#utility.yul\":9622:9740   */\n    tag_86:\n        /* \"#utility.yul\":9709:9733   */\n      tag_188\n        /* \"#utility.yul\":9727:9732   */\n      dup2\n        /* \"#utility.yul\":9709:9733   */\n      tag_64\n      jump\t// in\n    tag_188:\n        /* \"#utility.yul\":9704:9707   */\n      dup3\n        /* \"#utility.yul\":9697:9734   */\n      mstore\n        /* \"#utility.yul\":9622:9740   */\n      pop\n      pop\n      jump\t// out\n        /* \"#utility.yul\":9746:10188   */\n    tag_55:\n        /* \"#utility.yul\":9895:9899   */\n      0x00\n        /* \"#utility.yul\":9933:9935   */\n      0x60\n        /* \"#utility.yul\":9922:9931   */\n      dup3\n        /* \"#utility.yul\":9918:9936   */\n      add\n        /* \"#utility.yul\":9910:9936   */\n      swap1\n      pop\n        /* \"#utility.yul\":9946:10017   */\n      tag_190\n        /* \"#utility.yul\":10014:10015   */\n      0x00\n        /* \"#utility.yul\":10003:10012   */\n      dup4\n        /* \"#utility.yul\":9999:10016   */\n      add\n        /* \"#utility.yul\":9990:9996   */\n      dup7\n        /* \"#utility.yul\":9946:10017   */\n      tag_86\n      jump\t// in\n    tag_190:\n        /* \"#utility.yul\":10027:10099   */\n      tag_191\n        /* \"#utility.yul\":10095:10097   */\n      0x20\n        /* \"#utility.yul\":10084:10093   */\n      dup4\n        /* \"#utility.yul\":10080:10098   */\n      add\n        /* \"#utility.yul\":10071:10077   */\n      dup6\n        /* \"#utility.yul\":10027:10099   */\n      tag_86\n      jump\t// in\n    tag_191:\n        /* \"#utility.yul\":10109:10181   */\n      tag_192\n        /* \"#utility.yul\":10177:10179   */\n      0x40\n        /* \"#utility.yul\":10166:10175   */\n      dup4\n        /* \"#utility.yul\":10162:10180   */\n      add\n        /* \"#utility.yul\":10153:10159   */\n      dup5\n        /* \"#utility.yul\":10109:10181   */\n      tag_75\n      jump\t// in\n    tag_192:\n        /* \"#utility.yul\":9746:10188   */\n      swap5\n      swap4\n      pop\n      pop\n      pop\n      pop\n      jump\t// out\n        /* \"#utility.yul\":10194:10362   */\n    tag_87:\n        /* \"#utility.yul\":10334:10354   */\n      0x4e6f7420456e6f7567682042616c616e63650000000000000000000000000000\n        /* \"#utility.yul\":10330:10331   */\n      0x00\n        /* \"#utility.yul\":10322:10328   */\n      dup3\n        /* \"#utility.yul\":10318:10332   */\n      add\n        /* \"#utility.yul\":10311:10355   */\n      mstore\n        /* \"#utility.yul\":10194:10362   */\n      pop\n      jump\t// out\n        /* \"#utility.yul\":10368:10734   */\n    tag_88:\n        /* \"#utility.yul\":10510:10513   */\n      0x00\n        /* \"#utility.yul\":10531:10598   */\n      tag_195\n        /* \"#utility.yul\":10595:10597   */\n      0x12\n        /* \"#utility.yul\":10590:10593   */\n      dup4\n        /* \"#utility.yul\":10531:10598   */\n      tag_71\n      jump\t// in\n    tag_195:\n        /* \"#utility.yul\":10524:10598   */\n      swap2\n      pop\n        /* \"#utility.yul\":10607:10700   */\n      tag_196\n        /* \"#utility.yul\":10696:10699   */\n      dup3\n        /* \"#utility.yul\":10607:10700   */\n      tag_87\n      jump\t// in\n    tag_196:\n        /* \"#utility.yul\":10725:10727   */\n      0x20\n        /* \"#utility.yul\":10720:10723   */\n      dup3\n        /* \"#utility.yul\":10716:10728   */\n      add\n        /* \"#utility.yul\":10709:10728   */\n      swap1\n      pop\n        /* \"#utility.yul\":10368:10734   */\n      swap2\n      swap1\n      pop\n      jump\t// out\n        /* \"#utility.yul\":10740:11159   */\n    tag_59:\n        /* \"#utility.yul\":10906:10910   */\n      0x00\n        /* \"#utility.yul\":10944:10946   */\n      0x20\n        /* \"#utility.yul\":10933:10942   */\n      dup3\n        /* \"#utility.yul\":10929:10947   */\n      add\n        /* \"#utility.yul\":10921:10947   */\n      swap1\n      pop\n        /* \"#utility.yul\":10993:11002   */\n      dup2\n        /* \"#utility.yul\":10987:10991   */\n      dup2\n        /* \"#utility.yul\":10983:11003   */\n      sub\n        /* \"#utility.yul\":10979:10980   */\n      0x00\n        /* \"#utility.yul\":10968:10977   */\n      dup4\n        /* \"#utility.yul\":10964:10981   */\n      add\n        /* \"#utility.yul\":10957:11004   */\n      mstore\n        /* \"#utility.yul\":11021:11152   */\n      tag_198\n        /* \"#utility.yul\":11147:11151   */\n      dup2\n        /* \"#utility.yul\":11021:11152   */\n      tag_88\n      jump\t// in\n    tag_198:\n        /* \"#utility.yul\":11013:11152   */\n      swap1\n      pop\n        /* \"#utility.yul\":10740:11159   */\n      swap2\n      swap1\n      pop\n      jump\t// out\n\n    auxdata: 0xa2646970667358221220220c1b36853df0858d5d0a4c8b424d1d50648bddf5817eef799da31681ba9d5f64736f6c63430008120033\n}\n",
				"bytecode": {
					"linkReferences": {},
					"object": "608060405234801561001057600080fd5b50604051610d41380380610d418339818101604052810190610032919061007a565b80600181905550506100a7565b600080fd5b6000819050919050565b61005781610044565b811461006257600080fd5b50565b6000815190506100748161004e565b92915050565b6000602082840312156100905761008f61003f565b5b600061009e84828501610065565b91505092915050565b610c8b806100b66000396000f3fe608060405234801561001057600080fd5b506004361061004c5760003560e01c806313e2748814610051578063e3d4187f14610081578063e3d670d71461009d578063eeda149c146100cd575b600080fd5b61006b6004803603810190610066919061071e565b6100e9565b6040516100789190610801565b60405180910390f35b61009b60048036038101906100969190610823565b610376565b005b6100b760048036038101906100b29190610863565b6105a4565b6040516100c4919061089f565b60405180910390f35b6100e760048036038101906100e29190610863565b6105bc565b005b606060008060008473ffffffffffffffffffffffffffffffffffffffff1673ffffffffffffffffffffffffffffffffffffffff168152602001908152602001600020541161016c576040517f08c379a000000000000000000000000000000000000000000000000000000000815260040161016390610906565b60405180910390fd5b600060646001548561017e9190610955565b61018891906109c6565b9050806000808773ffffffffffffffffffffffffffffffffffffffff1673ffffffffffffffffffffffffffffffffffffffff16815260200190815260200160002060008282546101d891906109f7565b92505081905550806000803073ffffffffffffffffffffffffffffffffffffffff1673ffffffffffffffffffffffffffffffffffffffff168152602001908152602001600020600082825461022d9190610a2b565b9250508190555060008060003373ffffffffffffffffffffffffffffffffffffffff1673ffffffffffffffffffffffffffffffffffffffff16815260200190815260200160002054116102b5576040517f08c379a00000000000000000000000000000000000000000000000000000000081526004016102ac90610aab565b60405180910390fd5b60008060008573ffffffffffffffffffffffffffffffffffffffff1673ffffffffffffffffffffffffffffffffffffffff1681526020019081526020016000205411610336576040517f08c379a000000000000000000000000000000000000000000000000000000000815260040161032d90610b17565b60405180910390fd5b6040518060400160405280600d81526020017f5072656d69756d53656c6c6572000000000000000000000000000000000000008152509150509392505050565b60008060003373ffffffffffffffffffffffffffffffffffffffff1673ffffffffffffffffffffffffffffffffffffffff16815260200190815260200160002054116103f7576040517f08c379a00000000000000000000000000000000000000000000000000000000081526004016103ee90610aab565b60405180910390fd5b60008060008473ffffffffffffffffffffffffffffffffffffffff1673ffffffffffffffffffffffffffffffffffffffff1681526020019081526020016000205411610478576040517f08c379a000000000000000000000000000000000000000000000000000000000815260040161046f90610b17565b60405180910390fd5b600081146104bb576040517f08c379a00000000000000000000000000000000000000000000000000000000081526004016104b290610b83565b60405180910390fd5b806000803373ffffffffffffffffffffffffffffffffffffffff1673ffffffffffffffffffffffffffffffffffffffff168152602001908152602001600020600082825461050991906109f7565b92505081905550806000808473ffffffffffffffffffffffffffffffffffffffff1673ffffffffffffffffffffffffffffffffffffffff168152602001908152602001600020600082825461055e9190610a2b565b925050819055507f22e3ae3a20c49dce14046235895c7a3ffc0a6a5f3577c370177ad45fa619485d33838360405161059893929190610bb2565b60405180910390a15050565b60006020528060005260406000206000915090505481565b60008060003373ffffffffffffffffffffffffffffffffffffffff1673ffffffffffffffffffffffffffffffffffffffff168152602001908152602001600020541461063d576040517f08c379a000000000000000000000000000000000000000000000000000000000815260040161063490610c35565b60405180910390fd5b6127106000803373ffffffffffffffffffffffffffffffffffffffff1673ffffffffffffffffffffffffffffffffffffffff1681526020019081526020016000208190555050565b600080fd5b600073ffffffffffffffffffffffffffffffffffffffff82169050919050565b60006106b58261068a565b9050919050565b6106c5816106aa565b81146106d057600080fd5b50565b6000813590506106e2816106bc565b92915050565b6000819050919050565b6106fb816106e8565b811461070657600080fd5b50565b600081359050610718816106f2565b92915050565b60008060006060848603121561073757610736610685565b5b6000610745868287016106d3565b935050602061075686828701610709565b9250506040610767868287016106d3565b9150509250925092565b600081519050919050565b600082825260208201905092915050565b60005b838110156107ab578082015181840152602081019050610790565b60008484015250505050565b6000601f19601f8301169050919050565b60006107d382610771565b6107dd818561077c565b93506107ed81856020860161078d565b6107f6816107b7565b840191505092915050565b6000602082019050818103600083015261081b81846107c8565b905092915050565b6000806040838503121561083a57610839610685565b5b6000610848858286016106d3565b925050602061085985828601610709565b9150509250929050565b60006020828403121561087957610878610685565b5b6000610887848285016106d3565b91505092915050565b610899816106e8565b82525050565b60006020820190506108b46000830184610890565b92915050565b7f42616c616e6365204f662053656c6c65722043616e6e6f74204265205a65726f600082015250565b60006108f060208361077c565b91506108fb826108ba565b602082019050919050565b6000602082019050818103600083015261091f816108e3565b9050919050565b7f4e487b7100000000000000000000000000000000000000000000000000000000600052601160045260246000fd5b6000610960826106e8565b915061096b836106e8565b9250828202610979816106e8565b915082820484148315176109905761098f610926565b5b5092915050565b7f4e487b7100000000000000000000000000000000000000000000000000000000600052601260045260246000fd5b60006109d1826106e8565b91506109dc836106e8565b9250826109ec576109eb610997565b5b828204905092915050565b6000610a02826106e8565b9150610a0d836106e8565b9250828203905081811115610a2557610a24610926565b5b92915050565b6000610a36826106e8565b9150610a41836106e8565b9250828201905080821115610a5957610a58610926565b5b92915050565b7f4275796572204e6f742052656769737465726564000000000000000000000000600082015250565b6000610a9560148361077c565b9150610aa082610a5f565b602082019050919050565b60006020820190508181036000830152610ac481610a88565b9050919050565b7f53656c6c6572204e6f7420526567697374657265640000000000000000000000600082015250565b6000610b0160158361077c565b9150610b0c82610acb565b602082019050919050565b60006020820190508181036000830152610b3081610af4565b9050919050565b7f43617368204d7573742042652047726561746572205468616e205a65726f0000600082015250565b6000610b6d601e8361077c565b9150610b7882610b37565b602082019050919050565b60006020820190508181036000830152610b9c81610b60565b9050919050565b610bac816106aa565b82525050565b6000606082019050610bc76000830186610ba3565b610bd46020830185610ba3565b610be16040830184610890565b949350505050565b7f4e6f7420456e6f7567682042616c616e63650000000000000000000000000000600082015250565b6000610c1f60128361077c565b9150610c2a82610be9565b602082019050919050565b60006020820190508181036000830152610c4e81610c12565b905091905056fea2646970667358221220220c1b36853df0858d5d0a4c8b424d1d50648bddf5817eef799da31681ba9d5f64736f6c63430008120033",
					"opcodes": "PUSH1 0x80 PUSH1 0x40 MSTORE CALLVALUE DUP1 ISZERO PUSH2 0x10 JUMPI PUSH1 0x0 DUP1 REVERT JUMPDEST POP PUSH1 0x40 MLOAD PUSH2 0xD41 CODESIZE SUB DUP1 PUSH2 0xD41 DUP4 CODECOPY DUP2 DUP2 ADD PUSH1 0x40 MSTORE DUP2 ADD SWAP1 PUSH2 0x32 SWAP2 SWAP1 PUSH2 0x7A JUMP JUMPDEST DUP1 PUSH1 0x1 DUP2 SWAP1 SSTORE POP POP PUSH2 0xA7 JUMP JUMPDEST PUSH1 0x0 DUP1 REVERT JUMPDEST PUSH1 0x0 DUP2 SWAP1 POP SWAP2 SWAP1 POP JUMP JUMPDEST PUSH2 0x57 DUP2 PUSH2 0x44 JUMP JUMPDEST DUP2 EQ PUSH2 0x62 JUMPI PUSH1 0x0 DUP1 REVERT JUMPDEST POP JUMP JUMPDEST PUSH1 0x0 DUP2 MLOAD SWAP1 POP PUSH2 0x74 DUP2 PUSH2 0x4E JUMP JUMPDEST SWAP3 SWAP2 POP POP JUMP JUMPDEST PUSH1 0x0 PUSH1 0x20 DUP3 DUP5 SUB SLT ISZERO PUSH2 0x90 JUMPI PUSH2 0x8F PUSH2 0x3F JUMP JUMPDEST JUMPDEST PUSH1 0x0 PUSH2 0x9E DUP5 DUP3 DUP6 ADD PUSH2 0x65 JUMP JUMPDEST SWAP2 POP POP SWAP3 SWAP2 POP POP JUMP JUMPDEST PUSH2 0xC8B DUP1 PUSH2 0xB6 PUSH1 0x0 CODECOPY PUSH1 0x0 RETURN INVALID PUSH1 0x80 PUSH1 0x40 MSTORE CALLVALUE DUP1 ISZERO PUSH2 0x10 JUMPI PUSH1 0x0 DUP1 REVERT JUMPDEST POP PUSH1 0x4 CALLDATASIZE LT PUSH2 0x4C JUMPI PUSH1 0x0 CALLDATALOAD PUSH1 0xE0 SHR DUP1 PUSH4 0x13E27488 EQ PUSH2 0x51 JUMPI DUP1 PUSH4 0xE3D4187F EQ PUSH2 0x81 JUMPI DUP1 PUSH4 0xE3D670D7 EQ PUSH2 0x9D JUMPI DUP1 PUSH4 0xEEDA149C EQ PUSH2 0xCD JUMPI JUMPDEST PUSH1 0x0 DUP1 REVERT JUMPDEST PUSH2 0x6B PUSH1 0x4 DUP1 CALLDATASIZE SUB DUP2 ADD SWAP1 PUSH2 0x66 SWAP2 SWAP1 PUSH2 0x71E JUMP JUMPDEST PUSH2 0xE9 JUMP JUMPDEST PUSH1 0x40 MLOAD PUSH2 0x78 SWAP2 SWAP1 PUSH2 0x801 JUMP JUMPDEST PUSH1 0x40 MLOAD DUP1 SWAP2 SUB SWAP1 RETURN JUMPDEST PUSH2 0x9B PUSH1 0x4 DUP1 CALLDATASIZE SUB DUP2 ADD SWAP1 PUSH2 0x96 SWAP2 SWAP1 PUSH2 0x823 JUMP JUMPDEST PUSH2 0x376 JUMP JUMPDEST STOP JUMPDEST PUSH2 0xB7 PUSH1 0x4 DUP1 CALLDATASIZE SUB DUP2 ADD SWAP1 PUSH2 0xB2 SWAP2 SWAP1 PUSH2 0x863 JUMP JUMPDEST PUSH2 0x5A4 JUMP JUMPDEST PUSH1 0x40 MLOAD PUSH2 0xC4 SWAP2 SWAP1 PUSH2 0x89F JUMP JUMPDEST PUSH1 0x40 MLOAD DUP1 SWAP2 SUB SWAP1 RETURN JUMPDEST PUSH2 0xE7 PUSH1 0x4 DUP1 CALLDATASIZE SUB DUP2 ADD SWAP1 PUSH2 0xE2 SWAP2 SWAP1 PUSH2 0x863 JUMP JUMPDEST PUSH2 0x5BC JUMP JUMPDEST STOP JUMPDEST PUSH1 0x60 PUSH1 0x0 DUP1 PUSH1 0x0 DUP5 PUSH20 0xFFFFFFFFFFFFFFFFFFFFFFFFFFFFFFFFFFFFFFFF AND PUSH20 0xFFFFFFFFFFFFFFFFFFFFFFFFFFFFFFFFFFFFFFFF AND DUP2 MSTORE PUSH1 0x20 ADD SWAP1 DUP2 MSTORE PUSH1 0x20 ADD PUSH1 0x0 KECCAK256 SLOAD GT PUSH2 0x16C JUMPI PUSH1 0x40 MLOAD PUSH32 0x8C379A000000000000000000000000000000000000000000000000000000000 DUP2 MSTORE PUSH1 0x4 ADD PUSH2 0x163 SWAP1 PUSH2 0x906 JUMP JUMPDEST PUSH1 0x40 MLOAD DUP1 SWAP2 SUB SWAP1 REVERT JUMPDEST PUSH1 0x0 PUSH1 0x64 PUSH1 0x1 SLOAD DUP6 PUSH2 0x17E SWAP2 SWAP1 PUSH2 0x955 JUMP JUMPDEST PUSH2 0x188 SWAP2 SWAP1 PUSH2 0x9C6 JUMP JUMPDEST SWAP1 POP DUP1 PUSH1 0x0 DUP1 DUP8 PUSH20 0xFFFFFFFFFFFFFFFFFFFFFFFFFFFFFFFFFFFFFFFF AND PUSH20 0xFFFFFFFFFFFFFFFFFFFFFFFFFFFFFFFFFFFFFFFF AND DUP2 MSTORE PUSH1 0x20 ADD SWAP1 DUP2 MSTORE PUSH1 0x20 ADD PUSH1 0x0 KECCAK256 PUSH1 0x0 DUP3 DUP3 SLOAD PUSH2 0x1D8 SWAP2 SWAP1 PUSH2 0x9F7 JUMP JUMPDEST SWAP3 POP POP DUP2 SWAP1 SSTORE POP DUP1 PUSH1 0x0 DUP1 ADDRESS PUSH20 0xFFFFFFFFFFFFFFFFFFFFFFFFFFFFFFFFFFFFFFFF AND PUSH20 0xFFFFFFFFFFFFFFFFFFFFFFFFFFFFFFFFFFFFFFFF AND DUP2 MSTORE PUSH1 0x20 ADD SWAP1 DUP2 MSTORE PUSH1 0x20 ADD PUSH1 0x0 KECCAK256 PUSH1 0x0 DUP3 DUP3 SLOAD PUSH2 0x22D SWAP2 SWAP1 PUSH2 0xA2B JUMP JUMPDEST SWAP3 POP POP DUP2 SWAP1 SSTORE POP PUSH1 0x0 DUP1 PUSH1 0x0 CALLER PUSH20 0xFFFFFFFFFFFFFFFFFFFFFFFFFFFFFFFFFFFFFFFF AND PUSH20 0xFFFFFFFFFFFFFFFFFFFFFFFFFFFFFFFFFFFFFFFF AND DUP2 MSTORE PUSH1 0x20 ADD SWAP1 DUP2 MSTORE PUSH1 0x20 ADD PUSH1 0x0 KECCAK256 SLOAD GT PUSH2 0x2B5 JUMPI PUSH1 0x40 MLOAD PUSH32 0x8C379A000000000000000000000000000000000000000000000000000000000 DUP2 MSTORE PUSH1 0x4 ADD PUSH2 0x2AC SWAP1 PUSH2 0xAAB JUMP JUMPDEST PUSH1 0x40 MLOAD DUP1 SWAP2 SUB SWAP1 REVERT JUMPDEST PUSH1 0x0 DUP1 PUSH1 0x0 DUP6 PUSH20 0xFFFFFFFFFFFFFFFFFFFFFFFFFFFFFFFFFFFFFFFF AND PUSH20 0xFFFFFFFFFFFFFFFFFFFFFFFFFFFFFFFFFFFFFFFF AND DUP2 MSTORE PUSH1 0x20 ADD SWAP1 DUP2 MSTORE PUSH1 0x20 ADD PUSH1 0x0 KECCAK256 SLOAD GT PUSH2 0x336 JUMPI PUSH1 0x40 MLOAD PUSH32 0x8C379A000000000000000000000000000000000000000000000000000000000 DUP2 MSTORE PUSH1 0x4 ADD PUSH2 0x32D SWAP1 PUSH2 0xB17 JUMP JUMPDEST PUSH1 0x40 MLOAD DUP1 SWAP2 SUB SWAP1 REVERT JUMPDEST PUSH1 0x40 MLOAD DUP1 PUSH1 0x40 ADD PUSH1 0x40 MSTORE DUP1 PUSH1 0xD DUP2 MSTORE PUSH1 0x20 ADD PUSH32 0x5072656D69756D53656C6C657200000000000000000000000000000000000000 DUP2 MSTORE POP SWAP2 POP POP SWAP4 SWAP3 POP POP POP JUMP JUMPDEST PUSH1 0x0 DUP1 PUSH1 0x0 CALLER PUSH20 0xFFFFFFFFFFFFFFFFFFFFFFFFFFFFFFFFFFFFFFFF AND PUSH20 0xFFFFFFFFFFFFFFFFFFFFFFFFFFFFFFFFFFFFFFFF AND DUP2 MSTORE PUSH1 0x20 ADD SWAP1 DUP2 MSTORE PUSH1 0x20 ADD PUSH1 0x0 KECCAK256 SLOAD GT PUSH2 0x3F7 JUMPI PUSH1 0x40 MLOAD PUSH32 0x8C379A000000000000000000000000000000000000000000000000000000000 DUP2 MSTORE PUSH1 0x4 ADD PUSH2 0x3EE SWAP1 PUSH2 0xAAB JUMP JUMPDEST PUSH1 0x40 MLOAD DUP1 SWAP2 SUB SWAP1 REVERT JUMPDEST PUSH1 0x0 DUP1 PUSH1 0x0 DUP5 PUSH20 0xFFFFFFFFFFFFFFFFFFFFFFFFFFFFFFFFFFFFFFFF AND PUSH20 0xFFFFFFFFFFFFFFFFFFFFFFFFFFFFFFFFFFFFFFFF AND DUP2 MSTORE PUSH1 0x20 ADD SWAP1 DUP2 MSTORE PUSH1 0x20 ADD PUSH1 0x0 KECCAK256 SLOAD GT PUSH2 0x478 JUMPI PUSH1 0x40 MLOAD PUSH32 0x8C379A000000000000000000000000000000000000000000000000000000000 DUP2 MSTORE PUSH1 0x4 ADD PUSH2 0x46F SWAP1 PUSH2 0xB17 JUMP JUMPDEST PUSH1 0x40 MLOAD DUP1 SWAP2 SUB SWAP1 REVERT JUMPDEST PUSH1 0x0 DUP2 EQ PUSH2 0x4BB JUMPI PUSH1 0x40 MLOAD PUSH32 0x8C379A000000000000000000000000000000000000000000000000000000000 DUP2 MSTORE PUSH1 0x4 ADD PUSH2 0x4B2 SWAP1 PUSH2 0xB83 JUMP JUMPDEST PUSH1 0x40 MLOAD DUP1 SWAP2 SUB SWAP1 REVERT JUMPDEST DUP1 PUSH1 0x0 DUP1 CALLER PUSH20 0xFFFFFFFFFFFFFFFFFFFFFFFFFFFFFFFFFFFFFFFF AND PUSH20 0xFFFFFFFFFFFFFFFFFFFFFFFFFFFFFFFFFFFFFFFF AND DUP2 MSTORE PUSH1 0x20 ADD SWAP1 DUP2 MSTORE PUSH1 0x20 ADD PUSH1 0x0 KECCAK256 PUSH1 0x0 DUP3 DUP3 SLOAD PUSH2 0x509 SWAP2 SWAP1 PUSH2 0x9F7 JUMP JUMPDEST SWAP3 POP POP DUP2 SWAP1 SSTORE POP DUP1 PUSH1 0x0 DUP1 DUP5 PUSH20 0xFFFFFFFFFFFFFFFFFFFFFFFFFFFFFFFFFFFFFFFF AND PUSH20 0xFFFFFFFFFFFFFFFFFFFFFFFFFFFFFFFFFFFFFFFF AND DUP2 MSTORE PUSH1 0x20 ADD SWAP1 DUP2 MSTORE PUSH1 0x20 ADD PUSH1 0x0 KECCAK256 PUSH1 0x0 DUP3 DUP3 SLOAD PUSH2 0x55E SWAP2 SWAP1 PUSH2 0xA2B JUMP JUMPDEST SWAP3 POP POP DUP2 SWAP1 SSTORE POP PUSH32 0x22E3AE3A20C49DCE14046235895C7A3FFC0A6A5F3577C370177AD45FA619485D CALLER DUP4 DUP4 PUSH1 0x40 MLOAD PUSH2 0x598 SWAP4 SWAP3 SWAP2 SWAP1 PUSH2 0xBB2 JUMP JUMPDEST PUSH1 0x40 MLOAD DUP1 SWAP2 SUB SWAP1 LOG1 POP POP JUMP JUMPDEST PUSH1 0x0 PUSH1 0x20 MSTORE DUP1 PUSH1 0x0 MSTORE PUSH1 0x40 PUSH1 0x0 KECCAK256 PUSH1 0x0 SWAP2 POP SWAP1 POP SLOAD DUP2 JUMP JUMPDEST PUSH1 0x0 DUP1 PUSH1 0x0 CALLER PUSH20 0xFFFFFFFFFFFFFFFFFFFFFFFFFFFFFFFFFFFFFFFF AND PUSH20 0xFFFFFFFFFFFFFFFFFFFFFFFFFFFFFFFFFFFFFFFF AND DUP2 MSTORE PUSH1 0x20 ADD SWAP1 DUP2 MSTORE PUSH1 0x20 ADD PUSH1 0x0 KECCAK256 SLOAD EQ PUSH2 0x63D JUMPI PUSH1 0x40 MLOAD PUSH32 0x8C379A000000000000000000000000000000000000000000000000000000000 DUP2 MSTORE PUSH1 0x4 ADD PUSH2 0x634 SWAP1 PUSH2 0xC35 JUMP JUMPDEST PUSH1 0x40 MLOAD DUP1 SWAP2 SUB SWAP1 REVERT JUMPDEST PUSH2 0x2710 PUSH1 0x0 DUP1 CALLER PUSH20 0xFFFFFFFFFFFFFFFFFFFFFFFFFFFFFFFFFFFFFFFF AND PUSH20 0xFFFFFFFFFFFFFFFFFFFFFFFFFFFFFFFFFFFFFFFF AND DUP2 MSTORE PUSH1 0x20 ADD SWAP1 DUP2 MSTORE PUSH1 0x20 ADD PUSH1 0x0 KECCAK256 DUP2 SWAP1 SSTORE POP POP JUMP JUMPDEST PUSH1 0x0 DUP1 REVERT JUMPDEST PUSH1 0x0 PUSH20 0xFFFFFFFFFFFFFFFFFFFFFFFFFFFFFFFFFFFFFFFF DUP3 AND SWAP1 POP SWAP2 SWAP1 POP JUMP JUMPDEST PUSH1 0x0 PUSH2 0x6B5 DUP3 PUSH2 0x68A JUMP JUMPDEST SWAP1 POP SWAP2 SWAP1 POP JUMP JUMPDEST PUSH2 0x6C5 DUP2 PUSH2 0x6AA JUMP JUMPDEST DUP2 EQ PUSH2 0x6D0 JUMPI PUSH1 0x0 DUP1 REVERT JUMPDEST POP JUMP JUMPDEST PUSH1 0x0 DUP2 CALLDATALOAD SWAP1 POP PUSH2 0x6E2 DUP2 PUSH2 0x6BC JUMP JUMPDEST SWAP3 SWAP2 POP POP JUMP JUMPDEST PUSH1 0x0 DUP2 SWAP1 POP SWAP2 SWAP1 POP JUMP JUMPDEST PUSH2 0x6FB DUP2 PUSH2 0x6E8 JUMP JUMPDEST DUP2 EQ PUSH2 0x706 JUMPI PUSH1 0x0 DUP1 REVERT JUMPDEST POP JUMP JUMPDEST PUSH1 0x0 DUP2 CALLDATALOAD SWAP1 POP PUSH2 0x718 DUP2 PUSH2 0x6F2 JUMP JUMPDEST SWAP3 SWAP2 POP POP JUMP JUMPDEST PUSH1 0x0 DUP1 PUSH1 0x0 PUSH1 0x60 DUP5 DUP7 SUB SLT ISZERO PUSH2 0x737 JUMPI PUSH2 0x736 PUSH2 0x685 JUMP JUMPDEST JUMPDEST PUSH1 0x0 PUSH2 0x745 DUP7 DUP3 DUP8 ADD PUSH2 0x6D3 JUMP JUMPDEST SWAP4 POP POP PUSH1 0x20 PUSH2 0x756 DUP7 DUP3 DUP8 ADD PUSH2 0x709 JUMP JUMPDEST SWAP3 POP POP PUSH1 0x40 PUSH2 0x767 DUP7 DUP3 DUP8 ADD PUSH2 0x6D3 JUMP JUMPDEST SWAP2 POP POP SWAP3 POP SWAP3 POP SWAP3 JUMP JUMPDEST PUSH1 0x0 DUP2 MLOAD SWAP1 POP SWAP2 SWAP1 POP JUMP JUMPDEST PUSH1 0x0 DUP3 DUP3 MSTORE PUSH1 0x20 DUP3 ADD SWAP1 POP SWAP3 SWAP2 POP POP JUMP JUMPDEST PUSH1 0x0 JUMPDEST DUP4 DUP2 LT ISZERO PUSH2 0x7AB JUMPI DUP1 DUP3 ADD MLOAD DUP2 DUP5 ADD MSTORE PUSH1 0x20 DUP2 ADD SWAP1 POP PUSH2 0x790 JUMP JUMPDEST PUSH1 0x0 DUP5 DUP5 ADD MSTORE POP POP POP POP JUMP JUMPDEST PUSH1 0x0 PUSH1 0x1F NOT PUSH1 0x1F DUP4 ADD AND SWAP1 POP SWAP2 SWAP1 POP JUMP JUMPDEST PUSH1 0x0 PUSH2 0x7D3 DUP3 PUSH2 0x771 JUMP JUMPDEST PUSH2 0x7DD DUP2 DUP6 PUSH2 0x77C JUMP JUMPDEST SWAP4 POP PUSH2 0x7ED DUP2 DUP6 PUSH1 0x20 DUP7 ADD PUSH2 0x78D JUMP JUMPDEST PUSH2 0x7F6 DUP2 PUSH2 0x7B7 JUMP JUMPDEST DUP5 ADD SWAP2 POP POP SWAP3 SWAP2 POP POP JUMP JUMPDEST PUSH1 0x0 PUSH1 0x20 DUP3 ADD SWAP1 POP DUP2 DUP2 SUB PUSH1 0x0 DUP4 ADD MSTORE PUSH2 0x81B DUP2 DUP5 PUSH2 0x7C8 JUMP JUMPDEST SWAP1 POP SWAP3 SWAP2 POP POP JUMP JUMPDEST PUSH1 0x0 DUP1 PUSH1 0x40 DUP4 DUP6 SUB SLT ISZERO PUSH2 0x83A JUMPI PUSH2 0x839 PUSH2 0x685 JUMP JUMPDEST JUMPDEST PUSH1 0x0 PUSH2 0x848 DUP6 DUP3 DUP7 ADD PUSH2 0x6D3 JUMP JUMPDEST SWAP3 POP POP PUSH1 0x20 PUSH2 0x859 DUP6 DUP3 DUP7 ADD PUSH2 0x709 JUMP JUMPDEST SWAP2 POP POP SWAP3 POP SWAP3 SWAP1 POP JUMP JUMPDEST PUSH1 0x0 PUSH1 0x20 DUP3 DUP5 SUB SLT ISZERO PUSH2 0x879 JUMPI PUSH2 0x878 PUSH2 0x685 JUMP JUMPDEST JUMPDEST PUSH1 0x0 PUSH2 0x887 DUP5 DUP3 DUP6 ADD PUSH2 0x6D3 JUMP JUMPDEST SWAP2 POP POP SWAP3 SWAP2 POP POP JUMP JUMPDEST PUSH2 0x899 DUP2 PUSH2 0x6E8 JUMP JUMPDEST DUP3 MSTORE POP POP JUMP JUMPDEST PUSH1 0x0 PUSH1 0x20 DUP3 ADD SWAP1 POP PUSH2 0x8B4 PUSH1 0x0 DUP4 ADD DUP5 PUSH2 0x890 JUMP JUMPDEST SWAP3 SWAP2 POP POP JUMP JUMPDEST PUSH32 0x42616C616E6365204F662053656C6C65722043616E6E6F74204265205A65726F PUSH1 0x0 DUP3 ADD MSTORE POP JUMP JUMPDEST PUSH1 0x0 PUSH2 0x8F0 PUSH1 0x20 DUP4 PUSH2 0x77C JUMP JUMPDEST SWAP2 POP PUSH2 0x8FB DUP3 PUSH2 0x8BA JUMP JUMPDEST PUSH1 0x20 DUP3 ADD SWAP1 POP SWAP2 SWAP1 POP JUMP JUMPDEST PUSH1 0x0 PUSH1 0x20 DUP3 ADD SWAP1 POP DUP2 DUP2 SUB PUSH1 0x0 DUP4 ADD MSTORE PUSH2 0x91F DUP2 PUSH2 0x8E3 JUMP JUMPDEST SWAP1 POP SWAP2 SWAP1 POP JUMP JUMPDEST PUSH32 0x4E487B7100000000000000000000000000000000000000000000000000000000 PUSH1 0x0 MSTORE PUSH1 0x11 PUSH1 0x4 MSTORE PUSH1 0x24 PUSH1 0x0 REVERT JUMPDEST PUSH1 0x0 PUSH2 0x960 DUP3 PUSH2 0x6E8 JUMP JUMPDEST SWAP2 POP PUSH2 0x96B DUP4 PUSH2 0x6E8 JUMP JUMPDEST SWAP3 POP DUP3 DUP3 MUL PUSH2 0x979 DUP2 PUSH2 0x6E8 JUMP JUMPDEST SWAP2 POP DUP3 DUP3 DIV DUP5 EQ DUP4 ISZERO OR PUSH2 0x990 JUMPI PUSH2 0x98F PUSH2 0x926 JUMP JUMPDEST JUMPDEST POP SWAP3 SWAP2 POP POP JUMP JUMPDEST PUSH32 0x4E487B7100000000000000000000000000000000000000000000000000000000 PUSH1 0x0 MSTORE PUSH1 0x12 PUSH1 0x4 MSTORE PUSH1 0x24 PUSH1 0x0 REVERT JUMPDEST PUSH1 0x0 PUSH2 0x9D1 DUP3 PUSH2 0x6E8 JUMP JUMPDEST SWAP2 POP PUSH2 0x9DC DUP4 PUSH2 0x6E8 JUMP JUMPDEST SWAP3 POP DUP3 PUSH2 0x9EC JUMPI PUSH2 0x9EB PUSH2 0x997 JUMP JUMPDEST JUMPDEST DUP3 DUP3 DIV SWAP1 POP SWAP3 SWAP2 POP POP JUMP JUMPDEST PUSH1 0x0 PUSH2 0xA02 DUP3 PUSH2 0x6E8 JUMP JUMPDEST SWAP2 POP PUSH2 0xA0D DUP4 PUSH2 0x6E8 JUMP JUMPDEST SWAP3 POP DUP3 DUP3 SUB SWAP1 POP DUP2 DUP2 GT ISZERO PUSH2 0xA25 JUMPI PUSH2 0xA24 PUSH2 0x926 JUMP JUMPDEST JUMPDEST SWAP3 SWAP2 POP POP JUMP JUMPDEST PUSH1 0x0 PUSH2 0xA36 DUP3 PUSH2 0x6E8 JUMP JUMPDEST SWAP2 POP PUSH2 0xA41 DUP4 PUSH2 0x6E8 JUMP JUMPDEST SWAP3 POP DUP3 DUP3 ADD SWAP1 POP DUP1 DUP3 GT ISZERO PUSH2 0xA59 JUMPI PUSH2 0xA58 PUSH2 0x926 JUMP JUMPDEST JUMPDEST SWAP3 SWAP2 POP POP JUMP JUMPDEST PUSH32 0x4275796572204E6F742052656769737465726564000000000000000000000000 PUSH1 0x0 DUP3 ADD MSTORE POP JUMP JUMPDEST PUSH1 0x0 PUSH2 0xA95 PUSH1 0x14 DUP4 PUSH2 0x77C JUMP JUMPDEST SWAP2 POP PUSH2 0xAA0 DUP3 PUSH2 0xA5F JUMP JUMPDEST PUSH1 0x20 DUP3 ADD SWAP1 POP SWAP2 SWAP1 POP JUMP JUMPDEST PUSH1 0x0 PUSH1 0x20 DUP3 ADD SWAP1 POP DUP2 DUP2 SUB PUSH1 0x0 DUP4 ADD MSTORE PUSH2 0xAC4 DUP2 PUSH2 0xA88 JUMP JUMPDEST SWAP1 POP SWAP2 SWAP1 POP JUMP JUMPDEST PUSH32 0x53656C6C6572204E6F7420526567697374657265640000000000000000000000 PUSH1 0x0 DUP3 ADD MSTORE POP JUMP JUMPDEST PUSH1 0x0 PUSH2 0xB01 PUSH1 0x15 DUP4 PUSH2 0x77C JUMP JUMPDEST SWAP2 POP PUSH2 0xB0C DUP3 PUSH2 0xACB JUMP JUMPDEST PUSH1 0x20 DUP3 ADD SWAP1 POP SWAP2 SWAP1 POP JUMP JUMPDEST PUSH1 0x0 PUSH1 0x20 DUP3 ADD SWAP1 POP DUP2 DUP2 SUB PUSH1 0x0 DUP4 ADD MSTORE PUSH2 0xB30 DUP2 PUSH2 0xAF4 JUMP JUMPDEST SWAP1 POP SWAP2 SWAP1 POP JUMP JUMPDEST PUSH32 0x43617368204D7573742042652047726561746572205468616E205A65726F0000 PUSH1 0x0 DUP3 ADD MSTORE POP JUMP JUMPDEST PUSH1 0x0 PUSH2 0xB6D PUSH1 0x1E DUP4 PUSH2 0x77C JUMP JUMPDEST SWAP2 POP PUSH2 0xB78 DUP3 PUSH2 0xB37 JUMP JUMPDEST PUSH1 0x20 DUP3 ADD SWAP1 POP SWAP2 SWAP1 POP JUMP JUMPDEST PUSH1 0x0 PUSH1 0x20 DUP3 ADD SWAP1 POP DUP2 DUP2 SUB PUSH1 0x0 DUP4 ADD MSTORE PUSH2 0xB9C DUP2 PUSH2 0xB60 JUMP JUMPDEST SWAP1 POP SWAP2 SWAP1 POP JUMP JUMPDEST PUSH2 0xBAC DUP2 PUSH2 0x6AA JUMP JUMPDEST DUP3 MSTORE POP POP JUMP JUMPDEST PUSH1 0x0 PUSH1 0x60 DUP3 ADD SWAP1 POP PUSH2 0xBC7 PUSH1 0x0 DUP4 ADD DUP7 PUSH2 0xBA3 JUMP JUMPDEST PUSH2 0xBD4 PUSH1 0x20 DUP4 ADD DUP6 PUSH2 0xBA3 JUMP JUMPDEST PUSH2 0xBE1 PUSH1 0x40 DUP4 ADD DUP5 PUSH2 0x890 JUMP JUMPDEST SWAP5 SWAP4 POP POP POP POP JUMP JUMPDEST PUSH32 0x4E6F7420456E6F7567682042616C616E63650000000000000000000000000000 PUSH1 0x0 DUP3 ADD MSTORE POP JUMP JUMPDEST PUSH1 0x0 PUSH2 0xC1F PUSH1 0x12 DUP4 PUSH2 0x77C JUMP JUMPDEST SWAP2 POP PUSH2 0xC2A DUP3 PUSH2 0xBE9 JUMP JUMPDEST PUSH1 0x20 DUP3 ADD SWAP1 POP SWAP2 SWAP1 POP JUMP JUMPDEST PUSH1 0x0 PUSH1 0x20 DUP3 ADD SWAP1 POP DUP2 DUP2 SUB PUSH1 0x0 DUP4 ADD MSTORE PUSH2 0xC4E DUP2 PUSH2 0xC12 JUMP JUMPDEST SWAP1 POP SWAP2 SWAP1 POP JUMP INVALID LOG2 PUSH5 0x6970667358 0x22 SLT KECCAK256 0x22 0xC SHL CALLDATASIZE DUP6 RETURNDATASIZE CREATE DUP6 DUP14 0x5D EXP 0x4C DUP12 TIMESTAMP 0x4D SAR POP PUSH5 0x8BDDF5817E 0xEF PUSH26 0x9DA31681BA9D5F64736F6C634300081200330000000000000000 "
				},
				"gasEstimates": {
					"creation": {
						"codeDepositCost": "642200",
						"executionCost": "infinite",
						"totalCost": "infinite"
					},
					"external": {
						"Buy(address,uint256)": "infinite",
						"Register(address)": "24914",
						"Sell(address,uint256,address)": "infinite",
						"balance(address)": "2836"
					}
				},
				"methodIdentifiers": {
					"Buy(address,uint256)": "e3d4187f",
					"Register(address)": "eeda149c",
					"Sell(address,uint256,address)": "13e27488",
					"balance(address)": "e3d670d7"
				}
			},
			"storageLayout": {
				"storage": [
					{
						"astId": 5,
						"contract": "LABS 18 Aug/Task All 18.sol:PremiumSeller",
						"label": "balance",
						"offset": 0,
						"slot": "0",
						"type": "t_mapping(t_address,t_uint256)"
					},
					{
						"astId": 143,
						"contract": "LABS 18 Aug/Task All 18.sol:PremiumSeller",
						"label": "Fee",
						"offset": 0,
						"slot": "1",
						"type": "t_uint256"
					}
				],
				"types": {
					"t_address": {
						"encoding": "inplace",
						"label": "address",
						"numberOfBytes": "20"
					},
					"t_mapping(t_address,t_uint256)": {
						"encoding": "mapping",
						"key": "t_address",
						"label": "mapping(address => uint256)",
						"numberOfBytes": "32",
						"value": "t_uint256"
					},
					"t_uint256": {
						"encoding": "inplace",
						"label": "uint256",
						"numberOfBytes": "32"
					}
				}
			},
			"userdoc": {
				"kind": "user",
				"methods": {},
				"version": 1
			}
		}
	}
}