{
	"LABS 4 Aug/Task 2 lab4.sol": {
		"NumberProcessor": {
			"abi": [
				{
					"inputs": [
						{
							"internalType": "uint256[5]",
							"name": "numbers",
							"type": "uint256[5]"
						}
					],
					"name": "calculateSumAndAverage",
					"outputs": [
						{
							"internalType": "uint256",
							"name": "sum",
							"type": "uint256"
						},
						{
							"internalType": "uint256",
							"name": "average",
							"type": "uint256"
						}
					],
					"stateMutability": "pure",
					"type": "function"
				}
			],
			"devdoc": {
				"kind": "dev",
				"methods": {},
				"version": 1
			},
			"evm": {
				"assembly": "    /* \"LABS 4 Aug/Task 2 lab4.sol\":62:555  contract NumberProcessor {... */\n  mstore(0x40, 0x80)\n  callvalue\n  dup1\n  iszero\n  tag_1\n  jumpi\n  0x00\n  dup1\n  revert\ntag_1:\n  pop\n  dataSize(sub_0)\n  dup1\n  dataOffset(sub_0)\n  0x00\n  codecopy\n  0x00\n  return\nstop\n\nsub_0: assembly {\n        /* \"LABS 4 Aug/Task 2 lab4.sol\":62:555  contract NumberProcessor {... */\n      mstore(0x40, 0x80)\n      callvalue\n      dup1\n      iszero\n      tag_1\n      jumpi\n      0x00\n      dup1\n      revert\n    tag_1:\n      pop\n      jumpi(tag_2, lt(calldatasize, 0x04))\n      shr(0xe0, calldataload(0x00))\n      dup1\n      0x5849bb18\n      eq\n      tag_3\n      jumpi\n    tag_2:\n      0x00\n      dup1\n      revert\n        /* \"LABS 4 Aug/Task 2 lab4.sol\":96:531  function calculateSumAndAverage(uint256[5] memory numbers) public pure... */\n    tag_3:\n      tag_4\n      0x04\n      dup1\n      calldatasize\n      sub\n      dup2\n      add\n      swap1\n      tag_5\n      swap2\n      swap1\n      tag_6\n      jump\t// in\n    tag_5:\n      tag_7\n      jump\t// in\n    tag_4:\n      mload(0x40)\n      tag_8\n      swap3\n      swap2\n      swap1\n      tag_9\n      jump\t// in\n    tag_8:\n      mload(0x40)\n      dup1\n      swap2\n      sub\n      swap1\n      return\n    tag_7:\n        /* \"LABS 4 Aug/Task 2 lab4.sol\":184:195  uint256 sum */\n      0x00\n        /* \"LABS 4 Aug/Task 2 lab4.sol\":197:212  uint256 average */\n      dup1\n        /* \"LABS 4 Aug/Task 2 lab4.sol\":229:245  uint256 totalSum */\n      0x00\n        /* \"LABS 4 Aug/Task 2 lab4.sol\":265:274  uint256 i */\n      dup1\n        /* \"LABS 4 Aug/Task 2 lab4.sol\":294:412  while(i < numbers.length) {... */\n    tag_11:\n        /* \"LABS 4 Aug/Task 2 lab4.sol\":304:318  numbers.length */\n      0x05\n        /* \"LABS 4 Aug/Task 2 lab4.sol\":300:301  i */\n      dup2\n        /* \"LABS 4 Aug/Task 2 lab4.sol\":300:318  i < numbers.length */\n      lt\n        /* \"LABS 4 Aug/Task 2 lab4.sol\":294:412  while(i < numbers.length) {... */\n      iszero\n      tag_12\n      jumpi\n        /* \"LABS 4 Aug/Task 2 lab4.sol\":353:360  numbers */\n      dup5\n        /* \"LABS 4 Aug/Task 2 lab4.sol\":361:362  i */\n      dup2\n        /* \"LABS 4 Aug/Task 2 lab4.sol\":353:363  numbers[i] */\n      0x05\n      dup2\n      lt\n      tag_13\n      jumpi\n      tag_14\n      tag_15\n      jump\t// in\n    tag_14:\n    tag_13:\n      0x20\n      mul\n      add\n      mload\n        /* \"LABS 4 Aug/Task 2 lab4.sol\":341:363  totalSum += numbers[i] */\n      dup3\n      tag_16\n      swap2\n      swap1\n      tag_17\n      jump\t// in\n    tag_16:\n      swap2\n      pop\n        /* \"LABS 4 Aug/Task 2 lab4.sol\":385:388  i++ */\n      dup1\n      dup1\n      tag_18\n      swap1\n      tag_19\n      jump\t// in\n    tag_18:\n      swap2\n      pop\n      pop\n        /* \"LABS 4 Aug/Task 2 lab4.sol\":294:412  while(i < numbers.length) {... */\n      jump(tag_11)\n    tag_12:\n        /* \"LABS 4 Aug/Task 2 lab4.sol\":441:449  totalSum */\n      dup2\n        /* \"LABS 4 Aug/Task 2 lab4.sol\":435:449  sum = totalSum */\n      swap4\n      pop\n        /* \"LABS 4 Aug/Task 2 lab4.sol\":493:507  numbers.length */\n      0x05\n        /* \"LABS 4 Aug/Task 2 lab4.sol\":484:492  totalSum */\n      dup3\n        /* \"LABS 4 Aug/Task 2 lab4.sol\":484:507  totalSum/numbers.length */\n      tag_20\n      swap2\n      swap1\n      tag_21\n      jump\t// in\n    tag_20:\n        /* \"LABS 4 Aug/Task 2 lab4.sol\":474:507  average = totalSum/numbers.length */\n      swap3\n      pop\n        /* \"LABS 4 Aug/Task 2 lab4.sol\":214:531  {... */\n      pop\n      pop\n        /* \"LABS 4 Aug/Task 2 lab4.sol\":96:531  function calculateSumAndAverage(uint256[5] memory numbers) public pure... */\n      swap2\n      pop\n      swap2\n      jump\t// out\n        /* \"#utility.yul\":7:82   */\n    tag_22:\n        /* \"#utility.yul\":40:46   */\n      0x00\n        /* \"#utility.yul\":73:75   */\n      0x40\n        /* \"#utility.yul\":67:76   */\n      mload\n        /* \"#utility.yul\":57:76   */\n      swap1\n      pop\n        /* \"#utility.yul\":7:82   */\n      swap1\n      jump\t// out\n        /* \"#utility.yul\":88:205   */\n    tag_23:\n        /* \"#utility.yul\":197:198   */\n      0x00\n        /* \"#utility.yul\":194:195   */\n      dup1\n        /* \"#utility.yul\":187:199   */\n      revert\n        /* \"#utility.yul\":334:451   */\n    tag_25:\n        /* \"#utility.yul\":443:444   */\n      0x00\n        /* \"#utility.yul\":440:441   */\n      dup1\n        /* \"#utility.yul\":433:445   */\n      revert\n        /* \"#utility.yul\":457:559   */\n    tag_26:\n        /* \"#utility.yul\":498:504   */\n      0x00\n        /* \"#utility.yul\":549:551   */\n      0x1f\n        /* \"#utility.yul\":545:552   */\n      not\n        /* \"#utility.yul\":540:542   */\n      0x1f\n        /* \"#utility.yul\":533:538   */\n      dup4\n        /* \"#utility.yul\":529:543   */\n      add\n        /* \"#utility.yul\":525:553   */\n      and\n        /* \"#utility.yul\":515:553   */\n      swap1\n      pop\n        /* \"#utility.yul\":457:559   */\n      swap2\n      swap1\n      pop\n      jump\t// out\n        /* \"#utility.yul\":565:745   */\n    tag_27:\n        /* \"#utility.yul\":613:690   */\n      0x4e487b7100000000000000000000000000000000000000000000000000000000\n        /* \"#utility.yul\":610:611   */\n      0x00\n        /* \"#utility.yul\":603:691   */\n      mstore\n        /* \"#utility.yul\":710:714   */\n      0x41\n        /* \"#utility.yul\":707:708   */\n      0x04\n        /* \"#utility.yul\":700:715   */\n      mstore\n        /* \"#utility.yul\":734:738   */\n      0x24\n        /* \"#utility.yul\":731:732   */\n      0x00\n        /* \"#utility.yul\":724:739   */\n      revert\n        /* \"#utility.yul\":751:1032   */\n    tag_28:\n        /* \"#utility.yul\":834:861   */\n      tag_48\n        /* \"#utility.yul\":856:860   */\n      dup3\n        /* \"#utility.yul\":834:861   */\n      tag_26\n      jump\t// in\n    tag_48:\n        /* \"#utility.yul\":826:832   */\n      dup2\n        /* \"#utility.yul\":822:862   */\n      add\n        /* \"#utility.yul\":964:970   */\n      dup2\n        /* \"#utility.yul\":952:962   */\n      dup2\n        /* \"#utility.yul\":949:971   */\n      lt\n        /* \"#utility.yul\":928:946   */\n      0xffffffffffffffff\n        /* \"#utility.yul\":916:926   */\n      dup3\n        /* \"#utility.yul\":913:947   */\n      gt\n        /* \"#utility.yul\":910:972   */\n      or\n        /* \"#utility.yul\":907:995   */\n      iszero\n      tag_49\n      jumpi\n        /* \"#utility.yul\":975:993   */\n      tag_50\n      tag_27\n      jump\t// in\n    tag_50:\n        /* \"#utility.yul\":907:995   */\n    tag_49:\n        /* \"#utility.yul\":1015:1025   */\n      dup1\n        /* \"#utility.yul\":1011:1013   */\n      0x40\n        /* \"#utility.yul\":1004:1026   */\n      mstore\n        /* \"#utility.yul\":794:1032   */\n      pop\n        /* \"#utility.yul\":751:1032   */\n      pop\n      pop\n      jump\t// out\n        /* \"#utility.yul\":1038:1167   */\n    tag_29:\n        /* \"#utility.yul\":1072:1078   */\n      0x00\n        /* \"#utility.yul\":1099:1119   */\n      tag_52\n      tag_22\n      jump\t// in\n    tag_52:\n        /* \"#utility.yul\":1089:1119   */\n      swap1\n      pop\n        /* \"#utility.yul\":1128:1161   */\n      tag_53\n        /* \"#utility.yul\":1156:1160   */\n      dup3\n        /* \"#utility.yul\":1148:1154   */\n      dup3\n        /* \"#utility.yul\":1128:1161   */\n      tag_28\n      jump\t// in\n    tag_53:\n        /* \"#utility.yul\":1038:1167   */\n      swap2\n      swap1\n      pop\n      jump\t// out\n        /* \"#utility.yul\":1173:1422   */\n    tag_30:\n        /* \"#utility.yul\":1248:1252   */\n      0x00\n        /* \"#utility.yul\":1338:1356   */\n      0xffffffffffffffff\n        /* \"#utility.yul\":1330:1336   */\n      dup3\n        /* \"#utility.yul\":1327:1357   */\n      gt\n        /* \"#utility.yul\":1324:1380   */\n      iszero\n      tag_55\n      jumpi\n        /* \"#utility.yul\":1360:1378   */\n      tag_56\n      tag_27\n      jump\t// in\n    tag_56:\n        /* \"#utility.yul\":1324:1380   */\n    tag_55:\n        /* \"#utility.yul\":1410:1414   */\n      0x20\n        /* \"#utility.yul\":1402:1408   */\n      dup3\n        /* \"#utility.yul\":1398:1415   */\n      mul\n        /* \"#utility.yul\":1390:1415   */\n      swap1\n      pop\n        /* \"#utility.yul\":1173:1422   */\n      swap2\n      swap1\n      pop\n      jump\t// out\n        /* \"#utility.yul\":1428:1545   */\n    tag_31:\n        /* \"#utility.yul\":1537:1538   */\n      0x00\n        /* \"#utility.yul\":1534:1535   */\n      dup1\n        /* \"#utility.yul\":1527:1539   */\n      revert\n        /* \"#utility.yul\":1551:1628   */\n    tag_32:\n        /* \"#utility.yul\":1588:1595   */\n      0x00\n        /* \"#utility.yul\":1617:1622   */\n      dup2\n        /* \"#utility.yul\":1606:1622   */\n      swap1\n      pop\n        /* \"#utility.yul\":1551:1628   */\n      swap2\n      swap1\n      pop\n      jump\t// out\n        /* \"#utility.yul\":1634:1756   */\n    tag_33:\n        /* \"#utility.yul\":1707:1731   */\n      tag_60\n        /* \"#utility.yul\":1725:1730   */\n      dup2\n        /* \"#utility.yul\":1707:1731   */\n      tag_32\n      jump\t// in\n    tag_60:\n        /* \"#utility.yul\":1700:1705   */\n      dup2\n        /* \"#utility.yul\":1697:1732   */\n      eq\n        /* \"#utility.yul\":1687:1750   */\n      tag_61\n      jumpi\n        /* \"#utility.yul\":1746:1747   */\n      0x00\n        /* \"#utility.yul\":1743:1744   */\n      dup1\n        /* \"#utility.yul\":1736:1748   */\n      revert\n        /* \"#utility.yul\":1687:1750   */\n    tag_61:\n        /* \"#utility.yul\":1634:1756   */\n      pop\n      jump\t// out\n        /* \"#utility.yul\":1762:1901   */\n    tag_34:\n        /* \"#utility.yul\":1808:1813   */\n      0x00\n        /* \"#utility.yul\":1846:1852   */\n      dup2\n        /* \"#utility.yul\":1833:1853   */\n      calldataload\n        /* \"#utility.yul\":1824:1853   */\n      swap1\n      pop\n        /* \"#utility.yul\":1862:1895   */\n      tag_63\n        /* \"#utility.yul\":1889:1894   */\n      dup2\n        /* \"#utility.yul\":1862:1895   */\n      tag_33\n      jump\t// in\n    tag_63:\n        /* \"#utility.yul\":1762:1901   */\n      swap3\n      swap2\n      pop\n      pop\n      jump\t// out\n        /* \"#utility.yul\":1925:2568   */\n    tag_35:\n        /* \"#utility.yul\":2019:2024   */\n      0x00\n        /* \"#utility.yul\":2044:2123   */\n      tag_65\n        /* \"#utility.yul\":2060:2122   */\n      tag_66\n        /* \"#utility.yul\":2115:2121   */\n      dup5\n        /* \"#utility.yul\":2060:2122   */\n      tag_30\n      jump\t// in\n    tag_66:\n        /* \"#utility.yul\":2044:2123   */\n      tag_29\n      jump\t// in\n    tag_65:\n        /* \"#utility.yul\":2035:2123   */\n      swap1\n      pop\n        /* \"#utility.yul\":2143:2148   */\n      dup1\n        /* \"#utility.yul\":2196:2200   */\n      0x20\n        /* \"#utility.yul\":2188:2194   */\n      dup5\n        /* \"#utility.yul\":2184:2201   */\n      mul\n        /* \"#utility.yul\":2176:2182   */\n      dup4\n        /* \"#utility.yul\":2172:2202   */\n      add\n        /* \"#utility.yul\":2225:2228   */\n      dup6\n        /* \"#utility.yul\":2217:2223   */\n      dup2\n        /* \"#utility.yul\":2214:2229   */\n      gt\n        /* \"#utility.yul\":2211:2333   */\n      iszero\n      tag_67\n      jumpi\n        /* \"#utility.yul\":2244:2323   */\n      tag_68\n      tag_31\n      jump\t// in\n    tag_68:\n        /* \"#utility.yul\":2211:2333   */\n    tag_67:\n        /* \"#utility.yul\":2359:2365   */\n      dup4\n        /* \"#utility.yul\":2342:2562   */\n    tag_69:\n        /* \"#utility.yul\":2376:2382   */\n      dup2\n        /* \"#utility.yul\":2371:2374   */\n      dup2\n        /* \"#utility.yul\":2368:2383   */\n      lt\n        /* \"#utility.yul\":2342:2562   */\n      iszero\n      tag_71\n      jumpi\n        /* \"#utility.yul\":2451:2454   */\n      dup1\n        /* \"#utility.yul\":2480:2517   */\n      tag_72\n        /* \"#utility.yul\":2513:2516   */\n      dup9\n        /* \"#utility.yul\":2501:2511   */\n      dup3\n        /* \"#utility.yul\":2480:2517   */\n      tag_34\n      jump\t// in\n    tag_72:\n        /* \"#utility.yul\":2475:2478   */\n      dup5\n        /* \"#utility.yul\":2468:2518   */\n      mstore\n        /* \"#utility.yul\":2547:2551   */\n      0x20\n        /* \"#utility.yul\":2542:2545   */\n      dup5\n        /* \"#utility.yul\":2538:2552   */\n      add\n        /* \"#utility.yul\":2531:2552   */\n      swap4\n      pop\n        /* \"#utility.yul\":2418:2562   */\n      pop\n        /* \"#utility.yul\":2402:2406   */\n      0x20\n        /* \"#utility.yul\":2397:2400   */\n      dup2\n        /* \"#utility.yul\":2393:2407   */\n      add\n        /* \"#utility.yul\":2386:2407   */\n      swap1\n      pop\n        /* \"#utility.yul\":2342:2562   */\n      jump(tag_69)\n    tag_71:\n        /* \"#utility.yul\":2346:2367   */\n      pop\n        /* \"#utility.yul\":2025:2568   */\n      pop\n      pop\n        /* \"#utility.yul\":1925:2568   */\n      swap4\n      swap3\n      pop\n      pop\n      pop\n      jump\t// out\n        /* \"#utility.yul\":2592:2931   */\n    tag_36:\n        /* \"#utility.yul\":2661:2666   */\n      0x00\n        /* \"#utility.yul\":2710:2713   */\n      dup3\n        /* \"#utility.yul\":2703:2707   */\n      0x1f\n        /* \"#utility.yul\":2695:2701   */\n      dup4\n        /* \"#utility.yul\":2691:2708   */\n      add\n        /* \"#utility.yul\":2687:2714   */\n      slt\n        /* \"#utility.yul\":2677:2799   */\n      tag_74\n      jumpi\n        /* \"#utility.yul\":2718:2797   */\n      tag_75\n      tag_25\n      jump\t// in\n    tag_75:\n        /* \"#utility.yul\":2677:2799   */\n    tag_74:\n        /* \"#utility.yul\":2822:2826   */\n      0x05\n        /* \"#utility.yul\":2844:2925   */\n      tag_76\n        /* \"#utility.yul\":2921:2924   */\n      dup5\n        /* \"#utility.yul\":2913:2919   */\n      dup3\n        /* \"#utility.yul\":2905:2911   */\n      dup6\n        /* \"#utility.yul\":2844:2925   */\n      tag_35\n      jump\t// in\n    tag_76:\n        /* \"#utility.yul\":2835:2925   */\n      swap2\n      pop\n        /* \"#utility.yul\":2667:2931   */\n      pop\n        /* \"#utility.yul\":2592:2931   */\n      swap3\n      swap2\n      pop\n      pop\n      jump\t// out\n        /* \"#utility.yul\":2937:3313   */\n    tag_6:\n        /* \"#utility.yul\":3019:3025   */\n      0x00\n        /* \"#utility.yul\":3068:3071   */\n      0xa0\n        /* \"#utility.yul\":3056:3065   */\n      dup3\n        /* \"#utility.yul\":3047:3054   */\n      dup5\n        /* \"#utility.yul\":3043:3066   */\n      sub\n        /* \"#utility.yul\":3039:3072   */\n      slt\n        /* \"#utility.yul\":3036:3156   */\n      iszero\n      tag_78\n      jumpi\n        /* \"#utility.yul\":3075:3154   */\n      tag_79\n      tag_23\n      jump\t// in\n    tag_79:\n        /* \"#utility.yul\":3036:3156   */\n    tag_78:\n        /* \"#utility.yul\":3195:3196   */\n      0x00\n        /* \"#utility.yul\":3220:3296   */\n      tag_80\n        /* \"#utility.yul\":3288:3295   */\n      dup5\n        /* \"#utility.yul\":3279:3285   */\n      dup3\n        /* \"#utility.yul\":3268:3277   */\n      dup6\n        /* \"#utility.yul\":3264:3286   */\n      add\n        /* \"#utility.yul\":3220:3296   */\n      tag_36\n      jump\t// in\n    tag_80:\n        /* \"#utility.yul\":3210:3296   */\n      swap2\n      pop\n        /* \"#utility.yul\":3166:3306   */\n      pop\n        /* \"#utility.yul\":2937:3313   */\n      swap3\n      swap2\n      pop\n      pop\n      jump\t// out\n        /* \"#utility.yul\":3319:3437   */\n    tag_37:\n        /* \"#utility.yul\":3406:3430   */\n      tag_82\n        /* \"#utility.yul\":3424:3429   */\n      dup2\n        /* \"#utility.yul\":3406:3430   */\n      tag_32\n      jump\t// in\n    tag_82:\n        /* \"#utility.yul\":3401:3404   */\n      dup3\n        /* \"#utility.yul\":3394:3431   */\n      mstore\n        /* \"#utility.yul\":3319:3437   */\n      pop\n      pop\n      jump\t// out\n        /* \"#utility.yul\":3443:3775   */\n    tag_9:\n        /* \"#utility.yul\":3564:3568   */\n      0x00\n        /* \"#utility.yul\":3602:3604   */\n      0x40\n        /* \"#utility.yul\":3591:3600   */\n      dup3\n        /* \"#utility.yul\":3587:3605   */\n      add\n        /* \"#utility.yul\":3579:3605   */\n      swap1\n      pop\n        /* \"#utility.yul\":3615:3686   */\n      tag_84\n        /* \"#utility.yul\":3683:3684   */\n      0x00\n        /* \"#utility.yul\":3672:3681   */\n      dup4\n        /* \"#utility.yul\":3668:3685   */\n      add\n        /* \"#utility.yul\":3659:3665   */\n      dup6\n        /* \"#utility.yul\":3615:3686   */\n      tag_37\n      jump\t// in\n    tag_84:\n        /* \"#utility.yul\":3696:3768   */\n      tag_85\n        /* \"#utility.yul\":3764:3766   */\n      0x20\n        /* \"#utility.yul\":3753:3762   */\n      dup4\n        /* \"#utility.yul\":3749:3767   */\n      add\n        /* \"#utility.yul\":3740:3746   */\n      dup5\n        /* \"#utility.yul\":3696:3768   */\n      tag_37\n      jump\t// in\n    tag_85:\n        /* \"#utility.yul\":3443:3775   */\n      swap4\n      swap3\n      pop\n      pop\n      pop\n      jump\t// out\n        /* \"#utility.yul\":3781:3961   */\n    tag_15:\n        /* \"#utility.yul\":3829:3906   */\n      0x4e487b7100000000000000000000000000000000000000000000000000000000\n        /* \"#utility.yul\":3826:3827   */\n      0x00\n        /* \"#utility.yul\":3819:3907   */\n      mstore\n        /* \"#utility.yul\":3926:3930   */\n      0x32\n        /* \"#utility.yul\":3923:3924   */\n      0x04\n        /* \"#utility.yul\":3916:3931   */\n      mstore\n        /* \"#utility.yul\":3950:3954   */\n      0x24\n        /* \"#utility.yul\":3947:3948   */\n      0x00\n        /* \"#utility.yul\":3940:3955   */\n      revert\n        /* \"#utility.yul\":3967:4147   */\n    tag_38:\n        /* \"#utility.yul\":4015:4092   */\n      0x4e487b7100000000000000000000000000000000000000000000000000000000\n        /* \"#utility.yul\":4012:4013   */\n      0x00\n        /* \"#utility.yul\":4005:4093   */\n      mstore\n        /* \"#utility.yul\":4112:4116   */\n      0x11\n        /* \"#utility.yul\":4109:4110   */\n      0x04\n        /* \"#utility.yul\":4102:4117   */\n      mstore\n        /* \"#utility.yul\":4136:4140   */\n      0x24\n        /* \"#utility.yul\":4133:4134   */\n      0x00\n        /* \"#utility.yul\":4126:4141   */\n      revert\n        /* \"#utility.yul\":4153:4344   */\n    tag_17:\n        /* \"#utility.yul\":4193:4196   */\n      0x00\n        /* \"#utility.yul\":4212:4232   */\n      tag_89\n        /* \"#utility.yul\":4230:4231   */\n      dup3\n        /* \"#utility.yul\":4212:4232   */\n      tag_32\n      jump\t// in\n    tag_89:\n        /* \"#utility.yul\":4207:4232   */\n      swap2\n      pop\n        /* \"#utility.yul\":4246:4266   */\n      tag_90\n        /* \"#utility.yul\":4264:4265   */\n      dup4\n        /* \"#utility.yul\":4246:4266   */\n      tag_32\n      jump\t// in\n    tag_90:\n        /* \"#utility.yul\":4241:4266   */\n      swap3\n      pop\n        /* \"#utility.yul\":4289:4290   */\n      dup3\n        /* \"#utility.yul\":4286:4287   */\n      dup3\n        /* \"#utility.yul\":4282:4291   */\n      add\n        /* \"#utility.yul\":4275:4291   */\n      swap1\n      pop\n        /* \"#utility.yul\":4310:4313   */\n      dup1\n        /* \"#utility.yul\":4307:4308   */\n      dup3\n        /* \"#utility.yul\":4304:4314   */\n      gt\n        /* \"#utility.yul\":4301:4337   */\n      iszero\n      tag_91\n      jumpi\n        /* \"#utility.yul\":4317:4335   */\n      tag_92\n      tag_38\n      jump\t// in\n    tag_92:\n        /* \"#utility.yul\":4301:4337   */\n    tag_91:\n        /* \"#utility.yul\":4153:4344   */\n      swap3\n      swap2\n      pop\n      pop\n      jump\t// out\n        /* \"#utility.yul\":4350:4583   */\n    tag_19:\n        /* \"#utility.yul\":4389:4392   */\n      0x00\n        /* \"#utility.yul\":4412:4436   */\n      tag_94\n        /* \"#utility.yul\":4430:4435   */\n      dup3\n        /* \"#utility.yul\":4412:4436   */\n      tag_32\n      jump\t// in\n    tag_94:\n        /* \"#utility.yul\":4403:4436   */\n      swap2\n      pop\n        /* \"#utility.yul\":4458:4524   */\n      0xffffffffffffffffffffffffffffffffffffffffffffffffffffffffffffffff\n        /* \"#utility.yul\":4451:4456   */\n      dup3\n        /* \"#utility.yul\":4448:4525   */\n      sub\n        /* \"#utility.yul\":4445:4548   */\n      tag_95\n      jumpi\n        /* \"#utility.yul\":4528:4546   */\n      tag_96\n      tag_38\n      jump\t// in\n    tag_96:\n        /* \"#utility.yul\":4445:4548   */\n    tag_95:\n        /* \"#utility.yul\":4575:4576   */\n      0x01\n        /* \"#utility.yul\":4568:4573   */\n      dup3\n        /* \"#utility.yul\":4564:4577   */\n      add\n        /* \"#utility.yul\":4557:4577   */\n      swap1\n      pop\n        /* \"#utility.yul\":4350:4583   */\n      swap2\n      swap1\n      pop\n      jump\t// out\n        /* \"#utility.yul\":4589:4769   */\n    tag_39:\n        /* \"#utility.yul\":4637:4714   */\n      0x4e487b7100000000000000000000000000000000000000000000000000000000\n        /* \"#utility.yul\":4634:4635   */\n      0x00\n        /* \"#utility.yul\":4627:4715   */\n      mstore\n        /* \"#utility.yul\":4734:4738   */\n      0x12\n        /* \"#utility.yul\":4731:4732   */\n      0x04\n        /* \"#utility.yul\":4724:4739   */\n      mstore\n        /* \"#utility.yul\":4758:4762   */\n      0x24\n        /* \"#utility.yul\":4755:4756   */\n      0x00\n        /* \"#utility.yul\":4748:4763   */\n      revert\n        /* \"#utility.yul\":4775:4960   */\n    tag_21:\n        /* \"#utility.yul\":4815:4816   */\n      0x00\n        /* \"#utility.yul\":4832:4852   */\n      tag_99\n        /* \"#utility.yul\":4850:4851   */\n      dup3\n        /* \"#utility.yul\":4832:4852   */\n      tag_32\n      jump\t// in\n    tag_99:\n        /* \"#utility.yul\":4827:4852   */\n      swap2\n      pop\n        /* \"#utility.yul\":4866:4886   */\n      tag_100\n        /* \"#utility.yul\":4884:4885   */\n      dup4\n        /* \"#utility.yul\":4866:4886   */\n      tag_32\n      jump\t// in\n    tag_100:\n        /* \"#utility.yul\":4861:4886   */\n      swap3\n      pop\n        /* \"#utility.yul\":4905:4906   */\n      dup3\n        /* \"#utility.yul\":4895:4930   */\n      tag_101\n      jumpi\n        /* \"#utility.yul\":4910:4928   */\n      tag_102\n      tag_39\n      jump\t// in\n    tag_102:\n        /* \"#utility.yul\":4895:4930   */\n    tag_101:\n        /* \"#utility.yul\":4952:4953   */\n      dup3\n        /* \"#utility.yul\":4949:4950   */\n      dup3\n        /* \"#utility.yul\":4945:4954   */\n      div\n        /* \"#utility.yul\":4940:4954   */\n      swap1\n      pop\n        /* \"#utility.yul\":4775:4960   */\n      swap3\n      swap2\n      pop\n      pop\n      jump\t// out\n\n    auxdata: 0xa26469706673582212203c4e99d0651f27dda2c0f317cc5a322312570310a443665890de2d265fde996b64736f6c63430008120033\n}\n",
				"bytecode": {
					"linkReferences": {},
					"object": "608060405234801561001057600080fd5b50610423806100206000396000f3fe608060405234801561001057600080fd5b506004361061002b5760003560e01c80635849bb1814610030575b600080fd5b61004a6004803603810190610045919061024e565b610061565b60405161005892919061028a565b60405180910390f35b6000806000805b60058110156100a957848160058110610084576100836102b3565b5b6020020151826100949190610311565b915080806100a190610345565b915050610068565b8193506005826100b991906103bc565b92505050915091565b6000604051905090565b600080fd5b600080fd5b6000601f19601f8301169050919050565b7f4e487b7100000000000000000000000000000000000000000000000000000000600052604160045260246000fd5b61011f826100d6565b810181811067ffffffffffffffff8211171561013e5761013d6100e7565b5b80604052505050565b60006101516100c2565b905061015d8282610116565b919050565b600067ffffffffffffffff82111561017d5761017c6100e7565b5b602082029050919050565b600080fd5b6000819050919050565b6101a08161018d565b81146101ab57600080fd5b50565b6000813590506101bd81610197565b92915050565b60006101d66101d184610162565b610147565b905080602084028301858111156101f0576101ef610188565b5b835b81811015610219578061020588826101ae565b8452602084019350506020810190506101f2565b5050509392505050565b600082601f830112610238576102376100d1565b5b60056102458482856101c3565b91505092915050565b600060a08284031215610264576102636100cc565b5b600061027284828501610223565b91505092915050565b6102848161018d565b82525050565b600060408201905061029f600083018561027b565b6102ac602083018461027b565b9392505050565b7f4e487b7100000000000000000000000000000000000000000000000000000000600052603260045260246000fd5b7f4e487b7100000000000000000000000000000000000000000000000000000000600052601160045260246000fd5b600061031c8261018d565b91506103278361018d565b925082820190508082111561033f5761033e6102e2565b5b92915050565b60006103508261018d565b91507fffffffffffffffffffffffffffffffffffffffffffffffffffffffffffffffff8203610382576103816102e2565b5b600182019050919050565b7f4e487b7100000000000000000000000000000000000000000000000000000000600052601260045260246000fd5b60006103c78261018d565b91506103d28361018d565b9250826103e2576103e161038d565b5b82820490509291505056fea26469706673582212203c4e99d0651f27dda2c0f317cc5a322312570310a443665890de2d265fde996b64736f6c63430008120033",
					"opcodes": "PUSH1 0x80 PUSH1 0x40 MSTORE CALLVALUE DUP1 ISZERO PUSH2 0x10 JUMPI PUSH1 0x0 DUP1 REVERT JUMPDEST POP PUSH2 0x423 DUP1 PUSH2 0x20 PUSH1 0x0 CODECOPY PUSH1 0x0 RETURN INVALID PUSH1 0x80 PUSH1 0x40 MSTORE CALLVALUE DUP1 ISZERO PUSH2 0x10 JUMPI PUSH1 0x0 DUP1 REVERT JUMPDEST POP PUSH1 0x4 CALLDATASIZE LT PUSH2 0x2B JUMPI PUSH1 0x0 CALLDATALOAD PUSH1 0xE0 SHR DUP1 PUSH4 0x5849BB18 EQ PUSH2 0x30 JUMPI JUMPDEST PUSH1 0x0 DUP1 REVERT JUMPDEST PUSH2 0x4A PUSH1 0x4 DUP1 CALLDATASIZE SUB DUP2 ADD SWAP1 PUSH2 0x45 SWAP2 SWAP1 PUSH2 0x24E JUMP JUMPDEST PUSH2 0x61 JUMP JUMPDEST PUSH1 0x40 MLOAD PUSH2 0x58 SWAP3 SWAP2 SWAP1 PUSH2 0x28A JUMP JUMPDEST PUSH1 0x40 MLOAD DUP1 SWAP2 SUB SWAP1 RETURN JUMPDEST PUSH1 0x0 DUP1 PUSH1 0x0 DUP1 JUMPDEST PUSH1 0x5 DUP2 LT ISZERO PUSH2 0xA9 JUMPI DUP5 DUP2 PUSH1 0x5 DUP2 LT PUSH2 0x84 JUMPI PUSH2 0x83 PUSH2 0x2B3 JUMP JUMPDEST JUMPDEST PUSH1 0x20 MUL ADD MLOAD DUP3 PUSH2 0x94 SWAP2 SWAP1 PUSH2 0x311 JUMP JUMPDEST SWAP2 POP DUP1 DUP1 PUSH2 0xA1 SWAP1 PUSH2 0x345 JUMP JUMPDEST SWAP2 POP POP PUSH2 0x68 JUMP JUMPDEST DUP2 SWAP4 POP PUSH1 0x5 DUP3 PUSH2 0xB9 SWAP2 SWAP1 PUSH2 0x3BC JUMP JUMPDEST SWAP3 POP POP POP SWAP2 POP SWAP2 JUMP JUMPDEST PUSH1 0x0 PUSH1 0x40 MLOAD SWAP1 POP SWAP1 JUMP JUMPDEST PUSH1 0x0 DUP1 REVERT JUMPDEST PUSH1 0x0 DUP1 REVERT JUMPDEST PUSH1 0x0 PUSH1 0x1F NOT PUSH1 0x1F DUP4 ADD AND SWAP1 POP SWAP2 SWAP1 POP JUMP JUMPDEST PUSH32 0x4E487B7100000000000000000000000000000000000000000000000000000000 PUSH1 0x0 MSTORE PUSH1 0x41 PUSH1 0x4 MSTORE PUSH1 0x24 PUSH1 0x0 REVERT JUMPDEST PUSH2 0x11F DUP3 PUSH2 0xD6 JUMP JUMPDEST DUP2 ADD DUP2 DUP2 LT PUSH8 0xFFFFFFFFFFFFFFFF DUP3 GT OR ISZERO PUSH2 0x13E JUMPI PUSH2 0x13D PUSH2 0xE7 JUMP JUMPDEST JUMPDEST DUP1 PUSH1 0x40 MSTORE POP POP POP JUMP JUMPDEST PUSH1 0x0 PUSH2 0x151 PUSH2 0xC2 JUMP JUMPDEST SWAP1 POP PUSH2 0x15D DUP3 DUP3 PUSH2 0x116 JUMP JUMPDEST SWAP2 SWAP1 POP JUMP JUMPDEST PUSH1 0x0 PUSH8 0xFFFFFFFFFFFFFFFF DUP3 GT ISZERO PUSH2 0x17D JUMPI PUSH2 0x17C PUSH2 0xE7 JUMP JUMPDEST JUMPDEST PUSH1 0x20 DUP3 MUL SWAP1 POP SWAP2 SWAP1 POP JUMP JUMPDEST PUSH1 0x0 DUP1 REVERT JUMPDEST PUSH1 0x0 DUP2 SWAP1 POP SWAP2 SWAP1 POP JUMP JUMPDEST PUSH2 0x1A0 DUP2 PUSH2 0x18D JUMP JUMPDEST DUP2 EQ PUSH2 0x1AB JUMPI PUSH1 0x0 DUP1 REVERT JUMPDEST POP JUMP JUMPDEST PUSH1 0x0 DUP2 CALLDATALOAD SWAP1 POP PUSH2 0x1BD DUP2 PUSH2 0x197 JUMP JUMPDEST SWAP3 SWAP2 POP POP JUMP JUMPDEST PUSH1 0x0 PUSH2 0x1D6 PUSH2 0x1D1 DUP5 PUSH2 0x162 JUMP JUMPDEST PUSH2 0x147 JUMP JUMPDEST SWAP1 POP DUP1 PUSH1 0x20 DUP5 MUL DUP4 ADD DUP6 DUP2 GT ISZERO PUSH2 0x1F0 JUMPI PUSH2 0x1EF PUSH2 0x188 JUMP JUMPDEST JUMPDEST DUP4 JUMPDEST DUP2 DUP2 LT ISZERO PUSH2 0x219 JUMPI DUP1 PUSH2 0x205 DUP9 DUP3 PUSH2 0x1AE JUMP JUMPDEST DUP5 MSTORE PUSH1 0x20 DUP5 ADD SWAP4 POP POP PUSH1 0x20 DUP2 ADD SWAP1 POP PUSH2 0x1F2 JUMP JUMPDEST POP POP POP SWAP4 SWAP3 POP POP POP JUMP JUMPDEST PUSH1 0x0 DUP3 PUSH1 0x1F DUP4 ADD SLT PUSH2 0x238 JUMPI PUSH2 0x237 PUSH2 0xD1 JUMP JUMPDEST JUMPDEST PUSH1 0x5 PUSH2 0x245 DUP5 DUP3 DUP6 PUSH2 0x1C3 JUMP JUMPDEST SWAP2 POP POP SWAP3 SWAP2 POP POP JUMP JUMPDEST PUSH1 0x0 PUSH1 0xA0 DUP3 DUP5 SUB SLT ISZERO PUSH2 0x264 JUMPI PUSH2 0x263 PUSH2 0xCC JUMP JUMPDEST JUMPDEST PUSH1 0x0 PUSH2 0x272 DUP5 DUP3 DUP6 ADD PUSH2 0x223 JUMP JUMPDEST SWAP2 POP POP SWAP3 SWAP2 POP POP JUMP JUMPDEST PUSH2 0x284 DUP2 PUSH2 0x18D JUMP JUMPDEST DUP3 MSTORE POP POP JUMP JUMPDEST PUSH1 0x0 PUSH1 0x40 DUP3 ADD SWAP1 POP PUSH2 0x29F PUSH1 0x0 DUP4 ADD DUP6 PUSH2 0x27B JUMP JUMPDEST PUSH2 0x2AC PUSH1 0x20 DUP4 ADD DUP5 PUSH2 0x27B JUMP JUMPDEST SWAP4 SWAP3 POP POP POP JUMP JUMPDEST PUSH32 0x4E487B7100000000000000000000000000000000000000000000000000000000 PUSH1 0x0 MSTORE PUSH1 0x32 PUSH1 0x4 MSTORE PUSH1 0x24 PUSH1 0x0 REVERT JUMPDEST PUSH32 0x4E487B7100000000000000000000000000000000000000000000000000000000 PUSH1 0x0 MSTORE PUSH1 0x11 PUSH1 0x4 MSTORE PUSH1 0x24 PUSH1 0x0 REVERT JUMPDEST PUSH1 0x0 PUSH2 0x31C DUP3 PUSH2 0x18D JUMP JUMPDEST SWAP2 POP PUSH2 0x327 DUP4 PUSH2 0x18D JUMP JUMPDEST SWAP3 POP DUP3 DUP3 ADD SWAP1 POP DUP1 DUP3 GT ISZERO PUSH2 0x33F JUMPI PUSH2 0x33E PUSH2 0x2E2 JUMP JUMPDEST JUMPDEST SWAP3 SWAP2 POP POP JUMP JUMPDEST PUSH1 0x0 PUSH2 0x350 DUP3 PUSH2 0x18D JUMP JUMPDEST SWAP2 POP PUSH32 0xFFFFFFFFFFFFFFFFFFFFFFFFFFFFFFFFFFFFFFFFFFFFFFFFFFFFFFFFFFFFFFFF DUP3 SUB PUSH2 0x382 JUMPI PUSH2 0x381 PUSH2 0x2E2 JUMP JUMPDEST JUMPDEST PUSH1 0x1 DUP3 ADD SWAP1 POP SWAP2 SWAP1 POP JUMP JUMPDEST PUSH32 0x4E487B7100000000000000000000000000000000000000000000000000000000 PUSH1 0x0 MSTORE PUSH1 0x12 PUSH1 0x4 MSTORE PUSH1 0x24 PUSH1 0x0 REVERT JUMPDEST PUSH1 0x0 PUSH2 0x3C7 DUP3 PUSH2 0x18D JUMP JUMPDEST SWAP2 POP PUSH2 0x3D2 DUP4 PUSH2 0x18D JUMP JUMPDEST SWAP3 POP DUP3 PUSH2 0x3E2 JUMPI PUSH2 0x3E1 PUSH2 0x38D JUMP JUMPDEST JUMPDEST DUP3 DUP3 DIV SWAP1 POP SWAP3 SWAP2 POP POP JUMP INVALID LOG2 PUSH5 0x6970667358 0x22 SLT KECCAK256 EXTCODECOPY 0x4E SWAP10 0xD0 PUSH6 0x1F27DDA2C0F3 OR 0xCC GAS ORIGIN 0x23 SLT JUMPI SUB LT LOG4 NUMBER PUSH7 0x5890DE2D265FDE SWAP10 PUSH12 0x64736F6C6343000812003300 "
				},
				"gasEstimates": {
					"creation": {
						"codeDepositCost": "211800",
						"executionCost": "257",
						"totalCost": "212057"
					},
					"external": {
						"calculateSumAndAverage(uint256[5])": "infinite"
					}
				},
				"methodIdentifiers": {
					"calculateSumAndAverage(uint256[5])": "5849bb18"
				}
			},
			"storageLayout": {
				"storage": [],
				"types": null
			},
			"userdoc": {
				"kind": "user",
				"methods": {},
				"version": 1
			}
		}
	}
}