{
	"LABS 4 Aug/Task 7 lab4.sol": {
		"ForLoop": {
			"abi": [
				{
					"inputs": [
						{
							"internalType": "uint256",
							"name": "",
							"type": "uint256"
						}
					],
					"name": "arr",
					"outputs": [
						{
							"internalType": "int256",
							"name": "",
							"type": "int256"
						}
					],
					"stateMutability": "view",
					"type": "function"
				},
				{
					"inputs": [],
					"name": "getnegarr",
					"outputs": [
						{
							"internalType": "int256[]",
							"name": "",
							"type": "int256[]"
						}
					],
					"stateMutability": "view",
					"type": "function"
				},
				{
					"inputs": [],
					"name": "getposit",
					"outputs": [
						{
							"internalType": "int256[]",
							"name": "",
							"type": "int256[]"
						}
					],
					"stateMutability": "view",
					"type": "function"
				},
				{
					"inputs": [],
					"name": "negativepart",
					"outputs": [],
					"stateMutability": "nonpayable",
					"type": "function"
				},
				{
					"inputs": [
						{
							"internalType": "uint256",
							"name": "",
							"type": "uint256"
						}
					],
					"name": "positarr",
					"outputs": [
						{
							"internalType": "int256",
							"name": "",
							"type": "int256"
						}
					],
					"stateMutability": "view",
					"type": "function"
				},
				{
					"inputs": [],
					"name": "positivepart",
					"outputs": [],
					"stateMutability": "nonpayable",
					"type": "function"
				}
			],
			"devdoc": {
				"kind": "dev",
				"methods": {},
				"version": 1
			},
			"evm": {
				"assembly": "    /* \"LABS 4 Aug/Task 7 lab4.sol\":59:605  contract ForLoop{... */\n  mstore(0x40, 0x80)\n    /* \"LABS 4 Aug/Task 7 lab4.sol\":78:115  int[5] public arr = [-9, 8, 7, -2, 1] */\n  mload(0x40)\n  dup1\n  0xa0\n  add\n  0x40\n  mstore\n  dup1\n    /* \"LABS 4 Aug/Task 7 lab4.sol\":99:101  -9 */\n  0xfffffffffffffffffffffffffffffffffffffffffffffffffffffffffffffff7\n    /* \"LABS 4 Aug/Task 7 lab4.sol\":78:115  int[5] public arr = [-9, 8, 7, -2, 1] */\n  0x00\n  signextend\n  dup2\n  mstore\n  0x20\n  add\n    /* \"LABS 4 Aug/Task 7 lab4.sol\":103:104  8 */\n  0x08\n    /* \"LABS 4 Aug/Task 7 lab4.sol\":78:115  int[5] public arr = [-9, 8, 7, -2, 1] */\n  0x00\n  signextend\n  dup2\n  mstore\n  0x20\n  add\n    /* \"LABS 4 Aug/Task 7 lab4.sol\":106:107  7 */\n  0x07\n    /* \"LABS 4 Aug/Task 7 lab4.sol\":78:115  int[5] public arr = [-9, 8, 7, -2, 1] */\n  0x00\n  signextend\n  dup2\n  mstore\n  0x20\n  add\n    /* \"LABS 4 Aug/Task 7 lab4.sol\":109:111  -2 */\n  0xfffffffffffffffffffffffffffffffffffffffffffffffffffffffffffffffe\n    /* \"LABS 4 Aug/Task 7 lab4.sol\":78:115  int[5] public arr = [-9, 8, 7, -2, 1] */\n  0x00\n  signextend\n  dup2\n  mstore\n  0x20\n  add\n    /* \"LABS 4 Aug/Task 7 lab4.sol\":113:114  1 */\n  0x01\n    /* \"LABS 4 Aug/Task 7 lab4.sol\":78:115  int[5] public arr = [-9, 8, 7, -2, 1] */\n  0x00\n  signextend\n  dup2\n  mstore\n  pop\n  0x00\n  swap1\n  0x05\n  tag_1\n  swap3\n  swap2\n  swap1\n  tag_2\n  jump\t// in\ntag_1:\n  pop\n    /* \"LABS 4 Aug/Task 7 lab4.sol\":59:605  contract ForLoop{... */\n  callvalue\n  dup1\n  iszero\n  tag_3\n  jumpi\n  0x00\n  dup1\n  revert\ntag_3:\n  pop\n  jump(tag_4)\ntag_2:\n  dup3\n  0x05\n  dup2\n  add\n  swap3\n  dup3\n  iszero\n  tag_5\n  jumpi\n  swap2\n  0x20\n  mul\n  dup3\n  add\ntag_6:\n  dup3\n  dup2\n  gt\n  iszero\n  tag_7\n  jumpi\n  dup3\n  mload\n  dup3\n  swap1\n  0x00\n  signextend\n  swap1\n  sstore\n  swap2\n  0x20\n  add\n  swap2\n  swap1\n  0x01\n  add\n  swap1\n  jump(tag_6)\ntag_7:\ntag_5:\n  pop\n  swap1\n  pop\n  tag_8\n  swap2\n  swap1\n  tag_9\n  jump\t// in\ntag_8:\n  pop\n  swap1\n  jump\t// out\ntag_9:\ntag_10:\n  dup1\n  dup3\n  gt\n  iszero\n  tag_11\n  jumpi\n  0x00\n  dup2\n  0x00\n  swap1\n  sstore\n  pop\n  0x01\n  add\n  jump(tag_10)\ntag_11:\n  pop\n  swap1\n  jump\t// out\ntag_4:\n  dataSize(sub_0)\n  dup1\n  dataOffset(sub_0)\n  0x00\n  codecopy\n  0x00\n  return\nstop\n\nsub_0: assembly {\n        /* \"LABS 4 Aug/Task 7 lab4.sol\":59:605  contract ForLoop{... */\n      mstore(0x40, 0x80)\n      callvalue\n      dup1\n      iszero\n      tag_1\n      jumpi\n      0x00\n      dup1\n      revert\n    tag_1:\n      pop\n      jumpi(tag_2, lt(calldatasize, 0x04))\n      shr(0xe0, calldataload(0x00))\n      dup1\n      0x4feb2216\n      eq\n      tag_3\n      jumpi\n      dup1\n      0x52af25ce\n      eq\n      tag_4\n      jumpi\n      dup1\n      0x71e5ee5f\n      eq\n      tag_5\n      jumpi\n      dup1\n      0xa80f7f05\n      eq\n      tag_6\n      jumpi\n      dup1\n      0xaf7a5369\n      eq\n      tag_7\n      jumpi\n      dup1\n      0xf9e40dc2\n      eq\n      tag_8\n      jumpi\n    tag_2:\n      0x00\n      dup1\n      revert\n        /* \"LABS 4 Aug/Task 7 lab4.sol\":118:139  int[] public positarr */\n    tag_3:\n      tag_9\n      0x04\n      dup1\n      calldatasize\n      sub\n      dup2\n      add\n      swap1\n      tag_10\n      swap2\n      swap1\n      tag_11\n      jump\t// in\n    tag_10:\n      tag_12\n      jump\t// in\n    tag_9:\n      mload(0x40)\n      tag_13\n      swap2\n      swap1\n      tag_14\n      jump\t// in\n    tag_13:\n      mload(0x40)\n      dup1\n      swap2\n      sub\n      swap1\n      return\n        /* \"LABS 4 Aug/Task 7 lab4.sol\":527:602  function getposit() public view returns(int[] memory){... */\n    tag_4:\n      tag_15\n      tag_16\n      jump\t// in\n    tag_15:\n      mload(0x40)\n      tag_17\n      swap2\n      swap1\n      tag_18\n      jump\t// in\n    tag_17:\n      mload(0x40)\n      dup1\n      swap2\n      sub\n      swap1\n      return\n        /* \"LABS 4 Aug/Task 7 lab4.sol\":78:115  int[5] public arr = [-9, 8, 7, -2, 1] */\n    tag_5:\n      tag_19\n      0x04\n      dup1\n      calldatasize\n      sub\n      dup2\n      add\n      swap1\n      tag_20\n      swap2\n      swap1\n      tag_11\n      jump\t// in\n    tag_20:\n      tag_21\n      jump\t// in\n    tag_19:\n      mload(0x40)\n      tag_22\n      swap2\n      swap1\n      tag_14\n      jump\t// in\n    tag_22:\n      mload(0x40)\n      dup1\n      swap2\n      sub\n      swap1\n      return\n        /* \"LABS 4 Aug/Task 7 lab4.sol\":403:525  function  positivepart() public{... */\n    tag_6:\n      tag_23\n      tag_24\n      jump\t// in\n    tag_23:\n      stop\n        /* \"LABS 4 Aug/Task 7 lab4.sol\":157:312  function negativepart() public {... */\n    tag_7:\n      tag_25\n      tag_26\n      jump\t// in\n    tag_25:\n      stop\n        /* \"LABS 4 Aug/Task 7 lab4.sol\":317:401  function getnegarr() public view returns(int[] memory){... */\n    tag_8:\n      tag_27\n      tag_28\n      jump\t// in\n    tag_27:\n      mload(0x40)\n      tag_29\n      swap2\n      swap1\n      tag_18\n      jump\t// in\n    tag_29:\n      mload(0x40)\n      dup1\n      swap2\n      sub\n      swap1\n      return\n        /* \"LABS 4 Aug/Task 7 lab4.sol\":118:139  int[] public positarr */\n    tag_12:\n      0x05\n      dup2\n      dup2\n      sload\n      dup2\n      lt\n      tag_30\n      jumpi\n      0x00\n      dup1\n      revert\n    tag_30:\n      swap1\n      0x00\n      mstore\n      keccak256(0x00, 0x20)\n      add\n      0x00\n      swap2\n      pop\n      swap1\n      pop\n      sload\n      dup2\n      jump\t// out\n        /* \"LABS 4 Aug/Task 7 lab4.sol\":527:602  function getposit() public view returns(int[] memory){... */\n    tag_16:\n        /* \"LABS 4 Aug/Task 7 lab4.sol\":567:579  int[] memory */\n      0x60\n        /* \"LABS 4 Aug/Task 7 lab4.sol\":590:598  positarr */\n      0x05\n        /* \"LABS 4 Aug/Task 7 lab4.sol\":583:598  return positarr */\n      dup1\n      sload\n      dup1\n      0x20\n      mul\n      0x20\n      add\n      mload(0x40)\n      swap1\n      dup2\n      add\n      0x40\n      mstore\n      dup1\n      swap3\n      swap2\n      swap1\n      dup2\n      dup2\n      mstore\n      0x20\n      add\n      dup3\n      dup1\n      sload\n      dup1\n      iszero\n      tag_33\n      jumpi\n      0x20\n      mul\n      dup3\n      add\n      swap2\n      swap1\n      0x00\n      mstore\n      keccak256(0x00, 0x20)\n      swap1\n    tag_34:\n      dup2\n      sload\n      dup2\n      mstore\n      0x20\n      add\n      swap1\n      0x01\n      add\n      swap1\n      dup1\n      dup4\n      gt\n      tag_34\n      jumpi\n    tag_33:\n      pop\n      pop\n      pop\n      pop\n      pop\n      swap1\n      pop\n        /* \"LABS 4 Aug/Task 7 lab4.sol\":527:602  function getposit() public view returns(int[] memory){... */\n      swap1\n      jump\t// out\n        /* \"LABS 4 Aug/Task 7 lab4.sol\":78:115  int[5] public arr = [-9, 8, 7, -2, 1] */\n    tag_21:\n      0x00\n      dup2\n      0x05\n      dup2\n      lt\n      tag_35\n      jumpi\n      0x00\n      dup1\n      revert\n    tag_35:\n      add\n      0x00\n      swap2\n      pop\n      swap1\n      pop\n      sload\n      dup2\n      jump\t// out\n        /* \"LABS 4 Aug/Task 7 lab4.sol\":403:525  function  positivepart() public{... */\n    tag_24:\n        /* \"LABS 4 Aug/Task 7 lab4.sol\":441:447  uint i */\n      0x00\n        /* \"LABS 4 Aug/Task 7 lab4.sol\":437:522  for(uint i = 0; i < arr.length; i++){... */\n    tag_38:\n        /* \"LABS 4 Aug/Task 7 lab4.sol\":457:467  arr.length */\n      0x05\n        /* \"LABS 4 Aug/Task 7 lab4.sol\":453:454  i */\n      dup2\n        /* \"LABS 4 Aug/Task 7 lab4.sol\":453:467  i < arr.length */\n      lt\n        /* \"LABS 4 Aug/Task 7 lab4.sol\":437:522  for(uint i = 0; i < arr.length; i++){... */\n      iszero\n      tag_39\n      jumpi\n        /* \"LABS 4 Aug/Task 7 lab4.sol\":489:490  0 */\n      0x00\n        /* \"LABS 4 Aug/Task 7 lab4.sol\":479:482  arr */\n      dup1\n        /* \"LABS 4 Aug/Task 7 lab4.sol\":483:484  i */\n      dup3\n        /* \"LABS 4 Aug/Task 7 lab4.sol\":479:485  arr[i] */\n      0x05\n      dup2\n      lt\n      tag_41\n      jumpi\n      tag_42\n      tag_43\n      jump\t// in\n    tag_42:\n    tag_41:\n      add\n      sload\n        /* \"LABS 4 Aug/Task 7 lab4.sol\":479:490  arr[i] >= 0 */\n      slt\n        /* \"LABS 4 Aug/Task 7 lab4.sol\":476:519  if(arr[i] >= 0){... */\n      tag_45\n      jumpi\n        /* \"LABS 4 Aug/Task 7 lab4.sol\":494:502  positarr */\n      0x05\n        /* \"LABS 4 Aug/Task 7 lab4.sol\":508:511  arr */\n      0x00\n        /* \"LABS 4 Aug/Task 7 lab4.sol\":512:513  i */\n      dup3\n        /* \"LABS 4 Aug/Task 7 lab4.sol\":508:514  arr[i] */\n      0x05\n      dup2\n      lt\n      tag_46\n      jumpi\n      tag_47\n      tag_43\n      jump\t// in\n    tag_47:\n    tag_46:\n      add\n      sload\n        /* \"LABS 4 Aug/Task 7 lab4.sol\":494:515  positarr.push(arr[i]) */\n      swap1\n      dup1\n      0x01\n      dup2\n      sload\n      add\n      dup1\n      dup3\n      sstore\n      dup1\n      swap2\n      pop\n      pop\n      0x01\n      swap1\n      sub\n      swap1\n      0x00\n      mstore\n      keccak256(0x00, 0x20)\n      add\n      0x00\n      swap1\n      swap2\n      swap1\n      swap2\n      swap1\n      swap2\n      pop\n      sstore\n        /* \"LABS 4 Aug/Task 7 lab4.sol\":476:519  if(arr[i] >= 0){... */\n    tag_45:\n        /* \"LABS 4 Aug/Task 7 lab4.sol\":469:472  i++ */\n      dup1\n      dup1\n      tag_50\n      swap1\n      tag_51\n      jump\t// in\n    tag_50:\n      swap2\n      pop\n      pop\n        /* \"LABS 4 Aug/Task 7 lab4.sol\":437:522  for(uint i = 0; i < arr.length; i++){... */\n      jump(tag_38)\n    tag_39:\n      pop\n        /* \"LABS 4 Aug/Task 7 lab4.sol\":403:525  function  positivepart() public{... */\n      jump\t// out\n        /* \"LABS 4 Aug/Task 7 lab4.sol\":157:312  function negativepart() public {... */\n    tag_26:\n        /* \"LABS 4 Aug/Task 7 lab4.sol\":198:204  uint i */\n      0x00\n        /* \"LABS 4 Aug/Task 7 lab4.sol\":194:306  for(uint i = 0; i < arr.length; i++){... */\n    tag_53:\n        /* \"LABS 4 Aug/Task 7 lab4.sol\":214:224  arr.length */\n      0x05\n        /* \"LABS 4 Aug/Task 7 lab4.sol\":210:211  i */\n      dup2\n        /* \"LABS 4 Aug/Task 7 lab4.sol\":210:224  i < arr.length */\n      lt\n        /* \"LABS 4 Aug/Task 7 lab4.sol\":194:306  for(uint i = 0; i < arr.length; i++){... */\n      iszero\n      tag_54\n      jumpi\n        /* \"LABS 4 Aug/Task 7 lab4.sol\":252:253  0 */\n      0x00\n        /* \"LABS 4 Aug/Task 7 lab4.sol\":243:246  arr */\n      dup1\n        /* \"LABS 4 Aug/Task 7 lab4.sol\":247:248  i */\n      dup3\n        /* \"LABS 4 Aug/Task 7 lab4.sol\":243:249  arr[i] */\n      0x05\n      dup2\n      lt\n      tag_56\n      jumpi\n      tag_57\n      tag_43\n      jump\t// in\n    tag_57:\n    tag_56:\n      add\n      sload\n        /* \"LABS 4 Aug/Task 7 lab4.sol\":243:253  arr[i] < 0 */\n      slt\n        /* \"LABS 4 Aug/Task 7 lab4.sol\":240:298  if(arr[i] < 0){... */\n      iszero\n      tag_59\n      jumpi\n        /* \"LABS 4 Aug/Task 7 lab4.sol\":268:274  negarr */\n      0x06\n        /* \"LABS 4 Aug/Task 7 lab4.sol\":280:283  arr */\n      0x00\n        /* \"LABS 4 Aug/Task 7 lab4.sol\":284:285  i */\n      dup3\n        /* \"LABS 4 Aug/Task 7 lab4.sol\":280:286  arr[i] */\n      0x05\n      dup2\n      lt\n      tag_60\n      jumpi\n      tag_61\n      tag_43\n      jump\t// in\n    tag_61:\n    tag_60:\n      add\n      sload\n        /* \"LABS 4 Aug/Task 7 lab4.sol\":268:287  negarr.push(arr[i]) */\n      swap1\n      dup1\n      0x01\n      dup2\n      sload\n      add\n      dup1\n      dup3\n      sstore\n      dup1\n      swap2\n      pop\n      pop\n      0x01\n      swap1\n      sub\n      swap1\n      0x00\n      mstore\n      keccak256(0x00, 0x20)\n      add\n      0x00\n      swap1\n      swap2\n      swap1\n      swap2\n      swap1\n      swap2\n      pop\n      sstore\n        /* \"LABS 4 Aug/Task 7 lab4.sol\":240:298  if(arr[i] < 0){... */\n    tag_59:\n        /* \"LABS 4 Aug/Task 7 lab4.sol\":226:229  i++ */\n      dup1\n      dup1\n      tag_64\n      swap1\n      tag_51\n      jump\t// in\n    tag_64:\n      swap2\n      pop\n      pop\n        /* \"LABS 4 Aug/Task 7 lab4.sol\":194:306  for(uint i = 0; i < arr.length; i++){... */\n      jump(tag_53)\n    tag_54:\n      pop\n        /* \"LABS 4 Aug/Task 7 lab4.sol\":157:312  function negativepart() public {... */\n      jump\t// out\n        /* \"LABS 4 Aug/Task 7 lab4.sol\":317:401  function getnegarr() public view returns(int[] memory){... */\n    tag_28:\n        /* \"LABS 4 Aug/Task 7 lab4.sol\":358:370  int[] memory */\n      0x60\n        /* \"LABS 4 Aug/Task 7 lab4.sol\":388:394  negarr */\n      0x06\n        /* \"LABS 4 Aug/Task 7 lab4.sol\":381:394  return negarr */\n      dup1\n      sload\n      dup1\n      0x20\n      mul\n      0x20\n      add\n      mload(0x40)\n      swap1\n      dup2\n      add\n      0x40\n      mstore\n      dup1\n      swap3\n      swap2\n      swap1\n      dup2\n      dup2\n      mstore\n      0x20\n      add\n      dup3\n      dup1\n      sload\n      dup1\n      iszero\n      tag_66\n      jumpi\n      0x20\n      mul\n      dup3\n      add\n      swap2\n      swap1\n      0x00\n      mstore\n      keccak256(0x00, 0x20)\n      swap1\n    tag_67:\n      dup2\n      sload\n      dup2\n      mstore\n      0x20\n      add\n      swap1\n      0x01\n      add\n      swap1\n      dup1\n      dup4\n      gt\n      tag_67\n      jumpi\n    tag_66:\n      pop\n      pop\n      pop\n      pop\n      pop\n      swap1\n      pop\n        /* \"LABS 4 Aug/Task 7 lab4.sol\":317:401  function getnegarr() public view returns(int[] memory){... */\n      swap1\n      jump\t// out\n        /* \"#utility.yul\":88:205   */\n    tag_69:\n        /* \"#utility.yul\":197:198   */\n      0x00\n        /* \"#utility.yul\":194:195   */\n      dup1\n        /* \"#utility.yul\":187:199   */\n      revert\n        /* \"#utility.yul\":334:411   */\n    tag_71:\n        /* \"#utility.yul\":371:378   */\n      0x00\n        /* \"#utility.yul\":400:405   */\n      dup2\n        /* \"#utility.yul\":389:405   */\n      swap1\n      pop\n        /* \"#utility.yul\":334:411   */\n      swap2\n      swap1\n      pop\n      jump\t// out\n        /* \"#utility.yul\":417:539   */\n    tag_72:\n        /* \"#utility.yul\":490:514   */\n      tag_90\n        /* \"#utility.yul\":508:513   */\n      dup2\n        /* \"#utility.yul\":490:514   */\n      tag_71\n      jump\t// in\n    tag_90:\n        /* \"#utility.yul\":483:488   */\n      dup2\n        /* \"#utility.yul\":480:515   */\n      eq\n        /* \"#utility.yul\":470:533   */\n      tag_91\n      jumpi\n        /* \"#utility.yul\":529:530   */\n      0x00\n        /* \"#utility.yul\":526:527   */\n      dup1\n        /* \"#utility.yul\":519:531   */\n      revert\n        /* \"#utility.yul\":470:533   */\n    tag_91:\n        /* \"#utility.yul\":417:539   */\n      pop\n      jump\t// out\n        /* \"#utility.yul\":545:684   */\n    tag_73:\n        /* \"#utility.yul\":591:596   */\n      0x00\n        /* \"#utility.yul\":629:635   */\n      dup2\n        /* \"#utility.yul\":616:636   */\n      calldataload\n        /* \"#utility.yul\":607:636   */\n      swap1\n      pop\n        /* \"#utility.yul\":645:678   */\n      tag_93\n        /* \"#utility.yul\":672:677   */\n      dup2\n        /* \"#utility.yul\":645:678   */\n      tag_72\n      jump\t// in\n    tag_93:\n        /* \"#utility.yul\":545:684   */\n      swap3\n      swap2\n      pop\n      pop\n      jump\t// out\n        /* \"#utility.yul\":690:1019   */\n    tag_11:\n        /* \"#utility.yul\":749:755   */\n      0x00\n        /* \"#utility.yul\":798:800   */\n      0x20\n        /* \"#utility.yul\":786:795   */\n      dup3\n        /* \"#utility.yul\":777:784   */\n      dup5\n        /* \"#utility.yul\":773:796   */\n      sub\n        /* \"#utility.yul\":769:801   */\n      slt\n        /* \"#utility.yul\":766:885   */\n      iszero\n      tag_95\n      jumpi\n        /* \"#utility.yul\":804:883   */\n      tag_96\n      tag_69\n      jump\t// in\n    tag_96:\n        /* \"#utility.yul\":766:885   */\n    tag_95:\n        /* \"#utility.yul\":924:925   */\n      0x00\n        /* \"#utility.yul\":949:1002   */\n      tag_97\n        /* \"#utility.yul\":994:1001   */\n      dup5\n        /* \"#utility.yul\":985:991   */\n      dup3\n        /* \"#utility.yul\":974:983   */\n      dup6\n        /* \"#utility.yul\":970:992   */\n      add\n        /* \"#utility.yul\":949:1002   */\n      tag_73\n      jump\t// in\n    tag_97:\n        /* \"#utility.yul\":939:1002   */\n      swap2\n      pop\n        /* \"#utility.yul\":895:1012   */\n      pop\n        /* \"#utility.yul\":690:1019   */\n      swap3\n      swap2\n      pop\n      pop\n      jump\t// out\n        /* \"#utility.yul\":1025:1101   */\n    tag_74:\n        /* \"#utility.yul\":1061:1068   */\n      0x00\n        /* \"#utility.yul\":1090:1095   */\n      dup2\n        /* \"#utility.yul\":1079:1095   */\n      swap1\n      pop\n        /* \"#utility.yul\":1025:1101   */\n      swap2\n      swap1\n      pop\n      jump\t// out\n        /* \"#utility.yul\":1107:1222   */\n    tag_75:\n        /* \"#utility.yul\":1192:1215   */\n      tag_100\n        /* \"#utility.yul\":1209:1214   */\n      dup2\n        /* \"#utility.yul\":1192:1215   */\n      tag_74\n      jump\t// in\n    tag_100:\n        /* \"#utility.yul\":1187:1190   */\n      dup3\n        /* \"#utility.yul\":1180:1216   */\n      mstore\n        /* \"#utility.yul\":1107:1222   */\n      pop\n      pop\n      jump\t// out\n        /* \"#utility.yul\":1228:1446   */\n    tag_14:\n        /* \"#utility.yul\":1319:1323   */\n      0x00\n        /* \"#utility.yul\":1357:1359   */\n      0x20\n        /* \"#utility.yul\":1346:1355   */\n      dup3\n        /* \"#utility.yul\":1342:1360   */\n      add\n        /* \"#utility.yul\":1334:1360   */\n      swap1\n      pop\n        /* \"#utility.yul\":1370:1439   */\n      tag_102\n        /* \"#utility.yul\":1436:1437   */\n      0x00\n        /* \"#utility.yul\":1425:1434   */\n      dup4\n        /* \"#utility.yul\":1421:1438   */\n      add\n        /* \"#utility.yul\":1412:1418   */\n      dup5\n        /* \"#utility.yul\":1370:1439   */\n      tag_75\n      jump\t// in\n    tag_102:\n        /* \"#utility.yul\":1228:1446   */\n      swap3\n      swap2\n      pop\n      pop\n      jump\t// out\n        /* \"#utility.yul\":1452:1565   */\n    tag_76:\n        /* \"#utility.yul\":1518:1524   */\n      0x00\n        /* \"#utility.yul\":1552:1557   */\n      dup2\n        /* \"#utility.yul\":1546:1558   */\n      mload\n        /* \"#utility.yul\":1536:1558   */\n      swap1\n      pop\n        /* \"#utility.yul\":1452:1565   */\n      swap2\n      swap1\n      pop\n      jump\t// out\n        /* \"#utility.yul\":1571:1754   */\n    tag_77:\n        /* \"#utility.yul\":1669:1680   */\n      0x00\n        /* \"#utility.yul\":1703:1709   */\n      dup3\n        /* \"#utility.yul\":1698:1701   */\n      dup3\n        /* \"#utility.yul\":1691:1710   */\n      mstore\n        /* \"#utility.yul\":1743:1747   */\n      0x20\n        /* \"#utility.yul\":1738:1741   */\n      dup3\n        /* \"#utility.yul\":1734:1748   */\n      add\n        /* \"#utility.yul\":1719:1748   */\n      swap1\n      pop\n        /* \"#utility.yul\":1571:1754   */\n      swap3\n      swap2\n      pop\n      pop\n      jump\t// out\n        /* \"#utility.yul\":1760:1891   */\n    tag_78:\n        /* \"#utility.yul\":1826:1830   */\n      0x00\n        /* \"#utility.yul\":1849:1852   */\n      dup2\n        /* \"#utility.yul\":1841:1852   */\n      swap1\n      pop\n        /* \"#utility.yul\":1879:1883   */\n      0x20\n        /* \"#utility.yul\":1874:1877   */\n      dup3\n        /* \"#utility.yul\":1870:1884   */\n      add\n        /* \"#utility.yul\":1862:1884   */\n      swap1\n      pop\n        /* \"#utility.yul\":1760:1891   */\n      swap2\n      swap1\n      pop\n      jump\t// out\n        /* \"#utility.yul\":1897:2002   */\n    tag_79:\n        /* \"#utility.yul\":1972:1995   */\n      tag_107\n        /* \"#utility.yul\":1989:1994   */\n      dup2\n        /* \"#utility.yul\":1972:1995   */\n      tag_74\n      jump\t// in\n    tag_107:\n        /* \"#utility.yul\":1967:1970   */\n      dup3\n        /* \"#utility.yul\":1960:1996   */\n      mstore\n        /* \"#utility.yul\":1897:2002   */\n      pop\n      pop\n      jump\t// out\n        /* \"#utility.yul\":2008:2183   */\n    tag_80:\n        /* \"#utility.yul\":2075:2085   */\n      0x00\n        /* \"#utility.yul\":2096:2140   */\n      tag_109\n        /* \"#utility.yul\":2136:2139   */\n      dup4\n        /* \"#utility.yul\":2128:2134   */\n      dup4\n        /* \"#utility.yul\":2096:2140   */\n      tag_79\n      jump\t// in\n    tag_109:\n        /* \"#utility.yul\":2172:2176   */\n      0x20\n        /* \"#utility.yul\":2167:2170   */\n      dup4\n        /* \"#utility.yul\":2163:2177   */\n      add\n        /* \"#utility.yul\":2149:2177   */\n      swap1\n      pop\n        /* \"#utility.yul\":2008:2183   */\n      swap3\n      swap2\n      pop\n      pop\n      jump\t// out\n        /* \"#utility.yul\":2189:2301   */\n    tag_81:\n        /* \"#utility.yul\":2258:2262   */\n      0x00\n        /* \"#utility.yul\":2290:2294   */\n      0x20\n        /* \"#utility.yul\":2285:2288   */\n      dup3\n        /* \"#utility.yul\":2281:2295   */\n      add\n        /* \"#utility.yul\":2273:2295   */\n      swap1\n      pop\n        /* \"#utility.yul\":2189:2301   */\n      swap2\n      swap1\n      pop\n      jump\t// out\n        /* \"#utility.yul\":2335:3059   */\n    tag_82:\n        /* \"#utility.yul\":2452:2455   */\n      0x00\n        /* \"#utility.yul\":2481:2534   */\n      tag_112\n        /* \"#utility.yul\":2528:2533   */\n      dup3\n        /* \"#utility.yul\":2481:2534   */\n      tag_76\n      jump\t// in\n    tag_112:\n        /* \"#utility.yul\":2550:2635   */\n      tag_113\n        /* \"#utility.yul\":2628:2634   */\n      dup2\n        /* \"#utility.yul\":2623:2626   */\n      dup6\n        /* \"#utility.yul\":2550:2635   */\n      tag_77\n      jump\t// in\n    tag_113:\n        /* \"#utility.yul\":2543:2635   */\n      swap4\n      pop\n        /* \"#utility.yul\":2659:2714   */\n      tag_114\n        /* \"#utility.yul\":2708:2713   */\n      dup4\n        /* \"#utility.yul\":2659:2714   */\n      tag_78\n      jump\t// in\n    tag_114:\n        /* \"#utility.yul\":2737:2744   */\n      dup1\n        /* \"#utility.yul\":2768:2769   */\n      0x00\n        /* \"#utility.yul\":2753:3034   */\n    tag_115:\n        /* \"#utility.yul\":2778:2784   */\n      dup4\n        /* \"#utility.yul\":2775:2776   */\n      dup2\n        /* \"#utility.yul\":2772:2785   */\n      lt\n        /* \"#utility.yul\":2753:3034   */\n      iszero\n      tag_117\n      jumpi\n        /* \"#utility.yul\":2854:2860   */\n      dup2\n        /* \"#utility.yul\":2848:2861   */\n      mload\n        /* \"#utility.yul\":2881:2942   */\n      tag_118\n        /* \"#utility.yul\":2938:2941   */\n      dup9\n        /* \"#utility.yul\":2923:2936   */\n      dup3\n        /* \"#utility.yul\":2881:2942   */\n      tag_80\n      jump\t// in\n    tag_118:\n        /* \"#utility.yul\":2874:2942   */\n      swap8\n      pop\n        /* \"#utility.yul\":2965:3024   */\n      tag_119\n        /* \"#utility.yul\":3017:3023   */\n      dup4\n        /* \"#utility.yul\":2965:3024   */\n      tag_81\n      jump\t// in\n    tag_119:\n        /* \"#utility.yul\":2955:3024   */\n      swap3\n      pop\n        /* \"#utility.yul\":2813:3034   */\n      pop\n        /* \"#utility.yul\":2800:2801   */\n      0x01\n        /* \"#utility.yul\":2797:2798   */\n      dup2\n        /* \"#utility.yul\":2793:2802   */\n      add\n        /* \"#utility.yul\":2788:2802   */\n      swap1\n      pop\n        /* \"#utility.yul\":2753:3034   */\n      jump(tag_115)\n    tag_117:\n        /* \"#utility.yul\":2757:2771   */\n      pop\n        /* \"#utility.yul\":3050:3053   */\n      dup6\n        /* \"#utility.yul\":3043:3053   */\n      swap4\n      pop\n        /* \"#utility.yul\":2457:3059   */\n      pop\n      pop\n      pop\n        /* \"#utility.yul\":2335:3059   */\n      swap3\n      swap2\n      pop\n      pop\n      jump\t// out\n        /* \"#utility.yul\":3065:3434   */\n    tag_18:\n        /* \"#utility.yul\":3206:3210   */\n      0x00\n        /* \"#utility.yul\":3244:3246   */\n      0x20\n        /* \"#utility.yul\":3233:3242   */\n      dup3\n        /* \"#utility.yul\":3229:3247   */\n      add\n        /* \"#utility.yul\":3221:3247   */\n      swap1\n      pop\n        /* \"#utility.yul\":3293:3302   */\n      dup2\n        /* \"#utility.yul\":3287:3291   */\n      dup2\n        /* \"#utility.yul\":3283:3303   */\n      sub\n        /* \"#utility.yul\":3279:3280   */\n      0x00\n        /* \"#utility.yul\":3268:3277   */\n      dup4\n        /* \"#utility.yul\":3264:3281   */\n      add\n        /* \"#utility.yul\":3257:3304   */\n      mstore\n        /* \"#utility.yul\":3321:3427   */\n      tag_121\n        /* \"#utility.yul\":3422:3426   */\n      dup2\n        /* \"#utility.yul\":3413:3419   */\n      dup5\n        /* \"#utility.yul\":3321:3427   */\n      tag_82\n      jump\t// in\n    tag_121:\n        /* \"#utility.yul\":3313:3427   */\n      swap1\n      pop\n        /* \"#utility.yul\":3065:3434   */\n      swap3\n      swap2\n      pop\n      pop\n      jump\t// out\n        /* \"#utility.yul\":3440:3620   */\n    tag_43:\n        /* \"#utility.yul\":3488:3565   */\n      0x4e487b7100000000000000000000000000000000000000000000000000000000\n        /* \"#utility.yul\":3485:3486   */\n      0x00\n        /* \"#utility.yul\":3478:3566   */\n      mstore\n        /* \"#utility.yul\":3585:3589   */\n      0x32\n        /* \"#utility.yul\":3582:3583   */\n      0x04\n        /* \"#utility.yul\":3575:3590   */\n      mstore\n        /* \"#utility.yul\":3609:3613   */\n      0x24\n        /* \"#utility.yul\":3606:3607   */\n      0x00\n        /* \"#utility.yul\":3599:3614   */\n      revert\n        /* \"#utility.yul\":3626:3806   */\n    tag_83:\n        /* \"#utility.yul\":3674:3751   */\n      0x4e487b7100000000000000000000000000000000000000000000000000000000\n        /* \"#utility.yul\":3671:3672   */\n      0x00\n        /* \"#utility.yul\":3664:3752   */\n      mstore\n        /* \"#utility.yul\":3771:3775   */\n      0x11\n        /* \"#utility.yul\":3768:3769   */\n      0x04\n        /* \"#utility.yul\":3761:3776   */\n      mstore\n        /* \"#utility.yul\":3795:3799   */\n      0x24\n        /* \"#utility.yul\":3792:3793   */\n      0x00\n        /* \"#utility.yul\":3785:3800   */\n      revert\n        /* \"#utility.yul\":3812:4045   */\n    tag_51:\n        /* \"#utility.yul\":3851:3854   */\n      0x00\n        /* \"#utility.yul\":3874:3898   */\n      tag_125\n        /* \"#utility.yul\":3892:3897   */\n      dup3\n        /* \"#utility.yul\":3874:3898   */\n      tag_71\n      jump\t// in\n    tag_125:\n        /* \"#utility.yul\":3865:3898   */\n      swap2\n      pop\n        /* \"#utility.yul\":3920:3986   */\n      0xffffffffffffffffffffffffffffffffffffffffffffffffffffffffffffffff\n        /* \"#utility.yul\":3913:3918   */\n      dup3\n        /* \"#utility.yul\":3910:3987   */\n      sub\n        /* \"#utility.yul\":3907:4010   */\n      tag_126\n      jumpi\n        /* \"#utility.yul\":3990:4008   */\n      tag_127\n      tag_83\n      jump\t// in\n    tag_127:\n        /* \"#utility.yul\":3907:4010   */\n    tag_126:\n        /* \"#utility.yul\":4037:4038   */\n      0x01\n        /* \"#utility.yul\":4030:4035   */\n      dup3\n        /* \"#utility.yul\":4026:4039   */\n      add\n        /* \"#utility.yul\":4019:4039   */\n      swap1\n      pop\n        /* \"#utility.yul\":3812:4045   */\n      swap2\n      swap1\n      pop\n      jump\t// out\n\n    auxdata: 0xa26469706673582212209e38847d39a61f4777ee9543113fb25a89891c5b2ed0c2245ea4fc7a009fd4f664736f6c63430008120033\n}\n",
				"bytecode": {
					"linkReferences": {},
					"object": "60806040526040518060a001604052807ffffffffffffffffffffffffffffffffffffffffffffffffffffffffffffffff760000b8152602001600860000b8152602001600760000b81526020017ffffffffffffffffffffffffffffffffffffffffffffffffffffffffffffffffe60000b8152602001600160000b815250600090600561008d9291906100a0565b5034801561009a57600080fd5b50610102565b82600581019282156100d4579160200282015b828111156100d3578251829060000b9055916020019190600101906100b3565b5b5090506100e191906100e5565b5090565b5b808211156100fe5760008160009055506001016100e6565b5090565b610559806101116000396000f3fe608060405234801561001057600080fd5b50600436106100625760003560e01c80634feb22161461006757806352af25ce1461009757806371e5ee5f146100b5578063a80f7f05146100e5578063af7a5369146100ef578063f9e40dc2146100f9575b600080fd5b610081600480360381019061007c919061033c565b610117565b60405161008e9190610382565b60405180910390f35b61009f61013b565b6040516100ac919061045b565b60405180910390f35b6100cf60048036038101906100ca919061033c565b610193565b6040516100dc9190610382565b60405180910390f35b6100ed6101ae565b005b6100f761022b565b005b6101016102a9565b60405161010e919061045b565b60405180910390f35b6005818154811061012757600080fd5b906000526020600020016000915090505481565b6060600580548060200260200160405190810160405280929190818152602001828054801561018957602002820191906000526020600020905b815481526020019060010190808311610175575b5050505050905090565b600081600581106101a357600080fd5b016000915090505481565b60005b60058110156102285760008082600581106101cf576101ce61047d565b5b015412610215576005600082600581106101ec576101eb61047d565b5b015490806001815401808255809150506001900390600052602060002001600090919091909150555b8080610220906104db565b9150506101b1565b50565b60005b60058110156102a657600080826005811061024c5761024b61047d565b5b015412156102935760066000826005811061026a5761026961047d565b5b015490806001815401808255809150506001900390600052602060002001600090919091909150555b808061029e906104db565b91505061022e565b50565b606060068054806020026020016040519081016040528092919081815260200182805480156102f757602002820191906000526020600020905b8154815260200190600101908083116102e3575b5050505050905090565b600080fd5b6000819050919050565b61031981610306565b811461032457600080fd5b50565b60008135905061033681610310565b92915050565b60006020828403121561035257610351610301565b5b600061036084828501610327565b91505092915050565b6000819050919050565b61037c81610369565b82525050565b60006020820190506103976000830184610373565b92915050565b600081519050919050565b600082825260208201905092915050565b6000819050602082019050919050565b6103d281610369565b82525050565b60006103e483836103c9565b60208301905092915050565b6000602082019050919050565b60006104088261039d565b61041281856103a8565b935061041d836103b9565b8060005b8381101561044e57815161043588826103d8565b9750610440836103f0565b925050600181019050610421565b5085935050505092915050565b6000602082019050818103600083015261047581846103fd565b905092915050565b7f4e487b7100000000000000000000000000000000000000000000000000000000600052603260045260246000fd5b7f4e487b7100000000000000000000000000000000000000000000000000000000600052601160045260246000fd5b60006104e682610306565b91507fffffffffffffffffffffffffffffffffffffffffffffffffffffffffffffffff8203610518576105176104ac565b5b60018201905091905056fea26469706673582212209e38847d39a61f4777ee9543113fb25a89891c5b2ed0c2245ea4fc7a009fd4f664736f6c63430008120033",
					"opcodes": "PUSH1 0x80 PUSH1 0x40 MSTORE PUSH1 0x40 MLOAD DUP1 PUSH1 0xA0 ADD PUSH1 0x40 MSTORE DUP1 PUSH32 0xFFFFFFFFFFFFFFFFFFFFFFFFFFFFFFFFFFFFFFFFFFFFFFFFFFFFFFFFFFFFFFF7 PUSH1 0x0 SIGNEXTEND DUP2 MSTORE PUSH1 0x20 ADD PUSH1 0x8 PUSH1 0x0 SIGNEXTEND DUP2 MSTORE PUSH1 0x20 ADD PUSH1 0x7 PUSH1 0x0 SIGNEXTEND DUP2 MSTORE PUSH1 0x20 ADD PUSH32 0xFFFFFFFFFFFFFFFFFFFFFFFFFFFFFFFFFFFFFFFFFFFFFFFFFFFFFFFFFFFFFFFE PUSH1 0x0 SIGNEXTEND DUP2 MSTORE PUSH1 0x20 ADD PUSH1 0x1 PUSH1 0x0 SIGNEXTEND DUP2 MSTORE POP PUSH1 0x0 SWAP1 PUSH1 0x5 PUSH2 0x8D SWAP3 SWAP2 SWAP1 PUSH2 0xA0 JUMP JUMPDEST POP CALLVALUE DUP1 ISZERO PUSH2 0x9A JUMPI PUSH1 0x0 DUP1 REVERT JUMPDEST POP PUSH2 0x102 JUMP JUMPDEST DUP3 PUSH1 0x5 DUP2 ADD SWAP3 DUP3 ISZERO PUSH2 0xD4 JUMPI SWAP2 PUSH1 0x20 MUL DUP3 ADD JUMPDEST DUP3 DUP2 GT ISZERO PUSH2 0xD3 JUMPI DUP3 MLOAD DUP3 SWAP1 PUSH1 0x0 SIGNEXTEND SWAP1 SSTORE SWAP2 PUSH1 0x20 ADD SWAP2 SWAP1 PUSH1 0x1 ADD SWAP1 PUSH2 0xB3 JUMP JUMPDEST JUMPDEST POP SWAP1 POP PUSH2 0xE1 SWAP2 SWAP1 PUSH2 0xE5 JUMP JUMPDEST POP SWAP1 JUMP JUMPDEST JUMPDEST DUP1 DUP3 GT ISZERO PUSH2 0xFE JUMPI PUSH1 0x0 DUP2 PUSH1 0x0 SWAP1 SSTORE POP PUSH1 0x1 ADD PUSH2 0xE6 JUMP JUMPDEST POP SWAP1 JUMP JUMPDEST PUSH2 0x559 DUP1 PUSH2 0x111 PUSH1 0x0 CODECOPY PUSH1 0x0 RETURN INVALID PUSH1 0x80 PUSH1 0x40 MSTORE CALLVALUE DUP1 ISZERO PUSH2 0x10 JUMPI PUSH1 0x0 DUP1 REVERT JUMPDEST POP PUSH1 0x4 CALLDATASIZE LT PUSH2 0x62 JUMPI PUSH1 0x0 CALLDATALOAD PUSH1 0xE0 SHR DUP1 PUSH4 0x4FEB2216 EQ PUSH2 0x67 JUMPI DUP1 PUSH4 0x52AF25CE EQ PUSH2 0x97 JUMPI DUP1 PUSH4 0x71E5EE5F EQ PUSH2 0xB5 JUMPI DUP1 PUSH4 0xA80F7F05 EQ PUSH2 0xE5 JUMPI DUP1 PUSH4 0xAF7A5369 EQ PUSH2 0xEF JUMPI DUP1 PUSH4 0xF9E40DC2 EQ PUSH2 0xF9 JUMPI JUMPDEST PUSH1 0x0 DUP1 REVERT JUMPDEST PUSH2 0x81 PUSH1 0x4 DUP1 CALLDATASIZE SUB DUP2 ADD SWAP1 PUSH2 0x7C SWAP2 SWAP1 PUSH2 0x33C JUMP JUMPDEST PUSH2 0x117 JUMP JUMPDEST PUSH1 0x40 MLOAD PUSH2 0x8E SWAP2 SWAP1 PUSH2 0x382 JUMP JUMPDEST PUSH1 0x40 MLOAD DUP1 SWAP2 SUB SWAP1 RETURN JUMPDEST PUSH2 0x9F PUSH2 0x13B JUMP JUMPDEST PUSH1 0x40 MLOAD PUSH2 0xAC SWAP2 SWAP1 PUSH2 0x45B JUMP JUMPDEST PUSH1 0x40 MLOAD DUP1 SWAP2 SUB SWAP1 RETURN JUMPDEST PUSH2 0xCF PUSH1 0x4 DUP1 CALLDATASIZE SUB DUP2 ADD SWAP1 PUSH2 0xCA SWAP2 SWAP1 PUSH2 0x33C JUMP JUMPDEST PUSH2 0x193 JUMP JUMPDEST PUSH1 0x40 MLOAD PUSH2 0xDC SWAP2 SWAP1 PUSH2 0x382 JUMP JUMPDEST PUSH1 0x40 MLOAD DUP1 SWAP2 SUB SWAP1 RETURN JUMPDEST PUSH2 0xED PUSH2 0x1AE JUMP JUMPDEST STOP JUMPDEST PUSH2 0xF7 PUSH2 0x22B JUMP JUMPDEST STOP JUMPDEST PUSH2 0x101 PUSH2 0x2A9 JUMP JUMPDEST PUSH1 0x40 MLOAD PUSH2 0x10E SWAP2 SWAP1 PUSH2 0x45B JUMP JUMPDEST PUSH1 0x40 MLOAD DUP1 SWAP2 SUB SWAP1 RETURN JUMPDEST PUSH1 0x5 DUP2 DUP2 SLOAD DUP2 LT PUSH2 0x127 JUMPI PUSH1 0x0 DUP1 REVERT JUMPDEST SWAP1 PUSH1 0x0 MSTORE PUSH1 0x20 PUSH1 0x0 KECCAK256 ADD PUSH1 0x0 SWAP2 POP SWAP1 POP SLOAD DUP2 JUMP JUMPDEST PUSH1 0x60 PUSH1 0x5 DUP1 SLOAD DUP1 PUSH1 0x20 MUL PUSH1 0x20 ADD PUSH1 0x40 MLOAD SWAP1 DUP2 ADD PUSH1 0x40 MSTORE DUP1 SWAP3 SWAP2 SWAP1 DUP2 DUP2 MSTORE PUSH1 0x20 ADD DUP3 DUP1 SLOAD DUP1 ISZERO PUSH2 0x189 JUMPI PUSH1 0x20 MUL DUP3 ADD SWAP2 SWAP1 PUSH1 0x0 MSTORE PUSH1 0x20 PUSH1 0x0 KECCAK256 SWAP1 JUMPDEST DUP2 SLOAD DUP2 MSTORE PUSH1 0x20 ADD SWAP1 PUSH1 0x1 ADD SWAP1 DUP1 DUP4 GT PUSH2 0x175 JUMPI JUMPDEST POP POP POP POP POP SWAP1 POP SWAP1 JUMP JUMPDEST PUSH1 0x0 DUP2 PUSH1 0x5 DUP2 LT PUSH2 0x1A3 JUMPI PUSH1 0x0 DUP1 REVERT JUMPDEST ADD PUSH1 0x0 SWAP2 POP SWAP1 POP SLOAD DUP2 JUMP JUMPDEST PUSH1 0x0 JUMPDEST PUSH1 0x5 DUP2 LT ISZERO PUSH2 0x228 JUMPI PUSH1 0x0 DUP1 DUP3 PUSH1 0x5 DUP2 LT PUSH2 0x1CF JUMPI PUSH2 0x1CE PUSH2 0x47D JUMP JUMPDEST JUMPDEST ADD SLOAD SLT PUSH2 0x215 JUMPI PUSH1 0x5 PUSH1 0x0 DUP3 PUSH1 0x5 DUP2 LT PUSH2 0x1EC JUMPI PUSH2 0x1EB PUSH2 0x47D JUMP JUMPDEST JUMPDEST ADD SLOAD SWAP1 DUP1 PUSH1 0x1 DUP2 SLOAD ADD DUP1 DUP3 SSTORE DUP1 SWAP2 POP POP PUSH1 0x1 SWAP1 SUB SWAP1 PUSH1 0x0 MSTORE PUSH1 0x20 PUSH1 0x0 KECCAK256 ADD PUSH1 0x0 SWAP1 SWAP2 SWAP1 SWAP2 SWAP1 SWAP2 POP SSTORE JUMPDEST DUP1 DUP1 PUSH2 0x220 SWAP1 PUSH2 0x4DB JUMP JUMPDEST SWAP2 POP POP PUSH2 0x1B1 JUMP JUMPDEST POP JUMP JUMPDEST PUSH1 0x0 JUMPDEST PUSH1 0x5 DUP2 LT ISZERO PUSH2 0x2A6 JUMPI PUSH1 0x0 DUP1 DUP3 PUSH1 0x5 DUP2 LT PUSH2 0x24C JUMPI PUSH2 0x24B PUSH2 0x47D JUMP JUMPDEST JUMPDEST ADD SLOAD SLT ISZERO PUSH2 0x293 JUMPI PUSH1 0x6 PUSH1 0x0 DUP3 PUSH1 0x5 DUP2 LT PUSH2 0x26A JUMPI PUSH2 0x269 PUSH2 0x47D JUMP JUMPDEST JUMPDEST ADD SLOAD SWAP1 DUP1 PUSH1 0x1 DUP2 SLOAD ADD DUP1 DUP3 SSTORE DUP1 SWAP2 POP POP PUSH1 0x1 SWAP1 SUB SWAP1 PUSH1 0x0 MSTORE PUSH1 0x20 PUSH1 0x0 KECCAK256 ADD PUSH1 0x0 SWAP1 SWAP2 SWAP1 SWAP2 SWAP1 SWAP2 POP SSTORE JUMPDEST DUP1 DUP1 PUSH2 0x29E SWAP1 PUSH2 0x4DB JUMP JUMPDEST SWAP2 POP POP PUSH2 0x22E JUMP JUMPDEST POP JUMP JUMPDEST PUSH1 0x60 PUSH1 0x6 DUP1 SLOAD DUP1 PUSH1 0x20 MUL PUSH1 0x20 ADD PUSH1 0x40 MLOAD SWAP1 DUP2 ADD PUSH1 0x40 MSTORE DUP1 SWAP3 SWAP2 SWAP1 DUP2 DUP2 MSTORE PUSH1 0x20 ADD DUP3 DUP1 SLOAD DUP1 ISZERO PUSH2 0x2F7 JUMPI PUSH1 0x20 MUL DUP3 ADD SWAP2 SWAP1 PUSH1 0x0 MSTORE PUSH1 0x20 PUSH1 0x0 KECCAK256 SWAP1 JUMPDEST DUP2 SLOAD DUP2 MSTORE PUSH1 0x20 ADD SWAP1 PUSH1 0x1 ADD SWAP1 DUP1 DUP4 GT PUSH2 0x2E3 JUMPI JUMPDEST POP POP POP POP POP SWAP1 POP SWAP1 JUMP JUMPDEST PUSH1 0x0 DUP1 REVERT JUMPDEST PUSH1 0x0 DUP2 SWAP1 POP SWAP2 SWAP1 POP JUMP JUMPDEST PUSH2 0x319 DUP2 PUSH2 0x306 JUMP JUMPDEST DUP2 EQ PUSH2 0x324 JUMPI PUSH1 0x0 DUP1 REVERT JUMPDEST POP JUMP JUMPDEST PUSH1 0x0 DUP2 CALLDATALOAD SWAP1 POP PUSH2 0x336 DUP2 PUSH2 0x310 JUMP JUMPDEST SWAP3 SWAP2 POP POP JUMP JUMPDEST PUSH1 0x0 PUSH1 0x20 DUP3 DUP5 SUB SLT ISZERO PUSH2 0x352 JUMPI PUSH2 0x351 PUSH2 0x301 JUMP JUMPDEST JUMPDEST PUSH1 0x0 PUSH2 0x360 DUP5 DUP3 DUP6 ADD PUSH2 0x327 JUMP JUMPDEST SWAP2 POP POP SWAP3 SWAP2 POP POP JUMP JUMPDEST PUSH1 0x0 DUP2 SWAP1 POP SWAP2 SWAP1 POP JUMP JUMPDEST PUSH2 0x37C DUP2 PUSH2 0x369 JUMP JUMPDEST DUP3 MSTORE POP POP JUMP JUMPDEST PUSH1 0x0 PUSH1 0x20 DUP3 ADD SWAP1 POP PUSH2 0x397 PUSH1 0x0 DUP4 ADD DUP5 PUSH2 0x373 JUMP JUMPDEST SWAP3 SWAP2 POP POP JUMP JUMPDEST PUSH1 0x0 DUP2 MLOAD SWAP1 POP SWAP2 SWAP1 POP JUMP JUMPDEST PUSH1 0x0 DUP3 DUP3 MSTORE PUSH1 0x20 DUP3 ADD SWAP1 POP SWAP3 SWAP2 POP POP JUMP JUMPDEST PUSH1 0x0 DUP2 SWAP1 POP PUSH1 0x20 DUP3 ADD SWAP1 POP SWAP2 SWAP1 POP JUMP JUMPDEST PUSH2 0x3D2 DUP2 PUSH2 0x369 JUMP JUMPDEST DUP3 MSTORE POP POP JUMP JUMPDEST PUSH1 0x0 PUSH2 0x3E4 DUP4 DUP4 PUSH2 0x3C9 JUMP JUMPDEST PUSH1 0x20 DUP4 ADD SWAP1 POP SWAP3 SWAP2 POP POP JUMP JUMPDEST PUSH1 0x0 PUSH1 0x20 DUP3 ADD SWAP1 POP SWAP2 SWAP1 POP JUMP JUMPDEST PUSH1 0x0 PUSH2 0x408 DUP3 PUSH2 0x39D JUMP JUMPDEST PUSH2 0x412 DUP2 DUP6 PUSH2 0x3A8 JUMP JUMPDEST SWAP4 POP PUSH2 0x41D DUP4 PUSH2 0x3B9 JUMP JUMPDEST DUP1 PUSH1 0x0 JUMPDEST DUP4 DUP2 LT ISZERO PUSH2 0x44E JUMPI DUP2 MLOAD PUSH2 0x435 DUP9 DUP3 PUSH2 0x3D8 JUMP JUMPDEST SWAP8 POP PUSH2 0x440 DUP4 PUSH2 0x3F0 JUMP JUMPDEST SWAP3 POP POP PUSH1 0x1 DUP2 ADD SWAP1 POP PUSH2 0x421 JUMP JUMPDEST POP DUP6 SWAP4 POP POP POP POP SWAP3 SWAP2 POP POP JUMP JUMPDEST PUSH1 0x0 PUSH1 0x20 DUP3 ADD SWAP1 POP DUP2 DUP2 SUB PUSH1 0x0 DUP4 ADD MSTORE PUSH2 0x475 DUP2 DUP5 PUSH2 0x3FD JUMP JUMPDEST SWAP1 POP SWAP3 SWAP2 POP POP JUMP JUMPDEST PUSH32 0x4E487B7100000000000000000000000000000000000000000000000000000000 PUSH1 0x0 MSTORE PUSH1 0x32 PUSH1 0x4 MSTORE PUSH1 0x24 PUSH1 0x0 REVERT JUMPDEST PUSH32 0x4E487B7100000000000000000000000000000000000000000000000000000000 PUSH1 0x0 MSTORE PUSH1 0x11 PUSH1 0x4 MSTORE PUSH1 0x24 PUSH1 0x0 REVERT JUMPDEST PUSH1 0x0 PUSH2 0x4E6 DUP3 PUSH2 0x306 JUMP JUMPDEST SWAP2 POP PUSH32 0xFFFFFFFFFFFFFFFFFFFFFFFFFFFFFFFFFFFFFFFFFFFFFFFFFFFFFFFFFFFFFFFF DUP3 SUB PUSH2 0x518 JUMPI PUSH2 0x517 PUSH2 0x4AC JUMP JUMPDEST JUMPDEST PUSH1 0x1 DUP3 ADD SWAP1 POP SWAP2 SWAP1 POP JUMP INVALID LOG2 PUSH5 0x6970667358 0x22 SLT KECCAK256 SWAP15 CODESIZE DUP5 PUSH30 0x39A61F4777EE9543113FB25A89891C5B2ED0C2245EA4FC7A009FD4F66473 PUSH16 0x6C634300081200330000000000000000 "
				},
				"gasEstimates": {
					"creation": {
						"codeDepositCost": "273800",
						"executionCost": "infinite",
						"totalCost": "infinite"
					},
					"external": {
						"arr(uint256)": "2753",
						"getnegarr()": "infinite",
						"getposit()": "infinite",
						"negativepart()": "infinite",
						"positarr(uint256)": "4860",
						"positivepart()": "infinite"
					}
				},
				"methodIdentifiers": {
					"arr(uint256)": "71e5ee5f",
					"getnegarr()": "f9e40dc2",
					"getposit()": "52af25ce",
					"negativepart()": "af7a5369",
					"positarr(uint256)": "4feb2216",
					"positivepart()": "a80f7f05"
				}
			},
			"storageLayout": {
				"storage": [
					{
						"astId": 13,
						"contract": "LABS 4 Aug/Task 7 lab4.sol:ForLoop",
						"label": "arr",
						"offset": 0,
						"slot": "0",
						"type": "t_array(t_int256)5_storage"
					},
					{
						"astId": 16,
						"contract": "LABS 4 Aug/Task 7 lab4.sol:ForLoop",
						"label": "positarr",
						"offset": 0,
						"slot": "5",
						"type": "t_array(t_int256)dyn_storage"
					},
					{
						"astId": 19,
						"contract": "LABS 4 Aug/Task 7 lab4.sol:ForLoop",
						"label": "negarr",
						"offset": 0,
						"slot": "6",
						"type": "t_array(t_int256)dyn_storage"
					}
				],
				"types": {
					"t_array(t_int256)5_storage": {
						"base": "t_int256",
						"encoding": "inplace",
						"label": "int256[5]",
						"numberOfBytes": "160"
					},
					"t_array(t_int256)dyn_storage": {
						"base": "t_int256",
						"encoding": "dynamic_array",
						"label": "int256[]",
						"numberOfBytes": "32"
					},
					"t_int256": {
						"encoding": "inplace",
						"label": "int256",
						"numberOfBytes": "32"
					}
				}
			},
			"userdoc": {
				"kind": "user",
				"methods": {},
				"version": 1
			}
		}
	}
}