{
	"LABS 4 Aug/task 9 lab4.sol": {
		"MerkleTree": {
			"abi": [
				{
					"inputs": [],
					"name": "add",
					"outputs": [],
					"stateMutability": "nonpayable",
					"type": "function"
				},
				{
					"inputs": [],
					"name": "getter",
					"outputs": [
						{
							"internalType": "uint256[]",
							"name": "",
							"type": "uint256[]"
						}
					],
					"stateMutability": "view",
					"type": "function"
				}
			],
			"devdoc": {
				"kind": "dev",
				"methods": {},
				"version": 1
			},
			"evm": {
				"assembly": "    /* \"LABS 4 Aug/task 9 lab4.sol\":61:793  contract MerkleTree {... */\n  mstore(0x40, 0x80)\n    /* \"LABS 4 Aug/task 9 lab4.sol\":191:224  uint256[] arr = [1,1,1,1,1,1,1,1] */\n  mload(0x40)\n  dup1\n  0x0100\n  add\n  0x40\n  mstore\n  dup1\n    /* \"LABS 4 Aug/task 9 lab4.sol\":208:209  1 */\n  0x01\n    /* \"LABS 4 Aug/task 9 lab4.sol\":191:224  uint256[] arr = [1,1,1,1,1,1,1,1] */\n  0xff\n  and\n  dup2\n  mstore\n  0x20\n  add\n    /* \"LABS 4 Aug/task 9 lab4.sol\":210:211  1 */\n  0x01\n    /* \"LABS 4 Aug/task 9 lab4.sol\":191:224  uint256[] arr = [1,1,1,1,1,1,1,1] */\n  0xff\n  and\n  dup2\n  mstore\n  0x20\n  add\n    /* \"LABS 4 Aug/task 9 lab4.sol\":212:213  1 */\n  0x01\n    /* \"LABS 4 Aug/task 9 lab4.sol\":191:224  uint256[] arr = [1,1,1,1,1,1,1,1] */\n  0xff\n  and\n  dup2\n  mstore\n  0x20\n  add\n    /* \"LABS 4 Aug/task 9 lab4.sol\":214:215  1 */\n  0x01\n    /* \"LABS 4 Aug/task 9 lab4.sol\":191:224  uint256[] arr = [1,1,1,1,1,1,1,1] */\n  0xff\n  and\n  dup2\n  mstore\n  0x20\n  add\n    /* \"LABS 4 Aug/task 9 lab4.sol\":216:217  1 */\n  0x01\n    /* \"LABS 4 Aug/task 9 lab4.sol\":191:224  uint256[] arr = [1,1,1,1,1,1,1,1] */\n  0xff\n  and\n  dup2\n  mstore\n  0x20\n  add\n    /* \"LABS 4 Aug/task 9 lab4.sol\":218:219  1 */\n  0x01\n    /* \"LABS 4 Aug/task 9 lab4.sol\":191:224  uint256[] arr = [1,1,1,1,1,1,1,1] */\n  0xff\n  and\n  dup2\n  mstore\n  0x20\n  add\n    /* \"LABS 4 Aug/task 9 lab4.sol\":220:221  1 */\n  0x01\n    /* \"LABS 4 Aug/task 9 lab4.sol\":191:224  uint256[] arr = [1,1,1,1,1,1,1,1] */\n  0xff\n  and\n  dup2\n  mstore\n  0x20\n  add\n    /* \"LABS 4 Aug/task 9 lab4.sol\":222:223  1 */\n  0x01\n    /* \"LABS 4 Aug/task 9 lab4.sol\":191:224  uint256[] arr = [1,1,1,1,1,1,1,1] */\n  0xff\n  and\n  dup2\n  mstore\n  pop\n  0x00\n  swap1\n  0x08\n  tag_1\n  swap3\n  swap2\n  swap1\n  tag_2\n  jump\t// in\ntag_1:\n  pop\n    /* \"LABS 4 Aug/task 9 lab4.sol\":61:793  contract MerkleTree {... */\n  callvalue\n  dup1\n  iszero\n  tag_3\n  jumpi\n  0x00\n  dup1\n  revert\ntag_3:\n  pop\n  jump(tag_4)\ntag_2:\n  dup3\n  dup1\n  sload\n  dup3\n  dup3\n  sstore\n  swap1\n  0x00\n  mstore\n  keccak256(0x00, 0x20)\n  swap1\n  dup2\n  add\n  swap3\n  dup3\n  iszero\n  tag_5\n  jumpi\n  swap2\n  0x20\n  mul\n  dup3\n  add\ntag_6:\n  dup3\n  dup2\n  gt\n  iszero\n  tag_7\n  jumpi\n  dup3\n  mload\n  dup3\n  swap1\n  0xff\n  and\n  swap1\n  sstore\n  swap2\n  0x20\n  add\n  swap2\n  swap1\n  0x01\n  add\n  swap1\n  jump(tag_6)\ntag_7:\ntag_5:\n  pop\n  swap1\n  pop\n  tag_8\n  swap2\n  swap1\n  tag_9\n  jump\t// in\ntag_8:\n  pop\n  swap1\n  jump\t// out\ntag_9:\ntag_10:\n  dup1\n  dup3\n  gt\n  iszero\n  tag_11\n  jumpi\n  0x00\n  dup2\n  0x00\n  swap1\n  sstore\n  pop\n  0x01\n  add\n  jump(tag_10)\ntag_11:\n  pop\n  swap1\n  jump\t// out\ntag_4:\n  dataSize(sub_0)\n  dup1\n  dataOffset(sub_0)\n  0x00\n  codecopy\n  0x00\n  return\nstop\n\nsub_0: assembly {\n        /* \"LABS 4 Aug/task 9 lab4.sol\":61:793  contract MerkleTree {... */\n      mstore(0x40, 0x80)\n      callvalue\n      dup1\n      iszero\n      tag_1\n      jumpi\n      0x00\n      dup1\n      revert\n    tag_1:\n      pop\n      jumpi(tag_2, lt(calldatasize, 0x04))\n      shr(0xe0, calldataload(0x00))\n      dup1\n      0x4f2be91f\n      eq\n      tag_3\n      jumpi\n      dup1\n      0x993a04b7\n      eq\n      tag_4\n      jumpi\n    tag_2:\n      0x00\n      dup1\n      revert\n        /* \"LABS 4 Aug/task 9 lab4.sol\":233:698  function add() public {... */\n    tag_3:\n      tag_5\n      tag_6\n      jump\t// in\n    tag_5:\n      stop\n        /* \"LABS 4 Aug/task 9 lab4.sol\":704:790  function getter() public view returns (uint256[] memory) {... */\n    tag_4:\n      tag_7\n      tag_8\n      jump\t// in\n    tag_7:\n      mload(0x40)\n      tag_9\n      swap2\n      swap1\n      tag_10\n      jump\t// in\n    tag_9:\n      mload(0x40)\n      dup1\n      swap2\n      sub\n      swap1\n      return\n        /* \"LABS 4 Aug/task 9 lab4.sol\":233:698  function add() public {... */\n    tag_6:\n        /* \"LABS 4 Aug/task 9 lab4.sol\":288:289  1 */\n      0x01\n        /* \"LABS 4 Aug/task 9 lab4.sol\":283:284  2 */\n      0x02\n        /* \"LABS 4 Aug/task 9 lab4.sol\":270:273  arr */\n      0x00\n        /* \"LABS 4 Aug/task 9 lab4.sol\":270:280  arr.length */\n      dup1\n      sload\n      swap1\n      pop\n        /* \"LABS 4 Aug/task 9 lab4.sol\":270:284  arr.length % 2 */\n      tag_12\n      swap2\n      swap1\n      tag_13\n      jump\t// in\n    tag_12:\n        /* \"LABS 4 Aug/task 9 lab4.sol\":270:289  arr.length % 2 == 1 */\n      sub\n        /* \"LABS 4 Aug/task 9 lab4.sol\":266:329  if (arr.length % 2 == 1) {... */\n      tag_14\n      jumpi\n        /* \"LABS 4 Aug/task 9 lab4.sol\":306:309  arr */\n      0x00\n        /* \"LABS 4 Aug/task 9 lab4.sol\":315:316  0 */\n      dup1\n        /* \"LABS 4 Aug/task 9 lab4.sol\":306:317  arr.push(0) */\n      dup1\n      0x01\n      dup2\n      sload\n      add\n      dup1\n      dup3\n      sstore\n      dup1\n      swap2\n      pop\n      pop\n      0x01\n      swap1\n      sub\n      swap1\n      0x00\n      mstore\n      keccak256(0x00, 0x20)\n      add\n      0x00\n      swap1\n      swap2\n      swap1\n      swap2\n      swap1\n      swap2\n      pop\n      sstore\n        /* \"LABS 4 Aug/task 9 lab4.sol\":266:329  if (arr.length % 2 == 1) {... */\n    tag_14:\n        /* \"LABS 4 Aug/task 9 lab4.sol\":339:691  while (arr.length != 1) {... */\n    tag_16:\n        /* \"LABS 4 Aug/task 9 lab4.sol\":360:361  1 */\n      0x01\n        /* \"LABS 4 Aug/task 9 lab4.sol\":346:349  arr */\n      0x00\n        /* \"LABS 4 Aug/task 9 lab4.sol\":346:356  arr.length */\n      dup1\n      sload\n      swap1\n      pop\n        /* \"LABS 4 Aug/task 9 lab4.sol\":346:361  arr.length != 1 */\n      eq\n        /* \"LABS 4 Aug/task 9 lab4.sol\":339:691  while (arr.length != 1) {... */\n      tag_17\n      jumpi\n        /* \"LABS 4 Aug/task 9 lab4.sol\":400:401  1 */\n      0x01\n        /* \"LABS 4 Aug/task 9 lab4.sol\":395:396  2 */\n      0x02\n        /* \"LABS 4 Aug/task 9 lab4.sol\":382:385  arr */\n      0x00\n        /* \"LABS 4 Aug/task 9 lab4.sol\":382:392  arr.length */\n      dup1\n      sload\n      swap1\n      pop\n        /* \"LABS 4 Aug/task 9 lab4.sol\":382:396  arr.length % 2 */\n      tag_18\n      swap2\n      swap1\n      tag_13\n      jump\t// in\n    tag_18:\n        /* \"LABS 4 Aug/task 9 lab4.sol\":382:401  arr.length % 2 == 1 */\n      sub\n        /* \"LABS 4 Aug/task 9 lab4.sol\":378:449  if (arr.length % 2 == 1) {... */\n      tag_19\n      jumpi\n        /* \"LABS 4 Aug/task 9 lab4.sol\":422:425  arr */\n      0x00\n        /* \"LABS 4 Aug/task 9 lab4.sol\":431:432  0 */\n      dup1\n        /* \"LABS 4 Aug/task 9 lab4.sol\":422:433  arr.push(0) */\n      dup1\n      0x01\n      dup2\n      sload\n      add\n      dup1\n      dup3\n      sstore\n      dup1\n      swap2\n      pop\n      pop\n      0x01\n      swap1\n      sub\n      swap1\n      0x00\n      mstore\n      keccak256(0x00, 0x20)\n      add\n      0x00\n      swap1\n      swap2\n      swap1\n      swap2\n      swap1\n      swap2\n      pop\n      sstore\n        /* \"LABS 4 Aug/task 9 lab4.sol\":378:449  if (arr.length % 2 == 1) {... */\n    tag_19:\n        /* \"LABS 4 Aug/task 9 lab4.sol\":468:477  uint256 i */\n      0x00\n        /* \"LABS 4 Aug/task 9 lab4.sol\":463:581  for (uint256 i = 0; i < arr.length / 2; i++) {... */\n    tag_21:\n        /* \"LABS 4 Aug/task 9 lab4.sol\":500:501  2 */\n      0x02\n        /* \"LABS 4 Aug/task 9 lab4.sol\":487:490  arr */\n      0x00\n        /* \"LABS 4 Aug/task 9 lab4.sol\":487:497  arr.length */\n      dup1\n      sload\n      swap1\n      pop\n        /* \"LABS 4 Aug/task 9 lab4.sol\":487:501  arr.length / 2 */\n      tag_24\n      swap2\n      swap1\n      tag_25\n      jump\t// in\n    tag_24:\n        /* \"LABS 4 Aug/task 9 lab4.sol\":483:484  i */\n      dup2\n        /* \"LABS 4 Aug/task 9 lab4.sol\":483:501  i < arr.length / 2 */\n      lt\n        /* \"LABS 4 Aug/task 9 lab4.sol\":463:581  for (uint256 i = 0; i < arr.length / 2; i++) {... */\n      iszero\n      tag_22\n      jumpi\n        /* \"LABS 4 Aug/task 9 lab4.sol\":549:552  arr */\n      0x00\n        /* \"LABS 4 Aug/task 9 lab4.sol\":563:564  1 */\n      0x01\n        /* \"LABS 4 Aug/task 9 lab4.sol\":558:559  2 */\n      0x02\n        /* \"LABS 4 Aug/task 9 lab4.sol\":554:555  i */\n      dup4\n        /* \"LABS 4 Aug/task 9 lab4.sol\":554:559  i * 2 */\n      tag_26\n      swap2\n      swap1\n      tag_27\n      jump\t// in\n    tag_26:\n        /* \"LABS 4 Aug/task 9 lab4.sol\":553:564  (i * 2) + 1 */\n      tag_28\n      swap2\n      swap1\n      tag_29\n      jump\t// in\n    tag_28:\n        /* \"LABS 4 Aug/task 9 lab4.sol\":549:565  arr[(i * 2) + 1] */\n      dup2\n      sload\n      dup2\n      lt\n      tag_30\n      jumpi\n      tag_31\n      tag_32\n      jump\t// in\n    tag_31:\n    tag_30:\n      swap1\n      0x00\n      mstore\n      keccak256(0x00, 0x20)\n      add\n      sload\n        /* \"LABS 4 Aug/task 9 lab4.sol\":536:539  arr */\n      0x00\n        /* \"LABS 4 Aug/task 9 lab4.sol\":544:545  2 */\n      0x02\n        /* \"LABS 4 Aug/task 9 lab4.sol\":540:541  i */\n      dup4\n        /* \"LABS 4 Aug/task 9 lab4.sol\":540:545  i * 2 */\n      tag_34\n      swap2\n      swap1\n      tag_27\n      jump\t// in\n    tag_34:\n        /* \"LABS 4 Aug/task 9 lab4.sol\":536:546  arr[i * 2] */\n      dup2\n      sload\n      dup2\n      lt\n      tag_35\n      jumpi\n      tag_36\n      tag_32\n      jump\t// in\n    tag_36:\n    tag_35:\n      swap1\n      0x00\n      mstore\n      keccak256(0x00, 0x20)\n      add\n      sload\n        /* \"LABS 4 Aug/task 9 lab4.sol\":536:565  arr[i * 2] + arr[(i * 2) + 1] */\n      tag_38\n      swap2\n      swap1\n      tag_29\n      jump\t// in\n    tag_38:\n        /* \"LABS 4 Aug/task 9 lab4.sol\":527:530  arr */\n      0x00\n        /* \"LABS 4 Aug/task 9 lab4.sol\":531:532  i */\n      dup3\n        /* \"LABS 4 Aug/task 9 lab4.sol\":527:533  arr[i] */\n      dup2\n      sload\n      dup2\n      lt\n      tag_39\n      jumpi\n      tag_40\n      tag_32\n      jump\t// in\n    tag_40:\n    tag_39:\n      swap1\n      0x00\n      mstore\n      keccak256(0x00, 0x20)\n      add\n        /* \"LABS 4 Aug/task 9 lab4.sol\":527:565  arr[i] = arr[i * 2] + arr[(i * 2) + 1] */\n      dup2\n      swap1\n      sstore\n      pop\n        /* \"LABS 4 Aug/task 9 lab4.sol\":503:506  i++ */\n      dup1\n      dup1\n      tag_42\n      swap1\n      tag_43\n      jump\t// in\n    tag_42:\n      swap2\n      pop\n      pop\n        /* \"LABS 4 Aug/task 9 lab4.sol\":463:581  for (uint256 i = 0; i < arr.length / 2; i++) {... */\n      jump(tag_21)\n    tag_22:\n      pop\n        /* \"LABS 4 Aug/task 9 lab4.sol\":600:609  uint256 i */\n      0x00\n        /* \"LABS 4 Aug/task 9 lab4.sol\":595:680  for (uint256 i = 0; i < arr.length; i++) {... */\n    tag_44:\n        /* \"LABS 4 Aug/task 9 lab4.sol\":619:622  arr */\n      0x00\n        /* \"LABS 4 Aug/task 9 lab4.sol\":619:629  arr.length */\n      dup1\n      sload\n      swap1\n      pop\n        /* \"LABS 4 Aug/task 9 lab4.sol\":615:616  i */\n      dup2\n        /* \"LABS 4 Aug/task 9 lab4.sol\":615:629  i < arr.length */\n      lt\n        /* \"LABS 4 Aug/task 9 lab4.sol\":595:680  for (uint256 i = 0; i < arr.length; i++) {... */\n      iszero\n      tag_45\n      jumpi\n        /* \"LABS 4 Aug/task 9 lab4.sol\":655:658  arr */\n      0x00\n        /* \"LABS 4 Aug/task 9 lab4.sol\":655:664  arr.pop() */\n      dup1\n      sload\n      dup1\n      tag_47\n      jumpi\n      tag_48\n      tag_49\n      jump\t// in\n    tag_48:\n    tag_47:\n      0x01\n      swap1\n      sub\n      dup2\n      dup2\n      swap1\n      0x00\n      mstore\n      keccak256(0x00, 0x20)\n      add\n      0x00\n      swap1\n      sstore\n      swap1\n      sstore\n        /* \"LABS 4 Aug/task 9 lab4.sol\":631:634  i++ */\n      dup1\n      dup1\n      tag_51\n      swap1\n      tag_43\n      jump\t// in\n    tag_51:\n      swap2\n      pop\n      pop\n        /* \"LABS 4 Aug/task 9 lab4.sol\":595:680  for (uint256 i = 0; i < arr.length; i++) {... */\n      jump(tag_44)\n    tag_45:\n      pop\n        /* \"LABS 4 Aug/task 9 lab4.sol\":339:691  while (arr.length != 1) {... */\n      jump(tag_16)\n    tag_17:\n        /* \"LABS 4 Aug/task 9 lab4.sol\":233:698  function add() public {... */\n      jump\t// out\n        /* \"LABS 4 Aug/task 9 lab4.sol\":704:790  function getter() public view returns (uint256[] memory) {... */\n    tag_8:\n        /* \"LABS 4 Aug/task 9 lab4.sol\":743:759  uint256[] memory */\n      0x60\n        /* \"LABS 4 Aug/task 9 lab4.sol\":779:782  arr */\n      0x00\n        /* \"LABS 4 Aug/task 9 lab4.sol\":772:782  return arr */\n      dup1\n      sload\n      dup1\n      0x20\n      mul\n      0x20\n      add\n      mload(0x40)\n      swap1\n      dup2\n      add\n      0x40\n      mstore\n      dup1\n      swap3\n      swap2\n      swap1\n      dup2\n      dup2\n      mstore\n      0x20\n      add\n      dup3\n      dup1\n      sload\n      dup1\n      iszero\n      tag_53\n      jumpi\n      0x20\n      mul\n      dup3\n      add\n      swap2\n      swap1\n      0x00\n      mstore\n      keccak256(0x00, 0x20)\n      swap1\n    tag_54:\n      dup2\n      sload\n      dup2\n      mstore\n      0x20\n      add\n      swap1\n      0x01\n      add\n      swap1\n      dup1\n      dup4\n      gt\n      tag_54\n      jumpi\n    tag_53:\n      pop\n      pop\n      pop\n      pop\n      pop\n      swap1\n      pop\n        /* \"LABS 4 Aug/task 9 lab4.sol\":704:790  function getter() public view returns (uint256[] memory) {... */\n      swap1\n      jump\t// out\n        /* \"#utility.yul\":7:121   */\n    tag_55:\n        /* \"#utility.yul\":74:80   */\n      0x00\n        /* \"#utility.yul\":108:113   */\n      dup2\n        /* \"#utility.yul\":102:114   */\n      mload\n        /* \"#utility.yul\":92:114   */\n      swap1\n      pop\n        /* \"#utility.yul\":7:121   */\n      swap2\n      swap1\n      pop\n      jump\t// out\n        /* \"#utility.yul\":127:311   */\n    tag_56:\n        /* \"#utility.yul\":226:237   */\n      0x00\n        /* \"#utility.yul\":260:266   */\n      dup3\n        /* \"#utility.yul\":255:258   */\n      dup3\n        /* \"#utility.yul\":248:267   */\n      mstore\n        /* \"#utility.yul\":300:304   */\n      0x20\n        /* \"#utility.yul\":295:298   */\n      dup3\n        /* \"#utility.yul\":291:305   */\n      add\n        /* \"#utility.yul\":276:305   */\n      swap1\n      pop\n        /* \"#utility.yul\":127:311   */\n      swap3\n      swap2\n      pop\n      pop\n      jump\t// out\n        /* \"#utility.yul\":317:449   */\n    tag_57:\n        /* \"#utility.yul\":384:388   */\n      0x00\n        /* \"#utility.yul\":407:410   */\n      dup2\n        /* \"#utility.yul\":399:410   */\n      swap1\n      pop\n        /* \"#utility.yul\":437:441   */\n      0x20\n        /* \"#utility.yul\":432:435   */\n      dup3\n        /* \"#utility.yul\":428:442   */\n      add\n        /* \"#utility.yul\":420:442   */\n      swap1\n      pop\n        /* \"#utility.yul\":317:449   */\n      swap2\n      swap1\n      pop\n      jump\t// out\n        /* \"#utility.yul\":455:532   */\n    tag_58:\n        /* \"#utility.yul\":492:499   */\n      0x00\n        /* \"#utility.yul\":521:526   */\n      dup2\n        /* \"#utility.yul\":510:526   */\n      swap1\n      pop\n        /* \"#utility.yul\":455:532   */\n      swap2\n      swap1\n      pop\n      jump\t// out\n        /* \"#utility.yul\":538:646   */\n    tag_59:\n        /* \"#utility.yul\":615:639   */\n      tag_71\n        /* \"#utility.yul\":633:638   */\n      dup2\n        /* \"#utility.yul\":615:639   */\n      tag_58\n      jump\t// in\n    tag_71:\n        /* \"#utility.yul\":610:613   */\n      dup3\n        /* \"#utility.yul\":603:640   */\n      mstore\n        /* \"#utility.yul\":538:646   */\n      pop\n      pop\n      jump\t// out\n        /* \"#utility.yul\":652:831   */\n    tag_60:\n        /* \"#utility.yul\":721:731   */\n      0x00\n        /* \"#utility.yul\":742:788   */\n      tag_73\n        /* \"#utility.yul\":784:787   */\n      dup4\n        /* \"#utility.yul\":776:782   */\n      dup4\n        /* \"#utility.yul\":742:788   */\n      tag_59\n      jump\t// in\n    tag_73:\n        /* \"#utility.yul\":820:824   */\n      0x20\n        /* \"#utility.yul\":815:818   */\n      dup4\n        /* \"#utility.yul\":811:825   */\n      add\n        /* \"#utility.yul\":797:825   */\n      swap1\n      pop\n        /* \"#utility.yul\":652:831   */\n      swap3\n      swap2\n      pop\n      pop\n      jump\t// out\n        /* \"#utility.yul\":837:950   */\n    tag_61:\n        /* \"#utility.yul\":907:911   */\n      0x00\n        /* \"#utility.yul\":939:943   */\n      0x20\n        /* \"#utility.yul\":934:937   */\n      dup3\n        /* \"#utility.yul\":930:944   */\n      add\n        /* \"#utility.yul\":922:944   */\n      swap1\n      pop\n        /* \"#utility.yul\":837:950   */\n      swap2\n      swap1\n      pop\n      jump\t// out\n        /* \"#utility.yul\":986:1718   */\n    tag_62:\n        /* \"#utility.yul\":1105:1108   */\n      0x00\n        /* \"#utility.yul\":1134:1188   */\n      tag_76\n        /* \"#utility.yul\":1182:1187   */\n      dup3\n        /* \"#utility.yul\":1134:1188   */\n      tag_55\n      jump\t// in\n    tag_76:\n        /* \"#utility.yul\":1204:1290   */\n      tag_77\n        /* \"#utility.yul\":1283:1289   */\n      dup2\n        /* \"#utility.yul\":1278:1281   */\n      dup6\n        /* \"#utility.yul\":1204:1290   */\n      tag_56\n      jump\t// in\n    tag_77:\n        /* \"#utility.yul\":1197:1290   */\n      swap4\n      pop\n        /* \"#utility.yul\":1314:1370   */\n      tag_78\n        /* \"#utility.yul\":1364:1369   */\n      dup4\n        /* \"#utility.yul\":1314:1370   */\n      tag_57\n      jump\t// in\n    tag_78:\n        /* \"#utility.yul\":1393:1400   */\n      dup1\n        /* \"#utility.yul\":1424:1425   */\n      0x00\n        /* \"#utility.yul\":1409:1693   */\n    tag_79:\n        /* \"#utility.yul\":1434:1440   */\n      dup4\n        /* \"#utility.yul\":1431:1432   */\n      dup2\n        /* \"#utility.yul\":1428:1441   */\n      lt\n        /* \"#utility.yul\":1409:1693   */\n      iszero\n      tag_81\n      jumpi\n        /* \"#utility.yul\":1510:1516   */\n      dup2\n        /* \"#utility.yul\":1504:1517   */\n      mload\n        /* \"#utility.yul\":1537:1600   */\n      tag_82\n        /* \"#utility.yul\":1596:1599   */\n      dup9\n        /* \"#utility.yul\":1581:1594   */\n      dup3\n        /* \"#utility.yul\":1537:1600   */\n      tag_60\n      jump\t// in\n    tag_82:\n        /* \"#utility.yul\":1530:1600   */\n      swap8\n      pop\n        /* \"#utility.yul\":1623:1683   */\n      tag_83\n        /* \"#utility.yul\":1676:1682   */\n      dup4\n        /* \"#utility.yul\":1623:1683   */\n      tag_61\n      jump\t// in\n    tag_83:\n        /* \"#utility.yul\":1613:1683   */\n      swap3\n      pop\n        /* \"#utility.yul\":1469:1693   */\n      pop\n        /* \"#utility.yul\":1456:1457   */\n      0x01\n        /* \"#utility.yul\":1453:1454   */\n      dup2\n        /* \"#utility.yul\":1449:1458   */\n      add\n        /* \"#utility.yul\":1444:1458   */\n      swap1\n      pop\n        /* \"#utility.yul\":1409:1693   */\n      jump(tag_79)\n    tag_81:\n        /* \"#utility.yul\":1413:1427   */\n      pop\n        /* \"#utility.yul\":1709:1712   */\n      dup6\n        /* \"#utility.yul\":1702:1712   */\n      swap4\n      pop\n        /* \"#utility.yul\":1110:1718   */\n      pop\n      pop\n      pop\n        /* \"#utility.yul\":986:1718   */\n      swap3\n      swap2\n      pop\n      pop\n      jump\t// out\n        /* \"#utility.yul\":1724:2097   */\n    tag_10:\n        /* \"#utility.yul\":1867:1871   */\n      0x00\n        /* \"#utility.yul\":1905:1907   */\n      0x20\n        /* \"#utility.yul\":1894:1903   */\n      dup3\n        /* \"#utility.yul\":1890:1908   */\n      add\n        /* \"#utility.yul\":1882:1908   */\n      swap1\n      pop\n        /* \"#utility.yul\":1954:1963   */\n      dup2\n        /* \"#utility.yul\":1948:1952   */\n      dup2\n        /* \"#utility.yul\":1944:1964   */\n      sub\n        /* \"#utility.yul\":1940:1941   */\n      0x00\n        /* \"#utility.yul\":1929:1938   */\n      dup4\n        /* \"#utility.yul\":1925:1942   */\n      add\n        /* \"#utility.yul\":1918:1965   */\n      mstore\n        /* \"#utility.yul\":1982:2090   */\n      tag_85\n        /* \"#utility.yul\":2085:2089   */\n      dup2\n        /* \"#utility.yul\":2076:2082   */\n      dup5\n        /* \"#utility.yul\":1982:2090   */\n      tag_62\n      jump\t// in\n    tag_85:\n        /* \"#utility.yul\":1974:2090   */\n      swap1\n      pop\n        /* \"#utility.yul\":1724:2097   */\n      swap3\n      swap2\n      pop\n      pop\n      jump\t// out\n        /* \"#utility.yul\":2103:2283   */\n    tag_63:\n        /* \"#utility.yul\":2151:2228   */\n      0x4e487b7100000000000000000000000000000000000000000000000000000000\n        /* \"#utility.yul\":2148:2149   */\n      0x00\n        /* \"#utility.yul\":2141:2229   */\n      mstore\n        /* \"#utility.yul\":2248:2252   */\n      0x12\n        /* \"#utility.yul\":2245:2246   */\n      0x04\n        /* \"#utility.yul\":2238:2253   */\n      mstore\n        /* \"#utility.yul\":2272:2276   */\n      0x24\n        /* \"#utility.yul\":2269:2270   */\n      0x00\n        /* \"#utility.yul\":2262:2277   */\n      revert\n        /* \"#utility.yul\":2289:2465   */\n    tag_13:\n        /* \"#utility.yul\":2321:2322   */\n      0x00\n        /* \"#utility.yul\":2338:2358   */\n      tag_88\n        /* \"#utility.yul\":2356:2357   */\n      dup3\n        /* \"#utility.yul\":2338:2358   */\n      tag_58\n      jump\t// in\n    tag_88:\n        /* \"#utility.yul\":2333:2358   */\n      swap2\n      pop\n        /* \"#utility.yul\":2372:2392   */\n      tag_89\n        /* \"#utility.yul\":2390:2391   */\n      dup4\n        /* \"#utility.yul\":2372:2392   */\n      tag_58\n      jump\t// in\n    tag_89:\n        /* \"#utility.yul\":2367:2392   */\n      swap3\n      pop\n        /* \"#utility.yul\":2411:2412   */\n      dup3\n        /* \"#utility.yul\":2401:2436   */\n      tag_90\n      jumpi\n        /* \"#utility.yul\":2416:2434   */\n      tag_91\n      tag_63\n      jump\t// in\n    tag_91:\n        /* \"#utility.yul\":2401:2436   */\n    tag_90:\n        /* \"#utility.yul\":2457:2458   */\n      dup3\n        /* \"#utility.yul\":2454:2455   */\n      dup3\n        /* \"#utility.yul\":2450:2459   */\n      mod\n        /* \"#utility.yul\":2445:2459   */\n      swap1\n      pop\n        /* \"#utility.yul\":2289:2465   */\n      swap3\n      swap2\n      pop\n      pop\n      jump\t// out\n        /* \"#utility.yul\":2471:2651   */\n    tag_64:\n        /* \"#utility.yul\":2519:2596   */\n      0x4e487b7100000000000000000000000000000000000000000000000000000000\n        /* \"#utility.yul\":2516:2517   */\n      0x00\n        /* \"#utility.yul\":2509:2597   */\n      mstore\n        /* \"#utility.yul\":2616:2620   */\n      0x11\n        /* \"#utility.yul\":2613:2614   */\n      0x04\n        /* \"#utility.yul\":2606:2621   */\n      mstore\n        /* \"#utility.yul\":2640:2644   */\n      0x24\n        /* \"#utility.yul\":2637:2638   */\n      0x00\n        /* \"#utility.yul\":2630:2645   */\n      revert\n        /* \"#utility.yul\":2657:2842   */\n    tag_25:\n        /* \"#utility.yul\":2697:2698   */\n      0x00\n        /* \"#utility.yul\":2714:2734   */\n      tag_94\n        /* \"#utility.yul\":2732:2733   */\n      dup3\n        /* \"#utility.yul\":2714:2734   */\n      tag_58\n      jump\t// in\n    tag_94:\n        /* \"#utility.yul\":2709:2734   */\n      swap2\n      pop\n        /* \"#utility.yul\":2748:2768   */\n      tag_95\n        /* \"#utility.yul\":2766:2767   */\n      dup4\n        /* \"#utility.yul\":2748:2768   */\n      tag_58\n      jump\t// in\n    tag_95:\n        /* \"#utility.yul\":2743:2768   */\n      swap3\n      pop\n        /* \"#utility.yul\":2787:2788   */\n      dup3\n        /* \"#utility.yul\":2777:2812   */\n      tag_96\n      jumpi\n        /* \"#utility.yul\":2792:2810   */\n      tag_97\n      tag_63\n      jump\t// in\n    tag_97:\n        /* \"#utility.yul\":2777:2812   */\n    tag_96:\n        /* \"#utility.yul\":2834:2835   */\n      dup3\n        /* \"#utility.yul\":2831:2832   */\n      dup3\n        /* \"#utility.yul\":2827:2836   */\n      div\n        /* \"#utility.yul\":2822:2836   */\n      swap1\n      pop\n        /* \"#utility.yul\":2657:2842   */\n      swap3\n      swap2\n      pop\n      pop\n      jump\t// out\n        /* \"#utility.yul\":2848:3258   */\n    tag_27:\n        /* \"#utility.yul\":2888:2895   */\n      0x00\n        /* \"#utility.yul\":2911:2931   */\n      tag_99\n        /* \"#utility.yul\":2929:2930   */\n      dup3\n        /* \"#utility.yul\":2911:2931   */\n      tag_58\n      jump\t// in\n    tag_99:\n        /* \"#utility.yul\":2906:2931   */\n      swap2\n      pop\n        /* \"#utility.yul\":2945:2965   */\n      tag_100\n        /* \"#utility.yul\":2963:2964   */\n      dup4\n        /* \"#utility.yul\":2945:2965   */\n      tag_58\n      jump\t// in\n    tag_100:\n        /* \"#utility.yul\":2940:2965   */\n      swap3\n      pop\n        /* \"#utility.yul\":3000:3001   */\n      dup3\n        /* \"#utility.yul\":2997:2998   */\n      dup3\n        /* \"#utility.yul\":2993:3002   */\n      mul\n        /* \"#utility.yul\":3022:3052   */\n      tag_101\n        /* \"#utility.yul\":3040:3051   */\n      dup2\n        /* \"#utility.yul\":3022:3052   */\n      tag_58\n      jump\t// in\n    tag_101:\n        /* \"#utility.yul\":3011:3052   */\n      swap2\n      pop\n        /* \"#utility.yul\":3201:3202   */\n      dup3\n        /* \"#utility.yul\":3192:3199   */\n      dup3\n        /* \"#utility.yul\":3188:3203   */\n      div\n        /* \"#utility.yul\":3185:3186   */\n      dup5\n        /* \"#utility.yul\":3182:3204   */\n      eq\n        /* \"#utility.yul\":3162:3163   */\n      dup4\n        /* \"#utility.yul\":3155:3164   */\n      iszero\n        /* \"#utility.yul\":3135:3218   */\n      or\n        /* \"#utility.yul\":3112:3251   */\n      tag_102\n      jumpi\n        /* \"#utility.yul\":3231:3249   */\n      tag_103\n      tag_64\n      jump\t// in\n    tag_103:\n        /* \"#utility.yul\":3112:3251   */\n    tag_102:\n        /* \"#utility.yul\":2896:3258   */\n      pop\n        /* \"#utility.yul\":2848:3258   */\n      swap3\n      swap2\n      pop\n      pop\n      jump\t// out\n        /* \"#utility.yul\":3264:3455   */\n    tag_29:\n        /* \"#utility.yul\":3304:3307   */\n      0x00\n        /* \"#utility.yul\":3323:3343   */\n      tag_105\n        /* \"#utility.yul\":3341:3342   */\n      dup3\n        /* \"#utility.yul\":3323:3343   */\n      tag_58\n      jump\t// in\n    tag_105:\n        /* \"#utility.yul\":3318:3343   */\n      swap2\n      pop\n        /* \"#utility.yul\":3357:3377   */\n      tag_106\n        /* \"#utility.yul\":3375:3376   */\n      dup4\n        /* \"#utility.yul\":3357:3377   */\n      tag_58\n      jump\t// in\n    tag_106:\n        /* \"#utility.yul\":3352:3377   */\n      swap3\n      pop\n        /* \"#utility.yul\":3400:3401   */\n      dup3\n        /* \"#utility.yul\":3397:3398   */\n      dup3\n        /* \"#utility.yul\":3393:3402   */\n      add\n        /* \"#utility.yul\":3386:3402   */\n      swap1\n      pop\n        /* \"#utility.yul\":3421:3424   */\n      dup1\n        /* \"#utility.yul\":3418:3419   */\n      dup3\n        /* \"#utility.yul\":3415:3425   */\n      gt\n        /* \"#utility.yul\":3412:3448   */\n      iszero\n      tag_107\n      jumpi\n        /* \"#utility.yul\":3428:3446   */\n      tag_108\n      tag_64\n      jump\t// in\n    tag_108:\n        /* \"#utility.yul\":3412:3448   */\n    tag_107:\n        /* \"#utility.yul\":3264:3455   */\n      swap3\n      swap2\n      pop\n      pop\n      jump\t// out\n        /* \"#utility.yul\":3461:3641   */\n    tag_32:\n        /* \"#utility.yul\":3509:3586   */\n      0x4e487b7100000000000000000000000000000000000000000000000000000000\n        /* \"#utility.yul\":3506:3507   */\n      0x00\n        /* \"#utility.yul\":3499:3587   */\n      mstore\n        /* \"#utility.yul\":3606:3610   */\n      0x32\n        /* \"#utility.yul\":3603:3604   */\n      0x04\n        /* \"#utility.yul\":3596:3611   */\n      mstore\n        /* \"#utility.yul\":3630:3634   */\n      0x24\n        /* \"#utility.yul\":3627:3628   */\n      0x00\n        /* \"#utility.yul\":3620:3635   */\n      revert\n        /* \"#utility.yul\":3647:3880   */\n    tag_43:\n        /* \"#utility.yul\":3686:3689   */\n      0x00\n        /* \"#utility.yul\":3709:3733   */\n      tag_111\n        /* \"#utility.yul\":3727:3732   */\n      dup3\n        /* \"#utility.yul\":3709:3733   */\n      tag_58\n      jump\t// in\n    tag_111:\n        /* \"#utility.yul\":3700:3733   */\n      swap2\n      pop\n        /* \"#utility.yul\":3755:3821   */\n      0xffffffffffffffffffffffffffffffffffffffffffffffffffffffffffffffff\n        /* \"#utility.yul\":3748:3753   */\n      dup3\n        /* \"#utility.yul\":3745:3822   */\n      sub\n        /* \"#utility.yul\":3742:3845   */\n      tag_112\n      jumpi\n        /* \"#utility.yul\":3825:3843   */\n      tag_113\n      tag_64\n      jump\t// in\n    tag_113:\n        /* \"#utility.yul\":3742:3845   */\n    tag_112:\n        /* \"#utility.yul\":3872:3873   */\n      0x01\n        /* \"#utility.yul\":3865:3870   */\n      dup3\n        /* \"#utility.yul\":3861:3874   */\n      add\n        /* \"#utility.yul\":3854:3874   */\n      swap1\n      pop\n        /* \"#utility.yul\":3647:3880   */\n      swap2\n      swap1\n      pop\n      jump\t// out\n        /* \"#utility.yul\":3886:4066   */\n    tag_49:\n        /* \"#utility.yul\":3934:4011   */\n      0x4e487b7100000000000000000000000000000000000000000000000000000000\n        /* \"#utility.yul\":3931:3932   */\n      0x00\n        /* \"#utility.yul\":3924:4012   */\n      mstore\n        /* \"#utility.yul\":4031:4035   */\n      0x31\n        /* \"#utility.yul\":4028:4029   */\n      0x04\n        /* \"#utility.yul\":4021:4036   */\n      mstore\n        /* \"#utility.yul\":4055:4059   */\n      0x24\n        /* \"#utility.yul\":4052:4053   */\n      0x00\n        /* \"#utility.yul\":4045:4060   */\n      revert\n\n    auxdata: 0xa264697066735822122083ee5566df040c88347c3f70ef8f2bd3365fa19b82164cbd6662e9bd3f079abf64736f6c63430008120033\n}\n",
				"bytecode": {
					"linkReferences": {},
					"object": "6080604052604051806101000160405280600160ff168152602001600160ff168152602001600160ff168152602001600160ff168152602001600160ff168152602001600160ff168152602001600160ff168152602001600160ff16815250600090600861006e929190610081565b5034801561007b57600080fd5b506100f0565b8280548282559060005260206000209081019282156100c2579160200282015b828111156100c1578251829060ff169055916020019190600101906100a1565b5b5090506100cf91906100d3565b5090565b5b808211156100ec5760008160009055506001016100d4565b5090565b61055a806100ff6000396000f3fe608060405234801561001057600080fd5b50600436106100365760003560e01c80634f2be91f1461003b578063993a04b714610045575b600080fd5b610043610063565b005b61004d610206565b60405161005a9190610326565b60405180910390f35b600160026000805490506100779190610377565b036100a557600080806001815401808255809150506001900390600052602060002001600090919091909150555b5b60016000805490501461020457600160026000805490506100c79190610377565b036100f557600080806001815401808255809150506001900390600052602060002001600090919091909150555b60005b600260008054905061010a91906103d7565b8110156101b257600060016002836101229190610408565b61012c919061044a565b8154811061013d5761013c61047e565b5b906000526020600020015460006002836101579190610408565b815481106101685761016761047e565b5b906000526020600020015461017d919061044a565b600082815481106101915761019061047e565b5b906000526020600020018190555080806101aa906104ad565b9150506100f8565b5060005b6000805490508110156101fe5760008054806101d5576101d46104f5565b5b6001900381819060005260206000200160009055905580806101f6906104ad565b9150506101b6565b506100a6565b565b6060600080548060200260200160405190810160405280929190818152602001828054801561025457602002820191906000526020600020905b815481526020019060010190808311610240575b5050505050905090565b600081519050919050565b600082825260208201905092915050565b6000819050602082019050919050565b6000819050919050565b61029d8161028a565b82525050565b60006102af8383610294565b60208301905092915050565b6000602082019050919050565b60006102d38261025e565b6102dd8185610269565b93506102e88361027a565b8060005b8381101561031957815161030088826102a3565b975061030b836102bb565b9250506001810190506102ec565b5085935050505092915050565b6000602082019050818103600083015261034081846102c8565b905092915050565b7f4e487b7100000000000000000000000000000000000000000000000000000000600052601260045260246000fd5b60006103828261028a565b915061038d8361028a565b92508261039d5761039c610348565b5b828206905092915050565b7f4e487b7100000000000000000000000000000000000000000000000000000000600052601160045260246000fd5b60006103e28261028a565b91506103ed8361028a565b9250826103fd576103fc610348565b5b828204905092915050565b60006104138261028a565b915061041e8361028a565b925082820261042c8161028a565b91508282048414831517610443576104426103a8565b5b5092915050565b60006104558261028a565b91506104608361028a565b9250828201905080821115610478576104776103a8565b5b92915050565b7f4e487b7100000000000000000000000000000000000000000000000000000000600052603260045260246000fd5b60006104b88261028a565b91507fffffffffffffffffffffffffffffffffffffffffffffffffffffffffffffffff82036104ea576104e96103a8565b5b600182019050919050565b7f4e487b7100000000000000000000000000000000000000000000000000000000600052603160045260246000fdfea264697066735822122083ee5566df040c88347c3f70ef8f2bd3365fa19b82164cbd6662e9bd3f079abf64736f6c63430008120033",
					"opcodes": "PUSH1 0x80 PUSH1 0x40 MSTORE PUSH1 0x40 MLOAD DUP1 PUSH2 0x100 ADD PUSH1 0x40 MSTORE DUP1 PUSH1 0x1 PUSH1 0xFF AND DUP2 MSTORE PUSH1 0x20 ADD PUSH1 0x1 PUSH1 0xFF AND DUP2 MSTORE PUSH1 0x20 ADD PUSH1 0x1 PUSH1 0xFF AND DUP2 MSTORE PUSH1 0x20 ADD PUSH1 0x1 PUSH1 0xFF AND DUP2 MSTORE PUSH1 0x20 ADD PUSH1 0x1 PUSH1 0xFF AND DUP2 MSTORE PUSH1 0x20 ADD PUSH1 0x1 PUSH1 0xFF AND DUP2 MSTORE PUSH1 0x20 ADD PUSH1 0x1 PUSH1 0xFF AND DUP2 MSTORE PUSH1 0x20 ADD PUSH1 0x1 PUSH1 0xFF AND DUP2 MSTORE POP PUSH1 0x0 SWAP1 PUSH1 0x8 PUSH2 0x6E SWAP3 SWAP2 SWAP1 PUSH2 0x81 JUMP JUMPDEST POP CALLVALUE DUP1 ISZERO PUSH2 0x7B JUMPI PUSH1 0x0 DUP1 REVERT JUMPDEST POP PUSH2 0xF0 JUMP JUMPDEST DUP3 DUP1 SLOAD DUP3 DUP3 SSTORE SWAP1 PUSH1 0x0 MSTORE PUSH1 0x20 PUSH1 0x0 KECCAK256 SWAP1 DUP2 ADD SWAP3 DUP3 ISZERO PUSH2 0xC2 JUMPI SWAP2 PUSH1 0x20 MUL DUP3 ADD JUMPDEST DUP3 DUP2 GT ISZERO PUSH2 0xC1 JUMPI DUP3 MLOAD DUP3 SWAP1 PUSH1 0xFF AND SWAP1 SSTORE SWAP2 PUSH1 0x20 ADD SWAP2 SWAP1 PUSH1 0x1 ADD SWAP1 PUSH2 0xA1 JUMP JUMPDEST JUMPDEST POP SWAP1 POP PUSH2 0xCF SWAP2 SWAP1 PUSH2 0xD3 JUMP JUMPDEST POP SWAP1 JUMP JUMPDEST JUMPDEST DUP1 DUP3 GT ISZERO PUSH2 0xEC JUMPI PUSH1 0x0 DUP2 PUSH1 0x0 SWAP1 SSTORE POP PUSH1 0x1 ADD PUSH2 0xD4 JUMP JUMPDEST POP SWAP1 JUMP JUMPDEST PUSH2 0x55A DUP1 PUSH2 0xFF PUSH1 0x0 CODECOPY PUSH1 0x0 RETURN INVALID PUSH1 0x80 PUSH1 0x40 MSTORE CALLVALUE DUP1 ISZERO PUSH2 0x10 JUMPI PUSH1 0x0 DUP1 REVERT JUMPDEST POP PUSH1 0x4 CALLDATASIZE LT PUSH2 0x36 JUMPI PUSH1 0x0 CALLDATALOAD PUSH1 0xE0 SHR DUP1 PUSH4 0x4F2BE91F EQ PUSH2 0x3B JUMPI DUP1 PUSH4 0x993A04B7 EQ PUSH2 0x45 JUMPI JUMPDEST PUSH1 0x0 DUP1 REVERT JUMPDEST PUSH2 0x43 PUSH2 0x63 JUMP JUMPDEST STOP JUMPDEST PUSH2 0x4D PUSH2 0x206 JUMP JUMPDEST PUSH1 0x40 MLOAD PUSH2 0x5A SWAP2 SWAP1 PUSH2 0x326 JUMP JUMPDEST PUSH1 0x40 MLOAD DUP1 SWAP2 SUB SWAP1 RETURN JUMPDEST PUSH1 0x1 PUSH1 0x2 PUSH1 0x0 DUP1 SLOAD SWAP1 POP PUSH2 0x77 SWAP2 SWAP1 PUSH2 0x377 JUMP JUMPDEST SUB PUSH2 0xA5 JUMPI PUSH1 0x0 DUP1 DUP1 PUSH1 0x1 DUP2 SLOAD ADD DUP1 DUP3 SSTORE DUP1 SWAP2 POP POP PUSH1 0x1 SWAP1 SUB SWAP1 PUSH1 0x0 MSTORE PUSH1 0x20 PUSH1 0x0 KECCAK256 ADD PUSH1 0x0 SWAP1 SWAP2 SWAP1 SWAP2 SWAP1 SWAP2 POP SSTORE JUMPDEST JUMPDEST PUSH1 0x1 PUSH1 0x0 DUP1 SLOAD SWAP1 POP EQ PUSH2 0x204 JUMPI PUSH1 0x1 PUSH1 0x2 PUSH1 0x0 DUP1 SLOAD SWAP1 POP PUSH2 0xC7 SWAP2 SWAP1 PUSH2 0x377 JUMP JUMPDEST SUB PUSH2 0xF5 JUMPI PUSH1 0x0 DUP1 DUP1 PUSH1 0x1 DUP2 SLOAD ADD DUP1 DUP3 SSTORE DUP1 SWAP2 POP POP PUSH1 0x1 SWAP1 SUB SWAP1 PUSH1 0x0 MSTORE PUSH1 0x20 PUSH1 0x0 KECCAK256 ADD PUSH1 0x0 SWAP1 SWAP2 SWAP1 SWAP2 SWAP1 SWAP2 POP SSTORE JUMPDEST PUSH1 0x0 JUMPDEST PUSH1 0x2 PUSH1 0x0 DUP1 SLOAD SWAP1 POP PUSH2 0x10A SWAP2 SWAP1 PUSH2 0x3D7 JUMP JUMPDEST DUP2 LT ISZERO PUSH2 0x1B2 JUMPI PUSH1 0x0 PUSH1 0x1 PUSH1 0x2 DUP4 PUSH2 0x122 SWAP2 SWAP1 PUSH2 0x408 JUMP JUMPDEST PUSH2 0x12C SWAP2 SWAP1 PUSH2 0x44A JUMP JUMPDEST DUP2 SLOAD DUP2 LT PUSH2 0x13D JUMPI PUSH2 0x13C PUSH2 0x47E JUMP JUMPDEST JUMPDEST SWAP1 PUSH1 0x0 MSTORE PUSH1 0x20 PUSH1 0x0 KECCAK256 ADD SLOAD PUSH1 0x0 PUSH1 0x2 DUP4 PUSH2 0x157 SWAP2 SWAP1 PUSH2 0x408 JUMP JUMPDEST DUP2 SLOAD DUP2 LT PUSH2 0x168 JUMPI PUSH2 0x167 PUSH2 0x47E JUMP JUMPDEST JUMPDEST SWAP1 PUSH1 0x0 MSTORE PUSH1 0x20 PUSH1 0x0 KECCAK256 ADD SLOAD PUSH2 0x17D SWAP2 SWAP1 PUSH2 0x44A JUMP JUMPDEST PUSH1 0x0 DUP3 DUP2 SLOAD DUP2 LT PUSH2 0x191 JUMPI PUSH2 0x190 PUSH2 0x47E JUMP JUMPDEST JUMPDEST SWAP1 PUSH1 0x0 MSTORE PUSH1 0x20 PUSH1 0x0 KECCAK256 ADD DUP2 SWAP1 SSTORE POP DUP1 DUP1 PUSH2 0x1AA SWAP1 PUSH2 0x4AD JUMP JUMPDEST SWAP2 POP POP PUSH2 0xF8 JUMP JUMPDEST POP PUSH1 0x0 JUMPDEST PUSH1 0x0 DUP1 SLOAD SWAP1 POP DUP2 LT ISZERO PUSH2 0x1FE JUMPI PUSH1 0x0 DUP1 SLOAD DUP1 PUSH2 0x1D5 JUMPI PUSH2 0x1D4 PUSH2 0x4F5 JUMP JUMPDEST JUMPDEST PUSH1 0x1 SWAP1 SUB DUP2 DUP2 SWAP1 PUSH1 0x0 MSTORE PUSH1 0x20 PUSH1 0x0 KECCAK256 ADD PUSH1 0x0 SWAP1 SSTORE SWAP1 SSTORE DUP1 DUP1 PUSH2 0x1F6 SWAP1 PUSH2 0x4AD JUMP JUMPDEST SWAP2 POP POP PUSH2 0x1B6 JUMP JUMPDEST POP PUSH2 0xA6 JUMP JUMPDEST JUMP JUMPDEST PUSH1 0x60 PUSH1 0x0 DUP1 SLOAD DUP1 PUSH1 0x20 MUL PUSH1 0x20 ADD PUSH1 0x40 MLOAD SWAP1 DUP2 ADD PUSH1 0x40 MSTORE DUP1 SWAP3 SWAP2 SWAP1 DUP2 DUP2 MSTORE PUSH1 0x20 ADD DUP3 DUP1 SLOAD DUP1 ISZERO PUSH2 0x254 JUMPI PUSH1 0x20 MUL DUP3 ADD SWAP2 SWAP1 PUSH1 0x0 MSTORE PUSH1 0x20 PUSH1 0x0 KECCAK256 SWAP1 JUMPDEST DUP2 SLOAD DUP2 MSTORE PUSH1 0x20 ADD SWAP1 PUSH1 0x1 ADD SWAP1 DUP1 DUP4 GT PUSH2 0x240 JUMPI JUMPDEST POP POP POP POP POP SWAP1 POP SWAP1 JUMP JUMPDEST PUSH1 0x0 DUP2 MLOAD SWAP1 POP SWAP2 SWAP1 POP JUMP JUMPDEST PUSH1 0x0 DUP3 DUP3 MSTORE PUSH1 0x20 DUP3 ADD SWAP1 POP SWAP3 SWAP2 POP POP JUMP JUMPDEST PUSH1 0x0 DUP2 SWAP1 POP PUSH1 0x20 DUP3 ADD SWAP1 POP SWAP2 SWAP1 POP JUMP JUMPDEST PUSH1 0x0 DUP2 SWAP1 POP SWAP2 SWAP1 POP JUMP JUMPDEST PUSH2 0x29D DUP2 PUSH2 0x28A JUMP JUMPDEST DUP3 MSTORE POP POP JUMP JUMPDEST PUSH1 0x0 PUSH2 0x2AF DUP4 DUP4 PUSH2 0x294 JUMP JUMPDEST PUSH1 0x20 DUP4 ADD SWAP1 POP SWAP3 SWAP2 POP POP JUMP JUMPDEST PUSH1 0x0 PUSH1 0x20 DUP3 ADD SWAP1 POP SWAP2 SWAP1 POP JUMP JUMPDEST PUSH1 0x0 PUSH2 0x2D3 DUP3 PUSH2 0x25E JUMP JUMPDEST PUSH2 0x2DD DUP2 DUP6 PUSH2 0x269 JUMP JUMPDEST SWAP4 POP PUSH2 0x2E8 DUP4 PUSH2 0x27A JUMP JUMPDEST DUP1 PUSH1 0x0 JUMPDEST DUP4 DUP2 LT ISZERO PUSH2 0x319 JUMPI DUP2 MLOAD PUSH2 0x300 DUP9 DUP3 PUSH2 0x2A3 JUMP JUMPDEST SWAP8 POP PUSH2 0x30B DUP4 PUSH2 0x2BB JUMP JUMPDEST SWAP3 POP POP PUSH1 0x1 DUP2 ADD SWAP1 POP PUSH2 0x2EC JUMP JUMPDEST POP DUP6 SWAP4 POP POP POP POP SWAP3 SWAP2 POP POP JUMP JUMPDEST PUSH1 0x0 PUSH1 0x20 DUP3 ADD SWAP1 POP DUP2 DUP2 SUB PUSH1 0x0 DUP4 ADD MSTORE PUSH2 0x340 DUP2 DUP5 PUSH2 0x2C8 JUMP JUMPDEST SWAP1 POP SWAP3 SWAP2 POP POP JUMP JUMPDEST PUSH32 0x4E487B7100000000000000000000000000000000000000000000000000000000 PUSH1 0x0 MSTORE PUSH1 0x12 PUSH1 0x4 MSTORE PUSH1 0x24 PUSH1 0x0 REVERT JUMPDEST PUSH1 0x0 PUSH2 0x382 DUP3 PUSH2 0x28A JUMP JUMPDEST SWAP2 POP PUSH2 0x38D DUP4 PUSH2 0x28A JUMP JUMPDEST SWAP3 POP DUP3 PUSH2 0x39D JUMPI PUSH2 0x39C PUSH2 0x348 JUMP JUMPDEST JUMPDEST DUP3 DUP3 MOD SWAP1 POP SWAP3 SWAP2 POP POP JUMP JUMPDEST PUSH32 0x4E487B7100000000000000000000000000000000000000000000000000000000 PUSH1 0x0 MSTORE PUSH1 0x11 PUSH1 0x4 MSTORE PUSH1 0x24 PUSH1 0x0 REVERT JUMPDEST PUSH1 0x0 PUSH2 0x3E2 DUP3 PUSH2 0x28A JUMP JUMPDEST SWAP2 POP PUSH2 0x3ED DUP4 PUSH2 0x28A JUMP JUMPDEST SWAP3 POP DUP3 PUSH2 0x3FD JUMPI PUSH2 0x3FC PUSH2 0x348 JUMP JUMPDEST JUMPDEST DUP3 DUP3 DIV SWAP1 POP SWAP3 SWAP2 POP POP JUMP JUMPDEST PUSH1 0x0 PUSH2 0x413 DUP3 PUSH2 0x28A JUMP JUMPDEST SWAP2 POP PUSH2 0x41E DUP4 PUSH2 0x28A JUMP JUMPDEST SWAP3 POP DUP3 DUP3 MUL PUSH2 0x42C DUP2 PUSH2 0x28A JUMP JUMPDEST SWAP2 POP DUP3 DUP3 DIV DUP5 EQ DUP4 ISZERO OR PUSH2 0x443 JUMPI PUSH2 0x442 PUSH2 0x3A8 JUMP JUMPDEST JUMPDEST POP SWAP3 SWAP2 POP POP JUMP JUMPDEST PUSH1 0x0 PUSH2 0x455 DUP3 PUSH2 0x28A JUMP JUMPDEST SWAP2 POP PUSH2 0x460 DUP4 PUSH2 0x28A JUMP JUMPDEST SWAP3 POP DUP3 DUP3 ADD SWAP1 POP DUP1 DUP3 GT ISZERO PUSH2 0x478 JUMPI PUSH2 0x477 PUSH2 0x3A8 JUMP JUMPDEST JUMPDEST SWAP3 SWAP2 POP POP JUMP JUMPDEST PUSH32 0x4E487B7100000000000000000000000000000000000000000000000000000000 PUSH1 0x0 MSTORE PUSH1 0x32 PUSH1 0x4 MSTORE PUSH1 0x24 PUSH1 0x0 REVERT JUMPDEST PUSH1 0x0 PUSH2 0x4B8 DUP3 PUSH2 0x28A JUMP JUMPDEST SWAP2 POP PUSH32 0xFFFFFFFFFFFFFFFFFFFFFFFFFFFFFFFFFFFFFFFFFFFFFFFFFFFFFFFFFFFFFFFF DUP3 SUB PUSH2 0x4EA JUMPI PUSH2 0x4E9 PUSH2 0x3A8 JUMP JUMPDEST JUMPDEST PUSH1 0x1 DUP3 ADD SWAP1 POP SWAP2 SWAP1 POP JUMP JUMPDEST PUSH32 0x4E487B7100000000000000000000000000000000000000000000000000000000 PUSH1 0x0 MSTORE PUSH1 0x31 PUSH1 0x4 MSTORE PUSH1 0x24 PUSH1 0x0 REVERT INVALID LOG2 PUSH5 0x6970667358 0x22 SLT KECCAK256 DUP4 0xEE SSTORE PUSH7 0xDF040C88347C3F PUSH17 0xEF8F2BD3365FA19B82164CBD6662E9BD3F SMOD SWAP11 0xBF PUSH5 0x736F6C6343 STOP ADDMOD SLT STOP CALLER "
				},
				"gasEstimates": {
					"creation": {
						"codeDepositCost": "274000",
						"executionCost": "infinite",
						"totalCost": "infinite"
					},
					"external": {
						"add()": "infinite",
						"getter()": "infinite"
					}
				},
				"methodIdentifiers": {
					"add()": "4f2be91f",
					"getter()": "993a04b7"
				}
			},
			"storageLayout": {
				"storage": [
					{
						"astId": 13,
						"contract": "LABS 4 Aug/task 9 lab4.sol:MerkleTree",
						"label": "arr",
						"offset": 0,
						"slot": "0",
						"type": "t_array(t_uint256)dyn_storage"
					}
				],
				"types": {
					"t_array(t_uint256)dyn_storage": {
						"base": "t_uint256",
						"encoding": "dynamic_array",
						"label": "uint256[]",
						"numberOfBytes": "32"
					},
					"t_uint256": {
						"encoding": "inplace",
						"label": "uint256",
						"numberOfBytes": "32"
					}
				}
			},
			"userdoc": {
				"kind": "user",
				"methods": {},
				"version": 1
			}
		}
	}
}