{
	"LABS 4 Aug/Task 9 lab4.sol": {
		"MerkleTree": {
			"abi": [
				{
					"inputs": [],
					"name": "add",
					"outputs": [],
					"stateMutability": "nonpayable",
					"type": "function"
				},
				{
					"inputs": [],
					"name": "getter",
					"outputs": [
						{
							"internalType": "uint256[]",
							"name": "",
							"type": "uint256[]"
						}
					],
					"stateMutability": "view",
					"type": "function"
				},
				{
					"inputs": [],
					"name": "reset",
					"outputs": [],
					"stateMutability": "nonpayable",
					"type": "function"
				}
			],
			"devdoc": {
				"kind": "dev",
				"methods": {},
				"version": 1
			},
			"evm": {
				"assembly": "    /* \"LABS 4 Aug/Task 9 lab4.sol\":61:782  contract MerkleTree {... */\n  mstore(0x40, 0x80)\n    /* \"LABS 4 Aug/Task 9 lab4.sol\":191:224  uint256[] arr = [1,2,3,4,5,6,7,8] */\n  mload(0x40)\n  dup1\n  0x0100\n  add\n  0x40\n  mstore\n  dup1\n    /* \"LABS 4 Aug/Task 9 lab4.sol\":208:209  1 */\n  0x01\n    /* \"LABS 4 Aug/Task 9 lab4.sol\":191:224  uint256[] arr = [1,2,3,4,5,6,7,8] */\n  0xff\n  and\n  dup2\n  mstore\n  0x20\n  add\n    /* \"LABS 4 Aug/Task 9 lab4.sol\":210:211  2 */\n  0x02\n    /* \"LABS 4 Aug/Task 9 lab4.sol\":191:224  uint256[] arr = [1,2,3,4,5,6,7,8] */\n  0xff\n  and\n  dup2\n  mstore\n  0x20\n  add\n    /* \"LABS 4 Aug/Task 9 lab4.sol\":212:213  3 */\n  0x03\n    /* \"LABS 4 Aug/Task 9 lab4.sol\":191:224  uint256[] arr = [1,2,3,4,5,6,7,8] */\n  0xff\n  and\n  dup2\n  mstore\n  0x20\n  add\n    /* \"LABS 4 Aug/Task 9 lab4.sol\":214:215  4 */\n  0x04\n    /* \"LABS 4 Aug/Task 9 lab4.sol\":191:224  uint256[] arr = [1,2,3,4,5,6,7,8] */\n  0xff\n  and\n  dup2\n  mstore\n  0x20\n  add\n    /* \"LABS 4 Aug/Task 9 lab4.sol\":216:217  5 */\n  0x05\n    /* \"LABS 4 Aug/Task 9 lab4.sol\":191:224  uint256[] arr = [1,2,3,4,5,6,7,8] */\n  0xff\n  and\n  dup2\n  mstore\n  0x20\n  add\n    /* \"LABS 4 Aug/Task 9 lab4.sol\":218:219  6 */\n  0x06\n    /* \"LABS 4 Aug/Task 9 lab4.sol\":191:224  uint256[] arr = [1,2,3,4,5,6,7,8] */\n  0xff\n  and\n  dup2\n  mstore\n  0x20\n  add\n    /* \"LABS 4 Aug/Task 9 lab4.sol\":220:221  7 */\n  0x07\n    /* \"LABS 4 Aug/Task 9 lab4.sol\":191:224  uint256[] arr = [1,2,3,4,5,6,7,8] */\n  0xff\n  and\n  dup2\n  mstore\n  0x20\n  add\n    /* \"LABS 4 Aug/Task 9 lab4.sol\":222:223  8 */\n  0x08\n    /* \"LABS 4 Aug/Task 9 lab4.sol\":191:224  uint256[] arr = [1,2,3,4,5,6,7,8] */\n  0xff\n  and\n  dup2\n  mstore\n  pop\n  0x00\n  swap1\n  0x08\n  tag_1\n  swap3\n  swap2\n  swap1\n  tag_2\n  jump\t// in\ntag_1:\n  pop\n    /* \"LABS 4 Aug/Task 9 lab4.sol\":61:782  contract MerkleTree {... */\n  callvalue\n  dup1\n  iszero\n  tag_3\n  jumpi\n  0x00\n  dup1\n  revert\ntag_3:\n  pop\n  jump(tag_4)\ntag_2:\n  dup3\n  dup1\n  sload\n  dup3\n  dup3\n  sstore\n  swap1\n  0x00\n  mstore\n  keccak256(0x00, 0x20)\n  swap1\n  dup2\n  add\n  swap3\n  dup3\n  iszero\n  tag_5\n  jumpi\n  swap2\n  0x20\n  mul\n  dup3\n  add\ntag_6:\n  dup3\n  dup2\n  gt\n  iszero\n  tag_7\n  jumpi\n  dup3\n  mload\n  dup3\n  swap1\n  0xff\n  and\n  swap1\n  sstore\n  swap2\n  0x20\n  add\n  swap2\n  swap1\n  0x01\n  add\n  swap1\n  jump(tag_6)\ntag_7:\ntag_5:\n  pop\n  swap1\n  pop\n  tag_8\n  swap2\n  swap1\n  tag_9\n  jump\t// in\ntag_8:\n  pop\n  swap1\n  jump\t// out\ntag_9:\ntag_10:\n  dup1\n  dup3\n  gt\n  iszero\n  tag_11\n  jumpi\n  0x00\n  dup2\n  0x00\n  swap1\n  sstore\n  pop\n  0x01\n  add\n  jump(tag_10)\ntag_11:\n  pop\n  swap1\n  jump\t// out\ntag_4:\n  dataSize(sub_0)\n  dup1\n  dataOffset(sub_0)\n  0x00\n  codecopy\n  0x00\n  return\nstop\n\nsub_0: assembly {\n        /* \"LABS 4 Aug/Task 9 lab4.sol\":61:782  contract MerkleTree {... */\n      mstore(0x40, 0x80)\n      callvalue\n      dup1\n      iszero\n      tag_1\n      jumpi\n      0x00\n      dup1\n      revert\n    tag_1:\n      pop\n      jumpi(tag_2, lt(calldatasize, 0x04))\n      shr(0xe0, calldataload(0x00))\n      dup1\n      0x4f2be91f\n      eq\n      tag_3\n      jumpi\n      dup1\n      0x993a04b7\n      eq\n      tag_4\n      jumpi\n      dup1\n      0xd826f88f\n      eq\n      tag_5\n      jumpi\n    tag_2:\n      0x00\n      dup1\n      revert\n        /* \"LABS 4 Aug/Task 9 lab4.sol\":233:627  function add() public {... */\n    tag_3:\n      tag_6\n      tag_7\n      jump\t// in\n    tag_6:\n      stop\n        /* \"LABS 4 Aug/Task 9 lab4.sol\":633:719  function getter() public view returns (uint256[] memory) {... */\n    tag_4:\n      tag_8\n      tag_9\n      jump\t// in\n    tag_8:\n      mload(0x40)\n      tag_10\n      swap2\n      swap1\n      tag_11\n      jump\t// in\n    tag_10:\n      mload(0x40)\n      dup1\n      swap2\n      sub\n      swap1\n      return\n        /* \"LABS 4 Aug/Task 9 lab4.sol\":727:779  function reset() public{... */\n    tag_5:\n      tag_12\n      tag_13\n      jump\t// in\n    tag_12:\n      stop\n        /* \"LABS 4 Aug/Task 9 lab4.sol\":233:627  function add() public {... */\n    tag_7:\n        /* \"LABS 4 Aug/Task 9 lab4.sol\":288:289  1 */\n      0x01\n        /* \"LABS 4 Aug/Task 9 lab4.sol\":283:284  2 */\n      0x02\n        /* \"LABS 4 Aug/Task 9 lab4.sol\":270:273  arr */\n      0x00\n        /* \"LABS 4 Aug/Task 9 lab4.sol\":270:280  arr.length */\n      dup1\n      sload\n      swap1\n      pop\n        /* \"LABS 4 Aug/Task 9 lab4.sol\":270:284  arr.length % 2 */\n      tag_15\n      swap2\n      swap1\n      tag_16\n      jump\t// in\n    tag_15:\n        /* \"LABS 4 Aug/Task 9 lab4.sol\":270:289  arr.length % 2 == 1 */\n      sub\n        /* \"LABS 4 Aug/Task 9 lab4.sol\":266:329  if (arr.length % 2 == 1) {... */\n      tag_17\n      jumpi\n        /* \"LABS 4 Aug/Task 9 lab4.sol\":306:309  arr */\n      0x00\n        /* \"LABS 4 Aug/Task 9 lab4.sol\":315:316  0 */\n      dup1\n        /* \"LABS 4 Aug/Task 9 lab4.sol\":306:317  arr.push(0) */\n      dup1\n      0x01\n      dup2\n      sload\n      add\n      dup1\n      dup3\n      sstore\n      dup1\n      swap2\n      pop\n      pop\n      0x01\n      swap1\n      sub\n      swap1\n      0x00\n      mstore\n      keccak256(0x00, 0x20)\n      add\n      0x00\n      swap1\n      swap2\n      swap1\n      swap2\n      swap1\n      swap2\n      pop\n      sstore\n        /* \"LABS 4 Aug/Task 9 lab4.sol\":266:329  if (arr.length % 2 == 1) {... */\n    tag_17:\n        /* \"LABS 4 Aug/Task 9 lab4.sol\":339:620  while (arr.length != 1) {... */\n    tag_19:\n        /* \"LABS 4 Aug/Task 9 lab4.sol\":360:361  1 */\n      0x01\n        /* \"LABS 4 Aug/Task 9 lab4.sol\":346:349  arr */\n      0x00\n        /* \"LABS 4 Aug/Task 9 lab4.sol\":346:356  arr.length */\n      dup1\n      sload\n      swap1\n      pop\n        /* \"LABS 4 Aug/Task 9 lab4.sol\":346:361  arr.length != 1 */\n      eq\n        /* \"LABS 4 Aug/Task 9 lab4.sol\":339:620  while (arr.length != 1) {... */\n      tag_20\n      jumpi\n        /* \"LABS 4 Aug/Task 9 lab4.sol\":397:406  uint256 i */\n      0x00\n        /* \"LABS 4 Aug/Task 9 lab4.sol\":392:510  for (uint256 i = 0; i < arr.length / 2; i++) {... */\n    tag_21:\n        /* \"LABS 4 Aug/Task 9 lab4.sol\":429:430  2 */\n      0x02\n        /* \"LABS 4 Aug/Task 9 lab4.sol\":416:419  arr */\n      0x00\n        /* \"LABS 4 Aug/Task 9 lab4.sol\":416:426  arr.length */\n      dup1\n      sload\n      swap1\n      pop\n        /* \"LABS 4 Aug/Task 9 lab4.sol\":416:430  arr.length / 2 */\n      tag_24\n      swap2\n      swap1\n      tag_25\n      jump\t// in\n    tag_24:\n        /* \"LABS 4 Aug/Task 9 lab4.sol\":412:413  i */\n      dup2\n        /* \"LABS 4 Aug/Task 9 lab4.sol\":412:430  i < arr.length / 2 */\n      lt\n        /* \"LABS 4 Aug/Task 9 lab4.sol\":392:510  for (uint256 i = 0; i < arr.length / 2; i++) {... */\n      iszero\n      tag_22\n      jumpi\n        /* \"LABS 4 Aug/Task 9 lab4.sol\":478:481  arr */\n      0x00\n        /* \"LABS 4 Aug/Task 9 lab4.sol\":492:493  1 */\n      0x01\n        /* \"LABS 4 Aug/Task 9 lab4.sol\":487:488  2 */\n      0x02\n        /* \"LABS 4 Aug/Task 9 lab4.sol\":483:484  i */\n      dup4\n        /* \"LABS 4 Aug/Task 9 lab4.sol\":483:488  i * 2 */\n      tag_26\n      swap2\n      swap1\n      tag_27\n      jump\t// in\n    tag_26:\n        /* \"LABS 4 Aug/Task 9 lab4.sol\":482:493  (i * 2) + 1 */\n      tag_28\n      swap2\n      swap1\n      tag_29\n      jump\t// in\n    tag_28:\n        /* \"LABS 4 Aug/Task 9 lab4.sol\":478:494  arr[(i * 2) + 1] */\n      dup2\n      sload\n      dup2\n      lt\n      tag_30\n      jumpi\n      tag_31\n      tag_32\n      jump\t// in\n    tag_31:\n    tag_30:\n      swap1\n      0x00\n      mstore\n      keccak256(0x00, 0x20)\n      add\n      sload\n        /* \"LABS 4 Aug/Task 9 lab4.sol\":465:468  arr */\n      0x00\n        /* \"LABS 4 Aug/Task 9 lab4.sol\":473:474  2 */\n      0x02\n        /* \"LABS 4 Aug/Task 9 lab4.sol\":469:470  i */\n      dup4\n        /* \"LABS 4 Aug/Task 9 lab4.sol\":469:474  i * 2 */\n      tag_34\n      swap2\n      swap1\n      tag_27\n      jump\t// in\n    tag_34:\n        /* \"LABS 4 Aug/Task 9 lab4.sol\":465:475  arr[i * 2] */\n      dup2\n      sload\n      dup2\n      lt\n      tag_35\n      jumpi\n      tag_36\n      tag_32\n      jump\t// in\n    tag_36:\n    tag_35:\n      swap1\n      0x00\n      mstore\n      keccak256(0x00, 0x20)\n      add\n      sload\n        /* \"LABS 4 Aug/Task 9 lab4.sol\":465:494  arr[i * 2] + arr[(i * 2) + 1] */\n      tag_38\n      swap2\n      swap1\n      tag_29\n      jump\t// in\n    tag_38:\n        /* \"LABS 4 Aug/Task 9 lab4.sol\":456:459  arr */\n      0x00\n        /* \"LABS 4 Aug/Task 9 lab4.sol\":460:461  i */\n      dup3\n        /* \"LABS 4 Aug/Task 9 lab4.sol\":456:462  arr[i] */\n      dup2\n      sload\n      dup2\n      lt\n      tag_39\n      jumpi\n      tag_40\n      tag_32\n      jump\t// in\n    tag_40:\n    tag_39:\n      swap1\n      0x00\n      mstore\n      keccak256(0x00, 0x20)\n      add\n        /* \"LABS 4 Aug/Task 9 lab4.sol\":456:494  arr[i] = arr[i * 2] + arr[(i * 2) + 1] */\n      dup2\n      swap1\n      sstore\n      pop\n        /* \"LABS 4 Aug/Task 9 lab4.sol\":432:435  i++ */\n      dup1\n      dup1\n      tag_42\n      swap1\n      tag_43\n      jump\t// in\n    tag_42:\n      swap2\n      pop\n      pop\n        /* \"LABS 4 Aug/Task 9 lab4.sol\":392:510  for (uint256 i = 0; i < arr.length / 2; i++) {... */\n      jump(tag_21)\n    tag_22:\n      pop\n        /* \"LABS 4 Aug/Task 9 lab4.sol\":529:538  uint256 i */\n      0x00\n        /* \"LABS 4 Aug/Task 9 lab4.sol\":524:609  for (uint256 i = 0; i < arr.length; i++) {... */\n    tag_44:\n        /* \"LABS 4 Aug/Task 9 lab4.sol\":548:551  arr */\n      0x00\n        /* \"LABS 4 Aug/Task 9 lab4.sol\":548:558  arr.length */\n      dup1\n      sload\n      swap1\n      pop\n        /* \"LABS 4 Aug/Task 9 lab4.sol\":544:545  i */\n      dup2\n        /* \"LABS 4 Aug/Task 9 lab4.sol\":544:558  i < arr.length */\n      lt\n        /* \"LABS 4 Aug/Task 9 lab4.sol\":524:609  for (uint256 i = 0; i < arr.length; i++) {... */\n      iszero\n      tag_45\n      jumpi\n        /* \"LABS 4 Aug/Task 9 lab4.sol\":584:587  arr */\n      0x00\n        /* \"LABS 4 Aug/Task 9 lab4.sol\":584:593  arr.pop() */\n      dup1\n      sload\n      dup1\n      tag_47\n      jumpi\n      tag_48\n      tag_49\n      jump\t// in\n    tag_48:\n    tag_47:\n      0x01\n      swap1\n      sub\n      dup2\n      dup2\n      swap1\n      0x00\n      mstore\n      keccak256(0x00, 0x20)\n      add\n      0x00\n      swap1\n      sstore\n      swap1\n      sstore\n        /* \"LABS 4 Aug/Task 9 lab4.sol\":560:563  i++ */\n      dup1\n      dup1\n      tag_51\n      swap1\n      tag_43\n      jump\t// in\n    tag_51:\n      swap2\n      pop\n      pop\n        /* \"LABS 4 Aug/Task 9 lab4.sol\":524:609  for (uint256 i = 0; i < arr.length; i++) {... */\n      jump(tag_44)\n    tag_45:\n      pop\n        /* \"LABS 4 Aug/Task 9 lab4.sol\":339:620  while (arr.length != 1) {... */\n      jump(tag_19)\n    tag_20:\n        /* \"LABS 4 Aug/Task 9 lab4.sol\":233:627  function add() public {... */\n      jump\t// out\n        /* \"LABS 4 Aug/Task 9 lab4.sol\":633:719  function getter() public view returns (uint256[] memory) {... */\n    tag_9:\n        /* \"LABS 4 Aug/Task 9 lab4.sol\":672:688  uint256[] memory */\n      0x60\n        /* \"LABS 4 Aug/Task 9 lab4.sol\":708:711  arr */\n      0x00\n        /* \"LABS 4 Aug/Task 9 lab4.sol\":701:711  return arr */\n      dup1\n      sload\n      dup1\n      0x20\n      mul\n      0x20\n      add\n      mload(0x40)\n      swap1\n      dup2\n      add\n      0x40\n      mstore\n      dup1\n      swap3\n      swap2\n      swap1\n      dup2\n      dup2\n      mstore\n      0x20\n      add\n      dup3\n      dup1\n      sload\n      dup1\n      iszero\n      tag_53\n      jumpi\n      0x20\n      mul\n      dup3\n      add\n      swap2\n      swap1\n      0x00\n      mstore\n      keccak256(0x00, 0x20)\n      swap1\n    tag_54:\n      dup2\n      sload\n      dup2\n      mstore\n      0x20\n      add\n      swap1\n      0x01\n      add\n      swap1\n      dup1\n      dup4\n      gt\n      tag_54\n      jumpi\n    tag_53:\n      pop\n      pop\n      pop\n      pop\n      pop\n      swap1\n      pop\n        /* \"LABS 4 Aug/Task 9 lab4.sol\":633:719  function getter() public view returns (uint256[] memory) {... */\n      swap1\n      jump\t// out\n        /* \"LABS 4 Aug/Task 9 lab4.sol\":727:779  function reset() public{... */\n    tag_13:\n        /* \"LABS 4 Aug/Task 9 lab4.sol\":768:771  arr */\n      0x00\n      dup1\n        /* \"LABS 4 Aug/Task 9 lab4.sol\":761:771  delete arr */\n      tag_56\n      swap2\n      swap1\n      tag_57\n      jump\t// in\n    tag_56:\n        /* \"LABS 4 Aug/Task 9 lab4.sol\":727:779  function reset() public{... */\n      jump\t// out\n    tag_57:\n      pop\n      dup1\n      sload\n      0x00\n      dup3\n      sstore\n      swap1\n      0x00\n      mstore\n      keccak256(0x00, 0x20)\n      swap1\n      dup2\n      add\n      swap1\n      tag_59\n      swap2\n      swap1\n      tag_60\n      jump\t// in\n    tag_59:\n      pop\n      jump\t// out\n    tag_60:\n    tag_61:\n      dup1\n      dup3\n      gt\n      iszero\n      tag_62\n      jumpi\n      0x00\n      dup2\n      0x00\n      swap1\n      sstore\n      pop\n      0x01\n      add\n      jump(tag_61)\n    tag_62:\n      pop\n      swap1\n      jump\t// out\n        /* \"#utility.yul\":7:121   */\n    tag_63:\n        /* \"#utility.yul\":74:80   */\n      0x00\n        /* \"#utility.yul\":108:113   */\n      dup2\n        /* \"#utility.yul\":102:114   */\n      mload\n        /* \"#utility.yul\":92:114   */\n      swap1\n      pop\n        /* \"#utility.yul\":7:121   */\n      swap2\n      swap1\n      pop\n      jump\t// out\n        /* \"#utility.yul\":127:311   */\n    tag_64:\n        /* \"#utility.yul\":226:237   */\n      0x00\n        /* \"#utility.yul\":260:266   */\n      dup3\n        /* \"#utility.yul\":255:258   */\n      dup3\n        /* \"#utility.yul\":248:267   */\n      mstore\n        /* \"#utility.yul\":300:304   */\n      0x20\n        /* \"#utility.yul\":295:298   */\n      dup3\n        /* \"#utility.yul\":291:305   */\n      add\n        /* \"#utility.yul\":276:305   */\n      swap1\n      pop\n        /* \"#utility.yul\":127:311   */\n      swap3\n      swap2\n      pop\n      pop\n      jump\t// out\n        /* \"#utility.yul\":317:449   */\n    tag_65:\n        /* \"#utility.yul\":384:388   */\n      0x00\n        /* \"#utility.yul\":407:410   */\n      dup2\n        /* \"#utility.yul\":399:410   */\n      swap1\n      pop\n        /* \"#utility.yul\":437:441   */\n      0x20\n        /* \"#utility.yul\":432:435   */\n      dup3\n        /* \"#utility.yul\":428:442   */\n      add\n        /* \"#utility.yul\":420:442   */\n      swap1\n      pop\n        /* \"#utility.yul\":317:449   */\n      swap2\n      swap1\n      pop\n      jump\t// out\n        /* \"#utility.yul\":455:532   */\n    tag_66:\n        /* \"#utility.yul\":492:499   */\n      0x00\n        /* \"#utility.yul\":521:526   */\n      dup2\n        /* \"#utility.yul\":510:526   */\n      swap1\n      pop\n        /* \"#utility.yul\":455:532   */\n      swap2\n      swap1\n      pop\n      jump\t// out\n        /* \"#utility.yul\":538:646   */\n    tag_67:\n        /* \"#utility.yul\":615:639   */\n      tag_79\n        /* \"#utility.yul\":633:638   */\n      dup2\n        /* \"#utility.yul\":615:639   */\n      tag_66\n      jump\t// in\n    tag_79:\n        /* \"#utility.yul\":610:613   */\n      dup3\n        /* \"#utility.yul\":603:640   */\n      mstore\n        /* \"#utility.yul\":538:646   */\n      pop\n      pop\n      jump\t// out\n        /* \"#utility.yul\":652:831   */\n    tag_68:\n        /* \"#utility.yul\":721:731   */\n      0x00\n        /* \"#utility.yul\":742:788   */\n      tag_81\n        /* \"#utility.yul\":784:787   */\n      dup4\n        /* \"#utility.yul\":776:782   */\n      dup4\n        /* \"#utility.yul\":742:788   */\n      tag_67\n      jump\t// in\n    tag_81:\n        /* \"#utility.yul\":820:824   */\n      0x20\n        /* \"#utility.yul\":815:818   */\n      dup4\n        /* \"#utility.yul\":811:825   */\n      add\n        /* \"#utility.yul\":797:825   */\n      swap1\n      pop\n        /* \"#utility.yul\":652:831   */\n      swap3\n      swap2\n      pop\n      pop\n      jump\t// out\n        /* \"#utility.yul\":837:950   */\n    tag_69:\n        /* \"#utility.yul\":907:911   */\n      0x00\n        /* \"#utility.yul\":939:943   */\n      0x20\n        /* \"#utility.yul\":934:937   */\n      dup3\n        /* \"#utility.yul\":930:944   */\n      add\n        /* \"#utility.yul\":922:944   */\n      swap1\n      pop\n        /* \"#utility.yul\":837:950   */\n      swap2\n      swap1\n      pop\n      jump\t// out\n        /* \"#utility.yul\":986:1718   */\n    tag_70:\n        /* \"#utility.yul\":1105:1108   */\n      0x00\n        /* \"#utility.yul\":1134:1188   */\n      tag_84\n        /* \"#utility.yul\":1182:1187   */\n      dup3\n        /* \"#utility.yul\":1134:1188   */\n      tag_63\n      jump\t// in\n    tag_84:\n        /* \"#utility.yul\":1204:1290   */\n      tag_85\n        /* \"#utility.yul\":1283:1289   */\n      dup2\n        /* \"#utility.yul\":1278:1281   */\n      dup6\n        /* \"#utility.yul\":1204:1290   */\n      tag_64\n      jump\t// in\n    tag_85:\n        /* \"#utility.yul\":1197:1290   */\n      swap4\n      pop\n        /* \"#utility.yul\":1314:1370   */\n      tag_86\n        /* \"#utility.yul\":1364:1369   */\n      dup4\n        /* \"#utility.yul\":1314:1370   */\n      tag_65\n      jump\t// in\n    tag_86:\n        /* \"#utility.yul\":1393:1400   */\n      dup1\n        /* \"#utility.yul\":1424:1425   */\n      0x00\n        /* \"#utility.yul\":1409:1693   */\n    tag_87:\n        /* \"#utility.yul\":1434:1440   */\n      dup4\n        /* \"#utility.yul\":1431:1432   */\n      dup2\n        /* \"#utility.yul\":1428:1441   */\n      lt\n        /* \"#utility.yul\":1409:1693   */\n      iszero\n      tag_89\n      jumpi\n        /* \"#utility.yul\":1510:1516   */\n      dup2\n        /* \"#utility.yul\":1504:1517   */\n      mload\n        /* \"#utility.yul\":1537:1600   */\n      tag_90\n        /* \"#utility.yul\":1596:1599   */\n      dup9\n        /* \"#utility.yul\":1581:1594   */\n      dup3\n        /* \"#utility.yul\":1537:1600   */\n      tag_68\n      jump\t// in\n    tag_90:\n        /* \"#utility.yul\":1530:1600   */\n      swap8\n      pop\n        /* \"#utility.yul\":1623:1683   */\n      tag_91\n        /* \"#utility.yul\":1676:1682   */\n      dup4\n        /* \"#utility.yul\":1623:1683   */\n      tag_69\n      jump\t// in\n    tag_91:\n        /* \"#utility.yul\":1613:1683   */\n      swap3\n      pop\n        /* \"#utility.yul\":1469:1693   */\n      pop\n        /* \"#utility.yul\":1456:1457   */\n      0x01\n        /* \"#utility.yul\":1453:1454   */\n      dup2\n        /* \"#utility.yul\":1449:1458   */\n      add\n        /* \"#utility.yul\":1444:1458   */\n      swap1\n      pop\n        /* \"#utility.yul\":1409:1693   */\n      jump(tag_87)\n    tag_89:\n        /* \"#utility.yul\":1413:1427   */\n      pop\n        /* \"#utility.yul\":1709:1712   */\n      dup6\n        /* \"#utility.yul\":1702:1712   */\n      swap4\n      pop\n        /* \"#utility.yul\":1110:1718   */\n      pop\n      pop\n      pop\n        /* \"#utility.yul\":986:1718   */\n      swap3\n      swap2\n      pop\n      pop\n      jump\t// out\n        /* \"#utility.yul\":1724:2097   */\n    tag_11:\n        /* \"#utility.yul\":1867:1871   */\n      0x00\n        /* \"#utility.yul\":1905:1907   */\n      0x20\n        /* \"#utility.yul\":1894:1903   */\n      dup3\n        /* \"#utility.yul\":1890:1908   */\n      add\n        /* \"#utility.yul\":1882:1908   */\n      swap1\n      pop\n        /* \"#utility.yul\":1954:1963   */\n      dup2\n        /* \"#utility.yul\":1948:1952   */\n      dup2\n        /* \"#utility.yul\":1944:1964   */\n      sub\n        /* \"#utility.yul\":1940:1941   */\n      0x00\n        /* \"#utility.yul\":1929:1938   */\n      dup4\n        /* \"#utility.yul\":1925:1942   */\n      add\n        /* \"#utility.yul\":1918:1965   */\n      mstore\n        /* \"#utility.yul\":1982:2090   */\n      tag_93\n        /* \"#utility.yul\":2085:2089   */\n      dup2\n        /* \"#utility.yul\":2076:2082   */\n      dup5\n        /* \"#utility.yul\":1982:2090   */\n      tag_70\n      jump\t// in\n    tag_93:\n        /* \"#utility.yul\":1974:2090   */\n      swap1\n      pop\n        /* \"#utility.yul\":1724:2097   */\n      swap3\n      swap2\n      pop\n      pop\n      jump\t// out\n        /* \"#utility.yul\":2103:2283   */\n    tag_71:\n        /* \"#utility.yul\":2151:2228   */\n      0x4e487b7100000000000000000000000000000000000000000000000000000000\n        /* \"#utility.yul\":2148:2149   */\n      0x00\n        /* \"#utility.yul\":2141:2229   */\n      mstore\n        /* \"#utility.yul\":2248:2252   */\n      0x12\n        /* \"#utility.yul\":2245:2246   */\n      0x04\n        /* \"#utility.yul\":2238:2253   */\n      mstore\n        /* \"#utility.yul\":2272:2276   */\n      0x24\n        /* \"#utility.yul\":2269:2270   */\n      0x00\n        /* \"#utility.yul\":2262:2277   */\n      revert\n        /* \"#utility.yul\":2289:2465   */\n    tag_16:\n        /* \"#utility.yul\":2321:2322   */\n      0x00\n        /* \"#utility.yul\":2338:2358   */\n      tag_96\n        /* \"#utility.yul\":2356:2357   */\n      dup3\n        /* \"#utility.yul\":2338:2358   */\n      tag_66\n      jump\t// in\n    tag_96:\n        /* \"#utility.yul\":2333:2358   */\n      swap2\n      pop\n        /* \"#utility.yul\":2372:2392   */\n      tag_97\n        /* \"#utility.yul\":2390:2391   */\n      dup4\n        /* \"#utility.yul\":2372:2392   */\n      tag_66\n      jump\t// in\n    tag_97:\n        /* \"#utility.yul\":2367:2392   */\n      swap3\n      pop\n        /* \"#utility.yul\":2411:2412   */\n      dup3\n        /* \"#utility.yul\":2401:2436   */\n      tag_98\n      jumpi\n        /* \"#utility.yul\":2416:2434   */\n      tag_99\n      tag_71\n      jump\t// in\n    tag_99:\n        /* \"#utility.yul\":2401:2436   */\n    tag_98:\n        /* \"#utility.yul\":2457:2458   */\n      dup3\n        /* \"#utility.yul\":2454:2455   */\n      dup3\n        /* \"#utility.yul\":2450:2459   */\n      mod\n        /* \"#utility.yul\":2445:2459   */\n      swap1\n      pop\n        /* \"#utility.yul\":2289:2465   */\n      swap3\n      swap2\n      pop\n      pop\n      jump\t// out\n        /* \"#utility.yul\":2471:2651   */\n    tag_72:\n        /* \"#utility.yul\":2519:2596   */\n      0x4e487b7100000000000000000000000000000000000000000000000000000000\n        /* \"#utility.yul\":2516:2517   */\n      0x00\n        /* \"#utility.yul\":2509:2597   */\n      mstore\n        /* \"#utility.yul\":2616:2620   */\n      0x11\n        /* \"#utility.yul\":2613:2614   */\n      0x04\n        /* \"#utility.yul\":2606:2621   */\n      mstore\n        /* \"#utility.yul\":2640:2644   */\n      0x24\n        /* \"#utility.yul\":2637:2638   */\n      0x00\n        /* \"#utility.yul\":2630:2645   */\n      revert\n        /* \"#utility.yul\":2657:2842   */\n    tag_25:\n        /* \"#utility.yul\":2697:2698   */\n      0x00\n        /* \"#utility.yul\":2714:2734   */\n      tag_102\n        /* \"#utility.yul\":2732:2733   */\n      dup3\n        /* \"#utility.yul\":2714:2734   */\n      tag_66\n      jump\t// in\n    tag_102:\n        /* \"#utility.yul\":2709:2734   */\n      swap2\n      pop\n        /* \"#utility.yul\":2748:2768   */\n      tag_103\n        /* \"#utility.yul\":2766:2767   */\n      dup4\n        /* \"#utility.yul\":2748:2768   */\n      tag_66\n      jump\t// in\n    tag_103:\n        /* \"#utility.yul\":2743:2768   */\n      swap3\n      pop\n        /* \"#utility.yul\":2787:2788   */\n      dup3\n        /* \"#utility.yul\":2777:2812   */\n      tag_104\n      jumpi\n        /* \"#utility.yul\":2792:2810   */\n      tag_105\n      tag_71\n      jump\t// in\n    tag_105:\n        /* \"#utility.yul\":2777:2812   */\n    tag_104:\n        /* \"#utility.yul\":2834:2835   */\n      dup3\n        /* \"#utility.yul\":2831:2832   */\n      dup3\n        /* \"#utility.yul\":2827:2836   */\n      div\n        /* \"#utility.yul\":2822:2836   */\n      swap1\n      pop\n        /* \"#utility.yul\":2657:2842   */\n      swap3\n      swap2\n      pop\n      pop\n      jump\t// out\n        /* \"#utility.yul\":2848:3258   */\n    tag_27:\n        /* \"#utility.yul\":2888:2895   */\n      0x00\n        /* \"#utility.yul\":2911:2931   */\n      tag_107\n        /* \"#utility.yul\":2929:2930   */\n      dup3\n        /* \"#utility.yul\":2911:2931   */\n      tag_66\n      jump\t// in\n    tag_107:\n        /* \"#utility.yul\":2906:2931   */\n      swap2\n      pop\n        /* \"#utility.yul\":2945:2965   */\n      tag_108\n        /* \"#utility.yul\":2963:2964   */\n      dup4\n        /* \"#utility.yul\":2945:2965   */\n      tag_66\n      jump\t// in\n    tag_108:\n        /* \"#utility.yul\":2940:2965   */\n      swap3\n      pop\n        /* \"#utility.yul\":3000:3001   */\n      dup3\n        /* \"#utility.yul\":2997:2998   */\n      dup3\n        /* \"#utility.yul\":2993:3002   */\n      mul\n        /* \"#utility.yul\":3022:3052   */\n      tag_109\n        /* \"#utility.yul\":3040:3051   */\n      dup2\n        /* \"#utility.yul\":3022:3052   */\n      tag_66\n      jump\t// in\n    tag_109:\n        /* \"#utility.yul\":3011:3052   */\n      swap2\n      pop\n        /* \"#utility.yul\":3201:3202   */\n      dup3\n        /* \"#utility.yul\":3192:3199   */\n      dup3\n        /* \"#utility.yul\":3188:3203   */\n      div\n        /* \"#utility.yul\":3185:3186   */\n      dup5\n        /* \"#utility.yul\":3182:3204   */\n      eq\n        /* \"#utility.yul\":3162:3163   */\n      dup4\n        /* \"#utility.yul\":3155:3164   */\n      iszero\n        /* \"#utility.yul\":3135:3218   */\n      or\n        /* \"#utility.yul\":3112:3251   */\n      tag_110\n      jumpi\n        /* \"#utility.yul\":3231:3249   */\n      tag_111\n      tag_72\n      jump\t// in\n    tag_111:\n        /* \"#utility.yul\":3112:3251   */\n    tag_110:\n        /* \"#utility.yul\":2896:3258   */\n      pop\n        /* \"#utility.yul\":2848:3258   */\n      swap3\n      swap2\n      pop\n      pop\n      jump\t// out\n        /* \"#utility.yul\":3264:3455   */\n    tag_29:\n        /* \"#utility.yul\":3304:3307   */\n      0x00\n        /* \"#utility.yul\":3323:3343   */\n      tag_113\n        /* \"#utility.yul\":3341:3342   */\n      dup3\n        /* \"#utility.yul\":3323:3343   */\n      tag_66\n      jump\t// in\n    tag_113:\n        /* \"#utility.yul\":3318:3343   */\n      swap2\n      pop\n        /* \"#utility.yul\":3357:3377   */\n      tag_114\n        /* \"#utility.yul\":3375:3376   */\n      dup4\n        /* \"#utility.yul\":3357:3377   */\n      tag_66\n      jump\t// in\n    tag_114:\n        /* \"#utility.yul\":3352:3377   */\n      swap3\n      pop\n        /* \"#utility.yul\":3400:3401   */\n      dup3\n        /* \"#utility.yul\":3397:3398   */\n      dup3\n        /* \"#utility.yul\":3393:3402   */\n      add\n        /* \"#utility.yul\":3386:3402   */\n      swap1\n      pop\n        /* \"#utility.yul\":3421:3424   */\n      dup1\n        /* \"#utility.yul\":3418:3419   */\n      dup3\n        /* \"#utility.yul\":3415:3425   */\n      gt\n        /* \"#utility.yul\":3412:3448   */\n      iszero\n      tag_115\n      jumpi\n        /* \"#utility.yul\":3428:3446   */\n      tag_116\n      tag_72\n      jump\t// in\n    tag_116:\n        /* \"#utility.yul\":3412:3448   */\n    tag_115:\n        /* \"#utility.yul\":3264:3455   */\n      swap3\n      swap2\n      pop\n      pop\n      jump\t// out\n        /* \"#utility.yul\":3461:3641   */\n    tag_32:\n        /* \"#utility.yul\":3509:3586   */\n      0x4e487b7100000000000000000000000000000000000000000000000000000000\n        /* \"#utility.yul\":3506:3507   */\n      0x00\n        /* \"#utility.yul\":3499:3587   */\n      mstore\n        /* \"#utility.yul\":3606:3610   */\n      0x32\n        /* \"#utility.yul\":3603:3604   */\n      0x04\n        /* \"#utility.yul\":3596:3611   */\n      mstore\n        /* \"#utility.yul\":3630:3634   */\n      0x24\n        /* \"#utility.yul\":3627:3628   */\n      0x00\n        /* \"#utility.yul\":3620:3635   */\n      revert\n        /* \"#utility.yul\":3647:3880   */\n    tag_43:\n        /* \"#utility.yul\":3686:3689   */\n      0x00\n        /* \"#utility.yul\":3709:3733   */\n      tag_119\n        /* \"#utility.yul\":3727:3732   */\n      dup3\n        /* \"#utility.yul\":3709:3733   */\n      tag_66\n      jump\t// in\n    tag_119:\n        /* \"#utility.yul\":3700:3733   */\n      swap2\n      pop\n        /* \"#utility.yul\":3755:3821   */\n      0xffffffffffffffffffffffffffffffffffffffffffffffffffffffffffffffff\n        /* \"#utility.yul\":3748:3753   */\n      dup3\n        /* \"#utility.yul\":3745:3822   */\n      sub\n        /* \"#utility.yul\":3742:3845   */\n      tag_120\n      jumpi\n        /* \"#utility.yul\":3825:3843   */\n      tag_121\n      tag_72\n      jump\t// in\n    tag_121:\n        /* \"#utility.yul\":3742:3845   */\n    tag_120:\n        /* \"#utility.yul\":3872:3873   */\n      0x01\n        /* \"#utility.yul\":3865:3870   */\n      dup3\n        /* \"#utility.yul\":3861:3874   */\n      add\n        /* \"#utility.yul\":3854:3874   */\n      swap1\n      pop\n        /* \"#utility.yul\":3647:3880   */\n      swap2\n      swap1\n      pop\n      jump\t// out\n        /* \"#utility.yul\":3886:4066   */\n    tag_49:\n        /* \"#utility.yul\":3934:4011   */\n      0x4e487b7100000000000000000000000000000000000000000000000000000000\n        /* \"#utility.yul\":3931:3932   */\n      0x00\n        /* \"#utility.yul\":3924:4012   */\n      mstore\n        /* \"#utility.yul\":4031:4035   */\n      0x31\n        /* \"#utility.yul\":4028:4029   */\n      0x04\n        /* \"#utility.yul\":4021:4036   */\n      mstore\n        /* \"#utility.yul\":4055:4059   */\n      0x24\n        /* \"#utility.yul\":4052:4053   */\n      0x00\n        /* \"#utility.yul\":4045:4060   */\n      revert\n\n    auxdata: 0xa2646970667358221220c2fe2bbc67b64b4b88ccd19f3f1bdde6d251aa17eba98858044cc54c71285da864736f6c63430008120033\n}\n",
				"bytecode": {
					"linkReferences": {},
					"object": "6080604052604051806101000160405280600160ff168152602001600260ff168152602001600360ff168152602001600460ff168152602001600560ff168152602001600660ff168152602001600760ff168152602001600860ff16815250600090600861006e929190610081565b5034801561007b57600080fd5b506100f0565b8280548282559060005260206000209081019282156100c2579160200282015b828111156100c1578251829060ff169055916020019190600101906100a1565b5b5090506100cf91906100d3565b5090565b5b808211156100ec5760008160009055506001016100d4565b5090565b61057a806100ff6000396000f3fe608060405234801561001057600080fd5b50600436106100415760003560e01c80634f2be91f14610046578063993a04b714610050578063d826f88f1461006e575b600080fd5b61004e610078565b005b6100586101d9565b6040516100659190610346565b60405180910390f35b610076610231565b005b6001600260008054905061008c9190610397565b036100ba57600080806001815401808255809150506001900390600052602060002001600090919091909150555b5b6001600080549050146101d75760005b60026000805490506100dd91906103f7565b81101561018557600060016002836100f59190610428565b6100ff919061046a565b815481106101105761010f61049e565b5b9060005260206000200154600060028361012a9190610428565b8154811061013b5761013a61049e565b5b9060005260206000200154610150919061046a565b600082815481106101645761016361049e565b5b9060005260206000200181905550808061017d906104cd565b9150506100cb565b5060005b6000805490508110156101d15760008054806101a8576101a7610515565b5b6001900381819060005260206000200160009055905580806101c9906104cd565b915050610189565b506100bb565b565b6060600080548060200260200160405190810160405280929190818152602001828054801561022757602002820191906000526020600020905b815481526020019060010190808311610213575b5050505050905090565b60008061023e9190610240565b565b508054600082559060005260206000209081019061025e9190610261565b50565b5b8082111561027a576000816000905550600101610262565b5090565b600081519050919050565b600082825260208201905092915050565b6000819050602082019050919050565b6000819050919050565b6102bd816102aa565b82525050565b60006102cf83836102b4565b60208301905092915050565b6000602082019050919050565b60006102f38261027e565b6102fd8185610289565b93506103088361029a565b8060005b8381101561033957815161032088826102c3565b975061032b836102db565b92505060018101905061030c565b5085935050505092915050565b6000602082019050818103600083015261036081846102e8565b905092915050565b7f4e487b7100000000000000000000000000000000000000000000000000000000600052601260045260246000fd5b60006103a2826102aa565b91506103ad836102aa565b9250826103bd576103bc610368565b5b828206905092915050565b7f4e487b7100000000000000000000000000000000000000000000000000000000600052601160045260246000fd5b6000610402826102aa565b915061040d836102aa565b92508261041d5761041c610368565b5b828204905092915050565b6000610433826102aa565b915061043e836102aa565b925082820261044c816102aa565b91508282048414831517610463576104626103c8565b5b5092915050565b6000610475826102aa565b9150610480836102aa565b9250828201905080821115610498576104976103c8565b5b92915050565b7f4e487b7100000000000000000000000000000000000000000000000000000000600052603260045260246000fd5b60006104d8826102aa565b91507fffffffffffffffffffffffffffffffffffffffffffffffffffffffffffffffff820361050a576105096103c8565b5b600182019050919050565b7f4e487b7100000000000000000000000000000000000000000000000000000000600052603160045260246000fdfea2646970667358221220c2fe2bbc67b64b4b88ccd19f3f1bdde6d251aa17eba98858044cc54c71285da864736f6c63430008120033",
					"opcodes": "PUSH1 0x80 PUSH1 0x40 MSTORE PUSH1 0x40 MLOAD DUP1 PUSH2 0x100 ADD PUSH1 0x40 MSTORE DUP1 PUSH1 0x1 PUSH1 0xFF AND DUP2 MSTORE PUSH1 0x20 ADD PUSH1 0x2 PUSH1 0xFF AND DUP2 MSTORE PUSH1 0x20 ADD PUSH1 0x3 PUSH1 0xFF AND DUP2 MSTORE PUSH1 0x20 ADD PUSH1 0x4 PUSH1 0xFF AND DUP2 MSTORE PUSH1 0x20 ADD PUSH1 0x5 PUSH1 0xFF AND DUP2 MSTORE PUSH1 0x20 ADD PUSH1 0x6 PUSH1 0xFF AND DUP2 MSTORE PUSH1 0x20 ADD PUSH1 0x7 PUSH1 0xFF AND DUP2 MSTORE PUSH1 0x20 ADD PUSH1 0x8 PUSH1 0xFF AND DUP2 MSTORE POP PUSH1 0x0 SWAP1 PUSH1 0x8 PUSH2 0x6E SWAP3 SWAP2 SWAP1 PUSH2 0x81 JUMP JUMPDEST POP CALLVALUE DUP1 ISZERO PUSH2 0x7B JUMPI PUSH1 0x0 DUP1 REVERT JUMPDEST POP PUSH2 0xF0 JUMP JUMPDEST DUP3 DUP1 SLOAD DUP3 DUP3 SSTORE SWAP1 PUSH1 0x0 MSTORE PUSH1 0x20 PUSH1 0x0 KECCAK256 SWAP1 DUP2 ADD SWAP3 DUP3 ISZERO PUSH2 0xC2 JUMPI SWAP2 PUSH1 0x20 MUL DUP3 ADD JUMPDEST DUP3 DUP2 GT ISZERO PUSH2 0xC1 JUMPI DUP3 MLOAD DUP3 SWAP1 PUSH1 0xFF AND SWAP1 SSTORE SWAP2 PUSH1 0x20 ADD SWAP2 SWAP1 PUSH1 0x1 ADD SWAP1 PUSH2 0xA1 JUMP JUMPDEST JUMPDEST POP SWAP1 POP PUSH2 0xCF SWAP2 SWAP1 PUSH2 0xD3 JUMP JUMPDEST POP SWAP1 JUMP JUMPDEST JUMPDEST DUP1 DUP3 GT ISZERO PUSH2 0xEC JUMPI PUSH1 0x0 DUP2 PUSH1 0x0 SWAP1 SSTORE POP PUSH1 0x1 ADD PUSH2 0xD4 JUMP JUMPDEST POP SWAP1 JUMP JUMPDEST PUSH2 0x57A DUP1 PUSH2 0xFF PUSH1 0x0 CODECOPY PUSH1 0x0 RETURN INVALID PUSH1 0x80 PUSH1 0x40 MSTORE CALLVALUE DUP1 ISZERO PUSH2 0x10 JUMPI PUSH1 0x0 DUP1 REVERT JUMPDEST POP PUSH1 0x4 CALLDATASIZE LT PUSH2 0x41 JUMPI PUSH1 0x0 CALLDATALOAD PUSH1 0xE0 SHR DUP1 PUSH4 0x4F2BE91F EQ PUSH2 0x46 JUMPI DUP1 PUSH4 0x993A04B7 EQ PUSH2 0x50 JUMPI DUP1 PUSH4 0xD826F88F EQ PUSH2 0x6E JUMPI JUMPDEST PUSH1 0x0 DUP1 REVERT JUMPDEST PUSH2 0x4E PUSH2 0x78 JUMP JUMPDEST STOP JUMPDEST PUSH2 0x58 PUSH2 0x1D9 JUMP JUMPDEST PUSH1 0x40 MLOAD PUSH2 0x65 SWAP2 SWAP1 PUSH2 0x346 JUMP JUMPDEST PUSH1 0x40 MLOAD DUP1 SWAP2 SUB SWAP1 RETURN JUMPDEST PUSH2 0x76 PUSH2 0x231 JUMP JUMPDEST STOP JUMPDEST PUSH1 0x1 PUSH1 0x2 PUSH1 0x0 DUP1 SLOAD SWAP1 POP PUSH2 0x8C SWAP2 SWAP1 PUSH2 0x397 JUMP JUMPDEST SUB PUSH2 0xBA JUMPI PUSH1 0x0 DUP1 DUP1 PUSH1 0x1 DUP2 SLOAD ADD DUP1 DUP3 SSTORE DUP1 SWAP2 POP POP PUSH1 0x1 SWAP1 SUB SWAP1 PUSH1 0x0 MSTORE PUSH1 0x20 PUSH1 0x0 KECCAK256 ADD PUSH1 0x0 SWAP1 SWAP2 SWAP1 SWAP2 SWAP1 SWAP2 POP SSTORE JUMPDEST JUMPDEST PUSH1 0x1 PUSH1 0x0 DUP1 SLOAD SWAP1 POP EQ PUSH2 0x1D7 JUMPI PUSH1 0x0 JUMPDEST PUSH1 0x2 PUSH1 0x0 DUP1 SLOAD SWAP1 POP PUSH2 0xDD SWAP2 SWAP1 PUSH2 0x3F7 JUMP JUMPDEST DUP2 LT ISZERO PUSH2 0x185 JUMPI PUSH1 0x0 PUSH1 0x1 PUSH1 0x2 DUP4 PUSH2 0xF5 SWAP2 SWAP1 PUSH2 0x428 JUMP JUMPDEST PUSH2 0xFF SWAP2 SWAP1 PUSH2 0x46A JUMP JUMPDEST DUP2 SLOAD DUP2 LT PUSH2 0x110 JUMPI PUSH2 0x10F PUSH2 0x49E JUMP JUMPDEST JUMPDEST SWAP1 PUSH1 0x0 MSTORE PUSH1 0x20 PUSH1 0x0 KECCAK256 ADD SLOAD PUSH1 0x0 PUSH1 0x2 DUP4 PUSH2 0x12A SWAP2 SWAP1 PUSH2 0x428 JUMP JUMPDEST DUP2 SLOAD DUP2 LT PUSH2 0x13B JUMPI PUSH2 0x13A PUSH2 0x49E JUMP JUMPDEST JUMPDEST SWAP1 PUSH1 0x0 MSTORE PUSH1 0x20 PUSH1 0x0 KECCAK256 ADD SLOAD PUSH2 0x150 SWAP2 SWAP1 PUSH2 0x46A JUMP JUMPDEST PUSH1 0x0 DUP3 DUP2 SLOAD DUP2 LT PUSH2 0x164 JUMPI PUSH2 0x163 PUSH2 0x49E JUMP JUMPDEST JUMPDEST SWAP1 PUSH1 0x0 MSTORE PUSH1 0x20 PUSH1 0x0 KECCAK256 ADD DUP2 SWAP1 SSTORE POP DUP1 DUP1 PUSH2 0x17D SWAP1 PUSH2 0x4CD JUMP JUMPDEST SWAP2 POP POP PUSH2 0xCB JUMP JUMPDEST POP PUSH1 0x0 JUMPDEST PUSH1 0x0 DUP1 SLOAD SWAP1 POP DUP2 LT ISZERO PUSH2 0x1D1 JUMPI PUSH1 0x0 DUP1 SLOAD DUP1 PUSH2 0x1A8 JUMPI PUSH2 0x1A7 PUSH2 0x515 JUMP JUMPDEST JUMPDEST PUSH1 0x1 SWAP1 SUB DUP2 DUP2 SWAP1 PUSH1 0x0 MSTORE PUSH1 0x20 PUSH1 0x0 KECCAK256 ADD PUSH1 0x0 SWAP1 SSTORE SWAP1 SSTORE DUP1 DUP1 PUSH2 0x1C9 SWAP1 PUSH2 0x4CD JUMP JUMPDEST SWAP2 POP POP PUSH2 0x189 JUMP JUMPDEST POP PUSH2 0xBB JUMP JUMPDEST JUMP JUMPDEST PUSH1 0x60 PUSH1 0x0 DUP1 SLOAD DUP1 PUSH1 0x20 MUL PUSH1 0x20 ADD PUSH1 0x40 MLOAD SWAP1 DUP2 ADD PUSH1 0x40 MSTORE DUP1 SWAP3 SWAP2 SWAP1 DUP2 DUP2 MSTORE PUSH1 0x20 ADD DUP3 DUP1 SLOAD DUP1 ISZERO PUSH2 0x227 JUMPI PUSH1 0x20 MUL DUP3 ADD SWAP2 SWAP1 PUSH1 0x0 MSTORE PUSH1 0x20 PUSH1 0x0 KECCAK256 SWAP1 JUMPDEST DUP2 SLOAD DUP2 MSTORE PUSH1 0x20 ADD SWAP1 PUSH1 0x1 ADD SWAP1 DUP1 DUP4 GT PUSH2 0x213 JUMPI JUMPDEST POP POP POP POP POP SWAP1 POP SWAP1 JUMP JUMPDEST PUSH1 0x0 DUP1 PUSH2 0x23E SWAP2 SWAP1 PUSH2 0x240 JUMP JUMPDEST JUMP JUMPDEST POP DUP1 SLOAD PUSH1 0x0 DUP3 SSTORE SWAP1 PUSH1 0x0 MSTORE PUSH1 0x20 PUSH1 0x0 KECCAK256 SWAP1 DUP2 ADD SWAP1 PUSH2 0x25E SWAP2 SWAP1 PUSH2 0x261 JUMP JUMPDEST POP JUMP JUMPDEST JUMPDEST DUP1 DUP3 GT ISZERO PUSH2 0x27A JUMPI PUSH1 0x0 DUP2 PUSH1 0x0 SWAP1 SSTORE POP PUSH1 0x1 ADD PUSH2 0x262 JUMP JUMPDEST POP SWAP1 JUMP JUMPDEST PUSH1 0x0 DUP2 MLOAD SWAP1 POP SWAP2 SWAP1 POP JUMP JUMPDEST PUSH1 0x0 DUP3 DUP3 MSTORE PUSH1 0x20 DUP3 ADD SWAP1 POP SWAP3 SWAP2 POP POP JUMP JUMPDEST PUSH1 0x0 DUP2 SWAP1 POP PUSH1 0x20 DUP3 ADD SWAP1 POP SWAP2 SWAP1 POP JUMP JUMPDEST PUSH1 0x0 DUP2 SWAP1 POP SWAP2 SWAP1 POP JUMP JUMPDEST PUSH2 0x2BD DUP2 PUSH2 0x2AA JUMP JUMPDEST DUP3 MSTORE POP POP JUMP JUMPDEST PUSH1 0x0 PUSH2 0x2CF DUP4 DUP4 PUSH2 0x2B4 JUMP JUMPDEST PUSH1 0x20 DUP4 ADD SWAP1 POP SWAP3 SWAP2 POP POP JUMP JUMPDEST PUSH1 0x0 PUSH1 0x20 DUP3 ADD SWAP1 POP SWAP2 SWAP1 POP JUMP JUMPDEST PUSH1 0x0 PUSH2 0x2F3 DUP3 PUSH2 0x27E JUMP JUMPDEST PUSH2 0x2FD DUP2 DUP6 PUSH2 0x289 JUMP JUMPDEST SWAP4 POP PUSH2 0x308 DUP4 PUSH2 0x29A JUMP JUMPDEST DUP1 PUSH1 0x0 JUMPDEST DUP4 DUP2 LT ISZERO PUSH2 0x339 JUMPI DUP2 MLOAD PUSH2 0x320 DUP9 DUP3 PUSH2 0x2C3 JUMP JUMPDEST SWAP8 POP PUSH2 0x32B DUP4 PUSH2 0x2DB JUMP JUMPDEST SWAP3 POP POP PUSH1 0x1 DUP2 ADD SWAP1 POP PUSH2 0x30C JUMP JUMPDEST POP DUP6 SWAP4 POP POP POP POP SWAP3 SWAP2 POP POP JUMP JUMPDEST PUSH1 0x0 PUSH1 0x20 DUP3 ADD SWAP1 POP DUP2 DUP2 SUB PUSH1 0x0 DUP4 ADD MSTORE PUSH2 0x360 DUP2 DUP5 PUSH2 0x2E8 JUMP JUMPDEST SWAP1 POP SWAP3 SWAP2 POP POP JUMP JUMPDEST PUSH32 0x4E487B7100000000000000000000000000000000000000000000000000000000 PUSH1 0x0 MSTORE PUSH1 0x12 PUSH1 0x4 MSTORE PUSH1 0x24 PUSH1 0x0 REVERT JUMPDEST PUSH1 0x0 PUSH2 0x3A2 DUP3 PUSH2 0x2AA JUMP JUMPDEST SWAP2 POP PUSH2 0x3AD DUP4 PUSH2 0x2AA JUMP JUMPDEST SWAP3 POP DUP3 PUSH2 0x3BD JUMPI PUSH2 0x3BC PUSH2 0x368 JUMP JUMPDEST JUMPDEST DUP3 DUP3 MOD SWAP1 POP SWAP3 SWAP2 POP POP JUMP JUMPDEST PUSH32 0x4E487B7100000000000000000000000000000000000000000000000000000000 PUSH1 0x0 MSTORE PUSH1 0x11 PUSH1 0x4 MSTORE PUSH1 0x24 PUSH1 0x0 REVERT JUMPDEST PUSH1 0x0 PUSH2 0x402 DUP3 PUSH2 0x2AA JUMP JUMPDEST SWAP2 POP PUSH2 0x40D DUP4 PUSH2 0x2AA JUMP JUMPDEST SWAP3 POP DUP3 PUSH2 0x41D JUMPI PUSH2 0x41C PUSH2 0x368 JUMP JUMPDEST JUMPDEST DUP3 DUP3 DIV SWAP1 POP SWAP3 SWAP2 POP POP JUMP JUMPDEST PUSH1 0x0 PUSH2 0x433 DUP3 PUSH2 0x2AA JUMP JUMPDEST SWAP2 POP PUSH2 0x43E DUP4 PUSH2 0x2AA JUMP JUMPDEST SWAP3 POP DUP3 DUP3 MUL PUSH2 0x44C DUP2 PUSH2 0x2AA JUMP JUMPDEST SWAP2 POP DUP3 DUP3 DIV DUP5 EQ DUP4 ISZERO OR PUSH2 0x463 JUMPI PUSH2 0x462 PUSH2 0x3C8 JUMP JUMPDEST JUMPDEST POP SWAP3 SWAP2 POP POP JUMP JUMPDEST PUSH1 0x0 PUSH2 0x475 DUP3 PUSH2 0x2AA JUMP JUMPDEST SWAP2 POP PUSH2 0x480 DUP4 PUSH2 0x2AA JUMP JUMPDEST SWAP3 POP DUP3 DUP3 ADD SWAP1 POP DUP1 DUP3 GT ISZERO PUSH2 0x498 JUMPI PUSH2 0x497 PUSH2 0x3C8 JUMP JUMPDEST JUMPDEST SWAP3 SWAP2 POP POP JUMP JUMPDEST PUSH32 0x4E487B7100000000000000000000000000000000000000000000000000000000 PUSH1 0x0 MSTORE PUSH1 0x32 PUSH1 0x4 MSTORE PUSH1 0x24 PUSH1 0x0 REVERT JUMPDEST PUSH1 0x0 PUSH2 0x4D8 DUP3 PUSH2 0x2AA JUMP JUMPDEST SWAP2 POP PUSH32 0xFFFFFFFFFFFFFFFFFFFFFFFFFFFFFFFFFFFFFFFFFFFFFFFFFFFFFFFFFFFFFFFF DUP3 SUB PUSH2 0x50A JUMPI PUSH2 0x509 PUSH2 0x3C8 JUMP JUMPDEST JUMPDEST PUSH1 0x1 DUP3 ADD SWAP1 POP SWAP2 SWAP1 POP JUMP JUMPDEST PUSH32 0x4E487B7100000000000000000000000000000000000000000000000000000000 PUSH1 0x0 MSTORE PUSH1 0x31 PUSH1 0x4 MSTORE PUSH1 0x24 PUSH1 0x0 REVERT INVALID LOG2 PUSH5 0x6970667358 0x22 SLT KECCAK256 0xC2 INVALID 0x2B 0xBC PUSH8 0xB64B4B88CCD19F3F SHL 0xDD 0xE6 0xD2 MLOAD 0xAA OR 0xEB 0xA9 DUP9 PC DIV 0x4C 0xC5 0x4C PUSH18 0x285DA864736F6C6343000812003300000000 "
				},
				"gasEstimates": {
					"creation": {
						"codeDepositCost": "280400",
						"executionCost": "infinite",
						"totalCost": "infinite"
					},
					"external": {
						"add()": "infinite",
						"getter()": "infinite",
						"reset()": "infinite"
					}
				},
				"methodIdentifiers": {
					"add()": "4f2be91f",
					"getter()": "993a04b7",
					"reset()": "d826f88f"
				}
			},
			"storageLayout": {
				"storage": [
					{
						"astId": 13,
						"contract": "LABS 4 Aug/Task 9 lab4.sol:MerkleTree",
						"label": "arr",
						"offset": 0,
						"slot": "0",
						"type": "t_array(t_uint256)dyn_storage"
					}
				],
				"types": {
					"t_array(t_uint256)dyn_storage": {
						"base": "t_uint256",
						"encoding": "dynamic_array",
						"label": "uint256[]",
						"numberOfBytes": "32"
					},
					"t_uint256": {
						"encoding": "inplace",
						"label": "uint256",
						"numberOfBytes": "32"
					}
				}
			},
			"userdoc": {
				"kind": "user",
				"methods": {},
				"version": 1
			}
		}
	}
}