{
	"LABS 21 Aug/Task All 18.sol": {
		"TryCatch": {
			"abi": [
				{
					"inputs": [],
					"stateMutability": "nonpayable",
					"type": "constructor"
				},
				{
					"anonymous": false,
					"inputs": [
						{
							"indexed": false,
							"internalType": "bytes",
							"name": "data",
							"type": "bytes"
						}
					],
					"name": "CatchByte",
					"type": "event"
				},
				{
					"anonymous": false,
					"inputs": [
						{
							"indexed": false,
							"internalType": "string",
							"name": "message",
							"type": "string"
						}
					],
					"name": "CatchEvent",
					"type": "event"
				},
				{
					"anonymous": false,
					"inputs": [],
					"name": "SuccessEvent",
					"type": "event"
				},
				{
					"inputs": [
						{
							"internalType": "uint256",
							"name": "amount",
							"type": "uint256"
						}
					],
					"name": "execute",
					"outputs": [
						{
							"internalType": "bool",
							"name": "success",
							"type": "bool"
						}
					],
					"stateMutability": "nonpayable",
					"type": "function"
				},
				{
					"inputs": [
						{
							"internalType": "uint256",
							"name": "a",
							"type": "uint256"
						}
					],
					"name": "executeNew",
					"outputs": [
						{
							"internalType": "bool",
							"name": "success",
							"type": "bool"
						}
					],
					"stateMutability": "nonpayable",
					"type": "function"
				}
			],
			"devdoc": {
				"kind": "dev",
				"methods": {},
				"version": 1
			},
			"evm": {
				"assembly": "    /* \"LABS 21 Aug/Task All 18.sol\":2123:3108  contract TryCatch {... */\n  mstore(0x40, 0x80)\n    /* \"LABS 21 Aug/Task All 18.sol\":2310:2367  constructor() {... */\n  callvalue\n  dup1\n  iszero\n  tag_1\n  jumpi\n  0x00\n  dup1\n  revert\ntag_1:\n  pop\n    /* \"LABS 21 Aug/Task All 18.sol\":2358:2359  2 */\n  0x02\n    /* \"LABS 21 Aug/Task All 18.sol\":2341:2360  new PrimeChecker(2) */\n  mload(0x40)\n  tag_4\n  swap1\n  tag_5\n  jump\t// in\ntag_4:\n  tag_6\n  swap2\n  swap1\n  tag_7\n  jump\t// in\ntag_6:\n  mload(0x40)\n  dup1\n  swap2\n  sub\n  swap1\n  0x00\n  create\n  dup1\n  iszero\n  dup1\n  iszero\n  tag_8\n  jumpi\n  returndatasize\n  0x00\n  dup1\n  returndatacopy\n  revert(0x00, returndatasize)\ntag_8:\n  pop\n    /* \"LABS 21 Aug/Task All 18.sol\":2334:2338  even */\n  0x00\n  dup1\n    /* \"LABS 21 Aug/Task All 18.sol\":2334:2360  even = new PrimeChecker(2) */\n  0x0100\n  exp\n  dup2\n  sload\n  dup2\n  0xffffffffffffffffffffffffffffffffffffffff\n  mul\n  not\n  and\n  swap1\n  dup4\n  0xffffffffffffffffffffffffffffffffffffffff\n  and\n  mul\n  or\n  swap1\n  sstore\n  pop\n    /* \"LABS 21 Aug/Task All 18.sol\":2123:3108  contract TryCatch {... */\n  jump(tag_9)\ntag_5:\n  dataSize(sub_1)\n  dup1\n  dataOffset(sub_1)\n  dup4\n  codecopy\n  add\n  swap1\n  jump\t// out\n    /* \"#utility.yul\":7:92   */\ntag_10:\n    /* \"#utility.yul\":52:59   */\n  0x00\n    /* \"#utility.yul\":81:86   */\n  dup2\n    /* \"#utility.yul\":70:86   */\n  swap1\n  pop\n    /* \"#utility.yul\":7:92   */\n  swap2\n  swap1\n  pop\n  jump\t// out\n    /* \"#utility.yul\":98:175   */\ntag_11:\n    /* \"#utility.yul\":135:142   */\n  0x00\n    /* \"#utility.yul\":164:169   */\n  dup2\n    /* \"#utility.yul\":153:169   */\n  swap1\n  pop\n    /* \"#utility.yul\":98:175   */\n  swap2\n  swap1\n  pop\n  jump\t// out\n    /* \"#utility.yul\":181:241   */\ntag_12:\n    /* \"#utility.yul\":209:212   */\n  0x00\n    /* \"#utility.yul\":230:235   */\n  dup2\n    /* \"#utility.yul\":223:235   */\n  swap1\n  pop\n    /* \"#utility.yul\":181:241   */\n  swap2\n  swap1\n  pop\n  jump\t// out\n    /* \"#utility.yul\":247:405   */\ntag_13:\n    /* \"#utility.yul\":305:314   */\n  0x00\n    /* \"#utility.yul\":338:399   */\n  tag_20\n    /* \"#utility.yul\":356:398   */\n  tag_21\n    /* \"#utility.yul\":365:397   */\n  tag_22\n    /* \"#utility.yul\":391:396   */\n  dup5\n    /* \"#utility.yul\":365:397   */\n  tag_10\n  jump\t// in\ntag_22:\n    /* \"#utility.yul\":356:398   */\n  tag_12\n  jump\t// in\ntag_21:\n    /* \"#utility.yul\":338:399   */\n  tag_11\n  jump\t// in\ntag_20:\n    /* \"#utility.yul\":325:399   */\n  swap1\n  pop\n    /* \"#utility.yul\":247:405   */\n  swap2\n  swap1\n  pop\n  jump\t// out\n    /* \"#utility.yul\":411:558   */\ntag_14:\n    /* \"#utility.yul\":506:551   */\n  tag_24\n    /* \"#utility.yul\":545:550   */\n  dup2\n    /* \"#utility.yul\":506:551   */\n  tag_13\n  jump\t// in\ntag_24:\n    /* \"#utility.yul\":501:504   */\n  dup3\n    /* \"#utility.yul\":494:552   */\n  mstore\n    /* \"#utility.yul\":411:558   */\n  pop\n  pop\n  jump\t// out\n    /* \"#utility.yul\":564:802   */\ntag_7:\n    /* \"#utility.yul\":665:669   */\n  0x00\n    /* \"#utility.yul\":703:705   */\n  0x20\n    /* \"#utility.yul\":692:701   */\n  dup3\n    /* \"#utility.yul\":688:706   */\n  add\n    /* \"#utility.yul\":680:706   */\n  swap1\n  pop\n    /* \"#utility.yul\":716:795   */\n  tag_26\n    /* \"#utility.yul\":792:793   */\n  0x00\n    /* \"#utility.yul\":781:790   */\n  dup4\n    /* \"#utility.yul\":777:794   */\n  add\n    /* \"#utility.yul\":768:774   */\n  dup5\n    /* \"#utility.yul\":716:795   */\n  tag_14\n  jump\t// in\ntag_26:\n    /* \"#utility.yul\":564:802   */\n  swap3\n  swap2\n  pop\n  pop\n  jump\t// out\n    /* \"LABS 21 Aug/Task All 18.sol\":2123:3108  contract TryCatch {... */\ntag_9:\n  dataSize(sub_0)\n  dup1\n  dataOffset(sub_0)\n  0x00\n  codecopy\n  0x00\n  return\nstop\n\nsub_0: assembly {\n        /* \"LABS 21 Aug/Task All 18.sol\":2123:3108  contract TryCatch {... */\n      mstore(0x40, 0x80)\n      callvalue\n      dup1\n      iszero\n      tag_1\n      jumpi\n      0x00\n      dup1\n      revert\n    tag_1:\n      pop\n      jumpi(tag_2, lt(calldatasize, 0x04))\n      shr(0xe0, calldataload(0x00))\n      dup1\n      0x60ebc172\n      eq\n      tag_3\n      jumpi\n      dup1\n      0xfe0d94c1\n      eq\n      tag_4\n      jumpi\n    tag_2:\n      0x00\n      dup1\n      revert\n        /* \"LABS 21 Aug/Task All 18.sol\":2697:3106  function executeNew(uint256 a) external returns (bool success) {... */\n    tag_3:\n      tag_5\n      0x04\n      dup1\n      calldatasize\n      sub\n      dup2\n      add\n      swap1\n      tag_6\n      swap2\n      swap1\n      tag_7\n      jump\t// in\n    tag_6:\n      tag_8\n      jump\t// in\n    tag_5:\n      mload(0x40)\n      tag_9\n      swap2\n      swap1\n      tag_10\n      jump\t// in\n    tag_9:\n      mload(0x40)\n      dup1\n      swap2\n      sub\n      swap1\n      return\n        /* \"LABS 21 Aug/Task All 18.sol\":2373:2691  function execute(uint256 amount) external returns (bool success) {... */\n    tag_4:\n      tag_11\n      0x04\n      dup1\n      calldatasize\n      sub\n      dup2\n      add\n      swap1\n      tag_12\n      swap2\n      swap1\n      tag_7\n      jump\t// in\n    tag_12:\n      tag_13\n      jump\t// in\n    tag_11:\n      mload(0x40)\n      tag_14\n      swap2\n      swap1\n      tag_10\n      jump\t// in\n    tag_14:\n      mload(0x40)\n      dup1\n      swap2\n      sub\n      swap1\n      return\n        /* \"LABS 21 Aug/Task All 18.sol\":2697:3106  function executeNew(uint256 a) external returns (bool success) {... */\n    tag_8:\n        /* \"LABS 21 Aug/Task All 18.sol\":2746:2758  bool success */\n      0x00\n        /* \"LABS 21 Aug/Task All 18.sol\":2791:2792  a */\n      dup2\n        /* \"LABS 21 Aug/Task All 18.sol\":2774:2793  new PrimeChecker(a) */\n      mload(0x40)\n      tag_16\n      swap1\n      tag_17\n      jump\t// in\n    tag_16:\n      tag_18\n      swap2\n      swap1\n      tag_19\n      jump\t// in\n    tag_18:\n      mload(0x40)\n      dup1\n      swap2\n      sub\n      swap1\n      0x00\n      create\n      dup1\n      iszero\n      tag_20\n      jumpi\n      0x01\n    tag_20:\n        /* \"LABS 21 Aug/Task All 18.sol\":2770:3100  try new PrimeChecker(a) returns (PrimeChecker _even) {... */\n      tag_21\n      jumpi\n      tag_25\n      tag_26\n      jump\t// in\n    tag_25:\n      dup1\n      0x08c379a0\n      sub\n      tag_24\n      jumpi\n      pop\n      tag_27\n      tag_28\n      jump\t// in\n    tag_27:\n      dup1\n      tag_29\n      jumpi\n      pop\n      jump(tag_23)\n    tag_29:\n        /* \"LABS 21 Aug/Task All 18.sol\":2995:3013  CatchEvent(reason) */\n      0xb761112ad379c509744de8d585702b0d2694d4ceaef85ad50d452ff06821a6a6\n        /* \"LABS 21 Aug/Task All 18.sol\":3006:3012  reason */\n      dup2\n        /* \"LABS 21 Aug/Task All 18.sol\":2995:3013  CatchEvent(reason) */\n      mload(0x40)\n      tag_30\n      swap2\n      swap1\n      tag_31\n      jump\t// in\n    tag_30:\n      mload(0x40)\n      dup1\n      swap2\n      sub\n      swap1\n      log1\n        /* \"LABS 21 Aug/Task All 18.sol\":2942:3024  catch Error(string memory reason) {... */\n      pop\n        /* \"LABS 21 Aug/Task All 18.sol\":2770:3100  try new PrimeChecker(a) returns (PrimeChecker _even) {... */\n      jump(tag_22)\n    tag_24:\n      pop\n    tag_23:\n      returndatasize\n      dup1\n      0x00\n      dup2\n      eq\n      tag_33\n      jumpi\n      mload(0x40)\n      swap2\n      pop\n      and(add(returndatasize, 0x3f), not(0x1f))\n      dup3\n      add\n      0x40\n      mstore\n      returndatasize\n      dup3\n      mstore\n      returndatasize\n      0x00\n      0x20\n      dup5\n      add\n      returndatacopy\n      jump(tag_32)\n    tag_33:\n      0x60\n      swap2\n      pop\n    tag_32:\n      pop\n        /* \"LABS 21 Aug/Task All 18.sol\":3072:3089  CatchByte(reason) */\n      0xb6f66868478aebcea8c7a15c8c7dd37a513a4127424642ee3573117b52fa3e39\n        /* \"LABS 21 Aug/Task All 18.sol\":3082:3088  reason */\n      dup2\n        /* \"LABS 21 Aug/Task All 18.sol\":3072:3089  CatchByte(reason) */\n      mload(0x40)\n      tag_34\n      swap2\n      swap1\n      tag_35\n      jump\t// in\n    tag_34:\n      mload(0x40)\n      dup1\n      swap2\n      sub\n      swap1\n      log1\n        /* \"LABS 21 Aug/Task All 18.sol\":3025:3100  catch (bytes memory reason) {... */\n      pop\n        /* \"LABS 21 Aug/Task All 18.sol\":2770:3100  try new PrimeChecker(a) returns (PrimeChecker _even) {... */\n    tag_22:\n      jump(tag_36)\n    tag_21:\n        /* \"LABS 21 Aug/Task All 18.sol\":2874:2888  SuccessEvent() */\n      0xfd76336752e93f2cc77cf13a41be8b6c156731030376354d634d28a9a87b9162\n      mload(0x40)\n      mload(0x40)\n      dup1\n      swap2\n      sub\n      swap1\n      log1\n        /* \"LABS 21 Aug/Task All 18.sol\":2912:2917  _even */\n      dup1\n        /* \"LABS 21 Aug/Task All 18.sol\":2912:2927  _even.onlyPrime */\n      0xffffffffffffffffffffffffffffffffffffffff\n      and\n      0x05f5b3eb\n        /* \"LABS 21 Aug/Task All 18.sol\":2928:2929  a */\n      dup5\n        /* \"LABS 21 Aug/Task All 18.sol\":2912:2930  _even.onlyPrime(a) */\n      mload(0x40)\n      dup3\n      0xffffffff\n      and\n      0xe0\n      shl\n      dup2\n      mstore\n      0x04\n      add\n      tag_37\n      swap2\n      swap1\n      tag_19\n      jump\t// in\n    tag_37:\n      0x20\n      mload(0x40)\n      dup1\n      dup4\n      sub\n      dup2\n      dup7\n      gas\n      staticcall\n      iszero\n      dup1\n      iszero\n      tag_39\n      jumpi\n      returndatasize\n      0x00\n      dup1\n      returndatacopy\n      revert(0x00, returndatasize)\n    tag_39:\n      pop\n      pop\n      pop\n      pop\n      mload(0x40)\n      returndatasize\n      not(0x1f)\n      0x1f\n      dup3\n      add\n      and\n      dup3\n      add\n      dup1\n      0x40\n      mstore\n      pop\n      dup2\n      add\n      swap1\n      tag_40\n      swap2\n      swap1\n      tag_41\n      jump\t// in\n    tag_40:\n        /* \"LABS 21 Aug/Task All 18.sol\":2902:2930  success = _even.onlyPrime(a) */\n      swap2\n      pop\n        /* \"LABS 21 Aug/Task All 18.sol\":2794:2941  returns (PrimeChecker _even) {... */\n      pop\n        /* \"LABS 21 Aug/Task All 18.sol\":2770:3100  try new PrimeChecker(a) returns (PrimeChecker _even) {... */\n    tag_36:\n        /* \"LABS 21 Aug/Task All 18.sol\":2697:3106  function executeNew(uint256 a) external returns (bool success) {... */\n      swap2\n      swap1\n      pop\n      jump\t// out\n        /* \"LABS 21 Aug/Task All 18.sol\":2373:2691  function execute(uint256 amount) external returns (bool success) {... */\n    tag_13:\n        /* \"LABS 21 Aug/Task All 18.sol\":2424:2436  bool success */\n      0x00\n        /* \"LABS 21 Aug/Task All 18.sol\":2452:2456  even */\n      dup1\n      0x00\n      swap1\n      sload\n      swap1\n      0x0100\n      exp\n      swap1\n      div\n      0xffffffffffffffffffffffffffffffffffffffff\n      and\n        /* \"LABS 21 Aug/Task All 18.sol\":2452:2466  even.onlyPrime */\n      0xffffffffffffffffffffffffffffffffffffffff\n      and\n      0x05f5b3eb\n        /* \"LABS 21 Aug/Task All 18.sol\":2467:2473  amount */\n      dup4\n        /* \"LABS 21 Aug/Task All 18.sol\":2452:2474  even.onlyPrime(amount) */\n      mload(0x40)\n      dup3\n      0xffffffff\n      and\n      0xe0\n      shl\n      dup2\n      mstore\n      0x04\n      add\n      tag_43\n      swap2\n      swap1\n      tag_19\n      jump\t// in\n    tag_43:\n      0x20\n      mload(0x40)\n      dup1\n      dup4\n      sub\n      dup2\n      dup7\n      gas\n      staticcall\n      swap3\n      pop\n      pop\n      pop\n      dup1\n      iszero\n      tag_44\n      jumpi\n      pop\n      mload(0x40)\n      returndatasize\n      not(0x1f)\n      0x1f\n      dup3\n      add\n      and\n      dup3\n      add\n      dup1\n      0x40\n      mstore\n      pop\n      dup2\n      add\n      swap1\n      tag_45\n      swap2\n      swap1\n      tag_41\n      jump\t// in\n    tag_45:\n      0x01\n    tag_44:\n        /* \"LABS 21 Aug/Task All 18.sol\":2448:2684  try even.onlyPrime(amount) returns (bool _success) {... */\n      tag_46\n      jumpi\n      tag_50\n      tag_26\n      jump\t// in\n    tag_50:\n      dup1\n      0x08c379a0\n      sub\n      tag_49\n      jumpi\n      pop\n      tag_51\n      tag_28\n      jump\t// in\n    tag_51:\n      dup1\n      tag_52\n      jumpi\n      pop\n      jump(tag_48)\n    tag_52:\n        /* \"LABS 21 Aug/Task All 18.sol\":2655:2673  CatchEvent(reason) */\n      0xb761112ad379c509744de8d585702b0d2694d4ceaef85ad50d452ff06821a6a6\n        /* \"LABS 21 Aug/Task All 18.sol\":2666:2672  reason */\n      dup2\n        /* \"LABS 21 Aug/Task All 18.sol\":2655:2673  CatchEvent(reason) */\n      mload(0x40)\n      tag_53\n      swap2\n      swap1\n      tag_31\n      jump\t// in\n    tag_53:\n      mload(0x40)\n      dup1\n      swap2\n      sub\n      swap1\n      log1\n        /* \"LABS 21 Aug/Task All 18.sol\":2573:2684  catch Error(string memory reason) {... */\n      pop\n        /* \"LABS 21 Aug/Task All 18.sol\":2448:2684  try even.onlyPrime(amount) returns (bool _success) {... */\n      jump(tag_47)\n    tag_49:\n      pop\n    tag_48:\n      returndatasize\n      0x00\n      dup1\n      returndatacopy\n      revert(0x00, returndatasize)\n    tag_47:\n      jump(tag_54)\n    tag_46:\n        /* \"LABS 21 Aug/Task All 18.sol\":2518:2532  SuccessEvent() */\n      0xfd76336752e93f2cc77cf13a41be8b6c156731030376354d634d28a9a87b9162\n      mload(0x40)\n      mload(0x40)\n      dup1\n      swap2\n      sub\n      swap1\n      log1\n        /* \"LABS 21 Aug/Task All 18.sol\":2553:2561  _success */\n      dup1\n        /* \"LABS 21 Aug/Task All 18.sol\":2546:2561  return _success */\n      swap2\n      pop\n      pop\n      jump(tag_42)\n        /* \"LABS 21 Aug/Task All 18.sol\":2448:2684  try even.onlyPrime(amount) returns (bool _success) {... */\n    tag_54:\n        /* \"LABS 21 Aug/Task All 18.sol\":2373:2691  function execute(uint256 amount) external returns (bool success) {... */\n    tag_42:\n      swap2\n      swap1\n      pop\n      jump\t// out\n    tag_17:\n      dataSize(sub_0)\n      dup1\n      dataOffset(sub_0)\n      dup4\n      codecopy\n      add\n      swap1\n      jump\t// out\n        /* \"#utility.yul\":7:82   */\n    tag_55:\n        /* \"#utility.yul\":40:46   */\n      0x00\n        /* \"#utility.yul\":73:75   */\n      0x40\n        /* \"#utility.yul\":67:76   */\n      mload\n        /* \"#utility.yul\":57:76   */\n      swap1\n      pop\n        /* \"#utility.yul\":7:82   */\n      swap1\n      jump\t// out\n        /* \"#utility.yul\":88:205   */\n    tag_56:\n        /* \"#utility.yul\":197:198   */\n      0x00\n        /* \"#utility.yul\":194:195   */\n      dup1\n        /* \"#utility.yul\":187:199   */\n      revert\n        /* \"#utility.yul\":334:411   */\n    tag_58:\n        /* \"#utility.yul\":371:378   */\n      0x00\n        /* \"#utility.yul\":400:405   */\n      dup2\n        /* \"#utility.yul\":389:405   */\n      swap1\n      pop\n        /* \"#utility.yul\":334:411   */\n      swap2\n      swap1\n      pop\n      jump\t// out\n        /* \"#utility.yul\":417:539   */\n    tag_59:\n        /* \"#utility.yul\":490:514   */\n      tag_83\n        /* \"#utility.yul\":508:513   */\n      dup2\n        /* \"#utility.yul\":490:514   */\n      tag_58\n      jump\t// in\n    tag_83:\n        /* \"#utility.yul\":483:488   */\n      dup2\n        /* \"#utility.yul\":480:515   */\n      eq\n        /* \"#utility.yul\":470:533   */\n      tag_84\n      jumpi\n        /* \"#utility.yul\":529:530   */\n      0x00\n        /* \"#utility.yul\":526:527   */\n      dup1\n        /* \"#utility.yul\":519:531   */\n      revert\n        /* \"#utility.yul\":470:533   */\n    tag_84:\n        /* \"#utility.yul\":417:539   */\n      pop\n      jump\t// out\n        /* \"#utility.yul\":545:684   */\n    tag_60:\n        /* \"#utility.yul\":591:596   */\n      0x00\n        /* \"#utility.yul\":629:635   */\n      dup2\n        /* \"#utility.yul\":616:636   */\n      calldataload\n        /* \"#utility.yul\":607:636   */\n      swap1\n      pop\n        /* \"#utility.yul\":645:678   */\n      tag_86\n        /* \"#utility.yul\":672:677   */\n      dup2\n        /* \"#utility.yul\":645:678   */\n      tag_59\n      jump\t// in\n    tag_86:\n        /* \"#utility.yul\":545:684   */\n      swap3\n      swap2\n      pop\n      pop\n      jump\t// out\n        /* \"#utility.yul\":690:1019   */\n    tag_7:\n        /* \"#utility.yul\":749:755   */\n      0x00\n        /* \"#utility.yul\":798:800   */\n      0x20\n        /* \"#utility.yul\":786:795   */\n      dup3\n        /* \"#utility.yul\":777:784   */\n      dup5\n        /* \"#utility.yul\":773:796   */\n      sub\n        /* \"#utility.yul\":769:801   */\n      slt\n        /* \"#utility.yul\":766:885   */\n      iszero\n      tag_88\n      jumpi\n        /* \"#utility.yul\":804:883   */\n      tag_89\n      tag_56\n      jump\t// in\n    tag_89:\n        /* \"#utility.yul\":766:885   */\n    tag_88:\n        /* \"#utility.yul\":924:925   */\n      0x00\n        /* \"#utility.yul\":949:1002   */\n      tag_90\n        /* \"#utility.yul\":994:1001   */\n      dup5\n        /* \"#utility.yul\":985:991   */\n      dup3\n        /* \"#utility.yul\":974:983   */\n      dup6\n        /* \"#utility.yul\":970:992   */\n      add\n        /* \"#utility.yul\":949:1002   */\n      tag_60\n      jump\t// in\n    tag_90:\n        /* \"#utility.yul\":939:1002   */\n      swap2\n      pop\n        /* \"#utility.yul\":895:1012   */\n      pop\n        /* \"#utility.yul\":690:1019   */\n      swap3\n      swap2\n      pop\n      pop\n      jump\t// out\n        /* \"#utility.yul\":1025:1115   */\n    tag_61:\n        /* \"#utility.yul\":1059:1066   */\n      0x00\n        /* \"#utility.yul\":1102:1107   */\n      dup2\n        /* \"#utility.yul\":1095:1108   */\n      iszero\n        /* \"#utility.yul\":1088:1109   */\n      iszero\n        /* \"#utility.yul\":1077:1109   */\n      swap1\n      pop\n        /* \"#utility.yul\":1025:1115   */\n      swap2\n      swap1\n      pop\n      jump\t// out\n        /* \"#utility.yul\":1121:1230   */\n    tag_62:\n        /* \"#utility.yul\":1202:1223   */\n      tag_93\n        /* \"#utility.yul\":1217:1222   */\n      dup2\n        /* \"#utility.yul\":1202:1223   */\n      tag_61\n      jump\t// in\n    tag_93:\n        /* \"#utility.yul\":1197:1200   */\n      dup3\n        /* \"#utility.yul\":1190:1224   */\n      mstore\n        /* \"#utility.yul\":1121:1230   */\n      pop\n      pop\n      jump\t// out\n        /* \"#utility.yul\":1236:1446   */\n    tag_10:\n        /* \"#utility.yul\":1323:1327   */\n      0x00\n        /* \"#utility.yul\":1361:1363   */\n      0x20\n        /* \"#utility.yul\":1350:1359   */\n      dup3\n        /* \"#utility.yul\":1346:1364   */\n      add\n        /* \"#utility.yul\":1338:1364   */\n      swap1\n      pop\n        /* \"#utility.yul\":1374:1439   */\n      tag_95\n        /* \"#utility.yul\":1436:1437   */\n      0x00\n        /* \"#utility.yul\":1425:1434   */\n      dup4\n        /* \"#utility.yul\":1421:1438   */\n      add\n        /* \"#utility.yul\":1412:1418   */\n      dup5\n        /* \"#utility.yul\":1374:1439   */\n      tag_62\n      jump\t// in\n    tag_95:\n        /* \"#utility.yul\":1236:1446   */\n      swap3\n      swap2\n      pop\n      pop\n      jump\t// out\n        /* \"#utility.yul\":1452:1570   */\n    tag_63:\n        /* \"#utility.yul\":1539:1563   */\n      tag_97\n        /* \"#utility.yul\":1557:1562   */\n      dup2\n        /* \"#utility.yul\":1539:1563   */\n      tag_58\n      jump\t// in\n    tag_97:\n        /* \"#utility.yul\":1534:1537   */\n      dup3\n        /* \"#utility.yul\":1527:1564   */\n      mstore\n        /* \"#utility.yul\":1452:1570   */\n      pop\n      pop\n      jump\t// out\n        /* \"#utility.yul\":1576:1798   */\n    tag_19:\n        /* \"#utility.yul\":1669:1673   */\n      0x00\n        /* \"#utility.yul\":1707:1709   */\n      0x20\n        /* \"#utility.yul\":1696:1705   */\n      dup3\n        /* \"#utility.yul\":1692:1710   */\n      add\n        /* \"#utility.yul\":1684:1710   */\n      swap1\n      pop\n        /* \"#utility.yul\":1720:1791   */\n      tag_99\n        /* \"#utility.yul\":1788:1789   */\n      0x00\n        /* \"#utility.yul\":1777:1786   */\n      dup4\n        /* \"#utility.yul\":1773:1790   */\n      add\n        /* \"#utility.yul\":1764:1770   */\n      dup5\n        /* \"#utility.yul\":1720:1791   */\n      tag_63\n      jump\t// in\n    tag_99:\n        /* \"#utility.yul\":1576:1798   */\n      swap3\n      swap2\n      pop\n      pop\n      jump\t// out\n        /* \"#utility.yul\":1804:1910   */\n    tag_64:\n        /* \"#utility.yul\":1848:1856   */\n      0x00\n        /* \"#utility.yul\":1897:1902   */\n      dup2\n        /* \"#utility.yul\":1892:1895   */\n      0xe0\n        /* \"#utility.yul\":1888:1903   */\n      shr\n        /* \"#utility.yul\":1867:1903   */\n      swap1\n      pop\n        /* \"#utility.yul\":1804:1910   */\n      swap2\n      swap1\n      pop\n      jump\t// out\n        /* \"#utility.yul\":1916:2099   */\n    tag_26:\n        /* \"#utility.yul\":1951:1954   */\n      0x00\n        /* \"#utility.yul\":1989:1990   */\n      0x03\n        /* \"#utility.yul\":1971:1987   */\n      returndatasize\n        /* \"#utility.yul\":1968:1991   */\n      gt\n        /* \"#utility.yul\":1965:2093   */\n      iszero\n      tag_102\n      jumpi\n        /* \"#utility.yul\":2027:2028   */\n      0x04\n        /* \"#utility.yul\":2024:2025   */\n      0x00\n        /* \"#utility.yul\":2021:2022   */\n      dup1\n        /* \"#utility.yul\":2006:2029   */\n      returndatacopy\n        /* \"#utility.yul\":2049:2083   */\n      tag_103\n        /* \"#utility.yul\":2080:2081   */\n      0x00\n        /* \"#utility.yul\":2074:2082   */\n      mload\n        /* \"#utility.yul\":2049:2083   */\n      tag_64\n      jump\t// in\n    tag_103:\n        /* \"#utility.yul\":2042:2083   */\n      swap1\n      pop\n        /* \"#utility.yul\":1965:2093   */\n    tag_102:\n        /* \"#utility.yul\":1916:2099   */\n      swap1\n      jump\t// out\n        /* \"#utility.yul\":2105:2207   */\n    tag_65:\n        /* \"#utility.yul\":2146:2152   */\n      0x00\n        /* \"#utility.yul\":2197:2199   */\n      0x1f\n        /* \"#utility.yul\":2193:2200   */\n      not\n        /* \"#utility.yul\":2188:2190   */\n      0x1f\n        /* \"#utility.yul\":2181:2186   */\n      dup4\n        /* \"#utility.yul\":2177:2191   */\n      add\n        /* \"#utility.yul\":2173:2201   */\n      and\n        /* \"#utility.yul\":2163:2201   */\n      swap1\n      pop\n        /* \"#utility.yul\":2105:2207   */\n      swap2\n      swap1\n      pop\n      jump\t// out\n        /* \"#utility.yul\":2213:2393   */\n    tag_66:\n        /* \"#utility.yul\":2261:2338   */\n      0x4e487b7100000000000000000000000000000000000000000000000000000000\n        /* \"#utility.yul\":2258:2259   */\n      0x00\n        /* \"#utility.yul\":2251:2339   */\n      mstore\n        /* \"#utility.yul\":2358:2362   */\n      0x41\n        /* \"#utility.yul\":2355:2356   */\n      0x04\n        /* \"#utility.yul\":2348:2363   */\n      mstore\n        /* \"#utility.yul\":2382:2386   */\n      0x24\n        /* \"#utility.yul\":2379:2380   */\n      0x00\n        /* \"#utility.yul\":2372:2387   */\n      revert\n        /* \"#utility.yul\":2399:2680   */\n    tag_67:\n        /* \"#utility.yul\":2482:2509   */\n      tag_107\n        /* \"#utility.yul\":2504:2508   */\n      dup3\n        /* \"#utility.yul\":2482:2509   */\n      tag_65\n      jump\t// in\n    tag_107:\n        /* \"#utility.yul\":2474:2480   */\n      dup2\n        /* \"#utility.yul\":2470:2510   */\n      add\n        /* \"#utility.yul\":2612:2618   */\n      dup2\n        /* \"#utility.yul\":2600:2610   */\n      dup2\n        /* \"#utility.yul\":2597:2619   */\n      lt\n        /* \"#utility.yul\":2576:2594   */\n      0xffffffffffffffff\n        /* \"#utility.yul\":2564:2574   */\n      dup3\n        /* \"#utility.yul\":2561:2595   */\n      gt\n        /* \"#utility.yul\":2558:2620   */\n      or\n        /* \"#utility.yul\":2555:2643   */\n      iszero\n      tag_108\n      jumpi\n        /* \"#utility.yul\":2623:2641   */\n      tag_109\n      tag_66\n      jump\t// in\n    tag_109:\n        /* \"#utility.yul\":2555:2643   */\n    tag_108:\n        /* \"#utility.yul\":2663:2673   */\n      dup1\n        /* \"#utility.yul\":2659:2661   */\n      0x40\n        /* \"#utility.yul\":2652:2674   */\n      mstore\n        /* \"#utility.yul\":2442:2680   */\n      pop\n        /* \"#utility.yul\":2399:2680   */\n      pop\n      pop\n      jump\t// out\n        /* \"#utility.yul\":2686:3397   */\n    tag_28:\n        /* \"#utility.yul\":2725:2728   */\n      0x00\n        /* \"#utility.yul\":2763:2767   */\n      0x44\n        /* \"#utility.yul\":2745:2761   */\n      returndatasize\n        /* \"#utility.yul\":2742:2768   */\n      lt\n        /* \"#utility.yul\":2771:2776   */\n      tag_110\n        /* \"#utility.yul\":2739:2778   */\n      jumpi\n        /* \"#utility.yul\":2800:2820   */\n      tag_112\n      tag_55\n      jump\t// in\n    tag_112:\n        /* \"#utility.yul\":2875:2876   */\n      0x04\n        /* \"#utility.yul\":2857:2873   */\n      returndatasize\n        /* \"#utility.yul\":2853:2877   */\n      sub\n        /* \"#utility.yul\":2850:2851   */\n      0x04\n        /* \"#utility.yul\":2844:2848   */\n      dup3\n        /* \"#utility.yul\":2829:2878   */\n      returndatacopy\n        /* \"#utility.yul\":2908:2912   */\n      dup1\n        /* \"#utility.yul\":2902:2913   */\n      mload\n        /* \"#utility.yul\":3007:3023   */\n      returndatasize\n        /* \"#utility.yul\":3000:3004   */\n      0x24\n        /* \"#utility.yul\":2992:2998   */\n      dup3\n        /* \"#utility.yul\":2988:3005   */\n      add\n        /* \"#utility.yul\":2985:3024   */\n      gt\n        /* \"#utility.yul\":2952:2970   */\n      0xffffffffffffffff\n        /* \"#utility.yul\":2944:2950   */\n      dup3\n        /* \"#utility.yul\":2941:2971   */\n      gt\n        /* \"#utility.yul\":2925:3038   */\n      or\n        /* \"#utility.yul\":2922:3068   */\n      iszero\n      tag_113\n      jumpi\n        /* \"#utility.yul\":3053:3058   */\n      pop\n      pop\n      jump(tag_110)\n        /* \"#utility.yul\":2922:3068   */\n    tag_113:\n        /* \"#utility.yul\":3099:3105   */\n      dup1\n        /* \"#utility.yul\":3093:3097   */\n      dup3\n        /* \"#utility.yul\":3089:3106   */\n      add\n        /* \"#utility.yul\":3135:3138   */\n      dup1\n        /* \"#utility.yul\":3129:3139   */\n      mload\n        /* \"#utility.yul\":3162:3180   */\n      0xffffffffffffffff\n        /* \"#utility.yul\":3154:3160   */\n      dup2\n        /* \"#utility.yul\":3151:3181   */\n      gt\n        /* \"#utility.yul\":3148:3191   */\n      iszero\n      tag_114\n      jumpi\n        /* \"#utility.yul\":3184:3189   */\n      pop\n      pop\n      pop\n      pop\n      jump(tag_110)\n        /* \"#utility.yul\":3148:3191   */\n    tag_114:\n        /* \"#utility.yul\":3232:3238   */\n      dup1\n        /* \"#utility.yul\":3225:3229   */\n      0x20\n        /* \"#utility.yul\":3220:3223   */\n      dup4\n        /* \"#utility.yul\":3216:3230   */\n      add\n        /* \"#utility.yul\":3212:3239   */\n      add\n        /* \"#utility.yul\":3291:3292   */\n      0x04\n        /* \"#utility.yul\":3273:3289   */\n      returndatasize\n        /* \"#utility.yul\":3269:3293   */\n      sub\n        /* \"#utility.yul\":3263:3267   */\n      dup6\n        /* \"#utility.yul\":3259:3294   */\n      add\n        /* \"#utility.yul\":3254:3257   */\n      dup2\n        /* \"#utility.yul\":3251:3295   */\n      gt\n        /* \"#utility.yul\":3248:3305   */\n      iszero\n      tag_115\n      jumpi\n        /* \"#utility.yul\":3298:3303   */\n      pop\n      pop\n      pop\n      pop\n      pop\n      jump(tag_110)\n        /* \"#utility.yul\":3248:3305   */\n    tag_115:\n        /* \"#utility.yul\":3315:3372   */\n      tag_116\n        /* \"#utility.yul\":3363:3369   */\n      dup3\n        /* \"#utility.yul\":3357:3361   */\n      0x20\n        /* \"#utility.yul\":3353:3370   */\n      add\n        /* \"#utility.yul\":3345:3351   */\n      dup6\n        /* \"#utility.yul\":3341:3371   */\n      add\n        /* \"#utility.yul\":3335:3339   */\n      dup7\n        /* \"#utility.yul\":3315:3372   */\n      tag_67\n      jump\t// in\n    tag_116:\n        /* \"#utility.yul\":3388:3391   */\n      dup3\n        /* \"#utility.yul\":3381:3391   */\n      swap6\n      pop\n        /* \"#utility.yul\":2729:3397   */\n      pop\n      pop\n      pop\n      pop\n      pop\n        /* \"#utility.yul\":2686:3397   */\n    tag_110:\n      swap1\n      jump\t// out\n        /* \"#utility.yul\":3403:3502   */\n    tag_68:\n        /* \"#utility.yul\":3455:3461   */\n      0x00\n        /* \"#utility.yul\":3489:3494   */\n      dup2\n        /* \"#utility.yul\":3483:3495   */\n      mload\n        /* \"#utility.yul\":3473:3495   */\n      swap1\n      pop\n        /* \"#utility.yul\":3403:3502   */\n      swap2\n      swap1\n      pop\n      jump\t// out\n        /* \"#utility.yul\":3508:3677   */\n    tag_69:\n        /* \"#utility.yul\":3592:3603   */\n      0x00\n        /* \"#utility.yul\":3626:3632   */\n      dup3\n        /* \"#utility.yul\":3621:3624   */\n      dup3\n        /* \"#utility.yul\":3614:3633   */\n      mstore\n        /* \"#utility.yul\":3666:3670   */\n      0x20\n        /* \"#utility.yul\":3661:3664   */\n      dup3\n        /* \"#utility.yul\":3657:3671   */\n      add\n        /* \"#utility.yul\":3642:3671   */\n      swap1\n      pop\n        /* \"#utility.yul\":3508:3677   */\n      swap3\n      swap2\n      pop\n      pop\n      jump\t// out\n        /* \"#utility.yul\":3683:3929   */\n    tag_70:\n        /* \"#utility.yul\":3764:3765   */\n      0x00\n        /* \"#utility.yul\":3774:3887   */\n    tag_120:\n        /* \"#utility.yul\":3788:3794   */\n      dup4\n        /* \"#utility.yul\":3785:3786   */\n      dup2\n        /* \"#utility.yul\":3782:3795   */\n      lt\n        /* \"#utility.yul\":3774:3887   */\n      iszero\n      tag_122\n      jumpi\n        /* \"#utility.yul\":3873:3874   */\n      dup1\n        /* \"#utility.yul\":3868:3871   */\n      dup3\n        /* \"#utility.yul\":3864:3875   */\n      add\n        /* \"#utility.yul\":3858:3876   */\n      mload\n        /* \"#utility.yul\":3854:3855   */\n      dup2\n        /* \"#utility.yul\":3849:3852   */\n      dup5\n        /* \"#utility.yul\":3845:3856   */\n      add\n        /* \"#utility.yul\":3838:3877   */\n      mstore\n        /* \"#utility.yul\":3810:3812   */\n      0x20\n        /* \"#utility.yul\":3807:3808   */\n      dup2\n        /* \"#utility.yul\":3803:3813   */\n      add\n        /* \"#utility.yul\":3798:3813   */\n      swap1\n      pop\n        /* \"#utility.yul\":3774:3887   */\n      jump(tag_120)\n    tag_122:\n        /* \"#utility.yul\":3921:3922   */\n      0x00\n        /* \"#utility.yul\":3912:3918   */\n      dup5\n        /* \"#utility.yul\":3907:3910   */\n      dup5\n        /* \"#utility.yul\":3903:3919   */\n      add\n        /* \"#utility.yul\":3896:3923   */\n      mstore\n        /* \"#utility.yul\":3745:3929   */\n      pop\n        /* \"#utility.yul\":3683:3929   */\n      pop\n      pop\n      pop\n      jump\t// out\n        /* \"#utility.yul\":3935:4312   */\n    tag_71:\n        /* \"#utility.yul\":4023:4026   */\n      0x00\n        /* \"#utility.yul\":4051:4090   */\n      tag_124\n        /* \"#utility.yul\":4084:4089   */\n      dup3\n        /* \"#utility.yul\":4051:4090   */\n      tag_68\n      jump\t// in\n    tag_124:\n        /* \"#utility.yul\":4106:4177   */\n      tag_125\n        /* \"#utility.yul\":4170:4176   */\n      dup2\n        /* \"#utility.yul\":4165:4168   */\n      dup6\n        /* \"#utility.yul\":4106:4177   */\n      tag_69\n      jump\t// in\n    tag_125:\n        /* \"#utility.yul\":4099:4177   */\n      swap4\n      pop\n        /* \"#utility.yul\":4186:4251   */\n      tag_126\n        /* \"#utility.yul\":4244:4250   */\n      dup2\n        /* \"#utility.yul\":4239:4242   */\n      dup6\n        /* \"#utility.yul\":4232:4236   */\n      0x20\n        /* \"#utility.yul\":4225:4230   */\n      dup7\n        /* \"#utility.yul\":4221:4237   */\n      add\n        /* \"#utility.yul\":4186:4251   */\n      tag_70\n      jump\t// in\n    tag_126:\n        /* \"#utility.yul\":4276:4305   */\n      tag_127\n        /* \"#utility.yul\":4298:4304   */\n      dup2\n        /* \"#utility.yul\":4276:4305   */\n      tag_65\n      jump\t// in\n    tag_127:\n        /* \"#utility.yul\":4271:4274   */\n      dup5\n        /* \"#utility.yul\":4267:4306   */\n      add\n        /* \"#utility.yul\":4260:4306   */\n      swap2\n      pop\n        /* \"#utility.yul\":4027:4312   */\n      pop\n        /* \"#utility.yul\":3935:4312   */\n      swap3\n      swap2\n      pop\n      pop\n      jump\t// out\n        /* \"#utility.yul\":4318:4631   */\n    tag_31:\n        /* \"#utility.yul\":4431:4435   */\n      0x00\n        /* \"#utility.yul\":4469:4471   */\n      0x20\n        /* \"#utility.yul\":4458:4467   */\n      dup3\n        /* \"#utility.yul\":4454:4472   */\n      add\n        /* \"#utility.yul\":4446:4472   */\n      swap1\n      pop\n        /* \"#utility.yul\":4518:4527   */\n      dup2\n        /* \"#utility.yul\":4512:4516   */\n      dup2\n        /* \"#utility.yul\":4508:4528   */\n      sub\n        /* \"#utility.yul\":4504:4505   */\n      0x00\n        /* \"#utility.yul\":4493:4502   */\n      dup4\n        /* \"#utility.yul\":4489:4506   */\n      add\n        /* \"#utility.yul\":4482:4529   */\n      mstore\n        /* \"#utility.yul\":4546:4624   */\n      tag_129\n        /* \"#utility.yul\":4619:4623   */\n      dup2\n        /* \"#utility.yul\":4610:4616   */\n      dup5\n        /* \"#utility.yul\":4546:4624   */\n      tag_71\n      jump\t// in\n    tag_129:\n        /* \"#utility.yul\":4538:4624   */\n      swap1\n      pop\n        /* \"#utility.yul\":4318:4631   */\n      swap3\n      swap2\n      pop\n      pop\n      jump\t// out\n        /* \"#utility.yul\":4637:4735   */\n    tag_72:\n        /* \"#utility.yul\":4688:4694   */\n      0x00\n        /* \"#utility.yul\":4722:4727   */\n      dup2\n        /* \"#utility.yul\":4716:4728   */\n      mload\n        /* \"#utility.yul\":4706:4728   */\n      swap1\n      pop\n        /* \"#utility.yul\":4637:4735   */\n      swap2\n      swap1\n      pop\n      jump\t// out\n        /* \"#utility.yul\":4741:4909   */\n    tag_73:\n        /* \"#utility.yul\":4824:4835   */\n      0x00\n        /* \"#utility.yul\":4858:4864   */\n      dup3\n        /* \"#utility.yul\":4853:4856   */\n      dup3\n        /* \"#utility.yul\":4846:4865   */\n      mstore\n        /* \"#utility.yul\":4898:4902   */\n      0x20\n        /* \"#utility.yul\":4893:4896   */\n      dup3\n        /* \"#utility.yul\":4889:4903   */\n      add\n        /* \"#utility.yul\":4874:4903   */\n      swap1\n      pop\n        /* \"#utility.yul\":4741:4909   */\n      swap3\n      swap2\n      pop\n      pop\n      jump\t// out\n        /* \"#utility.yul\":4915:5288   */\n    tag_74:\n        /* \"#utility.yul\":5001:5004   */\n      0x00\n        /* \"#utility.yul\":5029:5067   */\n      tag_133\n        /* \"#utility.yul\":5061:5066   */\n      dup3\n        /* \"#utility.yul\":5029:5067   */\n      tag_72\n      jump\t// in\n    tag_133:\n        /* \"#utility.yul\":5083:5153   */\n      tag_134\n        /* \"#utility.yul\":5146:5152   */\n      dup2\n        /* \"#utility.yul\":5141:5144   */\n      dup6\n        /* \"#utility.yul\":5083:5153   */\n      tag_73\n      jump\t// in\n    tag_134:\n        /* \"#utility.yul\":5076:5153   */\n      swap4\n      pop\n        /* \"#utility.yul\":5162:5227   */\n      tag_135\n        /* \"#utility.yul\":5220:5226   */\n      dup2\n        /* \"#utility.yul\":5215:5218   */\n      dup6\n        /* \"#utility.yul\":5208:5212   */\n      0x20\n        /* \"#utility.yul\":5201:5206   */\n      dup7\n        /* \"#utility.yul\":5197:5213   */\n      add\n        /* \"#utility.yul\":5162:5227   */\n      tag_70\n      jump\t// in\n    tag_135:\n        /* \"#utility.yul\":5252:5281   */\n      tag_136\n        /* \"#utility.yul\":5274:5280   */\n      dup2\n        /* \"#utility.yul\":5252:5281   */\n      tag_65\n      jump\t// in\n    tag_136:\n        /* \"#utility.yul\":5247:5250   */\n      dup5\n        /* \"#utility.yul\":5243:5282   */\n      add\n        /* \"#utility.yul\":5236:5282   */\n      swap2\n      pop\n        /* \"#utility.yul\":5005:5288   */\n      pop\n        /* \"#utility.yul\":4915:5288   */\n      swap3\n      swap2\n      pop\n      pop\n      jump\t// out\n        /* \"#utility.yul\":5294:5603   */\n    tag_35:\n        /* \"#utility.yul\":5405:5409   */\n      0x00\n        /* \"#utility.yul\":5443:5445   */\n      0x20\n        /* \"#utility.yul\":5432:5441   */\n      dup3\n        /* \"#utility.yul\":5428:5446   */\n      add\n        /* \"#utility.yul\":5420:5446   */\n      swap1\n      pop\n        /* \"#utility.yul\":5492:5501   */\n      dup2\n        /* \"#utility.yul\":5486:5490   */\n      dup2\n        /* \"#utility.yul\":5482:5502   */\n      sub\n        /* \"#utility.yul\":5478:5479   */\n      0x00\n        /* \"#utility.yul\":5467:5476   */\n      dup4\n        /* \"#utility.yul\":5463:5480   */\n      add\n        /* \"#utility.yul\":5456:5503   */\n      mstore\n        /* \"#utility.yul\":5520:5596   */\n      tag_138\n        /* \"#utility.yul\":5591:5595   */\n      dup2\n        /* \"#utility.yul\":5582:5588   */\n      dup5\n        /* \"#utility.yul\":5520:5596   */\n      tag_74\n      jump\t// in\n    tag_138:\n        /* \"#utility.yul\":5512:5596   */\n      swap1\n      pop\n        /* \"#utility.yul\":5294:5603   */\n      swap3\n      swap2\n      pop\n      pop\n      jump\t// out\n        /* \"#utility.yul\":5609:5725   */\n    tag_75:\n        /* \"#utility.yul\":5679:5700   */\n      tag_140\n        /* \"#utility.yul\":5694:5699   */\n      dup2\n        /* \"#utility.yul\":5679:5700   */\n      tag_61\n      jump\t// in\n    tag_140:\n        /* \"#utility.yul\":5672:5677   */\n      dup2\n        /* \"#utility.yul\":5669:5701   */\n      eq\n        /* \"#utility.yul\":5659:5719   */\n      tag_141\n      jumpi\n        /* \"#utility.yul\":5715:5716   */\n      0x00\n        /* \"#utility.yul\":5712:5713   */\n      dup1\n        /* \"#utility.yul\":5705:5717   */\n      revert\n        /* \"#utility.yul\":5659:5719   */\n    tag_141:\n        /* \"#utility.yul\":5609:5725   */\n      pop\n      jump\t// out\n        /* \"#utility.yul\":5731:5868   */\n    tag_76:\n        /* \"#utility.yul\":5785:5790   */\n      0x00\n        /* \"#utility.yul\":5816:5822   */\n      dup2\n        /* \"#utility.yul\":5810:5823   */\n      mload\n        /* \"#utility.yul\":5801:5823   */\n      swap1\n      pop\n        /* \"#utility.yul\":5832:5862   */\n      tag_143\n        /* \"#utility.yul\":5856:5861   */\n      dup2\n        /* \"#utility.yul\":5832:5862   */\n      tag_75\n      jump\t// in\n    tag_143:\n        /* \"#utility.yul\":5731:5868   */\n      swap3\n      swap2\n      pop\n      pop\n      jump\t// out\n        /* \"#utility.yul\":5874:6219   */\n    tag_41:\n        /* \"#utility.yul\":5941:5947   */\n      0x00\n        /* \"#utility.yul\":5990:5992   */\n      0x20\n        /* \"#utility.yul\":5978:5987   */\n      dup3\n        /* \"#utility.yul\":5969:5976   */\n      dup5\n        /* \"#utility.yul\":5965:5988   */\n      sub\n        /* \"#utility.yul\":5961:5993   */\n      slt\n        /* \"#utility.yul\":5958:6077   */\n      iszero\n      tag_145\n      jumpi\n        /* \"#utility.yul\":5996:6075   */\n      tag_146\n      tag_56\n      jump\t// in\n    tag_146:\n        /* \"#utility.yul\":5958:6077   */\n    tag_145:\n        /* \"#utility.yul\":6116:6117   */\n      0x00\n        /* \"#utility.yul\":6141:6202   */\n      tag_147\n        /* \"#utility.yul\":6194:6201   */\n      dup5\n        /* \"#utility.yul\":6185:6191   */\n      dup3\n        /* \"#utility.yul\":6174:6183   */\n      dup6\n        /* \"#utility.yul\":6170:6192   */\n      add\n        /* \"#utility.yul\":6141:6202   */\n      tag_76\n      jump\t// in\n    tag_147:\n        /* \"#utility.yul\":6131:6202   */\n      swap2\n      pop\n        /* \"#utility.yul\":6087:6212   */\n      pop\n        /* \"#utility.yul\":5874:6219   */\n      swap3\n      swap2\n      pop\n      pop\n      jump\t// out\n    stop\n\n    sub_0: assembly {\n            /* \"LABS 21 Aug/Task All 18.sol\":1389:2121  contract PrimeChecker {... */\n          mstore(0x40, 0x80)\n            /* \"LABS 21 Aug/Task All 18.sol\":1417:1513  constructor(uint256 a) {... */\n          callvalue\n          dup1\n          iszero\n          tag_1\n          jumpi\n          0x00\n          dup1\n          revert\n        tag_1:\n          pop\n          mload(0x40)\n          sub(codesize, bytecodeSize)\n          dup1\n          bytecodeSize\n          dup4\n          codecopy\n          dup2\n          dup2\n          add\n          0x40\n          mstore\n          dup2\n          add\n          swap1\n          tag_2\n          swap2\n          swap1\n          tag_3\n          jump\t// in\n        tag_2:\n            /* \"LABS 21 Aug/Task All 18.sol\":1463:1464  0 */\n          0x00\n            /* \"LABS 21 Aug/Task All 18.sol\":1458:1459  a */\n          dup2\n            /* \"LABS 21 Aug/Task All 18.sol\":1458:1464  a != 0 */\n          sub\n            /* \"LABS 21 Aug/Task All 18.sol\":1450:1482  require(a != 0, \"Invalid Entry\") */\n          tag_6\n          jumpi\n          mload(0x40)\n          0x08c379a000000000000000000000000000000000000000000000000000000000\n          dup2\n          mstore\n          0x04\n          add\n          tag_7\n          swap1\n          tag_8\n          jump\t// in\n        tag_7:\n          mload(0x40)\n          dup1\n          swap2\n          sub\n          swap1\n          revert\n        tag_6:\n            /* \"LABS 21 Aug/Task All 18.sol\":1504:1505  1 */\n          0x01\n            /* \"LABS 21 Aug/Task All 18.sol\":1499:1500  a */\n          dup2\n            /* \"LABS 21 Aug/Task All 18.sol\":1499:1505  a != 1 */\n          sub\n            /* \"LABS 21 Aug/Task All 18.sol\":1492:1506  assert(a != 1) */\n          tag_9\n          jumpi\n          tag_10\n          tag_11\n          jump\t// in\n        tag_10:\n        tag_9:\n            /* \"LABS 21 Aug/Task All 18.sol\":1417:1513  constructor(uint256 a) {... */\n          pop\n            /* \"LABS 21 Aug/Task All 18.sol\":1389:2121  contract PrimeChecker {... */\n          jump(tag_12)\n            /* \"#utility.yul\":88:205   */\n        tag_14:\n            /* \"#utility.yul\":197:198   */\n          0x00\n            /* \"#utility.yul\":194:195   */\n          dup1\n            /* \"#utility.yul\":187:199   */\n          revert\n            /* \"#utility.yul\":334:411   */\n        tag_16:\n            /* \"#utility.yul\":371:378   */\n          0x00\n            /* \"#utility.yul\":400:405   */\n          dup2\n            /* \"#utility.yul\":389:405   */\n          swap1\n          pop\n            /* \"#utility.yul\":334:411   */\n          swap2\n          swap1\n          pop\n          jump\t// out\n            /* \"#utility.yul\":417:539   */\n        tag_17:\n            /* \"#utility.yul\":490:514   */\n          tag_28\n            /* \"#utility.yul\":508:513   */\n          dup2\n            /* \"#utility.yul\":490:514   */\n          tag_16\n          jump\t// in\n        tag_28:\n            /* \"#utility.yul\":483:488   */\n          dup2\n            /* \"#utility.yul\":480:515   */\n          eq\n            /* \"#utility.yul\":470:533   */\n          tag_29\n          jumpi\n            /* \"#utility.yul\":529:530   */\n          0x00\n            /* \"#utility.yul\":526:527   */\n          dup1\n            /* \"#utility.yul\":519:531   */\n          revert\n            /* \"#utility.yul\":470:533   */\n        tag_29:\n            /* \"#utility.yul\":417:539   */\n          pop\n          jump\t// out\n            /* \"#utility.yul\":545:688   */\n        tag_18:\n            /* \"#utility.yul\":602:607   */\n          0x00\n            /* \"#utility.yul\":633:639   */\n          dup2\n            /* \"#utility.yul\":627:640   */\n          mload\n            /* \"#utility.yul\":618:640   */\n          swap1\n          pop\n            /* \"#utility.yul\":649:682   */\n          tag_31\n            /* \"#utility.yul\":676:681   */\n          dup2\n            /* \"#utility.yul\":649:682   */\n          tag_17\n          jump\t// in\n        tag_31:\n            /* \"#utility.yul\":545:688   */\n          swap3\n          swap2\n          pop\n          pop\n          jump\t// out\n            /* \"#utility.yul\":694:1045   */\n        tag_3:\n            /* \"#utility.yul\":764:770   */\n          0x00\n            /* \"#utility.yul\":813:815   */\n          0x20\n            /* \"#utility.yul\":801:810   */\n          dup3\n            /* \"#utility.yul\":792:799   */\n          dup5\n            /* \"#utility.yul\":788:811   */\n          sub\n            /* \"#utility.yul\":784:816   */\n          slt\n            /* \"#utility.yul\":781:900   */\n          iszero\n          tag_33\n          jumpi\n            /* \"#utility.yul\":819:898   */\n          tag_34\n          tag_14\n          jump\t// in\n        tag_34:\n            /* \"#utility.yul\":781:900   */\n        tag_33:\n            /* \"#utility.yul\":939:940   */\n          0x00\n            /* \"#utility.yul\":964:1028   */\n          tag_35\n            /* \"#utility.yul\":1020:1027   */\n          dup5\n            /* \"#utility.yul\":1011:1017   */\n          dup3\n            /* \"#utility.yul\":1000:1009   */\n          dup6\n            /* \"#utility.yul\":996:1018   */\n          add\n            /* \"#utility.yul\":964:1028   */\n          tag_18\n          jump\t// in\n        tag_35:\n            /* \"#utility.yul\":954:1028   */\n          swap2\n          pop\n            /* \"#utility.yul\":910:1038   */\n          pop\n            /* \"#utility.yul\":694:1045   */\n          swap3\n          swap2\n          pop\n          pop\n          jump\t// out\n            /* \"#utility.yul\":1051:1220   */\n        tag_19:\n            /* \"#utility.yul\":1135:1146   */\n          0x00\n            /* \"#utility.yul\":1169:1175   */\n          dup3\n            /* \"#utility.yul\":1164:1167   */\n          dup3\n            /* \"#utility.yul\":1157:1176   */\n          mstore\n            /* \"#utility.yul\":1209:1213   */\n          0x20\n            /* \"#utility.yul\":1204:1207   */\n          dup3\n            /* \"#utility.yul\":1200:1214   */\n          add\n            /* \"#utility.yul\":1185:1214   */\n          swap1\n          pop\n            /* \"#utility.yul\":1051:1220   */\n          swap3\n          swap2\n          pop\n          pop\n          jump\t// out\n            /* \"#utility.yul\":1226:1389   */\n        tag_20:\n            /* \"#utility.yul\":1366:1381   */\n          0x496e76616c696420456e74727900000000000000000000000000000000000000\n            /* \"#utility.yul\":1362:1363   */\n          0x00\n            /* \"#utility.yul\":1354:1360   */\n          dup3\n            /* \"#utility.yul\":1350:1364   */\n          add\n            /* \"#utility.yul\":1343:1382   */\n          mstore\n            /* \"#utility.yul\":1226:1389   */\n          pop\n          jump\t// out\n            /* \"#utility.yul\":1395:1761   */\n        tag_21:\n            /* \"#utility.yul\":1537:1540   */\n          0x00\n            /* \"#utility.yul\":1558:1625   */\n          tag_39\n            /* \"#utility.yul\":1622:1624   */\n          0x0d\n            /* \"#utility.yul\":1617:1620   */\n          dup4\n            /* \"#utility.yul\":1558:1625   */\n          tag_19\n          jump\t// in\n        tag_39:\n            /* \"#utility.yul\":1551:1625   */\n          swap2\n          pop\n            /* \"#utility.yul\":1634:1727   */\n          tag_40\n            /* \"#utility.yul\":1723:1726   */\n          dup3\n            /* \"#utility.yul\":1634:1727   */\n          tag_20\n          jump\t// in\n        tag_40:\n            /* \"#utility.yul\":1752:1754   */\n          0x20\n            /* \"#utility.yul\":1747:1750   */\n          dup3\n            /* \"#utility.yul\":1743:1755   */\n          add\n            /* \"#utility.yul\":1736:1755   */\n          swap1\n          pop\n            /* \"#utility.yul\":1395:1761   */\n          swap2\n          swap1\n          pop\n          jump\t// out\n            /* \"#utility.yul\":1767:2186   */\n        tag_8:\n            /* \"#utility.yul\":1933:1937   */\n          0x00\n            /* \"#utility.yul\":1971:1973   */\n          0x20\n            /* \"#utility.yul\":1960:1969   */\n          dup3\n            /* \"#utility.yul\":1956:1974   */\n          add\n            /* \"#utility.yul\":1948:1974   */\n          swap1\n          pop\n            /* \"#utility.yul\":2020:2029   */\n          dup2\n            /* \"#utility.yul\":2014:2018   */\n          dup2\n            /* \"#utility.yul\":2010:2030   */\n          sub\n            /* \"#utility.yul\":2006:2007   */\n          0x00\n            /* \"#utility.yul\":1995:2004   */\n          dup4\n            /* \"#utility.yul\":1991:2008   */\n          add\n            /* \"#utility.yul\":1984:2031   */\n          mstore\n            /* \"#utility.yul\":2048:2179   */\n          tag_42\n            /* \"#utility.yul\":2174:2178   */\n          dup2\n            /* \"#utility.yul\":2048:2179   */\n          tag_21\n          jump\t// in\n        tag_42:\n            /* \"#utility.yul\":2040:2179   */\n          swap1\n          pop\n            /* \"#utility.yul\":1767:2186   */\n          swap2\n          swap1\n          pop\n          jump\t// out\n            /* \"#utility.yul\":2192:2372   */\n        tag_11:\n            /* \"#utility.yul\":2240:2317   */\n          0x4e487b7100000000000000000000000000000000000000000000000000000000\n            /* \"#utility.yul\":2237:2238   */\n          0x00\n            /* \"#utility.yul\":2230:2318   */\n          mstore\n            /* \"#utility.yul\":2337:2341   */\n          0x01\n            /* \"#utility.yul\":2334:2335   */\n          0x04\n            /* \"#utility.yul\":2327:2342   */\n          mstore\n            /* \"#utility.yul\":2361:2365   */\n          0x24\n            /* \"#utility.yul\":2358:2359   */\n          0x00\n            /* \"#utility.yul\":2351:2366   */\n          revert\n            /* \"LABS 21 Aug/Task All 18.sol\":1389:2121  contract PrimeChecker {... */\n        tag_12:\n          dataSize(sub_0)\n          dup1\n          dataOffset(sub_0)\n          0x00\n          codecopy\n          0x00\n          return\n        stop\n\n        sub_0: assembly {\n                /* \"LABS 21 Aug/Task All 18.sol\":1389:2121  contract PrimeChecker {... */\n              mstore(0x40, 0x80)\n              callvalue\n              dup1\n              iszero\n              tag_1\n              jumpi\n              0x00\n              dup1\n              revert\n            tag_1:\n              pop\n              jumpi(tag_2, lt(calldatasize, 0x04))\n              shr(0xe0, calldataload(0x00))\n              dup1\n              0x05f5b3eb\n              eq\n              tag_3\n              jumpi\n            tag_2:\n              0x00\n              dup1\n              revert\n                /* \"LABS 21 Aug/Task All 18.sol\":1921:2119  function onlyPrime(uint256 b) external pure returns (bool success) {... */\n            tag_3:\n              tag_4\n              0x04\n              dup1\n              calldatasize\n              sub\n              dup2\n              add\n              swap1\n              tag_5\n              swap2\n              swap1\n              tag_6\n              jump\t// in\n            tag_5:\n              tag_7\n              jump\t// in\n            tag_4:\n              mload(0x40)\n              tag_8\n              swap2\n              swap1\n              tag_9\n              jump\t// in\n            tag_8:\n              mload(0x40)\n              dup1\n              swap2\n              sub\n              swap1\n              return\n            tag_7:\n                /* \"LABS 21 Aug/Task All 18.sol\":1974:1986  bool success */\n              0x00\n                /* \"LABS 21 Aug/Task All 18.sol\":2059:2069  isPrime(b) */\n              tag_11\n                /* \"LABS 21 Aug/Task All 18.sol\":2067:2068  b */\n              dup3\n                /* \"LABS 21 Aug/Task All 18.sol\":2059:2066  isPrime */\n              tag_12\n                /* \"LABS 21 Aug/Task All 18.sol\":2059:2069  isPrime(b) */\n              jump\t// in\n            tag_11:\n                /* \"LABS 21 Aug/Task All 18.sol\":2051:2088  require(isPrime(b), \"Ups! Reverting\") */\n              tag_13\n              jumpi\n              mload(0x40)\n              0x08c379a000000000000000000000000000000000000000000000000000000000\n              dup2\n              mstore\n              0x04\n              add\n              tag_14\n              swap1\n              tag_15\n              jump\t// in\n            tag_14:\n              mload(0x40)\n              dup1\n              swap2\n              sub\n              swap1\n              revert\n            tag_13:\n                /* \"LABS 21 Aug/Task All 18.sol\":2108:2112  true */\n              0x01\n                /* \"LABS 21 Aug/Task All 18.sol\":2098:2112  success = true */\n              swap1\n              pop\n                /* \"LABS 21 Aug/Task All 18.sol\":1921:2119  function onlyPrime(uint256 b) external pure returns (bool success) {... */\n              swap2\n              swap1\n              pop\n              jump\t// out\n                /* \"LABS 21 Aug/Task All 18.sol\":1519:1915  function isPrime(uint256 b) internal pure returns (bool) {... */\n            tag_12:\n                /* \"LABS 21 Aug/Task All 18.sol\":1570:1574  bool */\n              0x00\n                /* \"LABS 21 Aug/Task All 18.sol\":1595:1596  1 */\n              0x01\n                /* \"LABS 21 Aug/Task All 18.sol\":1590:1591  b */\n              dup3\n                /* \"LABS 21 Aug/Task All 18.sol\":1590:1596  b <= 1 */\n              gt\n                /* \"LABS 21 Aug/Task All 18.sol\":1586:1635  if (b <= 1) {... */\n              tag_17\n              jumpi\n                /* \"LABS 21 Aug/Task All 18.sol\":1619:1624  false */\n              0x00\n                /* \"LABS 21 Aug/Task All 18.sol\":1612:1624  return false */\n              swap1\n              pop\n              jump(tag_16)\n                /* \"LABS 21 Aug/Task All 18.sol\":1586:1635  if (b <= 1) {... */\n            tag_17:\n                /* \"LABS 21 Aug/Task All 18.sol\":1653:1654  2 */\n              0x02\n                /* \"LABS 21 Aug/Task All 18.sol\":1648:1649  b */\n              dup3\n                /* \"LABS 21 Aug/Task All 18.sol\":1648:1654  b == 2 */\n              sub\n                /* \"LABS 21 Aug/Task All 18.sol\":1644:1692  if (b == 2) {... */\n              tag_18\n              jumpi\n                /* \"LABS 21 Aug/Task All 18.sol\":1677:1681  true */\n              0x01\n                /* \"LABS 21 Aug/Task All 18.sol\":1670:1681  return true */\n              swap1\n              pop\n              jump(tag_16)\n                /* \"LABS 21 Aug/Task All 18.sol\":1644:1692  if (b == 2) {... */\n            tag_18:\n                /* \"LABS 21 Aug/Task All 18.sol\":1714:1715  0 */\n              0x00\n                /* \"LABS 21 Aug/Task All 18.sol\":1709:1710  2 */\n              0x02\n                /* \"LABS 21 Aug/Task All 18.sol\":1705:1706  b */\n              dup4\n                /* \"LABS 21 Aug/Task All 18.sol\":1705:1710  b % 2 */\n              tag_19\n              swap2\n              swap1\n              tag_20\n              jump\t// in\n            tag_19:\n                /* \"LABS 21 Aug/Task All 18.sol\":1705:1715  b % 2 == 0 */\n              sub\n                /* \"LABS 21 Aug/Task All 18.sol\":1701:1754  if (b % 2 == 0) {... */\n              tag_21\n              jumpi\n                /* \"LABS 21 Aug/Task All 18.sol\":1738:1743  false */\n              0x00\n                /* \"LABS 21 Aug/Task All 18.sol\":1731:1743  return false */\n              swap1\n              pop\n              jump(tag_16)\n                /* \"LABS 21 Aug/Task All 18.sol\":1701:1754  if (b % 2 == 0) {... */\n            tag_21:\n                /* \"LABS 21 Aug/Task All 18.sol\":1768:1777  uint256 i */\n              0x00\n                /* \"LABS 21 Aug/Task All 18.sol\":1780:1781  3 */\n              0x03\n                /* \"LABS 21 Aug/Task All 18.sol\":1768:1781  uint256 i = 3 */\n              swap1\n              pop\n                /* \"LABS 21 Aug/Task All 18.sol\":1763:1888  for (uint256 i = 3; i * i <= b; i += 2) {... */\n            tag_22:\n                /* \"LABS 21 Aug/Task All 18.sol\":1792:1793  b */\n              dup3\n                /* \"LABS 21 Aug/Task All 18.sol\":1787:1788  i */\n              dup2\n                /* \"LABS 21 Aug/Task All 18.sol\":1783:1784  i */\n              dup3\n                /* \"LABS 21 Aug/Task All 18.sol\":1783:1788  i * i */\n              tag_25\n              swap2\n              swap1\n              tag_26\n              jump\t// in\n            tag_25:\n                /* \"LABS 21 Aug/Task All 18.sol\":1783:1793  i * i <= b */\n              gt\n                /* \"LABS 21 Aug/Task All 18.sol\":1763:1888  for (uint256 i = 3; i * i <= b; i += 2) {... */\n              tag_23\n              jumpi\n                /* \"LABS 21 Aug/Task All 18.sol\":1830:1831  0 */\n              0x00\n                /* \"LABS 21 Aug/Task All 18.sol\":1825:1826  i */\n              dup2\n                /* \"LABS 21 Aug/Task All 18.sol\":1821:1822  b */\n              dup5\n                /* \"LABS 21 Aug/Task All 18.sol\":1821:1826  b % i */\n              tag_27\n              swap2\n              swap1\n              tag_20\n              jump\t// in\n            tag_27:\n                /* \"LABS 21 Aug/Task All 18.sol\":1821:1831  b % i == 0 */\n              sub\n                /* \"LABS 21 Aug/Task All 18.sol\":1817:1878  if (b % i == 0) {... */\n              tag_28\n              jumpi\n                /* \"LABS 21 Aug/Task All 18.sol\":1858:1863  false */\n              0x00\n                /* \"LABS 21 Aug/Task All 18.sol\":1851:1863  return false */\n              swap2\n              pop\n              pop\n              jump(tag_16)\n                /* \"LABS 21 Aug/Task All 18.sol\":1817:1878  if (b % i == 0) {... */\n            tag_28:\n                /* \"LABS 21 Aug/Task All 18.sol\":1800:1801  2 */\n              0x02\n                /* \"LABS 21 Aug/Task All 18.sol\":1795:1801  i += 2 */\n              dup2\n              tag_29\n              swap2\n              swap1\n              tag_30\n              jump\t// in\n            tag_29:\n              swap1\n              pop\n                /* \"LABS 21 Aug/Task All 18.sol\":1763:1888  for (uint256 i = 3; i * i <= b; i += 2) {... */\n              jump(tag_22)\n            tag_23:\n              pop\n                /* \"LABS 21 Aug/Task All 18.sol\":1904:1908  true */\n              0x01\n                /* \"LABS 21 Aug/Task All 18.sol\":1897:1908  return true */\n              swap1\n              pop\n                /* \"LABS 21 Aug/Task All 18.sol\":1519:1915  function isPrime(uint256 b) internal pure returns (bool) {... */\n            tag_16:\n              swap2\n              swap1\n              pop\n              jump\t// out\n                /* \"#utility.yul\":88:205   */\n            tag_32:\n                /* \"#utility.yul\":197:198   */\n              0x00\n                /* \"#utility.yul\":194:195   */\n              dup1\n                /* \"#utility.yul\":187:199   */\n              revert\n                /* \"#utility.yul\":334:411   */\n            tag_34:\n                /* \"#utility.yul\":371:378   */\n              0x00\n                /* \"#utility.yul\":400:405   */\n              dup2\n                /* \"#utility.yul\":389:405   */\n              swap1\n              pop\n                /* \"#utility.yul\":334:411   */\n              swap2\n              swap1\n              pop\n              jump\t// out\n                /* \"#utility.yul\":417:539   */\n            tag_35:\n                /* \"#utility.yul\":490:514   */\n              tag_50\n                /* \"#utility.yul\":508:513   */\n              dup2\n                /* \"#utility.yul\":490:514   */\n              tag_34\n              jump\t// in\n            tag_50:\n                /* \"#utility.yul\":483:488   */\n              dup2\n                /* \"#utility.yul\":480:515   */\n              eq\n                /* \"#utility.yul\":470:533   */\n              tag_51\n              jumpi\n                /* \"#utility.yul\":529:530   */\n              0x00\n                /* \"#utility.yul\":526:527   */\n              dup1\n                /* \"#utility.yul\":519:531   */\n              revert\n                /* \"#utility.yul\":470:533   */\n            tag_51:\n                /* \"#utility.yul\":417:539   */\n              pop\n              jump\t// out\n                /* \"#utility.yul\":545:684   */\n            tag_36:\n                /* \"#utility.yul\":591:596   */\n              0x00\n                /* \"#utility.yul\":629:635   */\n              dup2\n                /* \"#utility.yul\":616:636   */\n              calldataload\n                /* \"#utility.yul\":607:636   */\n              swap1\n              pop\n                /* \"#utility.yul\":645:678   */\n              tag_53\n                /* \"#utility.yul\":672:677   */\n              dup2\n                /* \"#utility.yul\":645:678   */\n              tag_35\n              jump\t// in\n            tag_53:\n                /* \"#utility.yul\":545:684   */\n              swap3\n              swap2\n              pop\n              pop\n              jump\t// out\n                /* \"#utility.yul\":690:1019   */\n            tag_6:\n                /* \"#utility.yul\":749:755   */\n              0x00\n                /* \"#utility.yul\":798:800   */\n              0x20\n                /* \"#utility.yul\":786:795   */\n              dup3\n                /* \"#utility.yul\":777:784   */\n              dup5\n                /* \"#utility.yul\":773:796   */\n              sub\n                /* \"#utility.yul\":769:801   */\n              slt\n                /* \"#utility.yul\":766:885   */\n              iszero\n              tag_55\n              jumpi\n                /* \"#utility.yul\":804:883   */\n              tag_56\n              tag_32\n              jump\t// in\n            tag_56:\n                /* \"#utility.yul\":766:885   */\n            tag_55:\n                /* \"#utility.yul\":924:925   */\n              0x00\n                /* \"#utility.yul\":949:1002   */\n              tag_57\n                /* \"#utility.yul\":994:1001   */\n              dup5\n                /* \"#utility.yul\":985:991   */\n              dup3\n                /* \"#utility.yul\":974:983   */\n              dup6\n                /* \"#utility.yul\":970:992   */\n              add\n                /* \"#utility.yul\":949:1002   */\n              tag_36\n              jump\t// in\n            tag_57:\n                /* \"#utility.yul\":939:1002   */\n              swap2\n              pop\n                /* \"#utility.yul\":895:1012   */\n              pop\n                /* \"#utility.yul\":690:1019   */\n              swap3\n              swap2\n              pop\n              pop\n              jump\t// out\n                /* \"#utility.yul\":1025:1115   */\n            tag_37:\n                /* \"#utility.yul\":1059:1066   */\n              0x00\n                /* \"#utility.yul\":1102:1107   */\n              dup2\n                /* \"#utility.yul\":1095:1108   */\n              iszero\n                /* \"#utility.yul\":1088:1109   */\n              iszero\n                /* \"#utility.yul\":1077:1109   */\n              swap1\n              pop\n                /* \"#utility.yul\":1025:1115   */\n              swap2\n              swap1\n              pop\n              jump\t// out\n                /* \"#utility.yul\":1121:1230   */\n            tag_38:\n                /* \"#utility.yul\":1202:1223   */\n              tag_60\n                /* \"#utility.yul\":1217:1222   */\n              dup2\n                /* \"#utility.yul\":1202:1223   */\n              tag_37\n              jump\t// in\n            tag_60:\n                /* \"#utility.yul\":1197:1200   */\n              dup3\n                /* \"#utility.yul\":1190:1224   */\n              mstore\n                /* \"#utility.yul\":1121:1230   */\n              pop\n              pop\n              jump\t// out\n                /* \"#utility.yul\":1236:1446   */\n            tag_9:\n                /* \"#utility.yul\":1323:1327   */\n              0x00\n                /* \"#utility.yul\":1361:1363   */\n              0x20\n                /* \"#utility.yul\":1350:1359   */\n              dup3\n                /* \"#utility.yul\":1346:1364   */\n              add\n                /* \"#utility.yul\":1338:1364   */\n              swap1\n              pop\n                /* \"#utility.yul\":1374:1439   */\n              tag_62\n                /* \"#utility.yul\":1436:1437   */\n              0x00\n                /* \"#utility.yul\":1425:1434   */\n              dup4\n                /* \"#utility.yul\":1421:1438   */\n              add\n                /* \"#utility.yul\":1412:1418   */\n              dup5\n                /* \"#utility.yul\":1374:1439   */\n              tag_38\n              jump\t// in\n            tag_62:\n                /* \"#utility.yul\":1236:1446   */\n              swap3\n              swap2\n              pop\n              pop\n              jump\t// out\n                /* \"#utility.yul\":1452:1621   */\n            tag_39:\n                /* \"#utility.yul\":1536:1547   */\n              0x00\n                /* \"#utility.yul\":1570:1576   */\n              dup3\n                /* \"#utility.yul\":1565:1568   */\n              dup3\n                /* \"#utility.yul\":1558:1577   */\n              mstore\n                /* \"#utility.yul\":1610:1614   */\n              0x20\n                /* \"#utility.yul\":1605:1608   */\n              dup3\n                /* \"#utility.yul\":1601:1615   */\n              add\n                /* \"#utility.yul\":1586:1615   */\n              swap1\n              pop\n                /* \"#utility.yul\":1452:1621   */\n              swap3\n              swap2\n              pop\n              pop\n              jump\t// out\n                /* \"#utility.yul\":1627:1791   */\n            tag_40:\n                /* \"#utility.yul\":1767:1783   */\n              0x5570732120526576657274696e67000000000000000000000000000000000000\n                /* \"#utility.yul\":1763:1764   */\n              0x00\n                /* \"#utility.yul\":1755:1761   */\n              dup3\n                /* \"#utility.yul\":1751:1765   */\n              add\n                /* \"#utility.yul\":1744:1784   */\n              mstore\n                /* \"#utility.yul\":1627:1791   */\n              pop\n              jump\t// out\n                /* \"#utility.yul\":1797:2163   */\n            tag_41:\n                /* \"#utility.yul\":1939:1942   */\n              0x00\n                /* \"#utility.yul\":1960:2027   */\n              tag_66\n                /* \"#utility.yul\":2024:2026   */\n              0x0e\n                /* \"#utility.yul\":2019:2022   */\n              dup4\n                /* \"#utility.yul\":1960:2027   */\n              tag_39\n              jump\t// in\n            tag_66:\n                /* \"#utility.yul\":1953:2027   */\n              swap2\n              pop\n                /* \"#utility.yul\":2036:2129   */\n              tag_67\n                /* \"#utility.yul\":2125:2128   */\n              dup3\n                /* \"#utility.yul\":2036:2129   */\n              tag_40\n              jump\t// in\n            tag_67:\n                /* \"#utility.yul\":2154:2156   */\n              0x20\n                /* \"#utility.yul\":2149:2152   */\n              dup3\n                /* \"#utility.yul\":2145:2157   */\n              add\n                /* \"#utility.yul\":2138:2157   */\n              swap1\n              pop\n                /* \"#utility.yul\":1797:2163   */\n              swap2\n              swap1\n              pop\n              jump\t// out\n                /* \"#utility.yul\":2169:2588   */\n            tag_15:\n                /* \"#utility.yul\":2335:2339   */\n              0x00\n                /* \"#utility.yul\":2373:2375   */\n              0x20\n                /* \"#utility.yul\":2362:2371   */\n              dup3\n                /* \"#utility.yul\":2358:2376   */\n              add\n                /* \"#utility.yul\":2350:2376   */\n              swap1\n              pop\n                /* \"#utility.yul\":2422:2431   */\n              dup2\n                /* \"#utility.yul\":2416:2420   */\n              dup2\n                /* \"#utility.yul\":2412:2432   */\n              sub\n                /* \"#utility.yul\":2408:2409   */\n              0x00\n                /* \"#utility.yul\":2397:2406   */\n              dup4\n                /* \"#utility.yul\":2393:2410   */\n              add\n                /* \"#utility.yul\":2386:2433   */\n              mstore\n                /* \"#utility.yul\":2450:2581   */\n              tag_69\n                /* \"#utility.yul\":2576:2580   */\n              dup2\n                /* \"#utility.yul\":2450:2581   */\n              tag_41\n              jump\t// in\n            tag_69:\n                /* \"#utility.yul\":2442:2581   */\n              swap1\n              pop\n                /* \"#utility.yul\":2169:2588   */\n              swap2\n              swap1\n              pop\n              jump\t// out\n                /* \"#utility.yul\":2594:2774   */\n            tag_42:\n                /* \"#utility.yul\":2642:2719   */\n              0x4e487b7100000000000000000000000000000000000000000000000000000000\n                /* \"#utility.yul\":2639:2640   */\n              0x00\n                /* \"#utility.yul\":2632:2720   */\n              mstore\n                /* \"#utility.yul\":2739:2743   */\n              0x12\n                /* \"#utility.yul\":2736:2737   */\n              0x04\n                /* \"#utility.yul\":2729:2744   */\n              mstore\n                /* \"#utility.yul\":2763:2767   */\n              0x24\n                /* \"#utility.yul\":2760:2761   */\n              0x00\n                /* \"#utility.yul\":2753:2768   */\n              revert\n                /* \"#utility.yul\":2780:2956   */\n            tag_20:\n                /* \"#utility.yul\":2812:2813   */\n              0x00\n                /* \"#utility.yul\":2829:2849   */\n              tag_72\n                /* \"#utility.yul\":2847:2848   */\n              dup3\n                /* \"#utility.yul\":2829:2849   */\n              tag_34\n              jump\t// in\n            tag_72:\n                /* \"#utility.yul\":2824:2849   */\n              swap2\n              pop\n                /* \"#utility.yul\":2863:2883   */\n              tag_73\n                /* \"#utility.yul\":2881:2882   */\n              dup4\n                /* \"#utility.yul\":2863:2883   */\n              tag_34\n              jump\t// in\n            tag_73:\n                /* \"#utility.yul\":2858:2883   */\n              swap3\n              pop\n                /* \"#utility.yul\":2902:2903   */\n              dup3\n                /* \"#utility.yul\":2892:2927   */\n              tag_74\n              jumpi\n                /* \"#utility.yul\":2907:2925   */\n              tag_75\n              tag_42\n              jump\t// in\n            tag_75:\n                /* \"#utility.yul\":2892:2927   */\n            tag_74:\n                /* \"#utility.yul\":2948:2949   */\n              dup3\n                /* \"#utility.yul\":2945:2946   */\n              dup3\n                /* \"#utility.yul\":2941:2950   */\n              mod\n                /* \"#utility.yul\":2936:2950   */\n              swap1\n              pop\n                /* \"#utility.yul\":2780:2956   */\n              swap3\n              swap2\n              pop\n              pop\n              jump\t// out\n                /* \"#utility.yul\":2962:3142   */\n            tag_43:\n                /* \"#utility.yul\":3010:3087   */\n              0x4e487b7100000000000000000000000000000000000000000000000000000000\n                /* \"#utility.yul\":3007:3008   */\n              0x00\n                /* \"#utility.yul\":3000:3088   */\n              mstore\n                /* \"#utility.yul\":3107:3111   */\n              0x11\n                /* \"#utility.yul\":3104:3105   */\n              0x04\n                /* \"#utility.yul\":3097:3112   */\n              mstore\n                /* \"#utility.yul\":3131:3135   */\n              0x24\n                /* \"#utility.yul\":3128:3129   */\n              0x00\n                /* \"#utility.yul\":3121:3136   */\n              revert\n                /* \"#utility.yul\":3148:3558   */\n            tag_26:\n                /* \"#utility.yul\":3188:3195   */\n              0x00\n                /* \"#utility.yul\":3211:3231   */\n              tag_78\n                /* \"#utility.yul\":3229:3230   */\n              dup3\n                /* \"#utility.yul\":3211:3231   */\n              tag_34\n              jump\t// in\n            tag_78:\n                /* \"#utility.yul\":3206:3231   */\n              swap2\n              pop\n                /* \"#utility.yul\":3245:3265   */\n              tag_79\n                /* \"#utility.yul\":3263:3264   */\n              dup4\n                /* \"#utility.yul\":3245:3265   */\n              tag_34\n              jump\t// in\n            tag_79:\n                /* \"#utility.yul\":3240:3265   */\n              swap3\n              pop\n                /* \"#utility.yul\":3300:3301   */\n              dup3\n                /* \"#utility.yul\":3297:3298   */\n              dup3\n                /* \"#utility.yul\":3293:3302   */\n              mul\n                /* \"#utility.yul\":3322:3352   */\n              tag_80\n                /* \"#utility.yul\":3340:3351   */\n              dup2\n                /* \"#utility.yul\":3322:3352   */\n              tag_34\n              jump\t// in\n            tag_80:\n                /* \"#utility.yul\":3311:3352   */\n              swap2\n              pop\n                /* \"#utility.yul\":3501:3502   */\n              dup3\n                /* \"#utility.yul\":3492:3499   */\n              dup3\n                /* \"#utility.yul\":3488:3503   */\n              div\n                /* \"#utility.yul\":3485:3486   */\n              dup5\n                /* \"#utility.yul\":3482:3504   */\n              eq\n                /* \"#utility.yul\":3462:3463   */\n              dup4\n                /* \"#utility.yul\":3455:3464   */\n              iszero\n                /* \"#utility.yul\":3435:3518   */\n              or\n                /* \"#utility.yul\":3412:3551   */\n              tag_81\n              jumpi\n                /* \"#utility.yul\":3531:3549   */\n              tag_82\n              tag_43\n              jump\t// in\n            tag_82:\n                /* \"#utility.yul\":3412:3551   */\n            tag_81:\n                /* \"#utility.yul\":3196:3558   */\n              pop\n                /* \"#utility.yul\":3148:3558   */\n              swap3\n              swap2\n              pop\n              pop\n              jump\t// out\n                /* \"#utility.yul\":3564:3755   */\n            tag_30:\n                /* \"#utility.yul\":3604:3607   */\n              0x00\n                /* \"#utility.yul\":3623:3643   */\n              tag_84\n                /* \"#utility.yul\":3641:3642   */\n              dup3\n                /* \"#utility.yul\":3623:3643   */\n              tag_34\n              jump\t// in\n            tag_84:\n                /* \"#utility.yul\":3618:3643   */\n              swap2\n              pop\n                /* \"#utility.yul\":3657:3677   */\n              tag_85\n                /* \"#utility.yul\":3675:3676   */\n              dup4\n                /* \"#utility.yul\":3657:3677   */\n              tag_34\n              jump\t// in\n            tag_85:\n                /* \"#utility.yul\":3652:3677   */\n              swap3\n              pop\n                /* \"#utility.yul\":3700:3701   */\n              dup3\n                /* \"#utility.yul\":3697:3698   */\n              dup3\n                /* \"#utility.yul\":3693:3702   */\n              add\n                /* \"#utility.yul\":3686:3702   */\n              swap1\n              pop\n                /* \"#utility.yul\":3721:3724   */\n              dup1\n                /* \"#utility.yul\":3718:3719   */\n              dup3\n                /* \"#utility.yul\":3715:3725   */\n              gt\n                /* \"#utility.yul\":3712:3748   */\n              iszero\n              tag_86\n              jumpi\n                /* \"#utility.yul\":3728:3746   */\n              tag_87\n              tag_43\n              jump\t// in\n            tag_87:\n                /* \"#utility.yul\":3712:3748   */\n            tag_86:\n                /* \"#utility.yul\":3564:3755   */\n              swap3\n              swap2\n              pop\n              pop\n              jump\t// out\n\n            auxdata: 0xa2646970667358221220858e3ef5e716dca75d2accab43aae86b5c3699b91f12f25c6b2d573252d3de5964736f6c63430008120033\n        }\n    }\n\n    auxdata: 0xa2646970667358221220911e6e6707332ba76937a8a41abbe204b870ecca48dd92e15f7b62567ed4dbf164736f6c63430008120033\n}\n\nsub_1: assembly {\n        /* \"LABS 21 Aug/Task All 18.sol\":1389:2121  contract PrimeChecker {... */\n      mstore(0x40, 0x80)\n        /* \"LABS 21 Aug/Task All 18.sol\":1417:1513  constructor(uint256 a) {... */\n      callvalue\n      dup1\n      iszero\n      tag_1\n      jumpi\n      0x00\n      dup1\n      revert\n    tag_1:\n      pop\n      mload(0x40)\n      sub(codesize, bytecodeSize)\n      dup1\n      bytecodeSize\n      dup4\n      codecopy\n      dup2\n      dup2\n      add\n      0x40\n      mstore\n      dup2\n      add\n      swap1\n      tag_2\n      swap2\n      swap1\n      tag_3\n      jump\t// in\n    tag_2:\n        /* \"LABS 21 Aug/Task All 18.sol\":1463:1464  0 */\n      0x00\n        /* \"LABS 21 Aug/Task All 18.sol\":1458:1459  a */\n      dup2\n        /* \"LABS 21 Aug/Task All 18.sol\":1458:1464  a != 0 */\n      sub\n        /* \"LABS 21 Aug/Task All 18.sol\":1450:1482  require(a != 0, \"Invalid Entry\") */\n      tag_6\n      jumpi\n      mload(0x40)\n      0x08c379a000000000000000000000000000000000000000000000000000000000\n      dup2\n      mstore\n      0x04\n      add\n      tag_7\n      swap1\n      tag_8\n      jump\t// in\n    tag_7:\n      mload(0x40)\n      dup1\n      swap2\n      sub\n      swap1\n      revert\n    tag_6:\n        /* \"LABS 21 Aug/Task All 18.sol\":1504:1505  1 */\n      0x01\n        /* \"LABS 21 Aug/Task All 18.sol\":1499:1500  a */\n      dup2\n        /* \"LABS 21 Aug/Task All 18.sol\":1499:1505  a != 1 */\n      sub\n        /* \"LABS 21 Aug/Task All 18.sol\":1492:1506  assert(a != 1) */\n      tag_9\n      jumpi\n      tag_10\n      tag_11\n      jump\t// in\n    tag_10:\n    tag_9:\n        /* \"LABS 21 Aug/Task All 18.sol\":1417:1513  constructor(uint256 a) {... */\n      pop\n        /* \"LABS 21 Aug/Task All 18.sol\":1389:2121  contract PrimeChecker {... */\n      jump(tag_12)\n        /* \"#utility.yul\":88:205   */\n    tag_14:\n        /* \"#utility.yul\":197:198   */\n      0x00\n        /* \"#utility.yul\":194:195   */\n      dup1\n        /* \"#utility.yul\":187:199   */\n      revert\n        /* \"#utility.yul\":334:411   */\n    tag_16:\n        /* \"#utility.yul\":371:378   */\n      0x00\n        /* \"#utility.yul\":400:405   */\n      dup2\n        /* \"#utility.yul\":389:405   */\n      swap1\n      pop\n        /* \"#utility.yul\":334:411   */\n      swap2\n      swap1\n      pop\n      jump\t// out\n        /* \"#utility.yul\":417:539   */\n    tag_17:\n        /* \"#utility.yul\":490:514   */\n      tag_28\n        /* \"#utility.yul\":508:513   */\n      dup2\n        /* \"#utility.yul\":490:514   */\n      tag_16\n      jump\t// in\n    tag_28:\n        /* \"#utility.yul\":483:488   */\n      dup2\n        /* \"#utility.yul\":480:515   */\n      eq\n        /* \"#utility.yul\":470:533   */\n      tag_29\n      jumpi\n        /* \"#utility.yul\":529:530   */\n      0x00\n        /* \"#utility.yul\":526:527   */\n      dup1\n        /* \"#utility.yul\":519:531   */\n      revert\n        /* \"#utility.yul\":470:533   */\n    tag_29:\n        /* \"#utility.yul\":417:539   */\n      pop\n      jump\t// out\n        /* \"#utility.yul\":545:688   */\n    tag_18:\n        /* \"#utility.yul\":602:607   */\n      0x00\n        /* \"#utility.yul\":633:639   */\n      dup2\n        /* \"#utility.yul\":627:640   */\n      mload\n        /* \"#utility.yul\":618:640   */\n      swap1\n      pop\n        /* \"#utility.yul\":649:682   */\n      tag_31\n        /* \"#utility.yul\":676:681   */\n      dup2\n        /* \"#utility.yul\":649:682   */\n      tag_17\n      jump\t// in\n    tag_31:\n        /* \"#utility.yul\":545:688   */\n      swap3\n      swap2\n      pop\n      pop\n      jump\t// out\n        /* \"#utility.yul\":694:1045   */\n    tag_3:\n        /* \"#utility.yul\":764:770   */\n      0x00\n        /* \"#utility.yul\":813:815   */\n      0x20\n        /* \"#utility.yul\":801:810   */\n      dup3\n        /* \"#utility.yul\":792:799   */\n      dup5\n        /* \"#utility.yul\":788:811   */\n      sub\n        /* \"#utility.yul\":784:816   */\n      slt\n        /* \"#utility.yul\":781:900   */\n      iszero\n      tag_33\n      jumpi\n        /* \"#utility.yul\":819:898   */\n      tag_34\n      tag_14\n      jump\t// in\n    tag_34:\n        /* \"#utility.yul\":781:900   */\n    tag_33:\n        /* \"#utility.yul\":939:940   */\n      0x00\n        /* \"#utility.yul\":964:1028   */\n      tag_35\n        /* \"#utility.yul\":1020:1027   */\n      dup5\n        /* \"#utility.yul\":1011:1017   */\n      dup3\n        /* \"#utility.yul\":1000:1009   */\n      dup6\n        /* \"#utility.yul\":996:1018   */\n      add\n        /* \"#utility.yul\":964:1028   */\n      tag_18\n      jump\t// in\n    tag_35:\n        /* \"#utility.yul\":954:1028   */\n      swap2\n      pop\n        /* \"#utility.yul\":910:1038   */\n      pop\n        /* \"#utility.yul\":694:1045   */\n      swap3\n      swap2\n      pop\n      pop\n      jump\t// out\n        /* \"#utility.yul\":1051:1220   */\n    tag_19:\n        /* \"#utility.yul\":1135:1146   */\n      0x00\n        /* \"#utility.yul\":1169:1175   */\n      dup3\n        /* \"#utility.yul\":1164:1167   */\n      dup3\n        /* \"#utility.yul\":1157:1176   */\n      mstore\n        /* \"#utility.yul\":1209:1213   */\n      0x20\n        /* \"#utility.yul\":1204:1207   */\n      dup3\n        /* \"#utility.yul\":1200:1214   */\n      add\n        /* \"#utility.yul\":1185:1214   */\n      swap1\n      pop\n        /* \"#utility.yul\":1051:1220   */\n      swap3\n      swap2\n      pop\n      pop\n      jump\t// out\n        /* \"#utility.yul\":1226:1389   */\n    tag_20:\n        /* \"#utility.yul\":1366:1381   */\n      0x496e76616c696420456e74727900000000000000000000000000000000000000\n        /* \"#utility.yul\":1362:1363   */\n      0x00\n        /* \"#utility.yul\":1354:1360   */\n      dup3\n        /* \"#utility.yul\":1350:1364   */\n      add\n        /* \"#utility.yul\":1343:1382   */\n      mstore\n        /* \"#utility.yul\":1226:1389   */\n      pop\n      jump\t// out\n        /* \"#utility.yul\":1395:1761   */\n    tag_21:\n        /* \"#utility.yul\":1537:1540   */\n      0x00\n        /* \"#utility.yul\":1558:1625   */\n      tag_39\n        /* \"#utility.yul\":1622:1624   */\n      0x0d\n        /* \"#utility.yul\":1617:1620   */\n      dup4\n        /* \"#utility.yul\":1558:1625   */\n      tag_19\n      jump\t// in\n    tag_39:\n        /* \"#utility.yul\":1551:1625   */\n      swap2\n      pop\n        /* \"#utility.yul\":1634:1727   */\n      tag_40\n        /* \"#utility.yul\":1723:1726   */\n      dup3\n        /* \"#utility.yul\":1634:1727   */\n      tag_20\n      jump\t// in\n    tag_40:\n        /* \"#utility.yul\":1752:1754   */\n      0x20\n        /* \"#utility.yul\":1747:1750   */\n      dup3\n        /* \"#utility.yul\":1743:1755   */\n      add\n        /* \"#utility.yul\":1736:1755   */\n      swap1\n      pop\n        /* \"#utility.yul\":1395:1761   */\n      swap2\n      swap1\n      pop\n      jump\t// out\n        /* \"#utility.yul\":1767:2186   */\n    tag_8:\n        /* \"#utility.yul\":1933:1937   */\n      0x00\n        /* \"#utility.yul\":1971:1973   */\n      0x20\n        /* \"#utility.yul\":1960:1969   */\n      dup3\n        /* \"#utility.yul\":1956:1974   */\n      add\n        /* \"#utility.yul\":1948:1974   */\n      swap1\n      pop\n        /* \"#utility.yul\":2020:2029   */\n      dup2\n        /* \"#utility.yul\":2014:2018   */\n      dup2\n        /* \"#utility.yul\":2010:2030   */\n      sub\n        /* \"#utility.yul\":2006:2007   */\n      0x00\n        /* \"#utility.yul\":1995:2004   */\n      dup4\n        /* \"#utility.yul\":1991:2008   */\n      add\n        /* \"#utility.yul\":1984:2031   */\n      mstore\n        /* \"#utility.yul\":2048:2179   */\n      tag_42\n        /* \"#utility.yul\":2174:2178   */\n      dup2\n        /* \"#utility.yul\":2048:2179   */\n      tag_21\n      jump\t// in\n    tag_42:\n        /* \"#utility.yul\":2040:2179   */\n      swap1\n      pop\n        /* \"#utility.yul\":1767:2186   */\n      swap2\n      swap1\n      pop\n      jump\t// out\n        /* \"#utility.yul\":2192:2372   */\n    tag_11:\n        /* \"#utility.yul\":2240:2317   */\n      0x4e487b7100000000000000000000000000000000000000000000000000000000\n        /* \"#utility.yul\":2237:2238   */\n      0x00\n        /* \"#utility.yul\":2230:2318   */\n      mstore\n        /* \"#utility.yul\":2337:2341   */\n      0x01\n        /* \"#utility.yul\":2334:2335   */\n      0x04\n        /* \"#utility.yul\":2327:2342   */\n      mstore\n        /* \"#utility.yul\":2361:2365   */\n      0x24\n        /* \"#utility.yul\":2358:2359   */\n      0x00\n        /* \"#utility.yul\":2351:2366   */\n      revert\n        /* \"LABS 21 Aug/Task All 18.sol\":1389:2121  contract PrimeChecker {... */\n    tag_12:\n      dataSize(sub_0)\n      dup1\n      dataOffset(sub_0)\n      0x00\n      codecopy\n      0x00\n      return\n    stop\n\n    sub_0: assembly {\n            /* \"LABS 21 Aug/Task All 18.sol\":1389:2121  contract PrimeChecker {... */\n          mstore(0x40, 0x80)\n          callvalue\n          dup1\n          iszero\n          tag_1\n          jumpi\n          0x00\n          dup1\n          revert\n        tag_1:\n          pop\n          jumpi(tag_2, lt(calldatasize, 0x04))\n          shr(0xe0, calldataload(0x00))\n          dup1\n          0x05f5b3eb\n          eq\n          tag_3\n          jumpi\n        tag_2:\n          0x00\n          dup1\n          revert\n            /* \"LABS 21 Aug/Task All 18.sol\":1921:2119  function onlyPrime(uint256 b) external pure returns (bool success) {... */\n        tag_3:\n          tag_4\n          0x04\n          dup1\n          calldatasize\n          sub\n          dup2\n          add\n          swap1\n          tag_5\n          swap2\n          swap1\n          tag_6\n          jump\t// in\n        tag_5:\n          tag_7\n          jump\t// in\n        tag_4:\n          mload(0x40)\n          tag_8\n          swap2\n          swap1\n          tag_9\n          jump\t// in\n        tag_8:\n          mload(0x40)\n          dup1\n          swap2\n          sub\n          swap1\n          return\n        tag_7:\n            /* \"LABS 21 Aug/Task All 18.sol\":1974:1986  bool success */\n          0x00\n            /* \"LABS 21 Aug/Task All 18.sol\":2059:2069  isPrime(b) */\n          tag_11\n            /* \"LABS 21 Aug/Task All 18.sol\":2067:2068  b */\n          dup3\n            /* \"LABS 21 Aug/Task All 18.sol\":2059:2066  isPrime */\n          tag_12\n            /* \"LABS 21 Aug/Task All 18.sol\":2059:2069  isPrime(b) */\n          jump\t// in\n        tag_11:\n            /* \"LABS 21 Aug/Task All 18.sol\":2051:2088  require(isPrime(b), \"Ups! Reverting\") */\n          tag_13\n          jumpi\n          mload(0x40)\n          0x08c379a000000000000000000000000000000000000000000000000000000000\n          dup2\n          mstore\n          0x04\n          add\n          tag_14\n          swap1\n          tag_15\n          jump\t// in\n        tag_14:\n          mload(0x40)\n          dup1\n          swap2\n          sub\n          swap1\n          revert\n        tag_13:\n            /* \"LABS 21 Aug/Task All 18.sol\":2108:2112  true */\n          0x01\n            /* \"LABS 21 Aug/Task All 18.sol\":2098:2112  success = true */\n          swap1\n          pop\n            /* \"LABS 21 Aug/Task All 18.sol\":1921:2119  function onlyPrime(uint256 b) external pure returns (bool success) {... */\n          swap2\n          swap1\n          pop\n          jump\t// out\n            /* \"LABS 21 Aug/Task All 18.sol\":1519:1915  function isPrime(uint256 b) internal pure returns (bool) {... */\n        tag_12:\n            /* \"LABS 21 Aug/Task All 18.sol\":1570:1574  bool */\n          0x00\n            /* \"LABS 21 Aug/Task All 18.sol\":1595:1596  1 */\n          0x01\n            /* \"LABS 21 Aug/Task All 18.sol\":1590:1591  b */\n          dup3\n            /* \"LABS 21 Aug/Task All 18.sol\":1590:1596  b <= 1 */\n          gt\n            /* \"LABS 21 Aug/Task All 18.sol\":1586:1635  if (b <= 1) {... */\n          tag_17\n          jumpi\n            /* \"LABS 21 Aug/Task All 18.sol\":1619:1624  false */\n          0x00\n            /* \"LABS 21 Aug/Task All 18.sol\":1612:1624  return false */\n          swap1\n          pop\n          jump(tag_16)\n            /* \"LABS 21 Aug/Task All 18.sol\":1586:1635  if (b <= 1) {... */\n        tag_17:\n            /* \"LABS 21 Aug/Task All 18.sol\":1653:1654  2 */\n          0x02\n            /* \"LABS 21 Aug/Task All 18.sol\":1648:1649  b */\n          dup3\n            /* \"LABS 21 Aug/Task All 18.sol\":1648:1654  b == 2 */\n          sub\n            /* \"LABS 21 Aug/Task All 18.sol\":1644:1692  if (b == 2) {... */\n          tag_18\n          jumpi\n            /* \"LABS 21 Aug/Task All 18.sol\":1677:1681  true */\n          0x01\n            /* \"LABS 21 Aug/Task All 18.sol\":1670:1681  return true */\n          swap1\n          pop\n          jump(tag_16)\n            /* \"LABS 21 Aug/Task All 18.sol\":1644:1692  if (b == 2) {... */\n        tag_18:\n            /* \"LABS 21 Aug/Task All 18.sol\":1714:1715  0 */\n          0x00\n            /* \"LABS 21 Aug/Task All 18.sol\":1709:1710  2 */\n          0x02\n            /* \"LABS 21 Aug/Task All 18.sol\":1705:1706  b */\n          dup4\n            /* \"LABS 21 Aug/Task All 18.sol\":1705:1710  b % 2 */\n          tag_19\n          swap2\n          swap1\n          tag_20\n          jump\t// in\n        tag_19:\n            /* \"LABS 21 Aug/Task All 18.sol\":1705:1715  b % 2 == 0 */\n          sub\n            /* \"LABS 21 Aug/Task All 18.sol\":1701:1754  if (b % 2 == 0) {... */\n          tag_21\n          jumpi\n            /* \"LABS 21 Aug/Task All 18.sol\":1738:1743  false */\n          0x00\n            /* \"LABS 21 Aug/Task All 18.sol\":1731:1743  return false */\n          swap1\n          pop\n          jump(tag_16)\n            /* \"LABS 21 Aug/Task All 18.sol\":1701:1754  if (b % 2 == 0) {... */\n        tag_21:\n            /* \"LABS 21 Aug/Task All 18.sol\":1768:1777  uint256 i */\n          0x00\n            /* \"LABS 21 Aug/Task All 18.sol\":1780:1781  3 */\n          0x03\n            /* \"LABS 21 Aug/Task All 18.sol\":1768:1781  uint256 i = 3 */\n          swap1\n          pop\n            /* \"LABS 21 Aug/Task All 18.sol\":1763:1888  for (uint256 i = 3; i * i <= b; i += 2) {... */\n        tag_22:\n            /* \"LABS 21 Aug/Task All 18.sol\":1792:1793  b */\n          dup3\n            /* \"LABS 21 Aug/Task All 18.sol\":1787:1788  i */\n          dup2\n            /* \"LABS 21 Aug/Task All 18.sol\":1783:1784  i */\n          dup3\n            /* \"LABS 21 Aug/Task All 18.sol\":1783:1788  i * i */\n          tag_25\n          swap2\n          swap1\n          tag_26\n          jump\t// in\n        tag_25:\n            /* \"LABS 21 Aug/Task All 18.sol\":1783:1793  i * i <= b */\n          gt\n            /* \"LABS 21 Aug/Task All 18.sol\":1763:1888  for (uint256 i = 3; i * i <= b; i += 2) {... */\n          tag_23\n          jumpi\n            /* \"LABS 21 Aug/Task All 18.sol\":1830:1831  0 */\n          0x00\n            /* \"LABS 21 Aug/Task All 18.sol\":1825:1826  i */\n          dup2\n            /* \"LABS 21 Aug/Task All 18.sol\":1821:1822  b */\n          dup5\n            /* \"LABS 21 Aug/Task All 18.sol\":1821:1826  b % i */\n          tag_27\n          swap2\n          swap1\n          tag_20\n          jump\t// in\n        tag_27:\n            /* \"LABS 21 Aug/Task All 18.sol\":1821:1831  b % i == 0 */\n          sub\n            /* \"LABS 21 Aug/Task All 18.sol\":1817:1878  if (b % i == 0) {... */\n          tag_28\n          jumpi\n            /* \"LABS 21 Aug/Task All 18.sol\":1858:1863  false */\n          0x00\n            /* \"LABS 21 Aug/Task All 18.sol\":1851:1863  return false */\n          swap2\n          pop\n          pop\n          jump(tag_16)\n            /* \"LABS 21 Aug/Task All 18.sol\":1817:1878  if (b % i == 0) {... */\n        tag_28:\n            /* \"LABS 21 Aug/Task All 18.sol\":1800:1801  2 */\n          0x02\n            /* \"LABS 21 Aug/Task All 18.sol\":1795:1801  i += 2 */\n          dup2\n          tag_29\n          swap2\n          swap1\n          tag_30\n          jump\t// in\n        tag_29:\n          swap1\n          pop\n            /* \"LABS 21 Aug/Task All 18.sol\":1763:1888  for (uint256 i = 3; i * i <= b; i += 2) {... */\n          jump(tag_22)\n        tag_23:\n          pop\n            /* \"LABS 21 Aug/Task All 18.sol\":1904:1908  true */\n          0x01\n            /* \"LABS 21 Aug/Task All 18.sol\":1897:1908  return true */\n          swap1\n          pop\n            /* \"LABS 21 Aug/Task All 18.sol\":1519:1915  function isPrime(uint256 b) internal pure returns (bool) {... */\n        tag_16:\n          swap2\n          swap1\n          pop\n          jump\t// out\n            /* \"#utility.yul\":88:205   */\n        tag_32:\n            /* \"#utility.yul\":197:198   */\n          0x00\n            /* \"#utility.yul\":194:195   */\n          dup1\n            /* \"#utility.yul\":187:199   */\n          revert\n            /* \"#utility.yul\":334:411   */\n        tag_34:\n            /* \"#utility.yul\":371:378   */\n          0x00\n            /* \"#utility.yul\":400:405   */\n          dup2\n            /* \"#utility.yul\":389:405   */\n          swap1\n          pop\n            /* \"#utility.yul\":334:411   */\n          swap2\n          swap1\n          pop\n          jump\t// out\n            /* \"#utility.yul\":417:539   */\n        tag_35:\n            /* \"#utility.yul\":490:514   */\n          tag_50\n            /* \"#utility.yul\":508:513   */\n          dup2\n            /* \"#utility.yul\":490:514   */\n          tag_34\n          jump\t// in\n        tag_50:\n            /* \"#utility.yul\":483:488   */\n          dup2\n            /* \"#utility.yul\":480:515   */\n          eq\n            /* \"#utility.yul\":470:533   */\n          tag_51\n          jumpi\n            /* \"#utility.yul\":529:530   */\n          0x00\n            /* \"#utility.yul\":526:527   */\n          dup1\n            /* \"#utility.yul\":519:531   */\n          revert\n            /* \"#utility.yul\":470:533   */\n        tag_51:\n            /* \"#utility.yul\":417:539   */\n          pop\n          jump\t// out\n            /* \"#utility.yul\":545:684   */\n        tag_36:\n            /* \"#utility.yul\":591:596   */\n          0x00\n            /* \"#utility.yul\":629:635   */\n          dup2\n            /* \"#utility.yul\":616:636   */\n          calldataload\n            /* \"#utility.yul\":607:636   */\n          swap1\n          pop\n            /* \"#utility.yul\":645:678   */\n          tag_53\n            /* \"#utility.yul\":672:677   */\n          dup2\n            /* \"#utility.yul\":645:678   */\n          tag_35\n          jump\t// in\n        tag_53:\n            /* \"#utility.yul\":545:684   */\n          swap3\n          swap2\n          pop\n          pop\n          jump\t// out\n            /* \"#utility.yul\":690:1019   */\n        tag_6:\n            /* \"#utility.yul\":749:755   */\n          0x00\n            /* \"#utility.yul\":798:800   */\n          0x20\n            /* \"#utility.yul\":786:795   */\n          dup3\n            /* \"#utility.yul\":777:784   */\n          dup5\n            /* \"#utility.yul\":773:796   */\n          sub\n            /* \"#utility.yul\":769:801   */\n          slt\n            /* \"#utility.yul\":766:885   */\n          iszero\n          tag_55\n          jumpi\n            /* \"#utility.yul\":804:883   */\n          tag_56\n          tag_32\n          jump\t// in\n        tag_56:\n            /* \"#utility.yul\":766:885   */\n        tag_55:\n            /* \"#utility.yul\":924:925   */\n          0x00\n            /* \"#utility.yul\":949:1002   */\n          tag_57\n            /* \"#utility.yul\":994:1001   */\n          dup5\n            /* \"#utility.yul\":985:991   */\n          dup3\n            /* \"#utility.yul\":974:983   */\n          dup6\n            /* \"#utility.yul\":970:992   */\n          add\n            /* \"#utility.yul\":949:1002   */\n          tag_36\n          jump\t// in\n        tag_57:\n            /* \"#utility.yul\":939:1002   */\n          swap2\n          pop\n            /* \"#utility.yul\":895:1012   */\n          pop\n            /* \"#utility.yul\":690:1019   */\n          swap3\n          swap2\n          pop\n          pop\n          jump\t// out\n            /* \"#utility.yul\":1025:1115   */\n        tag_37:\n            /* \"#utility.yul\":1059:1066   */\n          0x00\n            /* \"#utility.yul\":1102:1107   */\n          dup2\n            /* \"#utility.yul\":1095:1108   */\n          iszero\n            /* \"#utility.yul\":1088:1109   */\n          iszero\n            /* \"#utility.yul\":1077:1109   */\n          swap1\n          pop\n            /* \"#utility.yul\":1025:1115   */\n          swap2\n          swap1\n          pop\n          jump\t// out\n            /* \"#utility.yul\":1121:1230   */\n        tag_38:\n            /* \"#utility.yul\":1202:1223   */\n          tag_60\n            /* \"#utility.yul\":1217:1222   */\n          dup2\n            /* \"#utility.yul\":1202:1223   */\n          tag_37\n          jump\t// in\n        tag_60:\n            /* \"#utility.yul\":1197:1200   */\n          dup3\n            /* \"#utility.yul\":1190:1224   */\n          mstore\n            /* \"#utility.yul\":1121:1230   */\n          pop\n          pop\n          jump\t// out\n            /* \"#utility.yul\":1236:1446   */\n        tag_9:\n            /* \"#utility.yul\":1323:1327   */\n          0x00\n            /* \"#utility.yul\":1361:1363   */\n          0x20\n            /* \"#utility.yul\":1350:1359   */\n          dup3\n            /* \"#utility.yul\":1346:1364   */\n          add\n            /* \"#utility.yul\":1338:1364   */\n          swap1\n          pop\n            /* \"#utility.yul\":1374:1439   */\n          tag_62\n            /* \"#utility.yul\":1436:1437   */\n          0x00\n            /* \"#utility.yul\":1425:1434   */\n          dup4\n            /* \"#utility.yul\":1421:1438   */\n          add\n            /* \"#utility.yul\":1412:1418   */\n          dup5\n            /* \"#utility.yul\":1374:1439   */\n          tag_38\n          jump\t// in\n        tag_62:\n            /* \"#utility.yul\":1236:1446   */\n          swap3\n          swap2\n          pop\n          pop\n          jump\t// out\n            /* \"#utility.yul\":1452:1621   */\n        tag_39:\n            /* \"#utility.yul\":1536:1547   */\n          0x00\n            /* \"#utility.yul\":1570:1576   */\n          dup3\n            /* \"#utility.yul\":1565:1568   */\n          dup3\n            /* \"#utility.yul\":1558:1577   */\n          mstore\n            /* \"#utility.yul\":1610:1614   */\n          0x20\n            /* \"#utility.yul\":1605:1608   */\n          dup3\n            /* \"#utility.yul\":1601:1615   */\n          add\n            /* \"#utility.yul\":1586:1615   */\n          swap1\n          pop\n            /* \"#utility.yul\":1452:1621   */\n          swap3\n          swap2\n          pop\n          pop\n          jump\t// out\n            /* \"#utility.yul\":1627:1791   */\n        tag_40:\n            /* \"#utility.yul\":1767:1783   */\n          0x5570732120526576657274696e67000000000000000000000000000000000000\n            /* \"#utility.yul\":1763:1764   */\n          0x00\n            /* \"#utility.yul\":1755:1761   */\n          dup3\n            /* \"#utility.yul\":1751:1765   */\n          add\n            /* \"#utility.yul\":1744:1784   */\n          mstore\n            /* \"#utility.yul\":1627:1791   */\n          pop\n          jump\t// out\n            /* \"#utility.yul\":1797:2163   */\n        tag_41:\n            /* \"#utility.yul\":1939:1942   */\n          0x00\n            /* \"#utility.yul\":1960:2027   */\n          tag_66\n            /* \"#utility.yul\":2024:2026   */\n          0x0e\n            /* \"#utility.yul\":2019:2022   */\n          dup4\n            /* \"#utility.yul\":1960:2027   */\n          tag_39\n          jump\t// in\n        tag_66:\n            /* \"#utility.yul\":1953:2027   */\n          swap2\n          pop\n            /* \"#utility.yul\":2036:2129   */\n          tag_67\n            /* \"#utility.yul\":2125:2128   */\n          dup3\n            /* \"#utility.yul\":2036:2129   */\n          tag_40\n          jump\t// in\n        tag_67:\n            /* \"#utility.yul\":2154:2156   */\n          0x20\n            /* \"#utility.yul\":2149:2152   */\n          dup3\n            /* \"#utility.yul\":2145:2157   */\n          add\n            /* \"#utility.yul\":2138:2157   */\n          swap1\n          pop\n            /* \"#utility.yul\":1797:2163   */\n          swap2\n          swap1\n          pop\n          jump\t// out\n            /* \"#utility.yul\":2169:2588   */\n        tag_15:\n            /* \"#utility.yul\":2335:2339   */\n          0x00\n            /* \"#utility.yul\":2373:2375   */\n          0x20\n            /* \"#utility.yul\":2362:2371   */\n          dup3\n            /* \"#utility.yul\":2358:2376   */\n          add\n            /* \"#utility.yul\":2350:2376   */\n          swap1\n          pop\n            /* \"#utility.yul\":2422:2431   */\n          dup2\n            /* \"#utility.yul\":2416:2420   */\n          dup2\n            /* \"#utility.yul\":2412:2432   */\n          sub\n            /* \"#utility.yul\":2408:2409   */\n          0x00\n            /* \"#utility.yul\":2397:2406   */\n          dup4\n            /* \"#utility.yul\":2393:2410   */\n          add\n            /* \"#utility.yul\":2386:2433   */\n          mstore\n            /* \"#utility.yul\":2450:2581   */\n          tag_69\n            /* \"#utility.yul\":2576:2580   */\n          dup2\n            /* \"#utility.yul\":2450:2581   */\n          tag_41\n          jump\t// in\n        tag_69:\n            /* \"#utility.yul\":2442:2581   */\n          swap1\n          pop\n            /* \"#utility.yul\":2169:2588   */\n          swap2\n          swap1\n          pop\n          jump\t// out\n            /* \"#utility.yul\":2594:2774   */\n        tag_42:\n            /* \"#utility.yul\":2642:2719   */\n          0x4e487b7100000000000000000000000000000000000000000000000000000000\n            /* \"#utility.yul\":2639:2640   */\n          0x00\n            /* \"#utility.yul\":2632:2720   */\n          mstore\n            /* \"#utility.yul\":2739:2743   */\n          0x12\n            /* \"#utility.yul\":2736:2737   */\n          0x04\n            /* \"#utility.yul\":2729:2744   */\n          mstore\n            /* \"#utility.yul\":2763:2767   */\n          0x24\n            /* \"#utility.yul\":2760:2761   */\n          0x00\n            /* \"#utility.yul\":2753:2768   */\n          revert\n            /* \"#utility.yul\":2780:2956   */\n        tag_20:\n            /* \"#utility.yul\":2812:2813   */\n          0x00\n            /* \"#utility.yul\":2829:2849   */\n          tag_72\n            /* \"#utility.yul\":2847:2848   */\n          dup3\n            /* \"#utility.yul\":2829:2849   */\n          tag_34\n          jump\t// in\n        tag_72:\n            /* \"#utility.yul\":2824:2849   */\n          swap2\n          pop\n            /* \"#utility.yul\":2863:2883   */\n          tag_73\n            /* \"#utility.yul\":2881:2882   */\n          dup4\n            /* \"#utility.yul\":2863:2883   */\n          tag_34\n          jump\t// in\n        tag_73:\n            /* \"#utility.yul\":2858:2883   */\n          swap3\n          pop\n            /* \"#utility.yul\":2902:2903   */\n          dup3\n            /* \"#utility.yul\":2892:2927   */\n          tag_74\n          jumpi\n            /* \"#utility.yul\":2907:2925   */\n          tag_75\n          tag_42\n          jump\t// in\n        tag_75:\n            /* \"#utility.yul\":2892:2927   */\n        tag_74:\n            /* \"#utility.yul\":2948:2949   */\n          dup3\n            /* \"#utility.yul\":2945:2946   */\n          dup3\n            /* \"#utility.yul\":2941:2950   */\n          mod\n            /* \"#utility.yul\":2936:2950   */\n          swap1\n          pop\n            /* \"#utility.yul\":2780:2956   */\n          swap3\n          swap2\n          pop\n          pop\n          jump\t// out\n            /* \"#utility.yul\":2962:3142   */\n        tag_43:\n            /* \"#utility.yul\":3010:3087   */\n          0x4e487b7100000000000000000000000000000000000000000000000000000000\n            /* \"#utility.yul\":3007:3008   */\n          0x00\n            /* \"#utility.yul\":3000:3088   */\n          mstore\n            /* \"#utility.yul\":3107:3111   */\n          0x11\n            /* \"#utility.yul\":3104:3105   */\n          0x04\n            /* \"#utility.yul\":3097:3112   */\n          mstore\n            /* \"#utility.yul\":3131:3135   */\n          0x24\n            /* \"#utility.yul\":3128:3129   */\n          0x00\n            /* \"#utility.yul\":3121:3136   */\n          revert\n            /* \"#utility.yul\":3148:3558   */\n        tag_26:\n            /* \"#utility.yul\":3188:3195   */\n          0x00\n            /* \"#utility.yul\":3211:3231   */\n          tag_78\n            /* \"#utility.yul\":3229:3230   */\n          dup3\n            /* \"#utility.yul\":3211:3231   */\n          tag_34\n          jump\t// in\n        tag_78:\n            /* \"#utility.yul\":3206:3231   */\n          swap2\n          pop\n            /* \"#utility.yul\":3245:3265   */\n          tag_79\n            /* \"#utility.yul\":3263:3264   */\n          dup4\n            /* \"#utility.yul\":3245:3265   */\n          tag_34\n          jump\t// in\n        tag_79:\n            /* \"#utility.yul\":3240:3265   */\n          swap3\n          pop\n            /* \"#utility.yul\":3300:3301   */\n          dup3\n            /* \"#utility.yul\":3297:3298   */\n          dup3\n            /* \"#utility.yul\":3293:3302   */\n          mul\n            /* \"#utility.yul\":3322:3352   */\n          tag_80\n            /* \"#utility.yul\":3340:3351   */\n          dup2\n            /* \"#utility.yul\":3322:3352   */\n          tag_34\n          jump\t// in\n        tag_80:\n            /* \"#utility.yul\":3311:3352   */\n          swap2\n          pop\n            /* \"#utility.yul\":3501:3502   */\n          dup3\n            /* \"#utility.yul\":3492:3499   */\n          dup3\n            /* \"#utility.yul\":3488:3503   */\n          div\n            /* \"#utility.yul\":3485:3486   */\n          dup5\n            /* \"#utility.yul\":3482:3504   */\n          eq\n            /* \"#utility.yul\":3462:3463   */\n          dup4\n            /* \"#utility.yul\":3455:3464   */\n          iszero\n            /* \"#utility.yul\":3435:3518   */\n          or\n            /* \"#utility.yul\":3412:3551   */\n          tag_81\n          jumpi\n            /* \"#utility.yul\":3531:3549   */\n          tag_82\n          tag_43\n          jump\t// in\n        tag_82:\n            /* \"#utility.yul\":3412:3551   */\n        tag_81:\n            /* \"#utility.yul\":3196:3558   */\n          pop\n            /* \"#utility.yul\":3148:3558   */\n          swap3\n          swap2\n          pop\n          pop\n          jump\t// out\n            /* \"#utility.yul\":3564:3755   */\n        tag_30:\n            /* \"#utility.yul\":3604:3607   */\n          0x00\n            /* \"#utility.yul\":3623:3643   */\n          tag_84\n            /* \"#utility.yul\":3641:3642   */\n          dup3\n            /* \"#utility.yul\":3623:3643   */\n          tag_34\n          jump\t// in\n        tag_84:\n            /* \"#utility.yul\":3618:3643   */\n          swap2\n          pop\n            /* \"#utility.yul\":3657:3677   */\n          tag_85\n            /* \"#utility.yul\":3675:3676   */\n          dup4\n            /* \"#utility.yul\":3657:3677   */\n          tag_34\n          jump\t// in\n        tag_85:\n            /* \"#utility.yul\":3652:3677   */\n          swap3\n          pop\n            /* \"#utility.yul\":3700:3701   */\n          dup3\n            /* \"#utility.yul\":3697:3698   */\n          dup3\n            /* \"#utility.yul\":3693:3702   */\n          add\n            /* \"#utility.yul\":3686:3702   */\n          swap1\n          pop\n            /* \"#utility.yul\":3721:3724   */\n          dup1\n            /* \"#utility.yul\":3718:3719   */\n          dup3\n            /* \"#utility.yul\":3715:3725   */\n          gt\n            /* \"#utility.yul\":3712:3748   */\n          iszero\n          tag_86\n          jumpi\n            /* \"#utility.yul\":3728:3746   */\n          tag_87\n          tag_43\n          jump\t// in\n        tag_87:\n            /* \"#utility.yul\":3712:3748   */\n        tag_86:\n            /* \"#utility.yul\":3564:3755   */\n          swap3\n          swap2\n          pop\n          pop\n          jump\t// out\n\n        auxdata: 0xa2646970667358221220858e3ef5e716dca75d2accab43aae86b5c3699b91f12f25c6b2d573252d3de5964736f6c63430008120033\n    }\n}\n",
				"bytecode": {
					"linkReferences": {},
					"object": "608060405234801561001057600080fd5b50600260405161001f9061008a565b61002991906100e6565b604051809103906000f080158015610045573d6000803e3d6000fd5b506000806101000a81548173ffffffffffffffffffffffffffffffffffffffff021916908373ffffffffffffffffffffffffffffffffffffffff160217905550610101565b61054e80610dae83390190565b6000819050919050565b6000819050919050565b6000819050919050565b60006100d06100cb6100c684610097565b6100ab565b6100a1565b9050919050565b6100e0816100b5565b82525050565b60006020820190506100fb60008301846100d7565b92915050565b610c9e806101106000396000f3fe608060405234801561001057600080fd5b50600436106100365760003560e01c806360ebc1721461003b578063fe0d94c11461006b575b600080fd5b610055600480360381019061005091906103ec565b61009b565b6040516100629190610434565b60405180910390f35b610085600480360381019061008091906103ec565b610250565b6040516100929190610434565b60405180910390f35b6000816040516100aa9061039a565b6100b4919061045e565b604051809103906000f080156100c75760015b6101a1576100d3610486565b806308c379a00361012f57506100e7610519565b806100f25750610131565b7fb761112ad379c509744de8d585702b0d2694d4ceaef85ad50d452ff06821a6a6816040516101219190610628565b60405180910390a15061019c565b505b3d806000811461015d576040519150601f19603f3d011682016040523d82523d6000602084013e610162565b606091505b507fb6f66868478aebcea8c7a15c8c7dd37a513a4127424642ee3573117b52fa3e3981604051610192919061069f565b60405180910390a1505b61024b565b7ffd76336752e93f2cc77cf13a41be8b6c156731030376354d634d28a9a87b916260405160405180910390a18073ffffffffffffffffffffffffffffffffffffffff166305f5b3eb846040518263ffffffff1660e01b8152600401610206919061045e565b602060405180830381865afa158015610223573d6000803e3d6000fd5b505050506040513d601f19601f8201168201806040525081019061024791906106ed565b9150505b919050565b60008060009054906101000a900473ffffffffffffffffffffffffffffffffffffffff1673ffffffffffffffffffffffffffffffffffffffff166305f5b3eb836040518263ffffffff1660e01b81526004016102ac919061045e565b602060405180830381865afa9250505080156102e657506040513d601f19601f820116820180604052508101906102e391906106ed565b60015b61035f576102f2610486565b806308c379a00361034e5750610306610519565b806103115750610350565b7fb761112ad379c509744de8d585702b0d2694d4ceaef85ad50d452ff06821a6a6816040516103409190610628565b60405180910390a15061035a565b505b3d6000803e3d6000fd5b610394565b7ffd76336752e93f2cc77cf13a41be8b6c156731030376354d634d28a9a87b916260405160405180910390a180915050610395565b5b919050565b61054e8061071b83390190565b6000604051905090565b600080fd5b6000819050919050565b6103c9816103b6565b81146103d457600080fd5b50565b6000813590506103e6816103c0565b92915050565b600060208284031215610402576104016103b1565b5b6000610410848285016103d7565b91505092915050565b60008115159050919050565b61042e81610419565b82525050565b60006020820190506104496000830184610425565b92915050565b610458816103b6565b82525050565b6000602082019050610473600083018461044f565b92915050565b60008160e01c9050919050565b600060033d11156104a55760046000803e6104a2600051610479565b90505b90565b6000601f19601f8301169050919050565b7f4e487b7100000000000000000000000000000000000000000000000000000000600052604160045260246000fd5b6104f1826104a8565b810181811067ffffffffffffffff821117156105105761050f6104b9565b5b80604052505050565b600060443d106105a65761052b6103a7565b60043d036004823e80513d602482011167ffffffffffffffff821117156105535750506105a6565b808201805167ffffffffffffffff81111561057157505050506105a6565b80602083010160043d03850181111561058e5750505050506105a6565b61059d826020018501866104e8565b82955050505050505b90565b600081519050919050565b600082825260208201905092915050565b60005b838110156105e35780820151818401526020810190506105c8565b60008484015250505050565b60006105fa826105a9565b61060481856105b4565b93506106148185602086016105c5565b61061d816104a8565b840191505092915050565b6000602082019050818103600083015261064281846105ef565b905092915050565b600081519050919050565b600082825260208201905092915050565b60006106718261064a565b61067b8185610655565b935061068b8185602086016105c5565b610694816104a8565b840191505092915050565b600060208201905081810360008301526106b98184610666565b905092915050565b6106ca81610419565b81146106d557600080fd5b50565b6000815190506106e7816106c1565b92915050565b600060208284031215610703576107026103b1565b5b6000610711848285016106d8565b9150509291505056fe608060405234801561001057600080fd5b5060405161054e38038061054e833981810160405281019061003291906100c7565b60008103610075576040517f08c379a000000000000000000000000000000000000000000000000000000000815260040161006c90610151565b60405180910390fd5b6001810361008657610085610171565b5b506101a0565b600080fd5b6000819050919050565b6100a481610091565b81146100af57600080fd5b50565b6000815190506100c18161009b565b92915050565b6000602082840312156100dd576100dc61008c565b5b60006100eb848285016100b2565b91505092915050565b600082825260208201905092915050565b7f496e76616c696420456e74727900000000000000000000000000000000000000600082015250565b600061013b600d836100f4565b915061014682610105565b602082019050919050565b6000602082019050818103600083015261016a8161012e565b9050919050565b7f4e487b7100000000000000000000000000000000000000000000000000000000600052600160045260246000fd5b61039f806101af6000396000f3fe608060405234801561001057600080fd5b506004361061002b5760003560e01c806305f5b3eb14610030575b600080fd5b61004a60048036038101906100459190610184565b610060565b60405161005791906101cc565b60405180910390f35b600061006b826100b3565b6100aa576040517f08c379a00000000000000000000000000000000000000000000000000000000081526004016100a190610244565b60405180910390fd5b60019050919050565b6000600182116100c65760009050610144565b600282036100d75760019050610144565b60006002836100e69190610293565b036100f45760009050610144565b6000600390505b82818261010891906102f3565b1161013e576000818461011b9190610293565b0361012a576000915050610144565b6002816101379190610335565b90506100fb565b50600190505b919050565b600080fd5b6000819050919050565b6101618161014e565b811461016c57600080fd5b50565b60008135905061017e81610158565b92915050565b60006020828403121561019a57610199610149565b5b60006101a88482850161016f565b91505092915050565b60008115159050919050565b6101c6816101b1565b82525050565b60006020820190506101e160008301846101bd565b92915050565b600082825260208201905092915050565b7f5570732120526576657274696e67000000000000000000000000000000000000600082015250565b600061022e600e836101e7565b9150610239826101f8565b602082019050919050565b6000602082019050818103600083015261025d81610221565b9050919050565b7f4e487b7100000000000000000000000000000000000000000000000000000000600052601260045260246000fd5b600061029e8261014e565b91506102a98361014e565b9250826102b9576102b8610264565b5b828206905092915050565b7f4e487b7100000000000000000000000000000000000000000000000000000000600052601160045260246000fd5b60006102fe8261014e565b91506103098361014e565b92508282026103178161014e565b9150828204841483151761032e5761032d6102c4565b5b5092915050565b60006103408261014e565b915061034b8361014e565b9250828201905080821115610363576103626102c4565b5b9291505056fea2646970667358221220858e3ef5e716dca75d2accab43aae86b5c3699b91f12f25c6b2d573252d3de5964736f6c63430008120033a2646970667358221220911e6e6707332ba76937a8a41abbe204b870ecca48dd92e15f7b62567ed4dbf164736f6c63430008120033608060405234801561001057600080fd5b5060405161054e38038061054e833981810160405281019061003291906100c7565b60008103610075576040517f08c379a000000000000000000000000000000000000000000000000000000000815260040161006c90610151565b60405180910390fd5b6001810361008657610085610171565b5b506101a0565b600080fd5b6000819050919050565b6100a481610091565b81146100af57600080fd5b50565b6000815190506100c18161009b565b92915050565b6000602082840312156100dd576100dc61008c565b5b60006100eb848285016100b2565b91505092915050565b600082825260208201905092915050565b7f496e76616c696420456e74727900000000000000000000000000000000000000600082015250565b600061013b600d836100f4565b915061014682610105565b602082019050919050565b6000602082019050818103600083015261016a8161012e565b9050919050565b7f4e487b7100000000000000000000000000000000000000000000000000000000600052600160045260246000fd5b61039f806101af6000396000f3fe608060405234801561001057600080fd5b506004361061002b5760003560e01c806305f5b3eb14610030575b600080fd5b61004a60048036038101906100459190610184565b610060565b60405161005791906101cc565b60405180910390f35b600061006b826100b3565b6100aa576040517f08c379a00000000000000000000000000000000000000000000000000000000081526004016100a190610244565b60405180910390fd5b60019050919050565b6000600182116100c65760009050610144565b600282036100d75760019050610144565b60006002836100e69190610293565b036100f45760009050610144565b6000600390505b82818261010891906102f3565b1161013e576000818461011b9190610293565b0361012a576000915050610144565b6002816101379190610335565b90506100fb565b50600190505b919050565b600080fd5b6000819050919050565b6101618161014e565b811461016c57600080fd5b50565b60008135905061017e81610158565b92915050565b60006020828403121561019a57610199610149565b5b60006101a88482850161016f565b91505092915050565b60008115159050919050565b6101c6816101b1565b82525050565b60006020820190506101e160008301846101bd565b92915050565b600082825260208201905092915050565b7f5570732120526576657274696e67000000000000000000000000000000000000600082015250565b600061022e600e836101e7565b9150610239826101f8565b602082019050919050565b6000602082019050818103600083015261025d81610221565b9050919050565b7f4e487b7100000000000000000000000000000000000000000000000000000000600052601260045260246000fd5b600061029e8261014e565b91506102a98361014e565b9250826102b9576102b8610264565b5b828206905092915050565b7f4e487b7100000000000000000000000000000000000000000000000000000000600052601160045260246000fd5b60006102fe8261014e565b91506103098361014e565b92508282026103178161014e565b9150828204841483151761032e5761032d6102c4565b5b5092915050565b60006103408261014e565b915061034b8361014e565b9250828201905080821115610363576103626102c4565b5b9291505056fea2646970667358221220858e3ef5e716dca75d2accab43aae86b5c3699b91f12f25c6b2d573252d3de5964736f6c63430008120033",
					"opcodes": "PUSH1 0x80 PUSH1 0x40 MSTORE CALLVALUE DUP1 ISZERO PUSH2 0x10 JUMPI PUSH1 0x0 DUP1 REVERT JUMPDEST POP PUSH1 0x2 PUSH1 0x40 MLOAD PUSH2 0x1F SWAP1 PUSH2 0x8A JUMP JUMPDEST PUSH2 0x29 SWAP2 SWAP1 PUSH2 0xE6 JUMP JUMPDEST PUSH1 0x40 MLOAD DUP1 SWAP2 SUB SWAP1 PUSH1 0x0 CREATE DUP1 ISZERO DUP1 ISZERO PUSH2 0x45 JUMPI RETURNDATASIZE PUSH1 0x0 DUP1 RETURNDATACOPY RETURNDATASIZE PUSH1 0x0 REVERT JUMPDEST POP PUSH1 0x0 DUP1 PUSH2 0x100 EXP DUP2 SLOAD DUP2 PUSH20 0xFFFFFFFFFFFFFFFFFFFFFFFFFFFFFFFFFFFFFFFF MUL NOT AND SWAP1 DUP4 PUSH20 0xFFFFFFFFFFFFFFFFFFFFFFFFFFFFFFFFFFFFFFFF AND MUL OR SWAP1 SSTORE POP PUSH2 0x101 JUMP JUMPDEST PUSH2 0x54E DUP1 PUSH2 0xDAE DUP4 CODECOPY ADD SWAP1 JUMP JUMPDEST PUSH1 0x0 DUP2 SWAP1 POP SWAP2 SWAP1 POP JUMP JUMPDEST PUSH1 0x0 DUP2 SWAP1 POP SWAP2 SWAP1 POP JUMP JUMPDEST PUSH1 0x0 DUP2 SWAP1 POP SWAP2 SWAP1 POP JUMP JUMPDEST PUSH1 0x0 PUSH2 0xD0 PUSH2 0xCB PUSH2 0xC6 DUP5 PUSH2 0x97 JUMP JUMPDEST PUSH2 0xAB JUMP JUMPDEST PUSH2 0xA1 JUMP JUMPDEST SWAP1 POP SWAP2 SWAP1 POP JUMP JUMPDEST PUSH2 0xE0 DUP2 PUSH2 0xB5 JUMP JUMPDEST DUP3 MSTORE POP POP JUMP JUMPDEST PUSH1 0x0 PUSH1 0x20 DUP3 ADD SWAP1 POP PUSH2 0xFB PUSH1 0x0 DUP4 ADD DUP5 PUSH2 0xD7 JUMP JUMPDEST SWAP3 SWAP2 POP POP JUMP JUMPDEST PUSH2 0xC9E DUP1 PUSH2 0x110 PUSH1 0x0 CODECOPY PUSH1 0x0 RETURN INVALID PUSH1 0x80 PUSH1 0x40 MSTORE CALLVALUE DUP1 ISZERO PUSH2 0x10 JUMPI PUSH1 0x0 DUP1 REVERT JUMPDEST POP PUSH1 0x4 CALLDATASIZE LT PUSH2 0x36 JUMPI PUSH1 0x0 CALLDATALOAD PUSH1 0xE0 SHR DUP1 PUSH4 0x60EBC172 EQ PUSH2 0x3B JUMPI DUP1 PUSH4 0xFE0D94C1 EQ PUSH2 0x6B JUMPI JUMPDEST PUSH1 0x0 DUP1 REVERT JUMPDEST PUSH2 0x55 PUSH1 0x4 DUP1 CALLDATASIZE SUB DUP2 ADD SWAP1 PUSH2 0x50 SWAP2 SWAP1 PUSH2 0x3EC JUMP JUMPDEST PUSH2 0x9B JUMP JUMPDEST PUSH1 0x40 MLOAD PUSH2 0x62 SWAP2 SWAP1 PUSH2 0x434 JUMP JUMPDEST PUSH1 0x40 MLOAD DUP1 SWAP2 SUB SWAP1 RETURN JUMPDEST PUSH2 0x85 PUSH1 0x4 DUP1 CALLDATASIZE SUB DUP2 ADD SWAP1 PUSH2 0x80 SWAP2 SWAP1 PUSH2 0x3EC JUMP JUMPDEST PUSH2 0x250 JUMP JUMPDEST PUSH1 0x40 MLOAD PUSH2 0x92 SWAP2 SWAP1 PUSH2 0x434 JUMP JUMPDEST PUSH1 0x40 MLOAD DUP1 SWAP2 SUB SWAP1 RETURN JUMPDEST PUSH1 0x0 DUP2 PUSH1 0x40 MLOAD PUSH2 0xAA SWAP1 PUSH2 0x39A JUMP JUMPDEST PUSH2 0xB4 SWAP2 SWAP1 PUSH2 0x45E JUMP JUMPDEST PUSH1 0x40 MLOAD DUP1 SWAP2 SUB SWAP1 PUSH1 0x0 CREATE DUP1 ISZERO PUSH2 0xC7 JUMPI PUSH1 0x1 JUMPDEST PUSH2 0x1A1 JUMPI PUSH2 0xD3 PUSH2 0x486 JUMP JUMPDEST DUP1 PUSH4 0x8C379A0 SUB PUSH2 0x12F JUMPI POP PUSH2 0xE7 PUSH2 0x519 JUMP JUMPDEST DUP1 PUSH2 0xF2 JUMPI POP PUSH2 0x131 JUMP JUMPDEST PUSH32 0xB761112AD379C509744DE8D585702B0D2694D4CEAEF85AD50D452FF06821A6A6 DUP2 PUSH1 0x40 MLOAD PUSH2 0x121 SWAP2 SWAP1 PUSH2 0x628 JUMP JUMPDEST PUSH1 0x40 MLOAD DUP1 SWAP2 SUB SWAP1 LOG1 POP PUSH2 0x19C JUMP JUMPDEST POP JUMPDEST RETURNDATASIZE DUP1 PUSH1 0x0 DUP2 EQ PUSH2 0x15D JUMPI PUSH1 0x40 MLOAD SWAP2 POP PUSH1 0x1F NOT PUSH1 0x3F RETURNDATASIZE ADD AND DUP3 ADD PUSH1 0x40 MSTORE RETURNDATASIZE DUP3 MSTORE RETURNDATASIZE PUSH1 0x0 PUSH1 0x20 DUP5 ADD RETURNDATACOPY PUSH2 0x162 JUMP JUMPDEST PUSH1 0x60 SWAP2 POP JUMPDEST POP PUSH32 0xB6F66868478AEBCEA8C7A15C8C7DD37A513A4127424642EE3573117B52FA3E39 DUP2 PUSH1 0x40 MLOAD PUSH2 0x192 SWAP2 SWAP1 PUSH2 0x69F JUMP JUMPDEST PUSH1 0x40 MLOAD DUP1 SWAP2 SUB SWAP1 LOG1 POP JUMPDEST PUSH2 0x24B JUMP JUMPDEST PUSH32 0xFD76336752E93F2CC77CF13A41BE8B6C156731030376354D634D28A9A87B9162 PUSH1 0x40 MLOAD PUSH1 0x40 MLOAD DUP1 SWAP2 SUB SWAP1 LOG1 DUP1 PUSH20 0xFFFFFFFFFFFFFFFFFFFFFFFFFFFFFFFFFFFFFFFF AND PUSH4 0x5F5B3EB DUP5 PUSH1 0x40 MLOAD DUP3 PUSH4 0xFFFFFFFF AND PUSH1 0xE0 SHL DUP2 MSTORE PUSH1 0x4 ADD PUSH2 0x206 SWAP2 SWAP1 PUSH2 0x45E JUMP JUMPDEST PUSH1 0x20 PUSH1 0x40 MLOAD DUP1 DUP4 SUB DUP2 DUP7 GAS STATICCALL ISZERO DUP1 ISZERO PUSH2 0x223 JUMPI RETURNDATASIZE PUSH1 0x0 DUP1 RETURNDATACOPY RETURNDATASIZE PUSH1 0x0 REVERT JUMPDEST POP POP POP POP PUSH1 0x40 MLOAD RETURNDATASIZE PUSH1 0x1F NOT PUSH1 0x1F DUP3 ADD AND DUP3 ADD DUP1 PUSH1 0x40 MSTORE POP DUP2 ADD SWAP1 PUSH2 0x247 SWAP2 SWAP1 PUSH2 0x6ED JUMP JUMPDEST SWAP2 POP POP JUMPDEST SWAP2 SWAP1 POP JUMP JUMPDEST PUSH1 0x0 DUP1 PUSH1 0x0 SWAP1 SLOAD SWAP1 PUSH2 0x100 EXP SWAP1 DIV PUSH20 0xFFFFFFFFFFFFFFFFFFFFFFFFFFFFFFFFFFFFFFFF AND PUSH20 0xFFFFFFFFFFFFFFFFFFFFFFFFFFFFFFFFFFFFFFFF AND PUSH4 0x5F5B3EB DUP4 PUSH1 0x40 MLOAD DUP3 PUSH4 0xFFFFFFFF AND PUSH1 0xE0 SHL DUP2 MSTORE PUSH1 0x4 ADD PUSH2 0x2AC SWAP2 SWAP1 PUSH2 0x45E JUMP JUMPDEST PUSH1 0x20 PUSH1 0x40 MLOAD DUP1 DUP4 SUB DUP2 DUP7 GAS STATICCALL SWAP3 POP POP POP DUP1 ISZERO PUSH2 0x2E6 JUMPI POP PUSH1 0x40 MLOAD RETURNDATASIZE PUSH1 0x1F NOT PUSH1 0x1F DUP3 ADD AND DUP3 ADD DUP1 PUSH1 0x40 MSTORE POP DUP2 ADD SWAP1 PUSH2 0x2E3 SWAP2 SWAP1 PUSH2 0x6ED JUMP JUMPDEST PUSH1 0x1 JUMPDEST PUSH2 0x35F JUMPI PUSH2 0x2F2 PUSH2 0x486 JUMP JUMPDEST DUP1 PUSH4 0x8C379A0 SUB PUSH2 0x34E JUMPI POP PUSH2 0x306 PUSH2 0x519 JUMP JUMPDEST DUP1 PUSH2 0x311 JUMPI POP PUSH2 0x350 JUMP JUMPDEST PUSH32 0xB761112AD379C509744DE8D585702B0D2694D4CEAEF85AD50D452FF06821A6A6 DUP2 PUSH1 0x40 MLOAD PUSH2 0x340 SWAP2 SWAP1 PUSH2 0x628 JUMP JUMPDEST PUSH1 0x40 MLOAD DUP1 SWAP2 SUB SWAP1 LOG1 POP PUSH2 0x35A JUMP JUMPDEST POP JUMPDEST RETURNDATASIZE PUSH1 0x0 DUP1 RETURNDATACOPY RETURNDATASIZE PUSH1 0x0 REVERT JUMPDEST PUSH2 0x394 JUMP JUMPDEST PUSH32 0xFD76336752E93F2CC77CF13A41BE8B6C156731030376354D634D28A9A87B9162 PUSH1 0x40 MLOAD PUSH1 0x40 MLOAD DUP1 SWAP2 SUB SWAP1 LOG1 DUP1 SWAP2 POP POP PUSH2 0x395 JUMP JUMPDEST JUMPDEST SWAP2 SWAP1 POP JUMP JUMPDEST PUSH2 0x54E DUP1 PUSH2 0x71B DUP4 CODECOPY ADD SWAP1 JUMP JUMPDEST PUSH1 0x0 PUSH1 0x40 MLOAD SWAP1 POP SWAP1 JUMP JUMPDEST PUSH1 0x0 DUP1 REVERT JUMPDEST PUSH1 0x0 DUP2 SWAP1 POP SWAP2 SWAP1 POP JUMP JUMPDEST PUSH2 0x3C9 DUP2 PUSH2 0x3B6 JUMP JUMPDEST DUP2 EQ PUSH2 0x3D4 JUMPI PUSH1 0x0 DUP1 REVERT JUMPDEST POP JUMP JUMPDEST PUSH1 0x0 DUP2 CALLDATALOAD SWAP1 POP PUSH2 0x3E6 DUP2 PUSH2 0x3C0 JUMP JUMPDEST SWAP3 SWAP2 POP POP JUMP JUMPDEST PUSH1 0x0 PUSH1 0x20 DUP3 DUP5 SUB SLT ISZERO PUSH2 0x402 JUMPI PUSH2 0x401 PUSH2 0x3B1 JUMP JUMPDEST JUMPDEST PUSH1 0x0 PUSH2 0x410 DUP5 DUP3 DUP6 ADD PUSH2 0x3D7 JUMP JUMPDEST SWAP2 POP POP SWAP3 SWAP2 POP POP JUMP JUMPDEST PUSH1 0x0 DUP2 ISZERO ISZERO SWAP1 POP SWAP2 SWAP1 POP JUMP JUMPDEST PUSH2 0x42E DUP2 PUSH2 0x419 JUMP JUMPDEST DUP3 MSTORE POP POP JUMP JUMPDEST PUSH1 0x0 PUSH1 0x20 DUP3 ADD SWAP1 POP PUSH2 0x449 PUSH1 0x0 DUP4 ADD DUP5 PUSH2 0x425 JUMP JUMPDEST SWAP3 SWAP2 POP POP JUMP JUMPDEST PUSH2 0x458 DUP2 PUSH2 0x3B6 JUMP JUMPDEST DUP3 MSTORE POP POP JUMP JUMPDEST PUSH1 0x0 PUSH1 0x20 DUP3 ADD SWAP1 POP PUSH2 0x473 PUSH1 0x0 DUP4 ADD DUP5 PUSH2 0x44F JUMP JUMPDEST SWAP3 SWAP2 POP POP JUMP JUMPDEST PUSH1 0x0 DUP2 PUSH1 0xE0 SHR SWAP1 POP SWAP2 SWAP1 POP JUMP JUMPDEST PUSH1 0x0 PUSH1 0x3 RETURNDATASIZE GT ISZERO PUSH2 0x4A5 JUMPI PUSH1 0x4 PUSH1 0x0 DUP1 RETURNDATACOPY PUSH2 0x4A2 PUSH1 0x0 MLOAD PUSH2 0x479 JUMP JUMPDEST SWAP1 POP JUMPDEST SWAP1 JUMP JUMPDEST PUSH1 0x0 PUSH1 0x1F NOT PUSH1 0x1F DUP4 ADD AND SWAP1 POP SWAP2 SWAP1 POP JUMP JUMPDEST PUSH32 0x4E487B7100000000000000000000000000000000000000000000000000000000 PUSH1 0x0 MSTORE PUSH1 0x41 PUSH1 0x4 MSTORE PUSH1 0x24 PUSH1 0x0 REVERT JUMPDEST PUSH2 0x4F1 DUP3 PUSH2 0x4A8 JUMP JUMPDEST DUP2 ADD DUP2 DUP2 LT PUSH8 0xFFFFFFFFFFFFFFFF DUP3 GT OR ISZERO PUSH2 0x510 JUMPI PUSH2 0x50F PUSH2 0x4B9 JUMP JUMPDEST JUMPDEST DUP1 PUSH1 0x40 MSTORE POP POP POP JUMP JUMPDEST PUSH1 0x0 PUSH1 0x44 RETURNDATASIZE LT PUSH2 0x5A6 JUMPI PUSH2 0x52B PUSH2 0x3A7 JUMP JUMPDEST PUSH1 0x4 RETURNDATASIZE SUB PUSH1 0x4 DUP3 RETURNDATACOPY DUP1 MLOAD RETURNDATASIZE PUSH1 0x24 DUP3 ADD GT PUSH8 0xFFFFFFFFFFFFFFFF DUP3 GT OR ISZERO PUSH2 0x553 JUMPI POP POP PUSH2 0x5A6 JUMP JUMPDEST DUP1 DUP3 ADD DUP1 MLOAD PUSH8 0xFFFFFFFFFFFFFFFF DUP2 GT ISZERO PUSH2 0x571 JUMPI POP POP POP POP PUSH2 0x5A6 JUMP JUMPDEST DUP1 PUSH1 0x20 DUP4 ADD ADD PUSH1 0x4 RETURNDATASIZE SUB DUP6 ADD DUP2 GT ISZERO PUSH2 0x58E JUMPI POP POP POP POP POP PUSH2 0x5A6 JUMP JUMPDEST PUSH2 0x59D DUP3 PUSH1 0x20 ADD DUP6 ADD DUP7 PUSH2 0x4E8 JUMP JUMPDEST DUP3 SWAP6 POP POP POP POP POP POP JUMPDEST SWAP1 JUMP JUMPDEST PUSH1 0x0 DUP2 MLOAD SWAP1 POP SWAP2 SWAP1 POP JUMP JUMPDEST PUSH1 0x0 DUP3 DUP3 MSTORE PUSH1 0x20 DUP3 ADD SWAP1 POP SWAP3 SWAP2 POP POP JUMP JUMPDEST PUSH1 0x0 JUMPDEST DUP4 DUP2 LT ISZERO PUSH2 0x5E3 JUMPI DUP1 DUP3 ADD MLOAD DUP2 DUP5 ADD MSTORE PUSH1 0x20 DUP2 ADD SWAP1 POP PUSH2 0x5C8 JUMP JUMPDEST PUSH1 0x0 DUP5 DUP5 ADD MSTORE POP POP POP POP JUMP JUMPDEST PUSH1 0x0 PUSH2 0x5FA DUP3 PUSH2 0x5A9 JUMP JUMPDEST PUSH2 0x604 DUP2 DUP6 PUSH2 0x5B4 JUMP JUMPDEST SWAP4 POP PUSH2 0x614 DUP2 DUP6 PUSH1 0x20 DUP7 ADD PUSH2 0x5C5 JUMP JUMPDEST PUSH2 0x61D DUP2 PUSH2 0x4A8 JUMP JUMPDEST DUP5 ADD SWAP2 POP POP SWAP3 SWAP2 POP POP JUMP JUMPDEST PUSH1 0x0 PUSH1 0x20 DUP3 ADD SWAP1 POP DUP2 DUP2 SUB PUSH1 0x0 DUP4 ADD MSTORE PUSH2 0x642 DUP2 DUP5 PUSH2 0x5EF JUMP JUMPDEST SWAP1 POP SWAP3 SWAP2 POP POP JUMP JUMPDEST PUSH1 0x0 DUP2 MLOAD SWAP1 POP SWAP2 SWAP1 POP JUMP JUMPDEST PUSH1 0x0 DUP3 DUP3 MSTORE PUSH1 0x20 DUP3 ADD SWAP1 POP SWAP3 SWAP2 POP POP JUMP JUMPDEST PUSH1 0x0 PUSH2 0x671 DUP3 PUSH2 0x64A JUMP JUMPDEST PUSH2 0x67B DUP2 DUP6 PUSH2 0x655 JUMP JUMPDEST SWAP4 POP PUSH2 0x68B DUP2 DUP6 PUSH1 0x20 DUP7 ADD PUSH2 0x5C5 JUMP JUMPDEST PUSH2 0x694 DUP2 PUSH2 0x4A8 JUMP JUMPDEST DUP5 ADD SWAP2 POP POP SWAP3 SWAP2 POP POP JUMP JUMPDEST PUSH1 0x0 PUSH1 0x20 DUP3 ADD SWAP1 POP DUP2 DUP2 SUB PUSH1 0x0 DUP4 ADD MSTORE PUSH2 0x6B9 DUP2 DUP5 PUSH2 0x666 JUMP JUMPDEST SWAP1 POP SWAP3 SWAP2 POP POP JUMP JUMPDEST PUSH2 0x6CA DUP2 PUSH2 0x419 JUMP JUMPDEST DUP2 EQ PUSH2 0x6D5 JUMPI PUSH1 0x0 DUP1 REVERT JUMPDEST POP JUMP JUMPDEST PUSH1 0x0 DUP2 MLOAD SWAP1 POP PUSH2 0x6E7 DUP2 PUSH2 0x6C1 JUMP JUMPDEST SWAP3 SWAP2 POP POP JUMP JUMPDEST PUSH1 0x0 PUSH1 0x20 DUP3 DUP5 SUB SLT ISZERO PUSH2 0x703 JUMPI PUSH2 0x702 PUSH2 0x3B1 JUMP JUMPDEST JUMPDEST PUSH1 0x0 PUSH2 0x711 DUP5 DUP3 DUP6 ADD PUSH2 0x6D8 JUMP JUMPDEST SWAP2 POP POP SWAP3 SWAP2 POP POP JUMP INVALID PUSH1 0x80 PUSH1 0x40 MSTORE CALLVALUE DUP1 ISZERO PUSH2 0x10 JUMPI PUSH1 0x0 DUP1 REVERT JUMPDEST POP PUSH1 0x40 MLOAD PUSH2 0x54E CODESIZE SUB DUP1 PUSH2 0x54E DUP4 CODECOPY DUP2 DUP2 ADD PUSH1 0x40 MSTORE DUP2 ADD SWAP1 PUSH2 0x32 SWAP2 SWAP1 PUSH2 0xC7 JUMP JUMPDEST PUSH1 0x0 DUP2 SUB PUSH2 0x75 JUMPI PUSH1 0x40 MLOAD PUSH32 0x8C379A000000000000000000000000000000000000000000000000000000000 DUP2 MSTORE PUSH1 0x4 ADD PUSH2 0x6C SWAP1 PUSH2 0x151 JUMP JUMPDEST PUSH1 0x40 MLOAD DUP1 SWAP2 SUB SWAP1 REVERT JUMPDEST PUSH1 0x1 DUP2 SUB PUSH2 0x86 JUMPI PUSH2 0x85 PUSH2 0x171 JUMP JUMPDEST JUMPDEST POP PUSH2 0x1A0 JUMP JUMPDEST PUSH1 0x0 DUP1 REVERT JUMPDEST PUSH1 0x0 DUP2 SWAP1 POP SWAP2 SWAP1 POP JUMP JUMPDEST PUSH2 0xA4 DUP2 PUSH2 0x91 JUMP JUMPDEST DUP2 EQ PUSH2 0xAF JUMPI PUSH1 0x0 DUP1 REVERT JUMPDEST POP JUMP JUMPDEST PUSH1 0x0 DUP2 MLOAD SWAP1 POP PUSH2 0xC1 DUP2 PUSH2 0x9B JUMP JUMPDEST SWAP3 SWAP2 POP POP JUMP JUMPDEST PUSH1 0x0 PUSH1 0x20 DUP3 DUP5 SUB SLT ISZERO PUSH2 0xDD JUMPI PUSH2 0xDC PUSH2 0x8C JUMP JUMPDEST JUMPDEST PUSH1 0x0 PUSH2 0xEB DUP5 DUP3 DUP6 ADD PUSH2 0xB2 JUMP JUMPDEST SWAP2 POP POP SWAP3 SWAP2 POP POP JUMP JUMPDEST PUSH1 0x0 DUP3 DUP3 MSTORE PUSH1 0x20 DUP3 ADD SWAP1 POP SWAP3 SWAP2 POP POP JUMP JUMPDEST PUSH32 0x496E76616C696420456E74727900000000000000000000000000000000000000 PUSH1 0x0 DUP3 ADD MSTORE POP JUMP JUMPDEST PUSH1 0x0 PUSH2 0x13B PUSH1 0xD DUP4 PUSH2 0xF4 JUMP JUMPDEST SWAP2 POP PUSH2 0x146 DUP3 PUSH2 0x105 JUMP JUMPDEST PUSH1 0x20 DUP3 ADD SWAP1 POP SWAP2 SWAP1 POP JUMP JUMPDEST PUSH1 0x0 PUSH1 0x20 DUP3 ADD SWAP1 POP DUP2 DUP2 SUB PUSH1 0x0 DUP4 ADD MSTORE PUSH2 0x16A DUP2 PUSH2 0x12E JUMP JUMPDEST SWAP1 POP SWAP2 SWAP1 POP JUMP JUMPDEST PUSH32 0x4E487B7100000000000000000000000000000000000000000000000000000000 PUSH1 0x0 MSTORE PUSH1 0x1 PUSH1 0x4 MSTORE PUSH1 0x24 PUSH1 0x0 REVERT JUMPDEST PUSH2 0x39F DUP1 PUSH2 0x1AF PUSH1 0x0 CODECOPY PUSH1 0x0 RETURN INVALID PUSH1 0x80 PUSH1 0x40 MSTORE CALLVALUE DUP1 ISZERO PUSH2 0x10 JUMPI PUSH1 0x0 DUP1 REVERT JUMPDEST POP PUSH1 0x4 CALLDATASIZE LT PUSH2 0x2B JUMPI PUSH1 0x0 CALLDATALOAD PUSH1 0xE0 SHR DUP1 PUSH4 0x5F5B3EB EQ PUSH2 0x30 JUMPI JUMPDEST PUSH1 0x0 DUP1 REVERT JUMPDEST PUSH2 0x4A PUSH1 0x4 DUP1 CALLDATASIZE SUB DUP2 ADD SWAP1 PUSH2 0x45 SWAP2 SWAP1 PUSH2 0x184 JUMP JUMPDEST PUSH2 0x60 JUMP JUMPDEST PUSH1 0x40 MLOAD PUSH2 0x57 SWAP2 SWAP1 PUSH2 0x1CC JUMP JUMPDEST PUSH1 0x40 MLOAD DUP1 SWAP2 SUB SWAP1 RETURN JUMPDEST PUSH1 0x0 PUSH2 0x6B DUP3 PUSH2 0xB3 JUMP JUMPDEST PUSH2 0xAA JUMPI PUSH1 0x40 MLOAD PUSH32 0x8C379A000000000000000000000000000000000000000000000000000000000 DUP2 MSTORE PUSH1 0x4 ADD PUSH2 0xA1 SWAP1 PUSH2 0x244 JUMP JUMPDEST PUSH1 0x40 MLOAD DUP1 SWAP2 SUB SWAP1 REVERT JUMPDEST PUSH1 0x1 SWAP1 POP SWAP2 SWAP1 POP JUMP JUMPDEST PUSH1 0x0 PUSH1 0x1 DUP3 GT PUSH2 0xC6 JUMPI PUSH1 0x0 SWAP1 POP PUSH2 0x144 JUMP JUMPDEST PUSH1 0x2 DUP3 SUB PUSH2 0xD7 JUMPI PUSH1 0x1 SWAP1 POP PUSH2 0x144 JUMP JUMPDEST PUSH1 0x0 PUSH1 0x2 DUP4 PUSH2 0xE6 SWAP2 SWAP1 PUSH2 0x293 JUMP JUMPDEST SUB PUSH2 0xF4 JUMPI PUSH1 0x0 SWAP1 POP PUSH2 0x144 JUMP JUMPDEST PUSH1 0x0 PUSH1 0x3 SWAP1 POP JUMPDEST DUP3 DUP2 DUP3 PUSH2 0x108 SWAP2 SWAP1 PUSH2 0x2F3 JUMP JUMPDEST GT PUSH2 0x13E JUMPI PUSH1 0x0 DUP2 DUP5 PUSH2 0x11B SWAP2 SWAP1 PUSH2 0x293 JUMP JUMPDEST SUB PUSH2 0x12A JUMPI PUSH1 0x0 SWAP2 POP POP PUSH2 0x144 JUMP JUMPDEST PUSH1 0x2 DUP2 PUSH2 0x137 SWAP2 SWAP1 PUSH2 0x335 JUMP JUMPDEST SWAP1 POP PUSH2 0xFB JUMP JUMPDEST POP PUSH1 0x1 SWAP1 POP JUMPDEST SWAP2 SWAP1 POP JUMP JUMPDEST PUSH1 0x0 DUP1 REVERT JUMPDEST PUSH1 0x0 DUP2 SWAP1 POP SWAP2 SWAP1 POP JUMP JUMPDEST PUSH2 0x161 DUP2 PUSH2 0x14E JUMP JUMPDEST DUP2 EQ PUSH2 0x16C JUMPI PUSH1 0x0 DUP1 REVERT JUMPDEST POP JUMP JUMPDEST PUSH1 0x0 DUP2 CALLDATALOAD SWAP1 POP PUSH2 0x17E DUP2 PUSH2 0x158 JUMP JUMPDEST SWAP3 SWAP2 POP POP JUMP JUMPDEST PUSH1 0x0 PUSH1 0x20 DUP3 DUP5 SUB SLT ISZERO PUSH2 0x19A JUMPI PUSH2 0x199 PUSH2 0x149 JUMP JUMPDEST JUMPDEST PUSH1 0x0 PUSH2 0x1A8 DUP5 DUP3 DUP6 ADD PUSH2 0x16F JUMP JUMPDEST SWAP2 POP POP SWAP3 SWAP2 POP POP JUMP JUMPDEST PUSH1 0x0 DUP2 ISZERO ISZERO SWAP1 POP SWAP2 SWAP1 POP JUMP JUMPDEST PUSH2 0x1C6 DUP2 PUSH2 0x1B1 JUMP JUMPDEST DUP3 MSTORE POP POP JUMP JUMPDEST PUSH1 0x0 PUSH1 0x20 DUP3 ADD SWAP1 POP PUSH2 0x1E1 PUSH1 0x0 DUP4 ADD DUP5 PUSH2 0x1BD JUMP JUMPDEST SWAP3 SWAP2 POP POP JUMP JUMPDEST PUSH1 0x0 DUP3 DUP3 MSTORE PUSH1 0x20 DUP3 ADD SWAP1 POP SWAP3 SWAP2 POP POP JUMP JUMPDEST PUSH32 0x5570732120526576657274696E67000000000000000000000000000000000000 PUSH1 0x0 DUP3 ADD MSTORE POP JUMP JUMPDEST PUSH1 0x0 PUSH2 0x22E PUSH1 0xE DUP4 PUSH2 0x1E7 JUMP JUMPDEST SWAP2 POP PUSH2 0x239 DUP3 PUSH2 0x1F8 JUMP JUMPDEST PUSH1 0x20 DUP3 ADD SWAP1 POP SWAP2 SWAP1 POP JUMP JUMPDEST PUSH1 0x0 PUSH1 0x20 DUP3 ADD SWAP1 POP DUP2 DUP2 SUB PUSH1 0x0 DUP4 ADD MSTORE PUSH2 0x25D DUP2 PUSH2 0x221 JUMP JUMPDEST SWAP1 POP SWAP2 SWAP1 POP JUMP JUMPDEST PUSH32 0x4E487B7100000000000000000000000000000000000000000000000000000000 PUSH1 0x0 MSTORE PUSH1 0x12 PUSH1 0x4 MSTORE PUSH1 0x24 PUSH1 0x0 REVERT JUMPDEST PUSH1 0x0 PUSH2 0x29E DUP3 PUSH2 0x14E JUMP JUMPDEST SWAP2 POP PUSH2 0x2A9 DUP4 PUSH2 0x14E JUMP JUMPDEST SWAP3 POP DUP3 PUSH2 0x2B9 JUMPI PUSH2 0x2B8 PUSH2 0x264 JUMP JUMPDEST JUMPDEST DUP3 DUP3 MOD SWAP1 POP SWAP3 SWAP2 POP POP JUMP JUMPDEST PUSH32 0x4E487B7100000000000000000000000000000000000000000000000000000000 PUSH1 0x0 MSTORE PUSH1 0x11 PUSH1 0x4 MSTORE PUSH1 0x24 PUSH1 0x0 REVERT JUMPDEST PUSH1 0x0 PUSH2 0x2FE DUP3 PUSH2 0x14E JUMP JUMPDEST SWAP2 POP PUSH2 0x309 DUP4 PUSH2 0x14E JUMP JUMPDEST SWAP3 POP DUP3 DUP3 MUL PUSH2 0x317 DUP2 PUSH2 0x14E JUMP JUMPDEST SWAP2 POP DUP3 DUP3 DIV DUP5 EQ DUP4 ISZERO OR PUSH2 0x32E JUMPI PUSH2 0x32D PUSH2 0x2C4 JUMP JUMPDEST JUMPDEST POP SWAP3 SWAP2 POP POP JUMP JUMPDEST PUSH1 0x0 PUSH2 0x340 DUP3 PUSH2 0x14E JUMP JUMPDEST SWAP2 POP PUSH2 0x34B DUP4 PUSH2 0x14E JUMP JUMPDEST SWAP3 POP DUP3 DUP3 ADD SWAP1 POP DUP1 DUP3 GT ISZERO PUSH2 0x363 JUMPI PUSH2 0x362 PUSH2 0x2C4 JUMP JUMPDEST JUMPDEST SWAP3 SWAP2 POP POP JUMP INVALID LOG2 PUSH5 0x6970667358 0x22 SLT KECCAK256 DUP6 DUP15 RETURNDATACOPY CREATE2 0xE7 AND 0xDC 0xA7 0x5D 0x2A 0xCC 0xAB NUMBER 0xAA 0xE8 PUSH12 0x5C3699B91F12F25C6B2D5732 MSTORE 0xD3 0xDE MSIZE PUSH5 0x736F6C6343 STOP ADDMOD SLT STOP CALLER LOG2 PUSH5 0x6970667358 0x22 SLT KECCAK256 SWAP2 0x1E PUSH15 0x6707332BA76937A8A41ABBE204B870 0xEC 0xCA BASEFEE 0xDD SWAP3 0xE1 0x5F PUSH28 0x62567ED4DBF164736F6C634300081200336080604052348015610010 JUMPI PUSH1 0x0 DUP1 REVERT JUMPDEST POP PUSH1 0x40 MLOAD PUSH2 0x54E CODESIZE SUB DUP1 PUSH2 0x54E DUP4 CODECOPY DUP2 DUP2 ADD PUSH1 0x40 MSTORE DUP2 ADD SWAP1 PUSH2 0x32 SWAP2 SWAP1 PUSH2 0xC7 JUMP JUMPDEST PUSH1 0x0 DUP2 SUB PUSH2 0x75 JUMPI PUSH1 0x40 MLOAD PUSH32 0x8C379A000000000000000000000000000000000000000000000000000000000 DUP2 MSTORE PUSH1 0x4 ADD PUSH2 0x6C SWAP1 PUSH2 0x151 JUMP JUMPDEST PUSH1 0x40 MLOAD DUP1 SWAP2 SUB SWAP1 REVERT JUMPDEST PUSH1 0x1 DUP2 SUB PUSH2 0x86 JUMPI PUSH2 0x85 PUSH2 0x171 JUMP JUMPDEST JUMPDEST POP PUSH2 0x1A0 JUMP JUMPDEST PUSH1 0x0 DUP1 REVERT JUMPDEST PUSH1 0x0 DUP2 SWAP1 POP SWAP2 SWAP1 POP JUMP JUMPDEST PUSH2 0xA4 DUP2 PUSH2 0x91 JUMP JUMPDEST DUP2 EQ PUSH2 0xAF JUMPI PUSH1 0x0 DUP1 REVERT JUMPDEST POP JUMP JUMPDEST PUSH1 0x0 DUP2 MLOAD SWAP1 POP PUSH2 0xC1 DUP2 PUSH2 0x9B JUMP JUMPDEST SWAP3 SWAP2 POP POP JUMP JUMPDEST PUSH1 0x0 PUSH1 0x20 DUP3 DUP5 SUB SLT ISZERO PUSH2 0xDD JUMPI PUSH2 0xDC PUSH2 0x8C JUMP JUMPDEST JUMPDEST PUSH1 0x0 PUSH2 0xEB DUP5 DUP3 DUP6 ADD PUSH2 0xB2 JUMP JUMPDEST SWAP2 POP POP SWAP3 SWAP2 POP POP JUMP JUMPDEST PUSH1 0x0 DUP3 DUP3 MSTORE PUSH1 0x20 DUP3 ADD SWAP1 POP SWAP3 SWAP2 POP POP JUMP JUMPDEST PUSH32 0x496E76616C696420456E74727900000000000000000000000000000000000000 PUSH1 0x0 DUP3 ADD MSTORE POP JUMP JUMPDEST PUSH1 0x0 PUSH2 0x13B PUSH1 0xD DUP4 PUSH2 0xF4 JUMP JUMPDEST SWAP2 POP PUSH2 0x146 DUP3 PUSH2 0x105 JUMP JUMPDEST PUSH1 0x20 DUP3 ADD SWAP1 POP SWAP2 SWAP1 POP JUMP JUMPDEST PUSH1 0x0 PUSH1 0x20 DUP3 ADD SWAP1 POP DUP2 DUP2 SUB PUSH1 0x0 DUP4 ADD MSTORE PUSH2 0x16A DUP2 PUSH2 0x12E JUMP JUMPDEST SWAP1 POP SWAP2 SWAP1 POP JUMP JUMPDEST PUSH32 0x4E487B7100000000000000000000000000000000000000000000000000000000 PUSH1 0x0 MSTORE PUSH1 0x1 PUSH1 0x4 MSTORE PUSH1 0x24 PUSH1 0x0 REVERT JUMPDEST PUSH2 0x39F DUP1 PUSH2 0x1AF PUSH1 0x0 CODECOPY PUSH1 0x0 RETURN INVALID PUSH1 0x80 PUSH1 0x40 MSTORE CALLVALUE DUP1 ISZERO PUSH2 0x10 JUMPI PUSH1 0x0 DUP1 REVERT JUMPDEST POP PUSH1 0x4 CALLDATASIZE LT PUSH2 0x2B JUMPI PUSH1 0x0 CALLDATALOAD PUSH1 0xE0 SHR DUP1 PUSH4 0x5F5B3EB EQ PUSH2 0x30 JUMPI JUMPDEST PUSH1 0x0 DUP1 REVERT JUMPDEST PUSH2 0x4A PUSH1 0x4 DUP1 CALLDATASIZE SUB DUP2 ADD SWAP1 PUSH2 0x45 SWAP2 SWAP1 PUSH2 0x184 JUMP JUMPDEST PUSH2 0x60 JUMP JUMPDEST PUSH1 0x40 MLOAD PUSH2 0x57 SWAP2 SWAP1 PUSH2 0x1CC JUMP JUMPDEST PUSH1 0x40 MLOAD DUP1 SWAP2 SUB SWAP1 RETURN JUMPDEST PUSH1 0x0 PUSH2 0x6B DUP3 PUSH2 0xB3 JUMP JUMPDEST PUSH2 0xAA JUMPI PUSH1 0x40 MLOAD PUSH32 0x8C379A000000000000000000000000000000000000000000000000000000000 DUP2 MSTORE PUSH1 0x4 ADD PUSH2 0xA1 SWAP1 PUSH2 0x244 JUMP JUMPDEST PUSH1 0x40 MLOAD DUP1 SWAP2 SUB SWAP1 REVERT JUMPDEST PUSH1 0x1 SWAP1 POP SWAP2 SWAP1 POP JUMP JUMPDEST PUSH1 0x0 PUSH1 0x1 DUP3 GT PUSH2 0xC6 JUMPI PUSH1 0x0 SWAP1 POP PUSH2 0x144 JUMP JUMPDEST PUSH1 0x2 DUP3 SUB PUSH2 0xD7 JUMPI PUSH1 0x1 SWAP1 POP PUSH2 0x144 JUMP JUMPDEST PUSH1 0x0 PUSH1 0x2 DUP4 PUSH2 0xE6 SWAP2 SWAP1 PUSH2 0x293 JUMP JUMPDEST SUB PUSH2 0xF4 JUMPI PUSH1 0x0 SWAP1 POP PUSH2 0x144 JUMP JUMPDEST PUSH1 0x0 PUSH1 0x3 SWAP1 POP JUMPDEST DUP3 DUP2 DUP3 PUSH2 0x108 SWAP2 SWAP1 PUSH2 0x2F3 JUMP JUMPDEST GT PUSH2 0x13E JUMPI PUSH1 0x0 DUP2 DUP5 PUSH2 0x11B SWAP2 SWAP1 PUSH2 0x293 JUMP JUMPDEST SUB PUSH2 0x12A JUMPI PUSH1 0x0 SWAP2 POP POP PUSH2 0x144 JUMP JUMPDEST PUSH1 0x2 DUP2 PUSH2 0x137 SWAP2 SWAP1 PUSH2 0x335 JUMP JUMPDEST SWAP1 POP PUSH2 0xFB JUMP JUMPDEST POP PUSH1 0x1 SWAP1 POP JUMPDEST SWAP2 SWAP1 POP JUMP JUMPDEST PUSH1 0x0 DUP1 REVERT JUMPDEST PUSH1 0x0 DUP2 SWAP1 POP SWAP2 SWAP1 POP JUMP JUMPDEST PUSH2 0x161 DUP2 PUSH2 0x14E JUMP JUMPDEST DUP2 EQ PUSH2 0x16C JUMPI PUSH1 0x0 DUP1 REVERT JUMPDEST POP JUMP JUMPDEST PUSH1 0x0 DUP2 CALLDATALOAD SWAP1 POP PUSH2 0x17E DUP2 PUSH2 0x158 JUMP JUMPDEST SWAP3 SWAP2 POP POP JUMP JUMPDEST PUSH1 0x0 PUSH1 0x20 DUP3 DUP5 SUB SLT ISZERO PUSH2 0x19A JUMPI PUSH2 0x199 PUSH2 0x149 JUMP JUMPDEST JUMPDEST PUSH1 0x0 PUSH2 0x1A8 DUP5 DUP3 DUP6 ADD PUSH2 0x16F JUMP JUMPDEST SWAP2 POP POP SWAP3 SWAP2 POP POP JUMP JUMPDEST PUSH1 0x0 DUP2 ISZERO ISZERO SWAP1 POP SWAP2 SWAP1 POP JUMP JUMPDEST PUSH2 0x1C6 DUP2 PUSH2 0x1B1 JUMP JUMPDEST DUP3 MSTORE POP POP JUMP JUMPDEST PUSH1 0x0 PUSH1 0x20 DUP3 ADD SWAP1 POP PUSH2 0x1E1 PUSH1 0x0 DUP4 ADD DUP5 PUSH2 0x1BD JUMP JUMPDEST SWAP3 SWAP2 POP POP JUMP JUMPDEST PUSH1 0x0 DUP3 DUP3 MSTORE PUSH1 0x20 DUP3 ADD SWAP1 POP SWAP3 SWAP2 POP POP JUMP JUMPDEST PUSH32 0x5570732120526576657274696E67000000000000000000000000000000000000 PUSH1 0x0 DUP3 ADD MSTORE POP JUMP JUMPDEST PUSH1 0x0 PUSH2 0x22E PUSH1 0xE DUP4 PUSH2 0x1E7 JUMP JUMPDEST SWAP2 POP PUSH2 0x239 DUP3 PUSH2 0x1F8 JUMP JUMPDEST PUSH1 0x20 DUP3 ADD SWAP1 POP SWAP2 SWAP1 POP JUMP JUMPDEST PUSH1 0x0 PUSH1 0x20 DUP3 ADD SWAP1 POP DUP2 DUP2 SUB PUSH1 0x0 DUP4 ADD MSTORE PUSH2 0x25D DUP2 PUSH2 0x221 JUMP JUMPDEST SWAP1 POP SWAP2 SWAP1 POP JUMP JUMPDEST PUSH32 0x4E487B7100000000000000000000000000000000000000000000000000000000 PUSH1 0x0 MSTORE PUSH1 0x12 PUSH1 0x4 MSTORE PUSH1 0x24 PUSH1 0x0 REVERT JUMPDEST PUSH1 0x0 PUSH2 0x29E DUP3 PUSH2 0x14E JUMP JUMPDEST SWAP2 POP PUSH2 0x2A9 DUP4 PUSH2 0x14E JUMP JUMPDEST SWAP3 POP DUP3 PUSH2 0x2B9 JUMPI PUSH2 0x2B8 PUSH2 0x264 JUMP JUMPDEST JUMPDEST DUP3 DUP3 MOD SWAP1 POP SWAP3 SWAP2 POP POP JUMP JUMPDEST PUSH32 0x4E487B7100000000000000000000000000000000000000000000000000000000 PUSH1 0x0 MSTORE PUSH1 0x11 PUSH1 0x4 MSTORE PUSH1 0x24 PUSH1 0x0 REVERT JUMPDEST PUSH1 0x0 PUSH2 0x2FE DUP3 PUSH2 0x14E JUMP JUMPDEST SWAP2 POP PUSH2 0x309 DUP4 PUSH2 0x14E JUMP JUMPDEST SWAP3 POP DUP3 DUP3 MUL PUSH2 0x317 DUP2 PUSH2 0x14E JUMP JUMPDEST SWAP2 POP DUP3 DUP3 DIV DUP5 EQ DUP4 ISZERO OR PUSH2 0x32E JUMPI PUSH2 0x32D PUSH2 0x2C4 JUMP JUMPDEST JUMPDEST POP SWAP3 SWAP2 POP POP JUMP JUMPDEST PUSH1 0x0 PUSH2 0x340 DUP3 PUSH2 0x14E JUMP JUMPDEST SWAP2 POP PUSH2 0x34B DUP4 PUSH2 0x14E JUMP JUMPDEST SWAP3 POP DUP3 DUP3 ADD SWAP1 POP DUP1 DUP3 GT ISZERO PUSH2 0x363 JUMPI PUSH2 0x362 PUSH2 0x2C4 JUMP JUMPDEST JUMPDEST SWAP3 SWAP2 POP POP JUMP INVALID LOG2 PUSH5 0x6970667358 0x22 SLT KECCAK256 DUP6 DUP15 RETURNDATACOPY CREATE2 0xE7 AND 0xDC 0xA7 0x5D 0x2A 0xCC 0xAB NUMBER 0xAA 0xE8 PUSH12 0x5C3699B91F12F25C6B2D5732 MSTORE 0xD3 0xDE MSIZE PUSH5 0x736F6C6343 STOP ADDMOD SLT STOP CALLER "
				},
				"gasEstimates": {
					"creation": {
						"codeDepositCost": "646000",
						"executionCost": "infinite",
						"totalCost": "infinite"
					},
					"external": {
						"execute(uint256)": "infinite",
						"executeNew(uint256)": "infinite"
					}
				},
				"methodIdentifiers": {
					"execute(uint256)": "fe0d94c1",
					"executeNew(uint256)": "60ebc172"
				}
			},
			"storageLayout": {
				"storage": [
					{
						"astId": 110,
						"contract": "LABS 21 Aug/Task All 18.sol:TryCatch",
						"label": "even",
						"offset": 0,
						"slot": "0",
						"type": "t_contract(PrimeChecker)97"
					}
				],
				"types": {
					"t_contract(PrimeChecker)97": {
						"encoding": "inplace",
						"label": "contract PrimeChecker",
						"numberOfBytes": "20"
					}
				}
			},
			"userdoc": {
				"kind": "user",
				"methods": {},
				"version": 1
			}
		}
	}
}