{
	"LABS 21 Aug/Task All 18.sol": {
		"PrimeChecker": {
			"abi": [
				{
					"inputs": [
						{
							"internalType": "uint256",
							"name": "a",
							"type": "uint256"
						}
					],
					"stateMutability": "nonpayable",
					"type": "constructor"
				},
				{
					"inputs": [
						{
							"internalType": "uint256",
							"name": "b",
							"type": "uint256"
						}
					],
					"name": "onlyPrime",
					"outputs": [
						{
							"internalType": "bool",
							"name": "success",
							"type": "bool"
						}
					],
					"stateMutability": "pure",
					"type": "function"
				}
			],
			"devdoc": {
				"kind": "dev",
				"methods": {},
				"version": 1
			},
			"evm": {
				"assembly": "    /* \"LABS 21 Aug/Task All 18.sol\":1389:2121  contract PrimeChecker {... */\n  mstore(0x40, 0x80)\n    /* \"LABS 21 Aug/Task All 18.sol\":1417:1513  constructor(uint256 a) {... */\n  callvalue\n  dup1\n  iszero\n  tag_1\n  jumpi\n  0x00\n  dup1\n  revert\ntag_1:\n  pop\n  mload(0x40)\n  sub(codesize, bytecodeSize)\n  dup1\n  bytecodeSize\n  dup4\n  codecopy\n  dup2\n  dup2\n  add\n  0x40\n  mstore\n  dup2\n  add\n  swap1\n  tag_2\n  swap2\n  swap1\n  tag_3\n  jump\t// in\ntag_2:\n    /* \"LABS 21 Aug/Task All 18.sol\":1463:1464  0 */\n  0x00\n    /* \"LABS 21 Aug/Task All 18.sol\":1458:1459  a */\n  dup2\n    /* \"LABS 21 Aug/Task All 18.sol\":1458:1464  a != 0 */\n  sub\n    /* \"LABS 21 Aug/Task All 18.sol\":1450:1482  require(a != 0, \"Invalid Entry\") */\n  tag_6\n  jumpi\n  mload(0x40)\n  0x08c379a000000000000000000000000000000000000000000000000000000000\n  dup2\n  mstore\n  0x04\n  add\n  tag_7\n  swap1\n  tag_8\n  jump\t// in\ntag_7:\n  mload(0x40)\n  dup1\n  swap2\n  sub\n  swap1\n  revert\ntag_6:\n    /* \"LABS 21 Aug/Task All 18.sol\":1504:1505  1 */\n  0x01\n    /* \"LABS 21 Aug/Task All 18.sol\":1499:1500  a */\n  dup2\n    /* \"LABS 21 Aug/Task All 18.sol\":1499:1505  a != 1 */\n  sub\n    /* \"LABS 21 Aug/Task All 18.sol\":1492:1506  assert(a != 1) */\n  tag_9\n  jumpi\n  tag_10\n  tag_11\n  jump\t// in\ntag_10:\ntag_9:\n    /* \"LABS 21 Aug/Task All 18.sol\":1417:1513  constructor(uint256 a) {... */\n  pop\n    /* \"LABS 21 Aug/Task All 18.sol\":1389:2121  contract PrimeChecker {... */\n  jump(tag_12)\n    /* \"#utility.yul\":88:205   */\ntag_14:\n    /* \"#utility.yul\":197:198   */\n  0x00\n    /* \"#utility.yul\":194:195   */\n  dup1\n    /* \"#utility.yul\":187:199   */\n  revert\n    /* \"#utility.yul\":334:411   */\ntag_16:\n    /* \"#utility.yul\":371:378   */\n  0x00\n    /* \"#utility.yul\":400:405   */\n  dup2\n    /* \"#utility.yul\":389:405   */\n  swap1\n  pop\n    /* \"#utility.yul\":334:411   */\n  swap2\n  swap1\n  pop\n  jump\t// out\n    /* \"#utility.yul\":417:539   */\ntag_17:\n    /* \"#utility.yul\":490:514   */\n  tag_28\n    /* \"#utility.yul\":508:513   */\n  dup2\n    /* \"#utility.yul\":490:514   */\n  tag_16\n  jump\t// in\ntag_28:\n    /* \"#utility.yul\":483:488   */\n  dup2\n    /* \"#utility.yul\":480:515   */\n  eq\n    /* \"#utility.yul\":470:533   */\n  tag_29\n  jumpi\n    /* \"#utility.yul\":529:530   */\n  0x00\n    /* \"#utility.yul\":526:527   */\n  dup1\n    /* \"#utility.yul\":519:531   */\n  revert\n    /* \"#utility.yul\":470:533   */\ntag_29:\n    /* \"#utility.yul\":417:539   */\n  pop\n  jump\t// out\n    /* \"#utility.yul\":545:688   */\ntag_18:\n    /* \"#utility.yul\":602:607   */\n  0x00\n    /* \"#utility.yul\":633:639   */\n  dup2\n    /* \"#utility.yul\":627:640   */\n  mload\n    /* \"#utility.yul\":618:640   */\n  swap1\n  pop\n    /* \"#utility.yul\":649:682   */\n  tag_31\n    /* \"#utility.yul\":676:681   */\n  dup2\n    /* \"#utility.yul\":649:682   */\n  tag_17\n  jump\t// in\ntag_31:\n    /* \"#utility.yul\":545:688   */\n  swap3\n  swap2\n  pop\n  pop\n  jump\t// out\n    /* \"#utility.yul\":694:1045   */\ntag_3:\n    /* \"#utility.yul\":764:770   */\n  0x00\n    /* \"#utility.yul\":813:815   */\n  0x20\n    /* \"#utility.yul\":801:810   */\n  dup3\n    /* \"#utility.yul\":792:799   */\n  dup5\n    /* \"#utility.yul\":788:811   */\n  sub\n    /* \"#utility.yul\":784:816   */\n  slt\n    /* \"#utility.yul\":781:900   */\n  iszero\n  tag_33\n  jumpi\n    /* \"#utility.yul\":819:898   */\n  tag_34\n  tag_14\n  jump\t// in\ntag_34:\n    /* \"#utility.yul\":781:900   */\ntag_33:\n    /* \"#utility.yul\":939:940   */\n  0x00\n    /* \"#utility.yul\":964:1028   */\n  tag_35\n    /* \"#utility.yul\":1020:1027   */\n  dup5\n    /* \"#utility.yul\":1011:1017   */\n  dup3\n    /* \"#utility.yul\":1000:1009   */\n  dup6\n    /* \"#utility.yul\":996:1018   */\n  add\n    /* \"#utility.yul\":964:1028   */\n  tag_18\n  jump\t// in\ntag_35:\n    /* \"#utility.yul\":954:1028   */\n  swap2\n  pop\n    /* \"#utility.yul\":910:1038   */\n  pop\n    /* \"#utility.yul\":694:1045   */\n  swap3\n  swap2\n  pop\n  pop\n  jump\t// out\n    /* \"#utility.yul\":1051:1220   */\ntag_19:\n    /* \"#utility.yul\":1135:1146   */\n  0x00\n    /* \"#utility.yul\":1169:1175   */\n  dup3\n    /* \"#utility.yul\":1164:1167   */\n  dup3\n    /* \"#utility.yul\":1157:1176   */\n  mstore\n    /* \"#utility.yul\":1209:1213   */\n  0x20\n    /* \"#utility.yul\":1204:1207   */\n  dup3\n    /* \"#utility.yul\":1200:1214   */\n  add\n    /* \"#utility.yul\":1185:1214   */\n  swap1\n  pop\n    /* \"#utility.yul\":1051:1220   */\n  swap3\n  swap2\n  pop\n  pop\n  jump\t// out\n    /* \"#utility.yul\":1226:1389   */\ntag_20:\n    /* \"#utility.yul\":1366:1381   */\n  0x496e76616c696420456e74727900000000000000000000000000000000000000\n    /* \"#utility.yul\":1362:1363   */\n  0x00\n    /* \"#utility.yul\":1354:1360   */\n  dup3\n    /* \"#utility.yul\":1350:1364   */\n  add\n    /* \"#utility.yul\":1343:1382   */\n  mstore\n    /* \"#utility.yul\":1226:1389   */\n  pop\n  jump\t// out\n    /* \"#utility.yul\":1395:1761   */\ntag_21:\n    /* \"#utility.yul\":1537:1540   */\n  0x00\n    /* \"#utility.yul\":1558:1625   */\n  tag_39\n    /* \"#utility.yul\":1622:1624   */\n  0x0d\n    /* \"#utility.yul\":1617:1620   */\n  dup4\n    /* \"#utility.yul\":1558:1625   */\n  tag_19\n  jump\t// in\ntag_39:\n    /* \"#utility.yul\":1551:1625   */\n  swap2\n  pop\n    /* \"#utility.yul\":1634:1727   */\n  tag_40\n    /* \"#utility.yul\":1723:1726   */\n  dup3\n    /* \"#utility.yul\":1634:1727   */\n  tag_20\n  jump\t// in\ntag_40:\n    /* \"#utility.yul\":1752:1754   */\n  0x20\n    /* \"#utility.yul\":1747:1750   */\n  dup3\n    /* \"#utility.yul\":1743:1755   */\n  add\n    /* \"#utility.yul\":1736:1755   */\n  swap1\n  pop\n    /* \"#utility.yul\":1395:1761   */\n  swap2\n  swap1\n  pop\n  jump\t// out\n    /* \"#utility.yul\":1767:2186   */\ntag_8:\n    /* \"#utility.yul\":1933:1937   */\n  0x00\n    /* \"#utility.yul\":1971:1973   */\n  0x20\n    /* \"#utility.yul\":1960:1969   */\n  dup3\n    /* \"#utility.yul\":1956:1974   */\n  add\n    /* \"#utility.yul\":1948:1974   */\n  swap1\n  pop\n    /* \"#utility.yul\":2020:2029   */\n  dup2\n    /* \"#utility.yul\":2014:2018   */\n  dup2\n    /* \"#utility.yul\":2010:2030   */\n  sub\n    /* \"#utility.yul\":2006:2007   */\n  0x00\n    /* \"#utility.yul\":1995:2004   */\n  dup4\n    /* \"#utility.yul\":1991:2008   */\n  add\n    /* \"#utility.yul\":1984:2031   */\n  mstore\n    /* \"#utility.yul\":2048:2179   */\n  tag_42\n    /* \"#utility.yul\":2174:2178   */\n  dup2\n    /* \"#utility.yul\":2048:2179   */\n  tag_21\n  jump\t// in\ntag_42:\n    /* \"#utility.yul\":2040:2179   */\n  swap1\n  pop\n    /* \"#utility.yul\":1767:2186   */\n  swap2\n  swap1\n  pop\n  jump\t// out\n    /* \"#utility.yul\":2192:2372   */\ntag_11:\n    /* \"#utility.yul\":2240:2317   */\n  0x4e487b7100000000000000000000000000000000000000000000000000000000\n    /* \"#utility.yul\":2237:2238   */\n  0x00\n    /* \"#utility.yul\":2230:2318   */\n  mstore\n    /* \"#utility.yul\":2337:2341   */\n  0x01\n    /* \"#utility.yul\":2334:2335   */\n  0x04\n    /* \"#utility.yul\":2327:2342   */\n  mstore\n    /* \"#utility.yul\":2361:2365   */\n  0x24\n    /* \"#utility.yul\":2358:2359   */\n  0x00\n    /* \"#utility.yul\":2351:2366   */\n  revert\n    /* \"LABS 21 Aug/Task All 18.sol\":1389:2121  contract PrimeChecker {... */\ntag_12:\n  dataSize(sub_0)\n  dup1\n  dataOffset(sub_0)\n  0x00\n  codecopy\n  0x00\n  return\nstop\n\nsub_0: assembly {\n        /* \"LABS 21 Aug/Task All 18.sol\":1389:2121  contract PrimeChecker {... */\n      mstore(0x40, 0x80)\n      callvalue\n      dup1\n      iszero\n      tag_1\n      jumpi\n      0x00\n      dup1\n      revert\n    tag_1:\n      pop\n      jumpi(tag_2, lt(calldatasize, 0x04))\n      shr(0xe0, calldataload(0x00))\n      dup1\n      0x05f5b3eb\n      eq\n      tag_3\n      jumpi\n    tag_2:\n      0x00\n      dup1\n      revert\n        /* \"LABS 21 Aug/Task All 18.sol\":1921:2119  function onlyPrime(uint256 b) external pure returns (bool success) {... */\n    tag_3:\n      tag_4\n      0x04\n      dup1\n      calldatasize\n      sub\n      dup2\n      add\n      swap1\n      tag_5\n      swap2\n      swap1\n      tag_6\n      jump\t// in\n    tag_5:\n      tag_7\n      jump\t// in\n    tag_4:\n      mload(0x40)\n      tag_8\n      swap2\n      swap1\n      tag_9\n      jump\t// in\n    tag_8:\n      mload(0x40)\n      dup1\n      swap2\n      sub\n      swap1\n      return\n    tag_7:\n        /* \"LABS 21 Aug/Task All 18.sol\":1974:1986  bool success */\n      0x00\n        /* \"LABS 21 Aug/Task All 18.sol\":2059:2069  isPrime(b) */\n      tag_11\n        /* \"LABS 21 Aug/Task All 18.sol\":2067:2068  b */\n      dup3\n        /* \"LABS 21 Aug/Task All 18.sol\":2059:2066  isPrime */\n      tag_12\n        /* \"LABS 21 Aug/Task All 18.sol\":2059:2069  isPrime(b) */\n      jump\t// in\n    tag_11:\n        /* \"LABS 21 Aug/Task All 18.sol\":2051:2088  require(isPrime(b), \"Ups! Reverting\") */\n      tag_13\n      jumpi\n      mload(0x40)\n      0x08c379a000000000000000000000000000000000000000000000000000000000\n      dup2\n      mstore\n      0x04\n      add\n      tag_14\n      swap1\n      tag_15\n      jump\t// in\n    tag_14:\n      mload(0x40)\n      dup1\n      swap2\n      sub\n      swap1\n      revert\n    tag_13:\n        /* \"LABS 21 Aug/Task All 18.sol\":2108:2112  true */\n      0x01\n        /* \"LABS 21 Aug/Task All 18.sol\":2098:2112  success = true */\n      swap1\n      pop\n        /* \"LABS 21 Aug/Task All 18.sol\":1921:2119  function onlyPrime(uint256 b) external pure returns (bool success) {... */\n      swap2\n      swap1\n      pop\n      jump\t// out\n        /* \"LABS 21 Aug/Task All 18.sol\":1519:1915  function isPrime(uint256 b) internal pure returns (bool) {... */\n    tag_12:\n        /* \"LABS 21 Aug/Task All 18.sol\":1570:1574  bool */\n      0x00\n        /* \"LABS 21 Aug/Task All 18.sol\":1595:1596  1 */\n      0x01\n        /* \"LABS 21 Aug/Task All 18.sol\":1590:1591  b */\n      dup3\n        /* \"LABS 21 Aug/Task All 18.sol\":1590:1596  b <= 1 */\n      gt\n        /* \"LABS 21 Aug/Task All 18.sol\":1586:1635  if (b <= 1) {... */\n      tag_17\n      jumpi\n        /* \"LABS 21 Aug/Task All 18.sol\":1619:1624  false */\n      0x00\n        /* \"LABS 21 Aug/Task All 18.sol\":1612:1624  return false */\n      swap1\n      pop\n      jump(tag_16)\n        /* \"LABS 21 Aug/Task All 18.sol\":1586:1635  if (b <= 1) {... */\n    tag_17:\n        /* \"LABS 21 Aug/Task All 18.sol\":1653:1654  2 */\n      0x02\n        /* \"LABS 21 Aug/Task All 18.sol\":1648:1649  b */\n      dup3\n        /* \"LABS 21 Aug/Task All 18.sol\":1648:1654  b == 2 */\n      sub\n        /* \"LABS 21 Aug/Task All 18.sol\":1644:1692  if (b == 2) {... */\n      tag_18\n      jumpi\n        /* \"LABS 21 Aug/Task All 18.sol\":1677:1681  true */\n      0x01\n        /* \"LABS 21 Aug/Task All 18.sol\":1670:1681  return true */\n      swap1\n      pop\n      jump(tag_16)\n        /* \"LABS 21 Aug/Task All 18.sol\":1644:1692  if (b == 2) {... */\n    tag_18:\n        /* \"LABS 21 Aug/Task All 18.sol\":1714:1715  0 */\n      0x00\n        /* \"LABS 21 Aug/Task All 18.sol\":1709:1710  2 */\n      0x02\n        /* \"LABS 21 Aug/Task All 18.sol\":1705:1706  b */\n      dup4\n        /* \"LABS 21 Aug/Task All 18.sol\":1705:1710  b % 2 */\n      tag_19\n      swap2\n      swap1\n      tag_20\n      jump\t// in\n    tag_19:\n        /* \"LABS 21 Aug/Task All 18.sol\":1705:1715  b % 2 == 0 */\n      sub\n        /* \"LABS 21 Aug/Task All 18.sol\":1701:1754  if (b % 2 == 0) {... */\n      tag_21\n      jumpi\n        /* \"LABS 21 Aug/Task All 18.sol\":1738:1743  false */\n      0x00\n        /* \"LABS 21 Aug/Task All 18.sol\":1731:1743  return false */\n      swap1\n      pop\n      jump(tag_16)\n        /* \"LABS 21 Aug/Task All 18.sol\":1701:1754  if (b % 2 == 0) {... */\n    tag_21:\n        /* \"LABS 21 Aug/Task All 18.sol\":1768:1777  uint256 i */\n      0x00\n        /* \"LABS 21 Aug/Task All 18.sol\":1780:1781  3 */\n      0x03\n        /* \"LABS 21 Aug/Task All 18.sol\":1768:1781  uint256 i = 3 */\n      swap1\n      pop\n        /* \"LABS 21 Aug/Task All 18.sol\":1763:1888  for (uint256 i = 3; i * i <= b; i += 2) {... */\n    tag_22:\n        /* \"LABS 21 Aug/Task All 18.sol\":1792:1793  b */\n      dup3\n        /* \"LABS 21 Aug/Task All 18.sol\":1787:1788  i */\n      dup2\n        /* \"LABS 21 Aug/Task All 18.sol\":1783:1784  i */\n      dup3\n        /* \"LABS 21 Aug/Task All 18.sol\":1783:1788  i * i */\n      tag_25\n      swap2\n      swap1\n      tag_26\n      jump\t// in\n    tag_25:\n        /* \"LABS 21 Aug/Task All 18.sol\":1783:1793  i * i <= b */\n      gt\n        /* \"LABS 21 Aug/Task All 18.sol\":1763:1888  for (uint256 i = 3; i * i <= b; i += 2) {... */\n      tag_23\n      jumpi\n        /* \"LABS 21 Aug/Task All 18.sol\":1830:1831  0 */\n      0x00\n        /* \"LABS 21 Aug/Task All 18.sol\":1825:1826  i */\n      dup2\n        /* \"LABS 21 Aug/Task All 18.sol\":1821:1822  b */\n      dup5\n        /* \"LABS 21 Aug/Task All 18.sol\":1821:1826  b % i */\n      tag_27\n      swap2\n      swap1\n      tag_20\n      jump\t// in\n    tag_27:\n        /* \"LABS 21 Aug/Task All 18.sol\":1821:1831  b % i == 0 */\n      sub\n        /* \"LABS 21 Aug/Task All 18.sol\":1817:1878  if (b % i == 0) {... */\n      tag_28\n      jumpi\n        /* \"LABS 21 Aug/Task All 18.sol\":1858:1863  false */\n      0x00\n        /* \"LABS 21 Aug/Task All 18.sol\":1851:1863  return false */\n      swap2\n      pop\n      pop\n      jump(tag_16)\n        /* \"LABS 21 Aug/Task All 18.sol\":1817:1878  if (b % i == 0) {... */\n    tag_28:\n        /* \"LABS 21 Aug/Task All 18.sol\":1800:1801  2 */\n      0x02\n        /* \"LABS 21 Aug/Task All 18.sol\":1795:1801  i += 2 */\n      dup2\n      tag_29\n      swap2\n      swap1\n      tag_30\n      jump\t// in\n    tag_29:\n      swap1\n      pop\n        /* \"LABS 21 Aug/Task All 18.sol\":1763:1888  for (uint256 i = 3; i * i <= b; i += 2) {... */\n      jump(tag_22)\n    tag_23:\n      pop\n        /* \"LABS 21 Aug/Task All 18.sol\":1904:1908  true */\n      0x01\n        /* \"LABS 21 Aug/Task All 18.sol\":1897:1908  return true */\n      swap1\n      pop\n        /* \"LABS 21 Aug/Task All 18.sol\":1519:1915  function isPrime(uint256 b) internal pure returns (bool) {... */\n    tag_16:\n      swap2\n      swap1\n      pop\n      jump\t// out\n        /* \"#utility.yul\":88:205   */\n    tag_32:\n        /* \"#utility.yul\":197:198   */\n      0x00\n        /* \"#utility.yul\":194:195   */\n      dup1\n        /* \"#utility.yul\":187:199   */\n      revert\n        /* \"#utility.yul\":334:411   */\n    tag_34:\n        /* \"#utility.yul\":371:378   */\n      0x00\n        /* \"#utility.yul\":400:405   */\n      dup2\n        /* \"#utility.yul\":389:405   */\n      swap1\n      pop\n        /* \"#utility.yul\":334:411   */\n      swap2\n      swap1\n      pop\n      jump\t// out\n        /* \"#utility.yul\":417:539   */\n    tag_35:\n        /* \"#utility.yul\":490:514   */\n      tag_50\n        /* \"#utility.yul\":508:513   */\n      dup2\n        /* \"#utility.yul\":490:514   */\n      tag_34\n      jump\t// in\n    tag_50:\n        /* \"#utility.yul\":483:488   */\n      dup2\n        /* \"#utility.yul\":480:515   */\n      eq\n        /* \"#utility.yul\":470:533   */\n      tag_51\n      jumpi\n        /* \"#utility.yul\":529:530   */\n      0x00\n        /* \"#utility.yul\":526:527   */\n      dup1\n        /* \"#utility.yul\":519:531   */\n      revert\n        /* \"#utility.yul\":470:533   */\n    tag_51:\n        /* \"#utility.yul\":417:539   */\n      pop\n      jump\t// out\n        /* \"#utility.yul\":545:684   */\n    tag_36:\n        /* \"#utility.yul\":591:596   */\n      0x00\n        /* \"#utility.yul\":629:635   */\n      dup2\n        /* \"#utility.yul\":616:636   */\n      calldataload\n        /* \"#utility.yul\":607:636   */\n      swap1\n      pop\n        /* \"#utility.yul\":645:678   */\n      tag_53\n        /* \"#utility.yul\":672:677   */\n      dup2\n        /* \"#utility.yul\":645:678   */\n      tag_35\n      jump\t// in\n    tag_53:\n        /* \"#utility.yul\":545:684   */\n      swap3\n      swap2\n      pop\n      pop\n      jump\t// out\n        /* \"#utility.yul\":690:1019   */\n    tag_6:\n        /* \"#utility.yul\":749:755   */\n      0x00\n        /* \"#utility.yul\":798:800   */\n      0x20\n        /* \"#utility.yul\":786:795   */\n      dup3\n        /* \"#utility.yul\":777:784   */\n      dup5\n        /* \"#utility.yul\":773:796   */\n      sub\n        /* \"#utility.yul\":769:801   */\n      slt\n        /* \"#utility.yul\":766:885   */\n      iszero\n      tag_55\n      jumpi\n        /* \"#utility.yul\":804:883   */\n      tag_56\n      tag_32\n      jump\t// in\n    tag_56:\n        /* \"#utility.yul\":766:885   */\n    tag_55:\n        /* \"#utility.yul\":924:925   */\n      0x00\n        /* \"#utility.yul\":949:1002   */\n      tag_57\n        /* \"#utility.yul\":994:1001   */\n      dup5\n        /* \"#utility.yul\":985:991   */\n      dup3\n        /* \"#utility.yul\":974:983   */\n      dup6\n        /* \"#utility.yul\":970:992   */\n      add\n        /* \"#utility.yul\":949:1002   */\n      tag_36\n      jump\t// in\n    tag_57:\n        /* \"#utility.yul\":939:1002   */\n      swap2\n      pop\n        /* \"#utility.yul\":895:1012   */\n      pop\n        /* \"#utility.yul\":690:1019   */\n      swap3\n      swap2\n      pop\n      pop\n      jump\t// out\n        /* \"#utility.yul\":1025:1115   */\n    tag_37:\n        /* \"#utility.yul\":1059:1066   */\n      0x00\n        /* \"#utility.yul\":1102:1107   */\n      dup2\n        /* \"#utility.yul\":1095:1108   */\n      iszero\n        /* \"#utility.yul\":1088:1109   */\n      iszero\n        /* \"#utility.yul\":1077:1109   */\n      swap1\n      pop\n        /* \"#utility.yul\":1025:1115   */\n      swap2\n      swap1\n      pop\n      jump\t// out\n        /* \"#utility.yul\":1121:1230   */\n    tag_38:\n        /* \"#utility.yul\":1202:1223   */\n      tag_60\n        /* \"#utility.yul\":1217:1222   */\n      dup2\n        /* \"#utility.yul\":1202:1223   */\n      tag_37\n      jump\t// in\n    tag_60:\n        /* \"#utility.yul\":1197:1200   */\n      dup3\n        /* \"#utility.yul\":1190:1224   */\n      mstore\n        /* \"#utility.yul\":1121:1230   */\n      pop\n      pop\n      jump\t// out\n        /* \"#utility.yul\":1236:1446   */\n    tag_9:\n        /* \"#utility.yul\":1323:1327   */\n      0x00\n        /* \"#utility.yul\":1361:1363   */\n      0x20\n        /* \"#utility.yul\":1350:1359   */\n      dup3\n        /* \"#utility.yul\":1346:1364   */\n      add\n        /* \"#utility.yul\":1338:1364   */\n      swap1\n      pop\n        /* \"#utility.yul\":1374:1439   */\n      tag_62\n        /* \"#utility.yul\":1436:1437   */\n      0x00\n        /* \"#utility.yul\":1425:1434   */\n      dup4\n        /* \"#utility.yul\":1421:1438   */\n      add\n        /* \"#utility.yul\":1412:1418   */\n      dup5\n        /* \"#utility.yul\":1374:1439   */\n      tag_38\n      jump\t// in\n    tag_62:\n        /* \"#utility.yul\":1236:1446   */\n      swap3\n      swap2\n      pop\n      pop\n      jump\t// out\n        /* \"#utility.yul\":1452:1621   */\n    tag_39:\n        /* \"#utility.yul\":1536:1547   */\n      0x00\n        /* \"#utility.yul\":1570:1576   */\n      dup3\n        /* \"#utility.yul\":1565:1568   */\n      dup3\n        /* \"#utility.yul\":1558:1577   */\n      mstore\n        /* \"#utility.yul\":1610:1614   */\n      0x20\n        /* \"#utility.yul\":1605:1608   */\n      dup3\n        /* \"#utility.yul\":1601:1615   */\n      add\n        /* \"#utility.yul\":1586:1615   */\n      swap1\n      pop\n        /* \"#utility.yul\":1452:1621   */\n      swap3\n      swap2\n      pop\n      pop\n      jump\t// out\n        /* \"#utility.yul\":1627:1791   */\n    tag_40:\n        /* \"#utility.yul\":1767:1783   */\n      0x5570732120526576657274696e67000000000000000000000000000000000000\n        /* \"#utility.yul\":1763:1764   */\n      0x00\n        /* \"#utility.yul\":1755:1761   */\n      dup3\n        /* \"#utility.yul\":1751:1765   */\n      add\n        /* \"#utility.yul\":1744:1784   */\n      mstore\n        /* \"#utility.yul\":1627:1791   */\n      pop\n      jump\t// out\n        /* \"#utility.yul\":1797:2163   */\n    tag_41:\n        /* \"#utility.yul\":1939:1942   */\n      0x00\n        /* \"#utility.yul\":1960:2027   */\n      tag_66\n        /* \"#utility.yul\":2024:2026   */\n      0x0e\n        /* \"#utility.yul\":2019:2022   */\n      dup4\n        /* \"#utility.yul\":1960:2027   */\n      tag_39\n      jump\t// in\n    tag_66:\n        /* \"#utility.yul\":1953:2027   */\n      swap2\n      pop\n        /* \"#utility.yul\":2036:2129   */\n      tag_67\n        /* \"#utility.yul\":2125:2128   */\n      dup3\n        /* \"#utility.yul\":2036:2129   */\n      tag_40\n      jump\t// in\n    tag_67:\n        /* \"#utility.yul\":2154:2156   */\n      0x20\n        /* \"#utility.yul\":2149:2152   */\n      dup3\n        /* \"#utility.yul\":2145:2157   */\n      add\n        /* \"#utility.yul\":2138:2157   */\n      swap1\n      pop\n        /* \"#utility.yul\":1797:2163   */\n      swap2\n      swap1\n      pop\n      jump\t// out\n        /* \"#utility.yul\":2169:2588   */\n    tag_15:\n        /* \"#utility.yul\":2335:2339   */\n      0x00\n        /* \"#utility.yul\":2373:2375   */\n      0x20\n        /* \"#utility.yul\":2362:2371   */\n      dup3\n        /* \"#utility.yul\":2358:2376   */\n      add\n        /* \"#utility.yul\":2350:2376   */\n      swap1\n      pop\n        /* \"#utility.yul\":2422:2431   */\n      dup2\n        /* \"#utility.yul\":2416:2420   */\n      dup2\n        /* \"#utility.yul\":2412:2432   */\n      sub\n        /* \"#utility.yul\":2408:2409   */\n      0x00\n        /* \"#utility.yul\":2397:2406   */\n      dup4\n        /* \"#utility.yul\":2393:2410   */\n      add\n        /* \"#utility.yul\":2386:2433   */\n      mstore\n        /* \"#utility.yul\":2450:2581   */\n      tag_69\n        /* \"#utility.yul\":2576:2580   */\n      dup2\n        /* \"#utility.yul\":2450:2581   */\n      tag_41\n      jump\t// in\n    tag_69:\n        /* \"#utility.yul\":2442:2581   */\n      swap1\n      pop\n        /* \"#utility.yul\":2169:2588   */\n      swap2\n      swap1\n      pop\n      jump\t// out\n        /* \"#utility.yul\":2594:2774   */\n    tag_42:\n        /* \"#utility.yul\":2642:2719   */\n      0x4e487b7100000000000000000000000000000000000000000000000000000000\n        /* \"#utility.yul\":2639:2640   */\n      0x00\n        /* \"#utility.yul\":2632:2720   */\n      mstore\n        /* \"#utility.yul\":2739:2743   */\n      0x12\n        /* \"#utility.yul\":2736:2737   */\n      0x04\n        /* \"#utility.yul\":2729:2744   */\n      mstore\n        /* \"#utility.yul\":2763:2767   */\n      0x24\n        /* \"#utility.yul\":2760:2761   */\n      0x00\n        /* \"#utility.yul\":2753:2768   */\n      revert\n        /* \"#utility.yul\":2780:2956   */\n    tag_20:\n        /* \"#utility.yul\":2812:2813   */\n      0x00\n        /* \"#utility.yul\":2829:2849   */\n      tag_72\n        /* \"#utility.yul\":2847:2848   */\n      dup3\n        /* \"#utility.yul\":2829:2849   */\n      tag_34\n      jump\t// in\n    tag_72:\n        /* \"#utility.yul\":2824:2849   */\n      swap2\n      pop\n        /* \"#utility.yul\":2863:2883   */\n      tag_73\n        /* \"#utility.yul\":2881:2882   */\n      dup4\n        /* \"#utility.yul\":2863:2883   */\n      tag_34\n      jump\t// in\n    tag_73:\n        /* \"#utility.yul\":2858:2883   */\n      swap3\n      pop\n        /* \"#utility.yul\":2902:2903   */\n      dup3\n        /* \"#utility.yul\":2892:2927   */\n      tag_74\n      jumpi\n        /* \"#utility.yul\":2907:2925   */\n      tag_75\n      tag_42\n      jump\t// in\n    tag_75:\n        /* \"#utility.yul\":2892:2927   */\n    tag_74:\n        /* \"#utility.yul\":2948:2949   */\n      dup3\n        /* \"#utility.yul\":2945:2946   */\n      dup3\n        /* \"#utility.yul\":2941:2950   */\n      mod\n        /* \"#utility.yul\":2936:2950   */\n      swap1\n      pop\n        /* \"#utility.yul\":2780:2956   */\n      swap3\n      swap2\n      pop\n      pop\n      jump\t// out\n        /* \"#utility.yul\":2962:3142   */\n    tag_43:\n        /* \"#utility.yul\":3010:3087   */\n      0x4e487b7100000000000000000000000000000000000000000000000000000000\n        /* \"#utility.yul\":3007:3008   */\n      0x00\n        /* \"#utility.yul\":3000:3088   */\n      mstore\n        /* \"#utility.yul\":3107:3111   */\n      0x11\n        /* \"#utility.yul\":3104:3105   */\n      0x04\n        /* \"#utility.yul\":3097:3112   */\n      mstore\n        /* \"#utility.yul\":3131:3135   */\n      0x24\n        /* \"#utility.yul\":3128:3129   */\n      0x00\n        /* \"#utility.yul\":3121:3136   */\n      revert\n        /* \"#utility.yul\":3148:3558   */\n    tag_26:\n        /* \"#utility.yul\":3188:3195   */\n      0x00\n        /* \"#utility.yul\":3211:3231   */\n      tag_78\n        /* \"#utility.yul\":3229:3230   */\n      dup3\n        /* \"#utility.yul\":3211:3231   */\n      tag_34\n      jump\t// in\n    tag_78:\n        /* \"#utility.yul\":3206:3231   */\n      swap2\n      pop\n        /* \"#utility.yul\":3245:3265   */\n      tag_79\n        /* \"#utility.yul\":3263:3264   */\n      dup4\n        /* \"#utility.yul\":3245:3265   */\n      tag_34\n      jump\t// in\n    tag_79:\n        /* \"#utility.yul\":3240:3265   */\n      swap3\n      pop\n        /* \"#utility.yul\":3300:3301   */\n      dup3\n        /* \"#utility.yul\":3297:3298   */\n      dup3\n        /* \"#utility.yul\":3293:3302   */\n      mul\n        /* \"#utility.yul\":3322:3352   */\n      tag_80\n        /* \"#utility.yul\":3340:3351   */\n      dup2\n        /* \"#utility.yul\":3322:3352   */\n      tag_34\n      jump\t// in\n    tag_80:\n        /* \"#utility.yul\":3311:3352   */\n      swap2\n      pop\n        /* \"#utility.yul\":3501:3502   */\n      dup3\n        /* \"#utility.yul\":3492:3499   */\n      dup3\n        /* \"#utility.yul\":3488:3503   */\n      div\n        /* \"#utility.yul\":3485:3486   */\n      dup5\n        /* \"#utility.yul\":3482:3504   */\n      eq\n        /* \"#utility.yul\":3462:3463   */\n      dup4\n        /* \"#utility.yul\":3455:3464   */\n      iszero\n        /* \"#utility.yul\":3435:3518   */\n      or\n        /* \"#utility.yul\":3412:3551   */\n      tag_81\n      jumpi\n        /* \"#utility.yul\":3531:3549   */\n      tag_82\n      tag_43\n      jump\t// in\n    tag_82:\n        /* \"#utility.yul\":3412:3551   */\n    tag_81:\n        /* \"#utility.yul\":3196:3558   */\n      pop\n        /* \"#utility.yul\":3148:3558   */\n      swap3\n      swap2\n      pop\n      pop\n      jump\t// out\n        /* \"#utility.yul\":3564:3755   */\n    tag_30:\n        /* \"#utility.yul\":3604:3607   */\n      0x00\n        /* \"#utility.yul\":3623:3643   */\n      tag_84\n        /* \"#utility.yul\":3641:3642   */\n      dup3\n        /* \"#utility.yul\":3623:3643   */\n      tag_34\n      jump\t// in\n    tag_84:\n        /* \"#utility.yul\":3618:3643   */\n      swap2\n      pop\n        /* \"#utility.yul\":3657:3677   */\n      tag_85\n        /* \"#utility.yul\":3675:3676   */\n      dup4\n        /* \"#utility.yul\":3657:3677   */\n      tag_34\n      jump\t// in\n    tag_85:\n        /* \"#utility.yul\":3652:3677   */\n      swap3\n      pop\n        /* \"#utility.yul\":3700:3701   */\n      dup3\n        /* \"#utility.yul\":3697:3698   */\n      dup3\n        /* \"#utility.yul\":3693:3702   */\n      add\n        /* \"#utility.yul\":3686:3702   */\n      swap1\n      pop\n        /* \"#utility.yul\":3721:3724   */\n      dup1\n        /* \"#utility.yul\":3718:3719   */\n      dup3\n        /* \"#utility.yul\":3715:3725   */\n      gt\n        /* \"#utility.yul\":3712:3748   */\n      iszero\n      tag_86\n      jumpi\n        /* \"#utility.yul\":3728:3746   */\n      tag_87\n      tag_43\n      jump\t// in\n    tag_87:\n        /* \"#utility.yul\":3712:3748   */\n    tag_86:\n        /* \"#utility.yul\":3564:3755   */\n      swap3\n      swap2\n      pop\n      pop\n      jump\t// out\n\n    auxdata: 0xa2646970667358221220858e3ef5e716dca75d2accab43aae86b5c3699b91f12f25c6b2d573252d3de5964736f6c63430008120033\n}\n",
				"bytecode": {
					"linkReferences": {},
					"object": "608060405234801561001057600080fd5b5060405161054e38038061054e833981810160405281019061003291906100c7565b60008103610075576040517f08c379a000000000000000000000000000000000000000000000000000000000815260040161006c90610151565b60405180910390fd5b6001810361008657610085610171565b5b506101a0565b600080fd5b6000819050919050565b6100a481610091565b81146100af57600080fd5b50565b6000815190506100c18161009b565b92915050565b6000602082840312156100dd576100dc61008c565b5b60006100eb848285016100b2565b91505092915050565b600082825260208201905092915050565b7f496e76616c696420456e74727900000000000000000000000000000000000000600082015250565b600061013b600d836100f4565b915061014682610105565b602082019050919050565b6000602082019050818103600083015261016a8161012e565b9050919050565b7f4e487b7100000000000000000000000000000000000000000000000000000000600052600160045260246000fd5b61039f806101af6000396000f3fe608060405234801561001057600080fd5b506004361061002b5760003560e01c806305f5b3eb14610030575b600080fd5b61004a60048036038101906100459190610184565b610060565b60405161005791906101cc565b60405180910390f35b600061006b826100b3565b6100aa576040517f08c379a00000000000000000000000000000000000000000000000000000000081526004016100a190610244565b60405180910390fd5b60019050919050565b6000600182116100c65760009050610144565b600282036100d75760019050610144565b60006002836100e69190610293565b036100f45760009050610144565b6000600390505b82818261010891906102f3565b1161013e576000818461011b9190610293565b0361012a576000915050610144565b6002816101379190610335565b90506100fb565b50600190505b919050565b600080fd5b6000819050919050565b6101618161014e565b811461016c57600080fd5b50565b60008135905061017e81610158565b92915050565b60006020828403121561019a57610199610149565b5b60006101a88482850161016f565b91505092915050565b60008115159050919050565b6101c6816101b1565b82525050565b60006020820190506101e160008301846101bd565b92915050565b600082825260208201905092915050565b7f5570732120526576657274696e67000000000000000000000000000000000000600082015250565b600061022e600e836101e7565b9150610239826101f8565b602082019050919050565b6000602082019050818103600083015261025d81610221565b9050919050565b7f4e487b7100000000000000000000000000000000000000000000000000000000600052601260045260246000fd5b600061029e8261014e565b91506102a98361014e565b9250826102b9576102b8610264565b5b828206905092915050565b7f4e487b7100000000000000000000000000000000000000000000000000000000600052601160045260246000fd5b60006102fe8261014e565b91506103098361014e565b92508282026103178161014e565b9150828204841483151761032e5761032d6102c4565b5b5092915050565b60006103408261014e565b915061034b8361014e565b9250828201905080821115610363576103626102c4565b5b9291505056fea2646970667358221220858e3ef5e716dca75d2accab43aae86b5c3699b91f12f25c6b2d573252d3de5964736f6c63430008120033",
					"opcodes": "PUSH1 0x80 PUSH1 0x40 MSTORE CALLVALUE DUP1 ISZERO PUSH2 0x10 JUMPI PUSH1 0x0 DUP1 REVERT JUMPDEST POP PUSH1 0x40 MLOAD PUSH2 0x54E CODESIZE SUB DUP1 PUSH2 0x54E DUP4 CODECOPY DUP2 DUP2 ADD PUSH1 0x40 MSTORE DUP2 ADD SWAP1 PUSH2 0x32 SWAP2 SWAP1 PUSH2 0xC7 JUMP JUMPDEST PUSH1 0x0 DUP2 SUB PUSH2 0x75 JUMPI PUSH1 0x40 MLOAD PUSH32 0x8C379A000000000000000000000000000000000000000000000000000000000 DUP2 MSTORE PUSH1 0x4 ADD PUSH2 0x6C SWAP1 PUSH2 0x151 JUMP JUMPDEST PUSH1 0x40 MLOAD DUP1 SWAP2 SUB SWAP1 REVERT JUMPDEST PUSH1 0x1 DUP2 SUB PUSH2 0x86 JUMPI PUSH2 0x85 PUSH2 0x171 JUMP JUMPDEST JUMPDEST POP PUSH2 0x1A0 JUMP JUMPDEST PUSH1 0x0 DUP1 REVERT JUMPDEST PUSH1 0x0 DUP2 SWAP1 POP SWAP2 SWAP1 POP JUMP JUMPDEST PUSH2 0xA4 DUP2 PUSH2 0x91 JUMP JUMPDEST DUP2 EQ PUSH2 0xAF JUMPI PUSH1 0x0 DUP1 REVERT JUMPDEST POP JUMP JUMPDEST PUSH1 0x0 DUP2 MLOAD SWAP1 POP PUSH2 0xC1 DUP2 PUSH2 0x9B JUMP JUMPDEST SWAP3 SWAP2 POP POP JUMP JUMPDEST PUSH1 0x0 PUSH1 0x20 DUP3 DUP5 SUB SLT ISZERO PUSH2 0xDD JUMPI PUSH2 0xDC PUSH2 0x8C JUMP JUMPDEST JUMPDEST PUSH1 0x0 PUSH2 0xEB DUP5 DUP3 DUP6 ADD PUSH2 0xB2 JUMP JUMPDEST SWAP2 POP POP SWAP3 SWAP2 POP POP JUMP JUMPDEST PUSH1 0x0 DUP3 DUP3 MSTORE PUSH1 0x20 DUP3 ADD SWAP1 POP SWAP3 SWAP2 POP POP JUMP JUMPDEST PUSH32 0x496E76616C696420456E74727900000000000000000000000000000000000000 PUSH1 0x0 DUP3 ADD MSTORE POP JUMP JUMPDEST PUSH1 0x0 PUSH2 0x13B PUSH1 0xD DUP4 PUSH2 0xF4 JUMP JUMPDEST SWAP2 POP PUSH2 0x146 DUP3 PUSH2 0x105 JUMP JUMPDEST PUSH1 0x20 DUP3 ADD SWAP1 POP SWAP2 SWAP1 POP JUMP JUMPDEST PUSH1 0x0 PUSH1 0x20 DUP3 ADD SWAP1 POP DUP2 DUP2 SUB PUSH1 0x0 DUP4 ADD MSTORE PUSH2 0x16A DUP2 PUSH2 0x12E JUMP JUMPDEST SWAP1 POP SWAP2 SWAP1 POP JUMP JUMPDEST PUSH32 0x4E487B7100000000000000000000000000000000000000000000000000000000 PUSH1 0x0 MSTORE PUSH1 0x1 PUSH1 0x4 MSTORE PUSH1 0x24 PUSH1 0x0 REVERT JUMPDEST PUSH2 0x39F DUP1 PUSH2 0x1AF PUSH1 0x0 CODECOPY PUSH1 0x0 RETURN INVALID PUSH1 0x80 PUSH1 0x40 MSTORE CALLVALUE DUP1 ISZERO PUSH2 0x10 JUMPI PUSH1 0x0 DUP1 REVERT JUMPDEST POP PUSH1 0x4 CALLDATASIZE LT PUSH2 0x2B JUMPI PUSH1 0x0 CALLDATALOAD PUSH1 0xE0 SHR DUP1 PUSH4 0x5F5B3EB EQ PUSH2 0x30 JUMPI JUMPDEST PUSH1 0x0 DUP1 REVERT JUMPDEST PUSH2 0x4A PUSH1 0x4 DUP1 CALLDATASIZE SUB DUP2 ADD SWAP1 PUSH2 0x45 SWAP2 SWAP1 PUSH2 0x184 JUMP JUMPDEST PUSH2 0x60 JUMP JUMPDEST PUSH1 0x40 MLOAD PUSH2 0x57 SWAP2 SWAP1 PUSH2 0x1CC JUMP JUMPDEST PUSH1 0x40 MLOAD DUP1 SWAP2 SUB SWAP1 RETURN JUMPDEST PUSH1 0x0 PUSH2 0x6B DUP3 PUSH2 0xB3 JUMP JUMPDEST PUSH2 0xAA JUMPI PUSH1 0x40 MLOAD PUSH32 0x8C379A000000000000000000000000000000000000000000000000000000000 DUP2 MSTORE PUSH1 0x4 ADD PUSH2 0xA1 SWAP1 PUSH2 0x244 JUMP JUMPDEST PUSH1 0x40 MLOAD DUP1 SWAP2 SUB SWAP1 REVERT JUMPDEST PUSH1 0x1 SWAP1 POP SWAP2 SWAP1 POP JUMP JUMPDEST PUSH1 0x0 PUSH1 0x1 DUP3 GT PUSH2 0xC6 JUMPI PUSH1 0x0 SWAP1 POP PUSH2 0x144 JUMP JUMPDEST PUSH1 0x2 DUP3 SUB PUSH2 0xD7 JUMPI PUSH1 0x1 SWAP1 POP PUSH2 0x144 JUMP JUMPDEST PUSH1 0x0 PUSH1 0x2 DUP4 PUSH2 0xE6 SWAP2 SWAP1 PUSH2 0x293 JUMP JUMPDEST SUB PUSH2 0xF4 JUMPI PUSH1 0x0 SWAP1 POP PUSH2 0x144 JUMP JUMPDEST PUSH1 0x0 PUSH1 0x3 SWAP1 POP JUMPDEST DUP3 DUP2 DUP3 PUSH2 0x108 SWAP2 SWAP1 PUSH2 0x2F3 JUMP JUMPDEST GT PUSH2 0x13E JUMPI PUSH1 0x0 DUP2 DUP5 PUSH2 0x11B SWAP2 SWAP1 PUSH2 0x293 JUMP JUMPDEST SUB PUSH2 0x12A JUMPI PUSH1 0x0 SWAP2 POP POP PUSH2 0x144 JUMP JUMPDEST PUSH1 0x2 DUP2 PUSH2 0x137 SWAP2 SWAP1 PUSH2 0x335 JUMP JUMPDEST SWAP1 POP PUSH2 0xFB JUMP JUMPDEST POP PUSH1 0x1 SWAP1 POP JUMPDEST SWAP2 SWAP1 POP JUMP JUMPDEST PUSH1 0x0 DUP1 REVERT JUMPDEST PUSH1 0x0 DUP2 SWAP1 POP SWAP2 SWAP1 POP JUMP JUMPDEST PUSH2 0x161 DUP2 PUSH2 0x14E JUMP JUMPDEST DUP2 EQ PUSH2 0x16C JUMPI PUSH1 0x0 DUP1 REVERT JUMPDEST POP JUMP JUMPDEST PUSH1 0x0 DUP2 CALLDATALOAD SWAP1 POP PUSH2 0x17E DUP2 PUSH2 0x158 JUMP JUMPDEST SWAP3 SWAP2 POP POP JUMP JUMPDEST PUSH1 0x0 PUSH1 0x20 DUP3 DUP5 SUB SLT ISZERO PUSH2 0x19A JUMPI PUSH2 0x199 PUSH2 0x149 JUMP JUMPDEST JUMPDEST PUSH1 0x0 PUSH2 0x1A8 DUP5 DUP3 DUP6 ADD PUSH2 0x16F JUMP JUMPDEST SWAP2 POP POP SWAP3 SWAP2 POP POP JUMP JUMPDEST PUSH1 0x0 DUP2 ISZERO ISZERO SWAP1 POP SWAP2 SWAP1 POP JUMP JUMPDEST PUSH2 0x1C6 DUP2 PUSH2 0x1B1 JUMP JUMPDEST DUP3 MSTORE POP POP JUMP JUMPDEST PUSH1 0x0 PUSH1 0x20 DUP3 ADD SWAP1 POP PUSH2 0x1E1 PUSH1 0x0 DUP4 ADD DUP5 PUSH2 0x1BD JUMP JUMPDEST SWAP3 SWAP2 POP POP JUMP JUMPDEST PUSH1 0x0 DUP3 DUP3 MSTORE PUSH1 0x20 DUP3 ADD SWAP1 POP SWAP3 SWAP2 POP POP JUMP JUMPDEST PUSH32 0x5570732120526576657274696E67000000000000000000000000000000000000 PUSH1 0x0 DUP3 ADD MSTORE POP JUMP JUMPDEST PUSH1 0x0 PUSH2 0x22E PUSH1 0xE DUP4 PUSH2 0x1E7 JUMP JUMPDEST SWAP2 POP PUSH2 0x239 DUP3 PUSH2 0x1F8 JUMP JUMPDEST PUSH1 0x20 DUP3 ADD SWAP1 POP SWAP2 SWAP1 POP JUMP JUMPDEST PUSH1 0x0 PUSH1 0x20 DUP3 ADD SWAP1 POP DUP2 DUP2 SUB PUSH1 0x0 DUP4 ADD MSTORE PUSH2 0x25D DUP2 PUSH2 0x221 JUMP JUMPDEST SWAP1 POP SWAP2 SWAP1 POP JUMP JUMPDEST PUSH32 0x4E487B7100000000000000000000000000000000000000000000000000000000 PUSH1 0x0 MSTORE PUSH1 0x12 PUSH1 0x4 MSTORE PUSH1 0x24 PUSH1 0x0 REVERT JUMPDEST PUSH1 0x0 PUSH2 0x29E DUP3 PUSH2 0x14E JUMP JUMPDEST SWAP2 POP PUSH2 0x2A9 DUP4 PUSH2 0x14E JUMP JUMPDEST SWAP3 POP DUP3 PUSH2 0x2B9 JUMPI PUSH2 0x2B8 PUSH2 0x264 JUMP JUMPDEST JUMPDEST DUP3 DUP3 MOD SWAP1 POP SWAP3 SWAP2 POP POP JUMP JUMPDEST PUSH32 0x4E487B7100000000000000000000000000000000000000000000000000000000 PUSH1 0x0 MSTORE PUSH1 0x11 PUSH1 0x4 MSTORE PUSH1 0x24 PUSH1 0x0 REVERT JUMPDEST PUSH1 0x0 PUSH2 0x2FE DUP3 PUSH2 0x14E JUMP JUMPDEST SWAP2 POP PUSH2 0x309 DUP4 PUSH2 0x14E JUMP JUMPDEST SWAP3 POP DUP3 DUP3 MUL PUSH2 0x317 DUP2 PUSH2 0x14E JUMP JUMPDEST SWAP2 POP DUP3 DUP3 DIV DUP5 EQ DUP4 ISZERO OR PUSH2 0x32E JUMPI PUSH2 0x32D PUSH2 0x2C4 JUMP JUMPDEST JUMPDEST POP SWAP3 SWAP2 POP POP JUMP JUMPDEST PUSH1 0x0 PUSH2 0x340 DUP3 PUSH2 0x14E JUMP JUMPDEST SWAP2 POP PUSH2 0x34B DUP4 PUSH2 0x14E JUMP JUMPDEST SWAP3 POP DUP3 DUP3 ADD SWAP1 POP DUP1 DUP3 GT ISZERO PUSH2 0x363 JUMPI PUSH2 0x362 PUSH2 0x2C4 JUMP JUMPDEST JUMPDEST SWAP3 SWAP2 POP POP JUMP INVALID LOG2 PUSH5 0x6970667358 0x22 SLT KECCAK256 DUP6 DUP15 RETURNDATACOPY CREATE2 0xE7 AND 0xDC 0xA7 0x5D 0x2A 0xCC 0xAB NUMBER 0xAA 0xE8 PUSH12 0x5C3699B91F12F25C6B2D5732 MSTORE 0xD3 0xDE MSIZE PUSH5 0x736F6C6343 STOP ADDMOD SLT STOP CALLER "
				},
				"gasEstimates": {
					"creation": {
						"codeDepositCost": "185400",
						"executionCost": "infinite",
						"totalCost": "infinite"
					},
					"external": {
						"onlyPrime(uint256)": "infinite"
					},
					"internal": {
						"isPrime(uint256)": "infinite"
					}
				},
				"methodIdentifiers": {
					"onlyPrime(uint256)": "05f5b3eb"
				}
			},
			"storageLayout": {
				"storage": [],
				"types": null
			},
			"userdoc": {
				"kind": "user",
				"methods": {},
				"version": 1
			}
		}
	}
}