{
	"data": {
		"bytecode": {
			"linkReferences": {},
			"object": "60806040526002600060016101000a81548160ff0219169083600381111561002a57610029610041565b5b021790555034801561003b57600080fd5b50610070565b7f4e487b7100000000000000000000000000000000000000000000000000000000600052602160045260246000fd5b6102818061007f6000396000f3fe608060405234801561001057600080fd5b50600436106100575760003560e01c8063552670ff1461005c57806356800b521461006657806376c3774b14610084578063a2c2d6661461008e578063ea70a017146100ac575b600080fd5b6100646100b6565b005b61006e61011c565b60405161007b9190610230565b60405180910390f35b61008c61012f565b005b610096610195565b6040516100a39190610230565b60405180910390f35b6100b46101a6565b005b600060038111156100ca576100c96101b9565b5b60008054906101000a900460ff1660038111156100ea576100e96101b9565b5b0361011a5760026000806101000a81548160ff02191690836003811115610114576101136101b9565b5b02179055505b565b600060019054906101000a900460ff1681565b60016003811115610143576101426101b9565b5b60008054906101000a900460ff166003811115610163576101626101b9565b5b036101935760036000806101000a81548160ff0219169083600381111561018d5761018c6101b9565b5b02179055505b565b60008054906101000a900460ff1681565b6000806101000a81549060ff0219169055565b7f4e487b7100000000000000000000000000000000000000000000000000000000600052602160045260246000fd5b600481106101f9576101f86101b9565b5b50565b600081905061020a826101e8565b919050565b600061021a826101fc565b9050919050565b61022a8161020f565b82525050565b60006020820190506102456000830184610221565b9291505056fea2646970667358221220739cf61b45f9da2db78c4b0e1a4fd21b9a41781f99c900570fd00425d4a2c8eb64736f6c63430008120033",
			"opcodes": "PUSH1 0x80 PUSH1 0x40 MSTORE PUSH1 0x2 PUSH1 0x0 PUSH1 0x1 PUSH2 0x100 EXP DUP2 SLOAD DUP2 PUSH1 0xFF MUL NOT AND SWAP1 DUP4 PUSH1 0x3 DUP2 GT ISZERO PUSH2 0x2A JUMPI PUSH2 0x29 PUSH2 0x41 JUMP JUMPDEST JUMPDEST MUL OR SWAP1 SSTORE POP CALLVALUE DUP1 ISZERO PUSH2 0x3B JUMPI PUSH1 0x0 DUP1 REVERT JUMPDEST POP PUSH2 0x70 JUMP JUMPDEST PUSH32 0x4E487B7100000000000000000000000000000000000000000000000000000000 PUSH1 0x0 MSTORE PUSH1 0x21 PUSH1 0x4 MSTORE PUSH1 0x24 PUSH1 0x0 REVERT JUMPDEST PUSH2 0x281 DUP1 PUSH2 0x7F PUSH1 0x0 CODECOPY PUSH1 0x0 RETURN INVALID PUSH1 0x80 PUSH1 0x40 MSTORE CALLVALUE DUP1 ISZERO PUSH2 0x10 JUMPI PUSH1 0x0 DUP1 REVERT JUMPDEST POP PUSH1 0x4 CALLDATASIZE LT PUSH2 0x57 JUMPI PUSH1 0x0 CALLDATALOAD PUSH1 0xE0 SHR DUP1 PUSH4 0x552670FF EQ PUSH2 0x5C JUMPI DUP1 PUSH4 0x56800B52 EQ PUSH2 0x66 JUMPI DUP1 PUSH4 0x76C3774B EQ PUSH2 0x84 JUMPI DUP1 PUSH4 0xA2C2D666 EQ PUSH2 0x8E JUMPI DUP1 PUSH4 0xEA70A017 EQ PUSH2 0xAC JUMPI JUMPDEST PUSH1 0x0 DUP1 REVERT JUMPDEST PUSH2 0x64 PUSH2 0xB6 JUMP JUMPDEST STOP JUMPDEST PUSH2 0x6E PUSH2 0x11C JUMP JUMPDEST PUSH1 0x40 MLOAD PUSH2 0x7B SWAP2 SWAP1 PUSH2 0x230 JUMP JUMPDEST PUSH1 0x40 MLOAD DUP1 SWAP2 SUB SWAP1 RETURN JUMPDEST PUSH2 0x8C PUSH2 0x12F JUMP JUMPDEST STOP JUMPDEST PUSH2 0x96 PUSH2 0x195 JUMP JUMPDEST PUSH1 0x40 MLOAD PUSH2 0xA3 SWAP2 SWAP1 PUSH2 0x230 JUMP JUMPDEST PUSH1 0x40 MLOAD DUP1 SWAP2 SUB SWAP1 RETURN JUMPDEST PUSH2 0xB4 PUSH2 0x1A6 JUMP JUMPDEST STOP JUMPDEST PUSH1 0x0 PUSH1 0x3 DUP2 GT ISZERO PUSH2 0xCA JUMPI PUSH2 0xC9 PUSH2 0x1B9 JUMP JUMPDEST JUMPDEST PUSH1 0x0 DUP1 SLOAD SWAP1 PUSH2 0x100 EXP SWAP1 DIV PUSH1 0xFF AND PUSH1 0x3 DUP2 GT ISZERO PUSH2 0xEA JUMPI PUSH2 0xE9 PUSH2 0x1B9 JUMP JUMPDEST JUMPDEST SUB PUSH2 0x11A JUMPI PUSH1 0x2 PUSH1 0x0 DUP1 PUSH2 0x100 EXP DUP2 SLOAD DUP2 PUSH1 0xFF MUL NOT AND SWAP1 DUP4 PUSH1 0x3 DUP2 GT ISZERO PUSH2 0x114 JUMPI PUSH2 0x113 PUSH2 0x1B9 JUMP JUMPDEST JUMPDEST MUL OR SWAP1 SSTORE POP JUMPDEST JUMP JUMPDEST PUSH1 0x0 PUSH1 0x1 SWAP1 SLOAD SWAP1 PUSH2 0x100 EXP SWAP1 DIV PUSH1 0xFF AND DUP2 JUMP JUMPDEST PUSH1 0x1 PUSH1 0x3 DUP2 GT ISZERO PUSH2 0x143 JUMPI PUSH2 0x142 PUSH2 0x1B9 JUMP JUMPDEST JUMPDEST PUSH1 0x0 DUP1 SLOAD SWAP1 PUSH2 0x100 EXP SWAP1 DIV PUSH1 0xFF AND PUSH1 0x3 DUP2 GT ISZERO PUSH2 0x163 JUMPI PUSH2 0x162 PUSH2 0x1B9 JUMP JUMPDEST JUMPDEST SUB PUSH2 0x193 JUMPI PUSH1 0x3 PUSH1 0x0 DUP1 PUSH2 0x100 EXP DUP2 SLOAD DUP2 PUSH1 0xFF MUL NOT AND SWAP1 DUP4 PUSH1 0x3 DUP2 GT ISZERO PUSH2 0x18D JUMPI PUSH2 0x18C PUSH2 0x1B9 JUMP JUMPDEST JUMPDEST MUL OR SWAP1 SSTORE POP JUMPDEST JUMP JUMPDEST PUSH1 0x0 DUP1 SLOAD SWAP1 PUSH2 0x100 EXP SWAP1 DIV PUSH1 0xFF AND DUP2 JUMP JUMPDEST PUSH1 0x0 DUP1 PUSH2 0x100 EXP DUP2 SLOAD SWAP1 PUSH1 0xFF MUL NOT AND SWAP1 SSTORE JUMP JUMPDEST PUSH32 0x4E487B7100000000000000000000000000000000000000000000000000000000 PUSH1 0x0 MSTORE PUSH1 0x21 PUSH1 0x4 MSTORE PUSH1 0x24 PUSH1 0x0 REVERT JUMPDEST PUSH1 0x4 DUP2 LT PUSH2 0x1F9 JUMPI PUSH2 0x1F8 PUSH2 0x1B9 JUMP JUMPDEST JUMPDEST POP JUMP JUMPDEST PUSH1 0x0 DUP2 SWAP1 POP PUSH2 0x20A DUP3 PUSH2 0x1E8 JUMP JUMPDEST SWAP2 SWAP1 POP JUMP JUMPDEST PUSH1 0x0 PUSH2 0x21A DUP3 PUSH2 0x1FC JUMP JUMPDEST SWAP1 POP SWAP2 SWAP1 POP JUMP JUMPDEST PUSH2 0x22A DUP2 PUSH2 0x20F JUMP JUMPDEST DUP3 MSTORE POP POP JUMP JUMPDEST PUSH1 0x0 PUSH1 0x20 DUP3 ADD SWAP1 POP PUSH2 0x245 PUSH1 0x0 DUP4 ADD DUP5 PUSH2 0x221 JUMP JUMPDEST SWAP3 SWAP2 POP POP JUMP INVALID LOG2 PUSH5 0x6970667358 0x22 SLT KECCAK256 PUSH20 0x9CF61B45F9DA2DB78C4B0E1A4FD21B9A41781F99 0xC9 STOP JUMPI 0xF 0xD0 DIV 0x25 0xD4 LOG2 0xC8 0xEB PUSH5 0x736F6C6343 STOP ADDMOD SLT STOP CALLER "
		},
		"gasEstimates": {
			"creation": {
				"codeDepositCost": "128200",
				"executionCost": "24526",
				"totalCost": "152726"
			},
			"external": {
				"Fail()": "26617",
				"Scholarshp()": "26661",
				"e1()": "2601",
				"e3()": "2610",
				"idelete()": "24452"
			}
		},
		"methodIdentifiers": {
			"Fail()": "552670ff",
			"Scholarshp()": "76c3774b",
			"e1()": "a2c2d666",
			"e3()": "56800b52",
			"idelete()": "ea70a017"
		}
	},
	"abi": [
		{
			"inputs": [],
			"name": "Fail",
			"outputs": [],
			"stateMutability": "nonpayable",
			"type": "function"
		},
		{
			"inputs": [],
			"name": "Scholarshp",
			"outputs": [],
			"stateMutability": "nonpayable",
			"type": "function"
		},
		{
			"inputs": [],
			"name": "e1",
			"outputs": [
				{
					"internalType": "enum Enum.Exam",
					"name": "",
					"type": "uint8"
				}
			],
			"stateMutability": "view",
			"type": "function"
		},
		{
			"inputs": [],
			"name": "e3",
			"outputs": [
				{
					"internalType": "enum Enum.Exam",
					"name": "",
					"type": "uint8"
				}
			],
			"stateMutability": "view",
			"type": "function"
		},
		{
			"inputs": [],
			"name": "idelete",
			"outputs": [],
			"stateMutability": "nonpayable",
			"type": "function"
		}
	]
}