{
	"data": {
		"bytecode": {
			"linkReferences": {},
			"object": "608060405234801561001057600080fd5b5061033a806100206000396000f3fe608060405234801561001057600080fd5b506004361061002b5760003560e01c8063f5485bdf14610030575b600080fd5b61004a600480360381019061004591906101fc565b610061565b6040516100589291906102d4565b60405180910390f35b60006060603c8312610122576050831215801561007f575060648313155b156100c55760016040518060400160405280601181526020017f41636869657665642047726164653a2041000000000000000000000000000000815250915091506101bc565b603c83121580156100d75750604f8313155b1561011d5760016040518060400160405280601181526020017f41636869657665642047726164653a2042000000000000000000000000000000815250915091506101bc565b6101bb565b602883121580156101345750603b8313155b1561017a5760006040518060400160405280601181526020017f41636869657665642047726164653a2043000000000000000000000000000000815250915091506101bc565b60006040518060400160405280601581526020017f426574746572204c75636b204e6578742054696d650000000000000000000000815250915091506101bc565b5b915091565b600080fd5b6000819050919050565b6101d9816101c6565b81146101e457600080fd5b50565b6000813590506101f6816101d0565b92915050565b600060208284031215610212576102116101c1565b5b6000610220848285016101e7565b91505092915050565b60008115159050919050565b61023e81610229565b82525050565b600081519050919050565b600082825260208201905092915050565b60005b8381101561027e578082015181840152602081019050610263565b60008484015250505050565b6000601f19601f8301169050919050565b60006102a682610244565b6102b0818561024f565b93506102c0818560208601610260565b6102c98161028a565b840191505092915050565b60006040820190506102e96000830185610235565b81810360208301526102fb818461029b565b9050939250505056fea2646970667358221220f01b86c90f2d5e8502672c8c5a93b849a2ce78b4c2578dd813827f6f04a65b5964736f6c63430008120033",
			"opcodes": "PUSH1 0x80 PUSH1 0x40 MSTORE CALLVALUE DUP1 ISZERO PUSH2 0x10 JUMPI PUSH1 0x0 DUP1 REVERT JUMPDEST POP PUSH2 0x33A DUP1 PUSH2 0x20 PUSH1 0x0 CODECOPY PUSH1 0x0 RETURN INVALID PUSH1 0x80 PUSH1 0x40 MSTORE CALLVALUE DUP1 ISZERO PUSH2 0x10 JUMPI PUSH1 0x0 DUP1 REVERT JUMPDEST POP PUSH1 0x4 CALLDATASIZE LT PUSH2 0x2B JUMPI PUSH1 0x0 CALLDATALOAD PUSH1 0xE0 SHR DUP1 PUSH4 0xF5485BDF EQ PUSH2 0x30 JUMPI JUMPDEST PUSH1 0x0 DUP1 REVERT JUMPDEST PUSH2 0x4A PUSH1 0x4 DUP1 CALLDATASIZE SUB DUP2 ADD SWAP1 PUSH2 0x45 SWAP2 SWAP1 PUSH2 0x1FC JUMP JUMPDEST PUSH2 0x61 JUMP JUMPDEST PUSH1 0x40 MLOAD PUSH2 0x58 SWAP3 SWAP2 SWAP1 PUSH2 0x2D4 JUMP JUMPDEST PUSH1 0x40 MLOAD DUP1 SWAP2 SUB SWAP1 RETURN JUMPDEST PUSH1 0x0 PUSH1 0x60 PUSH1 0x3C DUP4 SLT PUSH2 0x122 JUMPI PUSH1 0x50 DUP4 SLT ISZERO DUP1 ISZERO PUSH2 0x7F JUMPI POP PUSH1 0x64 DUP4 SGT ISZERO JUMPDEST ISZERO PUSH2 0xC5 JUMPI PUSH1 0x1 PUSH1 0x40 MLOAD DUP1 PUSH1 0x40 ADD PUSH1 0x40 MSTORE DUP1 PUSH1 0x11 DUP2 MSTORE PUSH1 0x20 ADD PUSH32 0x41636869657665642047726164653A2041000000000000000000000000000000 DUP2 MSTORE POP SWAP2 POP SWAP2 POP PUSH2 0x1BC JUMP JUMPDEST PUSH1 0x3C DUP4 SLT ISZERO DUP1 ISZERO PUSH2 0xD7 JUMPI POP PUSH1 0x4F DUP4 SGT ISZERO JUMPDEST ISZERO PUSH2 0x11D JUMPI PUSH1 0x1 PUSH1 0x40 MLOAD DUP1 PUSH1 0x40 ADD PUSH1 0x40 MSTORE DUP1 PUSH1 0x11 DUP2 MSTORE PUSH1 0x20 ADD PUSH32 0x41636869657665642047726164653A2042000000000000000000000000000000 DUP2 MSTORE POP SWAP2 POP SWAP2 POP PUSH2 0x1BC JUMP JUMPDEST PUSH2 0x1BB JUMP JUMPDEST PUSH1 0x28 DUP4 SLT ISZERO DUP1 ISZERO PUSH2 0x134 JUMPI POP PUSH1 0x3B DUP4 SGT ISZERO JUMPDEST ISZERO PUSH2 0x17A JUMPI PUSH1 0x0 PUSH1 0x40 MLOAD DUP1 PUSH1 0x40 ADD PUSH1 0x40 MSTORE DUP1 PUSH1 0x11 DUP2 MSTORE PUSH1 0x20 ADD PUSH32 0x41636869657665642047726164653A2043000000000000000000000000000000 DUP2 MSTORE POP SWAP2 POP SWAP2 POP PUSH2 0x1BC JUMP JUMPDEST PUSH1 0x0 PUSH1 0x40 MLOAD DUP1 PUSH1 0x40 ADD PUSH1 0x40 MSTORE DUP1 PUSH1 0x15 DUP2 MSTORE PUSH1 0x20 ADD PUSH32 0x426574746572204C75636B204E6578742054696D650000000000000000000000 DUP2 MSTORE POP SWAP2 POP SWAP2 POP PUSH2 0x1BC JUMP JUMPDEST JUMPDEST SWAP2 POP SWAP2 JUMP JUMPDEST PUSH1 0x0 DUP1 REVERT JUMPDEST PUSH1 0x0 DUP2 SWAP1 POP SWAP2 SWAP1 POP JUMP JUMPDEST PUSH2 0x1D9 DUP2 PUSH2 0x1C6 JUMP JUMPDEST DUP2 EQ PUSH2 0x1E4 JUMPI PUSH1 0x0 DUP1 REVERT JUMPDEST POP JUMP JUMPDEST PUSH1 0x0 DUP2 CALLDATALOAD SWAP1 POP PUSH2 0x1F6 DUP2 PUSH2 0x1D0 JUMP JUMPDEST SWAP3 SWAP2 POP POP JUMP JUMPDEST PUSH1 0x0 PUSH1 0x20 DUP3 DUP5 SUB SLT ISZERO PUSH2 0x212 JUMPI PUSH2 0x211 PUSH2 0x1C1 JUMP JUMPDEST JUMPDEST PUSH1 0x0 PUSH2 0x220 DUP5 DUP3 DUP6 ADD PUSH2 0x1E7 JUMP JUMPDEST SWAP2 POP POP SWAP3 SWAP2 POP POP JUMP JUMPDEST PUSH1 0x0 DUP2 ISZERO ISZERO SWAP1 POP SWAP2 SWAP1 POP JUMP JUMPDEST PUSH2 0x23E DUP2 PUSH2 0x229 JUMP JUMPDEST DUP3 MSTORE POP POP JUMP JUMPDEST PUSH1 0x0 DUP2 MLOAD SWAP1 POP SWAP2 SWAP1 POP JUMP JUMPDEST PUSH1 0x0 DUP3 DUP3 MSTORE PUSH1 0x20 DUP3 ADD SWAP1 POP SWAP3 SWAP2 POP POP JUMP JUMPDEST PUSH1 0x0 JUMPDEST DUP4 DUP2 LT ISZERO PUSH2 0x27E JUMPI DUP1 DUP3 ADD MLOAD DUP2 DUP5 ADD MSTORE PUSH1 0x20 DUP2 ADD SWAP1 POP PUSH2 0x263 JUMP JUMPDEST PUSH1 0x0 DUP5 DUP5 ADD MSTORE POP POP POP POP JUMP JUMPDEST PUSH1 0x0 PUSH1 0x1F NOT PUSH1 0x1F DUP4 ADD AND SWAP1 POP SWAP2 SWAP1 POP JUMP JUMPDEST PUSH1 0x0 PUSH2 0x2A6 DUP3 PUSH2 0x244 JUMP JUMPDEST PUSH2 0x2B0 DUP2 DUP6 PUSH2 0x24F JUMP JUMPDEST SWAP4 POP PUSH2 0x2C0 DUP2 DUP6 PUSH1 0x20 DUP7 ADD PUSH2 0x260 JUMP JUMPDEST PUSH2 0x2C9 DUP2 PUSH2 0x28A JUMP JUMPDEST DUP5 ADD SWAP2 POP POP SWAP3 SWAP2 POP POP JUMP JUMPDEST PUSH1 0x0 PUSH1 0x40 DUP3 ADD SWAP1 POP PUSH2 0x2E9 PUSH1 0x0 DUP4 ADD DUP6 PUSH2 0x235 JUMP JUMPDEST DUP2 DUP2 SUB PUSH1 0x20 DUP4 ADD MSTORE PUSH2 0x2FB DUP2 DUP5 PUSH2 0x29B JUMP JUMPDEST SWAP1 POP SWAP4 SWAP3 POP POP POP JUMP INVALID LOG2 PUSH5 0x6970667358 0x22 SLT KECCAK256 CREATE SHL DUP7 0xC9 0xF 0x2D 0x5E DUP6 MUL PUSH8 0x2C8C5A93B849A2CE PUSH25 0xB4C2578DD813827F6F04A65B5964736F6C6343000812003300 "
		},
		"gasEstimates": {
			"creation": {
				"codeDepositCost": "165200",
				"executionCost": "208",
				"totalCost": "165408"
			},
			"external": {
				"gradeExam(int256)": "infinite"
			}
		},
		"methodIdentifiers": {
			"gradeExam(int256)": "f5485bdf"
		}
	},
	"abi": [
		{
			"inputs": [
				{
					"internalType": "int256",
					"name": "score",
					"type": "int256"
				}
			],
			"name": "gradeExam",
			"outputs": [
				{
					"internalType": "bool",
					"name": "passed",
					"type": "bool"
				},
				{
					"internalType": "string",
					"name": "grade",
					"type": "string"
				}
			],
			"stateMutability": "pure",
			"type": "function"
		}
	]
}