{
	"data": {
		"bytecode": {
			"linkReferences": {},
			"object": "608060405234801561001057600080fd5b506103a9806100206000396000f3fe608060405234801561001057600080fd5b50600436106100415760003560e01c80632b829ee61461004657806353ed514314610066578063b21cb60714610086575b600080fd5b61004e6100a6565b60405161005d9392919061032e565b60405180910390f35b61006e610137565b60405161007d9392919061032e565b60405180910390f35b61008e6101ca565b60405161009d9392919061032e565b60405180910390f35b60608060006040518060400160405280600481526020017f4d616c650000000000000000000000000000000000000000000000000000000081525092506040518060400160405280600781526020017f416c697368616e000000000000000000000000000000000000000000000000008152509150735b38da6a701c568545dcfcb03fcb875f56beddc49050909192565b6060806000735b38da6a701c568545dcfcb03fcb875f56beddc46040518060400160405280600481526020017f4d616c6500000000000000000000000000000000000000000000000000000000815250906040518060400160405280600781526020017f416c695368616e0000000000000000000000000000000000000000000000000081525090925092509250909192565b6060806000735b38da6a701c568545dcfcb03fcb875f56beddc46040518060400160405280600481526020017f4d616c6500000000000000000000000000000000000000000000000000000000815250906040518060400160405280600781526020017f416c697368616e0000000000000000000000000000000000000000000000000081525090925092509250909192565b600081519050919050565b600082825260208201905092915050565b60005b8381101561029757808201518184015260208101905061027c565b60008484015250505050565b6000601f19601f8301169050919050565b60006102bf8261025d565b6102c98185610268565b93506102d9818560208601610279565b6102e2816102a3565b840191505092915050565b600073ffffffffffffffffffffffffffffffffffffffff82169050919050565b6000610318826102ed565b9050919050565b6103288161030d565b82525050565b6000606082019050818103600083015261034881866102b4565b9050818103602083015261035c81856102b4565b905061036b604083018461031f565b94935050505056fea26469706673582212201b9c3f7a351036be1362210cfaeba4d945a13c242ecc26188a8ba1b7d9d2cbc164736f6c63430008120033",
			"opcodes": "PUSH1 0x80 PUSH1 0x40 MSTORE CALLVALUE DUP1 ISZERO PUSH2 0x10 JUMPI PUSH1 0x0 DUP1 REVERT JUMPDEST POP PUSH2 0x3A9 DUP1 PUSH2 0x20 PUSH1 0x0 CODECOPY PUSH1 0x0 RETURN INVALID PUSH1 0x80 PUSH1 0x40 MSTORE CALLVALUE DUP1 ISZERO PUSH2 0x10 JUMPI PUSH1 0x0 DUP1 REVERT JUMPDEST POP PUSH1 0x4 CALLDATASIZE LT PUSH2 0x41 JUMPI PUSH1 0x0 CALLDATALOAD PUSH1 0xE0 SHR DUP1 PUSH4 0x2B829EE6 EQ PUSH2 0x46 JUMPI DUP1 PUSH4 0x53ED5143 EQ PUSH2 0x66 JUMPI DUP1 PUSH4 0xB21CB607 EQ PUSH2 0x86 JUMPI JUMPDEST PUSH1 0x0 DUP1 REVERT JUMPDEST PUSH2 0x4E PUSH2 0xA6 JUMP JUMPDEST PUSH1 0x40 MLOAD PUSH2 0x5D SWAP4 SWAP3 SWAP2 SWAP1 PUSH2 0x32E JUMP JUMPDEST PUSH1 0x40 MLOAD DUP1 SWAP2 SUB SWAP1 RETURN JUMPDEST PUSH2 0x6E PUSH2 0x137 JUMP JUMPDEST PUSH1 0x40 MLOAD PUSH2 0x7D SWAP4 SWAP3 SWAP2 SWAP1 PUSH2 0x32E JUMP JUMPDEST PUSH1 0x40 MLOAD DUP1 SWAP2 SUB SWAP1 RETURN JUMPDEST PUSH2 0x8E PUSH2 0x1CA JUMP JUMPDEST PUSH1 0x40 MLOAD PUSH2 0x9D SWAP4 SWAP3 SWAP2 SWAP1 PUSH2 0x32E JUMP JUMPDEST PUSH1 0x40 MLOAD DUP1 SWAP2 SUB SWAP1 RETURN JUMPDEST PUSH1 0x60 DUP1 PUSH1 0x0 PUSH1 0x40 MLOAD DUP1 PUSH1 0x40 ADD PUSH1 0x40 MSTORE DUP1 PUSH1 0x4 DUP2 MSTORE PUSH1 0x20 ADD PUSH32 0x4D616C6500000000000000000000000000000000000000000000000000000000 DUP2 MSTORE POP SWAP3 POP PUSH1 0x40 MLOAD DUP1 PUSH1 0x40 ADD PUSH1 0x40 MSTORE DUP1 PUSH1 0x7 DUP2 MSTORE PUSH1 0x20 ADD PUSH32 0x416C697368616E00000000000000000000000000000000000000000000000000 DUP2 MSTORE POP SWAP2 POP PUSH20 0x5B38DA6A701C568545DCFCB03FCB875F56BEDDC4 SWAP1 POP SWAP1 SWAP2 SWAP3 JUMP JUMPDEST PUSH1 0x60 DUP1 PUSH1 0x0 PUSH20 0x5B38DA6A701C568545DCFCB03FCB875F56BEDDC4 PUSH1 0x40 MLOAD DUP1 PUSH1 0x40 ADD PUSH1 0x40 MSTORE DUP1 PUSH1 0x4 DUP2 MSTORE PUSH1 0x20 ADD PUSH32 0x4D616C6500000000000000000000000000000000000000000000000000000000 DUP2 MSTORE POP SWAP1 PUSH1 0x40 MLOAD DUP1 PUSH1 0x40 ADD PUSH1 0x40 MSTORE DUP1 PUSH1 0x7 DUP2 MSTORE PUSH1 0x20 ADD PUSH32 0x416C695368616E00000000000000000000000000000000000000000000000000 DUP2 MSTORE POP SWAP1 SWAP3 POP SWAP3 POP SWAP3 POP SWAP1 SWAP2 SWAP3 JUMP JUMPDEST PUSH1 0x60 DUP1 PUSH1 0x0 PUSH20 0x5B38DA6A701C568545DCFCB03FCB875F56BEDDC4 PUSH1 0x40 MLOAD DUP1 PUSH1 0x40 ADD PUSH1 0x40 MSTORE DUP1 PUSH1 0x4 DUP2 MSTORE PUSH1 0x20 ADD PUSH32 0x4D616C6500000000000000000000000000000000000000000000000000000000 DUP2 MSTORE POP SWAP1 PUSH1 0x40 MLOAD DUP1 PUSH1 0x40 ADD PUSH1 0x40 MSTORE DUP1 PUSH1 0x7 DUP2 MSTORE PUSH1 0x20 ADD PUSH32 0x416C697368616E00000000000000000000000000000000000000000000000000 DUP2 MSTORE POP SWAP1 SWAP3 POP SWAP3 POP SWAP3 POP SWAP1 SWAP2 SWAP3 JUMP JUMPDEST PUSH1 0x0 DUP2 MLOAD SWAP1 POP SWAP2 SWAP1 POP JUMP JUMPDEST PUSH1 0x0 DUP3 DUP3 MSTORE PUSH1 0x20 DUP3 ADD SWAP1 POP SWAP3 SWAP2 POP POP JUMP JUMPDEST PUSH1 0x0 JUMPDEST DUP4 DUP2 LT ISZERO PUSH2 0x297 JUMPI DUP1 DUP3 ADD MLOAD DUP2 DUP5 ADD MSTORE PUSH1 0x20 DUP2 ADD SWAP1 POP PUSH2 0x27C JUMP JUMPDEST PUSH1 0x0 DUP5 DUP5 ADD MSTORE POP POP POP POP JUMP JUMPDEST PUSH1 0x0 PUSH1 0x1F NOT PUSH1 0x1F DUP4 ADD AND SWAP1 POP SWAP2 SWAP1 POP JUMP JUMPDEST PUSH1 0x0 PUSH2 0x2BF DUP3 PUSH2 0x25D JUMP JUMPDEST PUSH2 0x2C9 DUP2 DUP6 PUSH2 0x268 JUMP JUMPDEST SWAP4 POP PUSH2 0x2D9 DUP2 DUP6 PUSH1 0x20 DUP7 ADD PUSH2 0x279 JUMP JUMPDEST PUSH2 0x2E2 DUP2 PUSH2 0x2A3 JUMP JUMPDEST DUP5 ADD SWAP2 POP POP SWAP3 SWAP2 POP POP JUMP JUMPDEST PUSH1 0x0 PUSH20 0xFFFFFFFFFFFFFFFFFFFFFFFFFFFFFFFFFFFFFFFF DUP3 AND SWAP1 POP SWAP2 SWAP1 POP JUMP JUMPDEST PUSH1 0x0 PUSH2 0x318 DUP3 PUSH2 0x2ED JUMP JUMPDEST SWAP1 POP SWAP2 SWAP1 POP JUMP JUMPDEST PUSH2 0x328 DUP2 PUSH2 0x30D JUMP JUMPDEST DUP3 MSTORE POP POP JUMP JUMPDEST PUSH1 0x0 PUSH1 0x60 DUP3 ADD SWAP1 POP DUP2 DUP2 SUB PUSH1 0x0 DUP4 ADD MSTORE PUSH2 0x348 DUP2 DUP7 PUSH2 0x2B4 JUMP JUMPDEST SWAP1 POP DUP2 DUP2 SUB PUSH1 0x20 DUP4 ADD MSTORE PUSH2 0x35C DUP2 DUP6 PUSH2 0x2B4 JUMP JUMPDEST SWAP1 POP PUSH2 0x36B PUSH1 0x40 DUP4 ADD DUP5 PUSH2 0x31F JUMP JUMPDEST SWAP5 SWAP4 POP POP POP POP JUMP INVALID LOG2 PUSH5 0x6970667358 0x22 SLT KECCAK256 SHL SWAP13 EXTCODEHASH PUSH27 0x351036BE1362210CFAEBA4D945A13C242ECC26188A8BA1B7D9D2CB 0xC1 PUSH5 0x736F6C6343 STOP ADDMOD SLT STOP CALLER "
		},
		"gasEstimates": {
			"creation": {
				"codeDepositCost": "187400",
				"executionCost": "232",
				"totalCost": "187632"
			},
			"external": {
				"getAll()": "infinite",
				"getAll2()": "infinite",
				"getAll3()": "infinite"
			}
		},
		"methodIdentifiers": {
			"getAll()": "53ed5143",
			"getAll2()": "b21cb607",
			"getAll3()": "2b829ee6"
		}
	},
	"abi": [
		{
			"inputs": [],
			"name": "getAll",
			"outputs": [
				{
					"internalType": "string",
					"name": "",
					"type": "string"
				},
				{
					"internalType": "string",
					"name": "",
					"type": "string"
				},
				{
					"internalType": "address",
					"name": "",
					"type": "address"
				}
			],
			"stateMutability": "pure",
			"type": "function"
		},
		{
			"inputs": [],
			"name": "getAll2",
			"outputs": [
				{
					"internalType": "string",
					"name": "x",
					"type": "string"
				},
				{
					"internalType": "string",
					"name": "y",
					"type": "string"
				},
				{
					"internalType": "address",
					"name": "z",
					"type": "address"
				}
			],
			"stateMutability": "pure",
			"type": "function"
		},
		{
			"inputs": [],
			"name": "getAll3",
			"outputs": [
				{
					"internalType": "string",
					"name": "x",
					"type": "string"
				},
				{
					"internalType": "string",
					"name": "y",
					"type": "string"
				},
				{
					"internalType": "address",
					"name": "z",
					"type": "address"
				}
			],
			"stateMutability": "pure",
			"type": "function"
		}
	]
}